{
  "address": "0x6f42BfAe79aefA1f99553770ACd24A4A037039c1",
  "abi": [
    {
      "inputs": [],
      "stateMutability": "nonpayable",
      "type": "constructor"
    },
    {
      "inputs": [
        {
          "internalType": "address",
          "name": "group",
          "type": "address"
        }
      ],
      "name": "FailedToAddActiveGroup",
      "type": "error"
    },
    {
      "inputs": [
        {
          "internalType": "address",
          "name": "group",
          "type": "address"
        }
      ],
      "name": "FailedToAddDeprecatedGroup",
      "type": "error"
    },
    {
      "inputs": [
        {
          "internalType": "address",
          "name": "group",
          "type": "address"
        }
      ],
      "name": "FailedToRemoveDeprecatedGroup",
      "type": "error"
    },
    {
      "inputs": [
        {
          "internalType": "address",
          "name": "group",
          "type": "address"
        }
      ],
      "name": "GroupAlreadyAdded",
      "type": "error"
    },
    {
      "inputs": [
        {
          "internalType": "address",
          "name": "group",
          "type": "address"
        }
      ],
      "name": "GroupNotActive",
      "type": "error"
    },
    {
      "inputs": [],
      "name": "MaxGroupsVotedForReached",
      "type": "error"
    },
    {
      "inputs": [],
      "name": "NoActiveGroups",
      "type": "error"
    },
    {
      "inputs": [],
      "name": "NoGroups",
      "type": "error"
    },
    {
      "inputs": [],
      "name": "NoVotableGroups",
      "type": "error"
    },
    {
      "inputs": [],
      "name": "ZeroWithdrawal",
      "type": "error"
    },
    {
      "anonymous": false,
      "inputs": [
        {
          "indexed": false,
          "internalType": "address",
          "name": "previousAdmin",
          "type": "address"
        },
        {
          "indexed": false,
          "internalType": "address",
          "name": "newAdmin",
          "type": "address"
        }
      ],
      "name": "AdminChanged",
      "type": "event"
    },
    {
      "anonymous": false,
      "inputs": [
        {
          "indexed": true,
          "internalType": "address",
          "name": "beacon",
          "type": "address"
        }
      ],
      "name": "BeaconUpgraded",
      "type": "event"
    },
    {
      "anonymous": false,
      "inputs": [
        {
          "indexed": true,
          "internalType": "address",
          "name": "group",
          "type": "address"
        }
      ],
      "name": "GroupActivated",
      "type": "event"
    },
    {
      "anonymous": false,
      "inputs": [
        {
          "indexed": true,
          "internalType": "address",
          "name": "group",
          "type": "address"
        }
      ],
      "name": "GroupDeprecated",
      "type": "event"
    },
    {
      "anonymous": false,
      "inputs": [
        {
          "indexed": true,
          "internalType": "address",
          "name": "group",
          "type": "address"
        }
      ],
      "name": "GroupRemoved",
      "type": "event"
    },
    {
      "anonymous": false,
      "inputs": [
        {
          "indexed": true,
          "internalType": "address",
          "name": "previousOwner",
          "type": "address"
        },
        {
          "indexed": true,
          "internalType": "address",
          "name": "newOwner",
          "type": "address"
        }
      ],
      "name": "OwnershipTransferred",
      "type": "event"
    },
    {
      "anonymous": false,
      "inputs": [
        {
          "indexed": true,
          "internalType": "address",
          "name": "implementation",
          "type": "address"
        }
      ],
      "name": "Upgraded",
      "type": "event"
    },
    {
      "inputs": [
        {
          "internalType": "address",
          "name": "group",
          "type": "address"
        }
      ],
      "name": "activateGroup",
      "outputs": [],
      "stateMutability": "nonpayable",
      "type": "function"
    },
    {
      "inputs": [],
      "name": "deposit",
      "outputs": [],
      "stateMutability": "payable",
      "type": "function"
    },
    {
      "inputs": [
        {
          "internalType": "address",
          "name": "group",
          "type": "address"
        }
      ],
      "name": "deprecateGroup",
      "outputs": [],
      "stateMutability": "nonpayable",
      "type": "function"
    },
    {
      "inputs": [],
      "name": "getDeprecatedGroups",
      "outputs": [
        {
          "internalType": "address[]",
          "name": "",
          "type": "address[]"
        }
      ],
      "stateMutability": "view",
      "type": "function"
    },
    {
      "inputs": [],
      "name": "getGroups",
      "outputs": [
        {
          "internalType": "address[]",
          "name": "",
          "type": "address[]"
        }
      ],
      "stateMutability": "view",
      "type": "function"
    },
    {
      "inputs": [
        {
          "internalType": "address",
          "name": "_registry",
          "type": "address"
        },
        {
          "internalType": "address",
          "name": "_owner",
          "type": "address"
        }
      ],
      "name": "initialize",
      "outputs": [],
      "stateMutability": "nonpayable",
      "type": "function"
    },
    {
      "inputs": [],
      "name": "owner",
      "outputs": [
        {
          "internalType": "address",
          "name": "",
          "type": "address"
        }
      ],
      "stateMutability": "view",
      "type": "function"
    },
    {
      "inputs": [],
      "name": "registry",
      "outputs": [
        {
          "internalType": "contract IRegistry",
          "name": "",
          "type": "address"
        }
      ],
      "stateMutability": "view",
      "type": "function"
    },
    {
      "inputs": [],
      "name": "renounceOwnership",
      "outputs": [],
      "stateMutability": "nonpayable",
      "type": "function"
    },
    {
      "inputs": [
        {
          "internalType": "address",
          "name": "_stakedCelo",
          "type": "address"
        },
        {
          "internalType": "address",
          "name": "_account",
          "type": "address"
        }
      ],
      "name": "setDependencies",
      "outputs": [],
      "stateMutability": "nonpayable",
      "type": "function"
    },
    {
      "inputs": [
        {
          "internalType": "uint256",
          "name": "stCeloAmount",
          "type": "uint256"
        }
      ],
      "name": "toCelo",
      "outputs": [
        {
          "internalType": "uint256",
          "name": "",
          "type": "uint256"
        }
      ],
      "stateMutability": "view",
      "type": "function"
    },
    {
      "inputs": [
        {
          "internalType": "uint256",
          "name": "celoAmount",
          "type": "uint256"
        }
      ],
      "name": "toStakedCelo",
      "outputs": [
        {
          "internalType": "uint256",
          "name": "",
          "type": "uint256"
        }
      ],
      "stateMutability": "view",
      "type": "function"
    },
    {
      "inputs": [
        {
          "internalType": "address",
          "name": "newOwner",
          "type": "address"
        }
      ],
      "name": "transferOwnership",
      "outputs": [],
      "stateMutability": "nonpayable",
      "type": "function"
    },
    {
      "inputs": [
        {
          "internalType": "address",
          "name": "newImplementation",
          "type": "address"
        }
      ],
      "name": "upgradeTo",
      "outputs": [],
      "stateMutability": "nonpayable",
      "type": "function"
    },
    {
      "inputs": [
        {
          "internalType": "address",
          "name": "newImplementation",
          "type": "address"
        },
        {
          "internalType": "bytes",
          "name": "data",
          "type": "bytes"
        }
      ],
      "name": "upgradeToAndCall",
      "outputs": [],
      "stateMutability": "payable",
      "type": "function"
    },
    {
      "inputs": [
        {
          "internalType": "uint256",
          "name": "stakedCeloAmount",
          "type": "uint256"
        }
      ],
      "name": "withdraw",
      "outputs": [],
      "stateMutability": "nonpayable",
      "type": "function"
    }
  ],
  "transactionHash": "0x0219b3a31ba32a2136219f02367b7f8e0cde75cea68465cf51b0791193512872",
  "args": [],
  "numDeployments": 1,
  "solcInputHash": "be855ca668220f474f4940642320bf33",
  "bytecode": "0x60a06040523073ffffffffffffffffffffffffffffffffffffffff1660809073ffffffffffffffffffffffffffffffffffffffff168152503480156200004457600080fd5b50600060019054906101000a900460ff166200006f5760008054906101000a900460ff161562000080565b6200007f6200013c60201b60201c565b5b620000c2576040517f08c379a0000000000000000000000000000000000000000000000000000000008152600401620000b99062000204565b60405180910390fd5b60008060019054906101000a900460ff16159050801562000113576001600060016101000a81548160ff02191690831515021790555060016000806101000a81548160ff0219169083151502179055505b8015620001355760008060016101000a81548160ff0219169083151502179055505b5062000226565b600062000154306200015a60201b620013e21760201c565b15905090565b6000808273ffffffffffffffffffffffffffffffffffffffff163b119050919050565b600082825260208201905092915050565b7f496e697469616c697a61626c653a20636f6e747261637420697320616c72656160008201527f647920696e697469616c697a6564000000000000000000000000000000000000602082015250565b6000620001ec602e836200017d565b9150620001f9826200018e565b604082019050919050565b600060208201905081810360008301526200021f81620001dd565b9050919050565b6080516143fa620002576000396000818161083b015281816108ca01528181610abc0152610b4b01526143fa6000f3fe6080604052600436106100f35760003560e01c80637b1039991161008a578063c72b517611610059578063c72b5176146102f3578063d0e30db01461031e578063e87c28a714610328578063f2fde38b14610351576100f3565b80637b103999146102355780637b4c1b75146102605780638da5cb5b1461028b578063c494ec1e146102b6576100f3565b8063485cc955116100c6578063485cc955146101b05780634f1ef286146101d9578063715018a6146101f5578063756887301461020c576100f3565b806304de86e8146100f85780630567847f146101215780632e1a7d4d1461015e5780633659cfe614610187575b600080fd5b34801561010457600080fd5b5061011f600480360381019061011a9190613418565b61037a565b005b34801561012d57600080fd5b506101486004803603810190610143919061347b565b6105d3565b60405161015591906134b7565b60405180910390f35b34801561016a57600080fd5b506101856004803603810190610180919061347b565b61073d565b005b34801561019357600080fd5b506101ae60048036038101906101a99190613418565b610839565b005b3480156101bc57600080fd5b506101d760048036038101906101d291906134d2565b6109c2565b005b6101f360048036038101906101ee9190613658565b610aba565b005b34801561020157600080fd5b5061020a610bf7565b005b34801561021857600080fd5b50610233600480360381019061022e9190613418565b610c7f565b005b34801561024157600080fd5b5061024a610f26565b6040516102579190613713565b60405180910390f35b34801561026c57600080fd5b50610275610f4c565b60405161028291906137ec565b60405180910390f35b34801561029757600080fd5b506102a0610f5d565b6040516102ad919061381d565b60405180910390f35b3480156102c257600080fd5b506102dd60048036038101906102d8919061347b565b610f87565b6040516102ea91906134b7565b60405180910390f35b3480156102ff57600080fd5b506103086110f1565b60405161031591906137ec565b60405180910390f35b610326611102565b005b34801561033457600080fd5b5061034f600480360381019061034a91906134d2565b6111e8565b005b34801561035d57600080fd5b5061037860048036038101906103739190613418565b6112ea565b005b610382611405565b73ffffffffffffffffffffffffffffffffffffffff166103a0610f5d565b73ffffffffffffffffffffffffffffffffffffffff16146103f6576040517f08c379a00000000000000000000000000000000000000000000000000000000081526004016103ed90613895565b60405180910390fd5b61040a81606861140d90919063ffffffff16565b61044b57806040517f1adbb153000000000000000000000000000000000000000000000000000000008152600401610442919061381d565b60405180910390fd5b8073ffffffffffffffffffffffffffffffffffffffff167f9d43d19c4e20849e2330b455068517bf1ebb0ebf9f9ad171e6906743aa65318660405160405180910390a26000606760009054906101000a900473ffffffffffffffffffffffffffffffffffffffff1673ffffffffffffffffffffffffffffffffffffffff1663acd201d0836040518263ffffffff1660e01b81526004016104eb919061381d565b602060405180830381865afa158015610508573d6000803e3d6000fd5b505050506040513d601f19601f8201168201806040525081019061052c91906138ca565b111561058c5761054681606a61143d90919063ffffffff16565b61058757806040517f817469c100000000000000000000000000000000000000000000000000000000815260040161057e919061381d565b60405180910390fd5b6105d0565b8073ffffffffffffffffffffffffffffffffffffffff167fa78a88a551e130ce9732be17784bdff12f72ab4a2c833fb2dcb3ef0818956b0360405160405180910390a25b50565b600080606660009054906101000a900473ffffffffffffffffffffffffffffffffffffffff1673ffffffffffffffffffffffffffffffffffffffff166318160ddd6040518163ffffffff1660e01b8152600401602060405180830381865afa158015610643573d6000803e3d6000fd5b505050506040513d601f19601f8201168201806040525081019061066791906138ca565b90506000606760009054906101000a900473ffffffffffffffffffffffffffffffffffffffff1673ffffffffffffffffffffffffffffffffffffffff166301d2b6ea6040518163ffffffff1660e01b8152600401602060405180830381865afa1580156106d8573d6000803e3d6000fd5b505050506040513d601f19601f820116820180604052508101906106fc91906138ca565b9050600082148061070d5750600081145b1561071c578392505050610738565b8181856107299190613926565b61073391906139af565b925050505b919050565b6000610749606a61146d565b610753606861146d565b61075d91906139e0565b1415610795576040517f377b56d200000000000000000000000000000000000000000000000000000000815260040160405180910390fd5b6107a76107a1826105d3565b33611482565b606660009054906101000a900473ffffffffffffffffffffffffffffffffffffffff1673ffffffffffffffffffffffffffffffffffffffff16639dc29fac33836040518363ffffffff1660e01b8152600401610804929190613a36565b600060405180830381600087803b15801561081e57600080fd5b505af1158015610832573d6000803e3d6000fd5b5050505050565b7f000000000000000000000000000000000000000000000000000000000000000073ffffffffffffffffffffffffffffffffffffffff163073ffffffffffffffffffffffffffffffffffffffff1614156108c8576040517f08c379a00000000000000000000000000000000000000000000000000000000081526004016108bf90613ad1565b60405180910390fd5b7f000000000000000000000000000000000000000000000000000000000000000073ffffffffffffffffffffffffffffffffffffffff166109076117d6565b73ffffffffffffffffffffffffffffffffffffffff161461095d576040517f08c379a000000000000000000000000000000000000000000000000000000000815260040161095490613b63565b60405180910390fd5b6109668161182d565b6109bf81600067ffffffffffffffff8111156109855761098461352d565b5b6040519080825280601f01601f1916602001820160405280156109b75781602001600182028036833780820191505090505b5060006118ac565b50565b600060019054906101000a900460ff166109ea5760008054906101000a900460ff16156109f3565b6109f2611a7d565b5b610a32576040517f08c379a0000000000000000000000000000000000000000000000000000000008152600401610a2990613bf5565b60405180910390fd5b60008060019054906101000a900460ff161590508015610a82576001600060016101000a81548160ff02191690831515021790555060016000806101000a81548160ff0219169083151502179055505b610a8b82611a8e565b610a9483611b54565b8015610ab55760008060016101000a81548160ff0219169083151502179055505b505050565b7f000000000000000000000000000000000000000000000000000000000000000073ffffffffffffffffffffffffffffffffffffffff163073ffffffffffffffffffffffffffffffffffffffff161415610b49576040517f08c379a0000000000000000000000000000000000000000000000000000000008152600401610b4090613ad1565b60405180910390fd5b7f000000000000000000000000000000000000000000000000000000000000000073ffffffffffffffffffffffffffffffffffffffff16610b886117d6565b73ffffffffffffffffffffffffffffffffffffffff1614610bde576040517f08c379a0000000000000000000000000000000000000000000000000000000008152600401610bd590613b63565b60405180910390fd5b610be78261182d565b610bf3828260016118ac565b5050565b610bff611405565b73ffffffffffffffffffffffffffffffffffffffff16610c1d610f5d565b73ffffffffffffffffffffffffffffffffffffffff1614610c73576040517f08c379a0000000000000000000000000000000000000000000000000000000008152600401610c6a90613895565b60405180910390fd5b610c7d6000611a8e565b565b610c87611405565b73ffffffffffffffffffffffffffffffffffffffff16610ca5610f5d565b73ffffffffffffffffffffffffffffffffffffffff1614610cfb576040517f08c379a0000000000000000000000000000000000000000000000000000000008152600401610cf290613895565b60405180910390fd5b610d0f816068611c6590919063ffffffff16565b15610d5157806040517fbd133eee000000000000000000000000000000000000000000000000000000008152600401610d48919061381d565b60405180910390fd5b610d6581606a611c6590919063ffffffff16565b15610dc057610d7e81606a61140d90919063ffffffff16565b610dbf57806040517fbe8534b7000000000000000000000000000000000000000000000000000000008152600401610db6919061381d565b60405180910390fd5b5b610dc8611c95565b73ffffffffffffffffffffffffffffffffffffffff1663ac839d696040518163ffffffff1660e01b8152600401602060405180830381865afa158015610e12573d6000803e3d6000fd5b505050506040513d601f19601f82011682018060405250810190610e3691906138ca565b610e40606a61146d565b610e4a606861146d565b610e5491906139e0565b10610e8b576040517fae906d4200000000000000000000000000000000000000000000000000000000815260040160405180910390fd5b610e9f81606861143d90919063ffffffff16565b610ee057806040517f620f409a000000000000000000000000000000000000000000000000000000008152600401610ed7919061381d565b60405180910390fd5b8073ffffffffffffffffffffffffffffffffffffffff167f0503b4748a47435f2432d46ef300e0e2dc47baa0e5f04bb3bd8a355ee1e1dbe660405160405180910390a250565b606560009054906101000a900473ffffffffffffffffffffffffffffffffffffffff1681565b6060610f58606a611d5c565b905090565b6000603360009054906101000a900473ffffffffffffffffffffffffffffffffffffffff16905090565b600080606660009054906101000a900473ffffffffffffffffffffffffffffffffffffffff1673ffffffffffffffffffffffffffffffffffffffff166318160ddd6040518163ffffffff1660e01b8152600401602060405180830381865afa158015610ff7573d6000803e3d6000fd5b505050506040513d601f19601f8201168201806040525081019061101b91906138ca565b90506000606760009054906101000a900473ffffffffffffffffffffffffffffffffffffffff1673ffffffffffffffffffffffffffffffffffffffff166301d2b6ea6040518163ffffffff1660e01b8152600401602060405180830381865afa15801561108c573d6000803e3d6000fd5b505050506040513d601f19601f820116820180604052508101906110b091906138ca565b905060008214806110c15750600081145b156110d05783925050506110ec565b8082856110dd9190613926565b6110e791906139af565b925050505b919050565b60606110fd6068611d5c565b905090565b600061110e606861146d565b1415611146576040517f7818a60e00000000000000000000000000000000000000000000000000000000815260040160405180910390fd5b606660009054906101000a900473ffffffffffffffffffffffffffffffffffffffff1673ffffffffffffffffffffffffffffffffffffffff166340c10f193361118e34610f87565b6040518363ffffffff1660e01b81526004016111ab929190613a36565b600060405180830381600087803b1580156111c557600080fd5b505af11580156111d9573d6000803e3d6000fd5b505050506111e634611d7d565b565b6111f0611405565b73ffffffffffffffffffffffffffffffffffffffff1661120e610f5d565b73ffffffffffffffffffffffffffffffffffffffff1614611264576040517f08c379a000000000000000000000000000000000000000000000000000000000815260040161125b90613895565b60405180910390fd5b81606660006101000a81548173ffffffffffffffffffffffffffffffffffffffff021916908373ffffffffffffffffffffffffffffffffffffffff16021790555080606760006101000a81548173ffffffffffffffffffffffffffffffffffffffff021916908373ffffffffffffffffffffffffffffffffffffffff1602179055505050565b6112f2611405565b73ffffffffffffffffffffffffffffffffffffffff16611310610f5d565b73ffffffffffffffffffffffffffffffffffffffff1614611366576040517f08c379a000000000000000000000000000000000000000000000000000000000815260040161135d90613895565b60405180910390fd5b600073ffffffffffffffffffffffffffffffffffffffff168173ffffffffffffffffffffffffffffffffffffffff1614156113d6576040517f08c379a00000000000000000000000000000000000000000000000000000000081526004016113cd90613c87565b60405180910390fd5b6113df81611a8e565b50565b6000808273ffffffffffffffffffffffffffffffffffffffff163b119050919050565b600033905090565b6000611435836000018373ffffffffffffffffffffffffffffffffffffffff1660001b61219a565b905092915050565b6000611465836000018373ffffffffffffffffffffffffffffffffffffffff1660001b6122ae565b905092915050565b600061147b8260000161231e565b9050919050565b60008214156114bd576040517fc60050c000000000000000000000000000000000000000000000000000000000815260040160405180910390fd5b60608060006114cb8561232f565b809850819450829550839650505050506060806114e78761269a565b809250819350505060008383516114fe91906139e0565b67ffffffffffffffff8111156115175761151661352d565b5b6040519080825280602002602001820160405280156115455781602001602082028036833780820191505090505b509050600084845161155791906139e0565b67ffffffffffffffff8111156115705761156f61352d565b5b60405190808252806020026020018201604052801561159e5781602001602082028036833780820191505090505b50905060005b85811015611661578781815181106115bf576115be613ca7565b5b60200260200101518382815181106115da576115d9613ca7565b5b602002602001019073ffffffffffffffffffffffffffffffffffffffff16908173ffffffffffffffffffffffffffffffffffffffff168152505086818151811061162757611626613ca7565b5b602002602001015182828151811061164257611641613ca7565b5b602002602001018181525050808061165990613cd6565b9150506115a4565b5060005b84518110156117395784818151811061168157611680613ca7565b5b602002602001015183878361169691906139e0565b815181106116a7576116a6613ca7565b5b602002602001019073ffffffffffffffffffffffffffffffffffffffff16908173ffffffffffffffffffffffffffffffffffffffff16815250508381815181106116f4576116f3613ca7565b5b602002602001015182878361170991906139e0565b8151811061171a57611719613ca7565b5b602002602001018181525050808061173190613cd6565b915050611665565b50606760009054906101000a900473ffffffffffffffffffffffffffffffffffffffff1673ffffffffffffffffffffffffffffffffffffffff16635636965683838b6040518463ffffffff1660e01b815260040161179993929190613ddd565b600060405180830381600087803b1580156117b357600080fd5b505af11580156117c7573d6000803e3d6000fd5b50505050505050505050505050565b60006118047f360894a13ba1a3210667c828492db98dca3e2076cc3735a920a3ca505d382bbc60001b612a1a565b60000160009054906101000a900473ffffffffffffffffffffffffffffffffffffffff16905090565b611835611405565b73ffffffffffffffffffffffffffffffffffffffff16611853610f5d565b73ffffffffffffffffffffffffffffffffffffffff16146118a9576040517f08c379a00000000000000000000000000000000000000000000000000000000081526004016118a090613895565b60405180910390fd5b50565b60006118b66117d6565b90506118c184612a24565b6000835111806118ce5750815b156118df576118dd8484612add565b505b600061190d7f4910fdfa16fed3260ed0e7147f7cc6da11a60208b5b9406d12a635614ffd914360001b612b0a565b90508060000160009054906101000a900460ff16611a765760018160000160006101000a81548160ff0219169083151502179055506119d98583604051602401611957919061381d565b6040516020818303038152906040527f3659cfe6000000000000000000000000000000000000000000000000000000007bffffffffffffffffffffffffffffffffffffffffffffffffffffffff19166020820180517bffffffffffffffffffffffffffffffffffffffffffffffffffffffff8381831617835250505050612add565b5060008160000160006101000a81548160ff0219169083151502179055506119ff6117d6565b73ffffffffffffffffffffffffffffffffffffffff168273ffffffffffffffffffffffffffffffffffffffff1614611a6c576040517f08c379a0000000000000000000000000000000000000000000000000000000008152600401611a6390613e94565b60405180910390fd5b611a7585612b14565b5b5050505050565b6000611a88306113e2565b15905090565b6000603360009054906101000a900473ffffffffffffffffffffffffffffffffffffffff16905081603360006101000a81548173ffffffffffffffffffffffffffffffffffffffff021916908373ffffffffffffffffffffffffffffffffffffffff1602179055508173ffffffffffffffffffffffffffffffffffffffff168173ffffffffffffffffffffffffffffffffffffffff167f8be0079c531659141344cd1fd0a4f28419497f9722a3daafe3b4186f6b6457e060405160405180910390a35050565b600060019054906101000a900460ff16611ba3576040517f08c379a0000000000000000000000000000000000000000000000000000000008152600401611b9a90613f26565b60405180910390fd5b600073ffffffffffffffffffffffffffffffffffffffff168173ffffffffffffffffffffffffffffffffffffffff161415611c205761ce10606560006101000a81548173ffffffffffffffffffffffffffffffffffffffff021916908373ffffffffffffffffffffffffffffffffffffffff160217905550611c62565b80606560006101000a81548173ffffffffffffffffffffffffffffffffffffffff021916908373ffffffffffffffffffffffffffffffffffffffff1602179055505b50565b6000611c8d836000018373ffffffffffffffffffffffffffffffffffffffff1660001b612b63565b905092915050565b6000606560009054906101000a900473ffffffffffffffffffffffffffffffffffffffff1673ffffffffffffffffffffffffffffffffffffffff1663dcf0aaed604051602001611ce490613f9d565b604051602081830303815290604052805190602001206040518263ffffffff1660e01b8152600401611d169190613fcb565b602060405180830381865afa158015611d33573d6000803e3d6000fd5b505050506040513d601f19601f82011682018060405250810190611d579190613ffb565b905090565b60606000611d6c83600001612b86565b905060608190508092505050919050565b6000611d8882612be2565b9050600081511415611dc6576040517fd978e43100000000000000000000000000000000000000000000000000000000815260040160405180910390fd5b60606000611dd383612eeb565b80925081935050508381611de791906139e0565b90506000835167ffffffffffffffff811115611e0657611e0561352d565b5b604051908082528060200260200182016040528015611e345781602001602082028036833780820191505090505b50905060008451905060008184611e4b91906139af565b90506000865190505b6000811115611f9f576000600182611e6c9190614028565b905082878281518110611e8257611e81613ca7565b5b60200260200101516020015110611f01578380611e9e9061405c565b945050868181518110611eb457611eb3613ca7565b5b60200260200101516020015186611ecb9190614028565b95508386611ed991906139af565b92506000858281518110611ef057611eef613ca7565b5b602002602001018181525050611f8b565b868181518110611f1457611f13613ca7565b5b60200260200101516020015183611f2b9190614028565b858281518110611f3e57611f3d613ca7565b5b602002602001018181525050808487611f579190614086565b1115611f8a57848181518110611f7057611f6f613ca7565b5b602002602001018051809190611f8590613cd6565b815250505b5b508080611f979061405c565b915050611e54565b5060008267ffffffffffffffff811115611fbc57611fbb61352d565b5b604051908082528060200260200182016040528015611fea5781602001602082028036833780820191505090505b50905060008367ffffffffffffffff8111156120095761200861352d565b5b6040519080825280602002602001820160405280156120375781602001602082028036833780820191505090505b50905060005b848110156120fe5787818151811061205857612057613ca7565b5b60200260200101516000015183828151811061207757612076613ca7565b5b602002602001019073ffffffffffffffffffffffffffffffffffffffff16908173ffffffffffffffffffffffffffffffffffffffff16815250508581815181106120c4576120c3613ca7565b5b60200260200101518282815181106120df576120de613ca7565b5b60200260200101818152505080806120f690613cd6565b91505061203d565b50606760009054906101000a900473ffffffffffffffffffffffffffffffffffffffff1673ffffffffffffffffffffffffffffffffffffffff166301c21d598a84846040518463ffffffff1660e01b815260040161215d9291906140b7565b6000604051808303818588803b15801561217657600080fd5b505af115801561218a573d6000803e3d6000fd5b5050505050505050505050505050565b600080836001016000848152602001908152602001600020549050600081146122a25760006001826121cc9190614028565b90506000600186600001805490506121e49190614028565b905081811461225357600086600001828154811061220557612204613ca7565b5b906000526020600020015490508087600001848154811061222957612228613ca7565b5b90600052602060002001819055508387600101600083815260200190815260200160002081905550505b85600001805480612267576122666140ee565b5b6001900381819060005260206000200160009055905585600101600086815260200190815260200160002060009055600193505050506122a8565b60009150505b92915050565b60006122ba8383612b63565b612313578260000182908060018154018082558091505060019003906000526020600020016000909190919091505582600001805490508360010160008481526020019081526020016000208190555060019050612318565b600090505b92915050565b600081600001805490509050919050565b6060806000808490506000612344606a61146d565b90508067ffffffffffffffff8111156123605761235f61352d565b5b60405190808252806020026020018201604052801561238e5781602001602082028036833780820191505090505b5094508067ffffffffffffffff8111156123ab576123aa61352d565b5b6040519080825280602002602001820160405280156123d95781602001602082028036833780820191505090505b5093506000925060005b818110156126915783806123f690613cd6565b94505061240d81606a6130aa90919063ffffffff16565b8682815181106124205761241f613ca7565b5b602002602001019073ffffffffffffffffffffffffffffffffffffffff16908173ffffffffffffffffffffffffffffffffffffffff16815250506000606760009054906101000a900473ffffffffffffffffffffffffffffffffffffffff1673ffffffffffffffffffffffffffffffffffffffff1663acd201d08884815181106124ad576124ac613ca7565b5b60200260200101516040518263ffffffff1660e01b81526004016124d1919061381d565b602060405180830381865afa1580156124ee573d6000803e3d6000fd5b505050506040513d601f19601f8201168201806040525081019061251291906138ca565b905061251e84826130c4565b86838151811061253157612530613ca7565b5b6020026020010181815250508582815181106125505761254f613ca7565b5b6020026020010151846125639190614028565b935085828151811061257857612577613ca7565b5b602002602001015181141561266e576125b587838151811061259d5761259c613ca7565b5b6020026020010151606a61140d90919063ffffffff16565b612610578682815181106125cc576125cb613ca7565b5b60200260200101516040517fbe8534b7000000000000000000000000000000000000000000000000000000008152600401612607919061381d565b60405180910390fd5b86828151811061262357612622613ca7565b5b602002602001015173ffffffffffffffffffffffffffffffffffffffff167fa78a88a551e130ce9732be17784bdff12f72ab4a2c833fb2dcb3ef0818956b0360405160405180910390a25b600084141561267d5750612691565b50808061268990613cd6565b9150506123e3565b50509193509193565b606080600083141561274d5760008067ffffffffffffffff8111156126c2576126c161352d565b5b6040519080825280602002602001820160405280156126f05781602001602082028036833780820191505090505b50905060008067ffffffffffffffff81111561270f5761270e61352d565b5b60405190808252806020026020018201604052801561273d5781602001602082028036833780820191505090505b5090508181935093505050612a15565b6000612759606861146d565b90506060600061277161276c6068611d5c565b612eeb565b809250819350505085816127859190614028565b905060008390506000818361279a91906139af565b905060005b8581101561283157818582815181106127bb576127ba613ca7565b5b602002602001015160200151116128195782806127d79061405c565b9350508481815181106127ed576127ec613ca7565b5b602002602001015160200151846128049190614028565b9350828461281291906139af565b915061281e565b612831565b808061282990613cd6565b91505061279f565b5060008267ffffffffffffffff81111561284e5761284d61352d565b5b60405190808252806020026020018201604052801561287c5781602001602082028036833780820191505090505b50905060008367ffffffffffffffff81111561289b5761289a61352d565b5b6040519080825280602002602001820160405280156128c95781602001602082028036833780820191505090505b509050600084886128da9190614028565b905060005b85811015612a05578782826128f491906139e0565b8151811061290557612904613ca7565b5b60200260200101516000015183828151811061292457612923613ca7565b5b602002602001019073ffffffffffffffffffffffffffffffffffffffff16908173ffffffffffffffffffffffffffffffffffffffff16815250508488838361296c91906139e0565b8151811061297d5761297c613ca7565b5b6020026020010151602001516129939190614028565b8482815181106129a6576129a5613ca7565b5b6020026020010181815250508086886129bf9190614086565b11156129f2578381815181106129d8576129d7613ca7565b5b6020026020010180518091906129ed9061405c565b815250505b80806129fd90613cd6565b9150506128df565b5081839950995050505050505050505b915091565b6000819050919050565b612a2d816130dd565b612a6c576040517f08c379a0000000000000000000000000000000000000000000000000000000008152600401612a639061418f565b60405180910390fd5b80612a997f360894a13ba1a3210667c828492db98dca3e2076cc3735a920a3ca505d382bbc60001b612a1a565b60000160006101000a81548173ffffffffffffffffffffffffffffffffffffffff021916908373ffffffffffffffffffffffffffffffffffffffff16021790555050565b6060612b02838360405180606001604052806027815260200161439e602791396130f0565b905092915050565b6000819050919050565b612b1d81612a24565b8073ffffffffffffffffffffffffffffffffffffffff167fbc7cd75a20ee27fd9adebab32041f755214dbc6bffa90cc0225b39da2e5c2d3b60405160405180910390a250565b600080836001016000848152602001908152602001600020541415905092915050565b606081600001805480602002602001604051908101604052809291908181526020018280548015612bd657602002820191906000526020600020905b815481526020019060010190808311612bc2575b50505050509050919050565b60606000612bf0606861146d565b90506000808267ffffffffffffffff811115612c0f57612c0e61352d565b5b604051908082528060200260200182016040528015612c3d5781602001602082028036833780820191505090505b50905060005b83811015612e0a576000612c618260686130aa90919063ffffffff16565b90506000606760009054906101000a900473ffffffffffffffffffffffffffffffffffffffff1673ffffffffffffffffffffffffffffffffffffffff166339e1386f836040518263ffffffff1660e01b8152600401612cc0919061381d565b6020604051808303816000875af1158015612cdf573d6000803e3d6000fd5b505050506040513d601f19601f82011682018060405250810190612d0391906138ca565b9050612d0d611c95565b73ffffffffffffffffffffffffffffffffffffffff1663e59ea3e883838b612d3591906139e0565b6040518363ffffffff1660e01b8152600401612d52929190613a36565b602060405180830381865afa158015612d6f573d6000803e3d6000fd5b505050506040513d601f19601f82011682018060405250810190612d9391906141e7565b15612df55781848681518110612dac57612dab613ca7565b5b602002602001019073ffffffffffffffffffffffffffffffffffffffff16908173ffffffffffffffffffffffffffffffffffffffff16815250508480612df190613cd6565b9550505b50508080612e0290613cd6565b915050612c43565b5060008267ffffffffffffffff811115612e2757612e2661352d565b5b604051908082528060200260200182016040528015612e555781602001602082028036833780820191505090505b50905060005b83811015612ede57828181518110612e7657612e75613ca7565b5b6020026020010151828281518110612e9157612e90613ca7565b5b602002602001019073ffffffffffffffffffffffffffffffffffffffff16908173ffffffffffffffffffffffffffffffffffffffff16815250508080612ed690613cd6565b915050612e5b565b5080945050505050919050565b6060600080835167ffffffffffffffff811115612f0b57612f0a61352d565b5b604051908082528060200260200182016040528015612f4457816020015b612f31613376565b815260200190600190039081612f295790505b5090506000805b8551811015613093576000606760009054906101000a900473ffffffffffffffffffffffffffffffffffffffff1673ffffffffffffffffffffffffffffffffffffffff1663acd201d0888481518110612fa757612fa6613ca7565b5b60200260200101516040518263ffffffff1660e01b8152600401612fcb919061381d565b602060405180830381865afa158015612fe8573d6000803e3d6000fd5b505050506040513d601f19601f8201168201806040525081019061300c91906138ca565b9050808361301a91906139e0565b9250604051806040016040528088848151811061303a57613039613ca7565b5b602002602001015173ffffffffffffffffffffffffffffffffffffffff1681526020018281525084838151811061307457613073613ca7565b5b602002602001018190525050808061308b90613cd6565b915050612f4b565b5061309d826131bd565b8181935093505050915091565b60006130b983600001836132e4565b60001c905092915050565b60008183106130d357816130d5565b825b905092915050565b600080823b905060008111915050919050565b60606130fb846130dd565b61313a576040517f08c379a000000000000000000000000000000000000000000000000000000000815260040161313190614286565b60405180910390fd5b6000808573ffffffffffffffffffffffffffffffffffffffff16856040516131629190614320565b600060405180830381855af49150503d806000811461319d576040519150601f19603f3d011682016040523d82523d6000602084013e6131a2565b606091505b50915091506131b282828661330f565b925050509392505050565b6000600190505b81518110156132e05760008190505b60008111801561322a5750826001826131ec9190614028565b815181106131fd576131fc613ca7565b5b60200260200101516020015183828151811061321c5761321b613ca7565b5b602002602001015160200151105b156132cc578260018261323d9190614028565b8151811061324e5761324d613ca7565b5b602002602001015183828151811061326957613268613ca7565b5b602002602001015184838151811061328457613283613ca7565b5b60200260200101856001856132999190614028565b815181106132aa576132a9613ca7565b5b60200260200101829052829052505080806132c49061405c565b9150506131d3565b5080806132d890613cd6565b9150506131c4565b5050565b60008260000182815481106132fc576132fb613ca7565b5b9060005260206000200154905092915050565b6060831561331f5782905061336f565b6000835111156133325782518084602001fd5b816040517f08c379a0000000000000000000000000000000000000000000000000000000008152600401613366919061437b565b60405180910390fd5b9392505050565b6040518060400160405280600073ffffffffffffffffffffffffffffffffffffffff168152602001600081525090565b6000604051905090565b600080fd5b600080fd5b600073ffffffffffffffffffffffffffffffffffffffff82169050919050565b60006133e5826133ba565b9050919050565b6133f5816133da565b811461340057600080fd5b50565b600081359050613412816133ec565b92915050565b60006020828403121561342e5761342d6133b0565b5b600061343c84828501613403565b91505092915050565b6000819050919050565b61345881613445565b811461346357600080fd5b50565b6000813590506134758161344f565b92915050565b600060208284031215613491576134906133b0565b5b600061349f84828501613466565b91505092915050565b6134b181613445565b82525050565b60006020820190506134cc60008301846134a8565b92915050565b600080604083850312156134e9576134e86133b0565b5b60006134f785828601613403565b925050602061350885828601613403565b9150509250929050565b600080fd5b600080fd5b6000601f19601f8301169050919050565b7f4e487b7100000000000000000000000000000000000000000000000000000000600052604160045260246000fd5b6135658261351c565b810181811067ffffffffffffffff821117156135845761358361352d565b5b80604052505050565b60006135976133a6565b90506135a3828261355c565b919050565b600067ffffffffffffffff8211156135c3576135c261352d565b5b6135cc8261351c565b9050602081019050919050565b82818337600083830152505050565b60006135fb6135f6846135a8565b61358d565b90508281526020810184848401111561361757613616613517565b5b6136228482856135d9565b509392505050565b600082601f83011261363f5761363e613512565b5b813561364f8482602086016135e8565b91505092915050565b6000806040838503121561366f5761366e6133b0565b5b600061367d85828601613403565b925050602083013567ffffffffffffffff81111561369e5761369d6133b5565b5b6136aa8582860161362a565b9150509250929050565b6000819050919050565b60006136d96136d46136cf846133ba565b6136b4565b6133ba565b9050919050565b60006136eb826136be565b9050919050565b60006136fd826136e0565b9050919050565b61370d816136f2565b82525050565b60006020820190506137286000830184613704565b92915050565b600081519050919050565b600082825260208201905092915050565b6000819050602082019050919050565b613763816133da565b82525050565b6000613775838361375a565b60208301905092915050565b6000602082019050919050565b60006137998261372e565b6137a38185613739565b93506137ae8361374a565b8060005b838110156137df5781516137c68882613769565b97506137d183613781565b9250506001810190506137b2565b5085935050505092915050565b60006020820190508181036000830152613806818461378e565b905092915050565b613817816133da565b82525050565b6000602082019050613832600083018461380e565b92915050565b600082825260208201905092915050565b7f4f776e61626c653a2063616c6c6572206973206e6f7420746865206f776e6572600082015250565b600061387f602083613838565b915061388a82613849565b602082019050919050565b600060208201905081810360008301526138ae81613872565b9050919050565b6000815190506138c48161344f565b92915050565b6000602082840312156138e0576138df6133b0565b5b60006138ee848285016138b5565b91505092915050565b7f4e487b7100000000000000000000000000000000000000000000000000000000600052601160045260246000fd5b600061393182613445565b915061393c83613445565b9250817fffffffffffffffffffffffffffffffffffffffffffffffffffffffffffffffff0483118215151615613975576139746138f7565b5b828202905092915050565b7f4e487b7100000000000000000000000000000000000000000000000000000000600052601260045260246000fd5b60006139ba82613445565b91506139c583613445565b9250826139d5576139d4613980565b5b828204905092915050565b60006139eb82613445565b91506139f683613445565b9250827fffffffffffffffffffffffffffffffffffffffffffffffffffffffffffffffff03821115613a2b57613a2a6138f7565b5b828201905092915050565b6000604082019050613a4b600083018561380e565b613a5860208301846134a8565b9392505050565b7f46756e6374696f6e206d7573742062652063616c6c6564207468726f7567682060008201527f64656c656761746563616c6c0000000000000000000000000000000000000000602082015250565b6000613abb602c83613838565b9150613ac682613a5f565b604082019050919050565b60006020820190508181036000830152613aea81613aae565b9050919050565b7f46756e6374696f6e206d7573742062652063616c6c6564207468726f7567682060008201527f6163746976652070726f78790000000000000000000000000000000000000000602082015250565b6000613b4d602c83613838565b9150613b5882613af1565b604082019050919050565b60006020820190508181036000830152613b7c81613b40565b9050919050565b7f496e697469616c697a61626c653a20636f6e747261637420697320616c72656160008201527f647920696e697469616c697a6564000000000000000000000000000000000000602082015250565b6000613bdf602e83613838565b9150613bea82613b83565b604082019050919050565b60006020820190508181036000830152613c0e81613bd2565b9050919050565b7f4f776e61626c653a206e6577206f776e657220697320746865207a65726f206160008201527f6464726573730000000000000000000000000000000000000000000000000000602082015250565b6000613c71602683613838565b9150613c7c82613c15565b604082019050919050565b60006020820190508181036000830152613ca081613c64565b9050919050565b7f4e487b7100000000000000000000000000000000000000000000000000000000600052603260045260246000fd5b6000613ce182613445565b91507fffffffffffffffffffffffffffffffffffffffffffffffffffffffffffffffff821415613d1457613d136138f7565b5b600182019050919050565b600081519050919050565b600082825260208201905092915050565b6000819050602082019050919050565b613d5481613445565b82525050565b6000613d668383613d4b565b60208301905092915050565b6000602082019050919050565b6000613d8a82613d1f565b613d948185613d2a565b9350613d9f83613d3b565b8060005b83811015613dd0578151613db78882613d5a565b9750613dc283613d72565b925050600181019050613da3565b5085935050505092915050565b60006060820190508181036000830152613df7818661378e565b90508181036020830152613e0b8185613d7f565b9050613e1a604083018461380e565b949350505050565b7f45524331393637557067726164653a207570677261646520627265616b73206660008201527f7572746865722075706772616465730000000000000000000000000000000000602082015250565b6000613e7e602f83613838565b9150613e8982613e22565b604082019050919050565b60006020820190508181036000830152613ead81613e71565b9050919050565b7f496e697469616c697a61626c653a20636f6e7472616374206973206e6f74206960008201527f6e697469616c697a696e67000000000000000000000000000000000000000000602082015250565b6000613f10602b83613838565b9150613f1b82613eb4565b604082019050919050565b60006020820190508181036000830152613f3f81613f03565b9050919050565b600081905092915050565b7f456c656374696f6e000000000000000000000000000000000000000000000000600082015250565b6000613f87600883613f46565b9150613f9282613f51565b600882019050919050565b6000613fa882613f7a565b9150819050919050565b6000819050919050565b613fc581613fb2565b82525050565b6000602082019050613fe06000830184613fbc565b92915050565b600081519050613ff5816133ec565b92915050565b600060208284031215614011576140106133b0565b5b600061401f84828501613fe6565b91505092915050565b600061403382613445565b915061403e83613445565b925082821015614051576140506138f7565b5b828203905092915050565b600061406782613445565b9150600082141561407b5761407a6138f7565b5b600182039050919050565b600061409182613445565b915061409c83613445565b9250826140ac576140ab613980565b5b828206905092915050565b600060408201905081810360008301526140d1818561378e565b905081810360208301526140e58184613d7f565b90509392505050565b7f4e487b7100000000000000000000000000000000000000000000000000000000600052603160045260246000fd5b7f455243313936373a206e657720696d706c656d656e746174696f6e206973206e60008201527f6f74206120636f6e747261637400000000000000000000000000000000000000602082015250565b6000614179602d83613838565b91506141848261411d565b604082019050919050565b600060208201905081810360008301526141a88161416c565b9050919050565b60008115159050919050565b6141c4816141af565b81146141cf57600080fd5b50565b6000815190506141e1816141bb565b92915050565b6000602082840312156141fd576141fc6133b0565b5b600061420b848285016141d2565b91505092915050565b7f416464726573733a2064656c65676174652063616c6c20746f206e6f6e2d636f60008201527f6e74726163740000000000000000000000000000000000000000000000000000602082015250565b6000614270602683613838565b915061427b82614214565b604082019050919050565b6000602082019050818103600083015261429f81614263565b9050919050565b600081519050919050565b600081905092915050565b60005b838110156142da5780820151818401526020810190506142bf565b838111156142e9576000848401525b50505050565b60006142fa826142a6565b61430481856142b1565b93506143148185602086016142bc565b80840191505092915050565b600061432c82846142ef565b915081905092915050565b600081519050919050565b600061434d82614337565b6143578185613838565b93506143678185602086016142bc565b6143708161351c565b840191505092915050565b600060208201905081810360008301526143958184614342565b90509291505056fe416464726573733a206c6f772d6c6576656c2064656c65676174652063616c6c206661696c6564a26469706673582212209995c94d7a4628951349b92ac1cf5b112492e04321f6ed8c03ab0a56c8d202eb64736f6c634300080b0033",
  "devdoc": {
    "errors": {
      "FailedToAddActiveGroup(address)": [
        {
          "params": {
            "group": "The group's address."
          }
        }
      ],
      "FailedToAddDeprecatedGroup(address)": [
        {
          "params": {
            "group": "The group's address."
          }
        }
      ],
      "FailedToRemoveDeprecatedGroup(address)": [
        {
          "params": {
            "group": "The group's address."
          }
        }
      ],
      "GroupAlreadyAdded(address)": [
        {
          "params": {
            "group": "The group's address."
          }
        }
      ],
      "GroupNotActive(address)": [
        {
          "params": {
            "group": "The group's address."
          }
        }
      ]
    },
    "events": {
      "GroupActivated(address)": {
        "params": {
          "group": "The group's address."
        }
      },
      "GroupDeprecated(address)": {
        "params": {
          "group": "The group's address."
        }
      },
      "GroupRemoved(address)": {
        "params": {
          "group": "The group's address."
        }
      }
    },
    "kind": "dev",
    "methods": {
      "activateGroup(address)": {
        "details": "Fails if the maximum number of groups are already being voted for by the Account smart contract (as per the `maxNumGroupsVotedFor` in the Election contract).",
        "params": {
          "group": "The address of the group to add to the set of votable groups."
        }
      },
      "deprecateGroup(address)": {
        "details": "A deprecated group will remain in the `deprecatedGroups` array as long as it is still being voted for by the Account contract. Deprecated groups will be the first to have their votes withdrawn.",
        "params": {
          "group": "The group to deprecate."
        }
      },
      "getDeprecatedGroups()": {
        "returns": {
          "_0": "The list of deprecated groups."
        }
      },
      "getGroups()": {
        "returns": {
          "_0": "The array of active groups."
        }
      },
      "initialize(address,address)": {
        "params": {
          "_owner": "The address of the contract owner.",
          "_registry": "The address of the Celo registry."
        }
      },
      "owner()": {
        "details": "Returns the address of the current owner."
      },
      "renounceOwnership()": {
        "details": "Leaves the contract without owner. It will not be possible to call `onlyOwner` functions anymore. Can only be called by the current owner. NOTE: Renouncing ownership will leave the contract without an owner, thereby removing any functionality that is only available to the owner."
      },
      "setDependencies(address,address)": {
        "details": "Manager, Account and StakedCelo all reference each other so we need a way of setting these after all contracts are deployed and initialized.",
        "params": {
          "_account": "The address of the Account contract.",
          "_stakedCelo": "the address of the StakedCelo contract."
        }
      },
      "toCelo(uint256)": {
        "params": {
          "stCeloAmount": "The amount of stCELO burned."
        },
        "returns": {
          "_0": "The amount of CELO that should be withdrawn."
        }
      },
      "toStakedCelo(uint256)": {
        "params": {
          "celoAmount": "The amount of CELO deposited."
        },
        "returns": {
          "_0": "The amount of stCELO that should be minted."
        }
      },
      "transferOwnership(address)": {
        "details": "Transfers ownership of the contract to a new account (`newOwner`). Can only be called by the current owner."
      },
      "upgradeTo(address)": {
        "details": "Upgrade the implementation of the proxy to `newImplementation`. Calls {_authorizeUpgrade}. Emits an {Upgraded} event."
      },
      "upgradeToAndCall(address,bytes)": {
        "details": "Upgrade the implementation of the proxy to `newImplementation`, and subsequently execute the function call encoded in `data`. Calls {_authorizeUpgrade}. Emits an {Upgraded} event."
      },
      "withdraw(uint256)": {
        "details": "Calculates the CELO amount based on the ratio of outstanding stCELO and the total amount of CELO owned and used for voting by Account. See `toCelo`.The funds need to be withdrawn using calls to `Account.withdraw` and `Account.finishPendingWithdrawal`.",
        "params": {
          "stakedCeloAmount": "The amount of stCELO to burn."
        }
      }
    },
    "title": "Manages the StakedCelo system, by controlling the minting and burning of stCELO and implementing strategies for voting and unvoting of deposited or withdrawn CELO.",
    "version": 1
  },
  "userdoc": {
    "errors": {
      "FailedToAddActiveGroup(address)": [
        {
          "notice": "Used when an attempt to add an active group to the EnumerableSet fails."
        }
      ],
      "FailedToAddDeprecatedGroup(address)": [
        {
          "notice": "Used when an attempt to add a deprecated group to the EnumerableSet fails."
        }
      ],
      "FailedToRemoveDeprecatedGroup(address)": [
        {
          "notice": "Used when an attempt to remove a deprecated group from the EnumerableSet fails."
        }
      ],
      "GroupAlreadyAdded(address)": [
        {
          "notice": "Used when attempting to activate a group that is already active."
        }
      ],
      "GroupNotActive(address)": [
        {
          "notice": "Used when attempting to deprecate a group that is not active."
        }
      ],
      "MaxGroupsVotedForReached()": [
        {
          "notice": "Used when attempting to activate a group when the maximum number of groups voted (as allowed by the Election contract) is already being voted for."
        }
      ],
      "NoActiveGroups()": [
        {
          "notice": "Used when attempting to deposit when there are not active groups to vote for."
        }
      ],
      "NoGroups()": [
        {
          "notice": "Used when attempting to withdraw but there are no groups being voted for."
        }
      ],
      "NoVotableGroups()": [
        {
          "notice": "Used when attempting to deposit when the total deposit amount would tip each active group over the voting limit as defined in Election.sol."
        }
      ],
      "ZeroWithdrawal()": [
        {
          "notice": "Used when attempting to withdraw 0 value."
        }
      ]
    },
    "events": {
      "GroupActivated(address)": {
        "notice": "Emitted when a new group is activated for voting."
      },
      "GroupDeprecated(address)": {
        "notice": "Emitted when a group is deprecated."
      },
      "GroupRemoved(address)": {
        "notice": "Emitted when a deprecated group is no longer being voted for and the contract forgets about it entirely."
      }
    },
    "kind": "user",
    "methods": {
      "activateGroup(address)": {
        "notice": "Marks a group as votable."
      },
      "constructor": {
        "notice": "Empty constructor for proxy implementation, `initializer` modifer ensures the implementation gets initialized."
      },
      "deposit()": {
        "notice": "Used to deposit CELO into the StakedCelo system. The user will receive an amount of stCELO proportional to their contribution. The CELO will be scheduled to be voted for with the Account contract."
      },
      "deprecateGroup(address)": {
        "notice": "Marks a group as deprecated."
      },
      "getDeprecatedGroups()": {
        "notice": "Returns the list of deprecated groups."
      },
      "getGroups()": {
        "notice": "Returns the array of active groups."
      },
      "initialize(address,address)": {
        "notice": "Initialize the contract with registry and owner."
      },
      "registry()": {
        "notice": "The Registry."
      },
      "setDependencies(address,address)": {
        "notice": "Set this contract's dependencies in the StakedCelo system."
      },
      "toCelo(uint256)": {
        "notice": "Computes the amount of CELO that should be withdrawn for a given amount of stCELO burned."
      },
      "toStakedCelo(uint256)": {
        "notice": "Computes the amount of stCELO that should be minted for a given amount of CELO deposited."
      },
      "withdraw(uint256)": {
        "notice": "Used to withdraw CELO from the system, in exchange for burning stCELO."
      }
    },
    "version": 1
  },
  "storageLayout": {
    "storage": [
      {
        "astId": 130,
        "contract": "contracts/Manager.sol:Manager",
        "label": "_initialized",
        "offset": 0,
        "slot": "0",
        "type": "t_bool"
      },
      {
        "astId": 133,
        "contract": "contracts/Manager.sol:Manager",
        "label": "_initializing",
        "offset": 1,
        "slot": "0",
        "type": "t_bool"
      },
      {
        "astId": 481,
        "contract": "contracts/Manager.sol:Manager",
        "label": "__gap",
        "offset": 0,
        "slot": "1",
        "type": "t_array(t_uint256)50_storage"
      },
      {
        "astId": 10,
        "contract": "contracts/Manager.sol:Manager",
        "label": "_owner",
        "offset": 0,
        "slot": "51",
        "type": "t_address"
      },
      {
        "astId": 122,
        "contract": "contracts/Manager.sol:Manager",
        "label": "__gap",
        "offset": 0,
        "slot": "52",
        "type": "t_array(t_uint256)49_storage"
      },
      {
        "astId": 4702,
        "contract": "contracts/Manager.sol:Manager",
        "label": "registry",
        "offset": 0,
        "slot": "101",
        "type": "t_contract(IRegistry)5598"
      },
      {
        "astId": 3245,
        "contract": "contracts/Manager.sol:Manager",
        "label": "stakedCelo",
        "offset": 0,
        "slot": "102",
        "type": "t_contract(IStakedCelo)5640"
      },
      {
        "astId": 3249,
        "contract": "contracts/Manager.sol:Manager",
        "label": "account",
        "offset": 0,
        "slot": "103",
        "type": "t_contract(IAccount)4805"
      },
      {
        "astId": 3253,
        "contract": "contracts/Manager.sol:Manager",
        "label": "activeGroups",
        "offset": 0,
        "slot": "104",
        "type": "t_struct(AddressSet)1684_storage"
      },
      {
        "astId": 3257,
        "contract": "contracts/Manager.sol:Manager",
        "label": "deprecatedGroups",
        "offset": 0,
        "slot": "106",
        "type": "t_struct(AddressSet)1684_storage"
      }
    ],
    "types": {
      "t_address": {
        "encoding": "inplace",
        "label": "address",
        "numberOfBytes": "20"
      },
      "t_array(t_bytes32)dyn_storage": {
        "base": "t_bytes32",
        "encoding": "dynamic_array",
        "label": "bytes32[]",
        "numberOfBytes": "32"
      },
      "t_array(t_uint256)49_storage": {
        "base": "t_uint256",
        "encoding": "inplace",
        "label": "uint256[49]",
        "numberOfBytes": "1568"
      },
      "t_array(t_uint256)50_storage": {
        "base": "t_uint256",
        "encoding": "inplace",
        "label": "uint256[50]",
        "numberOfBytes": "1600"
      },
      "t_bool": {
        "encoding": "inplace",
        "label": "bool",
        "numberOfBytes": "1"
      },
      "t_bytes32": {
        "encoding": "inplace",
        "label": "bytes32",
        "numberOfBytes": "32"
      },
      "t_contract(IAccount)4805": {
        "encoding": "inplace",
        "label": "contract IAccount",
        "numberOfBytes": "20"
      },
      "t_contract(IRegistry)5598": {
        "encoding": "inplace",
        "label": "contract IRegistry",
        "numberOfBytes": "20"
      },
      "t_contract(IStakedCelo)5640": {
        "encoding": "inplace",
        "label": "contract IStakedCelo",
        "numberOfBytes": "20"
      },
      "t_mapping(t_bytes32,t_uint256)": {
        "encoding": "mapping",
        "key": "t_bytes32",
        "label": "mapping(bytes32 => uint256)",
        "numberOfBytes": "32",
        "value": "t_uint256"
      },
      "t_struct(AddressSet)1684_storage": {
        "encoding": "inplace",
        "label": "struct EnumerableSet.AddressSet",
        "members": [
          {
            "astId": 1683,
            "contract": "contracts/Manager.sol:Manager",
            "label": "_inner",
            "offset": 0,
            "slot": "0",
            "type": "t_struct(Set)1383_storage"
          }
        ],
        "numberOfBytes": "64"
      },
      "t_struct(Set)1383_storage": {
        "encoding": "inplace",
        "label": "struct EnumerableSet.Set",
        "members": [
          {
            "astId": 1378,
            "contract": "contracts/Manager.sol:Manager",
            "label": "_values",
            "offset": 0,
            "slot": "0",
            "type": "t_array(t_bytes32)dyn_storage"
          },
          {
            "astId": 1382,
            "contract": "contracts/Manager.sol:Manager",
            "label": "_indexes",
            "offset": 0,
            "slot": "1",
            "type": "t_mapping(t_bytes32,t_uint256)"
          }
        ],
        "numberOfBytes": "64"
      },
      "t_uint256": {
        "encoding": "inplace",
        "label": "uint256",
        "numberOfBytes": "32"
      }
    }
  }
}