{
  "address": "0x5955EcE8F66266108d0152e4320443e2d211eFe1",
  "abi": [
    {
      "inputs": [],
      "stateMutability": "nonpayable",
      "type": "constructor"
    },
    {
      "inputs": [
        {
          "internalType": "address",
          "name": "depositor",
          "type": "address"
        },
        {
          "internalType": "uint256",
          "name": "amount",
          "type": "uint256"
        }
      ],
      "name": "FailedDeposit",
      "type": "error"
    },
    {
      "inputs": [
        {
          "internalType": "address",
          "name": "withdrawer",
          "type": "address"
        },
        {
          "internalType": "uint256",
          "name": "amount",
          "type": "uint256"
        }
      ],
      "name": "FailedWithdrawal",
      "type": "error"
    },
    {
      "inputs": [
        {
          "internalType": "uint256",
          "name": "amount",
          "type": "uint256"
        }
      ],
      "name": "InsufficientBalance",
      "type": "error"
    },
    {
      "inputs": [],
      "name": "NullAddress",
      "type": "error"
    },
    {
      "inputs": [],
      "name": "ZeroAmount",
      "type": "error"
    },
    {
      "anonymous": false,
      "inputs": [
        {
          "indexed": false,
          "internalType": "address",
          "name": "previousAdmin",
          "type": "address"
        },
        {
          "indexed": false,
          "internalType": "address",
          "name": "newAdmin",
          "type": "address"
        }
      ],
      "name": "AdminChanged",
      "type": "event"
    },
    {
      "anonymous": false,
      "inputs": [
        {
          "indexed": true,
          "internalType": "address",
          "name": "owner",
          "type": "address"
        },
        {
          "indexed": true,
          "internalType": "address",
          "name": "spender",
          "type": "address"
        },
        {
          "indexed": false,
          "internalType": "uint256",
          "name": "value",
          "type": "uint256"
        }
      ],
      "name": "Approval",
      "type": "event"
    },
    {
      "anonymous": false,
      "inputs": [
        {
          "indexed": true,
          "internalType": "address",
          "name": "beacon",
          "type": "address"
        }
      ],
      "name": "BeaconUpgraded",
      "type": "event"
    },
    {
      "anonymous": false,
      "inputs": [
        {
          "indexed": true,
          "internalType": "address",
          "name": "previousOwner",
          "type": "address"
        },
        {
          "indexed": true,
          "internalType": "address",
          "name": "newOwner",
          "type": "address"
        }
      ],
      "name": "OwnershipTransferred",
      "type": "event"
    },
    {
      "anonymous": false,
      "inputs": [
        {
          "indexed": false,
          "internalType": "address",
          "name": "depositor",
          "type": "address"
        },
        {
          "indexed": false,
          "internalType": "uint256",
          "name": "amount",
          "type": "uint256"
        }
      ],
      "name": "StakedCeloDeposited",
      "type": "event"
    },
    {
      "anonymous": false,
      "inputs": [
        {
          "indexed": false,
          "internalType": "address",
          "name": "withdrawer",
          "type": "address"
        },
        {
          "indexed": false,
          "internalType": "uint256",
          "name": "amount",
          "type": "uint256"
        }
      ],
      "name": "StakedCeloWithdrawn",
      "type": "event"
    },
    {
      "anonymous": false,
      "inputs": [
        {
          "indexed": true,
          "internalType": "address",
          "name": "from",
          "type": "address"
        },
        {
          "indexed": true,
          "internalType": "address",
          "name": "to",
          "type": "address"
        },
        {
          "indexed": false,
          "internalType": "uint256",
          "name": "value",
          "type": "uint256"
        }
      ],
      "name": "Transfer",
      "type": "event"
    },
    {
      "anonymous": false,
      "inputs": [
        {
          "indexed": true,
          "internalType": "address",
          "name": "implementation",
          "type": "address"
        }
      ],
      "name": "Upgraded",
      "type": "event"
    },
    {
      "inputs": [
        {
          "internalType": "address",
          "name": "owner",
          "type": "address"
        },
        {
          "internalType": "address",
          "name": "spender",
          "type": "address"
        }
      ],
      "name": "allowance",
      "outputs": [
        {
          "internalType": "uint256",
          "name": "",
          "type": "uint256"
        }
      ],
      "stateMutability": "view",
      "type": "function"
    },
    {
      "inputs": [
        {
          "internalType": "address",
          "name": "spender",
          "type": "address"
        },
        {
          "internalType": "uint256",
          "name": "amount",
          "type": "uint256"
        }
      ],
      "name": "approve",
      "outputs": [
        {
          "internalType": "bool",
          "name": "",
          "type": "bool"
        }
      ],
      "stateMutability": "nonpayable",
      "type": "function"
    },
    {
      "inputs": [
        {
          "internalType": "address",
          "name": "_account",
          "type": "address"
        }
      ],
      "name": "balanceOf",
      "outputs": [
        {
          "internalType": "uint256",
          "name": "",
          "type": "uint256"
        }
      ],
      "stateMutability": "view",
      "type": "function"
    },
    {
      "inputs": [],
      "name": "decimals",
      "outputs": [
        {
          "internalType": "uint8",
          "name": "",
          "type": "uint8"
        }
      ],
      "stateMutability": "view",
      "type": "function"
    },
    {
      "inputs": [
        {
          "internalType": "address",
          "name": "spender",
          "type": "address"
        },
        {
          "internalType": "uint256",
          "name": "subtractedValue",
          "type": "uint256"
        }
      ],
      "name": "decreaseAllowance",
      "outputs": [
        {
          "internalType": "bool",
          "name": "",
          "type": "bool"
        }
      ],
      "stateMutability": "nonpayable",
      "type": "function"
    },
    {
      "inputs": [
        {
          "internalType": "uint256",
          "name": "stCeloAmount",
          "type": "uint256"
        }
      ],
      "name": "deposit",
      "outputs": [],
      "stateMutability": "nonpayable",
      "type": "function"
    },
    {
      "inputs": [
        {
          "internalType": "address",
          "name": "spender",
          "type": "address"
        },
        {
          "internalType": "uint256",
          "name": "addedValue",
          "type": "uint256"
        }
      ],
      "name": "increaseAllowance",
      "outputs": [
        {
          "internalType": "bool",
          "name": "",
          "type": "bool"
        }
      ],
      "stateMutability": "nonpayable",
      "type": "function"
    },
    {
      "inputs": [
        {
          "internalType": "address",
          "name": "_stakedCelo",
          "type": "address"
        },
        {
          "internalType": "address",
          "name": "_account",
          "type": "address"
        },
        {
          "internalType": "address",
          "name": "_owner",
          "type": "address"
        }
      ],
      "name": "initialize",
      "outputs": [],
      "stateMutability": "nonpayable",
      "type": "function"
    },
    {
      "inputs": [],
      "name": "name",
      "outputs": [
        {
          "internalType": "string",
          "name": "",
          "type": "string"
        }
      ],
      "stateMutability": "view",
      "type": "function"
    },
    {
      "inputs": [],
      "name": "owner",
      "outputs": [
        {
          "internalType": "address",
          "name": "",
          "type": "address"
        }
      ],
      "stateMutability": "view",
      "type": "function"
    },
    {
      "inputs": [],
      "name": "renounceOwnership",
      "outputs": [],
      "stateMutability": "nonpayable",
      "type": "function"
    },
    {
      "inputs": [
        {
          "internalType": "address",
          "name": "",
          "type": "address"
        }
      ],
      "name": "stakedCeloBalance",
      "outputs": [
        {
          "internalType": "uint256",
          "name": "",
          "type": "uint256"
        }
      ],
      "stateMutability": "view",
      "type": "function"
    },
    {
      "inputs": [],
      "name": "symbol",
      "outputs": [
        {
          "internalType": "string",
          "name": "",
          "type": "string"
        }
      ],
      "stateMutability": "view",
      "type": "function"
    },
    {
      "inputs": [
        {
          "internalType": "uint256",
          "name": "stCeloAmount",
          "type": "uint256"
        }
      ],
      "name": "toRebasedStakedCelo",
      "outputs": [
        {
          "internalType": "uint256",
          "name": "",
          "type": "uint256"
        }
      ],
      "stateMutability": "view",
      "type": "function"
    },
    {
      "inputs": [
        {
          "internalType": "uint256",
          "name": "rstCeloAmount",
          "type": "uint256"
        }
      ],
      "name": "toStakedCelo",
      "outputs": [
        {
          "internalType": "uint256",
          "name": "",
          "type": "uint256"
        }
      ],
      "stateMutability": "view",
      "type": "function"
    },
    {
      "inputs": [],
      "name": "totalDeposit",
      "outputs": [
        {
          "internalType": "uint256",
          "name": "",
          "type": "uint256"
        }
      ],
      "stateMutability": "view",
      "type": "function"
    },
    {
      "inputs": [],
      "name": "totalSupply",
      "outputs": [
        {
          "internalType": "uint256",
          "name": "",
          "type": "uint256"
        }
      ],
      "stateMutability": "view",
      "type": "function"
    },
    {
      "inputs": [
        {
          "internalType": "address",
          "name": "to",
          "type": "address"
        },
        {
          "internalType": "uint256",
          "name": "amount",
          "type": "uint256"
        }
      ],
      "name": "transfer",
      "outputs": [
        {
          "internalType": "bool",
          "name": "",
          "type": "bool"
        }
      ],
      "stateMutability": "nonpayable",
      "type": "function"
    },
    {
      "inputs": [
        {
          "internalType": "address",
          "name": "from",
          "type": "address"
        },
        {
          "internalType": "address",
          "name": "to",
          "type": "address"
        },
        {
          "internalType": "uint256",
          "name": "amount",
          "type": "uint256"
        }
      ],
      "name": "transferFrom",
      "outputs": [
        {
          "internalType": "bool",
          "name": "",
          "type": "bool"
        }
      ],
      "stateMutability": "nonpayable",
      "type": "function"
    },
    {
      "inputs": [
        {
          "internalType": "address",
          "name": "newOwner",
          "type": "address"
        }
      ],
      "name": "transferOwnership",
      "outputs": [],
      "stateMutability": "nonpayable",
      "type": "function"
    },
    {
      "inputs": [
        {
          "internalType": "address",
          "name": "newImplementation",
          "type": "address"
        }
      ],
      "name": "upgradeTo",
      "outputs": [],
      "stateMutability": "nonpayable",
      "type": "function"
    },
    {
      "inputs": [
        {
          "internalType": "address",
          "name": "newImplementation",
          "type": "address"
        },
        {
          "internalType": "bytes",
          "name": "data",
          "type": "bytes"
        }
      ],
      "name": "upgradeToAndCall",
      "outputs": [],
      "stateMutability": "payable",
      "type": "function"
    },
    {
      "inputs": [
        {
          "internalType": "uint256",
          "name": "stCeloAmount",
          "type": "uint256"
        }
      ],
      "name": "withdraw",
      "outputs": [],
      "stateMutability": "nonpayable",
      "type": "function"
    }
  ],
  "transactionHash": "0x0d28cf7cf61d79447c8b8edcaf348d798fa76f3641e31808d2778439b6582a9c",
  "args": [],
  "numDeployments": 1,
  "solcInputHash": "4814d6b8a8394fe8b363a892b6618b21",
  "bytecode": "0x60a06040523073ffffffffffffffffffffffffffffffffffffffff1660809073ffffffffffffffffffffffffffffffffffffffff168152503480156200004457600080fd5b50600060019054906101000a900460ff166200006f5760008054906101000a900460ff161562000080565b6200007f6200013c60201b60201c565b5b620000c2576040517f08c379a0000000000000000000000000000000000000000000000000000000008152600401620000b99062000204565b60405180910390fd5b60008060019054906101000a900460ff16159050801562000113576001600060016101000a81548160ff02191690831515021790555060016000806101000a81548160ff0219169083151502179055505b8015620001355760008060016101000a81548160ff0219169083151502179055505b5062000226565b600062000154306200015a60201b620016e51760201c565b15905090565b6000808273ffffffffffffffffffffffffffffffffffffffff163b119050919050565b600082825260208201905092915050565b7f496e697469616c697a61626c653a20636f6e747261637420697320616c72656160008201527f647920696e697469616c697a6564000000000000000000000000000000000000602082015250565b6000620001ec602e836200017d565b9150620001f9826200018e565b604082019050919050565b600060208201905081810360008301526200021f81620001dd565b9050919050565b60805161333f62000257600039600081816108b30152818161094201528181610ae60152610b75015261333f6000f3fe6080604052600436106101405760003560e01c8063715018a6116100b6578063c0c53b8b1161006f578063c0c53b8b14610475578063c494ec1e1461049e578063db7168a9146104db578063dd62ed3e14610518578063f2fde38b14610555578063f6153ccd1461057e57610140565b8063715018a6146103655780638da5cb5b1461037c57806395d89b41146103a7578063a457c2d7146103d2578063a9059cbb1461040f578063b6b55f251461044c57610140565b8063313ce56711610108578063313ce5671461023e5780633659cfe61461026957806339509351146102925780634f1ef286146102cf578063653c98e7146102eb57806370a082311461032857610140565b806306fdde0314610145578063095ea7b31461017057806318160ddd146101ad57806323b872dd146101d85780632e1a7d4d14610215575b600080fd5b34801561015157600080fd5b5061015a6105a9565b60405161016791906123fb565b60405180910390f35b34801561017c57600080fd5b50610197600480360381019061019291906124c5565b61063b565b6040516101a49190612520565b60405180910390f35b3480156101b957600080fd5b506101c261065e565b6040516101cf919061254a565b60405180910390f35b3480156101e457600080fd5b506101ff60048036038101906101fa9190612565565b610670565b60405161020c9190612520565b60405180910390f35b34801561022157600080fd5b5061023c600480360381019061023791906125b8565b61069f565b005b34801561024a57600080fd5b506102536108a8565b6040516102609190612601565b60405180910390f35b34801561027557600080fd5b50610290600480360381019061028b919061261c565b6108b1565b005b34801561029e57600080fd5b506102b960048036038101906102b491906124c5565b610a3a565b6040516102c69190612520565b60405180910390f35b6102e960048036038101906102e4919061277e565b610ae4565b005b3480156102f757600080fd5b50610312600480360381019061030d919061261c565b610c21565b60405161031f919061254a565b60405180910390f35b34801561033457600080fd5b5061034f600480360381019061034a919061261c565b610c39565b60405161035c919061254a565b60405180910390f35b34801561037157600080fd5b5061037a610c8a565b005b34801561038857600080fd5b50610391610d12565b60405161039e91906127e9565b60405180910390f35b3480156103b357600080fd5b506103bc610d3c565b6040516103c991906123fb565b60405180910390f35b3480156103de57600080fd5b506103f960048036038101906103f491906124c5565b610dce565b6040516104069190612520565b60405180910390f35b34801561041b57600080fd5b50610436600480360381019061043191906124c5565b610eb8565b6040516104439190612520565b60405180910390f35b34801561045857600080fd5b50610473600480360381019061046e91906125b8565b610edb565b005b34801561048157600080fd5b5061049c60048036038101906104979190612804565b6110a6565b005b3480156104aa57600080fd5b506104c560048036038101906104c091906125b8565b61128c565b6040516104d2919061254a565b60405180910390f35b3480156104e757600080fd5b5061050260048036038101906104fd91906125b8565b6113f6565b60405161050f919061254a565b60405180910390f35b34801561052457600080fd5b5061053f600480360381019061053a9190612857565b611560565b60405161054c919061254a565b60405180910390f35b34801561056157600080fd5b5061057c6004803603810190610577919061261c565b6115e7565b005b34801561058a57600080fd5b506105936116df565b6040516105a0919061254a565b60405180910390f35b6060603680546105b8906128c6565b80601f01602080910402602001604051908101604052809291908181526020018280546105e4906128c6565b80156106315780601f1061060657610100808354040283529160200191610631565b820191906000526020600020905b81548152906001019060200180831161061457829003601f168201915b5050505050905090565b600080610646611708565b9050610653818585611710565b600191505092915050565b600061066b6097546113f6565b905090565b60008061067b611708565b90506106888582856118db565b610693858585611967565b60019150509392505050565b609860003373ffffffffffffffffffffffffffffffffffffffff1673ffffffffffffffffffffffffffffffffffffffff1681526020019081526020016000205481111561072357806040517f9266535100000000000000000000000000000000000000000000000000000000815260040161071a919061254a565b60405180910390fd5b80609760008282546107359190612927565b9250508190555080609860003373ffffffffffffffffffffffffffffffffffffffff1673ffffffffffffffffffffffffffffffffffffffff168152602001908152602001600020600082825403925050819055507fbd16c4c02914d26f044cfa096a64853d87c047db6db9425cefae21488477c58f33826040516107ba92919061295b565b60405180910390a1609960009054906101000a900473ffffffffffffffffffffffffffffffffffffffff1673ffffffffffffffffffffffffffffffffffffffff1663a9059cbb33836040518363ffffffff1660e01b815260040161081f92919061295b565b6020604051808303816000875af115801561083e573d6000803e3d6000fd5b505050506040513d601f19601f8201168201806040525081019061086291906129b0565b6108a55733816040517f55a6745800000000000000000000000000000000000000000000000000000000815260040161089c92919061295b565b60405180910390fd5b50565b60006012905090565b7f000000000000000000000000000000000000000000000000000000000000000073ffffffffffffffffffffffffffffffffffffffff163073ffffffffffffffffffffffffffffffffffffffff161415610940576040517f08c379a000000000000000000000000000000000000000000000000000000000815260040161093790612a4f565b60405180910390fd5b7f000000000000000000000000000000000000000000000000000000000000000073ffffffffffffffffffffffffffffffffffffffff1661097f611bd3565b73ffffffffffffffffffffffffffffffffffffffff16146109d5576040517f08c379a00000000000000000000000000000000000000000000000000000000081526004016109cc90612ae1565b60405180910390fd5b6109de81611c2a565b610a3781600067ffffffffffffffff8111156109fd576109fc612653565b5b6040519080825280601f01601f191660200182016040528015610a2f5781602001600182028036833780820191505090505b506000611ca9565b50565b600080610a45611708565b9050610ad9818585603460008673ffffffffffffffffffffffffffffffffffffffff1673ffffffffffffffffffffffffffffffffffffffff16815260200190815260200160002060008973ffffffffffffffffffffffffffffffffffffffff1673ffffffffffffffffffffffffffffffffffffffff16815260200190815260200160002054610ad49190612b01565b611710565b600191505092915050565b7f000000000000000000000000000000000000000000000000000000000000000073ffffffffffffffffffffffffffffffffffffffff163073ffffffffffffffffffffffffffffffffffffffff161415610b73576040517f08c379a0000000000000000000000000000000000000000000000000000000008152600401610b6a90612a4f565b60405180910390fd5b7f000000000000000000000000000000000000000000000000000000000000000073ffffffffffffffffffffffffffffffffffffffff16610bb2611bd3565b73ffffffffffffffffffffffffffffffffffffffff1614610c08576040517f08c379a0000000000000000000000000000000000000000000000000000000008152600401610bff90612ae1565b60405180910390fd5b610c1182611c2a565b610c1d82826001611ca9565b5050565b60986020528060005260406000206000915090505481565b6000610c83609860008473ffffffffffffffffffffffffffffffffffffffff1673ffffffffffffffffffffffffffffffffffffffff168152602001908152602001600020546113f6565b9050919050565b610c92611708565b73ffffffffffffffffffffffffffffffffffffffff16610cb0610d12565b73ffffffffffffffffffffffffffffffffffffffff1614610d06576040517f08c379a0000000000000000000000000000000000000000000000000000000008152600401610cfd90612ba3565b60405180910390fd5b610d106000611e7a565b565b6000606560009054906101000a900473ffffffffffffffffffffffffffffffffffffffff16905090565b606060378054610d4b906128c6565b80601f0160208091040260200160405190810160405280929190818152602001828054610d77906128c6565b8015610dc45780601f10610d9957610100808354040283529160200191610dc4565b820191906000526020600020905b815481529060010190602001808311610da757829003601f168201915b5050505050905090565b600080610dd9611708565b90506000603460008373ffffffffffffffffffffffffffffffffffffffff1673ffffffffffffffffffffffffffffffffffffffff16815260200190815260200160002060008673ffffffffffffffffffffffffffffffffffffffff1673ffffffffffffffffffffffffffffffffffffffff16815260200190815260200160002054905083811015610e9f576040517f08c379a0000000000000000000000000000000000000000000000000000000008152600401610e9690612c35565b60405180910390fd5b610eac8286868403611710565b60019250505092915050565b600080610ec3611708565b9050610ed0818585611967565b600191505092915050565b6000811415610f16576040517f1f2a200500000000000000000000000000000000000000000000000000000000815260040160405180910390fd5b8060976000828254610f289190612b01565b9250508190555080609860003373ffffffffffffffffffffffffffffffffffffffff1673ffffffffffffffffffffffffffffffffffffffff1681526020019081526020016000206000828254610f7e9190612b01565b925050819055507f8a7b48923ed32d7cb785f2c884f5a4c04e14793b439c0b96d3906c667cdf95ab3382604051610fb692919061295b565b60405180910390a1609960009054906101000a900473ffffffffffffffffffffffffffffffffffffffff1673ffffffffffffffffffffffffffffffffffffffff166323b872dd3330846040518463ffffffff1660e01b815260040161101d93929190612c55565b6020604051808303816000875af115801561103c573d6000803e3d6000fd5b505050506040513d601f19601f8201168201806040525081019061106091906129b0565b6110a35733816040517f8ab2d93d00000000000000000000000000000000000000000000000000000000815260040161109a92919061295b565b60405180910390fd5b50565b600060019054906101000a900460ff166110ce5760008054906101000a900460ff16156110d7565b6110d6611f40565b5b611116576040517f08c379a000000000000000000000000000000000000000000000000000000000815260040161110d90612cfe565b60405180910390fd5b60008060019054906101000a900460ff161590508015611166576001600060016101000a81548160ff02191690831515021790555060016000806101000a81548160ff0219169083151502179055505b6111da6040518060400160405280601381526020017f52656261736564205374616b65642043454c4f000000000000000000000000008152506040518060400160405280600781526020017f72737443454c4f00000000000000000000000000000000000000000000000000815250611f51565b6111e382611e7a565b83609960006101000a81548173ffffffffffffffffffffffffffffffffffffffff021916908373ffffffffffffffffffffffffffffffffffffffff16021790555082609a60006101000a81548173ffffffffffffffffffffffffffffffffffffffff021916908373ffffffffffffffffffffffffffffffffffffffff16021790555080156112865760008060016101000a81548160ff0219169083151502179055505b50505050565b600080609960009054906101000a900473ffffffffffffffffffffffffffffffffffffffff1673ffffffffffffffffffffffffffffffffffffffff166318160ddd6040518163ffffffff1660e01b8152600401602060405180830381865afa1580156112fc573d6000803e3d6000fd5b505050506040513d601f19601f820116820180604052508101906113209190612d33565b90506000609a60009054906101000a900473ffffffffffffffffffffffffffffffffffffffff1673ffffffffffffffffffffffffffffffffffffffff166301d2b6ea6040518163ffffffff1660e01b8152600401602060405180830381865afa158015611391573d6000803e3d6000fd5b505050506040513d601f19601f820116820180604052508101906113b59190612d33565b905060008214806113c65750600081145b156113d55783925050506113f1565b8082856113e29190612d60565b6113ec9190612de9565b925050505b919050565b600080609960009054906101000a900473ffffffffffffffffffffffffffffffffffffffff1673ffffffffffffffffffffffffffffffffffffffff166318160ddd6040518163ffffffff1660e01b8152600401602060405180830381865afa158015611466573d6000803e3d6000fd5b505050506040513d601f19601f8201168201806040525081019061148a9190612d33565b90506000609a60009054906101000a900473ffffffffffffffffffffffffffffffffffffffff1673ffffffffffffffffffffffffffffffffffffffff166301d2b6ea6040518163ffffffff1660e01b8152600401602060405180830381865afa1580156114fb573d6000803e3d6000fd5b505050506040513d601f19601f8201168201806040525081019061151f9190612d33565b905060008214806115305750600081145b1561153f57839250505061155b565b81818561154c9190612d60565b6115569190612de9565b925050505b919050565b6000603460008473ffffffffffffffffffffffffffffffffffffffff1673ffffffffffffffffffffffffffffffffffffffff16815260200190815260200160002060008373ffffffffffffffffffffffffffffffffffffffff1673ffffffffffffffffffffffffffffffffffffffff16815260200190815260200160002054905092915050565b6115ef611708565b73ffffffffffffffffffffffffffffffffffffffff1661160d610d12565b73ffffffffffffffffffffffffffffffffffffffff1614611663576040517f08c379a000000000000000000000000000000000000000000000000000000000815260040161165a90612ba3565b60405180910390fd5b600073ffffffffffffffffffffffffffffffffffffffff168173ffffffffffffffffffffffffffffffffffffffff1614156116d3576040517f08c379a00000000000000000000000000000000000000000000000000000000081526004016116ca90612e8c565b60405180910390fd5b6116dc81611e7a565b50565b60975481565b6000808273ffffffffffffffffffffffffffffffffffffffff163b119050919050565b600033905090565b600073ffffffffffffffffffffffffffffffffffffffff168373ffffffffffffffffffffffffffffffffffffffff161415611780576040517f08c379a000000000000000000000000000000000000000000000000000000000815260040161177790612f1e565b60405180910390fd5b600073ffffffffffffffffffffffffffffffffffffffff168273ffffffffffffffffffffffffffffffffffffffff1614156117f0576040517f08c379a00000000000000000000000000000000000000000000000000000000081526004016117e790612fb0565b60405180910390fd5b80603460008573ffffffffffffffffffffffffffffffffffffffff1673ffffffffffffffffffffffffffffffffffffffff16815260200190815260200160002060008473ffffffffffffffffffffffffffffffffffffffff1673ffffffffffffffffffffffffffffffffffffffff168152602001908152602001600020819055508173ffffffffffffffffffffffffffffffffffffffff168373ffffffffffffffffffffffffffffffffffffffff167f8c5be1e5ebec7d5bd14f71427d1e84f3dd0314c0f7b2291e5b200ac8c7c3b925836040516118ce919061254a565b60405180910390a3505050565b60006118e78484611560565b90507fffffffffffffffffffffffffffffffffffffffffffffffffffffffffffffffff81146119615781811015611953576040517f08c379a000000000000000000000000000000000000000000000000000000000815260040161194a9061301c565b60405180910390fd5b6119608484848403611710565b5b50505050565b600073ffffffffffffffffffffffffffffffffffffffff168373ffffffffffffffffffffffffffffffffffffffff1614156119ce576040517fe99d5ac500000000000000000000000000000000000000000000000000000000815260040160405180910390fd5b600073ffffffffffffffffffffffffffffffffffffffff168273ffffffffffffffffffffffffffffffffffffffff161415611a35576040517fe99d5ac500000000000000000000000000000000000000000000000000000000815260040160405180910390fd5b6000609860008573ffffffffffffffffffffffffffffffffffffffff1673ffffffffffffffffffffffffffffffffffffffff1681526020019081526020016000205490506000611a848361128c565b905080821015611acb57826040517f92665351000000000000000000000000000000000000000000000000000000008152600401611ac2919061254a565b60405180910390fd5b808203609860008773ffffffffffffffffffffffffffffffffffffffff1673ffffffffffffffffffffffffffffffffffffffff1681526020019081526020016000208190555080609860008673ffffffffffffffffffffffffffffffffffffffff1673ffffffffffffffffffffffffffffffffffffffff1681526020019081526020016000206000828254611b609190612b01565b925050819055508373ffffffffffffffffffffffffffffffffffffffff168573ffffffffffffffffffffffffffffffffffffffff167fddf252ad1be2c89b69c2b068fc378daa952ba7f163c4a11628f55a4df523b3ef85604051611bc4919061254a565b60405180910390a35050505050565b6000611c017f360894a13ba1a3210667c828492db98dca3e2076cc3735a920a3ca505d382bbc60001b611fae565b60000160009054906101000a900473ffffffffffffffffffffffffffffffffffffffff16905090565b611c32611708565b73ffffffffffffffffffffffffffffffffffffffff16611c50610d12565b73ffffffffffffffffffffffffffffffffffffffff1614611ca6576040517f08c379a0000000000000000000000000000000000000000000000000000000008152600401611c9d90612ba3565b60405180910390fd5b50565b6000611cb3611bd3565b9050611cbe84611fb8565b600083511180611ccb5750815b15611cdc57611cda8484612071565b505b6000611d0a7f4910fdfa16fed3260ed0e7147f7cc6da11a60208b5b9406d12a635614ffd914360001b61209e565b90508060000160009054906101000a900460ff16611e735760018160000160006101000a81548160ff021916908315150217905550611dd68583604051602401611d5491906127e9565b6040516020818303038152906040527f3659cfe6000000000000000000000000000000000000000000000000000000007bffffffffffffffffffffffffffffffffffffffffffffffffffffffff19166020820180517bffffffffffffffffffffffffffffffffffffffffffffffffffffffff8381831617835250505050612071565b5060008160000160006101000a81548160ff021916908315150217905550611dfc611bd3565b73ffffffffffffffffffffffffffffffffffffffff168273ffffffffffffffffffffffffffffffffffffffff1614611e69576040517f08c379a0000000000000000000000000000000000000000000000000000000008152600401611e60906130ae565b60405180910390fd5b611e72856120a8565b5b5050505050565b6000606560009054906101000a900473ffffffffffffffffffffffffffffffffffffffff16905081606560006101000a81548173ffffffffffffffffffffffffffffffffffffffff021916908373ffffffffffffffffffffffffffffffffffffffff1602179055508173ffffffffffffffffffffffffffffffffffffffff168173ffffffffffffffffffffffffffffffffffffffff167f8be0079c531659141344cd1fd0a4f28419497f9722a3daafe3b4186f6b6457e060405160405180910390a35050565b6000611f4b306116e5565b15905090565b600060019054906101000a900460ff16611fa0576040517f08c379a0000000000000000000000000000000000000000000000000000000008152600401611f9790613140565b60405180910390fd5b611faa82826120f7565b5050565b6000819050919050565b611fc181612178565b612000576040517f08c379a0000000000000000000000000000000000000000000000000000000008152600401611ff7906131d2565b60405180910390fd5b8061202d7f360894a13ba1a3210667c828492db98dca3e2076cc3735a920a3ca505d382bbc60001b611fae565b60000160006101000a81548173ffffffffffffffffffffffffffffffffffffffff021916908373ffffffffffffffffffffffffffffffffffffffff16021790555050565b606061209683836040518060600160405280602781526020016132e36027913961218b565b905092915050565b6000819050919050565b6120b181611fb8565b8073ffffffffffffffffffffffffffffffffffffffff167fbc7cd75a20ee27fd9adebab32041f755214dbc6bffa90cc0225b39da2e5c2d3b60405160405180910390a250565b600060019054906101000a900460ff16612146576040517f08c379a000000000000000000000000000000000000000000000000000000000815260040161213d90613140565b60405180910390fd5b816036908051906020019061215c9291906122bf565b5080603790805190602001906121739291906122bf565b505050565b600080823b905060008111915050919050565b606061219684612178565b6121d5576040517f08c379a00000000000000000000000000000000000000000000000000000000081526004016121cc90613264565b60405180910390fd5b6000808573ffffffffffffffffffffffffffffffffffffffff16856040516121fd91906132cb565b600060405180830381855af49150503d8060008114612238576040519150601f19603f3d011682016040523d82523d6000602084013e61223d565b606091505b509150915061224d828286612258565b925050509392505050565b60608315612268578290506122b8565b60008351111561227b5782518084602001fd5b816040517f08c379a00000000000000000000000000000000000000000000000000000000081526004016122af91906123fb565b60405180910390fd5b9392505050565b8280546122cb906128c6565b90600052602060002090601f0160209004810192826122ed5760008555612334565b82601f1061230657805160ff1916838001178555612334565b82800160010185558215612334579182015b82811115612333578251825591602001919060010190612318565b5b5090506123419190612345565b5090565b5b8082111561235e576000816000905550600101612346565b5090565b600081519050919050565b600082825260208201905092915050565b60005b8381101561239c578082015181840152602081019050612381565b838111156123ab576000848401525b50505050565b6000601f19601f8301169050919050565b60006123cd82612362565b6123d7818561236d565b93506123e781856020860161237e565b6123f0816123b1565b840191505092915050565b6000602082019050818103600083015261241581846123c2565b905092915050565b6000604051905090565b600080fd5b600080fd5b600073ffffffffffffffffffffffffffffffffffffffff82169050919050565b600061245c82612431565b9050919050565b61246c81612451565b811461247757600080fd5b50565b60008135905061248981612463565b92915050565b6000819050919050565b6124a28161248f565b81146124ad57600080fd5b50565b6000813590506124bf81612499565b92915050565b600080604083850312156124dc576124db612427565b5b60006124ea8582860161247a565b92505060206124fb858286016124b0565b9150509250929050565b60008115159050919050565b61251a81612505565b82525050565b60006020820190506125356000830184612511565b92915050565b6125448161248f565b82525050565b600060208201905061255f600083018461253b565b92915050565b60008060006060848603121561257e5761257d612427565b5b600061258c8682870161247a565b935050602061259d8682870161247a565b92505060406125ae868287016124b0565b9150509250925092565b6000602082840312156125ce576125cd612427565b5b60006125dc848285016124b0565b91505092915050565b600060ff82169050919050565b6125fb816125e5565b82525050565b600060208201905061261660008301846125f2565b92915050565b60006020828403121561263257612631612427565b5b60006126408482850161247a565b91505092915050565b600080fd5b600080fd5b7f4e487b7100000000000000000000000000000000000000000000000000000000600052604160045260246000fd5b61268b826123b1565b810181811067ffffffffffffffff821117156126aa576126a9612653565b5b80604052505050565b60006126bd61241d565b90506126c98282612682565b919050565b600067ffffffffffffffff8211156126e9576126e8612653565b5b6126f2826123b1565b9050602081019050919050565b82818337600083830152505050565b600061272161271c846126ce565b6126b3565b90508281526020810184848401111561273d5761273c61264e565b5b6127488482856126ff565b509392505050565b600082601f83011261276557612764612649565b5b813561277584826020860161270e565b91505092915050565b6000806040838503121561279557612794612427565b5b60006127a38582860161247a565b925050602083013567ffffffffffffffff8111156127c4576127c361242c565b5b6127d085828601612750565b9150509250929050565b6127e381612451565b82525050565b60006020820190506127fe60008301846127da565b92915050565b60008060006060848603121561281d5761281c612427565b5b600061282b8682870161247a565b935050602061283c8682870161247a565b925050604061284d8682870161247a565b9150509250925092565b6000806040838503121561286e5761286d612427565b5b600061287c8582860161247a565b925050602061288d8582860161247a565b9150509250929050565b7f4e487b7100000000000000000000000000000000000000000000000000000000600052602260045260246000fd5b600060028204905060018216806128de57607f821691505b602082108114156128f2576128f1612897565b5b50919050565b7f4e487b7100000000000000000000000000000000000000000000000000000000600052601160045260246000fd5b60006129328261248f565b915061293d8361248f565b9250828210156129505761294f6128f8565b5b828203905092915050565b600060408201905061297060008301856127da565b61297d602083018461253b565b9392505050565b61298d81612505565b811461299857600080fd5b50565b6000815190506129aa81612984565b92915050565b6000602082840312156129c6576129c5612427565b5b60006129d48482850161299b565b91505092915050565b7f46756e6374696f6e206d7573742062652063616c6c6564207468726f7567682060008201527f64656c656761746563616c6c0000000000000000000000000000000000000000602082015250565b6000612a39602c8361236d565b9150612a44826129dd565b604082019050919050565b60006020820190508181036000830152612a6881612a2c565b9050919050565b7f46756e6374696f6e206d7573742062652063616c6c6564207468726f7567682060008201527f6163746976652070726f78790000000000000000000000000000000000000000602082015250565b6000612acb602c8361236d565b9150612ad682612a6f565b604082019050919050565b60006020820190508181036000830152612afa81612abe565b9050919050565b6000612b0c8261248f565b9150612b178361248f565b9250827fffffffffffffffffffffffffffffffffffffffffffffffffffffffffffffffff03821115612b4c57612b4b6128f8565b5b828201905092915050565b7f4f776e61626c653a2063616c6c6572206973206e6f7420746865206f776e6572600082015250565b6000612b8d60208361236d565b9150612b9882612b57565b602082019050919050565b60006020820190508181036000830152612bbc81612b80565b9050919050565b7f45524332303a2064656372656173656420616c6c6f77616e63652062656c6f7760008201527f207a65726f000000000000000000000000000000000000000000000000000000602082015250565b6000612c1f60258361236d565b9150612c2a82612bc3565b604082019050919050565b60006020820190508181036000830152612c4e81612c12565b9050919050565b6000606082019050612c6a60008301866127da565b612c7760208301856127da565b612c84604083018461253b565b949350505050565b7f496e697469616c697a61626c653a20636f6e747261637420697320616c72656160008201527f647920696e697469616c697a6564000000000000000000000000000000000000602082015250565b6000612ce8602e8361236d565b9150612cf382612c8c565b604082019050919050565b60006020820190508181036000830152612d1781612cdb565b9050919050565b600081519050612d2d81612499565b92915050565b600060208284031215612d4957612d48612427565b5b6000612d5784828501612d1e565b91505092915050565b6000612d6b8261248f565b9150612d768361248f565b9250817fffffffffffffffffffffffffffffffffffffffffffffffffffffffffffffffff0483118215151615612daf57612dae6128f8565b5b828202905092915050565b7f4e487b7100000000000000000000000000000000000000000000000000000000600052601260045260246000fd5b6000612df48261248f565b9150612dff8361248f565b925082612e0f57612e0e612dba565b5b828204905092915050565b7f4f776e61626c653a206e6577206f776e657220697320746865207a65726f206160008201527f6464726573730000000000000000000000000000000000000000000000000000602082015250565b6000612e7660268361236d565b9150612e8182612e1a565b604082019050919050565b60006020820190508181036000830152612ea581612e69565b9050919050565b7f45524332303a20617070726f76652066726f6d20746865207a65726f2061646460008201527f7265737300000000000000000000000000000000000000000000000000000000602082015250565b6000612f0860248361236d565b9150612f1382612eac565b604082019050919050565b60006020820190508181036000830152612f3781612efb565b9050919050565b7f45524332303a20617070726f766520746f20746865207a65726f20616464726560008201527f7373000000000000000000000000000000000000000000000000000000000000602082015250565b6000612f9a60228361236d565b9150612fa582612f3e565b604082019050919050565b60006020820190508181036000830152612fc981612f8d565b9050919050565b7f45524332303a20696e73756666696369656e7420616c6c6f77616e6365000000600082015250565b6000613006601d8361236d565b915061301182612fd0565b602082019050919050565b6000602082019050818103600083015261303581612ff9565b9050919050565b7f45524331393637557067726164653a207570677261646520627265616b73206660008201527f7572746865722075706772616465730000000000000000000000000000000000602082015250565b6000613098602f8361236d565b91506130a38261303c565b604082019050919050565b600060208201905081810360008301526130c78161308b565b9050919050565b7f496e697469616c697a61626c653a20636f6e7472616374206973206e6f74206960008201527f6e697469616c697a696e67000000000000000000000000000000000000000000602082015250565b600061312a602b8361236d565b9150613135826130ce565b604082019050919050565b600060208201905081810360008301526131598161311d565b9050919050565b7f455243313936373a206e657720696d706c656d656e746174696f6e206973206e60008201527f6f74206120636f6e747261637400000000000000000000000000000000000000602082015250565b60006131bc602d8361236d565b91506131c782613160565b604082019050919050565b600060208201905081810360008301526131eb816131af565b9050919050565b7f416464726573733a2064656c65676174652063616c6c20746f206e6f6e2d636f60008201527f6e74726163740000000000000000000000000000000000000000000000000000602082015250565b600061324e60268361236d565b9150613259826131f2565b604082019050919050565b6000602082019050818103600083015261327d81613241565b9050919050565b600081519050919050565b600081905092915050565b60006132a582613284565b6132af818561328f565b93506132bf81856020860161237e565b80840191505092915050565b60006132d7828461329a565b91508190509291505056fe416464726573733a206c6f772d6c6576656c2064656c65676174652063616c6c206661696c6564a2646970667358221220d01ca8ec5b01e4c8708c4a7f4848c25fb2de5eabc4bc0995e7b8f5916e25bec864736f6c634300080b0033",
  "devdoc": {
    "details": "This contract depends on the Account and StakedCelo contracts to calculate the amount of rstCELO held by depositors.",
    "errors": {
      "FailedDeposit(address,uint256)": [
        {
          "params": {
            "amount": "The amount of stCELO the depositor attempted to deposit.",
            "depositor": "The address of the depositor."
          }
        }
      ],
      "FailedWithdrawal(address,uint256)": [
        {
          "params": {
            "amount": "The amount of stCELO the withdrawer attempted to withdraw.",
            "withdrawer": "The address of the withdrawer."
          }
        }
      ],
      "InsufficientBalance(uint256)": [
        {
          "params": {
            "amount": "The amount of stCELO that is insufficient."
          }
        }
      ]
    },
    "events": {
      "StakedCeloDeposited(address,uint256)": {
        "params": {
          "amount": "The amount of stCELO deposited.",
          "depositor": "The address of the depositor."
        }
      },
      "StakedCeloWithdrawn(address,uint256)": {
        "params": {
          "amount": "The amount of stCELO withdrawn.",
          "withdrawer": "The address of the withdrawer."
        }
      }
    },
    "kind": "dev",
    "methods": {
      "allowance(address,address)": {
        "details": "See {IERC20-allowance}."
      },
      "approve(address,uint256)": {
        "details": "See {IERC20-approve}. NOTE: If `amount` is the maximum `uint256`, the allowance is not updated on `transferFrom`. This is semantically equivalent to an infinite approval. Requirements: - `spender` cannot be the zero address."
      },
      "balanceOf(address)": {
        "params": {
          "_account": "The address of interest."
        },
        "returns": {
          "_0": "The amount of rstCELO owned by the address."
        }
      },
      "decimals()": {
        "details": "Returns the number of decimals used to get its user representation. For example, if `decimals` equals `2`, a balance of `505` tokens should be displayed to a user as `5.05` (`505 / 10 ** 2`). Tokens usually opt for a value of 18, imitating the relationship between Ether and Wei. This is the value {ERC20} uses, unless this function is overridden; NOTE: This information is only used for _display_ purposes: it in no way affects any of the arithmetic of the contract, including {IERC20-balanceOf} and {IERC20-transfer}."
      },
      "decreaseAllowance(address,uint256)": {
        "details": "Atomically decreases the allowance granted to `spender` by the caller. This is an alternative to {approve} that can be used as a mitigation for problems described in {IERC20-approve}. Emits an {Approval} event indicating the updated allowance. Requirements: - `spender` cannot be the zero address. - `spender` must have allowance for the caller of at least `subtractedValue`."
      },
      "deposit(uint256)": {
        "details": "Although rstCELO is never minted to any account, the rstCELO balance is calculated based on the account's deposited stCELO. See `balanceOf()` function below.",
        "params": {
          "stCeloAmount": "The Amount of stCELO to be deposited."
        }
      },
      "increaseAllowance(address,uint256)": {
        "details": "Atomically increases the allowance granted to `spender` by the caller. This is an alternative to {approve} that can be used as a mitigation for problems described in {IERC20-approve}. Emits an {Approval} event indicating the updated allowance. Requirements: - `spender` cannot be the zero address."
      },
      "initialize(address,address,address)": {
        "params": {
          "_account": "The address of the Account contract.",
          "_owner": "The address of the contract owner.",
          "_stakedCelo": "The address of the StakedCelo contract."
        }
      },
      "name()": {
        "details": "Returns the name of the token."
      },
      "owner()": {
        "details": "Returns the address of the current owner."
      },
      "renounceOwnership()": {
        "details": "Leaves the contract without owner. It will not be possible to call `onlyOwner` functions anymore. Can only be called by the current owner. NOTE: Renouncing ownership will leave the contract without an owner, thereby removing any functionality that is only available to the owner."
      },
      "symbol()": {
        "details": "Returns the symbol of the token, usually a shorter version of the name."
      },
      "toRebasedStakedCelo(uint256)": {
        "params": {
          "stCeloAmount": "The amount of stCELO."
        },
        "returns": {
          "_0": "The amount of rstCELO represented by stCELO."
        }
      },
      "toStakedCelo(uint256)": {
        "params": {
          "rstCeloAmount": "The amount of rstCELO."
        },
        "returns": {
          "_0": "The amount of stCELO represented by rstCELO."
        }
      },
      "totalSupply()": {
        "returns": {
          "_0": "The calculated total supply of rstCELO."
        }
      },
      "transfer(address,uint256)": {
        "details": "See {IERC20-transfer}. Requirements: - `to` cannot be the zero address. - the caller must have a balance of at least `amount`."
      },
      "transferFrom(address,address,uint256)": {
        "details": "See {IERC20-transferFrom}. Emits an {Approval} event indicating the updated allowance. This is not required by the EIP. See the note at the beginning of {ERC20}. NOTE: Does not update the allowance if the current allowance is the maximum `uint256`. Requirements: - `from` and `to` cannot be the zero address. - `from` must have a balance of at least `amount`. - the caller must have allowance for ``from``'s tokens of at least `amount`."
      },
      "transferOwnership(address)": {
        "details": "Transfers ownership of the contract to a new account (`newOwner`). Can only be called by the current owner."
      },
      "upgradeTo(address)": {
        "details": "Upgrade the implementation of the proxy to `newImplementation`. Calls {_authorizeUpgrade}. Emits an {Upgraded} event."
      },
      "upgradeToAndCall(address,bytes)": {
        "details": "Upgrade the implementation of the proxy to `newImplementation`, and subsequently execute the function call encoded in `data`. Calls {_authorizeUpgrade}. Emits an {Upgraded} event."
      },
      "withdraw(uint256)": {
        "params": {
          "stCeloAmount": "The amount of stCELO to withdraw."
        }
      }
    },
    "title": "An ERC-20 wrapper contract that receives stCELO and represents the underlying voted LockedGold in the StakedCelo system.",
    "version": 1
  },
  "userdoc": {
    "errors": {
      "FailedDeposit(address,uint256)": [
        {
          "notice": "Used when deposit fails."
        }
      ],
      "FailedWithdrawal(address,uint256)": [
        {
          "notice": "Used when withdrawal fails."
        }
      ],
      "InsufficientBalance(uint256)": [
        {
          "notice": "Used when a balance is too low."
        }
      ],
      "NullAddress()": [
        {
          "notice": "Used when an null address is used."
        }
      ],
      "ZeroAmount()": [
        {
          "notice": "Used when the deposit amount is zero."
        }
      ]
    },
    "events": {
      "StakedCeloDeposited(address,uint256)": {
        "notice": "Used when a deposit is successfuly completed."
      },
      "StakedCeloWithdrawn(address,uint256)": {
        "notice": "Used when a withdrawal is successfully completed."
      }
    },
    "kind": "user",
    "methods": {
      "balanceOf(address)": {
        "notice": "Used to query the rstCELO balance of an address."
      },
      "constructor": {
        "notice": "Empty constructor for proxy implementation, `initializer` modifer ensures the implementation gets initialized."
      },
      "deposit(uint256)": {
        "notice": "Deposit stCELO in return for rstCELO."
      },
      "initialize(address,address,address)": {
        "notice": "Replaces the constructor for proxy implementation."
      },
      "stakedCeloBalance(address)": {
        "notice": "Keyed by depositor address, the amount of stCELO deposited."
      },
      "toRebasedStakedCelo(uint256)": {
        "notice": "Computes the amount of rstCELO that is represented by an amount of stCELO."
      },
      "toStakedCelo(uint256)": {
        "notice": "Computes the amount of stCELO that is represented by an amount of rstCELO."
      },
      "totalDeposit()": {
        "notice": "Total amount of stCELO deposited in this contract."
      },
      "totalSupply()": {
        "notice": "Used to query the total supply of rstCELO."
      },
      "withdraw(uint256)": {
        "notice": "Withdraws stCELO. This function transfers back some or all of sender's previously deposited stCELO amount."
      }
    },
    "version": 1
  },
  "storageLayout": {
    "storage": [
      {
        "astId": 130,
        "contract": "contracts/RebasedStakedCelo.sol:RebasedStakedCelo",
        "label": "_initialized",
        "offset": 0,
        "slot": "0",
        "type": "t_bool"
      },
      {
        "astId": 133,
        "contract": "contracts/RebasedStakedCelo.sol:RebasedStakedCelo",
        "label": "_initializing",
        "offset": 1,
        "slot": "0",
        "type": "t_bool"
      },
      {
        "astId": 1197,
        "contract": "contracts/RebasedStakedCelo.sol:RebasedStakedCelo",
        "label": "__gap",
        "offset": 0,
        "slot": "1",
        "type": "t_array(t_uint256)50_storage"
      },
      {
        "astId": 216,
        "contract": "contracts/RebasedStakedCelo.sol:RebasedStakedCelo",
        "label": "_balances",
        "offset": 0,
        "slot": "51",
        "type": "t_mapping(t_address,t_uint256)"
      },
      {
        "astId": 222,
        "contract": "contracts/RebasedStakedCelo.sol:RebasedStakedCelo",
        "label": "_allowances",
        "offset": 0,
        "slot": "52",
        "type": "t_mapping(t_address,t_mapping(t_address,t_uint256))"
      },
      {
        "astId": 224,
        "contract": "contracts/RebasedStakedCelo.sol:RebasedStakedCelo",
        "label": "_totalSupply",
        "offset": 0,
        "slot": "53",
        "type": "t_uint256"
      },
      {
        "astId": 226,
        "contract": "contracts/RebasedStakedCelo.sol:RebasedStakedCelo",
        "label": "_name",
        "offset": 0,
        "slot": "54",
        "type": "t_string_storage"
      },
      {
        "astId": 228,
        "contract": "contracts/RebasedStakedCelo.sol:RebasedStakedCelo",
        "label": "_symbol",
        "offset": 0,
        "slot": "55",
        "type": "t_string_storage"
      },
      {
        "astId": 809,
        "contract": "contracts/RebasedStakedCelo.sol:RebasedStakedCelo",
        "label": "__gap",
        "offset": 0,
        "slot": "56",
        "type": "t_array(t_uint256)45_storage"
      },
      {
        "astId": 10,
        "contract": "contracts/RebasedStakedCelo.sol:RebasedStakedCelo",
        "label": "_owner",
        "offset": 0,
        "slot": "101",
        "type": "t_address"
      },
      {
        "astId": 122,
        "contract": "contracts/RebasedStakedCelo.sol:RebasedStakedCelo",
        "label": "__gap",
        "offset": 0,
        "slot": "102",
        "type": "t_array(t_uint256)49_storage"
      },
      {
        "astId": 6167,
        "contract": "contracts/RebasedStakedCelo.sol:RebasedStakedCelo",
        "label": "totalDeposit",
        "offset": 0,
        "slot": "151",
        "type": "t_uint256"
      },
      {
        "astId": 6172,
        "contract": "contracts/RebasedStakedCelo.sol:RebasedStakedCelo",
        "label": "stakedCeloBalance",
        "offset": 0,
        "slot": "152",
        "type": "t_mapping(t_address,t_uint256)"
      },
      {
        "astId": 6176,
        "contract": "contracts/RebasedStakedCelo.sol:RebasedStakedCelo",
        "label": "stakedCelo",
        "offset": 0,
        "slot": "153",
        "type": "t_contract(IStakedCelo)9073"
      },
      {
        "astId": 6180,
        "contract": "contracts/RebasedStakedCelo.sol:RebasedStakedCelo",
        "label": "account",
        "offset": 0,
        "slot": "154",
        "type": "t_contract(IAccount)8227"
      }
    ],
    "types": {
      "t_address": {
        "encoding": "inplace",
        "label": "address",
        "numberOfBytes": "20"
      },
      "t_array(t_uint256)45_storage": {
        "base": "t_uint256",
        "encoding": "inplace",
        "label": "uint256[45]",
        "numberOfBytes": "1440"
      },
      "t_array(t_uint256)49_storage": {
        "base": "t_uint256",
        "encoding": "inplace",
        "label": "uint256[49]",
        "numberOfBytes": "1568"
      },
      "t_array(t_uint256)50_storage": {
        "base": "t_uint256",
        "encoding": "inplace",
        "label": "uint256[50]",
        "numberOfBytes": "1600"
      },
      "t_bool": {
        "encoding": "inplace",
        "label": "bool",
        "numberOfBytes": "1"
      },
      "t_contract(IAccount)8227": {
        "encoding": "inplace",
        "label": "contract IAccount",
        "numberOfBytes": "20"
      },
      "t_contract(IStakedCelo)9073": {
        "encoding": "inplace",
        "label": "contract IStakedCelo",
        "numberOfBytes": "20"
      },
      "t_mapping(t_address,t_mapping(t_address,t_uint256))": {
        "encoding": "mapping",
        "key": "t_address",
        "label": "mapping(address => mapping(address => uint256))",
        "numberOfBytes": "32",
        "value": "t_mapping(t_address,t_uint256)"
      },
      "t_mapping(t_address,t_uint256)": {
        "encoding": "mapping",
        "key": "t_address",
        "label": "mapping(address => uint256)",
        "numberOfBytes": "32",
        "value": "t_uint256"
      },
      "t_string_storage": {
        "encoding": "bytes",
        "label": "string",
        "numberOfBytes": "32"
      },
      "t_uint256": {
        "encoding": "inplace",
        "label": "uint256",
        "numberOfBytes": "32"
      }
    }
  }
}