{
  "address": "0xC2FD564028536DF9fe87de36BBAB6aE26B33e3D0",
  "abi": [
    {
      "inputs": [],
      "stateMutability": "nonpayable",
      "type": "constructor"
    },
    {
      "inputs": [],
      "name": "AccountCreationFailed",
      "type": "error"
    },
    {
      "inputs": [
        {
          "internalType": "address",
          "name": "group",
          "type": "address"
        }
      ],
      "name": "ActivatePendingVotesFailed",
      "type": "error"
    },
    {
      "inputs": [],
      "name": "AddressZeroNotAllowed",
      "type": "error"
    },
    {
      "inputs": [
        {
          "internalType": "address",
          "name": "caller",
          "type": "address"
        }
      ],
      "name": "CallerNotManager",
      "type": "error"
    },
    {
      "inputs": [
        {
          "internalType": "address",
          "name": "to",
          "type": "address"
        },
        {
          "internalType": "uint256",
          "name": "amount",
          "type": "uint256"
        }
      ],
      "name": "CeloTransferFailed",
      "type": "error"
    },
    {
      "inputs": [],
      "name": "GroupsAndVotesArrayLengthsMismatch",
      "type": "error"
    },
    {
      "inputs": [
        {
          "internalType": "uint256",
          "name": "localPendingWithdrawalTimestamp",
          "type": "uint256"
        },
        {
          "internalType": "uint256",
          "name": "lockedGoldPendingWithdrawalTimestamp",
          "type": "uint256"
        }
      ],
      "name": "InconsistentPendingWithdrawalTimestamps",
      "type": "error"
    },
    {
      "inputs": [
        {
          "internalType": "uint256",
          "name": "localPendingWithdrawalValue",
          "type": "uint256"
        },
        {
          "internalType": "uint256",
          "name": "lockedGoldPendingWithdrawalValue",
          "type": "uint256"
        }
      ],
      "name": "InconsistentPendingWithdrawalValues",
      "type": "error"
    },
    {
      "inputs": [
        {
          "internalType": "address",
          "name": "group",
          "type": "address"
        },
        {
          "internalType": "uint256",
          "name": "amount",
          "type": "uint256"
        }
      ],
      "name": "InsufficientRevokableVotes",
      "type": "error"
    },
    {
      "inputs": [
        {
          "internalType": "address",
          "name": "beneficiary",
          "type": "address"
        },
        {
          "internalType": "address",
          "name": "group",
          "type": "address"
        }
      ],
      "name": "NoScheduledWithdrawal",
      "type": "error"
    },
    {
      "inputs": [
        {
          "internalType": "address",
          "name": "group",
          "type": "address"
        },
        {
          "internalType": "uint256",
          "name": "expectedAmount",
          "type": "uint256"
        },
        {
          "internalType": "uint256",
          "name": "realAmount",
          "type": "uint256"
        }
      ],
      "name": "NotEnoughCeloInGroup",
      "type": "error"
    },
    {
      "inputs": [],
      "name": "OnlyPauser",
      "type": "error"
    },
    {
      "inputs": [],
      "name": "Paused",
      "type": "error"
    },
    {
      "inputs": [
        {
          "internalType": "uint256",
          "name": "pendingWithdrawalIndex",
          "type": "uint256"
        },
        {
          "internalType": "uint256",
          "name": "pendingWithdrawalsLength",
          "type": "uint256"
        }
      ],
      "name": "PendingWithdrawalIndexTooHigh",
      "type": "error"
    },
    {
      "inputs": [
        {
          "internalType": "address",
          "name": "group",
          "type": "address"
        },
        {
          "internalType": "uint256",
          "name": "amount",
          "type": "uint256"
        }
      ],
      "name": "RevokeActiveFailed",
      "type": "error"
    },
    {
      "inputs": [
        {
          "internalType": "address",
          "name": "group",
          "type": "address"
        },
        {
          "internalType": "uint256",
          "name": "amount",
          "type": "uint256"
        }
      ],
      "name": "RevokePendingFailed",
      "type": "error"
    },
    {
      "inputs": [
        {
          "internalType": "uint256",
          "name": "sentValue",
          "type": "uint256"
        },
        {
          "internalType": "uint256",
          "name": "expectedValue",
          "type": "uint256"
        }
      ],
      "name": "TotalVotesMismatch",
      "type": "error"
    },
    {
      "inputs": [
        {
          "internalType": "uint256",
          "name": "totalFromVotes",
          "type": "uint256"
        },
        {
          "internalType": "uint256",
          "name": "totalToVotes",
          "type": "uint256"
        }
      ],
      "name": "TransferAmountMisalignment",
      "type": "error"
    },
    {
      "inputs": [
        {
          "internalType": "address",
          "name": "group",
          "type": "address"
        },
        {
          "internalType": "uint256",
          "name": "amount",
          "type": "uint256"
        }
      ],
      "name": "VoteFailed",
      "type": "error"
    },
    {
      "inputs": [
        {
          "internalType": "uint256",
          "name": "proposalId",
          "type": "uint256"
        }
      ],
      "name": "VotingNotSuccessful",
      "type": "error"
    },
    {
      "inputs": [
        {
          "internalType": "address",
          "name": "group",
          "type": "address"
        },
        {
          "internalType": "uint256",
          "name": "celoAvailable",
          "type": "uint256"
        },
        {
          "internalType": "uint256",
          "name": "celoToWindraw",
          "type": "uint256"
        }
      ],
      "name": "WithdrawalAmountTooHigh",
      "type": "error"
    },
    {
      "anonymous": false,
      "inputs": [
        {
          "indexed": false,
          "internalType": "address",
          "name": "previousAdmin",
          "type": "address"
        },
        {
          "indexed": false,
          "internalType": "address",
          "name": "newAdmin",
          "type": "address"
        }
      ],
      "name": "AdminChanged",
      "type": "event"
    },
    {
      "anonymous": false,
      "inputs": [
        {
          "indexed": true,
          "internalType": "address",
          "name": "beacon",
          "type": "address"
        }
      ],
      "name": "BeaconUpgraded",
      "type": "event"
    },
    {
      "anonymous": false,
      "inputs": [
        {
          "indexed": true,
          "internalType": "address",
          "name": "beneficiary",
          "type": "address"
        },
        {
          "indexed": false,
          "internalType": "uint256",
          "name": "amount",
          "type": "uint256"
        },
        {
          "indexed": false,
          "internalType": "uint256",
          "name": "timestamp",
          "type": "uint256"
        }
      ],
      "name": "CeloWithdrawalFinished",
      "type": "event"
    },
    {
      "anonymous": false,
      "inputs": [
        {
          "indexed": true,
          "internalType": "address",
          "name": "beneficiary",
          "type": "address"
        },
        {
          "indexed": true,
          "internalType": "address",
          "name": "group",
          "type": "address"
        },
        {
          "indexed": false,
          "internalType": "uint256",
          "name": "withdrawalAmount",
          "type": "uint256"
        }
      ],
      "name": "CeloWithdrawalScheduled",
      "type": "event"
    },
    {
      "anonymous": false,
      "inputs": [
        {
          "indexed": true,
          "internalType": "address",
          "name": "beneficiary",
          "type": "address"
        },
        {
          "indexed": true,
          "internalType": "address",
          "name": "group",
          "type": "address"
        },
        {
          "indexed": false,
          "internalType": "uint256",
          "name": "withdrawalAmount",
          "type": "uint256"
        }
      ],
      "name": "CeloWithdrawalStarted",
      "type": "event"
    },
    {
      "anonymous": false,
      "inputs": [],
      "name": "ContractPaused",
      "type": "event"
    },
    {
      "anonymous": false,
      "inputs": [],
      "name": "ContractUnpaused",
      "type": "event"
    },
    {
      "anonymous": false,
      "inputs": [
        {
          "indexed": true,
          "internalType": "address",
          "name": "manager",
          "type": "address"
        }
      ],
      "name": "ManagerSet",
      "type": "event"
    },
    {
      "anonymous": false,
      "inputs": [
        {
          "indexed": true,
          "internalType": "address",
          "name": "previousOwner",
          "type": "address"
        },
        {
          "indexed": true,
          "internalType": "address",
          "name": "newOwner",
          "type": "address"
        }
      ],
      "name": "OwnershipTransferred",
      "type": "event"
    },
    {
      "anonymous": false,
      "inputs": [
        {
          "indexed": false,
          "internalType": "address",
          "name": "pauser",
          "type": "address"
        }
      ],
      "name": "PauserSet",
      "type": "event"
    },
    {
      "anonymous": false,
      "inputs": [
        {
          "indexed": true,
          "internalType": "address",
          "name": "group",
          "type": "address"
        },
        {
          "indexed": false,
          "internalType": "uint256",
          "name": "amount",
          "type": "uint256"
        }
      ],
      "name": "RevocationScheduled",
      "type": "event"
    },
    {
      "anonymous": false,
      "inputs": [
        {
          "indexed": true,
          "internalType": "address",
          "name": "implementation",
          "type": "address"
        }
      ],
      "name": "Upgraded",
      "type": "event"
    },
    {
      "anonymous": false,
      "inputs": [
        {
          "indexed": true,
          "internalType": "address",
          "name": "group",
          "type": "address"
        },
        {
          "indexed": false,
          "internalType": "uint256",
          "name": "amount",
          "type": "uint256"
        }
      ],
      "name": "VotesScheduled",
      "type": "event"
    },
    {
      "inputs": [],
      "name": "PAUSED_POSITION",
      "outputs": [
        {
          "internalType": "bytes32",
          "name": "",
          "type": "bytes32"
        }
      ],
      "stateMutability": "view",
      "type": "function"
    },
    {
      "inputs": [],
      "name": "PAUSER_POSITION",
      "outputs": [
        {
          "internalType": "bytes32",
          "name": "",
          "type": "bytes32"
        }
      ],
      "stateMutability": "view",
      "type": "function"
    },
    {
      "inputs": [
        {
          "internalType": "address",
          "name": "group",
          "type": "address"
        },
        {
          "internalType": "address",
          "name": "voteLesser",
          "type": "address"
        },
        {
          "internalType": "address",
          "name": "voteGreater",
          "type": "address"
        }
      ],
      "name": "activateAndVote",
      "outputs": [],
      "stateMutability": "nonpayable",
      "type": "function"
    },
    {
      "inputs": [
        {
          "internalType": "address",
          "name": "beneficiary",
          "type": "address"
        },
        {
          "internalType": "uint256",
          "name": "localPendingWithdrawalIndex",
          "type": "uint256"
        },
        {
          "internalType": "uint256",
          "name": "lockedGoldPendingWithdrawalIndex",
          "type": "uint256"
        }
      ],
      "name": "finishPendingWithdrawal",
      "outputs": [
        {
          "internalType": "uint256",
          "name": "amount",
          "type": "uint256"
        }
      ],
      "stateMutability": "nonpayable",
      "type": "function"
    },
    {
      "inputs": [
        {
          "internalType": "address",
          "name": "group",
          "type": "address"
        }
      ],
      "name": "getCeloForGroup",
      "outputs": [
        {
          "internalType": "uint256",
          "name": "",
          "type": "uint256"
        }
      ],
      "stateMutability": "view",
      "type": "function"
    },
    {
      "inputs": [
        {
          "internalType": "address",
          "name": "beneficiary",
          "type": "address"
        }
      ],
      "name": "getNumberPendingWithdrawals",
      "outputs": [
        {
          "internalType": "uint256",
          "name": "",
          "type": "uint256"
        }
      ],
      "stateMutability": "view",
      "type": "function"
    },
    {
      "inputs": [
        {
          "internalType": "address",
          "name": "beneficiary",
          "type": "address"
        },
        {
          "internalType": "uint256",
          "name": "index",
          "type": "uint256"
        }
      ],
      "name": "getPendingWithdrawal",
      "outputs": [
        {
          "internalType": "uint256",
          "name": "value",
          "type": "uint256"
        },
        {
          "internalType": "uint256",
          "name": "timestamp",
          "type": "uint256"
        }
      ],
      "stateMutability": "view",
      "type": "function"
    },
    {
      "inputs": [
        {
          "internalType": "address",
          "name": "beneficiary",
          "type": "address"
        }
      ],
      "name": "getPendingWithdrawals",
      "outputs": [
        {
          "internalType": "uint256[]",
          "name": "values",
          "type": "uint256[]"
        },
        {
          "internalType": "uint256[]",
          "name": "timestamps",
          "type": "uint256[]"
        }
      ],
      "stateMutability": "view",
      "type": "function"
    },
    {
      "inputs": [],
      "name": "getTotalCelo",
      "outputs": [
        {
          "internalType": "uint256",
          "name": "",
          "type": "uint256"
        }
      ],
      "stateMutability": "view",
      "type": "function"
    },
    {
      "inputs": [],
      "name": "getVersionNumber",
      "outputs": [
        {
          "internalType": "uint256",
          "name": "",
          "type": "uint256"
        },
        {
          "internalType": "uint256",
          "name": "",
          "type": "uint256"
        },
        {
          "internalType": "uint256",
          "name": "",
          "type": "uint256"
        },
        {
          "internalType": "uint256",
          "name": "",
          "type": "uint256"
        }
      ],
      "stateMutability": "pure",
      "type": "function"
    },
    {
      "inputs": [
        {
          "internalType": "address",
          "name": "_registry",
          "type": "address"
        },
        {
          "internalType": "address",
          "name": "_manager",
          "type": "address"
        },
        {
          "internalType": "address",
          "name": "_owner",
          "type": "address"
        }
      ],
      "name": "initialize",
      "outputs": [],
      "stateMutability": "nonpayable",
      "type": "function"
    },
    {
      "inputs": [],
      "name": "isPaused",
      "outputs": [
        {
          "internalType": "bool",
          "name": "",
          "type": "bool"
        }
      ],
      "stateMutability": "view",
      "type": "function"
    },
    {
      "inputs": [],
      "name": "manager",
      "outputs": [
        {
          "internalType": "address",
          "name": "",
          "type": "address"
        }
      ],
      "stateMutability": "view",
      "type": "function"
    },
    {
      "inputs": [],
      "name": "owner",
      "outputs": [
        {
          "internalType": "address",
          "name": "",
          "type": "address"
        }
      ],
      "stateMutability": "view",
      "type": "function"
    },
    {
      "inputs": [],
      "name": "pause",
      "outputs": [],
      "stateMutability": "nonpayable",
      "type": "function"
    },
    {
      "inputs": [],
      "name": "pauser",
      "outputs": [
        {
          "internalType": "address",
          "name": "",
          "type": "address"
        }
      ],
      "stateMutability": "view",
      "type": "function"
    },
    {
      "inputs": [
        {
          "internalType": "address",
          "name": "",
          "type": "address"
        },
        {
          "internalType": "uint256",
          "name": "",
          "type": "uint256"
        }
      ],
      "name": "pendingWithdrawals",
      "outputs": [
        {
          "internalType": "uint256",
          "name": "value",
          "type": "uint256"
        },
        {
          "internalType": "uint256",
          "name": "timestamp",
          "type": "uint256"
        }
      ],
      "stateMutability": "view",
      "type": "function"
    },
    {
      "inputs": [],
      "name": "registry",
      "outputs": [
        {
          "internalType": "contract IRegistry",
          "name": "",
          "type": "address"
        }
      ],
      "stateMutability": "view",
      "type": "function"
    },
    {
      "inputs": [],
      "name": "renounceOwnership",
      "outputs": [],
      "stateMutability": "nonpayable",
      "type": "function"
    },
    {
      "inputs": [
        {
          "internalType": "address",
          "name": "group",
          "type": "address"
        },
        {
          "internalType": "address",
          "name": "lesserAfterPendingRevoke",
          "type": "address"
        },
        {
          "internalType": "address",
          "name": "greaterAfterPendingRevoke",
          "type": "address"
        },
        {
          "internalType": "address",
          "name": "lesserAfterActiveRevoke",
          "type": "address"
        },
        {
          "internalType": "address",
          "name": "greaterAfterActiveRevoke",
          "type": "address"
        },
        {
          "internalType": "uint256",
          "name": "index",
          "type": "uint256"
        }
      ],
      "name": "revokeVotes",
      "outputs": [],
      "stateMutability": "nonpayable",
      "type": "function"
    },
    {
      "inputs": [
        {
          "internalType": "address[]",
          "name": "fromGroups",
          "type": "address[]"
        },
        {
          "internalType": "uint256[]",
          "name": "fromVotes",
          "type": "uint256[]"
        },
        {
          "internalType": "address[]",
          "name": "toGroups",
          "type": "address[]"
        },
        {
          "internalType": "uint256[]",
          "name": "toVotes",
          "type": "uint256[]"
        }
      ],
      "name": "scheduleTransfer",
      "outputs": [],
      "stateMutability": "nonpayable",
      "type": "function"
    },
    {
      "inputs": [
        {
          "internalType": "address[]",
          "name": "groups",
          "type": "address[]"
        },
        {
          "internalType": "uint256[]",
          "name": "votes",
          "type": "uint256[]"
        }
      ],
      "name": "scheduleVotes",
      "outputs": [],
      "stateMutability": "payable",
      "type": "function"
    },
    {
      "inputs": [
        {
          "internalType": "address",
          "name": "beneficiary",
          "type": "address"
        },
        {
          "internalType": "address[]",
          "name": "groups",
          "type": "address[]"
        },
        {
          "internalType": "uint256[]",
          "name": "withdrawals",
          "type": "uint256[]"
        }
      ],
      "name": "scheduleWithdrawals",
      "outputs": [],
      "stateMutability": "nonpayable",
      "type": "function"
    },
    {
      "inputs": [
        {
          "internalType": "address",
          "name": "group",
          "type": "address"
        }
      ],
      "name": "scheduledRevokeForGroup",
      "outputs": [
        {
          "internalType": "uint256",
          "name": "",
          "type": "uint256"
        }
      ],
      "stateMutability": "view",
      "type": "function"
    },
    {
      "inputs": [
        {
          "internalType": "address",
          "name": "group",
          "type": "address"
        }
      ],
      "name": "scheduledVotesForGroup",
      "outputs": [
        {
          "internalType": "uint256",
          "name": "",
          "type": "uint256"
        }
      ],
      "stateMutability": "view",
      "type": "function"
    },
    {
      "inputs": [
        {
          "internalType": "address",
          "name": "group",
          "type": "address"
        }
      ],
      "name": "scheduledWithdrawalsForGroup",
      "outputs": [
        {
          "internalType": "uint256",
          "name": "",
          "type": "uint256"
        }
      ],
      "stateMutability": "view",
      "type": "function"
    },
    {
      "inputs": [
        {
          "internalType": "address",
          "name": "group",
          "type": "address"
        },
        {
          "internalType": "address",
          "name": "beneficiary",
          "type": "address"
        }
      ],
      "name": "scheduledWithdrawalsForGroupAndBeneficiary",
      "outputs": [
        {
          "internalType": "uint256",
          "name": "",
          "type": "uint256"
        }
      ],
      "stateMutability": "view",
      "type": "function"
    },
    {
      "inputs": [
        {
          "internalType": "bool",
          "name": "flag",
          "type": "bool"
        }
      ],
      "name": "setAllowedToVoteOverMaxNumberOfGroups",
      "outputs": [],
      "stateMutability": "nonpayable",
      "type": "function"
    },
    {
      "inputs": [
        {
          "internalType": "address",
          "name": "_manager",
          "type": "address"
        }
      ],
      "name": "setManager",
      "outputs": [],
      "stateMutability": "nonpayable",
      "type": "function"
    },
    {
      "inputs": [],
      "name": "setPauser",
      "outputs": [],
      "stateMutability": "nonpayable",
      "type": "function"
    },
    {
      "inputs": [],
      "name": "totalScheduledWithdrawals",
      "outputs": [
        {
          "internalType": "uint256",
          "name": "",
          "type": "uint256"
        }
      ],
      "stateMutability": "view",
      "type": "function"
    },
    {
      "inputs": [
        {
          "internalType": "address",
          "name": "newOwner",
          "type": "address"
        }
      ],
      "name": "transferOwnership",
      "outputs": [],
      "stateMutability": "nonpayable",
      "type": "function"
    },
    {
      "inputs": [],
      "name": "unpause",
      "outputs": [],
      "stateMutability": "nonpayable",
      "type": "function"
    },
    {
      "inputs": [
        {
          "internalType": "address",
          "name": "newImplementation",
          "type": "address"
        }
      ],
      "name": "upgradeTo",
      "outputs": [],
      "stateMutability": "nonpayable",
      "type": "function"
    },
    {
      "inputs": [
        {
          "internalType": "address",
          "name": "newImplementation",
          "type": "address"
        },
        {
          "internalType": "bytes",
          "name": "data",
          "type": "bytes"
        }
      ],
      "name": "upgradeToAndCall",
      "outputs": [],
      "stateMutability": "payable",
      "type": "function"
    },
    {
      "inputs": [
        {
          "internalType": "uint256",
          "name": "proposalId",
          "type": "uint256"
        },
        {
          "internalType": "uint256",
          "name": "index",
          "type": "uint256"
        },
        {
          "internalType": "uint256",
          "name": "yesVotes",
          "type": "uint256"
        },
        {
          "internalType": "uint256",
          "name": "noVotes",
          "type": "uint256"
        },
        {
          "internalType": "uint256",
          "name": "abstainVotes",
          "type": "uint256"
        }
      ],
      "name": "votePartially",
      "outputs": [],
      "stateMutability": "nonpayable",
      "type": "function"
    },
    {
      "inputs": [
        {
          "internalType": "address",
          "name": "group",
          "type": "address"
        }
      ],
      "name": "votesForGroup",
      "outputs": [
        {
          "internalType": "uint256",
          "name": "",
          "type": "uint256"
        }
      ],
      "stateMutability": "view",
      "type": "function"
    },
    {
      "inputs": [
        {
          "internalType": "address",
          "name": "beneficiary",
          "type": "address"
        },
        {
          "internalType": "address",
          "name": "group",
          "type": "address"
        },
        {
          "internalType": "address",
          "name": "lesserAfterPendingRevoke",
          "type": "address"
        },
        {
          "internalType": "address",
          "name": "greaterAfterPendingRevoke",
          "type": "address"
        },
        {
          "internalType": "address",
          "name": "lesserAfterActiveRevoke",
          "type": "address"
        },
        {
          "internalType": "address",
          "name": "greaterAfterActiveRevoke",
          "type": "address"
        },
        {
          "internalType": "uint256",
          "name": "index",
          "type": "uint256"
        }
      ],
      "name": "withdraw",
      "outputs": [
        {
          "internalType": "uint256",
          "name": "",
          "type": "uint256"
        }
      ],
      "stateMutability": "nonpayable",
      "type": "function"
    },
    {
      "stateMutability": "payable",
      "type": "receive"
    }
  ],
  "transactionHash": "0xebe014d80b723d5de92b0751101e955f911f467bfbbfaed7ffd7fbf6b4d334c6",
  "args": [],
  "numDeployments": 4,
  "solcInputHash": "c85bd7fabd1e1e49845930828b2e63eb",
  "bytecode": "0x60a06040523073ffffffffffffffffffffffffffffffffffffffff1660809073ffffffffffffffffffffffffffffffffffffffff168152503480156200004457600080fd5b50600060019054906101000a900460ff166200006f5760008054906101000a900460ff161562000080565b6200007f6200013c60201b60201c565b5b620000c2576040517f08c379a0000000000000000000000000000000000000000000000000000000008152600401620000b99062000204565b60405180910390fd5b60008060019054906101000a900460ff16159050801562000113576001600060016101000a81548160ff02191690831515021790555060016000806101000a81548160ff0219169083151502179055505b8015620001355760008060016101000a81548160ff0219169083151502179055505b5062000226565b600062000154306200015a60201b620033d81760201c565b15905090565b6000808273ffffffffffffffffffffffffffffffffffffffff163b119050919050565b600082825260208201905092915050565b7f496e697469616c697a61626c653a20636f6e747261637420697320616c72656160008201527f647920696e697469616c697a6564000000000000000000000000000000000000602082015250565b6000620001ec602e836200017d565b9150620001f9826200018e565b604082019050919050565b600060208201905081810360008301526200021f81620001dd565b9050919050565b6080516160fc6200025760003960008181611240015281816112cf0152818161150a015261159901526160fc6000f3fe6080604052600436106102295760003560e01c806384aff2e711610123578063c0c53b8b116100ab578063d52758aa1161006f578063d52758aa146107fd578063f2fde38b14610826578063f340c0d01461084f578063f380ade31461088d578063f8171927146108b657610230565b8063c0c53b8b14610707578063c7fb232814610730578063c9a101f31461076d578063d0ebdbe714610796578063d15ca4ed146107bf57610230565b80639fd0506d116100f25780639fd0506d146105fa578063a020c8de14610625578063acd201d014610662578063b09bdc5e1461069f578063b187bd26146106dc57610230565b806384aff2e71461053e5780638da5cb5b1461057b5780639468ba0e146105a657806395145221146105d157610230565b80633f4ba83a116101b15780635fd5c95e116101755780635fd5c95e14610491578063715018a6146104ce5780637b103999146104e55780637c0d530f146105105780638456cb591461052757610230565b80633f4ba83a146103c757806344dc4970146103de578063481c6a751461041c5780634f1ef2861461044757806354255be01461046357610230565b80632ad9ac41116101f85780632ad9ac41146102f65780632edfd12e146103215780632f842a1a1461034a5780633659cfe6146103735780633cbf58721461039c57610230565b806301c21d591461023557806301d2b6ea146102515780631449edb01461027c57806322e59bd4146102b957610230565b3661023057005b600080fd5b61024f600480360381019061024a9190614ab0565b6108f3565b005b34801561025d57600080fd5b50610266610aec565b6040516102739190614b4a565b60405180910390f35b34801561028857600080fd5b506102a3600480360381019061029e9190614bc3565b610b8c565b6040516102b09190614b4a565b60405180910390f35b3480156102c557600080fd5b506102e060048036038101906102db9190614bc3565b610bd8565b6040516102ed9190614b4a565b60405180910390f35b34801561030257600080fd5b5061030b610c24565b6040516103189190614b4a565b60405180910390f35b34801561032d57600080fd5b5061034860048036038101906103439190614c1c565b610c2a565b005b34801561035657600080fd5b50610371600480360381019061036c9190614c97565b610dd4565b005b34801561037f57600080fd5b5061039a60048036038101906103959190614bc3565b61123e565b005b3480156103a857600080fd5b506103b16113c7565b6040516103be9190614d45565b60405180910390f35b3480156103d357600080fd5b506103dc6113fd565b005b3480156103ea57600080fd5b5061040560048036038101906104009190614d60565b6114a1565b604051610413929190614da0565b60405180910390f35b34801561042857600080fd5b506104316114e2565b60405161043e9190614dd8565b60405180910390f35b610461600480360381019061045c9190614f34565b611508565b005b34801561046f57600080fd5b50610478611645565b6040516104889493929190614f90565b60405180910390f35b34801561049d57600080fd5b506104b860048036038101906104b39190614bc3565b611661565b6040516104c59190614b4a565b60405180910390f35b3480156104da57600080fd5b506104e36116ad565b005b3480156104f157600080fd5b506104fa611735565b6040516105079190615034565b60405180910390f35b34801561051c57600080fd5b5061052561175b565b005b34801561053357600080fd5b5061053c6117e9565b005b34801561054a57600080fd5b506105656004803603810190610560919061504f565b61188d565b6040516105729190614b4a565b60405180910390f35b34801561058757600080fd5b50610590611b63565b60405161059d9190614dd8565b60405180910390f35b3480156105b257600080fd5b506105bb611b8d565b6040516105c89190614d45565b60405180910390f35b3480156105dd57600080fd5b506105f860048036038101906105f391906150a2565b611bc3565b005b34801561060657600080fd5b5061060f611cab565b60405161061c9190614dd8565b60405180910390f35b34801561063157600080fd5b5061064c6004803603810190610647919061512f565b611cf1565b6040516106599190614b4a565b60405180910390f35b34801561066e57600080fd5b5061068960048036038101906106849190614bc3565b612280565b6040516106969190614b4a565b60405180910390f35b3480156106ab57600080fd5b506106c660048036038101906106c19190614bc3565b612412565b6040516106d39190614b4a565b60405180910390f35b3480156106e857600080fd5b506106f161245e565b6040516106fe91906151ec565b60405180910390f35b34801561071357600080fd5b5061072e60048036038101906107299190615207565b6124a4565b005b34801561073c57600080fd5b506107576004803603810190610752919061525a565b612654565b6040516107649190614b4a565b60405180910390f35b34801561077957600080fd5b50610794600480360381019061078f9190615207565b6126de565b005b3480156107a257600080fd5b506107bd60048036038101906107b89190614bc3565b612af3565b005b3480156107cb57600080fd5b506107e660048036038101906107e19190614d60565b612b7b565b6040516107f4929190614da0565b60405180910390f35b34801561080957600080fd5b50610824600480360381019061081f91906152c6565b612c16565b005b34801561083257600080fd5b5061084d60048036038101906108489190614bc3565b612d07565b005b34801561085b57600080fd5b5061087660048036038101906108719190614bc3565b612dff565b6040516108849291906153b1565b60405180910390f35b34801561089957600080fd5b506108b460048036038101906108af91906153e8565b612fcf565b005b3480156108c257600080fd5b506108dd60048036038101906108d89190614bc3565b61334c565b6040516108ea9190614b4a565b60405180910390f35b3373ffffffffffffffffffffffffffffffffffffffff16606660009054906101000a900473ffffffffffffffffffffffffffffffffffffffff1673ffffffffffffffffffffffffffffffffffffffff161461098557336040517f3b2495f100000000000000000000000000000000000000000000000000000000815260040161097c9190614dd8565b60405180910390fd5b61098d61245e565b156109c4576040517f9e87fac800000000000000000000000000000000000000000000000000000000815260040160405180910390fd5b818190508484905014610a03576040517f8cd9cb4d00000000000000000000000000000000000000000000000000000000815260040160405180910390fd5b600080600090505b85859050811015610a9e57610a62868683818110610a2c57610a2b6154d1565b5b9050602002016020810190610a419190614bc3565b858584818110610a5457610a536154d1565b5b9050602002013560006133fb565b5050838382818110610a7757610a766154d1565b5b9050602002013582610a89919061552f565b91508080610a9690615585565b915050610a0b565b50348114610ae55734816040517f02760fce000000000000000000000000000000000000000000000000000000008152600401610adc929190614da0565b60405180910390fd5b5050505050565b6000606954610af96136a4565b73ffffffffffffffffffffffffffffffffffffffff166330ec70f5306040518263ffffffff1660e01b8152600401610b319190614dd8565b602060405180830381865afa158015610b4e573d6000803e3d6000fd5b505050506040513d601f19601f82011682018060405250810190610b7291906155e3565b47610b7d919061552f565b610b879190615610565b905090565b6000606760008373ffffffffffffffffffffffffffffffffffffffff1673ffffffffffffffffffffffffffffffffffffffff168152602001908152602001600020805490509050919050565b6000606860008373ffffffffffffffffffffffffffffffffffffffff1673ffffffffffffffffffffffffffffffffffffffff168152602001908152602001600020600301549050919050565b60695481565b3373ffffffffffffffffffffffffffffffffffffffff16606660009054906101000a900473ffffffffffffffffffffffffffffffffffffffff1673ffffffffffffffffffffffffffffffffffffffff1614610cbc57336040517f3b2495f1000000000000000000000000000000000000000000000000000000008152600401610cb39190614dd8565b60405180910390fd5b610cc461245e565b15610cfb576040517f9e87fac800000000000000000000000000000000000000000000000000000000815260040160405180910390fd5b6000610d0561376b565b73ffffffffffffffffffffffffffffffffffffffff16632edfd12e87878787876040518663ffffffff1660e01b8152600401610d45959493929190615644565b6020604051808303816000875af1158015610d64573d6000803e3d6000fd5b505050506040513d601f19601f82011682018060405250810190610d8891906156ac565b905080610dcc57856040517f30b7d05a000000000000000000000000000000000000000000000000000000008152600401610dc39190614b4a565b60405180910390fd5b505050505050565b3373ffffffffffffffffffffffffffffffffffffffff16606660009054906101000a900473ffffffffffffffffffffffffffffffffffffffff1673ffffffffffffffffffffffffffffffffffffffff1614610e6657336040517f3b2495f1000000000000000000000000000000000000000000000000000000008152600401610e5d9190614dd8565b60405180910390fd5b610e6e61245e565b15610ea5576040517f9e87fac800000000000000000000000000000000000000000000000000000000815260040160405180910390fd5b818190508484905014610ee4576040517f8cd9cb4d00000000000000000000000000000000000000000000000000000000815260040160405180910390fd5b600080600090505b8383905081101561121c576000610f29878784818110610f0f57610f0e6154d1565b5b9050602002016020810190610f249190614bc3565b612280565b9050848483818110610f3e57610f3d6154d1565b5b90506020020135811015610fcd57868683818110610f5f57610f5e6154d1565b5b9050602002016020810190610f749190614bc3565b81868685818110610f8857610f876154d1565b5b905060200201356040517fd5493527000000000000000000000000000000000000000000000000000000008152600401610fc4939291906156d9565b60405180910390fd5b848483818110610fe057610fdf6154d1565b5b9050602002013560686000898986818110610ffe57610ffd6154d1565b5b90506020020160208101906110139190614bc3565b73ffffffffffffffffffffffffffffffffffffffff1673ffffffffffffffffffffffffffffffffffffffff168152602001908152602001600020600101600082825461105f919061552f565b92505081905550848483818110611079576110786154d1565b5b9050602002013560686000898986818110611097576110966154d1565b5b90506020020160208101906110ac9190614bc3565b73ffffffffffffffffffffffffffffffffffffffff1673ffffffffffffffffffffffffffffffffffffffff16815260200190815260200160002060020160008a73ffffffffffffffffffffffffffffffffffffffff1673ffffffffffffffffffffffffffffffffffffffff1681526020019081526020016000206000828254611135919061552f565b9250508190555084848381811061114f5761114e6154d1565b5b9050602002013583611161919061552f565b9250868683818110611176576111756154d1565b5b905060200201602081019061118b9190614bc3565b73ffffffffffffffffffffffffffffffffffffffff168873ffffffffffffffffffffffffffffffffffffffff167f6b63acc273560d01b849e2d77c42ac2cd2b6ff5e1c775423c52a6e50be320e7b8787868181106111ec576111eb6154d1565b5b905060200201356040516112009190614b4a565b60405180910390a350808061121490615585565b915050610eec565b50806069600082825461122f919061552f565b92505081905550505050505050565b7f000000000000000000000000000000000000000000000000000000000000000073ffffffffffffffffffffffffffffffffffffffff163073ffffffffffffffffffffffffffffffffffffffff1614156112cd576040517f08c379a00000000000000000000000000000000000000000000000000000000081526004016112c490615793565b60405180910390fd5b7f000000000000000000000000000000000000000000000000000000000000000073ffffffffffffffffffffffffffffffffffffffff1661130c613832565b73ffffffffffffffffffffffffffffffffffffffff1614611362576040517f08c379a000000000000000000000000000000000000000000000000000000000815260040161135990615825565b60405180910390fd5b61136b81613889565b6113c481600067ffffffffffffffff81111561138a57611389614e09565b5b6040519080825280601f01601f1916602001820160405280156113bc5781602001600182028036833780820191505090505b506000613908565b50565b60017f8f989356aeb576065c8d201815b96ac9c10cf89197a532e428ebd68581557c2360001c6113f79190615610565b60001b81565b611405611cab565b73ffffffffffffffffffffffffffffffffffffffff163373ffffffffffffffffffffffffffffffffffffffff1614611469576040517f75df51dc00000000000000000000000000000000000000000000000000000000815260040160405180910390fd5b6114736000613ad9565b7f0e5e3b3fb504c22cf5c42fa07d521225937514c654007e1f12646f89768d6f9460405160405180910390a1565b606760205281600052604060002081815481106114bd57600080fd5b9060005260206000209060020201600091509150508060000154908060010154905082565b606660009054906101000a900473ffffffffffffffffffffffffffffffffffffffff1681565b7f000000000000000000000000000000000000000000000000000000000000000073ffffffffffffffffffffffffffffffffffffffff163073ffffffffffffffffffffffffffffffffffffffff161415611597576040517f08c379a000000000000000000000000000000000000000000000000000000000815260040161158e90615793565b60405180910390fd5b7f000000000000000000000000000000000000000000000000000000000000000073ffffffffffffffffffffffffffffffffffffffff166115d6613832565b73ffffffffffffffffffffffffffffffffffffffff161461162c576040517f08c379a000000000000000000000000000000000000000000000000000000000815260040161162390615825565b60405180910390fd5b61163582613889565b61164182826001613908565b5050565b6000806000806001600260016000935093509350935090919293565b6000606860008373ffffffffffffffffffffffffffffffffffffffff1673ffffffffffffffffffffffffffffffffffffffff168152602001908152602001600020600001549050919050565b6116b5613b17565b73ffffffffffffffffffffffffffffffffffffffff166116d3611b63565b73ffffffffffffffffffffffffffffffffffffffff1614611729576040517f08c379a000000000000000000000000000000000000000000000000000000000815260040161172090615891565b60405180910390fd5b6117336000613b1f565b565b606560009054906101000a900473ffffffffffffffffffffffffffffffffffffffff1681565b611763613b17565b73ffffffffffffffffffffffffffffffffffffffff16611781611b63565b73ffffffffffffffffffffffffffffffffffffffff16146117d7576040517f08c379a00000000000000000000000000000000000000000000000000000000081526004016117ce90615891565b60405180910390fd5b6117e76117e2611b63565b613be5565b565b6117f1611cab565b73ffffffffffffffffffffffffffffffffffffffff163373ffffffffffffffffffffffffffffffffffffffff1614611855576040517f75df51dc00000000000000000000000000000000000000000000000000000000815260040160405180910390fd5b61185f6001613ad9565b7fab35696f06e428ebc5ceba8cd17f8fed287baf43440206d1943af1ee53e6d26760405160405180910390a1565b600061189761245e565b156118ce576040517f9e87fac800000000000000000000000000000000000000000000000000000000815260040160405180910390fd5b6000806118dc868686613cc1565b915091506000606760008873ffffffffffffffffffffffffffffffffffffffff1673ffffffffffffffffffffffffffffffffffffffff168152602001908152602001600020905080600182805490506119359190615610565b81548110611946576119456154d1565b5b9060005260206000209060020201818781548110611967576119666154d1565b5b906000526020600020906002020160008201548160000155600182015481600101559050508080548061199d5761199c6158b1565b5b60019003818190600052602060002090600202016000808201600090556001820160009055505090556119ce6136a4565b73ffffffffffffffffffffffffffffffffffffffff16632e1a7d4d866040518263ffffffff1660e01b8152600401611a069190614b4a565b600060405180830381600087803b158015611a2057600080fd5b505af1158015611a34573d6000803e3d6000fd5b505050506000611a42613f4e565b73ffffffffffffffffffffffffffffffffffffffff1663a9059cbb89866040518363ffffffff1660e01b8152600401611a7c9291906158e0565b6020604051808303816000875af1158015611a9b573d6000803e3d6000fd5b505050506040513d601f19601f82011682018060405250810190611abf91906156ac565b905080611b055787846040517fbe1b5315000000000000000000000000000000000000000000000000000000008152600401611afc9291906158e0565b60405180910390fd5b8773ffffffffffffffffffffffffffffffffffffffff167f3bb2914428a7565afeafb57ef1a5bad4a2de7be9bf7b41b7e5da505f4b974ce28585604051611b4d929190614da0565b60405180910390a2839450505050509392505050565b6000603360009054906101000a900473ffffffffffffffffffffffffffffffffffffffff16905090565b60017f29f060ba1cf8d3659516b02281c85dcc3e81b4287766ae4751c0f500688be30f60001c611bbd9190615610565b60001b81565b611bcb61245e565b15611c02576040517f9e87fac800000000000000000000000000000000000000000000000000000000815260040160405180910390fd5b6000611c10876000806133fb565b9150506000811415611c225750611ca3565b6000611c36611c308961334c565b83614015565b9050611c478882898989898961402e565b80606860008a73ffffffffffffffffffffffffffffffffffffffff1673ffffffffffffffffffffffffffffffffffffffff1681526020019081526020016000206003016000828254611c999190615610565b9250508190555050505b505050505050565b600080600060017f29f060ba1cf8d3659516b02281c85dcc3e81b4287766ae4751c0f500688be30f60001c611ce09190615610565b60001b905080549150819250505090565b6000611cfb61245e565b15611d32576040517f9e87fac800000000000000000000000000000000000000000000000000000000815260040160405180910390fd5b6000606860008973ffffffffffffffffffffffffffffffffffffffff1673ffffffffffffffffffffffffffffffffffffffff16815260200190815260200160002060020160008a73ffffffffffffffffffffffffffffffffffffffff1673ffffffffffffffffffffffffffffffffffffffff1681526020019081526020016000205490506000811415611dfe5788886040517f7a9a71fb000000000000000000000000000000000000000000000000000000008152600401611df5929190615909565b60405180910390fd5b8773ffffffffffffffffffffffffffffffffffffffff168973ffffffffffffffffffffffffffffffffffffffff167f6e250cfd645a8eac07044223b0b240549b17fe4a71aab09d925cb413b72b00ae83604051611e5b9190614b4a565b60405180910390a36000606860008a73ffffffffffffffffffffffffffffffffffffffff1673ffffffffffffffffffffffffffffffffffffffff16815260200190815260200160002060020160008b73ffffffffffffffffffffffffffffffffffffffff1673ffffffffffffffffffffffffffffffffffffffff1681526020019081526020016000208190555080606860008a73ffffffffffffffffffffffffffffffffffffffff1673ffffffffffffffffffffffffffffffffffffffff1681526020019081526020016000206001016000828254611f3a9190615610565b925050819055508060696000828254611f539190615610565b925050819055506000611f68896000806133fb565b5090506000611f774783614015565b905060008111156120ca5782811115611f8e578290505b80606860008c73ffffffffffffffffffffffffffffffffffffffff1673ffffffffffffffffffffffffffffffffffffffff1681526020019081526020016000206000016000828254611fe09190615610565b925050819055506000611ff1613f4e565b73ffffffffffffffffffffffffffffffffffffffff1663a9059cbb8d846040518363ffffffff1660e01b815260040161202b9291906158e0565b6020604051808303816000875af115801561204a573d6000803e3d6000fd5b505050506040513d601f19601f8201168201806040525081019061206e91906156ac565b9050806120b4578b826040517fbe1b53150000000000000000000000000000000000000000000000000000000081526004016120ab9291906158e0565b60405180910390fd5b838214156120c85781945050505050612275565b505b600081846120d89190615610565b905060006120e46136a4565b9050606760008e73ffffffffffffffffffffffffffffffffffffffff1673ffffffffffffffffffffffffffffffffffffffff16815260200190815260200160002060405180604001604052808481526020018373ffffffffffffffffffffffffffffffffffffffff166320637d8e6040518163ffffffff1660e01b8152600401602060405180830381865afa158015612181573d6000803e3d6000fd5b505050506040513d601f19601f820116820180604052508101906121a591906155e3565b426121b0919061552f565b8152509080600181540180825580915050600190039060005260206000209060020201600090919091909150600082015181600001556020820151816001015550506122018c838d8d8d8d8d61402e565b8073ffffffffffffffffffffffffffffffffffffffff16636198e339836040518263ffffffff1660e01b815260040161223a9190614b4a565b600060405180830381600087803b15801561225457600080fd5b505af1158015612268573d6000803e3d6000fd5b5050505082955050505050505b979650505050505050565b600080606860008473ffffffffffffffffffffffffffffffffffffffff1673ffffffffffffffffffffffffffffffffffffffff168152602001908152602001600020600001546122ce614358565b73ffffffffffffffffffffffffffffffffffffffff16633861727285306040518363ffffffff1660e01b8152600401612308929190615909565b602060405180830381865afa158015612325573d6000803e3d6000fd5b505050506040513d601f19601f8201168201806040525081019061234991906155e3565b612353919061552f565b90506000606860008573ffffffffffffffffffffffffffffffffffffffff1673ffffffffffffffffffffffffffffffffffffffff16815260200190815260200160002060010154606860008673ffffffffffffffffffffffffffffffffffffffff1673ffffffffffffffffffffffffffffffffffffffff168152602001908152602001600020600301546123e7919061552f565b9050808211156124065780826123fd9190615610565b9250505061240d565b6000925050505b919050565b6000606860008373ffffffffffffffffffffffffffffffffffffffff1673ffffffffffffffffffffffffffffffffffffffff168152602001908152602001600020600101549050919050565b600080600060017f8f989356aeb576065c8d201815b96ac9c10cf89197a532e428ebd68581557c2360001c6124939190615610565b60001b905080549150819250505090565b600060019054906101000a900460ff166124cc5760008054906101000a900460ff16156124d5565b6124d461441f565b5b612514576040517f08c379a000000000000000000000000000000000000000000000000000000000815260040161250b906159a4565b60405180910390fd5b60008060019054906101000a900460ff161590508015612564576001600060016101000a81548160ff02191690831515021790555060016000806101000a81548160ff0219169083151502179055505b61256d84614430565b61257683614541565b61257f82613b1f565b61258761459c565b73ffffffffffffffffffffffffffffffffffffffff16639dca362f6040518163ffffffff1660e01b81526004016020604051808303816000875af11580156125d3573d6000803e3d6000fd5b505050506040513d601f19601f820116820180604052508101906125f791906156ac565b61262d576040517f20188a5900000000000000000000000000000000000000000000000000000000815260040160405180910390fd5b801561264e5760008060016101000a81548160ff0219169083151502179055505b50505050565b6000606860008473ffffffffffffffffffffffffffffffffffffffff1673ffffffffffffffffffffffffffffffffffffffff16815260200190815260200160002060020160008373ffffffffffffffffffffffffffffffffffffffff1673ffffffffffffffffffffffffffffffffffffffff16815260200190815260200160002054905092915050565b6126e661245e565b1561271d576040517f9e87fac800000000000000000000000000000000000000000000000000000000815260040160405180910390fd5b6000612727614358565b90506000612737856000806133fb565b5090508173ffffffffffffffffffffffffffffffffffffffff1663263ecf7430876040518363ffffffff1660e01b8152600401612775929190615909565b602060405180830381865afa158015612792573d6000803e3d6000fd5b505050506040513d601f19601f820116820180604052508101906127b691906156ac565b15612879578173ffffffffffffffffffffffffffffffffffffffff16631c5a9d9c866040518263ffffffff1660e01b81526004016127f49190614dd8565b6020604051808303816000875af1158015612813573d6000803e3d6000fd5b505050506040513d601f19601f8201168201806040525081019061283791906156ac565b61287857846040517fbafbcc5700000000000000000000000000000000000000000000000000000000815260040161286f9190614dd8565b60405180910390fd5b5b6000811415612889575050612aee565b60006128936136a4565b73ffffffffffffffffffffffffffffffffffffffff16633f199b40306040518263ffffffff1660e01b81526004016128cb9190614dd8565b602060405180830381865afa1580156128e8573d6000803e3d6000fd5b505050506040513d601f19601f8201168201806040525081019061290c91906155e3565b90506000828210156129295781836129249190615610565b61292c565b60005b9050600061293a4783614015565b905060008111156129ae5761294d6136a4565b73ffffffffffffffffffffffffffffffffffffffff1663f83d08ba826040518263ffffffff1660e01b81526004016000604051808303818588803b15801561299457600080fd5b505af11580156129a8573d6000803e3d6000fd5b50505050505b600081836129bc9190615610565b856129c79190615610565b905080606860008b73ffffffffffffffffffffffffffffffffffffffff1673ffffffffffffffffffffffffffffffffffffffff1681526020019081526020016000206000016000828254612a1b9190615610565b925050819055508573ffffffffffffffffffffffffffffffffffffffff1663580d747a8a838b8b6040518563ffffffff1660e01b8152600401612a6194939291906159c4565b6020604051808303816000875af1158015612a80573d6000803e3d6000fd5b505050506040513d601f19601f82011682018060405250810190612aa491906156ac565b612ae75788856040517fcbf8d8ef000000000000000000000000000000000000000000000000000000008152600401612ade9291906158e0565b60405180910390fd5b5050505050505b505050565b612afb613b17565b73ffffffffffffffffffffffffffffffffffffffff16612b19611b63565b73ffffffffffffffffffffffffffffffffffffffff1614612b6f576040517f08c379a0000000000000000000000000000000000000000000000000000000008152600401612b6690615891565b60405180910390fd5b612b7881614663565b50565b6000806000606760008673ffffffffffffffffffffffffffffffffffffffff1673ffffffffffffffffffffffffffffffffffffffff1681526020019081526020016000208481548110612bd157612bd06154d1565b5b90600052602060002090600202016040518060400160405290816000820154815260200160018201548152505090508060000151816020015192509250509250929050565b612c1e613b17565b73ffffffffffffffffffffffffffffffffffffffff16612c3c611b63565b73ffffffffffffffffffffffffffffffffffffffff1614612c92576040517f08c379a0000000000000000000000000000000000000000000000000000000008152600401612c8990615891565b60405180910390fd5b612c9a614358565b73ffffffffffffffffffffffffffffffffffffffff1663d52758aa826040518263ffffffff1660e01b8152600401612cd291906151ec565b600060405180830381600087803b158015612cec57600080fd5b505af1158015612d00573d6000803e3d6000fd5b5050505050565b612d0f613b17565b73ffffffffffffffffffffffffffffffffffffffff16612d2d611b63565b73ffffffffffffffffffffffffffffffffffffffff1614612d83576040517f08c379a0000000000000000000000000000000000000000000000000000000008152600401612d7a90615891565b60405180910390fd5b600073ffffffffffffffffffffffffffffffffffffffff168173ffffffffffffffffffffffffffffffffffffffff161415612df3576040517f08c379a0000000000000000000000000000000000000000000000000000000008152600401612dea90615a7b565b60405180910390fd5b612dfc81613b1f565b50565b6060806000606760008573ffffffffffffffffffffffffffffffffffffffff1673ffffffffffffffffffffffffffffffffffffffff1681526020019081526020016000208054905090508067ffffffffffffffff811115612e6357612e62614e09565b5b604051908082528060200260200182016040528015612e915781602001602082028036833780820191505090505b5092508067ffffffffffffffff811115612eae57612ead614e09565b5b604051908082528060200260200182016040528015612edc5781602001602082028036833780820191505090505b50915060005b81811015612fc8576000606760008773ffffffffffffffffffffffffffffffffffffffff1673ffffffffffffffffffffffffffffffffffffffff1681526020019081526020016000208281548110612f3d57612f3c6154d1565b5b90600052602060002090600202016040518060400160405290816000820154815260200160018201548152505090508060000151858381518110612f8457612f836154d1565b5b6020026020010181815250508060200151848381518110612fa857612fa76154d1565b5b602002602001018181525050508080612fc090615585565b915050612ee2565b5050915091565b3373ffffffffffffffffffffffffffffffffffffffff16606660009054906101000a900473ffffffffffffffffffffffffffffffffffffffff1673ffffffffffffffffffffffffffffffffffffffff161461306157336040517f3b2495f10000000000000000000000000000000000000000000000000000000081526004016130589190614dd8565b60405180910390fd5b61306961245e565b156130a0576040517f9e87fac800000000000000000000000000000000000000000000000000000000815260040160405180910390fd5b85859050888890501415806130bb5750818190508484905014155b156130f2576040517f8cd9cb4d00000000000000000000000000000000000000000000000000000000815260040160405180910390fd5b60008060005b8a8a90508110156132625760006131358c8c8481811061311b5761311a6154d1565b5b90506020020160208101906131309190614bc3565b612280565b905089898381811061314a576131496154d1565b5b905060200201358110156131d9578b8b8381811061316b5761316a6154d1565b5b90506020020160208101906131809190614bc3565b8a8a84818110613193576131926154d1565b5b90506020020135826040517f83e038b50000000000000000000000000000000000000000000000000000000081526004016131d0939291906156d9565b60405180910390fd5b6132258c8c848181106131ef576131ee6154d1565b5b90506020020160208101906132049190614bc3565b60008c8c86818110613219576132186154d1565b5b905060200201356133fb565b505089898381811061323a576132396154d1565b5b905060200201358461324c919061552f565b935050808061325a90615585565b9150506130f8565b5060005b868690508110156132f9576132bd878783818110613287576132866154d1565b5b905060200201602081019061329c9190614bc3565b8686848181106132af576132ae6154d1565b5b9050602002013560006133fb565b50508484828181106132d2576132d16154d1565b5b90506020020135826132e4919061552f565b915080806132f190615585565b915050613266565b508082146133405781816040517f1e6fb657000000000000000000000000000000000000000000000000000000008152600401613337929190614da0565b60405180910390fd5b50505050505050505050565b6000613356614358565b73ffffffffffffffffffffffffffffffffffffffff16633861727283306040518363ffffffff1660e01b8152600401613390929190615909565b602060405180830381865afa1580156133ad573d6000803e3d6000fd5b505050506040513d601f19601f820116820180604052508101906133d191906155e3565b9050919050565b6000808273ffffffffffffffffffffffffffffffffffffffff163b119050919050565b60008083606860008773ffffffffffffffffffffffffffffffffffffffff1673ffffffffffffffffffffffffffffffffffffffff1681526020019081526020016000206000015461344c919061552f565b915082606860008773ffffffffffffffffffffffffffffffffffffffff1673ffffffffffffffffffffffffffffffffffffffff1681526020019081526020016000206003015461349c919061552f565b90508082111561354b5780826134b29190615610565b915081606860008773ffffffffffffffffffffffffffffffffffffffff1673ffffffffffffffffffffffffffffffffffffffff168152602001908152602001600020600001819055506000905080606860008773ffffffffffffffffffffffffffffffffffffffff1673ffffffffffffffffffffffffffffffffffffffff168152602001908152602001600020600301819055506135ec565b81816135579190615610565b905080606860008773ffffffffffffffffffffffffffffffffffffffff1673ffffffffffffffffffffffffffffffffffffffff168152602001908152602001600020600301819055506000915081606860008773ffffffffffffffffffffffffffffffffffffffff1673ffffffffffffffffffffffffffffffffffffffff168152602001908152602001600020600001819055505b6000841115613644578473ffffffffffffffffffffffffffffffffffffffff167f3ee8e5d1cb8671d12b5b20284bb69c7fc325211a1f957cab060d8a78dcc64fba8560405161363b9190614b4a565b60405180910390a25b600083111561369c578473ffffffffffffffffffffffffffffffffffffffff167fd1689364af36a1aad50a34377d3bf08cc89d0e1f2ebc154359eb9087a6e81a3e846040516136939190614b4a565b60405180910390a25b935093915050565b6000606560009054906101000a900473ffffffffffffffffffffffffffffffffffffffff1673ffffffffffffffffffffffffffffffffffffffff1663dcf0aaed6040516020016136f390615af2565b604051602081830303815290604052805190602001206040518263ffffffff1660e01b81526004016137259190614d45565b602060405180830381865afa158015613742573d6000803e3d6000fd5b505050506040513d601f19601f820116820180604052508101906137669190615b1c565b905090565b6000606560009054906101000a900473ffffffffffffffffffffffffffffffffffffffff1673ffffffffffffffffffffffffffffffffffffffff1663dcf0aaed6040516020016137ba90615b95565b604051602081830303815290604052805190602001206040518263ffffffff1660e01b81526004016137ec9190614d45565b602060405180830381865afa158015613809573d6000803e3d6000fd5b505050506040513d601f19601f8201168201806040525081019061382d9190615b1c565b905090565b60006138607f360894a13ba1a3210667c828492db98dca3e2076cc3735a920a3ca505d382bbc60001b614751565b60000160009054906101000a900473ffffffffffffffffffffffffffffffffffffffff16905090565b613891613b17565b73ffffffffffffffffffffffffffffffffffffffff166138af611b63565b73ffffffffffffffffffffffffffffffffffffffff1614613905576040517f08c379a00000000000000000000000000000000000000000000000000000000081526004016138fc90615891565b60405180910390fd5b50565b6000613912613832565b905061391d8461475b565b60008351118061392a5750815b1561393b576139398484614814565b505b60006139697f4910fdfa16fed3260ed0e7147f7cc6da11a60208b5b9406d12a635614ffd914360001b614841565b90508060000160009054906101000a900460ff16613ad25760018160000160006101000a81548160ff021916908315150217905550613a3585836040516024016139b39190614dd8565b6040516020818303038152906040527f3659cfe6000000000000000000000000000000000000000000000000000000007bffffffffffffffffffffffffffffffffffffffffffffffffffffffff19166020820180517bffffffffffffffffffffffffffffffffffffffffffffffffffffffff8381831617835250505050614814565b5060008160000160006101000a81548160ff021916908315150217905550613a5b613832565b73ffffffffffffffffffffffffffffffffffffffff168273ffffffffffffffffffffffffffffffffffffffff1614613ac8576040517f08c379a0000000000000000000000000000000000000000000000000000000008152600401613abf90615c1c565b60405180910390fd5b613ad18561484b565b5b5050505050565b600060017f8f989356aeb576065c8d201815b96ac9c10cf89197a532e428ebd68581557c2360001c613b0b9190615610565b60001b90508181555050565b600033905090565b6000603360009054906101000a900473ffffffffffffffffffffffffffffffffffffffff16905081603360006101000a81548173ffffffffffffffffffffffffffffffffffffffff021916908373ffffffffffffffffffffffffffffffffffffffff1602179055508173ffffffffffffffffffffffffffffffffffffffff168173ffffffffffffffffffffffffffffffffffffffff167f8be0079c531659141344cd1fd0a4f28419497f9722a3daafe3b4186f6b6457e060405160405180910390a35050565b600073ffffffffffffffffffffffffffffffffffffffff168173ffffffffffffffffffffffffffffffffffffffff161415613c4c576040517f0855380c00000000000000000000000000000000000000000000000000000000815260040160405180910390fd5b600060017f29f060ba1cf8d3659516b02281c85dcc3e81b4287766ae4751c0f500688be30f60001c613c7e9190615610565b60001b90508181557fd11d57c2c7468878b1035df11c670bcd0091aa840bf8aa166365397622237bea82604051613cb59190614dd8565b60405180910390a15050565b600080606760008673ffffffffffffffffffffffffffffffffffffffff1673ffffffffffffffffffffffffffffffffffffffff168152602001908152602001600020805490508410613d8e5783606760008773ffffffffffffffffffffffffffffffffffffffff1673ffffffffffffffffffffffffffffffffffffffff168152602001908152602001600020805490506040517fdee6f574000000000000000000000000000000000000000000000000000000008152600401613d85929190614da0565b60405180910390fd5b600080613d996136a4565b73ffffffffffffffffffffffffffffffffffffffff1663d15ca4ed30876040518363ffffffff1660e01b8152600401613dd39291906158e0565b6040805180830381865afa158015613def573d6000803e3d6000fd5b505050506040513d601f19601f82011682018060405250810190613e139190615c3c565b915091506000606760008973ffffffffffffffffffffffffffffffffffffffff1673ffffffffffffffffffffffffffffffffffffffff1681526020019081526020016000208781548110613e6a57613e696154d1565b5b906000526020600020906002020160405180604001604052908160008201548152602001600182015481525050905082816000015114613ee7578060000151836040517f753c4c22000000000000000000000000000000000000000000000000000000008152600401613ede929190614da0565b60405180910390fd5b81816020015114613f35578060200151826040517f8acd9503000000000000000000000000000000000000000000000000000000008152600401613f2c929190614da0565b60405180910390fd5b8060000151816020015194509450505050935093915050565b6000606560009054906101000a900473ffffffffffffffffffffffffffffffffffffffff1673ffffffffffffffffffffffffffffffffffffffff1663dcf0aaed604051602001613f9d90615cc8565b604051602081830303815290604052805190602001206040518263ffffffff1660e01b8152600401613fcf9190614d45565b602060405180830381865afa158015613fec573d6000803e3d6000fd5b505050506040513d601f19601f820116820180604052508101906140109190615b1c565b905090565b60008183106140245781614026565b825b905092915050565b6000614038614358565b905060008173ffffffffffffffffffffffffffffffffffffffff16639b95975f8a306040518363ffffffff1660e01b8152600401614077929190615909565b602060405180830381865afa158015614094573d6000803e3d6000fd5b505050506040513d601f19601f820116820180604052508101906140b891906155e3565b905060006140c68983614015565b90506000811115614199578273ffffffffffffffffffffffffffffffffffffffff16639dfb60818b838b8b896040518663ffffffff1660e01b8152600401614112959493929190615cdd565b6020604051808303816000875af1158015614131573d6000803e3d6000fd5b505050506040513d601f19601f8201168201806040525081019061415591906156ac565b6141985789896040517f88f72d9900000000000000000000000000000000000000000000000000000000815260040161418f9291906158e0565b60405180910390fd5b5b6000818a6141a79190615610565b905060008114156141bb575050505061434f565b60008473ffffffffffffffffffffffffffffffffffffffff1663d3e242a48d306040518363ffffffff1660e01b81526004016141f8929190615909565b602060405180830381865afa158015614215573d6000803e3d6000fd5b505050506040513d601f19601f8201168201806040525081019061423991906155e3565b905081811015614282578b8b6040517fc7b278670000000000000000000000000000000000000000000000000000000081526004016142799291906158e0565b60405180910390fd5b8473ffffffffffffffffffffffffffffffffffffffff16636e1984758d848b8b8b6040518663ffffffff1660e01b81526004016142c3959493929190615cdd565b6020604051808303816000875af11580156142e2573d6000803e3d6000fd5b505050506040513d601f19601f8201168201806040525081019061430691906156ac565b614349578b8b6040517f21ffa8e90000000000000000000000000000000000000000000000000000000081526004016143409291906158e0565b60405180910390fd5b50505050505b50505050505050565b6000606560009054906101000a900473ffffffffffffffffffffffffffffffffffffffff1673ffffffffffffffffffffffffffffffffffffffff1663dcf0aaed6040516020016143a790615d7c565b604051602081830303815290604052805190602001206040518263ffffffff1660e01b81526004016143d99190614d45565b602060405180830381865afa1580156143f6573d6000803e3d6000fd5b505050506040513d601f19601f8201168201806040525081019061441a9190615b1c565b905090565b600061442a306133d8565b15905090565b600060019054906101000a900460ff1661447f576040517f08c379a000000000000000000000000000000000000000000000000000000000815260040161447690615e03565b60405180910390fd5b600073ffffffffffffffffffffffffffffffffffffffff168173ffffffffffffffffffffffffffffffffffffffff1614156144fc5761ce10606560006101000a81548173ffffffffffffffffffffffffffffffffffffffff021916908373ffffffffffffffffffffffffffffffffffffffff16021790555061453e565b80606560006101000a81548173ffffffffffffffffffffffffffffffffffffffff021916908373ffffffffffffffffffffffffffffffffffffffff1602179055505b50565b600060019054906101000a900460ff16614590576040517f08c379a000000000000000000000000000000000000000000000000000000000815260040161458790615e03565b60405180910390fd5b61459981614663565b50565b6000606560009054906101000a900473ffffffffffffffffffffffffffffffffffffffff1673ffffffffffffffffffffffffffffffffffffffff1663dcf0aaed6040516020016145eb90615e6f565b604051602081830303815290604052805190602001206040518263ffffffff1660e01b815260040161461d9190614d45565b602060405180830381865afa15801561463a573d6000803e3d6000fd5b505050506040513d601f19601f8201168201806040525081019061465e9190615b1c565b905090565b600073ffffffffffffffffffffffffffffffffffffffff168173ffffffffffffffffffffffffffffffffffffffff1614156146ca576040517f0855380c00000000000000000000000000000000000000000000000000000000815260040160405180910390fd5b80606660006101000a81548173ffffffffffffffffffffffffffffffffffffffff021916908373ffffffffffffffffffffffffffffffffffffffff1602179055508073ffffffffffffffffffffffffffffffffffffffff167f60a0f5b9f9e81e98216071b85826681c796256fe3d1354ecb675580fba64fa6960405160405180910390a250565b6000819050919050565b6147648161489a565b6147a3576040517f08c379a000000000000000000000000000000000000000000000000000000000815260040161479a90615ef6565b60405180910390fd5b806147d07f360894a13ba1a3210667c828492db98dca3e2076cc3735a920a3ca505d382bbc60001b614751565b60000160006101000a81548173ffffffffffffffffffffffffffffffffffffffff021916908373ffffffffffffffffffffffffffffffffffffffff16021790555050565b606061483983836040518060600160405280602781526020016160a0602791396148ad565b905092915050565b6000819050919050565b6148548161475b565b8073ffffffffffffffffffffffffffffffffffffffff167fbc7cd75a20ee27fd9adebab32041f755214dbc6bffa90cc0225b39da2e5c2d3b60405160405180910390a250565b600080823b905060008111915050919050565b60606148b88461489a565b6148f7576040517f08c379a00000000000000000000000000000000000000000000000000000000081526004016148ee90615f88565b60405180910390fd5b6000808573ffffffffffffffffffffffffffffffffffffffff168560405161491f9190616022565b600060405180830381855af49150503d806000811461495a576040519150601f19603f3d011682016040523d82523d6000602084013e61495f565b606091505b509150915061496f82828661497a565b925050509392505050565b6060831561498a578290506149da565b60008351111561499d5782518084602001fd5b816040517f08c379a00000000000000000000000000000000000000000000000000000000081526004016149d1919061607d565b60405180910390fd5b9392505050565b6000604051905090565b600080fd5b600080fd5b600080fd5b600080fd5b600080fd5b60008083601f840112614a1a57614a196149f5565b5b8235905067ffffffffffffffff811115614a3757614a366149fa565b5b602083019150836020820283011115614a5357614a526149ff565b5b9250929050565b60008083601f840112614a7057614a6f6149f5565b5b8235905067ffffffffffffffff811115614a8d57614a8c6149fa565b5b602083019150836020820283011115614aa957614aa86149ff565b5b9250929050565b60008060008060408587031215614aca57614ac96149eb565b5b600085013567ffffffffffffffff811115614ae857614ae76149f0565b5b614af487828801614a04565b9450945050602085013567ffffffffffffffff811115614b1757614b166149f0565b5b614b2387828801614a5a565b925092505092959194509250565b6000819050919050565b614b4481614b31565b82525050565b6000602082019050614b5f6000830184614b3b565b92915050565b600073ffffffffffffffffffffffffffffffffffffffff82169050919050565b6000614b9082614b65565b9050919050565b614ba081614b85565b8114614bab57600080fd5b50565b600081359050614bbd81614b97565b92915050565b600060208284031215614bd957614bd86149eb565b5b6000614be784828501614bae565b91505092915050565b614bf981614b31565b8114614c0457600080fd5b50565b600081359050614c1681614bf0565b92915050565b600080600080600060a08688031215614c3857614c376149eb565b5b6000614c4688828901614c07565b9550506020614c5788828901614c07565b9450506040614c6888828901614c07565b9350506060614c7988828901614c07565b9250506080614c8a88828901614c07565b9150509295509295909350565b600080600080600060608688031215614cb357614cb26149eb565b5b6000614cc188828901614bae565b955050602086013567ffffffffffffffff811115614ce257614ce16149f0565b5b614cee88828901614a04565b9450945050604086013567ffffffffffffffff811115614d1157614d106149f0565b5b614d1d88828901614a5a565b92509250509295509295909350565b6000819050919050565b614d3f81614d2c565b82525050565b6000602082019050614d5a6000830184614d36565b92915050565b60008060408385031215614d7757614d766149eb565b5b6000614d8585828601614bae565b9250506020614d9685828601614c07565b9150509250929050565b6000604082019050614db56000830185614b3b565b614dc26020830184614b3b565b9392505050565b614dd281614b85565b82525050565b6000602082019050614ded6000830184614dc9565b92915050565b600080fd5b6000601f19601f8301169050919050565b7f4e487b7100000000000000000000000000000000000000000000000000000000600052604160045260246000fd5b614e4182614df8565b810181811067ffffffffffffffff82111715614e6057614e5f614e09565b5b80604052505050565b6000614e736149e1565b9050614e7f8282614e38565b919050565b600067ffffffffffffffff821115614e9f57614e9e614e09565b5b614ea882614df8565b9050602081019050919050565b82818337600083830152505050565b6000614ed7614ed284614e84565b614e69565b905082815260208101848484011115614ef357614ef2614df3565b5b614efe848285614eb5565b509392505050565b600082601f830112614f1b57614f1a6149f5565b5b8135614f2b848260208601614ec4565b91505092915050565b60008060408385031215614f4b57614f4a6149eb565b5b6000614f5985828601614bae565b925050602083013567ffffffffffffffff811115614f7a57614f796149f0565b5b614f8685828601614f06565b9150509250929050565b6000608082019050614fa56000830187614b3b565b614fb26020830186614b3b565b614fbf6040830185614b3b565b614fcc6060830184614b3b565b95945050505050565b6000819050919050565b6000614ffa614ff5614ff084614b65565b614fd5565b614b65565b9050919050565b600061500c82614fdf565b9050919050565b600061501e82615001565b9050919050565b61502e81615013565b82525050565b60006020820190506150496000830184615025565b92915050565b600080600060608486031215615068576150676149eb565b5b600061507686828701614bae565b935050602061508786828701614c07565b925050604061509886828701614c07565b9150509250925092565b60008060008060008060c087890312156150bf576150be6149eb565b5b60006150cd89828a01614bae565b96505060206150de89828a01614bae565b95505060406150ef89828a01614bae565b945050606061510089828a01614bae565b935050608061511189828a01614bae565b92505060a061512289828a01614c07565b9150509295509295509295565b600080600080600080600060e0888a03121561514e5761514d6149eb565b5b600061515c8a828b01614bae565b975050602061516d8a828b01614bae565b965050604061517e8a828b01614bae565b955050606061518f8a828b01614bae565b94505060806151a08a828b01614bae565b93505060a06151b18a828b01614bae565b92505060c06151c28a828b01614c07565b91505092959891949750929550565b60008115159050919050565b6151e6816151d1565b82525050565b600060208201905061520160008301846151dd565b92915050565b6000806000606084860312156152205761521f6149eb565b5b600061522e86828701614bae565b935050602061523f86828701614bae565b925050604061525086828701614bae565b9150509250925092565b60008060408385031215615271576152706149eb565b5b600061527f85828601614bae565b925050602061529085828601614bae565b9150509250929050565b6152a3816151d1565b81146152ae57600080fd5b50565b6000813590506152c08161529a565b92915050565b6000602082840312156152dc576152db6149eb565b5b60006152ea848285016152b1565b91505092915050565b600081519050919050565b600082825260208201905092915050565b6000819050602082019050919050565b61532881614b31565b82525050565b600061533a838361531f565b60208301905092915050565b6000602082019050919050565b600061535e826152f3565b61536881856152fe565b93506153738361530f565b8060005b838110156153a457815161538b888261532e565b975061539683615346565b925050600181019050615377565b5085935050505092915050565b600060408201905081810360008301526153cb8185615353565b905081810360208301526153df8184615353565b90509392505050565b6000806000806000806000806080898b031215615408576154076149eb565b5b600089013567ffffffffffffffff811115615426576154256149f0565b5b6154328b828c01614a04565b9850985050602089013567ffffffffffffffff811115615455576154546149f0565b5b6154618b828c01614a5a565b9650965050604089013567ffffffffffffffff811115615484576154836149f0565b5b6154908b828c01614a04565b9450945050606089013567ffffffffffffffff8111156154b3576154b26149f0565b5b6154bf8b828c01614a5a565b92509250509295985092959890939650565b7f4e487b7100000000000000000000000000000000000000000000000000000000600052603260045260246000fd5b7f4e487b7100000000000000000000000000000000000000000000000000000000600052601160045260246000fd5b600061553a82614b31565b915061554583614b31565b9250827fffffffffffffffffffffffffffffffffffffffffffffffffffffffffffffffff0382111561557a57615579615500565b5b828201905092915050565b600061559082614b31565b91507fffffffffffffffffffffffffffffffffffffffffffffffffffffffffffffffff8214156155c3576155c2615500565b5b600182019050919050565b6000815190506155dd81614bf0565b92915050565b6000602082840312156155f9576155f86149eb565b5b6000615607848285016155ce565b91505092915050565b600061561b82614b31565b915061562683614b31565b92508282101561563957615638615500565b5b828203905092915050565b600060a0820190506156596000830188614b3b565b6156666020830187614b3b565b6156736040830186614b3b565b6156806060830185614b3b565b61568d6080830184614b3b565b9695505050505050565b6000815190506156a68161529a565b92915050565b6000602082840312156156c2576156c16149eb565b5b60006156d084828501615697565b91505092915050565b60006060820190506156ee6000830186614dc9565b6156fb6020830185614b3b565b6157086040830184614b3b565b949350505050565b600082825260208201905092915050565b7f46756e6374696f6e206d7573742062652063616c6c6564207468726f7567682060008201527f64656c656761746563616c6c0000000000000000000000000000000000000000602082015250565b600061577d602c83615710565b915061578882615721565b604082019050919050565b600060208201905081810360008301526157ac81615770565b9050919050565b7f46756e6374696f6e206d7573742062652063616c6c6564207468726f7567682060008201527f6163746976652070726f78790000000000000000000000000000000000000000602082015250565b600061580f602c83615710565b915061581a826157b3565b604082019050919050565b6000602082019050818103600083015261583e81615802565b9050919050565b7f4f776e61626c653a2063616c6c6572206973206e6f7420746865206f776e6572600082015250565b600061587b602083615710565b915061588682615845565b602082019050919050565b600060208201905081810360008301526158aa8161586e565b9050919050565b7f4e487b7100000000000000000000000000000000000000000000000000000000600052603160045260246000fd5b60006040820190506158f56000830185614dc9565b6159026020830184614b3b565b9392505050565b600060408201905061591e6000830185614dc9565b61592b6020830184614dc9565b9392505050565b7f496e697469616c697a61626c653a20636f6e747261637420697320616c72656160008201527f647920696e697469616c697a6564000000000000000000000000000000000000602082015250565b600061598e602e83615710565b915061599982615932565b604082019050919050565b600060208201905081810360008301526159bd81615981565b9050919050565b60006080820190506159d96000830187614dc9565b6159e66020830186614b3b565b6159f36040830185614dc9565b615a006060830184614dc9565b95945050505050565b7f4f776e61626c653a206e6577206f776e657220697320746865207a65726f206160008201527f6464726573730000000000000000000000000000000000000000000000000000602082015250565b6000615a65602683615710565b9150615a7082615a09565b604082019050919050565b60006020820190508181036000830152615a9481615a58565b9050919050565b600081905092915050565b7f4c6f636b6564476f6c6400000000000000000000000000000000000000000000600082015250565b6000615adc600a83615a9b565b9150615ae782615aa6565b600a82019050919050565b6000615afd82615acf565b9150819050919050565b600081519050615b1681614b97565b92915050565b600060208284031215615b3257615b316149eb565b5b6000615b4084828501615b07565b91505092915050565b7f476f7665726e616e636500000000000000000000000000000000000000000000600082015250565b6000615b7f600a83615a9b565b9150615b8a82615b49565b600a82019050919050565b6000615ba082615b72565b9150819050919050565b7f45524331393637557067726164653a207570677261646520627265616b73206660008201527f7572746865722075706772616465730000000000000000000000000000000000602082015250565b6000615c06602f83615710565b9150615c1182615baa565b604082019050919050565b60006020820190508181036000830152615c3581615bf9565b9050919050565b60008060408385031215615c5357615c526149eb565b5b6000615c61858286016155ce565b9250506020615c72858286016155ce565b9150509250929050565b7f476f6c64546f6b656e0000000000000000000000000000000000000000000000600082015250565b6000615cb2600983615a9b565b9150615cbd82615c7c565b600982019050919050565b6000615cd382615ca5565b9150819050919050565b600060a082019050615cf26000830188614dc9565b615cff6020830187614b3b565b615d0c6040830186614dc9565b615d196060830185614dc9565b615d266080830184614b3b565b9695505050505050565b7f456c656374696f6e000000000000000000000000000000000000000000000000600082015250565b6000615d66600883615a9b565b9150615d7182615d30565b600882019050919050565b6000615d8782615d59565b9150819050919050565b7f496e697469616c697a61626c653a20636f6e7472616374206973206e6f74206960008201527f6e697469616c697a696e67000000000000000000000000000000000000000000602082015250565b6000615ded602b83615710565b9150615df882615d91565b604082019050919050565b60006020820190508181036000830152615e1c81615de0565b9050919050565b7f4163636f756e7473000000000000000000000000000000000000000000000000600082015250565b6000615e59600883615a9b565b9150615e6482615e23565b600882019050919050565b6000615e7a82615e4c565b9150819050919050565b7f455243313936373a206e657720696d706c656d656e746174696f6e206973206e60008201527f6f74206120636f6e747261637400000000000000000000000000000000000000602082015250565b6000615ee0602d83615710565b9150615eeb82615e84565b604082019050919050565b60006020820190508181036000830152615f0f81615ed3565b9050919050565b7f416464726573733a2064656c65676174652063616c6c20746f206e6f6e2d636f60008201527f6e74726163740000000000000000000000000000000000000000000000000000602082015250565b6000615f72602683615710565b9150615f7d82615f16565b604082019050919050565b60006020820190508181036000830152615fa181615f65565b9050919050565b600081519050919050565b600081905092915050565b60005b83811015615fdc578082015181840152602081019050615fc1565b83811115615feb576000848401525b50505050565b6000615ffc82615fa8565b6160068185615fb3565b9350616016818560208601615fbe565b80840191505092915050565b600061602e8284615ff1565b915081905092915050565b600081519050919050565b600061604f82616039565b6160598185615710565b9350616069818560208601615fbe565b61607281614df8565b840191505092915050565b600060208201905081810360008301526160978184616044565b90509291505056fe416464726573733a206c6f772d6c6576656c2064656c65676174652063616c6c206661696c6564a2646970667358221220caa9bb66c89ec879e92d46e2a41dfd75fc964f649c87b3daeefaad37647cab4664736f6c634300080b0033",
  "devdoc": {
    "errors": {
      "CallerNotManager(address)": [
        {
          "params": {
            "caller": "`msg.sender` that called the function."
          }
        }
      ],
      "TotalVotesMismatch(uint256,uint256)": [
        {
          "params": {
            "expectedValue": "The expected sum of votes for groups.",
            "sentValue": "The `msg.value` of the call."
          }
        }
      ],
      "WithdrawalAmountTooHigh(address,uint256,uint256)": [
        {
          "params": {
            "celoAvailable": "CELO available to the group across scheduled, pending and active votes.",
            "celoToWindraw": "total amount of CELO that would be scheduled to be withdrawn.",
            "group": "The offending group."
          }
        }
      ]
    },
    "events": {
      "CeloWithdrawalFinished(address,uint256,uint256)": {
        "params": {
          "amount": "The amount of CELO requested for withdrawal.",
          "beneficiary": "The user for whom the withdrawal amount is intended.",
          "timestamp": "The timestamp of the pending withdrawal."
        }
      },
      "CeloWithdrawalScheduled(address,address,uint256)": {
        "params": {
          "beneficiary": "The user for whom the withdrawal amount is intended for.",
          "group": "The validator group the CELO is withdrawn from.",
          "withdrawalAmount": "The amount of CELO requested for withdrawal."
        }
      },
      "CeloWithdrawalStarted(address,address,uint256)": {
        "params": {
          "beneficiary": "The user for whom the withdrawal amount is intended for.",
          "group": "The validator group the CELO is withdrawn from.",
          "withdrawalAmount": "The amount of CELO requested for withdrawal."
        }
      },
      "RevocationScheduled(address,uint256)": {
        "params": {
          "amount": "The amount of CELO scheduled.",
          "group": "The validator group the CELO is being revoked from."
        }
      },
      "VotesScheduled(address,uint256)": {
        "params": {
          "amount": "The amount of CELO scheduled.",
          "group": "The validator group the CELO is intended to vote for."
        }
      }
    },
    "kind": "dev",
    "methods": {
      "activateAndVote(address,address,address)": {
        "details": "Callable by anyone. In practice, this is expected to be called near the end of each epoch by an off-chain agent.",
        "params": {
          "group": "The group to activate pending votes for and lock & vote any unlocked CELO for.",
          "voteGreater": "Used by Election's `vote`. This is the group that will recieve greater votes than group after the votes are cast, or address(0) if no such group exists.",
          "voteLesser": "Used by Election's `vote`. This is the group that will recieve fewer votes than group after the votes are cast, or address(0) if no such group exists."
        }
      },
      "finishPendingWithdrawal(address,uint256,uint256)": {
        "details": "Callable by anyone, but ultimatly the withdrawal goes to `beneficiary`. The pending withdrawal info found in both StakedCeloGroupVoter and LockedGold must match to ensure that the beneficiary is claiming the appropriate pending withdrawal.",
        "params": {
          "beneficiary": "The account that owns the pending withdrawal being processed.",
          "localPendingWithdrawalIndex": "The index of the pending withdrawal to finish in pendingWithdrawals[beneficiary] array.",
          "lockedGoldPendingWithdrawalIndex": "The index of the pending withdrawal to finish in LockedGold."
        },
        "returns": {
          "amount": "The amount of CELO sent to `beneficiary`."
        }
      },
      "getCeloForGroup(address)": {
        "params": {
          "group": "The address of the validator group."
        },
        "returns": {
          "_0": "The total amount of CELO directed towards `group`."
        }
      },
      "getNumberPendingWithdrawals(address)": {
        "params": {
          "beneficiary": "The address of the beneficiary who initiated the pending withdrawal."
        },
        "returns": {
          "_0": "The numbers of pending withdrawals for `beneficiary`"
        }
      },
      "getPendingWithdrawal(address,uint256)": {
        "params": {
          "beneficiary": "The address of the beneficiary who initiated the pending withdrawal.",
          "index": "The index in `beneficiary`'s pendingWithdrawals array."
        },
        "returns": {
          "timestamp": "The timestamp of the pending withdrawal.",
          "value": "The values of the pending withdrawal."
        }
      },
      "getPendingWithdrawals(address)": {
        "params": {
          "beneficiary": "The address of the beneficiary who initiated the pending withdrawal."
        },
        "returns": {
          "timestamps": "The timestamps of pending withdrawals.",
          "values": "The values of pending withdrawals."
        }
      },
      "getTotalCelo()": {
        "returns": {
          "_0": "The total amount of CELO this contract controls, including LockedGold."
        }
      },
      "getVersionNumber()": {
        "returns": {
          "_0": "Storage version of the contract.",
          "_1": "Major version of the contract.",
          "_2": "Minor version of the contract.",
          "_3": "Patch version of the contract."
        }
      },
      "initialize(address,address,address)": {
        "params": {
          "_manager": "The address of the Manager contract.",
          "_owner": "The address of the contract owner.",
          "_registry": "The address of the Celo Registry."
        }
      },
      "isPaused()": {
        "returns": {
          "_0": "`true` if the contract is paused, `false` otherwise."
        }
      },
      "owner()": {
        "details": "Returns the address of the current owner."
      },
      "renounceOwnership()": {
        "details": "Leaves the contract without owner. It will not be possible to call `onlyOwner` functions anymore. Can only be called by the current owner. NOTE: Renouncing ownership will leave the contract without an owner, thereby removing any functionality that is only available to the owner."
      },
      "revokeVotes(address,address,address,address,address,uint256)": {
        "details": "Reverts if `revokeAmount` exceeds the total number of pending and active votes for the group from this contract.",
        "params": {
          "greaterAfterActiveRevoke": "Used by Election's `revokeActive`. This is the group that is after `group` within the validators sorted LinkedList, or address(0) if there isn't one, after the revoke of active votes has occurred.",
          "greaterAfterPendingRevoke": "Used by Election's `revokePending`. This is the group that is after `group` within the validators sorted LinkedList, or address(0) if there isn't one, after the revoke of pending votes has occurred.",
          "group": "The group to revoke CELO from.",
          "index": "Used by Election's `revokePending` and `revokeActive`. This is the index of `group` in the this contract's array of groups it is voting for.",
          "lesserAfterActiveRevoke": "Used by Election's `revokeActive`. This is the group that is before `group` within the validators sorted LinkedList, or address(0) if there isn't one, after the revoke of active votes has occurred.",
          "lesserAfterPendingRevoke": "Used by Election's `revokePending`. This is the group that is before `group` within the validators sorted LinkedList, or address(0) if there isn't one, after the revoke of pending votes has occurred."
        }
      },
      "scheduleTransfer(address[],uint256[],address[],uint256[])": {
        "details": "Only callable by the Manager contract, which must restrict which groups are valid.",
        "params": {
          "fromGroups": "The groups the deposited CELO is intended to be revoked from.",
          "fromVotes": "The amount of CELO scheduled to be revoked from each respective group.",
          "toGroups": "The groups the transferred CELO is intended to vote for.",
          "toVotes": "The amount of CELO to schedule for each respective group from `toGroups`."
        }
      },
      "scheduleVotes(address[],uint256[])": {
        "details": "Only callable by the Manager contract, which must restrict which groups gets CELO distribution.",
        "params": {
          "groups": "The groups the deposited CELO is intended to vote for.",
          "votes": "The amount of CELO to schedule for each respective group from `groups`."
        }
      },
      "scheduleWithdrawals(address,address[],uint256[])": {
        "params": {
          "beneficiary": "The account that will receive the CELO once it's withdrawn. from `groups`.",
          "groups": "The groups the deposited CELO is intended to be withdrawn from.",
          "withdrawals": "The amount of CELO to withdraw for each respective group."
        }
      },
      "scheduledRevokeForGroup(address)": {
        "params": {
          "group": "The address of the validator group."
        },
        "returns": {
          "_0": "The total amount of CELO scheduled to be revoked from `group`."
        }
      },
      "scheduledVotesForGroup(address)": {
        "params": {
          "group": "The address of the validator group."
        },
        "returns": {
          "_0": "The total amount of CELO directed towards `group`."
        }
      },
      "scheduledWithdrawalsForGroup(address)": {
        "params": {
          "group": "The address of the validator group."
        },
        "returns": {
          "_0": "The total amount of CELO to be withdrawn for `group`."
        }
      },
      "scheduledWithdrawalsForGroupAndBeneficiary(address,address)": {
        "params": {
          "beneficiary": "The beneficiary of the withdrawal.",
          "group": "The address of the validator group."
        },
        "returns": {
          "_0": "The total amount of CELO to be withdrawn for `group` by `beneficiary`."
        }
      },
      "setAllowedToVoteOverMaxNumberOfGroups(bool)": {
        "params": {
          "flag": "The on/off flag."
        }
      },
      "setManager(address)": {
        "params": {
          "_manager": "The new manager address."
        }
      },
      "transferOwnership(address)": {
        "details": "Transfers ownership of the contract to a new account (`newOwner`). Can only be called by the current owner."
      },
      "upgradeTo(address)": {
        "details": "Upgrade the implementation of the proxy to `newImplementation`. Calls {_authorizeUpgrade}. Emits an {Upgraded} event."
      },
      "upgradeToAndCall(address,bytes)": {
        "details": "Upgrade the implementation of the proxy to `newImplementation`, and subsequently execute the function call encoded in `data`. Calls {_authorizeUpgrade}. Emits an {Upgraded} event."
      },
      "votePartially(uint256,uint256,uint256,uint256,uint256)": {
        "params": {
          "abstainVotes": "The abstain votes weight.",
          "index": "The index of the proposal ID in `dequeued`.",
          "noVotes": "The no votes weight.",
          "proposalId": "The ID of the proposal to vote on.",
          "yesVotes": "The yes votes weight."
        }
      },
      "votesForGroup(address)": {
        "params": {
          "group": "The address of the validator group."
        },
        "returns": {
          "_0": "The total amount of CELO voted with for `group`."
        }
      },
      "withdraw(address,address,address,address,address,address,uint256)": {
        "params": {
          "beneficiary": "The recipient of the withdrawn CELO.",
          "greaterAfterActiveRevoke": "Used by Election's `revokeActive`. This is the group that is after `group` within the validators sorted LinkedList, or address(0) if there isn't one, after the revoke of active votes has occurred.",
          "greaterAfterPendingRevoke": "Used by Election's `revokePending`. This is the group that is after `group` within the validators sorted LinkedList, or address(0) if there isn't one, after the revoke of pending votes has occurred.",
          "group": "The group to withdraw CELO from.",
          "index": "Used by Election's `revokePending` and `revokeActive`. This is the index of `group` in this contract's array of groups it is voting for.",
          "lesserAfterActiveRevoke": "Used by Election's `revokeActive`. This is the group that is before `group` within the validators sorted LinkedList, or address(0) if there isn't one, after the revoke of active votes has occurred.",
          "lesserAfterPendingRevoke": "Used by Election's `revokePending`. This is the group that is before `group` within the validators sorted LinkedList, or address(0) if there isn't one, after the revoke of pending votes has occurred."
        },
        "returns": {
          "_0": "The amount of immediately withdrawn CELO that is obtained from scheduledVotes for `group`."
        }
      }
    },
    "title": "A contract that facilitates voting on behalf of StakedCelo.sol.",
    "version": 1
  },
  "userdoc": {
    "errors": {
      "AccountCreationFailed()": [
        {
          "notice": "Used when the creation of an account with Accounts.sol fails."
        }
      ],
      "ActivatePendingVotesFailed(address)": [
        {
          "notice": "Used when activating of pending votes via Election has failed."
        }
      ],
      "AddressZeroNotAllowed()": [
        {
          "notice": "Used when attempting to pass in address zero where not allowed."
        }
      ],
      "CallerNotManager(address)": [
        {
          "notice": "Used when an `onlyManager` function is called by a non-manager."
        }
      ],
      "CeloTransferFailed(address,uint256)": [
        {
          "notice": "Used when unable to transfer CELO."
        }
      ],
      "GroupsAndVotesArrayLengthsMismatch()": [
        {
          "notice": "Used when arrays passed for scheduling votes don't have matching lengths."
        }
      ],
      "InconsistentPendingWithdrawalTimestamps(uint256,uint256)": [
        {
          "notice": "Used when any of the resolved stakedCeloGroupVoter.pendingWithdrawal timestamps do not match the equivalent record in lockedGold.pendingWithdrawals."
        }
      ],
      "InconsistentPendingWithdrawalValues(uint256,uint256)": [
        {
          "notice": "Used when any of the resolved stakedCeloGroupVoter.pendingWithdrawal values do not match the equivalent record in lockedGold.pendingWithdrawals."
        }
      ],
      "InsufficientRevokableVotes(address,uint256)": [
        {
          "notice": "Used when active + pending votes amount is unable to fulfil a withdrawal request amount."
        }
      ],
      "NoScheduledWithdrawal(address,address)": [
        {
          "notice": "There's no amount of scheduled withdrawal for the given beneficiary and group."
        }
      ],
      "NotEnoughCeloInGroup(address,uint256,uint256)": [
        {
          "notice": "When scheduling transfer and the from group doesn't have enough CELO."
        }
      ],
      "OnlyPauser()": [
        {
          "notice": "Used when an `onlyPauser` function is called with a different address."
        }
      ],
      "Paused()": [
        {
          "notice": "Used when an `onlyWhenNotPaused` function is called while the contract is paused."
        }
      ],
      "PendingWithdrawalIndexTooHigh(uint256,uint256)": [
        {
          "notice": "Used when `pendingWithdrawalIndex` is too high for the beneficiary's pending withdrawals array."
        }
      ],
      "RevokeActiveFailed(address,uint256)": [
        {
          "notice": "Used when call to Election.sol's `revokeActiveVotes` fails."
        }
      ],
      "RevokePendingFailed(address,uint256)": [
        {
          "notice": "Used when call to Election.sol's `revokePendingVotes` fails."
        }
      ],
      "TotalVotesMismatch(uint256,uint256)": [
        {
          "notice": "Used when the sum of votes per groups during vote scheduling doesn't match the `msg.value` sent with the call."
        }
      ],
      "TransferAmountMisalignment(uint256,uint256)": [
        {
          "notice": "Scheduling transfer was not successfull since total amount of \"from\" and \"to\" are not the same."
        }
      ],
      "VoteFailed(address,uint256)": [
        {
          "notice": "Used when voting via Election has failed."
        }
      ],
      "VotingNotSuccessful(uint256)": [
        {
          "notice": "Voting for proposal was not successfull."
        }
      ],
      "WithdrawalAmountTooHigh(address,uint256,uint256)": [
        {
          "notice": "Used when attempting to schedule more withdrawals than CELO available to the contract."
        }
      ]
    },
    "events": {
      "CeloWithdrawalFinished(address,uint256,uint256)": {
        "notice": "Emitted when a CELO withdrawal completes for `beneficiary`."
      },
      "CeloWithdrawalScheduled(address,address,uint256)": {
        "notice": "Emitted when CELO withdrawal is scheduled for a group."
      },
      "CeloWithdrawalStarted(address,address,uint256)": {
        "notice": "Emitted when CELO withdrawal kicked off for group. Immediate withdrawals are not included in this event, but can be identified by a GoldToken.sol transfer from this contract."
      },
      "ContractPaused()": {
        "notice": "Emitted when this contract is paused."
      },
      "ContractUnpaused()": {
        "notice": "Emitted when this contract is unpaused."
      },
      "ManagerSet(address)": {
        "notice": "Emitted when the manager is initially set or later modified."
      },
      "PauserSet(address)": {
        "notice": "Emitted when the address authorized to pause/unpause the contract is changed."
      },
      "RevocationScheduled(address,uint256)": {
        "notice": "Emitted when CELO is scheduled to be revoked from a given group."
      },
      "VotesScheduled(address,uint256)": {
        "notice": "Emitted when CELO is scheduled for voting for a given group."
      }
    },
    "kind": "user",
    "methods": {
      "PAUSED_POSITION()": {
        "notice": "The storage slot under which we store a boolean representing whether or not the contract is currently paused."
      },
      "PAUSER_POSITION()": {
        "notice": "The storage slot under which we store an address representing the address permissioned to pause/unpause this contract."
      },
      "activateAndVote(address,address,address)": {
        "notice": "Activates any activatable pending votes for group, and locks & votes any unlocked CELO for group."
      },
      "constructor": {
        "notice": "Empty constructor for proxy implementation, `initializer` modifer ensures the implementation gets initialized."
      },
      "finishPendingWithdrawal(address,uint256,uint256)": {
        "notice": "Finishes a pending withdrawal created as a result of a `withdrawCelo` call, claiming CELO after the `unlockingPeriod` defined in LockedGold.sol."
      },
      "getCeloForGroup(address)": {
        "notice": "Returns the total amount of CELO directed towards `group`. This is the Unlocked CELO balance for `group` plus the combined amount in pending and active votes made by this contract."
      },
      "getNumberPendingWithdrawals(address)": {
        "notice": "Returns the number of pending withdrawals for a beneficiary."
      },
      "getPendingWithdrawal(address,uint256)": {
        "notice": "Returns a pending withdrawals for a beneficiary."
      },
      "getPendingWithdrawals(address)": {
        "notice": "Returns the pending withdrawals for a beneficiary."
      },
      "getTotalCelo()": {
        "notice": "Gets the total amount of CELO this contract controls. This is the unlocked CELO balance of the contract plus the amount of LockedGold for this contract, which included unvoting and voting LockedGold."
      },
      "getVersionNumber()": {
        "notice": "Returns the storage, major, minor, and patch version of the contract."
      },
      "isPaused()": {
        "notice": "Returns whether or not the contract is paused."
      },
      "pause()": {
        "notice": "Pauses the contract."
      },
      "pauser()": {
        "notice": "Returns the address permissioned to pause/unpause this contract."
      },
      "pendingWithdrawals(address,uint256)": {
        "notice": "Keyed by beneficiary address, the related array of pending withdrawals. See `PendingWithdrawal` for more info."
      },
      "registry()": {
        "notice": "The Registry."
      },
      "revokeVotes(address,address,address,address,address,uint256)": {
        "notice": "Revokes votes from a validator group. It first attempts to revoke pending votes, and then active votes if necessary."
      },
      "scheduleTransfer(address[],uint256[],address[],uint256[])": {
        "notice": "Schedules votes which will be revoked from some groups and voted to others."
      },
      "scheduleVotes(address[],uint256[])": {
        "notice": "Deposits CELO sent via msg.value as unlocked CELO intended as votes for groups."
      },
      "scheduleWithdrawals(address,address[],uint256[])": {
        "notice": "Schedule a list of withdrawals to be refunded to a beneficiary."
      },
      "scheduledRevokeForGroup(address)": {
        "notice": "Returns the total amount of CELO that's scheduled to be revoked for a group."
      },
      "scheduledVotesForGroup(address)": {
        "notice": "Returns the total amount of CELO that's scheduled to vote for a group."
      },
      "scheduledWithdrawalsForGroup(address)": {
        "notice": "Returns the total amount of CELO that's scheduled to be withdrawn for a group."
      },
      "scheduledWithdrawalsForGroupAndBeneficiary(address,address)": {
        "notice": "Returns the total amount of CELO that's scheduled to be withdrawn for a group scoped by a beneficiary."
      },
      "setAllowedToVoteOverMaxNumberOfGroups(bool)": {
        "notice": "Turns on/off voting for more then max number of groups."
      },
      "setManager(address)": {
        "notice": "Sets the manager address."
      },
      "setPauser()": {
        "notice": "Sets that address permissioned to pause/unpause this contract to the owner of this contract."
      },
      "totalScheduledWithdrawals()": {
        "notice": "Total amount of CELO scheduled to be withdrawn from all groups by all beneficiaries."
      },
      "unpause()": {
        "notice": "Unpauses the contract."
      },
      "votePartially(uint256,uint256,uint256,uint256,uint256)": {
        "notice": "Votes on a proposal in the referendum stage."
      },
      "votesForGroup(address)": {
        "notice": "Returns the total amount of CELO that's voted with for a group."
      },
      "withdraw(address,address,address,address,address,address,uint256)": {
        "notice": "Starts withdrawal of CELO from `group`. If there is any unlocked CELO for the group, that CELO is used for immediate withdrawal. Otherwise, CELO is taken from pending and active votes, which are subject to the unlock period of LockedGold.sol."
      }
    },
    "notice": "This contract depends on the Manager to decide how to distribute votes and how to keep track of ownership of CELO voted via this contract.",
    "version": 1
  },
  "storageLayout": {
    "storage": [
      {
        "astId": 130,
        "contract": "contracts/Account.sol:Account",
        "label": "_initialized",
        "offset": 0,
        "slot": "0",
        "type": "t_bool"
      },
      {
        "astId": 133,
        "contract": "contracts/Account.sol:Account",
        "label": "_initializing",
        "offset": 1,
        "slot": "0",
        "type": "t_bool"
      },
      {
        "astId": 584,
        "contract": "contracts/Account.sol:Account",
        "label": "__gap",
        "offset": 0,
        "slot": "1",
        "type": "t_array(t_uint256)50_storage"
      },
      {
        "astId": 10,
        "contract": "contracts/Account.sol:Account",
        "label": "_owner",
        "offset": 0,
        "slot": "51",
        "type": "t_address"
      },
      {
        "astId": 122,
        "contract": "contracts/Account.sol:Account",
        "label": "__gap",
        "offset": 0,
        "slot": "52",
        "type": "t_array(t_uint256)49_storage"
      },
      {
        "astId": 14871,
        "contract": "contracts/Account.sol:Account",
        "label": "registry",
        "offset": 0,
        "slot": "101",
        "type": "t_contract(IRegistry)17912"
      },
      {
        "astId": 7309,
        "contract": "contracts/Account.sol:Account",
        "label": "manager",
        "offset": 0,
        "slot": "102",
        "type": "t_address"
      },
      {
        "astId": 3586,
        "contract": "contracts/Account.sol:Account",
        "label": "pendingWithdrawals",
        "offset": 0,
        "slot": "103",
        "type": "t_mapping(t_address,t_array(t_struct(PendingWithdrawal)3568_storage)dyn_storage)"
      },
      {
        "astId": 3592,
        "contract": "contracts/Account.sol:Account",
        "label": "scheduledVotes",
        "offset": 0,
        "slot": "104",
        "type": "t_mapping(t_address,t_struct(ScheduledVotes)3579_storage)"
      },
      {
        "astId": 3595,
        "contract": "contracts/Account.sol:Account",
        "label": "totalScheduledWithdrawals",
        "offset": 0,
        "slot": "105",
        "type": "t_uint256"
      }
    ],
    "types": {
      "t_address": {
        "encoding": "inplace",
        "label": "address",
        "numberOfBytes": "20"
      },
      "t_array(t_struct(PendingWithdrawal)3568_storage)dyn_storage": {
        "base": "t_struct(PendingWithdrawal)3568_storage",
        "encoding": "dynamic_array",
        "label": "struct Account.PendingWithdrawal[]",
        "numberOfBytes": "32"
      },
      "t_array(t_uint256)49_storage": {
        "base": "t_uint256",
        "encoding": "inplace",
        "label": "uint256[49]",
        "numberOfBytes": "1568"
      },
      "t_array(t_uint256)50_storage": {
        "base": "t_uint256",
        "encoding": "inplace",
        "label": "uint256[50]",
        "numberOfBytes": "1600"
      },
      "t_bool": {
        "encoding": "inplace",
        "label": "bool",
        "numberOfBytes": "1"
      },
      "t_contract(IRegistry)17912": {
        "encoding": "inplace",
        "label": "contract IRegistry",
        "numberOfBytes": "20"
      },
      "t_mapping(t_address,t_array(t_struct(PendingWithdrawal)3568_storage)dyn_storage)": {
        "encoding": "mapping",
        "key": "t_address",
        "label": "mapping(address => struct Account.PendingWithdrawal[])",
        "numberOfBytes": "32",
        "value": "t_array(t_struct(PendingWithdrawal)3568_storage)dyn_storage"
      },
      "t_mapping(t_address,t_struct(ScheduledVotes)3579_storage)": {
        "encoding": "mapping",
        "key": "t_address",
        "label": "mapping(address => struct Account.ScheduledVotes)",
        "numberOfBytes": "32",
        "value": "t_struct(ScheduledVotes)3579_storage"
      },
      "t_mapping(t_address,t_uint256)": {
        "encoding": "mapping",
        "key": "t_address",
        "label": "mapping(address => uint256)",
        "numberOfBytes": "32",
        "value": "t_uint256"
      },
      "t_struct(PendingWithdrawal)3568_storage": {
        "encoding": "inplace",
        "label": "struct Account.PendingWithdrawal",
        "members": [
          {
            "astId": 3565,
            "contract": "contracts/Account.sol:Account",
            "label": "value",
            "offset": 0,
            "slot": "0",
            "type": "t_uint256"
          },
          {
            "astId": 3567,
            "contract": "contracts/Account.sol:Account",
            "label": "timestamp",
            "offset": 0,
            "slot": "1",
            "type": "t_uint256"
          }
        ],
        "numberOfBytes": "64"
      },
      "t_struct(ScheduledVotes)3579_storage": {
        "encoding": "inplace",
        "label": "struct Account.ScheduledVotes",
        "members": [
          {
            "astId": 3570,
            "contract": "contracts/Account.sol:Account",
            "label": "toVote",
            "offset": 0,
            "slot": "0",
            "type": "t_uint256"
          },
          {
            "astId": 3572,
            "contract": "contracts/Account.sol:Account",
            "label": "toWithdraw",
            "offset": 0,
            "slot": "1",
            "type": "t_uint256"
          },
          {
            "astId": 3576,
            "contract": "contracts/Account.sol:Account",
            "label": "toWithdrawFor",
            "offset": 0,
            "slot": "2",
            "type": "t_mapping(t_address,t_uint256)"
          },
          {
            "astId": 3578,
            "contract": "contracts/Account.sol:Account",
            "label": "toRevoke",
            "offset": 0,
            "slot": "3",
            "type": "t_uint256"
          }
        ],
        "numberOfBytes": "128"
      },
      "t_uint256": {
        "encoding": "inplace",
        "label": "uint256",
        "numberOfBytes": "32"
      }
    }
  }
}