{
  "address": "0x07550767a1604af3E504749E284792Ff30fb4a53",
  "abi": [
    {
      "inputs": [],
      "stateMutability": "nonpayable",
      "type": "constructor"
    },
    {
      "inputs": [],
      "name": "AccountCreationFailed",
      "type": "error"
    },
    {
      "inputs": [
        {
          "internalType": "address",
          "name": "group",
          "type": "address"
        }
      ],
      "name": "ActivatePendingVotesFailed",
      "type": "error"
    },
    {
      "inputs": [],
      "name": "AddressZeroNotAllowed",
      "type": "error"
    },
    {
      "inputs": [
        {
          "internalType": "address",
          "name": "caller",
          "type": "address"
        }
      ],
      "name": "CallerNotManager",
      "type": "error"
    },
    {
      "inputs": [
        {
          "internalType": "address",
          "name": "to",
          "type": "address"
        },
        {
          "internalType": "uint256",
          "name": "amount",
          "type": "uint256"
        }
      ],
      "name": "CeloTransferFailed",
      "type": "error"
    },
    {
      "inputs": [],
      "name": "GroupsAndVotesArrayLengthsMismatch",
      "type": "error"
    },
    {
      "inputs": [
        {
          "internalType": "uint256",
          "name": "localPendingWithdrawalTimestamp",
          "type": "uint256"
        },
        {
          "internalType": "uint256",
          "name": "lockedGoldPendingWithdrawalTimestamp",
          "type": "uint256"
        }
      ],
      "name": "InconsistentPendingWithdrawalTimestamps",
      "type": "error"
    },
    {
      "inputs": [
        {
          "internalType": "uint256",
          "name": "localPendingWithdrawalValue",
          "type": "uint256"
        },
        {
          "internalType": "uint256",
          "name": "lockedGoldPendingWithdrawalValue",
          "type": "uint256"
        }
      ],
      "name": "InconsistentPendingWithdrawalValues",
      "type": "error"
    },
    {
      "inputs": [
        {
          "internalType": "address",
          "name": "group",
          "type": "address"
        },
        {
          "internalType": "uint256",
          "name": "amount",
          "type": "uint256"
        }
      ],
      "name": "InsufficientRevokableVotes",
      "type": "error"
    },
    {
      "inputs": [
        {
          "internalType": "address",
          "name": "beneficiary",
          "type": "address"
        },
        {
          "internalType": "address",
          "name": "group",
          "type": "address"
        }
      ],
      "name": "NoScheduledWithdrawal",
      "type": "error"
    },
    {
      "inputs": [],
      "name": "OnlyPauser",
      "type": "error"
    },
    {
      "inputs": [],
      "name": "Paused",
      "type": "error"
    },
    {
      "inputs": [
        {
          "internalType": "uint256",
          "name": "pendingWithdrawalIndex",
          "type": "uint256"
        },
        {
          "internalType": "uint256",
          "name": "pendingWithdrawalsLength",
          "type": "uint256"
        }
      ],
      "name": "PendingWithdrawalIndexTooHigh",
      "type": "error"
    },
    {
      "inputs": [
        {
          "internalType": "address",
          "name": "group",
          "type": "address"
        },
        {
          "internalType": "uint256",
          "name": "amount",
          "type": "uint256"
        }
      ],
      "name": "RevokeActiveFailed",
      "type": "error"
    },
    {
      "inputs": [
        {
          "internalType": "address",
          "name": "group",
          "type": "address"
        },
        {
          "internalType": "uint256",
          "name": "amount",
          "type": "uint256"
        }
      ],
      "name": "RevokePendingFailed",
      "type": "error"
    },
    {
      "inputs": [
        {
          "internalType": "uint256",
          "name": "sentValue",
          "type": "uint256"
        },
        {
          "internalType": "uint256",
          "name": "expectedValue",
          "type": "uint256"
        }
      ],
      "name": "TotalVotesMismatch",
      "type": "error"
    },
    {
      "inputs": [],
      "name": "TransferAmountMisalignment",
      "type": "error"
    },
    {
      "inputs": [
        {
          "internalType": "address",
          "name": "group",
          "type": "address"
        },
        {
          "internalType": "uint256",
          "name": "amount",
          "type": "uint256"
        }
      ],
      "name": "VoteFailed",
      "type": "error"
    },
    {
      "inputs": [
        {
          "internalType": "uint256",
          "name": "proposalId",
          "type": "uint256"
        }
      ],
      "name": "VotingNotSuccessful",
      "type": "error"
    },
    {
      "inputs": [
        {
          "internalType": "address",
          "name": "group",
          "type": "address"
        },
        {
          "internalType": "uint256",
          "name": "celoAvailable",
          "type": "uint256"
        },
        {
          "internalType": "uint256",
          "name": "celoToWindraw",
          "type": "uint256"
        }
      ],
      "name": "WithdrawalAmountTooHigh",
      "type": "error"
    },
    {
      "anonymous": false,
      "inputs": [
        {
          "indexed": false,
          "internalType": "address",
          "name": "previousAdmin",
          "type": "address"
        },
        {
          "indexed": false,
          "internalType": "address",
          "name": "newAdmin",
          "type": "address"
        }
      ],
      "name": "AdminChanged",
      "type": "event"
    },
    {
      "anonymous": false,
      "inputs": [
        {
          "indexed": true,
          "internalType": "address",
          "name": "beacon",
          "type": "address"
        }
      ],
      "name": "BeaconUpgraded",
      "type": "event"
    },
    {
      "anonymous": false,
      "inputs": [
        {
          "indexed": true,
          "internalType": "address",
          "name": "beneficiary",
          "type": "address"
        },
        {
          "indexed": false,
          "internalType": "uint256",
          "name": "amount",
          "type": "uint256"
        },
        {
          "indexed": false,
          "internalType": "uint256",
          "name": "timestamp",
          "type": "uint256"
        }
      ],
      "name": "CeloWithdrawalFinished",
      "type": "event"
    },
    {
      "anonymous": false,
      "inputs": [
        {
          "indexed": true,
          "internalType": "address",
          "name": "beneficiary",
          "type": "address"
        },
        {
          "indexed": true,
          "internalType": "address",
          "name": "group",
          "type": "address"
        },
        {
          "indexed": false,
          "internalType": "uint256",
          "name": "withdrawalAmount",
          "type": "uint256"
        }
      ],
      "name": "CeloWithdrawalScheduled",
      "type": "event"
    },
    {
      "anonymous": false,
      "inputs": [
        {
          "indexed": true,
          "internalType": "address",
          "name": "beneficiary",
          "type": "address"
        },
        {
          "indexed": true,
          "internalType": "address",
          "name": "group",
          "type": "address"
        },
        {
          "indexed": false,
          "internalType": "uint256",
          "name": "withdrawalAmount",
          "type": "uint256"
        }
      ],
      "name": "CeloWithdrawalStarted",
      "type": "event"
    },
    {
      "anonymous": false,
      "inputs": [],
      "name": "ContractPaused",
      "type": "event"
    },
    {
      "anonymous": false,
      "inputs": [],
      "name": "ContractUnpaused",
      "type": "event"
    },
    {
      "anonymous": false,
      "inputs": [
        {
          "indexed": true,
          "internalType": "address",
          "name": "manager",
          "type": "address"
        }
      ],
      "name": "ManagerSet",
      "type": "event"
    },
    {
      "anonymous": false,
      "inputs": [
        {
          "indexed": true,
          "internalType": "address",
          "name": "previousOwner",
          "type": "address"
        },
        {
          "indexed": true,
          "internalType": "address",
          "name": "newOwner",
          "type": "address"
        }
      ],
      "name": "OwnershipTransferred",
      "type": "event"
    },
    {
      "anonymous": false,
      "inputs": [
        {
          "indexed": false,
          "internalType": "address",
          "name": "pauser",
          "type": "address"
        }
      ],
      "name": "PauserSet",
      "type": "event"
    },
    {
      "anonymous": false,
      "inputs": [
        {
          "indexed": true,
          "internalType": "address",
          "name": "group",
          "type": "address"
        },
        {
          "indexed": false,
          "internalType": "uint256",
          "name": "amount",
          "type": "uint256"
        }
      ],
      "name": "RevocationScheduled",
      "type": "event"
    },
    {
      "anonymous": false,
      "inputs": [
        {
          "indexed": true,
          "internalType": "address",
          "name": "implementation",
          "type": "address"
        }
      ],
      "name": "Upgraded",
      "type": "event"
    },
    {
      "anonymous": false,
      "inputs": [
        {
          "indexed": true,
          "internalType": "address",
          "name": "group",
          "type": "address"
        },
        {
          "indexed": false,
          "internalType": "uint256",
          "name": "amount",
          "type": "uint256"
        }
      ],
      "name": "VotesScheduled",
      "type": "event"
    },
    {
      "inputs": [],
      "name": "PAUSED_POSITION",
      "outputs": [
        {
          "internalType": "bytes32",
          "name": "",
          "type": "bytes32"
        }
      ],
      "stateMutability": "view",
      "type": "function"
    },
    {
      "inputs": [],
      "name": "PAUSER_POSITION",
      "outputs": [
        {
          "internalType": "bytes32",
          "name": "",
          "type": "bytes32"
        }
      ],
      "stateMutability": "view",
      "type": "function"
    },
    {
      "inputs": [
        {
          "internalType": "address",
          "name": "group",
          "type": "address"
        },
        {
          "internalType": "address",
          "name": "voteLesser",
          "type": "address"
        },
        {
          "internalType": "address",
          "name": "voteGreater",
          "type": "address"
        }
      ],
      "name": "activateAndVote",
      "outputs": [],
      "stateMutability": "nonpayable",
      "type": "function"
    },
    {
      "inputs": [
        {
          "internalType": "address",
          "name": "beneficiary",
          "type": "address"
        },
        {
          "internalType": "uint256",
          "name": "localPendingWithdrawalIndex",
          "type": "uint256"
        },
        {
          "internalType": "uint256",
          "name": "lockedGoldPendingWithdrawalIndex",
          "type": "uint256"
        }
      ],
      "name": "finishPendingWithdrawal",
      "outputs": [
        {
          "internalType": "uint256",
          "name": "amount",
          "type": "uint256"
        }
      ],
      "stateMutability": "nonpayable",
      "type": "function"
    },
    {
      "inputs": [
        {
          "internalType": "address",
          "name": "group",
          "type": "address"
        }
      ],
      "name": "getCeloForGroup",
      "outputs": [
        {
          "internalType": "uint256",
          "name": "",
          "type": "uint256"
        }
      ],
      "stateMutability": "view",
      "type": "function"
    },
    {
      "inputs": [
        {
          "internalType": "address",
          "name": "beneficiary",
          "type": "address"
        }
      ],
      "name": "getNumberPendingWithdrawals",
      "outputs": [
        {
          "internalType": "uint256",
          "name": "",
          "type": "uint256"
        }
      ],
      "stateMutability": "view",
      "type": "function"
    },
    {
      "inputs": [
        {
          "internalType": "address",
          "name": "beneficiary",
          "type": "address"
        },
        {
          "internalType": "uint256",
          "name": "index",
          "type": "uint256"
        }
      ],
      "name": "getPendingWithdrawal",
      "outputs": [
        {
          "internalType": "uint256",
          "name": "value",
          "type": "uint256"
        },
        {
          "internalType": "uint256",
          "name": "timestamp",
          "type": "uint256"
        }
      ],
      "stateMutability": "view",
      "type": "function"
    },
    {
      "inputs": [
        {
          "internalType": "address",
          "name": "beneficiary",
          "type": "address"
        }
      ],
      "name": "getPendingWithdrawals",
      "outputs": [
        {
          "internalType": "uint256[]",
          "name": "values",
          "type": "uint256[]"
        },
        {
          "internalType": "uint256[]",
          "name": "timestamps",
          "type": "uint256[]"
        }
      ],
      "stateMutability": "view",
      "type": "function"
    },
    {
      "inputs": [],
      "name": "getTotalCelo",
      "outputs": [
        {
          "internalType": "uint256",
          "name": "",
          "type": "uint256"
        }
      ],
      "stateMutability": "view",
      "type": "function"
    },
    {
      "inputs": [],
      "name": "getVersionNumber",
      "outputs": [
        {
          "internalType": "uint256",
          "name": "",
          "type": "uint256"
        },
        {
          "internalType": "uint256",
          "name": "",
          "type": "uint256"
        },
        {
          "internalType": "uint256",
          "name": "",
          "type": "uint256"
        },
        {
          "internalType": "uint256",
          "name": "",
          "type": "uint256"
        }
      ],
      "stateMutability": "pure",
      "type": "function"
    },
    {
      "inputs": [
        {
          "internalType": "address",
          "name": "_registry",
          "type": "address"
        },
        {
          "internalType": "address",
          "name": "_manager",
          "type": "address"
        },
        {
          "internalType": "address",
          "name": "_owner",
          "type": "address"
        }
      ],
      "name": "initialize",
      "outputs": [],
      "stateMutability": "nonpayable",
      "type": "function"
    },
    {
      "inputs": [],
      "name": "isPaused",
      "outputs": [
        {
          "internalType": "bool",
          "name": "",
          "type": "bool"
        }
      ],
      "stateMutability": "view",
      "type": "function"
    },
    {
      "inputs": [],
      "name": "manager",
      "outputs": [
        {
          "internalType": "address",
          "name": "",
          "type": "address"
        }
      ],
      "stateMutability": "view",
      "type": "function"
    },
    {
      "inputs": [],
      "name": "owner",
      "outputs": [
        {
          "internalType": "address",
          "name": "",
          "type": "address"
        }
      ],
      "stateMutability": "view",
      "type": "function"
    },
    {
      "inputs": [],
      "name": "pause",
      "outputs": [],
      "stateMutability": "nonpayable",
      "type": "function"
    },
    {
      "inputs": [],
      "name": "pauser",
      "outputs": [
        {
          "internalType": "address",
          "name": "",
          "type": "address"
        }
      ],
      "stateMutability": "view",
      "type": "function"
    },
    {
      "inputs": [
        {
          "internalType": "address",
          "name": "",
          "type": "address"
        },
        {
          "internalType": "uint256",
          "name": "",
          "type": "uint256"
        }
      ],
      "name": "pendingWithdrawals",
      "outputs": [
        {
          "internalType": "uint256",
          "name": "value",
          "type": "uint256"
        },
        {
          "internalType": "uint256",
          "name": "timestamp",
          "type": "uint256"
        }
      ],
      "stateMutability": "view",
      "type": "function"
    },
    {
      "inputs": [],
      "name": "registry",
      "outputs": [
        {
          "internalType": "contract IRegistry",
          "name": "",
          "type": "address"
        }
      ],
      "stateMutability": "view",
      "type": "function"
    },
    {
      "inputs": [],
      "name": "renounceOwnership",
      "outputs": [],
      "stateMutability": "nonpayable",
      "type": "function"
    },
    {
      "inputs": [
        {
          "internalType": "address",
          "name": "group",
          "type": "address"
        },
        {
          "internalType": "address",
          "name": "lesserAfterPendingRevoke",
          "type": "address"
        },
        {
          "internalType": "address",
          "name": "greaterAfterPendingRevoke",
          "type": "address"
        },
        {
          "internalType": "address",
          "name": "lesserAfterActiveRevoke",
          "type": "address"
        },
        {
          "internalType": "address",
          "name": "greaterAfterActiveRevoke",
          "type": "address"
        },
        {
          "internalType": "uint256",
          "name": "index",
          "type": "uint256"
        }
      ],
      "name": "revokeVotes",
      "outputs": [],
      "stateMutability": "nonpayable",
      "type": "function"
    },
    {
      "inputs": [
        {
          "internalType": "address[]",
          "name": "fromGroups",
          "type": "address[]"
        },
        {
          "internalType": "uint256[]",
          "name": "fromVotes",
          "type": "uint256[]"
        },
        {
          "internalType": "address[]",
          "name": "toGroups",
          "type": "address[]"
        },
        {
          "internalType": "uint256[]",
          "name": "toVotes",
          "type": "uint256[]"
        }
      ],
      "name": "scheduleTransfer",
      "outputs": [],
      "stateMutability": "nonpayable",
      "type": "function"
    },
    {
      "inputs": [
        {
          "internalType": "address[]",
          "name": "groups",
          "type": "address[]"
        },
        {
          "internalType": "uint256[]",
          "name": "votes",
          "type": "uint256[]"
        }
      ],
      "name": "scheduleVotes",
      "outputs": [],
      "stateMutability": "payable",
      "type": "function"
    },
    {
      "inputs": [
        {
          "internalType": "address",
          "name": "beneficiary",
          "type": "address"
        },
        {
          "internalType": "address[]",
          "name": "groups",
          "type": "address[]"
        },
        {
          "internalType": "uint256[]",
          "name": "withdrawals",
          "type": "uint256[]"
        }
      ],
      "name": "scheduleWithdrawals",
      "outputs": [],
      "stateMutability": "nonpayable",
      "type": "function"
    },
    {
      "inputs": [
        {
          "internalType": "address",
          "name": "group",
          "type": "address"
        }
      ],
      "name": "scheduledRevokeForGroup",
      "outputs": [
        {
          "internalType": "uint256",
          "name": "",
          "type": "uint256"
        }
      ],
      "stateMutability": "view",
      "type": "function"
    },
    {
      "inputs": [
        {
          "internalType": "address",
          "name": "group",
          "type": "address"
        }
      ],
      "name": "scheduledVotesForGroup",
      "outputs": [
        {
          "internalType": "uint256",
          "name": "",
          "type": "uint256"
        }
      ],
      "stateMutability": "view",
      "type": "function"
    },
    {
      "inputs": [
        {
          "internalType": "address",
          "name": "group",
          "type": "address"
        }
      ],
      "name": "scheduledWithdrawalsForGroup",
      "outputs": [
        {
          "internalType": "uint256",
          "name": "",
          "type": "uint256"
        }
      ],
      "stateMutability": "view",
      "type": "function"
    },
    {
      "inputs": [
        {
          "internalType": "address",
          "name": "group",
          "type": "address"
        },
        {
          "internalType": "address",
          "name": "beneficiary",
          "type": "address"
        }
      ],
      "name": "scheduledWithdrawalsForGroupAndBeneficiary",
      "outputs": [
        {
          "internalType": "uint256",
          "name": "",
          "type": "uint256"
        }
      ],
      "stateMutability": "view",
      "type": "function"
    },
    {
      "inputs": [
        {
          "internalType": "bool",
          "name": "flag",
          "type": "bool"
        }
      ],
      "name": "setAllowedToVoteOverMaxNumberOfGroups",
      "outputs": [],
      "stateMutability": "nonpayable",
      "type": "function"
    },
    {
      "inputs": [
        {
          "internalType": "address",
          "name": "_manager",
          "type": "address"
        }
      ],
      "name": "setManager",
      "outputs": [],
      "stateMutability": "nonpayable",
      "type": "function"
    },
    {
      "inputs": [],
      "name": "setPauser",
      "outputs": [],
      "stateMutability": "nonpayable",
      "type": "function"
    },
    {
      "inputs": [],
      "name": "totalScheduledWithdrawals",
      "outputs": [
        {
          "internalType": "uint256",
          "name": "",
          "type": "uint256"
        }
      ],
      "stateMutability": "view",
      "type": "function"
    },
    {
      "inputs": [
        {
          "internalType": "address",
          "name": "newOwner",
          "type": "address"
        }
      ],
      "name": "transferOwnership",
      "outputs": [],
      "stateMutability": "nonpayable",
      "type": "function"
    },
    {
      "inputs": [],
      "name": "unpause",
      "outputs": [],
      "stateMutability": "nonpayable",
      "type": "function"
    },
    {
      "inputs": [
        {
          "internalType": "address",
          "name": "newImplementation",
          "type": "address"
        }
      ],
      "name": "upgradeTo",
      "outputs": [],
      "stateMutability": "nonpayable",
      "type": "function"
    },
    {
      "inputs": [
        {
          "internalType": "address",
          "name": "newImplementation",
          "type": "address"
        },
        {
          "internalType": "bytes",
          "name": "data",
          "type": "bytes"
        }
      ],
      "name": "upgradeToAndCall",
      "outputs": [],
      "stateMutability": "payable",
      "type": "function"
    },
    {
      "inputs": [
        {
          "internalType": "uint256",
          "name": "proposalId",
          "type": "uint256"
        },
        {
          "internalType": "uint256",
          "name": "index",
          "type": "uint256"
        },
        {
          "internalType": "uint256",
          "name": "yesVotes",
          "type": "uint256"
        },
        {
          "internalType": "uint256",
          "name": "noVotes",
          "type": "uint256"
        },
        {
          "internalType": "uint256",
          "name": "abstainVotes",
          "type": "uint256"
        }
      ],
      "name": "votePartially",
      "outputs": [],
      "stateMutability": "nonpayable",
      "type": "function"
    },
    {
      "inputs": [
        {
          "internalType": "address",
          "name": "group",
          "type": "address"
        }
      ],
      "name": "votesForGroup",
      "outputs": [
        {
          "internalType": "uint256",
          "name": "",
          "type": "uint256"
        }
      ],
      "stateMutability": "view",
      "type": "function"
    },
    {
      "inputs": [
        {
          "internalType": "address",
          "name": "beneficiary",
          "type": "address"
        },
        {
          "internalType": "address",
          "name": "group",
          "type": "address"
        },
        {
          "internalType": "address",
          "name": "lesserAfterPendingRevoke",
          "type": "address"
        },
        {
          "internalType": "address",
          "name": "greaterAfterPendingRevoke",
          "type": "address"
        },
        {
          "internalType": "address",
          "name": "lesserAfterActiveRevoke",
          "type": "address"
        },
        {
          "internalType": "address",
          "name": "greaterAfterActiveRevoke",
          "type": "address"
        },
        {
          "internalType": "uint256",
          "name": "index",
          "type": "uint256"
        }
      ],
      "name": "withdraw",
      "outputs": [
        {
          "internalType": "uint256",
          "name": "",
          "type": "uint256"
        }
      ],
      "stateMutability": "nonpayable",
      "type": "function"
    },
    {
      "stateMutability": "payable",
      "type": "receive"
    }
  ],
  "transactionHash": "0x95ceec6a262d64003cb4759f0f2548ba6d5d9b2041457740c01001bd27f5952b",
  "args": [],
  "numDeployments": 3,
  "solcInputHash": "bc5d8aac7d0c7b5a1cef2b494d304103",
  "bytecode": "0x60a06040523073ffffffffffffffffffffffffffffffffffffffff1660809073ffffffffffffffffffffffffffffffffffffffff168152503480156200004457600080fd5b50600060019054906101000a900460ff166200006f5760008054906101000a900460ff161562000080565b6200007f6200013c60201b60201c565b5b620000c2576040517f08c379a0000000000000000000000000000000000000000000000000000000008152600401620000b99062000204565b60405180910390fd5b60008060019054906101000a900460ff16159050801562000113576001600060016101000a81548160ff02191690831515021790555060016000806101000a81548160ff0219169083151502179055505b8015620001355760008060016101000a81548160ff0219169083151502179055505b5062000226565b600062000154306200015a60201b6200337c1760201c565b15905090565b6000808273ffffffffffffffffffffffffffffffffffffffff163b119050919050565b600082825260208201905092915050565b7f496e697469616c697a61626c653a20636f6e747261637420697320616c72656160008201527f647920696e697469616c697a6564000000000000000000000000000000000000602082015250565b6000620001ec602e836200017d565b9150620001f9826200018e565b604082019050919050565b600060208201905081810360008301526200021f81620001dd565b9050919050565b6080516160a06200025760003960008181611240015281816112cf0152818161150a015261159901526160a06000f3fe6080604052600436106102295760003560e01c806384aff2e711610123578063c0c53b8b116100ab578063d52758aa1161006f578063d52758aa146107fd578063f2fde38b14610826578063f340c0d01461084f578063f380ade31461088d578063f8171927146108b657610230565b8063c0c53b8b14610707578063c7fb232814610730578063c9a101f31461076d578063d0ebdbe714610796578063d15ca4ed146107bf57610230565b80639fd0506d116100f25780639fd0506d146105fa578063a020c8de14610625578063acd201d014610662578063b09bdc5e1461069f578063b187bd26146106dc57610230565b806384aff2e71461053e5780638da5cb5b1461057b5780639468ba0e146105a657806395145221146105d157610230565b80633f4ba83a116101b15780635fd5c95e116101755780635fd5c95e14610491578063715018a6146104ce5780637b103999146104e55780637c0d530f146105105780638456cb591461052757610230565b80633f4ba83a146103c757806344dc4970146103de578063481c6a751461041c5780634f1ef2861461044757806354255be01461046357610230565b80632ad9ac41116101f85780632ad9ac41146102f65780632edfd12e146103215780632f842a1a1461034a5780633659cfe6146103735780633cbf58721461039c57610230565b806301c21d591461023557806301d2b6ea146102515780631449edb01461027c57806322e59bd4146102b957610230565b3661023057005b600080fd5b61024f600480360381019061024a9190614a54565b6108f3565b005b34801561025d57600080fd5b50610266610aec565b6040516102739190614aee565b60405180910390f35b34801561028857600080fd5b506102a3600480360381019061029e9190614b67565b610b8c565b6040516102b09190614aee565b60405180910390f35b3480156102c557600080fd5b506102e060048036038101906102db9190614b67565b610bd8565b6040516102ed9190614aee565b60405180910390f35b34801561030257600080fd5b5061030b610c24565b6040516103189190614aee565b60405180910390f35b34801561032d57600080fd5b5061034860048036038101906103439190614bc0565b610c2a565b005b34801561035657600080fd5b50610371600480360381019061036c9190614c3b565b610dd4565b005b34801561037f57600080fd5b5061039a60048036038101906103959190614b67565b61123e565b005b3480156103a857600080fd5b506103b16113c7565b6040516103be9190614ce9565b60405180910390f35b3480156103d357600080fd5b506103dc6113fd565b005b3480156103ea57600080fd5b5061040560048036038101906104009190614d04565b6114a1565b604051610413929190614d44565b60405180910390f35b34801561042857600080fd5b506104316114e2565b60405161043e9190614d7c565b60405180910390f35b610461600480360381019061045c9190614ed8565b611508565b005b34801561046f57600080fd5b50610478611645565b6040516104889493929190614f34565b60405180910390f35b34801561049d57600080fd5b506104b860048036038101906104b39190614b67565b611661565b6040516104c59190614aee565b60405180910390f35b3480156104da57600080fd5b506104e36116ad565b005b3480156104f157600080fd5b506104fa611735565b6040516105079190614fd8565b60405180910390f35b34801561051c57600080fd5b5061052561175b565b005b34801561053357600080fd5b5061053c6117e9565b005b34801561054a57600080fd5b5061056560048036038101906105609190614ff3565b61188d565b6040516105729190614aee565b60405180910390f35b34801561058757600080fd5b50610590611b63565b60405161059d9190614d7c565b60405180910390f35b3480156105b257600080fd5b506105bb611b8d565b6040516105c89190614ce9565b60405180910390f35b3480156105dd57600080fd5b506105f860048036038101906105f39190615046565b611bc3565b005b34801561060657600080fd5b5061060f611cab565b60405161061c9190614d7c565b60405180910390f35b34801561063157600080fd5b5061064c600480360381019061064791906150d3565b611cf1565b6040516106599190614aee565b60405180910390f35b34801561066e57600080fd5b5061068960048036038101906106849190614b67565b612280565b6040516106969190614aee565b60405180910390f35b3480156106ab57600080fd5b506106c660048036038101906106c19190614b67565b612412565b6040516106d39190614aee565b60405180910390f35b3480156106e857600080fd5b506106f161245e565b6040516106fe9190615190565b60405180910390f35b34801561071357600080fd5b5061072e600480360381019061072991906151ab565b6124a4565b005b34801561073c57600080fd5b50610757600480360381019061075291906151fe565b612654565b6040516107649190614aee565b60405180910390f35b34801561077957600080fd5b50610794600480360381019061078f91906151ab565b6126de565b005b3480156107a257600080fd5b506107bd60048036038101906107b89190614b67565b612af3565b005b3480156107cb57600080fd5b506107e660048036038101906107e19190614d04565b612b7b565b6040516107f4929190614d44565b60405180910390f35b34801561080957600080fd5b50610824600480360381019061081f919061526a565b612c16565b005b34801561083257600080fd5b5061084d60048036038101906108489190614b67565b612d07565b005b34801561085b57600080fd5b5061087660048036038101906108719190614b67565b612dff565b604051610884929190615355565b60405180910390f35b34801561089957600080fd5b506108b460048036038101906108af919061538c565b612fcf565b005b3480156108c257600080fd5b506108dd60048036038101906108d89190614b67565b6132f0565b6040516108ea9190614aee565b60405180910390f35b3373ffffffffffffffffffffffffffffffffffffffff16606660009054906101000a900473ffffffffffffffffffffffffffffffffffffffff1673ffffffffffffffffffffffffffffffffffffffff161461098557336040517f3b2495f100000000000000000000000000000000000000000000000000000000815260040161097c9190614d7c565b60405180910390fd5b61098d61245e565b156109c4576040517f9e87fac800000000000000000000000000000000000000000000000000000000815260040160405180910390fd5b818190508484905014610a03576040517f8cd9cb4d00000000000000000000000000000000000000000000000000000000815260040160405180910390fd5b600080600090505b85859050811015610a9e57610a62868683818110610a2c57610a2b615475565b5b9050602002016020810190610a419190614b67565b858584818110610a5457610a53615475565b5b90506020020135600061339f565b5050838382818110610a7757610a76615475565b5b9050602002013582610a8991906154d3565b91508080610a9690615529565b915050610a0b565b50348114610ae55734816040517f02760fce000000000000000000000000000000000000000000000000000000008152600401610adc929190614d44565b60405180910390fd5b5050505050565b6000606954610af9613648565b73ffffffffffffffffffffffffffffffffffffffff166330ec70f5306040518263ffffffff1660e01b8152600401610b319190614d7c565b602060405180830381865afa158015610b4e573d6000803e3d6000fd5b505050506040513d601f19601f82011682018060405250810190610b729190615587565b47610b7d91906154d3565b610b8791906155b4565b905090565b6000606760008373ffffffffffffffffffffffffffffffffffffffff1673ffffffffffffffffffffffffffffffffffffffff168152602001908152602001600020805490509050919050565b6000606860008373ffffffffffffffffffffffffffffffffffffffff1673ffffffffffffffffffffffffffffffffffffffff168152602001908152602001600020600301549050919050565b60695481565b3373ffffffffffffffffffffffffffffffffffffffff16606660009054906101000a900473ffffffffffffffffffffffffffffffffffffffff1673ffffffffffffffffffffffffffffffffffffffff1614610cbc57336040517f3b2495f1000000000000000000000000000000000000000000000000000000008152600401610cb39190614d7c565b60405180910390fd5b610cc461245e565b15610cfb576040517f9e87fac800000000000000000000000000000000000000000000000000000000815260040160405180910390fd5b6000610d0561370f565b73ffffffffffffffffffffffffffffffffffffffff16632edfd12e87878787876040518663ffffffff1660e01b8152600401610d459594939291906155e8565b6020604051808303816000875af1158015610d64573d6000803e3d6000fd5b505050506040513d601f19601f82011682018060405250810190610d889190615650565b905080610dcc57856040517f30b7d05a000000000000000000000000000000000000000000000000000000008152600401610dc39190614aee565b60405180910390fd5b505050505050565b3373ffffffffffffffffffffffffffffffffffffffff16606660009054906101000a900473ffffffffffffffffffffffffffffffffffffffff1673ffffffffffffffffffffffffffffffffffffffff1614610e6657336040517f3b2495f1000000000000000000000000000000000000000000000000000000008152600401610e5d9190614d7c565b60405180910390fd5b610e6e61245e565b15610ea5576040517f9e87fac800000000000000000000000000000000000000000000000000000000815260040160405180910390fd5b818190508484905014610ee4576040517f8cd9cb4d00000000000000000000000000000000000000000000000000000000815260040160405180910390fd5b600080600090505b8383905081101561121c576000610f29878784818110610f0f57610f0e615475565b5b9050602002016020810190610f249190614b67565b612280565b9050848483818110610f3e57610f3d615475565b5b90506020020135811015610fcd57868683818110610f5f57610f5e615475565b5b9050602002016020810190610f749190614b67565b81868685818110610f8857610f87615475565b5b905060200201356040517fd5493527000000000000000000000000000000000000000000000000000000008152600401610fc49392919061567d565b60405180910390fd5b848483818110610fe057610fdf615475565b5b9050602002013560686000898986818110610ffe57610ffd615475565b5b90506020020160208101906110139190614b67565b73ffffffffffffffffffffffffffffffffffffffff1673ffffffffffffffffffffffffffffffffffffffff168152602001908152602001600020600101600082825461105f91906154d3565b9250508190555084848381811061107957611078615475565b5b905060200201356068600089898681811061109757611096615475565b5b90506020020160208101906110ac9190614b67565b73ffffffffffffffffffffffffffffffffffffffff1673ffffffffffffffffffffffffffffffffffffffff16815260200190815260200160002060020160008a73ffffffffffffffffffffffffffffffffffffffff1673ffffffffffffffffffffffffffffffffffffffff168152602001908152602001600020600082825461113591906154d3565b9250508190555084848381811061114f5761114e615475565b5b905060200201358361116191906154d3565b925086868381811061117657611175615475565b5b905060200201602081019061118b9190614b67565b73ffffffffffffffffffffffffffffffffffffffff168873ffffffffffffffffffffffffffffffffffffffff167f6b63acc273560d01b849e2d77c42ac2cd2b6ff5e1c775423c52a6e50be320e7b8787868181106111ec576111eb615475565b5b905060200201356040516112009190614aee565b60405180910390a350808061121490615529565b915050610eec565b50806069600082825461122f91906154d3565b92505081905550505050505050565b7f000000000000000000000000000000000000000000000000000000000000000073ffffffffffffffffffffffffffffffffffffffff163073ffffffffffffffffffffffffffffffffffffffff1614156112cd576040517f08c379a00000000000000000000000000000000000000000000000000000000081526004016112c490615737565b60405180910390fd5b7f000000000000000000000000000000000000000000000000000000000000000073ffffffffffffffffffffffffffffffffffffffff1661130c6137d6565b73ffffffffffffffffffffffffffffffffffffffff1614611362576040517f08c379a0000000000000000000000000000000000000000000000000000000008152600401611359906157c9565b60405180910390fd5b61136b8161382d565b6113c481600067ffffffffffffffff81111561138a57611389614dad565b5b6040519080825280601f01601f1916602001820160405280156113bc5781602001600182028036833780820191505090505b5060006138ac565b50565b60017f8f989356aeb576065c8d201815b96ac9c10cf89197a532e428ebd68581557c2360001c6113f791906155b4565b60001b81565b611405611cab565b73ffffffffffffffffffffffffffffffffffffffff163373ffffffffffffffffffffffffffffffffffffffff1614611469576040517f75df51dc00000000000000000000000000000000000000000000000000000000815260040160405180910390fd5b6114736000613a7d565b7f0e5e3b3fb504c22cf5c42fa07d521225937514c654007e1f12646f89768d6f9460405160405180910390a1565b606760205281600052604060002081815481106114bd57600080fd5b9060005260206000209060020201600091509150508060000154908060010154905082565b606660009054906101000a900473ffffffffffffffffffffffffffffffffffffffff1681565b7f000000000000000000000000000000000000000000000000000000000000000073ffffffffffffffffffffffffffffffffffffffff163073ffffffffffffffffffffffffffffffffffffffff161415611597576040517f08c379a000000000000000000000000000000000000000000000000000000000815260040161158e90615737565b60405180910390fd5b7f000000000000000000000000000000000000000000000000000000000000000073ffffffffffffffffffffffffffffffffffffffff166115d66137d6565b73ffffffffffffffffffffffffffffffffffffffff161461162c576040517f08c379a0000000000000000000000000000000000000000000000000000000008152600401611623906157c9565b60405180910390fd5b6116358261382d565b611641828260016138ac565b5050565b6000806000806001600260016000935093509350935090919293565b6000606860008373ffffffffffffffffffffffffffffffffffffffff1673ffffffffffffffffffffffffffffffffffffffff168152602001908152602001600020600001549050919050565b6116b5613abb565b73ffffffffffffffffffffffffffffffffffffffff166116d3611b63565b73ffffffffffffffffffffffffffffffffffffffff1614611729576040517f08c379a000000000000000000000000000000000000000000000000000000000815260040161172090615835565b60405180910390fd5b6117336000613ac3565b565b606560009054906101000a900473ffffffffffffffffffffffffffffffffffffffff1681565b611763613abb565b73ffffffffffffffffffffffffffffffffffffffff16611781611b63565b73ffffffffffffffffffffffffffffffffffffffff16146117d7576040517f08c379a00000000000000000000000000000000000000000000000000000000081526004016117ce90615835565b60405180910390fd5b6117e76117e2611b63565b613b89565b565b6117f1611cab565b73ffffffffffffffffffffffffffffffffffffffff163373ffffffffffffffffffffffffffffffffffffffff1614611855576040517f75df51dc00000000000000000000000000000000000000000000000000000000815260040160405180910390fd5b61185f6001613a7d565b7fab35696f06e428ebc5ceba8cd17f8fed287baf43440206d1943af1ee53e6d26760405160405180910390a1565b600061189761245e565b156118ce576040517f9e87fac800000000000000000000000000000000000000000000000000000000815260040160405180910390fd5b6000806118dc868686613c65565b915091506000606760008873ffffffffffffffffffffffffffffffffffffffff1673ffffffffffffffffffffffffffffffffffffffff1681526020019081526020016000209050806001828054905061193591906155b4565b8154811061194657611945615475565b5b906000526020600020906002020181878154811061196757611966615475565b5b906000526020600020906002020160008201548160000155600182015481600101559050508080548061199d5761199c615855565b5b60019003818190600052602060002090600202016000808201600090556001820160009055505090556119ce613648565b73ffffffffffffffffffffffffffffffffffffffff16632e1a7d4d866040518263ffffffff1660e01b8152600401611a069190614aee565b600060405180830381600087803b158015611a2057600080fd5b505af1158015611a34573d6000803e3d6000fd5b505050506000611a42613ef2565b73ffffffffffffffffffffffffffffffffffffffff1663a9059cbb89866040518363ffffffff1660e01b8152600401611a7c929190615884565b6020604051808303816000875af1158015611a9b573d6000803e3d6000fd5b505050506040513d601f19601f82011682018060405250810190611abf9190615650565b905080611b055787846040517fbe1b5315000000000000000000000000000000000000000000000000000000008152600401611afc929190615884565b60405180910390fd5b8773ffffffffffffffffffffffffffffffffffffffff167f3bb2914428a7565afeafb57ef1a5bad4a2de7be9bf7b41b7e5da505f4b974ce28585604051611b4d929190614d44565b60405180910390a2839450505050509392505050565b6000603360009054906101000a900473ffffffffffffffffffffffffffffffffffffffff16905090565b60017f29f060ba1cf8d3659516b02281c85dcc3e81b4287766ae4751c0f500688be30f60001c611bbd91906155b4565b60001b81565b611bcb61245e565b15611c02576040517f9e87fac800000000000000000000000000000000000000000000000000000000815260040160405180910390fd5b6000611c108760008061339f565b9150506000811415611c225750611ca3565b6000611c36611c30896132f0565b83613fb9565b9050611c4788828989898989613fd2565b80606860008a73ffffffffffffffffffffffffffffffffffffffff1673ffffffffffffffffffffffffffffffffffffffff1681526020019081526020016000206003016000828254611c9991906155b4565b9250508190555050505b505050505050565b600080600060017f29f060ba1cf8d3659516b02281c85dcc3e81b4287766ae4751c0f500688be30f60001c611ce091906155b4565b60001b905080549150819250505090565b6000611cfb61245e565b15611d32576040517f9e87fac800000000000000000000000000000000000000000000000000000000815260040160405180910390fd5b6000606860008973ffffffffffffffffffffffffffffffffffffffff1673ffffffffffffffffffffffffffffffffffffffff16815260200190815260200160002060020160008a73ffffffffffffffffffffffffffffffffffffffff1673ffffffffffffffffffffffffffffffffffffffff1681526020019081526020016000205490506000811415611dfe5788886040517f7a9a71fb000000000000000000000000000000000000000000000000000000008152600401611df59291906158ad565b60405180910390fd5b8773ffffffffffffffffffffffffffffffffffffffff168973ffffffffffffffffffffffffffffffffffffffff167f6e250cfd645a8eac07044223b0b240549b17fe4a71aab09d925cb413b72b00ae83604051611e5b9190614aee565b60405180910390a36000606860008a73ffffffffffffffffffffffffffffffffffffffff1673ffffffffffffffffffffffffffffffffffffffff16815260200190815260200160002060020160008b73ffffffffffffffffffffffffffffffffffffffff1673ffffffffffffffffffffffffffffffffffffffff1681526020019081526020016000208190555080606860008a73ffffffffffffffffffffffffffffffffffffffff1673ffffffffffffffffffffffffffffffffffffffff1681526020019081526020016000206001016000828254611f3a91906155b4565b925050819055508060696000828254611f5391906155b4565b925050819055506000611f688960008061339f565b5090506000611f774783613fb9565b905060008111156120ca5782811115611f8e578290505b80606860008c73ffffffffffffffffffffffffffffffffffffffff1673ffffffffffffffffffffffffffffffffffffffff1681526020019081526020016000206000016000828254611fe091906155b4565b925050819055506000611ff1613ef2565b73ffffffffffffffffffffffffffffffffffffffff1663a9059cbb8d846040518363ffffffff1660e01b815260040161202b929190615884565b6020604051808303816000875af115801561204a573d6000803e3d6000fd5b505050506040513d601f19601f8201168201806040525081019061206e9190615650565b9050806120b4578b826040517fbe1b53150000000000000000000000000000000000000000000000000000000081526004016120ab929190615884565b60405180910390fd5b838214156120c85781945050505050612275565b505b600081846120d891906155b4565b905060006120e4613648565b9050606760008e73ffffffffffffffffffffffffffffffffffffffff1673ffffffffffffffffffffffffffffffffffffffff16815260200190815260200160002060405180604001604052808481526020018373ffffffffffffffffffffffffffffffffffffffff166320637d8e6040518163ffffffff1660e01b8152600401602060405180830381865afa158015612181573d6000803e3d6000fd5b505050506040513d601f19601f820116820180604052508101906121a59190615587565b426121b091906154d3565b8152509080600181540180825580915050600190039060005260206000209060020201600090919091909150600082015181600001556020820151816001015550506122018c838d8d8d8d8d613fd2565b8073ffffffffffffffffffffffffffffffffffffffff16636198e339836040518263ffffffff1660e01b815260040161223a9190614aee565b600060405180830381600087803b15801561225457600080fd5b505af1158015612268573d6000803e3d6000fd5b5050505082955050505050505b979650505050505050565b600080606860008473ffffffffffffffffffffffffffffffffffffffff1673ffffffffffffffffffffffffffffffffffffffff168152602001908152602001600020600001546122ce6142fc565b73ffffffffffffffffffffffffffffffffffffffff16633861727285306040518363ffffffff1660e01b81526004016123089291906158ad565b602060405180830381865afa158015612325573d6000803e3d6000fd5b505050506040513d601f19601f820116820180604052508101906123499190615587565b61235391906154d3565b90506000606860008573ffffffffffffffffffffffffffffffffffffffff1673ffffffffffffffffffffffffffffffffffffffff16815260200190815260200160002060010154606860008673ffffffffffffffffffffffffffffffffffffffff1673ffffffffffffffffffffffffffffffffffffffff168152602001908152602001600020600301546123e791906154d3565b9050808211156124065780826123fd91906155b4565b9250505061240d565b6000925050505b919050565b6000606860008373ffffffffffffffffffffffffffffffffffffffff1673ffffffffffffffffffffffffffffffffffffffff168152602001908152602001600020600101549050919050565b600080600060017f8f989356aeb576065c8d201815b96ac9c10cf89197a532e428ebd68581557c2360001c61249391906155b4565b60001b905080549150819250505090565b600060019054906101000a900460ff166124cc5760008054906101000a900460ff16156124d5565b6124d46143c3565b5b612514576040517f08c379a000000000000000000000000000000000000000000000000000000000815260040161250b90615948565b60405180910390fd5b60008060019054906101000a900460ff161590508015612564576001600060016101000a81548160ff02191690831515021790555060016000806101000a81548160ff0219169083151502179055505b61256d846143d4565b612576836144e5565b61257f82613ac3565b612587614540565b73ffffffffffffffffffffffffffffffffffffffff16639dca362f6040518163ffffffff1660e01b81526004016020604051808303816000875af11580156125d3573d6000803e3d6000fd5b505050506040513d601f19601f820116820180604052508101906125f79190615650565b61262d576040517f20188a5900000000000000000000000000000000000000000000000000000000815260040160405180910390fd5b801561264e5760008060016101000a81548160ff0219169083151502179055505b50505050565b6000606860008473ffffffffffffffffffffffffffffffffffffffff1673ffffffffffffffffffffffffffffffffffffffff16815260200190815260200160002060020160008373ffffffffffffffffffffffffffffffffffffffff1673ffffffffffffffffffffffffffffffffffffffff16815260200190815260200160002054905092915050565b6126e661245e565b1561271d576040517f9e87fac800000000000000000000000000000000000000000000000000000000815260040160405180910390fd5b60006127276142fc565b905060006127378560008061339f565b5090508173ffffffffffffffffffffffffffffffffffffffff1663263ecf7430876040518363ffffffff1660e01b81526004016127759291906158ad565b602060405180830381865afa158015612792573d6000803e3d6000fd5b505050506040513d601f19601f820116820180604052508101906127b69190615650565b15612879578173ffffffffffffffffffffffffffffffffffffffff16631c5a9d9c866040518263ffffffff1660e01b81526004016127f49190614d7c565b6020604051808303816000875af1158015612813573d6000803e3d6000fd5b505050506040513d601f19601f820116820180604052508101906128379190615650565b61287857846040517fbafbcc5700000000000000000000000000000000000000000000000000000000815260040161286f9190614d7c565b60405180910390fd5b5b6000811415612889575050612aee565b6000612893613648565b73ffffffffffffffffffffffffffffffffffffffff16633f199b40306040518263ffffffff1660e01b81526004016128cb9190614d7c565b602060405180830381865afa1580156128e8573d6000803e3d6000fd5b505050506040513d601f19601f8201168201806040525081019061290c9190615587565b905060008282101561292957818361292491906155b4565b61292c565b60005b9050600061293a4783613fb9565b905060008111156129ae5761294d613648565b73ffffffffffffffffffffffffffffffffffffffff1663f83d08ba826040518263ffffffff1660e01b81526004016000604051808303818588803b15801561299457600080fd5b505af11580156129a8573d6000803e3d6000fd5b50505050505b600081836129bc91906155b4565b856129c791906155b4565b905080606860008b73ffffffffffffffffffffffffffffffffffffffff1673ffffffffffffffffffffffffffffffffffffffff1681526020019081526020016000206000016000828254612a1b91906155b4565b925050819055508573ffffffffffffffffffffffffffffffffffffffff1663580d747a8a838b8b6040518563ffffffff1660e01b8152600401612a619493929190615968565b6020604051808303816000875af1158015612a80573d6000803e3d6000fd5b505050506040513d601f19601f82011682018060405250810190612aa49190615650565b612ae75788856040517fcbf8d8ef000000000000000000000000000000000000000000000000000000008152600401612ade929190615884565b60405180910390fd5b5050505050505b505050565b612afb613abb565b73ffffffffffffffffffffffffffffffffffffffff16612b19611b63565b73ffffffffffffffffffffffffffffffffffffffff1614612b6f576040517f08c379a0000000000000000000000000000000000000000000000000000000008152600401612b6690615835565b60405180910390fd5b612b7881614607565b50565b6000806000606760008673ffffffffffffffffffffffffffffffffffffffff1673ffffffffffffffffffffffffffffffffffffffff1681526020019081526020016000208481548110612bd157612bd0615475565b5b90600052602060002090600202016040518060400160405290816000820154815260200160018201548152505090508060000151816020015192509250509250929050565b612c1e613abb565b73ffffffffffffffffffffffffffffffffffffffff16612c3c611b63565b73ffffffffffffffffffffffffffffffffffffffff1614612c92576040517f08c379a0000000000000000000000000000000000000000000000000000000008152600401612c8990615835565b60405180910390fd5b612c9a6142fc565b73ffffffffffffffffffffffffffffffffffffffff1663d52758aa826040518263ffffffff1660e01b8152600401612cd29190615190565b600060405180830381600087803b158015612cec57600080fd5b505af1158015612d00573d6000803e3d6000fd5b5050505050565b612d0f613abb565b73ffffffffffffffffffffffffffffffffffffffff16612d2d611b63565b73ffffffffffffffffffffffffffffffffffffffff1614612d83576040517f08c379a0000000000000000000000000000000000000000000000000000000008152600401612d7a90615835565b60405180910390fd5b600073ffffffffffffffffffffffffffffffffffffffff168173ffffffffffffffffffffffffffffffffffffffff161415612df3576040517f08c379a0000000000000000000000000000000000000000000000000000000008152600401612dea90615a1f565b60405180910390fd5b612dfc81613ac3565b50565b6060806000606760008573ffffffffffffffffffffffffffffffffffffffff1673ffffffffffffffffffffffffffffffffffffffff1681526020019081526020016000208054905090508067ffffffffffffffff811115612e6357612e62614dad565b5b604051908082528060200260200182016040528015612e915781602001602082028036833780820191505090505b5092508067ffffffffffffffff811115612eae57612ead614dad565b5b604051908082528060200260200182016040528015612edc5781602001602082028036833780820191505090505b50915060005b81811015612fc8576000606760008773ffffffffffffffffffffffffffffffffffffffff1673ffffffffffffffffffffffffffffffffffffffff1681526020019081526020016000208281548110612f3d57612f3c615475565b5b90600052602060002090600202016040518060400160405290816000820154815260200160018201548152505090508060000151858381518110612f8457612f83615475565b5b6020026020010181815250508060200151848381518110612fa857612fa7615475565b5b602002602001018181525050508080612fc090615529565b915050612ee2565b5050915091565b3373ffffffffffffffffffffffffffffffffffffffff16606660009054906101000a900473ffffffffffffffffffffffffffffffffffffffff1673ffffffffffffffffffffffffffffffffffffffff161461306157336040517f3b2495f10000000000000000000000000000000000000000000000000000000081526004016130589190614d7c565b60405180910390fd5b61306961245e565b156130a0576040517f9e87fac800000000000000000000000000000000000000000000000000000000815260040160405180910390fd5b85859050888890501415806130bb5750818190508484905014155b156130f2576040517f8cd9cb4d00000000000000000000000000000000000000000000000000000000815260040160405180910390fd5b60008060005b8a8a90508110156132135760006131358c8c8481811061311b5761311a615475565b5b90506020020160208101906131309190614b67565b612280565b905089898381811061314a57613149615475565b5b9050602002013581101561318a576040517f97df2d4f00000000000000000000000000000000000000000000000000000000815260040160405180910390fd5b6131d68c8c848181106131a05761319f615475565b5b90506020020160208101906131b59190614b67565b60008c8c868181106131ca576131c9615475565b5b9050602002013561339f565b50508989838181106131eb576131ea615475565b5b90506020020135846131fd91906154d3565b935050808061320b90615529565b9150506130f8565b5060005b868690508110156132aa5761326e87878381811061323857613237615475565b5b905060200201602081019061324d9190614b67565b8686848181106132605761325f615475565b5b90506020020135600061339f565b505084848281811061328357613282615475565b5b905060200201358261329591906154d3565b915080806132a290615529565b915050613217565b508082146132e4576040517f97df2d4f00000000000000000000000000000000000000000000000000000000815260040160405180910390fd5b50505050505050505050565b60006132fa6142fc565b73ffffffffffffffffffffffffffffffffffffffff16633861727283306040518363ffffffff1660e01b81526004016133349291906158ad565b602060405180830381865afa158015613351573d6000803e3d6000fd5b505050506040513d601f19601f820116820180604052508101906133759190615587565b9050919050565b6000808273ffffffffffffffffffffffffffffffffffffffff163b119050919050565b60008083606860008773ffffffffffffffffffffffffffffffffffffffff1673ffffffffffffffffffffffffffffffffffffffff168152602001908152602001600020600001546133f091906154d3565b915082606860008773ffffffffffffffffffffffffffffffffffffffff1673ffffffffffffffffffffffffffffffffffffffff1681526020019081526020016000206003015461344091906154d3565b9050808211156134ef57808261345691906155b4565b915081606860008773ffffffffffffffffffffffffffffffffffffffff1673ffffffffffffffffffffffffffffffffffffffff168152602001908152602001600020600001819055506000905080606860008773ffffffffffffffffffffffffffffffffffffffff1673ffffffffffffffffffffffffffffffffffffffff16815260200190815260200160002060030181905550613590565b81816134fb91906155b4565b905080606860008773ffffffffffffffffffffffffffffffffffffffff1673ffffffffffffffffffffffffffffffffffffffff168152602001908152602001600020600301819055506000915081606860008773ffffffffffffffffffffffffffffffffffffffff1673ffffffffffffffffffffffffffffffffffffffff168152602001908152602001600020600001819055505b60008411156135e8578473ffffffffffffffffffffffffffffffffffffffff167f3ee8e5d1cb8671d12b5b20284bb69c7fc325211a1f957cab060d8a78dcc64fba856040516135df9190614aee565b60405180910390a25b6000831115613640578473ffffffffffffffffffffffffffffffffffffffff167fd1689364af36a1aad50a34377d3bf08cc89d0e1f2ebc154359eb9087a6e81a3e846040516136379190614aee565b60405180910390a25b935093915050565b6000606560009054906101000a900473ffffffffffffffffffffffffffffffffffffffff1673ffffffffffffffffffffffffffffffffffffffff1663dcf0aaed60405160200161369790615a96565b604051602081830303815290604052805190602001206040518263ffffffff1660e01b81526004016136c99190614ce9565b602060405180830381865afa1580156136e6573d6000803e3d6000fd5b505050506040513d601f19601f8201168201806040525081019061370a9190615ac0565b905090565b6000606560009054906101000a900473ffffffffffffffffffffffffffffffffffffffff1673ffffffffffffffffffffffffffffffffffffffff1663dcf0aaed60405160200161375e90615b39565b604051602081830303815290604052805190602001206040518263ffffffff1660e01b81526004016137909190614ce9565b602060405180830381865afa1580156137ad573d6000803e3d6000fd5b505050506040513d601f19601f820116820180604052508101906137d19190615ac0565b905090565b60006138047f360894a13ba1a3210667c828492db98dca3e2076cc3735a920a3ca505d382bbc60001b6146f5565b60000160009054906101000a900473ffffffffffffffffffffffffffffffffffffffff16905090565b613835613abb565b73ffffffffffffffffffffffffffffffffffffffff16613853611b63565b73ffffffffffffffffffffffffffffffffffffffff16146138a9576040517f08c379a00000000000000000000000000000000000000000000000000000000081526004016138a090615835565b60405180910390fd5b50565b60006138b66137d6565b90506138c1846146ff565b6000835111806138ce5750815b156138df576138dd84846147b8565b505b600061390d7f4910fdfa16fed3260ed0e7147f7cc6da11a60208b5b9406d12a635614ffd914360001b6147e5565b90508060000160009054906101000a900460ff16613a765760018160000160006101000a81548160ff0219169083151502179055506139d985836040516024016139579190614d7c565b6040516020818303038152906040527f3659cfe6000000000000000000000000000000000000000000000000000000007bffffffffffffffffffffffffffffffffffffffffffffffffffffffff19166020820180517bffffffffffffffffffffffffffffffffffffffffffffffffffffffff83818316178352505050506147b8565b5060008160000160006101000a81548160ff0219169083151502179055506139ff6137d6565b73ffffffffffffffffffffffffffffffffffffffff168273ffffffffffffffffffffffffffffffffffffffff1614613a6c576040517f08c379a0000000000000000000000000000000000000000000000000000000008152600401613a6390615bc0565b60405180910390fd5b613a75856147ef565b5b5050505050565b600060017f8f989356aeb576065c8d201815b96ac9c10cf89197a532e428ebd68581557c2360001c613aaf91906155b4565b60001b90508181555050565b600033905090565b6000603360009054906101000a900473ffffffffffffffffffffffffffffffffffffffff16905081603360006101000a81548173ffffffffffffffffffffffffffffffffffffffff021916908373ffffffffffffffffffffffffffffffffffffffff1602179055508173ffffffffffffffffffffffffffffffffffffffff168173ffffffffffffffffffffffffffffffffffffffff167f8be0079c531659141344cd1fd0a4f28419497f9722a3daafe3b4186f6b6457e060405160405180910390a35050565b600073ffffffffffffffffffffffffffffffffffffffff168173ffffffffffffffffffffffffffffffffffffffff161415613bf0576040517f0855380c00000000000000000000000000000000000000000000000000000000815260040160405180910390fd5b600060017f29f060ba1cf8d3659516b02281c85dcc3e81b4287766ae4751c0f500688be30f60001c613c2291906155b4565b60001b90508181557fd11d57c2c7468878b1035df11c670bcd0091aa840bf8aa166365397622237bea82604051613c599190614d7c565b60405180910390a15050565b600080606760008673ffffffffffffffffffffffffffffffffffffffff1673ffffffffffffffffffffffffffffffffffffffff168152602001908152602001600020805490508410613d325783606760008773ffffffffffffffffffffffffffffffffffffffff1673ffffffffffffffffffffffffffffffffffffffff168152602001908152602001600020805490506040517fdee6f574000000000000000000000000000000000000000000000000000000008152600401613d29929190614d44565b60405180910390fd5b600080613d3d613648565b73ffffffffffffffffffffffffffffffffffffffff1663d15ca4ed30876040518363ffffffff1660e01b8152600401613d77929190615884565b6040805180830381865afa158015613d93573d6000803e3d6000fd5b505050506040513d601f19601f82011682018060405250810190613db79190615be0565b915091506000606760008973ffffffffffffffffffffffffffffffffffffffff1673ffffffffffffffffffffffffffffffffffffffff1681526020019081526020016000208781548110613e0e57613e0d615475565b5b906000526020600020906002020160405180604001604052908160008201548152602001600182015481525050905082816000015114613e8b578060000151836040517f753c4c22000000000000000000000000000000000000000000000000000000008152600401613e82929190614d44565b60405180910390fd5b81816020015114613ed9578060200151826040517f8acd9503000000000000000000000000000000000000000000000000000000008152600401613ed0929190614d44565b60405180910390fd5b8060000151816020015194509450505050935093915050565b6000606560009054906101000a900473ffffffffffffffffffffffffffffffffffffffff1673ffffffffffffffffffffffffffffffffffffffff1663dcf0aaed604051602001613f4190615c6c565b604051602081830303815290604052805190602001206040518263ffffffff1660e01b8152600401613f739190614ce9565b602060405180830381865afa158015613f90573d6000803e3d6000fd5b505050506040513d601f19601f82011682018060405250810190613fb49190615ac0565b905090565b6000818310613fc85781613fca565b825b905092915050565b6000613fdc6142fc565b905060008173ffffffffffffffffffffffffffffffffffffffff16639b95975f8a306040518363ffffffff1660e01b815260040161401b9291906158ad565b602060405180830381865afa158015614038573d6000803e3d6000fd5b505050506040513d601f19601f8201168201806040525081019061405c9190615587565b9050600061406a8983613fb9565b9050600081111561413d578273ffffffffffffffffffffffffffffffffffffffff16639dfb60818b838b8b896040518663ffffffff1660e01b81526004016140b6959493929190615c81565b6020604051808303816000875af11580156140d5573d6000803e3d6000fd5b505050506040513d601f19601f820116820180604052508101906140f99190615650565b61413c5789896040517f88f72d99000000000000000000000000000000000000000000000000000000008152600401614133929190615884565b60405180910390fd5b5b6000818a61414b91906155b4565b9050600081141561415f57505050506142f3565b60008473ffffffffffffffffffffffffffffffffffffffff1663d3e242a48d306040518363ffffffff1660e01b815260040161419c9291906158ad565b602060405180830381865afa1580156141b9573d6000803e3d6000fd5b505050506040513d601f19601f820116820180604052508101906141dd9190615587565b905081811015614226578b8b6040517fc7b2786700000000000000000000000000000000000000000000000000000000815260040161421d929190615884565b60405180910390fd5b8473ffffffffffffffffffffffffffffffffffffffff16636e1984758d848b8b8b6040518663ffffffff1660e01b8152600401614267959493929190615c81565b6020604051808303816000875af1158015614286573d6000803e3d6000fd5b505050506040513d601f19601f820116820180604052508101906142aa9190615650565b6142ed578b8b6040517f21ffa8e90000000000000000000000000000000000000000000000000000000081526004016142e4929190615884565b60405180910390fd5b50505050505b50505050505050565b6000606560009054906101000a900473ffffffffffffffffffffffffffffffffffffffff1673ffffffffffffffffffffffffffffffffffffffff1663dcf0aaed60405160200161434b90615d20565b604051602081830303815290604052805190602001206040518263ffffffff1660e01b815260040161437d9190614ce9565b602060405180830381865afa15801561439a573d6000803e3d6000fd5b505050506040513d601f19601f820116820180604052508101906143be9190615ac0565b905090565b60006143ce3061337c565b15905090565b600060019054906101000a900460ff16614423576040517f08c379a000000000000000000000000000000000000000000000000000000000815260040161441a90615da7565b60405180910390fd5b600073ffffffffffffffffffffffffffffffffffffffff168173ffffffffffffffffffffffffffffffffffffffff1614156144a05761ce10606560006101000a81548173ffffffffffffffffffffffffffffffffffffffff021916908373ffffffffffffffffffffffffffffffffffffffff1602179055506144e2565b80606560006101000a81548173ffffffffffffffffffffffffffffffffffffffff021916908373ffffffffffffffffffffffffffffffffffffffff1602179055505b50565b600060019054906101000a900460ff16614534576040517f08c379a000000000000000000000000000000000000000000000000000000000815260040161452b90615da7565b60405180910390fd5b61453d81614607565b50565b6000606560009054906101000a900473ffffffffffffffffffffffffffffffffffffffff1673ffffffffffffffffffffffffffffffffffffffff1663dcf0aaed60405160200161458f90615e13565b604051602081830303815290604052805190602001206040518263ffffffff1660e01b81526004016145c19190614ce9565b602060405180830381865afa1580156145de573d6000803e3d6000fd5b505050506040513d601f19601f820116820180604052508101906146029190615ac0565b905090565b600073ffffffffffffffffffffffffffffffffffffffff168173ffffffffffffffffffffffffffffffffffffffff16141561466e576040517f0855380c00000000000000000000000000000000000000000000000000000000815260040160405180910390fd5b80606660006101000a81548173ffffffffffffffffffffffffffffffffffffffff021916908373ffffffffffffffffffffffffffffffffffffffff1602179055508073ffffffffffffffffffffffffffffffffffffffff167f60a0f5b9f9e81e98216071b85826681c796256fe3d1354ecb675580fba64fa6960405160405180910390a250565b6000819050919050565b6147088161483e565b614747576040517f08c379a000000000000000000000000000000000000000000000000000000000815260040161473e90615e9a565b60405180910390fd5b806147747f360894a13ba1a3210667c828492db98dca3e2076cc3735a920a3ca505d382bbc60001b6146f5565b60000160006101000a81548173ffffffffffffffffffffffffffffffffffffffff021916908373ffffffffffffffffffffffffffffffffffffffff16021790555050565b60606147dd838360405180606001604052806027815260200161604460279139614851565b905092915050565b6000819050919050565b6147f8816146ff565b8073ffffffffffffffffffffffffffffffffffffffff167fbc7cd75a20ee27fd9adebab32041f755214dbc6bffa90cc0225b39da2e5c2d3b60405160405180910390a250565b600080823b905060008111915050919050565b606061485c8461483e565b61489b576040517f08c379a000000000000000000000000000000000000000000000000000000000815260040161489290615f2c565b60405180910390fd5b6000808573ffffffffffffffffffffffffffffffffffffffff16856040516148c39190615fc6565b600060405180830381855af49150503d80600081146148fe576040519150601f19603f3d011682016040523d82523d6000602084013e614903565b606091505b509150915061491382828661491e565b925050509392505050565b6060831561492e5782905061497e565b6000835111156149415782518084602001fd5b816040517f08c379a00000000000000000000000000000000000000000000000000000000081526004016149759190616021565b60405180910390fd5b9392505050565b6000604051905090565b600080fd5b600080fd5b600080fd5b600080fd5b600080fd5b60008083601f8401126149be576149bd614999565b5b8235905067ffffffffffffffff8111156149db576149da61499e565b5b6020830191508360208202830111156149f7576149f66149a3565b5b9250929050565b60008083601f840112614a1457614a13614999565b5b8235905067ffffffffffffffff811115614a3157614a3061499e565b5b602083019150836020820283011115614a4d57614a4c6149a3565b5b9250929050565b60008060008060408587031215614a6e57614a6d61498f565b5b600085013567ffffffffffffffff811115614a8c57614a8b614994565b5b614a98878288016149a8565b9450945050602085013567ffffffffffffffff811115614abb57614aba614994565b5b614ac7878288016149fe565b925092505092959194509250565b6000819050919050565b614ae881614ad5565b82525050565b6000602082019050614b036000830184614adf565b92915050565b600073ffffffffffffffffffffffffffffffffffffffff82169050919050565b6000614b3482614b09565b9050919050565b614b4481614b29565b8114614b4f57600080fd5b50565b600081359050614b6181614b3b565b92915050565b600060208284031215614b7d57614b7c61498f565b5b6000614b8b84828501614b52565b91505092915050565b614b9d81614ad5565b8114614ba857600080fd5b50565b600081359050614bba81614b94565b92915050565b600080600080600060a08688031215614bdc57614bdb61498f565b5b6000614bea88828901614bab565b9550506020614bfb88828901614bab565b9450506040614c0c88828901614bab565b9350506060614c1d88828901614bab565b9250506080614c2e88828901614bab565b9150509295509295909350565b600080600080600060608688031215614c5757614c5661498f565b5b6000614c6588828901614b52565b955050602086013567ffffffffffffffff811115614c8657614c85614994565b5b614c92888289016149a8565b9450945050604086013567ffffffffffffffff811115614cb557614cb4614994565b5b614cc1888289016149fe565b92509250509295509295909350565b6000819050919050565b614ce381614cd0565b82525050565b6000602082019050614cfe6000830184614cda565b92915050565b60008060408385031215614d1b57614d1a61498f565b5b6000614d2985828601614b52565b9250506020614d3a85828601614bab565b9150509250929050565b6000604082019050614d596000830185614adf565b614d666020830184614adf565b9392505050565b614d7681614b29565b82525050565b6000602082019050614d916000830184614d6d565b92915050565b600080fd5b6000601f19601f8301169050919050565b7f4e487b7100000000000000000000000000000000000000000000000000000000600052604160045260246000fd5b614de582614d9c565b810181811067ffffffffffffffff82111715614e0457614e03614dad565b5b80604052505050565b6000614e17614985565b9050614e238282614ddc565b919050565b600067ffffffffffffffff821115614e4357614e42614dad565b5b614e4c82614d9c565b9050602081019050919050565b82818337600083830152505050565b6000614e7b614e7684614e28565b614e0d565b905082815260208101848484011115614e9757614e96614d97565b5b614ea2848285614e59565b509392505050565b600082601f830112614ebf57614ebe614999565b5b8135614ecf848260208601614e68565b91505092915050565b60008060408385031215614eef57614eee61498f565b5b6000614efd85828601614b52565b925050602083013567ffffffffffffffff811115614f1e57614f1d614994565b5b614f2a85828601614eaa565b9150509250929050565b6000608082019050614f496000830187614adf565b614f566020830186614adf565b614f636040830185614adf565b614f706060830184614adf565b95945050505050565b6000819050919050565b6000614f9e614f99614f9484614b09565b614f79565b614b09565b9050919050565b6000614fb082614f83565b9050919050565b6000614fc282614fa5565b9050919050565b614fd281614fb7565b82525050565b6000602082019050614fed6000830184614fc9565b92915050565b60008060006060848603121561500c5761500b61498f565b5b600061501a86828701614b52565b935050602061502b86828701614bab565b925050604061503c86828701614bab565b9150509250925092565b60008060008060008060c087890312156150635761506261498f565b5b600061507189828a01614b52565b965050602061508289828a01614b52565b955050604061509389828a01614b52565b94505060606150a489828a01614b52565b93505060806150b589828a01614b52565b92505060a06150c689828a01614bab565b9150509295509295509295565b600080600080600080600060e0888a0312156150f2576150f161498f565b5b60006151008a828b01614b52565b97505060206151118a828b01614b52565b96505060406151228a828b01614b52565b95505060606151338a828b01614b52565b94505060806151448a828b01614b52565b93505060a06151558a828b01614b52565b92505060c06151668a828b01614bab565b91505092959891949750929550565b60008115159050919050565b61518a81615175565b82525050565b60006020820190506151a56000830184615181565b92915050565b6000806000606084860312156151c4576151c361498f565b5b60006151d286828701614b52565b93505060206151e386828701614b52565b92505060406151f486828701614b52565b9150509250925092565b600080604083850312156152155761521461498f565b5b600061522385828601614b52565b925050602061523485828601614b52565b9150509250929050565b61524781615175565b811461525257600080fd5b50565b6000813590506152648161523e565b92915050565b6000602082840312156152805761527f61498f565b5b600061528e84828501615255565b91505092915050565b600081519050919050565b600082825260208201905092915050565b6000819050602082019050919050565b6152cc81614ad5565b82525050565b60006152de83836152c3565b60208301905092915050565b6000602082019050919050565b600061530282615297565b61530c81856152a2565b9350615317836152b3565b8060005b8381101561534857815161532f88826152d2565b975061533a836152ea565b92505060018101905061531b565b5085935050505092915050565b6000604082019050818103600083015261536f81856152f7565b9050818103602083015261538381846152f7565b90509392505050565b6000806000806000806000806080898b0312156153ac576153ab61498f565b5b600089013567ffffffffffffffff8111156153ca576153c9614994565b5b6153d68b828c016149a8565b9850985050602089013567ffffffffffffffff8111156153f9576153f8614994565b5b6154058b828c016149fe565b9650965050604089013567ffffffffffffffff81111561542857615427614994565b5b6154348b828c016149a8565b9450945050606089013567ffffffffffffffff81111561545757615456614994565b5b6154638b828c016149fe565b92509250509295985092959890939650565b7f4e487b7100000000000000000000000000000000000000000000000000000000600052603260045260246000fd5b7f4e487b7100000000000000000000000000000000000000000000000000000000600052601160045260246000fd5b60006154de82614ad5565b91506154e983614ad5565b9250827fffffffffffffffffffffffffffffffffffffffffffffffffffffffffffffffff0382111561551e5761551d6154a4565b5b828201905092915050565b600061553482614ad5565b91507fffffffffffffffffffffffffffffffffffffffffffffffffffffffffffffffff821415615567576155666154a4565b5b600182019050919050565b60008151905061558181614b94565b92915050565b60006020828403121561559d5761559c61498f565b5b60006155ab84828501615572565b91505092915050565b60006155bf82614ad5565b91506155ca83614ad5565b9250828210156155dd576155dc6154a4565b5b828203905092915050565b600060a0820190506155fd6000830188614adf565b61560a6020830187614adf565b6156176040830186614adf565b6156246060830185614adf565b6156316080830184614adf565b9695505050505050565b60008151905061564a8161523e565b92915050565b6000602082840312156156665761566561498f565b5b60006156748482850161563b565b91505092915050565b60006060820190506156926000830186614d6d565b61569f6020830185614adf565b6156ac6040830184614adf565b949350505050565b600082825260208201905092915050565b7f46756e6374696f6e206d7573742062652063616c6c6564207468726f7567682060008201527f64656c656761746563616c6c0000000000000000000000000000000000000000602082015250565b6000615721602c836156b4565b915061572c826156c5565b604082019050919050565b6000602082019050818103600083015261575081615714565b9050919050565b7f46756e6374696f6e206d7573742062652063616c6c6564207468726f7567682060008201527f6163746976652070726f78790000000000000000000000000000000000000000602082015250565b60006157b3602c836156b4565b91506157be82615757565b604082019050919050565b600060208201905081810360008301526157e2816157a6565b9050919050565b7f4f776e61626c653a2063616c6c6572206973206e6f7420746865206f776e6572600082015250565b600061581f6020836156b4565b915061582a826157e9565b602082019050919050565b6000602082019050818103600083015261584e81615812565b9050919050565b7f4e487b7100000000000000000000000000000000000000000000000000000000600052603160045260246000fd5b60006040820190506158996000830185614d6d565b6158a66020830184614adf565b9392505050565b60006040820190506158c26000830185614d6d565b6158cf6020830184614d6d565b9392505050565b7f496e697469616c697a61626c653a20636f6e747261637420697320616c72656160008201527f647920696e697469616c697a6564000000000000000000000000000000000000602082015250565b6000615932602e836156b4565b915061593d826158d6565b604082019050919050565b6000602082019050818103600083015261596181615925565b9050919050565b600060808201905061597d6000830187614d6d565b61598a6020830186614adf565b6159976040830185614d6d565b6159a46060830184614d6d565b95945050505050565b7f4f776e61626c653a206e6577206f776e657220697320746865207a65726f206160008201527f6464726573730000000000000000000000000000000000000000000000000000602082015250565b6000615a096026836156b4565b9150615a14826159ad565b604082019050919050565b60006020820190508181036000830152615a38816159fc565b9050919050565b600081905092915050565b7f4c6f636b6564476f6c6400000000000000000000000000000000000000000000600082015250565b6000615a80600a83615a3f565b9150615a8b82615a4a565b600a82019050919050565b6000615aa182615a73565b9150819050919050565b600081519050615aba81614b3b565b92915050565b600060208284031215615ad657615ad561498f565b5b6000615ae484828501615aab565b91505092915050565b7f476f7665726e616e636500000000000000000000000000000000000000000000600082015250565b6000615b23600a83615a3f565b9150615b2e82615aed565b600a82019050919050565b6000615b4482615b16565b9150819050919050565b7f45524331393637557067726164653a207570677261646520627265616b73206660008201527f7572746865722075706772616465730000000000000000000000000000000000602082015250565b6000615baa602f836156b4565b9150615bb582615b4e565b604082019050919050565b60006020820190508181036000830152615bd981615b9d565b9050919050565b60008060408385031215615bf757615bf661498f565b5b6000615c0585828601615572565b9250506020615c1685828601615572565b9150509250929050565b7f476f6c64546f6b656e0000000000000000000000000000000000000000000000600082015250565b6000615c56600983615a3f565b9150615c6182615c20565b600982019050919050565b6000615c7782615c49565b9150819050919050565b600060a082019050615c966000830188614d6d565b615ca36020830187614adf565b615cb06040830186614d6d565b615cbd6060830185614d6d565b615cca6080830184614adf565b9695505050505050565b7f456c656374696f6e000000000000000000000000000000000000000000000000600082015250565b6000615d0a600883615a3f565b9150615d1582615cd4565b600882019050919050565b6000615d2b82615cfd565b9150819050919050565b7f496e697469616c697a61626c653a20636f6e7472616374206973206e6f74206960008201527f6e697469616c697a696e67000000000000000000000000000000000000000000602082015250565b6000615d91602b836156b4565b9150615d9c82615d35565b604082019050919050565b60006020820190508181036000830152615dc081615d84565b9050919050565b7f4163636f756e7473000000000000000000000000000000000000000000000000600082015250565b6000615dfd600883615a3f565b9150615e0882615dc7565b600882019050919050565b6000615e1e82615df0565b9150819050919050565b7f455243313936373a206e657720696d706c656d656e746174696f6e206973206e60008201527f6f74206120636f6e747261637400000000000000000000000000000000000000602082015250565b6000615e84602d836156b4565b9150615e8f82615e28565b604082019050919050565b60006020820190508181036000830152615eb381615e77565b9050919050565b7f416464726573733a2064656c65676174652063616c6c20746f206e6f6e2d636f60008201527f6e74726163740000000000000000000000000000000000000000000000000000602082015250565b6000615f166026836156b4565b9150615f2182615eba565b604082019050919050565b60006020820190508181036000830152615f4581615f09565b9050919050565b600081519050919050565b600081905092915050565b60005b83811015615f80578082015181840152602081019050615f65565b83811115615f8f576000848401525b50505050565b6000615fa082615f4c565b615faa8185615f57565b9350615fba818560208601615f62565b80840191505092915050565b6000615fd28284615f95565b915081905092915050565b600081519050919050565b6000615ff382615fdd565b615ffd81856156b4565b935061600d818560208601615f62565b61601681614d9c565b840191505092915050565b6000602082019050818103600083015261603b8184615fe8565b90509291505056fe416464726573733a206c6f772d6c6576656c2064656c65676174652063616c6c206661696c6564a2646970667358221220603d8c409e06f41efa2a33e0b9bd5e697713b9f13abbd824cf42c9ef6138797b64736f6c634300080b0033",
  "devdoc": {
    "errors": {
      "CallerNotManager(address)": [
        {
          "params": {
            "caller": "`msg.sender` that called the function."
          }
        }
      ],
      "TotalVotesMismatch(uint256,uint256)": [
        {
          "params": {
            "expectedValue": "The expected sum of votes for groups.",
            "sentValue": "The `msg.value` of the call."
          }
        }
      ],
      "WithdrawalAmountTooHigh(address,uint256,uint256)": [
        {
          "params": {
            "celoAvailable": "CELO available to the group across scheduled, pending and active votes.",
            "celoToWindraw": "total amount of CELO that would be scheduled to be withdrawn.",
            "group": "The offending group."
          }
        }
      ]
    },
    "events": {
      "CeloWithdrawalFinished(address,uint256,uint256)": {
        "params": {
          "amount": "The amount of CELO requested for withdrawal.",
          "beneficiary": "The user for whom the withdrawal amount is intended.",
          "timestamp": "The timestamp of the pending withdrawal."
        }
      },
      "CeloWithdrawalScheduled(address,address,uint256)": {
        "params": {
          "beneficiary": "The user for whom the withdrawal amount is intended for.",
          "group": "The validator group the CELO is withdrawn from.",
          "withdrawalAmount": "The amount of CELO requested for withdrawal."
        }
      },
      "CeloWithdrawalStarted(address,address,uint256)": {
        "params": {
          "beneficiary": "The user for whom the withdrawal amount is intended for.",
          "group": "The validator group the CELO is withdrawn from.",
          "withdrawalAmount": "The amount of CELO requested for withdrawal."
        }
      },
      "RevocationScheduled(address,uint256)": {
        "params": {
          "amount": "The amount of CELO scheduled.",
          "group": "The validator group the CELO is being revoked from."
        }
      },
      "VotesScheduled(address,uint256)": {
        "params": {
          "amount": "The amount of CELO scheduled.",
          "group": "The validator group the CELO is intended to vote for."
        }
      }
    },
    "kind": "dev",
    "methods": {
      "activateAndVote(address,address,address)": {
        "details": "Callable by anyone. In practice, this is expected to be called near the end of each epoch by an off-chain agent.",
        "params": {
          "group": "The group to activate pending votes for and lock & vote any unlocked CELO for.",
          "voteGreater": "Used by Election's `vote`. This is the group that will recieve greater votes than group after the votes are cast, or address(0) if no such group exists.",
          "voteLesser": "Used by Election's `vote`. This is the group that will recieve fewer votes than group after the votes are cast, or address(0) if no such group exists."
        }
      },
      "finishPendingWithdrawal(address,uint256,uint256)": {
        "details": "Callable by anyone, but ultimatly the withdrawal goes to `beneficiary`. The pending withdrawal info found in both StakedCeloGroupVoter and LockedGold must match to ensure that the beneficiary is claiming the appropriate pending withdrawal.",
        "params": {
          "beneficiary": "The account that owns the pending withdrawal being processed.",
          "localPendingWithdrawalIndex": "The index of the pending withdrawal to finish in pendingWithdrawals[beneficiary] array.",
          "lockedGoldPendingWithdrawalIndex": "The index of the pending withdrawal to finish in LockedGold."
        },
        "returns": {
          "amount": "The amount of CELO sent to `beneficiary`."
        }
      },
      "getCeloForGroup(address)": {
        "params": {
          "group": "The address of the validator group."
        },
        "returns": {
          "_0": "The total amount of CELO directed towards `group`."
        }
      },
      "getNumberPendingWithdrawals(address)": {
        "params": {
          "beneficiary": "The address of the beneficiary who initiated the pending withdrawal."
        },
        "returns": {
          "_0": "The numbers of pending withdrawals for `beneficiary`"
        }
      },
      "getPendingWithdrawal(address,uint256)": {
        "params": {
          "beneficiary": "The address of the beneficiary who initiated the pending withdrawal.",
          "index": "The index in `beneficiary`'s pendingWithdrawals array."
        },
        "returns": {
          "timestamp": "The timestamp of the pending withdrawal.",
          "value": "The values of the pending withdrawal."
        }
      },
      "getPendingWithdrawals(address)": {
        "params": {
          "beneficiary": "The address of the beneficiary who initiated the pending withdrawal."
        },
        "returns": {
          "timestamps": "The timestamps of pending withdrawals.",
          "values": "The values of pending withdrawals."
        }
      },
      "getTotalCelo()": {
        "returns": {
          "_0": "The total amount of CELO this contract controls, including LockedGold."
        }
      },
      "getVersionNumber()": {
        "returns": {
          "_0": "Storage version of the contract.",
          "_1": "Major version of the contract.",
          "_2": "Minor version of the contract.",
          "_3": "Patch version of the contract."
        }
      },
      "initialize(address,address,address)": {
        "params": {
          "_manager": "The address of the Manager contract.",
          "_owner": "The address of the contract owner.",
          "_registry": "The address of the Celo Registry."
        }
      },
      "isPaused()": {
        "returns": {
          "_0": "`true` if the contract is paused, `false` otherwise."
        }
      },
      "owner()": {
        "details": "Returns the address of the current owner."
      },
      "renounceOwnership()": {
        "details": "Leaves the contract without owner. It will not be possible to call `onlyOwner` functions anymore. Can only be called by the current owner. NOTE: Renouncing ownership will leave the contract without an owner, thereby removing any functionality that is only available to the owner."
      },
      "revokeVotes(address,address,address,address,address,uint256)": {
        "details": "Reverts if `revokeAmount` exceeds the total number of pending and active votes for the group from this contract.",
        "params": {
          "greaterAfterActiveRevoke": "Used by Election's `revokeActive`. This is the group that is after `group` within the validators sorted LinkedList, or address(0) if there isn't one, after the revoke of active votes has occurred.",
          "greaterAfterPendingRevoke": "Used by Election's `revokePending`. This is the group that is after `group` within the validators sorted LinkedList, or address(0) if there isn't one, after the revoke of pending votes has occurred.",
          "group": "The group to revoke CELO from.",
          "index": "Used by Election's `revokePending` and `revokeActive`. This is the index of `group` in the this contract's array of groups it is voting for.",
          "lesserAfterActiveRevoke": "Used by Election's `revokeActive`. This is the group that is before `group` within the validators sorted LinkedList, or address(0) if there isn't one, after the revoke of active votes has occurred.",
          "lesserAfterPendingRevoke": "Used by Election's `revokePending`. This is the group that is before `group` within the validators sorted LinkedList, or address(0) if there isn't one, after the revoke of pending votes has occurred."
        }
      },
      "scheduleTransfer(address[],uint256[],address[],uint256[])": {
        "details": "Only callable by the Manager contract, which must restrict which groups are valid.",
        "params": {
          "fromGroups": "The groups the deposited CELO is intended to be revoked from.",
          "fromVotes": "The amount of CELO scheduled to be revoked from each respective group.",
          "toGroups": "The groups the transferred CELO is intended to vote for.",
          "toVotes": "The amount of CELO to schedule for each respective group from `toGroups`."
        }
      },
      "scheduleVotes(address[],uint256[])": {
        "details": "Only callable by the Manager contract, which must restrict which groups gets CELO distribution.",
        "params": {
          "groups": "The groups the deposited CELO is intended to vote for.",
          "votes": "The amount of CELO to schedule for each respective group from `groups`."
        }
      },
      "scheduleWithdrawals(address,address[],uint256[])": {
        "params": {
          "beneficiary": "The account that will receive the CELO once it's withdrawn. from `groups`.",
          "groups": "The groups the deposited CELO is intended to be withdrawn from.",
          "withdrawals": "The amount of CELO to withdraw for each respective group."
        }
      },
      "scheduledRevokeForGroup(address)": {
        "params": {
          "group": "The address of the validator group."
        },
        "returns": {
          "_0": "The total amount of CELO scheduled to be revoked from `group`."
        }
      },
      "scheduledVotesForGroup(address)": {
        "params": {
          "group": "The address of the validator group."
        },
        "returns": {
          "_0": "The total amount of CELO directed towards `group`."
        }
      },
      "scheduledWithdrawalsForGroup(address)": {
        "params": {
          "group": "The address of the validator group."
        },
        "returns": {
          "_0": "The total amount of CELO to be withdrawn for `group`."
        }
      },
      "scheduledWithdrawalsForGroupAndBeneficiary(address,address)": {
        "params": {
          "beneficiary": "The beneficiary of the withdrawal.",
          "group": "The address of the validator group."
        },
        "returns": {
          "_0": "The total amount of CELO to be withdrawn for `group` by `beneficiary`."
        }
      },
      "setAllowedToVoteOverMaxNumberOfGroups(bool)": {
        "params": {
          "flag": "The on/off flag."
        }
      },
      "setManager(address)": {
        "params": {
          "_manager": "The new manager address."
        }
      },
      "transferOwnership(address)": {
        "details": "Transfers ownership of the contract to a new account (`newOwner`). Can only be called by the current owner."
      },
      "upgradeTo(address)": {
        "details": "Upgrade the implementation of the proxy to `newImplementation`. Calls {_authorizeUpgrade}. Emits an {Upgraded} event."
      },
      "upgradeToAndCall(address,bytes)": {
        "details": "Upgrade the implementation of the proxy to `newImplementation`, and subsequently execute the function call encoded in `data`. Calls {_authorizeUpgrade}. Emits an {Upgraded} event."
      },
      "votePartially(uint256,uint256,uint256,uint256,uint256)": {
        "params": {
          "abstainVotes": "The abstain votes weight.",
          "index": "The index of the proposal ID in `dequeued`.",
          "noVotes": "The no votes weight.",
          "proposalId": "The ID of the proposal to vote on.",
          "yesVotes": "The yes votes weight."
        }
      },
      "votesForGroup(address)": {
        "params": {
          "group": "The address of the validator group."
        },
        "returns": {
          "_0": "The total amount of CELO voted with for `group`."
        }
      },
      "withdraw(address,address,address,address,address,address,uint256)": {
        "params": {
          "beneficiary": "The recipient of the withdrawn CELO.",
          "greaterAfterActiveRevoke": "Used by Election's `revokeActive`. This is the group that is after `group` within the validators sorted LinkedList, or address(0) if there isn't one, after the revoke of active votes has occurred.",
          "greaterAfterPendingRevoke": "Used by Election's `revokePending`. This is the group that is after `group` within the validators sorted LinkedList, or address(0) if there isn't one, after the revoke of pending votes has occurred.",
          "group": "The group to withdraw CELO from.",
          "index": "Used by Election's `revokePending` and `revokeActive`. This is the index of `group` in this contract's array of groups it is voting for.",
          "lesserAfterActiveRevoke": "Used by Election's `revokeActive`. This is the group that is before `group` within the validators sorted LinkedList, or address(0) if there isn't one, after the revoke of active votes has occurred.",
          "lesserAfterPendingRevoke": "Used by Election's `revokePending`. This is the group that is before `group` within the validators sorted LinkedList, or address(0) if there isn't one, after the revoke of pending votes has occurred."
        },
        "returns": {
          "_0": "The amount of immediately withdrawn CELO that is obtained from scheduledVotes for `group`."
        }
      }
    },
    "title": "A contract that facilitates voting on behalf of StakedCelo.sol.",
    "version": 1
  },
  "userdoc": {
    "errors": {
      "AccountCreationFailed()": [
        {
          "notice": "Used when the creation of an account with Accounts.sol fails."
        }
      ],
      "ActivatePendingVotesFailed(address)": [
        {
          "notice": "Used when activating of pending votes via Election has failed."
        }
      ],
      "AddressZeroNotAllowed()": [
        {
          "notice": "Used when attempting to pass in address zero where not allowed."
        }
      ],
      "CallerNotManager(address)": [
        {
          "notice": "Used when an `onlyManager` function is called by a non-manager."
        }
      ],
      "CeloTransferFailed(address,uint256)": [
        {
          "notice": "Used when unable to transfer CELO."
        }
      ],
      "GroupsAndVotesArrayLengthsMismatch()": [
        {
          "notice": "Used when arrays passed for scheduling votes don't have matching lengths."
        }
      ],
      "InconsistentPendingWithdrawalTimestamps(uint256,uint256)": [
        {
          "notice": "Used when any of the resolved stakedCeloGroupVoter.pendingWithdrawal timestamps do not match the equivalent record in lockedGold.pendingWithdrawals."
        }
      ],
      "InconsistentPendingWithdrawalValues(uint256,uint256)": [
        {
          "notice": "Used when any of the resolved stakedCeloGroupVoter.pendingWithdrawal values do not match the equivalent record in lockedGold.pendingWithdrawals."
        }
      ],
      "InsufficientRevokableVotes(address,uint256)": [
        {
          "notice": "Used when active + pending votes amount is unable to fulfil a withdrawal request amount."
        }
      ],
      "NoScheduledWithdrawal(address,address)": [
        {
          "notice": "There's no amount of scheduled withdrawal for the given beneficiary and group."
        }
      ],
      "OnlyPauser()": [
        {
          "notice": "Used when an `onlyPauser` function is called with a different address."
        }
      ],
      "Paused()": [
        {
          "notice": "Used when an `onlyWhenNotPaused` function is called while the contract is paused."
        }
      ],
      "PendingWithdrawalIndexTooHigh(uint256,uint256)": [
        {
          "notice": "Used when `pendingWithdrawalIndex` is too high for the beneficiary's pending withdrawals array."
        }
      ],
      "RevokeActiveFailed(address,uint256)": [
        {
          "notice": "Used when call to Election.sol's `revokeActiveVotes` fails."
        }
      ],
      "RevokePendingFailed(address,uint256)": [
        {
          "notice": "Used when call to Election.sol's `revokePendingVotes` fails."
        }
      ],
      "TotalVotesMismatch(uint256,uint256)": [
        {
          "notice": "Used when the sum of votes per groups during vote scheduling doesn't match the `msg.value` sent with the call."
        }
      ],
      "TransferAmountMisalignment()": [
        {
          "notice": "Scheduling transfer was not successfull since total amount of \"from\" and \"to\" are not the same."
        }
      ],
      "VoteFailed(address,uint256)": [
        {
          "notice": "Used when voting via Election has failed."
        }
      ],
      "VotingNotSuccessful(uint256)": [
        {
          "notice": "Voting for proposal was not successfull."
        }
      ],
      "WithdrawalAmountTooHigh(address,uint256,uint256)": [
        {
          "notice": "Used when attempting to schedule more withdrawals than CELO available to the contract."
        }
      ]
    },
    "events": {
      "CeloWithdrawalFinished(address,uint256,uint256)": {
        "notice": "Emitted when a CELO withdrawal completes for `beneficiary`."
      },
      "CeloWithdrawalScheduled(address,address,uint256)": {
        "notice": "Emitted when CELO withdrawal is scheduled for a group."
      },
      "CeloWithdrawalStarted(address,address,uint256)": {
        "notice": "Emitted when CELO withdrawal kicked off for group. Immediate withdrawals are not included in this event, but can be identified by a GoldToken.sol transfer from this contract."
      },
      "ContractPaused()": {
        "notice": "Emitted when this contract is paused."
      },
      "ContractUnpaused()": {
        "notice": "Emitted when this contract is unpaused."
      },
      "ManagerSet(address)": {
        "notice": "Emitted when the manager is initially set or later modified."
      },
      "PauserSet(address)": {
        "notice": "Emitted when the address authorized to pause/unpause the contract is changed."
      },
      "RevocationScheduled(address,uint256)": {
        "notice": "Emitted when CELO is scheduled to be revoked from a given group."
      },
      "VotesScheduled(address,uint256)": {
        "notice": "Emitted when CELO is scheduled for voting for a given group."
      }
    },
    "kind": "user",
    "methods": {
      "PAUSED_POSITION()": {
        "notice": "The storage slot under which we store a boolean representing whether or not the contract is currently paused."
      },
      "PAUSER_POSITION()": {
        "notice": "The storage slot under which we store an address representing the address permissioned to pause/unpause this contract."
      },
      "activateAndVote(address,address,address)": {
        "notice": "Activates any activatable pending votes for group, and locks & votes any unlocked CELO for group."
      },
      "constructor": {
        "notice": "Empty constructor for proxy implementation, `initializer` modifer ensures the implementation gets initialized."
      },
      "finishPendingWithdrawal(address,uint256,uint256)": {
        "notice": "Finishes a pending withdrawal created as a result of a `withdrawCelo` call, claiming CELO after the `unlockingPeriod` defined in LockedGold.sol."
      },
      "getCeloForGroup(address)": {
        "notice": "Returns the total amount of CELO directed towards `group`. This is the Unlocked CELO balance for `group` plus the combined amount in pending and active votes made by this contract."
      },
      "getNumberPendingWithdrawals(address)": {
        "notice": "Returns the number of pending withdrawals for a beneficiary."
      },
      "getPendingWithdrawal(address,uint256)": {
        "notice": "Returns a pending withdrawals for a beneficiary."
      },
      "getPendingWithdrawals(address)": {
        "notice": "Returns the pending withdrawals for a beneficiary."
      },
      "getTotalCelo()": {
        "notice": "Gets the total amount of CELO this contract controls. This is the unlocked CELO balance of the contract plus the amount of LockedGold for this contract, which included unvoting and voting LockedGold."
      },
      "getVersionNumber()": {
        "notice": "Returns the storage, major, minor, and patch version of the contract."
      },
      "isPaused()": {
        "notice": "Returns whether or not the contract is paused."
      },
      "pause()": {
        "notice": "Pauses the contract."
      },
      "pauser()": {
        "notice": "Returns the address permissioned to pause/unpause this contract."
      },
      "pendingWithdrawals(address,uint256)": {
        "notice": "Keyed by beneficiary address, the related array of pending withdrawals. See `PendingWithdrawal` for more info."
      },
      "registry()": {
        "notice": "The Registry."
      },
      "revokeVotes(address,address,address,address,address,uint256)": {
        "notice": "Revokes votes from a validator group. It first attempts to revoke pending votes, and then active votes if necessary."
      },
      "scheduleTransfer(address[],uint256[],address[],uint256[])": {
        "notice": "Schedules votes which will be revoked from some groups and voted to others."
      },
      "scheduleVotes(address[],uint256[])": {
        "notice": "Deposits CELO sent via msg.value as unlocked CELO intended as votes for groups."
      },
      "scheduleWithdrawals(address,address[],uint256[])": {
        "notice": "Schedule a list of withdrawals to be refunded to a beneficiary."
      },
      "scheduledRevokeForGroup(address)": {
        "notice": "Returns the total amount of CELO that's scheduled to be revoked for a group."
      },
      "scheduledVotesForGroup(address)": {
        "notice": "Returns the total amount of CELO that's scheduled to vote for a group."
      },
      "scheduledWithdrawalsForGroup(address)": {
        "notice": "Returns the total amount of CELO that's scheduled to be withdrawn for a group."
      },
      "scheduledWithdrawalsForGroupAndBeneficiary(address,address)": {
        "notice": "Returns the total amount of CELO that's scheduled to be withdrawn for a group scoped by a beneficiary."
      },
      "setAllowedToVoteOverMaxNumberOfGroups(bool)": {
        "notice": "Turns on/off voting for more then max number of groups."
      },
      "setManager(address)": {
        "notice": "Sets the manager address."
      },
      "setPauser()": {
        "notice": "Sets that address permissioned to pause/unpause this contract to the owner of this contract."
      },
      "totalScheduledWithdrawals()": {
        "notice": "Total amount of CELO scheduled to be withdrawn from all groups by all beneficiaries."
      },
      "unpause()": {
        "notice": "Unpauses the contract."
      },
      "votePartially(uint256,uint256,uint256,uint256,uint256)": {
        "notice": "Votes on a proposal in the referendum stage."
      },
      "votesForGroup(address)": {
        "notice": "Returns the total amount of CELO that's voted with for a group."
      },
      "withdraw(address,address,address,address,address,address,uint256)": {
        "notice": "Starts withdrawal of CELO from `group`. If there is any unlocked CELO for the group, that CELO is used for immediate withdrawal. Otherwise, CELO is taken from pending and active votes, which are subject to the unlock period of LockedGold.sol."
      }
    },
    "notice": "This contract depends on the Manager to decide how to distribute votes and how to keep track of ownership of CELO voted via this contract.",
    "version": 1
  },
  "storageLayout": {
    "storage": [
      {
        "astId": 130,
        "contract": "contracts/Account.sol:Account",
        "label": "_initialized",
        "offset": 0,
        "slot": "0",
        "type": "t_bool"
      },
      {
        "astId": 133,
        "contract": "contracts/Account.sol:Account",
        "label": "_initializing",
        "offset": 1,
        "slot": "0",
        "type": "t_bool"
      },
      {
        "astId": 584,
        "contract": "contracts/Account.sol:Account",
        "label": "__gap",
        "offset": 0,
        "slot": "1",
        "type": "t_array(t_uint256)50_storage"
      },
      {
        "astId": 10,
        "contract": "contracts/Account.sol:Account",
        "label": "_owner",
        "offset": 0,
        "slot": "51",
        "type": "t_address"
      },
      {
        "astId": 122,
        "contract": "contracts/Account.sol:Account",
        "label": "__gap",
        "offset": 0,
        "slot": "52",
        "type": "t_array(t_uint256)49_storage"
      },
      {
        "astId": 14709,
        "contract": "contracts/Account.sol:Account",
        "label": "registry",
        "offset": 0,
        "slot": "101",
        "type": "t_contract(IRegistry)17748"
      },
      {
        "astId": 7214,
        "contract": "contracts/Account.sol:Account",
        "label": "manager",
        "offset": 0,
        "slot": "102",
        "type": "t_address"
      },
      {
        "astId": 3586,
        "contract": "contracts/Account.sol:Account",
        "label": "pendingWithdrawals",
        "offset": 0,
        "slot": "103",
        "type": "t_mapping(t_address,t_array(t_struct(PendingWithdrawal)3568_storage)dyn_storage)"
      },
      {
        "astId": 3592,
        "contract": "contracts/Account.sol:Account",
        "label": "scheduledVotes",
        "offset": 0,
        "slot": "104",
        "type": "t_mapping(t_address,t_struct(ScheduledVotes)3579_storage)"
      },
      {
        "astId": 3595,
        "contract": "contracts/Account.sol:Account",
        "label": "totalScheduledWithdrawals",
        "offset": 0,
        "slot": "105",
        "type": "t_uint256"
      }
    ],
    "types": {
      "t_address": {
        "encoding": "inplace",
        "label": "address",
        "numberOfBytes": "20"
      },
      "t_array(t_struct(PendingWithdrawal)3568_storage)dyn_storage": {
        "base": "t_struct(PendingWithdrawal)3568_storage",
        "encoding": "dynamic_array",
        "label": "struct Account.PendingWithdrawal[]",
        "numberOfBytes": "32"
      },
      "t_array(t_uint256)49_storage": {
        "base": "t_uint256",
        "encoding": "inplace",
        "label": "uint256[49]",
        "numberOfBytes": "1568"
      },
      "t_array(t_uint256)50_storage": {
        "base": "t_uint256",
        "encoding": "inplace",
        "label": "uint256[50]",
        "numberOfBytes": "1600"
      },
      "t_bool": {
        "encoding": "inplace",
        "label": "bool",
        "numberOfBytes": "1"
      },
      "t_contract(IRegistry)17748": {
        "encoding": "inplace",
        "label": "contract IRegistry",
        "numberOfBytes": "20"
      },
      "t_mapping(t_address,t_array(t_struct(PendingWithdrawal)3568_storage)dyn_storage)": {
        "encoding": "mapping",
        "key": "t_address",
        "label": "mapping(address => struct Account.PendingWithdrawal[])",
        "numberOfBytes": "32",
        "value": "t_array(t_struct(PendingWithdrawal)3568_storage)dyn_storage"
      },
      "t_mapping(t_address,t_struct(ScheduledVotes)3579_storage)": {
        "encoding": "mapping",
        "key": "t_address",
        "label": "mapping(address => struct Account.ScheduledVotes)",
        "numberOfBytes": "32",
        "value": "t_struct(ScheduledVotes)3579_storage"
      },
      "t_mapping(t_address,t_uint256)": {
        "encoding": "mapping",
        "key": "t_address",
        "label": "mapping(address => uint256)",
        "numberOfBytes": "32",
        "value": "t_uint256"
      },
      "t_struct(PendingWithdrawal)3568_storage": {
        "encoding": "inplace",
        "label": "struct Account.PendingWithdrawal",
        "members": [
          {
            "astId": 3565,
            "contract": "contracts/Account.sol:Account",
            "label": "value",
            "offset": 0,
            "slot": "0",
            "type": "t_uint256"
          },
          {
            "astId": 3567,
            "contract": "contracts/Account.sol:Account",
            "label": "timestamp",
            "offset": 0,
            "slot": "1",
            "type": "t_uint256"
          }
        ],
        "numberOfBytes": "64"
      },
      "t_struct(ScheduledVotes)3579_storage": {
        "encoding": "inplace",
        "label": "struct Account.ScheduledVotes",
        "members": [
          {
            "astId": 3570,
            "contract": "contracts/Account.sol:Account",
            "label": "toVote",
            "offset": 0,
            "slot": "0",
            "type": "t_uint256"
          },
          {
            "astId": 3572,
            "contract": "contracts/Account.sol:Account",
            "label": "toWithdraw",
            "offset": 0,
            "slot": "1",
            "type": "t_uint256"
          },
          {
            "astId": 3576,
            "contract": "contracts/Account.sol:Account",
            "label": "toWithdrawFor",
            "offset": 0,
            "slot": "2",
            "type": "t_mapping(t_address,t_uint256)"
          },
          {
            "astId": 3578,
            "contract": "contracts/Account.sol:Account",
            "label": "toRevoke",
            "offset": 0,
            "slot": "3",
            "type": "t_uint256"
          }
        ],
        "numberOfBytes": "128"
      },
      "t_uint256": {
        "encoding": "inplace",
        "label": "uint256",
        "numberOfBytes": "32"
      }
    }
  }
}