{
  "address": "0xf0B67Ab98DD5725565cF96496B5eDA455622F7Ff",
  "abi": [
    {
      "inputs": [],
      "stateMutability": "nonpayable",
      "type": "constructor"
    },
    {
      "inputs": [],
      "name": "AddressZeroNotAllowed",
      "type": "error"
    },
    {
      "inputs": [
        {
          "internalType": "address",
          "name": "caller",
          "type": "address"
        }
      ],
      "name": "CallerNotManager",
      "type": "error"
    },
    {
      "inputs": [
        {
          "internalType": "address",
          "name": "caller",
          "type": "address"
        }
      ],
      "name": "CallerNotManagerNorStrategy",
      "type": "error"
    },
    {
      "inputs": [
        {
          "internalType": "address",
          "name": "group",
          "type": "address"
        }
      ],
      "name": "GroupAlreadyAdded",
      "type": "error"
    },
    {
      "inputs": [
        {
          "internalType": "address",
          "name": "group",
          "type": "address"
        }
      ],
      "name": "GroupNotActive",
      "type": "error"
    },
    {
      "inputs": [
        {
          "internalType": "address",
          "name": "group",
          "type": "address"
        }
      ],
      "name": "GroupNotEligible",
      "type": "error"
    },
    {
      "inputs": [
        {
          "internalType": "address",
          "name": "group",
          "type": "address"
        }
      ],
      "name": "HealthyGroup",
      "type": "error"
    },
    {
      "inputs": [
        {
          "internalType": "address",
          "name": "group",
          "type": "address"
        }
      ],
      "name": "InvalidFromGroup",
      "type": "error"
    },
    {
      "inputs": [
        {
          "internalType": "address",
          "name": "group",
          "type": "address"
        }
      ],
      "name": "InvalidToGroup",
      "type": "error"
    },
    {
      "inputs": [],
      "name": "NoActiveGroups",
      "type": "error"
    },
    {
      "inputs": [],
      "name": "NotAbleToDistributeVotes",
      "type": "error"
    },
    {
      "inputs": [],
      "name": "NotUnsortedGroup",
      "type": "error"
    },
    {
      "inputs": [],
      "name": "NullAddress",
      "type": "error"
    },
    {
      "inputs": [
        {
          "internalType": "address",
          "name": "group",
          "type": "address"
        },
        {
          "internalType": "uint256",
          "name": "actualCelo",
          "type": "uint256"
        },
        {
          "internalType": "uint256",
          "name": "expectedCelo",
          "type": "uint256"
        }
      ],
      "name": "RebalanceEnoughStCelo",
      "type": "error"
    },
    {
      "inputs": [
        {
          "internalType": "address",
          "name": "group",
          "type": "address"
        },
        {
          "internalType": "uint256",
          "name": "actualCelo",
          "type": "uint256"
        },
        {
          "internalType": "uint256",
          "name": "expectedCelo",
          "type": "uint256"
        }
      ],
      "name": "RebalanceNoExtraStCelo",
      "type": "error"
    },
    {
      "anonymous": false,
      "inputs": [
        {
          "indexed": false,
          "internalType": "address",
          "name": "previousAdmin",
          "type": "address"
        },
        {
          "indexed": false,
          "internalType": "address",
          "name": "newAdmin",
          "type": "address"
        }
      ],
      "name": "AdminChanged",
      "type": "event"
    },
    {
      "anonymous": false,
      "inputs": [
        {
          "indexed": true,
          "internalType": "address",
          "name": "beacon",
          "type": "address"
        }
      ],
      "name": "BeaconUpgraded",
      "type": "event"
    },
    {
      "anonymous": false,
      "inputs": [
        {
          "indexed": true,
          "internalType": "address",
          "name": "group",
          "type": "address"
        }
      ],
      "name": "GroupActivated",
      "type": "event"
    },
    {
      "anonymous": false,
      "inputs": [
        {
          "indexed": true,
          "internalType": "address",
          "name": "group",
          "type": "address"
        }
      ],
      "name": "GroupRemoved",
      "type": "event"
    },
    {
      "anonymous": false,
      "inputs": [
        {
          "indexed": true,
          "internalType": "address",
          "name": "manager",
          "type": "address"
        }
      ],
      "name": "ManagerSet",
      "type": "event"
    },
    {
      "anonymous": false,
      "inputs": [
        {
          "indexed": true,
          "internalType": "address",
          "name": "previousOwner",
          "type": "address"
        },
        {
          "indexed": true,
          "internalType": "address",
          "name": "newOwner",
          "type": "address"
        }
      ],
      "name": "OwnershipTransferred",
      "type": "event"
    },
    {
      "anonymous": false,
      "inputs": [
        {
          "indexed": false,
          "internalType": "bool",
          "name": "update",
          "type": "bool"
        }
      ],
      "name": "SortedFlagUpdated",
      "type": "event"
    },
    {
      "anonymous": false,
      "inputs": [
        {
          "indexed": true,
          "internalType": "address",
          "name": "implementation",
          "type": "address"
        }
      ],
      "name": "Upgraded",
      "type": "event"
    },
    {
      "inputs": [],
      "name": "account",
      "outputs": [
        {
          "internalType": "contract IAccount",
          "name": "",
          "type": "address"
        }
      ],
      "stateMutability": "view",
      "type": "function"
    },
    {
      "inputs": [
        {
          "internalType": "address",
          "name": "group",
          "type": "address"
        },
        {
          "internalType": "address",
          "name": "lesser",
          "type": "address"
        },
        {
          "internalType": "address",
          "name": "greater",
          "type": "address"
        }
      ],
      "name": "activateGroup",
      "outputs": [],
      "stateMutability": "nonpayable",
      "type": "function"
    },
    {
      "inputs": [
        {
          "internalType": "address",
          "name": "group",
          "type": "address"
        }
      ],
      "name": "deactivateGroup",
      "outputs": [],
      "stateMutability": "nonpayable",
      "type": "function"
    },
    {
      "inputs": [
        {
          "internalType": "address",
          "name": "group",
          "type": "address"
        }
      ],
      "name": "deactivateUnhealthyGroup",
      "outputs": [],
      "stateMutability": "nonpayable",
      "type": "function"
    },
    {
      "inputs": [
        {
          "internalType": "uint256",
          "name": "celoAmount",
          "type": "uint256"
        },
        {
          "internalType": "address",
          "name": "depositGroupToIgnore",
          "type": "address"
        }
      ],
      "name": "generateDepositVoteDistribution",
      "outputs": [
        {
          "internalType": "address[]",
          "name": "finalGroups",
          "type": "address[]"
        },
        {
          "internalType": "uint256[]",
          "name": "finalVotes",
          "type": "uint256[]"
        }
      ],
      "stateMutability": "nonpayable",
      "type": "function"
    },
    {
      "inputs": [
        {
          "internalType": "uint256",
          "name": "celoAmount",
          "type": "uint256"
        }
      ],
      "name": "generateWithdrawalVoteDistribution",
      "outputs": [
        {
          "internalType": "address[]",
          "name": "finalGroups",
          "type": "address[]"
        },
        {
          "internalType": "uint256[]",
          "name": "finalVotes",
          "type": "uint256[]"
        }
      ],
      "stateMutability": "nonpayable",
      "type": "function"
    },
    {
      "inputs": [
        {
          "internalType": "address",
          "name": "group",
          "type": "address"
        }
      ],
      "name": "getExpectedAndActualStCeloForGroup",
      "outputs": [
        {
          "internalType": "uint256",
          "name": "expectedStCelo",
          "type": "uint256"
        },
        {
          "internalType": "uint256",
          "name": "actualStCelo",
          "type": "uint256"
        }
      ],
      "stateMutability": "view",
      "type": "function"
    },
    {
      "inputs": [
        {
          "internalType": "address",
          "name": "group",
          "type": "address"
        }
      ],
      "name": "getGroupPreviousAndNext",
      "outputs": [
        {
          "internalType": "address",
          "name": "previousAddress",
          "type": "address"
        },
        {
          "internalType": "address",
          "name": "nextAddress",
          "type": "address"
        }
      ],
      "stateMutability": "view",
      "type": "function"
    },
    {
      "inputs": [],
      "name": "getGroupsHead",
      "outputs": [
        {
          "internalType": "address",
          "name": "head",
          "type": "address"
        },
        {
          "internalType": "address",
          "name": "previousAddress",
          "type": "address"
        }
      ],
      "stateMutability": "view",
      "type": "function"
    },
    {
      "inputs": [],
      "name": "getGroupsTail",
      "outputs": [
        {
          "internalType": "address",
          "name": "tail",
          "type": "address"
        },
        {
          "internalType": "address",
          "name": "nextAddress",
          "type": "address"
        }
      ],
      "stateMutability": "view",
      "type": "function"
    },
    {
      "inputs": [],
      "name": "getNumberOfGroups",
      "outputs": [
        {
          "internalType": "uint256",
          "name": "",
          "type": "uint256"
        }
      ],
      "stateMutability": "view",
      "type": "function"
    },
    {
      "inputs": [],
      "name": "getNumberOfUnsortedGroups",
      "outputs": [
        {
          "internalType": "uint256",
          "name": "",
          "type": "uint256"
        }
      ],
      "stateMutability": "view",
      "type": "function"
    },
    {
      "inputs": [
        {
          "internalType": "uint256",
          "name": "index",
          "type": "uint256"
        }
      ],
      "name": "getUnsortedGroupAt",
      "outputs": [
        {
          "internalType": "address",
          "name": "",
          "type": "address"
        }
      ],
      "stateMutability": "view",
      "type": "function"
    },
    {
      "inputs": [],
      "name": "getVersionNumber",
      "outputs": [
        {
          "internalType": "uint256",
          "name": "",
          "type": "uint256"
        },
        {
          "internalType": "uint256",
          "name": "",
          "type": "uint256"
        },
        {
          "internalType": "uint256",
          "name": "",
          "type": "uint256"
        },
        {
          "internalType": "uint256",
          "name": "",
          "type": "uint256"
        }
      ],
      "stateMutability": "pure",
      "type": "function"
    },
    {
      "inputs": [],
      "name": "groupHealth",
      "outputs": [
        {
          "internalType": "contract IGroupHealth",
          "name": "",
          "type": "address"
        }
      ],
      "stateMutability": "view",
      "type": "function"
    },
    {
      "inputs": [
        {
          "internalType": "address",
          "name": "_owner",
          "type": "address"
        },
        {
          "internalType": "address",
          "name": "_manager",
          "type": "address"
        }
      ],
      "name": "initialize",
      "outputs": [],
      "stateMutability": "nonpayable",
      "type": "function"
    },
    {
      "inputs": [
        {
          "internalType": "address",
          "name": "group",
          "type": "address"
        }
      ],
      "name": "isActive",
      "outputs": [
        {
          "internalType": "bool",
          "name": "",
          "type": "bool"
        }
      ],
      "stateMutability": "view",
      "type": "function"
    },
    {
      "inputs": [],
      "name": "manager",
      "outputs": [
        {
          "internalType": "address",
          "name": "",
          "type": "address"
        }
      ],
      "stateMutability": "view",
      "type": "function"
    },
    {
      "inputs": [],
      "name": "maxGroupsToDistributeTo",
      "outputs": [
        {
          "internalType": "uint256",
          "name": "",
          "type": "uint256"
        }
      ],
      "stateMutability": "view",
      "type": "function"
    },
    {
      "inputs": [],
      "name": "maxGroupsToWithdrawFrom",
      "outputs": [
        {
          "internalType": "uint256",
          "name": "",
          "type": "uint256"
        }
      ],
      "stateMutability": "view",
      "type": "function"
    },
    {
      "inputs": [],
      "name": "owner",
      "outputs": [
        {
          "internalType": "address",
          "name": "",
          "type": "address"
        }
      ],
      "stateMutability": "view",
      "type": "function"
    },
    {
      "inputs": [
        {
          "internalType": "address",
          "name": "fromGroup",
          "type": "address"
        },
        {
          "internalType": "address",
          "name": "toGroup",
          "type": "address"
        }
      ],
      "name": "rebalance",
      "outputs": [],
      "stateMutability": "nonpayable",
      "type": "function"
    },
    {
      "inputs": [],
      "name": "renounceOwnership",
      "outputs": [],
      "stateMutability": "nonpayable",
      "type": "function"
    },
    {
      "inputs": [
        {
          "internalType": "address",
          "name": "_account",
          "type": "address"
        },
        {
          "internalType": "address",
          "name": "_groupHealth",
          "type": "address"
        },
        {
          "internalType": "address",
          "name": "_specificGroupStrategy",
          "type": "address"
        }
      ],
      "name": "setDependencies",
      "outputs": [],
      "stateMutability": "nonpayable",
      "type": "function"
    },
    {
      "inputs": [
        {
          "internalType": "address",
          "name": "_manager",
          "type": "address"
        }
      ],
      "name": "setManager",
      "outputs": [],
      "stateMutability": "nonpayable",
      "type": "function"
    },
    {
      "inputs": [
        {
          "internalType": "uint256",
          "name": "distributeTo",
          "type": "uint256"
        },
        {
          "internalType": "uint256",
          "name": "withdrawFrom",
          "type": "uint256"
        },
        {
          "internalType": "uint256",
          "name": "loopLimit",
          "type": "uint256"
        }
      ],
      "name": "setSortingParams",
      "outputs": [],
      "stateMutability": "nonpayable",
      "type": "function"
    },
    {
      "inputs": [],
      "name": "sorted",
      "outputs": [
        {
          "internalType": "bool",
          "name": "",
          "type": "bool"
        }
      ],
      "stateMutability": "view",
      "type": "function"
    },
    {
      "inputs": [],
      "name": "specificGroupStrategy",
      "outputs": [
        {
          "internalType": "contract ISpecificGroupStrategy",
          "name": "",
          "type": "address"
        }
      ],
      "stateMutability": "view",
      "type": "function"
    },
    {
      "inputs": [
        {
          "internalType": "address",
          "name": "",
          "type": "address"
        }
      ],
      "name": "stCeloInGroup",
      "outputs": [
        {
          "internalType": "uint256",
          "name": "",
          "type": "uint256"
        }
      ],
      "stateMutability": "view",
      "type": "function"
    },
    {
      "inputs": [],
      "name": "totalStCeloInStrategy",
      "outputs": [
        {
          "internalType": "uint256",
          "name": "",
          "type": "uint256"
        }
      ],
      "stateMutability": "view",
      "type": "function"
    },
    {
      "inputs": [
        {
          "internalType": "address",
          "name": "newOwner",
          "type": "address"
        }
      ],
      "name": "transferOwnership",
      "outputs": [],
      "stateMutability": "nonpayable",
      "type": "function"
    },
    {
      "inputs": [
        {
          "internalType": "address",
          "name": "group",
          "type": "address"
        },
        {
          "internalType": "address",
          "name": "lesserKey",
          "type": "address"
        },
        {
          "internalType": "address",
          "name": "greaterKey",
          "type": "address"
        }
      ],
      "name": "updateActiveGroupOrder",
      "outputs": [],
      "stateMutability": "nonpayable",
      "type": "function"
    },
    {
      "inputs": [
        {
          "internalType": "address",
          "name": "newImplementation",
          "type": "address"
        }
      ],
      "name": "upgradeTo",
      "outputs": [],
      "stateMutability": "nonpayable",
      "type": "function"
    },
    {
      "inputs": [
        {
          "internalType": "address",
          "name": "newImplementation",
          "type": "address"
        },
        {
          "internalType": "bytes",
          "name": "data",
          "type": "bytes"
        }
      ],
      "name": "upgradeToAndCall",
      "outputs": [],
      "stateMutability": "payable",
      "type": "function"
    }
  ],
  "transactionHash": "0xb94856c8b0ddb1748a618c200e7d89c7df3a46a0d35f5594472f276db56eac05",
  "args": [],
  "numDeployments": 1,
  "solcInputHash": "853b55223846d02fedd45ce1ad0ec6ae",
  "bytecode": "0x60a06040523073ffffffffffffffffffffffffffffffffffffffff1660809073ffffffffffffffffffffffffffffffffffffffff168152503480156200004457600080fd5b50600060019054906101000a900460ff166200006f5760008054906101000a900460ff161562000080565b6200007f6200013c60201b60201c565b5b620000c2576040517f08c379a0000000000000000000000000000000000000000000000000000000008152600401620000b99062000204565b60405180910390fd5b60008060019054906101000a900460ff16159050801562000113576001600060016101000a81548160ff02191690831515021790555060016000806101000a81548160ff0219169083151502179055505b8015620001355760008060016101000a81548160ff0219169083151502179055505b5062000226565b600062000154306200015a60201b62002b6e1760201c565b15905090565b6000808273ffffffffffffffffffffffffffffffffffffffff163b119050919050565b600082825260208201905092915050565b7f496e697469616c697a61626c653a20636f6e747261637420697320616c72656160008201527f647920696e697469616c697a6564000000000000000000000000000000000000602082015250565b6000620001ec602e836200017d565b9150620001f9826200018e565b604082019050919050565b600060208201905081810360008301526200021f81620001dd565b9050919050565b608051615a2d6200025760003960008181610861015281816108f0015281816114a601526115350152615a2d6000f3fe6080604052600436106101f95760003560e01c8063885640db1161010d578063c1fa411a116100a0578063d2a2ce5d1161006f578063d2a2ce5d1461071c578063dcdab02a14610747578063e0cd8d2714610770578063eccacf7f146107ae578063f2fde38b146107d9576101f9565b8063c1fa411a14610671578063c5728c831461069c578063cf009f7a146106c8578063d0ebdbe7146106f3576101f9565b8063a3f16ef1116100dc578063a3f16ef1146105b6578063afc97578146105e1578063b52d326c1461060a578063be982c3114610633576101f9565b8063885640db146104fc5780638da5cb5b1461052557806393739a93146105505780639f8a13d714610579576101f9565b80634f1ef286116101905780635dab24201161015f5780635dab2420146104285780636fe958d814610453578063715018a61461047c578063724e61d01461049357806385a92cb7146104bf576101f9565b80634f1ef2861461038a5780634fc517eb146103a65780635145b0ad146103d157806354255be0146103fa576101f9565b80633659cfe6116101cc5780633659cfe6146102cf57806336691a41146102f8578063481c6a7514610336578063485cc95514610361576101f9565b80630c29aab2146101fe5780630f8f0fcc146102295780632863f68c146102665780632de2c5ac146102a4575b600080fd5b34801561020a57600080fd5b50610213610802565b6040516102209190614732565b60405180910390f35b34801561023557600080fd5b50610250600480360381019061024b919061478d565b610808565b60405161025d91906147fb565b60405180910390f35b34801561027257600080fd5b5061028d60048036038101906102889190614842565b610825565b60405161029b92919061486f565b60405180910390f35b3480156102b057600080fd5b506102b961084c565b6040516102c691906148b3565b60405180910390f35b3480156102db57600080fd5b506102f660048036038101906102f19190614842565b61085f565b005b34801561030457600080fd5b5061031f600480360381019061031a919061478d565b6109e8565b60405161032d929190614a4a565b60405180910390f35b34801561034257600080fd5b5061034b61130d565b60405161035891906147fb565b60405180910390f35b34801561036d57600080fd5b5061038860048036038101906103839190614a81565b611333565b005b6103a4600480360381019061039f9190614c07565b6114a4565b005b3480156103b257600080fd5b506103bb6115e1565b6040516103c89190614732565b60405180910390f35b3480156103dd57600080fd5b506103f860048036038101906103f39190614c63565b6115e7565b005b34801561040657600080fd5b5061040f611770565b60405161041f9493929190614cb6565b60405180910390f35b34801561043457600080fd5b5061043d61178a565b60405161044a9190614d5a565b60405180910390f35b34801561045f57600080fd5b5061047a60048036038101906104759190614a81565b6117b0565b005b34801561048857600080fd5b50610491611ab7565b005b34801561049f57600080fd5b506104a8611b3f565b6040516104b692919061486f565b60405180910390f35b3480156104cb57600080fd5b506104e660048036038101906104e19190614842565b611bdf565b6040516104f39190614732565b60405180910390f35b34801561050857600080fd5b50610523600480360381019061051e9190614d75565b611bf7565b005b34801561053157600080fd5b5061053a611c8d565b60405161054791906147fb565b60405180910390f35b34801561055c57600080fd5b5061057760048036038101906105729190614842565b611cb7565b005b34801561058557600080fd5b506105a0600480360381019061059b9190614842565b611d3f565b6040516105ad91906148b3565b60405180910390f35b3480156105c257600080fd5b506105cb611dc5565b6040516105d89190614de9565b60405180910390f35b3480156105ed57600080fd5b5061060860048036038101906106039190614c63565b611deb565b005b34801561061657600080fd5b50610631600480360381019061062c9190614c63565b6122ca565b005b34801561063f57600080fd5b5061065a60048036038101906106559190614842565b6124e3565b604051610668929190614e04565b60405180910390f35b34801561067d57600080fd5b5061068661269e565b6040516106939190614732565b60405180910390f35b3480156106a857600080fd5b506106b1612720565b6040516106bf92919061486f565b60405180910390f35b3480156106d457600080fd5b506106dd6127c1565b6040516106ea9190614e4e565b60405180910390f35b3480156106ff57600080fd5b5061071a60048036038101906107159190614842565b6127e7565b005b34801561072857600080fd5b5061073161286f565b60405161073e9190614732565b60405180910390f35b34801561075357600080fd5b5061076e60048036038101906107699190614842565b612880565b005b34801561077c57600080fd5b5061079760048036038101906107929190614e69565b61296a565b6040516107a5929190614a4a565b60405180910390f35b3480156107ba57600080fd5b506107c3612a70565b6040516107d09190614732565b60405180910390f35b3480156107e557600080fd5b5061080060048036038101906107fb9190614842565b612a76565b005b60715481565b600061081e826074612b9190919063ffffffff16565b9050919050565b60008061083c836066612bab90919063ffffffff16565b9091508092508193505050915091565b607360009054906101000a900460ff1681565b7f000000000000000000000000000000000000000000000000000000000000000073ffffffffffffffffffffffffffffffffffffffff163073ffffffffffffffffffffffffffffffffffffffff1614156108ee576040517f08c379a00000000000000000000000000000000000000000000000000000000081526004016108e590614f2c565b60405180910390fd5b7f000000000000000000000000000000000000000000000000000000000000000073ffffffffffffffffffffffffffffffffffffffff1661092d612c06565b73ffffffffffffffffffffffffffffffffffffffff1614610983576040517f08c379a000000000000000000000000000000000000000000000000000000000815260040161097a90614fbe565b60405180910390fd5b61098c81612c5d565b6109e581600067ffffffffffffffff8111156109ab576109aa614adc565b5b6040519080825280601f01601f1916602001820160405280156109dd5781602001600182028036833780820191505090505b506000612cdc565b50565b6060803373ffffffffffffffffffffffffffffffffffffffff16606560009054906101000a900473ffffffffffffffffffffffffffffffffffffffff1673ffffffffffffffffffffffffffffffffffffffff1614158015610a9757503373ffffffffffffffffffffffffffffffffffffffff16606d60009054906101000a900473ffffffffffffffffffffffffffffffffffffffff1673ffffffffffffffffffffffffffffffffffffffff1614155b15610ad957336040517f79eaeb2b000000000000000000000000000000000000000000000000000000008152600401610ad091906147fb565b60405180910390fd5b600060667348B505F1c5b7300de070dA9c85324272FC65f1876365da149690916040518263ffffffff1660e01b8152600401610b159190614fe5565b602060405180830381865af4158015610b32573d6000803e3d6000fd5b505050506040513d601f19601f82011682018060405250810190610b569190615015565b1415610b8e576040517f7818a60e00000000000000000000000000000000000000000000000000000000815260040160405180910390fd5b6000610c1660705460667348B505F1c5b7300de070dA9c85324272FC65f1876365da149690916040518263ffffffff1660e01b8152600401610bd09190614fe5565b602060405180830381865af4158015610bed573d6000803e3d6000fd5b505050506040513d601f19601f82011682018060405250810190610c119190615015565b612ead565b905060008167ffffffffffffffff811115610c3457610c33614adc565b5b604051908082528060200260200182016040528015610c625781602001602082028036833780820191505090505b50905060008267ffffffffffffffff811115610c8157610c80614adc565b5b604051908082528060200260200182016040528015610caf5781602001602082028036833780820191505090505b509050600060667348B505F1c5b7300de070dA9c85324272FC65f187630c8f298790916040518263ffffffff1660e01b8152600401610cee9190614fe5565b602060405180830381865af4158015610d0b573d6000803e3d6000fd5b505050506040513d601f19601f82011682018060405250810190610d2f9190615057565b905060005b8481108015610d44575060008814155b8015610d7d5750600073ffffffffffffffffffffffffffffffffffffffff168273ffffffffffffffffffffffffffffffffffffffff1614155b1561117257610f0a610f04606c60009054906101000a900473ffffffffffffffffffffffffffffffffffffffff1673ffffffffffffffffffffffffffffffffffffffff1663acd201d0856040518263ffffffff1660e01b8152600401610de391906147fb565b602060405180830381865afa158015610e00573d6000803e3d6000fd5b505050506040513d601f19601f82011682018060405250810190610e249190615015565b606560009054906101000a900473ffffffffffffffffffffffffffffffffffffffff1673ffffffffffffffffffffffffffffffffffffffff16630567847f606e60008873ffffffffffffffffffffffffffffffffffffffff1673ffffffffffffffffffffffffffffffffffffffff168152602001908152602001600020546040518263ffffffff1660e01b8152600401610ebe9190614732565b602060405180830381865afa158015610edb573d6000803e3d6000fd5b505050506040513d601f19601f82011682018060405250810190610eff9190615015565b612ead565b89612ead565b838281518110610f1d57610f1c615084565b5b60200260200101818152505081848281518110610f3d57610f3c615084565b5b602002602001019073ffffffffffffffffffffffffffffffffffffffff16908173ffffffffffffffffffffffffffffffffffffffff1681525050828181518110610f8a57610f89615084565b5b602002602001015188610f9d91906150e2565b975061106082606560009054906101000a900473ffffffffffffffffffffffffffffffffffffffff1673ffffffffffffffffffffffffffffffffffffffff1663c494ec1e868581518110610ff457610ff3615084565b5b60200260200101516040518263ffffffff1660e01b81526004016110189190614732565b602060405180830381865afa158015611035573d6000803e3d6000fd5b505050506040513d601f19601f820116820180604052508101906110599190615015565b6000612ec6565b6110ab82606e60008573ffffffffffffffffffffffffffffffffffffffff1673ffffffffffffffffffffffffffffffffffffffff168152602001908152602001600020546000612fb5565b607360009054906101000a900460ff16156111425760667348B505F1c5b7300de070dA9c85324272FC65f187630c8f298790916040518263ffffffff1660e01b81526004016110fa9190614fe5565b602060405180830381865af4158015611117573d6000803e3d6000fd5b505050506040513d601f19601f8201168201806040525081019061113b9190615057565b915061115f565b611156826066612bab90919063ffffffff16565b90915050809250505b808061116a90615116565b915050610d34565b600088146111ac576040517f2e6c1bf900000000000000000000000000000000000000000000000000000000815260040160405180910390fd5b8067ffffffffffffffff8111156111c6576111c5614adc565b5b6040519080825280602002602001820160405280156111f45781602001602082028036833780820191505090505b5096508067ffffffffffffffff81111561121157611210614adc565b5b60405190808252806020026020018201604052801561123f5781602001602082028036833780820191505090505b50955060005b81811015611302578481815181106112605761125f615084565b5b602002602001015188828151811061127b5761127a615084565b5b602002602001019073ffffffffffffffffffffffffffffffffffffffff16908173ffffffffffffffffffffffffffffffffffffffff16815250508381815181106112c8576112c7615084565b5b60200260200101518782815181106112e3576112e2615084565b5b60200260200101818152505080806112fa90615116565b915050611245565b505050505050915091565b606560009054906101000a900473ffffffffffffffffffffffffffffffffffffffff1681565b600060019054906101000a900460ff1661135b5760008054906101000a900460ff1615611364565b611363613269565b5b6113a3576040517f08c379a000000000000000000000000000000000000000000000000000000000815260040161139a906151d1565b60405180910390fd5b60008060019054906101000a900460ff1615905080156113f3576001600060016101000a81548160ff02191690831515021790555060016000806101000a81548160ff0219169083151502179055505b6113fc8361327a565b61140582613340565b6008606f819055506008607081905550600a6072819055506001607360006101000a81548160ff0219169083151502179055507fb930683f0749189780c4016ec37d019eb0cbbf6550ce7374fac5cfbae93909a7607360009054906101000a900460ff1660405161147691906148b3565b60405180910390a1801561149f5760008060016101000a81548160ff0219169083151502179055505b505050565b7f000000000000000000000000000000000000000000000000000000000000000073ffffffffffffffffffffffffffffffffffffffff163073ffffffffffffffffffffffffffffffffffffffff161415611533576040517f08c379a000000000000000000000000000000000000000000000000000000000815260040161152a90614f2c565b60405180910390fd5b7f000000000000000000000000000000000000000000000000000000000000000073ffffffffffffffffffffffffffffffffffffffff16611572612c06565b73ffffffffffffffffffffffffffffffffffffffff16146115c8576040517f08c379a00000000000000000000000000000000000000000000000000000000081526004016115bf90614fbe565b60405180910390fd5b6115d182612c5d565b6115dd82826001612cdc565b5050565b606f5481565b6115fb83607461339b90919063ffffffff16565b611631576040517f0a1f2c0e00000000000000000000000000000000000000000000000000000000815260040160405180910390fd5b60667348B505F1c5b7300de070dA9c85324272FC65f18763cab455ae909185606e60008873ffffffffffffffffffffffffffffffffffffffff1673ffffffffffffffffffffffffffffffffffffffff1681526020019081526020016000205486866040518663ffffffff1660e01b81526004016116b295949392919061520f565b60006040518083038186803b1580156116ca57600080fd5b505af41580156116de573d6000803e3d6000fd5b505050506116f68360746133cb90919063ffffffff16565b50600061170360746133fb565b141561176b576001607360006101000a81548160ff0219169083151502179055507fb930683f0749189780c4016ec37d019eb0cbbf6550ce7374fac5cfbae93909a7607360009054906101000a900460ff1660405161176291906148b3565b60405180910390a15b505050565b600080600080600180600080935093509350935090919293565b606c60009054906101000a900473ffffffffffffffffffffffffffffffffffffffff1681565b60667348B505F1c5b7300de070dA9c85324272FC65f1876302f130289091846040518363ffffffff1660e01b81526004016117ec929190615262565b602060405180830381865af4158015611809573d6000803e3d6000fd5b505050506040513d601f19601f8201168201806040525081019061182d91906152b7565b61186e57816040517fdc1b434d00000000000000000000000000000000000000000000000000000000815260040161186591906147fb565b60405180910390fd5b60667348B505F1c5b7300de070dA9c85324272FC65f1876302f130289091836040518363ffffffff1660e01b81526004016118aa929190615262565b602060405180830381865af41580156118c7573d6000803e3d6000fd5b505050506040513d601f19601f820116820180604052508101906118eb91906152b7565b61192c57806040517f5a08158400000000000000000000000000000000000000000000000000000000815260040161192391906147fb565b60405180910390fd5b600080611938846124e3565b91509150818111611984578381836040517f8b0123bf00000000000000000000000000000000000000000000000000000000815260040161197b939291906152e4565b60405180910390fd5b600080611990856124e3565b915091508181106119dc578481836040517f845286390000000000000000000000000000000000000000000000000000000081526004016119d3939291906152e4565b60405180910390fd5b60006119fe85856119ed91906150e2565b83856119f991906150e2565b612ead565b9050611a0c87826000612ec6565b611a1886826001612ec6565b611a6387606e60008a73ffffffffffffffffffffffffffffffffffffffff1673ffffffffffffffffffffffffffffffffffffffff168152602001908152602001600020546000612fb5565b611aae86606e60008973ffffffffffffffffffffffffffffffffffffffff1673ffffffffffffffffffffffffffffffffffffffff168152602001908152602001600020546001612fb5565b50505050505050565b611abf613410565b73ffffffffffffffffffffffffffffffffffffffff16611add611c8d565b73ffffffffffffffffffffffffffffffffffffffff1614611b33576040517f08c379a0000000000000000000000000000000000000000000000000000000008152600401611b2a90615367565b60405180910390fd5b611b3d600061327a565b565b60008060667348B505F1c5b7300de070dA9c85324272FC65f187630c8f298790916040518263ffffffff1660e01b8152600401611b7c9190614fe5565b602060405180830381865af4158015611b99573d6000803e3d6000fd5b505050506040513d601f19601f82011682018060405250810190611bbd9190615057565b9150611bd3826066612bab90919063ffffffff16565b90915050809150509091565b606e6020528060005260406000206000915090505481565b611bff613410565b73ffffffffffffffffffffffffffffffffffffffff16611c1d611c8d565b73ffffffffffffffffffffffffffffffffffffffff1614611c73576040517f08c379a0000000000000000000000000000000000000000000000000000000008152600401611c6a90615367565b60405180910390fd5b82606f819055508160708190555080607281905550505050565b6000603360009054906101000a900473ffffffffffffffffffffffffffffffffffffffff16905090565b611cbf613410565b73ffffffffffffffffffffffffffffffffffffffff16611cdd611c8d565b73ffffffffffffffffffffffffffffffffffffffff1614611d33576040517f08c379a0000000000000000000000000000000000000000000000000000000008152600401611d2a90615367565b60405180910390fd5b611d3c81613418565b50565b600060667348B505F1c5b7300de070dA9c85324272FC65f1876302f130289091846040518363ffffffff1660e01b8152600401611d7d929190615262565b602060405180830381865af4158015611d9a573d6000803e3d6000fd5b505050506040513d601f19601f82011682018060405250810190611dbe91906152b7565b9050919050565b606b60009054906101000a900473ffffffffffffffffffffffffffffffffffffffff1681565b611df3613410565b73ffffffffffffffffffffffffffffffffffffffff16611e11611c8d565b73ffffffffffffffffffffffffffffffffffffffff1614611e67576040517f08c379a0000000000000000000000000000000000000000000000000000000008152600401611e5e90615367565b60405180910390fd5b606b60009054906101000a900473ffffffffffffffffffffffffffffffffffffffff1673ffffffffffffffffffffffffffffffffffffffff1663ac8f4425846040518263ffffffff1660e01b8152600401611ec291906147fb565b602060405180830381865afa158015611edf573d6000803e3d6000fd5b505050506040513d601f19601f82011682018060405250810190611f0391906152b7565b611f4457826040517f10a7bc6b000000000000000000000000000000000000000000000000000000008152600401611f3b91906147fb565b60405180910390fd5b60667348B505F1c5b7300de070dA9c85324272FC65f1876302f130289091856040518363ffffffff1660e01b8152600401611f80929190615262565b602060405180830381865af4158015611f9d573d6000803e3d6000fd5b505050506040513d601f19601f82011682018060405250810190611fc191906152b7565b1561200357826040517fbd133eee000000000000000000000000000000000000000000000000000000008152600401611ffa91906147fb565b60405180910390fd5b600080606560009054906101000a900473ffffffffffffffffffffffffffffffffffffffff1673ffffffffffffffffffffffffffffffffffffffff1663c494ec1e606c60009054906101000a900473ffffffffffffffffffffffffffffffffffffffff1673ffffffffffffffffffffffffffffffffffffffff1663acd201d0886040518263ffffffff1660e01b815260040161209f91906147fb565b602060405180830381865afa1580156120bc573d6000803e3d6000fd5b505050506040513d601f19601f820116820180604052508101906120e09190615015565b6040518263ffffffff1660e01b81526004016120fc9190614732565b602060405180830381865afa158015612119573d6000803e3d6000fd5b505050506040513d601f19601f8201168201806040525081019061213d9190615015565b90506000811461220e576000606d60009054906101000a900473ffffffffffffffffffffffffffffffffffffffff1673ffffffffffffffffffffffffffffffffffffffff166356ab819f876040518263ffffffff1660e01b81526004016121a491906147fb565b606060405180830381865afa1580156121c1573d6000803e3d6000fd5b505050506040513d601f19601f820116820180604052508101906121e59190615387565b505090506121f38282612ead565b826121fe91906150e2565b925061220c86846001612ec6565b505b60667348B505F1c5b7300de070dA9c85324272FC65f187632dedbbf09091878588886040518663ffffffff1660e01b815260040161225095949392919061520f565b60006040518083038186803b15801561226857600080fd5b505af415801561227c573d6000803e3d6000fd5b505050508473ffffffffffffffffffffffffffffffffffffffff167f0503b4748a47435f2432d46ef300e0e2dc47baa0e5f04bb3bd8a355ee1e1dbe660405160405180910390a25050505050565b6122d2613410565b73ffffffffffffffffffffffffffffffffffffffff166122f0611c8d565b73ffffffffffffffffffffffffffffffffffffffff1614612346576040517f08c379a000000000000000000000000000000000000000000000000000000000815260040161233d90615367565b60405180910390fd5b600073ffffffffffffffffffffffffffffffffffffffff168373ffffffffffffffffffffffffffffffffffffffff1614806123ad5750600073ffffffffffffffffffffffffffffffffffffffff168273ffffffffffffffffffffffffffffffffffffffff16145b806123e45750600073ffffffffffffffffffffffffffffffffffffffff168173ffffffffffffffffffffffffffffffffffffffff16145b1561241b576040517f0855380c00000000000000000000000000000000000000000000000000000000815260040160405180910390fd5b81606b60006101000a81548173ffffffffffffffffffffffffffffffffffffffff021916908373ffffffffffffffffffffffffffffffffffffffff16021790555080606d60006101000a81548173ffffffffffffffffffffffffffffffffffffffff021916908373ffffffffffffffffffffffffffffffffffffffff16021790555082606c60006101000a81548173ffffffffffffffffffffffffffffffffffffffff021916908373ffffffffffffffffffffffffffffffffffffffff160217905550505050565b600080600060667348B505F1c5b7300de070dA9c85324272FC65f187630c8f298790916040518263ffffffff1660e01b81526004016125229190614fe5565b602060405180830381865af415801561253f573d6000803e3d6000fd5b505050506040513d601f19601f820116820180604052508101906125639190615057565b9050600060667348B505F1c5b7300de070dA9c85324272FC65f1876365da149690916040518263ffffffff1660e01b81526004016125a19190614fe5565b602060405180830381865af41580156125be573d6000803e3d6000fd5b505050506040513d601f19601f820116820180604052508101906125e29190615015565b9050806071546125f29190615409565b93508173ffffffffffffffffffffffffffffffffffffffff168573ffffffffffffffffffffffffffffffffffffffff1614156126555760008185612636919061543a565b60715461264391906150e2565b905080856126519190615494565b9450505b606e60008673ffffffffffffffffffffffffffffffffffffffff1673ffffffffffffffffffffffffffffffffffffffff1681526020019081526020016000205492505050915091565b600060667348B505F1c5b7300de070dA9c85324272FC65f1876365da149690916040518263ffffffff1660e01b81526004016126da9190614fe5565b602060405180830381865af41580156126f7573d6000803e3d6000fd5b505050506040513d601f19601f8201168201806040525081019061271b9190615015565b905090565b60008060667348B505F1c5b7300de070dA9c85324272FC65f1876349923bff90916040518263ffffffff1660e01b815260040161275d9190614fe5565b602060405180830381865af415801561277a573d6000803e3d6000fd5b505050506040513d601f19601f8201168201806040525081019061279e9190615057565b91506127b4826066612bab90919063ffffffff16565b9091509050809150509091565b606d60009054906101000a900473ffffffffffffffffffffffffffffffffffffffff1681565b6127ef613410565b73ffffffffffffffffffffffffffffffffffffffff1661280d611c8d565b73ffffffffffffffffffffffffffffffffffffffff1614612863576040517f08c379a000000000000000000000000000000000000000000000000000000000815260040161285a90615367565b60405180910390fd5b61286c816138e3565b50565b600061287b60746133fb565b905090565b606b60009054906101000a900473ffffffffffffffffffffffffffffffffffffffff1673ffffffffffffffffffffffffffffffffffffffff1663ac8f4425826040518263ffffffff1660e01b81526004016128db91906147fb565b602060405180830381865afa1580156128f8573d6000803e3d6000fd5b505050506040513d601f19601f8201168201806040525081019061291c91906152b7565b1561295e57806040517fe3bd013b00000000000000000000000000000000000000000000000000000000815260040161295591906147fb565b60405180910390fd5b61296781613418565b50565b6060803373ffffffffffffffffffffffffffffffffffffffff16606560009054906101000a900473ffffffffffffffffffffffffffffffffffffffff1673ffffffffffffffffffffffffffffffffffffffff1614158015612a1957503373ffffffffffffffffffffffffffffffffffffffff16606d60009054906101000a900473ffffffffffffffffffffffffffffffffffffffff1673ffffffffffffffffffffffffffffffffffffffff1614155b15612a5b57336040517f79eaeb2b000000000000000000000000000000000000000000000000000000008152600401612a5291906147fb565b60405180910390fd5b612a6584846139d1565b915091509250929050565b60705481565b612a7e613410565b73ffffffffffffffffffffffffffffffffffffffff16612a9c611c8d565b73ffffffffffffffffffffffffffffffffffffffff1614612af2576040517f08c379a0000000000000000000000000000000000000000000000000000000008152600401612ae990615367565b60405180910390fd5b600073ffffffffffffffffffffffffffffffffffffffff168173ffffffffffffffffffffffffffffffffffffffff161415612b62576040517f08c379a0000000000000000000000000000000000000000000000000000000008152600401612b599061555c565b60405180910390fd5b612b6b8161327a565b50565b6000808273ffffffffffffffffffffffffffffffffffffffff163b119050919050565b6000612ba08360000183614190565b60001c905092915050565b600080600080612bcc612bbd866141bb565b876141e290919063ffffffff16565b905080604001519350806040015115612bfe57612bec8160000151614208565b9250612bfb8160200151614208565b91505b509250925092565b6000612c347f360894a13ba1a3210667c828492db98dca3e2076cc3735a920a3ca505d382bbc60001b614219565b60000160009054906101000a900473ffffffffffffffffffffffffffffffffffffffff16905090565b612c65613410565b73ffffffffffffffffffffffffffffffffffffffff16612c83611c8d565b73ffffffffffffffffffffffffffffffffffffffff1614612cd9576040517f08c379a0000000000000000000000000000000000000000000000000000000008152600401612cd090615367565b60405180910390fd5b50565b6000612ce6612c06565b9050612cf184614223565b600083511180612cfe5750815b15612d0f57612d0d84846142dc565b505b6000612d3d7f4910fdfa16fed3260ed0e7147f7cc6da11a60208b5b9406d12a635614ffd914360001b614309565b90508060000160009054906101000a900460ff16612ea65760018160000160006101000a81548160ff021916908315150217905550612e098583604051602401612d8791906147fb565b6040516020818303038152906040527f3659cfe6000000000000000000000000000000000000000000000000000000007bffffffffffffffffffffffffffffffffffffffffffffffffffffffff19166020820180517bffffffffffffffffffffffffffffffffffffffffffffffffffffffff83818316178352505050506142dc565b5060008160000160006101000a81548160ff021916908315150217905550612e2f612c06565b73ffffffffffffffffffffffffffffffffffffffff168273ffffffffffffffffffffffffffffffffffffffff1614612e9c576040517f08c379a0000000000000000000000000000000000000000000000000000000008152600401612e93906155ee565b60405180910390fd5b612ea585614313565b5b5050505050565b6000818310612ebc5781612ebe565b825b905092915050565b8015612f405781606e60008573ffffffffffffffffffffffffffffffffffffffff1673ffffffffffffffffffffffffffffffffffffffff1681526020019081526020016000206000828254612f1b9190615494565b925050819055508160716000828254612f349190615494565b92505081905550612fb0565b81606e60008573ffffffffffffffffffffffffffffffffffffffff1673ffffffffffffffffffffffffffffffffffffffff1681526020019081526020016000206000828254612f8f91906150e2565b925050819055508160716000828254612fa891906150e2565b925050819055505b505050565b612fc983607461339b90919063ffffffff16565b15612fd357613264565b600080826130625760667348B505F1c5b7300de070dA9c85324272FC65f18763a4aadfcc909187876072546040518563ffffffff1660e01b815260040161301d949392919061560e565b6040805180830381865af4158015613039573d6000803e3d6000fd5b505050506040513d601f19601f8201168201806040525081019061305d9190615653565b6130e5565b60667348B505F1c5b7300de070dA9c85324272FC65f1876399f68a39909187876072546040518563ffffffff1660e01b81526004016130a4949392919061560e565b6040805180830381865af41580156130c0573d6000803e3d6000fd5b505050506040513d601f19601f820116820180604052508101906130e49190615653565b5b915091508073ffffffffffffffffffffffffffffffffffffffff168273ffffffffffffffffffffffffffffffffffffffff1614158061319e5750600160667348B505F1c5b7300de070dA9c85324272FC65f1876365da149690916040518263ffffffff1660e01b815260040161315b9190614fe5565b602060405180830381865af4158015613178573d6000803e3d6000fd5b505050506040513d601f19601f8201168201806040525081019061319c9190615015565b145b1561321a5760667348B505F1c5b7300de070dA9c85324272FC65f18763cab455ae9091878786866040518663ffffffff1660e01b81526004016131e595949392919061520f565b60006040518083038186803b1580156131fd57600080fd5b505af4158015613211573d6000803e3d6000fd5b50505050613261565b607360009054906101000a900460ff161561324b576000607360006101000a81548160ff0219169083151502179055505b61325f85607461436290919063ffffffff16565b505b50505b505050565b600061327430612b6e565b15905090565b6000603360009054906101000a900473ffffffffffffffffffffffffffffffffffffffff16905081603360006101000a81548173ffffffffffffffffffffffffffffffffffffffff021916908373ffffffffffffffffffffffffffffffffffffffff1602179055508173ffffffffffffffffffffffffffffffffffffffff168173ffffffffffffffffffffffffffffffffffffffff167f8be0079c531659141344cd1fd0a4f28419497f9722a3daafe3b4186f6b6457e060405160405180910390a35050565b600060019054906101000a900460ff1661338f576040517f08c379a000000000000000000000000000000000000000000000000000000000815260040161338690615705565b60405180910390fd5b613398816138e3565b50565b60006133c3836000018373ffffffffffffffffffffffffffffffffffffffff1660001b614392565b905092915050565b60006133f3836000018373ffffffffffffffffffffffffffffffffffffffff1660001b6143b5565b905092915050565b6000613409826000016144c9565b9050919050565b600033905090565b60667348B505F1c5b7300de070dA9c85324272FC65f1876302f130289091836040518363ffffffff1660e01b8152600401613454929190615262565b602060405180830381865af4158015613471573d6000803e3d6000fd5b505050506040513d601f19601f8201168201806040525081019061349591906152b7565b6134d657806040517f1adbb1530000000000000000000000000000000000000000000000000000000081526004016134cd91906147fb565b60405180910390fd5b60667348B505F1c5b7300de070dA9c85324272FC65f18763281359299091836040518363ffffffff1660e01b8152600401613512929190615262565b60006040518083038186803b15801561352a57600080fd5b505af415801561353e573d6000803e3d6000fd5b505050506135568160746133cb90919063ffffffff16565b506000606e60008373ffffffffffffffffffffffffffffffffffffffff1673ffffffffffffffffffffffffffffffffffffffff168152602001908152602001600020549050600081111561389c576135b082826000612ec6565b6000600167ffffffffffffffff8111156135cd576135cc614adc565b5b6040519080825280602002602001820160405280156135fb5781602001602082028036833780820191505090505b5090506000600167ffffffffffffffff81111561361b5761361a614adc565b5b6040519080825280602002602001820160405280156136495781602001602082028036833780820191505090505b509050838260008151811061366157613660615084565b5b602002602001019073ffffffffffffffffffffffffffffffffffffffff16908173ffffffffffffffffffffffffffffffffffffffff1681525050606560009054906101000a900473ffffffffffffffffffffffffffffffffffffffff1673ffffffffffffffffffffffffffffffffffffffff16630567847f846040518263ffffffff1660e01b81526004016136f69190614732565b602060405180830381865afa158015613713573d6000803e3d6000fd5b505050506040513d601f19601f820116820180604052508101906137379190615015565b8160008151811061374b5761374a615084565b5b602002602001018181525050600080613800606560009054906101000a900473ffffffffffffffffffffffffffffffffffffffff1673ffffffffffffffffffffffffffffffffffffffff16630567847f876040518263ffffffff1660e01b81526004016137b89190614732565b602060405180830381865afa1580156137d5573d6000803e3d6000fd5b505050506040513d601f19601f820116820180604052508101906137f99190615015565b60006139d1565b91509150606560009054906101000a900473ffffffffffffffffffffffffffffffffffffffff1673ffffffffffffffffffffffffffffffffffffffff16630c4d4e40858486856040518563ffffffff1660e01b81526004016138659493929190615725565b600060405180830381600087803b15801561387f57600080fd5b505af1158015613893573d6000803e3d6000fd5b50505050505050505b8173ffffffffffffffffffffffffffffffffffffffff167fa78a88a551e130ce9732be17784bdff12f72ab4a2c833fb2dcb3ef0818956b0360405160405180910390a25050565b600073ffffffffffffffffffffffffffffffffffffffff168173ffffffffffffffffffffffffffffffffffffffff16141561394a576040517fe99d5ac500000000000000000000000000000000000000000000000000000000815260040160405180910390fd5b80606560006101000a81548173ffffffffffffffffffffffffffffffffffffffff021916908373ffffffffffffffffffffffffffffffffffffffff1602179055508073ffffffffffffffffffffffffffffffffffffffff167f60a0f5b9f9e81e98216071b85826681c796256fe3d1354ecb675580fba64fa6960405160405180910390a250565b606080600060667348B505F1c5b7300de070dA9c85324272FC65f1876365da149690916040518263ffffffff1660e01b8152600401613a109190614fe5565b602060405180830381865af4158015613a2d573d6000803e3d6000fd5b505050506040513d601f19601f82011682018060405250810190613a519190615015565b1415613a89576040517f7818a60e00000000000000000000000000000000000000000000000000000000815260040160405180910390fd5b6000613b11606f5460667348B505F1c5b7300de070dA9c85324272FC65f1876365da149690916040518263ffffffff1660e01b8152600401613acb9190614fe5565b602060405180830381865af4158015613ae8573d6000803e3d6000fd5b505050506040513d601f19601f82011682018060405250810190613b0c9190615015565b612ead565b905060008167ffffffffffffffff811115613b2f57613b2e614adc565b5b604051908082528060200260200182016040528015613b5d5781602001602082028036833780820191505090505b50905060008267ffffffffffffffff811115613b7c57613b7b614adc565b5b604051908082528060200260200182016040528015613baa5781602001602082028036833780820191505090505b509050600060667348B505F1c5b7300de070dA9c85324272FC65f1876349923bff90916040518263ffffffff1660e01b8152600401613be99190614fe5565b602060405180830381865af4158015613c06573d6000803e3d6000fd5b505050506040513d601f19601f82011682018060405250810190613c2a9190615057565b905060005b8481108015613c3f575060008914155b8015613c785750600073ffffffffffffffffffffffffffffffffffffffff168273ffffffffffffffffffffffffffffffffffffffff1614155b15613ff3576000606560009054906101000a900473ffffffffffffffffffffffffffffffffffffffff1673ffffffffffffffffffffffffffffffffffffffff16632c431058846040518263ffffffff1660e01b8152600401613cda91906147fb565b602060405180830381865afa158015613cf7573d6000803e3d6000fd5b505050506040513d601f19601f82011682018060405250810190613d1b9190615015565b90508873ffffffffffffffffffffffffffffffffffffffff168373ffffffffffffffffffffffffffffffffffffffff161480613d575750600081145b15613d7f57613d70836066612bab90919063ffffffff16565b90915090508093505050613c2f565b613d89818b612ead565b848381518110613d9c57613d9b615084565b5b60200260200101818152505082858381518110613dbc57613dbb615084565b5b602002602001019073ffffffffffffffffffffffffffffffffffffffff16908173ffffffffffffffffffffffffffffffffffffffff1681525050838281518110613e0957613e08615084565b5b60200260200101518a613e1c91906150e2565b9950613edf83606560009054906101000a900473ffffffffffffffffffffffffffffffffffffffff1673ffffffffffffffffffffffffffffffffffffffff1663c494ec1e878681518110613e7357613e72615084565b5b60200260200101516040518263ffffffff1660e01b8152600401613e979190614732565b602060405180830381865afa158015613eb4573d6000803e3d6000fd5b505050506040513d601f19601f82011682018060405250810190613ed89190615015565b6001612ec6565b613f2a83606e60008673ffffffffffffffffffffffffffffffffffffffff1673ffffffffffffffffffffffffffffffffffffffff168152602001908152602001600020546001612fb5565b607360009054906101000a900460ff1615613fc15760667348B505F1c5b7300de070dA9c85324272FC65f1876349923bff90916040518263ffffffff1660e01b8152600401613f799190614fe5565b602060405180830381865af4158015613f96573d6000803e3d6000fd5b505050506040513d601f19601f82011682018060405250810190613fba9190615057565b9250613fdf565b613fd5836066612bab90919063ffffffff16565b9091509050809350505b8180613fea90615116565b92505050613c2f565b6000891461402d576040517f2e6c1bf900000000000000000000000000000000000000000000000000000000815260040160405180910390fd5b8067ffffffffffffffff81111561404757614046614adc565b5b6040519080825280602002602001820160405280156140755781602001602082028036833780820191505090505b5096508067ffffffffffffffff81111561409257614091614adc565b5b6040519080825280602002602001820160405280156140c05781602001602082028036833780820191505090505b50955060005b81811015614183578481815181106140e1576140e0615084565b5b60200260200101518882815181106140fc576140fb615084565b5b602002602001019073ffffffffffffffffffffffffffffffffffffffff16908173ffffffffffffffffffffffffffffffffffffffff168152505083818151811061414957614148615084565b5b602002602001015187828151811061416457614163615084565b5b602002602001018181525050808061417b90615116565b9150506140c6565b5050505050509250929050565b60008260000182815481106141a8576141a7615084565b5b9060005260206000200154905092915050565b600060608273ffffffffffffffffffffffffffffffffffffffff16901b60001b9050919050565b6141ea6146f0565b61420082846000016144da90919063ffffffff16565b905092915050565b600060608260001c901c9050919050565b6000819050919050565b61422c81614539565b61426b576040517f08c379a0000000000000000000000000000000000000000000000000000000008152600401614262906157f8565b60405180910390fd5b806142987f360894a13ba1a3210667c828492db98dca3e2076cc3735a920a3ca505d382bbc60001b614219565b60000160006101000a81548173ffffffffffffffffffffffffffffffffffffffff021916908373ffffffffffffffffffffffffffffffffffffffff16021790555050565b606061430183836040518060600160405280602781526020016159d16027913961454c565b905092915050565b6000819050919050565b61431c81614223565b8073ffffffffffffffffffffffffffffffffffffffff167fbc7cd75a20ee27fd9adebab32041f755214dbc6bffa90cc0225b39da2e5c2d3b60405160405180910390a250565b600061438a836000018373ffffffffffffffffffffffffffffffffffffffff1660001b614619565b905092915050565b600080836001016000848152602001908152602001600020541415905092915050565b600080836001016000848152602001908152602001600020549050600081146144bd5760006001826143e791906150e2565b90506000600186600001805490506143ff91906150e2565b905081811461446e5760008660000182815481106144205761441f615084565b5b906000526020600020015490508087600001848154811061444457614443615084565b5b90600052602060002001819055508387600101600083815260200190815260200160002081905550505b8560000180548061448257614481615818565b5b6001900381819060005260206000200160009055905585600101600086815260200190815260200160002060009055600193505050506144c3565b60009150505b92915050565b600081600001805490509050919050565b6144e26146f0565b82600301600083815260200190815260200160002060405180606001604052908160008201548152602001600182015481526020016002820160009054906101000a900460ff161515151581525050905092915050565b600080823b905060008111915050919050565b606061455784614539565b614596576040517f08c379a000000000000000000000000000000000000000000000000000000000815260040161458d906158b9565b60405180910390fd5b6000808573ffffffffffffffffffffffffffffffffffffffff16856040516145be9190615953565b600060405180830381855af49150503d80600081146145f9576040519150601f19603f3d011682016040523d82523d6000602084013e6145fe565b606091505b509150915061460e828286614689565b925050509392505050565b60006146258383614392565b61467e578260000182908060018154018082558091505060019003906000526020600020016000909190919091505582600001805490508360010160008481526020019081526020016000208190555060019050614683565b600090505b92915050565b60608315614699578290506146e9565b6000835111156146ac5782518084602001fd5b816040517f08c379a00000000000000000000000000000000000000000000000000000000081526004016146e091906159ae565b60405180910390fd5b9392505050565b604051806060016040528060008019168152602001600080191681526020016000151581525090565b6000819050919050565b61472c81614719565b82525050565b60006020820190506147476000830184614723565b92915050565b6000604051905090565b600080fd5b600080fd5b61476a81614719565b811461477557600080fd5b50565b60008135905061478781614761565b92915050565b6000602082840312156147a3576147a2614757565b5b60006147b184828501614778565b91505092915050565b600073ffffffffffffffffffffffffffffffffffffffff82169050919050565b60006147e5826147ba565b9050919050565b6147f5816147da565b82525050565b600060208201905061481060008301846147ec565b92915050565b61481f816147da565b811461482a57600080fd5b50565b60008135905061483c81614816565b92915050565b60006020828403121561485857614857614757565b5b60006148668482850161482d565b91505092915050565b600060408201905061488460008301856147ec565b61489160208301846147ec565b9392505050565b60008115159050919050565b6148ad81614898565b82525050565b60006020820190506148c860008301846148a4565b92915050565b600081519050919050565b600082825260208201905092915050565b6000819050602082019050919050565b614903816147da565b82525050565b600061491583836148fa565b60208301905092915050565b6000602082019050919050565b6000614939826148ce565b61494381856148d9565b935061494e836148ea565b8060005b8381101561497f5781516149668882614909565b975061497183614921565b925050600181019050614952565b5085935050505092915050565b600081519050919050565b600082825260208201905092915050565b6000819050602082019050919050565b6149c181614719565b82525050565b60006149d383836149b8565b60208301905092915050565b6000602082019050919050565b60006149f78261498c565b614a018185614997565b9350614a0c836149a8565b8060005b83811015614a3d578151614a2488826149c7565b9750614a2f836149df565b925050600181019050614a10565b5085935050505092915050565b60006040820190508181036000830152614a64818561492e565b90508181036020830152614a7881846149ec565b90509392505050565b60008060408385031215614a9857614a97614757565b5b6000614aa68582860161482d565b9250506020614ab78582860161482d565b9150509250929050565b600080fd5b600080fd5b6000601f19601f8301169050919050565b7f4e487b7100000000000000000000000000000000000000000000000000000000600052604160045260246000fd5b614b1482614acb565b810181811067ffffffffffffffff82111715614b3357614b32614adc565b5b80604052505050565b6000614b4661474d565b9050614b528282614b0b565b919050565b600067ffffffffffffffff821115614b7257614b71614adc565b5b614b7b82614acb565b9050602081019050919050565b82818337600083830152505050565b6000614baa614ba584614b57565b614b3c565b905082815260208101848484011115614bc657614bc5614ac6565b5b614bd1848285614b88565b509392505050565b600082601f830112614bee57614bed614ac1565b5b8135614bfe848260208601614b97565b91505092915050565b60008060408385031215614c1e57614c1d614757565b5b6000614c2c8582860161482d565b925050602083013567ffffffffffffffff811115614c4d57614c4c61475c565b5b614c5985828601614bd9565b9150509250929050565b600080600060608486031215614c7c57614c7b614757565b5b6000614c8a8682870161482d565b9350506020614c9b8682870161482d565b9250506040614cac8682870161482d565b9150509250925092565b6000608082019050614ccb6000830187614723565b614cd86020830186614723565b614ce56040830185614723565b614cf26060830184614723565b95945050505050565b6000819050919050565b6000614d20614d1b614d16846147ba565b614cfb565b6147ba565b9050919050565b6000614d3282614d05565b9050919050565b6000614d4482614d27565b9050919050565b614d5481614d39565b82525050565b6000602082019050614d6f6000830184614d4b565b92915050565b600080600060608486031215614d8e57614d8d614757565b5b6000614d9c86828701614778565b9350506020614dad86828701614778565b9250506040614dbe86828701614778565b9150509250925092565b6000614dd382614d27565b9050919050565b614de381614dc8565b82525050565b6000602082019050614dfe6000830184614dda565b92915050565b6000604082019050614e196000830185614723565b614e266020830184614723565b9392505050565b6000614e3882614d27565b9050919050565b614e4881614e2d565b82525050565b6000602082019050614e636000830184614e3f565b92915050565b60008060408385031215614e8057614e7f614757565b5b6000614e8e85828601614778565b9250506020614e9f8582860161482d565b9150509250929050565b600082825260208201905092915050565b7f46756e6374696f6e206d7573742062652063616c6c6564207468726f7567682060008201527f64656c656761746563616c6c0000000000000000000000000000000000000000602082015250565b6000614f16602c83614ea9565b9150614f2182614eba565b604082019050919050565b60006020820190508181036000830152614f4581614f09565b9050919050565b7f46756e6374696f6e206d7573742062652063616c6c6564207468726f7567682060008201527f6163746976652070726f78790000000000000000000000000000000000000000602082015250565b6000614fa8602c83614ea9565b9150614fb382614f4c565b604082019050919050565b60006020820190508181036000830152614fd781614f9b565b9050919050565b8082525050565b6000602082019050614ffa6000830184614fde565b92915050565b60008151905061500f81614761565b92915050565b60006020828403121561502b5761502a614757565b5b600061503984828501615000565b91505092915050565b60008151905061505181614816565b92915050565b60006020828403121561506d5761506c614757565b5b600061507b84828501615042565b91505092915050565b7f4e487b7100000000000000000000000000000000000000000000000000000000600052603260045260246000fd5b7f4e487b7100000000000000000000000000000000000000000000000000000000600052601160045260246000fd5b60006150ed82614719565b91506150f883614719565b92508282101561510b5761510a6150b3565b5b828203905092915050565b600061512182614719565b91507fffffffffffffffffffffffffffffffffffffffffffffffffffffffffffffffff821415615154576151536150b3565b5b600182019050919050565b7f496e697469616c697a61626c653a20636f6e747261637420697320616c72656160008201527f647920696e697469616c697a6564000000000000000000000000000000000000602082015250565b60006151bb602e83614ea9565b91506151c68261515f565b604082019050919050565b600060208201905081810360008301526151ea816151ae565b9050919050565b6151fa816147da565b82525050565b61520981614719565b82525050565b600060a0820190506152246000830188614fde565b61523160208301876151f1565b61523e6040830186615200565b61524b60608301856151f1565b61525860808301846151f1565b9695505050505050565b60006040820190506152776000830185614fde565b61528460208301846151f1565b9392505050565b61529481614898565b811461529f57600080fd5b50565b6000815190506152b18161528b565b92915050565b6000602082840312156152cd576152cc614757565b5b60006152db848285016152a2565b91505092915050565b60006060820190506152f960008301866147ec565b6153066020830185614723565b6153136040830184614723565b949350505050565b7f4f776e61626c653a2063616c6c6572206973206e6f7420746865206f776e6572600082015250565b6000615351602083614ea9565b915061535c8261531b565b602082019050919050565b6000602082019050818103600083015261538081615344565b9050919050565b6000806000606084860312156153a05761539f614757565b5b60006153ae86828701615000565b93505060206153bf86828701615000565b92505060406153d086828701615000565b9150509250925092565b7f4e487b7100000000000000000000000000000000000000000000000000000000600052601260045260246000fd5b600061541482614719565b915061541f83614719565b92508261542f5761542e6153da565b5b828204905092915050565b600061544582614719565b915061545083614719565b9250817fffffffffffffffffffffffffffffffffffffffffffffffffffffffffffffffff0483118215151615615489576154886150b3565b5b828202905092915050565b600061549f82614719565b91506154aa83614719565b9250827fffffffffffffffffffffffffffffffffffffffffffffffffffffffffffffffff038211156154df576154de6150b3565b5b828201905092915050565b7f4f776e61626c653a206e6577206f776e657220697320746865207a65726f206160008201527f6464726573730000000000000000000000000000000000000000000000000000602082015250565b6000615546602683614ea9565b9150615551826154ea565b604082019050919050565b6000602082019050818103600083015261557581615539565b9050919050565b7f45524331393637557067726164653a207570677261646520627265616b73206660008201527f7572746865722075706772616465730000000000000000000000000000000000602082015250565b60006155d8602f83614ea9565b91506155e38261557c565b604082019050919050565b60006020820190508181036000830152615607816155cb565b9050919050565b60006080820190506156236000830187614fde565b61563060208301866151f1565b61563d6040830185615200565b61564a6060830184615200565b95945050505050565b6000806040838503121561566a57615669614757565b5b600061567885828601615042565b925050602061568985828601615042565b9150509250929050565b7f496e697469616c697a61626c653a20636f6e7472616374206973206e6f74206960008201527f6e697469616c697a696e67000000000000000000000000000000000000000000602082015250565b60006156ef602b83614ea9565b91506156fa82615693565b604082019050919050565b6000602082019050818103600083015261571e816156e2565b9050919050565b6000608082019050818103600083015261573f818761492e565b90508181036020830152615753818661492e565b9050818103604083015261576781856149ec565b9050818103606083015261577b81846149ec565b905095945050505050565b7f455243313936373a206e657720696d706c656d656e746174696f6e206973206e60008201527f6f74206120636f6e747261637400000000000000000000000000000000000000602082015250565b60006157e2602d83614ea9565b91506157ed82615786565b604082019050919050565b60006020820190508181036000830152615811816157d5565b9050919050565b7f4e487b7100000000000000000000000000000000000000000000000000000000600052603160045260246000fd5b7f416464726573733a2064656c65676174652063616c6c20746f206e6f6e2d636f60008201527f6e74726163740000000000000000000000000000000000000000000000000000602082015250565b60006158a3602683614ea9565b91506158ae82615847565b604082019050919050565b600060208201905081810360008301526158d281615896565b9050919050565b600081519050919050565b600081905092915050565b60005b8381101561590d5780820151818401526020810190506158f2565b8381111561591c576000848401525b50505050565b600061592d826158d9565b61593781856158e4565b93506159478185602086016158ef565b80840191505092915050565b600061595f8284615922565b915081905092915050565b600081519050919050565b60006159808261596a565b61598a8185614ea9565b935061599a8185602086016158ef565b6159a381614acb565b840191505092915050565b600060208201905081810360008301526159c88184615975565b90509291505056fe416464726573733a206c6f772d6c6576656c2064656c65676174652063616c6c206661696c6564a2646970667358221220a1703fc71954cbb1a1560d4385dc2ddecc730aa26a4d16d5f09db1ec2697648464736f6c634300080b0033",
  "deployedBytecode": "0x6080604052600436106101f95760003560e01c8063885640db1161010d578063c1fa411a116100a0578063d2a2ce5d1161006f578063d2a2ce5d1461071c578063dcdab02a14610747578063e0cd8d2714610770578063eccacf7f146107ae578063f2fde38b146107d9576101f9565b8063c1fa411a14610671578063c5728c831461069c578063cf009f7a146106c8578063d0ebdbe7146106f3576101f9565b8063a3f16ef1116100dc578063a3f16ef1146105b6578063afc97578146105e1578063b52d326c1461060a578063be982c3114610633576101f9565b8063885640db146104fc5780638da5cb5b1461052557806393739a93146105505780639f8a13d714610579576101f9565b80634f1ef286116101905780635dab24201161015f5780635dab2420146104285780636fe958d814610453578063715018a61461047c578063724e61d01461049357806385a92cb7146104bf576101f9565b80634f1ef2861461038a5780634fc517eb146103a65780635145b0ad146103d157806354255be0146103fa576101f9565b80633659cfe6116101cc5780633659cfe6146102cf57806336691a41146102f8578063481c6a7514610336578063485cc95514610361576101f9565b80630c29aab2146101fe5780630f8f0fcc146102295780632863f68c146102665780632de2c5ac146102a4575b600080fd5b34801561020a57600080fd5b50610213610802565b6040516102209190614732565b60405180910390f35b34801561023557600080fd5b50610250600480360381019061024b919061478d565b610808565b60405161025d91906147fb565b60405180910390f35b34801561027257600080fd5b5061028d60048036038101906102889190614842565b610825565b60405161029b92919061486f565b60405180910390f35b3480156102b057600080fd5b506102b961084c565b6040516102c691906148b3565b60405180910390f35b3480156102db57600080fd5b506102f660048036038101906102f19190614842565b61085f565b005b34801561030457600080fd5b5061031f600480360381019061031a919061478d565b6109e8565b60405161032d929190614a4a565b60405180910390f35b34801561034257600080fd5b5061034b61130d565b60405161035891906147fb565b60405180910390f35b34801561036d57600080fd5b5061038860048036038101906103839190614a81565b611333565b005b6103a4600480360381019061039f9190614c07565b6114a4565b005b3480156103b257600080fd5b506103bb6115e1565b6040516103c89190614732565b60405180910390f35b3480156103dd57600080fd5b506103f860048036038101906103f39190614c63565b6115e7565b005b34801561040657600080fd5b5061040f611770565b60405161041f9493929190614cb6565b60405180910390f35b34801561043457600080fd5b5061043d61178a565b60405161044a9190614d5a565b60405180910390f35b34801561045f57600080fd5b5061047a60048036038101906104759190614a81565b6117b0565b005b34801561048857600080fd5b50610491611ab7565b005b34801561049f57600080fd5b506104a8611b3f565b6040516104b692919061486f565b60405180910390f35b3480156104cb57600080fd5b506104e660048036038101906104e19190614842565b611bdf565b6040516104f39190614732565b60405180910390f35b34801561050857600080fd5b50610523600480360381019061051e9190614d75565b611bf7565b005b34801561053157600080fd5b5061053a611c8d565b60405161054791906147fb565b60405180910390f35b34801561055c57600080fd5b5061057760048036038101906105729190614842565b611cb7565b005b34801561058557600080fd5b506105a0600480360381019061059b9190614842565b611d3f565b6040516105ad91906148b3565b60405180910390f35b3480156105c257600080fd5b506105cb611dc5565b6040516105d89190614de9565b60405180910390f35b3480156105ed57600080fd5b5061060860048036038101906106039190614c63565b611deb565b005b34801561061657600080fd5b50610631600480360381019061062c9190614c63565b6122ca565b005b34801561063f57600080fd5b5061065a60048036038101906106559190614842565b6124e3565b604051610668929190614e04565b60405180910390f35b34801561067d57600080fd5b5061068661269e565b6040516106939190614732565b60405180910390f35b3480156106a857600080fd5b506106b1612720565b6040516106bf92919061486f565b60405180910390f35b3480156106d457600080fd5b506106dd6127c1565b6040516106ea9190614e4e565b60405180910390f35b3480156106ff57600080fd5b5061071a60048036038101906107159190614842565b6127e7565b005b34801561072857600080fd5b5061073161286f565b60405161073e9190614732565b60405180910390f35b34801561075357600080fd5b5061076e60048036038101906107699190614842565b612880565b005b34801561077c57600080fd5b5061079760048036038101906107929190614e69565b61296a565b6040516107a5929190614a4a565b60405180910390f35b3480156107ba57600080fd5b506107c3612a70565b6040516107d09190614732565b60405180910390f35b3480156107e557600080fd5b5061080060048036038101906107fb9190614842565b612a76565b005b60715481565b600061081e826074612b9190919063ffffffff16565b9050919050565b60008061083c836066612bab90919063ffffffff16565b9091508092508193505050915091565b607360009054906101000a900460ff1681565b7f000000000000000000000000000000000000000000000000000000000000000073ffffffffffffffffffffffffffffffffffffffff163073ffffffffffffffffffffffffffffffffffffffff1614156108ee576040517f08c379a00000000000000000000000000000000000000000000000000000000081526004016108e590614f2c565b60405180910390fd5b7f000000000000000000000000000000000000000000000000000000000000000073ffffffffffffffffffffffffffffffffffffffff1661092d612c06565b73ffffffffffffffffffffffffffffffffffffffff1614610983576040517f08c379a000000000000000000000000000000000000000000000000000000000815260040161097a90614fbe565b60405180910390fd5b61098c81612c5d565b6109e581600067ffffffffffffffff8111156109ab576109aa614adc565b5b6040519080825280601f01601f1916602001820160405280156109dd5781602001600182028036833780820191505090505b506000612cdc565b50565b6060803373ffffffffffffffffffffffffffffffffffffffff16606560009054906101000a900473ffffffffffffffffffffffffffffffffffffffff1673ffffffffffffffffffffffffffffffffffffffff1614158015610a9757503373ffffffffffffffffffffffffffffffffffffffff16606d60009054906101000a900473ffffffffffffffffffffffffffffffffffffffff1673ffffffffffffffffffffffffffffffffffffffff1614155b15610ad957336040517f79eaeb2b000000000000000000000000000000000000000000000000000000008152600401610ad091906147fb565b60405180910390fd5b6000606673__$18085dca7c6a2f09a309a1b54006aa0b25$__6365da149690916040518263ffffffff1660e01b8152600401610b159190614fe5565b602060405180830381865af4158015610b32573d6000803e3d6000fd5b505050506040513d601f19601f82011682018060405250810190610b569190615015565b1415610b8e576040517f7818a60e00000000000000000000000000000000000000000000000000000000815260040160405180910390fd5b6000610c16607054606673__$18085dca7c6a2f09a309a1b54006aa0b25$__6365da149690916040518263ffffffff1660e01b8152600401610bd09190614fe5565b602060405180830381865af4158015610bed573d6000803e3d6000fd5b505050506040513d601f19601f82011682018060405250810190610c119190615015565b612ead565b905060008167ffffffffffffffff811115610c3457610c33614adc565b5b604051908082528060200260200182016040528015610c625781602001602082028036833780820191505090505b50905060008267ffffffffffffffff811115610c8157610c80614adc565b5b604051908082528060200260200182016040528015610caf5781602001602082028036833780820191505090505b5090506000606673__$18085dca7c6a2f09a309a1b54006aa0b25$__630c8f298790916040518263ffffffff1660e01b8152600401610cee9190614fe5565b602060405180830381865af4158015610d0b573d6000803e3d6000fd5b505050506040513d601f19601f82011682018060405250810190610d2f9190615057565b905060005b8481108015610d44575060008814155b8015610d7d5750600073ffffffffffffffffffffffffffffffffffffffff168273ffffffffffffffffffffffffffffffffffffffff1614155b1561117257610f0a610f04606c60009054906101000a900473ffffffffffffffffffffffffffffffffffffffff1673ffffffffffffffffffffffffffffffffffffffff1663acd201d0856040518263ffffffff1660e01b8152600401610de391906147fb565b602060405180830381865afa158015610e00573d6000803e3d6000fd5b505050506040513d601f19601f82011682018060405250810190610e249190615015565b606560009054906101000a900473ffffffffffffffffffffffffffffffffffffffff1673ffffffffffffffffffffffffffffffffffffffff16630567847f606e60008873ffffffffffffffffffffffffffffffffffffffff1673ffffffffffffffffffffffffffffffffffffffff168152602001908152602001600020546040518263ffffffff1660e01b8152600401610ebe9190614732565b602060405180830381865afa158015610edb573d6000803e3d6000fd5b505050506040513d601f19601f82011682018060405250810190610eff9190615015565b612ead565b89612ead565b838281518110610f1d57610f1c615084565b5b60200260200101818152505081848281518110610f3d57610f3c615084565b5b602002602001019073ffffffffffffffffffffffffffffffffffffffff16908173ffffffffffffffffffffffffffffffffffffffff1681525050828181518110610f8a57610f89615084565b5b602002602001015188610f9d91906150e2565b975061106082606560009054906101000a900473ffffffffffffffffffffffffffffffffffffffff1673ffffffffffffffffffffffffffffffffffffffff1663c494ec1e868581518110610ff457610ff3615084565b5b60200260200101516040518263ffffffff1660e01b81526004016110189190614732565b602060405180830381865afa158015611035573d6000803e3d6000fd5b505050506040513d601f19601f820116820180604052508101906110599190615015565b6000612ec6565b6110ab82606e60008573ffffffffffffffffffffffffffffffffffffffff1673ffffffffffffffffffffffffffffffffffffffff168152602001908152602001600020546000612fb5565b607360009054906101000a900460ff161561114257606673__$18085dca7c6a2f09a309a1b54006aa0b25$__630c8f298790916040518263ffffffff1660e01b81526004016110fa9190614fe5565b602060405180830381865af4158015611117573d6000803e3d6000fd5b505050506040513d601f19601f8201168201806040525081019061113b9190615057565b915061115f565b611156826066612bab90919063ffffffff16565b90915050809250505b808061116a90615116565b915050610d34565b600088146111ac576040517f2e6c1bf900000000000000000000000000000000000000000000000000000000815260040160405180910390fd5b8067ffffffffffffffff8111156111c6576111c5614adc565b5b6040519080825280602002602001820160405280156111f45781602001602082028036833780820191505090505b5096508067ffffffffffffffff81111561121157611210614adc565b5b60405190808252806020026020018201604052801561123f5781602001602082028036833780820191505090505b50955060005b81811015611302578481815181106112605761125f615084565b5b602002602001015188828151811061127b5761127a615084565b5b602002602001019073ffffffffffffffffffffffffffffffffffffffff16908173ffffffffffffffffffffffffffffffffffffffff16815250508381815181106112c8576112c7615084565b5b60200260200101518782815181106112e3576112e2615084565b5b60200260200101818152505080806112fa90615116565b915050611245565b505050505050915091565b606560009054906101000a900473ffffffffffffffffffffffffffffffffffffffff1681565b600060019054906101000a900460ff1661135b5760008054906101000a900460ff1615611364565b611363613269565b5b6113a3576040517f08c379a000000000000000000000000000000000000000000000000000000000815260040161139a906151d1565b60405180910390fd5b60008060019054906101000a900460ff1615905080156113f3576001600060016101000a81548160ff02191690831515021790555060016000806101000a81548160ff0219169083151502179055505b6113fc8361327a565b61140582613340565b6008606f819055506008607081905550600a6072819055506001607360006101000a81548160ff0219169083151502179055507fb930683f0749189780c4016ec37d019eb0cbbf6550ce7374fac5cfbae93909a7607360009054906101000a900460ff1660405161147691906148b3565b60405180910390a1801561149f5760008060016101000a81548160ff0219169083151502179055505b505050565b7f000000000000000000000000000000000000000000000000000000000000000073ffffffffffffffffffffffffffffffffffffffff163073ffffffffffffffffffffffffffffffffffffffff161415611533576040517f08c379a000000000000000000000000000000000000000000000000000000000815260040161152a90614f2c565b60405180910390fd5b7f000000000000000000000000000000000000000000000000000000000000000073ffffffffffffffffffffffffffffffffffffffff16611572612c06565b73ffffffffffffffffffffffffffffffffffffffff16146115c8576040517f08c379a00000000000000000000000000000000000000000000000000000000081526004016115bf90614fbe565b60405180910390fd5b6115d182612c5d565b6115dd82826001612cdc565b5050565b606f5481565b6115fb83607461339b90919063ffffffff16565b611631576040517f0a1f2c0e00000000000000000000000000000000000000000000000000000000815260040160405180910390fd5b606673__$18085dca7c6a2f09a309a1b54006aa0b25$__63cab455ae909185606e60008873ffffffffffffffffffffffffffffffffffffffff1673ffffffffffffffffffffffffffffffffffffffff1681526020019081526020016000205486866040518663ffffffff1660e01b81526004016116b295949392919061520f565b60006040518083038186803b1580156116ca57600080fd5b505af41580156116de573d6000803e3d6000fd5b505050506116f68360746133cb90919063ffffffff16565b50600061170360746133fb565b141561176b576001607360006101000a81548160ff0219169083151502179055507fb930683f0749189780c4016ec37d019eb0cbbf6550ce7374fac5cfbae93909a7607360009054906101000a900460ff1660405161176291906148b3565b60405180910390a15b505050565b600080600080600180600080935093509350935090919293565b606c60009054906101000a900473ffffffffffffffffffffffffffffffffffffffff1681565b606673__$18085dca7c6a2f09a309a1b54006aa0b25$__6302f130289091846040518363ffffffff1660e01b81526004016117ec929190615262565b602060405180830381865af4158015611809573d6000803e3d6000fd5b505050506040513d601f19601f8201168201806040525081019061182d91906152b7565b61186e57816040517fdc1b434d00000000000000000000000000000000000000000000000000000000815260040161186591906147fb565b60405180910390fd5b606673__$18085dca7c6a2f09a309a1b54006aa0b25$__6302f130289091836040518363ffffffff1660e01b81526004016118aa929190615262565b602060405180830381865af41580156118c7573d6000803e3d6000fd5b505050506040513d601f19601f820116820180604052508101906118eb91906152b7565b61192c57806040517f5a08158400000000000000000000000000000000000000000000000000000000815260040161192391906147fb565b60405180910390fd5b600080611938846124e3565b91509150818111611984578381836040517f8b0123bf00000000000000000000000000000000000000000000000000000000815260040161197b939291906152e4565b60405180910390fd5b600080611990856124e3565b915091508181106119dc578481836040517f845286390000000000000000000000000000000000000000000000000000000081526004016119d3939291906152e4565b60405180910390fd5b60006119fe85856119ed91906150e2565b83856119f991906150e2565b612ead565b9050611a0c87826000612ec6565b611a1886826001612ec6565b611a6387606e60008a73ffffffffffffffffffffffffffffffffffffffff1673ffffffffffffffffffffffffffffffffffffffff168152602001908152602001600020546000612fb5565b611aae86606e60008973ffffffffffffffffffffffffffffffffffffffff1673ffffffffffffffffffffffffffffffffffffffff168152602001908152602001600020546001612fb5565b50505050505050565b611abf613410565b73ffffffffffffffffffffffffffffffffffffffff16611add611c8d565b73ffffffffffffffffffffffffffffffffffffffff1614611b33576040517f08c379a0000000000000000000000000000000000000000000000000000000008152600401611b2a90615367565b60405180910390fd5b611b3d600061327a565b565b600080606673__$18085dca7c6a2f09a309a1b54006aa0b25$__630c8f298790916040518263ffffffff1660e01b8152600401611b7c9190614fe5565b602060405180830381865af4158015611b99573d6000803e3d6000fd5b505050506040513d601f19601f82011682018060405250810190611bbd9190615057565b9150611bd3826066612bab90919063ffffffff16565b90915050809150509091565b606e6020528060005260406000206000915090505481565b611bff613410565b73ffffffffffffffffffffffffffffffffffffffff16611c1d611c8d565b73ffffffffffffffffffffffffffffffffffffffff1614611c73576040517f08c379a0000000000000000000000000000000000000000000000000000000008152600401611c6a90615367565b60405180910390fd5b82606f819055508160708190555080607281905550505050565b6000603360009054906101000a900473ffffffffffffffffffffffffffffffffffffffff16905090565b611cbf613410565b73ffffffffffffffffffffffffffffffffffffffff16611cdd611c8d565b73ffffffffffffffffffffffffffffffffffffffff1614611d33576040517f08c379a0000000000000000000000000000000000000000000000000000000008152600401611d2a90615367565b60405180910390fd5b611d3c81613418565b50565b6000606673__$18085dca7c6a2f09a309a1b54006aa0b25$__6302f130289091846040518363ffffffff1660e01b8152600401611d7d929190615262565b602060405180830381865af4158015611d9a573d6000803e3d6000fd5b505050506040513d601f19601f82011682018060405250810190611dbe91906152b7565b9050919050565b606b60009054906101000a900473ffffffffffffffffffffffffffffffffffffffff1681565b611df3613410565b73ffffffffffffffffffffffffffffffffffffffff16611e11611c8d565b73ffffffffffffffffffffffffffffffffffffffff1614611e67576040517f08c379a0000000000000000000000000000000000000000000000000000000008152600401611e5e90615367565b60405180910390fd5b606b60009054906101000a900473ffffffffffffffffffffffffffffffffffffffff1673ffffffffffffffffffffffffffffffffffffffff1663ac8f4425846040518263ffffffff1660e01b8152600401611ec291906147fb565b602060405180830381865afa158015611edf573d6000803e3d6000fd5b505050506040513d601f19601f82011682018060405250810190611f0391906152b7565b611f4457826040517f10a7bc6b000000000000000000000000000000000000000000000000000000008152600401611f3b91906147fb565b60405180910390fd5b606673__$18085dca7c6a2f09a309a1b54006aa0b25$__6302f130289091856040518363ffffffff1660e01b8152600401611f80929190615262565b602060405180830381865af4158015611f9d573d6000803e3d6000fd5b505050506040513d601f19601f82011682018060405250810190611fc191906152b7565b1561200357826040517fbd133eee000000000000000000000000000000000000000000000000000000008152600401611ffa91906147fb565b60405180910390fd5b600080606560009054906101000a900473ffffffffffffffffffffffffffffffffffffffff1673ffffffffffffffffffffffffffffffffffffffff1663c494ec1e606c60009054906101000a900473ffffffffffffffffffffffffffffffffffffffff1673ffffffffffffffffffffffffffffffffffffffff1663acd201d0886040518263ffffffff1660e01b815260040161209f91906147fb565b602060405180830381865afa1580156120bc573d6000803e3d6000fd5b505050506040513d601f19601f820116820180604052508101906120e09190615015565b6040518263ffffffff1660e01b81526004016120fc9190614732565b602060405180830381865afa158015612119573d6000803e3d6000fd5b505050506040513d601f19601f8201168201806040525081019061213d9190615015565b90506000811461220e576000606d60009054906101000a900473ffffffffffffffffffffffffffffffffffffffff1673ffffffffffffffffffffffffffffffffffffffff166356ab819f876040518263ffffffff1660e01b81526004016121a491906147fb565b606060405180830381865afa1580156121c1573d6000803e3d6000fd5b505050506040513d601f19601f820116820180604052508101906121e59190615387565b505090506121f38282612ead565b826121fe91906150e2565b925061220c86846001612ec6565b505b606673__$18085dca7c6a2f09a309a1b54006aa0b25$__632dedbbf09091878588886040518663ffffffff1660e01b815260040161225095949392919061520f565b60006040518083038186803b15801561226857600080fd5b505af415801561227c573d6000803e3d6000fd5b505050508473ffffffffffffffffffffffffffffffffffffffff167f0503b4748a47435f2432d46ef300e0e2dc47baa0e5f04bb3bd8a355ee1e1dbe660405160405180910390a25050505050565b6122d2613410565b73ffffffffffffffffffffffffffffffffffffffff166122f0611c8d565b73ffffffffffffffffffffffffffffffffffffffff1614612346576040517f08c379a000000000000000000000000000000000000000000000000000000000815260040161233d90615367565b60405180910390fd5b600073ffffffffffffffffffffffffffffffffffffffff168373ffffffffffffffffffffffffffffffffffffffff1614806123ad5750600073ffffffffffffffffffffffffffffffffffffffff168273ffffffffffffffffffffffffffffffffffffffff16145b806123e45750600073ffffffffffffffffffffffffffffffffffffffff168173ffffffffffffffffffffffffffffffffffffffff16145b1561241b576040517f0855380c00000000000000000000000000000000000000000000000000000000815260040160405180910390fd5b81606b60006101000a81548173ffffffffffffffffffffffffffffffffffffffff021916908373ffffffffffffffffffffffffffffffffffffffff16021790555080606d60006101000a81548173ffffffffffffffffffffffffffffffffffffffff021916908373ffffffffffffffffffffffffffffffffffffffff16021790555082606c60006101000a81548173ffffffffffffffffffffffffffffffffffffffff021916908373ffffffffffffffffffffffffffffffffffffffff160217905550505050565b6000806000606673__$18085dca7c6a2f09a309a1b54006aa0b25$__630c8f298790916040518263ffffffff1660e01b81526004016125229190614fe5565b602060405180830381865af415801561253f573d6000803e3d6000fd5b505050506040513d601f19601f820116820180604052508101906125639190615057565b90506000606673__$18085dca7c6a2f09a309a1b54006aa0b25$__6365da149690916040518263ffffffff1660e01b81526004016125a19190614fe5565b602060405180830381865af41580156125be573d6000803e3d6000fd5b505050506040513d601f19601f820116820180604052508101906125e29190615015565b9050806071546125f29190615409565b93508173ffffffffffffffffffffffffffffffffffffffff168573ffffffffffffffffffffffffffffffffffffffff1614156126555760008185612636919061543a565b60715461264391906150e2565b905080856126519190615494565b9450505b606e60008673ffffffffffffffffffffffffffffffffffffffff1673ffffffffffffffffffffffffffffffffffffffff1681526020019081526020016000205492505050915091565b6000606673__$18085dca7c6a2f09a309a1b54006aa0b25$__6365da149690916040518263ffffffff1660e01b81526004016126da9190614fe5565b602060405180830381865af41580156126f7573d6000803e3d6000fd5b505050506040513d601f19601f8201168201806040525081019061271b9190615015565b905090565b600080606673__$18085dca7c6a2f09a309a1b54006aa0b25$__6349923bff90916040518263ffffffff1660e01b815260040161275d9190614fe5565b602060405180830381865af415801561277a573d6000803e3d6000fd5b505050506040513d601f19601f8201168201806040525081019061279e9190615057565b91506127b4826066612bab90919063ffffffff16565b9091509050809150509091565b606d60009054906101000a900473ffffffffffffffffffffffffffffffffffffffff1681565b6127ef613410565b73ffffffffffffffffffffffffffffffffffffffff1661280d611c8d565b73ffffffffffffffffffffffffffffffffffffffff1614612863576040517f08c379a000000000000000000000000000000000000000000000000000000000815260040161285a90615367565b60405180910390fd5b61286c816138e3565b50565b600061287b60746133fb565b905090565b606b60009054906101000a900473ffffffffffffffffffffffffffffffffffffffff1673ffffffffffffffffffffffffffffffffffffffff1663ac8f4425826040518263ffffffff1660e01b81526004016128db91906147fb565b602060405180830381865afa1580156128f8573d6000803e3d6000fd5b505050506040513d601f19601f8201168201806040525081019061291c91906152b7565b1561295e57806040517fe3bd013b00000000000000000000000000000000000000000000000000000000815260040161295591906147fb565b60405180910390fd5b61296781613418565b50565b6060803373ffffffffffffffffffffffffffffffffffffffff16606560009054906101000a900473ffffffffffffffffffffffffffffffffffffffff1673ffffffffffffffffffffffffffffffffffffffff1614158015612a1957503373ffffffffffffffffffffffffffffffffffffffff16606d60009054906101000a900473ffffffffffffffffffffffffffffffffffffffff1673ffffffffffffffffffffffffffffffffffffffff1614155b15612a5b57336040517f79eaeb2b000000000000000000000000000000000000000000000000000000008152600401612a5291906147fb565b60405180910390fd5b612a6584846139d1565b915091509250929050565b60705481565b612a7e613410565b73ffffffffffffffffffffffffffffffffffffffff16612a9c611c8d565b73ffffffffffffffffffffffffffffffffffffffff1614612af2576040517f08c379a0000000000000000000000000000000000000000000000000000000008152600401612ae990615367565b60405180910390fd5b600073ffffffffffffffffffffffffffffffffffffffff168173ffffffffffffffffffffffffffffffffffffffff161415612b62576040517f08c379a0000000000000000000000000000000000000000000000000000000008152600401612b599061555c565b60405180910390fd5b612b6b8161327a565b50565b6000808273ffffffffffffffffffffffffffffffffffffffff163b119050919050565b6000612ba08360000183614190565b60001c905092915050565b600080600080612bcc612bbd866141bb565b876141e290919063ffffffff16565b905080604001519350806040015115612bfe57612bec8160000151614208565b9250612bfb8160200151614208565b91505b509250925092565b6000612c347f360894a13ba1a3210667c828492db98dca3e2076cc3735a920a3ca505d382bbc60001b614219565b60000160009054906101000a900473ffffffffffffffffffffffffffffffffffffffff16905090565b612c65613410565b73ffffffffffffffffffffffffffffffffffffffff16612c83611c8d565b73ffffffffffffffffffffffffffffffffffffffff1614612cd9576040517f08c379a0000000000000000000000000000000000000000000000000000000008152600401612cd090615367565b60405180910390fd5b50565b6000612ce6612c06565b9050612cf184614223565b600083511180612cfe5750815b15612d0f57612d0d84846142dc565b505b6000612d3d7f4910fdfa16fed3260ed0e7147f7cc6da11a60208b5b9406d12a635614ffd914360001b614309565b90508060000160009054906101000a900460ff16612ea65760018160000160006101000a81548160ff021916908315150217905550612e098583604051602401612d8791906147fb565b6040516020818303038152906040527f3659cfe6000000000000000000000000000000000000000000000000000000007bffffffffffffffffffffffffffffffffffffffffffffffffffffffff19166020820180517bffffffffffffffffffffffffffffffffffffffffffffffffffffffff83818316178352505050506142dc565b5060008160000160006101000a81548160ff021916908315150217905550612e2f612c06565b73ffffffffffffffffffffffffffffffffffffffff168273ffffffffffffffffffffffffffffffffffffffff1614612e9c576040517f08c379a0000000000000000000000000000000000000000000000000000000008152600401612e93906155ee565b60405180910390fd5b612ea585614313565b5b5050505050565b6000818310612ebc5781612ebe565b825b905092915050565b8015612f405781606e60008573ffffffffffffffffffffffffffffffffffffffff1673ffffffffffffffffffffffffffffffffffffffff1681526020019081526020016000206000828254612f1b9190615494565b925050819055508160716000828254612f349190615494565b92505081905550612fb0565b81606e60008573ffffffffffffffffffffffffffffffffffffffff1673ffffffffffffffffffffffffffffffffffffffff1681526020019081526020016000206000828254612f8f91906150e2565b925050819055508160716000828254612fa891906150e2565b925050819055505b505050565b612fc983607461339b90919063ffffffff16565b15612fd357613264565b6000808261306257606673__$18085dca7c6a2f09a309a1b54006aa0b25$__63a4aadfcc909187876072546040518563ffffffff1660e01b815260040161301d949392919061560e565b6040805180830381865af4158015613039573d6000803e3d6000fd5b505050506040513d601f19601f8201168201806040525081019061305d9190615653565b6130e5565b606673__$18085dca7c6a2f09a309a1b54006aa0b25$__6399f68a39909187876072546040518563ffffffff1660e01b81526004016130a4949392919061560e565b6040805180830381865af41580156130c0573d6000803e3d6000fd5b505050506040513d601f19601f820116820180604052508101906130e49190615653565b5b915091508073ffffffffffffffffffffffffffffffffffffffff168273ffffffffffffffffffffffffffffffffffffffff1614158061319e57506001606673__$18085dca7c6a2f09a309a1b54006aa0b25$__6365da149690916040518263ffffffff1660e01b815260040161315b9190614fe5565b602060405180830381865af4158015613178573d6000803e3d6000fd5b505050506040513d601f19601f8201168201806040525081019061319c9190615015565b145b1561321a57606673__$18085dca7c6a2f09a309a1b54006aa0b25$__63cab455ae9091878786866040518663ffffffff1660e01b81526004016131e595949392919061520f565b60006040518083038186803b1580156131fd57600080fd5b505af4158015613211573d6000803e3d6000fd5b50505050613261565b607360009054906101000a900460ff161561324b576000607360006101000a81548160ff0219169083151502179055505b61325f85607461436290919063ffffffff16565b505b50505b505050565b600061327430612b6e565b15905090565b6000603360009054906101000a900473ffffffffffffffffffffffffffffffffffffffff16905081603360006101000a81548173ffffffffffffffffffffffffffffffffffffffff021916908373ffffffffffffffffffffffffffffffffffffffff1602179055508173ffffffffffffffffffffffffffffffffffffffff168173ffffffffffffffffffffffffffffffffffffffff167f8be0079c531659141344cd1fd0a4f28419497f9722a3daafe3b4186f6b6457e060405160405180910390a35050565b600060019054906101000a900460ff1661338f576040517f08c379a000000000000000000000000000000000000000000000000000000000815260040161338690615705565b60405180910390fd5b613398816138e3565b50565b60006133c3836000018373ffffffffffffffffffffffffffffffffffffffff1660001b614392565b905092915050565b60006133f3836000018373ffffffffffffffffffffffffffffffffffffffff1660001b6143b5565b905092915050565b6000613409826000016144c9565b9050919050565b600033905090565b606673__$18085dca7c6a2f09a309a1b54006aa0b25$__6302f130289091836040518363ffffffff1660e01b8152600401613454929190615262565b602060405180830381865af4158015613471573d6000803e3d6000fd5b505050506040513d601f19601f8201168201806040525081019061349591906152b7565b6134d657806040517f1adbb1530000000000000000000000000000000000000000000000000000000081526004016134cd91906147fb565b60405180910390fd5b606673__$18085dca7c6a2f09a309a1b54006aa0b25$__63281359299091836040518363ffffffff1660e01b8152600401613512929190615262565b60006040518083038186803b15801561352a57600080fd5b505af415801561353e573d6000803e3d6000fd5b505050506135568160746133cb90919063ffffffff16565b506000606e60008373ffffffffffffffffffffffffffffffffffffffff1673ffffffffffffffffffffffffffffffffffffffff168152602001908152602001600020549050600081111561389c576135b082826000612ec6565b6000600167ffffffffffffffff8111156135cd576135cc614adc565b5b6040519080825280602002602001820160405280156135fb5781602001602082028036833780820191505090505b5090506000600167ffffffffffffffff81111561361b5761361a614adc565b5b6040519080825280602002602001820160405280156136495781602001602082028036833780820191505090505b509050838260008151811061366157613660615084565b5b602002602001019073ffffffffffffffffffffffffffffffffffffffff16908173ffffffffffffffffffffffffffffffffffffffff1681525050606560009054906101000a900473ffffffffffffffffffffffffffffffffffffffff1673ffffffffffffffffffffffffffffffffffffffff16630567847f846040518263ffffffff1660e01b81526004016136f69190614732565b602060405180830381865afa158015613713573d6000803e3d6000fd5b505050506040513d601f19601f820116820180604052508101906137379190615015565b8160008151811061374b5761374a615084565b5b602002602001018181525050600080613800606560009054906101000a900473ffffffffffffffffffffffffffffffffffffffff1673ffffffffffffffffffffffffffffffffffffffff16630567847f876040518263ffffffff1660e01b81526004016137b89190614732565b602060405180830381865afa1580156137d5573d6000803e3d6000fd5b505050506040513d601f19601f820116820180604052508101906137f99190615015565b60006139d1565b91509150606560009054906101000a900473ffffffffffffffffffffffffffffffffffffffff1673ffffffffffffffffffffffffffffffffffffffff16630c4d4e40858486856040518563ffffffff1660e01b81526004016138659493929190615725565b600060405180830381600087803b15801561387f57600080fd5b505af1158015613893573d6000803e3d6000fd5b50505050505050505b8173ffffffffffffffffffffffffffffffffffffffff167fa78a88a551e130ce9732be17784bdff12f72ab4a2c833fb2dcb3ef0818956b0360405160405180910390a25050565b600073ffffffffffffffffffffffffffffffffffffffff168173ffffffffffffffffffffffffffffffffffffffff16141561394a576040517fe99d5ac500000000000000000000000000000000000000000000000000000000815260040160405180910390fd5b80606560006101000a81548173ffffffffffffffffffffffffffffffffffffffff021916908373ffffffffffffffffffffffffffffffffffffffff1602179055508073ffffffffffffffffffffffffffffffffffffffff167f60a0f5b9f9e81e98216071b85826681c796256fe3d1354ecb675580fba64fa6960405160405180910390a250565b6060806000606673__$18085dca7c6a2f09a309a1b54006aa0b25$__6365da149690916040518263ffffffff1660e01b8152600401613a109190614fe5565b602060405180830381865af4158015613a2d573d6000803e3d6000fd5b505050506040513d601f19601f82011682018060405250810190613a519190615015565b1415613a89576040517f7818a60e00000000000000000000000000000000000000000000000000000000815260040160405180910390fd5b6000613b11606f54606673__$18085dca7c6a2f09a309a1b54006aa0b25$__6365da149690916040518263ffffffff1660e01b8152600401613acb9190614fe5565b602060405180830381865af4158015613ae8573d6000803e3d6000fd5b505050506040513d601f19601f82011682018060405250810190613b0c9190615015565b612ead565b905060008167ffffffffffffffff811115613b2f57613b2e614adc565b5b604051908082528060200260200182016040528015613b5d5781602001602082028036833780820191505090505b50905060008267ffffffffffffffff811115613b7c57613b7b614adc565b5b604051908082528060200260200182016040528015613baa5781602001602082028036833780820191505090505b5090506000606673__$18085dca7c6a2f09a309a1b54006aa0b25$__6349923bff90916040518263ffffffff1660e01b8152600401613be99190614fe5565b602060405180830381865af4158015613c06573d6000803e3d6000fd5b505050506040513d601f19601f82011682018060405250810190613c2a9190615057565b905060005b8481108015613c3f575060008914155b8015613c785750600073ffffffffffffffffffffffffffffffffffffffff168273ffffffffffffffffffffffffffffffffffffffff1614155b15613ff3576000606560009054906101000a900473ffffffffffffffffffffffffffffffffffffffff1673ffffffffffffffffffffffffffffffffffffffff16632c431058846040518263ffffffff1660e01b8152600401613cda91906147fb565b602060405180830381865afa158015613cf7573d6000803e3d6000fd5b505050506040513d601f19601f82011682018060405250810190613d1b9190615015565b90508873ffffffffffffffffffffffffffffffffffffffff168373ffffffffffffffffffffffffffffffffffffffff161480613d575750600081145b15613d7f57613d70836066612bab90919063ffffffff16565b90915090508093505050613c2f565b613d89818b612ead565b848381518110613d9c57613d9b615084565b5b60200260200101818152505082858381518110613dbc57613dbb615084565b5b602002602001019073ffffffffffffffffffffffffffffffffffffffff16908173ffffffffffffffffffffffffffffffffffffffff1681525050838281518110613e0957613e08615084565b5b60200260200101518a613e1c91906150e2565b9950613edf83606560009054906101000a900473ffffffffffffffffffffffffffffffffffffffff1673ffffffffffffffffffffffffffffffffffffffff1663c494ec1e878681518110613e7357613e72615084565b5b60200260200101516040518263ffffffff1660e01b8152600401613e979190614732565b602060405180830381865afa158015613eb4573d6000803e3d6000fd5b505050506040513d601f19601f82011682018060405250810190613ed89190615015565b6001612ec6565b613f2a83606e60008673ffffffffffffffffffffffffffffffffffffffff1673ffffffffffffffffffffffffffffffffffffffff168152602001908152602001600020546001612fb5565b607360009054906101000a900460ff1615613fc157606673__$18085dca7c6a2f09a309a1b54006aa0b25$__6349923bff90916040518263ffffffff1660e01b8152600401613f799190614fe5565b602060405180830381865af4158015613f96573d6000803e3d6000fd5b505050506040513d601f19601f82011682018060405250810190613fba9190615057565b9250613fdf565b613fd5836066612bab90919063ffffffff16565b9091509050809350505b8180613fea90615116565b92505050613c2f565b6000891461402d576040517f2e6c1bf900000000000000000000000000000000000000000000000000000000815260040160405180910390fd5b8067ffffffffffffffff81111561404757614046614adc565b5b6040519080825280602002602001820160405280156140755781602001602082028036833780820191505090505b5096508067ffffffffffffffff81111561409257614091614adc565b5b6040519080825280602002602001820160405280156140c05781602001602082028036833780820191505090505b50955060005b81811015614183578481815181106140e1576140e0615084565b5b60200260200101518882815181106140fc576140fb615084565b5b602002602001019073ffffffffffffffffffffffffffffffffffffffff16908173ffffffffffffffffffffffffffffffffffffffff168152505083818151811061414957614148615084565b5b602002602001015187828151811061416457614163615084565b5b602002602001018181525050808061417b90615116565b9150506140c6565b5050505050509250929050565b60008260000182815481106141a8576141a7615084565b5b9060005260206000200154905092915050565b600060608273ffffffffffffffffffffffffffffffffffffffff16901b60001b9050919050565b6141ea6146f0565b61420082846000016144da90919063ffffffff16565b905092915050565b600060608260001c901c9050919050565b6000819050919050565b61422c81614539565b61426b576040517f08c379a0000000000000000000000000000000000000000000000000000000008152600401614262906157f8565b60405180910390fd5b806142987f360894a13ba1a3210667c828492db98dca3e2076cc3735a920a3ca505d382bbc60001b614219565b60000160006101000a81548173ffffffffffffffffffffffffffffffffffffffff021916908373ffffffffffffffffffffffffffffffffffffffff16021790555050565b606061430183836040518060600160405280602781526020016159d16027913961454c565b905092915050565b6000819050919050565b61431c81614223565b8073ffffffffffffffffffffffffffffffffffffffff167fbc7cd75a20ee27fd9adebab32041f755214dbc6bffa90cc0225b39da2e5c2d3b60405160405180910390a250565b600061438a836000018373ffffffffffffffffffffffffffffffffffffffff1660001b614619565b905092915050565b600080836001016000848152602001908152602001600020541415905092915050565b600080836001016000848152602001908152602001600020549050600081146144bd5760006001826143e791906150e2565b90506000600186600001805490506143ff91906150e2565b905081811461446e5760008660000182815481106144205761441f615084565b5b906000526020600020015490508087600001848154811061444457614443615084565b5b90600052602060002001819055508387600101600083815260200190815260200160002081905550505b8560000180548061448257614481615818565b5b6001900381819060005260206000200160009055905585600101600086815260200190815260200160002060009055600193505050506144c3565b60009150505b92915050565b600081600001805490509050919050565b6144e26146f0565b82600301600083815260200190815260200160002060405180606001604052908160008201548152602001600182015481526020016002820160009054906101000a900460ff161515151581525050905092915050565b600080823b905060008111915050919050565b606061455784614539565b614596576040517f08c379a000000000000000000000000000000000000000000000000000000000815260040161458d906158b9565b60405180910390fd5b6000808573ffffffffffffffffffffffffffffffffffffffff16856040516145be9190615953565b600060405180830381855af49150503d80600081146145f9576040519150601f19603f3d011682016040523d82523d6000602084013e6145fe565b606091505b509150915061460e828286614689565b925050509392505050565b60006146258383614392565b61467e578260000182908060018154018082558091505060019003906000526020600020016000909190919091505582600001805490508360010160008481526020019081526020016000208190555060019050614683565b600090505b92915050565b60608315614699578290506146e9565b6000835111156146ac5782518084602001fd5b816040517f08c379a00000000000000000000000000000000000000000000000000000000081526004016146e091906159ae565b60405180910390fd5b9392505050565b604051806060016040528060008019168152602001600080191681526020016000151581525090565b6000819050919050565b61472c81614719565b82525050565b60006020820190506147476000830184614723565b92915050565b6000604051905090565b600080fd5b600080fd5b61476a81614719565b811461477557600080fd5b50565b60008135905061478781614761565b92915050565b6000602082840312156147a3576147a2614757565b5b60006147b184828501614778565b91505092915050565b600073ffffffffffffffffffffffffffffffffffffffff82169050919050565b60006147e5826147ba565b9050919050565b6147f5816147da565b82525050565b600060208201905061481060008301846147ec565b92915050565b61481f816147da565b811461482a57600080fd5b50565b60008135905061483c81614816565b92915050565b60006020828403121561485857614857614757565b5b60006148668482850161482d565b91505092915050565b600060408201905061488460008301856147ec565b61489160208301846147ec565b9392505050565b60008115159050919050565b6148ad81614898565b82525050565b60006020820190506148c860008301846148a4565b92915050565b600081519050919050565b600082825260208201905092915050565b6000819050602082019050919050565b614903816147da565b82525050565b600061491583836148fa565b60208301905092915050565b6000602082019050919050565b6000614939826148ce565b61494381856148d9565b935061494e836148ea565b8060005b8381101561497f5781516149668882614909565b975061497183614921565b925050600181019050614952565b5085935050505092915050565b600081519050919050565b600082825260208201905092915050565b6000819050602082019050919050565b6149c181614719565b82525050565b60006149d383836149b8565b60208301905092915050565b6000602082019050919050565b60006149f78261498c565b614a018185614997565b9350614a0c836149a8565b8060005b83811015614a3d578151614a2488826149c7565b9750614a2f836149df565b925050600181019050614a10565b5085935050505092915050565b60006040820190508181036000830152614a64818561492e565b90508181036020830152614a7881846149ec565b90509392505050565b60008060408385031215614a9857614a97614757565b5b6000614aa68582860161482d565b9250506020614ab78582860161482d565b9150509250929050565b600080fd5b600080fd5b6000601f19601f8301169050919050565b7f4e487b7100000000000000000000000000000000000000000000000000000000600052604160045260246000fd5b614b1482614acb565b810181811067ffffffffffffffff82111715614b3357614b32614adc565b5b80604052505050565b6000614b4661474d565b9050614b528282614b0b565b919050565b600067ffffffffffffffff821115614b7257614b71614adc565b5b614b7b82614acb565b9050602081019050919050565b82818337600083830152505050565b6000614baa614ba584614b57565b614b3c565b905082815260208101848484011115614bc657614bc5614ac6565b5b614bd1848285614b88565b509392505050565b600082601f830112614bee57614bed614ac1565b5b8135614bfe848260208601614b97565b91505092915050565b60008060408385031215614c1e57614c1d614757565b5b6000614c2c8582860161482d565b925050602083013567ffffffffffffffff811115614c4d57614c4c61475c565b5b614c5985828601614bd9565b9150509250929050565b600080600060608486031215614c7c57614c7b614757565b5b6000614c8a8682870161482d565b9350506020614c9b8682870161482d565b9250506040614cac8682870161482d565b9150509250925092565b6000608082019050614ccb6000830187614723565b614cd86020830186614723565b614ce56040830185614723565b614cf26060830184614723565b95945050505050565b6000819050919050565b6000614d20614d1b614d16846147ba565b614cfb565b6147ba565b9050919050565b6000614d3282614d05565b9050919050565b6000614d4482614d27565b9050919050565b614d5481614d39565b82525050565b6000602082019050614d6f6000830184614d4b565b92915050565b600080600060608486031215614d8e57614d8d614757565b5b6000614d9c86828701614778565b9350506020614dad86828701614778565b9250506040614dbe86828701614778565b9150509250925092565b6000614dd382614d27565b9050919050565b614de381614dc8565b82525050565b6000602082019050614dfe6000830184614dda565b92915050565b6000604082019050614e196000830185614723565b614e266020830184614723565b9392505050565b6000614e3882614d27565b9050919050565b614e4881614e2d565b82525050565b6000602082019050614e636000830184614e3f565b92915050565b60008060408385031215614e8057614e7f614757565b5b6000614e8e85828601614778565b9250506020614e9f8582860161482d565b9150509250929050565b600082825260208201905092915050565b7f46756e6374696f6e206d7573742062652063616c6c6564207468726f7567682060008201527f64656c656761746563616c6c0000000000000000000000000000000000000000602082015250565b6000614f16602c83614ea9565b9150614f2182614eba565b604082019050919050565b60006020820190508181036000830152614f4581614f09565b9050919050565b7f46756e6374696f6e206d7573742062652063616c6c6564207468726f7567682060008201527f6163746976652070726f78790000000000000000000000000000000000000000602082015250565b6000614fa8602c83614ea9565b9150614fb382614f4c565b604082019050919050565b60006020820190508181036000830152614fd781614f9b565b9050919050565b8082525050565b6000602082019050614ffa6000830184614fde565b92915050565b60008151905061500f81614761565b92915050565b60006020828403121561502b5761502a614757565b5b600061503984828501615000565b91505092915050565b60008151905061505181614816565b92915050565b60006020828403121561506d5761506c614757565b5b600061507b84828501615042565b91505092915050565b7f4e487b7100000000000000000000000000000000000000000000000000000000600052603260045260246000fd5b7f4e487b7100000000000000000000000000000000000000000000000000000000600052601160045260246000fd5b60006150ed82614719565b91506150f883614719565b92508282101561510b5761510a6150b3565b5b828203905092915050565b600061512182614719565b91507fffffffffffffffffffffffffffffffffffffffffffffffffffffffffffffffff821415615154576151536150b3565b5b600182019050919050565b7f496e697469616c697a61626c653a20636f6e747261637420697320616c72656160008201527f647920696e697469616c697a6564000000000000000000000000000000000000602082015250565b60006151bb602e83614ea9565b91506151c68261515f565b604082019050919050565b600060208201905081810360008301526151ea816151ae565b9050919050565b6151fa816147da565b82525050565b61520981614719565b82525050565b600060a0820190506152246000830188614fde565b61523160208301876151f1565b61523e6040830186615200565b61524b60608301856151f1565b61525860808301846151f1565b9695505050505050565b60006040820190506152776000830185614fde565b61528460208301846151f1565b9392505050565b61529481614898565b811461529f57600080fd5b50565b6000815190506152b18161528b565b92915050565b6000602082840312156152cd576152cc614757565b5b60006152db848285016152a2565b91505092915050565b60006060820190506152f960008301866147ec565b6153066020830185614723565b6153136040830184614723565b949350505050565b7f4f776e61626c653a2063616c6c6572206973206e6f7420746865206f776e6572600082015250565b6000615351602083614ea9565b915061535c8261531b565b602082019050919050565b6000602082019050818103600083015261538081615344565b9050919050565b6000806000606084860312156153a05761539f614757565b5b60006153ae86828701615000565b93505060206153bf86828701615000565b92505060406153d086828701615000565b9150509250925092565b7f4e487b7100000000000000000000000000000000000000000000000000000000600052601260045260246000fd5b600061541482614719565b915061541f83614719565b92508261542f5761542e6153da565b5b828204905092915050565b600061544582614719565b915061545083614719565b9250817fffffffffffffffffffffffffffffffffffffffffffffffffffffffffffffffff0483118215151615615489576154886150b3565b5b828202905092915050565b600061549f82614719565b91506154aa83614719565b9250827fffffffffffffffffffffffffffffffffffffffffffffffffffffffffffffffff038211156154df576154de6150b3565b5b828201905092915050565b7f4f776e61626c653a206e6577206f776e657220697320746865207a65726f206160008201527f6464726573730000000000000000000000000000000000000000000000000000602082015250565b6000615546602683614ea9565b9150615551826154ea565b604082019050919050565b6000602082019050818103600083015261557581615539565b9050919050565b7f45524331393637557067726164653a207570677261646520627265616b73206660008201527f7572746865722075706772616465730000000000000000000000000000000000602082015250565b60006155d8602f83614ea9565b91506155e38261557c565b604082019050919050565b60006020820190508181036000830152615607816155cb565b9050919050565b60006080820190506156236000830187614fde565b61563060208301866151f1565b61563d6040830185615200565b61564a6060830184615200565b95945050505050565b6000806040838503121561566a57615669614757565b5b600061567885828601615042565b925050602061568985828601615042565b9150509250929050565b7f496e697469616c697a61626c653a20636f6e7472616374206973206e6f74206960008201527f6e697469616c697a696e67000000000000000000000000000000000000000000602082015250565b60006156ef602b83614ea9565b91506156fa82615693565b604082019050919050565b6000602082019050818103600083015261571e816156e2565b9050919050565b6000608082019050818103600083015261573f818761492e565b90508181036020830152615753818661492e565b9050818103604083015261576781856149ec565b9050818103606083015261577b81846149ec565b905095945050505050565b7f455243313936373a206e657720696d706c656d656e746174696f6e206973206e60008201527f6f74206120636f6e747261637400000000000000000000000000000000000000602082015250565b60006157e2602d83614ea9565b91506157ed82615786565b604082019050919050565b60006020820190508181036000830152615811816157d5565b9050919050565b7f4e487b7100000000000000000000000000000000000000000000000000000000600052603160045260246000fd5b7f416464726573733a2064656c65676174652063616c6c20746f206e6f6e2d636f60008201527f6e74726163740000000000000000000000000000000000000000000000000000602082015250565b60006158a3602683614ea9565b91506158ae82615847565b604082019050919050565b600060208201905081810360008301526158d281615896565b9050919050565b600081519050919050565b600081905092915050565b60005b8381101561590d5780820151818401526020810190506158f2565b8381111561591c576000848401525b50505050565b600061592d826158d9565b61593781856158e4565b93506159478185602086016158ef565b80840191505092915050565b600061595f8284615922565b915081905092915050565b600081519050919050565b60006159808261596a565b61598a8185614ea9565b935061599a8185602086016158ef565b6159a381614acb565b840191505092915050565b600060208201905081810360008301526159c88184615975565b90509291505056fe416464726573733a206c6f772d6c6576656c2064656c65676174652063616c6c206661696c6564a2646970667358221220a1703fc71954cbb1a1560d4385dc2ddecc730aa26a4d16d5f09db1ec2697648464736f6c634300080b0033",
  "libraries": {
    "AddressSortedLinkedList": "0x48B505F1c5b7300de070dA9c85324272FC65f187"
  },
  "devdoc": {
    "errors": {
      "CallerNotManager(address)": [
        {
          "params": {
            "caller": "`msg.sender` that called the function."
          }
        }
      ],
      "CallerNotManagerNorStrategy(address)": [
        {
          "params": {
            "caller": "`msg.sender` that called the function."
          }
        }
      ],
      "GroupAlreadyAdded(address)": [
        {
          "params": {
            "group": "The group's address."
          }
        }
      ],
      "GroupNotActive(address)": [
        {
          "params": {
            "group": "The group's address."
          }
        }
      ],
      "GroupNotEligible(address)": [
        {
          "params": {
            "group": "The group's address."
          }
        }
      ],
      "HealthyGroup(address)": [
        {
          "params": {
            "group": "The group's address."
          }
        }
      ],
      "InvalidFromGroup(address)": [
        {
          "params": {
            "group": "The group's address."
          }
        }
      ],
      "InvalidToGroup(address)": [
        {
          "params": {
            "group": "The group's address."
          }
        }
      ],
      "RebalanceEnoughStCelo(address,uint256,uint256)": [
        {
          "params": {
            "actualCelo": "The actual stCELO value.",
            "expectedCelo": "The expected stCELO value.",
            "group": "The group's address."
          }
        }
      ],
      "RebalanceNoExtraStCelo(address,uint256,uint256)": [
        {
          "params": {
            "actualCelo": "The actual stCELO value.",
            "expectedCelo": "The expected stCELO value.",
            "group": "The group's address."
          }
        }
      ]
    },
    "events": {
      "GroupActivated(address)": {
        "params": {
          "group": "The group's address."
        }
      },
      "GroupRemoved(address)": {
        "params": {
          "group": "The group's address."
        }
      },
      "SortedFlagUpdated(bool)": {
        "params": {
          "update": "The new value."
        }
      }
    },
    "kind": "dev",
    "methods": {
      "activateGroup(address,address,address)": {
        "params": {
          "greater": "The group receiving more votes (in default strategy) than `group`,  or 0 if `group` has the most votes of any validator group.",
          "group": "The address of the group to add to the set of votable groups.",
          "lesser": "The group receiving fewer votes (in default strategy) than `group`, or 0 if `group` has the fewest votes of any validator group."
        }
      },
      "deactivateGroup(address)": {
        "params": {
          "group": "The group to deactivated."
        }
      },
      "deactivateUnhealthyGroup(address)": {
        "params": {
          "group": "The group to deactivate if unhealthy."
        }
      },
      "generateDepositVoteDistribution(uint256,address)": {
        "params": {
          "celoAmount": "The amount of votes to distribute.",
          "depositGroupToIgnore": "The group that will not be used for deposit."
        },
        "returns": {
          "finalGroups": "The groups that were chosen for distribution.",
          "finalVotes": "The votes of chosen finalGroups."
        }
      },
      "generateWithdrawalVoteDistribution(uint256)": {
        "params": {
          "celoAmount": "The amount of votes to subtract."
        },
        "returns": {
          "finalGroups": "The groups that were chosen for subtraction.",
          "finalVotes": "The votes of chosen finalGroups."
        }
      },
      "getExpectedAndActualStCeloForGroup(address)": {
        "params": {
          "group": "The group."
        },
        "returns": {
          "actualStCelo": "The amount of stCELO which is currently assigned to group in the strategy.",
          "expectedStCelo": "The amount of stCELO that group should have. (The total amount of stCELO in the default strategy divided by the number of active groups.)"
        }
      },
      "getGroupPreviousAndNext(address)": {
        "params": {
          "group": "The group address."
        },
        "returns": {
          "nextAddress": "The next address.",
          "previousAddress": "The previous address."
        }
      },
      "getGroupsHead()": {
        "returns": {
          "head": "The address of the sorted group with most votes.",
          "previousAddress": "The previous address from head."
        }
      },
      "getGroupsTail()": {
        "returns": {
          "nextAddress": "The next address after tail.",
          "tail": "The address of the sorted group with least votes."
        }
      },
      "getNumberOfGroups()": {
        "returns": {
          "_0": "The number of active groups."
        }
      },
      "getNumberOfUnsortedGroups()": {
        "returns": {
          "_0": "The number of unsorted groups."
        }
      },
      "getUnsortedGroupAt(uint256)": {
        "params": {
          "index": "The index to look up."
        },
        "returns": {
          "_0": "The group."
        }
      },
      "getVersionNumber()": {
        "returns": {
          "_0": "Storage version of the contract.",
          "_1": "Major version of the contract.",
          "_2": "Minor version of the contract.",
          "_3": "Patch version of the contract."
        }
      },
      "initialize(address,address)": {
        "params": {
          "_manager": "The address of the Manager contract.",
          "_owner": "The address of the contract owner."
        }
      },
      "isActive(address)": {
        "returns": {
          "_0": "Whether or not the given group is active."
        }
      },
      "owner()": {
        "details": "Returns the address of the current owner."
      },
      "rebalance(address,address)": {
        "params": {
          "fromGroup": "The from group.",
          "toGroup": "The to group."
        }
      },
      "renounceOwnership()": {
        "details": "Leaves the contract without owner. It will not be possible to call `onlyOwner` functions anymore. Can only be called by the current owner. NOTE: Renouncing ownership will leave the contract without an owner, thereby removing any functionality that is only available to the owner."
      },
      "setDependencies(address,address,address)": {
        "params": {
          "_account": "The address of the Account contract.",
          "_groupHealth": "The address of the GroupHealth contract.",
          "_specificGroupStrategy": "The address of the SpecificGroupStrategy contract."
        }
      },
      "setManager(address)": {
        "params": {
          "_manager": "The new manager address."
        }
      },
      "setSortingParams(uint256,uint256,uint256)": {
        "params": {
          "distributeTo": "Maximum number of groups that can be distributed to.",
          "loopLimit": "The sorting loop limit while sorting active groups on chain.",
          "withdrawFrom": "Maximum number of groups that can be withdrawn from."
        }
      },
      "transferOwnership(address)": {
        "details": "Transfers ownership of the contract to a new account (`newOwner`). Can only be called by the current owner."
      },
      "updateActiveGroupOrder(address,address,address)": {
        "params": {
          "greaterKey": "The key of the group greater than the group to update.",
          "group": "The group address.",
          "lesserKey": "The key of the group less than the group to update."
        }
      },
      "upgradeTo(address)": {
        "details": "Upgrade the implementation of the proxy to `newImplementation`. Calls {_authorizeUpgrade}. Emits an {Upgraded} event."
      },
      "upgradeToAndCall(address,bytes)": {
        "details": "Upgrade the implementation of the proxy to `newImplementation`, and subsequently execute the function call encoded in `data`. Calls {_authorizeUpgrade}. Emits an {Upgraded} event."
      }
    },
    "title": "DefaultStrategy is responsible for handling any deposit/withdrawal for accounts without any specific strategy.",
    "version": 1
  },
  "userdoc": {
    "errors": {
      "AddressZeroNotAllowed()": [
        {
          "notice": "Used when attempting to pass in address zero where not allowed."
        }
      ],
      "CallerNotManager(address)": [
        {
          "notice": "Used when an `onlyManager` function is called by a non-manager."
        }
      ],
      "CallerNotManagerNorStrategy(address)": [
        {
          "notice": "Used when a `managerOrStrategy` function is called  by a non-manager or non-strategy."
        }
      ],
      "GroupAlreadyAdded(address)": [
        {
          "notice": "Used when attempting to activate a group that is already active."
        }
      ],
      "GroupNotActive(address)": [
        {
          "notice": "Used when attempting to deactivate a group that is not active."
        }
      ],
      "GroupNotEligible(address)": [
        {
          "notice": "Used when a group does not meet the validator group health requirements."
        }
      ],
      "HealthyGroup(address)": [
        {
          "notice": "Used when attempting to deactivate a healthy group using deactivateUnhealthyGroup()."
        }
      ],
      "InvalidFromGroup(address)": [
        {
          "notice": "Used when rebalancing from non-active group."
        }
      ],
      "InvalidToGroup(address)": [
        {
          "notice": "Used when rebalancing to a non-active group."
        }
      ],
      "NoActiveGroups()": [
        {
          "notice": "Used when attempting to deposit when there are no active groups to vote for."
        }
      ],
      "NotAbleToDistributeVotes()": [
        {
          "notice": "Used when atempting to distribute votes but validator group limit is reached."
        }
      ],
      "NotUnsortedGroup()": [
        {
          "notice": "Used when attempting sort active groups when there are no unsorted group."
        }
      ],
      "NullAddress()": [
        {
          "notice": "Used when a passed address is address(0)."
        }
      ],
      "RebalanceEnoughStCelo(address,uint256,uint256)": [
        {
          "notice": "Used when rebalancing and `toGroup` has enough stCELO."
        }
      ],
      "RebalanceNoExtraStCelo(address,uint256,uint256)": [
        {
          "notice": "Used when rebalancing and `fromGroup` doesn't have any extra stCELO."
        }
      ]
    },
    "events": {
      "GroupActivated(address)": {
        "notice": "Emitted when a new group is activated for voting."
      },
      "GroupRemoved(address)": {
        "notice": "Emitted when a group is deactivated."
      },
      "ManagerSet(address)": {
        "notice": "Emitted when the manager is initially set or later modified."
      },
      "SortedFlagUpdated(bool)": {
        "notice": "Emmited when sorted status of active groups was changed."
      }
    },
    "kind": "user",
    "methods": {
      "account()": {
        "notice": "An instance of the Account contract for the StakedCelo protocol."
      },
      "activateGroup(address,address,address)": {
        "notice": "Marks a group as votable for default strategy. It is necessary to call `updateGroupHealth` in GroupHealth smart contract first."
      },
      "constructor": {
        "notice": "Empty constructor for proxy implementation, `initializer` modifer ensures the implementation gets initialized."
      },
      "deactivateGroup(address)": {
        "notice": "Deactivates group."
      },
      "deactivateUnhealthyGroup(address)": {
        "notice": "Deactivates an unhealthy group."
      },
      "generateDepositVoteDistribution(uint256,address)": {
        "notice": "Distributes votes by computing the number of votes each active group should receive."
      },
      "generateWithdrawalVoteDistribution(uint256)": {
        "notice": "Distributes votes by computing the number of votes to be subtracted from each active group."
      },
      "getExpectedAndActualStCeloForGroup(address)": {
        "notice": "Returns expected stCELO and actual stCELO for group."
      },
      "getGroupPreviousAndNext(address)": {
        "notice": "Returns previous and next address of key."
      },
      "getGroupsHead()": {
        "notice": "Returns head and previous address of head."
      },
      "getGroupsTail()": {
        "notice": "Returns tail and next address of tail."
      },
      "getNumberOfGroups()": {
        "notice": "Returns the number of active groups."
      },
      "getNumberOfUnsortedGroups()": {
        "notice": "Returns the number of unsorted groups."
      },
      "getUnsortedGroupAt(uint256)": {
        "notice": "Returns the unsorted group at index."
      },
      "getVersionNumber()": {
        "notice": "Returns the storage, major, minor, and patch version of the contract."
      },
      "groupHealth()": {
        "notice": "An instance of the GroupHealth contract for the StakedCelo protocol."
      },
      "initialize(address,address)": {
        "notice": "Initialize the contract with registry and owner."
      },
      "isActive(address)": {
        "notice": "Returns whether active groups contain group."
      },
      "maxGroupsToDistributeTo()": {
        "notice": "Maximum number of groups to distribute votes to."
      },
      "maxGroupsToWithdrawFrom()": {
        "notice": "Maximum number of groups to withdraw from."
      },
      "rebalance(address,address)": {
        "notice": "Rebalances CELO between groups that have an incorrect CELO-stCELO ratio. `fromGroup` is required to have more CELO than it should and `toGroup` needs to have less CELO than it should."
      },
      "setDependencies(address,address,address)": {
        "notice": "Set this contract's dependencies in the StakedCelo system."
      },
      "setManager(address)": {
        "notice": "Sets the manager address."
      },
      "setSortingParams(uint256,uint256,uint256)": {
        "notice": "Set distribution/withdrawal algorithm parameters."
      },
      "sorted()": {
        "notice": "Whether or not active groups are sorted. If active groups are not sorted it is neccessary to call updateActiveGroupOrder."
      },
      "specificGroupStrategy()": {
        "notice": "An instance of the SpecificGroupStrategy for the StakedCelo protocol."
      },
      "stCeloInGroup(address)": {
        "notice": "StCELO that was cast for default group strategy, strategy => stCELO amount."
      },
      "totalStCeloInStrategy()": {
        "notice": "Total stCELO that was voted with on default strategy."
      },
      "updateActiveGroupOrder(address,address,address)": {
        "notice": "Updates group order of unsorted group. When there are no more unsorted groups it will mark active groups as sorted."
      }
    },
    "version": 1
  },
  "storageLayout": {
    "storage": [
      {
        "astId": 130,
        "contract": "contracts/DefaultStrategy.sol:DefaultStrategy",
        "label": "_initialized",
        "offset": 0,
        "slot": "0",
        "type": "t_bool"
      },
      {
        "astId": 133,
        "contract": "contracts/DefaultStrategy.sol:DefaultStrategy",
        "label": "_initializing",
        "offset": 1,
        "slot": "0",
        "type": "t_bool"
      },
      {
        "astId": 584,
        "contract": "contracts/DefaultStrategy.sol:DefaultStrategy",
        "label": "__gap",
        "offset": 0,
        "slot": "1",
        "type": "t_array(t_uint256)50_storage"
      },
      {
        "astId": 10,
        "contract": "contracts/DefaultStrategy.sol:DefaultStrategy",
        "label": "_owner",
        "offset": 0,
        "slot": "51",
        "type": "t_address"
      },
      {
        "astId": 122,
        "contract": "contracts/DefaultStrategy.sol:DefaultStrategy",
        "label": "__gap",
        "offset": 0,
        "slot": "52",
        "type": "t_array(t_uint256)49_storage"
      },
      {
        "astId": 5571,
        "contract": "contracts/DefaultStrategy.sol:DefaultStrategy",
        "label": "manager",
        "offset": 0,
        "slot": "101",
        "type": "t_address"
      },
      {
        "astId": 3646,
        "contract": "contracts/DefaultStrategy.sol:DefaultStrategy",
        "label": "activeGroups",
        "offset": 0,
        "slot": "102",
        "type": "t_struct(List)9089_storage"
      },
      {
        "astId": 3650,
        "contract": "contracts/DefaultStrategy.sol:DefaultStrategy",
        "label": "groupHealth",
        "offset": 0,
        "slot": "107",
        "type": "t_contract(IGroupHealth)10502"
      },
      {
        "astId": 3654,
        "contract": "contracts/DefaultStrategy.sol:DefaultStrategy",
        "label": "account",
        "offset": 0,
        "slot": "108",
        "type": "t_contract(IAccount)9780"
      },
      {
        "astId": 3658,
        "contract": "contracts/DefaultStrategy.sol:DefaultStrategy",
        "label": "specificGroupStrategy",
        "offset": 0,
        "slot": "109",
        "type": "t_contract(ISpecificGroupStrategy)10808"
      },
      {
        "astId": 3663,
        "contract": "contracts/DefaultStrategy.sol:DefaultStrategy",
        "label": "stCeloInGroup",
        "offset": 0,
        "slot": "110",
        "type": "t_mapping(t_address,t_uint256)"
      },
      {
        "astId": 3666,
        "contract": "contracts/DefaultStrategy.sol:DefaultStrategy",
        "label": "maxGroupsToDistributeTo",
        "offset": 0,
        "slot": "111",
        "type": "t_uint256"
      },
      {
        "astId": 3669,
        "contract": "contracts/DefaultStrategy.sol:DefaultStrategy",
        "label": "maxGroupsToWithdrawFrom",
        "offset": 0,
        "slot": "112",
        "type": "t_uint256"
      },
      {
        "astId": 3672,
        "contract": "contracts/DefaultStrategy.sol:DefaultStrategy",
        "label": "totalStCeloInStrategy",
        "offset": 0,
        "slot": "113",
        "type": "t_uint256"
      },
      {
        "astId": 3675,
        "contract": "contracts/DefaultStrategy.sol:DefaultStrategy",
        "label": "sortingLoopLimit",
        "offset": 0,
        "slot": "114",
        "type": "t_uint256"
      },
      {
        "astId": 3678,
        "contract": "contracts/DefaultStrategy.sol:DefaultStrategy",
        "label": "sorted",
        "offset": 0,
        "slot": "115",
        "type": "t_bool"
      },
      {
        "astId": 3682,
        "contract": "contracts/DefaultStrategy.sol:DefaultStrategy",
        "label": "unsortedGroups",
        "offset": 0,
        "slot": "116",
        "type": "t_struct(AddressSet)1787_storage"
      }
    ],
    "types": {
      "t_address": {
        "encoding": "inplace",
        "label": "address",
        "numberOfBytes": "20"
      },
      "t_array(t_bytes32)dyn_storage": {
        "base": "t_bytes32",
        "encoding": "dynamic_array",
        "label": "bytes32[]",
        "numberOfBytes": "32"
      },
      "t_array(t_uint256)49_storage": {
        "base": "t_uint256",
        "encoding": "inplace",
        "label": "uint256[49]",
        "numberOfBytes": "1568"
      },
      "t_array(t_uint256)50_storage": {
        "base": "t_uint256",
        "encoding": "inplace",
        "label": "uint256[50]",
        "numberOfBytes": "1600"
      },
      "t_bool": {
        "encoding": "inplace",
        "label": "bool",
        "numberOfBytes": "1"
      },
      "t_bytes32": {
        "encoding": "inplace",
        "label": "bytes32",
        "numberOfBytes": "32"
      },
      "t_contract(IAccount)9780": {
        "encoding": "inplace",
        "label": "contract IAccount",
        "numberOfBytes": "20"
      },
      "t_contract(IGroupHealth)10502": {
        "encoding": "inplace",
        "label": "contract IGroupHealth",
        "numberOfBytes": "20"
      },
      "t_contract(ISpecificGroupStrategy)10808": {
        "encoding": "inplace",
        "label": "contract ISpecificGroupStrategy",
        "numberOfBytes": "20"
      },
      "t_mapping(t_address,t_uint256)": {
        "encoding": "mapping",
        "key": "t_address",
        "label": "mapping(address => uint256)",
        "numberOfBytes": "32",
        "value": "t_uint256"
      },
      "t_mapping(t_bytes32,t_struct(Element)8550_storage)": {
        "encoding": "mapping",
        "key": "t_bytes32",
        "label": "mapping(bytes32 => struct LinkedList.Element)",
        "numberOfBytes": "32",
        "value": "t_struct(Element)8550_storage"
      },
      "t_mapping(t_bytes32,t_uint256)": {
        "encoding": "mapping",
        "key": "t_bytes32",
        "label": "mapping(bytes32 => uint256)",
        "numberOfBytes": "32",
        "value": "t_uint256"
      },
      "t_struct(AddressSet)1787_storage": {
        "encoding": "inplace",
        "label": "struct EnumerableSet.AddressSet",
        "members": [
          {
            "astId": 1786,
            "contract": "contracts/DefaultStrategy.sol:DefaultStrategy",
            "label": "_inner",
            "offset": 0,
            "slot": "0",
            "type": "t_struct(Set)1486_storage"
          }
        ],
        "numberOfBytes": "64"
      },
      "t_struct(Element)8550_storage": {
        "encoding": "inplace",
        "label": "struct LinkedList.Element",
        "members": [
          {
            "astId": 8545,
            "contract": "contracts/DefaultStrategy.sol:DefaultStrategy",
            "label": "previousKey",
            "offset": 0,
            "slot": "0",
            "type": "t_bytes32"
          },
          {
            "astId": 8547,
            "contract": "contracts/DefaultStrategy.sol:DefaultStrategy",
            "label": "nextKey",
            "offset": 0,
            "slot": "1",
            "type": "t_bytes32"
          },
          {
            "astId": 8549,
            "contract": "contracts/DefaultStrategy.sol:DefaultStrategy",
            "label": "exists",
            "offset": 0,
            "slot": "2",
            "type": "t_bool"
          }
        ],
        "numberOfBytes": "96"
      },
      "t_struct(List)8562_storage": {
        "encoding": "inplace",
        "label": "struct LinkedList.List",
        "members": [
          {
            "astId": 8552,
            "contract": "contracts/DefaultStrategy.sol:DefaultStrategy",
            "label": "head",
            "offset": 0,
            "slot": "0",
            "type": "t_bytes32"
          },
          {
            "astId": 8554,
            "contract": "contracts/DefaultStrategy.sol:DefaultStrategy",
            "label": "tail",
            "offset": 0,
            "slot": "1",
            "type": "t_bytes32"
          },
          {
            "astId": 8556,
            "contract": "contracts/DefaultStrategy.sol:DefaultStrategy",
            "label": "numElements",
            "offset": 0,
            "slot": "2",
            "type": "t_uint256"
          },
          {
            "astId": 8561,
            "contract": "contracts/DefaultStrategy.sol:DefaultStrategy",
            "label": "elements",
            "offset": 0,
            "slot": "3",
            "type": "t_mapping(t_bytes32,t_struct(Element)8550_storage)"
          }
        ],
        "numberOfBytes": "128"
      },
      "t_struct(List)9089_storage": {
        "encoding": "inplace",
        "label": "struct SortedLinkedList.List",
        "members": [
          {
            "astId": 9084,
            "contract": "contracts/DefaultStrategy.sol:DefaultStrategy",
            "label": "list",
            "offset": 0,
            "slot": "0",
            "type": "t_struct(List)8562_storage"
          },
          {
            "astId": 9088,
            "contract": "contracts/DefaultStrategy.sol:DefaultStrategy",
            "label": "values",
            "offset": 0,
            "slot": "4",
            "type": "t_mapping(t_bytes32,t_uint256)"
          }
        ],
        "numberOfBytes": "160"
      },
      "t_struct(Set)1486_storage": {
        "encoding": "inplace",
        "label": "struct EnumerableSet.Set",
        "members": [
          {
            "astId": 1481,
            "contract": "contracts/DefaultStrategy.sol:DefaultStrategy",
            "label": "_values",
            "offset": 0,
            "slot": "0",
            "type": "t_array(t_bytes32)dyn_storage"
          },
          {
            "astId": 1485,
            "contract": "contracts/DefaultStrategy.sol:DefaultStrategy",
            "label": "_indexes",
            "offset": 0,
            "slot": "1",
            "type": "t_mapping(t_bytes32,t_uint256)"
          }
        ],
        "numberOfBytes": "64"
      },
      "t_uint256": {
        "encoding": "inplace",
        "label": "uint256",
        "numberOfBytes": "32"
      }
    }
  }
}