{
  "address": "0xD718B64bc1FACbd0087D827c0a3EA144445F5745",
  "abi": [
    {
      "inputs": [],
      "stateMutability": "nonpayable",
      "type": "constructor"
    },
    {
      "inputs": [],
      "name": "AddressZeroNotAllowed",
      "type": "error"
    },
    {
      "inputs": [
        {
          "internalType": "address",
          "name": "caller",
          "type": "address"
        }
      ],
      "name": "CallerNotManager",
      "type": "error"
    },
    {
      "inputs": [
        {
          "internalType": "address",
          "name": "caller",
          "type": "address"
        }
      ],
      "name": "CallerNotManagerNorStrategy",
      "type": "error"
    },
    {
      "inputs": [
        {
          "internalType": "address",
          "name": "group",
          "type": "address"
        }
      ],
      "name": "GroupAlreadyAdded",
      "type": "error"
    },
    {
      "inputs": [
        {
          "internalType": "address",
          "name": "group",
          "type": "address"
        }
      ],
      "name": "GroupNotActivatable",
      "type": "error"
    },
    {
      "inputs": [
        {
          "internalType": "address",
          "name": "group",
          "type": "address"
        }
      ],
      "name": "GroupNotActive",
      "type": "error"
    },
    {
      "inputs": [
        {
          "internalType": "address",
          "name": "group",
          "type": "address"
        }
      ],
      "name": "GroupNotEligible",
      "type": "error"
    },
    {
      "inputs": [
        {
          "internalType": "address",
          "name": "group",
          "type": "address"
        }
      ],
      "name": "HealthyGroup",
      "type": "error"
    },
    {
      "inputs": [
        {
          "internalType": "address",
          "name": "group",
          "type": "address"
        }
      ],
      "name": "InvalidFromGroup",
      "type": "error"
    },
    {
      "inputs": [
        {
          "internalType": "address",
          "name": "group",
          "type": "address"
        }
      ],
      "name": "InvalidToGroup",
      "type": "error"
    },
    {
      "inputs": [],
      "name": "MinimumCountOfActiveGroupsReached",
      "type": "error"
    },
    {
      "inputs": [],
      "name": "NoActiveGroups",
      "type": "error"
    },
    {
      "inputs": [],
      "name": "NotAbleToDistributeVotes",
      "type": "error"
    },
    {
      "inputs": [],
      "name": "NotUnsortedGroup",
      "type": "error"
    },
    {
      "inputs": [],
      "name": "OnlyPauser",
      "type": "error"
    },
    {
      "inputs": [],
      "name": "Paused",
      "type": "error"
    },
    {
      "inputs": [
        {
          "internalType": "address",
          "name": "group",
          "type": "address"
        },
        {
          "internalType": "uint256",
          "name": "actualCelo",
          "type": "uint256"
        },
        {
          "internalType": "uint256",
          "name": "expectedCelo",
          "type": "uint256"
        }
      ],
      "name": "RebalanceEnoughStCelo",
      "type": "error"
    },
    {
      "inputs": [
        {
          "internalType": "address",
          "name": "group",
          "type": "address"
        },
        {
          "internalType": "uint256",
          "name": "actualCelo",
          "type": "uint256"
        },
        {
          "internalType": "uint256",
          "name": "expectedCelo",
          "type": "uint256"
        }
      ],
      "name": "RebalanceNoExtraStCelo",
      "type": "error"
    },
    {
      "anonymous": false,
      "inputs": [
        {
          "indexed": false,
          "internalType": "address",
          "name": "previousAdmin",
          "type": "address"
        },
        {
          "indexed": false,
          "internalType": "address",
          "name": "newAdmin",
          "type": "address"
        }
      ],
      "name": "AdminChanged",
      "type": "event"
    },
    {
      "anonymous": false,
      "inputs": [
        {
          "indexed": true,
          "internalType": "address",
          "name": "beacon",
          "type": "address"
        }
      ],
      "name": "BeaconUpgraded",
      "type": "event"
    },
    {
      "anonymous": false,
      "inputs": [],
      "name": "ContractPaused",
      "type": "event"
    },
    {
      "anonymous": false,
      "inputs": [],
      "name": "ContractUnpaused",
      "type": "event"
    },
    {
      "anonymous": false,
      "inputs": [
        {
          "indexed": true,
          "internalType": "address",
          "name": "group",
          "type": "address"
        }
      ],
      "name": "GroupActivated",
      "type": "event"
    },
    {
      "anonymous": false,
      "inputs": [
        {
          "indexed": true,
          "internalType": "address",
          "name": "group",
          "type": "address"
        }
      ],
      "name": "GroupRemoved",
      "type": "event"
    },
    {
      "anonymous": false,
      "inputs": [
        {
          "indexed": true,
          "internalType": "address",
          "name": "manager",
          "type": "address"
        }
      ],
      "name": "ManagerSet",
      "type": "event"
    },
    {
      "anonymous": false,
      "inputs": [
        {
          "indexed": true,
          "internalType": "address",
          "name": "previousOwner",
          "type": "address"
        },
        {
          "indexed": true,
          "internalType": "address",
          "name": "newOwner",
          "type": "address"
        }
      ],
      "name": "OwnershipTransferred",
      "type": "event"
    },
    {
      "anonymous": false,
      "inputs": [
        {
          "indexed": false,
          "internalType": "address",
          "name": "pauser",
          "type": "address"
        }
      ],
      "name": "PauserSet",
      "type": "event"
    },
    {
      "anonymous": false,
      "inputs": [
        {
          "indexed": false,
          "internalType": "bool",
          "name": "update",
          "type": "bool"
        }
      ],
      "name": "SortedFlagUpdated",
      "type": "event"
    },
    {
      "anonymous": false,
      "inputs": [
        {
          "indexed": true,
          "internalType": "address",
          "name": "implementation",
          "type": "address"
        }
      ],
      "name": "Upgraded",
      "type": "event"
    },
    {
      "inputs": [],
      "name": "PAUSED_POSITION",
      "outputs": [
        {
          "internalType": "bytes32",
          "name": "",
          "type": "bytes32"
        }
      ],
      "stateMutability": "view",
      "type": "function"
    },
    {
      "inputs": [],
      "name": "PAUSER_POSITION",
      "outputs": [
        {
          "internalType": "bytes32",
          "name": "",
          "type": "bytes32"
        }
      ],
      "stateMutability": "view",
      "type": "function"
    },
    {
      "inputs": [],
      "name": "account",
      "outputs": [
        {
          "internalType": "contract IAccount",
          "name": "",
          "type": "address"
        }
      ],
      "stateMutability": "view",
      "type": "function"
    },
    {
      "inputs": [],
      "name": "activatableGroupsCount",
      "outputs": [
        {
          "internalType": "uint256",
          "name": "",
          "type": "uint256"
        }
      ],
      "stateMutability": "view",
      "type": "function"
    },
    {
      "inputs": [
        {
          "internalType": "address",
          "name": "group",
          "type": "address"
        },
        {
          "internalType": "address",
          "name": "lesser",
          "type": "address"
        },
        {
          "internalType": "address",
          "name": "greater",
          "type": "address"
        }
      ],
      "name": "activateGroup",
      "outputs": [],
      "stateMutability": "nonpayable",
      "type": "function"
    },
    {
      "inputs": [
        {
          "internalType": "address",
          "name": "group",
          "type": "address"
        }
      ],
      "name": "addActivatableGroup",
      "outputs": [],
      "stateMutability": "nonpayable",
      "type": "function"
    },
    {
      "inputs": [
        {
          "internalType": "address",
          "name": "group",
          "type": "address"
        }
      ],
      "name": "deactivateGroup",
      "outputs": [],
      "stateMutability": "nonpayable",
      "type": "function"
    },
    {
      "inputs": [
        {
          "internalType": "address",
          "name": "group",
          "type": "address"
        }
      ],
      "name": "deactivateUnhealthyGroup",
      "outputs": [],
      "stateMutability": "nonpayable",
      "type": "function"
    },
    {
      "inputs": [
        {
          "internalType": "uint256",
          "name": "celoAmount",
          "type": "uint256"
        },
        {
          "internalType": "address",
          "name": "depositGroupToIgnore",
          "type": "address"
        }
      ],
      "name": "generateDepositVoteDistribution",
      "outputs": [
        {
          "internalType": "address[]",
          "name": "finalGroups",
          "type": "address[]"
        },
        {
          "internalType": "uint256[]",
          "name": "finalVotes",
          "type": "uint256[]"
        }
      ],
      "stateMutability": "nonpayable",
      "type": "function"
    },
    {
      "inputs": [
        {
          "internalType": "uint256",
          "name": "celoAmount",
          "type": "uint256"
        }
      ],
      "name": "generateWithdrawalVoteDistribution",
      "outputs": [
        {
          "internalType": "address[]",
          "name": "finalGroups",
          "type": "address[]"
        },
        {
          "internalType": "uint256[]",
          "name": "finalVotes",
          "type": "uint256[]"
        }
      ],
      "stateMutability": "nonpayable",
      "type": "function"
    },
    {
      "inputs": [
        {
          "internalType": "uint256",
          "name": "index",
          "type": "uint256"
        }
      ],
      "name": "getActivatableGroupAt",
      "outputs": [
        {
          "internalType": "address",
          "name": "",
          "type": "address"
        }
      ],
      "stateMutability": "view",
      "type": "function"
    },
    {
      "inputs": [
        {
          "internalType": "address",
          "name": "group",
          "type": "address"
        }
      ],
      "name": "getExpectedAndActualStCeloForGroup",
      "outputs": [
        {
          "internalType": "uint256",
          "name": "expectedStCelo",
          "type": "uint256"
        },
        {
          "internalType": "uint256",
          "name": "actualStCelo",
          "type": "uint256"
        }
      ],
      "stateMutability": "view",
      "type": "function"
    },
    {
      "inputs": [
        {
          "internalType": "address",
          "name": "group",
          "type": "address"
        }
      ],
      "name": "getGroupPreviousAndNext",
      "outputs": [
        {
          "internalType": "address",
          "name": "previousAddress",
          "type": "address"
        },
        {
          "internalType": "address",
          "name": "nextAddress",
          "type": "address"
        }
      ],
      "stateMutability": "view",
      "type": "function"
    },
    {
      "inputs": [],
      "name": "getGroupsHead",
      "outputs": [
        {
          "internalType": "address",
          "name": "head",
          "type": "address"
        },
        {
          "internalType": "address",
          "name": "previousAddress",
          "type": "address"
        }
      ],
      "stateMutability": "view",
      "type": "function"
    },
    {
      "inputs": [],
      "name": "getGroupsTail",
      "outputs": [
        {
          "internalType": "address",
          "name": "tail",
          "type": "address"
        },
        {
          "internalType": "address",
          "name": "nextAddress",
          "type": "address"
        }
      ],
      "stateMutability": "view",
      "type": "function"
    },
    {
      "inputs": [],
      "name": "getNumberOfGroups",
      "outputs": [
        {
          "internalType": "uint256",
          "name": "",
          "type": "uint256"
        }
      ],
      "stateMutability": "view",
      "type": "function"
    },
    {
      "inputs": [],
      "name": "getNumberOfUnsortedGroups",
      "outputs": [
        {
          "internalType": "uint256",
          "name": "",
          "type": "uint256"
        }
      ],
      "stateMutability": "view",
      "type": "function"
    },
    {
      "inputs": [
        {
          "internalType": "uint256",
          "name": "index",
          "type": "uint256"
        }
      ],
      "name": "getUnsortedGroupAt",
      "outputs": [
        {
          "internalType": "address",
          "name": "",
          "type": "address"
        }
      ],
      "stateMutability": "view",
      "type": "function"
    },
    {
      "inputs": [],
      "name": "getVersionNumber",
      "outputs": [
        {
          "internalType": "uint256",
          "name": "",
          "type": "uint256"
        },
        {
          "internalType": "uint256",
          "name": "",
          "type": "uint256"
        },
        {
          "internalType": "uint256",
          "name": "",
          "type": "uint256"
        },
        {
          "internalType": "uint256",
          "name": "",
          "type": "uint256"
        }
      ],
      "stateMutability": "pure",
      "type": "function"
    },
    {
      "inputs": [],
      "name": "groupHealth",
      "outputs": [
        {
          "internalType": "contract IGroupHealth",
          "name": "",
          "type": "address"
        }
      ],
      "stateMutability": "view",
      "type": "function"
    },
    {
      "inputs": [
        {
          "internalType": "address",
          "name": "_owner",
          "type": "address"
        },
        {
          "internalType": "address",
          "name": "_manager",
          "type": "address"
        }
      ],
      "name": "initialize",
      "outputs": [],
      "stateMutability": "nonpayable",
      "type": "function"
    },
    {
      "inputs": [
        {
          "internalType": "address",
          "name": "group",
          "type": "address"
        }
      ],
      "name": "isActive",
      "outputs": [
        {
          "internalType": "bool",
          "name": "",
          "type": "bool"
        }
      ],
      "stateMutability": "view",
      "type": "function"
    },
    {
      "inputs": [],
      "name": "isPaused",
      "outputs": [
        {
          "internalType": "bool",
          "name": "",
          "type": "bool"
        }
      ],
      "stateMutability": "view",
      "type": "function"
    },
    {
      "inputs": [],
      "name": "manager",
      "outputs": [
        {
          "internalType": "address",
          "name": "",
          "type": "address"
        }
      ],
      "stateMutability": "view",
      "type": "function"
    },
    {
      "inputs": [],
      "name": "maxGroupsToDistributeTo",
      "outputs": [
        {
          "internalType": "uint256",
          "name": "",
          "type": "uint256"
        }
      ],
      "stateMutability": "view",
      "type": "function"
    },
    {
      "inputs": [],
      "name": "maxGroupsToWithdrawFrom",
      "outputs": [
        {
          "internalType": "uint256",
          "name": "",
          "type": "uint256"
        }
      ],
      "stateMutability": "view",
      "type": "function"
    },
    {
      "inputs": [],
      "name": "minCountOfActiveGroups",
      "outputs": [
        {
          "internalType": "uint256",
          "name": "",
          "type": "uint256"
        }
      ],
      "stateMutability": "view",
      "type": "function"
    },
    {
      "inputs": [],
      "name": "owner",
      "outputs": [
        {
          "internalType": "address",
          "name": "",
          "type": "address"
        }
      ],
      "stateMutability": "view",
      "type": "function"
    },
    {
      "inputs": [],
      "name": "pause",
      "outputs": [],
      "stateMutability": "nonpayable",
      "type": "function"
    },
    {
      "inputs": [],
      "name": "pauser",
      "outputs": [
        {
          "internalType": "address",
          "name": "",
          "type": "address"
        }
      ],
      "stateMutability": "view",
      "type": "function"
    },
    {
      "inputs": [
        {
          "internalType": "address",
          "name": "fromGroup",
          "type": "address"
        },
        {
          "internalType": "address",
          "name": "toGroup",
          "type": "address"
        }
      ],
      "name": "rebalance",
      "outputs": [],
      "stateMutability": "nonpayable",
      "type": "function"
    },
    {
      "inputs": [],
      "name": "renounceOwnership",
      "outputs": [],
      "stateMutability": "nonpayable",
      "type": "function"
    },
    {
      "inputs": [
        {
          "internalType": "address",
          "name": "_account",
          "type": "address"
        },
        {
          "internalType": "address",
          "name": "_groupHealth",
          "type": "address"
        },
        {
          "internalType": "address",
          "name": "_specificGroupStrategy",
          "type": "address"
        }
      ],
      "name": "setDependencies",
      "outputs": [],
      "stateMutability": "nonpayable",
      "type": "function"
    },
    {
      "inputs": [
        {
          "internalType": "address",
          "name": "_manager",
          "type": "address"
        }
      ],
      "name": "setManager",
      "outputs": [],
      "stateMutability": "nonpayable",
      "type": "function"
    },
    {
      "inputs": [
        {
          "internalType": "uint256",
          "name": "minCount",
          "type": "uint256"
        }
      ],
      "name": "setMinCountOfActiveGroups",
      "outputs": [],
      "stateMutability": "nonpayable",
      "type": "function"
    },
    {
      "inputs": [],
      "name": "setPauser",
      "outputs": [],
      "stateMutability": "nonpayable",
      "type": "function"
    },
    {
      "inputs": [
        {
          "internalType": "uint256",
          "name": "distributeTo",
          "type": "uint256"
        },
        {
          "internalType": "uint256",
          "name": "withdrawFrom",
          "type": "uint256"
        },
        {
          "internalType": "uint256",
          "name": "loopLimit",
          "type": "uint256"
        }
      ],
      "name": "setSortingParams",
      "outputs": [],
      "stateMutability": "nonpayable",
      "type": "function"
    },
    {
      "inputs": [],
      "name": "sorted",
      "outputs": [
        {
          "internalType": "bool",
          "name": "",
          "type": "bool"
        }
      ],
      "stateMutability": "view",
      "type": "function"
    },
    {
      "inputs": [],
      "name": "specificGroupStrategy",
      "outputs": [
        {
          "internalType": "contract ISpecificGroupStrategy",
          "name": "",
          "type": "address"
        }
      ],
      "stateMutability": "view",
      "type": "function"
    },
    {
      "inputs": [
        {
          "internalType": "address",
          "name": "",
          "type": "address"
        }
      ],
      "name": "stCeloInGroup",
      "outputs": [
        {
          "internalType": "uint256",
          "name": "",
          "type": "uint256"
        }
      ],
      "stateMutability": "view",
      "type": "function"
    },
    {
      "inputs": [],
      "name": "totalStCeloInStrategy",
      "outputs": [
        {
          "internalType": "uint256",
          "name": "",
          "type": "uint256"
        }
      ],
      "stateMutability": "view",
      "type": "function"
    },
    {
      "inputs": [
        {
          "internalType": "address",
          "name": "newOwner",
          "type": "address"
        }
      ],
      "name": "transferOwnership",
      "outputs": [],
      "stateMutability": "nonpayable",
      "type": "function"
    },
    {
      "inputs": [],
      "name": "unpause",
      "outputs": [],
      "stateMutability": "nonpayable",
      "type": "function"
    },
    {
      "inputs": [
        {
          "internalType": "address",
          "name": "group",
          "type": "address"
        },
        {
          "internalType": "address",
          "name": "lesserKey",
          "type": "address"
        },
        {
          "internalType": "address",
          "name": "greaterKey",
          "type": "address"
        }
      ],
      "name": "updateActiveGroupOrder",
      "outputs": [],
      "stateMutability": "nonpayable",
      "type": "function"
    },
    {
      "inputs": [
        {
          "internalType": "address",
          "name": "newImplementation",
          "type": "address"
        }
      ],
      "name": "upgradeTo",
      "outputs": [],
      "stateMutability": "nonpayable",
      "type": "function"
    },
    {
      "inputs": [
        {
          "internalType": "address",
          "name": "newImplementation",
          "type": "address"
        },
        {
          "internalType": "bytes",
          "name": "data",
          "type": "bytes"
        }
      ],
      "name": "upgradeToAndCall",
      "outputs": [],
      "stateMutability": "payable",
      "type": "function"
    }
  ],
  "transactionHash": "0x804ecfa432056ab1c5ea43584b02079848c5de15853b438cc730f9906db1e103",
  "args": [],
  "numDeployments": 2,
  "solcInputHash": "bc5d8aac7d0c7b5a1cef2b494d304103",
  "bytecode": "0x60a06040523073ffffffffffffffffffffffffffffffffffffffff1660809073ffffffffffffffffffffffffffffffffffffffff168152503480156200004457600080fd5b50600060019054906101000a900460ff166200006f5760008054906101000a900460ff161562000080565b6200007f6200013c60201b60201c565b5b620000c2576040517f08c379a0000000000000000000000000000000000000000000000000000000008152600401620000b99062000204565b60405180910390fd5b60008060019054906101000a900460ff16159050801562000113576001600060016101000a81548160ff02191690831515021790555060016000806101000a81548160ff0219169083151502179055505b8015620001355760008060016101000a81548160ff0219169083151502179055505b5062000226565b600062000154306200015a60201b6200323b1760201c565b15905090565b6000808273ffffffffffffffffffffffffffffffffffffffff163b119050919050565b600082825260208201905092915050565b7f496e697469616c697a61626c653a20636f6e747261637420697320616c72656160008201527f647920696e697469616c697a6564000000000000000000000000000000000000602082015250565b6000620001ec602e836200017d565b9150620001f9826200018e565b604082019050919050565b600060208201905081810360008301526200021f81620001dd565b9050919050565b6080516160946200025760003960008181610ac101528181610b500152818161186601526118f501526160946000f3fe60806040526004361061027d5760003560e01c806385a92cb71161014f578063b52d326c116100c1578063d0ebdbe71161007a578063d0ebdbe71461094d578063d2a2ce5d14610976578063dcdab02a146109a1578063e0cd8d27146109ca578063eccacf7f14610a08578063f2fde38b14610a335761027d565b8063b52d326c1461083b578063b95de2d614610864578063be982c311461088d578063c1fa411a146108cb578063c5728c83146108f6578063cf009f7a146109225761027d565b80639468ba0e116101135780639468ba0e146107295780639f8a13d7146107545780639fd0506d14610791578063a3f16ef1146107bc578063afc97578146107e7578063b187bd26146108105761027d565b806385a92cb714610644578063885640db146106815780638b0a063d146106aa5780638da5cb5b146106d557806393739a93146107005761027d565b8063485cc955116101f35780636d232345116101ac5780636d2323451461056d5780636fe958d8146105aa578063715018a6146105d3578063724e61d0146105ea5780637c0d530f146106165780638456cb591461062d5761027d565b8063485cc9551461047b5780634f1ef286146104a45780634fc517eb146104c05780635145b0ad146104eb57806354255be0146105145780635dab2420146105425761027d565b80633659cfe6116102455780633659cfe61461037e57806336691a41146103a75780633cbf5872146103e55780633f4ba83a1461041057806341b9179f14610427578063481c6a75146104505761027d565b80630c29aab2146102825780630f8f0fcc146102ad57806325b21f6b146102ea5780632863f68c146103155780632de2c5ac14610353575b600080fd5b34801561028e57600080fd5b50610297610a5c565b6040516102a49190614d8b565b60405180910390f35b3480156102b957600080fd5b506102d460048036038101906102cf9190614de6565b610a62565b6040516102e19190614e54565b60405180910390f35b3480156102f657600080fd5b506102ff610a7f565b60405161030c9190614d8b565b60405180910390f35b34801561032157600080fd5b5061033c60048036038101906103379190614e9b565b610a85565b60405161034a929190614ec8565b60405180910390f35b34801561035f57600080fd5b50610368610aac565b6040516103759190614f0c565b60405180910390f35b34801561038a57600080fd5b506103a560048036038101906103a09190614e9b565b610abf565b005b3480156103b357600080fd5b506103ce60048036038101906103c99190614de6565b610c48565b6040516103dc9291906150a3565b60405180910390f35b3480156103f157600080fd5b506103fa61156d565b60405161040791906150f3565b60405180910390f35b34801561041c57600080fd5b506104256115a3565b005b34801561043357600080fd5b5061044e60048036038101906104499190614de6565b611647565b005b34801561045c57600080fd5b506104656116cd565b6040516104729190614e54565b60405180910390f35b34801561048757600080fd5b506104a2600480360381019061049d919061510e565b6116f3565b005b6104be60048036038101906104b99190615294565b611864565b005b3480156104cc57600080fd5b506104d56119a1565b6040516104e29190614d8b565b60405180910390f35b3480156104f757600080fd5b50610512600480360381019061050d91906152f0565b6119a7565b005b34801561052057600080fd5b50610529611b6f565b6040516105399493929190615343565b60405180910390f35b34801561054e57600080fd5b50610557611b8a565b60405161056491906153e7565b60405180910390f35b34801561057957600080fd5b50610594600480360381019061058f9190614de6565b611bb0565b6040516105a19190614e54565b60405180910390f35b3480156105b657600080fd5b506105d160048036038101906105cc919061510e565b611bcd565b005b3480156105df57600080fd5b506105e8611f13565b005b3480156105f657600080fd5b506105ff611f9b565b60405161060d929190614ec8565b60405180910390f35b34801561062257600080fd5b5061062b61203b565b005b34801561063957600080fd5b506106426120c9565b005b34801561065057600080fd5b5061066b60048036038101906106669190614e9b565b61216d565b6040516106789190614d8b565b60405180910390f35b34801561068d57600080fd5b506106a860048036038101906106a39190615402565b612185565b005b3480156106b657600080fd5b506106bf61221b565b6040516106cc9190614d8b565b60405180910390f35b3480156106e157600080fd5b506106ea61222c565b6040516106f79190614e54565b60405180910390f35b34801561070c57600080fd5b5061072760048036038101906107229190614e9b565b612256565b005b34801561073557600080fd5b5061073e6122de565b60405161074b91906150f3565b60405180910390f35b34801561076057600080fd5b5061077b60048036038101906107769190614e9b565b612314565b6040516107889190614f0c565b60405180910390f35b34801561079d57600080fd5b506107a661239a565b6040516107b39190614e54565b60405180910390f35b3480156107c857600080fd5b506107d16123e0565b6040516107de9190615476565b60405180910390f35b3480156107f357600080fd5b5061080e600480360381019061080991906152f0565b612406565b005b34801561081c57600080fd5b506108256126c7565b6040516108329190614f0c565b60405180910390f35b34801561084757600080fd5b50610862600480360381019061085d91906152f0565b61270d565b005b34801561087057600080fd5b5061088b60048036038101906108869190614e9b565b612926565b005b34801561089957600080fd5b506108b460048036038101906108af9190614e9b565b612b71565b6040516108c2929190615491565b60405180910390f35b3480156108d757600080fd5b506108e0612d2c565b6040516108ed9190614d8b565b60405180910390f35b34801561090257600080fd5b5061090b612dae565b604051610919929190614ec8565b60405180910390f35b34801561092e57600080fd5b50610937612e4f565b60405161094491906154db565b60405180910390f35b34801561095957600080fd5b50610974600480360381019061096f9190614e9b565b612e75565b005b34801561098257600080fd5b5061098b612efd565b6040516109989190614d8b565b60405180910390f35b3480156109ad57600080fd5b506109c860048036038101906109c39190614e9b565b612f0e565b005b3480156109d657600080fd5b506109f160048036038101906109ec91906154f6565b613037565b6040516109ff9291906150a3565b60405180910390f35b348015610a1457600080fd5b50610a1d61313d565b604051610a2a9190614d8b565b60405180910390f35b348015610a3f57600080fd5b50610a5a6004803603810190610a559190614e9b565b613143565b005b60715481565b6000610a7882607461325e90919063ffffffff16565b9050919050565b60765481565b600080610a9c83606661327890919063ffffffff16565b9091508092508193505050915091565b607360009054906101000a900460ff1681565b7f000000000000000000000000000000000000000000000000000000000000000073ffffffffffffffffffffffffffffffffffffffff163073ffffffffffffffffffffffffffffffffffffffff161415610b4e576040517f08c379a0000000000000000000000000000000000000000000000000000000008152600401610b45906155b9565b60405180910390fd5b7f000000000000000000000000000000000000000000000000000000000000000073ffffffffffffffffffffffffffffffffffffffff16610b8d6132d3565b73ffffffffffffffffffffffffffffffffffffffff1614610be3576040517f08c379a0000000000000000000000000000000000000000000000000000000008152600401610bda9061564b565b60405180910390fd5b610bec8161332a565b610c4581600067ffffffffffffffff811115610c0b57610c0a615169565b5b6040519080825280601f01601f191660200182016040528015610c3d5781602001600182028036833780820191505090505b5060006133a9565b50565b6060803373ffffffffffffffffffffffffffffffffffffffff16606560009054906101000a900473ffffffffffffffffffffffffffffffffffffffff1673ffffffffffffffffffffffffffffffffffffffff1614158015610cf757503373ffffffffffffffffffffffffffffffffffffffff16606d60009054906101000a900473ffffffffffffffffffffffffffffffffffffffff1673ffffffffffffffffffffffffffffffffffffffff1614155b15610d3957336040517f79eaeb2b000000000000000000000000000000000000000000000000000000008152600401610d309190614e54565b60405180910390fd5b600060667348B505F1c5b7300de070dA9c85324272FC65f1876365da149690916040518263ffffffff1660e01b8152600401610d759190615672565b602060405180830381865af4158015610d92573d6000803e3d6000fd5b505050506040513d601f19601f82011682018060405250810190610db691906156a2565b1415610dee576040517f7818a60e00000000000000000000000000000000000000000000000000000000815260040160405180910390fd5b6000610e7660705460667348B505F1c5b7300de070dA9c85324272FC65f1876365da149690916040518263ffffffff1660e01b8152600401610e309190615672565b602060405180830381865af4158015610e4d573d6000803e3d6000fd5b505050506040513d601f19601f82011682018060405250810190610e7191906156a2565b61357a565b905060008167ffffffffffffffff811115610e9457610e93615169565b5b604051908082528060200260200182016040528015610ec25781602001602082028036833780820191505090505b50905060008267ffffffffffffffff811115610ee157610ee0615169565b5b604051908082528060200260200182016040528015610f0f5781602001602082028036833780820191505090505b509050600060667348B505F1c5b7300de070dA9c85324272FC65f187630c8f298790916040518263ffffffff1660e01b8152600401610f4e9190615672565b602060405180830381865af4158015610f6b573d6000803e3d6000fd5b505050506040513d601f19601f82011682018060405250810190610f8f91906156e4565b905060005b8481108015610fa4575060008814155b8015610fdd5750600073ffffffffffffffffffffffffffffffffffffffff168273ffffffffffffffffffffffffffffffffffffffff1614155b156113d25761116a611164606c60009054906101000a900473ffffffffffffffffffffffffffffffffffffffff1673ffffffffffffffffffffffffffffffffffffffff1663acd201d0856040518263ffffffff1660e01b81526004016110439190614e54565b602060405180830381865afa158015611060573d6000803e3d6000fd5b505050506040513d601f19601f8201168201806040525081019061108491906156a2565b606560009054906101000a900473ffffffffffffffffffffffffffffffffffffffff1673ffffffffffffffffffffffffffffffffffffffff16630567847f606e60008873ffffffffffffffffffffffffffffffffffffffff1673ffffffffffffffffffffffffffffffffffffffff168152602001908152602001600020546040518263ffffffff1660e01b815260040161111e9190614d8b565b602060405180830381865afa15801561113b573d6000803e3d6000fd5b505050506040513d601f19601f8201168201806040525081019061115f91906156a2565b61357a565b8961357a565b83828151811061117d5761117c615711565b5b6020026020010181815250508184828151811061119d5761119c615711565b5b602002602001019073ffffffffffffffffffffffffffffffffffffffff16908173ffffffffffffffffffffffffffffffffffffffff16815250508281815181106111ea576111e9615711565b5b6020026020010151886111fd919061576f565b97506112c082606560009054906101000a900473ffffffffffffffffffffffffffffffffffffffff1673ffffffffffffffffffffffffffffffffffffffff1663c494ec1e86858151811061125457611253615711565b5b60200260200101516040518263ffffffff1660e01b81526004016112789190614d8b565b602060405180830381865afa158015611295573d6000803e3d6000fd5b505050506040513d601f19601f820116820180604052508101906112b991906156a2565b6000613593565b61130b82606e60008573ffffffffffffffffffffffffffffffffffffffff1673ffffffffffffffffffffffffffffffffffffffff168152602001908152602001600020546000613682565b607360009054906101000a900460ff16156113a25760667348B505F1c5b7300de070dA9c85324272FC65f187630c8f298790916040518263ffffffff1660e01b815260040161135a9190615672565b602060405180830381865af4158015611377573d6000803e3d6000fd5b505050506040513d601f19601f8201168201806040525081019061139b91906156e4565b91506113bf565b6113b682606661327890919063ffffffff16565b90915050809250505b80806113ca906157a3565b915050610f94565b6000881461140c576040517f2e6c1bf900000000000000000000000000000000000000000000000000000000815260040160405180910390fd5b8067ffffffffffffffff81111561142657611425615169565b5b6040519080825280602002602001820160405280156114545781602001602082028036833780820191505090505b5096508067ffffffffffffffff81111561147157611470615169565b5b60405190808252806020026020018201604052801561149f5781602001602082028036833780820191505090505b50955060005b81811015611562578481815181106114c0576114bf615711565b5b60200260200101518882815181106114db576114da615711565b5b602002602001019073ffffffffffffffffffffffffffffffffffffffff16908173ffffffffffffffffffffffffffffffffffffffff168152505083818151811061152857611527615711565b5b602002602001015187828151811061154357611542615711565b5b602002602001018181525050808061155a906157a3565b9150506114a5565b505050505050915091565b60017f8f989356aeb576065c8d201815b96ac9c10cf89197a532e428ebd68581557c2360001c61159d919061576f565b60001b81565b6115ab61239a565b73ffffffffffffffffffffffffffffffffffffffff163373ffffffffffffffffffffffffffffffffffffffff161461160f576040517f75df51dc00000000000000000000000000000000000000000000000000000000815260040160405180910390fd5b6116196000613936565b7f0e5e3b3fb504c22cf5c42fa07d521225937514c654007e1f12646f89768d6f9460405160405180910390a1565b61164f613974565b73ffffffffffffffffffffffffffffffffffffffff1661166d61222c565b73ffffffffffffffffffffffffffffffffffffffff16146116c3576040517f08c379a00000000000000000000000000000000000000000000000000000000081526004016116ba90615838565b60405180910390fd5b8060768190555050565b606560009054906101000a900473ffffffffffffffffffffffffffffffffffffffff1681565b600060019054906101000a900460ff1661171b5760008054906101000a900460ff1615611724565b61172361397c565b5b611763576040517f08c379a000000000000000000000000000000000000000000000000000000000815260040161175a906158ca565b60405180910390fd5b60008060019054906101000a900460ff1615905080156117b3576001600060016101000a81548160ff02191690831515021790555060016000806101000a81548160ff0219169083151502179055505b6117bc8361398d565b6117c582613a53565b6008606f819055506008607081905550600a6072819055506001607360006101000a81548160ff0219169083151502179055507fb930683f0749189780c4016ec37d019eb0cbbf6550ce7374fac5cfbae93909a7607360009054906101000a900460ff166040516118369190614f0c565b60405180910390a1801561185f5760008060016101000a81548160ff0219169083151502179055505b505050565b7f000000000000000000000000000000000000000000000000000000000000000073ffffffffffffffffffffffffffffffffffffffff163073ffffffffffffffffffffffffffffffffffffffff1614156118f3576040517f08c379a00000000000000000000000000000000000000000000000000000000081526004016118ea906155b9565b60405180910390fd5b7f000000000000000000000000000000000000000000000000000000000000000073ffffffffffffffffffffffffffffffffffffffff166119326132d3565b73ffffffffffffffffffffffffffffffffffffffff1614611988576040517f08c379a000000000000000000000000000000000000000000000000000000000815260040161197f9061564b565b60405180910390fd5b6119918261332a565b61199d828260016133a9565b5050565b606f5481565b6119af6126c7565b156119e6576040517f9e87fac800000000000000000000000000000000000000000000000000000000815260040160405180910390fd5b6119fa836074613aae90919063ffffffff16565b611a30576040517f0a1f2c0e00000000000000000000000000000000000000000000000000000000815260040160405180910390fd5b60667348B505F1c5b7300de070dA9c85324272FC65f18763cab455ae909185606e60008873ffffffffffffffffffffffffffffffffffffffff1673ffffffffffffffffffffffffffffffffffffffff1681526020019081526020016000205486866040518663ffffffff1660e01b8152600401611ab1959493929190615908565b60006040518083038186803b158015611ac957600080fd5b505af4158015611add573d6000803e3d6000fd5b50505050611af5836074613ade90919063ffffffff16565b506000611b026074613b0e565b1415611b6a576001607360006101000a81548160ff0219169083151502179055507fb930683f0749189780c4016ec37d019eb0cbbf6550ce7374fac5cfbae93909a7607360009054906101000a900460ff16604051611b619190614f0c565b60405180910390a15b505050565b60008060008060018060016000935093509350935090919293565b606c60009054906101000a900473ffffffffffffffffffffffffffffffffffffffff1681565b6000611bc682607761325e90919063ffffffff16565b9050919050565b611bd56126c7565b15611c0c576040517f9e87fac800000000000000000000000000000000000000000000000000000000815260040160405180910390fd5b60667348B505F1c5b7300de070dA9c85324272FC65f1876302f130289091846040518363ffffffff1660e01b8152600401611c4892919061595b565b602060405180830381865af4158015611c65573d6000803e3d6000fd5b505050506040513d601f19601f82011682018060405250810190611c8991906159b0565b611cca57816040517fdc1b434d000000000000000000000000000000000000000000000000000000008152600401611cc19190614e54565b60405180910390fd5b60667348B505F1c5b7300de070dA9c85324272FC65f1876302f130289091836040518363ffffffff1660e01b8152600401611d0692919061595b565b602060405180830381865af4158015611d23573d6000803e3d6000fd5b505050506040513d601f19601f82011682018060405250810190611d4791906159b0565b611d8857806040517f5a081584000000000000000000000000000000000000000000000000000000008152600401611d7f9190614e54565b60405180910390fd5b600080611d9484612b71565b91509150818111611de0578381836040517f8b0123bf000000000000000000000000000000000000000000000000000000008152600401611dd7939291906159dd565b60405180910390fd5b600080611dec85612b71565b91509150818110611e38578481836040517f84528639000000000000000000000000000000000000000000000000000000008152600401611e2f939291906159dd565b60405180910390fd5b6000611e5a8585611e49919061576f565b8385611e55919061576f565b61357a565b9050611e6887826000613593565b611e7486826001613593565b611ebf87606e60008a73ffffffffffffffffffffffffffffffffffffffff1673ffffffffffffffffffffffffffffffffffffffff168152602001908152602001600020546000613682565b611f0a86606e60008973ffffffffffffffffffffffffffffffffffffffff1673ffffffffffffffffffffffffffffffffffffffff168152602001908152602001600020546001613682565b50505050505050565b611f1b613974565b73ffffffffffffffffffffffffffffffffffffffff16611f3961222c565b73ffffffffffffffffffffffffffffffffffffffff1614611f8f576040517f08c379a0000000000000000000000000000000000000000000000000000000008152600401611f8690615838565b60405180910390fd5b611f99600061398d565b565b60008060667348B505F1c5b7300de070dA9c85324272FC65f187630c8f298790916040518263ffffffff1660e01b8152600401611fd89190615672565b602060405180830381865af4158015611ff5573d6000803e3d6000fd5b505050506040513d601f19601f8201168201806040525081019061201991906156e4565b915061202f82606661327890919063ffffffff16565b90915050809150509091565b612043613974565b73ffffffffffffffffffffffffffffffffffffffff1661206161222c565b73ffffffffffffffffffffffffffffffffffffffff16146120b7576040517f08c379a00000000000000000000000000000000000000000000000000000000081526004016120ae90615838565b60405180910390fd5b6120c76120c261222c565b613b23565b565b6120d161239a565b73ffffffffffffffffffffffffffffffffffffffff163373ffffffffffffffffffffffffffffffffffffffff1614612135576040517f75df51dc00000000000000000000000000000000000000000000000000000000815260040160405180910390fd5b61213f6001613936565b7fab35696f06e428ebc5ceba8cd17f8fed287baf43440206d1943af1ee53e6d26760405160405180910390a1565b606e6020528060005260406000206000915090505481565b61218d613974565b73ffffffffffffffffffffffffffffffffffffffff166121ab61222c565b73ffffffffffffffffffffffffffffffffffffffff1614612201576040517f08c379a00000000000000000000000000000000000000000000000000000000081526004016121f890615838565b60405180910390fd5b82606f819055508160708190555080607281905550505050565b60006122276077613b0e565b905090565b6000603360009054906101000a900473ffffffffffffffffffffffffffffffffffffffff16905090565b61225e613974565b73ffffffffffffffffffffffffffffffffffffffff1661227c61222c565b73ffffffffffffffffffffffffffffffffffffffff16146122d2576040517f08c379a00000000000000000000000000000000000000000000000000000000081526004016122c990615838565b60405180910390fd5b6122db81613bff565b50565b60017f29f060ba1cf8d3659516b02281c85dcc3e81b4287766ae4751c0f500688be30f60001c61230e919061576f565b60001b81565b600060667348B505F1c5b7300de070dA9c85324272FC65f1876302f130289091846040518363ffffffff1660e01b815260040161235292919061595b565b602060405180830381865af415801561236f573d6000803e3d6000fd5b505050506040513d601f19601f8201168201806040525081019061239391906159b0565b9050919050565b600080600060017f29f060ba1cf8d3659516b02281c85dcc3e81b4287766ae4751c0f500688be30f60001c6123cf919061576f565b60001b905080549150819250505090565b606b60009054906101000a900473ffffffffffffffffffffffffffffffffffffffff1681565b61241a836077613aae90919063ffffffff16565b61245b57826040517f6aab7a0b0000000000000000000000000000000000000000000000000000000081526004016124529190614e54565b60405180910390fd5b606b60009054906101000a900473ffffffffffffffffffffffffffffffffffffffff1673ffffffffffffffffffffffffffffffffffffffff1663ac8f4425846040518263ffffffff1660e01b81526004016124b69190614e54565b602060405180830381865afa1580156124d3573d6000803e3d6000fd5b505050506040513d601f19601f820116820180604052508101906124f791906159b0565b61253857826040517f10a7bc6b00000000000000000000000000000000000000000000000000000000815260040161252f9190614e54565b60405180910390fd5b60667348B505F1c5b7300de070dA9c85324272FC65f1876302f130289091856040518363ffffffff1660e01b815260040161257492919061595b565b602060405180830381865af4158015612591573d6000803e3d6000fd5b505050506040513d601f19601f820116820180604052508101906125b591906159b0565b156125f757826040517fbd133eee0000000000000000000000000000000000000000000000000000000081526004016125ee9190614e54565b60405180910390fd5b60667348B505F1c5b7300de070dA9c85324272FC65f187632dedbbf0909185600086866040518663ffffffff1660e01b815260040161263a959493929190615a4f565b60006040518083038186803b15801561265257600080fd5b505af4158015612666573d6000803e3d6000fd5b5050505061267e836077613ade90919063ffffffff16565b508273ffffffffffffffffffffffffffffffffffffffff167f0503b4748a47435f2432d46ef300e0e2dc47baa0e5f04bb3bd8a355ee1e1dbe660405160405180910390a2505050565b600080600060017f8f989356aeb576065c8d201815b96ac9c10cf89197a532e428ebd68581557c2360001c6126fc919061576f565b60001b905080549150819250505090565b612715613974565b73ffffffffffffffffffffffffffffffffffffffff1661273361222c565b73ffffffffffffffffffffffffffffffffffffffff1614612789576040517f08c379a000000000000000000000000000000000000000000000000000000000815260040161278090615838565b60405180910390fd5b600073ffffffffffffffffffffffffffffffffffffffff168373ffffffffffffffffffffffffffffffffffffffff1614806127f05750600073ffffffffffffffffffffffffffffffffffffffff168273ffffffffffffffffffffffffffffffffffffffff16145b806128275750600073ffffffffffffffffffffffffffffffffffffffff168173ffffffffffffffffffffffffffffffffffffffff16145b1561285e576040517f0855380c00000000000000000000000000000000000000000000000000000000815260040160405180910390fd5b81606b60006101000a81548173ffffffffffffffffffffffffffffffffffffffff021916908373ffffffffffffffffffffffffffffffffffffffff16021790555080606d60006101000a81548173ffffffffffffffffffffffffffffffffffffffff021916908373ffffffffffffffffffffffffffffffffffffffff16021790555082606c60006101000a81548173ffffffffffffffffffffffffffffffffffffffff021916908373ffffffffffffffffffffffffffffffffffffffff160217905550505050565b61292e613974565b73ffffffffffffffffffffffffffffffffffffffff1661294c61222c565b73ffffffffffffffffffffffffffffffffffffffff16146129a2576040517f08c379a000000000000000000000000000000000000000000000000000000000815260040161299990615838565b60405180910390fd5b606b60009054906101000a900473ffffffffffffffffffffffffffffffffffffffff1673ffffffffffffffffffffffffffffffffffffffff1663ac8f4425826040518263ffffffff1660e01b81526004016129fd9190614e54565b602060405180830381865afa158015612a1a573d6000803e3d6000fd5b505050506040513d601f19601f82011682018060405250810190612a3e91906159b0565b612a7f57806040517f10a7bc6b000000000000000000000000000000000000000000000000000000008152600401612a769190614e54565b60405180910390fd5b60667348B505F1c5b7300de070dA9c85324272FC65f1876302f130289091836040518363ffffffff1660e01b8152600401612abb92919061595b565b602060405180830381865af4158015612ad8573d6000803e3d6000fd5b505050506040513d601f19601f82011682018060405250810190612afc91906159b0565b80612b175750612b16816077613aae90919063ffffffff16565b5b15612b5957806040517fbd133eee000000000000000000000000000000000000000000000000000000008152600401612b509190614e54565b60405180910390fd5b612b6d816077613f3c90919063ffffffff16565b5050565b600080600060667348B505F1c5b7300de070dA9c85324272FC65f187630c8f298790916040518263ffffffff1660e01b8152600401612bb09190615672565b602060405180830381865af4158015612bcd573d6000803e3d6000fd5b505050506040513d601f19601f82011682018060405250810190612bf191906156e4565b9050600060667348B505F1c5b7300de070dA9c85324272FC65f1876365da149690916040518263ffffffff1660e01b8152600401612c2f9190615672565b602060405180830381865af4158015612c4c573d6000803e3d6000fd5b505050506040513d601f19601f82011682018060405250810190612c7091906156a2565b905080607154612c809190615ad1565b93508173ffffffffffffffffffffffffffffffffffffffff168573ffffffffffffffffffffffffffffffffffffffff161415612ce35760008185612cc49190615b02565b607154612cd1919061576f565b90508085612cdf9190615b5c565b9450505b606e60008673ffffffffffffffffffffffffffffffffffffffff1673ffffffffffffffffffffffffffffffffffffffff1681526020019081526020016000205492505050915091565b600060667348B505F1c5b7300de070dA9c85324272FC65f1876365da149690916040518263ffffffff1660e01b8152600401612d689190615672565b602060405180830381865af4158015612d85573d6000803e3d6000fd5b505050506040513d601f19601f82011682018060405250810190612da991906156a2565b905090565b60008060667348B505F1c5b7300de070dA9c85324272FC65f1876349923bff90916040518263ffffffff1660e01b8152600401612deb9190615672565b602060405180830381865af4158015612e08573d6000803e3d6000fd5b505050506040513d601f19601f82011682018060405250810190612e2c91906156e4565b9150612e4282606661327890919063ffffffff16565b9091509050809150509091565b606d60009054906101000a900473ffffffffffffffffffffffffffffffffffffffff1681565b612e7d613974565b73ffffffffffffffffffffffffffffffffffffffff16612e9b61222c565b73ffffffffffffffffffffffffffffffffffffffff1614612ef1576040517f08c379a0000000000000000000000000000000000000000000000000000000008152600401612ee890615838565b60405180910390fd5b612efa81613f6c565b50565b6000612f096074613b0e565b905090565b612f166126c7565b15612f4d576040517f9e87fac800000000000000000000000000000000000000000000000000000000815260040160405180910390fd5b606b60009054906101000a900473ffffffffffffffffffffffffffffffffffffffff1673ffffffffffffffffffffffffffffffffffffffff1663ac8f4425826040518263ffffffff1660e01b8152600401612fa89190614e54565b602060405180830381865afa158015612fc5573d6000803e3d6000fd5b505050506040513d601f19601f82011682018060405250810190612fe991906159b0565b1561302b57806040517fe3bd013b0000000000000000000000000000000000000000000000000000000081526004016130229190614e54565b60405180910390fd5b61303481613bff565b50565b6060803373ffffffffffffffffffffffffffffffffffffffff16606560009054906101000a900473ffffffffffffffffffffffffffffffffffffffff1673ffffffffffffffffffffffffffffffffffffffff16141580156130e657503373ffffffffffffffffffffffffffffffffffffffff16606d60009054906101000a900473ffffffffffffffffffffffffffffffffffffffff1673ffffffffffffffffffffffffffffffffffffffff1614155b1561312857336040517f79eaeb2b00000000000000000000000000000000000000000000000000000000815260040161311f9190614e54565b60405180910390fd5b613132848461405a565b915091509250929050565b60705481565b61314b613974565b73ffffffffffffffffffffffffffffffffffffffff1661316961222c565b73ffffffffffffffffffffffffffffffffffffffff16146131bf576040517f08c379a00000000000000000000000000000000000000000000000000000000081526004016131b690615838565b60405180910390fd5b600073ffffffffffffffffffffffffffffffffffffffff168173ffffffffffffffffffffffffffffffffffffffff16141561322f576040517f08c379a000000000000000000000000000000000000000000000000000000000815260040161322690615c24565b60405180910390fd5b6132388161398d565b50565b6000808273ffffffffffffffffffffffffffffffffffffffff163b119050919050565b600061326d8360000183614819565b60001c905092915050565b60008060008061329961328a86614844565b8761486b90919063ffffffff16565b9050806040015193508060400151156132cb576132b98160000151614891565b92506132c88160200151614891565b91505b509250925092565b60006133017f360894a13ba1a3210667c828492db98dca3e2076cc3735a920a3ca505d382bbc60001b6148a2565b60000160009054906101000a900473ffffffffffffffffffffffffffffffffffffffff16905090565b613332613974565b73ffffffffffffffffffffffffffffffffffffffff1661335061222c565b73ffffffffffffffffffffffffffffffffffffffff16146133a6576040517f08c379a000000000000000000000000000000000000000000000000000000000815260040161339d90615838565b60405180910390fd5b50565b60006133b36132d3565b90506133be846148ac565b6000835111806133cb5750815b156133dc576133da8484614965565b505b600061340a7f4910fdfa16fed3260ed0e7147f7cc6da11a60208b5b9406d12a635614ffd914360001b614992565b90508060000160009054906101000a900460ff166135735760018160000160006101000a81548160ff0219169083151502179055506134d685836040516024016134549190614e54565b6040516020818303038152906040527f3659cfe6000000000000000000000000000000000000000000000000000000007bffffffffffffffffffffffffffffffffffffffffffffffffffffffff19166020820180517bffffffffffffffffffffffffffffffffffffffffffffffffffffffff8381831617835250505050614965565b5060008160000160006101000a81548160ff0219169083151502179055506134fc6132d3565b73ffffffffffffffffffffffffffffffffffffffff168273ffffffffffffffffffffffffffffffffffffffff1614613569576040517f08c379a000000000000000000000000000000000000000000000000000000000815260040161356090615cb6565b60405180910390fd5b6135728561499c565b5b5050505050565b6000818310613589578161358b565b825b905092915050565b801561360d5781606e60008573ffffffffffffffffffffffffffffffffffffffff1673ffffffffffffffffffffffffffffffffffffffff16815260200190815260200160002060008282546135e89190615b5c565b9250508190555081607160008282546136019190615b5c565b9250508190555061367d565b81606e60008573ffffffffffffffffffffffffffffffffffffffff1673ffffffffffffffffffffffffffffffffffffffff168152602001908152602001600020600082825461365c919061576f565b925050819055508160716000828254613675919061576f565b925050819055505b505050565b613696836074613aae90919063ffffffff16565b156136a057613931565b6000808261372f5760667348B505F1c5b7300de070dA9c85324272FC65f18763a4aadfcc909187876072546040518563ffffffff1660e01b81526004016136ea9493929190615cd6565b6040805180830381865af4158015613706573d6000803e3d6000fd5b505050506040513d601f19601f8201168201806040525081019061372a9190615d1b565b6137b2565b60667348B505F1c5b7300de070dA9c85324272FC65f1876399f68a39909187876072546040518563ffffffff1660e01b81526004016137719493929190615cd6565b6040805180830381865af415801561378d573d6000803e3d6000fd5b505050506040513d601f19601f820116820180604052508101906137b19190615d1b565b5b915091508073ffffffffffffffffffffffffffffffffffffffff168273ffffffffffffffffffffffffffffffffffffffff1614158061386b5750600160667348B505F1c5b7300de070dA9c85324272FC65f1876365da149690916040518263ffffffff1660e01b81526004016138289190615672565b602060405180830381865af4158015613845573d6000803e3d6000fd5b505050506040513d601f19601f8201168201806040525081019061386991906156a2565b145b156138e75760667348B505F1c5b7300de070dA9c85324272FC65f18763cab455ae9091878786866040518663ffffffff1660e01b81526004016138b2959493929190615908565b60006040518083038186803b1580156138ca57600080fd5b505af41580156138de573d6000803e3d6000fd5b5050505061392e565b607360009054906101000a900460ff1615613918576000607360006101000a81548160ff0219169083151502179055505b61392c856074613f3c90919063ffffffff16565b505b50505b505050565b600060017f8f989356aeb576065c8d201815b96ac9c10cf89197a532e428ebd68581557c2360001c613968919061576f565b60001b90508181555050565b600033905090565b60006139873061323b565b15905090565b6000603360009054906101000a900473ffffffffffffffffffffffffffffffffffffffff16905081603360006101000a81548173ffffffffffffffffffffffffffffffffffffffff021916908373ffffffffffffffffffffffffffffffffffffffff1602179055508173ffffffffffffffffffffffffffffffffffffffff168173ffffffffffffffffffffffffffffffffffffffff167f8be0079c531659141344cd1fd0a4f28419497f9722a3daafe3b4186f6b6457e060405160405180910390a35050565b600060019054906101000a900460ff16613aa2576040517f08c379a0000000000000000000000000000000000000000000000000000000008152600401613a9990615dcd565b60405180910390fd5b613aab81613f6c565b50565b6000613ad6836000018373ffffffffffffffffffffffffffffffffffffffff1660001b6149eb565b905092915050565b6000613b06836000018373ffffffffffffffffffffffffffffffffffffffff1660001b614a0e565b905092915050565b6000613b1c82600001614b22565b9050919050565b600073ffffffffffffffffffffffffffffffffffffffff168173ffffffffffffffffffffffffffffffffffffffff161415613b8a576040517f0855380c00000000000000000000000000000000000000000000000000000000815260040160405180910390fd5b600060017f29f060ba1cf8d3659516b02281c85dcc3e81b4287766ae4751c0f500688be30f60001c613bbc919061576f565b60001b90508181557fd11d57c2c7468878b1035df11c670bcd0091aa840bf8aa166365397622237bea82604051613bf39190614e54565b60405180910390a15050565b60667348B505F1c5b7300de070dA9c85324272FC65f1876302f130289091836040518363ffffffff1660e01b8152600401613c3b92919061595b565b602060405180830381865af4158015613c58573d6000803e3d6000fd5b505050506040513d601f19601f82011682018060405250810190613c7c91906159b0565b613cbd57806040517f1adbb153000000000000000000000000000000000000000000000000000000008152600401613cb49190614e54565b60405180910390fd5b60765460667348B505F1c5b7300de070dA9c85324272FC65f1876365da149690916040518263ffffffff1660e01b8152600401613cfa9190615672565b602060405180830381865af4158015613d17573d6000803e3d6000fd5b505050506040513d601f19601f82011682018060405250810190613d3b91906156a2565b11613d72576040517f0e57c16d00000000000000000000000000000000000000000000000000000000815260040160405180910390fd5b60667348B505F1c5b7300de070dA9c85324272FC65f18763281359299091836040518363ffffffff1660e01b8152600401613dae92919061595b565b60006040518083038186803b158015613dc657600080fd5b505af4158015613dda573d6000803e3d6000fd5b50505050613df2816074613ade90919063ffffffff16565b506000606e60008373ffffffffffffffffffffffffffffffffffffffff1673ffffffffffffffffffffffffffffffffffffffff1681526020019081526020016000205490506000811115613ef557613e4c82826000613593565b613ef2606560009054906101000a900473ffffffffffffffffffffffffffffffffffffffff1673ffffffffffffffffffffffffffffffffffffffff16630567847f836040518263ffffffff1660e01b8152600401613eaa9190614d8b565b602060405180830381865afa158015613ec7573d6000803e3d6000fd5b505050506040513d601f19601f82011682018060405250810190613eeb91906156a2565b600061405a565b50505b8173ffffffffffffffffffffffffffffffffffffffff167fa78a88a551e130ce9732be17784bdff12f72ab4a2c833fb2dcb3ef0818956b0360405160405180910390a25050565b6000613f64836000018373ffffffffffffffffffffffffffffffffffffffff1660001b614b33565b905092915050565b600073ffffffffffffffffffffffffffffffffffffffff168173ffffffffffffffffffffffffffffffffffffffff161415613fd3576040517f0855380c00000000000000000000000000000000000000000000000000000000815260040160405180910390fd5b80606560006101000a81548173ffffffffffffffffffffffffffffffffffffffff021916908373ffffffffffffffffffffffffffffffffffffffff1602179055508073ffffffffffffffffffffffffffffffffffffffff167f60a0f5b9f9e81e98216071b85826681c796256fe3d1354ecb675580fba64fa6960405160405180910390a250565b606080600060667348B505F1c5b7300de070dA9c85324272FC65f1876365da149690916040518263ffffffff1660e01b81526004016140999190615672565b602060405180830381865af41580156140b6573d6000803e3d6000fd5b505050506040513d601f19601f820116820180604052508101906140da91906156a2565b1415614112576040517f7818a60e00000000000000000000000000000000000000000000000000000000815260040160405180910390fd5b600061419a606f5460667348B505F1c5b7300de070dA9c85324272FC65f1876365da149690916040518263ffffffff1660e01b81526004016141549190615672565b602060405180830381865af4158015614171573d6000803e3d6000fd5b505050506040513d601f19601f8201168201806040525081019061419591906156a2565b61357a565b905060008167ffffffffffffffff8111156141b8576141b7615169565b5b6040519080825280602002602001820160405280156141e65781602001602082028036833780820191505090505b50905060008267ffffffffffffffff81111561420557614204615169565b5b6040519080825280602002602001820160405280156142335781602001602082028036833780820191505090505b509050600060667348B505F1c5b7300de070dA9c85324272FC65f1876349923bff90916040518263ffffffff1660e01b81526004016142729190615672565b602060405180830381865af415801561428f573d6000803e3d6000fd5b505050506040513d601f19601f820116820180604052508101906142b391906156e4565b905060005b84811080156142c8575060008914155b80156143015750600073ffffffffffffffffffffffffffffffffffffffff168273ffffffffffffffffffffffffffffffffffffffff1614155b1561467c576000606560009054906101000a900473ffffffffffffffffffffffffffffffffffffffff1673ffffffffffffffffffffffffffffffffffffffff16632c431058846040518263ffffffff1660e01b81526004016143639190614e54565b602060405180830381865afa158015614380573d6000803e3d6000fd5b505050506040513d601f19601f820116820180604052508101906143a491906156a2565b90508873ffffffffffffffffffffffffffffffffffffffff168373ffffffffffffffffffffffffffffffffffffffff1614806143e05750600081145b15614408576143f983606661327890919063ffffffff16565b909150905080935050506142b8565b614412818b61357a565b84838151811061442557614424615711565b5b6020026020010181815250508285838151811061444557614444615711565b5b602002602001019073ffffffffffffffffffffffffffffffffffffffff16908173ffffffffffffffffffffffffffffffffffffffff168152505083828151811061449257614491615711565b5b60200260200101518a6144a5919061576f565b995061456883606560009054906101000a900473ffffffffffffffffffffffffffffffffffffffff1673ffffffffffffffffffffffffffffffffffffffff1663c494ec1e8786815181106144fc576144fb615711565b5b60200260200101516040518263ffffffff1660e01b81526004016145209190614d8b565b602060405180830381865afa15801561453d573d6000803e3d6000fd5b505050506040513d601f19601f8201168201806040525081019061456191906156a2565b6001613593565b6145b383606e60008673ffffffffffffffffffffffffffffffffffffffff1673ffffffffffffffffffffffffffffffffffffffff168152602001908152602001600020546001613682565b607360009054906101000a900460ff161561464a5760667348B505F1c5b7300de070dA9c85324272FC65f1876349923bff90916040518263ffffffff1660e01b81526004016146029190615672565b602060405180830381865af415801561461f573d6000803e3d6000fd5b505050506040513d601f19601f8201168201806040525081019061464391906156e4565b9250614668565b61465e83606661327890919063ffffffff16565b9091509050809350505b8180614673906157a3565b925050506142b8565b600089146146b6576040517f2e6c1bf900000000000000000000000000000000000000000000000000000000815260040160405180910390fd5b8067ffffffffffffffff8111156146d0576146cf615169565b5b6040519080825280602002602001820160405280156146fe5781602001602082028036833780820191505090505b5096508067ffffffffffffffff81111561471b5761471a615169565b5b6040519080825280602002602001820160405280156147495781602001602082028036833780820191505090505b50955060005b8181101561480c5784818151811061476a57614769615711565b5b602002602001015188828151811061478557614784615711565b5b602002602001019073ffffffffffffffffffffffffffffffffffffffff16908173ffffffffffffffffffffffffffffffffffffffff16815250508381815181106147d2576147d1615711565b5b60200260200101518782815181106147ed576147ec615711565b5b6020026020010181815250508080614804906157a3565b91505061474f565b5050505050509250929050565b600082600001828154811061483157614830615711565b5b9060005260206000200154905092915050565b600060608273ffffffffffffffffffffffffffffffffffffffff16901b60001b9050919050565b614873614d49565b6148898284600001614ba390919063ffffffff16565b905092915050565b600060608260001c901c9050919050565b6000819050919050565b6148b581614c02565b6148f4576040517f08c379a00000000000000000000000000000000000000000000000000000000081526004016148eb90615e5f565b60405180910390fd5b806149217f360894a13ba1a3210667c828492db98dca3e2076cc3735a920a3ca505d382bbc60001b6148a2565b60000160006101000a81548173ffffffffffffffffffffffffffffffffffffffff021916908373ffffffffffffffffffffffffffffffffffffffff16021790555050565b606061498a838360405180606001604052806027815260200161603860279139614c15565b905092915050565b6000819050919050565b6149a5816148ac565b8073ffffffffffffffffffffffffffffffffffffffff167fbc7cd75a20ee27fd9adebab32041f755214dbc6bffa90cc0225b39da2e5c2d3b60405160405180910390a250565b600080836001016000848152602001908152602001600020541415905092915050565b60008083600101600084815260200190815260200160002054905060008114614b16576000600182614a40919061576f565b9050600060018660000180549050614a58919061576f565b9050818114614ac7576000866000018281548110614a7957614a78615711565b5b9060005260206000200154905080876000018481548110614a9d57614a9c615711565b5b90600052602060002001819055508387600101600083815260200190815260200160002081905550505b85600001805480614adb57614ada615e7f565b5b600190038181906000526020600020016000905590558560010160008681526020019081526020016000206000905560019350505050614b1c565b60009150505b92915050565b600081600001805490509050919050565b6000614b3f83836149eb565b614b98578260000182908060018154018082558091505060019003906000526020600020016000909190919091505582600001805490508360010160008481526020019081526020016000208190555060019050614b9d565b600090505b92915050565b614bab614d49565b82600301600083815260200190815260200160002060405180606001604052908160008201548152602001600182015481526020016002820160009054906101000a900460ff161515151581525050905092915050565b600080823b905060008111915050919050565b6060614c2084614c02565b614c5f576040517f08c379a0000000000000000000000000000000000000000000000000000000008152600401614c5690615f20565b60405180910390fd5b6000808573ffffffffffffffffffffffffffffffffffffffff1685604051614c879190615fba565b600060405180830381855af49150503d8060008114614cc2576040519150601f19603f3d011682016040523d82523d6000602084013e614cc7565b606091505b5091509150614cd7828286614ce2565b925050509392505050565b60608315614cf257829050614d42565b600083511115614d055782518084602001fd5b816040517f08c379a0000000000000000000000000000000000000000000000000000000008152600401614d399190616015565b60405180910390fd5b9392505050565b604051806060016040528060008019168152602001600080191681526020016000151581525090565b6000819050919050565b614d8581614d72565b82525050565b6000602082019050614da06000830184614d7c565b92915050565b6000604051905090565b600080fd5b600080fd5b614dc381614d72565b8114614dce57600080fd5b50565b600081359050614de081614dba565b92915050565b600060208284031215614dfc57614dfb614db0565b5b6000614e0a84828501614dd1565b91505092915050565b600073ffffffffffffffffffffffffffffffffffffffff82169050919050565b6000614e3e82614e13565b9050919050565b614e4e81614e33565b82525050565b6000602082019050614e696000830184614e45565b92915050565b614e7881614e33565b8114614e8357600080fd5b50565b600081359050614e9581614e6f565b92915050565b600060208284031215614eb157614eb0614db0565b5b6000614ebf84828501614e86565b91505092915050565b6000604082019050614edd6000830185614e45565b614eea6020830184614e45565b9392505050565b60008115159050919050565b614f0681614ef1565b82525050565b6000602082019050614f216000830184614efd565b92915050565b600081519050919050565b600082825260208201905092915050565b6000819050602082019050919050565b614f5c81614e33565b82525050565b6000614f6e8383614f53565b60208301905092915050565b6000602082019050919050565b6000614f9282614f27565b614f9c8185614f32565b9350614fa783614f43565b8060005b83811015614fd8578151614fbf8882614f62565b9750614fca83614f7a565b925050600181019050614fab565b5085935050505092915050565b600081519050919050565b600082825260208201905092915050565b6000819050602082019050919050565b61501a81614d72565b82525050565b600061502c8383615011565b60208301905092915050565b6000602082019050919050565b600061505082614fe5565b61505a8185614ff0565b935061506583615001565b8060005b8381101561509657815161507d8882615020565b975061508883615038565b925050600181019050615069565b5085935050505092915050565b600060408201905081810360008301526150bd8185614f87565b905081810360208301526150d18184615045565b90509392505050565b6000819050919050565b6150ed816150da565b82525050565b600060208201905061510860008301846150e4565b92915050565b6000806040838503121561512557615124614db0565b5b600061513385828601614e86565b925050602061514485828601614e86565b9150509250929050565b600080fd5b600080fd5b6000601f19601f8301169050919050565b7f4e487b7100000000000000000000000000000000000000000000000000000000600052604160045260246000fd5b6151a182615158565b810181811067ffffffffffffffff821117156151c0576151bf615169565b5b80604052505050565b60006151d3614da6565b90506151df8282615198565b919050565b600067ffffffffffffffff8211156151ff576151fe615169565b5b61520882615158565b9050602081019050919050565b82818337600083830152505050565b6000615237615232846151e4565b6151c9565b90508281526020810184848401111561525357615252615153565b5b61525e848285615215565b509392505050565b600082601f83011261527b5761527a61514e565b5b813561528b848260208601615224565b91505092915050565b600080604083850312156152ab576152aa614db0565b5b60006152b985828601614e86565b925050602083013567ffffffffffffffff8111156152da576152d9614db5565b5b6152e685828601615266565b9150509250929050565b60008060006060848603121561530957615308614db0565b5b600061531786828701614e86565b935050602061532886828701614e86565b925050604061533986828701614e86565b9150509250925092565b60006080820190506153586000830187614d7c565b6153656020830186614d7c565b6153726040830185614d7c565b61537f6060830184614d7c565b95945050505050565b6000819050919050565b60006153ad6153a86153a384614e13565b615388565b614e13565b9050919050565b60006153bf82615392565b9050919050565b60006153d1826153b4565b9050919050565b6153e1816153c6565b82525050565b60006020820190506153fc60008301846153d8565b92915050565b60008060006060848603121561541b5761541a614db0565b5b600061542986828701614dd1565b935050602061543a86828701614dd1565b925050604061544b86828701614dd1565b9150509250925092565b6000615460826153b4565b9050919050565b61547081615455565b82525050565b600060208201905061548b6000830184615467565b92915050565b60006040820190506154a66000830185614d7c565b6154b36020830184614d7c565b9392505050565b60006154c5826153b4565b9050919050565b6154d5816154ba565b82525050565b60006020820190506154f060008301846154cc565b92915050565b6000806040838503121561550d5761550c614db0565b5b600061551b85828601614dd1565b925050602061552c85828601614e86565b9150509250929050565b600082825260208201905092915050565b7f46756e6374696f6e206d7573742062652063616c6c6564207468726f7567682060008201527f64656c656761746563616c6c0000000000000000000000000000000000000000602082015250565b60006155a3602c83615536565b91506155ae82615547565b604082019050919050565b600060208201905081810360008301526155d281615596565b9050919050565b7f46756e6374696f6e206d7573742062652063616c6c6564207468726f7567682060008201527f6163746976652070726f78790000000000000000000000000000000000000000602082015250565b6000615635602c83615536565b9150615640826155d9565b604082019050919050565b6000602082019050818103600083015261566481615628565b9050919050565b8082525050565b6000602082019050615687600083018461566b565b92915050565b60008151905061569c81614dba565b92915050565b6000602082840312156156b8576156b7614db0565b5b60006156c68482850161568d565b91505092915050565b6000815190506156de81614e6f565b92915050565b6000602082840312156156fa576156f9614db0565b5b6000615708848285016156cf565b91505092915050565b7f4e487b7100000000000000000000000000000000000000000000000000000000600052603260045260246000fd5b7f4e487b7100000000000000000000000000000000000000000000000000000000600052601160045260246000fd5b600061577a82614d72565b915061578583614d72565b92508282101561579857615797615740565b5b828203905092915050565b60006157ae82614d72565b91507fffffffffffffffffffffffffffffffffffffffffffffffffffffffffffffffff8214156157e1576157e0615740565b5b600182019050919050565b7f4f776e61626c653a2063616c6c6572206973206e6f7420746865206f776e6572600082015250565b6000615822602083615536565b915061582d826157ec565b602082019050919050565b6000602082019050818103600083015261585181615815565b9050919050565b7f496e697469616c697a61626c653a20636f6e747261637420697320616c72656160008201527f647920696e697469616c697a6564000000000000000000000000000000000000602082015250565b60006158b4602e83615536565b91506158bf82615858565b604082019050919050565b600060208201905081810360008301526158e3816158a7565b9050919050565b6158f381614e33565b82525050565b61590281614d72565b82525050565b600060a08201905061591d600083018861566b565b61592a60208301876158ea565b61593760408301866158f9565b61594460608301856158ea565b61595160808301846158ea565b9695505050505050565b6000604082019050615970600083018561566b565b61597d60208301846158ea565b9392505050565b61598d81614ef1565b811461599857600080fd5b50565b6000815190506159aa81615984565b92915050565b6000602082840312156159c6576159c5614db0565b5b60006159d48482850161599b565b91505092915050565b60006060820190506159f26000830186614e45565b6159ff6020830185614d7c565b615a0c6040830184614d7c565b949350505050565b6000819050919050565b6000615a39615a34615a2f84615a14565b615388565b614d72565b9050919050565b615a4981615a1e565b82525050565b600060a082019050615a64600083018861566b565b615a7160208301876158ea565b615a7e6040830186615a40565b615a8b60608301856158ea565b615a9860808301846158ea565b9695505050505050565b7f4e487b7100000000000000000000000000000000000000000000000000000000600052601260045260246000fd5b6000615adc82614d72565b9150615ae783614d72565b925082615af757615af6615aa2565b5b828204905092915050565b6000615b0d82614d72565b9150615b1883614d72565b9250817fffffffffffffffffffffffffffffffffffffffffffffffffffffffffffffffff0483118215151615615b5157615b50615740565b5b828202905092915050565b6000615b6782614d72565b9150615b7283614d72565b9250827fffffffffffffffffffffffffffffffffffffffffffffffffffffffffffffffff03821115615ba757615ba6615740565b5b828201905092915050565b7f4f776e61626c653a206e6577206f776e657220697320746865207a65726f206160008201527f6464726573730000000000000000000000000000000000000000000000000000602082015250565b6000615c0e602683615536565b9150615c1982615bb2565b604082019050919050565b60006020820190508181036000830152615c3d81615c01565b9050919050565b7f45524331393637557067726164653a207570677261646520627265616b73206660008201527f7572746865722075706772616465730000000000000000000000000000000000602082015250565b6000615ca0602f83615536565b9150615cab82615c44565b604082019050919050565b60006020820190508181036000830152615ccf81615c93565b9050919050565b6000608082019050615ceb600083018761566b565b615cf860208301866158ea565b615d0560408301856158f9565b615d1260608301846158f9565b95945050505050565b60008060408385031215615d3257615d31614db0565b5b6000615d40858286016156cf565b9250506020615d51858286016156cf565b9150509250929050565b7f496e697469616c697a61626c653a20636f6e7472616374206973206e6f74206960008201527f6e697469616c697a696e67000000000000000000000000000000000000000000602082015250565b6000615db7602b83615536565b9150615dc282615d5b565b604082019050919050565b60006020820190508181036000830152615de681615daa565b9050919050565b7f455243313936373a206e657720696d706c656d656e746174696f6e206973206e60008201527f6f74206120636f6e747261637400000000000000000000000000000000000000602082015250565b6000615e49602d83615536565b9150615e5482615ded565b604082019050919050565b60006020820190508181036000830152615e7881615e3c565b9050919050565b7f4e487b7100000000000000000000000000000000000000000000000000000000600052603160045260246000fd5b7f416464726573733a2064656c65676174652063616c6c20746f206e6f6e2d636f60008201527f6e74726163740000000000000000000000000000000000000000000000000000602082015250565b6000615f0a602683615536565b9150615f1582615eae565b604082019050919050565b60006020820190508181036000830152615f3981615efd565b9050919050565b600081519050919050565b600081905092915050565b60005b83811015615f74578082015181840152602081019050615f59565b83811115615f83576000848401525b50505050565b6000615f9482615f40565b615f9e8185615f4b565b9350615fae818560208601615f56565b80840191505092915050565b6000615fc68284615f89565b915081905092915050565b600081519050919050565b6000615fe782615fd1565b615ff18185615536565b9350616001818560208601615f56565b61600a81615158565b840191505092915050565b6000602082019050818103600083015261602f8184615fdc565b90509291505056fe416464726573733a206c6f772d6c6576656c2064656c65676174652063616c6c206661696c6564a26469706673582212201eb73f052acfd6dd461a4893d087269c87543eedb94e0295f90c109f1a1f33ca64736f6c634300080b0033",
  "deployedBytecode": "0x60806040526004361061027d5760003560e01c806385a92cb71161014f578063b52d326c116100c1578063d0ebdbe71161007a578063d0ebdbe71461094d578063d2a2ce5d14610976578063dcdab02a146109a1578063e0cd8d27146109ca578063eccacf7f14610a08578063f2fde38b14610a335761027d565b8063b52d326c1461083b578063b95de2d614610864578063be982c311461088d578063c1fa411a146108cb578063c5728c83146108f6578063cf009f7a146109225761027d565b80639468ba0e116101135780639468ba0e146107295780639f8a13d7146107545780639fd0506d14610791578063a3f16ef1146107bc578063afc97578146107e7578063b187bd26146108105761027d565b806385a92cb714610644578063885640db146106815780638b0a063d146106aa5780638da5cb5b146106d557806393739a93146107005761027d565b8063485cc955116101f35780636d232345116101ac5780636d2323451461056d5780636fe958d8146105aa578063715018a6146105d3578063724e61d0146105ea5780637c0d530f146106165780638456cb591461062d5761027d565b8063485cc9551461047b5780634f1ef286146104a45780634fc517eb146104c05780635145b0ad146104eb57806354255be0146105145780635dab2420146105425761027d565b80633659cfe6116102455780633659cfe61461037e57806336691a41146103a75780633cbf5872146103e55780633f4ba83a1461041057806341b9179f14610427578063481c6a75146104505761027d565b80630c29aab2146102825780630f8f0fcc146102ad57806325b21f6b146102ea5780632863f68c146103155780632de2c5ac14610353575b600080fd5b34801561028e57600080fd5b50610297610a5c565b6040516102a49190614d8b565b60405180910390f35b3480156102b957600080fd5b506102d460048036038101906102cf9190614de6565b610a62565b6040516102e19190614e54565b60405180910390f35b3480156102f657600080fd5b506102ff610a7f565b60405161030c9190614d8b565b60405180910390f35b34801561032157600080fd5b5061033c60048036038101906103379190614e9b565b610a85565b60405161034a929190614ec8565b60405180910390f35b34801561035f57600080fd5b50610368610aac565b6040516103759190614f0c565b60405180910390f35b34801561038a57600080fd5b506103a560048036038101906103a09190614e9b565b610abf565b005b3480156103b357600080fd5b506103ce60048036038101906103c99190614de6565b610c48565b6040516103dc9291906150a3565b60405180910390f35b3480156103f157600080fd5b506103fa61156d565b60405161040791906150f3565b60405180910390f35b34801561041c57600080fd5b506104256115a3565b005b34801561043357600080fd5b5061044e60048036038101906104499190614de6565b611647565b005b34801561045c57600080fd5b506104656116cd565b6040516104729190614e54565b60405180910390f35b34801561048757600080fd5b506104a2600480360381019061049d919061510e565b6116f3565b005b6104be60048036038101906104b99190615294565b611864565b005b3480156104cc57600080fd5b506104d56119a1565b6040516104e29190614d8b565b60405180910390f35b3480156104f757600080fd5b50610512600480360381019061050d91906152f0565b6119a7565b005b34801561052057600080fd5b50610529611b6f565b6040516105399493929190615343565b60405180910390f35b34801561054e57600080fd5b50610557611b8a565b60405161056491906153e7565b60405180910390f35b34801561057957600080fd5b50610594600480360381019061058f9190614de6565b611bb0565b6040516105a19190614e54565b60405180910390f35b3480156105b657600080fd5b506105d160048036038101906105cc919061510e565b611bcd565b005b3480156105df57600080fd5b506105e8611f13565b005b3480156105f657600080fd5b506105ff611f9b565b60405161060d929190614ec8565b60405180910390f35b34801561062257600080fd5b5061062b61203b565b005b34801561063957600080fd5b506106426120c9565b005b34801561065057600080fd5b5061066b60048036038101906106669190614e9b565b61216d565b6040516106789190614d8b565b60405180910390f35b34801561068d57600080fd5b506106a860048036038101906106a39190615402565b612185565b005b3480156106b657600080fd5b506106bf61221b565b6040516106cc9190614d8b565b60405180910390f35b3480156106e157600080fd5b506106ea61222c565b6040516106f79190614e54565b60405180910390f35b34801561070c57600080fd5b5061072760048036038101906107229190614e9b565b612256565b005b34801561073557600080fd5b5061073e6122de565b60405161074b91906150f3565b60405180910390f35b34801561076057600080fd5b5061077b60048036038101906107769190614e9b565b612314565b6040516107889190614f0c565b60405180910390f35b34801561079d57600080fd5b506107a661239a565b6040516107b39190614e54565b60405180910390f35b3480156107c857600080fd5b506107d16123e0565b6040516107de9190615476565b60405180910390f35b3480156107f357600080fd5b5061080e600480360381019061080991906152f0565b612406565b005b34801561081c57600080fd5b506108256126c7565b6040516108329190614f0c565b60405180910390f35b34801561084757600080fd5b50610862600480360381019061085d91906152f0565b61270d565b005b34801561087057600080fd5b5061088b60048036038101906108869190614e9b565b612926565b005b34801561089957600080fd5b506108b460048036038101906108af9190614e9b565b612b71565b6040516108c2929190615491565b60405180910390f35b3480156108d757600080fd5b506108e0612d2c565b6040516108ed9190614d8b565b60405180910390f35b34801561090257600080fd5b5061090b612dae565b604051610919929190614ec8565b60405180910390f35b34801561092e57600080fd5b50610937612e4f565b60405161094491906154db565b60405180910390f35b34801561095957600080fd5b50610974600480360381019061096f9190614e9b565b612e75565b005b34801561098257600080fd5b5061098b612efd565b6040516109989190614d8b565b60405180910390f35b3480156109ad57600080fd5b506109c860048036038101906109c39190614e9b565b612f0e565b005b3480156109d657600080fd5b506109f160048036038101906109ec91906154f6565b613037565b6040516109ff9291906150a3565b60405180910390f35b348015610a1457600080fd5b50610a1d61313d565b604051610a2a9190614d8b565b60405180910390f35b348015610a3f57600080fd5b50610a5a6004803603810190610a559190614e9b565b613143565b005b60715481565b6000610a7882607461325e90919063ffffffff16565b9050919050565b60765481565b600080610a9c83606661327890919063ffffffff16565b9091508092508193505050915091565b607360009054906101000a900460ff1681565b7f000000000000000000000000000000000000000000000000000000000000000073ffffffffffffffffffffffffffffffffffffffff163073ffffffffffffffffffffffffffffffffffffffff161415610b4e576040517f08c379a0000000000000000000000000000000000000000000000000000000008152600401610b45906155b9565b60405180910390fd5b7f000000000000000000000000000000000000000000000000000000000000000073ffffffffffffffffffffffffffffffffffffffff16610b8d6132d3565b73ffffffffffffffffffffffffffffffffffffffff1614610be3576040517f08c379a0000000000000000000000000000000000000000000000000000000008152600401610bda9061564b565b60405180910390fd5b610bec8161332a565b610c4581600067ffffffffffffffff811115610c0b57610c0a615169565b5b6040519080825280601f01601f191660200182016040528015610c3d5781602001600182028036833780820191505090505b5060006133a9565b50565b6060803373ffffffffffffffffffffffffffffffffffffffff16606560009054906101000a900473ffffffffffffffffffffffffffffffffffffffff1673ffffffffffffffffffffffffffffffffffffffff1614158015610cf757503373ffffffffffffffffffffffffffffffffffffffff16606d60009054906101000a900473ffffffffffffffffffffffffffffffffffffffff1673ffffffffffffffffffffffffffffffffffffffff1614155b15610d3957336040517f79eaeb2b000000000000000000000000000000000000000000000000000000008152600401610d309190614e54565b60405180910390fd5b6000606673__$18085dca7c6a2f09a309a1b54006aa0b25$__6365da149690916040518263ffffffff1660e01b8152600401610d759190615672565b602060405180830381865af4158015610d92573d6000803e3d6000fd5b505050506040513d601f19601f82011682018060405250810190610db691906156a2565b1415610dee576040517f7818a60e00000000000000000000000000000000000000000000000000000000815260040160405180910390fd5b6000610e76607054606673__$18085dca7c6a2f09a309a1b54006aa0b25$__6365da149690916040518263ffffffff1660e01b8152600401610e309190615672565b602060405180830381865af4158015610e4d573d6000803e3d6000fd5b505050506040513d601f19601f82011682018060405250810190610e7191906156a2565b61357a565b905060008167ffffffffffffffff811115610e9457610e93615169565b5b604051908082528060200260200182016040528015610ec25781602001602082028036833780820191505090505b50905060008267ffffffffffffffff811115610ee157610ee0615169565b5b604051908082528060200260200182016040528015610f0f5781602001602082028036833780820191505090505b5090506000606673__$18085dca7c6a2f09a309a1b54006aa0b25$__630c8f298790916040518263ffffffff1660e01b8152600401610f4e9190615672565b602060405180830381865af4158015610f6b573d6000803e3d6000fd5b505050506040513d601f19601f82011682018060405250810190610f8f91906156e4565b905060005b8481108015610fa4575060008814155b8015610fdd5750600073ffffffffffffffffffffffffffffffffffffffff168273ffffffffffffffffffffffffffffffffffffffff1614155b156113d25761116a611164606c60009054906101000a900473ffffffffffffffffffffffffffffffffffffffff1673ffffffffffffffffffffffffffffffffffffffff1663acd201d0856040518263ffffffff1660e01b81526004016110439190614e54565b602060405180830381865afa158015611060573d6000803e3d6000fd5b505050506040513d601f19601f8201168201806040525081019061108491906156a2565b606560009054906101000a900473ffffffffffffffffffffffffffffffffffffffff1673ffffffffffffffffffffffffffffffffffffffff16630567847f606e60008873ffffffffffffffffffffffffffffffffffffffff1673ffffffffffffffffffffffffffffffffffffffff168152602001908152602001600020546040518263ffffffff1660e01b815260040161111e9190614d8b565b602060405180830381865afa15801561113b573d6000803e3d6000fd5b505050506040513d601f19601f8201168201806040525081019061115f91906156a2565b61357a565b8961357a565b83828151811061117d5761117c615711565b5b6020026020010181815250508184828151811061119d5761119c615711565b5b602002602001019073ffffffffffffffffffffffffffffffffffffffff16908173ffffffffffffffffffffffffffffffffffffffff16815250508281815181106111ea576111e9615711565b5b6020026020010151886111fd919061576f565b97506112c082606560009054906101000a900473ffffffffffffffffffffffffffffffffffffffff1673ffffffffffffffffffffffffffffffffffffffff1663c494ec1e86858151811061125457611253615711565b5b60200260200101516040518263ffffffff1660e01b81526004016112789190614d8b565b602060405180830381865afa158015611295573d6000803e3d6000fd5b505050506040513d601f19601f820116820180604052508101906112b991906156a2565b6000613593565b61130b82606e60008573ffffffffffffffffffffffffffffffffffffffff1673ffffffffffffffffffffffffffffffffffffffff168152602001908152602001600020546000613682565b607360009054906101000a900460ff16156113a257606673__$18085dca7c6a2f09a309a1b54006aa0b25$__630c8f298790916040518263ffffffff1660e01b815260040161135a9190615672565b602060405180830381865af4158015611377573d6000803e3d6000fd5b505050506040513d601f19601f8201168201806040525081019061139b91906156e4565b91506113bf565b6113b682606661327890919063ffffffff16565b90915050809250505b80806113ca906157a3565b915050610f94565b6000881461140c576040517f2e6c1bf900000000000000000000000000000000000000000000000000000000815260040160405180910390fd5b8067ffffffffffffffff81111561142657611425615169565b5b6040519080825280602002602001820160405280156114545781602001602082028036833780820191505090505b5096508067ffffffffffffffff81111561147157611470615169565b5b60405190808252806020026020018201604052801561149f5781602001602082028036833780820191505090505b50955060005b81811015611562578481815181106114c0576114bf615711565b5b60200260200101518882815181106114db576114da615711565b5b602002602001019073ffffffffffffffffffffffffffffffffffffffff16908173ffffffffffffffffffffffffffffffffffffffff168152505083818151811061152857611527615711565b5b602002602001015187828151811061154357611542615711565b5b602002602001018181525050808061155a906157a3565b9150506114a5565b505050505050915091565b60017f8f989356aeb576065c8d201815b96ac9c10cf89197a532e428ebd68581557c2360001c61159d919061576f565b60001b81565b6115ab61239a565b73ffffffffffffffffffffffffffffffffffffffff163373ffffffffffffffffffffffffffffffffffffffff161461160f576040517f75df51dc00000000000000000000000000000000000000000000000000000000815260040160405180910390fd5b6116196000613936565b7f0e5e3b3fb504c22cf5c42fa07d521225937514c654007e1f12646f89768d6f9460405160405180910390a1565b61164f613974565b73ffffffffffffffffffffffffffffffffffffffff1661166d61222c565b73ffffffffffffffffffffffffffffffffffffffff16146116c3576040517f08c379a00000000000000000000000000000000000000000000000000000000081526004016116ba90615838565b60405180910390fd5b8060768190555050565b606560009054906101000a900473ffffffffffffffffffffffffffffffffffffffff1681565b600060019054906101000a900460ff1661171b5760008054906101000a900460ff1615611724565b61172361397c565b5b611763576040517f08c379a000000000000000000000000000000000000000000000000000000000815260040161175a906158ca565b60405180910390fd5b60008060019054906101000a900460ff1615905080156117b3576001600060016101000a81548160ff02191690831515021790555060016000806101000a81548160ff0219169083151502179055505b6117bc8361398d565b6117c582613a53565b6008606f819055506008607081905550600a6072819055506001607360006101000a81548160ff0219169083151502179055507fb930683f0749189780c4016ec37d019eb0cbbf6550ce7374fac5cfbae93909a7607360009054906101000a900460ff166040516118369190614f0c565b60405180910390a1801561185f5760008060016101000a81548160ff0219169083151502179055505b505050565b7f000000000000000000000000000000000000000000000000000000000000000073ffffffffffffffffffffffffffffffffffffffff163073ffffffffffffffffffffffffffffffffffffffff1614156118f3576040517f08c379a00000000000000000000000000000000000000000000000000000000081526004016118ea906155b9565b60405180910390fd5b7f000000000000000000000000000000000000000000000000000000000000000073ffffffffffffffffffffffffffffffffffffffff166119326132d3565b73ffffffffffffffffffffffffffffffffffffffff1614611988576040517f08c379a000000000000000000000000000000000000000000000000000000000815260040161197f9061564b565b60405180910390fd5b6119918261332a565b61199d828260016133a9565b5050565b606f5481565b6119af6126c7565b156119e6576040517f9e87fac800000000000000000000000000000000000000000000000000000000815260040160405180910390fd5b6119fa836074613aae90919063ffffffff16565b611a30576040517f0a1f2c0e00000000000000000000000000000000000000000000000000000000815260040160405180910390fd5b606673__$18085dca7c6a2f09a309a1b54006aa0b25$__63cab455ae909185606e60008873ffffffffffffffffffffffffffffffffffffffff1673ffffffffffffffffffffffffffffffffffffffff1681526020019081526020016000205486866040518663ffffffff1660e01b8152600401611ab1959493929190615908565b60006040518083038186803b158015611ac957600080fd5b505af4158015611add573d6000803e3d6000fd5b50505050611af5836074613ade90919063ffffffff16565b506000611b026074613b0e565b1415611b6a576001607360006101000a81548160ff0219169083151502179055507fb930683f0749189780c4016ec37d019eb0cbbf6550ce7374fac5cfbae93909a7607360009054906101000a900460ff16604051611b619190614f0c565b60405180910390a15b505050565b60008060008060018060016000935093509350935090919293565b606c60009054906101000a900473ffffffffffffffffffffffffffffffffffffffff1681565b6000611bc682607761325e90919063ffffffff16565b9050919050565b611bd56126c7565b15611c0c576040517f9e87fac800000000000000000000000000000000000000000000000000000000815260040160405180910390fd5b606673__$18085dca7c6a2f09a309a1b54006aa0b25$__6302f130289091846040518363ffffffff1660e01b8152600401611c4892919061595b565b602060405180830381865af4158015611c65573d6000803e3d6000fd5b505050506040513d601f19601f82011682018060405250810190611c8991906159b0565b611cca57816040517fdc1b434d000000000000000000000000000000000000000000000000000000008152600401611cc19190614e54565b60405180910390fd5b606673__$18085dca7c6a2f09a309a1b54006aa0b25$__6302f130289091836040518363ffffffff1660e01b8152600401611d0692919061595b565b602060405180830381865af4158015611d23573d6000803e3d6000fd5b505050506040513d601f19601f82011682018060405250810190611d4791906159b0565b611d8857806040517f5a081584000000000000000000000000000000000000000000000000000000008152600401611d7f9190614e54565b60405180910390fd5b600080611d9484612b71565b91509150818111611de0578381836040517f8b0123bf000000000000000000000000000000000000000000000000000000008152600401611dd7939291906159dd565b60405180910390fd5b600080611dec85612b71565b91509150818110611e38578481836040517f84528639000000000000000000000000000000000000000000000000000000008152600401611e2f939291906159dd565b60405180910390fd5b6000611e5a8585611e49919061576f565b8385611e55919061576f565b61357a565b9050611e6887826000613593565b611e7486826001613593565b611ebf87606e60008a73ffffffffffffffffffffffffffffffffffffffff1673ffffffffffffffffffffffffffffffffffffffff168152602001908152602001600020546000613682565b611f0a86606e60008973ffffffffffffffffffffffffffffffffffffffff1673ffffffffffffffffffffffffffffffffffffffff168152602001908152602001600020546001613682565b50505050505050565b611f1b613974565b73ffffffffffffffffffffffffffffffffffffffff16611f3961222c565b73ffffffffffffffffffffffffffffffffffffffff1614611f8f576040517f08c379a0000000000000000000000000000000000000000000000000000000008152600401611f8690615838565b60405180910390fd5b611f99600061398d565b565b600080606673__$18085dca7c6a2f09a309a1b54006aa0b25$__630c8f298790916040518263ffffffff1660e01b8152600401611fd89190615672565b602060405180830381865af4158015611ff5573d6000803e3d6000fd5b505050506040513d601f19601f8201168201806040525081019061201991906156e4565b915061202f82606661327890919063ffffffff16565b90915050809150509091565b612043613974565b73ffffffffffffffffffffffffffffffffffffffff1661206161222c565b73ffffffffffffffffffffffffffffffffffffffff16146120b7576040517f08c379a00000000000000000000000000000000000000000000000000000000081526004016120ae90615838565b60405180910390fd5b6120c76120c261222c565b613b23565b565b6120d161239a565b73ffffffffffffffffffffffffffffffffffffffff163373ffffffffffffffffffffffffffffffffffffffff1614612135576040517f75df51dc00000000000000000000000000000000000000000000000000000000815260040160405180910390fd5b61213f6001613936565b7fab35696f06e428ebc5ceba8cd17f8fed287baf43440206d1943af1ee53e6d26760405160405180910390a1565b606e6020528060005260406000206000915090505481565b61218d613974565b73ffffffffffffffffffffffffffffffffffffffff166121ab61222c565b73ffffffffffffffffffffffffffffffffffffffff1614612201576040517f08c379a00000000000000000000000000000000000000000000000000000000081526004016121f890615838565b60405180910390fd5b82606f819055508160708190555080607281905550505050565b60006122276077613b0e565b905090565b6000603360009054906101000a900473ffffffffffffffffffffffffffffffffffffffff16905090565b61225e613974565b73ffffffffffffffffffffffffffffffffffffffff1661227c61222c565b73ffffffffffffffffffffffffffffffffffffffff16146122d2576040517f08c379a00000000000000000000000000000000000000000000000000000000081526004016122c990615838565b60405180910390fd5b6122db81613bff565b50565b60017f29f060ba1cf8d3659516b02281c85dcc3e81b4287766ae4751c0f500688be30f60001c61230e919061576f565b60001b81565b6000606673__$18085dca7c6a2f09a309a1b54006aa0b25$__6302f130289091846040518363ffffffff1660e01b815260040161235292919061595b565b602060405180830381865af415801561236f573d6000803e3d6000fd5b505050506040513d601f19601f8201168201806040525081019061239391906159b0565b9050919050565b600080600060017f29f060ba1cf8d3659516b02281c85dcc3e81b4287766ae4751c0f500688be30f60001c6123cf919061576f565b60001b905080549150819250505090565b606b60009054906101000a900473ffffffffffffffffffffffffffffffffffffffff1681565b61241a836077613aae90919063ffffffff16565b61245b57826040517f6aab7a0b0000000000000000000000000000000000000000000000000000000081526004016124529190614e54565b60405180910390fd5b606b60009054906101000a900473ffffffffffffffffffffffffffffffffffffffff1673ffffffffffffffffffffffffffffffffffffffff1663ac8f4425846040518263ffffffff1660e01b81526004016124b69190614e54565b602060405180830381865afa1580156124d3573d6000803e3d6000fd5b505050506040513d601f19601f820116820180604052508101906124f791906159b0565b61253857826040517f10a7bc6b00000000000000000000000000000000000000000000000000000000815260040161252f9190614e54565b60405180910390fd5b606673__$18085dca7c6a2f09a309a1b54006aa0b25$__6302f130289091856040518363ffffffff1660e01b815260040161257492919061595b565b602060405180830381865af4158015612591573d6000803e3d6000fd5b505050506040513d601f19601f820116820180604052508101906125b591906159b0565b156125f757826040517fbd133eee0000000000000000000000000000000000000000000000000000000081526004016125ee9190614e54565b60405180910390fd5b606673__$18085dca7c6a2f09a309a1b54006aa0b25$__632dedbbf0909185600086866040518663ffffffff1660e01b815260040161263a959493929190615a4f565b60006040518083038186803b15801561265257600080fd5b505af4158015612666573d6000803e3d6000fd5b5050505061267e836077613ade90919063ffffffff16565b508273ffffffffffffffffffffffffffffffffffffffff167f0503b4748a47435f2432d46ef300e0e2dc47baa0e5f04bb3bd8a355ee1e1dbe660405160405180910390a2505050565b600080600060017f8f989356aeb576065c8d201815b96ac9c10cf89197a532e428ebd68581557c2360001c6126fc919061576f565b60001b905080549150819250505090565b612715613974565b73ffffffffffffffffffffffffffffffffffffffff1661273361222c565b73ffffffffffffffffffffffffffffffffffffffff1614612789576040517f08c379a000000000000000000000000000000000000000000000000000000000815260040161278090615838565b60405180910390fd5b600073ffffffffffffffffffffffffffffffffffffffff168373ffffffffffffffffffffffffffffffffffffffff1614806127f05750600073ffffffffffffffffffffffffffffffffffffffff168273ffffffffffffffffffffffffffffffffffffffff16145b806128275750600073ffffffffffffffffffffffffffffffffffffffff168173ffffffffffffffffffffffffffffffffffffffff16145b1561285e576040517f0855380c00000000000000000000000000000000000000000000000000000000815260040160405180910390fd5b81606b60006101000a81548173ffffffffffffffffffffffffffffffffffffffff021916908373ffffffffffffffffffffffffffffffffffffffff16021790555080606d60006101000a81548173ffffffffffffffffffffffffffffffffffffffff021916908373ffffffffffffffffffffffffffffffffffffffff16021790555082606c60006101000a81548173ffffffffffffffffffffffffffffffffffffffff021916908373ffffffffffffffffffffffffffffffffffffffff160217905550505050565b61292e613974565b73ffffffffffffffffffffffffffffffffffffffff1661294c61222c565b73ffffffffffffffffffffffffffffffffffffffff16146129a2576040517f08c379a000000000000000000000000000000000000000000000000000000000815260040161299990615838565b60405180910390fd5b606b60009054906101000a900473ffffffffffffffffffffffffffffffffffffffff1673ffffffffffffffffffffffffffffffffffffffff1663ac8f4425826040518263ffffffff1660e01b81526004016129fd9190614e54565b602060405180830381865afa158015612a1a573d6000803e3d6000fd5b505050506040513d601f19601f82011682018060405250810190612a3e91906159b0565b612a7f57806040517f10a7bc6b000000000000000000000000000000000000000000000000000000008152600401612a769190614e54565b60405180910390fd5b606673__$18085dca7c6a2f09a309a1b54006aa0b25$__6302f130289091836040518363ffffffff1660e01b8152600401612abb92919061595b565b602060405180830381865af4158015612ad8573d6000803e3d6000fd5b505050506040513d601f19601f82011682018060405250810190612afc91906159b0565b80612b175750612b16816077613aae90919063ffffffff16565b5b15612b5957806040517fbd133eee000000000000000000000000000000000000000000000000000000008152600401612b509190614e54565b60405180910390fd5b612b6d816077613f3c90919063ffffffff16565b5050565b6000806000606673__$18085dca7c6a2f09a309a1b54006aa0b25$__630c8f298790916040518263ffffffff1660e01b8152600401612bb09190615672565b602060405180830381865af4158015612bcd573d6000803e3d6000fd5b505050506040513d601f19601f82011682018060405250810190612bf191906156e4565b90506000606673__$18085dca7c6a2f09a309a1b54006aa0b25$__6365da149690916040518263ffffffff1660e01b8152600401612c2f9190615672565b602060405180830381865af4158015612c4c573d6000803e3d6000fd5b505050506040513d601f19601f82011682018060405250810190612c7091906156a2565b905080607154612c809190615ad1565b93508173ffffffffffffffffffffffffffffffffffffffff168573ffffffffffffffffffffffffffffffffffffffff161415612ce35760008185612cc49190615b02565b607154612cd1919061576f565b90508085612cdf9190615b5c565b9450505b606e60008673ffffffffffffffffffffffffffffffffffffffff1673ffffffffffffffffffffffffffffffffffffffff1681526020019081526020016000205492505050915091565b6000606673__$18085dca7c6a2f09a309a1b54006aa0b25$__6365da149690916040518263ffffffff1660e01b8152600401612d689190615672565b602060405180830381865af4158015612d85573d6000803e3d6000fd5b505050506040513d601f19601f82011682018060405250810190612da991906156a2565b905090565b600080606673__$18085dca7c6a2f09a309a1b54006aa0b25$__6349923bff90916040518263ffffffff1660e01b8152600401612deb9190615672565b602060405180830381865af4158015612e08573d6000803e3d6000fd5b505050506040513d601f19601f82011682018060405250810190612e2c91906156e4565b9150612e4282606661327890919063ffffffff16565b9091509050809150509091565b606d60009054906101000a900473ffffffffffffffffffffffffffffffffffffffff1681565b612e7d613974565b73ffffffffffffffffffffffffffffffffffffffff16612e9b61222c565b73ffffffffffffffffffffffffffffffffffffffff1614612ef1576040517f08c379a0000000000000000000000000000000000000000000000000000000008152600401612ee890615838565b60405180910390fd5b612efa81613f6c565b50565b6000612f096074613b0e565b905090565b612f166126c7565b15612f4d576040517f9e87fac800000000000000000000000000000000000000000000000000000000815260040160405180910390fd5b606b60009054906101000a900473ffffffffffffffffffffffffffffffffffffffff1673ffffffffffffffffffffffffffffffffffffffff1663ac8f4425826040518263ffffffff1660e01b8152600401612fa89190614e54565b602060405180830381865afa158015612fc5573d6000803e3d6000fd5b505050506040513d601f19601f82011682018060405250810190612fe991906159b0565b1561302b57806040517fe3bd013b0000000000000000000000000000000000000000000000000000000081526004016130229190614e54565b60405180910390fd5b61303481613bff565b50565b6060803373ffffffffffffffffffffffffffffffffffffffff16606560009054906101000a900473ffffffffffffffffffffffffffffffffffffffff1673ffffffffffffffffffffffffffffffffffffffff16141580156130e657503373ffffffffffffffffffffffffffffffffffffffff16606d60009054906101000a900473ffffffffffffffffffffffffffffffffffffffff1673ffffffffffffffffffffffffffffffffffffffff1614155b1561312857336040517f79eaeb2b00000000000000000000000000000000000000000000000000000000815260040161311f9190614e54565b60405180910390fd5b613132848461405a565b915091509250929050565b60705481565b61314b613974565b73ffffffffffffffffffffffffffffffffffffffff1661316961222c565b73ffffffffffffffffffffffffffffffffffffffff16146131bf576040517f08c379a00000000000000000000000000000000000000000000000000000000081526004016131b690615838565b60405180910390fd5b600073ffffffffffffffffffffffffffffffffffffffff168173ffffffffffffffffffffffffffffffffffffffff16141561322f576040517f08c379a000000000000000000000000000000000000000000000000000000000815260040161322690615c24565b60405180910390fd5b6132388161398d565b50565b6000808273ffffffffffffffffffffffffffffffffffffffff163b119050919050565b600061326d8360000183614819565b60001c905092915050565b60008060008061329961328a86614844565b8761486b90919063ffffffff16565b9050806040015193508060400151156132cb576132b98160000151614891565b92506132c88160200151614891565b91505b509250925092565b60006133017f360894a13ba1a3210667c828492db98dca3e2076cc3735a920a3ca505d382bbc60001b6148a2565b60000160009054906101000a900473ffffffffffffffffffffffffffffffffffffffff16905090565b613332613974565b73ffffffffffffffffffffffffffffffffffffffff1661335061222c565b73ffffffffffffffffffffffffffffffffffffffff16146133a6576040517f08c379a000000000000000000000000000000000000000000000000000000000815260040161339d90615838565b60405180910390fd5b50565b60006133b36132d3565b90506133be846148ac565b6000835111806133cb5750815b156133dc576133da8484614965565b505b600061340a7f4910fdfa16fed3260ed0e7147f7cc6da11a60208b5b9406d12a635614ffd914360001b614992565b90508060000160009054906101000a900460ff166135735760018160000160006101000a81548160ff0219169083151502179055506134d685836040516024016134549190614e54565b6040516020818303038152906040527f3659cfe6000000000000000000000000000000000000000000000000000000007bffffffffffffffffffffffffffffffffffffffffffffffffffffffff19166020820180517bffffffffffffffffffffffffffffffffffffffffffffffffffffffff8381831617835250505050614965565b5060008160000160006101000a81548160ff0219169083151502179055506134fc6132d3565b73ffffffffffffffffffffffffffffffffffffffff168273ffffffffffffffffffffffffffffffffffffffff1614613569576040517f08c379a000000000000000000000000000000000000000000000000000000000815260040161356090615cb6565b60405180910390fd5b6135728561499c565b5b5050505050565b6000818310613589578161358b565b825b905092915050565b801561360d5781606e60008573ffffffffffffffffffffffffffffffffffffffff1673ffffffffffffffffffffffffffffffffffffffff16815260200190815260200160002060008282546135e89190615b5c565b9250508190555081607160008282546136019190615b5c565b9250508190555061367d565b81606e60008573ffffffffffffffffffffffffffffffffffffffff1673ffffffffffffffffffffffffffffffffffffffff168152602001908152602001600020600082825461365c919061576f565b925050819055508160716000828254613675919061576f565b925050819055505b505050565b613696836074613aae90919063ffffffff16565b156136a057613931565b6000808261372f57606673__$18085dca7c6a2f09a309a1b54006aa0b25$__63a4aadfcc909187876072546040518563ffffffff1660e01b81526004016136ea9493929190615cd6565b6040805180830381865af4158015613706573d6000803e3d6000fd5b505050506040513d601f19601f8201168201806040525081019061372a9190615d1b565b6137b2565b606673__$18085dca7c6a2f09a309a1b54006aa0b25$__6399f68a39909187876072546040518563ffffffff1660e01b81526004016137719493929190615cd6565b6040805180830381865af415801561378d573d6000803e3d6000fd5b505050506040513d601f19601f820116820180604052508101906137b19190615d1b565b5b915091508073ffffffffffffffffffffffffffffffffffffffff168273ffffffffffffffffffffffffffffffffffffffff1614158061386b57506001606673__$18085dca7c6a2f09a309a1b54006aa0b25$__6365da149690916040518263ffffffff1660e01b81526004016138289190615672565b602060405180830381865af4158015613845573d6000803e3d6000fd5b505050506040513d601f19601f8201168201806040525081019061386991906156a2565b145b156138e757606673__$18085dca7c6a2f09a309a1b54006aa0b25$__63cab455ae9091878786866040518663ffffffff1660e01b81526004016138b2959493929190615908565b60006040518083038186803b1580156138ca57600080fd5b505af41580156138de573d6000803e3d6000fd5b5050505061392e565b607360009054906101000a900460ff1615613918576000607360006101000a81548160ff0219169083151502179055505b61392c856074613f3c90919063ffffffff16565b505b50505b505050565b600060017f8f989356aeb576065c8d201815b96ac9c10cf89197a532e428ebd68581557c2360001c613968919061576f565b60001b90508181555050565b600033905090565b60006139873061323b565b15905090565b6000603360009054906101000a900473ffffffffffffffffffffffffffffffffffffffff16905081603360006101000a81548173ffffffffffffffffffffffffffffffffffffffff021916908373ffffffffffffffffffffffffffffffffffffffff1602179055508173ffffffffffffffffffffffffffffffffffffffff168173ffffffffffffffffffffffffffffffffffffffff167f8be0079c531659141344cd1fd0a4f28419497f9722a3daafe3b4186f6b6457e060405160405180910390a35050565b600060019054906101000a900460ff16613aa2576040517f08c379a0000000000000000000000000000000000000000000000000000000008152600401613a9990615dcd565b60405180910390fd5b613aab81613f6c565b50565b6000613ad6836000018373ffffffffffffffffffffffffffffffffffffffff1660001b6149eb565b905092915050565b6000613b06836000018373ffffffffffffffffffffffffffffffffffffffff1660001b614a0e565b905092915050565b6000613b1c82600001614b22565b9050919050565b600073ffffffffffffffffffffffffffffffffffffffff168173ffffffffffffffffffffffffffffffffffffffff161415613b8a576040517f0855380c00000000000000000000000000000000000000000000000000000000815260040160405180910390fd5b600060017f29f060ba1cf8d3659516b02281c85dcc3e81b4287766ae4751c0f500688be30f60001c613bbc919061576f565b60001b90508181557fd11d57c2c7468878b1035df11c670bcd0091aa840bf8aa166365397622237bea82604051613bf39190614e54565b60405180910390a15050565b606673__$18085dca7c6a2f09a309a1b54006aa0b25$__6302f130289091836040518363ffffffff1660e01b8152600401613c3b92919061595b565b602060405180830381865af4158015613c58573d6000803e3d6000fd5b505050506040513d601f19601f82011682018060405250810190613c7c91906159b0565b613cbd57806040517f1adbb153000000000000000000000000000000000000000000000000000000008152600401613cb49190614e54565b60405180910390fd5b607654606673__$18085dca7c6a2f09a309a1b54006aa0b25$__6365da149690916040518263ffffffff1660e01b8152600401613cfa9190615672565b602060405180830381865af4158015613d17573d6000803e3d6000fd5b505050506040513d601f19601f82011682018060405250810190613d3b91906156a2565b11613d72576040517f0e57c16d00000000000000000000000000000000000000000000000000000000815260040160405180910390fd5b606673__$18085dca7c6a2f09a309a1b54006aa0b25$__63281359299091836040518363ffffffff1660e01b8152600401613dae92919061595b565b60006040518083038186803b158015613dc657600080fd5b505af4158015613dda573d6000803e3d6000fd5b50505050613df2816074613ade90919063ffffffff16565b506000606e60008373ffffffffffffffffffffffffffffffffffffffff1673ffffffffffffffffffffffffffffffffffffffff1681526020019081526020016000205490506000811115613ef557613e4c82826000613593565b613ef2606560009054906101000a900473ffffffffffffffffffffffffffffffffffffffff1673ffffffffffffffffffffffffffffffffffffffff16630567847f836040518263ffffffff1660e01b8152600401613eaa9190614d8b565b602060405180830381865afa158015613ec7573d6000803e3d6000fd5b505050506040513d601f19601f82011682018060405250810190613eeb91906156a2565b600061405a565b50505b8173ffffffffffffffffffffffffffffffffffffffff167fa78a88a551e130ce9732be17784bdff12f72ab4a2c833fb2dcb3ef0818956b0360405160405180910390a25050565b6000613f64836000018373ffffffffffffffffffffffffffffffffffffffff1660001b614b33565b905092915050565b600073ffffffffffffffffffffffffffffffffffffffff168173ffffffffffffffffffffffffffffffffffffffff161415613fd3576040517f0855380c00000000000000000000000000000000000000000000000000000000815260040160405180910390fd5b80606560006101000a81548173ffffffffffffffffffffffffffffffffffffffff021916908373ffffffffffffffffffffffffffffffffffffffff1602179055508073ffffffffffffffffffffffffffffffffffffffff167f60a0f5b9f9e81e98216071b85826681c796256fe3d1354ecb675580fba64fa6960405160405180910390a250565b6060806000606673__$18085dca7c6a2f09a309a1b54006aa0b25$__6365da149690916040518263ffffffff1660e01b81526004016140999190615672565b602060405180830381865af41580156140b6573d6000803e3d6000fd5b505050506040513d601f19601f820116820180604052508101906140da91906156a2565b1415614112576040517f7818a60e00000000000000000000000000000000000000000000000000000000815260040160405180910390fd5b600061419a606f54606673__$18085dca7c6a2f09a309a1b54006aa0b25$__6365da149690916040518263ffffffff1660e01b81526004016141549190615672565b602060405180830381865af4158015614171573d6000803e3d6000fd5b505050506040513d601f19601f8201168201806040525081019061419591906156a2565b61357a565b905060008167ffffffffffffffff8111156141b8576141b7615169565b5b6040519080825280602002602001820160405280156141e65781602001602082028036833780820191505090505b50905060008267ffffffffffffffff81111561420557614204615169565b5b6040519080825280602002602001820160405280156142335781602001602082028036833780820191505090505b5090506000606673__$18085dca7c6a2f09a309a1b54006aa0b25$__6349923bff90916040518263ffffffff1660e01b81526004016142729190615672565b602060405180830381865af415801561428f573d6000803e3d6000fd5b505050506040513d601f19601f820116820180604052508101906142b391906156e4565b905060005b84811080156142c8575060008914155b80156143015750600073ffffffffffffffffffffffffffffffffffffffff168273ffffffffffffffffffffffffffffffffffffffff1614155b1561467c576000606560009054906101000a900473ffffffffffffffffffffffffffffffffffffffff1673ffffffffffffffffffffffffffffffffffffffff16632c431058846040518263ffffffff1660e01b81526004016143639190614e54565b602060405180830381865afa158015614380573d6000803e3d6000fd5b505050506040513d601f19601f820116820180604052508101906143a491906156a2565b90508873ffffffffffffffffffffffffffffffffffffffff168373ffffffffffffffffffffffffffffffffffffffff1614806143e05750600081145b15614408576143f983606661327890919063ffffffff16565b909150905080935050506142b8565b614412818b61357a565b84838151811061442557614424615711565b5b6020026020010181815250508285838151811061444557614444615711565b5b602002602001019073ffffffffffffffffffffffffffffffffffffffff16908173ffffffffffffffffffffffffffffffffffffffff168152505083828151811061449257614491615711565b5b60200260200101518a6144a5919061576f565b995061456883606560009054906101000a900473ffffffffffffffffffffffffffffffffffffffff1673ffffffffffffffffffffffffffffffffffffffff1663c494ec1e8786815181106144fc576144fb615711565b5b60200260200101516040518263ffffffff1660e01b81526004016145209190614d8b565b602060405180830381865afa15801561453d573d6000803e3d6000fd5b505050506040513d601f19601f8201168201806040525081019061456191906156a2565b6001613593565b6145b383606e60008673ffffffffffffffffffffffffffffffffffffffff1673ffffffffffffffffffffffffffffffffffffffff168152602001908152602001600020546001613682565b607360009054906101000a900460ff161561464a57606673__$18085dca7c6a2f09a309a1b54006aa0b25$__6349923bff90916040518263ffffffff1660e01b81526004016146029190615672565b602060405180830381865af415801561461f573d6000803e3d6000fd5b505050506040513d601f19601f8201168201806040525081019061464391906156e4565b9250614668565b61465e83606661327890919063ffffffff16565b9091509050809350505b8180614673906157a3565b925050506142b8565b600089146146b6576040517f2e6c1bf900000000000000000000000000000000000000000000000000000000815260040160405180910390fd5b8067ffffffffffffffff8111156146d0576146cf615169565b5b6040519080825280602002602001820160405280156146fe5781602001602082028036833780820191505090505b5096508067ffffffffffffffff81111561471b5761471a615169565b5b6040519080825280602002602001820160405280156147495781602001602082028036833780820191505090505b50955060005b8181101561480c5784818151811061476a57614769615711565b5b602002602001015188828151811061478557614784615711565b5b602002602001019073ffffffffffffffffffffffffffffffffffffffff16908173ffffffffffffffffffffffffffffffffffffffff16815250508381815181106147d2576147d1615711565b5b60200260200101518782815181106147ed576147ec615711565b5b6020026020010181815250508080614804906157a3565b91505061474f565b5050505050509250929050565b600082600001828154811061483157614830615711565b5b9060005260206000200154905092915050565b600060608273ffffffffffffffffffffffffffffffffffffffff16901b60001b9050919050565b614873614d49565b6148898284600001614ba390919063ffffffff16565b905092915050565b600060608260001c901c9050919050565b6000819050919050565b6148b581614c02565b6148f4576040517f08c379a00000000000000000000000000000000000000000000000000000000081526004016148eb90615e5f565b60405180910390fd5b806149217f360894a13ba1a3210667c828492db98dca3e2076cc3735a920a3ca505d382bbc60001b6148a2565b60000160006101000a81548173ffffffffffffffffffffffffffffffffffffffff021916908373ffffffffffffffffffffffffffffffffffffffff16021790555050565b606061498a838360405180606001604052806027815260200161603860279139614c15565b905092915050565b6000819050919050565b6149a5816148ac565b8073ffffffffffffffffffffffffffffffffffffffff167fbc7cd75a20ee27fd9adebab32041f755214dbc6bffa90cc0225b39da2e5c2d3b60405160405180910390a250565b600080836001016000848152602001908152602001600020541415905092915050565b60008083600101600084815260200190815260200160002054905060008114614b16576000600182614a40919061576f565b9050600060018660000180549050614a58919061576f565b9050818114614ac7576000866000018281548110614a7957614a78615711565b5b9060005260206000200154905080876000018481548110614a9d57614a9c615711565b5b90600052602060002001819055508387600101600083815260200190815260200160002081905550505b85600001805480614adb57614ada615e7f565b5b600190038181906000526020600020016000905590558560010160008681526020019081526020016000206000905560019350505050614b1c565b60009150505b92915050565b600081600001805490509050919050565b6000614b3f83836149eb565b614b98578260000182908060018154018082558091505060019003906000526020600020016000909190919091505582600001805490508360010160008481526020019081526020016000208190555060019050614b9d565b600090505b92915050565b614bab614d49565b82600301600083815260200190815260200160002060405180606001604052908160008201548152602001600182015481526020016002820160009054906101000a900460ff161515151581525050905092915050565b600080823b905060008111915050919050565b6060614c2084614c02565b614c5f576040517f08c379a0000000000000000000000000000000000000000000000000000000008152600401614c5690615f20565b60405180910390fd5b6000808573ffffffffffffffffffffffffffffffffffffffff1685604051614c879190615fba565b600060405180830381855af49150503d8060008114614cc2576040519150601f19603f3d011682016040523d82523d6000602084013e614cc7565b606091505b5091509150614cd7828286614ce2565b925050509392505050565b60608315614cf257829050614d42565b600083511115614d055782518084602001fd5b816040517f08c379a0000000000000000000000000000000000000000000000000000000008152600401614d399190616015565b60405180910390fd5b9392505050565b604051806060016040528060008019168152602001600080191681526020016000151581525090565b6000819050919050565b614d8581614d72565b82525050565b6000602082019050614da06000830184614d7c565b92915050565b6000604051905090565b600080fd5b600080fd5b614dc381614d72565b8114614dce57600080fd5b50565b600081359050614de081614dba565b92915050565b600060208284031215614dfc57614dfb614db0565b5b6000614e0a84828501614dd1565b91505092915050565b600073ffffffffffffffffffffffffffffffffffffffff82169050919050565b6000614e3e82614e13565b9050919050565b614e4e81614e33565b82525050565b6000602082019050614e696000830184614e45565b92915050565b614e7881614e33565b8114614e8357600080fd5b50565b600081359050614e9581614e6f565b92915050565b600060208284031215614eb157614eb0614db0565b5b6000614ebf84828501614e86565b91505092915050565b6000604082019050614edd6000830185614e45565b614eea6020830184614e45565b9392505050565b60008115159050919050565b614f0681614ef1565b82525050565b6000602082019050614f216000830184614efd565b92915050565b600081519050919050565b600082825260208201905092915050565b6000819050602082019050919050565b614f5c81614e33565b82525050565b6000614f6e8383614f53565b60208301905092915050565b6000602082019050919050565b6000614f9282614f27565b614f9c8185614f32565b9350614fa783614f43565b8060005b83811015614fd8578151614fbf8882614f62565b9750614fca83614f7a565b925050600181019050614fab565b5085935050505092915050565b600081519050919050565b600082825260208201905092915050565b6000819050602082019050919050565b61501a81614d72565b82525050565b600061502c8383615011565b60208301905092915050565b6000602082019050919050565b600061505082614fe5565b61505a8185614ff0565b935061506583615001565b8060005b8381101561509657815161507d8882615020565b975061508883615038565b925050600181019050615069565b5085935050505092915050565b600060408201905081810360008301526150bd8185614f87565b905081810360208301526150d18184615045565b90509392505050565b6000819050919050565b6150ed816150da565b82525050565b600060208201905061510860008301846150e4565b92915050565b6000806040838503121561512557615124614db0565b5b600061513385828601614e86565b925050602061514485828601614e86565b9150509250929050565b600080fd5b600080fd5b6000601f19601f8301169050919050565b7f4e487b7100000000000000000000000000000000000000000000000000000000600052604160045260246000fd5b6151a182615158565b810181811067ffffffffffffffff821117156151c0576151bf615169565b5b80604052505050565b60006151d3614da6565b90506151df8282615198565b919050565b600067ffffffffffffffff8211156151ff576151fe615169565b5b61520882615158565b9050602081019050919050565b82818337600083830152505050565b6000615237615232846151e4565b6151c9565b90508281526020810184848401111561525357615252615153565b5b61525e848285615215565b509392505050565b600082601f83011261527b5761527a61514e565b5b813561528b848260208601615224565b91505092915050565b600080604083850312156152ab576152aa614db0565b5b60006152b985828601614e86565b925050602083013567ffffffffffffffff8111156152da576152d9614db5565b5b6152e685828601615266565b9150509250929050565b60008060006060848603121561530957615308614db0565b5b600061531786828701614e86565b935050602061532886828701614e86565b925050604061533986828701614e86565b9150509250925092565b60006080820190506153586000830187614d7c565b6153656020830186614d7c565b6153726040830185614d7c565b61537f6060830184614d7c565b95945050505050565b6000819050919050565b60006153ad6153a86153a384614e13565b615388565b614e13565b9050919050565b60006153bf82615392565b9050919050565b60006153d1826153b4565b9050919050565b6153e1816153c6565b82525050565b60006020820190506153fc60008301846153d8565b92915050565b60008060006060848603121561541b5761541a614db0565b5b600061542986828701614dd1565b935050602061543a86828701614dd1565b925050604061544b86828701614dd1565b9150509250925092565b6000615460826153b4565b9050919050565b61547081615455565b82525050565b600060208201905061548b6000830184615467565b92915050565b60006040820190506154a66000830185614d7c565b6154b36020830184614d7c565b9392505050565b60006154c5826153b4565b9050919050565b6154d5816154ba565b82525050565b60006020820190506154f060008301846154cc565b92915050565b6000806040838503121561550d5761550c614db0565b5b600061551b85828601614dd1565b925050602061552c85828601614e86565b9150509250929050565b600082825260208201905092915050565b7f46756e6374696f6e206d7573742062652063616c6c6564207468726f7567682060008201527f64656c656761746563616c6c0000000000000000000000000000000000000000602082015250565b60006155a3602c83615536565b91506155ae82615547565b604082019050919050565b600060208201905081810360008301526155d281615596565b9050919050565b7f46756e6374696f6e206d7573742062652063616c6c6564207468726f7567682060008201527f6163746976652070726f78790000000000000000000000000000000000000000602082015250565b6000615635602c83615536565b9150615640826155d9565b604082019050919050565b6000602082019050818103600083015261566481615628565b9050919050565b8082525050565b6000602082019050615687600083018461566b565b92915050565b60008151905061569c81614dba565b92915050565b6000602082840312156156b8576156b7614db0565b5b60006156c68482850161568d565b91505092915050565b6000815190506156de81614e6f565b92915050565b6000602082840312156156fa576156f9614db0565b5b6000615708848285016156cf565b91505092915050565b7f4e487b7100000000000000000000000000000000000000000000000000000000600052603260045260246000fd5b7f4e487b7100000000000000000000000000000000000000000000000000000000600052601160045260246000fd5b600061577a82614d72565b915061578583614d72565b92508282101561579857615797615740565b5b828203905092915050565b60006157ae82614d72565b91507fffffffffffffffffffffffffffffffffffffffffffffffffffffffffffffffff8214156157e1576157e0615740565b5b600182019050919050565b7f4f776e61626c653a2063616c6c6572206973206e6f7420746865206f776e6572600082015250565b6000615822602083615536565b915061582d826157ec565b602082019050919050565b6000602082019050818103600083015261585181615815565b9050919050565b7f496e697469616c697a61626c653a20636f6e747261637420697320616c72656160008201527f647920696e697469616c697a6564000000000000000000000000000000000000602082015250565b60006158b4602e83615536565b91506158bf82615858565b604082019050919050565b600060208201905081810360008301526158e3816158a7565b9050919050565b6158f381614e33565b82525050565b61590281614d72565b82525050565b600060a08201905061591d600083018861566b565b61592a60208301876158ea565b61593760408301866158f9565b61594460608301856158ea565b61595160808301846158ea565b9695505050505050565b6000604082019050615970600083018561566b565b61597d60208301846158ea565b9392505050565b61598d81614ef1565b811461599857600080fd5b50565b6000815190506159aa81615984565b92915050565b6000602082840312156159c6576159c5614db0565b5b60006159d48482850161599b565b91505092915050565b60006060820190506159f26000830186614e45565b6159ff6020830185614d7c565b615a0c6040830184614d7c565b949350505050565b6000819050919050565b6000615a39615a34615a2f84615a14565b615388565b614d72565b9050919050565b615a4981615a1e565b82525050565b600060a082019050615a64600083018861566b565b615a7160208301876158ea565b615a7e6040830186615a40565b615a8b60608301856158ea565b615a9860808301846158ea565b9695505050505050565b7f4e487b7100000000000000000000000000000000000000000000000000000000600052601260045260246000fd5b6000615adc82614d72565b9150615ae783614d72565b925082615af757615af6615aa2565b5b828204905092915050565b6000615b0d82614d72565b9150615b1883614d72565b9250817fffffffffffffffffffffffffffffffffffffffffffffffffffffffffffffffff0483118215151615615b5157615b50615740565b5b828202905092915050565b6000615b6782614d72565b9150615b7283614d72565b9250827fffffffffffffffffffffffffffffffffffffffffffffffffffffffffffffffff03821115615ba757615ba6615740565b5b828201905092915050565b7f4f776e61626c653a206e6577206f776e657220697320746865207a65726f206160008201527f6464726573730000000000000000000000000000000000000000000000000000602082015250565b6000615c0e602683615536565b9150615c1982615bb2565b604082019050919050565b60006020820190508181036000830152615c3d81615c01565b9050919050565b7f45524331393637557067726164653a207570677261646520627265616b73206660008201527f7572746865722075706772616465730000000000000000000000000000000000602082015250565b6000615ca0602f83615536565b9150615cab82615c44565b604082019050919050565b60006020820190508181036000830152615ccf81615c93565b9050919050565b6000608082019050615ceb600083018761566b565b615cf860208301866158ea565b615d0560408301856158f9565b615d1260608301846158f9565b95945050505050565b60008060408385031215615d3257615d31614db0565b5b6000615d40858286016156cf565b9250506020615d51858286016156cf565b9150509250929050565b7f496e697469616c697a61626c653a20636f6e7472616374206973206e6f74206960008201527f6e697469616c697a696e67000000000000000000000000000000000000000000602082015250565b6000615db7602b83615536565b9150615dc282615d5b565b604082019050919050565b60006020820190508181036000830152615de681615daa565b9050919050565b7f455243313936373a206e657720696d706c656d656e746174696f6e206973206e60008201527f6f74206120636f6e747261637400000000000000000000000000000000000000602082015250565b6000615e49602d83615536565b9150615e5482615ded565b604082019050919050565b60006020820190508181036000830152615e7881615e3c565b9050919050565b7f4e487b7100000000000000000000000000000000000000000000000000000000600052603160045260246000fd5b7f416464726573733a2064656c65676174652063616c6c20746f206e6f6e2d636f60008201527f6e74726163740000000000000000000000000000000000000000000000000000602082015250565b6000615f0a602683615536565b9150615f1582615eae565b604082019050919050565b60006020820190508181036000830152615f3981615efd565b9050919050565b600081519050919050565b600081905092915050565b60005b83811015615f74578082015181840152602081019050615f59565b83811115615f83576000848401525b50505050565b6000615f9482615f40565b615f9e8185615f4b565b9350615fae818560208601615f56565b80840191505092915050565b6000615fc68284615f89565b915081905092915050565b600081519050919050565b6000615fe782615fd1565b615ff18185615536565b9350616001818560208601615f56565b61600a81615158565b840191505092915050565b6000602082019050818103600083015261602f8184615fdc565b90509291505056fe416464726573733a206c6f772d6c6576656c2064656c65676174652063616c6c206661696c6564a26469706673582212201eb73f052acfd6dd461a4893d087269c87543eedb94e0295f90c109f1a1f33ca64736f6c634300080b0033",
  "libraries": {
    "AddressSortedLinkedList": "0x48B505F1c5b7300de070dA9c85324272FC65f187"
  },
  "devdoc": {
    "errors": {
      "CallerNotManager(address)": [
        {
          "params": {
            "caller": "`msg.sender` that called the function."
          }
        }
      ],
      "CallerNotManagerNorStrategy(address)": [
        {
          "params": {
            "caller": "`msg.sender` that called the function."
          }
        }
      ],
      "GroupAlreadyAdded(address)": [
        {
          "params": {
            "group": "The group's address."
          }
        }
      ],
      "GroupNotActive(address)": [
        {
          "params": {
            "group": "The group's address."
          }
        }
      ],
      "GroupNotEligible(address)": [
        {
          "params": {
            "group": "The group's address."
          }
        }
      ],
      "HealthyGroup(address)": [
        {
          "params": {
            "group": "The group's address."
          }
        }
      ],
      "InvalidFromGroup(address)": [
        {
          "params": {
            "group": "The group's address."
          }
        }
      ],
      "InvalidToGroup(address)": [
        {
          "params": {
            "group": "The group's address."
          }
        }
      ],
      "RebalanceEnoughStCelo(address,uint256,uint256)": [
        {
          "params": {
            "actualCelo": "The actual stCELO value.",
            "expectedCelo": "The expected stCELO value.",
            "group": "The group's address."
          }
        }
      ],
      "RebalanceNoExtraStCelo(address,uint256,uint256)": [
        {
          "params": {
            "actualCelo": "The actual stCELO value.",
            "expectedCelo": "The expected stCELO value.",
            "group": "The group's address."
          }
        }
      ]
    },
    "events": {
      "GroupActivated(address)": {
        "params": {
          "group": "The group's address."
        }
      },
      "GroupRemoved(address)": {
        "params": {
          "group": "The group's address."
        }
      },
      "SortedFlagUpdated(bool)": {
        "params": {
          "update": "The new value."
        }
      }
    },
    "kind": "dev",
    "methods": {
      "activatableGroupsCount()": {
        "returns": {
          "_0": "The number of activatable groups."
        }
      },
      "activateGroup(address,address,address)": {
        "params": {
          "greater": "The group receiving more votes (in default strategy) than `group`,  or 0 if `group` has the most votes of any validator group.",
          "group": "The address of the group to add to the set of votable groups.",
          "lesser": "The group receiving fewer votes (in default strategy) than `group`, or 0 if `group` has the fewest votes of any validator group."
        }
      },
      "addActivatableGroup(address)": {
        "params": {
          "group": "The group to add."
        }
      },
      "deactivateGroup(address)": {
        "params": {
          "group": "The group to deactivated."
        }
      },
      "deactivateUnhealthyGroup(address)": {
        "params": {
          "group": "The group to deactivate if unhealthy."
        }
      },
      "generateDepositVoteDistribution(uint256,address)": {
        "params": {
          "celoAmount": "The amount of votes to distribute.",
          "depositGroupToIgnore": "The group that will not be used for deposit."
        },
        "returns": {
          "finalGroups": "The groups that were chosen for distribution.",
          "finalVotes": "The votes of chosen finalGroups."
        }
      },
      "generateWithdrawalVoteDistribution(uint256)": {
        "params": {
          "celoAmount": "The amount of votes to subtract."
        },
        "returns": {
          "finalGroups": "The groups that were chosen for subtraction.",
          "finalVotes": "The votes of chosen finalGroups."
        }
      },
      "getActivatableGroupAt(uint256)": {
        "params": {
          "index": "The index to look up."
        },
        "returns": {
          "_0": "The group."
        }
      },
      "getExpectedAndActualStCeloForGroup(address)": {
        "params": {
          "group": "The group."
        },
        "returns": {
          "actualStCelo": "The amount of stCELO which is currently assigned to group in the strategy.",
          "expectedStCelo": "The amount of stCELO that group should have. (The total amount of stCELO in the default strategy divided by the number of active groups.)"
        }
      },
      "getGroupPreviousAndNext(address)": {
        "params": {
          "group": "The group address."
        },
        "returns": {
          "nextAddress": "The next address.",
          "previousAddress": "The previous address."
        }
      },
      "getGroupsHead()": {
        "returns": {
          "head": "The address of the sorted group with most votes.",
          "previousAddress": "The previous address from head."
        }
      },
      "getGroupsTail()": {
        "returns": {
          "nextAddress": "The next address after tail.",
          "tail": "The address of the sorted group with least votes."
        }
      },
      "getNumberOfGroups()": {
        "returns": {
          "_0": "The number of active groups."
        }
      },
      "getNumberOfUnsortedGroups()": {
        "returns": {
          "_0": "The number of unsorted groups."
        }
      },
      "getUnsortedGroupAt(uint256)": {
        "params": {
          "index": "The index to look up."
        },
        "returns": {
          "_0": "The group."
        }
      },
      "getVersionNumber()": {
        "returns": {
          "_0": "Storage version of the contract.",
          "_1": "Major version of the contract.",
          "_2": "Minor version of the contract.",
          "_3": "Patch version of the contract."
        }
      },
      "initialize(address,address)": {
        "params": {
          "_manager": "The address of the Manager contract.",
          "_owner": "The address of the contract owner."
        }
      },
      "isActive(address)": {
        "returns": {
          "_0": "Whether or not the given group is active."
        }
      },
      "isPaused()": {
        "returns": {
          "_0": "`true` if the contract is paused, `false` otherwise."
        }
      },
      "owner()": {
        "details": "Returns the address of the current owner."
      },
      "rebalance(address,address)": {
        "params": {
          "fromGroup": "The from group.",
          "toGroup": "The to group."
        }
      },
      "renounceOwnership()": {
        "details": "Leaves the contract without owner. It will not be possible to call `onlyOwner` functions anymore. Can only be called by the current owner. NOTE: Renouncing ownership will leave the contract without an owner, thereby removing any functionality that is only available to the owner."
      },
      "setDependencies(address,address,address)": {
        "params": {
          "_account": "The address of the Account contract.",
          "_groupHealth": "The address of the GroupHealth contract.",
          "_specificGroupStrategy": "The address of the SpecificGroupStrategy contract."
        }
      },
      "setManager(address)": {
        "params": {
          "_manager": "The new manager address."
        }
      },
      "setMinCountOfActiveGroups(uint256)": {
        "params": {
          "minCount": "The minimum number of active groups."
        }
      },
      "setSortingParams(uint256,uint256,uint256)": {
        "params": {
          "distributeTo": "Maximum number of groups that can be distributed to.",
          "loopLimit": "The sorting loop limit while sorting active groups on chain.",
          "withdrawFrom": "Maximum number of groups that can be withdrawn from."
        }
      },
      "transferOwnership(address)": {
        "details": "Transfers ownership of the contract to a new account (`newOwner`). Can only be called by the current owner."
      },
      "updateActiveGroupOrder(address,address,address)": {
        "params": {
          "greaterKey": "The key of the group greater than the group to update.",
          "group": "The group address.",
          "lesserKey": "The key of the group less than the group to update."
        }
      },
      "upgradeTo(address)": {
        "details": "Upgrade the implementation of the proxy to `newImplementation`. Calls {_authorizeUpgrade}. Emits an {Upgraded} event."
      },
      "upgradeToAndCall(address,bytes)": {
        "details": "Upgrade the implementation of the proxy to `newImplementation`, and subsequently execute the function call encoded in `data`. Calls {_authorizeUpgrade}. Emits an {Upgraded} event."
      }
    },
    "title": "DefaultStrategy is responsible for handling any deposit/withdrawal for accounts without any specific strategy.",
    "version": 1
  },
  "userdoc": {
    "errors": {
      "AddressZeroNotAllowed()": [
        {
          "notice": "Used when attempting to pass in address zero where not allowed."
        }
      ],
      "CallerNotManager(address)": [
        {
          "notice": "Used when an `onlyManager` function is called by a non-manager."
        }
      ],
      "CallerNotManagerNorStrategy(address)": [
        {
          "notice": "Used when a `managerOrStrategy` function is called  by a non-manager or non-strategy."
        }
      ],
      "GroupAlreadyAdded(address)": [
        {
          "notice": "Used when attempting to activate a group that is already active."
        }
      ],
      "GroupNotActivatable(address)": [
        {
          "notice": "Used when attempting to activate a group that is not activatable."
        }
      ],
      "GroupNotActive(address)": [
        {
          "notice": "Used when attempting to deactivate a group that is not active."
        }
      ],
      "GroupNotEligible(address)": [
        {
          "notice": "Used when a group does not meet the validator group health requirements."
        }
      ],
      "HealthyGroup(address)": [
        {
          "notice": "Used when attempting to deactivate a healthy group using deactivateUnhealthyGroup()."
        }
      ],
      "InvalidFromGroup(address)": [
        {
          "notice": "Used when rebalancing from non-active group."
        }
      ],
      "InvalidToGroup(address)": [
        {
          "notice": "Used when rebalancing to a non-active group."
        }
      ],
      "MinimumCountOfActiveGroupsReached()": [
        {
          "notice": "Used when attempting to deactivate a group when the minimum number of active groups reached."
        }
      ],
      "NoActiveGroups()": [
        {
          "notice": "Used when attempting to deposit when there are no active groups to vote for."
        }
      ],
      "NotAbleToDistributeVotes()": [
        {
          "notice": "Used when atempting to distribute votes but validator group limit is reached."
        }
      ],
      "NotUnsortedGroup()": [
        {
          "notice": "Used when attempting sort active groups when there are no unsorted group."
        }
      ],
      "OnlyPauser()": [
        {
          "notice": "Used when an `onlyPauser` function is called with a different address."
        }
      ],
      "Paused()": [
        {
          "notice": "Used when an `onlyWhenNotPaused` function is called while the contract is paused."
        }
      ],
      "RebalanceEnoughStCelo(address,uint256,uint256)": [
        {
          "notice": "Used when rebalancing and `toGroup` has enough stCELO."
        }
      ],
      "RebalanceNoExtraStCelo(address,uint256,uint256)": [
        {
          "notice": "Used when rebalancing and `fromGroup` doesn't have any extra stCELO."
        }
      ]
    },
    "events": {
      "ContractPaused()": {
        "notice": "Emitted when this contract is paused."
      },
      "ContractUnpaused()": {
        "notice": "Emitted when this contract is unpaused."
      },
      "GroupActivated(address)": {
        "notice": "Emitted when a new group is activated for voting."
      },
      "GroupRemoved(address)": {
        "notice": "Emitted when a group is deactivated."
      },
      "ManagerSet(address)": {
        "notice": "Emitted when the manager is initially set or later modified."
      },
      "PauserSet(address)": {
        "notice": "Emitted when the address authorized to pause/unpause the contract is changed."
      },
      "SortedFlagUpdated(bool)": {
        "notice": "Emmited when sorted status of active groups was changed."
      }
    },
    "kind": "user",
    "methods": {
      "PAUSED_POSITION()": {
        "notice": "The storage slot under which we store a boolean representing whether or not the contract is currently paused."
      },
      "PAUSER_POSITION()": {
        "notice": "The storage slot under which we store an address representing the address permissioned to pause/unpause this contract."
      },
      "account()": {
        "notice": "An instance of the Account contract for the StakedCelo protocol."
      },
      "activatableGroupsCount()": {
        "notice": "Returns the number of activatable groups."
      },
      "activateGroup(address,address,address)": {
        "notice": "Marks a group as votable for default strategy. It is necessary to call `updateGroupHealth` in GroupHealth smart contract first."
      },
      "addActivatableGroup(address)": {
        "notice": "Adds group to activatable groups."
      },
      "constructor": {
        "notice": "Empty constructor for proxy implementation, `initializer` modifer ensures the implementation gets initialized."
      },
      "deactivateGroup(address)": {
        "notice": "Deactivates group."
      },
      "deactivateUnhealthyGroup(address)": {
        "notice": "Deactivates an unhealthy group."
      },
      "generateDepositVoteDistribution(uint256,address)": {
        "notice": "Distributes votes by computing the number of votes each active group should receive."
      },
      "generateWithdrawalVoteDistribution(uint256)": {
        "notice": "Distributes votes by computing the number of votes to be subtracted from each active group."
      },
      "getActivatableGroupAt(uint256)": {
        "notice": "Returns the activatable group at index."
      },
      "getExpectedAndActualStCeloForGroup(address)": {
        "notice": "Returns expected stCELO and actual stCELO for group."
      },
      "getGroupPreviousAndNext(address)": {
        "notice": "Returns previous and next address of key."
      },
      "getGroupsHead()": {
        "notice": "Returns head and previous address of head."
      },
      "getGroupsTail()": {
        "notice": "Returns tail and next address of tail."
      },
      "getNumberOfGroups()": {
        "notice": "Returns the number of active groups."
      },
      "getNumberOfUnsortedGroups()": {
        "notice": "Returns the number of unsorted groups."
      },
      "getUnsortedGroupAt(uint256)": {
        "notice": "Returns the unsorted group at index."
      },
      "getVersionNumber()": {
        "notice": "Returns the storage, major, minor, and patch version of the contract."
      },
      "groupHealth()": {
        "notice": "An instance of the GroupHealth contract for the StakedCelo protocol."
      },
      "initialize(address,address)": {
        "notice": "Initialize the contract with registry and owner."
      },
      "isActive(address)": {
        "notice": "Returns whether active groups contain group."
      },
      "isPaused()": {
        "notice": "Returns whether or not the contract is paused."
      },
      "maxGroupsToDistributeTo()": {
        "notice": "Maximum number of groups to distribute votes to."
      },
      "maxGroupsToWithdrawFrom()": {
        "notice": "Maximum number of groups to withdraw from."
      },
      "minCountOfActiveGroups()": {
        "notice": "Minimum count of active groups."
      },
      "pause()": {
        "notice": "Pauses the contract."
      },
      "pauser()": {
        "notice": "Returns the address permissioned to pause/unpause this contract."
      },
      "rebalance(address,address)": {
        "notice": "Rebalances CELO between groups that have an incorrect CELO-stCELO ratio. `fromGroup` is required to have more CELO than it should and `toGroup` needs to have less CELO than it should."
      },
      "setDependencies(address,address,address)": {
        "notice": "Set this contract's dependencies in the StakedCelo system."
      },
      "setManager(address)": {
        "notice": "Sets the manager address."
      },
      "setMinCountOfActiveGroups(uint256)": {
        "notice": "Sets the minimum number of active groups."
      },
      "setPauser()": {
        "notice": "Sets that address permissioned to pause/unpause this contract to the owner of this contract."
      },
      "setSortingParams(uint256,uint256,uint256)": {
        "notice": "Set distribution/withdrawal algorithm parameters."
      },
      "sorted()": {
        "notice": "Whether or not active groups are sorted. If active groups are not sorted it is neccessary to call updateActiveGroupOrder."
      },
      "specificGroupStrategy()": {
        "notice": "An instance of the SpecificGroupStrategy for the StakedCelo protocol."
      },
      "stCeloInGroup(address)": {
        "notice": "StCELO that was cast for default group strategy, strategy => stCELO amount."
      },
      "totalStCeloInStrategy()": {
        "notice": "Total stCELO that was voted with on default strategy."
      },
      "unpause()": {
        "notice": "Unpauses the contract."
      },
      "updateActiveGroupOrder(address,address,address)": {
        "notice": "Updates group order of unsorted group. When there are no more unsorted groups it will mark active groups as sorted."
      }
    },
    "version": 1
  },
  "storageLayout": {
    "storage": [
      {
        "astId": 130,
        "contract": "contracts/DefaultStrategy.sol:DefaultStrategy",
        "label": "_initialized",
        "offset": 0,
        "slot": "0",
        "type": "t_bool"
      },
      {
        "astId": 133,
        "contract": "contracts/DefaultStrategy.sol:DefaultStrategy",
        "label": "_initializing",
        "offset": 1,
        "slot": "0",
        "type": "t_bool"
      },
      {
        "astId": 584,
        "contract": "contracts/DefaultStrategy.sol:DefaultStrategy",
        "label": "__gap",
        "offset": 0,
        "slot": "1",
        "type": "t_array(t_uint256)50_storage"
      },
      {
        "astId": 10,
        "contract": "contracts/DefaultStrategy.sol:DefaultStrategy",
        "label": "_owner",
        "offset": 0,
        "slot": "51",
        "type": "t_address"
      },
      {
        "astId": 122,
        "contract": "contracts/DefaultStrategy.sol:DefaultStrategy",
        "label": "__gap",
        "offset": 0,
        "slot": "52",
        "type": "t_array(t_uint256)49_storage"
      },
      {
        "astId": 7214,
        "contract": "contracts/DefaultStrategy.sol:DefaultStrategy",
        "label": "manager",
        "offset": 0,
        "slot": "101",
        "type": "t_address"
      },
      {
        "astId": 5234,
        "contract": "contracts/DefaultStrategy.sol:DefaultStrategy",
        "label": "activeGroups",
        "offset": 0,
        "slot": "102",
        "type": "t_struct(List)16031_storage"
      },
      {
        "astId": 5238,
        "contract": "contracts/DefaultStrategy.sol:DefaultStrategy",
        "label": "groupHealth",
        "offset": 0,
        "slot": "107",
        "type": "t_contract(IGroupHealth)17503"
      },
      {
        "astId": 5242,
        "contract": "contracts/DefaultStrategy.sol:DefaultStrategy",
        "label": "account",
        "offset": 0,
        "slot": "108",
        "type": "t_contract(IAccount)16729"
      },
      {
        "astId": 5246,
        "contract": "contracts/DefaultStrategy.sol:DefaultStrategy",
        "label": "specificGroupStrategy",
        "offset": 0,
        "slot": "109",
        "type": "t_contract(ISpecificGroupStrategy)17823"
      },
      {
        "astId": 5251,
        "contract": "contracts/DefaultStrategy.sol:DefaultStrategy",
        "label": "stCeloInGroup",
        "offset": 0,
        "slot": "110",
        "type": "t_mapping(t_address,t_uint256)"
      },
      {
        "astId": 5254,
        "contract": "contracts/DefaultStrategy.sol:DefaultStrategy",
        "label": "maxGroupsToDistributeTo",
        "offset": 0,
        "slot": "111",
        "type": "t_uint256"
      },
      {
        "astId": 5257,
        "contract": "contracts/DefaultStrategy.sol:DefaultStrategy",
        "label": "maxGroupsToWithdrawFrom",
        "offset": 0,
        "slot": "112",
        "type": "t_uint256"
      },
      {
        "astId": 5260,
        "contract": "contracts/DefaultStrategy.sol:DefaultStrategy",
        "label": "totalStCeloInStrategy",
        "offset": 0,
        "slot": "113",
        "type": "t_uint256"
      },
      {
        "astId": 5263,
        "contract": "contracts/DefaultStrategy.sol:DefaultStrategy",
        "label": "sortingLoopLimit",
        "offset": 0,
        "slot": "114",
        "type": "t_uint256"
      },
      {
        "astId": 5266,
        "contract": "contracts/DefaultStrategy.sol:DefaultStrategy",
        "label": "sorted",
        "offset": 0,
        "slot": "115",
        "type": "t_bool"
      },
      {
        "astId": 5270,
        "contract": "contracts/DefaultStrategy.sol:DefaultStrategy",
        "label": "unsortedGroups",
        "offset": 0,
        "slot": "116",
        "type": "t_struct(AddressSet)3257_storage"
      },
      {
        "astId": 5273,
        "contract": "contracts/DefaultStrategy.sol:DefaultStrategy",
        "label": "minCountOfActiveGroups",
        "offset": 0,
        "slot": "118",
        "type": "t_uint256"
      },
      {
        "astId": 5277,
        "contract": "contracts/DefaultStrategy.sol:DefaultStrategy",
        "label": "activatableGroups",
        "offset": 0,
        "slot": "119",
        "type": "t_struct(AddressSet)3257_storage"
      }
    ],
    "types": {
      "t_address": {
        "encoding": "inplace",
        "label": "address",
        "numberOfBytes": "20"
      },
      "t_array(t_bytes32)dyn_storage": {
        "base": "t_bytes32",
        "encoding": "dynamic_array",
        "label": "bytes32[]",
        "numberOfBytes": "32"
      },
      "t_array(t_uint256)49_storage": {
        "base": "t_uint256",
        "encoding": "inplace",
        "label": "uint256[49]",
        "numberOfBytes": "1568"
      },
      "t_array(t_uint256)50_storage": {
        "base": "t_uint256",
        "encoding": "inplace",
        "label": "uint256[50]",
        "numberOfBytes": "1600"
      },
      "t_bool": {
        "encoding": "inplace",
        "label": "bool",
        "numberOfBytes": "1"
      },
      "t_bytes32": {
        "encoding": "inplace",
        "label": "bytes32",
        "numberOfBytes": "32"
      },
      "t_contract(IAccount)16729": {
        "encoding": "inplace",
        "label": "contract IAccount",
        "numberOfBytes": "20"
      },
      "t_contract(IGroupHealth)17503": {
        "encoding": "inplace",
        "label": "contract IGroupHealth",
        "numberOfBytes": "20"
      },
      "t_contract(ISpecificGroupStrategy)17823": {
        "encoding": "inplace",
        "label": "contract ISpecificGroupStrategy",
        "numberOfBytes": "20"
      },
      "t_mapping(t_address,t_uint256)": {
        "encoding": "mapping",
        "key": "t_address",
        "label": "mapping(address => uint256)",
        "numberOfBytes": "32",
        "value": "t_uint256"
      },
      "t_mapping(t_bytes32,t_struct(Element)15492_storage)": {
        "encoding": "mapping",
        "key": "t_bytes32",
        "label": "mapping(bytes32 => struct LinkedList.Element)",
        "numberOfBytes": "32",
        "value": "t_struct(Element)15492_storage"
      },
      "t_mapping(t_bytes32,t_uint256)": {
        "encoding": "mapping",
        "key": "t_bytes32",
        "label": "mapping(bytes32 => uint256)",
        "numberOfBytes": "32",
        "value": "t_uint256"
      },
      "t_struct(AddressSet)3257_storage": {
        "encoding": "inplace",
        "label": "struct EnumerableSet.AddressSet",
        "members": [
          {
            "astId": 3256,
            "contract": "contracts/DefaultStrategy.sol:DefaultStrategy",
            "label": "_inner",
            "offset": 0,
            "slot": "0",
            "type": "t_struct(Set)2956_storage"
          }
        ],
        "numberOfBytes": "64"
      },
      "t_struct(Element)15492_storage": {
        "encoding": "inplace",
        "label": "struct LinkedList.Element",
        "members": [
          {
            "astId": 15487,
            "contract": "contracts/DefaultStrategy.sol:DefaultStrategy",
            "label": "previousKey",
            "offset": 0,
            "slot": "0",
            "type": "t_bytes32"
          },
          {
            "astId": 15489,
            "contract": "contracts/DefaultStrategy.sol:DefaultStrategy",
            "label": "nextKey",
            "offset": 0,
            "slot": "1",
            "type": "t_bytes32"
          },
          {
            "astId": 15491,
            "contract": "contracts/DefaultStrategy.sol:DefaultStrategy",
            "label": "exists",
            "offset": 0,
            "slot": "2",
            "type": "t_bool"
          }
        ],
        "numberOfBytes": "96"
      },
      "t_struct(List)15504_storage": {
        "encoding": "inplace",
        "label": "struct LinkedList.List",
        "members": [
          {
            "astId": 15494,
            "contract": "contracts/DefaultStrategy.sol:DefaultStrategy",
            "label": "head",
            "offset": 0,
            "slot": "0",
            "type": "t_bytes32"
          },
          {
            "astId": 15496,
            "contract": "contracts/DefaultStrategy.sol:DefaultStrategy",
            "label": "tail",
            "offset": 0,
            "slot": "1",
            "type": "t_bytes32"
          },
          {
            "astId": 15498,
            "contract": "contracts/DefaultStrategy.sol:DefaultStrategy",
            "label": "numElements",
            "offset": 0,
            "slot": "2",
            "type": "t_uint256"
          },
          {
            "astId": 15503,
            "contract": "contracts/DefaultStrategy.sol:DefaultStrategy",
            "label": "elements",
            "offset": 0,
            "slot": "3",
            "type": "t_mapping(t_bytes32,t_struct(Element)15492_storage)"
          }
        ],
        "numberOfBytes": "128"
      },
      "t_struct(List)16031_storage": {
        "encoding": "inplace",
        "label": "struct SortedLinkedList.List",
        "members": [
          {
            "astId": 16026,
            "contract": "contracts/DefaultStrategy.sol:DefaultStrategy",
            "label": "list",
            "offset": 0,
            "slot": "0",
            "type": "t_struct(List)15504_storage"
          },
          {
            "astId": 16030,
            "contract": "contracts/DefaultStrategy.sol:DefaultStrategy",
            "label": "values",
            "offset": 0,
            "slot": "4",
            "type": "t_mapping(t_bytes32,t_uint256)"
          }
        ],
        "numberOfBytes": "160"
      },
      "t_struct(Set)2956_storage": {
        "encoding": "inplace",
        "label": "struct EnumerableSet.Set",
        "members": [
          {
            "astId": 2951,
            "contract": "contracts/DefaultStrategy.sol:DefaultStrategy",
            "label": "_values",
            "offset": 0,
            "slot": "0",
            "type": "t_array(t_bytes32)dyn_storage"
          },
          {
            "astId": 2955,
            "contract": "contracts/DefaultStrategy.sol:DefaultStrategy",
            "label": "_indexes",
            "offset": 0,
            "slot": "1",
            "type": "t_mapping(t_bytes32,t_uint256)"
          }
        ],
        "numberOfBytes": "64"
      },
      "t_uint256": {
        "encoding": "inplace",
        "label": "uint256",
        "numberOfBytes": "32"
      }
    }
  }
}