{
  "address": "0x4443a491f63fd212fd9932C1E27fe60f586aC578",
  "abi": [
    {
      "inputs": [],
      "stateMutability": "nonpayable",
      "type": "constructor"
    },
    {
      "inputs": [
        {
          "internalType": "address",
          "name": "group",
          "type": "address"
        }
      ],
      "name": "GroupHealthy",
      "type": "error"
    },
    {
      "inputs": [],
      "name": "MembersLengthMismatch",
      "type": "error"
    },
    {
      "anonymous": false,
      "inputs": [
        {
          "indexed": false,
          "internalType": "address",
          "name": "previousAdmin",
          "type": "address"
        },
        {
          "indexed": false,
          "internalType": "address",
          "name": "newAdmin",
          "type": "address"
        }
      ],
      "name": "AdminChanged",
      "type": "event"
    },
    {
      "anonymous": false,
      "inputs": [
        {
          "indexed": true,
          "internalType": "address",
          "name": "beacon",
          "type": "address"
        }
      ],
      "name": "BeaconUpgraded",
      "type": "event"
    },
    {
      "anonymous": false,
      "inputs": [
        {
          "indexed": false,
          "internalType": "address",
          "name": "group",
          "type": "address"
        },
        {
          "indexed": false,
          "internalType": "bool",
          "name": "healthy",
          "type": "bool"
        }
      ],
      "name": "GroupHealthUpdated",
      "type": "event"
    },
    {
      "anonymous": false,
      "inputs": [
        {
          "indexed": true,
          "internalType": "address",
          "name": "previousOwner",
          "type": "address"
        },
        {
          "indexed": true,
          "internalType": "address",
          "name": "newOwner",
          "type": "address"
        }
      ],
      "name": "OwnershipTransferred",
      "type": "event"
    },
    {
      "anonymous": false,
      "inputs": [
        {
          "indexed": true,
          "internalType": "address",
          "name": "implementation",
          "type": "address"
        }
      ],
      "name": "Upgraded",
      "type": "event"
    },
    {
      "inputs": [],
      "name": "getVersionNumber",
      "outputs": [
        {
          "internalType": "uint256",
          "name": "",
          "type": "uint256"
        },
        {
          "internalType": "uint256",
          "name": "",
          "type": "uint256"
        },
        {
          "internalType": "uint256",
          "name": "",
          "type": "uint256"
        },
        {
          "internalType": "uint256",
          "name": "",
          "type": "uint256"
        }
      ],
      "stateMutability": "pure",
      "type": "function"
    },
    {
      "inputs": [
        {
          "internalType": "address",
          "name": "_registry",
          "type": "address"
        },
        {
          "internalType": "address",
          "name": "_owner",
          "type": "address"
        }
      ],
      "name": "initialize",
      "outputs": [],
      "stateMutability": "nonpayable",
      "type": "function"
    },
    {
      "inputs": [
        {
          "internalType": "address",
          "name": "",
          "type": "address"
        }
      ],
      "name": "isGroupValid",
      "outputs": [
        {
          "internalType": "bool",
          "name": "",
          "type": "bool"
        }
      ],
      "stateMutability": "view",
      "type": "function"
    },
    {
      "inputs": [
        {
          "internalType": "address",
          "name": "group",
          "type": "address"
        },
        {
          "internalType": "uint256[]",
          "name": "membersElectedIndex",
          "type": "uint256[]"
        }
      ],
      "name": "markGroupHealthy",
      "outputs": [],
      "stateMutability": "nonpayable",
      "type": "function"
    },
    {
      "inputs": [],
      "name": "owner",
      "outputs": [
        {
          "internalType": "address",
          "name": "",
          "type": "address"
        }
      ],
      "stateMutability": "view",
      "type": "function"
    },
    {
      "inputs": [],
      "name": "registry",
      "outputs": [
        {
          "internalType": "contract IRegistry",
          "name": "",
          "type": "address"
        }
      ],
      "stateMutability": "view",
      "type": "function"
    },
    {
      "inputs": [],
      "name": "renounceOwnership",
      "outputs": [],
      "stateMutability": "nonpayable",
      "type": "function"
    },
    {
      "inputs": [
        {
          "internalType": "address",
          "name": "newOwner",
          "type": "address"
        }
      ],
      "name": "transferOwnership",
      "outputs": [],
      "stateMutability": "nonpayable",
      "type": "function"
    },
    {
      "inputs": [
        {
          "internalType": "address",
          "name": "group",
          "type": "address"
        }
      ],
      "name": "updateGroupHealth",
      "outputs": [],
      "stateMutability": "nonpayable",
      "type": "function"
    },
    {
      "inputs": [
        {
          "internalType": "address",
          "name": "newImplementation",
          "type": "address"
        }
      ],
      "name": "upgradeTo",
      "outputs": [],
      "stateMutability": "nonpayable",
      "type": "function"
    },
    {
      "inputs": [
        {
          "internalType": "address",
          "name": "newImplementation",
          "type": "address"
        },
        {
          "internalType": "bytes",
          "name": "data",
          "type": "bytes"
        }
      ],
      "name": "upgradeToAndCall",
      "outputs": [],
      "stateMutability": "payable",
      "type": "function"
    }
  ],
  "transactionHash": "0x1607805bbe57736852d357707e19ce864c756baaefa926fe9ba8ba7f8547db43",
  "args": [],
  "numDeployments": 1,
  "solcInputHash": "7930a169899b18f79c4c8ca443a8037f",
  "bytecode": "0x60a06040523073ffffffffffffffffffffffffffffffffffffffff1660809073ffffffffffffffffffffffffffffffffffffffff168152503480156200004457600080fd5b50600060019054906101000a900460ff166200006f5760008054906101000a900460ff161562000080565b6200007f6200013c60201b60201c565b5b620000c2576040517f08c379a0000000000000000000000000000000000000000000000000000000008152600401620000b99062000204565b60405180910390fd5b60008060019054906101000a900460ff16159050801562000113576001600060016101000a81548160ff02191690831515021790555060016000806101000a81548160ff0219169083151502179055505b8015620001355760008060016101000a81548160ff0219169083151502179055505b5062000226565b600062000154306200015a60201b62000b591760201c565b15905090565b6000808273ffffffffffffffffffffffffffffffffffffffff163b119050919050565b600082825260208201905092915050565b7f496e697469616c697a61626c653a20636f6e747261637420697320616c72656160008201527f647920696e697469616c697a6564000000000000000000000000000000000000602082015250565b6000620001ec602e836200017d565b9150620001f9826200018e565b604082019050919050565b600060208201905081810360008301526200021f81620001dd565b9050919050565b608051612b596200025760003960008181610264015281816102f3015281816104e501526105740152612b596000f3fe60806040526004361061009c5760003560e01c80637b103999116100645780637b103999146101545780638da5cb5b1461017f578063ab80c89f146101aa578063ac8f4425146101d3578063d1d36d3314610210578063f2fde38b146102395761009c565b80633659cfe6146100a1578063485cc955146100ca5780634f1ef286146100f357806354255be01461010f578063715018a61461013d575b600080fd5b3480156100ad57600080fd5b506100c860048036038101906100c39190611b50565b610262565b005b3480156100d657600080fd5b506100f160048036038101906100ec9190611b7d565b6103eb565b005b61010d60048036038101906101089190611d03565b6104e3565b005b34801561011b57600080fd5b50610124610620565b6040516101349493929190611d78565b60405180910390f35b34801561014957600080fd5b5061015261063a565b005b34801561016057600080fd5b506101696106c2565b6040516101769190611e1c565b60405180910390f35b34801561018b57600080fd5b506101946106e8565b6040516101a19190611e46565b60405180910390f35b3480156101b657600080fd5b506101d160048036038101906101cc9190611b50565b610712565b005b3480156101df57600080fd5b506101fa60048036038101906101f59190611b50565b61082f565b6040516102079190611e7c565b60405180910390f35b34801561021c57600080fd5b5061023760048036038101906102329190611ef7565b61084f565b005b34801561024557600080fd5b50610260600480360381019061025b9190611b50565b610a61565b005b7f000000000000000000000000000000000000000000000000000000000000000073ffffffffffffffffffffffffffffffffffffffff163073ffffffffffffffffffffffffffffffffffffffff1614156102f1576040517f08c379a00000000000000000000000000000000000000000000000000000000081526004016102e890611fda565b60405180910390fd5b7f000000000000000000000000000000000000000000000000000000000000000073ffffffffffffffffffffffffffffffffffffffff16610330610b7c565b73ffffffffffffffffffffffffffffffffffffffff1614610386576040517f08c379a000000000000000000000000000000000000000000000000000000000815260040161037d9061206c565b60405180910390fd5b61038f81610bd3565b6103e881600067ffffffffffffffff8111156103ae576103ad611bd8565b5b6040519080825280601f01601f1916602001820160405280156103e05781602001600182028036833780820191505090505b506000610c52565b50565b600060019054906101000a900460ff166104135760008054906101000a900460ff161561041c565b61041b610e23565b5b61045b576040517f08c379a0000000000000000000000000000000000000000000000000000000008152600401610452906120fe565b60405180910390fd5b60008060019054906101000a900460ff1615905080156104ab576001600060016101000a81548160ff02191690831515021790555060016000806101000a81548160ff0219169083151502179055505b6104b482610e34565b6104bd83610efa565b80156104de5760008060016101000a81548160ff0219169083151502179055505b505050565b7f000000000000000000000000000000000000000000000000000000000000000073ffffffffffffffffffffffffffffffffffffffff163073ffffffffffffffffffffffffffffffffffffffff161415610572576040517f08c379a000000000000000000000000000000000000000000000000000000000815260040161056990611fda565b60405180910390fd5b7f000000000000000000000000000000000000000000000000000000000000000073ffffffffffffffffffffffffffffffffffffffff166105b1610b7c565b73ffffffffffffffffffffffffffffffffffffffff1614610607576040517f08c379a00000000000000000000000000000000000000000000000000000000081526004016105fe9061206c565b60405180910390fd5b61061082610bd3565b61061c82826001610c52565b5050565b600080600080600180600080935093509350935090919293565b61064261100b565b73ffffffffffffffffffffffffffffffffffffffff166106606106e8565b73ffffffffffffffffffffffffffffffffffffffff16146106b6576040517f08c379a00000000000000000000000000000000000000000000000000000000081526004016106ad9061216a565b60405180910390fd5b6106c06000610e34565b565b606560009054906101000a900473ffffffffffffffffffffffffffffffffffffffff1681565b6000603360009054906101000a900473ffffffffffffffffffffffffffffffffffffffff16905090565b600061071c611013565b905060008061072b83856110da565b9150915081156107415761073e8161139f565b91505b811515606660008673ffffffffffffffffffffffffffffffffffffffff1673ffffffffffffffffffffffffffffffffffffffff16815260200190815260200160002060009054906101000a900460ff161515146108295781606660008673ffffffffffffffffffffffffffffffffffffffff1673ffffffffffffffffffffffffffffffffffffffff16815260200190815260200160002060006101000a81548160ff0219169083151502179055507faf5c4c2ab440a2f535091c2b12e69b4e83bb351ba27a46c77aa7cf85fbdfde7e848360405161082092919061218a565b60405180910390a15b50505050565b60666020528060005260406000206000915054906101000a900460ff1681565b60011515606660008573ffffffffffffffffffffffffffffffffffffffff1673ffffffffffffffffffffffffffffffffffffffff16815260200190815260200160002060009054906101000a900460ff16151514156108e557826040517f5e5e76170000000000000000000000000000000000000000000000000000000081526004016108dc9190611e46565b60405180910390fd5b60006108ef611013565b90506000806108fe83876110da565b915091508161090f57505050610a5c565b8051858590501461094c576040517f738ca2d100000000000000000000000000000000000000000000000000000000815260040160405180910390fd5b6000610956611565565b905060005b8251811015610a56576109a283828151811061097a576109796121b3565b5b6020026020010151888884818110610995576109946121b3565b5b90506020020135846115e2565b15610a43576001606660008a73ffffffffffffffffffffffffffffffffffffffff1673ffffffffffffffffffffffffffffffffffffffff16815260200190815260200160002060006101000a81548160ff0219169083151502179055507faf5c4c2ab440a2f535091c2b12e69b4e83bb351ba27a46c77aa7cf85fbdfde7e886001604051610a3192919061218a565b60405180910390a15050505050610a5c565b8080610a4e90612211565b91505061095b565b50505050505b505050565b610a6961100b565b73ffffffffffffffffffffffffffffffffffffffff16610a876106e8565b73ffffffffffffffffffffffffffffffffffffffff1614610add576040517f08c379a0000000000000000000000000000000000000000000000000000000008152600401610ad49061216a565b60405180910390fd5b600073ffffffffffffffffffffffffffffffffffffffff168173ffffffffffffffffffffffffffffffffffffffff161415610b4d576040517f08c379a0000000000000000000000000000000000000000000000000000000008152600401610b44906122cc565b60405180910390fd5b610b5681610e34565b50565b6000808273ffffffffffffffffffffffffffffffffffffffff163b119050919050565b6000610baa7f360894a13ba1a3210667c828492db98dca3e2076cc3735a920a3ca505d382bbc60001b611636565b60000160009054906101000a900473ffffffffffffffffffffffffffffffffffffffff16905090565b610bdb61100b565b73ffffffffffffffffffffffffffffffffffffffff16610bf96106e8565b73ffffffffffffffffffffffffffffffffffffffff1614610c4f576040517f08c379a0000000000000000000000000000000000000000000000000000000008152600401610c469061216a565b60405180910390fd5b50565b6000610c5c610b7c565b9050610c6784611640565b600083511180610c745750815b15610c8557610c8384846116f9565b505b6000610cb37f4910fdfa16fed3260ed0e7147f7cc6da11a60208b5b9406d12a635614ffd914360001b611726565b90508060000160009054906101000a900460ff16610e1c5760018160000160006101000a81548160ff021916908315150217905550610d7f8583604051602401610cfd9190611e46565b6040516020818303038152906040527f3659cfe6000000000000000000000000000000000000000000000000000000007bffffffffffffffffffffffffffffffffffffffffffffffffffffffff19166020820180517bffffffffffffffffffffffffffffffffffffffffffffffffffffffff83818316178352505050506116f9565b5060008160000160006101000a81548160ff021916908315150217905550610da5610b7c565b73ffffffffffffffffffffffffffffffffffffffff168273ffffffffffffffffffffffffffffffffffffffff1614610e12576040517f08c379a0000000000000000000000000000000000000000000000000000000008152600401610e099061235e565b60405180910390fd5b610e1b85611730565b5b5050505050565b6000610e2e30610b59565b15905090565b6000603360009054906101000a900473ffffffffffffffffffffffffffffffffffffffff16905081603360006101000a81548173ffffffffffffffffffffffffffffffffffffffff021916908373ffffffffffffffffffffffffffffffffffffffff1602179055508173ffffffffffffffffffffffffffffffffffffffff168173ffffffffffffffffffffffffffffffffffffffff167f8be0079c531659141344cd1fd0a4f28419497f9722a3daafe3b4186f6b6457e060405160405180910390a35050565b600060019054906101000a900460ff16610f49576040517f08c379a0000000000000000000000000000000000000000000000000000000008152600401610f40906123f0565b60405180910390fd5b600073ffffffffffffffffffffffffffffffffffffffff168173ffffffffffffffffffffffffffffffffffffffff161415610fc65761ce10606560006101000a81548173ffffffffffffffffffffffffffffffffffffffff021916908373ffffffffffffffffffffffffffffffffffffffff160217905550611008565b80606560006101000a81548173ffffffffffffffffffffffffffffffffffffffff021916908373ffffffffffffffffffffffffffffffffffffffff1602179055505b50565b600033905090565b6000606560009054906101000a900473ffffffffffffffffffffffffffffffffffffffff1673ffffffffffffffffffffffffffffffffffffffff1663dcf0aaed60405160200161106290612467565b604051602081830303815290604052805190602001206040518263ffffffff1660e01b81526004016110949190612495565b602060405180830381865afa1580156110b1573d6000803e3d6000fd5b505050506040513d601f19601f820116820180604052508101906110d591906124c5565b905090565b600060608373ffffffffffffffffffffffffffffffffffffffff166352f13a4e846040518263ffffffff1660e01b81526004016111179190611e46565b602060405180830381865afa158015611134573d6000803e3d6000fd5b505050506040513d601f19601f82011682018060405250810190611158919061251e565b6111655760009150611398565b600060608573ffffffffffffffffffffffffffffffffffffffff16639b9d5161866040518263ffffffff1660e01b81526004016111a29190611e46565b600060405180830381865afa1580156111bf573d6000803e3d6000fd5b505050506040513d6000823e3d601f19601f820116820180604052508101906111e891906126fd565b909192939450909192935090919250909150508093508192505050805167ffffffffffffffff81111561121e5761121d611bd8565b5b60405190808252806020026020018201604052801561124c5781602001602082028036833780820191505090505b509250600061125961177f565b905060005b825181101561135b578173ffffffffffffffffffffffffffffffffffffffff16634ce38b5f848381518110611296576112956121b3565b5b60200260200101516040518263ffffffff1660e01b81526004016112ba9190611e46565b602060405180830381865afa1580156112d7573d6000803e3d6000fd5b505050506040513d601f19601f820116820180604052508101906112fb91906124c5565b85828151811061130e5761130d6121b3565b5b602002602001019073ffffffffffffffffffffffffffffffffffffffff16908173ffffffffffffffffffffffffffffffffffffffff1681525050808061135390612211565b91505061125e565b506000845114156113725760009450505050611398565b69d3c21bcecceda10000008310156113905760009450505050611398565b600194505050505b9250929050565b600080600090505b8251811015611435576001606760008584815181106113c9576113c86121b3565b5b602002602001015173ffffffffffffffffffffffffffffffffffffffff1673ffffffffffffffffffffffffffffffffffffffff16815260200190815260200160002060006101000a81548160ff021916908315150217905550808061142d90612211565b9150506113a7565b506000806000611443611565565b905060005b818110156114d05761145981611846565b925060011515606760008573ffffffffffffffffffffffffffffffffffffffff1673ffffffffffffffffffffffffffffffffffffffff16815260200190815260200160002060009054906101000a900460ff16151514156114bd57600193506114d0565b80806114c890612211565b915050611448565b5060005b855181101561155957606760008783815181106114f4576114f36121b3565b5b602002602001015173ffffffffffffffffffffffffffffffffffffffff1673ffffffffffffffffffffffffffffffffffffffff16815260200190815260200160002060006101000a81549060ff0219169055808061155190612211565b9150506114d4565b50829350505050919050565b600061156f6118d0565b73ffffffffffffffffffffffffffffffffffffffff166387ee8a0f6040518163ffffffff1660e01b8152600401602060405180830381865afa1580156115b9573d6000803e3d6000fd5b505050506040513d601f19601f820116820180604052508101906115dd91906127d7565b905090565b6000818311156115f5576000905061162f565b8373ffffffffffffffffffffffffffffffffffffffff1661161584611846565b73ffffffffffffffffffffffffffffffffffffffff161490505b9392505050565b6000819050919050565b61164981611997565b611688576040517f08c379a000000000000000000000000000000000000000000000000000000000815260040161167f90612876565b60405180910390fd5b806116b57f360894a13ba1a3210667c828492db98dca3e2076cc3735a920a3ca505d382bbc60001b611636565b60000160006101000a81548173ffffffffffffffffffffffffffffffffffffffff021916908373ffffffffffffffffffffffffffffffffffffffff16021790555050565b606061171e8383604051806060016040528060278152602001612afd602791396119aa565b905092915050565b6000819050919050565b61173981611640565b8073ffffffffffffffffffffffffffffffffffffffff167fbc7cd75a20ee27fd9adebab32041f755214dbc6bffa90cc0225b39da2e5c2d3b60405160405180910390a250565b6000606560009054906101000a900473ffffffffffffffffffffffffffffffffffffffff1673ffffffffffffffffffffffffffffffffffffffff1663dcf0aaed6040516020016117ce906128e2565b604051602081830303815290604052805190602001206040518263ffffffff1660e01b81526004016118009190612495565b602060405180830381865afa15801561181d573d6000803e3d6000fd5b505050506040513d601f19601f8201168201806040525081019061184191906124c5565b905090565b60006118506118d0565b73ffffffffffffffffffffffffffffffffffffffff1663123633ea836040518263ffffffff1660e01b815260040161188891906128f7565b602060405180830381865afa1580156118a5573d6000803e3d6000fd5b505050506040513d601f19601f820116820180604052508101906118c991906124c5565b9050919050565b6000606560009054906101000a900473ffffffffffffffffffffffffffffffffffffffff1673ffffffffffffffffffffffffffffffffffffffff1663dcf0aaed60405160200161191f9061295e565b604051602081830303815290604052805190602001206040518263ffffffff1660e01b81526004016119519190612495565b602060405180830381865afa15801561196e573d6000803e3d6000fd5b505050506040513d601f19601f8201168201806040525081019061199291906124c5565b905090565b600080823b905060008111915050919050565b60606119b584611997565b6119f4576040517f08c379a00000000000000000000000000000000000000000000000000000000081526004016119eb906129e5565b60405180910390fd5b6000808573ffffffffffffffffffffffffffffffffffffffff1685604051611a1c9190612a7f565b600060405180830381855af49150503d8060008114611a57576040519150601f19603f3d011682016040523d82523d6000602084013e611a5c565b606091505b5091509150611a6c828286611a77565b925050509392505050565b60608315611a8757829050611ad7565b600083511115611a9a5782518084602001fd5b816040517f08c379a0000000000000000000000000000000000000000000000000000000008152600401611ace9190612ada565b60405180910390fd5b9392505050565b6000604051905090565b600080fd5b600080fd5b600073ffffffffffffffffffffffffffffffffffffffff82169050919050565b6000611b1d82611af2565b9050919050565b611b2d81611b12565b8114611b3857600080fd5b50565b600081359050611b4a81611b24565b92915050565b600060208284031215611b6657611b65611ae8565b5b6000611b7484828501611b3b565b91505092915050565b60008060408385031215611b9457611b93611ae8565b5b6000611ba285828601611b3b565b9250506020611bb385828601611b3b565b9150509250929050565b600080fd5b600080fd5b6000601f19601f8301169050919050565b7f4e487b7100000000000000000000000000000000000000000000000000000000600052604160045260246000fd5b611c1082611bc7565b810181811067ffffffffffffffff82111715611c2f57611c2e611bd8565b5b80604052505050565b6000611c42611ade565b9050611c4e8282611c07565b919050565b600067ffffffffffffffff821115611c6e57611c6d611bd8565b5b611c7782611bc7565b9050602081019050919050565b82818337600083830152505050565b6000611ca6611ca184611c53565b611c38565b905082815260208101848484011115611cc257611cc1611bc2565b5b611ccd848285611c84565b509392505050565b600082601f830112611cea57611ce9611bbd565b5b8135611cfa848260208601611c93565b91505092915050565b60008060408385031215611d1a57611d19611ae8565b5b6000611d2885828601611b3b565b925050602083013567ffffffffffffffff811115611d4957611d48611aed565b5b611d5585828601611cd5565b9150509250929050565b6000819050919050565b611d7281611d5f565b82525050565b6000608082019050611d8d6000830187611d69565b611d9a6020830186611d69565b611da76040830185611d69565b611db46060830184611d69565b95945050505050565b6000819050919050565b6000611de2611ddd611dd884611af2565b611dbd565b611af2565b9050919050565b6000611df482611dc7565b9050919050565b6000611e0682611de9565b9050919050565b611e1681611dfb565b82525050565b6000602082019050611e316000830184611e0d565b92915050565b611e4081611b12565b82525050565b6000602082019050611e5b6000830184611e37565b92915050565b60008115159050919050565b611e7681611e61565b82525050565b6000602082019050611e916000830184611e6d565b92915050565b600080fd5b600080fd5b60008083601f840112611eb757611eb6611bbd565b5b8235905067ffffffffffffffff811115611ed457611ed3611e97565b5b602083019150836020820283011115611ef057611eef611e9c565b5b9250929050565b600080600060408486031215611f1057611f0f611ae8565b5b6000611f1e86828701611b3b565b935050602084013567ffffffffffffffff811115611f3f57611f3e611aed565b5b611f4b86828701611ea1565b92509250509250925092565b600082825260208201905092915050565b7f46756e6374696f6e206d7573742062652063616c6c6564207468726f7567682060008201527f64656c656761746563616c6c0000000000000000000000000000000000000000602082015250565b6000611fc4602c83611f57565b9150611fcf82611f68565b604082019050919050565b60006020820190508181036000830152611ff381611fb7565b9050919050565b7f46756e6374696f6e206d7573742062652063616c6c6564207468726f7567682060008201527f6163746976652070726f78790000000000000000000000000000000000000000602082015250565b6000612056602c83611f57565b915061206182611ffa565b604082019050919050565b6000602082019050818103600083015261208581612049565b9050919050565b7f496e697469616c697a61626c653a20636f6e747261637420697320616c72656160008201527f647920696e697469616c697a6564000000000000000000000000000000000000602082015250565b60006120e8602e83611f57565b91506120f38261208c565b604082019050919050565b60006020820190508181036000830152612117816120db565b9050919050565b7f4f776e61626c653a2063616c6c6572206973206e6f7420746865206f776e6572600082015250565b6000612154602083611f57565b915061215f8261211e565b602082019050919050565b6000602082019050818103600083015261218381612147565b9050919050565b600060408201905061219f6000830185611e37565b6121ac6020830184611e6d565b9392505050565b7f4e487b7100000000000000000000000000000000000000000000000000000000600052603260045260246000fd5b7f4e487b7100000000000000000000000000000000000000000000000000000000600052601160045260246000fd5b600061221c82611d5f565b91507fffffffffffffffffffffffffffffffffffffffffffffffffffffffffffffffff82141561224f5761224e6121e2565b5b600182019050919050565b7f4f776e61626c653a206e6577206f776e657220697320746865207a65726f206160008201527f6464726573730000000000000000000000000000000000000000000000000000602082015250565b60006122b6602683611f57565b91506122c18261225a565b604082019050919050565b600060208201905081810360008301526122e5816122a9565b9050919050565b7f45524331393637557067726164653a207570677261646520627265616b73206660008201527f7572746865722075706772616465730000000000000000000000000000000000602082015250565b6000612348602f83611f57565b9150612353826122ec565b604082019050919050565b600060208201905081810360008301526123778161233b565b9050919050565b7f496e697469616c697a61626c653a20636f6e7472616374206973206e6f74206960008201527f6e697469616c697a696e67000000000000000000000000000000000000000000602082015250565b60006123da602b83611f57565b91506123e58261237e565b604082019050919050565b60006020820190508181036000830152612409816123cd565b9050919050565b600081905092915050565b7f56616c696461746f727300000000000000000000000000000000000000000000600082015250565b6000612451600a83612410565b915061245c8261241b565b600a82019050919050565b600061247282612444565b9150819050919050565b6000819050919050565b61248f8161247c565b82525050565b60006020820190506124aa6000830184612486565b92915050565b6000815190506124bf81611b24565b92915050565b6000602082840312156124db576124da611ae8565b5b60006124e9848285016124b0565b91505092915050565b6124fb81611e61565b811461250657600080fd5b50565b600081519050612518816124f2565b92915050565b60006020828403121561253457612533611ae8565b5b600061254284828501612509565b91505092915050565b600067ffffffffffffffff82111561256657612565611bd8565b5b602082029050602081019050919050565b600061258a6125858461254b565b611c38565b905080838252602082019050602084028301858111156125ad576125ac611e9c565b5b835b818110156125d657806125c288826124b0565b8452602084019350506020810190506125af565b5050509392505050565b600082601f8301126125f5576125f4611bbd565b5b8151612605848260208601612577565b91505092915050565b61261781611d5f565b811461262257600080fd5b50565b6000815190506126348161260e565b92915050565b600067ffffffffffffffff82111561265557612654611bd8565b5b602082029050602081019050919050565b60006126796126748461263a565b611c38565b9050808382526020820190506020840283018581111561269c5761269b611e9c565b5b835b818110156126c557806126b18882612625565b84526020840193505060208101905061269e565b5050509392505050565b600082601f8301126126e4576126e3611bbd565b5b81516126f4848260208601612666565b91505092915050565b600080600080600080600060e0888a03121561271c5761271b611ae8565b5b600088015167ffffffffffffffff81111561273a57612739611aed565b5b6127468a828b016125e0565b97505060206127578a828b01612625565b96505060406127688a828b01612625565b95505060606127798a828b01612625565b945050608088015167ffffffffffffffff81111561279a57612799611aed565b5b6127a68a828b016126cf565b93505060a06127b78a828b01612625565b92505060c06127c88a828b01612625565b91505092959891949750929550565b6000602082840312156127ed576127ec611ae8565b5b60006127fb84828501612625565b91505092915050565b7f455243313936373a206e657720696d706c656d656e746174696f6e206973206e60008201527f6f74206120636f6e747261637400000000000000000000000000000000000000602082015250565b6000612860602d83611f57565b915061286b82612804565b604082019050919050565b6000602082019050818103600083015261288f81612853565b9050919050565b7f4163636f756e7473000000000000000000000000000000000000000000000000600082015250565b60006128cc600883612410565b91506128d782612896565b600882019050919050565b60006128ed826128bf565b9150819050919050565b600060208201905061290c6000830184611d69565b92915050565b7f456c656374696f6e000000000000000000000000000000000000000000000000600082015250565b6000612948600883612410565b915061295382612912565b600882019050919050565b60006129698261293b565b9150819050919050565b7f416464726573733a2064656c65676174652063616c6c20746f206e6f6e2d636f60008201527f6e74726163740000000000000000000000000000000000000000000000000000602082015250565b60006129cf602683611f57565b91506129da82612973565b604082019050919050565b600060208201905081810360008301526129fe816129c2565b9050919050565b600081519050919050565b600081905092915050565b60005b83811015612a39578082015181840152602081019050612a1e565b83811115612a48576000848401525b50505050565b6000612a5982612a05565b612a638185612a10565b9350612a73818560208601612a1b565b80840191505092915050565b6000612a8b8284612a4e565b915081905092915050565b600081519050919050565b6000612aac82612a96565b612ab68185611f57565b9350612ac6818560208601612a1b565b612acf81611bc7565b840191505092915050565b60006020820190508181036000830152612af48184612aa1565b90509291505056fe416464726573733a206c6f772d6c6576656c2064656c65676174652063616c6c206661696c6564a2646970667358221220d43f497d89b8bbfdbc33fffda5d2043af8b54b6de4b9dec432c95e4b5eae657764736f6c634300080b0033",
  "devdoc": {
    "errors": {
      "GroupHealthy(address)": [
        {
          "params": {
            "group": "The group's address."
          }
        }
      ]
    },
    "events": {
      "GroupHealthUpdated(address,bool)": {
        "params": {
          "group": "The group's address.",
          "healthy": "Whether or not group is healthy."
        }
      }
    },
    "kind": "dev",
    "methods": {
      "getVersionNumber()": {
        "returns": {
          "_0": "Storage version of the contract.",
          "_1": "Major version of the contract.",
          "_2": "Minor version of the contract.",
          "_3": "Patch version of the contract."
        }
      },
      "initialize(address,address)": {
        "params": {
          "_owner": "The address of the contract owner.",
          "_registry": "The address of the CELO Registry."
        }
      },
      "markGroupHealthy(address,uint256[])": {
        "params": {
          "group": "The group's address.",
          "membersElectedIndex": "The indexes of elected members. This array needs to have same length as all (even not elected) members of validator group. Index of not elected member can be any uint256 number."
        }
      },
      "owner()": {
        "details": "Returns the address of the current owner."
      },
      "renounceOwnership()": {
        "details": "Leaves the contract without owner. It will not be possible to call `onlyOwner` functions anymore. Can only be called by the current owner. NOTE: Renouncing ownership will leave the contract without an owner, thereby removing any functionality that is only available to the owner."
      },
      "transferOwnership(address)": {
        "details": "Transfers ownership of the contract to a new account (`newOwner`). Can only be called by the current owner."
      },
      "updateGroupHealth(address)": {
        "params": {
          "group": "The group address."
        }
      },
      "upgradeTo(address)": {
        "details": "Upgrade the implementation of the proxy to `newImplementation`. Calls {_authorizeUpgrade}. Emits an {Upgraded} event."
      },
      "upgradeToAndCall(address,bytes)": {
        "details": "Upgrade the implementation of the proxy to `newImplementation`, and subsequently execute the function call encoded in `data`. Calls {_authorizeUpgrade}. Emits an {Upgraded} event."
      }
    },
    "title": "GroupHealth stores and updates info about validator group health.",
    "version": 1
  },
  "userdoc": {
    "errors": {
      "GroupHealthy(address)": [
        {
          "notice": "Used when calling `markGroupHealthy` on already healthy group."
        }
      ],
      "MembersLengthMismatch()": [
        {
          "notice": "Used when checking elected validator group members but there is member length and indexes length mismatch."
        }
      ]
    },
    "events": {
      "GroupHealthUpdated(address,bool)": {
        "notice": "Emitted when `updateGroupHealth` called."
      }
    },
    "kind": "user",
    "methods": {
      "constructor": {
        "notice": "Empty constructor for proxy implementation, `initializer` modifer ensures the implementation gets initialized."
      },
      "getVersionNumber()": {
        "notice": "Returns the storage, major, minor, and patch version of the contract."
      },
      "initialize(address,address)": {
        "notice": "Initialize the contract with registry and owner."
      },
      "isGroupValid(address)": {
        "notice": "Mapping that stores health state of groups."
      },
      "markGroupHealthy(address,uint256[])": {
        "notice": "Updates validator group to healthy if eligible."
      },
      "registry()": {
        "notice": "The Registry."
      },
      "updateGroupHealth(address)": {
        "notice": "Updates validator group health."
      }
    },
    "version": 1
  },
  "storageLayout": {
    "storage": [
      {
        "astId": 130,
        "contract": "contracts/GroupHealth.sol:GroupHealth",
        "label": "_initialized",
        "offset": 0,
        "slot": "0",
        "type": "t_bool"
      },
      {
        "astId": 133,
        "contract": "contracts/GroupHealth.sol:GroupHealth",
        "label": "_initializing",
        "offset": 1,
        "slot": "0",
        "type": "t_bool"
      },
      {
        "astId": 584,
        "contract": "contracts/GroupHealth.sol:GroupHealth",
        "label": "__gap",
        "offset": 0,
        "slot": "1",
        "type": "t_array(t_uint256)50_storage"
      },
      {
        "astId": 10,
        "contract": "contracts/GroupHealth.sol:GroupHealth",
        "label": "_owner",
        "offset": 0,
        "slot": "51",
        "type": "t_address"
      },
      {
        "astId": 122,
        "contract": "contracts/GroupHealth.sol:GroupHealth",
        "label": "__gap",
        "offset": 0,
        "slot": "52",
        "type": "t_array(t_uint256)49_storage"
      },
      {
        "astId": 8346,
        "contract": "contracts/GroupHealth.sol:GroupHealth",
        "label": "registry",
        "offset": 0,
        "slot": "101",
        "type": "t_contract(IRegistry)9556"
      },
      {
        "astId": 4349,
        "contract": "contracts/GroupHealth.sol:GroupHealth",
        "label": "isGroupValid",
        "offset": 0,
        "slot": "102",
        "type": "t_mapping(t_address,t_bool)"
      },
      {
        "astId": 4354,
        "contract": "contracts/GroupHealth.sol:GroupHealth",
        "label": "membersMappingHelper",
        "offset": 0,
        "slot": "103",
        "type": "t_mapping(t_address,t_bool)"
      }
    ],
    "types": {
      "t_address": {
        "encoding": "inplace",
        "label": "address",
        "numberOfBytes": "20"
      },
      "t_array(t_uint256)49_storage": {
        "base": "t_uint256",
        "encoding": "inplace",
        "label": "uint256[49]",
        "numberOfBytes": "1568"
      },
      "t_array(t_uint256)50_storage": {
        "base": "t_uint256",
        "encoding": "inplace",
        "label": "uint256[50]",
        "numberOfBytes": "1600"
      },
      "t_bool": {
        "encoding": "inplace",
        "label": "bool",
        "numberOfBytes": "1"
      },
      "t_contract(IRegistry)9556": {
        "encoding": "inplace",
        "label": "contract IRegistry",
        "numberOfBytes": "20"
      },
      "t_mapping(t_address,t_bool)": {
        "encoding": "mapping",
        "key": "t_address",
        "label": "mapping(address => bool)",
        "numberOfBytes": "32",
        "value": "t_bool"
      },
      "t_uint256": {
        "encoding": "inplace",
        "label": "uint256",
        "numberOfBytes": "32"
      }
    }
  }
}