{
  "address": "0x2CB8B2e0915629c8999E739932F6A6642600E9aF",
  "abi": [
    {
      "inputs": [],
      "stateMutability": "nonpayable",
      "type": "constructor"
    },
    {
      "inputs": [],
      "name": "AddressZeroNotAllowed",
      "type": "error"
    },
    {
      "inputs": [
        {
          "internalType": "address",
          "name": "caller",
          "type": "address"
        }
      ],
      "name": "CallerNotStakedCelo",
      "type": "error"
    },
    {
      "inputs": [
        {
          "internalType": "address",
          "name": "caller",
          "type": "address"
        }
      ],
      "name": "CallerNotStrategy",
      "type": "error"
    },
    {
      "inputs": [
        {
          "internalType": "address",
          "name": "group",
          "type": "address"
        }
      ],
      "name": "FromGroupNotOverflowing",
      "type": "error"
    },
    {
      "inputs": [
        {
          "internalType": "address",
          "name": "group",
          "type": "address"
        }
      ],
      "name": "GroupNotEligible",
      "type": "error"
    },
    {
      "inputs": [
        {
          "internalType": "address",
          "name": "group",
          "type": "address"
        }
      ],
      "name": "InvalidToGroup",
      "type": "error"
    },
    {
      "inputs": [],
      "name": "OnlyPauser",
      "type": "error"
    },
    {
      "inputs": [],
      "name": "Paused",
      "type": "error"
    },
    {
      "inputs": [
        {
          "internalType": "address",
          "name": "group",
          "type": "address"
        },
        {
          "internalType": "uint256",
          "name": "actualCelo",
          "type": "uint256"
        },
        {
          "internalType": "uint256",
          "name": "expectedCelo",
          "type": "uint256"
        }
      ],
      "name": "RebalanceEnoughCelo",
      "type": "error"
    },
    {
      "inputs": [
        {
          "internalType": "address",
          "name": "group",
          "type": "address"
        },
        {
          "internalType": "uint256",
          "name": "actualCelo",
          "type": "uint256"
        },
        {
          "internalType": "uint256",
          "name": "expectedCelo",
          "type": "uint256"
        }
      ],
      "name": "RebalanceNoExtraCelo",
      "type": "error"
    },
    {
      "inputs": [
        {
          "internalType": "address",
          "name": "group",
          "type": "address"
        }
      ],
      "name": "ToGroupOverflowing",
      "type": "error"
    },
    {
      "inputs": [],
      "name": "ZeroWithdrawal",
      "type": "error"
    },
    {
      "anonymous": false,
      "inputs": [
        {
          "indexed": false,
          "internalType": "address",
          "name": "previousAdmin",
          "type": "address"
        },
        {
          "indexed": false,
          "internalType": "address",
          "name": "newAdmin",
          "type": "address"
        }
      ],
      "name": "AdminChanged",
      "type": "event"
    },
    {
      "anonymous": false,
      "inputs": [
        {
          "indexed": true,
          "internalType": "address",
          "name": "beacon",
          "type": "address"
        }
      ],
      "name": "BeaconUpgraded",
      "type": "event"
    },
    {
      "anonymous": false,
      "inputs": [],
      "name": "ContractPaused",
      "type": "event"
    },
    {
      "anonymous": false,
      "inputs": [],
      "name": "ContractUnpaused",
      "type": "event"
    },
    {
      "anonymous": false,
      "inputs": [
        {
          "indexed": true,
          "internalType": "address",
          "name": "previousOwner",
          "type": "address"
        },
        {
          "indexed": true,
          "internalType": "address",
          "name": "newOwner",
          "type": "address"
        }
      ],
      "name": "OwnershipTransferred",
      "type": "event"
    },
    {
      "anonymous": false,
      "inputs": [
        {
          "indexed": false,
          "internalType": "address",
          "name": "pauser",
          "type": "address"
        }
      ],
      "name": "PauserSet",
      "type": "event"
    },
    {
      "anonymous": false,
      "inputs": [
        {
          "indexed": true,
          "internalType": "address",
          "name": "group",
          "type": "address"
        }
      ],
      "name": "StrategyChanged",
      "type": "event"
    },
    {
      "anonymous": false,
      "inputs": [
        {
          "indexed": true,
          "internalType": "address",
          "name": "implementation",
          "type": "address"
        }
      ],
      "name": "Upgraded",
      "type": "event"
    },
    {
      "anonymous": false,
      "inputs": [
        {
          "indexed": true,
          "internalType": "address",
          "name": "voteContract",
          "type": "address"
        }
      ],
      "name": "VoteContractSet",
      "type": "event"
    },
    {
      "inputs": [],
      "name": "PAUSED_POSITION",
      "outputs": [
        {
          "internalType": "bytes32",
          "name": "",
          "type": "bytes32"
        }
      ],
      "stateMutability": "view",
      "type": "function"
    },
    {
      "inputs": [],
      "name": "PAUSER_POSITION",
      "outputs": [
        {
          "internalType": "bytes32",
          "name": "",
          "type": "bytes32"
        }
      ],
      "stateMutability": "view",
      "type": "function"
    },
    {
      "inputs": [
        {
          "internalType": "address",
          "name": "newStrategy",
          "type": "address"
        }
      ],
      "name": "changeStrategy",
      "outputs": [],
      "stateMutability": "nonpayable",
      "type": "function"
    },
    {
      "inputs": [],
      "name": "defaultStrategy",
      "outputs": [
        {
          "internalType": "contract IDefaultStrategy",
          "name": "",
          "type": "address"
        }
      ],
      "stateMutability": "view",
      "type": "function"
    },
    {
      "inputs": [],
      "name": "deposit",
      "outputs": [],
      "stateMutability": "payable",
      "type": "function"
    },
    {
      "inputs": [
        {
          "internalType": "address",
          "name": "accountAddress",
          "type": "address"
        }
      ],
      "name": "getAddressStrategy",
      "outputs": [
        {
          "internalType": "address",
          "name": "",
          "type": "address"
        }
      ],
      "stateMutability": "view",
      "type": "function"
    },
    {
      "inputs": [
        {
          "internalType": "address",
          "name": "group",
          "type": "address"
        }
      ],
      "name": "getExpectedAndActualCeloForGroup",
      "outputs": [
        {
          "internalType": "uint256",
          "name": "expectedCelo",
          "type": "uint256"
        },
        {
          "internalType": "uint256",
          "name": "actualCelo",
          "type": "uint256"
        }
      ],
      "stateMutability": "view",
      "type": "function"
    },
    {
      "inputs": [
        {
          "internalType": "address",
          "name": "group",
          "type": "address"
        }
      ],
      "name": "getReceivableVotesForGroup",
      "outputs": [
        {
          "internalType": "uint256",
          "name": "",
          "type": "uint256"
        }
      ],
      "stateMutability": "view",
      "type": "function"
    },
    {
      "inputs": [],
      "name": "getVersionNumber",
      "outputs": [
        {
          "internalType": "uint256",
          "name": "",
          "type": "uint256"
        },
        {
          "internalType": "uint256",
          "name": "",
          "type": "uint256"
        },
        {
          "internalType": "uint256",
          "name": "",
          "type": "uint256"
        },
        {
          "internalType": "uint256",
          "name": "",
          "type": "uint256"
        }
      ],
      "stateMutability": "pure",
      "type": "function"
    },
    {
      "inputs": [],
      "name": "groupHealth",
      "outputs": [
        {
          "internalType": "contract IGroupHealth",
          "name": "",
          "type": "address"
        }
      ],
      "stateMutability": "view",
      "type": "function"
    },
    {
      "inputs": [
        {
          "internalType": "address",
          "name": "_registry",
          "type": "address"
        },
        {
          "internalType": "address",
          "name": "_owner",
          "type": "address"
        }
      ],
      "name": "initialize",
      "outputs": [],
      "stateMutability": "nonpayable",
      "type": "function"
    },
    {
      "inputs": [],
      "name": "isPaused",
      "outputs": [
        {
          "internalType": "bool",
          "name": "",
          "type": "bool"
        }
      ],
      "stateMutability": "view",
      "type": "function"
    },
    {
      "inputs": [],
      "name": "owner",
      "outputs": [
        {
          "internalType": "address",
          "name": "",
          "type": "address"
        }
      ],
      "stateMutability": "view",
      "type": "function"
    },
    {
      "inputs": [],
      "name": "pause",
      "outputs": [],
      "stateMutability": "nonpayable",
      "type": "function"
    },
    {
      "inputs": [],
      "name": "pauser",
      "outputs": [
        {
          "internalType": "address",
          "name": "",
          "type": "address"
        }
      ],
      "stateMutability": "view",
      "type": "function"
    },
    {
      "inputs": [
        {
          "internalType": "address",
          "name": "fromGroup",
          "type": "address"
        },
        {
          "internalType": "address",
          "name": "toGroup",
          "type": "address"
        }
      ],
      "name": "rebalance",
      "outputs": [],
      "stateMutability": "nonpayable",
      "type": "function"
    },
    {
      "inputs": [
        {
          "internalType": "address",
          "name": "fromGroup",
          "type": "address"
        },
        {
          "internalType": "address",
          "name": "toGroup",
          "type": "address"
        }
      ],
      "name": "rebalanceOverflow",
      "outputs": [],
      "stateMutability": "nonpayable",
      "type": "function"
    },
    {
      "inputs": [],
      "name": "registry",
      "outputs": [
        {
          "internalType": "contract IRegistry",
          "name": "",
          "type": "address"
        }
      ],
      "stateMutability": "view",
      "type": "function"
    },
    {
      "inputs": [],
      "name": "renounceOwnership",
      "outputs": [],
      "stateMutability": "nonpayable",
      "type": "function"
    },
    {
      "inputs": [
        {
          "internalType": "uint256",
          "name": "proposalId",
          "type": "uint256"
        },
        {
          "internalType": "uint256",
          "name": "index",
          "type": "uint256"
        }
      ],
      "name": "revokeVotes",
      "outputs": [],
      "stateMutability": "nonpayable",
      "type": "function"
    },
    {
      "inputs": [
        {
          "internalType": "address[]",
          "name": "fromGroups",
          "type": "address[]"
        },
        {
          "internalType": "address[]",
          "name": "toGroups",
          "type": "address[]"
        },
        {
          "internalType": "uint256[]",
          "name": "fromVotes",
          "type": "uint256[]"
        },
        {
          "internalType": "uint256[]",
          "name": "toVotes",
          "type": "uint256[]"
        }
      ],
      "name": "scheduleTransferWithinStrategy",
      "outputs": [],
      "stateMutability": "nonpayable",
      "type": "function"
    },
    {
      "inputs": [
        {
          "internalType": "address",
          "name": "_stakedCelo",
          "type": "address"
        },
        {
          "internalType": "address",
          "name": "_account",
          "type": "address"
        },
        {
          "internalType": "address",
          "name": "_vote",
          "type": "address"
        },
        {
          "internalType": "address",
          "name": "_groupHealth",
          "type": "address"
        },
        {
          "internalType": "address",
          "name": "_specificGroupStrategy",
          "type": "address"
        },
        {
          "internalType": "address",
          "name": "_defaultStrategy",
          "type": "address"
        }
      ],
      "name": "setDependencies",
      "outputs": [],
      "stateMutability": "nonpayable",
      "type": "function"
    },
    {
      "inputs": [],
      "name": "setPauser",
      "outputs": [],
      "stateMutability": "nonpayable",
      "type": "function"
    },
    {
      "inputs": [],
      "name": "specificGroupStrategy",
      "outputs": [
        {
          "internalType": "contract ISpecificGroupStrategy",
          "name": "",
          "type": "address"
        }
      ],
      "stateMutability": "view",
      "type": "function"
    },
    {
      "inputs": [
        {
          "internalType": "address",
          "name": "",
          "type": "address"
        }
      ],
      "name": "strategies",
      "outputs": [
        {
          "internalType": "address",
          "name": "",
          "type": "address"
        }
      ],
      "stateMutability": "view",
      "type": "function"
    },
    {
      "inputs": [
        {
          "internalType": "uint256",
          "name": "stCeloAmount",
          "type": "uint256"
        }
      ],
      "name": "toCelo",
      "outputs": [
        {
          "internalType": "uint256",
          "name": "",
          "type": "uint256"
        }
      ],
      "stateMutability": "view",
      "type": "function"
    },
    {
      "inputs": [
        {
          "internalType": "uint256",
          "name": "celoAmount",
          "type": "uint256"
        }
      ],
      "name": "toStakedCelo",
      "outputs": [
        {
          "internalType": "uint256",
          "name": "",
          "type": "uint256"
        }
      ],
      "stateMutability": "view",
      "type": "function"
    },
    {
      "inputs": [
        {
          "internalType": "address",
          "name": "from",
          "type": "address"
        },
        {
          "internalType": "address",
          "name": "to",
          "type": "address"
        },
        {
          "internalType": "uint256",
          "name": "stCeloAmount",
          "type": "uint256"
        }
      ],
      "name": "transfer",
      "outputs": [],
      "stateMutability": "nonpayable",
      "type": "function"
    },
    {
      "inputs": [
        {
          "internalType": "address",
          "name": "newOwner",
          "type": "address"
        }
      ],
      "name": "transferOwnership",
      "outputs": [],
      "stateMutability": "nonpayable",
      "type": "function"
    },
    {
      "inputs": [
        {
          "internalType": "address",
          "name": "accountAddress",
          "type": "address"
        }
      ],
      "name": "unlockBalance",
      "outputs": [],
      "stateMutability": "nonpayable",
      "type": "function"
    },
    {
      "inputs": [],
      "name": "unpause",
      "outputs": [],
      "stateMutability": "nonpayable",
      "type": "function"
    },
    {
      "inputs": [
        {
          "internalType": "address",
          "name": "beneficiary",
          "type": "address"
        }
      ],
      "name": "updateHistoryAndReturnLockedStCeloInVoting",
      "outputs": [
        {
          "internalType": "uint256",
          "name": "",
          "type": "uint256"
        }
      ],
      "stateMutability": "nonpayable",
      "type": "function"
    },
    {
      "inputs": [
        {
          "internalType": "address",
          "name": "newImplementation",
          "type": "address"
        }
      ],
      "name": "upgradeTo",
      "outputs": [],
      "stateMutability": "nonpayable",
      "type": "function"
    },
    {
      "inputs": [
        {
          "internalType": "address",
          "name": "newImplementation",
          "type": "address"
        },
        {
          "internalType": "bytes",
          "name": "data",
          "type": "bytes"
        }
      ],
      "name": "upgradeToAndCall",
      "outputs": [],
      "stateMutability": "payable",
      "type": "function"
    },
    {
      "inputs": [],
      "name": "voteContract",
      "outputs": [
        {
          "internalType": "address",
          "name": "",
          "type": "address"
        }
      ],
      "stateMutability": "view",
      "type": "function"
    },
    {
      "inputs": [
        {
          "internalType": "uint256",
          "name": "proposalId",
          "type": "uint256"
        },
        {
          "internalType": "uint256",
          "name": "index",
          "type": "uint256"
        },
        {
          "internalType": "uint256",
          "name": "yesVotes",
          "type": "uint256"
        },
        {
          "internalType": "uint256",
          "name": "noVotes",
          "type": "uint256"
        },
        {
          "internalType": "uint256",
          "name": "abstainVotes",
          "type": "uint256"
        }
      ],
      "name": "voteProposal",
      "outputs": [],
      "stateMutability": "nonpayable",
      "type": "function"
    },
    {
      "inputs": [
        {
          "internalType": "uint256",
          "name": "stCeloAmount",
          "type": "uint256"
        }
      ],
      "name": "withdraw",
      "outputs": [],
      "stateMutability": "nonpayable",
      "type": "function"
    }
  ],
  "transactionHash": "0x6e9749eecf50e625a4c5ffb9b358d038e9018b61d8c8763b7c983592b372bb6d",
  "args": [],
  "numDeployments": 3,
  "solcInputHash": "bc5d8aac7d0c7b5a1cef2b494d304103",
  "bytecode": "0x60a06040523073ffffffffffffffffffffffffffffffffffffffff1660809073ffffffffffffffffffffffffffffffffffffffff168152503480156200004457600080fd5b50600060019054906101000a900460ff166200006f5760008054906101000a900460ff161562000080565b6200007f6200013c60201b60201c565b5b620000c2576040517f08c379a0000000000000000000000000000000000000000000000000000000008152600401620000b99062000204565b60405180910390fd5b60008060019054906101000a900460ff16159050801562000113576001600060016101000a81548160ff02191690831515021790555060016000806101000a81548160ff0219169083151502179055505b8015620001355760008060016101000a81548160ff0219169083151502179055505b5062000226565b600062000154306200015a60201b620038181760201c565b15905090565b6000808273ffffffffffffffffffffffffffffffffffffffff163b119050919050565b600082825260208201905092915050565b7f496e697469616c697a61626c653a20636f6e747261637420697320616c72656160008201527f647920696e697469616c697a6564000000000000000000000000000000000000602082015250565b6000620001ec602e836200017d565b9150620001f9826200018e565b604082019050919050565b600060208201905081810360008301526200021f81620001dd565b9050919050565b60805161632f620002576000396000818161127d0152818161130c015281816118ee015261197d015261632f6000f3fe60806040526004361061021a5760003560e01c80637c0d530f11610123578063b187bd26116100ab578063cf009f7a1161006f578063cf009f7a1461078a578063d0e30db0146107b5578063ee183c4a146107bf578063f2fde38b146107ea578063fac5bb9b146108135761021a565b8063b187bd26146106a7578063bc4d3bb3146106d2578063beabacc8146106fb578063c494ec1e14610724578063ce7a60ab146107615761021a565b80639468ba0e116100f25780639468ba0e146105bf5780639fd0506d146105ea578063a0fefe2514610615578063a3f16ef114610653578063b0ef81de1461067e5761021a565b80637c0d530f1461053d5780637e72dd66146105545780638456cb591461057d5780638da5cb5b146105945761021a565b8063485cc955116101a657806354255be01161017557806354255be01461047b5780636fe958d8146104a9578063715018a6146104d25780637a9024bd146104e95780637b103999146105125761021a565b8063485cc955146103bc57806348fd6ea6146103e55780634e4e5efb146104225780634f1ef2861461045f5761021a565b80632e1a7d4d116101ed5780632e1a7d4d146102eb5780633659cfe61461031457806339ebf8231461033d5780633cbf58721461037a5780633f4ba83a146103a55761021a565b80630567847f1461021f5780630c4d4e401461025c578063114e6b37146102855780632c431058146102ae575b600080fd5b34801561022b57600080fd5b50610246600480360381019061024191906149b2565b61083e565b60405161025391906149ee565b60405180910390f35b34801561026857600080fd5b50610283600480360381019061027e9190614ac4565b6109a8565b005b34801561029157600080fd5b506102ac60048036038101906102a79190614c0b565b610b3b565b005b3480156102ba57600080fd5b506102d560048036038101906102d09190614c98565b610f02565b6040516102e291906149ee565b60405180910390f35b3480156102f757600080fd5b50610312600480360381019061030d91906149b2565b6110a5565b005b34801561032057600080fd5b5061033b60048036038101906103369190614c98565b61127b565b005b34801561034957600080fd5b50610364600480360381019061035f9190614c98565b611404565b6040516103719190614cd4565b60405180910390f35b34801561038657600080fd5b5061038f611437565b60405161039c9190614d08565b60405180910390f35b3480156103b157600080fd5b506103ba61146d565b005b3480156103c857600080fd5b506103e360048036038101906103de9190614d23565b611511565b005b3480156103f157600080fd5b5061040c60048036038101906104079190614c98565b611609565b60405161041991906149ee565b60405180910390f35b34801561042e57600080fd5b5061044960048036038101906104449190614c98565b6116f5565b6040516104569190614cd4565b60405180910390f35b61047960048036038101906104749190614ea4565b6118ec565b005b34801561048757600080fd5b50610490611a29565b6040516104a09493929190614f00565b60405180910390f35b3480156104b557600080fd5b506104d060048036038101906104cb9190614d23565b611a45565b005b3480156104de57600080fd5b506104e7611d4c565b005b3480156104f557600080fd5b50610510600480360381019061050b9190614c98565b611dd4565b005b34801561051e57600080fd5b506105276121a6565b6040516105349190614fa4565b60405180910390f35b34801561054957600080fd5b506105526121cc565b005b34801561056057600080fd5b5061057b60048036038101906105769190614d23565b61225a565b005b34801561058957600080fd5b50610592612664565b005b3480156105a057600080fd5b506105a9612708565b6040516105b69190614cd4565b60405180910390f35b3480156105cb57600080fd5b506105d4612732565b6040516105e19190614d08565b60405180910390f35b3480156105f657600080fd5b506105ff612768565b60405161060c9190614cd4565b60405180910390f35b34801561062157600080fd5b5061063c60048036038101906106379190614c98565b6127ae565b60405161064a929190614fbf565b60405180910390f35b34801561065f57600080fd5b50610668612d53565b6040516106759190615009565b60405180910390f35b34801561068a57600080fd5b506106a560048036038101906106a09190615024565b612d79565b005b3480156106b357600080fd5b506106bc612f05565b6040516106c9919061507f565b60405180910390f35b3480156106de57600080fd5b506106f960048036038101906106f4919061509a565b612f4b565b005b34801561070757600080fd5b50610722600480360381019061071d9190615115565b613173565b005b34801561073057600080fd5b5061074b600480360381019061074691906149b2565b6132d3565b60405161075891906149ee565b60405180910390f35b34801561076d57600080fd5b5061078860048036038101906107839190614c98565b61343d565b005b34801561079657600080fd5b5061079f6134cd565b6040516107ac9190615189565b60405180910390f35b6107bd6134f3565b005b3480156107cb57600080fd5b506107d46136d4565b6040516107e19190614cd4565b60405180910390f35b3480156107f657600080fd5b50610811600480360381019061080c9190614c98565b6136fa565b005b34801561081f57600080fd5b506108286137f2565b60405161083591906151c5565b60405180910390f35b600080606660009054906101000a900473ffffffffffffffffffffffffffffffffffffffff1673ffffffffffffffffffffffffffffffffffffffff166318160ddd6040518163ffffffff1660e01b8152600401602060405180830381865afa1580156108ae573d6000803e3d6000fd5b505050506040513d601f19601f820116820180604052508101906108d291906151f5565b90506000606760009054906101000a900473ffffffffffffffffffffffffffffffffffffffff1673ffffffffffffffffffffffffffffffffffffffff166301d2b6ea6040518163ffffffff1660e01b8152600401602060405180830381865afa158015610943573d6000803e3d6000fd5b505050506040513d601f19601f8201168201806040525081019061096791906151f5565b905060008214806109785750600081145b156109875783925050506109a3565b8181856109949190615251565b61099e91906152da565b925050505b919050565b3373ffffffffffffffffffffffffffffffffffffffff16606f60009054906101000a900473ffffffffffffffffffffffffffffffffffffffff1673ffffffffffffffffffffffffffffffffffffffff1614158015610a5457503373ffffffffffffffffffffffffffffffffffffffff16606e60009054906101000a900473ffffffffffffffffffffffffffffffffffffffff1673ffffffffffffffffffffffffffffffffffffffff1614155b15610a9657336040517ff7eb25ef000000000000000000000000000000000000000000000000000000008152600401610a8d9190614cd4565b60405180910390fd5b606760009054906101000a900473ffffffffffffffffffffffffffffffffffffffff1673ffffffffffffffffffffffffffffffffffffffff1663f380ade3898987878b8b89896040518963ffffffff1660e01b8152600401610aff989796959493929190615440565b600060405180830381600087803b158015610b1957600080fd5b505af1158015610b2d573d6000803e3d6000fd5b505050505050505050505050565b610b4361383b565b73ffffffffffffffffffffffffffffffffffffffff16610b61612708565b73ffffffffffffffffffffffffffffffffffffffff1614610bb7576040517f08c379a0000000000000000000000000000000000000000000000000000000008152600401610bae90615506565b60405180910390fd5b600073ffffffffffffffffffffffffffffffffffffffff168673ffffffffffffffffffffffffffffffffffffffff161480610c1e5750600073ffffffffffffffffffffffffffffffffffffffff168573ffffffffffffffffffffffffffffffffffffffff16145b80610c555750600073ffffffffffffffffffffffffffffffffffffffff168473ffffffffffffffffffffffffffffffffffffffff16145b80610c8c5750600073ffffffffffffffffffffffffffffffffffffffff168373ffffffffffffffffffffffffffffffffffffffff16145b80610cc35750600073ffffffffffffffffffffffffffffffffffffffff168273ffffffffffffffffffffffffffffffffffffffff16145b80610cfa5750600073ffffffffffffffffffffffffffffffffffffffff168173ffffffffffffffffffffffffffffffffffffffff16145b15610d31576040517f0855380c00000000000000000000000000000000000000000000000000000000815260040160405180910390fd5b85606660006101000a81548173ffffffffffffffffffffffffffffffffffffffff021916908373ffffffffffffffffffffffffffffffffffffffff16021790555084606760006101000a81548173ffffffffffffffffffffffffffffffffffffffff021916908373ffffffffffffffffffffffffffffffffffffffff16021790555083606c60006101000a81548173ffffffffffffffffffffffffffffffffffffffff021916908373ffffffffffffffffffffffffffffffffffffffff16021790555082606d60006101000a81548173ffffffffffffffffffffffffffffffffffffffff021916908373ffffffffffffffffffffffffffffffffffffffff16021790555081606e60006101000a81548173ffffffffffffffffffffffffffffffffffffffff021916908373ffffffffffffffffffffffffffffffffffffffff16021790555080606f60006101000a81548173ffffffffffffffffffffffffffffffffffffffff021916908373ffffffffffffffffffffffffffffffffffffffff1602179055508373ffffffffffffffffffffffffffffffffffffffff167f77001ab3bb5b4e91a2a4021cec272d6505154d5ff1fb2e8426752b15bd8ef16d60405160405180910390a2505050505050565b600080610f0e83613843565b90506000811415610f235760009150506110a0565b6000610f2d613977565b73ffffffffffffffffffffffffffffffffffffffff16633861727285606760009054906101000a900473ffffffffffffffffffffffffffffffffffffffff166040518363ffffffff1660e01b8152600401610f89929190615526565b602060405180830381865afa158015610fa6573d6000803e3d6000fd5b505050506040513d601f19601f82011682018060405250810190610fca91906151f5565b90506000606760009054906101000a900473ffffffffffffffffffffffffffffffffffffffff1673ffffffffffffffffffffffffffffffffffffffff1663acd201d0866040518263ffffffff1660e01b81526004016110299190614cd4565b602060405180830381865afa158015611046573d6000803e3d6000fd5b505050506040513d601f19601f8201168201806040525081019061106a91906151f5565b90508183611078919061554f565b92508083101561108e57600093505050506110a0565b808361109a91906155a5565b93505050505b919050565b6110ad612f05565b156110e4576040517f9e87fac800000000000000000000000000000000000000000000000000000000815260040160405180910390fd5b60008061115283607060003373ffffffffffffffffffffffffffffffffffffffff1673ffffffffffffffffffffffffffffffffffffffff16815260200190815260200160002060009054906101000a900473ffffffffffffffffffffffffffffffffffffffff166000613a3e565b91509150606760009054906101000a900473ffffffffffffffffffffffffffffffffffffffff1673ffffffffffffffffffffffffffffffffffffffff16632f842a1a3384846040518463ffffffff1660e01b81526004016111b59392919061570c565b600060405180830381600087803b1580156111cf57600080fd5b505af11580156111e3573d6000803e3d6000fd5b50505050606660009054906101000a900473ffffffffffffffffffffffffffffffffffffffff1673ffffffffffffffffffffffffffffffffffffffff16639dc29fac33856040518363ffffffff1660e01b8152600401611244929190615751565b600060405180830381600087803b15801561125e57600080fd5b505af1158015611272573d6000803e3d6000fd5b50505050505050565b7f000000000000000000000000000000000000000000000000000000000000000073ffffffffffffffffffffffffffffffffffffffff163073ffffffffffffffffffffffffffffffffffffffff16141561130a576040517f08c379a0000000000000000000000000000000000000000000000000000000008152600401611301906157ec565b60405180910390fd5b7f000000000000000000000000000000000000000000000000000000000000000073ffffffffffffffffffffffffffffffffffffffff16611349613c33565b73ffffffffffffffffffffffffffffffffffffffff161461139f576040517f08c379a00000000000000000000000000000000000000000000000000000000081526004016113969061587e565b60405180910390fd5b6113a881613c8a565b61140181600067ffffffffffffffff8111156113c7576113c6614d79565b5b6040519080825280601f01601f1916602001820160405280156113f95781602001600182028036833780820191505090505b506000613d09565b50565b60706020528060005260406000206000915054906101000a900473ffffffffffffffffffffffffffffffffffffffff1681565b60017f8f989356aeb576065c8d201815b96ac9c10cf89197a532e428ebd68581557c2360001c61146791906155a5565b60001b81565b611475612768565b73ffffffffffffffffffffffffffffffffffffffff163373ffffffffffffffffffffffffffffffffffffffff16146114d9576040517f75df51dc00000000000000000000000000000000000000000000000000000000815260040160405180910390fd5b6114e36000613eda565b7f0e5e3b3fb504c22cf5c42fa07d521225937514c654007e1f12646f89768d6f9460405160405180910390a1565b600060019054906101000a900460ff166115395760008054906101000a900460ff1615611542565b611541613f18565b5b611581576040517f08c379a000000000000000000000000000000000000000000000000000000000815260040161157890615910565b60405180910390fd5b60008060019054906101000a900460ff1615905080156115d1576001600060016101000a81548160ff02191690831515021790555060016000806101000a81548160ff0219169083151502179055505b6115da82613f29565b6115e383613fef565b80156116045760008060016101000a81548160ff0219169083151502179055505b505050565b6000611613612f05565b1561164a576040517f9e87fac800000000000000000000000000000000000000000000000000000000815260040160405180910390fd5b6000606c60009054906101000a900473ffffffffffffffffffffffffffffffffffffffff1690508073ffffffffffffffffffffffffffffffffffffffff166348fd6ea6846040518263ffffffff1660e01b81526004016116aa9190614cd4565b6020604051808303816000875af11580156116c9573d6000803e3d6000fd5b505050506040513d601f19601f820116820180604052508101906116ed91906151f5565b915050919050565b600080607060008473ffffffffffffffffffffffffffffffffffffffff1673ffffffffffffffffffffffffffffffffffffffff16815260200190815260200160002060009054906101000a900473ffffffffffffffffffffffffffffffffffffffff169050600073ffffffffffffffffffffffffffffffffffffffff168173ffffffffffffffffffffffffffffffffffffffff16141580156118d35750606e60009054906101000a900473ffffffffffffffffffffffffffffffffffffffff1673ffffffffffffffffffffffffffffffffffffffff1663cc222f8d826040518263ffffffff1660e01b81526004016117ed9190614cd4565b602060405180830381865afa15801561180a573d6000803e3d6000fd5b505050506040513d601f19601f8201168201806040525081019061182e919061595c565b806118d25750606d60009054906101000a900473ffffffffffffffffffffffffffffffffffffffff1673ffffffffffffffffffffffffffffffffffffffff1663ac8f4425826040518263ffffffff1660e01b815260040161188f9190614cd4565b602060405180830381865afa1580156118ac573d6000803e3d6000fd5b505050506040513d601f19601f820116820180604052508101906118d0919061595c565b155b5b156118e25760009150506118e7565b809150505b919050565b7f000000000000000000000000000000000000000000000000000000000000000073ffffffffffffffffffffffffffffffffffffffff163073ffffffffffffffffffffffffffffffffffffffff16141561197b576040517f08c379a0000000000000000000000000000000000000000000000000000000008152600401611972906157ec565b60405180910390fd5b7f000000000000000000000000000000000000000000000000000000000000000073ffffffffffffffffffffffffffffffffffffffff166119ba613c33565b73ffffffffffffffffffffffffffffffffffffffff1614611a10576040517f08c379a0000000000000000000000000000000000000000000000000000000008152600401611a079061587e565b60405180910390fd5b611a1982613c8a565b611a2582826001613d09565b5050565b6000806000806001600360016000935093509350935090919293565b611a4d612f05565b15611a84576040517f9e87fac800000000000000000000000000000000000000000000000000000000815260040160405180910390fd5b606f60009054906101000a900473ffffffffffffffffffffffffffffffffffffffff1673ffffffffffffffffffffffffffffffffffffffff16639f8a13d7826040518263ffffffff1660e01b8152600401611adf9190614cd4565b602060405180830381865afa158015611afc573d6000803e3d6000fd5b505050506040513d601f19601f82011682018060405250810190611b20919061595c565b158015611bc55750606e60009054906101000a900473ffffffffffffffffffffffffffffffffffffffff1673ffffffffffffffffffffffffffffffffffffffff1663cc222f8d826040518263ffffffff1660e01b8152600401611b839190614cd4565b602060405180830381865afa158015611ba0573d6000803e3d6000fd5b505050506040513d601f19601f82011682018060405250810190611bc4919061595c565b5b15611c0757806040517f5a081584000000000000000000000000000000000000000000000000000000008152600401611bfe9190614cd4565b60405180910390fd5b600080611c13846127ae565b91509150818111611c5f578381836040517f2c4f8ec8000000000000000000000000000000000000000000000000000000008152600401611c5693929190615989565b60405180910390fd5b600080611c6b856127ae565b91509150818110611cb7578481836040517fb0006ace000000000000000000000000000000000000000000000000000000008152600401611cae93929190615989565b60405180910390fd5b6000611cc286610f02565b90506000811415611d0a57856040517fb9183a08000000000000000000000000000000000000000000000000000000008152600401611d019190614cd4565b60405180910390fd5b6000611d35611d2f8787611d1e91906155a5565b8587611d2a91906155a5565b614100565b83614100565b9050611d42888883614119565b5050505050505050565b611d5461383b565b73ffffffffffffffffffffffffffffffffffffffff16611d72612708565b73ffffffffffffffffffffffffffffffffffffffff1614611dc8576040517f08c379a0000000000000000000000000000000000000000000000000000000008152600401611dbf90615506565b60405180910390fd5b611dd26000613f29565b565b611ddc612f05565b15611e13576040517f9e87fac800000000000000000000000000000000000000000000000000000000815260040160405180910390fd5b600073ffffffffffffffffffffffffffffffffffffffff168173ffffffffffffffffffffffffffffffffffffffff1614158015611f8c5750606e60009054906101000a900473ffffffffffffffffffffffffffffffffffffffff1673ffffffffffffffffffffffffffffffffffffffff1663cc222f8d826040518263ffffffff1660e01b8152600401611ea69190614cd4565b602060405180830381865afa158015611ec3573d6000803e3d6000fd5b505050506040513d601f19601f82011682018060405250810190611ee7919061595c565b80611f8b5750606d60009054906101000a900473ffffffffffffffffffffffffffffffffffffffff1673ffffffffffffffffffffffffffffffffffffffff1663ac8f4425826040518263ffffffff1660e01b8152600401611f489190614cd4565b602060405180830381865afa158015611f65573d6000803e3d6000fd5b505050506040513d601f19601f82011682018060405250810190611f89919061595c565b155b5b15611fce57806040517f10a7bc6b000000000000000000000000000000000000000000000000000000008152600401611fc59190614cd4565b60405180910390fd5b6000606660009054906101000a900473ffffffffffffffffffffffffffffffffffffffff1673ffffffffffffffffffffffffffffffffffffffff166370a08231336040518263ffffffff1660e01b815260040161202b9190614cd4565b602060405180830381865afa158015612048573d6000803e3d6000fd5b505050506040513d601f19601f8201168201806040525081019061206c91906151f5565b9050600081146120e1576120e0607060003373ffffffffffffffffffffffffffffffffffffffff1673ffffffffffffffffffffffffffffffffffffffff16815260200190815260200160002060009054906101000a900473ffffffffffffffffffffffffffffffffffffffff1683836143e8565b5b81607060003373ffffffffffffffffffffffffffffffffffffffff1673ffffffffffffffffffffffffffffffffffffffff16815260200190815260200160002060006101000a81548173ffffffffffffffffffffffffffffffffffffffff021916908373ffffffffffffffffffffffffffffffffffffffff1602179055508173ffffffffffffffffffffffffffffffffffffffff167fafd1cdc355e15bfc9038294be1c6203ce953704fda8c991bebe78ddd4d5420d160405160405180910390a25050565b606560009054906101000a900473ffffffffffffffffffffffffffffffffffffffff1681565b6121d461383b565b73ffffffffffffffffffffffffffffffffffffffff166121f2612708565b73ffffffffffffffffffffffffffffffffffffffff1614612248576040517f08c379a000000000000000000000000000000000000000000000000000000000815260040161223f90615506565b60405180910390fd5b612258612253612708565b614432565b565b612262612f05565b15612299576040517f9e87fac800000000000000000000000000000000000000000000000000000000815260040160405180910390fd5b606f60009054906101000a900473ffffffffffffffffffffffffffffffffffffffff1673ffffffffffffffffffffffffffffffffffffffff16639f8a13d7826040518263ffffffff1660e01b81526004016122f49190614cd4565b602060405180830381865afa158015612311573d6000803e3d6000fd5b505050506040513d601f19601f82011682018060405250810190612335919061595c565b61237657806040517f5a08158400000000000000000000000000000000000000000000000000000000815260040161236d9190614cd4565b60405180910390fd5b600061238183613843565b90506000606760009054906101000a900473ffffffffffffffffffffffffffffffffffffffff1673ffffffffffffffffffffffffffffffffffffffff1663b09bdc5e856040518263ffffffff1660e01b81526004016123e09190614cd4565b602060405180830381865afa1580156123fd573d6000803e3d6000fd5b505050506040513d601f19601f8201168201806040525081019061242191906151f5565b606760009054906101000a900473ffffffffffffffffffffffffffffffffffffffff1673ffffffffffffffffffffffffffffffffffffffff166322e59bd4866040518263ffffffff1660e01b815260040161247c9190614cd4565b602060405180830381865afa158015612499573d6000803e3d6000fd5b505050506040513d601f19601f820116820180604052508101906124bd91906151f5565b6124c7919061554f565b90506000606760009054906101000a900473ffffffffffffffffffffffffffffffffffffffff1673ffffffffffffffffffffffffffffffffffffffff16635fd5c95e866040518263ffffffff1660e01b81526004016125269190614cd4565b602060405180830381865afa158015612543573d6000803e3d6000fd5b505050506040513d601f19601f8201168201806040525081019061256791906151f5565b90506000828211612579576000612586565b828261258591906155a5565b5b905060008482116125985760006125a5565b84826125a491906155a5565b5b905060008114156125ed57866040517f1eeadf530000000000000000000000000000000000000000000000000000000081526004016125e49190614cd4565b60405180910390fd5b60006125f887610f02565b9050600081141561264057866040517fb9183a080000000000000000000000000000000000000000000000000000000081526004016126379190614cd4565b60405180910390fd5b600061264c8383614100565b9050612659898983614119565b505050505050505050565b61266c612768565b73ffffffffffffffffffffffffffffffffffffffff163373ffffffffffffffffffffffffffffffffffffffff16146126d0576040517f75df51dc00000000000000000000000000000000000000000000000000000000815260040160405180910390fd5b6126da6001613eda565b7fab35696f06e428ebc5ceba8cd17f8fed287baf43440206d1943af1ee53e6d26760405160405180910390a1565b6000603360009054906101000a900473ffffffffffffffffffffffffffffffffffffffff16905090565b60017f29f060ba1cf8d3659516b02281c85dcc3e81b4287766ae4751c0f500688be30f60001c61276291906155a5565b60001b81565b600080600060017f29f060ba1cf8d3659516b02281c85dcc3e81b4287766ae4751c0f500688be30f60001c61279d91906155a5565b60001b905080549150819250505090565b6000806000606760009054906101000a900473ffffffffffffffffffffffffffffffffffffffff1673ffffffffffffffffffffffffffffffffffffffff16635fd5c95e856040518263ffffffff1660e01b815260040161280e9190614cd4565b602060405180830381865afa15801561282b573d6000803e3d6000fd5b505050506040513d601f19601f8201168201806040525081019061284f91906151f5565b606760009054906101000a900473ffffffffffffffffffffffffffffffffffffffff1673ffffffffffffffffffffffffffffffffffffffff1663f8171927866040518263ffffffff1660e01b81526004016128aa9190614cd4565b602060405180830381865afa1580156128c7573d6000803e3d6000fd5b505050506040513d601f19601f820116820180604052508101906128eb91906151f5565b6128f5919061554f565b90506000606760009054906101000a900473ffffffffffffffffffffffffffffffffffffffff1673ffffffffffffffffffffffffffffffffffffffff1663b09bdc5e866040518263ffffffff1660e01b81526004016129549190614cd4565b602060405180830381865afa158015612971573d6000803e3d6000fd5b505050506040513d601f19601f8201168201806040525081019061299591906151f5565b606760009054906101000a900473ffffffffffffffffffffffffffffffffffffffff1673ffffffffffffffffffffffffffffffffffffffff166322e59bd4876040518263ffffffff1660e01b81526004016129f09190614cd4565b602060405180830381865afa158015612a0d573d6000803e3d6000fd5b505050506040513d601f19601f82011682018060405250810190612a3191906151f5565b612a3b919061554f565b905081811115612a5e578181612a5191906155a5565b6000935093505050612d4e565b8082612a6a91906155a5565b92506000606e60009054906101000a900473ffffffffffffffffffffffffffffffffffffffff1673ffffffffffffffffffffffffffffffffffffffff1663cc222f8d876040518263ffffffff1660e01b8152600401612ac99190614cd4565b602060405180830381865afa158015612ae6573d6000803e3d6000fd5b505050506040513d601f19601f82011682018060405250810190612b0a919061595c565b1590506000606f60009054906101000a900473ffffffffffffffffffffffffffffffffffffffff1673ffffffffffffffffffffffffffffffffffffffff16639f8a13d7886040518263ffffffff1660e01b8152600401612b6a9190614cd4565b602060405180830381865afa158015612b87573d6000803e3d6000fd5b505050506040513d601f19601f82011682018060405250810190612bab919061595c565b90506000808315612c8c57600080606e60009054906101000a900473ffffffffffffffffffffffffffffffffffffffff1673ffffffffffffffffffffffffffffffffffffffff166356ab819f8c6040518263ffffffff1660e01b8152600401612c149190614cd4565b606060405180830381865afa158015612c31573d6000803e3d6000fd5b505050506040513d601f19601f82011682018060405250810190612c5591906159c0565b80935081945082965050505060008183612c6f919061554f565b9050612c7b8582614100565b85612c8691906155a5565b94505050505b8215612d3157606f60009054906101000a900473ffffffffffffffffffffffffffffffffffffffff1673ffffffffffffffffffffffffffffffffffffffff166385a92cb78a6040518263ffffffff1660e01b8152600401612ced9190614cd4565b602060405180830381865afa158015612d0a573d6000803e3d6000fd5b505050506040513d601f19601f82011682018060405250810190612d2e91906151f5565b90505b612d458183612d40919061554f565b61083e565b97505050505050505b915091565b606d60009054906101000a900473ffffffffffffffffffffffffffffffffffffffff1681565b612d81612f05565b15612db8576040517f9e87fac800000000000000000000000000000000000000000000000000000000815260040160405180910390fd5b6000606c60009054906101000a900473ffffffffffffffffffffffffffffffffffffffff16905060008060008373ffffffffffffffffffffffffffffffffffffffff1663c40da15c33886040518363ffffffff1660e01b8152600401612e1f929190615751565b6060604051808303816000875af1158015612e3e573d6000803e3d6000fd5b505050506040513d601f19601f82011682018060405250810190612e6291906159c0565b925092509250606760009054906101000a900473ffffffffffffffffffffffffffffffffffffffff1673ffffffffffffffffffffffffffffffffffffffff16632edfd12e87878686866040518663ffffffff1660e01b8152600401612ecb959493929190615a13565b600060405180830381600087803b158015612ee557600080fd5b505af1158015612ef9573d6000803e3d6000fd5b50505050505050505050565b600080600060017f8f989356aeb576065c8d201815b96ac9c10cf89197a532e428ebd68581557c2360001c612f3a91906155a5565b60001b905080549150819250505090565b612f53612f05565b15612f8a576040517f9e87fac800000000000000000000000000000000000000000000000000000000815260040160405180910390fd5b6000606c60009054906101000a900473ffffffffffffffffffffffffffffffffffffffff1690506000806000808473ffffffffffffffffffffffffffffffffffffffff16634c23f22e338c8b8b8b6040518663ffffffff1660e01b8152600401612ff8959493929190615a66565b6080604051808303816000875af1158015613017573d6000803e3d6000fd5b505050506040513d601f19601f8201168201806040525081019061303b9190615ab9565b9350935093509350606660009054906101000a900473ffffffffffffffffffffffffffffffffffffffff1673ffffffffffffffffffffffffffffffffffffffff16639caa9e2933866040518363ffffffff1660e01b81526004016130a0929190615751565b600060405180830381600087803b1580156130ba57600080fd5b505af11580156130ce573d6000803e3d6000fd5b50505050606760009054906101000a900473ffffffffffffffffffffffffffffffffffffffff1673ffffffffffffffffffffffffffffffffffffffff16632edfd12e8b8b8686866040518663ffffffff1660e01b8152600401613135959493929190615a13565b600060405180830381600087803b15801561314f57600080fd5b505af1158015613163573d6000803e3d6000fd5b5050505050505050505050505050565b3373ffffffffffffffffffffffffffffffffffffffff16606660009054906101000a900473ffffffffffffffffffffffffffffffffffffffff1673ffffffffffffffffffffffffffffffffffffffff161461320557336040517f4a653c6a0000000000000000000000000000000000000000000000000000000081526004016131fc9190614cd4565b60405180910390fd5b6132ce607060008573ffffffffffffffffffffffffffffffffffffffff1673ffffffffffffffffffffffffffffffffffffffff16815260200190815260200160002060009054906101000a900473ffffffffffffffffffffffffffffffffffffffff16607060008573ffffffffffffffffffffffffffffffffffffffff1673ffffffffffffffffffffffffffffffffffffffff16815260200190815260200160002060009054906101000a900473ffffffffffffffffffffffffffffffffffffffff16836143e8565b505050565b600080606660009054906101000a900473ffffffffffffffffffffffffffffffffffffffff1673ffffffffffffffffffffffffffffffffffffffff166318160ddd6040518163ffffffff1660e01b8152600401602060405180830381865afa158015613343573d6000803e3d6000fd5b505050506040513d601f19601f8201168201806040525081019061336791906151f5565b90506000606760009054906101000a900473ffffffffffffffffffffffffffffffffffffffff1673ffffffffffffffffffffffffffffffffffffffff166301d2b6ea6040518163ffffffff1660e01b8152600401602060405180830381865afa1580156133d8573d6000803e3d6000fd5b505050506040513d601f19601f820116820180604052508101906133fc91906151f5565b9050600082148061340d5750600081145b1561341c578392505050613438565b8082856134299190615251565b61343391906152da565b925050505b919050565b606660009054906101000a900473ffffffffffffffffffffffffffffffffffffffff1673ffffffffffffffffffffffffffffffffffffffff1663e37d49b8826040518263ffffffff1660e01b81526004016134989190614cd4565b600060405180830381600087803b1580156134b257600080fd5b505af11580156134c6573d6000803e3d6000fd5b5050505050565b606e60009054906101000a900473ffffffffffffffffffffffffffffffffffffffff1681565b6134fb612f05565b15613532576040517f9e87fac800000000000000000000000000000000000000000000000000000000815260040160405180910390fd5b600061353d346132d3565b90506000806135ac3484607060003373ffffffffffffffffffffffffffffffffffffffff1673ffffffffffffffffffffffffffffffffffffffff16815260200190815260200160002060009054906101000a900473ffffffffffffffffffffffffffffffffffffffff1661450e565b91509150606660009054906101000a900473ffffffffffffffffffffffffffffffffffffffff1673ffffffffffffffffffffffffffffffffffffffff166340c10f1933856040518363ffffffff1660e01b815260040161360d929190615751565b600060405180830381600087803b15801561362757600080fd5b505af115801561363b573d6000803e3d6000fd5b50505050606760009054906101000a900473ffffffffffffffffffffffffffffffffffffffff1673ffffffffffffffffffffffffffffffffffffffff166301c21d593484846040518463ffffffff1660e01b815260040161369d929190615b20565b6000604051808303818588803b1580156136b657600080fd5b505af11580156136ca573d6000803e3d6000fd5b5050505050505050565b606c60009054906101000a900473ffffffffffffffffffffffffffffffffffffffff1681565b61370261383b565b73ffffffffffffffffffffffffffffffffffffffff16613720612708565b73ffffffffffffffffffffffffffffffffffffffff1614613776576040517f08c379a000000000000000000000000000000000000000000000000000000000815260040161376d90615506565b60405180910390fd5b600073ffffffffffffffffffffffffffffffffffffffff168173ffffffffffffffffffffffffffffffffffffffff1614156137e6576040517f08c379a00000000000000000000000000000000000000000000000000000000081526004016137dd90615bc9565b60405180910390fd5b6137ef81613f29565b50565b606f60009054906101000a900473ffffffffffffffffffffffffffffffffffffffff1681565b6000808273ffffffffffffffffffffffffffffffffffffffff163b119050919050565b600033905090565b60008061384e613977565b73ffffffffffffffffffffffffffffffffffffffff16632c3b7916846040518263ffffffff1660e01b81526004016138869190614cd4565b602060405180830381865afa1580156138a3573d6000803e3d6000fd5b505050506040513d601f19601f820116820180604052508101906138c791906151f5565b905060006138d3613977565b73ffffffffffffffffffffffffffffffffffffffff1663dedafeae856040518263ffffffff1660e01b815260040161390b9190614cd4565b602060405180830381865afa158015613928573d6000803e3d6000fd5b505050506040513d601f19601f8201168201806040525081019061394c91906151f5565b90508082101561396157600092505050613972565b808261396d91906155a5565b925050505b919050565b6000606560009054906101000a900473ffffffffffffffffffffffffffffffffffffffff1673ffffffffffffffffffffffffffffffffffffffff1663dcf0aaed6040516020016139c690615c40565b604051602081830303815290604052805190602001206040518263ffffffff1660e01b81526004016139f89190614d08565b602060405180830381865afa158015613a15573d6000803e3d6000fd5b505050506040513d601f19601f82011682018060405250810190613a399190615c6a565b905090565b6060806000613a4c8661083e565b90506000811415613a89576040517fc60050c000000000000000000000000000000000000000000000000000000000815260040160405180910390fd5b606080600073ffffffffffffffffffffffffffffffffffffffff168773ffffffffffffffffffffffffffffffffffffffff1614613b7657606e60009054906101000a900473ffffffffffffffffffffffffffffffffffffffff1673ffffffffffffffffffffffffffffffffffffffff16635c650b5f88858b8a6040518563ffffffff1660e01b8152600401613b219493929190615c97565b6000604051808303816000875af1158015613b40573d6000803e3d6000fd5b505050506040513d6000823e3d601f19601f82011682018060405250810190613b699190615e62565b8092508193505050613c22565b606f60009054906101000a900473ffffffffffffffffffffffffffffffffffffffff1673ffffffffffffffffffffffffffffffffffffffff166336691a41846040518263ffffffff1660e01b8152600401613bd191906149ee565b6000604051808303816000875af1158015613bf0573d6000803e3d6000fd5b505050506040513d6000823e3d601f19601f82011682018060405250810190613c199190615e62565b80925081935050505b818194509450505050935093915050565b6000613c617f360894a13ba1a3210667c828492db98dca3e2076cc3735a920a3ca505d382bbc60001b6146b0565b60000160009054906101000a900473ffffffffffffffffffffffffffffffffffffffff16905090565b613c9261383b565b73ffffffffffffffffffffffffffffffffffffffff16613cb0612708565b73ffffffffffffffffffffffffffffffffffffffff1614613d06576040517f08c379a0000000000000000000000000000000000000000000000000000000008152600401613cfd90615506565b60405180910390fd5b50565b6000613d13613c33565b9050613d1e846146ba565b600083511180613d2b5750815b15613d3c57613d3a8484614773565b505b6000613d6a7f4910fdfa16fed3260ed0e7147f7cc6da11a60208b5b9406d12a635614ffd914360001b6147a0565b90508060000160009054906101000a900460ff16613ed35760018160000160006101000a81548160ff021916908315150217905550613e368583604051602401613db49190614cd4565b6040516020818303038152906040527f3659cfe6000000000000000000000000000000000000000000000000000000007bffffffffffffffffffffffffffffffffffffffffffffffffffffffff19166020820180517bffffffffffffffffffffffffffffffffffffffffffffffffffffffff8381831617835250505050614773565b5060008160000160006101000a81548160ff021916908315150217905550613e5c613c33565b73ffffffffffffffffffffffffffffffffffffffff168273ffffffffffffffffffffffffffffffffffffffff1614613ec9576040517f08c379a0000000000000000000000000000000000000000000000000000000008152600401613ec090615f4c565b60405180910390fd5b613ed2856147aa565b5b5050505050565b600060017f8f989356aeb576065c8d201815b96ac9c10cf89197a532e428ebd68581557c2360001c613f0c91906155a5565b60001b90508181555050565b6000613f2330613818565b15905090565b6000603360009054906101000a900473ffffffffffffffffffffffffffffffffffffffff16905081603360006101000a81548173ffffffffffffffffffffffffffffffffffffffff021916908373ffffffffffffffffffffffffffffffffffffffff1602179055508173ffffffffffffffffffffffffffffffffffffffff168173ffffffffffffffffffffffffffffffffffffffff167f8be0079c531659141344cd1fd0a4f28419497f9722a3daafe3b4186f6b6457e060405160405180910390a35050565b600060019054906101000a900460ff1661403e576040517f08c379a000000000000000000000000000000000000000000000000000000000815260040161403590615fde565b60405180910390fd5b600073ffffffffffffffffffffffffffffffffffffffff168173ffffffffffffffffffffffffffffffffffffffff1614156140bb5761ce10606560006101000a81548173ffffffffffffffffffffffffffffffffffffffff021916908373ffffffffffffffffffffffffffffffffffffffff1602179055506140fd565b80606560006101000a81548173ffffffffffffffffffffffffffffffffffffffff021916908373ffffffffffffffffffffffffffffffffffffffff1602179055505b50565b600081831061410f5781614111565b825b905092915050565b6000600167ffffffffffffffff81111561413657614135614d79565b5b6040519080825280602002602001820160405280156141645781602001602082028036833780820191505090505b5090506000600167ffffffffffffffff81111561418457614183614d79565b5b6040519080825280602002602001820160405280156141b25781602001602082028036833780820191505090505b5090506000600167ffffffffffffffff8111156141d2576141d1614d79565b5b6040519080825280602002602001820160405280156142005781602001602082028036833780820191505090505b5090506000600167ffffffffffffffff8111156142205761421f614d79565b5b60405190808252806020026020018201604052801561424e5781602001602082028036833780820191505090505b509050868460008151811061426657614265615ffe565b5b602002602001019073ffffffffffffffffffffffffffffffffffffffff16908173ffffffffffffffffffffffffffffffffffffffff168152505084826000815181106142b5576142b4615ffe565b5b60200260200101818152505085836000815181106142d6576142d5615ffe565b5b602002602001019073ffffffffffffffffffffffffffffffffffffffff16908173ffffffffffffffffffffffffffffffffffffffff16815250508160008151811061432457614323615ffe565b5b6020026020010151816000815181106143405761433f615ffe565b5b602002602001018181525050606760009054906101000a900473ffffffffffffffffffffffffffffffffffffffff1673ffffffffffffffffffffffffffffffffffffffff1663f380ade3858486856040518563ffffffff1660e01b81526004016143ad949392919061602d565b600060405180830381600087803b1580156143c757600080fd5b505af11580156143db573d6000803e3d6000fd5b5050505050505050505050565b8173ffffffffffffffffffffffffffffffffffffffff168373ffffffffffffffffffffffffffffffffffffffff1614156144215761442d565b61442c8383836147f9565b5b505050565b600073ffffffffffffffffffffffffffffffffffffffff168173ffffffffffffffffffffffffffffffffffffffff161415614499576040517f0855380c00000000000000000000000000000000000000000000000000000000815260040160405180910390fd5b600060017f29f060ba1cf8d3659516b02281c85dcc3e81b4287766ae4751c0f500688be30f60001c6144cb91906155a5565b60001b90508181557fd11d57c2c7468878b1035df11c670bcd0091aa840bf8aa166365397622237bea826040516145029190614cd4565b60405180910390a15050565b606080600073ffffffffffffffffffffffffffffffffffffffff168373ffffffffffffffffffffffffffffffffffffffff16146145f957606e60009054906101000a900473ffffffffffffffffffffffffffffffffffffffff1673ffffffffffffffffffffffffffffffffffffffff1663cd1528588487876040518463ffffffff1660e01b81526004016145a493929190615989565b6000604051808303816000875af11580156145c3573d6000803e3d6000fd5b505050506040513d6000823e3d601f19601f820116820180604052508101906145ec9190615e62565b80925081935050506146a8565b606f60009054906101000a900473ffffffffffffffffffffffffffffffffffffffff1673ffffffffffffffffffffffffffffffffffffffff1663e0cd8d278660006040518363ffffffff1660e01b815260040161465792919061608e565b6000604051808303816000875af1158015614676573d6000803e3d6000fd5b505050506040513d6000823e3d601f19601f8201168201806040525081019061469f9190615e62565b80925081935050505b935093915050565b6000819050919050565b6146c381614821565b614702576040517f08c379a00000000000000000000000000000000000000000000000000000000081526004016146f990616129565b60405180910390fd5b8061472f7f360894a13ba1a3210667c828492db98dca3e2076cc3735a920a3ca505d382bbc60001b6146b0565b60000160006101000a81548173ffffffffffffffffffffffffffffffffffffffff021916908373ffffffffffffffffffffffffffffffffffffffff16021790555050565b606061479883836040518060600160405280602781526020016162d360279139614834565b905092915050565b6000819050919050565b6147b3816146ba565b8073ffffffffffffffffffffffffffffffffffffffff167fbc7cd75a20ee27fd9adebab32041f755214dbc6bffa90cc0225b39da2e5c2d3b60405160405180910390a250565b61480581846001613a3e565b505061481a6148138261083e565b828461450e565b5050505050565b600080823b905060008111915050919050565b606061483f84614821565b61487e576040517f08c379a0000000000000000000000000000000000000000000000000000000008152600401614875906161bb565b60405180910390fd5b6000808573ffffffffffffffffffffffffffffffffffffffff16856040516148a69190616255565b600060405180830381855af49150503d80600081146148e1576040519150601f19603f3d011682016040523d82523d6000602084013e6148e6565b606091505b50915091506148f6828286614901565b925050509392505050565b6060831561491157829050614961565b6000835111156149245782518084602001fd5b816040517f08c379a000000000000000000000000000000000000000000000000000000000815260040161495891906162b0565b60405180910390fd5b9392505050565b6000604051905090565b600080fd5b600080fd5b6000819050919050565b61498f8161497c565b811461499a57600080fd5b50565b6000813590506149ac81614986565b92915050565b6000602082840312156149c8576149c7614972565b5b60006149d68482850161499d565b91505092915050565b6149e88161497c565b82525050565b6000602082019050614a0360008301846149df565b92915050565b600080fd5b600080fd5b600080fd5b60008083601f840112614a2e57614a2d614a09565b5b8235905067ffffffffffffffff811115614a4b57614a4a614a0e565b5b602083019150836020820283011115614a6757614a66614a13565b5b9250929050565b60008083601f840112614a8457614a83614a09565b5b8235905067ffffffffffffffff811115614aa157614aa0614a0e565b5b602083019150836020820283011115614abd57614abc614a13565b5b9250929050565b6000806000806000806000806080898b031215614ae457614ae3614972565b5b600089013567ffffffffffffffff811115614b0257614b01614977565b5b614b0e8b828c01614a18565b9850985050602089013567ffffffffffffffff811115614b3157614b30614977565b5b614b3d8b828c01614a18565b9650965050604089013567ffffffffffffffff811115614b6057614b5f614977565b5b614b6c8b828c01614a6e565b9450945050606089013567ffffffffffffffff811115614b8f57614b8e614977565b5b614b9b8b828c01614a6e565b92509250509295985092959890939650565b600073ffffffffffffffffffffffffffffffffffffffff82169050919050565b6000614bd882614bad565b9050919050565b614be881614bcd565b8114614bf357600080fd5b50565b600081359050614c0581614bdf565b92915050565b60008060008060008060c08789031215614c2857614c27614972565b5b6000614c3689828a01614bf6565b9650506020614c4789828a01614bf6565b9550506040614c5889828a01614bf6565b9450506060614c6989828a01614bf6565b9350506080614c7a89828a01614bf6565b92505060a0614c8b89828a01614bf6565b9150509295509295509295565b600060208284031215614cae57614cad614972565b5b6000614cbc84828501614bf6565b91505092915050565b614cce81614bcd565b82525050565b6000602082019050614ce96000830184614cc5565b92915050565b6000819050919050565b614d0281614cef565b82525050565b6000602082019050614d1d6000830184614cf9565b92915050565b60008060408385031215614d3a57614d39614972565b5b6000614d4885828601614bf6565b9250506020614d5985828601614bf6565b9150509250929050565b600080fd5b6000601f19601f8301169050919050565b7f4e487b7100000000000000000000000000000000000000000000000000000000600052604160045260246000fd5b614db182614d68565b810181811067ffffffffffffffff82111715614dd057614dcf614d79565b5b80604052505050565b6000614de3614968565b9050614def8282614da8565b919050565b600067ffffffffffffffff821115614e0f57614e0e614d79565b5b614e1882614d68565b9050602081019050919050565b82818337600083830152505050565b6000614e47614e4284614df4565b614dd9565b905082815260208101848484011115614e6357614e62614d63565b5b614e6e848285614e25565b509392505050565b600082601f830112614e8b57614e8a614a09565b5b8135614e9b848260208601614e34565b91505092915050565b60008060408385031215614ebb57614eba614972565b5b6000614ec985828601614bf6565b925050602083013567ffffffffffffffff811115614eea57614ee9614977565b5b614ef685828601614e76565b9150509250929050565b6000608082019050614f1560008301876149df565b614f2260208301866149df565b614f2f60408301856149df565b614f3c60608301846149df565b95945050505050565b6000819050919050565b6000614f6a614f65614f6084614bad565b614f45565b614bad565b9050919050565b6000614f7c82614f4f565b9050919050565b6000614f8e82614f71565b9050919050565b614f9e81614f83565b82525050565b6000602082019050614fb96000830184614f95565b92915050565b6000604082019050614fd460008301856149df565b614fe160208301846149df565b9392505050565b6000614ff382614f71565b9050919050565b61500381614fe8565b82525050565b600060208201905061501e6000830184614ffa565b92915050565b6000806040838503121561503b5761503a614972565b5b60006150498582860161499d565b925050602061505a8582860161499d565b9150509250929050565b60008115159050919050565b61507981615064565b82525050565b60006020820190506150946000830184615070565b92915050565b600080600080600060a086880312156150b6576150b5614972565b5b60006150c48882890161499d565b95505060206150d58882890161499d565b94505060406150e68882890161499d565b93505060606150f78882890161499d565b92505060806151088882890161499d565b9150509295509295909350565b60008060006060848603121561512e5761512d614972565b5b600061513c86828701614bf6565b935050602061514d86828701614bf6565b925050604061515e8682870161499d565b9150509250925092565b600061517382614f71565b9050919050565b61518381615168565b82525050565b600060208201905061519e600083018461517a565b92915050565b60006151af82614f71565b9050919050565b6151bf816151a4565b82525050565b60006020820190506151da60008301846151b6565b92915050565b6000815190506151ef81614986565b92915050565b60006020828403121561520b5761520a614972565b5b6000615219848285016151e0565b91505092915050565b7f4e487b7100000000000000000000000000000000000000000000000000000000600052601160045260246000fd5b600061525c8261497c565b91506152678361497c565b9250817fffffffffffffffffffffffffffffffffffffffffffffffffffffffffffffffff04831182151516156152a05761529f615222565b5b828202905092915050565b7f4e487b7100000000000000000000000000000000000000000000000000000000600052601260045260246000fd5b60006152e58261497c565b91506152f08361497c565b925082615300576152ff6152ab565b5b828204905092915050565b600082825260208201905092915050565b6000819050919050565b61532f81614bcd565b82525050565b60006153418383615326565b60208301905092915050565b600061535c6020840184614bf6565b905092915050565b6000602082019050919050565b600061537d838561530b565b93506153888261531c565b8060005b858110156153c15761539e828461534d565b6153a88882615335565b97506153b383615364565b92505060018101905061538c565b5085925050509392505050565b600082825260208201905092915050565b600080fd5b60006153f083856153ce565b93507f07ffffffffffffffffffffffffffffffffffffffffffffffffffffffffffffff831115615423576154226153df565b5b602083029250615434838584614e25565b82840190509392505050565b6000608082019050818103600083015261545b818a8c615371565b9050818103602083015261547081888a6153e4565b90508181036040830152615485818688615371565b9050818103606083015261549a8184866153e4565b90509998505050505050505050565b600082825260208201905092915050565b7f4f776e61626c653a2063616c6c6572206973206e6f7420746865206f776e6572600082015250565b60006154f06020836154a9565b91506154fb826154ba565b602082019050919050565b6000602082019050818103600083015261551f816154e3565b9050919050565b600060408201905061553b6000830185614cc5565b6155486020830184614cc5565b9392505050565b600061555a8261497c565b91506155658361497c565b9250827fffffffffffffffffffffffffffffffffffffffffffffffffffffffffffffffff0382111561559a57615599615222565b5b828201905092915050565b60006155b08261497c565b91506155bb8361497c565b9250828210156155ce576155cd615222565b5b828203905092915050565b600081519050919050565b6000819050602082019050919050565b6000602082019050919050565b600061560c826155d9565b615616818561530b565b9350615621836155e4565b8060005b838110156156525781516156398882615335565b9750615644836155f4565b925050600181019050615625565b5085935050505092915050565b600081519050919050565b6000819050602082019050919050565b6156838161497c565b82525050565b6000615695838361567a565b60208301905092915050565b6000602082019050919050565b60006156b98261565f565b6156c381856153ce565b93506156ce8361566a565b8060005b838110156156ff5781516156e68882615689565b97506156f1836156a1565b9250506001810190506156d2565b5085935050505092915050565b60006060820190506157216000830186614cc5565b81810360208301526157338185615601565b9050818103604083015261574781846156ae565b9050949350505050565b60006040820190506157666000830185614cc5565b61577360208301846149df565b9392505050565b7f46756e6374696f6e206d7573742062652063616c6c6564207468726f7567682060008201527f64656c656761746563616c6c0000000000000000000000000000000000000000602082015250565b60006157d6602c836154a9565b91506157e18261577a565b604082019050919050565b60006020820190508181036000830152615805816157c9565b9050919050565b7f46756e6374696f6e206d7573742062652063616c6c6564207468726f7567682060008201527f6163746976652070726f78790000000000000000000000000000000000000000602082015250565b6000615868602c836154a9565b91506158738261580c565b604082019050919050565b600060208201905081810360008301526158978161585b565b9050919050565b7f496e697469616c697a61626c653a20636f6e747261637420697320616c72656160008201527f647920696e697469616c697a6564000000000000000000000000000000000000602082015250565b60006158fa602e836154a9565b91506159058261589e565b604082019050919050565b60006020820190508181036000830152615929816158ed565b9050919050565b61593981615064565b811461594457600080fd5b50565b60008151905061595681615930565b92915050565b60006020828403121561597257615971614972565b5b600061598084828501615947565b91505092915050565b600060608201905061599e6000830186614cc5565b6159ab60208301856149df565b6159b860408301846149df565b949350505050565b6000806000606084860312156159d9576159d8614972565b5b60006159e7868287016151e0565b93505060206159f8868287016151e0565b9250506040615a09868287016151e0565b9150509250925092565b600060a082019050615a2860008301886149df565b615a3560208301876149df565b615a4260408301866149df565b615a4f60608301856149df565b615a5c60808301846149df565b9695505050505050565b600060a082019050615a7b6000830188614cc5565b615a8860208301876149df565b615a9560408301866149df565b615aa260608301856149df565b615aaf60808301846149df565b9695505050505050565b60008060008060808587031215615ad357615ad2614972565b5b6000615ae1878288016151e0565b9450506020615af2878288016151e0565b9350506040615b03878288016151e0565b9250506060615b14878288016151e0565b91505092959194509250565b60006040820190508181036000830152615b3a8185615601565b90508181036020830152615b4e81846156ae565b90509392505050565b7f4f776e61626c653a206e6577206f776e657220697320746865207a65726f206160008201527f6464726573730000000000000000000000000000000000000000000000000000602082015250565b6000615bb36026836154a9565b9150615bbe82615b57565b604082019050919050565b60006020820190508181036000830152615be281615ba6565b9050919050565b600081905092915050565b7f456c656374696f6e000000000000000000000000000000000000000000000000600082015250565b6000615c2a600883615be9565b9150615c3582615bf4565b600882019050919050565b6000615c4b82615c1d565b9150819050919050565b600081519050615c6481614bdf565b92915050565b600060208284031215615c8057615c7f614972565b5b6000615c8e84828501615c55565b91505092915050565b6000608082019050615cac6000830187614cc5565b615cb960208301866149df565b615cc660408301856149df565b615cd36060830184615070565b95945050505050565b600067ffffffffffffffff821115615cf757615cf6614d79565b5b602082029050602081019050919050565b6000615d1b615d1684615cdc565b614dd9565b90508083825260208201905060208402830185811115615d3e57615d3d614a13565b5b835b81811015615d675780615d538882615c55565b845260208401935050602081019050615d40565b5050509392505050565b600082601f830112615d8657615d85614a09565b5b8151615d96848260208601615d08565b91505092915050565b600067ffffffffffffffff821115615dba57615db9614d79565b5b602082029050602081019050919050565b6000615dde615dd984615d9f565b614dd9565b90508083825260208201905060208402830185811115615e0157615e00614a13565b5b835b81811015615e2a5780615e1688826151e0565b845260208401935050602081019050615e03565b5050509392505050565b600082601f830112615e4957615e48614a09565b5b8151615e59848260208601615dcb565b91505092915050565b60008060408385031215615e7957615e78614972565b5b600083015167ffffffffffffffff811115615e9757615e96614977565b5b615ea385828601615d71565b925050602083015167ffffffffffffffff811115615ec457615ec3614977565b5b615ed085828601615e34565b9150509250929050565b7f45524331393637557067726164653a207570677261646520627265616b73206660008201527f7572746865722075706772616465730000000000000000000000000000000000602082015250565b6000615f36602f836154a9565b9150615f4182615eda565b604082019050919050565b60006020820190508181036000830152615f6581615f29565b9050919050565b7f496e697469616c697a61626c653a20636f6e7472616374206973206e6f74206960008201527f6e697469616c697a696e67000000000000000000000000000000000000000000602082015250565b6000615fc8602b836154a9565b9150615fd382615f6c565b604082019050919050565b60006020820190508181036000830152615ff781615fbb565b9050919050565b7f4e487b7100000000000000000000000000000000000000000000000000000000600052603260045260246000fd5b600060808201905081810360008301526160478187615601565b9050818103602083015261605b81866156ae565b9050818103604083015261606f8185615601565b9050818103606083015261608381846156ae565b905095945050505050565b60006040820190506160a360008301856149df565b6160b06020830184614cc5565b9392505050565b7f455243313936373a206e657720696d706c656d656e746174696f6e206973206e60008201527f6f74206120636f6e747261637400000000000000000000000000000000000000602082015250565b6000616113602d836154a9565b915061611e826160b7565b604082019050919050565b6000602082019050818103600083015261614281616106565b9050919050565b7f416464726573733a2064656c65676174652063616c6c20746f206e6f6e2d636f60008201527f6e74726163740000000000000000000000000000000000000000000000000000602082015250565b60006161a56026836154a9565b91506161b082616149565b604082019050919050565b600060208201905081810360008301526161d481616198565b9050919050565b600081519050919050565b600081905092915050565b60005b8381101561620f5780820151818401526020810190506161f4565b8381111561621e576000848401525b50505050565b600061622f826161db565b61623981856161e6565b93506162498185602086016161f1565b80840191505092915050565b60006162618284616224565b915081905092915050565b600081519050919050565b60006162828261626c565b61628c81856154a9565b935061629c8185602086016161f1565b6162a581614d68565b840191505092915050565b600060208201905081810360008301526162ca8184616277565b90509291505056fe416464726573733a206c6f772d6c6576656c2064656c65676174652063616c6c206661696c6564a2646970667358221220a236f5c0b776c30fd5a348999bf3477c7fe661114c59f5915d078afd24cd470964736f6c634300080b0033",
  "devdoc": {
    "errors": {
      "CallerNotStakedCelo(address)": [
        {
          "params": {
            "caller": "`msg.sender` that called the function."
          }
        }
      ],
      "CallerNotStrategy(address)": [
        {
          "params": {
            "caller": "`msg.sender` that called the function."
          }
        }
      ],
      "FromGroupNotOverflowing(address)": [
        {
          "params": {
            "group": "The group's address."
          }
        }
      ],
      "GroupNotEligible(address)": [
        {
          "params": {
            "group": "The group's address."
          }
        }
      ],
      "InvalidToGroup(address)": [
        {
          "params": {
            "group": "The group's address."
          }
        }
      ],
      "RebalanceEnoughCelo(address,uint256,uint256)": [
        {
          "params": {
            "actualCelo": "The actual CELO value.",
            "expectedCelo": "The expected CELO value.",
            "group": "The group's address."
          }
        }
      ],
      "RebalanceNoExtraCelo(address,uint256,uint256)": [
        {
          "params": {
            "actualCelo": "The actual CELO value.",
            "expectedCelo": "The expected CELO value.",
            "group": "The group's address."
          }
        }
      ],
      "ToGroupOverflowing(address)": [
        {
          "params": {
            "group": "The group's address."
          }
        }
      ]
    },
    "events": {
      "StrategyChanged(address)": {
        "params": {
          "group": "The group's address."
        }
      },
      "VoteContractSet(address)": {
        "params": {
          "voteContract": "The new vote contract address."
        }
      }
    },
    "kind": "dev",
    "methods": {
      "changeStrategy(address)": {
        "params": {
          "newStrategy": "The from account."
        }
      },
      "getAddressStrategy(address)": {
        "params": {
          "accountAddress": "The account address."
        },
        "returns": {
          "_0": "The strategy."
        }
      },
      "getExpectedAndActualCeloForGroup(address)": {
        "params": {
          "group": "The group."
        },
        "returns": {
          "actualCelo": "The CELO which group has.",
          "expectedCelo": "The CELO which group should have."
        }
      },
      "getReceivableVotesForGroup(address)": {
        "params": {
          "group": "The group that can receive votes."
        },
        "returns": {
          "_0": "The amount of CELO that can be received by group though stCELO protocol."
        }
      },
      "getVersionNumber()": {
        "returns": {
          "_0": "Storage version of the contract.",
          "_1": "Major version of the contract.",
          "_2": "Minor version of the contract.",
          "_3": "Patch version of the contract."
        }
      },
      "initialize(address,address)": {
        "params": {
          "_owner": "The address of the contract owner.",
          "_registry": "The address of the Celo Registry."
        }
      },
      "isPaused()": {
        "returns": {
          "_0": "`true` if the contract is paused, `false` otherwise."
        }
      },
      "owner()": {
        "details": "Returns the address of the current owner."
      },
      "rebalance(address,address)": {
        "params": {
          "fromGroup": "The from group.",
          "toGroup": "The to group."
        }
      },
      "rebalanceOverflow(address,address)": {
        "params": {
          "fromGroup": "The group to unschedule votes from.",
          "toGroup": "The group to schedule votes to."
        }
      },
      "renounceOwnership()": {
        "details": "Leaves the contract without owner. It will not be possible to call `onlyOwner` functions anymore. Can only be called by the current owner. NOTE: Renouncing ownership will leave the contract without an owner, thereby removing any functionality that is only available to the owner."
      },
      "revokeVotes(uint256,uint256)": {
        "params": {
          "index": "The index of the proposal ID in `dequeued`.",
          "proposalId": "The ID of the proposal to revoke from."
        }
      },
      "scheduleTransferWithinStrategy(address[],address[],uint256[],uint256[])": {
        "params": {
          "fromGroups": "The groups the deposited CELO is intended to be revoked from.",
          "fromVotes": "The amount of CELO scheduled to be revoked from each respective group.",
          "toGroups": "The groups the transferred CELO is intended to vote for.",
          "toVotes": "The amount of CELO to schedule for each respective `toGroups`."
        }
      },
      "setDependencies(address,address,address,address,address,address)": {
        "details": "The StakedCelo contracts all reference each other so we need a way of setting these after all contracts are deployed and initialized.",
        "params": {
          "_account": "The address of the Account contract.",
          "_defaultStrategy": "The address of the DefaultStrategy contract.",
          "_groupHealth": "The address of the GroupHealth contract.",
          "_specificGroupStrategy": "The address of the SpecificGroupStrategy contract.",
          "_stakedCelo": "the address of the StakedCelo contract.",
          "_vote": "The address of the Vote contract."
        }
      },
      "toCelo(uint256)": {
        "params": {
          "stCeloAmount": "The amount of stCELO burned."
        },
        "returns": {
          "_0": "The amount of CELO that should be withdrawn."
        }
      },
      "toStakedCelo(uint256)": {
        "params": {
          "celoAmount": "The amount of CELO deposited."
        },
        "returns": {
          "_0": "The amount of stCELO that should be minted."
        }
      },
      "transfer(address,address,uint256)": {
        "params": {
          "from": "The from account.",
          "stCeloAmount": "The stCELO amount.",
          "to": "The to account."
        }
      },
      "transferOwnership(address)": {
        "details": "Transfers ownership of the contract to a new account (`newOwner`). Can only be called by the current owner."
      },
      "unlockBalance(address)": {
        "params": {
          "accountAddress": "The account to be unlocked."
        }
      },
      "updateHistoryAndReturnLockedStCeloInVoting(address)": {
        "params": {
          "beneficiary": "The address to be unlocked."
        }
      },
      "upgradeTo(address)": {
        "details": "Upgrade the implementation of the proxy to `newImplementation`. Calls {_authorizeUpgrade}. Emits an {Upgraded} event."
      },
      "upgradeToAndCall(address,bytes)": {
        "details": "Upgrade the implementation of the proxy to `newImplementation`, and subsequently execute the function call encoded in `data`. Calls {_authorizeUpgrade}. Emits an {Upgraded} event."
      },
      "voteProposal(uint256,uint256,uint256,uint256,uint256)": {
        "params": {
          "abstainVotes": "The abstain votes weight.",
          "index": "The index of the proposal ID in `dequeued`.",
          "noVotes": "The no votes weight.",
          "proposalId": "The ID of the proposal to vote on.",
          "yesVotes": "The yes votes weight."
        }
      },
      "withdraw(uint256)": {
        "details": "Calculates the CELO amount based on the ratio of outstanding stCELO and the total amount of CELO owned and used for voting by Account. See `toCelo`.The funds need to be withdrawn using calls to `Account.withdraw` and `Account.finishPendingWithdrawal`.",
        "params": {
          "stCeloAmount": "The amount of stCELO to burn."
        }
      }
    },
    "title": "Manages the StakedCelo system, by controlling the minting and burning of stCELO and implementing strategies for voting and unvoting of deposited or withdrawn CELO.",
    "version": 1
  },
  "userdoc": {
    "errors": {
      "AddressZeroNotAllowed()": [
        {
          "notice": "Used when attempting to pass in address zero where not allowed."
        }
      ],
      "CallerNotStakedCelo(address)": [
        {
          "notice": "Used when an `onlyStCelo` function is called by a non-stCELO contract."
        }
      ],
      "CallerNotStrategy(address)": [
        {
          "notice": "Used when an `onlyStrategy` function is called by a non-strategy contract."
        }
      ],
      "FromGroupNotOverflowing(address)": [
        {
          "notice": "Used when trying to overflow rebalance group that is not overflowing."
        }
      ],
      "GroupNotEligible(address)": [
        {
          "notice": "Used when a group does not meet the validator group health requirements."
        }
      ],
      "InvalidToGroup(address)": [
        {
          "notice": "Used when rebalancing to non-active nor specific group."
        }
      ],
      "OnlyPauser()": [
        {
          "notice": "Used when an `onlyPauser` function is called with a different address."
        }
      ],
      "Paused()": [
        {
          "notice": "Used when an `onlyWhenNotPaused` function is called while the contract is paused."
        }
      ],
      "RebalanceEnoughCelo(address,uint256,uint256)": [
        {
          "notice": "Used when rebalancing and toGroup has enough CELO."
        }
      ],
      "RebalanceNoExtraCelo(address,uint256,uint256)": [
        {
          "notice": "Used when rebalancing and fromGroup doesn't have any extra CELO."
        }
      ],
      "ToGroupOverflowing(address)": [
        {
          "notice": "Used when trying to rebalance to a group that is overflowing."
        }
      ],
      "ZeroWithdrawal()": [
        {
          "notice": "Used when attempting to withdraw 0 value."
        }
      ]
    },
    "events": {
      "ContractPaused()": {
        "notice": "Emitted when this contract is paused."
      },
      "ContractUnpaused()": {
        "notice": "Emitted when this contract is unpaused."
      },
      "PauserSet(address)": {
        "notice": "Emitted when the address authorized to pause/unpause the contract is changed."
      },
      "StrategyChanged(address)": {
        "notice": "Emitted when the voting strategy changes."
      },
      "VoteContractSet(address)": {
        "notice": "Emitted when the vote contract is initially set or later modified."
      }
    },
    "kind": "user",
    "methods": {
      "PAUSED_POSITION()": {
        "notice": "The storage slot under which we store a boolean representing whether or not the contract is currently paused."
      },
      "PAUSER_POSITION()": {
        "notice": "The storage slot under which we store an address representing the address permissioned to pause/unpause this contract."
      },
      "changeStrategy(address)": {
        "notice": "Allows account to change strategy. address(0) = default strategy !address(0) = voting for allowed validator group. Group needs to be in allowed"
      },
      "constructor": {
        "notice": "Empty constructor for proxy implementation, `initializer` modifer ensures the implementation gets initialized."
      },
      "defaultStrategy()": {
        "notice": "An instance of the DefaultStrategy contract for the StakedCelo protocol."
      },
      "deposit()": {
        "notice": "Used to deposit CELO into the StakedCelo system. The user will receive an amount of stCELO proportional to their contribution. The CELO will be scheduled to be voted for with the Account contract. The CELO will be distributed based on address strategy."
      },
      "getAddressStrategy(address)": {
        "notice": "Returns which strategy an address is using address(0) = default strategy !address(0) = voting for specific validator group. Unhealthy and blocked strategies are reverted to default."
      },
      "getExpectedAndActualCeloForGroup(address)": {
        "notice": "Returns expected CELO amount voted for by Account contract vs actual amount voted for by Account contract."
      },
      "getReceivableVotesForGroup(address)": {
        "notice": "Returns votes count that can be received by group through stCELO protocol."
      },
      "getVersionNumber()": {
        "notice": "Returns the storage, major, minor, and patch version of the contract."
      },
      "groupHealth()": {
        "notice": "An instance of the GroupHealth contract for the StakedCelo protocol."
      },
      "initialize(address,address)": {
        "notice": "Initialize the contract with registry and owner."
      },
      "isPaused()": {
        "notice": "Returns whether or not the contract is paused."
      },
      "pause()": {
        "notice": "Pauses the contract."
      },
      "pauser()": {
        "notice": "Returns the address permissioned to pause/unpause this contract."
      },
      "rebalance(address,address)": {
        "notice": "Rebalances CELO between groups that have incorrect CELO-stCELO ratio. `fromGroup` is required to have more CELO than it should and `toGroup` needs to have less CELO than it should."
      },
      "rebalanceOverflow(address,address)": {
        "notice": "Rebalance according to CELO overflow rather than stCELO ratio. If one of the groups is overflowing and there are still some votes that are scheduled for the group, this function allows to transfer these votes to any active group in protocol that is not overflowing yet."
      },
      "registry()": {
        "notice": "The Registry."
      },
      "revokeVotes(uint256,uint256)": {
        "notice": "Revokes votes on already voted proposal."
      },
      "scheduleTransferWithinStrategy(address[],address[],uint256[],uint256[])": {
        "notice": "Allows strategy to initiate transfer without any checks. This method is supposed to be used for transfers between groups only within strategy"
      },
      "setDependencies(address,address,address,address,address,address)": {
        "notice": "Set this contract's dependencies in the StakedCelo system."
      },
      "setPauser()": {
        "notice": "Sets that address permissioned to pause/unpause this contract to the owner of this contract."
      },
      "specificGroupStrategy()": {
        "notice": "An instance of the SpecificGroupStrategy contract for the StakedCelo protocol."
      },
      "strategies(address)": {
        "notice": "address -> strategy used by an address strategy: address(0) = default strategy strategy: !address(0) = vote for the group at that address if allowed by GroupHealth.isGroupValid, otherwise vote according to the default strategy"
      },
      "toCelo(uint256)": {
        "notice": "Computes the amount of CELO that should be withdrawn for a given amount of stCELO burned."
      },
      "toStakedCelo(uint256)": {
        "notice": "Computes the amount of stCELO that should be minted for a given amount of CELO deposited."
      },
      "transfer(address,address,uint256)": {
        "notice": "Whenever stCELO is being transferd we will check whether origin and target account use same strategy. If strategy differs we will schedule votes for transfer."
      },
      "unlockBalance(address)": {
        "notice": "Unlock vote balance of stCELO."
      },
      "unpause()": {
        "notice": "Unpauses the contract."
      },
      "updateHistoryAndReturnLockedStCeloInVoting(address)": {
        "notice": "Unlock balance of vote stCELO and update beneficiary vote history."
      },
      "voteContract()": {
        "notice": "Contract used during Governance voting."
      },
      "voteProposal(uint256,uint256,uint256,uint256,uint256)": {
        "notice": "Votes on a proposal in the referendum stage."
      },
      "withdraw(uint256)": {
        "notice": "Used to withdraw CELO from the system, in exchange for burning stCELO."
      }
    },
    "version": 1
  },
  "storageLayout": {
    "storage": [
      {
        "astId": 130,
        "contract": "contracts/Manager.sol:Manager",
        "label": "_initialized",
        "offset": 0,
        "slot": "0",
        "type": "t_bool"
      },
      {
        "astId": 133,
        "contract": "contracts/Manager.sol:Manager",
        "label": "_initializing",
        "offset": 1,
        "slot": "0",
        "type": "t_bool"
      },
      {
        "astId": 584,
        "contract": "contracts/Manager.sol:Manager",
        "label": "__gap",
        "offset": 0,
        "slot": "1",
        "type": "t_array(t_uint256)50_storage"
      },
      {
        "astId": 10,
        "contract": "contracts/Manager.sol:Manager",
        "label": "_owner",
        "offset": 0,
        "slot": "51",
        "type": "t_address"
      },
      {
        "astId": 122,
        "contract": "contracts/Manager.sol:Manager",
        "label": "__gap",
        "offset": 0,
        "slot": "52",
        "type": "t_array(t_uint256)49_storage"
      },
      {
        "astId": 14709,
        "contract": "contracts/Manager.sol:Manager",
        "label": "registry",
        "offset": 0,
        "slot": "101",
        "type": "t_contract(IRegistry)17748"
      },
      {
        "astId": 7324,
        "contract": "contracts/Manager.sol:Manager",
        "label": "stakedCelo",
        "offset": 0,
        "slot": "102",
        "type": "t_contract(IStakedCelo)17891"
      },
      {
        "astId": 7328,
        "contract": "contracts/Manager.sol:Manager",
        "label": "account",
        "offset": 0,
        "slot": "103",
        "type": "t_contract(IAccount)16729"
      },
      {
        "astId": 7332,
        "contract": "contracts/Manager.sol:Manager",
        "label": "activeGroups",
        "offset": 0,
        "slot": "104",
        "type": "t_struct(AddressSet)3257_storage"
      },
      {
        "astId": 7336,
        "contract": "contracts/Manager.sol:Manager",
        "label": "deprecatedGroups",
        "offset": 0,
        "slot": "106",
        "type": "t_struct(AddressSet)3257_storage"
      },
      {
        "astId": 7339,
        "contract": "contracts/Manager.sol:Manager",
        "label": "voteContract",
        "offset": 0,
        "slot": "108",
        "type": "t_address"
      },
      {
        "astId": 7343,
        "contract": "contracts/Manager.sol:Manager",
        "label": "groupHealth",
        "offset": 0,
        "slot": "109",
        "type": "t_contract(IGroupHealth)17503"
      },
      {
        "astId": 7347,
        "contract": "contracts/Manager.sol:Manager",
        "label": "specificGroupStrategy",
        "offset": 0,
        "slot": "110",
        "type": "t_contract(ISpecificGroupStrategy)17823"
      },
      {
        "astId": 7351,
        "contract": "contracts/Manager.sol:Manager",
        "label": "defaultStrategy",
        "offset": 0,
        "slot": "111",
        "type": "t_contract(IDefaultStrategy)17008"
      },
      {
        "astId": 7356,
        "contract": "contracts/Manager.sol:Manager",
        "label": "strategies",
        "offset": 0,
        "slot": "112",
        "type": "t_mapping(t_address,t_address)"
      }
    ],
    "types": {
      "t_address": {
        "encoding": "inplace",
        "label": "address",
        "numberOfBytes": "20"
      },
      "t_array(t_bytes32)dyn_storage": {
        "base": "t_bytes32",
        "encoding": "dynamic_array",
        "label": "bytes32[]",
        "numberOfBytes": "32"
      },
      "t_array(t_uint256)49_storage": {
        "base": "t_uint256",
        "encoding": "inplace",
        "label": "uint256[49]",
        "numberOfBytes": "1568"
      },
      "t_array(t_uint256)50_storage": {
        "base": "t_uint256",
        "encoding": "inplace",
        "label": "uint256[50]",
        "numberOfBytes": "1600"
      },
      "t_bool": {
        "encoding": "inplace",
        "label": "bool",
        "numberOfBytes": "1"
      },
      "t_bytes32": {
        "encoding": "inplace",
        "label": "bytes32",
        "numberOfBytes": "32"
      },
      "t_contract(IAccount)16729": {
        "encoding": "inplace",
        "label": "contract IAccount",
        "numberOfBytes": "20"
      },
      "t_contract(IDefaultStrategy)17008": {
        "encoding": "inplace",
        "label": "contract IDefaultStrategy",
        "numberOfBytes": "20"
      },
      "t_contract(IGroupHealth)17503": {
        "encoding": "inplace",
        "label": "contract IGroupHealth",
        "numberOfBytes": "20"
      },
      "t_contract(IRegistry)17748": {
        "encoding": "inplace",
        "label": "contract IRegistry",
        "numberOfBytes": "20"
      },
      "t_contract(ISpecificGroupStrategy)17823": {
        "encoding": "inplace",
        "label": "contract ISpecificGroupStrategy",
        "numberOfBytes": "20"
      },
      "t_contract(IStakedCelo)17891": {
        "encoding": "inplace",
        "label": "contract IStakedCelo",
        "numberOfBytes": "20"
      },
      "t_mapping(t_address,t_address)": {
        "encoding": "mapping",
        "key": "t_address",
        "label": "mapping(address => address)",
        "numberOfBytes": "32",
        "value": "t_address"
      },
      "t_mapping(t_bytes32,t_uint256)": {
        "encoding": "mapping",
        "key": "t_bytes32",
        "label": "mapping(bytes32 => uint256)",
        "numberOfBytes": "32",
        "value": "t_uint256"
      },
      "t_struct(AddressSet)3257_storage": {
        "encoding": "inplace",
        "label": "struct EnumerableSet.AddressSet",
        "members": [
          {
            "astId": 3256,
            "contract": "contracts/Manager.sol:Manager",
            "label": "_inner",
            "offset": 0,
            "slot": "0",
            "type": "t_struct(Set)2956_storage"
          }
        ],
        "numberOfBytes": "64"
      },
      "t_struct(Set)2956_storage": {
        "encoding": "inplace",
        "label": "struct EnumerableSet.Set",
        "members": [
          {
            "astId": 2951,
            "contract": "contracts/Manager.sol:Manager",
            "label": "_values",
            "offset": 0,
            "slot": "0",
            "type": "t_array(t_bytes32)dyn_storage"
          },
          {
            "astId": 2955,
            "contract": "contracts/Manager.sol:Manager",
            "label": "_indexes",
            "offset": 0,
            "slot": "1",
            "type": "t_mapping(t_bytes32,t_uint256)"
          }
        ],
        "numberOfBytes": "64"
      },
      "t_uint256": {
        "encoding": "inplace",
        "label": "uint256",
        "numberOfBytes": "32"
      }
    }
  }
}