{
  "address": "0x08a2121c9c143b9B06FFa27269D25Af96c5e770D",
  "abi": [
    {
      "inputs": [],
      "stateMutability": "nonpayable",
      "type": "constructor"
    },
    {
      "inputs": [],
      "name": "AddressZeroNotAllowed",
      "type": "error"
    },
    {
      "inputs": [
        {
          "internalType": "address",
          "name": "caller",
          "type": "address"
        }
      ],
      "name": "CallerNotStakedCelo",
      "type": "error"
    },
    {
      "inputs": [
        {
          "internalType": "address",
          "name": "caller",
          "type": "address"
        }
      ],
      "name": "CallerNotStrategy",
      "type": "error"
    },
    {
      "inputs": [
        {
          "internalType": "address",
          "name": "group",
          "type": "address"
        }
      ],
      "name": "FromGroupNotOverflowing",
      "type": "error"
    },
    {
      "inputs": [
        {
          "internalType": "address",
          "name": "group",
          "type": "address"
        }
      ],
      "name": "GroupNotEligible",
      "type": "error"
    },
    {
      "inputs": [
        {
          "internalType": "address",
          "name": "group",
          "type": "address"
        }
      ],
      "name": "InvalidToGroup",
      "type": "error"
    },
    {
      "inputs": [
        {
          "internalType": "address",
          "name": "group",
          "type": "address"
        },
        {
          "internalType": "uint256",
          "name": "actualCelo",
          "type": "uint256"
        },
        {
          "internalType": "uint256",
          "name": "expectedCelo",
          "type": "uint256"
        }
      ],
      "name": "RebalanceEnoughCelo",
      "type": "error"
    },
    {
      "inputs": [
        {
          "internalType": "address",
          "name": "group",
          "type": "address"
        },
        {
          "internalType": "uint256",
          "name": "actualCelo",
          "type": "uint256"
        },
        {
          "internalType": "uint256",
          "name": "expectedCelo",
          "type": "uint256"
        }
      ],
      "name": "RebalanceNoExtraCelo",
      "type": "error"
    },
    {
      "inputs": [
        {
          "internalType": "address",
          "name": "group",
          "type": "address"
        }
      ],
      "name": "ToGroupOverflowing",
      "type": "error"
    },
    {
      "inputs": [],
      "name": "ZeroWithdrawal",
      "type": "error"
    },
    {
      "anonymous": false,
      "inputs": [
        {
          "indexed": false,
          "internalType": "address",
          "name": "previousAdmin",
          "type": "address"
        },
        {
          "indexed": false,
          "internalType": "address",
          "name": "newAdmin",
          "type": "address"
        }
      ],
      "name": "AdminChanged",
      "type": "event"
    },
    {
      "anonymous": false,
      "inputs": [
        {
          "indexed": true,
          "internalType": "address",
          "name": "beacon",
          "type": "address"
        }
      ],
      "name": "BeaconUpgraded",
      "type": "event"
    },
    {
      "anonymous": false,
      "inputs": [
        {
          "indexed": true,
          "internalType": "address",
          "name": "previousOwner",
          "type": "address"
        },
        {
          "indexed": true,
          "internalType": "address",
          "name": "newOwner",
          "type": "address"
        }
      ],
      "name": "OwnershipTransferred",
      "type": "event"
    },
    {
      "anonymous": false,
      "inputs": [
        {
          "indexed": true,
          "internalType": "address",
          "name": "implementation",
          "type": "address"
        }
      ],
      "name": "Upgraded",
      "type": "event"
    },
    {
      "anonymous": false,
      "inputs": [
        {
          "indexed": true,
          "internalType": "address",
          "name": "voteContract",
          "type": "address"
        }
      ],
      "name": "VoteContractSet",
      "type": "event"
    },
    {
      "inputs": [
        {
          "internalType": "address",
          "name": "newStrategy",
          "type": "address"
        }
      ],
      "name": "changeStrategy",
      "outputs": [],
      "stateMutability": "nonpayable",
      "type": "function"
    },
    {
      "inputs": [],
      "name": "defaultStrategy",
      "outputs": [
        {
          "internalType": "contract IDefaultStrategy",
          "name": "",
          "type": "address"
        }
      ],
      "stateMutability": "view",
      "type": "function"
    },
    {
      "inputs": [],
      "name": "deposit",
      "outputs": [],
      "stateMutability": "payable",
      "type": "function"
    },
    {
      "inputs": [
        {
          "internalType": "address",
          "name": "accountAddress",
          "type": "address"
        }
      ],
      "name": "getAddressStrategy",
      "outputs": [
        {
          "internalType": "address",
          "name": "",
          "type": "address"
        }
      ],
      "stateMutability": "view",
      "type": "function"
    },
    {
      "inputs": [
        {
          "internalType": "address",
          "name": "group",
          "type": "address"
        }
      ],
      "name": "getExpectedAndActualCeloForGroup",
      "outputs": [
        {
          "internalType": "uint256",
          "name": "expectedCelo",
          "type": "uint256"
        },
        {
          "internalType": "uint256",
          "name": "actualCelo",
          "type": "uint256"
        }
      ],
      "stateMutability": "view",
      "type": "function"
    },
    {
      "inputs": [
        {
          "internalType": "address",
          "name": "group",
          "type": "address"
        }
      ],
      "name": "getReceivableVotesForGroup",
      "outputs": [
        {
          "internalType": "uint256",
          "name": "",
          "type": "uint256"
        }
      ],
      "stateMutability": "view",
      "type": "function"
    },
    {
      "inputs": [],
      "name": "getVersionNumber",
      "outputs": [
        {
          "internalType": "uint256",
          "name": "",
          "type": "uint256"
        },
        {
          "internalType": "uint256",
          "name": "",
          "type": "uint256"
        },
        {
          "internalType": "uint256",
          "name": "",
          "type": "uint256"
        },
        {
          "internalType": "uint256",
          "name": "",
          "type": "uint256"
        }
      ],
      "stateMutability": "pure",
      "type": "function"
    },
    {
      "inputs": [],
      "name": "groupHealth",
      "outputs": [
        {
          "internalType": "contract IGroupHealth",
          "name": "",
          "type": "address"
        }
      ],
      "stateMutability": "view",
      "type": "function"
    },
    {
      "inputs": [
        {
          "internalType": "address",
          "name": "_registry",
          "type": "address"
        },
        {
          "internalType": "address",
          "name": "_owner",
          "type": "address"
        }
      ],
      "name": "initialize",
      "outputs": [],
      "stateMutability": "nonpayable",
      "type": "function"
    },
    {
      "inputs": [],
      "name": "owner",
      "outputs": [
        {
          "internalType": "address",
          "name": "",
          "type": "address"
        }
      ],
      "stateMutability": "view",
      "type": "function"
    },
    {
      "inputs": [
        {
          "internalType": "address",
          "name": "fromGroup",
          "type": "address"
        },
        {
          "internalType": "address",
          "name": "toGroup",
          "type": "address"
        }
      ],
      "name": "rebalance",
      "outputs": [],
      "stateMutability": "nonpayable",
      "type": "function"
    },
    {
      "inputs": [
        {
          "internalType": "address",
          "name": "fromGroup",
          "type": "address"
        },
        {
          "internalType": "address",
          "name": "toGroup",
          "type": "address"
        }
      ],
      "name": "rebalanceOverflow",
      "outputs": [],
      "stateMutability": "nonpayable",
      "type": "function"
    },
    {
      "inputs": [],
      "name": "registry",
      "outputs": [
        {
          "internalType": "contract IRegistry",
          "name": "",
          "type": "address"
        }
      ],
      "stateMutability": "view",
      "type": "function"
    },
    {
      "inputs": [],
      "name": "renounceOwnership",
      "outputs": [],
      "stateMutability": "nonpayable",
      "type": "function"
    },
    {
      "inputs": [
        {
          "internalType": "uint256",
          "name": "proposalId",
          "type": "uint256"
        },
        {
          "internalType": "uint256",
          "name": "index",
          "type": "uint256"
        }
      ],
      "name": "revokeVotes",
      "outputs": [],
      "stateMutability": "nonpayable",
      "type": "function"
    },
    {
      "inputs": [
        {
          "internalType": "address[]",
          "name": "fromGroups",
          "type": "address[]"
        },
        {
          "internalType": "address[]",
          "name": "toGroups",
          "type": "address[]"
        },
        {
          "internalType": "uint256[]",
          "name": "fromVotes",
          "type": "uint256[]"
        },
        {
          "internalType": "uint256[]",
          "name": "toVotes",
          "type": "uint256[]"
        }
      ],
      "name": "scheduleTransferWithinStrategy",
      "outputs": [],
      "stateMutability": "nonpayable",
      "type": "function"
    },
    {
      "inputs": [
        {
          "internalType": "address",
          "name": "_stakedCelo",
          "type": "address"
        },
        {
          "internalType": "address",
          "name": "_account",
          "type": "address"
        },
        {
          "internalType": "address",
          "name": "_vote",
          "type": "address"
        },
        {
          "internalType": "address",
          "name": "_groupHealth",
          "type": "address"
        },
        {
          "internalType": "address",
          "name": "_specificGroupStrategy",
          "type": "address"
        },
        {
          "internalType": "address",
          "name": "_defaultStrategy",
          "type": "address"
        }
      ],
      "name": "setDependencies",
      "outputs": [],
      "stateMutability": "nonpayable",
      "type": "function"
    },
    {
      "inputs": [],
      "name": "specificGroupStrategy",
      "outputs": [
        {
          "internalType": "contract ISpecificGroupStrategy",
          "name": "",
          "type": "address"
        }
      ],
      "stateMutability": "view",
      "type": "function"
    },
    {
      "inputs": [
        {
          "internalType": "address",
          "name": "",
          "type": "address"
        }
      ],
      "name": "strategies",
      "outputs": [
        {
          "internalType": "address",
          "name": "",
          "type": "address"
        }
      ],
      "stateMutability": "view",
      "type": "function"
    },
    {
      "inputs": [
        {
          "internalType": "uint256",
          "name": "stCeloAmount",
          "type": "uint256"
        }
      ],
      "name": "toCelo",
      "outputs": [
        {
          "internalType": "uint256",
          "name": "",
          "type": "uint256"
        }
      ],
      "stateMutability": "view",
      "type": "function"
    },
    {
      "inputs": [
        {
          "internalType": "uint256",
          "name": "celoAmount",
          "type": "uint256"
        }
      ],
      "name": "toStakedCelo",
      "outputs": [
        {
          "internalType": "uint256",
          "name": "",
          "type": "uint256"
        }
      ],
      "stateMutability": "view",
      "type": "function"
    },
    {
      "inputs": [
        {
          "internalType": "address",
          "name": "from",
          "type": "address"
        },
        {
          "internalType": "address",
          "name": "to",
          "type": "address"
        },
        {
          "internalType": "uint256",
          "name": "stCeloAmount",
          "type": "uint256"
        }
      ],
      "name": "transfer",
      "outputs": [],
      "stateMutability": "nonpayable",
      "type": "function"
    },
    {
      "inputs": [
        {
          "internalType": "address",
          "name": "newOwner",
          "type": "address"
        }
      ],
      "name": "transferOwnership",
      "outputs": [],
      "stateMutability": "nonpayable",
      "type": "function"
    },
    {
      "inputs": [
        {
          "internalType": "address",
          "name": "accountAddress",
          "type": "address"
        }
      ],
      "name": "unlockBalance",
      "outputs": [],
      "stateMutability": "nonpayable",
      "type": "function"
    },
    {
      "inputs": [
        {
          "internalType": "address",
          "name": "beneficiary",
          "type": "address"
        }
      ],
      "name": "updateHistoryAndReturnLockedStCeloInVoting",
      "outputs": [
        {
          "internalType": "uint256",
          "name": "",
          "type": "uint256"
        }
      ],
      "stateMutability": "nonpayable",
      "type": "function"
    },
    {
      "inputs": [
        {
          "internalType": "address",
          "name": "newImplementation",
          "type": "address"
        }
      ],
      "name": "upgradeTo",
      "outputs": [],
      "stateMutability": "nonpayable",
      "type": "function"
    },
    {
      "inputs": [
        {
          "internalType": "address",
          "name": "newImplementation",
          "type": "address"
        },
        {
          "internalType": "bytes",
          "name": "data",
          "type": "bytes"
        }
      ],
      "name": "upgradeToAndCall",
      "outputs": [],
      "stateMutability": "payable",
      "type": "function"
    },
    {
      "inputs": [],
      "name": "voteContract",
      "outputs": [
        {
          "internalType": "address",
          "name": "",
          "type": "address"
        }
      ],
      "stateMutability": "view",
      "type": "function"
    },
    {
      "inputs": [
        {
          "internalType": "uint256",
          "name": "proposalId",
          "type": "uint256"
        },
        {
          "internalType": "uint256",
          "name": "index",
          "type": "uint256"
        },
        {
          "internalType": "uint256",
          "name": "yesVotes",
          "type": "uint256"
        },
        {
          "internalType": "uint256",
          "name": "noVotes",
          "type": "uint256"
        },
        {
          "internalType": "uint256",
          "name": "abstainVotes",
          "type": "uint256"
        }
      ],
      "name": "voteProposal",
      "outputs": [],
      "stateMutability": "nonpayable",
      "type": "function"
    },
    {
      "inputs": [
        {
          "internalType": "uint256",
          "name": "stCeloAmount",
          "type": "uint256"
        }
      ],
      "name": "withdraw",
      "outputs": [],
      "stateMutability": "nonpayable",
      "type": "function"
    }
  ],
  "transactionHash": "0x7bd8002092cc64f61be7fdf6aba2d7f03e114c087afd32dc645d500249ede1bf",
  "args": [],
  "numDeployments": 2,
  "solcInputHash": "7930a169899b18f79c4c8ca443a8037f",
  "bytecode": "0x60a06040523073ffffffffffffffffffffffffffffffffffffffff1660809073ffffffffffffffffffffffffffffffffffffffff168152503480156200004457600080fd5b50600060019054906101000a900460ff166200006f5760008054906101000a900460ff161562000080565b6200007f6200013c60201b60201c565b5b620000c2576040517f08c379a0000000000000000000000000000000000000000000000000000000008152600401620000b99062000204565b60405180910390fd5b60008060019054906101000a900460ff16159050801562000113576001600060016101000a81548160ff02191690831515021790555060016000806101000a81548160ff0219169083151502179055505b8015620001355760008060016101000a81548160ff0219169083151502179055505b5062000226565b600062000154306200015a60201b62002fa01760201c565b15905090565b6000808273ffffffffffffffffffffffffffffffffffffffff163b119050919050565b600082825260208201905092915050565b7f496e697469616c697a61626c653a20636f6e747261637420697320616c72656160008201527f647920696e697469616c697a6564000000000000000000000000000000000000602082015250565b6000620001ec602e836200017d565b9150620001f9826200018e565b604082019050919050565b600060208201905081810360008301526200021f81620001dd565b9050919050565b608051615a2b62000257600039600081816111000152818161118f0152818161165701526116e60152615a2b6000f3fe6080604052600436106101cd5760003560e01c80637b103999116100f7578063beabacc811610095578063d0e30db011610064578063d0e30db014610677578063ee183c4a14610681578063f2fde38b146106ac578063fac5bb9b146106d5576101cd565b8063beabacc8146105bd578063c494ec1e146105e6578063ce7a60ab14610623578063cf009f7a1461064c576101cd565b8063a0fefe25116100d1578063a0fefe2514610502578063a3f16ef114610540578063b0ef81de1461056b578063bc4d3bb314610594576101cd565b80637b103999146104835780637e72dd66146104ae5780638da5cb5b146104d7576101cd565b8063485cc9551161016f57806354255be01161013e57806354255be0146103ec5780636fe958d81461041a578063715018a6146104435780637a9024bd1461045a576101cd565b8063485cc9551461032d57806348fd6ea6146103565780634e4e5efb146103935780634f1ef286146103d0576101cd565b80632c431058116101ab5780632c431058146102615780632e1a7d4d1461029e5780633659cfe6146102c757806339ebf823146102f0576101cd565b80630567847f146101d25780630c4d4e401461020f578063114e6b3714610238575b600080fd5b3480156101de57600080fd5b506101f960048036038101906101f491906140c9565b610700565b6040516102069190614105565b60405180910390f35b34801561021b57600080fd5b50610236600480360381019061023191906141db565b61086a565b005b34801561024457600080fd5b5061025f600480360381019061025a9190614322565b6109fd565b005b34801561026d57600080fd5b50610288600480360381019061028391906143af565b610dc4565b6040516102959190614105565b60405180910390f35b3480156102aa57600080fd5b506102c560048036038101906102c091906140c9565b610f67565b005b3480156102d357600080fd5b506102ee60048036038101906102e991906143af565b6110fe565b005b3480156102fc57600080fd5b50610317600480360381019061031291906143af565b611287565b60405161032491906143eb565b60405180910390f35b34801561033957600080fd5b50610354600480360381019061034f9190614406565b6112ba565b005b34801561036257600080fd5b5061037d600480360381019061037891906143af565b6113b2565b60405161038a9190614105565b60405180910390f35b34801561039f57600080fd5b506103ba60048036038101906103b591906143af565b61145e565b6040516103c791906143eb565b60405180910390f35b6103ea60048036038101906103e59190614587565b611655565b005b3480156103f857600080fd5b50610401611792565b60405161041194939291906145e3565b60405180910390f35b34801561042657600080fd5b50610441600480360381019061043c9190614406565b6117ad565b005b34801561044f57600080fd5b50610458611a75565b005b34801561046657600080fd5b50610481600480360381019061047c91906143af565b611afd565b005b34801561048f57600080fd5b50610498611e4d565b6040516104a59190614687565b60405180910390f35b3480156104ba57600080fd5b506104d560048036038101906104d09190614406565b611e73565b005b3480156104e357600080fd5b506104ec61223e565b6040516104f991906143eb565b60405180910390f35b34801561050e57600080fd5b50610529600480360381019061052491906143af565b612268565b6040516105379291906146a2565b60405180910390f35b34801561054c57600080fd5b506105556125de565b60405161056291906146ec565b60405180910390f35b34801561057757600080fd5b50610592600480360381019061058d9190614707565b612604565b005b3480156105a057600080fd5b506105bb60048036038101906105b69190614747565b612751565b005b3480156105c957600080fd5b506105e460048036038101906105df91906147c2565b61293a565b005b3480156105f257600080fd5b5061060d600480360381019061060891906140c9565b612a9a565b60405161061a9190614105565b60405180910390f35b34801561062f57600080fd5b5061064a600480360381019061064591906143af565b612c04565b005b34801561065857600080fd5b50610661612c94565b60405161066e9190614836565b60405180910390f35b61067f612cba565b005b34801561068d57600080fd5b50610696612e5c565b6040516106a391906143eb565b60405180910390f35b3480156106b857600080fd5b506106d360048036038101906106ce91906143af565b612e82565b005b3480156106e157600080fd5b506106ea612f7a565b6040516106f79190614872565b60405180910390f35b600080606660009054906101000a900473ffffffffffffffffffffffffffffffffffffffff1673ffffffffffffffffffffffffffffffffffffffff166318160ddd6040518163ffffffff1660e01b8152600401602060405180830381865afa158015610770573d6000803e3d6000fd5b505050506040513d601f19601f8201168201806040525081019061079491906148a2565b90506000606760009054906101000a900473ffffffffffffffffffffffffffffffffffffffff1673ffffffffffffffffffffffffffffffffffffffff166301d2b6ea6040518163ffffffff1660e01b8152600401602060405180830381865afa158015610805573d6000803e3d6000fd5b505050506040513d601f19601f8201168201806040525081019061082991906148a2565b9050600082148061083a5750600081145b15610849578392505050610865565b81818561085691906148fe565b6108609190614987565b925050505b919050565b3373ffffffffffffffffffffffffffffffffffffffff16606f60009054906101000a900473ffffffffffffffffffffffffffffffffffffffff1673ffffffffffffffffffffffffffffffffffffffff161415801561091657503373ffffffffffffffffffffffffffffffffffffffff16606e60009054906101000a900473ffffffffffffffffffffffffffffffffffffffff1673ffffffffffffffffffffffffffffffffffffffff1614155b1561095857336040517ff7eb25ef00000000000000000000000000000000000000000000000000000000815260040161094f91906143eb565b60405180910390fd5b606760009054906101000a900473ffffffffffffffffffffffffffffffffffffffff1673ffffffffffffffffffffffffffffffffffffffff1663f380ade3898987878b8b89896040518963ffffffff1660e01b81526004016109c1989796959493929190614aed565b600060405180830381600087803b1580156109db57600080fd5b505af11580156109ef573d6000803e3d6000fd5b505050505050505050505050565b610a05612fc3565b73ffffffffffffffffffffffffffffffffffffffff16610a2361223e565b73ffffffffffffffffffffffffffffffffffffffff1614610a79576040517f08c379a0000000000000000000000000000000000000000000000000000000008152600401610a7090614bb3565b60405180910390fd5b600073ffffffffffffffffffffffffffffffffffffffff168673ffffffffffffffffffffffffffffffffffffffff161480610ae05750600073ffffffffffffffffffffffffffffffffffffffff168573ffffffffffffffffffffffffffffffffffffffff16145b80610b175750600073ffffffffffffffffffffffffffffffffffffffff168473ffffffffffffffffffffffffffffffffffffffff16145b80610b4e5750600073ffffffffffffffffffffffffffffffffffffffff168373ffffffffffffffffffffffffffffffffffffffff16145b80610b855750600073ffffffffffffffffffffffffffffffffffffffff168273ffffffffffffffffffffffffffffffffffffffff16145b80610bbc5750600073ffffffffffffffffffffffffffffffffffffffff168173ffffffffffffffffffffffffffffffffffffffff16145b15610bf3576040517f0855380c00000000000000000000000000000000000000000000000000000000815260040160405180910390fd5b85606660006101000a81548173ffffffffffffffffffffffffffffffffffffffff021916908373ffffffffffffffffffffffffffffffffffffffff16021790555084606760006101000a81548173ffffffffffffffffffffffffffffffffffffffff021916908373ffffffffffffffffffffffffffffffffffffffff16021790555083606c60006101000a81548173ffffffffffffffffffffffffffffffffffffffff021916908373ffffffffffffffffffffffffffffffffffffffff16021790555082606d60006101000a81548173ffffffffffffffffffffffffffffffffffffffff021916908373ffffffffffffffffffffffffffffffffffffffff16021790555081606e60006101000a81548173ffffffffffffffffffffffffffffffffffffffff021916908373ffffffffffffffffffffffffffffffffffffffff16021790555080606f60006101000a81548173ffffffffffffffffffffffffffffffffffffffff021916908373ffffffffffffffffffffffffffffffffffffffff1602179055508373ffffffffffffffffffffffffffffffffffffffff167f77001ab3bb5b4e91a2a4021cec272d6505154d5ff1fb2e8426752b15bd8ef16d60405160405180910390a2505050505050565b600080610dd083612fcb565b90506000811415610de5576000915050610f62565b6000610def6130ff565b73ffffffffffffffffffffffffffffffffffffffff16633861727285606760009054906101000a900473ffffffffffffffffffffffffffffffffffffffff166040518363ffffffff1660e01b8152600401610e4b929190614bd3565b602060405180830381865afa158015610e68573d6000803e3d6000fd5b505050506040513d601f19601f82011682018060405250810190610e8c91906148a2565b90506000606760009054906101000a900473ffffffffffffffffffffffffffffffffffffffff1673ffffffffffffffffffffffffffffffffffffffff1663acd201d0866040518263ffffffff1660e01b8152600401610eeb91906143eb565b602060405180830381865afa158015610f08573d6000803e3d6000fd5b505050506040513d601f19601f82011682018060405250810190610f2c91906148a2565b90508183610f3a9190614bfc565b925080831015610f505760009350505050610f62565b8083610f5c9190614c52565b93505050505b919050565b600080610fd583607060003373ffffffffffffffffffffffffffffffffffffffff1673ffffffffffffffffffffffffffffffffffffffff16815260200190815260200160002060009054906101000a900473ffffffffffffffffffffffffffffffffffffffff1660006131c6565b91509150606760009054906101000a900473ffffffffffffffffffffffffffffffffffffffff1673ffffffffffffffffffffffffffffffffffffffff16632f842a1a3384846040518463ffffffff1660e01b815260040161103893929190614db9565b600060405180830381600087803b15801561105257600080fd5b505af1158015611066573d6000803e3d6000fd5b50505050606660009054906101000a900473ffffffffffffffffffffffffffffffffffffffff1673ffffffffffffffffffffffffffffffffffffffff16639dc29fac33856040518363ffffffff1660e01b81526004016110c7929190614dfe565b600060405180830381600087803b1580156110e157600080fd5b505af11580156110f5573d6000803e3d6000fd5b50505050505050565b7f000000000000000000000000000000000000000000000000000000000000000073ffffffffffffffffffffffffffffffffffffffff163073ffffffffffffffffffffffffffffffffffffffff16141561118d576040517f08c379a000000000000000000000000000000000000000000000000000000000815260040161118490614e99565b60405180910390fd5b7f000000000000000000000000000000000000000000000000000000000000000073ffffffffffffffffffffffffffffffffffffffff166111cc6133bb565b73ffffffffffffffffffffffffffffffffffffffff1614611222576040517f08c379a000000000000000000000000000000000000000000000000000000000815260040161121990614f2b565b60405180910390fd5b61122b81613412565b61128481600067ffffffffffffffff81111561124a5761124961445c565b5b6040519080825280601f01601f19166020018201604052801561127c5781602001600182028036833780820191505090505b506000613491565b50565b60706020528060005260406000206000915054906101000a900473ffffffffffffffffffffffffffffffffffffffff1681565b600060019054906101000a900460ff166112e25760008054906101000a900460ff16156112eb565b6112ea613662565b5b61132a576040517f08c379a000000000000000000000000000000000000000000000000000000000815260040161132190614fbd565b60405180910390fd5b60008060019054906101000a900460ff16159050801561137a576001600060016101000a81548160ff02191690831515021790555060016000806101000a81548160ff0219169083151502179055505b61138382613673565b61138c83613739565b80156113ad5760008060016101000a81548160ff0219169083151502179055505b505050565b600080606c60009054906101000a900473ffffffffffffffffffffffffffffffffffffffff1690508073ffffffffffffffffffffffffffffffffffffffff166348fd6ea6846040518263ffffffff1660e01b815260040161141391906143eb565b6020604051808303816000875af1158015611432573d6000803e3d6000fd5b505050506040513d601f19601f8201168201806040525081019061145691906148a2565b915050919050565b600080607060008473ffffffffffffffffffffffffffffffffffffffff1673ffffffffffffffffffffffffffffffffffffffff16815260200190815260200160002060009054906101000a900473ffffffffffffffffffffffffffffffffffffffff169050600073ffffffffffffffffffffffffffffffffffffffff168173ffffffffffffffffffffffffffffffffffffffff161415801561163c5750606e60009054906101000a900473ffffffffffffffffffffffffffffffffffffffff1673ffffffffffffffffffffffffffffffffffffffff1663cc222f8d826040518263ffffffff1660e01b815260040161155691906143eb565b602060405180830381865afa158015611573573d6000803e3d6000fd5b505050506040513d601f19601f820116820180604052508101906115979190615015565b8061163b5750606d60009054906101000a900473ffffffffffffffffffffffffffffffffffffffff1673ffffffffffffffffffffffffffffffffffffffff1663ac8f4425826040518263ffffffff1660e01b81526004016115f891906143eb565b602060405180830381865afa158015611615573d6000803e3d6000fd5b505050506040513d601f19601f820116820180604052508101906116399190615015565b155b5b1561164b576000915050611650565b809150505b919050565b7f000000000000000000000000000000000000000000000000000000000000000073ffffffffffffffffffffffffffffffffffffffff163073ffffffffffffffffffffffffffffffffffffffff1614156116e4576040517f08c379a00000000000000000000000000000000000000000000000000000000081526004016116db90614e99565b60405180910390fd5b7f000000000000000000000000000000000000000000000000000000000000000073ffffffffffffffffffffffffffffffffffffffff166117236133bb565b73ffffffffffffffffffffffffffffffffffffffff1614611779576040517f08c379a000000000000000000000000000000000000000000000000000000000815260040161177090614f2b565b60405180910390fd5b61178282613412565b61178e82826001613491565b5050565b60008060008060016003600080935093509350935090919293565b606f60009054906101000a900473ffffffffffffffffffffffffffffffffffffffff1673ffffffffffffffffffffffffffffffffffffffff16639f8a13d7826040518263ffffffff1660e01b815260040161180891906143eb565b602060405180830381865afa158015611825573d6000803e3d6000fd5b505050506040513d601f19601f820116820180604052508101906118499190615015565b1580156118ee5750606e60009054906101000a900473ffffffffffffffffffffffffffffffffffffffff1673ffffffffffffffffffffffffffffffffffffffff1663cc222f8d826040518263ffffffff1660e01b81526004016118ac91906143eb565b602060405180830381865afa1580156118c9573d6000803e3d6000fd5b505050506040513d601f19601f820116820180604052508101906118ed9190615015565b5b1561193057806040517f5a08158400000000000000000000000000000000000000000000000000000000815260040161192791906143eb565b60405180910390fd5b60008061193c84612268565b91509150818111611988578381836040517f2c4f8ec800000000000000000000000000000000000000000000000000000000815260040161197f93929190615042565b60405180910390fd5b60008061199485612268565b915091508181106119e0578481836040517fb0006ace0000000000000000000000000000000000000000000000000000000081526004016119d793929190615042565b60405180910390fd5b60006119eb86610dc4565b90506000811415611a3357856040517fb9183a08000000000000000000000000000000000000000000000000000000008152600401611a2a91906143eb565b60405180910390fd5b6000611a5e611a588787611a479190614c52565b8587611a539190614c52565b61384a565b8361384a565b9050611a6b888883613863565b5050505050505050565b611a7d612fc3565b73ffffffffffffffffffffffffffffffffffffffff16611a9b61223e565b73ffffffffffffffffffffffffffffffffffffffff1614611af1576040517f08c379a0000000000000000000000000000000000000000000000000000000008152600401611ae890614bb3565b60405180910390fd5b611afb6000613673565b565b600073ffffffffffffffffffffffffffffffffffffffff168173ffffffffffffffffffffffffffffffffffffffff1614158015611c765750606e60009054906101000a900473ffffffffffffffffffffffffffffffffffffffff1673ffffffffffffffffffffffffffffffffffffffff1663cc222f8d826040518263ffffffff1660e01b8152600401611b9091906143eb565b602060405180830381865afa158015611bad573d6000803e3d6000fd5b505050506040513d601f19601f82011682018060405250810190611bd19190615015565b80611c755750606d60009054906101000a900473ffffffffffffffffffffffffffffffffffffffff1673ffffffffffffffffffffffffffffffffffffffff1663ac8f4425826040518263ffffffff1660e01b8152600401611c3291906143eb565b602060405180830381865afa158015611c4f573d6000803e3d6000fd5b505050506040513d601f19601f82011682018060405250810190611c739190615015565b155b5b15611cb857806040517f10a7bc6b000000000000000000000000000000000000000000000000000000008152600401611caf91906143eb565b60405180910390fd5b6000606660009054906101000a900473ffffffffffffffffffffffffffffffffffffffff1673ffffffffffffffffffffffffffffffffffffffff166370a08231336040518263ffffffff1660e01b8152600401611d1591906143eb565b602060405180830381865afa158015611d32573d6000803e3d6000fd5b505050506040513d601f19601f82011682018060405250810190611d5691906148a2565b905060008114611dcb57611dca607060003373ffffffffffffffffffffffffffffffffffffffff1673ffffffffffffffffffffffffffffffffffffffff16815260200190815260200160002060009054906101000a900473ffffffffffffffffffffffffffffffffffffffff168383613b32565b5b81607060003373ffffffffffffffffffffffffffffffffffffffff1673ffffffffffffffffffffffffffffffffffffffff16815260200190815260200160002060006101000a81548173ffffffffffffffffffffffffffffffffffffffff021916908373ffffffffffffffffffffffffffffffffffffffff1602179055505050565b606560009054906101000a900473ffffffffffffffffffffffffffffffffffffffff1681565b606f60009054906101000a900473ffffffffffffffffffffffffffffffffffffffff1673ffffffffffffffffffffffffffffffffffffffff16639f8a13d7826040518263ffffffff1660e01b8152600401611ece91906143eb565b602060405180830381865afa158015611eeb573d6000803e3d6000fd5b505050506040513d601f19601f82011682018060405250810190611f0f9190615015565b611f5057806040517f5a081584000000000000000000000000000000000000000000000000000000008152600401611f4791906143eb565b60405180910390fd5b6000611f5b83612fcb565b90506000606760009054906101000a900473ffffffffffffffffffffffffffffffffffffffff1673ffffffffffffffffffffffffffffffffffffffff1663b09bdc5e856040518263ffffffff1660e01b8152600401611fba91906143eb565b602060405180830381865afa158015611fd7573d6000803e3d6000fd5b505050506040513d601f19601f82011682018060405250810190611ffb91906148a2565b606760009054906101000a900473ffffffffffffffffffffffffffffffffffffffff1673ffffffffffffffffffffffffffffffffffffffff166322e59bd4866040518263ffffffff1660e01b815260040161205691906143eb565b602060405180830381865afa158015612073573d6000803e3d6000fd5b505050506040513d601f19601f8201168201806040525081019061209791906148a2565b6120a19190614bfc565b90506000606760009054906101000a900473ffffffffffffffffffffffffffffffffffffffff1673ffffffffffffffffffffffffffffffffffffffff16635fd5c95e866040518263ffffffff1660e01b815260040161210091906143eb565b602060405180830381865afa15801561211d573d6000803e3d6000fd5b505050506040513d601f19601f8201168201806040525081019061214191906148a2565b90506000828211612153576000612160565b828261215f9190614c52565b5b9050600084821161217257600061217f565b848261217e9190614c52565b5b905060008114156121c757866040517f1eeadf530000000000000000000000000000000000000000000000000000000081526004016121be91906143eb565b60405180910390fd5b60006121d287610dc4565b9050600081141561221a57866040517fb9183a0800000000000000000000000000000000000000000000000000000000815260040161221191906143eb565b60405180910390fd5b6000612226838361384a565b9050612233898983613863565b505050505050505050565b6000603360009054906101000a900473ffffffffffffffffffffffffffffffffffffffff16905090565b600080606760009054906101000a900473ffffffffffffffffffffffffffffffffffffffff1673ffffffffffffffffffffffffffffffffffffffff1663acd201d0846040518263ffffffff1660e01b81526004016122c691906143eb565b602060405180830381865afa1580156122e3573d6000803e3d6000fd5b505050506040513d601f19601f8201168201806040525081019061230791906148a2565b90506000606e60009054906101000a900473ffffffffffffffffffffffffffffffffffffffff1673ffffffffffffffffffffffffffffffffffffffff1663cc222f8d856040518263ffffffff1660e01b815260040161236691906143eb565b602060405180830381865afa158015612383573d6000803e3d6000fd5b505050506040513d601f19601f820116820180604052508101906123a79190615015565b1590506000606f60009054906101000a900473ffffffffffffffffffffffffffffffffffffffff1673ffffffffffffffffffffffffffffffffffffffff16639f8a13d7866040518263ffffffff1660e01b815260040161240791906143eb565b602060405180830381865afa158015612424573d6000803e3d6000fd5b505050506040513d601f19601f820116820180604052508101906124489190615015565b9050600080831561251a57600080606e60009054906101000a900473ffffffffffffffffffffffffffffffffffffffff1673ffffffffffffffffffffffffffffffffffffffff166356ab819f8a6040518263ffffffff1660e01b81526004016124b191906143eb565b606060405180830381865afa1580156124ce573d6000803e3d6000fd5b505050506040513d601f19601f820116820180604052508101906124f29190615079565b809350819450829650505050808261250a9190614bfc565b846125159190614c52565b935050505b82156125bf57606f60009054906101000a900473ffffffffffffffffffffffffffffffffffffffff1673ffffffffffffffffffffffffffffffffffffffff166385a92cb7886040518263ffffffff1660e01b815260040161257b91906143eb565b602060405180830381865afa158015612598573d6000803e3d6000fd5b505050506040513d601f19601f820116820180604052508101906125bc91906148a2565b90505b6125d381836125ce9190614bfc565b610700565b955050505050915091565b606d60009054906101000a900473ffffffffffffffffffffffffffffffffffffffff1681565b6000606c60009054906101000a900473ffffffffffffffffffffffffffffffffffffffff16905060008060008373ffffffffffffffffffffffffffffffffffffffff1663c40da15c33886040518363ffffffff1660e01b815260040161266b929190614dfe565b6060604051808303816000875af115801561268a573d6000803e3d6000fd5b505050506040513d601f19601f820116820180604052508101906126ae9190615079565b925092509250606760009054906101000a900473ffffffffffffffffffffffffffffffffffffffff1673ffffffffffffffffffffffffffffffffffffffff16632edfd12e87878686866040518663ffffffff1660e01b81526004016127179594939291906150cc565b600060405180830381600087803b15801561273157600080fd5b505af1158015612745573d6000803e3d6000fd5b50505050505050505050565b6000606c60009054906101000a900473ffffffffffffffffffffffffffffffffffffffff1690506000806000808473ffffffffffffffffffffffffffffffffffffffff16634c23f22e338c8b8b8b6040518663ffffffff1660e01b81526004016127bf95949392919061511f565b6080604051808303816000875af11580156127de573d6000803e3d6000fd5b505050506040513d601f19601f820116820180604052508101906128029190615172565b9350935093509350606660009054906101000a900473ffffffffffffffffffffffffffffffffffffffff1673ffffffffffffffffffffffffffffffffffffffff16639caa9e2933866040518363ffffffff1660e01b8152600401612867929190614dfe565b600060405180830381600087803b15801561288157600080fd5b505af1158015612895573d6000803e3d6000fd5b50505050606760009054906101000a900473ffffffffffffffffffffffffffffffffffffffff1673ffffffffffffffffffffffffffffffffffffffff16632edfd12e8b8b8686866040518663ffffffff1660e01b81526004016128fc9594939291906150cc565b600060405180830381600087803b15801561291657600080fd5b505af115801561292a573d6000803e3d6000fd5b5050505050505050505050505050565b3373ffffffffffffffffffffffffffffffffffffffff16606660009054906101000a900473ffffffffffffffffffffffffffffffffffffffff1673ffffffffffffffffffffffffffffffffffffffff16146129cc57336040517f4a653c6a0000000000000000000000000000000000000000000000000000000081526004016129c391906143eb565b60405180910390fd5b612a95607060008573ffffffffffffffffffffffffffffffffffffffff1673ffffffffffffffffffffffffffffffffffffffff16815260200190815260200160002060009054906101000a900473ffffffffffffffffffffffffffffffffffffffff16607060008573ffffffffffffffffffffffffffffffffffffffff1673ffffffffffffffffffffffffffffffffffffffff16815260200190815260200160002060009054906101000a900473ffffffffffffffffffffffffffffffffffffffff1683613b32565b505050565b600080606660009054906101000a900473ffffffffffffffffffffffffffffffffffffffff1673ffffffffffffffffffffffffffffffffffffffff166318160ddd6040518163ffffffff1660e01b8152600401602060405180830381865afa158015612b0a573d6000803e3d6000fd5b505050506040513d601f19601f82011682018060405250810190612b2e91906148a2565b90506000606760009054906101000a900473ffffffffffffffffffffffffffffffffffffffff1673ffffffffffffffffffffffffffffffffffffffff166301d2b6ea6040518163ffffffff1660e01b8152600401602060405180830381865afa158015612b9f573d6000803e3d6000fd5b505050506040513d601f19601f82011682018060405250810190612bc391906148a2565b90506000821480612bd45750600081145b15612be3578392505050612bff565b808285612bf091906148fe565b612bfa9190614987565b925050505b919050565b606660009054906101000a900473ffffffffffffffffffffffffffffffffffffffff1673ffffffffffffffffffffffffffffffffffffffff1663e37d49b8826040518263ffffffff1660e01b8152600401612c5f91906143eb565b600060405180830381600087803b158015612c7957600080fd5b505af1158015612c8d573d6000803e3d6000fd5b5050505050565b606e60009054906101000a900473ffffffffffffffffffffffffffffffffffffffff1681565b6000612cc534612a9a565b9050600080612d343484607060003373ffffffffffffffffffffffffffffffffffffffff1673ffffffffffffffffffffffffffffffffffffffff16815260200190815260200160002060009054906101000a900473ffffffffffffffffffffffffffffffffffffffff16613b7c565b91509150606660009054906101000a900473ffffffffffffffffffffffffffffffffffffffff1673ffffffffffffffffffffffffffffffffffffffff166340c10f1933856040518363ffffffff1660e01b8152600401612d95929190614dfe565b600060405180830381600087803b158015612daf57600080fd5b505af1158015612dc3573d6000803e3d6000fd5b50505050606760009054906101000a900473ffffffffffffffffffffffffffffffffffffffff1673ffffffffffffffffffffffffffffffffffffffff166301c21d593484846040518463ffffffff1660e01b8152600401612e259291906151d9565b6000604051808303818588803b158015612e3e57600080fd5b505af1158015612e52573d6000803e3d6000fd5b5050505050505050565b606c60009054906101000a900473ffffffffffffffffffffffffffffffffffffffff1681565b612e8a612fc3565b73ffffffffffffffffffffffffffffffffffffffff16612ea861223e565b73ffffffffffffffffffffffffffffffffffffffff1614612efe576040517f08c379a0000000000000000000000000000000000000000000000000000000008152600401612ef590614bb3565b60405180910390fd5b600073ffffffffffffffffffffffffffffffffffffffff168173ffffffffffffffffffffffffffffffffffffffff161415612f6e576040517f08c379a0000000000000000000000000000000000000000000000000000000008152600401612f6590615282565b60405180910390fd5b612f7781613673565b50565b606f60009054906101000a900473ffffffffffffffffffffffffffffffffffffffff1681565b6000808273ffffffffffffffffffffffffffffffffffffffff163b119050919050565b600033905090565b600080612fd66130ff565b73ffffffffffffffffffffffffffffffffffffffff16632c3b7916846040518263ffffffff1660e01b815260040161300e91906143eb565b602060405180830381865afa15801561302b573d6000803e3d6000fd5b505050506040513d601f19601f8201168201806040525081019061304f91906148a2565b9050600061305b6130ff565b73ffffffffffffffffffffffffffffffffffffffff1663dedafeae856040518263ffffffff1660e01b815260040161309391906143eb565b602060405180830381865afa1580156130b0573d6000803e3d6000fd5b505050506040513d601f19601f820116820180604052508101906130d491906148a2565b9050808210156130e9576000925050506130fa565b80826130f59190614c52565b925050505b919050565b6000606560009054906101000a900473ffffffffffffffffffffffffffffffffffffffff1673ffffffffffffffffffffffffffffffffffffffff1663dcf0aaed60405160200161314e906152f9565b604051602081830303815290604052805190602001206040518263ffffffff1660e01b81526004016131809190615327565b602060405180830381865afa15801561319d573d6000803e3d6000fd5b505050506040513d601f19601f820116820180604052508101906131c19190615357565b905090565b60608060006131d486610700565b90506000811415613211576040517fc60050c000000000000000000000000000000000000000000000000000000000815260040160405180910390fd5b606080600073ffffffffffffffffffffffffffffffffffffffff168773ffffffffffffffffffffffffffffffffffffffff16146132fe57606e60009054906101000a900473ffffffffffffffffffffffffffffffffffffffff1673ffffffffffffffffffffffffffffffffffffffff16635c650b5f88858b8a6040518563ffffffff1660e01b81526004016132a99493929190615393565b6000604051808303816000875af11580156132c8573d6000803e3d6000fd5b505050506040513d6000823e3d601f19601f820116820180604052508101906132f1919061555e565b80925081935050506133aa565b606f60009054906101000a900473ffffffffffffffffffffffffffffffffffffffff1673ffffffffffffffffffffffffffffffffffffffff166336691a41846040518263ffffffff1660e01b81526004016133599190614105565b6000604051808303816000875af1158015613378573d6000803e3d6000fd5b505050506040513d6000823e3d601f19601f820116820180604052508101906133a1919061555e565b80925081935050505b818194509450505050935093915050565b60006133e97f360894a13ba1a3210667c828492db98dca3e2076cc3735a920a3ca505d382bbc60001b613d1e565b60000160009054906101000a900473ffffffffffffffffffffffffffffffffffffffff16905090565b61341a612fc3565b73ffffffffffffffffffffffffffffffffffffffff1661343861223e565b73ffffffffffffffffffffffffffffffffffffffff161461348e576040517f08c379a000000000000000000000000000000000000000000000000000000000815260040161348590614bb3565b60405180910390fd5b50565b600061349b6133bb565b90506134a684613d28565b6000835111806134b35750815b156134c4576134c28484613de1565b505b60006134f27f4910fdfa16fed3260ed0e7147f7cc6da11a60208b5b9406d12a635614ffd914360001b613e0e565b90508060000160009054906101000a900460ff1661365b5760018160000160006101000a81548160ff0219169083151502179055506135be858360405160240161353c91906143eb565b6040516020818303038152906040527f3659cfe6000000000000000000000000000000000000000000000000000000007bffffffffffffffffffffffffffffffffffffffffffffffffffffffff19166020820180517bffffffffffffffffffffffffffffffffffffffffffffffffffffffff8381831617835250505050613de1565b5060008160000160006101000a81548160ff0219169083151502179055506135e46133bb565b73ffffffffffffffffffffffffffffffffffffffff168273ffffffffffffffffffffffffffffffffffffffff1614613651576040517f08c379a000000000000000000000000000000000000000000000000000000000815260040161364890615648565b60405180910390fd5b61365a85613e18565b5b5050505050565b600061366d30612fa0565b15905090565b6000603360009054906101000a900473ffffffffffffffffffffffffffffffffffffffff16905081603360006101000a81548173ffffffffffffffffffffffffffffffffffffffff021916908373ffffffffffffffffffffffffffffffffffffffff1602179055508173ffffffffffffffffffffffffffffffffffffffff168173ffffffffffffffffffffffffffffffffffffffff167f8be0079c531659141344cd1fd0a4f28419497f9722a3daafe3b4186f6b6457e060405160405180910390a35050565b600060019054906101000a900460ff16613788576040517f08c379a000000000000000000000000000000000000000000000000000000000815260040161377f906156da565b60405180910390fd5b600073ffffffffffffffffffffffffffffffffffffffff168173ffffffffffffffffffffffffffffffffffffffff1614156138055761ce10606560006101000a81548173ffffffffffffffffffffffffffffffffffffffff021916908373ffffffffffffffffffffffffffffffffffffffff160217905550613847565b80606560006101000a81548173ffffffffffffffffffffffffffffffffffffffff021916908373ffffffffffffffffffffffffffffffffffffffff1602179055505b50565b6000818310613859578161385b565b825b905092915050565b6000600167ffffffffffffffff8111156138805761387f61445c565b5b6040519080825280602002602001820160405280156138ae5781602001602082028036833780820191505090505b5090506000600167ffffffffffffffff8111156138ce576138cd61445c565b5b6040519080825280602002602001820160405280156138fc5781602001602082028036833780820191505090505b5090506000600167ffffffffffffffff81111561391c5761391b61445c565b5b60405190808252806020026020018201604052801561394a5781602001602082028036833780820191505090505b5090506000600167ffffffffffffffff81111561396a5761396961445c565b5b6040519080825280602002602001820160405280156139985781602001602082028036833780820191505090505b50905086846000815181106139b0576139af6156fa565b5b602002602001019073ffffffffffffffffffffffffffffffffffffffff16908173ffffffffffffffffffffffffffffffffffffffff168152505084826000815181106139ff576139fe6156fa565b5b6020026020010181815250508583600081518110613a2057613a1f6156fa565b5b602002602001019073ffffffffffffffffffffffffffffffffffffffff16908173ffffffffffffffffffffffffffffffffffffffff168152505081600081518110613a6e57613a6d6156fa565b5b602002602001015181600081518110613a8a57613a896156fa565b5b602002602001018181525050606760009054906101000a900473ffffffffffffffffffffffffffffffffffffffff1673ffffffffffffffffffffffffffffffffffffffff1663f380ade3858486856040518563ffffffff1660e01b8152600401613af79493929190615729565b600060405180830381600087803b158015613b1157600080fd5b505af1158015613b25573d6000803e3d6000fd5b5050505050505050505050565b8173ffffffffffffffffffffffffffffffffffffffff168373ffffffffffffffffffffffffffffffffffffffff161415613b6b57613b77565b613b76838383613e67565b5b505050565b606080600073ffffffffffffffffffffffffffffffffffffffff168373ffffffffffffffffffffffffffffffffffffffff1614613c6757606e60009054906101000a900473ffffffffffffffffffffffffffffffffffffffff1673ffffffffffffffffffffffffffffffffffffffff1663cd1528588487876040518463ffffffff1660e01b8152600401613c1293929190615042565b6000604051808303816000875af1158015613c31573d6000803e3d6000fd5b505050506040513d6000823e3d601f19601f82011682018060405250810190613c5a919061555e565b8092508193505050613d16565b606f60009054906101000a900473ffffffffffffffffffffffffffffffffffffffff1673ffffffffffffffffffffffffffffffffffffffff1663e0cd8d278660006040518363ffffffff1660e01b8152600401613cc592919061578a565b6000604051808303816000875af1158015613ce4573d6000803e3d6000fd5b505050506040513d6000823e3d601f19601f82011682018060405250810190613d0d919061555e565b80925081935050505b935093915050565b6000819050919050565b613d3181613f38565b613d70576040517f08c379a0000000000000000000000000000000000000000000000000000000008152600401613d6790615825565b60405180910390fd5b80613d9d7f360894a13ba1a3210667c828492db98dca3e2076cc3735a920a3ca505d382bbc60001b613d1e565b60000160006101000a81548173ffffffffffffffffffffffffffffffffffffffff021916908373ffffffffffffffffffffffffffffffffffffffff16021790555050565b6060613e0683836040518060600160405280602781526020016159cf60279139613f4b565b905092915050565b6000819050919050565b613e2181613d28565b8073ffffffffffffffffffffffffffffffffffffffff167fbc7cd75a20ee27fd9adebab32041f755214dbc6bffa90cc0225b39da2e5c2d3b60405160405180910390a250565b606080613e76838660016131c6565b8092508193505050606080613e94613e8d86610700565b8688613b7c565b8092508193505050606760009054906101000a900473ffffffffffffffffffffffffffffffffffffffff1673ffffffffffffffffffffffffffffffffffffffff1663f380ade3858585856040518563ffffffff1660e01b8152600401613efd9493929190615729565b600060405180830381600087803b158015613f1757600080fd5b505af1158015613f2b573d6000803e3d6000fd5b5050505050505050505050565b600080823b905060008111915050919050565b6060613f5684613f38565b613f95576040517f08c379a0000000000000000000000000000000000000000000000000000000008152600401613f8c906158b7565b60405180910390fd5b6000808573ffffffffffffffffffffffffffffffffffffffff1685604051613fbd9190615951565b600060405180830381855af49150503d8060008114613ff8576040519150601f19603f3d011682016040523d82523d6000602084013e613ffd565b606091505b509150915061400d828286614018565b925050509392505050565b6060831561402857829050614078565b60008351111561403b5782518084602001fd5b816040517f08c379a000000000000000000000000000000000000000000000000000000000815260040161406f91906159ac565b60405180910390fd5b9392505050565b6000604051905090565b600080fd5b600080fd5b6000819050919050565b6140a681614093565b81146140b157600080fd5b50565b6000813590506140c38161409d565b92915050565b6000602082840312156140df576140de614089565b5b60006140ed848285016140b4565b91505092915050565b6140ff81614093565b82525050565b600060208201905061411a60008301846140f6565b92915050565b600080fd5b600080fd5b600080fd5b60008083601f84011261414557614144614120565b5b8235905067ffffffffffffffff81111561416257614161614125565b5b60208301915083602082028301111561417e5761417d61412a565b5b9250929050565b60008083601f84011261419b5761419a614120565b5b8235905067ffffffffffffffff8111156141b8576141b7614125565b5b6020830191508360208202830111156141d4576141d361412a565b5b9250929050565b6000806000806000806000806080898b0312156141fb576141fa614089565b5b600089013567ffffffffffffffff8111156142195761421861408e565b5b6142258b828c0161412f565b9850985050602089013567ffffffffffffffff8111156142485761424761408e565b5b6142548b828c0161412f565b9650965050604089013567ffffffffffffffff8111156142775761427661408e565b5b6142838b828c01614185565b9450945050606089013567ffffffffffffffff8111156142a6576142a561408e565b5b6142b28b828c01614185565b92509250509295985092959890939650565b600073ffffffffffffffffffffffffffffffffffffffff82169050919050565b60006142ef826142c4565b9050919050565b6142ff816142e4565b811461430a57600080fd5b50565b60008135905061431c816142f6565b92915050565b60008060008060008060c0878903121561433f5761433e614089565b5b600061434d89828a0161430d565b965050602061435e89828a0161430d565b955050604061436f89828a0161430d565b945050606061438089828a0161430d565b935050608061439189828a0161430d565b92505060a06143a289828a0161430d565b9150509295509295509295565b6000602082840312156143c5576143c4614089565b5b60006143d38482850161430d565b91505092915050565b6143e5816142e4565b82525050565b600060208201905061440060008301846143dc565b92915050565b6000806040838503121561441d5761441c614089565b5b600061442b8582860161430d565b925050602061443c8582860161430d565b9150509250929050565b600080fd5b6000601f19601f8301169050919050565b7f4e487b7100000000000000000000000000000000000000000000000000000000600052604160045260246000fd5b6144948261444b565b810181811067ffffffffffffffff821117156144b3576144b261445c565b5b80604052505050565b60006144c661407f565b90506144d2828261448b565b919050565b600067ffffffffffffffff8211156144f2576144f161445c565b5b6144fb8261444b565b9050602081019050919050565b82818337600083830152505050565b600061452a614525846144d7565b6144bc565b90508281526020810184848401111561454657614545614446565b5b614551848285614508565b509392505050565b600082601f83011261456e5761456d614120565b5b813561457e848260208601614517565b91505092915050565b6000806040838503121561459e5761459d614089565b5b60006145ac8582860161430d565b925050602083013567ffffffffffffffff8111156145cd576145cc61408e565b5b6145d985828601614559565b9150509250929050565b60006080820190506145f860008301876140f6565b61460560208301866140f6565b61461260408301856140f6565b61461f60608301846140f6565b95945050505050565b6000819050919050565b600061464d614648614643846142c4565b614628565b6142c4565b9050919050565b600061465f82614632565b9050919050565b600061467182614654565b9050919050565b61468181614666565b82525050565b600060208201905061469c6000830184614678565b92915050565b60006040820190506146b760008301856140f6565b6146c460208301846140f6565b9392505050565b60006146d682614654565b9050919050565b6146e6816146cb565b82525050565b600060208201905061470160008301846146dd565b92915050565b6000806040838503121561471e5761471d614089565b5b600061472c858286016140b4565b925050602061473d858286016140b4565b9150509250929050565b600080600080600060a0868803121561476357614762614089565b5b6000614771888289016140b4565b9550506020614782888289016140b4565b9450506040614793888289016140b4565b93505060606147a4888289016140b4565b92505060806147b5888289016140b4565b9150509295509295909350565b6000806000606084860312156147db576147da614089565b5b60006147e98682870161430d565b93505060206147fa8682870161430d565b925050604061480b868287016140b4565b9150509250925092565b600061482082614654565b9050919050565b61483081614815565b82525050565b600060208201905061484b6000830184614827565b92915050565b600061485c82614654565b9050919050565b61486c81614851565b82525050565b60006020820190506148876000830184614863565b92915050565b60008151905061489c8161409d565b92915050565b6000602082840312156148b8576148b7614089565b5b60006148c68482850161488d565b91505092915050565b7f4e487b7100000000000000000000000000000000000000000000000000000000600052601160045260246000fd5b600061490982614093565b915061491483614093565b9250817fffffffffffffffffffffffffffffffffffffffffffffffffffffffffffffffff048311821515161561494d5761494c6148cf565b5b828202905092915050565b7f4e487b7100000000000000000000000000000000000000000000000000000000600052601260045260246000fd5b600061499282614093565b915061499d83614093565b9250826149ad576149ac614958565b5b828204905092915050565b600082825260208201905092915050565b6000819050919050565b6149dc816142e4565b82525050565b60006149ee83836149d3565b60208301905092915050565b6000614a09602084018461430d565b905092915050565b6000602082019050919050565b6000614a2a83856149b8565b9350614a35826149c9565b8060005b85811015614a6e57614a4b82846149fa565b614a5588826149e2565b9750614a6083614a11565b925050600181019050614a39565b5085925050509392505050565b600082825260208201905092915050565b600080fd5b6000614a9d8385614a7b565b93507f07ffffffffffffffffffffffffffffffffffffffffffffffffffffffffffffff831115614ad057614acf614a8c565b5b602083029250614ae1838584614508565b82840190509392505050565b60006080820190508181036000830152614b08818a8c614a1e565b90508181036020830152614b1d81888a614a91565b90508181036040830152614b32818688614a1e565b90508181036060830152614b47818486614a91565b90509998505050505050505050565b600082825260208201905092915050565b7f4f776e61626c653a2063616c6c6572206973206e6f7420746865206f776e6572600082015250565b6000614b9d602083614b56565b9150614ba882614b67565b602082019050919050565b60006020820190508181036000830152614bcc81614b90565b9050919050565b6000604082019050614be860008301856143dc565b614bf560208301846143dc565b9392505050565b6000614c0782614093565b9150614c1283614093565b9250827fffffffffffffffffffffffffffffffffffffffffffffffffffffffffffffffff03821115614c4757614c466148cf565b5b828201905092915050565b6000614c5d82614093565b9150614c6883614093565b925082821015614c7b57614c7a6148cf565b5b828203905092915050565b600081519050919050565b6000819050602082019050919050565b6000602082019050919050565b6000614cb982614c86565b614cc381856149b8565b9350614cce83614c91565b8060005b83811015614cff578151614ce688826149e2565b9750614cf183614ca1565b925050600181019050614cd2565b5085935050505092915050565b600081519050919050565b6000819050602082019050919050565b614d3081614093565b82525050565b6000614d428383614d27565b60208301905092915050565b6000602082019050919050565b6000614d6682614d0c565b614d708185614a7b565b9350614d7b83614d17565b8060005b83811015614dac578151614d938882614d36565b9750614d9e83614d4e565b925050600181019050614d7f565b5085935050505092915050565b6000606082019050614dce60008301866143dc565b8181036020830152614de08185614cae565b90508181036040830152614df48184614d5b565b9050949350505050565b6000604082019050614e1360008301856143dc565b614e2060208301846140f6565b9392505050565b7f46756e6374696f6e206d7573742062652063616c6c6564207468726f7567682060008201527f64656c656761746563616c6c0000000000000000000000000000000000000000602082015250565b6000614e83602c83614b56565b9150614e8e82614e27565b604082019050919050565b60006020820190508181036000830152614eb281614e76565b9050919050565b7f46756e6374696f6e206d7573742062652063616c6c6564207468726f7567682060008201527f6163746976652070726f78790000000000000000000000000000000000000000602082015250565b6000614f15602c83614b56565b9150614f2082614eb9565b604082019050919050565b60006020820190508181036000830152614f4481614f08565b9050919050565b7f496e697469616c697a61626c653a20636f6e747261637420697320616c72656160008201527f647920696e697469616c697a6564000000000000000000000000000000000000602082015250565b6000614fa7602e83614b56565b9150614fb282614f4b565b604082019050919050565b60006020820190508181036000830152614fd681614f9a565b9050919050565b60008115159050919050565b614ff281614fdd565b8114614ffd57600080fd5b50565b60008151905061500f81614fe9565b92915050565b60006020828403121561502b5761502a614089565b5b600061503984828501615000565b91505092915050565b600060608201905061505760008301866143dc565b61506460208301856140f6565b61507160408301846140f6565b949350505050565b60008060006060848603121561509257615091614089565b5b60006150a08682870161488d565b93505060206150b18682870161488d565b92505060406150c28682870161488d565b9150509250925092565b600060a0820190506150e160008301886140f6565b6150ee60208301876140f6565b6150fb60408301866140f6565b61510860608301856140f6565b61511560808301846140f6565b9695505050505050565b600060a08201905061513460008301886143dc565b61514160208301876140f6565b61514e60408301866140f6565b61515b60608301856140f6565b61516860808301846140f6565b9695505050505050565b6000806000806080858703121561518c5761518b614089565b5b600061519a8782880161488d565b94505060206151ab8782880161488d565b93505060406151bc8782880161488d565b92505060606151cd8782880161488d565b91505092959194509250565b600060408201905081810360008301526151f38185614cae565b905081810360208301526152078184614d5b565b90509392505050565b7f4f776e61626c653a206e6577206f776e657220697320746865207a65726f206160008201527f6464726573730000000000000000000000000000000000000000000000000000602082015250565b600061526c602683614b56565b915061527782615210565b604082019050919050565b6000602082019050818103600083015261529b8161525f565b9050919050565b600081905092915050565b7f456c656374696f6e000000000000000000000000000000000000000000000000600082015250565b60006152e36008836152a2565b91506152ee826152ad565b600882019050919050565b6000615304826152d6565b9150819050919050565b6000819050919050565b6153218161530e565b82525050565b600060208201905061533c6000830184615318565b92915050565b600081519050615351816142f6565b92915050565b60006020828403121561536d5761536c614089565b5b600061537b84828501615342565b91505092915050565b61538d81614fdd565b82525050565b60006080820190506153a860008301876143dc565b6153b560208301866140f6565b6153c260408301856140f6565b6153cf6060830184615384565b95945050505050565b600067ffffffffffffffff8211156153f3576153f261445c565b5b602082029050602081019050919050565b6000615417615412846153d8565b6144bc565b9050808382526020820190506020840283018581111561543a5761543961412a565b5b835b81811015615463578061544f8882615342565b84526020840193505060208101905061543c565b5050509392505050565b600082601f83011261548257615481614120565b5b8151615492848260208601615404565b91505092915050565b600067ffffffffffffffff8211156154b6576154b561445c565b5b602082029050602081019050919050565b60006154da6154d58461549b565b6144bc565b905080838252602082019050602084028301858111156154fd576154fc61412a565b5b835b818110156155265780615512888261488d565b8452602084019350506020810190506154ff565b5050509392505050565b600082601f83011261554557615544614120565b5b81516155558482602086016154c7565b91505092915050565b6000806040838503121561557557615574614089565b5b600083015167ffffffffffffffff8111156155935761559261408e565b5b61559f8582860161546d565b925050602083015167ffffffffffffffff8111156155c0576155bf61408e565b5b6155cc85828601615530565b9150509250929050565b7f45524331393637557067726164653a207570677261646520627265616b73206660008201527f7572746865722075706772616465730000000000000000000000000000000000602082015250565b6000615632602f83614b56565b915061563d826155d6565b604082019050919050565b6000602082019050818103600083015261566181615625565b9050919050565b7f496e697469616c697a61626c653a20636f6e7472616374206973206e6f74206960008201527f6e697469616c697a696e67000000000000000000000000000000000000000000602082015250565b60006156c4602b83614b56565b91506156cf82615668565b604082019050919050565b600060208201905081810360008301526156f3816156b7565b9050919050565b7f4e487b7100000000000000000000000000000000000000000000000000000000600052603260045260246000fd5b600060808201905081810360008301526157438187614cae565b905081810360208301526157578186614d5b565b9050818103604083015261576b8185614cae565b9050818103606083015261577f8184614d5b565b905095945050505050565b600060408201905061579f60008301856140f6565b6157ac60208301846143dc565b9392505050565b7f455243313936373a206e657720696d706c656d656e746174696f6e206973206e60008201527f6f74206120636f6e747261637400000000000000000000000000000000000000602082015250565b600061580f602d83614b56565b915061581a826157b3565b604082019050919050565b6000602082019050818103600083015261583e81615802565b9050919050565b7f416464726573733a2064656c65676174652063616c6c20746f206e6f6e2d636f60008201527f6e74726163740000000000000000000000000000000000000000000000000000602082015250565b60006158a1602683614b56565b91506158ac82615845565b604082019050919050565b600060208201905081810360008301526158d081615894565b9050919050565b600081519050919050565b600081905092915050565b60005b8381101561590b5780820151818401526020810190506158f0565b8381111561591a576000848401525b50505050565b600061592b826158d7565b61593581856158e2565b93506159458185602086016158ed565b80840191505092915050565b600061595d8284615920565b915081905092915050565b600081519050919050565b600061597e82615968565b6159888185614b56565b93506159988185602086016158ed565b6159a18161444b565b840191505092915050565b600060208201905081810360008301526159c68184615973565b90509291505056fe416464726573733a206c6f772d6c6576656c2064656c65676174652063616c6c206661696c6564a2646970667358221220d3f400a05419d0bc5ab9889a2a7f561acff7f86b3b271dafda9a01791255d21264736f6c634300080b0033",
  "devdoc": {
    "errors": {
      "CallerNotStakedCelo(address)": [
        {
          "params": {
            "caller": "`msg.sender` that called the function."
          }
        }
      ],
      "CallerNotStrategy(address)": [
        {
          "params": {
            "caller": "`msg.sender` that called the function."
          }
        }
      ],
      "FromGroupNotOverflowing(address)": [
        {
          "params": {
            "group": "The group's address."
          }
        }
      ],
      "GroupNotEligible(address)": [
        {
          "params": {
            "group": "The group's address."
          }
        }
      ],
      "InvalidToGroup(address)": [
        {
          "params": {
            "group": "The group's address."
          }
        }
      ],
      "RebalanceEnoughCelo(address,uint256,uint256)": [
        {
          "params": {
            "actualCelo": "The actual CELO value.",
            "expectedCelo": "The expected CELO value.",
            "group": "The group's address."
          }
        }
      ],
      "RebalanceNoExtraCelo(address,uint256,uint256)": [
        {
          "params": {
            "actualCelo": "The actual CELO value.",
            "expectedCelo": "The expected CELO value.",
            "group": "The group's address."
          }
        }
      ],
      "ToGroupOverflowing(address)": [
        {
          "params": {
            "group": "The group's address."
          }
        }
      ]
    },
    "events": {
      "VoteContractSet(address)": {
        "params": {
          "voteContract": "The new vote contract address."
        }
      }
    },
    "kind": "dev",
    "methods": {
      "changeStrategy(address)": {
        "params": {
          "newStrategy": "The from account."
        }
      },
      "getAddressStrategy(address)": {
        "params": {
          "accountAddress": "The account address."
        },
        "returns": {
          "_0": "The strategy."
        }
      },
      "getExpectedAndActualCeloForGroup(address)": {
        "params": {
          "group": "The group."
        },
        "returns": {
          "actualCelo": "The CELO which group has.",
          "expectedCelo": "The CELO which group should have."
        }
      },
      "getReceivableVotesForGroup(address)": {
        "params": {
          "group": "The group that can receive votes."
        },
        "returns": {
          "_0": "The amount of CELO that can be received by group though stCELO protocol."
        }
      },
      "getVersionNumber()": {
        "returns": {
          "_0": "Storage version of the contract.",
          "_1": "Major version of the contract.",
          "_2": "Minor version of the contract.",
          "_3": "Patch version of the contract."
        }
      },
      "initialize(address,address)": {
        "params": {
          "_owner": "The address of the contract owner.",
          "_registry": "The address of the Celo Registry."
        }
      },
      "owner()": {
        "details": "Returns the address of the current owner."
      },
      "rebalance(address,address)": {
        "params": {
          "fromGroup": "The from group.",
          "toGroup": "The to group."
        }
      },
      "rebalanceOverflow(address,address)": {
        "params": {
          "fromGroup": "The group to unschedule votes from.",
          "toGroup": "The group to schedule votes to."
        }
      },
      "renounceOwnership()": {
        "details": "Leaves the contract without owner. It will not be possible to call `onlyOwner` functions anymore. Can only be called by the current owner. NOTE: Renouncing ownership will leave the contract without an owner, thereby removing any functionality that is only available to the owner."
      },
      "revokeVotes(uint256,uint256)": {
        "params": {
          "index": "The index of the proposal ID in `dequeued`.",
          "proposalId": "The ID of the proposal to revoke from."
        }
      },
      "scheduleTransferWithinStrategy(address[],address[],uint256[],uint256[])": {
        "params": {
          "fromGroups": "The groups the deposited CELO is intended to be revoked from.",
          "fromVotes": "The amount of CELO scheduled to be revoked from each respective group.",
          "toGroups": "The groups the transferred CELO is intended to vote for.",
          "toVotes": "The amount of CELO to schedule for each respective `toGroups`."
        }
      },
      "setDependencies(address,address,address,address,address,address)": {
        "details": "The StakedCelo contracts all reference each other so we need a way of setting these after all contracts are deployed and initialized.",
        "params": {
          "_account": "The address of the Account contract.",
          "_defaultStrategy": "The address of the DefaultStrategy contract.",
          "_groupHealth": "The address of the GroupHealth contract.",
          "_specificGroupStrategy": "The address of the SpecificGroupStrategy contract.",
          "_stakedCelo": "the address of the StakedCelo contract.",
          "_vote": "The address of the Vote contract."
        }
      },
      "toCelo(uint256)": {
        "params": {
          "stCeloAmount": "The amount of stCELO burned."
        },
        "returns": {
          "_0": "The amount of CELO that should be withdrawn."
        }
      },
      "toStakedCelo(uint256)": {
        "params": {
          "celoAmount": "The amount of CELO deposited."
        },
        "returns": {
          "_0": "The amount of stCELO that should be minted."
        }
      },
      "transfer(address,address,uint256)": {
        "params": {
          "from": "The from account.",
          "stCeloAmount": "The stCELO amount.",
          "to": "The to account."
        }
      },
      "transferOwnership(address)": {
        "details": "Transfers ownership of the contract to a new account (`newOwner`). Can only be called by the current owner."
      },
      "unlockBalance(address)": {
        "params": {
          "accountAddress": "The account to be unlocked."
        }
      },
      "updateHistoryAndReturnLockedStCeloInVoting(address)": {
        "params": {
          "beneficiary": "The address to be unlocked."
        }
      },
      "upgradeTo(address)": {
        "details": "Upgrade the implementation of the proxy to `newImplementation`. Calls {_authorizeUpgrade}. Emits an {Upgraded} event."
      },
      "upgradeToAndCall(address,bytes)": {
        "details": "Upgrade the implementation of the proxy to `newImplementation`, and subsequently execute the function call encoded in `data`. Calls {_authorizeUpgrade}. Emits an {Upgraded} event."
      },
      "voteProposal(uint256,uint256,uint256,uint256,uint256)": {
        "params": {
          "abstainVotes": "The abstain votes weight.",
          "index": "The index of the proposal ID in `dequeued`.",
          "noVotes": "The no votes weight.",
          "proposalId": "The ID of the proposal to vote on.",
          "yesVotes": "The yes votes weight."
        }
      },
      "withdraw(uint256)": {
        "details": "Calculates the CELO amount based on the ratio of outstanding stCELO and the total amount of CELO owned and used for voting by Account. See `toCelo`.The funds need to be withdrawn using calls to `Account.withdraw` and `Account.finishPendingWithdrawal`.",
        "params": {
          "stCeloAmount": "The amount of stCELO to burn."
        }
      }
    },
    "title": "Manages the StakedCelo system, by controlling the minting and burning of stCELO and implementing strategies for voting and unvoting of deposited or withdrawn CELO.",
    "version": 1
  },
  "userdoc": {
    "errors": {
      "AddressZeroNotAllowed()": [
        {
          "notice": "Used when attempting to pass in address zero where not allowed."
        }
      ],
      "CallerNotStakedCelo(address)": [
        {
          "notice": "Used when an `onlyStCelo` function is called by a non-stCELO contract."
        }
      ],
      "CallerNotStrategy(address)": [
        {
          "notice": "Used when an `onlyStrategy` function is called by a non-strategy contract."
        }
      ],
      "FromGroupNotOverflowing(address)": [
        {
          "notice": "Used when trying to overflow rebalance group that is not overflowing."
        }
      ],
      "GroupNotEligible(address)": [
        {
          "notice": "Used when a group does not meet the validator group health requirements."
        }
      ],
      "InvalidToGroup(address)": [
        {
          "notice": "Used when rebalancing to non-active nor specific group."
        }
      ],
      "RebalanceEnoughCelo(address,uint256,uint256)": [
        {
          "notice": "Used when rebalancing and toGroup has enough CELO."
        }
      ],
      "RebalanceNoExtraCelo(address,uint256,uint256)": [
        {
          "notice": "Used when rebalancing and fromGroup doesn't have any extra CELO."
        }
      ],
      "ToGroupOverflowing(address)": [
        {
          "notice": "Used when trying to rebalance to a group that is overflowing."
        }
      ],
      "ZeroWithdrawal()": [
        {
          "notice": "Used when attempting to withdraw 0 value."
        }
      ]
    },
    "events": {
      "VoteContractSet(address)": {
        "notice": "Emitted when the vote contract is initially set or later modified."
      }
    },
    "kind": "user",
    "methods": {
      "changeStrategy(address)": {
        "notice": "Allows account to change strategy. address(0) = default strategy !address(0) = voting for allowed validator group. Group needs to be in allowed"
      },
      "constructor": {
        "notice": "Empty constructor for proxy implementation, `initializer` modifer ensures the implementation gets initialized."
      },
      "defaultStrategy()": {
        "notice": "An instance of the DefaultStrategy contract for the StakedCelo protocol."
      },
      "deposit()": {
        "notice": "Used to deposit CELO into the StakedCelo system. The user will receive an amount of stCELO proportional to their contribution. The CELO will be scheduled to be voted for with the Account contract. The CELO will be distributed based on address strategy."
      },
      "getAddressStrategy(address)": {
        "notice": "Returns which strategy an address is using address(0) = default strategy !address(0) = voting for specific validator group. Unhealthy and blocked strategies are reverted to default."
      },
      "getExpectedAndActualCeloForGroup(address)": {
        "notice": "Returns expected CELO amount voted for by Account contract vs actual amount voted for by Account contract."
      },
      "getReceivableVotesForGroup(address)": {
        "notice": "Returns votes count that can be received by group through stCELO protocol."
      },
      "getVersionNumber()": {
        "notice": "Returns the storage, major, minor, and patch version of the contract."
      },
      "groupHealth()": {
        "notice": "An instance of the GroupHealth contract for the StakedCelo protocol."
      },
      "initialize(address,address)": {
        "notice": "Initialize the contract with registry and owner."
      },
      "rebalance(address,address)": {
        "notice": "Rebalances CELO between groups that have incorrect CELO-stCELO ratio. `fromGroup` is required to have more CELO than it should and `toGroup` needs to have less CELO than it should."
      },
      "rebalanceOverflow(address,address)": {
        "notice": "Rebalance according to CELO overflow rather than stCELO ratio. If one of the groups is overflowing and there are still some votes that are scheduled for the group, this function allows to transfer these votes to any active group in protocol that is not overflowing yet."
      },
      "registry()": {
        "notice": "The Registry."
      },
      "revokeVotes(uint256,uint256)": {
        "notice": "Revokes votes on already voted proposal."
      },
      "scheduleTransferWithinStrategy(address[],address[],uint256[],uint256[])": {
        "notice": "Allows strategy to initiate transfer without any checks. This method is supposed to be used for transfers between groups only within strategy"
      },
      "setDependencies(address,address,address,address,address,address)": {
        "notice": "Set this contract's dependencies in the StakedCelo system."
      },
      "specificGroupStrategy()": {
        "notice": "An instance of the SpecificGroupStrategy contract for the StakedCelo protocol."
      },
      "strategies(address)": {
        "notice": "address -> strategy used by an address strategy: address(0) = default strategy strategy: !address(0) = vote for the group at that address if allowed by GroupHealth.isGroupValid, otherwise vote according to the default strategy"
      },
      "toCelo(uint256)": {
        "notice": "Computes the amount of CELO that should be withdrawn for a given amount of stCELO burned."
      },
      "toStakedCelo(uint256)": {
        "notice": "Computes the amount of stCELO that should be minted for a given amount of CELO deposited."
      },
      "transfer(address,address,uint256)": {
        "notice": "Whenever stCELO is being transferd we will check whether origin and target account use same strategy. If strategy differs we will schedule votes for transfer."
      },
      "unlockBalance(address)": {
        "notice": "Unlock vote balance of stCELO."
      },
      "updateHistoryAndReturnLockedStCeloInVoting(address)": {
        "notice": "Unlock balance of vote stCELO and update beneficiary vote history."
      },
      "voteContract()": {
        "notice": "Contract used during Governance voting."
      },
      "voteProposal(uint256,uint256,uint256,uint256,uint256)": {
        "notice": "Votes on a proposal in the referendum stage."
      },
      "withdraw(uint256)": {
        "notice": "Used to withdraw CELO from the system, in exchange for burning stCELO."
      }
    },
    "version": 1
  },
  "storageLayout": {
    "storage": [
      {
        "astId": 130,
        "contract": "contracts/Manager.sol:Manager",
        "label": "_initialized",
        "offset": 0,
        "slot": "0",
        "type": "t_bool"
      },
      {
        "astId": 133,
        "contract": "contracts/Manager.sol:Manager",
        "label": "_initializing",
        "offset": 1,
        "slot": "0",
        "type": "t_bool"
      },
      {
        "astId": 584,
        "contract": "contracts/Manager.sol:Manager",
        "label": "__gap",
        "offset": 0,
        "slot": "1",
        "type": "t_array(t_uint256)50_storage"
      },
      {
        "astId": 10,
        "contract": "contracts/Manager.sol:Manager",
        "label": "_owner",
        "offset": 0,
        "slot": "51",
        "type": "t_address"
      },
      {
        "astId": 122,
        "contract": "contracts/Manager.sol:Manager",
        "label": "__gap",
        "offset": 0,
        "slot": "52",
        "type": "t_array(t_uint256)49_storage"
      },
      {
        "astId": 8346,
        "contract": "contracts/Manager.sol:Manager",
        "label": "registry",
        "offset": 0,
        "slot": "101",
        "type": "t_contract(IRegistry)9556"
      },
      {
        "astId": 4931,
        "contract": "contracts/Manager.sol:Manager",
        "label": "stakedCelo",
        "offset": 0,
        "slot": "102",
        "type": "t_contract(IStakedCelo)9699"
      },
      {
        "astId": 4935,
        "contract": "contracts/Manager.sol:Manager",
        "label": "account",
        "offset": 0,
        "slot": "103",
        "type": "t_contract(IAccount)8551"
      },
      {
        "astId": 4939,
        "contract": "contracts/Manager.sol:Manager",
        "label": "activeGroups",
        "offset": 0,
        "slot": "104",
        "type": "t_struct(AddressSet)2503_storage"
      },
      {
        "astId": 4943,
        "contract": "contracts/Manager.sol:Manager",
        "label": "deprecatedGroups",
        "offset": 0,
        "slot": "106",
        "type": "t_struct(AddressSet)2503_storage"
      },
      {
        "astId": 4946,
        "contract": "contracts/Manager.sol:Manager",
        "label": "voteContract",
        "offset": 0,
        "slot": "108",
        "type": "t_address"
      },
      {
        "astId": 4950,
        "contract": "contracts/Manager.sol:Manager",
        "label": "groupHealth",
        "offset": 0,
        "slot": "109",
        "type": "t_contract(IGroupHealth)9325"
      },
      {
        "astId": 4954,
        "contract": "contracts/Manager.sol:Manager",
        "label": "specificGroupStrategy",
        "offset": 0,
        "slot": "110",
        "type": "t_contract(ISpecificGroupStrategy)9631"
      },
      {
        "astId": 4958,
        "contract": "contracts/Manager.sol:Manager",
        "label": "defaultStrategy",
        "offset": 0,
        "slot": "111",
        "type": "t_contract(IDefaultStrategy)8830"
      },
      {
        "astId": 4963,
        "contract": "contracts/Manager.sol:Manager",
        "label": "strategies",
        "offset": 0,
        "slot": "112",
        "type": "t_mapping(t_address,t_address)"
      }
    ],
    "types": {
      "t_address": {
        "encoding": "inplace",
        "label": "address",
        "numberOfBytes": "20"
      },
      "t_array(t_bytes32)dyn_storage": {
        "base": "t_bytes32",
        "encoding": "dynamic_array",
        "label": "bytes32[]",
        "numberOfBytes": "32"
      },
      "t_array(t_uint256)49_storage": {
        "base": "t_uint256",
        "encoding": "inplace",
        "label": "uint256[49]",
        "numberOfBytes": "1568"
      },
      "t_array(t_uint256)50_storage": {
        "base": "t_uint256",
        "encoding": "inplace",
        "label": "uint256[50]",
        "numberOfBytes": "1600"
      },
      "t_bool": {
        "encoding": "inplace",
        "label": "bool",
        "numberOfBytes": "1"
      },
      "t_bytes32": {
        "encoding": "inplace",
        "label": "bytes32",
        "numberOfBytes": "32"
      },
      "t_contract(IAccount)8551": {
        "encoding": "inplace",
        "label": "contract IAccount",
        "numberOfBytes": "20"
      },
      "t_contract(IDefaultStrategy)8830": {
        "encoding": "inplace",
        "label": "contract IDefaultStrategy",
        "numberOfBytes": "20"
      },
      "t_contract(IGroupHealth)9325": {
        "encoding": "inplace",
        "label": "contract IGroupHealth",
        "numberOfBytes": "20"
      },
      "t_contract(IRegistry)9556": {
        "encoding": "inplace",
        "label": "contract IRegistry",
        "numberOfBytes": "20"
      },
      "t_contract(ISpecificGroupStrategy)9631": {
        "encoding": "inplace",
        "label": "contract ISpecificGroupStrategy",
        "numberOfBytes": "20"
      },
      "t_contract(IStakedCelo)9699": {
        "encoding": "inplace",
        "label": "contract IStakedCelo",
        "numberOfBytes": "20"
      },
      "t_mapping(t_address,t_address)": {
        "encoding": "mapping",
        "key": "t_address",
        "label": "mapping(address => address)",
        "numberOfBytes": "32",
        "value": "t_address"
      },
      "t_mapping(t_bytes32,t_uint256)": {
        "encoding": "mapping",
        "key": "t_bytes32",
        "label": "mapping(bytes32 => uint256)",
        "numberOfBytes": "32",
        "value": "t_uint256"
      },
      "t_struct(AddressSet)2503_storage": {
        "encoding": "inplace",
        "label": "struct EnumerableSet.AddressSet",
        "members": [
          {
            "astId": 2502,
            "contract": "contracts/Manager.sol:Manager",
            "label": "_inner",
            "offset": 0,
            "slot": "0",
            "type": "t_struct(Set)2202_storage"
          }
        ],
        "numberOfBytes": "64"
      },
      "t_struct(Set)2202_storage": {
        "encoding": "inplace",
        "label": "struct EnumerableSet.Set",
        "members": [
          {
            "astId": 2197,
            "contract": "contracts/Manager.sol:Manager",
            "label": "_values",
            "offset": 0,
            "slot": "0",
            "type": "t_array(t_bytes32)dyn_storage"
          },
          {
            "astId": 2201,
            "contract": "contracts/Manager.sol:Manager",
            "label": "_indexes",
            "offset": 0,
            "slot": "1",
            "type": "t_mapping(t_bytes32,t_uint256)"
          }
        ],
        "numberOfBytes": "64"
      },
      "t_uint256": {
        "encoding": "inplace",
        "label": "uint256",
        "numberOfBytes": "32"
      }
    }
  }
}