{
  "address": "0x8Bd50C8Df89840CA8e78C32a730076397933F818",
  "abi": [
    {
      "inputs": [
        {
          "internalType": "uint256",
          "name": "_minDelay",
          "type": "uint256"
        }
      ],
      "stateMutability": "nonpayable",
      "type": "constructor"
    },
    {
      "inputs": [],
      "name": "AddressZeroNotAllowed",
      "type": "error"
    },
    {
      "inputs": [
        {
          "internalType": "address",
          "name": "owner",
          "type": "address"
        }
      ],
      "name": "CannotRemoveLastOwner",
      "type": "error"
    },
    {
      "inputs": [],
      "name": "ExecutionFailed",
      "type": "error"
    },
    {
      "inputs": [
        {
          "internalType": "uint256",
          "name": "delay",
          "type": "uint256"
        }
      ],
      "name": "InsufficientDelay",
      "type": "error"
    },
    {
      "inputs": [
        {
          "internalType": "address",
          "name": "destination",
          "type": "address"
        }
      ],
      "name": "InvalidContractAddress",
      "type": "error"
    },
    {
      "inputs": [
        {
          "internalType": "uint256",
          "name": "ownerCount",
          "type": "uint256"
        },
        {
          "internalType": "uint256",
          "name": "required",
          "type": "uint256"
        }
      ],
      "name": "InvalidRequirement",
      "type": "error"
    },
    {
      "inputs": [],
      "name": "OnlyPauser",
      "type": "error"
    },
    {
      "inputs": [
        {
          "internalType": "address",
          "name": "owner",
          "type": "address"
        }
      ],
      "name": "OwnerAlreadyExists",
      "type": "error"
    },
    {
      "inputs": [
        {
          "internalType": "address",
          "name": "owner",
          "type": "address"
        }
      ],
      "name": "OwnerDoesNotExist",
      "type": "error"
    },
    {
      "inputs": [],
      "name": "ParamLengthsMismatch",
      "type": "error"
    },
    {
      "inputs": [],
      "name": "Paused",
      "type": "error"
    },
    {
      "inputs": [
        {
          "internalType": "uint256",
          "name": "proposalId",
          "type": "uint256"
        },
        {
          "internalType": "address",
          "name": "owner",
          "type": "address"
        }
      ],
      "name": "ProposalAlreadyConfirmed",
      "type": "error"
    },
    {
      "inputs": [
        {
          "internalType": "uint256",
          "name": "proposalId",
          "type": "uint256"
        }
      ],
      "name": "ProposalAlreadyExecuted",
      "type": "error"
    },
    {
      "inputs": [
        {
          "internalType": "uint256",
          "name": "proposalId",
          "type": "uint256"
        }
      ],
      "name": "ProposalAlreadyScheduled",
      "type": "error"
    },
    {
      "inputs": [
        {
          "internalType": "uint256",
          "name": "proposalId",
          "type": "uint256"
        }
      ],
      "name": "ProposalDoesNotExist",
      "type": "error"
    },
    {
      "inputs": [
        {
          "internalType": "uint256",
          "name": "proposalId",
          "type": "uint256"
        },
        {
          "internalType": "address",
          "name": "owner",
          "type": "address"
        }
      ],
      "name": "ProposalNotConfirmed",
      "type": "error"
    },
    {
      "inputs": [
        {
          "internalType": "uint256",
          "name": "proposalId",
          "type": "uint256"
        }
      ],
      "name": "ProposalNotFullyConfirmed",
      "type": "error"
    },
    {
      "inputs": [
        {
          "internalType": "uint256",
          "name": "proposalId",
          "type": "uint256"
        }
      ],
      "name": "ProposalNotScheduled",
      "type": "error"
    },
    {
      "inputs": [
        {
          "internalType": "uint256",
          "name": "proposalId",
          "type": "uint256"
        }
      ],
      "name": "ProposalTimelockNotReached",
      "type": "error"
    },
    {
      "inputs": [
        {
          "internalType": "address",
          "name": "account",
          "type": "address"
        }
      ],
      "name": "SenderMustBeMultisigWallet",
      "type": "error"
    },
    {
      "inputs": [
        {
          "internalType": "address",
          "name": "sender",
          "type": "address"
        }
      ],
      "name": "SenderNotGovernance",
      "type": "error"
    },
    {
      "inputs": [
        {
          "internalType": "address",
          "name": "sender",
          "type": "address"
        }
      ],
      "name": "SenderNotGovernanceOrOwner",
      "type": "error"
    },
    {
      "anonymous": false,
      "inputs": [
        {
          "indexed": false,
          "internalType": "address",
          "name": "previousAdmin",
          "type": "address"
        },
        {
          "indexed": false,
          "internalType": "address",
          "name": "newAdmin",
          "type": "address"
        }
      ],
      "name": "AdminChanged",
      "type": "event"
    },
    {
      "anonymous": false,
      "inputs": [
        {
          "indexed": true,
          "internalType": "address",
          "name": "beacon",
          "type": "address"
        }
      ],
      "name": "BeaconUpgraded",
      "type": "event"
    },
    {
      "anonymous": false,
      "inputs": [
        {
          "indexed": true,
          "internalType": "address",
          "name": "sender",
          "type": "address"
        },
        {
          "indexed": false,
          "internalType": "uint256",
          "name": "value",
          "type": "uint256"
        }
      ],
      "name": "CeloDeposited",
      "type": "event"
    },
    {
      "anonymous": false,
      "inputs": [
        {
          "indexed": true,
          "internalType": "address",
          "name": "sender",
          "type": "address"
        },
        {
          "indexed": true,
          "internalType": "uint256",
          "name": "proposalId",
          "type": "uint256"
        }
      ],
      "name": "ConfirmationRevoked",
      "type": "event"
    },
    {
      "anonymous": false,
      "inputs": [],
      "name": "ContractPaused",
      "type": "event"
    },
    {
      "anonymous": false,
      "inputs": [],
      "name": "ContractUnpaused",
      "type": "event"
    },
    {
      "anonymous": false,
      "inputs": [
        {
          "indexed": false,
          "internalType": "uint256",
          "name": "delay",
          "type": "uint256"
        },
        {
          "indexed": false,
          "internalType": "uint256",
          "name": "newDelay",
          "type": "uint256"
        }
      ],
      "name": "DelayChanged",
      "type": "event"
    },
    {
      "anonymous": false,
      "inputs": [
        {
          "indexed": false,
          "internalType": "uint256",
          "name": "index",
          "type": "uint256"
        },
        {
          "indexed": false,
          "internalType": "bytes",
          "name": "returnData",
          "type": "bytes"
        }
      ],
      "name": "GovernanceTransactionExecuted",
      "type": "event"
    },
    {
      "anonymous": false,
      "inputs": [
        {
          "indexed": true,
          "internalType": "address",
          "name": "owner",
          "type": "address"
        }
      ],
      "name": "OwnerAdded",
      "type": "event"
    },
    {
      "anonymous": false,
      "inputs": [
        {
          "indexed": true,
          "internalType": "address",
          "name": "owner",
          "type": "address"
        }
      ],
      "name": "OwnerRemoved",
      "type": "event"
    },
    {
      "anonymous": false,
      "inputs": [
        {
          "indexed": false,
          "internalType": "address",
          "name": "pauser",
          "type": "address"
        }
      ],
      "name": "PauserSet",
      "type": "event"
    },
    {
      "anonymous": false,
      "inputs": [
        {
          "indexed": true,
          "internalType": "uint256",
          "name": "proposalId",
          "type": "uint256"
        }
      ],
      "name": "ProposalAdded",
      "type": "event"
    },
    {
      "anonymous": false,
      "inputs": [
        {
          "indexed": true,
          "internalType": "address",
          "name": "sender",
          "type": "address"
        },
        {
          "indexed": true,
          "internalType": "uint256",
          "name": "proposalId",
          "type": "uint256"
        }
      ],
      "name": "ProposalConfirmed",
      "type": "event"
    },
    {
      "anonymous": false,
      "inputs": [
        {
          "indexed": true,
          "internalType": "uint256",
          "name": "proposalId",
          "type": "uint256"
        }
      ],
      "name": "ProposalScheduled",
      "type": "event"
    },
    {
      "anonymous": false,
      "inputs": [
        {
          "indexed": false,
          "internalType": "uint256",
          "name": "required",
          "type": "uint256"
        }
      ],
      "name": "RequirementChanged",
      "type": "event"
    },
    {
      "anonymous": false,
      "inputs": [
        {
          "indexed": false,
          "internalType": "uint256",
          "name": "index",
          "type": "uint256"
        },
        {
          "indexed": true,
          "internalType": "uint256",
          "name": "proposalId",
          "type": "uint256"
        },
        {
          "indexed": false,
          "internalType": "bytes",
          "name": "returnData",
          "type": "bytes"
        }
      ],
      "name": "TransactionExecuted",
      "type": "event"
    },
    {
      "anonymous": false,
      "inputs": [
        {
          "indexed": true,
          "internalType": "address",
          "name": "implementation",
          "type": "address"
        }
      ],
      "name": "Upgraded",
      "type": "event"
    },
    {
      "inputs": [],
      "name": "MAX_OWNER_COUNT",
      "outputs": [
        {
          "internalType": "uint256",
          "name": "",
          "type": "uint256"
        }
      ],
      "stateMutability": "view",
      "type": "function"
    },
    {
      "inputs": [],
      "name": "PAUSED_POSITION",
      "outputs": [
        {
          "internalType": "bytes32",
          "name": "",
          "type": "bytes32"
        }
      ],
      "stateMutability": "view",
      "type": "function"
    },
    {
      "inputs": [],
      "name": "PAUSER_POSITION",
      "outputs": [
        {
          "internalType": "bytes32",
          "name": "",
          "type": "bytes32"
        }
      ],
      "stateMutability": "view",
      "type": "function"
    },
    {
      "inputs": [
        {
          "internalType": "address",
          "name": "owner",
          "type": "address"
        }
      ],
      "name": "addOwner",
      "outputs": [],
      "stateMutability": "nonpayable",
      "type": "function"
    },
    {
      "inputs": [
        {
          "internalType": "uint256",
          "name": "newDelay",
          "type": "uint256"
        }
      ],
      "name": "changeDelay",
      "outputs": [],
      "stateMutability": "nonpayable",
      "type": "function"
    },
    {
      "inputs": [
        {
          "internalType": "uint256",
          "name": "newRequired",
          "type": "uint256"
        }
      ],
      "name": "changeRequirement",
      "outputs": [],
      "stateMutability": "nonpayable",
      "type": "function"
    },
    {
      "inputs": [
        {
          "internalType": "uint256",
          "name": "proposalId",
          "type": "uint256"
        }
      ],
      "name": "confirmProposal",
      "outputs": [],
      "stateMutability": "nonpayable",
      "type": "function"
    },
    {
      "inputs": [],
      "name": "delay",
      "outputs": [
        {
          "internalType": "uint256",
          "name": "",
          "type": "uint256"
        }
      ],
      "stateMutability": "view",
      "type": "function"
    },
    {
      "inputs": [
        {
          "internalType": "uint256",
          "name": "proposalId",
          "type": "uint256"
        }
      ],
      "name": "executeProposal",
      "outputs": [],
      "stateMutability": "nonpayable",
      "type": "function"
    },
    {
      "inputs": [
        {
          "internalType": "uint256",
          "name": "proposalId",
          "type": "uint256"
        }
      ],
      "name": "getConfirmations",
      "outputs": [
        {
          "internalType": "address[]",
          "name": "",
          "type": "address[]"
        }
      ],
      "stateMutability": "view",
      "type": "function"
    },
    {
      "inputs": [],
      "name": "getOwners",
      "outputs": [
        {
          "internalType": "address[]",
          "name": "",
          "type": "address[]"
        }
      ],
      "stateMutability": "view",
      "type": "function"
    },
    {
      "inputs": [
        {
          "internalType": "uint256",
          "name": "proposalId",
          "type": "uint256"
        }
      ],
      "name": "getProposal",
      "outputs": [
        {
          "internalType": "address[]",
          "name": "destinations",
          "type": "address[]"
        },
        {
          "internalType": "uint256[]",
          "name": "values",
          "type": "uint256[]"
        },
        {
          "internalType": "bytes[]",
          "name": "payloads",
          "type": "bytes[]"
        }
      ],
      "stateMutability": "view",
      "type": "function"
    },
    {
      "inputs": [
        {
          "internalType": "uint256",
          "name": "proposalId",
          "type": "uint256"
        }
      ],
      "name": "getTimestamp",
      "outputs": [
        {
          "internalType": "uint256",
          "name": "",
          "type": "uint256"
        }
      ],
      "stateMutability": "view",
      "type": "function"
    },
    {
      "inputs": [],
      "name": "getVersionNumber",
      "outputs": [
        {
          "internalType": "uint256",
          "name": "",
          "type": "uint256"
        },
        {
          "internalType": "uint256",
          "name": "",
          "type": "uint256"
        },
        {
          "internalType": "uint256",
          "name": "",
          "type": "uint256"
        },
        {
          "internalType": "uint256",
          "name": "",
          "type": "uint256"
        }
      ],
      "stateMutability": "pure",
      "type": "function"
    },
    {
      "inputs": [
        {
          "internalType": "address[]",
          "name": "destinations",
          "type": "address[]"
        },
        {
          "internalType": "uint256[]",
          "name": "values",
          "type": "uint256[]"
        },
        {
          "internalType": "bytes[]",
          "name": "payloads",
          "type": "bytes[]"
        }
      ],
      "name": "governanceProposeAndExecute",
      "outputs": [],
      "stateMutability": "nonpayable",
      "type": "function"
    },
    {
      "inputs": [
        {
          "internalType": "address[]",
          "name": "initialOwners",
          "type": "address[]"
        },
        {
          "internalType": "uint256",
          "name": "requiredConfirmations",
          "type": "uint256"
        },
        {
          "internalType": "uint256",
          "name": "_delay",
          "type": "uint256"
        }
      ],
      "name": "initialize",
      "outputs": [],
      "stateMutability": "nonpayable",
      "type": "function"
    },
    {
      "inputs": [
        {
          "internalType": "uint256",
          "name": "proposalId",
          "type": "uint256"
        },
        {
          "internalType": "address",
          "name": "owner",
          "type": "address"
        }
      ],
      "name": "isConfirmedBy",
      "outputs": [
        {
          "internalType": "bool",
          "name": "",
          "type": "bool"
        }
      ],
      "stateMutability": "view",
      "type": "function"
    },
    {
      "inputs": [
        {
          "internalType": "uint256",
          "name": "proposalId",
          "type": "uint256"
        }
      ],
      "name": "isFullyConfirmed",
      "outputs": [
        {
          "internalType": "bool",
          "name": "",
          "type": "bool"
        }
      ],
      "stateMutability": "view",
      "type": "function"
    },
    {
      "inputs": [
        {
          "internalType": "address",
          "name": "owner",
          "type": "address"
        }
      ],
      "name": "isOwner",
      "outputs": [
        {
          "internalType": "bool",
          "name": "",
          "type": "bool"
        }
      ],
      "stateMutability": "view",
      "type": "function"
    },
    {
      "inputs": [],
      "name": "isPaused",
      "outputs": [
        {
          "internalType": "bool",
          "name": "",
          "type": "bool"
        }
      ],
      "stateMutability": "view",
      "type": "function"
    },
    {
      "inputs": [
        {
          "internalType": "uint256",
          "name": "proposalId",
          "type": "uint256"
        }
      ],
      "name": "isProposalTimelockReached",
      "outputs": [
        {
          "internalType": "bool",
          "name": "",
          "type": "bool"
        }
      ],
      "stateMutability": "view",
      "type": "function"
    },
    {
      "inputs": [
        {
          "internalType": "uint256",
          "name": "proposalId",
          "type": "uint256"
        }
      ],
      "name": "isScheduled",
      "outputs": [
        {
          "internalType": "bool",
          "name": "",
          "type": "bool"
        }
      ],
      "stateMutability": "view",
      "type": "function"
    },
    {
      "inputs": [],
      "name": "minDelay",
      "outputs": [
        {
          "internalType": "uint256",
          "name": "",
          "type": "uint256"
        }
      ],
      "stateMutability": "view",
      "type": "function"
    },
    {
      "inputs": [],
      "name": "pause",
      "outputs": [],
      "stateMutability": "nonpayable",
      "type": "function"
    },
    {
      "inputs": [
        {
          "internalType": "address[]",
          "name": "contracts",
          "type": "address[]"
        }
      ],
      "name": "pauseContracts",
      "outputs": [],
      "stateMutability": "nonpayable",
      "type": "function"
    },
    {
      "inputs": [],
      "name": "pauser",
      "outputs": [
        {
          "internalType": "address",
          "name": "",
          "type": "address"
        }
      ],
      "stateMutability": "view",
      "type": "function"
    },
    {
      "inputs": [],
      "name": "proposalCount",
      "outputs": [
        {
          "internalType": "uint256",
          "name": "",
          "type": "uint256"
        }
      ],
      "stateMutability": "view",
      "type": "function"
    },
    {
      "inputs": [
        {
          "internalType": "uint256",
          "name": "",
          "type": "uint256"
        }
      ],
      "name": "proposals",
      "outputs": [
        {
          "internalType": "uint256",
          "name": "timestampExecutable",
          "type": "uint256"
        }
      ],
      "stateMutability": "view",
      "type": "function"
    },
    {
      "inputs": [
        {
          "internalType": "address",
          "name": "owner",
          "type": "address"
        }
      ],
      "name": "removeOwner",
      "outputs": [],
      "stateMutability": "nonpayable",
      "type": "function"
    },
    {
      "inputs": [
        {
          "internalType": "address",
          "name": "owner",
          "type": "address"
        },
        {
          "internalType": "address",
          "name": "newOwner",
          "type": "address"
        }
      ],
      "name": "replaceOwner",
      "outputs": [],
      "stateMutability": "nonpayable",
      "type": "function"
    },
    {
      "inputs": [],
      "name": "required",
      "outputs": [
        {
          "internalType": "uint256",
          "name": "",
          "type": "uint256"
        }
      ],
      "stateMutability": "view",
      "type": "function"
    },
    {
      "inputs": [
        {
          "internalType": "uint256",
          "name": "proposalId",
          "type": "uint256"
        }
      ],
      "name": "revokeConfirmation",
      "outputs": [],
      "stateMutability": "nonpayable",
      "type": "function"
    },
    {
      "inputs": [
        {
          "internalType": "uint256",
          "name": "proposalId",
          "type": "uint256"
        }
      ],
      "name": "scheduleProposal",
      "outputs": [],
      "stateMutability": "nonpayable",
      "type": "function"
    },
    {
      "inputs": [
        {
          "internalType": "address",
          "name": "__pauser",
          "type": "address"
        }
      ],
      "name": "setPauser",
      "outputs": [],
      "stateMutability": "nonpayable",
      "type": "function"
    },
    {
      "inputs": [
        {
          "internalType": "address[]",
          "name": "destinations",
          "type": "address[]"
        },
        {
          "internalType": "uint256[]",
          "name": "values",
          "type": "uint256[]"
        },
        {
          "internalType": "bytes[]",
          "name": "payloads",
          "type": "bytes[]"
        }
      ],
      "name": "submitProposal",
      "outputs": [
        {
          "internalType": "uint256",
          "name": "proposalId",
          "type": "uint256"
        }
      ],
      "stateMutability": "nonpayable",
      "type": "function"
    },
    {
      "inputs": [],
      "name": "unpause",
      "outputs": [],
      "stateMutability": "nonpayable",
      "type": "function"
    },
    {
      "inputs": [
        {
          "internalType": "address[]",
          "name": "contracts",
          "type": "address[]"
        }
      ],
      "name": "unpauseContracts",
      "outputs": [],
      "stateMutability": "nonpayable",
      "type": "function"
    },
    {
      "inputs": [
        {
          "internalType": "address",
          "name": "newImplementation",
          "type": "address"
        }
      ],
      "name": "upgradeTo",
      "outputs": [],
      "stateMutability": "nonpayable",
      "type": "function"
    },
    {
      "inputs": [
        {
          "internalType": "address",
          "name": "newImplementation",
          "type": "address"
        },
        {
          "internalType": "bytes",
          "name": "data",
          "type": "bytes"
        }
      ],
      "name": "upgradeToAndCall",
      "outputs": [],
      "stateMutability": "payable",
      "type": "function"
    },
    {
      "stateMutability": "payable",
      "type": "receive"
    }
  ],
  "transactionHash": "0x6eb8a41854da10d8a71470bf7e9c13fd2a392ee843e96d0d971385596065ab39",
  "args": [
    345600
  ],
  "numDeployments": 3,
  "solcInputHash": "bc5d8aac7d0c7b5a1cef2b494d304103",
  "bytecode": "0x60c06040523073ffffffffffffffffffffffffffffffffffffffff1660809073ffffffffffffffffffffffffffffffffffffffff168152503480156200004457600080fd5b506040516200548d3803806200548d83398181016040528101906200006a9190620001db565b600060019054906101000a900460ff16620000945760008054906101000a900460ff1615620000a5565b620000a46200016a60201b60201c565b5b620000e7576040517f08c379a0000000000000000000000000000000000000000000000000000000008152600401620000de9062000294565b60405180910390fd5b60008060019054906101000a900460ff16159050801562000138576001600060016101000a81548160ff02191690831515021790555060016000806101000a81548160ff0219169083151502179055505b8160a081815250508015620001625760008060016101000a81548160ff0219169083151502179055505b5050620002b6565b600062000182306200018860201b62002e3b1760201c565b15905090565b600080823b905060008111915050919050565b600080fd5b6000819050919050565b620001b581620001a0565b8114620001c157600080fd5b50565b600081519050620001d581620001aa565b92915050565b600060208284031215620001f457620001f36200019b565b5b60006200020484828501620001c4565b91505092915050565b600082825260208201905092915050565b7f496e697469616c697a61626c653a20636f6e747261637420697320616c72656160008201527f647920696e697469616c697a6564000000000000000000000000000000000000602082015250565b60006200027c602e836200020d565b915062000289826200021e565b604082019050919050565b60006020820190508181036000830152620002af816200026d565b9050919050565b60805160a051615195620002f8600039600081816123e401526133890152600081816110cd0152818161115c0152818161136c01526113fb01526151956000f3fe6080604052600436106102345760003560e01c80638a8e784c1161012e578063c63c4e9b116100ab578063da35c6641161006f578063da35c664146108b8578063dc8452cd146108e3578063df5aa6b11461090e578063e20056e614610937578063f4a4f4d21461096057610293565b8063c63c4e9b146107d1578063c7f758a8146107fc578063d1af28131461083b578063d74f8edd14610864578063d9e4b35a1461088f57610293565b8063a7b05742116100f2578063a7b05742146106da578063b187bd2614610703578063b5dc40c31461072e578063b633620c1461076b578063ba51a6df146107a857610293565b80638a8e784c146105df5780639468ba0e1461061c5780639fd0506d14610647578063a0e67e2b14610672578063a42606e31461069d57610293565b80633f4ba83a116101bc5780635eae7959116101805780635eae79591461050e5780636a42b8f8146105375780636e7afa34146105625780637065cb481461059f5780638456cb59146105c857610293565b80633f4ba83a146104475780634f1ef2861461045e5780635037ec621461047a57806352745014146104a357806354255be0146104e057610293565b80632d88af4a116102035780632d88af4a146103505780632f54bf6e146103795780633659cfe6146103b657806339a08f01146103df5780633cbf58721461041c57610293565b8063013cf08b146102985780630d61b519146102d5578063173825d9146102fe57806320ea8d861461032757610293565b36610293576000341115610291573373ffffffffffffffffffffffffffffffffffffffff167fb3bcfe4f408c657ba1ce2fc1c3235d37903cb674e54269bfe562874af3fc0f14346040516102889190613eca565b60405180910390a25b005b600080fd5b3480156102a457600080fd5b506102bf60048036038101906102ba9190613f25565b610989565b6040516102cc9190613eca565b60405180910390f35b3480156102e157600080fd5b506102fc60048036038101906102f79190613f25565b6109a7565b005b34801561030a57600080fd5b5061032560048036038101906103209190613fb0565b610c8b565b005b34801561033357600080fd5b5061034e60048036038101906103499190613f25565b610e22565b005b34801561035c57600080fd5b5061037760048036038101906103729190613fb0565b611032565b005b34801561038557600080fd5b506103a0600480360381019061039b9190613fb0565b6110ae565b6040516103ad9190613ff8565b60405180910390f35b3480156103c257600080fd5b506103dd60048036038101906103d89190613fb0565b6110cb565b005b3480156103eb57600080fd5b5061040660048036038101906104019190613f25565b611254565b6040516104139190613ff8565b60405180910390f35b34801561042857600080fd5b50610431611290565b60405161043e919061402c565b60405180910390f35b34801561045357600080fd5b5061045c6112c6565b005b6104786004803603810190610473919061418d565b61136a565b005b34801561048657600080fd5b506104a1600480360381019061049c9190613f25565b6114a7565b005b3480156104af57600080fd5b506104ca60048036038101906104c591906142f5565b611523565b6040516104d79190613eca565b60405180910390f35b3480156104ec57600080fd5b506104f5611690565b60405161050594939291906143a9565b60405180910390f35b34801561051a57600080fd5b50610535600480360381019061053091906143ee565b6116ab565b005b34801561054357600080fd5b5061054c611a0e565b6040516105599190613eca565b60405180910390f35b34801561056e57600080fd5b5061058960048036038101906105849190613f25565b611a14565b6040516105969190613ff8565b60405180910390f35b3480156105ab57600080fd5b506105c660048036038101906105c19190613fb0565b611aeb565b005b3480156105d457600080fd5b506105dd611cfa565b005b3480156105eb57600080fd5b5061060660048036038101906106019190614462565b611d9e565b6040516106139190613ff8565b60405180910390f35b34801561062857600080fd5b50610631611e09565b60405161063e919061402c565b60405180910390f35b34801561065357600080fd5b5061065c611e3f565b60405161066991906144b1565b60405180910390f35b34801561067e57600080fd5b50610687611e85565b604051610694919061458a565b60405180910390f35b3480156106a957600080fd5b506106c460048036038101906106bf9190613f25565b611e96565b6040516106d19190613ff8565b60405180910390f35b3480156106e657600080fd5b5061070160048036038101906106fc91906142f5565b611eab565b005b34801561070f57600080fd5b50610718612042565b6040516107259190613ff8565b60405180910390f35b34801561073a57600080fd5b5061075560048036038101906107509190613f25565b612088565b604051610762919061458a565b60405180910390f35b34801561077757600080fd5b50610792600480360381019061078d9190613f25565b6122d1565b60405161079f9190613eca565b60405180910390f35b3480156107b457600080fd5b506107cf60048036038101906107ca9190613f25565b6122f1565b005b3480156107dd57600080fd5b506107e66123e2565b6040516107f39190613eca565b60405180910390f35b34801561080857600080fd5b50610823600480360381019061081e9190613f25565b612406565b604051610832939291906147b4565b60405180910390f35b34801561084757600080fd5b50610862600480360381019061085d9190614800565b6125e9565b005b34801561087057600080fd5b50610879612713565b6040516108869190613eca565b60405180910390f35b34801561089b57600080fd5b506108b660048036038101906108b19190614800565b612718565b005b3480156108c457600080fd5b506108cd61285b565b6040516108da9190613eca565b60405180910390f35b3480156108ef57600080fd5b506108f8612861565b6040516109059190613eca565b60405180910390f35b34801561091a57600080fd5b5061093560048036038101906109309190613f25565b612867565b005b34801561094357600080fd5b5061095e6004803603810190610959919061484d565b612994565b005b34801561096c57600080fd5b5061098760048036038101906109829190613f25565b612bd0565b005b60026020528060005260406000206000915090508060030154905081565b6109af612042565b156109e6576040517f9e87fac800000000000000000000000000000000000000000000000000000000815260040160405180910390fd5b806109f081611e96565b610a3157806040517ffc8f7d55000000000000000000000000000000000000000000000000000000008152600401610a289190613eca565b60405180910390fd5b81600160026000838152602001908152602001600020600301541415610a8e57806040517f4eec80e6000000000000000000000000000000000000000000000000000000008152600401610a859190613eca565b60405180910390fd5b82610a9881611254565b610ad957806040517f67679079000000000000000000000000000000000000000000000000000000008152600401610ad09190613eca565b60405180910390fd5b60006002600086815260200190815260200160002090506001816003018190555060005b6002600087815260200190815260200160002060000180549050811015610c83576000610c33836000018381548110610b3957610b3861488d565b5b9060005260206000200160009054906101000a900473ffffffffffffffffffffffffffffffffffffffff16846001018481548110610b7a57610b7961488d565b5b9060005260206000200154856002018581548110610b9b57610b9a61488d565b5b906000526020600020018054610bb0906148eb565b80601f0160208091040260200160405190810160405280929190818152602001828054610bdc906148eb565b8015610c295780601f10610bfe57610100808354040283529160200191610c29565b820191906000526020600020905b815481529060010190602001808311610c0c57829003601f168201915b5050505050612e4e565b9050867f8c24081880749c0e4b467d98c335531022b2e7b74f6e264405138daf13d31e3c8383604051610c67929190614967565b60405180910390a2508080610c7b906149c6565b915050610afd565b505050505050565b3073ffffffffffffffffffffffffffffffffffffffff163373ffffffffffffffffffffffffffffffffffffffff1614610cfb57336040517f03f2b1fd000000000000000000000000000000000000000000000000000000008152600401610cf291906144b1565b60405180910390fd5b80610d10816003612f5d90919063ffffffff16565b610d5157806040517f531e21ce000000000000000000000000000000000000000000000000000000008152600401610d4891906144b1565b60405180910390fd5b6001610d5d6003612f8d565b1415610da057816040517fb1722f41000000000000000000000000000000000000000000000000000000008152600401610d9791906144b1565b60405180910390fd5b610db4826003612fa290919063ffffffff16565b50610dbf6003612f8d565b6005541115610ddb57610dda610dd56003612f8d565b6122f1565b5b8173ffffffffffffffffffffffffffffffffffffffff167f58619076adf5bb0943d100ef88d52d7c3fd691b19d3a9071b555b651fbf418da60405160405180910390a25050565b33610e37816003612f5d90919063ffffffff16565b610e7857806040517f531e21ce000000000000000000000000000000000000000000000000000000008152600401610e6f91906144b1565b60405180910390fd5b81336002600083815260200190815260200160002060040160008273ffffffffffffffffffffffffffffffffffffffff1673ffffffffffffffffffffffffffffffffffffffff16815260200190815260200160002060009054906101000a900460ff16610f1e5781816040517f36308e83000000000000000000000000000000000000000000000000000000008152600401610f15929190614a0f565b60405180910390fd5b83600160026000838152602001908152602001600020600301541415610f7b57806040517f4eec80e6000000000000000000000000000000000000000000000000000000008152600401610f729190613eca565b60405180910390fd5b60006002600087815260200190815260200160002060040160003373ffffffffffffffffffffffffffffffffffffffff1673ffffffffffffffffffffffffffffffffffffffff16815260200190815260200160002060006101000a81548160ff021916908315150217905550843373ffffffffffffffffffffffffffffffffffffffff167f795394da21278ca39d59bb3ca00efeebdc0679acc420916c7385c2c5d942656f60405160405180910390a35050505050565b3073ffffffffffffffffffffffffffffffffffffffff163373ffffffffffffffffffffffffffffffffffffffff16146110a257336040517f03f2b1fd00000000000000000000000000000000000000000000000000000000815260040161109991906144b1565b60405180910390fd5b6110ab81612fd2565b50565b60006110c4826003612f5d90919063ffffffff16565b9050919050565b7f000000000000000000000000000000000000000000000000000000000000000073ffffffffffffffffffffffffffffffffffffffff163073ffffffffffffffffffffffffffffffffffffffff16141561115a576040517f08c379a000000000000000000000000000000000000000000000000000000000815260040161115190614abb565b60405180910390fd5b7f000000000000000000000000000000000000000000000000000000000000000073ffffffffffffffffffffffffffffffffffffffff166111996130ae565b73ffffffffffffffffffffffffffffffffffffffff16146111ef576040517f08c379a00000000000000000000000000000000000000000000000000000000081526004016111e690614b4d565b60405180910390fd5b6111f881613105565b61125181600067ffffffffffffffff81111561121757611216614062565b5b6040519080825280601f01601f1916602001820160405280156112495781602001600182028036833780820191505090505b506000613178565b50565b600080611260836122d1565b9050428111158015611288575060016002600085815260200190815260200160002060030154115b915050919050565b60017f8f989356aeb576065c8d201815b96ac9c10cf89197a532e428ebd68581557c2360001c6112c09190614b6d565b60001b81565b6112ce611e3f565b73ffffffffffffffffffffffffffffffffffffffff163373ffffffffffffffffffffffffffffffffffffffff1614611332576040517f75df51dc00000000000000000000000000000000000000000000000000000000815260040160405180910390fd5b61133c6000613349565b7f0e5e3b3fb504c22cf5c42fa07d521225937514c654007e1f12646f89768d6f9460405160405180910390a1565b7f000000000000000000000000000000000000000000000000000000000000000073ffffffffffffffffffffffffffffffffffffffff163073ffffffffffffffffffffffffffffffffffffffff1614156113f9576040517f08c379a00000000000000000000000000000000000000000000000000000000081526004016113f090614abb565b60405180910390fd5b7f000000000000000000000000000000000000000000000000000000000000000073ffffffffffffffffffffffffffffffffffffffff166114386130ae565b73ffffffffffffffffffffffffffffffffffffffff161461148e576040517f08c379a000000000000000000000000000000000000000000000000000000000815260040161148590614b4d565b60405180910390fd5b61149782613105565b6114a382826001613178565b5050565b3073ffffffffffffffffffffffffffffffffffffffff163373ffffffffffffffffffffffffffffffffffffffff161461151757336040517f03f2b1fd00000000000000000000000000000000000000000000000000000000815260040161150e91906144b1565b60405180910390fd5b61152081613387565b50565b600061152d612042565b15611564576040517f9e87fac800000000000000000000000000000000000000000000000000000000815260040160405180910390fd5b8484905087879050146115a3576040517f98a8185a00000000000000000000000000000000000000000000000000000000815260040160405180910390fd5b8282905087879050146115e2576040517f98a8185a00000000000000000000000000000000000000000000000000000000815260040160405180910390fd5b61167b878780806020026020016040519081016040528093929190818152602001838360200280828437600081840152601f19601f82011690508083019250505050505050868680806020026020016040519081016040528093929190818152602001838360200280828437600081840152601f19601f820116905080830192505050505050508585906116769190614c54565b613431565b905061168681612bd0565b9695505050505050565b60008060008060018060026000935093509350935090919293565b600060019054906101000a900460ff166116d35760008054906101000a900460ff16156116dc565b6116db61358a565b5b61171b576040517f08c379a000000000000000000000000000000000000000000000000000000000815260040161171290614cdb565b60405180910390fd5b60008060019054906101000a900460ff16159050801561176b576001600060016101000a81548160ff02191690831515021790555060016000806101000a81548160ff0219169083151502179055505b8484905083603282118061177e57508181115b806117895750600081145b806117945750600082145b156117d85781816040517f350771880000000000000000000000000000000000000000000000000000000081526004016117cf929190614cfb565b60405180910390fd5b60005b878790508110156119d1576118218888838181106117fc576117fb61488d565b5b90506020020160208101906118119190613fb0565b6003612f5d90919063ffffffff16565b1561188a578787828181106118395761183861488d565b5b905060200201602081019061184e9190613fb0565b6040517f5ba0cba400000000000000000000000000000000000000000000000000000000815260040161188191906144b1565b60405180910390fd5b600073ffffffffffffffffffffffffffffffffffffffff168888838181106118b5576118b461488d565b5b90506020020160208101906118ca9190613fb0565b73ffffffffffffffffffffffffffffffffffffffff161415611918576040517f0855380c00000000000000000000000000000000000000000000000000000000815260040160405180910390fd5b61195388888381811061192e5761192d61488d565b5b90506020020160208101906119439190613fb0565b600361359b90919063ffffffff16565b508787828181106119675761196661488d565b5b905060200201602081019061197c9190613fb0565b73ffffffffffffffffffffffffffffffffffffffff167f994a936646fe87ffe4f1e469d3d6aa417d6b855598397f323de5b449f765f0c360405160405180910390a280806119c9906149c6565b9150506117db565b506119db856135cb565b6119e484613387565b50508015611a075760008060016101000a81548160ff0219169083151502179055505b5050505050565b60015481565b6000806000905060005b611a286003612f8d565b811015611adf57600260008581526020019081526020016000206004016000611a5b83600361360c90919063ffffffff16565b73ffffffffffffffffffffffffffffffffffffffff1673ffffffffffffffffffffffffffffffffffffffff16815260200190815260200160002060009054906101000a900460ff1615611ab7578180611ab3906149c6565b9250505b600554821415611acc57600192505050611ae6565b8080611ad7906149c6565b915050611a1e565b5060009150505b919050565b3073ffffffffffffffffffffffffffffffffffffffff163373ffffffffffffffffffffffffffffffffffffffff1614611b5b57336040517f03f2b1fd000000000000000000000000000000000000000000000000000000008152600401611b5291906144b1565b60405180910390fd5b80611b70816003612f5d90919063ffffffff16565b15611bb257806040517f5ba0cba4000000000000000000000000000000000000000000000000000000008152600401611ba991906144b1565b60405180910390fd5b81600073ffffffffffffffffffffffffffffffffffffffff168173ffffffffffffffffffffffffffffffffffffffff161415611c1a576040517f0855380c00000000000000000000000000000000000000000000000000000000815260040160405180910390fd5b6001611c266003612f8d565b611c309190614d24565b6005546032821180611c4157508181115b80611c4c5750600081145b80611c575750600082145b15611c9b5781816040517f35077188000000000000000000000000000000000000000000000000000000008152600401611c92929190614cfb565b60405180910390fd5b611caf85600361359b90919063ffffffff16565b508473ffffffffffffffffffffffffffffffffffffffff167f994a936646fe87ffe4f1e469d3d6aa417d6b855598397f323de5b449f765f0c360405160405180910390a25050505050565b611d02611e3f565b73ffffffffffffffffffffffffffffffffffffffff163373ffffffffffffffffffffffffffffffffffffffff1614611d66576040517f75df51dc00000000000000000000000000000000000000000000000000000000815260040160405180910390fd5b611d706001613349565b7fab35696f06e428ebc5ceba8cd17f8fed287baf43440206d1943af1ee53e6d26760405160405180910390a1565b60006002600084815260200190815260200160002060040160008373ffffffffffffffffffffffffffffffffffffffff1673ffffffffffffffffffffffffffffffffffffffff16815260200190815260200160002060009054906101000a900460ff16905092915050565b60017f29f060ba1cf8d3659516b02281c85dcc3e81b4287766ae4751c0f500688be30f60001c611e399190614b6d565b60001b81565b600080600060017f29f060ba1cf8d3659516b02281c85dcc3e81b4287766ae4751c0f500688be30f60001c611e749190614b6d565b60001b905080549150819250505090565b6060611e916003613626565b905090565b60006001611ea3836122d1565b119050919050565b6000611eb5613647565b90508073ffffffffffffffffffffffffffffffffffffffff163373ffffffffffffffffffffffffffffffffffffffff1614611f2757336040517f1b91052a000000000000000000000000000000000000000000000000000000008152600401611f1e91906144b1565b60405180910390fd5b60005b87879050811015612038576000611fe9898984818110611f4d57611f4c61488d565b5b9050602002016020810190611f629190613fb0565b888885818110611f7557611f7461488d565b5b90506020020135878786818110611f8f57611f8e61488d565b5b9050602002810190611fa19190614d89565b8080601f016020809104026020016040519081016040528093929190818152602001838380828437600081840152601f19601f82011690508083019250505050505050612e4e565b90507f2cff75da45e8d4c23727866a0cb43645117659d46a9b050581f533ad2eb2112a828260405161201c929190614967565b60405180910390a1508080612030906149c6565b915050611f2a565b5050505050505050565b600080600060017f8f989356aeb576065c8d201815b96ac9c10cf89197a532e428ebd68581557c2360001c6120779190614b6d565b60001b905080549150819250505090565b606060006120966003612f8d565b67ffffffffffffffff8111156120af576120ae614062565b5b6040519080825280602002602001820160405280156120dd5781602001602082028036833780820191505090505b5090506000805b6120ee6003612f8d565b8110156121f15760026000868152602001908152602001600020600401600061212183600361360c90919063ffffffff16565b73ffffffffffffffffffffffffffffffffffffffff1673ffffffffffffffffffffffffffffffffffffffff16815260200190815260200160002060009054906101000a900460ff16156121de5761218281600361360c90919063ffffffff16565b8383815181106121955761219461488d565b5b602002602001019073ffffffffffffffffffffffffffffffffffffffff16908173ffffffffffffffffffffffffffffffffffffffff168152505081806121da906149c6565b9250505b80806121e9906149c6565b9150506120e4565b5060008167ffffffffffffffff81111561220e5761220d614062565b5b60405190808252806020026020018201604052801561223c5781602001602082028036833780820191505090505b50905060005b828110156122c55783818151811061225d5761225c61488d565b5b60200260200101518282815181106122785761227761488d565b5b602002602001019073ffffffffffffffffffffffffffffffffffffffff16908173ffffffffffffffffffffffffffffffffffffffff168152505080806122bd906149c6565b915050612242565b50809350505050919050565b600060026000838152602001908152602001600020600301549050919050565b3073ffffffffffffffffffffffffffffffffffffffff163373ffffffffffffffffffffffffffffffffffffffff161461236157336040517f03f2b1fd00000000000000000000000000000000000000000000000000000000815260040161235891906144b1565b60405180910390fd5b61236b6003612f8d565b81603282118061237a57508181115b806123855750600081145b806123905750600082145b156123d45781816040517f350771880000000000000000000000000000000000000000000000000000000081526004016123cb929190614cfb565b60405180910390fd5b6123dd836135cb565b505050565b7f000000000000000000000000000000000000000000000000000000000000000081565b60608060606000600260008681526020019081526020016000209050806000018160010182600201828054806020026020016040519081016040528092919081815260200182805480156124af57602002820191906000526020600020905b8160009054906101000a900473ffffffffffffffffffffffffffffffffffffffff1673ffffffffffffffffffffffffffffffffffffffff1681526020019060010190808311612465575b505050505092508180548060200260200160405190810160405280929190818152602001828054801561250157602002820191906000526020600020905b8154815260200190600101908083116124ed575b5050505050915080805480602002602001604051908101604052809291908181526020016000905b828210156125d5578382906000526020600020018054612548906148eb565b80601f0160208091040260200160405190810160405280929190818152602001828054612574906148eb565b80156125c15780601f10612596576101008083540402835291602001916125c1565b820191906000526020600020905b8154815290600101906020018083116125a457829003601f168201915b505050505081526020019060010190612529565b505050509050935093509350509193909250565b60006125f3613647565b90508073ffffffffffffffffffffffffffffffffffffffff163373ffffffffffffffffffffffffffffffffffffffff161461266557336040517f1b91052a00000000000000000000000000000000000000000000000000000000815260040161265c91906144b1565b60405180910390fd5b60005b8383905081101561270d578383828181106126865761268561488d565b5b905060200201602081019061269b9190613fb0565b73ffffffffffffffffffffffffffffffffffffffff16633f4ba83a6040518163ffffffff1660e01b8152600401600060405180830381600087803b1580156126e257600080fd5b505af11580156126f6573d6000803e3d6000fd5b505050508080612705906149c6565b915050612668565b50505050565b603281565b61272c336003612f5d90919063ffffffff16565b15801561276c575061273c613647565b73ffffffffffffffffffffffffffffffffffffffff163373ffffffffffffffffffffffffffffffffffffffff1614155b156127ae57336040517f89de0e260000000000000000000000000000000000000000000000000000000081526004016127a591906144b1565b60405180910390fd5b60005b82829050811015612856578282828181106127cf576127ce61488d565b5b90506020020160208101906127e49190613fb0565b73ffffffffffffffffffffffffffffffffffffffff16638456cb596040518163ffffffff1660e01b8152600401600060405180830381600087803b15801561282b57600080fd5b505af115801561283f573d6000803e3d6000fd5b50505050808061284e906149c6565b9150506127b1565b505050565b60065481565b60055481565b61286f612042565b156128a6576040517f9e87fac800000000000000000000000000000000000000000000000000000000815260040160405180910390fd5b336128bb816003612f5d90919063ffffffff16565b6128fc57806040517f531e21ce0000000000000000000000000000000000000000000000000000000081526004016128f391906144b1565b60405180910390fd5b8160016002600083815260200190815260200160002060030154141561295957806040517f4eec80e60000000000000000000000000000000000000000000000000000000081526004016129509190613eca565b60405180910390fd5b612962836136f3565b827f8b9c2cfee0d20895490bae51f33d88197032bb221b15e360155508136257569a60405160405180910390a2505050565b3073ffffffffffffffffffffffffffffffffffffffff163373ffffffffffffffffffffffffffffffffffffffff1614612a0457336040517f03f2b1fd0000000000000000000000000000000000000000000000000000000081526004016129fb91906144b1565b60405180910390fd5b81612a19816003612f5d90919063ffffffff16565b612a5a57806040517f531e21ce000000000000000000000000000000000000000000000000000000008152600401612a5191906144b1565b60405180910390fd5b81600073ffffffffffffffffffffffffffffffffffffffff168173ffffffffffffffffffffffffffffffffffffffff161415612ac2576040517f0855380c00000000000000000000000000000000000000000000000000000000815260040160405180910390fd5b82612ad7816003612f5d90919063ffffffff16565b15612b1957806040517f5ba0cba4000000000000000000000000000000000000000000000000000000008152600401612b1091906144b1565b60405180910390fd5b612b2d856003612fa290919063ffffffff16565b50612b4284600361359b90919063ffffffff16565b508473ffffffffffffffffffffffffffffffffffffffff167f58619076adf5bb0943d100ef88d52d7c3fd691b19d3a9071b555b651fbf418da60405160405180910390a28373ffffffffffffffffffffffffffffffffffffffff167f994a936646fe87ffe4f1e469d3d6aa417d6b855598397f323de5b449f765f0c360405160405180910390a25050505050565b612bd8612042565b15612c0f576040517f9e87fac800000000000000000000000000000000000000000000000000000000815260040160405180910390fd5b33612c24816003612f5d90919063ffffffff16565b612c6557806040517f531e21ce000000000000000000000000000000000000000000000000000000008152600401612c5c91906144b1565b60405180910390fd5b81600060026000838152602001908152602001600020600001805490501415612cc557806040517f4f017420000000000000000000000000000000000000000000000000000000008152600401612cbc9190613eca565b60405180910390fd5b82336002600083815260200190815260200160002060040160008273ffffffffffffffffffffffffffffffffffffffff1673ffffffffffffffffffffffffffffffffffffffff16815260200190815260200160002060009054906101000a900460ff1615612d6c5781816040517f3d5ba205000000000000000000000000000000000000000000000000000000008152600401612d63929190614a0f565b60405180910390fd5b60016002600087815260200190815260200160002060040160003373ffffffffffffffffffffffffffffffffffffffff1673ffffffffffffffffffffffffffffffffffffffff16815260200190815260200160002060006101000a81548160ff021916908315150217905550843373ffffffffffffffffffffffffffffffffffffffff167f03c76756bd7402ca4b074fa11dfd2a209452c67f6f414cff1d8e9795d291421760405160405180910390a3612e2585611a14565b15612e3457612e3385612867565b5b5050505050565b600080823b905060008111915050919050565b6060600082511115612ea557612e6384612e3b565b612ea457836040517f19bb4029000000000000000000000000000000000000000000000000000000008152600401612e9b91906144b1565b60405180910390fd5b5b600060608573ffffffffffffffffffffffffffffffffffffffff168585604051612ecf9190614e28565b60006040518083038185875af1925050503d8060008114612f0c576040519150601f19603f3d011682016040523d82523d6000602084013e612f11565b606091505b50809250819350505081612f51576040517facfdb44400000000000000000000000000000000000000000000000000000000815260040160405180910390fd5b80925050509392505050565b6000612f85836000018373ffffffffffffffffffffffffffffffffffffffff1660001b6137b7565b905092915050565b6000612f9b826000016137da565b9050919050565b6000612fca836000018373ffffffffffffffffffffffffffffffffffffffff1660001b6137eb565b905092915050565b600073ffffffffffffffffffffffffffffffffffffffff168173ffffffffffffffffffffffffffffffffffffffff161415613039576040517f0855380c00000000000000000000000000000000000000000000000000000000815260040160405180910390fd5b600060017f29f060ba1cf8d3659516b02281c85dcc3e81b4287766ae4751c0f500688be30f60001c61306b9190614b6d565b60001b90508181557fd11d57c2c7468878b1035df11c670bcd0091aa840bf8aa166365397622237bea826040516130a291906144b1565b60405180910390a15050565b60006130dc7f360894a13ba1a3210667c828492db98dca3e2076cc3735a920a3ca505d382bbc60001b6138ff565b60000160009054906101000a900473ffffffffffffffffffffffffffffffffffffffff16905090565b3073ffffffffffffffffffffffffffffffffffffffff163373ffffffffffffffffffffffffffffffffffffffff161461317557336040517f03f2b1fd00000000000000000000000000000000000000000000000000000000815260040161316c91906144b1565b60405180910390fd5b50565b60006131826130ae565b905061318d84613909565b60008351118061319a5750815b156131ab576131a984846139c2565b505b60006131d97f4910fdfa16fed3260ed0e7147f7cc6da11a60208b5b9406d12a635614ffd914360001b6139ef565b90508060000160009054906101000a900460ff166133425760018160000160006101000a81548160ff0219169083151502179055506132a5858360405160240161322391906144b1565b6040516020818303038152906040527f3659cfe6000000000000000000000000000000000000000000000000000000007bffffffffffffffffffffffffffffffffffffffffffffffffffffffff19166020820180517bffffffffffffffffffffffffffffffffffffffffffffffffffffffff83818316178352505050506139c2565b5060008160000160006101000a81548160ff0219169083151502179055506132cb6130ae565b73ffffffffffffffffffffffffffffffffffffffff168273ffffffffffffffffffffffffffffffffffffffff1614613338576040517f08c379a000000000000000000000000000000000000000000000000000000000815260040161332f90614eb1565b60405180910390fd5b613341856139f9565b5b5050505050565b600060017f8f989356aeb576065c8d201815b96ac9c10cf89197a532e428ebd68581557c2360001c61337b9190614b6d565b60001b90508181555050565b7f00000000000000000000000000000000000000000000000000000000000000008110156133ec57806040517f08462b5c0000000000000000000000000000000000000000000000000000000081526004016133e39190613eca565b60405180910390fd5b806001819055507fe238f342cc2d86b842f1511bd768de5dbea53639f6b5335c5d877543bc355c7160015482604051613426929190614cfb565b60405180910390a150565b60008360005b81518110156134d457600073ffffffffffffffffffffffffffffffffffffffff1682828151811061346b5761346a61488d565b5b602002602001015173ffffffffffffffffffffffffffffffffffffffff1614156134c1576040517f0855380c00000000000000000000000000000000000000000000000000000000815260040160405180910390fd5b80806134cc906149c6565b915050613437565b506006549150600060026000848152602001908152602001600020905085816000019080519060200190613509929190613c73565b5084816001019080519060200190613522929190613cfd565b508381600201908051906020019061353b929190613d4a565b506006600081548092919061354f906149c6565b9190505550827f3f802220982dbddc337f1811180e73513e775b18380401997927fd1454cfd0bd60405160405180910390a250509392505050565b600061359530612e3b565b15905090565b60006135c3836000018373ffffffffffffffffffffffffffffffffffffffff1660001b613a48565b905092915050565b806005819055507facbdb084c721332ac59f9b8e392196c9eb0e4932862da8eb9beaf0dad4f550da816040516136019190613eca565b60405180910390a150565b600061361b8360000183613ab8565b60001c905092915050565b6060600061363683600001613ae3565b905060608190508092505050919050565b60008061ce1090508073ffffffffffffffffffffffffffffffffffffffff1663dcf0aaed60405160200161367a90614f28565b604051602081830303815290604052805190602001206040518263ffffffff1660e01b81526004016136ac919061402c565b602060405180830381865afa1580156136c9573d6000803e3d6000fd5b505050506040513d601f19601f820116820180604052508101906136ed9190614f52565b91505090565b806136fd81611e96565b1561373f57806040517fd61102f50000000000000000000000000000000000000000000000000000000081526004016137369190613eca565b60405180910390fd5b8161374981611a14565b61378a57806040517f4e59425a0000000000000000000000000000000000000000000000000000000081526004016137819190613eca565b60405180910390fd5b600154426137989190614d24565b6002600085815260200190815260200160002060030181905550505050565b600080836001016000848152602001908152602001600020541415905092915050565b600081600001805490509050919050565b600080836001016000848152602001908152602001600020549050600081146138f357600060018261381d9190614b6d565b90506000600186600001805490506138359190614b6d565b90508181146138a45760008660000182815481106138565761385561488d565b5b906000526020600020015490508087600001848154811061387a5761387961488d565b5b90600052602060002001819055508387600101600083815260200190815260200160002081905550505b856000018054806138b8576138b7614f7f565b5b6001900381819060005260206000200160009055905585600101600086815260200190815260200160002060009055600193505050506138f9565b60009150505b92915050565b6000819050919050565b61391281612e3b565b613951576040517f08c379a000000000000000000000000000000000000000000000000000000000815260040161394890615020565b60405180910390fd5b8061397e7f360894a13ba1a3210667c828492db98dca3e2076cc3735a920a3ca505d382bbc60001b6138ff565b60000160006101000a81548173ffffffffffffffffffffffffffffffffffffffff021916908373ffffffffffffffffffffffffffffffffffffffff16021790555050565b60606139e7838360405180606001604052806027815260200161513960279139613b3f565b905092915050565b6000819050919050565b613a0281613909565b8073ffffffffffffffffffffffffffffffffffffffff167fbc7cd75a20ee27fd9adebab32041f755214dbc6bffa90cc0225b39da2e5c2d3b60405160405180910390a250565b6000613a5483836137b7565b613aad578260000182908060018154018082558091505060019003906000526020600020016000909190919091505582600001805490508360010160008481526020019081526020016000208190555060019050613ab2565b600090505b92915050565b6000826000018281548110613ad057613acf61488d565b5b9060005260206000200154905092915050565b606081600001805480602002602001604051908101604052809291908181526020018280548015613b3357602002820191906000526020600020905b815481526020019060010190808311613b1f575b50505050509050919050565b6060613b4a84612e3b565b613b89576040517f08c379a0000000000000000000000000000000000000000000000000000000008152600401613b80906150b2565b60405180910390fd5b6000808573ffffffffffffffffffffffffffffffffffffffff1685604051613bb19190614e28565b600060405180830381855af49150503d8060008114613bec576040519150601f19603f3d011682016040523d82523d6000602084013e613bf1565b606091505b5091509150613c01828286613c0c565b925050509392505050565b60608315613c1c57829050613c6c565b600083511115613c2f5782518084602001fd5b816040517f08c379a0000000000000000000000000000000000000000000000000000000008152600401613c639190615116565b60405180910390fd5b9392505050565b828054828255906000526020600020908101928215613cec579160200282015b82811115613ceb5782518260006101000a81548173ffffffffffffffffffffffffffffffffffffffff021916908373ffffffffffffffffffffffffffffffffffffffff16021790555091602001919060010190613c93565b5b509050613cf99190613daa565b5090565b828054828255906000526020600020908101928215613d39579160200282015b82811115613d38578251825591602001919060010190613d1d565b5b509050613d469190613daa565b5090565b828054828255906000526020600020908101928215613d99579160200282015b82811115613d98578251829080519060200190613d88929190613dc7565b5091602001919060010190613d6a565b5b509050613da69190613e4d565b5090565b5b80821115613dc3576000816000905550600101613dab565b5090565b828054613dd3906148eb565b90600052602060002090601f016020900481019282613df55760008555613e3c565b82601f10613e0e57805160ff1916838001178555613e3c565b82800160010185558215613e3c579182015b82811115613e3b578251825591602001919060010190613e20565b5b509050613e499190613daa565b5090565b5b80821115613e6d5760008181613e649190613e71565b50600101613e4e565b5090565b508054613e7d906148eb565b6000825580601f10613e8f5750613eae565b601f016020900490600052602060002090810190613ead9190613daa565b5b50565b6000819050919050565b613ec481613eb1565b82525050565b6000602082019050613edf6000830184613ebb565b92915050565b6000604051905090565b600080fd5b600080fd5b613f0281613eb1565b8114613f0d57600080fd5b50565b600081359050613f1f81613ef9565b92915050565b600060208284031215613f3b57613f3a613eef565b5b6000613f4984828501613f10565b91505092915050565b600073ffffffffffffffffffffffffffffffffffffffff82169050919050565b6000613f7d82613f52565b9050919050565b613f8d81613f72565b8114613f9857600080fd5b50565b600081359050613faa81613f84565b92915050565b600060208284031215613fc657613fc5613eef565b5b6000613fd484828501613f9b565b91505092915050565b60008115159050919050565b613ff281613fdd565b82525050565b600060208201905061400d6000830184613fe9565b92915050565b6000819050919050565b61402681614013565b82525050565b6000602082019050614041600083018461401d565b92915050565b600080fd5b600080fd5b6000601f19601f8301169050919050565b7f4e487b7100000000000000000000000000000000000000000000000000000000600052604160045260246000fd5b61409a82614051565b810181811067ffffffffffffffff821117156140b9576140b8614062565b5b80604052505050565b60006140cc613ee5565b90506140d88282614091565b919050565b600067ffffffffffffffff8211156140f8576140f7614062565b5b61410182614051565b9050602081019050919050565b82818337600083830152505050565b600061413061412b846140dd565b6140c2565b90508281526020810184848401111561414c5761414b61404c565b5b61415784828561410e565b509392505050565b600082601f83011261417457614173614047565b5b813561418484826020860161411d565b91505092915050565b600080604083850312156141a4576141a3613eef565b5b60006141b285828601613f9b565b925050602083013567ffffffffffffffff8111156141d3576141d2613ef4565b5b6141df8582860161415f565b9150509250929050565b600080fd5b600080fd5b60008083601f84011261420957614208614047565b5b8235905067ffffffffffffffff811115614226576142256141e9565b5b602083019150836020820283011115614242576142416141ee565b5b9250929050565b60008083601f84011261425f5761425e614047565b5b8235905067ffffffffffffffff81111561427c5761427b6141e9565b5b602083019150836020820283011115614298576142976141ee565b5b9250929050565b60008083601f8401126142b5576142b4614047565b5b8235905067ffffffffffffffff8111156142d2576142d16141e9565b5b6020830191508360208202830111156142ee576142ed6141ee565b5b9250929050565b6000806000806000806060878903121561431257614311613eef565b5b600087013567ffffffffffffffff8111156143305761432f613ef4565b5b61433c89828a016141f3565b9650965050602087013567ffffffffffffffff81111561435f5761435e613ef4565b5b61436b89828a01614249565b9450945050604087013567ffffffffffffffff81111561438e5761438d613ef4565b5b61439a89828a0161429f565b92509250509295509295509295565b60006080820190506143be6000830187613ebb565b6143cb6020830186613ebb565b6143d86040830185613ebb565b6143e56060830184613ebb565b95945050505050565b6000806000806060858703121561440857614407613eef565b5b600085013567ffffffffffffffff81111561442657614425613ef4565b5b614432878288016141f3565b9450945050602061444587828801613f10565b925050604061445687828801613f10565b91505092959194509250565b6000806040838503121561447957614478613eef565b5b600061448785828601613f10565b925050602061449885828601613f9b565b9150509250929050565b6144ab81613f72565b82525050565b60006020820190506144c660008301846144a2565b92915050565b600081519050919050565b600082825260208201905092915050565b6000819050602082019050919050565b61450181613f72565b82525050565b600061451383836144f8565b60208301905092915050565b6000602082019050919050565b6000614537826144cc565b61454181856144d7565b935061454c836144e8565b8060005b8381101561457d5781516145648882614507565b975061456f8361451f565b925050600181019050614550565b5085935050505092915050565b600060208201905081810360008301526145a4818461452c565b905092915050565b600081519050919050565b600082825260208201905092915050565b6000819050602082019050919050565b6145e181613eb1565b82525050565b60006145f383836145d8565b60208301905092915050565b6000602082019050919050565b6000614617826145ac565b61462181856145b7565b935061462c836145c8565b8060005b8381101561465d57815161464488826145e7565b975061464f836145ff565b925050600181019050614630565b5085935050505092915050565b600081519050919050565b600082825260208201905092915050565b6000819050602082019050919050565b600081519050919050565b600082825260208201905092915050565b60005b838110156146d05780820151818401526020810190506146b5565b838111156146df576000848401525b50505050565b60006146f082614696565b6146fa81856146a1565b935061470a8185602086016146b2565b61471381614051565b840191505092915050565b600061472a83836146e5565b905092915050565b6000602082019050919050565b600061474a8261466a565b6147548185614675565b93508360208202850161476685614686565b8060005b858110156147a25784840389528151614783858261471e565b945061478e83614732565b925060208a0199505060018101905061476a565b50829750879550505050505092915050565b600060608201905081810360008301526147ce818661452c565b905081810360208301526147e2818561460c565b905081810360408301526147f6818461473f565b9050949350505050565b6000806020838503121561481757614816613eef565b5b600083013567ffffffffffffffff81111561483557614834613ef4565b5b614841858286016141f3565b92509250509250929050565b6000806040838503121561486457614863613eef565b5b600061487285828601613f9b565b925050602061488385828601613f9b565b9150509250929050565b7f4e487b7100000000000000000000000000000000000000000000000000000000600052603260045260246000fd5b7f4e487b7100000000000000000000000000000000000000000000000000000000600052602260045260246000fd5b6000600282049050600182168061490357607f821691505b60208210811415614917576149166148bc565b5b50919050565b600082825260208201905092915050565b600061493982614696565b614943818561491d565b93506149538185602086016146b2565b61495c81614051565b840191505092915050565b600060408201905061497c6000830185613ebb565b818103602083015261498e818461492e565b90509392505050565b7f4e487b7100000000000000000000000000000000000000000000000000000000600052601160045260246000fd5b60006149d182613eb1565b91507fffffffffffffffffffffffffffffffffffffffffffffffffffffffffffffffff821415614a0457614a03614997565b5b600182019050919050565b6000604082019050614a246000830185613ebb565b614a3160208301846144a2565b9392505050565b600082825260208201905092915050565b7f46756e6374696f6e206d7573742062652063616c6c6564207468726f7567682060008201527f64656c656761746563616c6c0000000000000000000000000000000000000000602082015250565b6000614aa5602c83614a38565b9150614ab082614a49565b604082019050919050565b60006020820190508181036000830152614ad481614a98565b9050919050565b7f46756e6374696f6e206d7573742062652063616c6c6564207468726f7567682060008201527f6163746976652070726f78790000000000000000000000000000000000000000602082015250565b6000614b37602c83614a38565b9150614b4282614adb565b604082019050919050565b60006020820190508181036000830152614b6681614b2a565b9050919050565b6000614b7882613eb1565b9150614b8383613eb1565b925082821015614b9657614b95614997565b5b828203905092915050565b600067ffffffffffffffff821115614bbc57614bbb614062565b5b602082029050602081019050919050565b6000614be0614bdb84614ba1565b6140c2565b90508083825260208201905060208402830185811115614c0357614c026141ee565b5b835b81811015614c4a57803567ffffffffffffffff811115614c2857614c27614047565b5b808601614c35898261415f565b85526020850194505050602081019050614c05565b5050509392505050565b6000614c61368484614bcd565b905092915050565b7f496e697469616c697a61626c653a20636f6e747261637420697320616c72656160008201527f647920696e697469616c697a6564000000000000000000000000000000000000602082015250565b6000614cc5602e83614a38565b9150614cd082614c69565b604082019050919050565b60006020820190508181036000830152614cf481614cb8565b9050919050565b6000604082019050614d106000830185613ebb565b614d1d6020830184613ebb565b9392505050565b6000614d2f82613eb1565b9150614d3a83613eb1565b9250827fffffffffffffffffffffffffffffffffffffffffffffffffffffffffffffffff03821115614d6f57614d6e614997565b5b828201905092915050565b600080fd5b600080fd5b600080fd5b60008083356001602003843603038112614da657614da5614d7a565b5b80840192508235915067ffffffffffffffff821115614dc857614dc7614d7f565b5b602083019250600182023603831315614de457614de3614d84565b5b509250929050565b600081905092915050565b6000614e0282614696565b614e0c8185614dec565b9350614e1c8185602086016146b2565b80840191505092915050565b6000614e348284614df7565b915081905092915050565b7f45524331393637557067726164653a207570677261646520627265616b73206660008201527f7572746865722075706772616465730000000000000000000000000000000000602082015250565b6000614e9b602f83614a38565b9150614ea682614e3f565b604082019050919050565b60006020820190508181036000830152614eca81614e8e565b9050919050565b600081905092915050565b7f476f7665726e616e636500000000000000000000000000000000000000000000600082015250565b6000614f12600a83614ed1565b9150614f1d82614edc565b600a82019050919050565b6000614f3382614f05565b9150819050919050565b600081519050614f4c81613f84565b92915050565b600060208284031215614f6857614f67613eef565b5b6000614f7684828501614f3d565b91505092915050565b7f4e487b7100000000000000000000000000000000000000000000000000000000600052603160045260246000fd5b7f455243313936373a206e657720696d706c656d656e746174696f6e206973206e60008201527f6f74206120636f6e747261637400000000000000000000000000000000000000602082015250565b600061500a602d83614a38565b915061501582614fae565b604082019050919050565b6000602082019050818103600083015261503981614ffd565b9050919050565b7f416464726573733a2064656c65676174652063616c6c20746f206e6f6e2d636f60008201527f6e74726163740000000000000000000000000000000000000000000000000000602082015250565b600061509c602683614a38565b91506150a782615040565b604082019050919050565b600060208201905081810360008301526150cb8161508f565b9050919050565b600081519050919050565b60006150e8826150d2565b6150f28185614a38565b93506151028185602086016146b2565b61510b81614051565b840191505092915050565b6000602082019050818103600083015261513081846150dd565b90509291505056fe416464726573733a206c6f772d6c6576656c2064656c65676174652063616c6c206661696c6564a26469706673582212207e51511b455d4781069bcededdae7bb692ab3d746a275472c4bb53e9d98167d164736f6c634300080b0033",
  "devdoc": {
    "author": "Stefan George - <stefan.george@consensys.net>",
    "details": "NOTE: This contract has its limitations and is not viable for every multi-signature setup. On a case by case basis, evaluate whether this is the correct contract for your use case. In particular, this contract doesn't have an atomic \"add owners and increase requirement\" operation. This can be tricky, for example, in a situation where a MultiSig starts out owned by a single owner. Safely increasing the owner set and requirement at the same time is not trivial. One way to work around this situation is to first add a second address controlled by the original owner, increase the requirement, and then replace the auxillary address with the intended second owner. Again, this is just one example, in general make sure to verify this contract will support your intended usage. The goal of this contract is to offer a simple, minimal multi-signature API that's easy to understand even for novice Solidity users. Forked from github.com/celo-org/celo-monorepo/blob/master/packages/protocol/contracts/common/MultiSig.sol",
    "errors": {
      "CannotRemoveLastOwner(address)": [
        {
          "params": {
            "owner": "The last owner."
          }
        }
      ],
      "InsufficientDelay(uint256)": [
        {
          "params": {
            "delay": "The insufficient delay."
          }
        }
      ],
      "InvalidContractAddress(address)": [
        {
          "params": {
            "destination": "The invalid destination address."
          }
        }
      ],
      "InvalidRequirement(uint256,uint256)": [
        {
          "params": {
            "ownerCount": "The count of owners.",
            "required": "The number of required confirmations."
          }
        }
      ],
      "OwnerAlreadyExists(address)": [
        {
          "params": {
            "owner": "The address of the owner."
          }
        }
      ],
      "OwnerDoesNotExist(address)": [
        {
          "params": {
            "owner": "The address of the owner."
          }
        }
      ],
      "ProposalAlreadyConfirmed(uint256,address)": [
        {
          "params": {
            "owner": "The address of the owner which confirmed the proposal.",
            "proposalId": "The ID of the proposal that is already confirmed."
          }
        }
      ],
      "ProposalAlreadyExecuted(uint256)": [
        {
          "params": {
            "proposalId": "The ID of the proposal that is already executed."
          }
        }
      ],
      "ProposalAlreadyScheduled(uint256)": [
        {
          "params": {
            "proposalId": "The ID of the proposal which is already scheduled."
          }
        }
      ],
      "ProposalDoesNotExist(uint256)": [
        {
          "params": {
            "proposalId": "The ID of the non-existent proposal."
          }
        }
      ],
      "ProposalNotConfirmed(uint256,address)": [
        {
          "params": {
            "owner": "The address of the owner which did not confirm the proposal.",
            "proposalId": "The ID of the proposal that is not confirmed."
          }
        }
      ],
      "ProposalNotFullyConfirmed(uint256)": [
        {
          "details": "A proposal is fully confirmed when the `required` threshold of confirmations has been met.",
          "params": {
            "proposalId": "The ID of the proposal that is not fully confirmed."
          }
        }
      ],
      "ProposalNotScheduled(uint256)": [
        {
          "params": {
            "proposalId": "The ID of the proposal which is not scheduled."
          }
        }
      ],
      "ProposalTimelockNotReached(uint256)": [
        {
          "params": {
            "proposalId": "The ID of the proposal whose time lock has not been reached yet."
          }
        }
      ],
      "SenderMustBeMultisigWallet(address)": [
        {
          "params": {
            "account": "The sender which triggered the function."
          }
        }
      ],
      "SenderNotGovernance(address)": [
        {
          "params": {
            "sender": "The address that triggered this function."
          }
        }
      ],
      "SenderNotGovernanceOrOwner(address)": [
        {
          "params": {
            "sender": "The address that triggered this function."
          }
        }
      ]
    },
    "events": {
      "CeloDeposited(address,uint256)": {
        "params": {
          "sender": "The account which sent the CELO.",
          "value": "The amount of CELO sent."
        }
      },
      "ConfirmationRevoked(address,uint256)": {
        "params": {
          "proposalId": "The ID of the proposal.",
          "sender": "The address of the sender."
        }
      },
      "DelayChanged(uint256,uint256)": {
        "params": {
          "delay": "The current delay value.",
          "newDelay": "The new delay value."
        }
      },
      "GovernanceTransactionExecuted(uint256,bytes)": {
        "params": {
          "index": "The index of the transaction within the proposal.",
          "returnData": "The response that was recieved from the external call."
        }
      },
      "OwnerAdded(address)": {
        "params": {
          "owner": "The added owner."
        }
      },
      "OwnerRemoved(address)": {
        "params": {
          "owner": "The removed owner."
        }
      },
      "ProposalAdded(uint256)": {
        "params": {
          "proposalId": "The ID of the proposal that was added."
        }
      },
      "ProposalConfirmed(address,uint256)": {
        "params": {
          "proposalId": "The ID of the proposal.",
          "sender": "The address of the sender."
        }
      },
      "ProposalScheduled(uint256)": {
        "params": {
          "proposalId": "The ID of the proposal that is scheduled."
        }
      },
      "RequirementChanged(uint256)": {
        "params": {
          "required": "The new required amount."
        }
      },
      "TransactionExecuted(uint256,uint256,bytes)": {
        "params": {
          "index": "The index of the transaction within the proposal.",
          "proposalId": "The ID of the proposal.",
          "returnData": "The response that was recieved from the external call."
        }
      }
    },
    "kind": "dev",
    "methods": {
      "addOwner(address)": {
        "details": "This call can only be made by this contract.",
        "params": {
          "owner": "The owner to add."
        }
      },
      "changeDelay(uint256)": {
        "details": "Proposal has to be sent by wallet.",
        "params": {
          "newDelay": "The new delay value."
        }
      },
      "changeRequirement(uint256)": {
        "details": "Proposal has to be sent by wallet.",
        "params": {
          "newRequired": "The new number of confirmations required."
        }
      },
      "confirmProposal(uint256)": {
        "params": {
          "proposalId": "The ID of the proposal to confirm."
        }
      },
      "constructor": {
        "params": {
          "_minDelay": "The minimum time in seconds that must elapse before a proposal is executable."
        }
      },
      "executeProposal(uint256)": {
        "details": "Any of the multisig owners can execute a given proposal, even though they may not have participated in its confirmation process."
      },
      "getConfirmations(uint256)": {
        "params": {
          "proposalId": "The ID of the proposal."
        },
        "returns": {
          "_0": "The list of owner addresses."
        }
      },
      "getOwners()": {
        "returns": {
          "_0": "The list of owner addresses."
        }
      },
      "getProposal(uint256)": {
        "params": {
          "destinations": "The addresses at which the proposal is target at.",
          "payloads": "The payloads of the proposal.",
          "proposalId": "The ID of the proposal.",
          "values": "The CELO values involved in the proposal if any."
        }
      },
      "getTimestamp(uint256)": {
        "params": {
          "proposalId": "The ID of the proposal."
        },
        "returns": {
          "_0": "The timestamp at which the proposal becomes executable."
        }
      },
      "getVersionNumber()": {
        "returns": {
          "_0": "Storage version of the contract.",
          "_1": "Major version of the contract.",
          "_2": "Minor version of the contract.",
          "_3": "Patch version of the contract."
        }
      },
      "governanceProposeAndExecute(address[],uint256[],bytes[])": {
        "details": "Only callable by the Celo Governance contract, as defined in the Celo Registry. Thus, this function may be called via a Governance referendum or hotfix."
      },
      "initialize(address[],uint256,uint256)": {
        "details": "This plays the role of a typical contract constructor. Sets initial owners and required number of confirmations. The initializer modifier ensures that this function is ONLY callable once.",
        "params": {
          "_delay": "The delay that must elapse to be able to execute a proposal.",
          "initialOwners": "The list of initial owners.",
          "requiredConfirmations": "The number of required confirmations for a proposal to be fully confirmed."
        }
      },
      "isConfirmedBy(uint256,address)": {
        "params": {
          "owner": "The address to check.",
          "proposalId": "The ID of the proposal to check."
        },
        "returns": {
          "_0": "Whether or not the proposal is confirmed by the given owner."
        }
      },
      "isFullyConfirmed(uint256)": {
        "params": {
          "proposalId": "The ID of the proposal to check."
        },
        "returns": {
          "_0": "Whether or not the proposal is confirmed by the minimum set of owners."
        }
      },
      "isOwner(address)": {
        "params": {
          "owner": "The address to check."
        },
        "returns": {
          "_0": "Whether or not the address is a multisig owner."
        }
      },
      "isPaused()": {
        "returns": {
          "_0": "`true` if the contract is paused, `false` otherwise."
        }
      },
      "isProposalTimelockReached(uint256)": {
        "params": {
          "proposalId": "The ID of the proposal to check."
        },
        "returns": {
          "_0": "Whether or not the time lock is reached."
        }
      },
      "isScheduled(uint256)": {
        "params": {
          "proposalId": "The ID of the proposal to check."
        },
        "returns": {
          "_0": "Whether or not the proposal is scheduled."
        }
      },
      "pauseContracts(address[])": {
        "details": "Can be called by any one of the MultiSig signers to immediately pause contracts. To be used to mitigate damage if a vulnerability is found/exploited.",
        "params": {
          "contracts": "The list of contracts to pause."
        }
      },
      "removeOwner(address)": {
        "details": "This call can only be made by this contract.",
        "params": {
          "owner": "The owner to remove."
        }
      },
      "replaceOwner(address,address)": {
        "details": "This call can only be made by this contract.",
        "params": {
          "owner": "The owner to be replaced."
        }
      },
      "revokeConfirmation(uint256)": {
        "params": {
          "proposalId": "The ID of the proposal to be revoked."
        }
      },
      "scheduleProposal(uint256)": {
        "params": {
          "proposalId": "The ID of the proposal to confirm."
        }
      },
      "setPauser(address)": {
        "params": {
          "__pauser": "The address to set as the pauser."
        }
      },
      "submitProposal(address[],uint256[],bytes[])": {
        "params": {
          "destinations": "The addresses at which the proposal is target at.",
          "payloads": "The payloads of the proposal.",
          "values": "The CELO values involved in the proposal if any."
        },
        "returns": {
          "proposalId": "Returns the ID of the proposal that gets generated."
        }
      },
      "unpauseContracts(address[])": {
        "details": "Can be called by Celo Governance (via hotfix or referendum). To be used after contracts have been paused with `pauseContracts`, and the related vulnerability have been patched.",
        "params": {
          "contracts": "The list of contracts to unpause."
        }
      },
      "upgradeTo(address)": {
        "details": "Upgrade the implementation of the proxy to `newImplementation`. Calls {_authorizeUpgrade}. Emits an {Upgraded} event."
      },
      "upgradeToAndCall(address,bytes)": {
        "details": "Upgrade the implementation of the proxy to `newImplementation`, and subsequently execute the function call encoded in `data`. Calls {_authorizeUpgrade}. Emits an {Upgraded} event."
      }
    },
    "title": "Multisignature wallet - Allows multiple parties to agree on proposals before execution.",
    "version": 1
  },
  "userdoc": {
    "errors": {
      "AddressZeroNotAllowed()": [
        {
          "notice": "Used when attempting to pass in address zero where not allowed."
        }
      ],
      "CannotRemoveLastOwner(address)": [
        {
          "notice": "Used when attempting to remove the last owner."
        }
      ],
      "ExecutionFailed()": [
        {
          "notice": "Used when an execution fails."
        }
      ],
      "InsufficientDelay(uint256)": [
        {
          "notice": "Used when a provided value is less than the minimum time lock delay."
        }
      ],
      "InvalidContractAddress(address)": [
        {
          "notice": "Used when destination is not a contract."
        }
      ],
      "InvalidRequirement(uint256,uint256)": [
        {
          "notice": "Used when the set threshold values for owner and minimum required confirmations are not met."
        }
      ],
      "OnlyPauser()": [
        {
          "notice": "Used when an `onlyPauser` function is called with a different address."
        }
      ],
      "OwnerAlreadyExists(address)": [
        {
          "notice": "Used when attempting to add an already existing owner."
        }
      ],
      "OwnerDoesNotExist(address)": [
        {
          "notice": "Used when an owner does not exist."
        }
      ],
      "ParamLengthsMismatch()": [
        {
          "notice": "Used when the sizes of the provided arrays params do not match when submitting a proposal."
        }
      ],
      "Paused()": [
        {
          "notice": "Used when an `onlyWhenNotPaused` function is called while the contract is paused."
        }
      ],
      "ProposalAlreadyConfirmed(uint256,address)": [
        {
          "notice": "Used when a proposal is already confirmed by an owner."
        }
      ],
      "ProposalAlreadyExecuted(uint256)": [
        {
          "notice": "Used when a proposal has been executed."
        }
      ],
      "ProposalAlreadyScheduled(uint256)": [
        {
          "notice": "Used when attempting to schedule an already scheduled proposal."
        }
      ],
      "ProposalDoesNotExist(uint256)": [
        {
          "notice": "Used when a proposal does not exist."
        }
      ],
      "ProposalNotConfirmed(uint256,address)": [
        {
          "notice": "Used when a proposal is not confirmed by a given owner."
        }
      ],
      "ProposalNotFullyConfirmed(uint256)": [
        {
          "notice": "Used when a proposal is not fully confirmed."
        }
      ],
      "ProposalNotScheduled(uint256)": [
        {
          "notice": "Used when a proposal is not scheduled."
        }
      ],
      "ProposalTimelockNotReached(uint256)": [
        {
          "notice": "Used when a time lock delay is not reached."
        }
      ],
      "SenderMustBeMultisigWallet(address)": [
        {
          "notice": "Used when sender is not this contract in an `onlyWallet` function."
        }
      ],
      "SenderNotGovernance(address)": [
        {
          "notice": "Used when the caller of an `onlyGovernance` function is not Celo Governance."
        }
      ],
      "SenderNotGovernanceOrOwner(address)": [
        {
          "notice": "Used when the caller should be either Governance or one of the multisig owners."
        }
      ]
    },
    "events": {
      "CeloDeposited(address,uint256)": {
        "notice": "Emitted when CELO is sent to this contract."
      },
      "ConfirmationRevoked(address,uint256)": {
        "notice": "Used when a confirmation is successfully revoked."
      },
      "ContractPaused()": {
        "notice": "Emitted when this contract is paused."
      },
      "ContractUnpaused()": {
        "notice": "Emitted when this contract is unpaused."
      },
      "DelayChanged(uint256,uint256)": {
        "notice": "Used when `delay` is changed."
      },
      "GovernanceTransactionExecuted(uint256,bytes)": {
        "notice": "Emitted when one of the transactions that make up a Governance proposal is successfully executed."
      },
      "OwnerAdded(address)": {
        "notice": "Emitted when an Owner is successfully added as part of the multisig."
      },
      "OwnerRemoved(address)": {
        "notice": "Emitted when an Owner is successfully removed from the multisig."
      },
      "PauserSet(address)": {
        "notice": "Emitted when the address authorized to pause/unpause the contract is changed."
      },
      "ProposalAdded(uint256)": {
        "notice": "Used when a proposal is successfully added."
      },
      "ProposalConfirmed(address,uint256)": {
        "notice": "Used when a proposal is successfully confirmed."
      },
      "ProposalScheduled(uint256)": {
        "notice": "Emitted when a proposal is scheduled."
      },
      "RequirementChanged(uint256)": {
        "notice": "Emitted when the minimum amount of required confirmations is successfully changed."
      },
      "TransactionExecuted(uint256,uint256,bytes)": {
        "notice": "Emitted when one of the transactions that make up a proposal is successfully executed."
      }
    },
    "kind": "user",
    "methods": {
      "MAX_OWNER_COUNT()": {
        "notice": "The maximum number of multisig owners."
      },
      "PAUSED_POSITION()": {
        "notice": "The storage slot under which we store a boolean representing whether or not the contract is currently paused."
      },
      "PAUSER_POSITION()": {
        "notice": "The storage slot under which we store an address representing the address permissioned to pause/unpause this contract."
      },
      "addOwner(address)": {
        "notice": "Adds a new multisig owner."
      },
      "changeDelay(uint256)": {
        "notice": "Changes the value of the delay that must elapse before a proposal can become executable."
      },
      "changeRequirement(uint256)": {
        "notice": "Changes the number of confirmations required to consider a proposal fully confirmed."
      },
      "confirmProposal(uint256)": {
        "notice": "Confirms a proposal. A proposal is executed if this confirmation makes it fully confirmed."
      },
      "constructor": {
        "notice": "Sets `initialized` to  true on implementation contracts."
      },
      "delay()": {
        "notice": "The delay that must elapse to be able to execute a proposal."
      },
      "executeProposal(uint256)": {
        "notice": "Executes a proposal. A proposal is only executetable if it is fully confirmed, scheduled and the set delay has elapsed."
      },
      "getConfirmations(uint256)": {
        "notice": "Gets the list of owners' addresses which have confirmed a given proposal."
      },
      "getOwners()": {
        "notice": "Get the list of multisig owners."
      },
      "getProposal(uint256)": {
        "notice": "Gets the destinations, values and payloads of a proposal."
      },
      "getTimestamp(uint256)": {
        "notice": "Returns the timestamp at which a proposal becomes executable."
      },
      "getVersionNumber()": {
        "notice": "Returns the storage, major, minor, and patch version of the contract."
      },
      "governanceProposeAndExecute(address[],uint256[],bytes[])": {
        "notice": "Executes a proposal made by Celo Governance."
      },
      "initialize(address[],uint256,uint256)": {
        "notice": "Bootstraps this contract with initial data."
      },
      "isConfirmedBy(uint256,address)": {
        "notice": "Checks that a proposal is confirmed by an owner."
      },
      "isFullyConfirmed(uint256)": {
        "notice": "Checks that a proposal has been confirmed by at least the `required` number of owners."
      },
      "isOwner(address)": {
        "notice": "Checks that an address is a multisig owner."
      },
      "isPaused()": {
        "notice": "Returns whether or not the contract is paused."
      },
      "isProposalTimelockReached(uint256)": {
        "notice": "Returns whether a proposal is executable or not. A proposal is executable if it is scheduled, the delay has elapsed and it is not yet executed."
      },
      "isScheduled(uint256)": {
        "notice": "Returns whether a proposal is scheduled."
      },
      "minDelay()": {
        "notice": "The minimum time in seconds that must elapse before a proposal is executable."
      },
      "pause()": {
        "notice": "Pauses the contract."
      },
      "pauseContracts(address[])": {
        "notice": "Pauses the given StakedCelo protocol contracts."
      },
      "pauser()": {
        "notice": "Returns the address permissioned to pause/unpause this contract."
      },
      "proposalCount()": {
        "notice": "The total count of proposals."
      },
      "proposals(uint256)": {
        "notice": "Keyed by proposal ID, the Proposal record."
      },
      "removeOwner(address)": {
        "notice": "Removes an existing owner."
      },
      "replaceOwner(address,address)": {
        "notice": "Replaces an existing owner with a new owner."
      },
      "required()": {
        "notice": "The amount of confirmations required for a proposal to be fully confirmed."
      },
      "revokeConfirmation(uint256)": {
        "notice": "Void a confirmation for a previously confirmed proposal."
      },
      "scheduleProposal(uint256)": {
        "notice": "Schedules a proposal with a time lock."
      },
      "setPauser(address)": {
        "notice": "Sets the address of the pauser address that will be used to pause StakedCelo protocol contracts."
      },
      "submitProposal(address[],uint256[],bytes[])": {
        "notice": "Creates a proposal and triggers the first confirmation on behalf of the proposal creator."
      },
      "unpause()": {
        "notice": "Unpauses the contract."
      },
      "unpauseContracts(address[])": {
        "notice": "Unpauses the given StakedCelo protocol contracts."
      }
    },
    "version": 1
  },
  "storageLayout": {
    "storage": [
      {
        "astId": 1161,
        "contract": "contracts/common/MultiSig.sol:MultiSig",
        "label": "_initialized",
        "offset": 0,
        "slot": "0",
        "type": "t_bool"
      },
      {
        "astId": 1164,
        "contract": "contracts/common/MultiSig.sol:MultiSig",
        "label": "_initializing",
        "offset": 1,
        "slot": "0",
        "type": "t_bool"
      },
      {
        "astId": 12869,
        "contract": "contracts/common/MultiSig.sol:MultiSig",
        "label": "delay",
        "offset": 0,
        "slot": "1",
        "type": "t_uint256"
      },
      {
        "astId": 12875,
        "contract": "contracts/common/MultiSig.sol:MultiSig",
        "label": "proposals",
        "offset": 0,
        "slot": "2",
        "type": "t_mapping(t_uint256,t_struct(Proposal)12852_storage)"
      },
      {
        "astId": 12879,
        "contract": "contracts/common/MultiSig.sol:MultiSig",
        "label": "owners",
        "offset": 0,
        "slot": "3",
        "type": "t_struct(AddressSet)3257_storage"
      },
      {
        "astId": 12882,
        "contract": "contracts/common/MultiSig.sol:MultiSig",
        "label": "required",
        "offset": 0,
        "slot": "5",
        "type": "t_uint256"
      },
      {
        "astId": 12885,
        "contract": "contracts/common/MultiSig.sol:MultiSig",
        "label": "proposalCount",
        "offset": 0,
        "slot": "6",
        "type": "t_uint256"
      }
    ],
    "types": {
      "t_address": {
        "encoding": "inplace",
        "label": "address",
        "numberOfBytes": "20"
      },
      "t_array(t_address)dyn_storage": {
        "base": "t_address",
        "encoding": "dynamic_array",
        "label": "address[]",
        "numberOfBytes": "32"
      },
      "t_array(t_bytes32)dyn_storage": {
        "base": "t_bytes32",
        "encoding": "dynamic_array",
        "label": "bytes32[]",
        "numberOfBytes": "32"
      },
      "t_array(t_bytes_storage)dyn_storage": {
        "base": "t_bytes_storage",
        "encoding": "dynamic_array",
        "label": "bytes[]",
        "numberOfBytes": "32"
      },
      "t_array(t_uint256)dyn_storage": {
        "base": "t_uint256",
        "encoding": "dynamic_array",
        "label": "uint256[]",
        "numberOfBytes": "32"
      },
      "t_bool": {
        "encoding": "inplace",
        "label": "bool",
        "numberOfBytes": "1"
      },
      "t_bytes32": {
        "encoding": "inplace",
        "label": "bytes32",
        "numberOfBytes": "32"
      },
      "t_bytes_storage": {
        "encoding": "bytes",
        "label": "bytes",
        "numberOfBytes": "32"
      },
      "t_mapping(t_address,t_bool)": {
        "encoding": "mapping",
        "key": "t_address",
        "label": "mapping(address => bool)",
        "numberOfBytes": "32",
        "value": "t_bool"
      },
      "t_mapping(t_bytes32,t_uint256)": {
        "encoding": "mapping",
        "key": "t_bytes32",
        "label": "mapping(bytes32 => uint256)",
        "numberOfBytes": "32",
        "value": "t_uint256"
      },
      "t_mapping(t_uint256,t_struct(Proposal)12852_storage)": {
        "encoding": "mapping",
        "key": "t_uint256",
        "label": "mapping(uint256 => struct MultiSig.Proposal)",
        "numberOfBytes": "32",
        "value": "t_struct(Proposal)12852_storage"
      },
      "t_struct(AddressSet)3257_storage": {
        "encoding": "inplace",
        "label": "struct EnumerableSet.AddressSet",
        "members": [
          {
            "astId": 3256,
            "contract": "contracts/common/MultiSig.sol:MultiSig",
            "label": "_inner",
            "offset": 0,
            "slot": "0",
            "type": "t_struct(Set)2956_storage"
          }
        ],
        "numberOfBytes": "64"
      },
      "t_struct(Proposal)12852_storage": {
        "encoding": "inplace",
        "label": "struct MultiSig.Proposal",
        "members": [
          {
            "astId": 12839,
            "contract": "contracts/common/MultiSig.sol:MultiSig",
            "label": "destinations",
            "offset": 0,
            "slot": "0",
            "type": "t_array(t_address)dyn_storage"
          },
          {
            "astId": 12842,
            "contract": "contracts/common/MultiSig.sol:MultiSig",
            "label": "values",
            "offset": 0,
            "slot": "1",
            "type": "t_array(t_uint256)dyn_storage"
          },
          {
            "astId": 12845,
            "contract": "contracts/common/MultiSig.sol:MultiSig",
            "label": "payloads",
            "offset": 0,
            "slot": "2",
            "type": "t_array(t_bytes_storage)dyn_storage"
          },
          {
            "astId": 12847,
            "contract": "contracts/common/MultiSig.sol:MultiSig",
            "label": "timestampExecutable",
            "offset": 0,
            "slot": "3",
            "type": "t_uint256"
          },
          {
            "astId": 12851,
            "contract": "contracts/common/MultiSig.sol:MultiSig",
            "label": "confirmations",
            "offset": 0,
            "slot": "4",
            "type": "t_mapping(t_address,t_bool)"
          }
        ],
        "numberOfBytes": "160"
      },
      "t_struct(Set)2956_storage": {
        "encoding": "inplace",
        "label": "struct EnumerableSet.Set",
        "members": [
          {
            "astId": 2951,
            "contract": "contracts/common/MultiSig.sol:MultiSig",
            "label": "_values",
            "offset": 0,
            "slot": "0",
            "type": "t_array(t_bytes32)dyn_storage"
          },
          {
            "astId": 2955,
            "contract": "contracts/common/MultiSig.sol:MultiSig",
            "label": "_indexes",
            "offset": 0,
            "slot": "1",
            "type": "t_mapping(t_bytes32,t_uint256)"
          }
        ],
        "numberOfBytes": "64"
      },
      "t_uint256": {
        "encoding": "inplace",
        "label": "uint256",
        "numberOfBytes": "32"
      }
    }
  }
}