{
  "address": "0x6E17CF4e1A21125D0Ce9a1ce4A284AD7BF783B67",
  "abi": [
    {
      "inputs": [],
      "stateMutability": "nonpayable",
      "type": "constructor"
    },
    {
      "inputs": [],
      "name": "AddressZeroNotAllowed",
      "type": "error"
    },
    {
      "inputs": [
        {
          "internalType": "address",
          "name": "caller",
          "type": "address"
        }
      ],
      "name": "CallerNotManager",
      "type": "error"
    },
    {
      "inputs": [
        {
          "internalType": "address",
          "name": "account",
          "type": "address"
        }
      ],
      "name": "NoLockedStakedCelo",
      "type": "error"
    },
    {
      "inputs": [
        {
          "internalType": "address",
          "name": "account",
          "type": "address"
        }
      ],
      "name": "NotEnoughStCeloToLock",
      "type": "error"
    },
    {
      "inputs": [
        {
          "internalType": "address",
          "name": "account",
          "type": "address"
        }
      ],
      "name": "NothingToUnlock",
      "type": "error"
    },
    {
      "inputs": [],
      "name": "OnlyPauser",
      "type": "error"
    },
    {
      "inputs": [],
      "name": "Paused",
      "type": "error"
    },
    {
      "anonymous": false,
      "inputs": [
        {
          "indexed": false,
          "internalType": "address",
          "name": "previousAdmin",
          "type": "address"
        },
        {
          "indexed": false,
          "internalType": "address",
          "name": "newAdmin",
          "type": "address"
        }
      ],
      "name": "AdminChanged",
      "type": "event"
    },
    {
      "anonymous": false,
      "inputs": [
        {
          "indexed": true,
          "internalType": "address",
          "name": "owner",
          "type": "address"
        },
        {
          "indexed": true,
          "internalType": "address",
          "name": "spender",
          "type": "address"
        },
        {
          "indexed": false,
          "internalType": "uint256",
          "name": "value",
          "type": "uint256"
        }
      ],
      "name": "Approval",
      "type": "event"
    },
    {
      "anonymous": false,
      "inputs": [
        {
          "indexed": true,
          "internalType": "address",
          "name": "beacon",
          "type": "address"
        }
      ],
      "name": "BeaconUpgraded",
      "type": "event"
    },
    {
      "anonymous": false,
      "inputs": [],
      "name": "ContractPaused",
      "type": "event"
    },
    {
      "anonymous": false,
      "inputs": [],
      "name": "ContractUnpaused",
      "type": "event"
    },
    {
      "anonymous": false,
      "inputs": [
        {
          "indexed": false,
          "internalType": "address",
          "name": "account",
          "type": "address"
        },
        {
          "indexed": false,
          "internalType": "uint256",
          "name": "amount",
          "type": "uint256"
        }
      ],
      "name": "LockedStCelo",
      "type": "event"
    },
    {
      "anonymous": false,
      "inputs": [
        {
          "indexed": true,
          "internalType": "address",
          "name": "manager",
          "type": "address"
        }
      ],
      "name": "ManagerSet",
      "type": "event"
    },
    {
      "anonymous": false,
      "inputs": [
        {
          "indexed": true,
          "internalType": "address",
          "name": "previousOwner",
          "type": "address"
        },
        {
          "indexed": true,
          "internalType": "address",
          "name": "newOwner",
          "type": "address"
        }
      ],
      "name": "OwnershipTransferred",
      "type": "event"
    },
    {
      "anonymous": false,
      "inputs": [
        {
          "indexed": false,
          "internalType": "address",
          "name": "pauser",
          "type": "address"
        }
      ],
      "name": "PauserSet",
      "type": "event"
    },
    {
      "anonymous": false,
      "inputs": [
        {
          "indexed": true,
          "internalType": "address",
          "name": "from",
          "type": "address"
        },
        {
          "indexed": true,
          "internalType": "address",
          "name": "to",
          "type": "address"
        },
        {
          "indexed": false,
          "internalType": "uint256",
          "name": "value",
          "type": "uint256"
        }
      ],
      "name": "Transfer",
      "type": "event"
    },
    {
      "anonymous": false,
      "inputs": [
        {
          "indexed": false,
          "internalType": "address",
          "name": "account",
          "type": "address"
        },
        {
          "indexed": false,
          "internalType": "uint256",
          "name": "amount",
          "type": "uint256"
        }
      ],
      "name": "UnlockedStCelo",
      "type": "event"
    },
    {
      "anonymous": false,
      "inputs": [
        {
          "indexed": true,
          "internalType": "address",
          "name": "implementation",
          "type": "address"
        }
      ],
      "name": "Upgraded",
      "type": "event"
    },
    {
      "inputs": [],
      "name": "PAUSED_POSITION",
      "outputs": [
        {
          "internalType": "bytes32",
          "name": "",
          "type": "bytes32"
        }
      ],
      "stateMutability": "view",
      "type": "function"
    },
    {
      "inputs": [],
      "name": "PAUSER_POSITION",
      "outputs": [
        {
          "internalType": "bytes32",
          "name": "",
          "type": "bytes32"
        }
      ],
      "stateMutability": "view",
      "type": "function"
    },
    {
      "inputs": [
        {
          "internalType": "address",
          "name": "owner",
          "type": "address"
        },
        {
          "internalType": "address",
          "name": "spender",
          "type": "address"
        }
      ],
      "name": "allowance",
      "outputs": [
        {
          "internalType": "uint256",
          "name": "",
          "type": "uint256"
        }
      ],
      "stateMutability": "view",
      "type": "function"
    },
    {
      "inputs": [
        {
          "internalType": "address",
          "name": "spender",
          "type": "address"
        },
        {
          "internalType": "uint256",
          "name": "amount",
          "type": "uint256"
        }
      ],
      "name": "approve",
      "outputs": [
        {
          "internalType": "bool",
          "name": "",
          "type": "bool"
        }
      ],
      "stateMutability": "nonpayable",
      "type": "function"
    },
    {
      "inputs": [
        {
          "internalType": "address",
          "name": "account",
          "type": "address"
        }
      ],
      "name": "balanceOf",
      "outputs": [
        {
          "internalType": "uint256",
          "name": "",
          "type": "uint256"
        }
      ],
      "stateMutability": "view",
      "type": "function"
    },
    {
      "inputs": [
        {
          "internalType": "address",
          "name": "from",
          "type": "address"
        },
        {
          "internalType": "uint256",
          "name": "amount",
          "type": "uint256"
        }
      ],
      "name": "burn",
      "outputs": [],
      "stateMutability": "nonpayable",
      "type": "function"
    },
    {
      "inputs": [],
      "name": "decimals",
      "outputs": [
        {
          "internalType": "uint8",
          "name": "",
          "type": "uint8"
        }
      ],
      "stateMutability": "view",
      "type": "function"
    },
    {
      "inputs": [
        {
          "internalType": "address",
          "name": "spender",
          "type": "address"
        },
        {
          "internalType": "uint256",
          "name": "subtractedValue",
          "type": "uint256"
        }
      ],
      "name": "decreaseAllowance",
      "outputs": [
        {
          "internalType": "bool",
          "name": "",
          "type": "bool"
        }
      ],
      "stateMutability": "nonpayable",
      "type": "function"
    },
    {
      "inputs": [],
      "name": "getVersionNumber",
      "outputs": [
        {
          "internalType": "uint256",
          "name": "",
          "type": "uint256"
        },
        {
          "internalType": "uint256",
          "name": "",
          "type": "uint256"
        },
        {
          "internalType": "uint256",
          "name": "",
          "type": "uint256"
        },
        {
          "internalType": "uint256",
          "name": "",
          "type": "uint256"
        }
      ],
      "stateMutability": "pure",
      "type": "function"
    },
    {
      "inputs": [
        {
          "internalType": "address",
          "name": "spender",
          "type": "address"
        },
        {
          "internalType": "uint256",
          "name": "addedValue",
          "type": "uint256"
        }
      ],
      "name": "increaseAllowance",
      "outputs": [
        {
          "internalType": "bool",
          "name": "",
          "type": "bool"
        }
      ],
      "stateMutability": "nonpayable",
      "type": "function"
    },
    {
      "inputs": [
        {
          "internalType": "address",
          "name": "_manager",
          "type": "address"
        },
        {
          "internalType": "address",
          "name": "_owner",
          "type": "address"
        }
      ],
      "name": "initialize",
      "outputs": [],
      "stateMutability": "nonpayable",
      "type": "function"
    },
    {
      "inputs": [],
      "name": "isPaused",
      "outputs": [
        {
          "internalType": "bool",
          "name": "",
          "type": "bool"
        }
      ],
      "stateMutability": "view",
      "type": "function"
    },
    {
      "inputs": [
        {
          "internalType": "address",
          "name": "account",
          "type": "address"
        },
        {
          "internalType": "uint256",
          "name": "amount",
          "type": "uint256"
        }
      ],
      "name": "lockVoteBalance",
      "outputs": [],
      "stateMutability": "nonpayable",
      "type": "function"
    },
    {
      "inputs": [
        {
          "internalType": "address",
          "name": "account",
          "type": "address"
        }
      ],
      "name": "lockedVoteBalanceOf",
      "outputs": [
        {
          "internalType": "uint256",
          "name": "",
          "type": "uint256"
        }
      ],
      "stateMutability": "view",
      "type": "function"
    },
    {
      "inputs": [],
      "name": "manager",
      "outputs": [
        {
          "internalType": "address",
          "name": "",
          "type": "address"
        }
      ],
      "stateMutability": "view",
      "type": "function"
    },
    {
      "inputs": [
        {
          "internalType": "address",
          "name": "to",
          "type": "address"
        },
        {
          "internalType": "uint256",
          "name": "amount",
          "type": "uint256"
        }
      ],
      "name": "mint",
      "outputs": [],
      "stateMutability": "nonpayable",
      "type": "function"
    },
    {
      "inputs": [],
      "name": "name",
      "outputs": [
        {
          "internalType": "string",
          "name": "",
          "type": "string"
        }
      ],
      "stateMutability": "view",
      "type": "function"
    },
    {
      "inputs": [],
      "name": "owner",
      "outputs": [
        {
          "internalType": "address",
          "name": "",
          "type": "address"
        }
      ],
      "stateMutability": "view",
      "type": "function"
    },
    {
      "inputs": [],
      "name": "pause",
      "outputs": [],
      "stateMutability": "nonpayable",
      "type": "function"
    },
    {
      "inputs": [],
      "name": "pauser",
      "outputs": [
        {
          "internalType": "address",
          "name": "",
          "type": "address"
        }
      ],
      "stateMutability": "view",
      "type": "function"
    },
    {
      "inputs": [],
      "name": "renounceOwnership",
      "outputs": [],
      "stateMutability": "nonpayable",
      "type": "function"
    },
    {
      "inputs": [
        {
          "internalType": "address",
          "name": "_manager",
          "type": "address"
        }
      ],
      "name": "setManager",
      "outputs": [],
      "stateMutability": "nonpayable",
      "type": "function"
    },
    {
      "inputs": [],
      "name": "setPauser",
      "outputs": [],
      "stateMutability": "nonpayable",
      "type": "function"
    },
    {
      "inputs": [],
      "name": "symbol",
      "outputs": [
        {
          "internalType": "string",
          "name": "",
          "type": "string"
        }
      ],
      "stateMutability": "view",
      "type": "function"
    },
    {
      "inputs": [],
      "name": "totalSupply",
      "outputs": [
        {
          "internalType": "uint256",
          "name": "",
          "type": "uint256"
        }
      ],
      "stateMutability": "view",
      "type": "function"
    },
    {
      "inputs": [
        {
          "internalType": "address",
          "name": "to",
          "type": "address"
        },
        {
          "internalType": "uint256",
          "name": "amount",
          "type": "uint256"
        }
      ],
      "name": "transfer",
      "outputs": [
        {
          "internalType": "bool",
          "name": "",
          "type": "bool"
        }
      ],
      "stateMutability": "nonpayable",
      "type": "function"
    },
    {
      "inputs": [
        {
          "internalType": "address",
          "name": "from",
          "type": "address"
        },
        {
          "internalType": "address",
          "name": "to",
          "type": "address"
        },
        {
          "internalType": "uint256",
          "name": "amount",
          "type": "uint256"
        }
      ],
      "name": "transferFrom",
      "outputs": [
        {
          "internalType": "bool",
          "name": "",
          "type": "bool"
        }
      ],
      "stateMutability": "nonpayable",
      "type": "function"
    },
    {
      "inputs": [
        {
          "internalType": "address",
          "name": "newOwner",
          "type": "address"
        }
      ],
      "name": "transferOwnership",
      "outputs": [],
      "stateMutability": "nonpayable",
      "type": "function"
    },
    {
      "inputs": [
        {
          "internalType": "address",
          "name": "beneficiary",
          "type": "address"
        }
      ],
      "name": "unlockVoteBalance",
      "outputs": [],
      "stateMutability": "nonpayable",
      "type": "function"
    },
    {
      "inputs": [],
      "name": "unpause",
      "outputs": [],
      "stateMutability": "nonpayable",
      "type": "function"
    },
    {
      "inputs": [
        {
          "internalType": "address",
          "name": "newImplementation",
          "type": "address"
        }
      ],
      "name": "upgradeTo",
      "outputs": [],
      "stateMutability": "nonpayable",
      "type": "function"
    },
    {
      "inputs": [
        {
          "internalType": "address",
          "name": "newImplementation",
          "type": "address"
        },
        {
          "internalType": "bytes",
          "name": "data",
          "type": "bytes"
        }
      ],
      "name": "upgradeToAndCall",
      "outputs": [],
      "stateMutability": "payable",
      "type": "function"
    }
  ],
  "transactionHash": "0xe9fd0a03f5a56958ad5e13e6f61f481b01f247a9fae6260780323bc114ad6613",
  "args": [],
  "numDeployments": 3,
  "solcInputHash": "bc5d8aac7d0c7b5a1cef2b494d304103",
  "bytecode": "0x60a06040523073ffffffffffffffffffffffffffffffffffffffff1660809073ffffffffffffffffffffffffffffffffffffffff168152503480156200004457600080fd5b50600060019054906101000a900460ff166200006f5760008054906101000a900460ff161562000080565b6200007f6200013c60201b60201c565b5b620000c2576040517f08c379a0000000000000000000000000000000000000000000000000000000008152600401620000b99062000204565b60405180910390fd5b60008060019054906101000a900460ff16159050801562000113576001600060016101000a81548160ff02191690831515021790555060016000806101000a81548160ff0219169083151502179055505b8015620001355760008060016101000a81548160ff0219169083151502179055505b5062000226565b600062000154306200015a60201b62001b651760201c565b15905090565b6000808273ffffffffffffffffffffffffffffffffffffffff163b119050919050565b600082825260208201905092915050565b7f496e697469616c697a61626c653a20636f6e747261637420697320616c72656160008201527f647920696e697469616c697a6564000000000000000000000000000000000000602082015250565b6000620001ec602e836200017d565b9150620001f9826200018e565b604082019050919050565b600060208201905081810360008301526200021f81620001dd565b9050919050565b60805161414b6200025760003960008181610865015281816108f401528181610da40152610e33015261414b6000f3fe6080604052600436106101e35760003560e01c8063715018a6116101025780639fd0506d11610095578063d0ebdbe711610064578063d0ebdbe7146106b4578063dd62ed3e146106dd578063e37d49b81461071a578063f2fde38b14610743576101e3565b80639fd0506d146105e4578063a457c2d71461060f578063a9059cbb1461064c578063b187bd2614610689576101e3565b80639468ba0e116100d15780639468ba0e1461053c57806395d89b41146105675780639caa9e29146105925780639dc29fac146105bb576101e3565b8063715018a6146104cc5780637c0d530f146104e35780638456cb59146104fa5780638da5cb5b14610511576101e3565b80633f4ba83a1161017a5780634f1ef286116101495780634f1ef28614610408578063536a5f271461042457806354255be01461046157806370a082311461048f576101e3565b80633f4ba83a1461037457806340c10f191461038b578063481c6a75146103b4578063485cc955146103df576101e3565b8063313ce567116101b6578063313ce567146102b85780633659cfe6146102e3578063395093511461030c5780633cbf587214610349576101e3565b806306fdde03146101e8578063095ea7b31461021357806318160ddd1461025057806323b872dd1461027b575b600080fd5b3480156101f457600080fd5b506101fd61076c565b60405161020a9190612fdb565b60405180910390f35b34801561021f57600080fd5b5061023a600480360381019061023591906130a5565b6107fe565b6040516102479190613100565b60405180910390f35b34801561025c57600080fd5b50610265610821565b604051610272919061312a565b60405180910390f35b34801561028757600080fd5b506102a2600480360381019061029d9190613145565b61082b565b6040516102af9190613100565b60405180910390f35b3480156102c457600080fd5b506102cd61085a565b6040516102da91906131b4565b60405180910390f35b3480156102ef57600080fd5b5061030a600480360381019061030591906131cf565b610863565b005b34801561031857600080fd5b50610333600480360381019061032e91906130a5565b6109ec565b6040516103409190613100565b60405180910390f35b34801561035557600080fd5b5061035e610a96565b60405161036b9190613215565b60405180910390f35b34801561038057600080fd5b50610389610acc565b005b34801561039757600080fd5b506103b260048036038101906103ad91906130a5565b610b70565b005b3480156103c057600080fd5b506103c9610c10565b6040516103d6919061323f565b60405180910390f35b3480156103eb57600080fd5b506104066004803603810190610401919061325a565b610c36565b005b610422600480360381019061041d91906133cf565b610da2565b005b34801561043057600080fd5b5061044b600480360381019061044691906131cf565b610edf565b604051610458919061312a565b60405180910390f35b34801561046d57600080fd5b50610476610f28565b604051610486949392919061342b565b60405180910390f35b34801561049b57600080fd5b506104b660048036038101906104b191906131cf565b610f43565b6040516104c3919061312a565b60405180910390f35b3480156104d857600080fd5b506104e1610f8c565b005b3480156104ef57600080fd5b506104f8611014565b005b34801561050657600080fd5b5061050f6110a2565b005b34801561051d57600080fd5b50610526611146565b604051610533919061323f565b60405180910390f35b34801561054857600080fd5b50610551611170565b60405161055e9190613215565b60405180910390f35b34801561057357600080fd5b5061057c6111a6565b6040516105899190612fdb565b60405180910390f35b34801561059e57600080fd5b506105b960048036038101906105b491906130a5565b611238565b005b3480156105c757600080fd5b506105e260048036038101906105dd91906130a5565b611443565b005b3480156105f057600080fd5b506105f96114e3565b604051610606919061323f565b60405180910390f35b34801561061b57600080fd5b50610636600480360381019061063191906130a5565b611529565b6040516106439190613100565b60405180910390f35b34801561065857600080fd5b50610673600480360381019061066e91906130a5565b611613565b6040516106809190613100565b60405180910390f35b34801561069557600080fd5b5061069e611636565b6040516106ab9190613100565b60405180910390f35b3480156106c057600080fd5b506106db60048036038101906106d691906131cf565b61167c565b005b3480156106e957600080fd5b5061070460048036038101906106ff919061325a565b611704565b604051610711919061312a565b60405180910390f35b34801561072657600080fd5b50610741600480360381019061073c91906131cf565b61178b565b005b34801561074f57600080fd5b5061076a600480360381019061076591906131cf565b611a6d565b005b60606036805461077b9061349f565b80601f01602080910402602001604051908101604052809291908181526020018280546107a79061349f565b80156107f45780601f106107c9576101008083540402835291602001916107f4565b820191906000526020600020905b8154815290600101906020018083116107d757829003601f168201915b5050505050905090565b600080610809611b88565b9050610816818585611b90565b600191505092915050565b6000603554905090565b600080610836611b88565b9050610843858285611bdf565b61084e858585611c6b565b60019150509392505050565b60006012905090565b7f000000000000000000000000000000000000000000000000000000000000000073ffffffffffffffffffffffffffffffffffffffff163073ffffffffffffffffffffffffffffffffffffffff1614156108f2576040517f08c379a00000000000000000000000000000000000000000000000000000000081526004016108e990613543565b60405180910390fd5b7f000000000000000000000000000000000000000000000000000000000000000073ffffffffffffffffffffffffffffffffffffffff16610931611cba565b73ffffffffffffffffffffffffffffffffffffffff1614610987576040517f08c379a000000000000000000000000000000000000000000000000000000000815260040161097e906135d5565b60405180910390fd5b61099081611d11565b6109e981600067ffffffffffffffff8111156109af576109ae6132a4565b5b6040519080825280601f01601f1916602001820160405280156109e15781602001600182028036833780820191505090505b506000611d90565b50565b6000806109f7611b88565b9050610a8b818585603460008673ffffffffffffffffffffffffffffffffffffffff1673ffffffffffffffffffffffffffffffffffffffff16815260200190815260200160002060008973ffffffffffffffffffffffffffffffffffffffff1673ffffffffffffffffffffffffffffffffffffffff16815260200190815260200160002054610a869190613624565b611b90565b600191505092915050565b60017f8f989356aeb576065c8d201815b96ac9c10cf89197a532e428ebd68581557c2360001c610ac6919061367a565b60001b81565b610ad46114e3565b73ffffffffffffffffffffffffffffffffffffffff163373ffffffffffffffffffffffffffffffffffffffff1614610b38576040517f75df51dc00000000000000000000000000000000000000000000000000000000815260040160405180910390fd5b610b426000611f61565b7f0e5e3b3fb504c22cf5c42fa07d521225937514c654007e1f12646f89768d6f9460405160405180910390a1565b3373ffffffffffffffffffffffffffffffffffffffff16609760009054906101000a900473ffffffffffffffffffffffffffffffffffffffff1673ffffffffffffffffffffffffffffffffffffffff1614610c0257336040517f3b2495f1000000000000000000000000000000000000000000000000000000008152600401610bf9919061323f565b60405180910390fd5b610c0c8282611f9f565b5050565b609760009054906101000a900473ffffffffffffffffffffffffffffffffffffffff1681565b600060019054906101000a900460ff16610c5e5760008054906101000a900460ff1615610c67565b610c66612100565b5b610ca6576040517f08c379a0000000000000000000000000000000000000000000000000000000008152600401610c9d90613720565b60405180910390fd5b60008060019054906101000a900460ff161590508015610cf6576001600060016101000a81548160ff02191690831515021790555060016000806101000a81548160ff0219169083151502179055505b610d6a6040518060400160405280600b81526020017f5374616b65642043454c4f0000000000000000000000000000000000000000008152506040518060400160405280600681526020017f737443454c4f0000000000000000000000000000000000000000000000000000815250612111565b610d738361216e565b610d7c826121c9565b8015610d9d5760008060016101000a81548160ff0219169083151502179055505b505050565b7f000000000000000000000000000000000000000000000000000000000000000073ffffffffffffffffffffffffffffffffffffffff163073ffffffffffffffffffffffffffffffffffffffff161415610e31576040517f08c379a0000000000000000000000000000000000000000000000000000000008152600401610e2890613543565b60405180910390fd5b7f000000000000000000000000000000000000000000000000000000000000000073ffffffffffffffffffffffffffffffffffffffff16610e70611cba565b73ffffffffffffffffffffffffffffffffffffffff1614610ec6576040517f08c379a0000000000000000000000000000000000000000000000000000000008152600401610ebd906135d5565b60405180910390fd5b610ecf82611d11565b610edb82826001611d90565b5050565b6000609860008373ffffffffffffffffffffffffffffffffffffffff1673ffffffffffffffffffffffffffffffffffffffff168152602001908152602001600020549050919050565b60008060008060018060036000935093509350935090919293565b6000603360008373ffffffffffffffffffffffffffffffffffffffff1673ffffffffffffffffffffffffffffffffffffffff168152602001908152602001600020549050919050565b610f94611b88565b73ffffffffffffffffffffffffffffffffffffffff16610fb2611146565b73ffffffffffffffffffffffffffffffffffffffff1614611008576040517f08c379a0000000000000000000000000000000000000000000000000000000008152600401610fff9061378c565b60405180910390fd5b61101260006121c9565b565b61101c611b88565b73ffffffffffffffffffffffffffffffffffffffff1661103a611146565b73ffffffffffffffffffffffffffffffffffffffff1614611090576040517f08c379a00000000000000000000000000000000000000000000000000000000081526004016110879061378c565b60405180910390fd5b6110a061109b611146565b61228f565b565b6110aa6114e3565b73ffffffffffffffffffffffffffffffffffffffff163373ffffffffffffffffffffffffffffffffffffffff161461110e576040517f75df51dc00000000000000000000000000000000000000000000000000000000815260040160405180910390fd5b6111186001611f61565b7fab35696f06e428ebc5ceba8cd17f8fed287baf43440206d1943af1ee53e6d26760405160405180910390a1565b6000606560009054906101000a900473ffffffffffffffffffffffffffffffffffffffff16905090565b60017f29f060ba1cf8d3659516b02281c85dcc3e81b4287766ae4751c0f500688be30f60001c6111a0919061367a565b60001b81565b6060603780546111b59061349f565b80601f01602080910402602001604051908101604052809291908181526020018280546111e19061349f565b801561122e5780601f106112035761010080835404028352916020019161122e565b820191906000526020600020905b81548152906001019060200180831161121157829003601f168201915b5050505050905090565b3373ffffffffffffffffffffffffffffffffffffffff16609760009054906101000a900473ffffffffffffffffffffffffffffffffffffffff1673ffffffffffffffffffffffffffffffffffffffff16146112ca57336040517f3b2495f10000000000000000000000000000000000000000000000000000000081526004016112c1919061323f565b60405180910390fd5b6000609860008473ffffffffffffffffffffffffffffffffffffffff1673ffffffffffffffffffffffffffffffffffffffff1681526020019081526020016000205490508181101561143e5781609860008573ffffffffffffffffffffffffffffffffffffffff1673ffffffffffffffffffffffffffffffffffffffff1681526020019081526020016000208190555060008183611368919061367a565b9050600061137585610f43565b9050818110156113bc57846040517f302eac670000000000000000000000000000000000000000000000000000000081526004016113b3919061323f565b60405180910390fd5b818103603360008773ffffffffffffffffffffffffffffffffffffffff1673ffffffffffffffffffffffffffffffffffffffff168152602001908152602001600020819055507fe37e8cb8ed38bb9b63754c5710e41c3475ab33b84179eaa49e7d1d3f19375b0785856040516114339291906137ac565b60405180910390a150505b505050565b3373ffffffffffffffffffffffffffffffffffffffff16609760009054906101000a900473ffffffffffffffffffffffffffffffffffffffff1673ffffffffffffffffffffffffffffffffffffffff16146114d557336040517f3b2495f10000000000000000000000000000000000000000000000000000000081526004016114cc919061323f565b60405180910390fd5b6114df828261236b565b5050565b600080600060017f29f060ba1cf8d3659516b02281c85dcc3e81b4287766ae4751c0f500688be30f60001c611518919061367a565b60001b905080549150819250505090565b600080611534611b88565b90506000603460008373ffffffffffffffffffffffffffffffffffffffff1673ffffffffffffffffffffffffffffffffffffffff16815260200190815260200160002060008673ffffffffffffffffffffffffffffffffffffffff1673ffffffffffffffffffffffffffffffffffffffff168152602001908152602001600020549050838110156115fa576040517f08c379a00000000000000000000000000000000000000000000000000000000081526004016115f190613847565b60405180910390fd5b6116078286868403611b90565b60019250505092915050565b60008061161e611b88565b905061162b818585611c6b565b600191505092915050565b600080600060017f8f989356aeb576065c8d201815b96ac9c10cf89197a532e428ebd68581557c2360001c61166b919061367a565b60001b905080549150819250505090565b611684611b88565b73ffffffffffffffffffffffffffffffffffffffff166116a2611146565b73ffffffffffffffffffffffffffffffffffffffff16146116f8576040517f08c379a00000000000000000000000000000000000000000000000000000000081526004016116ef9061378c565b60405180910390fd5b61170181612544565b50565b6000603460008473ffffffffffffffffffffffffffffffffffffffff1673ffffffffffffffffffffffffffffffffffffffff16815260200190815260200160002060008373ffffffffffffffffffffffffffffffffffffffff1673ffffffffffffffffffffffffffffffffffffffff16815260200190815260200160002054905092915050565b611793611636565b156117ca576040517f9e87fac800000000000000000000000000000000000000000000000000000000815260040160405180910390fd5b6000609860008373ffffffffffffffffffffffffffffffffffffffff1673ffffffffffffffffffffffffffffffffffffffff168152602001908152602001600020549050600081141561185457816040517f52113b8900000000000000000000000000000000000000000000000000000000815260040161184b919061323f565b60405180910390fd5b6000609760009054906101000a900473ffffffffffffffffffffffffffffffffffffffff1673ffffffffffffffffffffffffffffffffffffffff166348fd6ea6846040518263ffffffff1660e01b81526004016118b1919061323f565b6020604051808303816000875af11580156118d0573d6000803e3d6000fd5b505050506040513d601f19601f820116820180604052508101906118f4919061387c565b905080821161193a57826040517fca9f0336000000000000000000000000000000000000000000000000000000008152600401611931919061323f565b60405180910390fd5b80609860008573ffffffffffffffffffffffffffffffffffffffff1673ffffffffffffffffffffffffffffffffffffffff168152602001908152602001600020819055506000818361198c919061367a565b905080603360008673ffffffffffffffffffffffffffffffffffffffff1673ffffffffffffffffffffffffffffffffffffffff16815260200190815260200160002060008282546119dd9190613624565b925050819055507fda5d2c5893395f22bb4bb4ecad229f58d2403a4b1b2683e0d065b86a5df5c86a84609860008773ffffffffffffffffffffffffffffffffffffffff1673ffffffffffffffffffffffffffffffffffffffff1681526020019081526020016000205485611a51919061367a565b604051611a5f9291906137ac565b60405180910390a150505050565b611a75611b88565b73ffffffffffffffffffffffffffffffffffffffff16611a93611146565b73ffffffffffffffffffffffffffffffffffffffff1614611ae9576040517f08c379a0000000000000000000000000000000000000000000000000000000008152600401611ae09061378c565b60405180910390fd5b600073ffffffffffffffffffffffffffffffffffffffff168173ffffffffffffffffffffffffffffffffffffffff161415611b59576040517f08c379a0000000000000000000000000000000000000000000000000000000008152600401611b509061391b565b60405180910390fd5b611b62816121c9565b50565b6000808273ffffffffffffffffffffffffffffffffffffffff163b119050919050565b600033905090565b611b98611636565b15611bcf576040517f9e87fac800000000000000000000000000000000000000000000000000000000815260040160405180910390fd5b611bda838383612632565b505050565b6000611beb8484611704565b90507fffffffffffffffffffffffffffffffffffffffffffffffffffffffffffffffff8114611c655781811015611c57576040517f08c379a0000000000000000000000000000000000000000000000000000000008152600401611c4e90613987565b60405180910390fd5b611c648484848403611b90565b5b50505050565b611c73611636565b15611caa576040517f9e87fac800000000000000000000000000000000000000000000000000000000815260040160405180910390fd5b611cb58383836127fd565b505050565b6000611ce87f360894a13ba1a3210667c828492db98dca3e2076cc3735a920a3ca505d382bbc60001b612a81565b60000160009054906101000a900473ffffffffffffffffffffffffffffffffffffffff16905090565b611d19611b88565b73ffffffffffffffffffffffffffffffffffffffff16611d37611146565b73ffffffffffffffffffffffffffffffffffffffff1614611d8d576040517f08c379a0000000000000000000000000000000000000000000000000000000008152600401611d849061378c565b60405180910390fd5b50565b6000611d9a611cba565b9050611da584612a8b565b600083511180611db25750815b15611dc357611dc18484612b44565b505b6000611df17f4910fdfa16fed3260ed0e7147f7cc6da11a60208b5b9406d12a635614ffd914360001b612b71565b90508060000160009054906101000a900460ff16611f5a5760018160000160006101000a81548160ff021916908315150217905550611ebd8583604051602401611e3b919061323f565b6040516020818303038152906040527f3659cfe6000000000000000000000000000000000000000000000000000000007bffffffffffffffffffffffffffffffffffffffffffffffffffffffff19166020820180517bffffffffffffffffffffffffffffffffffffffffffffffffffffffff8381831617835250505050612b44565b5060008160000160006101000a81548160ff021916908315150217905550611ee3611cba565b73ffffffffffffffffffffffffffffffffffffffff168273ffffffffffffffffffffffffffffffffffffffff1614611f50576040517f08c379a0000000000000000000000000000000000000000000000000000000008152600401611f4790613a19565b60405180910390fd5b611f5985612b7b565b5b5050505050565b600060017f8f989356aeb576065c8d201815b96ac9c10cf89197a532e428ebd68581557c2360001c611f93919061367a565b60001b90508181555050565b600073ffffffffffffffffffffffffffffffffffffffff168273ffffffffffffffffffffffffffffffffffffffff16141561200f576040517f08c379a000000000000000000000000000000000000000000000000000000000815260040161200690613a85565b60405180910390fd5b61201b60008383612bca565b806035600082825461202d9190613624565b9250508190555080603360008473ffffffffffffffffffffffffffffffffffffffff1673ffffffffffffffffffffffffffffffffffffffff16815260200190815260200160002060008282546120839190613624565b925050819055508173ffffffffffffffffffffffffffffffffffffffff16600073ffffffffffffffffffffffffffffffffffffffff167fddf252ad1be2c89b69c2b068fc378daa952ba7f163c4a11628f55a4df523b3ef836040516120e8919061312a565b60405180910390a36120fc60008383612bcf565b5050565b600061210b30611b65565b15905090565b600060019054906101000a900460ff16612160576040517f08c379a000000000000000000000000000000000000000000000000000000000815260040161215790613b17565b60405180910390fd5b61216a8282612cd7565b5050565b600060019054906101000a900460ff166121bd576040517f08c379a00000000000000000000000000000000000000000000000000000000081526004016121b490613b17565b60405180910390fd5b6121c681612544565b50565b6000606560009054906101000a900473ffffffffffffffffffffffffffffffffffffffff16905081606560006101000a81548173ffffffffffffffffffffffffffffffffffffffff021916908373ffffffffffffffffffffffffffffffffffffffff1602179055508173ffffffffffffffffffffffffffffffffffffffff168173ffffffffffffffffffffffffffffffffffffffff167f8be0079c531659141344cd1fd0a4f28419497f9722a3daafe3b4186f6b6457e060405160405180910390a35050565b600073ffffffffffffffffffffffffffffffffffffffff168173ffffffffffffffffffffffffffffffffffffffff1614156122f6576040517f0855380c00000000000000000000000000000000000000000000000000000000815260040160405180910390fd5b600060017f29f060ba1cf8d3659516b02281c85dcc3e81b4287766ae4751c0f500688be30f60001c612328919061367a565b60001b90508181557fd11d57c2c7468878b1035df11c670bcd0091aa840bf8aa166365397622237bea8260405161235f919061323f565b60405180910390a15050565b600073ffffffffffffffffffffffffffffffffffffffff168273ffffffffffffffffffffffffffffffffffffffff1614156123db576040517f08c379a00000000000000000000000000000000000000000000000000000000081526004016123d290613ba9565b60405180910390fd5b6123e782600083612bca565b6000603360008473ffffffffffffffffffffffffffffffffffffffff1673ffffffffffffffffffffffffffffffffffffffff1681526020019081526020016000205490508181101561246e576040517f08c379a000000000000000000000000000000000000000000000000000000000815260040161246590613c3b565b60405180910390fd5b818103603360008573ffffffffffffffffffffffffffffffffffffffff1673ffffffffffffffffffffffffffffffffffffffff1681526020019081526020016000208190555081603560008282546124c6919061367a565b92505081905550600073ffffffffffffffffffffffffffffffffffffffff168373ffffffffffffffffffffffffffffffffffffffff167fddf252ad1be2c89b69c2b068fc378daa952ba7f163c4a11628f55a4df523b3ef8460405161252b919061312a565b60405180910390a361253f83600084612bcf565b505050565b600073ffffffffffffffffffffffffffffffffffffffff168173ffffffffffffffffffffffffffffffffffffffff1614156125ab576040517f0855380c00000000000000000000000000000000000000000000000000000000815260040160405180910390fd5b80609760006101000a81548173ffffffffffffffffffffffffffffffffffffffff021916908373ffffffffffffffffffffffffffffffffffffffff1602179055508073ffffffffffffffffffffffffffffffffffffffff167f60a0f5b9f9e81e98216071b85826681c796256fe3d1354ecb675580fba64fa6960405160405180910390a250565b600073ffffffffffffffffffffffffffffffffffffffff168373ffffffffffffffffffffffffffffffffffffffff1614156126a2576040517f08c379a000000000000000000000000000000000000000000000000000000000815260040161269990613ccd565b60405180910390fd5b600073ffffffffffffffffffffffffffffffffffffffff168273ffffffffffffffffffffffffffffffffffffffff161415612712576040517f08c379a000000000000000000000000000000000000000000000000000000000815260040161270990613d5f565b60405180910390fd5b80603460008573ffffffffffffffffffffffffffffffffffffffff1673ffffffffffffffffffffffffffffffffffffffff16815260200190815260200160002060008473ffffffffffffffffffffffffffffffffffffffff1673ffffffffffffffffffffffffffffffffffffffff168152602001908152602001600020819055508173ffffffffffffffffffffffffffffffffffffffff168373ffffffffffffffffffffffffffffffffffffffff167f8c5be1e5ebec7d5bd14f71427d1e84f3dd0314c0f7b2291e5b200ac8c7c3b925836040516127f0919061312a565b60405180910390a3505050565b600073ffffffffffffffffffffffffffffffffffffffff168373ffffffffffffffffffffffffffffffffffffffff16141561286d576040517f08c379a000000000000000000000000000000000000000000000000000000000815260040161286490613df1565b60405180910390fd5b600073ffffffffffffffffffffffffffffffffffffffff168273ffffffffffffffffffffffffffffffffffffffff1614156128dd576040517f08c379a00000000000000000000000000000000000000000000000000000000081526004016128d490613e83565b60405180910390fd5b6128e8838383612bca565b6000603360008573ffffffffffffffffffffffffffffffffffffffff1673ffffffffffffffffffffffffffffffffffffffff1681526020019081526020016000205490508181101561296f576040517f08c379a000000000000000000000000000000000000000000000000000000000815260040161296690613f15565b60405180910390fd5b818103603360008673ffffffffffffffffffffffffffffffffffffffff1673ffffffffffffffffffffffffffffffffffffffff1681526020019081526020016000208190555081603360008573ffffffffffffffffffffffffffffffffffffffff1673ffffffffffffffffffffffffffffffffffffffff1681526020019081526020016000206000828254612a049190613624565b925050819055508273ffffffffffffffffffffffffffffffffffffffff168473ffffffffffffffffffffffffffffffffffffffff167fddf252ad1be2c89b69c2b068fc378daa952ba7f163c4a11628f55a4df523b3ef84604051612a68919061312a565b60405180910390a3612a7b848484612bcf565b50505050565b6000819050919050565b612a9481612d58565b612ad3576040517f08c379a0000000000000000000000000000000000000000000000000000000008152600401612aca90613fa7565b60405180910390fd5b80612b007f360894a13ba1a3210667c828492db98dca3e2076cc3735a920a3ca505d382bbc60001b612a81565b60000160006101000a81548173ffffffffffffffffffffffffffffffffffffffff021916908373ffffffffffffffffffffffffffffffffffffffff16021790555050565b6060612b6983836040518060600160405280602781526020016140ef60279139612d6b565b905092915050565b6000819050919050565b612b8481612a8b565b8073ffffffffffffffffffffffffffffffffffffffff167fbc7cd75a20ee27fd9adebab32041f755214dbc6bffa90cc0225b39da2e5c2d3b60405160405180910390a250565b505050565b600073ffffffffffffffffffffffffffffffffffffffff168373ffffffffffffffffffffffffffffffffffffffff161480612c365750600073ffffffffffffffffffffffffffffffffffffffff168273ffffffffffffffffffffffffffffffffffffffff16145b15612c4057612cd2565b609760009054906101000a900473ffffffffffffffffffffffffffffffffffffffff1673ffffffffffffffffffffffffffffffffffffffff1663beabacc88484846040518463ffffffff1660e01b8152600401612c9f93929190613fc7565b600060405180830381600087803b158015612cb957600080fd5b505af1158015612ccd573d6000803e3d6000fd5b505050505b505050565b600060019054906101000a900460ff16612d26576040517f08c379a0000000000000000000000000000000000000000000000000000000008152600401612d1d90613b17565b60405180910390fd5b8160369080519060200190612d3c929190612e9f565b508060379080519060200190612d53929190612e9f565b505050565b600080823b905060008111915050919050565b6060612d7684612d58565b612db5576040517f08c379a0000000000000000000000000000000000000000000000000000000008152600401612dac90614070565b60405180910390fd5b6000808573ffffffffffffffffffffffffffffffffffffffff1685604051612ddd91906140d7565b600060405180830381855af49150503d8060008114612e18576040519150601f19603f3d011682016040523d82523d6000602084013e612e1d565b606091505b5091509150612e2d828286612e38565b925050509392505050565b60608315612e4857829050612e98565b600083511115612e5b5782518084602001fd5b816040517f08c379a0000000000000000000000000000000000000000000000000000000008152600401612e8f9190612fdb565b60405180910390fd5b9392505050565b828054612eab9061349f565b90600052602060002090601f016020900481019282612ecd5760008555612f14565b82601f10612ee657805160ff1916838001178555612f14565b82800160010185558215612f14579182015b82811115612f13578251825591602001919060010190612ef8565b5b509050612f219190612f25565b5090565b5b80821115612f3e576000816000905550600101612f26565b5090565b600081519050919050565b600082825260208201905092915050565b60005b83811015612f7c578082015181840152602081019050612f61565b83811115612f8b576000848401525b50505050565b6000601f19601f8301169050919050565b6000612fad82612f42565b612fb78185612f4d565b9350612fc7818560208601612f5e565b612fd081612f91565b840191505092915050565b60006020820190508181036000830152612ff58184612fa2565b905092915050565b6000604051905090565b600080fd5b600080fd5b600073ffffffffffffffffffffffffffffffffffffffff82169050919050565b600061303c82613011565b9050919050565b61304c81613031565b811461305757600080fd5b50565b60008135905061306981613043565b92915050565b6000819050919050565b6130828161306f565b811461308d57600080fd5b50565b60008135905061309f81613079565b92915050565b600080604083850312156130bc576130bb613007565b5b60006130ca8582860161305a565b92505060206130db85828601613090565b9150509250929050565b60008115159050919050565b6130fa816130e5565b82525050565b600060208201905061311560008301846130f1565b92915050565b6131248161306f565b82525050565b600060208201905061313f600083018461311b565b92915050565b60008060006060848603121561315e5761315d613007565b5b600061316c8682870161305a565b935050602061317d8682870161305a565b925050604061318e86828701613090565b9150509250925092565b600060ff82169050919050565b6131ae81613198565b82525050565b60006020820190506131c960008301846131a5565b92915050565b6000602082840312156131e5576131e4613007565b5b60006131f38482850161305a565b91505092915050565b6000819050919050565b61320f816131fc565b82525050565b600060208201905061322a6000830184613206565b92915050565b61323981613031565b82525050565b60006020820190506132546000830184613230565b92915050565b6000806040838503121561327157613270613007565b5b600061327f8582860161305a565b92505060206132908582860161305a565b9150509250929050565b600080fd5b600080fd5b7f4e487b7100000000000000000000000000000000000000000000000000000000600052604160045260246000fd5b6132dc82612f91565b810181811067ffffffffffffffff821117156132fb576132fa6132a4565b5b80604052505050565b600061330e612ffd565b905061331a82826132d3565b919050565b600067ffffffffffffffff82111561333a576133396132a4565b5b61334382612f91565b9050602081019050919050565b82818337600083830152505050565b600061337261336d8461331f565b613304565b90508281526020810184848401111561338e5761338d61329f565b5b613399848285613350565b509392505050565b600082601f8301126133b6576133b561329a565b5b81356133c684826020860161335f565b91505092915050565b600080604083850312156133e6576133e5613007565b5b60006133f48582860161305a565b925050602083013567ffffffffffffffff8111156134155761341461300c565b5b613421858286016133a1565b9150509250929050565b6000608082019050613440600083018761311b565b61344d602083018661311b565b61345a604083018561311b565b613467606083018461311b565b95945050505050565b7f4e487b7100000000000000000000000000000000000000000000000000000000600052602260045260246000fd5b600060028204905060018216806134b757607f821691505b602082108114156134cb576134ca613470565b5b50919050565b7f46756e6374696f6e206d7573742062652063616c6c6564207468726f7567682060008201527f64656c656761746563616c6c0000000000000000000000000000000000000000602082015250565b600061352d602c83612f4d565b9150613538826134d1565b604082019050919050565b6000602082019050818103600083015261355c81613520565b9050919050565b7f46756e6374696f6e206d7573742062652063616c6c6564207468726f7567682060008201527f6163746976652070726f78790000000000000000000000000000000000000000602082015250565b60006135bf602c83612f4d565b91506135ca82613563565b604082019050919050565b600060208201905081810360008301526135ee816135b2565b9050919050565b7f4e487b7100000000000000000000000000000000000000000000000000000000600052601160045260246000fd5b600061362f8261306f565b915061363a8361306f565b9250827fffffffffffffffffffffffffffffffffffffffffffffffffffffffffffffffff0382111561366f5761366e6135f5565b5b828201905092915050565b60006136858261306f565b91506136908361306f565b9250828210156136a3576136a26135f5565b5b828203905092915050565b7f496e697469616c697a61626c653a20636f6e747261637420697320616c72656160008201527f647920696e697469616c697a6564000000000000000000000000000000000000602082015250565b600061370a602e83612f4d565b9150613715826136ae565b604082019050919050565b60006020820190508181036000830152613739816136fd565b9050919050565b7f4f776e61626c653a2063616c6c6572206973206e6f7420746865206f776e6572600082015250565b6000613776602083612f4d565b915061378182613740565b602082019050919050565b600060208201905081810360008301526137a581613769565b9050919050565b60006040820190506137c16000830185613230565b6137ce602083018461311b565b9392505050565b7f45524332303a2064656372656173656420616c6c6f77616e63652062656c6f7760008201527f207a65726f000000000000000000000000000000000000000000000000000000602082015250565b6000613831602583612f4d565b915061383c826137d5565b604082019050919050565b6000602082019050818103600083015261386081613824565b9050919050565b60008151905061387681613079565b92915050565b60006020828403121561389257613891613007565b5b60006138a084828501613867565b91505092915050565b7f4f776e61626c653a206e6577206f776e657220697320746865207a65726f206160008201527f6464726573730000000000000000000000000000000000000000000000000000602082015250565b6000613905602683612f4d565b9150613910826138a9565b604082019050919050565b60006020820190508181036000830152613934816138f8565b9050919050565b7f45524332303a20696e73756666696369656e7420616c6c6f77616e6365000000600082015250565b6000613971601d83612f4d565b915061397c8261393b565b602082019050919050565b600060208201905081810360008301526139a081613964565b9050919050565b7f45524331393637557067726164653a207570677261646520627265616b73206660008201527f7572746865722075706772616465730000000000000000000000000000000000602082015250565b6000613a03602f83612f4d565b9150613a0e826139a7565b604082019050919050565b60006020820190508181036000830152613a32816139f6565b9050919050565b7f45524332303a206d696e7420746f20746865207a65726f206164647265737300600082015250565b6000613a6f601f83612f4d565b9150613a7a82613a39565b602082019050919050565b60006020820190508181036000830152613a9e81613a62565b9050919050565b7f496e697469616c697a61626c653a20636f6e7472616374206973206e6f74206960008201527f6e697469616c697a696e67000000000000000000000000000000000000000000602082015250565b6000613b01602b83612f4d565b9150613b0c82613aa5565b604082019050919050565b60006020820190508181036000830152613b3081613af4565b9050919050565b7f45524332303a206275726e2066726f6d20746865207a65726f2061646472657360008201527f7300000000000000000000000000000000000000000000000000000000000000602082015250565b6000613b93602183612f4d565b9150613b9e82613b37565b604082019050919050565b60006020820190508181036000830152613bc281613b86565b9050919050565b7f45524332303a206275726e20616d6f756e7420657863656564732062616c616e60008201527f6365000000000000000000000000000000000000000000000000000000000000602082015250565b6000613c25602283612f4d565b9150613c3082613bc9565b604082019050919050565b60006020820190508181036000830152613c5481613c18565b9050919050565b7f45524332303a20617070726f76652066726f6d20746865207a65726f2061646460008201527f7265737300000000000000000000000000000000000000000000000000000000602082015250565b6000613cb7602483612f4d565b9150613cc282613c5b565b604082019050919050565b60006020820190508181036000830152613ce681613caa565b9050919050565b7f45524332303a20617070726f766520746f20746865207a65726f20616464726560008201527f7373000000000000000000000000000000000000000000000000000000000000602082015250565b6000613d49602283612f4d565b9150613d5482613ced565b604082019050919050565b60006020820190508181036000830152613d7881613d3c565b9050919050565b7f45524332303a207472616e736665722066726f6d20746865207a65726f20616460008201527f6472657373000000000000000000000000000000000000000000000000000000602082015250565b6000613ddb602583612f4d565b9150613de682613d7f565b604082019050919050565b60006020820190508181036000830152613e0a81613dce565b9050919050565b7f45524332303a207472616e7366657220746f20746865207a65726f206164647260008201527f6573730000000000000000000000000000000000000000000000000000000000602082015250565b6000613e6d602383612f4d565b9150613e7882613e11565b604082019050919050565b60006020820190508181036000830152613e9c81613e60565b9050919050565b7f45524332303a207472616e7366657220616d6f756e742065786365656473206260008201527f616c616e63650000000000000000000000000000000000000000000000000000602082015250565b6000613eff602683612f4d565b9150613f0a82613ea3565b604082019050919050565b60006020820190508181036000830152613f2e81613ef2565b9050919050565b7f455243313936373a206e657720696d706c656d656e746174696f6e206973206e60008201527f6f74206120636f6e747261637400000000000000000000000000000000000000602082015250565b6000613f91602d83612f4d565b9150613f9c82613f35565b604082019050919050565b60006020820190508181036000830152613fc081613f84565b9050919050565b6000606082019050613fdc6000830186613230565b613fe96020830185613230565b613ff6604083018461311b565b949350505050565b7f416464726573733a2064656c65676174652063616c6c20746f206e6f6e2d636f60008201527f6e74726163740000000000000000000000000000000000000000000000000000602082015250565b600061405a602683612f4d565b915061406582613ffe565b604082019050919050565b600060208201905081810360008301526140898161404d565b9050919050565b600081519050919050565b600081905092915050565b60006140b182614090565b6140bb818561409b565b93506140cb818560208601612f5e565b80840191505092915050565b60006140e382846140a6565b91508190509291505056fe416464726573733a206c6f772d6c6576656c2064656c65676174652063616c6c206661696c6564a26469706673582212204ed41342fe0528209a2ed63d360796b585d8675b65398bcd52c7835ace8a28ab64736f6c634300080b0033",
  "devdoc": {
    "errors": {
      "CallerNotManager(address)": [
        {
          "params": {
            "caller": "`msg.sender` that called the function."
          }
        }
      ],
      "NoLockedStakedCelo(address)": [
        {
          "params": {
            "account": "The account's address."
          }
        }
      ],
      "NotEnoughStCeloToLock(address)": [
        {
          "params": {
            "account": "The account's address."
          }
        }
      ],
      "NothingToUnlock(address)": [
        {
          "params": {
            "account": "The account's address."
          }
        }
      ]
    },
    "events": {
      "LockedStCelo(address,uint256)": {
        "params": {
          "account": "The owner of locked stCELO.",
          "amount": "The amount of locked stCELO."
        }
      },
      "UnlockedStCelo(address,uint256)": {
        "params": {
          "account": "The owner of unlocked stCELO.",
          "amount": "The amount of unlocked stCELO."
        }
      }
    },
    "kind": "dev",
    "methods": {
      "allowance(address,address)": {
        "details": "See {IERC20-allowance}."
      },
      "approve(address,uint256)": {
        "details": "See {IERC20-approve}. NOTE: If `amount` is the maximum `uint256`, the allowance is not updated on `transferFrom`. This is semantically equivalent to an infinite approval. Requirements: - `spender` cannot be the zero address."
      },
      "balanceOf(address)": {
        "details": "See {IERC20-balanceOf}."
      },
      "burn(address,uint256)": {
        "params": {
          "amount": "The amount of stCELO to burn.",
          "from": "The address that will have its stCELO burned."
        }
      },
      "decimals()": {
        "details": "Returns the number of decimals used to get its user representation. For example, if `decimals` equals `2`, a balance of `505` tokens should be displayed to a user as `5.05` (`505 / 10 ** 2`). Tokens usually opt for a value of 18, imitating the relationship between Ether and Wei. This is the value {ERC20} uses, unless this function is overridden; NOTE: This information is only used for _display_ purposes: it in no way affects any of the arithmetic of the contract, including {IERC20-balanceOf} and {IERC20-transfer}."
      },
      "decreaseAllowance(address,uint256)": {
        "details": "Atomically decreases the allowance granted to `spender` by the caller. This is an alternative to {approve} that can be used as a mitigation for problems described in {IERC20-approve}. Emits an {Approval} event indicating the updated allowance. Requirements: - `spender` cannot be the zero address. - `spender` must have allowance for the caller of at least `subtractedValue`."
      },
      "getVersionNumber()": {
        "returns": {
          "_0": "Storage version of the contract.",
          "_1": "Major version of the contract.",
          "_2": "Minor version of the contract.",
          "_3": "Patch version of the contract."
        }
      },
      "increaseAllowance(address,uint256)": {
        "details": "Atomically increases the allowance granted to `spender` by the caller. This is an alternative to {approve} that can be used as a mitigation for problems described in {IERC20-approve}. Emits an {Approval} event indicating the updated allowance. Requirements: - `spender` cannot be the zero address."
      },
      "initialize(address,address)": {
        "params": {
          "_manager": "The address of the Manager contract.",
          "_owner": "The address to set as the owner."
        }
      },
      "isPaused()": {
        "returns": {
          "_0": "`true` if the contract is paused, `false` otherwise."
        }
      },
      "lockVoteBalance(address,uint256)": {
        "params": {
          "account": "The address that will have its stCELO balance locked.",
          "amount": "The amount of stCELO to lock."
        }
      },
      "lockedVoteBalanceOf(address)": {
        "params": {
          "account": "The address of locked stCELO balance."
        },
        "returns": {
          "_0": "The amount of locked stCELO."
        }
      },
      "mint(address,uint256)": {
        "params": {
          "amount": "The amount of stCELO to mint.",
          "to": "The address that will receive the new stCELO."
        }
      },
      "name()": {
        "details": "Returns the name of the token."
      },
      "owner()": {
        "details": "Returns the address of the current owner."
      },
      "renounceOwnership()": {
        "details": "Leaves the contract without owner. It will not be possible to call `onlyOwner` functions anymore. Can only be called by the current owner. NOTE: Renouncing ownership will leave the contract without an owner, thereby removing any functionality that is only available to the owner."
      },
      "setManager(address)": {
        "params": {
          "_manager": "The new manager address."
        }
      },
      "symbol()": {
        "details": "Returns the symbol of the token, usually a shorter version of the name."
      },
      "totalSupply()": {
        "details": "See {IERC20-totalSupply}."
      },
      "transfer(address,uint256)": {
        "details": "See {IERC20-transfer}. Requirements: - `to` cannot be the zero address. - the caller must have a balance of at least `amount`."
      },
      "transferFrom(address,address,uint256)": {
        "details": "See {IERC20-transferFrom}. Emits an {Approval} event indicating the updated allowance. This is not required by the EIP. See the note at the beginning of {ERC20}. NOTE: Does not update the allowance if the current allowance is the maximum `uint256`. Requirements: - `from` and `to` cannot be the zero address. - `from` must have a balance of at least `amount`. - the caller must have allowance for ``from``'s tokens of at least `amount`."
      },
      "transferOwnership(address)": {
        "details": "Transfers ownership of the contract to a new account (`newOwner`). Can only be called by the current owner."
      },
      "unlockVoteBalance(address)": {
        "params": {
          "beneficiary": "The address that will have its stCELO balance unlocked."
        }
      },
      "upgradeTo(address)": {
        "details": "Upgrade the implementation of the proxy to `newImplementation`. Calls {_authorizeUpgrade}. Emits an {Upgraded} event."
      },
      "upgradeToAndCall(address,bytes)": {
        "details": "Upgrade the implementation of the proxy to `newImplementation`, and subsequently execute the function call encoded in `data`. Calls {_authorizeUpgrade}. Emits an {Upgraded} event."
      }
    },
    "title": "An ERC-20 token that is a fungible and transferrable representation of reward-earning voted LockedGold (i.e. locked CELO).",
    "version": 1
  },
  "userdoc": {
    "errors": {
      "AddressZeroNotAllowed()": [
        {
          "notice": "Used when attempting to pass in address zero where not allowed."
        }
      ],
      "CallerNotManager(address)": [
        {
          "notice": "Used when an `onlyManager` function is called by a non-manager."
        }
      ],
      "NoLockedStakedCelo(address)": [
        {
          "notice": "Used when attempting to unlock stCELO when there is no locked stCELO."
        }
      ],
      "NotEnoughStCeloToLock(address)": [
        {
          "notice": "Used when attempting to lock stCELO when there is not enough stCELO."
        }
      ],
      "NothingToUnlock(address)": [
        {
          "notice": "Used when attempting to unlock stCELO when there is no stCELO to unlock."
        }
      ],
      "OnlyPauser()": [
        {
          "notice": "Used when an `onlyPauser` function is called with a different address."
        }
      ],
      "Paused()": [
        {
          "notice": "Used when an `onlyWhenNotPaused` function is called while the contract is paused."
        }
      ]
    },
    "events": {
      "ContractPaused()": {
        "notice": "Emitted when this contract is paused."
      },
      "ContractUnpaused()": {
        "notice": "Emitted when this contract is unpaused."
      },
      "LockedStCelo(address,uint256)": {
        "notice": "Emitted when stCELO is locked."
      },
      "ManagerSet(address)": {
        "notice": "Emitted when the manager is initially set or later modified."
      },
      "PauserSet(address)": {
        "notice": "Emitted when the address authorized to pause/unpause the contract is changed."
      },
      "UnlockedStCelo(address,uint256)": {
        "notice": "Emitted when stCELO is inlocked."
      }
    },
    "kind": "user",
    "methods": {
      "PAUSED_POSITION()": {
        "notice": "The storage slot under which we store a boolean representing whether or not the contract is currently paused."
      },
      "PAUSER_POSITION()": {
        "notice": "The storage slot under which we store an address representing the address permissioned to pause/unpause this contract."
      },
      "burn(address,uint256)": {
        "notice": "Burns stCELO from an address."
      },
      "constructor": {
        "notice": "Empty constructor for proxy implementation, `initializer` modifer ensures the implementation gets initialized."
      },
      "getVersionNumber()": {
        "notice": "Returns the storage, major, minor, and patch version of the contract."
      },
      "initialize(address,address)": {
        "notice": "Initializes the contract."
      },
      "isPaused()": {
        "notice": "Returns whether or not the contract is paused."
      },
      "lockVoteBalance(address,uint256)": {
        "notice": "Locks vote stCELO from an address."
      },
      "lockedVoteBalanceOf(address)": {
        "notice": "Returns vote stCELO locked balance."
      },
      "mint(address,uint256)": {
        "notice": "Mints new stCELO to an address."
      },
      "pause()": {
        "notice": "Pauses the contract."
      },
      "pauser()": {
        "notice": "Returns the address permissioned to pause/unpause this contract."
      },
      "setManager(address)": {
        "notice": "Sets the manager address."
      },
      "setPauser()": {
        "notice": "Sets that address permissioned to pause/unpause this contract to the owner of this contract."
      },
      "unlockVoteBalance(address)": {
        "notice": "Unlocks vote stCELO from an address."
      },
      "unpause()": {
        "notice": "Unpauses the contract."
      }
    },
    "version": 1
  },
  "storageLayout": {
    "storage": [
      {
        "astId": 130,
        "contract": "contracts/StakedCelo.sol:StakedCelo",
        "label": "_initialized",
        "offset": 0,
        "slot": "0",
        "type": "t_bool"
      },
      {
        "astId": 133,
        "contract": "contracts/StakedCelo.sol:StakedCelo",
        "label": "_initializing",
        "offset": 1,
        "slot": "0",
        "type": "t_bool"
      },
      {
        "astId": 584,
        "contract": "contracts/StakedCelo.sol:StakedCelo",
        "label": "__gap",
        "offset": 0,
        "slot": "1",
        "type": "t_array(t_uint256)50_storage"
      },
      {
        "astId": 12209,
        "contract": "contracts/StakedCelo.sol:StakedCelo",
        "label": "_balances",
        "offset": 0,
        "slot": "51",
        "type": "t_mapping(t_address,t_uint256)"
      },
      {
        "astId": 12215,
        "contract": "contracts/StakedCelo.sol:StakedCelo",
        "label": "_allowances",
        "offset": 0,
        "slot": "52",
        "type": "t_mapping(t_address,t_mapping(t_address,t_uint256))"
      },
      {
        "astId": 12217,
        "contract": "contracts/StakedCelo.sol:StakedCelo",
        "label": "_totalSupply",
        "offset": 0,
        "slot": "53",
        "type": "t_uint256"
      },
      {
        "astId": 12219,
        "contract": "contracts/StakedCelo.sol:StakedCelo",
        "label": "_name",
        "offset": 0,
        "slot": "54",
        "type": "t_string_storage"
      },
      {
        "astId": 12221,
        "contract": "contracts/StakedCelo.sol:StakedCelo",
        "label": "_symbol",
        "offset": 0,
        "slot": "55",
        "type": "t_string_storage"
      },
      {
        "astId": 12802,
        "contract": "contracts/StakedCelo.sol:StakedCelo",
        "label": "__gap",
        "offset": 0,
        "slot": "56",
        "type": "t_array(t_uint256)45_storage"
      },
      {
        "astId": 10,
        "contract": "contracts/StakedCelo.sol:StakedCelo",
        "label": "_owner",
        "offset": 0,
        "slot": "101",
        "type": "t_address"
      },
      {
        "astId": 122,
        "contract": "contracts/StakedCelo.sol:StakedCelo",
        "label": "__gap",
        "offset": 0,
        "slot": "102",
        "type": "t_array(t_uint256)49_storage"
      },
      {
        "astId": 7214,
        "contract": "contracts/StakedCelo.sol:StakedCelo",
        "label": "manager",
        "offset": 0,
        "slot": "151",
        "type": "t_address"
      },
      {
        "astId": 10849,
        "contract": "contracts/StakedCelo.sol:StakedCelo",
        "label": "_lockedBalances",
        "offset": 0,
        "slot": "152",
        "type": "t_mapping(t_address,t_uint256)"
      }
    ],
    "types": {
      "t_address": {
        "encoding": "inplace",
        "label": "address",
        "numberOfBytes": "20"
      },
      "t_array(t_uint256)45_storage": {
        "base": "t_uint256",
        "encoding": "inplace",
        "label": "uint256[45]",
        "numberOfBytes": "1440"
      },
      "t_array(t_uint256)49_storage": {
        "base": "t_uint256",
        "encoding": "inplace",
        "label": "uint256[49]",
        "numberOfBytes": "1568"
      },
      "t_array(t_uint256)50_storage": {
        "base": "t_uint256",
        "encoding": "inplace",
        "label": "uint256[50]",
        "numberOfBytes": "1600"
      },
      "t_bool": {
        "encoding": "inplace",
        "label": "bool",
        "numberOfBytes": "1"
      },
      "t_mapping(t_address,t_mapping(t_address,t_uint256))": {
        "encoding": "mapping",
        "key": "t_address",
        "label": "mapping(address => mapping(address => uint256))",
        "numberOfBytes": "32",
        "value": "t_mapping(t_address,t_uint256)"
      },
      "t_mapping(t_address,t_uint256)": {
        "encoding": "mapping",
        "key": "t_address",
        "label": "mapping(address => uint256)",
        "numberOfBytes": "32",
        "value": "t_uint256"
      },
      "t_string_storage": {
        "encoding": "bytes",
        "label": "string",
        "numberOfBytes": "32"
      },
      "t_uint256": {
        "encoding": "inplace",
        "label": "uint256",
        "numberOfBytes": "32"
      }
    }
  }
}