{
  "address": "0x99bbA657f2BbC93c02D617f8bA121cB8Fc104Acf",
  "abi": [
    {
      "inputs": [],
      "stateMutability": "nonpayable",
      "type": "constructor"
    },
    {
      "inputs": [],
      "name": "AddressZeroNotAllowed",
      "type": "error"
    },
    {
      "inputs": [
        {
          "internalType": "address",
          "name": "caller",
          "type": "address"
        }
      ],
      "name": "CallerNotStakedCelo",
      "type": "error"
    },
    {
      "inputs": [
        {
          "internalType": "address",
          "name": "caller",
          "type": "address"
        }
      ],
      "name": "CallerNotStrategy",
      "type": "error"
    },
    {
      "inputs": [
        {
          "internalType": "address",
          "name": "group",
          "type": "address"
        }
      ],
      "name": "FromGroupNotOverflowing",
      "type": "error"
    },
    {
      "inputs": [
        {
          "internalType": "address",
          "name": "group",
          "type": "address"
        }
      ],
      "name": "GroupNotEligible",
      "type": "error"
    },
    {
      "inputs": [
        {
          "internalType": "address",
          "name": "group",
          "type": "address"
        }
      ],
      "name": "InvalidFromGroup",
      "type": "error"
    },
    {
      "inputs": [
        {
          "internalType": "address",
          "name": "group",
          "type": "address"
        }
      ],
      "name": "InvalidToGroup",
      "type": "error"
    },
    {
      "inputs": [
        {
          "internalType": "address",
          "name": "group",
          "type": "address"
        }
      ],
      "name": "NoScheduledVotes",
      "type": "error"
    },
    {
      "inputs": [
        {
          "internalType": "address",
          "name": "group",
          "type": "address"
        },
        {
          "internalType": "uint256",
          "name": "actualCelo",
          "type": "uint256"
        },
        {
          "internalType": "uint256",
          "name": "expectedCelo",
          "type": "uint256"
        }
      ],
      "name": "RebalanceEnoughCelo",
      "type": "error"
    },
    {
      "inputs": [
        {
          "internalType": "address",
          "name": "group",
          "type": "address"
        },
        {
          "internalType": "uint256",
          "name": "actualCelo",
          "type": "uint256"
        },
        {
          "internalType": "uint256",
          "name": "expectedCelo",
          "type": "uint256"
        }
      ],
      "name": "RebalanceNoExtraCelo",
      "type": "error"
    },
    {
      "inputs": [
        {
          "internalType": "address",
          "name": "group",
          "type": "address"
        }
      ],
      "name": "ToGroupOverflowing",
      "type": "error"
    },
    {
      "inputs": [],
      "name": "ZeroWithdrawal",
      "type": "error"
    },
    {
      "anonymous": false,
      "inputs": [
        {
          "indexed": false,
          "internalType": "address",
          "name": "previousAdmin",
          "type": "address"
        },
        {
          "indexed": false,
          "internalType": "address",
          "name": "newAdmin",
          "type": "address"
        }
      ],
      "name": "AdminChanged",
      "type": "event"
    },
    {
      "anonymous": false,
      "inputs": [
        {
          "indexed": true,
          "internalType": "address",
          "name": "beacon",
          "type": "address"
        }
      ],
      "name": "BeaconUpgraded",
      "type": "event"
    },
    {
      "anonymous": false,
      "inputs": [
        {
          "indexed": true,
          "internalType": "address",
          "name": "previousOwner",
          "type": "address"
        },
        {
          "indexed": true,
          "internalType": "address",
          "name": "newOwner",
          "type": "address"
        }
      ],
      "name": "OwnershipTransferred",
      "type": "event"
    },
    {
      "anonymous": false,
      "inputs": [
        {
          "indexed": true,
          "internalType": "address",
          "name": "implementation",
          "type": "address"
        }
      ],
      "name": "Upgraded",
      "type": "event"
    },
    {
      "anonymous": false,
      "inputs": [
        {
          "indexed": true,
          "internalType": "address",
          "name": "voteContract",
          "type": "address"
        }
      ],
      "name": "VoteContractSet",
      "type": "event"
    },
    {
      "inputs": [
        {
          "internalType": "address",
          "name": "newStrategy",
          "type": "address"
        }
      ],
      "name": "changeStrategy",
      "outputs": [],
      "stateMutability": "nonpayable",
      "type": "function"
    },
    {
      "inputs": [
        {
          "internalType": "address",
          "name": "strategy",
          "type": "address"
        }
      ],
      "name": "checkStrategy",
      "outputs": [
        {
          "internalType": "address",
          "name": "",
          "type": "address"
        }
      ],
      "stateMutability": "view",
      "type": "function"
    },
    {
      "inputs": [],
      "name": "defaultStrategy",
      "outputs": [
        {
          "internalType": "contract IDefaultStrategy",
          "name": "",
          "type": "address"
        }
      ],
      "stateMutability": "view",
      "type": "function"
    },
    {
      "inputs": [],
      "name": "deposit",
      "outputs": [],
      "stateMutability": "payable",
      "type": "function"
    },
    {
      "inputs": [
        {
          "internalType": "address",
          "name": "accountAddress",
          "type": "address"
        }
      ],
      "name": "getAddressStrategy",
      "outputs": [
        {
          "internalType": "address",
          "name": "",
          "type": "address"
        }
      ],
      "stateMutability": "view",
      "type": "function"
    },
    {
      "inputs": [
        {
          "internalType": "address",
          "name": "group",
          "type": "address"
        }
      ],
      "name": "getExpectedAndActualCeloForGroup",
      "outputs": [
        {
          "internalType": "uint256",
          "name": "expectedCelo",
          "type": "uint256"
        },
        {
          "internalType": "uint256",
          "name": "actualCelo",
          "type": "uint256"
        }
      ],
      "stateMutability": "view",
      "type": "function"
    },
    {
      "inputs": [
        {
          "internalType": "address",
          "name": "group",
          "type": "address"
        }
      ],
      "name": "getReceivableVotesForGroup",
      "outputs": [
        {
          "internalType": "uint256",
          "name": "",
          "type": "uint256"
        }
      ],
      "stateMutability": "view",
      "type": "function"
    },
    {
      "inputs": [],
      "name": "getVersionNumber",
      "outputs": [
        {
          "internalType": "uint256",
          "name": "",
          "type": "uint256"
        },
        {
          "internalType": "uint256",
          "name": "",
          "type": "uint256"
        },
        {
          "internalType": "uint256",
          "name": "",
          "type": "uint256"
        },
        {
          "internalType": "uint256",
          "name": "",
          "type": "uint256"
        }
      ],
      "stateMutability": "pure",
      "type": "function"
    },
    {
      "inputs": [],
      "name": "groupHealth",
      "outputs": [
        {
          "internalType": "contract IGroupHealth",
          "name": "",
          "type": "address"
        }
      ],
      "stateMutability": "view",
      "type": "function"
    },
    {
      "inputs": [
        {
          "internalType": "address",
          "name": "_registry",
          "type": "address"
        },
        {
          "internalType": "address",
          "name": "_owner",
          "type": "address"
        }
      ],
      "name": "initialize",
      "outputs": [],
      "stateMutability": "nonpayable",
      "type": "function"
    },
    {
      "inputs": [],
      "name": "owner",
      "outputs": [
        {
          "internalType": "address",
          "name": "",
          "type": "address"
        }
      ],
      "stateMutability": "view",
      "type": "function"
    },
    {
      "inputs": [
        {
          "internalType": "address",
          "name": "fromGroup",
          "type": "address"
        },
        {
          "internalType": "address",
          "name": "toGroup",
          "type": "address"
        }
      ],
      "name": "rebalance",
      "outputs": [],
      "stateMutability": "nonpayable",
      "type": "function"
    },
    {
      "inputs": [
        {
          "internalType": "address",
          "name": "fromGroup",
          "type": "address"
        },
        {
          "internalType": "address",
          "name": "toGroup",
          "type": "address"
        }
      ],
      "name": "rebalanceOverflow",
      "outputs": [],
      "stateMutability": "nonpayable",
      "type": "function"
    },
    {
      "inputs": [],
      "name": "registry",
      "outputs": [
        {
          "internalType": "contract IRegistry",
          "name": "",
          "type": "address"
        }
      ],
      "stateMutability": "view",
      "type": "function"
    },
    {
      "inputs": [],
      "name": "renounceOwnership",
      "outputs": [],
      "stateMutability": "nonpayable",
      "type": "function"
    },
    {
      "inputs": [
        {
          "internalType": "uint256",
          "name": "proposalId",
          "type": "uint256"
        },
        {
          "internalType": "uint256",
          "name": "index",
          "type": "uint256"
        }
      ],
      "name": "revokeVotes",
      "outputs": [],
      "stateMutability": "nonpayable",
      "type": "function"
    },
    {
      "inputs": [
        {
          "internalType": "address[]",
          "name": "fromGroups",
          "type": "address[]"
        },
        {
          "internalType": "address[]",
          "name": "toGroups",
          "type": "address[]"
        },
        {
          "internalType": "uint256[]",
          "name": "fromVotes",
          "type": "uint256[]"
        },
        {
          "internalType": "uint256[]",
          "name": "toVotes",
          "type": "uint256[]"
        }
      ],
      "name": "scheduleTransferWithinStrategy",
      "outputs": [],
      "stateMutability": "nonpayable",
      "type": "function"
    },
    {
      "inputs": [
        {
          "internalType": "address",
          "name": "_stakedCelo",
          "type": "address"
        },
        {
          "internalType": "address",
          "name": "_account",
          "type": "address"
        },
        {
          "internalType": "address",
          "name": "_vote",
          "type": "address"
        },
        {
          "internalType": "address",
          "name": "_groupHealth",
          "type": "address"
        },
        {
          "internalType": "address",
          "name": "_specificGroupStrategy",
          "type": "address"
        },
        {
          "internalType": "address",
          "name": "_defaultStrategy",
          "type": "address"
        }
      ],
      "name": "setDependencies",
      "outputs": [],
      "stateMutability": "nonpayable",
      "type": "function"
    },
    {
      "inputs": [],
      "name": "specificGroupStrategy",
      "outputs": [
        {
          "internalType": "contract ISpecificGroupStrategy",
          "name": "",
          "type": "address"
        }
      ],
      "stateMutability": "view",
      "type": "function"
    },
    {
      "inputs": [
        {
          "internalType": "address",
          "name": "",
          "type": "address"
        }
      ],
      "name": "strategies",
      "outputs": [
        {
          "internalType": "address",
          "name": "",
          "type": "address"
        }
      ],
      "stateMutability": "view",
      "type": "function"
    },
    {
      "inputs": [
        {
          "internalType": "uint256",
          "name": "stCeloAmount",
          "type": "uint256"
        }
      ],
      "name": "toCelo",
      "outputs": [
        {
          "internalType": "uint256",
          "name": "",
          "type": "uint256"
        }
      ],
      "stateMutability": "view",
      "type": "function"
    },
    {
      "inputs": [
        {
          "internalType": "uint256",
          "name": "celoAmount",
          "type": "uint256"
        }
      ],
      "name": "toStakedCelo",
      "outputs": [
        {
          "internalType": "uint256",
          "name": "",
          "type": "uint256"
        }
      ],
      "stateMutability": "view",
      "type": "function"
    },
    {
      "inputs": [
        {
          "internalType": "address",
          "name": "from",
          "type": "address"
        },
        {
          "internalType": "address",
          "name": "to",
          "type": "address"
        },
        {
          "internalType": "uint256",
          "name": "stCeloAmount",
          "type": "uint256"
        }
      ],
      "name": "transfer",
      "outputs": [],
      "stateMutability": "nonpayable",
      "type": "function"
    },
    {
      "inputs": [
        {
          "internalType": "address",
          "name": "fromStrategy",
          "type": "address"
        },
        {
          "internalType": "address",
          "name": "toStrategy",
          "type": "address"
        },
        {
          "internalType": "uint256",
          "name": "stCeloAmount",
          "type": "uint256"
        }
      ],
      "name": "transferBetweenStrategies",
      "outputs": [],
      "stateMutability": "nonpayable",
      "type": "function"
    },
    {
      "inputs": [
        {
          "internalType": "address",
          "name": "newOwner",
          "type": "address"
        }
      ],
      "name": "transferOwnership",
      "outputs": [],
      "stateMutability": "nonpayable",
      "type": "function"
    },
    {
      "inputs": [
        {
          "internalType": "address",
          "name": "accountAddress",
          "type": "address"
        }
      ],
      "name": "unlockBalance",
      "outputs": [],
      "stateMutability": "nonpayable",
      "type": "function"
    },
    {
      "inputs": [
        {
          "internalType": "address",
          "name": "beneficiary",
          "type": "address"
        }
      ],
      "name": "updateHistoryAndReturnLockedStCeloInVoting",
      "outputs": [
        {
          "internalType": "uint256",
          "name": "",
          "type": "uint256"
        }
      ],
      "stateMutability": "nonpayable",
      "type": "function"
    },
    {
      "inputs": [
        {
          "internalType": "address",
          "name": "newImplementation",
          "type": "address"
        }
      ],
      "name": "upgradeTo",
      "outputs": [],
      "stateMutability": "nonpayable",
      "type": "function"
    },
    {
      "inputs": [
        {
          "internalType": "address",
          "name": "newImplementation",
          "type": "address"
        },
        {
          "internalType": "bytes",
          "name": "data",
          "type": "bytes"
        }
      ],
      "name": "upgradeToAndCall",
      "outputs": [],
      "stateMutability": "payable",
      "type": "function"
    },
    {
      "inputs": [],
      "name": "voteContract",
      "outputs": [
        {
          "internalType": "address",
          "name": "",
          "type": "address"
        }
      ],
      "stateMutability": "view",
      "type": "function"
    },
    {
      "inputs": [
        {
          "internalType": "uint256",
          "name": "proposalId",
          "type": "uint256"
        },
        {
          "internalType": "uint256",
          "name": "index",
          "type": "uint256"
        },
        {
          "internalType": "uint256",
          "name": "yesVotes",
          "type": "uint256"
        },
        {
          "internalType": "uint256",
          "name": "noVotes",
          "type": "uint256"
        },
        {
          "internalType": "uint256",
          "name": "abstainVotes",
          "type": "uint256"
        }
      ],
      "name": "voteProposal",
      "outputs": [],
      "stateMutability": "nonpayable",
      "type": "function"
    },
    {
      "inputs": [
        {
          "internalType": "uint256",
          "name": "stakedCeloAmount",
          "type": "uint256"
        }
      ],
      "name": "withdraw",
      "outputs": [],
      "stateMutability": "nonpayable",
      "type": "function"
    }
  ],
  "transactionHash": "0xc213cedf51a39064eb760fe80127e1258529d3e6eb6cdc223d0729c011e4ac50",
  "args": [],
  "numDeployments": 1,
  "solcInputHash": "e24cbea71f9d8b51d396fe2d1f8eb443",
  "bytecode": "0x60a06040523073ffffffffffffffffffffffffffffffffffffffff1660809073ffffffffffffffffffffffffffffffffffffffff168152503480156200004457600080fd5b50600060019054906101000a900460ff166200006f5760008054906101000a900460ff161562000080565b6200007f6200013c60201b60201c565b5b620000c2576040517f08c379a0000000000000000000000000000000000000000000000000000000008152600401620000b99062000204565b60405180910390fd5b60008060019054906101000a900460ff16159050801562000113576001600060016101000a81548160ff02191690831515021790555060016000806101000a81548160ff0219169083151502179055505b8015620001355760008060016101000a81548160ff0219169083151502179055505b5062000226565b600062000154306200015a60201b6200304b1760201c565b15905090565b6000808273ffffffffffffffffffffffffffffffffffffffff163b119050919050565b600082825260208201905092915050565b7f496e697469616c697a61626c653a20636f6e747261637420697320616c72656160008201527f647920696e697469616c697a6564000000000000000000000000000000000000602082015250565b6000620001ec602e836200017d565b9150620001f9826200018e565b604082019050919050565b600060208201905081810360008301526200021f81620001dd565b9050919050565b608051615cc5620002576000396000818161126c015281816112fb0152818161163d01526116cc0152615cc56000f3fe6080604052600436106101e35760003560e01c80637a9024bd11610102578063beabacc811610095578063d0e30db011610064578063d0e30db0146106f3578063ee183c4a146106fd578063f2fde38b14610728578063fac5bb9b14610751576101e3565b8063beabacc814610639578063c494ec1e14610662578063ce7a60ab1461069f578063cf009f7a146106c8576101e3565b8063a0fefe25116100d1578063a0fefe251461057e578063a3f16ef1146105bc578063b0ef81de146105e7578063bc4d3bb314610610576101e3565b80637a9024bd146104d65780637b103999146104ff5780637e72dd661461052a5780638da5cb5b14610553576101e3565b806339ebf8231161017a5780634f1ef286116101495780634f1ef2861461044c57806354255be0146104685780636fe958d814610496578063715018a6146104bf576101e3565b806339ebf8231461036c578063485cc955146103a957806348fd6ea6146103d25780634e4e5efb1461040f576101e3565b80631ca09a12116101b65780631ca09a12146102b45780632c431058146102dd5780632e1a7d4d1461031a5780633659cfe614610343576101e3565b80630567847f146101e85780630c4d4e4014610225578063114e6b371461024e5780631551178114610277575b600080fd5b3480156101f457600080fd5b5061020f600480360381019061020a919061435a565b61077c565b60405161021c9190614396565b60405180910390f35b34801561023157600080fd5b5061024c6004803603810190610247919061446c565b6108e6565b005b34801561025a57600080fd5b50610275600480360381019061027091906145b3565b610a79565b005b34801561028357600080fd5b5061029e60048036038101906102999190614640565b610e40565b6040516102ab919061467c565b60405180910390f35b3480156102c057600080fd5b506102db60048036038101906102d69190614697565b610f2d565b005b3480156102e957600080fd5b5061030460048036038101906102ff9190614640565b61102b565b6040516103119190614396565b60405180910390f35b34801561032657600080fd5b50610341600480360381019061033c919061435a565b6111ce565b005b34801561034f57600080fd5b5061036a60048036038101906103659190614640565b61126a565b005b34801561037857600080fd5b50610393600480360381019061038e9190614640565b6113f3565b6040516103a0919061467c565b60405180910390f35b3480156103b557600080fd5b506103d060048036038101906103cb91906146ea565b611426565b005b3480156103de57600080fd5b506103f960048036038101906103f49190614640565b61151e565b6040516104069190614396565b60405180910390f35b34801561041b57600080fd5b5061043660048036038101906104319190614640565b6115ca565b604051610443919061467c565b60405180910390f35b6104666004803603810190610461919061486b565b61163b565b005b34801561047457600080fd5b5061047d611778565b60405161048d94939291906148c7565b60405180910390f35b3480156104a257600080fd5b506104bd60048036038101906104b891906146ea565b611793565b005b3480156104cb57600080fd5b506104d4611a5c565b005b3480156104e257600080fd5b506104fd60048036038101906104f89190614640565b611ae4565b005b34801561050b57600080fd5b50610514611e42565b604051610521919061496b565b60405180910390f35b34801561053657600080fd5b50610551600480360381019061054c91906146ea565b611e68565b005b34801561055f57600080fd5b5061056861214e565b604051610575919061467c565b60405180910390f35b34801561058a57600080fd5b506105a560048036038101906105a09190614640565b612178565b6040516105b3929190614986565b60405180910390f35b3480156105c857600080fd5b506105d16124db565b6040516105de91906149d0565b60405180910390f35b3480156105f357600080fd5b5061060e600480360381019061060991906149eb565b612501565b005b34801561061c57600080fd5b5061063760048036038101906106329190614a2b565b61264e565b005b34801561064557600080fd5b50610660600480360381019061065b9190614697565b612837565b005b34801561066e57600080fd5b506106896004803603810190610684919061435a565b6129a3565b6040516106969190614396565b60405180910390f35b3480156106ab57600080fd5b506106c660048036038101906106c19190614640565b612b0d565b005b3480156106d457600080fd5b506106dd612b9d565b6040516106ea9190614ac7565b60405180910390f35b6106fb612bc3565b005b34801561070957600080fd5b50610712612f07565b60405161071f919061467c565b60405180910390f35b34801561073457600080fd5b5061074f600480360381019061074a9190614640565b612f2d565b005b34801561075d57600080fd5b50610766613025565b6040516107739190614b03565b60405180910390f35b600080606660009054906101000a900473ffffffffffffffffffffffffffffffffffffffff1673ffffffffffffffffffffffffffffffffffffffff166318160ddd6040518163ffffffff1660e01b8152600401602060405180830381865afa1580156107ec573d6000803e3d6000fd5b505050506040513d601f19601f820116820180604052508101906108109190614b33565b90506000606760009054906101000a900473ffffffffffffffffffffffffffffffffffffffff1673ffffffffffffffffffffffffffffffffffffffff166301d2b6ea6040518163ffffffff1660e01b8152600401602060405180830381865afa158015610881573d6000803e3d6000fd5b505050506040513d601f19601f820116820180604052508101906108a59190614b33565b905060008214806108b65750600081145b156108c55783925050506108e1565b8181856108d29190614b8f565b6108dc9190614c18565b925050505b919050565b3373ffffffffffffffffffffffffffffffffffffffff16606f60009054906101000a900473ffffffffffffffffffffffffffffffffffffffff1673ffffffffffffffffffffffffffffffffffffffff161415801561099257503373ffffffffffffffffffffffffffffffffffffffff16606e60009054906101000a900473ffffffffffffffffffffffffffffffffffffffff1673ffffffffffffffffffffffffffffffffffffffff1614155b156109d457336040517ff7eb25ef0000000000000000000000000000000000000000000000000000000081526004016109cb919061467c565b60405180910390fd5b606760009054906101000a900473ffffffffffffffffffffffffffffffffffffffff1673ffffffffffffffffffffffffffffffffffffffff1663f380ade3898987878b8b89896040518963ffffffff1660e01b8152600401610a3d989796959493929190614d7e565b600060405180830381600087803b158015610a5757600080fd5b505af1158015610a6b573d6000803e3d6000fd5b505050505050505050505050565b610a8161306e565b73ffffffffffffffffffffffffffffffffffffffff16610a9f61214e565b73ffffffffffffffffffffffffffffffffffffffff1614610af5576040517f08c379a0000000000000000000000000000000000000000000000000000000008152600401610aec90614e44565b60405180910390fd5b600073ffffffffffffffffffffffffffffffffffffffff168673ffffffffffffffffffffffffffffffffffffffff161480610b5c5750600073ffffffffffffffffffffffffffffffffffffffff168573ffffffffffffffffffffffffffffffffffffffff16145b80610b935750600073ffffffffffffffffffffffffffffffffffffffff168473ffffffffffffffffffffffffffffffffffffffff16145b80610bca5750600073ffffffffffffffffffffffffffffffffffffffff168373ffffffffffffffffffffffffffffffffffffffff16145b80610c015750600073ffffffffffffffffffffffffffffffffffffffff168273ffffffffffffffffffffffffffffffffffffffff16145b80610c385750600073ffffffffffffffffffffffffffffffffffffffff168173ffffffffffffffffffffffffffffffffffffffff16145b15610c6f576040517f0855380c00000000000000000000000000000000000000000000000000000000815260040160405180910390fd5b85606660006101000a81548173ffffffffffffffffffffffffffffffffffffffff021916908373ffffffffffffffffffffffffffffffffffffffff16021790555084606760006101000a81548173ffffffffffffffffffffffffffffffffffffffff021916908373ffffffffffffffffffffffffffffffffffffffff16021790555083606c60006101000a81548173ffffffffffffffffffffffffffffffffffffffff021916908373ffffffffffffffffffffffffffffffffffffffff16021790555082606d60006101000a81548173ffffffffffffffffffffffffffffffffffffffff021916908373ffffffffffffffffffffffffffffffffffffffff16021790555081606e60006101000a81548173ffffffffffffffffffffffffffffffffffffffff021916908373ffffffffffffffffffffffffffffffffffffffff16021790555080606f60006101000a81548173ffffffffffffffffffffffffffffffffffffffff021916908373ffffffffffffffffffffffffffffffffffffffff1602179055508373ffffffffffffffffffffffffffffffffffffffff167f77001ab3bb5b4e91a2a4021cec272d6505154d5ff1fb2e8426752b15bd8ef16d60405160405180910390a2505050505050565b60008073ffffffffffffffffffffffffffffffffffffffff168273ffffffffffffffffffffffffffffffffffffffff1614158015610f165750606e60009054906101000a900473ffffffffffffffffffffffffffffffffffffffff1673ffffffffffffffffffffffffffffffffffffffff16639016e580836040518263ffffffff1660e01b8152600401610ed4919061467c565b602060405180830381865afa158015610ef1573d6000803e3d6000fd5b505050506040513d601f19601f82011682018060405250810190610f159190614e9c565b5b15610f245760009050610f28565b8190505b919050565b3373ffffffffffffffffffffffffffffffffffffffff16606f60009054906101000a900473ffffffffffffffffffffffffffffffffffffffff1673ffffffffffffffffffffffffffffffffffffffff1614158015610fd957503373ffffffffffffffffffffffffffffffffffffffff16606e60009054906101000a900473ffffffffffffffffffffffffffffffffffffffff1673ffffffffffffffffffffffffffffffffffffffff1614155b1561101b57336040517ff7eb25ef000000000000000000000000000000000000000000000000000000008152600401611012919061467c565b60405180910390fd5b611026838383613076565b505050565b60008061103783613147565b9050600081141561104c5760009150506111c9565b600061105661327b565b73ffffffffffffffffffffffffffffffffffffffff16633861727285606760009054906101000a900473ffffffffffffffffffffffffffffffffffffffff166040518363ffffffff1660e01b81526004016110b2929190614ec9565b602060405180830381865afa1580156110cf573d6000803e3d6000fd5b505050506040513d601f19601f820116820180604052508101906110f39190614b33565b90506000606760009054906101000a900473ffffffffffffffffffffffffffffffffffffffff1673ffffffffffffffffffffffffffffffffffffffff1663acd201d0866040518263ffffffff1660e01b8152600401611152919061467c565b602060405180830381865afa15801561116f573d6000803e3d6000fd5b505050506040513d601f19601f820116820180604052508101906111939190614b33565b905081836111a19190614ef2565b9250808310156111b757600093505050506111c9565b80836111c39190614f48565b93505050505b919050565b6111d88133613342565b606660009054906101000a900473ffffffffffffffffffffffffffffffffffffffff1673ffffffffffffffffffffffffffffffffffffffff16639dc29fac33836040518363ffffffff1660e01b8152600401611235929190614f7c565b600060405180830381600087803b15801561124f57600080fd5b505af1158015611263573d6000803e3d6000fd5b5050505050565b7f000000000000000000000000000000000000000000000000000000000000000073ffffffffffffffffffffffffffffffffffffffff163073ffffffffffffffffffffffffffffffffffffffff1614156112f9576040517f08c379a00000000000000000000000000000000000000000000000000000000081526004016112f090615017565b60405180910390fd5b7f000000000000000000000000000000000000000000000000000000000000000073ffffffffffffffffffffffffffffffffffffffff16611338613459565b73ffffffffffffffffffffffffffffffffffffffff161461138e576040517f08c379a0000000000000000000000000000000000000000000000000000000008152600401611385906150a9565b60405180910390fd5b611397816134b0565b6113f081600067ffffffffffffffff8111156113b6576113b5614740565b5b6040519080825280601f01601f1916602001820160405280156113e85781602001600182028036833780820191505090505b50600061352f565b50565b60706020528060005260406000206000915054906101000a900473ffffffffffffffffffffffffffffffffffffffff1681565b600060019054906101000a900460ff1661144e5760008054906101000a900460ff1615611457565b611456613700565b5b611496576040517f08c379a000000000000000000000000000000000000000000000000000000000815260040161148d9061513b565b60405180910390fd5b60008060019054906101000a900460ff1615905080156114e6576001600060016101000a81548160ff02191690831515021790555060016000806101000a81548160ff0219169083151502179055505b6114ef82613711565b6114f8836137d7565b80156115195760008060016101000a81548160ff0219169083151502179055505b505050565b600080606c60009054906101000a900473ffffffffffffffffffffffffffffffffffffffff1690508073ffffffffffffffffffffffffffffffffffffffff166348fd6ea6846040518263ffffffff1660e01b815260040161157f919061467c565b6020604051808303816000875af115801561159e573d6000803e3d6000fd5b505050506040513d601f19601f820116820180604052508101906115c29190614b33565b915050919050565b6000611634607060008473ffffffffffffffffffffffffffffffffffffffff1673ffffffffffffffffffffffffffffffffffffffff16815260200190815260200160002060009054906101000a900473ffffffffffffffffffffffffffffffffffffffff16610e40565b9050919050565b7f000000000000000000000000000000000000000000000000000000000000000073ffffffffffffffffffffffffffffffffffffffff163073ffffffffffffffffffffffffffffffffffffffff1614156116ca576040517f08c379a00000000000000000000000000000000000000000000000000000000081526004016116c190615017565b60405180910390fd5b7f000000000000000000000000000000000000000000000000000000000000000073ffffffffffffffffffffffffffffffffffffffff16611709613459565b73ffffffffffffffffffffffffffffffffffffffff161461175f576040517f08c379a0000000000000000000000000000000000000000000000000000000008152600401611756906150a9565b60405180910390fd5b611768826134b0565b6117748282600161352f565b5050565b60008060008060016003600080935093509350935090919293565b606f60009054906101000a900473ffffffffffffffffffffffffffffffffffffffff1673ffffffffffffffffffffffffffffffffffffffff16639f8a13d7826040518263ffffffff1660e01b81526004016117ee919061467c565b602060405180830381865afa15801561180b573d6000803e3d6000fd5b505050506040513d601f19601f8201168201806040525081019061182f9190614e9c565b1580156118d55750606e60009054906101000a900473ffffffffffffffffffffffffffffffffffffffff1673ffffffffffffffffffffffffffffffffffffffff16632e8ebaae826040518263ffffffff1660e01b8152600401611892919061467c565b602060405180830381865afa1580156118af573d6000803e3d6000fd5b505050506040513d601f19601f820116820180604052508101906118d39190614e9c565b155b1561191757806040517f5a08158400000000000000000000000000000000000000000000000000000000815260040161190e919061467c565b60405180910390fd5b60008061192384612178565b9150915081811161196f578381836040517f2c4f8ec80000000000000000000000000000000000000000000000000000000081526004016119669392919061515b565b60405180910390fd5b60008061197b85612178565b915091508181106119c7578481836040517fb0006ace0000000000000000000000000000000000000000000000000000000081526004016119be9392919061515b565b60405180910390fd5b60006119d28661102b565b90506000811415611a1a57856040517fb9183a08000000000000000000000000000000000000000000000000000000008152600401611a11919061467c565b60405180910390fd5b6000611a45611a3f8787611a2e9190614f48565b8587611a3a9190614f48565b6138e8565b836138e8565b9050611a52888883613901565b5050505050505050565b611a6461306e565b73ffffffffffffffffffffffffffffffffffffffff16611a8261214e565b73ffffffffffffffffffffffffffffffffffffffff1614611ad8576040517f08c379a0000000000000000000000000000000000000000000000000000000008152600401611acf90614e44565b60405180910390fd5b611ae26000613711565b565b600073ffffffffffffffffffffffffffffffffffffffff168173ffffffffffffffffffffffffffffffffffffffff1614158015611c5d5750606e60009054906101000a900473ffffffffffffffffffffffffffffffffffffffff1673ffffffffffffffffffffffffffffffffffffffff16639016e580826040518263ffffffff1660e01b8152600401611b77919061467c565b602060405180830381865afa158015611b94573d6000803e3d6000fd5b505050506040513d601f19601f82011682018060405250810190611bb89190614e9c565b80611c5c5750606d60009054906101000a900473ffffffffffffffffffffffffffffffffffffffff1673ffffffffffffffffffffffffffffffffffffffff1663ac8f4425826040518263ffffffff1660e01b8152600401611c19919061467c565b602060405180830381865afa158015611c36573d6000803e3d6000fd5b505050506040513d601f19601f82011682018060405250810190611c5a9190614e9c565b155b5b15611c9f57806040517f10a7bc6b000000000000000000000000000000000000000000000000000000008152600401611c96919061467c565b60405180910390fd5b6000606660009054906101000a900473ffffffffffffffffffffffffffffffffffffffff1673ffffffffffffffffffffffffffffffffffffffff166370a08231336040518263ffffffff1660e01b8152600401611cfc919061467c565b602060405180830381865afa158015611d19573d6000803e3d6000fd5b505050506040513d601f19601f82011682018060405250810190611d3d9190614b33565b905060008114611db8576000607060003373ffffffffffffffffffffffffffffffffffffffff1673ffffffffffffffffffffffffffffffffffffffff16815260200190815260200160002060009054906101000a900473ffffffffffffffffffffffffffffffffffffffff169050611db6818484613bd0565b505b611dc182610e40565b607060003373ffffffffffffffffffffffffffffffffffffffff1673ffffffffffffffffffffffffffffffffffffffff16815260200190815260200160002060006101000a81548173ffffffffffffffffffffffffffffffffffffffff021916908373ffffffffffffffffffffffffffffffffffffffff1602179055505050565b606560009054906101000a900473ffffffffffffffffffffffffffffffffffffffff1681565b606f60009054906101000a900473ffffffffffffffffffffffffffffffffffffffff1673ffffffffffffffffffffffffffffffffffffffff16639f8a13d7826040518263ffffffff1660e01b8152600401611ec3919061467c565b602060405180830381865afa158015611ee0573d6000803e3d6000fd5b505050506040513d601f19601f82011682018060405250810190611f049190614e9c565b611f4557806040517f5a081584000000000000000000000000000000000000000000000000000000008152600401611f3c919061467c565b60405180910390fd5b6000611f508361102b565b905060008114611f9757826040517f1eeadf53000000000000000000000000000000000000000000000000000000008152600401611f8e919061467c565b60405180910390fd5b6000606760009054906101000a900473ffffffffffffffffffffffffffffffffffffffff1673ffffffffffffffffffffffffffffffffffffffff16635fd5c95e856040518263ffffffff1660e01b8152600401611ff4919061467c565b602060405180830381865afa158015612011573d6000803e3d6000fd5b505050506040513d601f19601f820116820180604052508101906120359190614b33565b9050600081141561207d57836040517fad1e775e000000000000000000000000000000000000000000000000000000008152600401612074919061467c565b60405180910390fd5b60006120888461102b565b905060008114156120d057836040517fb9183a080000000000000000000000000000000000000000000000000000000081526004016120c7919061467c565b60405180910390fd5b60006120db86613147565b905082811061212157856040517f1eeadf53000000000000000000000000000000000000000000000000000000008152600401612118919061467c565b60405180910390fd5b600061213882856121329190614f48565b846138e8565b9050612145878783613901565b50505050505050565b6000603360009054906101000a900473ffffffffffffffffffffffffffffffffffffffff16905090565b6000806000606e60009054906101000a900473ffffffffffffffffffffffffffffffffffffffff1673ffffffffffffffffffffffffffffffffffffffff16632e8ebaae856040518263ffffffff1660e01b81526004016121d8919061467c565b602060405180830381865afa1580156121f5573d6000803e3d6000fd5b505050506040513d601f19601f820116820180604052508101906122199190614e9c565b90506000606f60009054906101000a900473ffffffffffffffffffffffffffffffffffffffff1673ffffffffffffffffffffffffffffffffffffffff16639f8a13d7866040518263ffffffff1660e01b8152600401612278919061467c565b602060405180830381865afa158015612295573d6000803e3d6000fd5b505050506040513d601f19601f820116820180604052508101906122b99190614e9c565b9050606760009054906101000a900473ffffffffffffffffffffffffffffffffffffffff1673ffffffffffffffffffffffffffffffffffffffff1663acd201d0866040518263ffffffff1660e01b8152600401612316919061467c565b602060405180830381865afa158015612333573d6000803e3d6000fd5b505050506040513d601f19601f820116820180604052508101906123579190614b33565b92506000808315612417576000606e60009054906101000a900473ffffffffffffffffffffffffffffffffffffffff1673ffffffffffffffffffffffffffffffffffffffff16631832dea3896040518263ffffffff1660e01b81526004016123bf919061467c565b6040805180830381865afa1580156123db573d6000803e3d6000fd5b505050506040513d601f19601f820116820180604052508101906123ff9190615192565b809250819450505080836124139190614f48565b9250505b82156124bc57606f60009054906101000a900473ffffffffffffffffffffffffffffffffffffffff1673ffffffffffffffffffffffffffffffffffffffff166385a92cb7886040518263ffffffff1660e01b8152600401612478919061467c565b602060405180830381865afa158015612495573d6000803e3d6000fd5b505050506040513d601f19601f820116820180604052508101906124b99190614b33565b90505b6124d081836124cb9190614ef2565b61077c565b955050505050915091565b606d60009054906101000a900473ffffffffffffffffffffffffffffffffffffffff1681565b6000606c60009054906101000a900473ffffffffffffffffffffffffffffffffffffffff16905060008060008373ffffffffffffffffffffffffffffffffffffffff1663c40da15c33886040518363ffffffff1660e01b8152600401612568929190614f7c565b6060604051808303816000875af1158015612587573d6000803e3d6000fd5b505050506040513d601f19601f820116820180604052508101906125ab91906151d2565b925092509250606760009054906101000a900473ffffffffffffffffffffffffffffffffffffffff1673ffffffffffffffffffffffffffffffffffffffff16632edfd12e87878686866040518663ffffffff1660e01b8152600401612614959493929190615225565b600060405180830381600087803b15801561262e57600080fd5b505af1158015612642573d6000803e3d6000fd5b50505050505050505050565b6000606c60009054906101000a900473ffffffffffffffffffffffffffffffffffffffff1690506000806000808473ffffffffffffffffffffffffffffffffffffffff16634c23f22e338c8b8b8b6040518663ffffffff1660e01b81526004016126bc959493929190615278565b6080604051808303816000875af11580156126db573d6000803e3d6000fd5b505050506040513d601f19601f820116820180604052508101906126ff91906152cb565b9350935093509350606660009054906101000a900473ffffffffffffffffffffffffffffffffffffffff1673ffffffffffffffffffffffffffffffffffffffff16639caa9e2933866040518363ffffffff1660e01b8152600401612764929190614f7c565b600060405180830381600087803b15801561277e57600080fd5b505af1158015612792573d6000803e3d6000fd5b50505050606760009054906101000a900473ffffffffffffffffffffffffffffffffffffffff1673ffffffffffffffffffffffffffffffffffffffff16632edfd12e8b8b8686866040518663ffffffff1660e01b81526004016127f9959493929190615225565b600060405180830381600087803b15801561281357600080fd5b505af1158015612827573d6000803e3d6000fd5b5050505050505050505050505050565b3373ffffffffffffffffffffffffffffffffffffffff16606660009054906101000a900473ffffffffffffffffffffffffffffffffffffffff1673ffffffffffffffffffffffffffffffffffffffff16146128c957336040517f4a653c6a0000000000000000000000000000000000000000000000000000000081526004016128c0919061467c565b60405180910390fd5b6000607060008573ffffffffffffffffffffffffffffffffffffffff1673ffffffffffffffffffffffffffffffffffffffff16815260200190815260200160002060009054906101000a900473ffffffffffffffffffffffffffffffffffffffff1690506000607060008573ffffffffffffffffffffffffffffffffffffffff1673ffffffffffffffffffffffffffffffffffffffff16815260200190815260200160002060009054906101000a900473ffffffffffffffffffffffffffffffffffffffff16905061299c828285613bd0565b5050505050565b600080606660009054906101000a900473ffffffffffffffffffffffffffffffffffffffff1673ffffffffffffffffffffffffffffffffffffffff166318160ddd6040518163ffffffff1660e01b8152600401602060405180830381865afa158015612a13573d6000803e3d6000fd5b505050506040513d601f19601f82011682018060405250810190612a379190614b33565b90506000606760009054906101000a900473ffffffffffffffffffffffffffffffffffffffff1673ffffffffffffffffffffffffffffffffffffffff166301d2b6ea6040518163ffffffff1660e01b8152600401602060405180830381865afa158015612aa8573d6000803e3d6000fd5b505050506040513d601f19601f82011682018060405250810190612acc9190614b33565b90506000821480612add5750600081145b15612aec578392505050612b08565b808285612af99190614b8f565b612b039190614c18565b925050505b919050565b606660009054906101000a900473ffffffffffffffffffffffffffffffffffffffff1673ffffffffffffffffffffffffffffffffffffffff1663e37d49b8826040518263ffffffff1660e01b8152600401612b68919061467c565b600060405180830381600087803b158015612b8257600080fd5b505af1158015612b96573d6000803e3d6000fd5b5050505050565b606e60009054906101000a900473ffffffffffffffffffffffffffffffffffffffff1681565b6000612c2d607060003373ffffffffffffffffffffffffffffffffffffffff1673ffffffffffffffffffffffffffffffffffffffff16815260200190815260200160002060009054906101000a900473ffffffffffffffffffffffffffffffffffffffff16610e40565b90506000612c3a346129a3565b9050600073ffffffffffffffffffffffffffffffffffffffff168273ffffffffffffffffffffffffffffffffffffffff1614612dcc57606d60009054906101000a900473ffffffffffffffffffffffffffffffffffffffff1673ffffffffffffffffffffffffffffffffffffffff1663ac8f4425836040518263ffffffff1660e01b8152600401612ccb919061467c565b602060405180830381865afa158015612ce8573d6000803e3d6000fd5b505050506040513d601f19601f82011682018060405250810190612d0c9190614e9c565b612dcb576000606e60009054906101000a900473ffffffffffffffffffffffffffffffffffffffff1673ffffffffffffffffffffffffffffffffffffffff166304744470846040518263ffffffff1660e01b8152600401612d6d919061467c565b602060405180830381865afa158015612d8a573d6000803e3d6000fd5b505050506040513d601f19601f82011682018060405250810190612dae9190614b33565b905060008114612dc557612dc483600083613076565b5b60009250505b5b606080612dda348486613c30565b8092508193505050606660009054906101000a900473ffffffffffffffffffffffffffffffffffffffff1673ffffffffffffffffffffffffffffffffffffffff166340c10f1933856040518363ffffffff1660e01b8152600401612e3f929190614f7c565b600060405180830381600087803b158015612e5957600080fd5b505af1158015612e6d573d6000803e3d6000fd5b50505050606760009054906101000a900473ffffffffffffffffffffffffffffffffffffffff1673ffffffffffffffffffffffffffffffffffffffff166301c21d593484846040518463ffffffff1660e01b8152600401612ecf929190615465565b6000604051808303818588803b158015612ee857600080fd5b505af1158015612efc573d6000803e3d6000fd5b505050505050505050565b606c60009054906101000a900473ffffffffffffffffffffffffffffffffffffffff1681565b612f3561306e565b73ffffffffffffffffffffffffffffffffffffffff16612f5361214e565b73ffffffffffffffffffffffffffffffffffffffff1614612fa9576040517f08c379a0000000000000000000000000000000000000000000000000000000008152600401612fa090614e44565b60405180910390fd5b600073ffffffffffffffffffffffffffffffffffffffff168173ffffffffffffffffffffffffffffffffffffffff161415613019576040517f08c379a00000000000000000000000000000000000000000000000000000000081526004016130109061550e565b60405180910390fd5b61302281613711565b50565b606f60009054906101000a900473ffffffffffffffffffffffffffffffffffffffff1681565b6000808273ffffffffffffffffffffffffffffffffffffffff163b119050919050565b600033905090565b60608061308583866001613dd5565b80925081935050506060806130a361309c8661077c565b8688613c30565b8092508193505050606760009054906101000a900473ffffffffffffffffffffffffffffffffffffffff1673ffffffffffffffffffffffffffffffffffffffff1663f380ade3858585856040518563ffffffff1660e01b815260040161310c949392919061552e565b600060405180830381600087803b15801561312657600080fd5b505af115801561313a573d6000803e3d6000fd5b5050505050505050505050565b60008061315261327b565b73ffffffffffffffffffffffffffffffffffffffff16632c3b7916846040518263ffffffff1660e01b815260040161318a919061467c565b602060405180830381865afa1580156131a7573d6000803e3d6000fd5b505050506040513d601f19601f820116820180604052508101906131cb9190614b33565b905060006131d761327b565b73ffffffffffffffffffffffffffffffffffffffff1663dedafeae856040518263ffffffff1660e01b815260040161320f919061467c565b602060405180830381865afa15801561322c573d6000803e3d6000fd5b505050506040513d601f19601f820116820180604052508101906132509190614b33565b90508082101561326557600092505050613276565b80826132719190614f48565b925050505b919050565b6000606560009054906101000a900473ffffffffffffffffffffffffffffffffffffffff1673ffffffffffffffffffffffffffffffffffffffff1663dcf0aaed6040516020016132ca906155e6565b604051602081830303815290604052805190602001206040518263ffffffff1660e01b81526004016132fc9190615614565b602060405180830381865afa158015613319573d6000803e3d6000fd5b505050506040513d601f19601f8201168201806040525081019061333d9190615644565b905090565b60006133ac607060008473ffffffffffffffffffffffffffffffffffffffff1673ffffffffffffffffffffffffffffffffffffffff16815260200190815260200160002060009054906101000a900473ffffffffffffffffffffffffffffffffffffffff16610e40565b90506000806133bd85846000613dd5565b91509150606760009054906101000a900473ffffffffffffffffffffffffffffffffffffffff1673ffffffffffffffffffffffffffffffffffffffff16632f842a1a8584846040518463ffffffff1660e01b815260040161342093929190615671565b600060405180830381600087803b15801561343a57600080fd5b505af115801561344e573d6000803e3d6000fd5b505050505050505050565b60006134877f360894a13ba1a3210667c828492db98dca3e2076cc3735a920a3ca505d382bbc60001b614080565b60000160009054906101000a900473ffffffffffffffffffffffffffffffffffffffff16905090565b6134b861306e565b73ffffffffffffffffffffffffffffffffffffffff166134d661214e565b73ffffffffffffffffffffffffffffffffffffffff161461352c576040517f08c379a000000000000000000000000000000000000000000000000000000000815260040161352390614e44565b60405180910390fd5b50565b6000613539613459565b90506135448461408a565b6000835111806135515750815b15613562576135608484614143565b505b60006135907f4910fdfa16fed3260ed0e7147f7cc6da11a60208b5b9406d12a635614ffd914360001b614170565b90508060000160009054906101000a900460ff166136f95760018160000160006101000a81548160ff02191690831515021790555061365c85836040516024016135da919061467c565b6040516020818303038152906040527f3659cfe6000000000000000000000000000000000000000000000000000000007bffffffffffffffffffffffffffffffffffffffffffffffffffffffff19166020820180517bffffffffffffffffffffffffffffffffffffffffffffffffffffffff8381831617835250505050614143565b5060008160000160006101000a81548160ff021916908315150217905550613682613459565b73ffffffffffffffffffffffffffffffffffffffff168273ffffffffffffffffffffffffffffffffffffffff16146136ef576040517f08c379a00000000000000000000000000000000000000000000000000000000081526004016136e690615728565b60405180910390fd5b6136f88561417a565b5b5050505050565b600061370b3061304b565b15905090565b6000603360009054906101000a900473ffffffffffffffffffffffffffffffffffffffff16905081603360006101000a81548173ffffffffffffffffffffffffffffffffffffffff021916908373ffffffffffffffffffffffffffffffffffffffff1602179055508173ffffffffffffffffffffffffffffffffffffffff168173ffffffffffffffffffffffffffffffffffffffff167f8be0079c531659141344cd1fd0a4f28419497f9722a3daafe3b4186f6b6457e060405160405180910390a35050565b600060019054906101000a900460ff16613826576040517f08c379a000000000000000000000000000000000000000000000000000000000815260040161381d906157ba565b60405180910390fd5b600073ffffffffffffffffffffffffffffffffffffffff168173ffffffffffffffffffffffffffffffffffffffff1614156138a35761ce10606560006101000a81548173ffffffffffffffffffffffffffffffffffffffff021916908373ffffffffffffffffffffffffffffffffffffffff1602179055506138e5565b80606560006101000a81548173ffffffffffffffffffffffffffffffffffffffff021916908373ffffffffffffffffffffffffffffffffffffffff1602179055505b50565b60008183106138f757816138f9565b825b905092915050565b6000600167ffffffffffffffff81111561391e5761391d614740565b5b60405190808252806020026020018201604052801561394c5781602001602082028036833780820191505090505b5090506000600167ffffffffffffffff81111561396c5761396b614740565b5b60405190808252806020026020018201604052801561399a5781602001602082028036833780820191505090505b5090506000600167ffffffffffffffff8111156139ba576139b9614740565b5b6040519080825280602002602001820160405280156139e85781602001602082028036833780820191505090505b5090506000600167ffffffffffffffff811115613a0857613a07614740565b5b604051908082528060200260200182016040528015613a365781602001602082028036833780820191505090505b5090508684600081518110613a4e57613a4d6157da565b5b602002602001019073ffffffffffffffffffffffffffffffffffffffff16908173ffffffffffffffffffffffffffffffffffffffff16815250508482600081518110613a9d57613a9c6157da565b5b6020026020010181815250508583600081518110613abe57613abd6157da565b5b602002602001019073ffffffffffffffffffffffffffffffffffffffff16908173ffffffffffffffffffffffffffffffffffffffff168152505081600081518110613b0c57613b0b6157da565b5b602002602001015181600081518110613b2857613b276157da565b5b602002602001018181525050606760009054906101000a900473ffffffffffffffffffffffffffffffffffffffff1673ffffffffffffffffffffffffffffffffffffffff1663f380ade3858486856040518563ffffffff1660e01b8152600401613b95949392919061552e565b600060405180830381600087803b158015613baf57600080fd5b505af1158015613bc3573d6000803e3d6000fd5b5050505050505050505050565b613bd983610e40565b9250613be482610e40565b91508173ffffffffffffffffffffffffffffffffffffffff168373ffffffffffffffffffffffffffffffffffffffff161415613c1f57613c2b565b613c2a838383613076565b5b505050565b606080600073ffffffffffffffffffffffffffffffffffffffff168373ffffffffffffffffffffffffffffffffffffffff1614613d1b57606e60009054906101000a900473ffffffffffffffffffffffffffffffffffffffff1673ffffffffffffffffffffffffffffffffffffffff16630ea044d88487876040518463ffffffff1660e01b8152600401613cc69392919061515b565b6000604051808303816000875af1158015613ce5573d6000803e3d6000fd5b505050506040513d6000823e3d601f19601f82011682018060405250810190613d0e919061598f565b8092508193505050613dcd565b606f60009054906101000a900473ffffffffffffffffffffffffffffffffffffffff1673ffffffffffffffffffffffffffffffffffffffff166320e92e5960008760006040518463ffffffff1660e01b8152600401613d7c93929190615a16565b6000604051808303816000875af1158015613d9b573d6000803e3d6000fd5b505050506040513d6000823e3d601f19601f82011682018060405250810190613dc4919061598f565b80925081935050505b935093915050565b6060806000613de38661077c565b90506000811415613e20576040517fc60050c000000000000000000000000000000000000000000000000000000000815260040160405180910390fd5b606080600073ffffffffffffffffffffffffffffffffffffffff168773ffffffffffffffffffffffffffffffffffffffff1614613fbd5785613f0857606e60009054906101000a900473ffffffffffffffffffffffffffffffffffffffff1673ffffffffffffffffffffffffffffffffffffffff1663bc72f7ec88858b6040518463ffffffff1660e01b8152600401613ebb9392919061515b565b6000604051808303816000875af1158015613eda573d6000803e3d6000fd5b505050506040513d6000823e3d601f19601f82011682018060405250810190613f03919061598f565b613fb0565b606e60009054906101000a900473ffffffffffffffffffffffffffffffffffffffff1673ffffffffffffffffffffffffffffffffffffffff16639d709ca088858b6040518463ffffffff1660e01b8152600401613f679392919061515b565b6000604051808303816000875af1158015613f86573d6000803e3d6000fd5b505050506040513d6000823e3d601f19601f82011682018060405250810190613faf919061598f565b5b809250819350505061406f565b606f60009054906101000a900473ffffffffffffffffffffffffffffffffffffffff1673ffffffffffffffffffffffffffffffffffffffff166320e92e5960018560006040518463ffffffff1660e01b815260040161401e93929190615a16565b6000604051808303816000875af115801561403d573d6000803e3d6000fd5b505050506040513d6000823e3d601f19601f82011682018060405250810190614066919061598f565b80925081935050505b818194509450505050935093915050565b6000819050919050565b614093816141c9565b6140d2576040517f08c379a00000000000000000000000000000000000000000000000000000000081526004016140c990615abf565b60405180910390fd5b806140ff7f360894a13ba1a3210667c828492db98dca3e2076cc3735a920a3ca505d382bbc60001b614080565b60000160006101000a81548173ffffffffffffffffffffffffffffffffffffffff021916908373ffffffffffffffffffffffffffffffffffffffff16021790555050565b60606141688383604051806060016040528060278152602001615c69602791396141dc565b905092915050565b6000819050919050565b6141838161408a565b8073ffffffffffffffffffffffffffffffffffffffff167fbc7cd75a20ee27fd9adebab32041f755214dbc6bffa90cc0225b39da2e5c2d3b60405160405180910390a250565b600080823b905060008111915050919050565b60606141e7846141c9565b614226576040517f08c379a000000000000000000000000000000000000000000000000000000000815260040161421d90615b51565b60405180910390fd5b6000808573ffffffffffffffffffffffffffffffffffffffff168560405161424e9190615beb565b600060405180830381855af49150503d8060008114614289576040519150601f19603f3d011682016040523d82523d6000602084013e61428e565b606091505b509150915061429e8282866142a9565b925050509392505050565b606083156142b957829050614309565b6000835111156142cc5782518084602001fd5b816040517f08c379a00000000000000000000000000000000000000000000000000000000081526004016143009190615c46565b60405180910390fd5b9392505050565b6000604051905090565b600080fd5b600080fd5b6000819050919050565b61433781614324565b811461434257600080fd5b50565b6000813590506143548161432e565b92915050565b6000602082840312156143705761436f61431a565b5b600061437e84828501614345565b91505092915050565b61439081614324565b82525050565b60006020820190506143ab6000830184614387565b92915050565b600080fd5b600080fd5b600080fd5b60008083601f8401126143d6576143d56143b1565b5b8235905067ffffffffffffffff8111156143f3576143f26143b6565b5b60208301915083602082028301111561440f5761440e6143bb565b5b9250929050565b60008083601f84011261442c5761442b6143b1565b5b8235905067ffffffffffffffff811115614449576144486143b6565b5b602083019150836020820283011115614465576144646143bb565b5b9250929050565b6000806000806000806000806080898b03121561448c5761448b61431a565b5b600089013567ffffffffffffffff8111156144aa576144a961431f565b5b6144b68b828c016143c0565b9850985050602089013567ffffffffffffffff8111156144d9576144d861431f565b5b6144e58b828c016143c0565b9650965050604089013567ffffffffffffffff8111156145085761450761431f565b5b6145148b828c01614416565b9450945050606089013567ffffffffffffffff8111156145375761453661431f565b5b6145438b828c01614416565b92509250509295985092959890939650565b600073ffffffffffffffffffffffffffffffffffffffff82169050919050565b600061458082614555565b9050919050565b61459081614575565b811461459b57600080fd5b50565b6000813590506145ad81614587565b92915050565b60008060008060008060c087890312156145d0576145cf61431a565b5b60006145de89828a0161459e565b96505060206145ef89828a0161459e565b955050604061460089828a0161459e565b945050606061461189828a0161459e565b935050608061462289828a0161459e565b92505060a061463389828a0161459e565b9150509295509295509295565b6000602082840312156146565761465561431a565b5b60006146648482850161459e565b91505092915050565b61467681614575565b82525050565b6000602082019050614691600083018461466d565b92915050565b6000806000606084860312156146b0576146af61431a565b5b60006146be8682870161459e565b93505060206146cf8682870161459e565b92505060406146e086828701614345565b9150509250925092565b600080604083850312156147015761470061431a565b5b600061470f8582860161459e565b92505060206147208582860161459e565b9150509250929050565b600080fd5b6000601f19601f8301169050919050565b7f4e487b7100000000000000000000000000000000000000000000000000000000600052604160045260246000fd5b6147788261472f565b810181811067ffffffffffffffff8211171561479757614796614740565b5b80604052505050565b60006147aa614310565b90506147b6828261476f565b919050565b600067ffffffffffffffff8211156147d6576147d5614740565b5b6147df8261472f565b9050602081019050919050565b82818337600083830152505050565b600061480e614809846147bb565b6147a0565b90508281526020810184848401111561482a5761482961472a565b5b6148358482856147ec565b509392505050565b600082601f830112614852576148516143b1565b5b81356148628482602086016147fb565b91505092915050565b600080604083850312156148825761488161431a565b5b60006148908582860161459e565b925050602083013567ffffffffffffffff8111156148b1576148b061431f565b5b6148bd8582860161483d565b9150509250929050565b60006080820190506148dc6000830187614387565b6148e96020830186614387565b6148f66040830185614387565b6149036060830184614387565b95945050505050565b6000819050919050565b600061493161492c61492784614555565b61490c565b614555565b9050919050565b600061494382614916565b9050919050565b600061495582614938565b9050919050565b6149658161494a565b82525050565b6000602082019050614980600083018461495c565b92915050565b600060408201905061499b6000830185614387565b6149a86020830184614387565b9392505050565b60006149ba82614938565b9050919050565b6149ca816149af565b82525050565b60006020820190506149e560008301846149c1565b92915050565b60008060408385031215614a0257614a0161431a565b5b6000614a1085828601614345565b9250506020614a2185828601614345565b9150509250929050565b600080600080600060a08688031215614a4757614a4661431a565b5b6000614a5588828901614345565b9550506020614a6688828901614345565b9450506040614a7788828901614345565b9350506060614a8888828901614345565b9250506080614a9988828901614345565b9150509295509295909350565b6000614ab182614938565b9050919050565b614ac181614aa6565b82525050565b6000602082019050614adc6000830184614ab8565b92915050565b6000614aed82614938565b9050919050565b614afd81614ae2565b82525050565b6000602082019050614b186000830184614af4565b92915050565b600081519050614b2d8161432e565b92915050565b600060208284031215614b4957614b4861431a565b5b6000614b5784828501614b1e565b91505092915050565b7f4e487b7100000000000000000000000000000000000000000000000000000000600052601160045260246000fd5b6000614b9a82614324565b9150614ba583614324565b9250817fffffffffffffffffffffffffffffffffffffffffffffffffffffffffffffffff0483118215151615614bde57614bdd614b60565b5b828202905092915050565b7f4e487b7100000000000000000000000000000000000000000000000000000000600052601260045260246000fd5b6000614c2382614324565b9150614c2e83614324565b925082614c3e57614c3d614be9565b5b828204905092915050565b600082825260208201905092915050565b6000819050919050565b614c6d81614575565b82525050565b6000614c7f8383614c64565b60208301905092915050565b6000614c9a602084018461459e565b905092915050565b6000602082019050919050565b6000614cbb8385614c49565b9350614cc682614c5a565b8060005b85811015614cff57614cdc8284614c8b565b614ce68882614c73565b9750614cf183614ca2565b925050600181019050614cca565b5085925050509392505050565b600082825260208201905092915050565b600080fd5b6000614d2e8385614d0c565b93507f07ffffffffffffffffffffffffffffffffffffffffffffffffffffffffffffff831115614d6157614d60614d1d565b5b602083029250614d728385846147ec565b82840190509392505050565b60006080820190508181036000830152614d99818a8c614caf565b90508181036020830152614dae81888a614d22565b90508181036040830152614dc3818688614caf565b90508181036060830152614dd8818486614d22565b90509998505050505050505050565b600082825260208201905092915050565b7f4f776e61626c653a2063616c6c6572206973206e6f7420746865206f776e6572600082015250565b6000614e2e602083614de7565b9150614e3982614df8565b602082019050919050565b60006020820190508181036000830152614e5d81614e21565b9050919050565b60008115159050919050565b614e7981614e64565b8114614e8457600080fd5b50565b600081519050614e9681614e70565b92915050565b600060208284031215614eb257614eb161431a565b5b6000614ec084828501614e87565b91505092915050565b6000604082019050614ede600083018561466d565b614eeb602083018461466d565b9392505050565b6000614efd82614324565b9150614f0883614324565b9250827fffffffffffffffffffffffffffffffffffffffffffffffffffffffffffffffff03821115614f3d57614f3c614b60565b5b828201905092915050565b6000614f5382614324565b9150614f5e83614324565b925082821015614f7157614f70614b60565b5b828203905092915050565b6000604082019050614f91600083018561466d565b614f9e6020830184614387565b9392505050565b7f46756e6374696f6e206d7573742062652063616c6c6564207468726f7567682060008201527f64656c656761746563616c6c0000000000000000000000000000000000000000602082015250565b6000615001602c83614de7565b915061500c82614fa5565b604082019050919050565b6000602082019050818103600083015261503081614ff4565b9050919050565b7f46756e6374696f6e206d7573742062652063616c6c6564207468726f7567682060008201527f6163746976652070726f78790000000000000000000000000000000000000000602082015250565b6000615093602c83614de7565b915061509e82615037565b604082019050919050565b600060208201905081810360008301526150c281615086565b9050919050565b7f496e697469616c697a61626c653a20636f6e747261637420697320616c72656160008201527f647920696e697469616c697a6564000000000000000000000000000000000000602082015250565b6000615125602e83614de7565b9150615130826150c9565b604082019050919050565b6000602082019050818103600083015261515481615118565b9050919050565b6000606082019050615170600083018661466d565b61517d6020830185614387565b61518a6040830184614387565b949350505050565b600080604083850312156151a9576151a861431a565b5b60006151b785828601614b1e565b92505060206151c885828601614b1e565b9150509250929050565b6000806000606084860312156151eb576151ea61431a565b5b60006151f986828701614b1e565b935050602061520a86828701614b1e565b925050604061521b86828701614b1e565b9150509250925092565b600060a08201905061523a6000830188614387565b6152476020830187614387565b6152546040830186614387565b6152616060830185614387565b61526e6080830184614387565b9695505050505050565b600060a08201905061528d600083018861466d565b61529a6020830187614387565b6152a76040830186614387565b6152b46060830185614387565b6152c16080830184614387565b9695505050505050565b600080600080608085870312156152e5576152e461431a565b5b60006152f387828801614b1e565b945050602061530487828801614b1e565b935050604061531587828801614b1e565b925050606061532687828801614b1e565b91505092959194509250565b600081519050919050565b6000819050602082019050919050565b6000602082019050919050565b600061536582615332565b61536f8185614c49565b935061537a8361533d565b8060005b838110156153ab5781516153928882614c73565b975061539d8361534d565b92505060018101905061537e565b5085935050505092915050565b600081519050919050565b6000819050602082019050919050565b6153dc81614324565b82525050565b60006153ee83836153d3565b60208301905092915050565b6000602082019050919050565b6000615412826153b8565b61541c8185614d0c565b9350615427836153c3565b8060005b8381101561545857815161543f88826153e2565b975061544a836153fa565b92505060018101905061542b565b5085935050505092915050565b6000604082019050818103600083015261547f818561535a565b905081810360208301526154938184615407565b90509392505050565b7f4f776e61626c653a206e6577206f776e657220697320746865207a65726f206160008201527f6464726573730000000000000000000000000000000000000000000000000000602082015250565b60006154f8602683614de7565b91506155038261549c565b604082019050919050565b60006020820190508181036000830152615527816154eb565b9050919050565b60006080820190508181036000830152615548818761535a565b9050818103602083015261555c8186615407565b90508181036040830152615570818561535a565b905081810360608301526155848184615407565b905095945050505050565b600081905092915050565b7f456c656374696f6e000000000000000000000000000000000000000000000000600082015250565b60006155d060088361558f565b91506155db8261559a565b600882019050919050565b60006155f1826155c3565b9150819050919050565b6000819050919050565b61560e816155fb565b82525050565b60006020820190506156296000830184615605565b92915050565b60008151905061563e81614587565b92915050565b60006020828403121561565a5761565961431a565b5b60006156688482850161562f565b91505092915050565b6000606082019050615686600083018661466d565b8181036020830152615698818561535a565b905081810360408301526156ac8184615407565b9050949350505050565b7f45524331393637557067726164653a207570677261646520627265616b73206660008201527f7572746865722075706772616465730000000000000000000000000000000000602082015250565b6000615712602f83614de7565b915061571d826156b6565b604082019050919050565b6000602082019050818103600083015261574181615705565b9050919050565b7f496e697469616c697a61626c653a20636f6e7472616374206973206e6f74206960008201527f6e697469616c697a696e67000000000000000000000000000000000000000000602082015250565b60006157a4602b83614de7565b91506157af82615748565b604082019050919050565b600060208201905081810360008301526157d381615797565b9050919050565b7f4e487b7100000000000000000000000000000000000000000000000000000000600052603260045260246000fd5b600067ffffffffffffffff82111561582457615823614740565b5b602082029050602081019050919050565b600061584861584384615809565b6147a0565b9050808382526020820190506020840283018581111561586b5761586a6143bb565b5b835b818110156158945780615880888261562f565b84526020840193505060208101905061586d565b5050509392505050565b600082601f8301126158b3576158b26143b1565b5b81516158c3848260208601615835565b91505092915050565b600067ffffffffffffffff8211156158e7576158e6614740565b5b602082029050602081019050919050565b600061590b615906846158cc565b6147a0565b9050808382526020820190506020840283018581111561592e5761592d6143bb565b5b835b8181101561595757806159438882614b1e565b845260208401935050602081019050615930565b5050509392505050565b600082601f830112615976576159756143b1565b5b81516159868482602086016158f8565b91505092915050565b600080604083850312156159a6576159a561431a565b5b600083015167ffffffffffffffff8111156159c4576159c361431f565b5b6159d08582860161589e565b925050602083015167ffffffffffffffff8111156159f1576159f061431f565b5b6159fd85828601615961565b9150509250929050565b615a1081614e64565b82525050565b6000606082019050615a2b6000830186615a07565b615a386020830185614387565b615a45604083018461466d565b949350505050565b7f455243313936373a206e657720696d706c656d656e746174696f6e206973206e60008201527f6f74206120636f6e747261637400000000000000000000000000000000000000602082015250565b6000615aa9602d83614de7565b9150615ab482615a4d565b604082019050919050565b60006020820190508181036000830152615ad881615a9c565b9050919050565b7f416464726573733a2064656c65676174652063616c6c20746f206e6f6e2d636f60008201527f6e74726163740000000000000000000000000000000000000000000000000000602082015250565b6000615b3b602683614de7565b9150615b4682615adf565b604082019050919050565b60006020820190508181036000830152615b6a81615b2e565b9050919050565b600081519050919050565b600081905092915050565b60005b83811015615ba5578082015181840152602081019050615b8a565b83811115615bb4576000848401525b50505050565b6000615bc582615b71565b615bcf8185615b7c565b9350615bdf818560208601615b87565b80840191505092915050565b6000615bf78284615bba565b915081905092915050565b600081519050919050565b6000615c1882615c02565b615c228185614de7565b9350615c32818560208601615b87565b615c3b8161472f565b840191505092915050565b60006020820190508181036000830152615c608184615c0d565b90509291505056fe416464726573733a206c6f772d6c6576656c2064656c65676174652063616c6c206661696c6564a2646970667358221220b452475c7e113b0cf823c987214c48f64866b89576fc98809f25bb679b9e0c8464736f6c634300080b0033",
  "devdoc": {
    "errors": {
      "CallerNotStakedCelo(address)": [
        {
          "params": {
            "caller": "`msg.sender` that called the function."
          }
        }
      ],
      "CallerNotStrategy(address)": [
        {
          "params": {
            "caller": "`msg.sender` that called the function."
          }
        }
      ],
      "FromGroupNotOverflowing(address)": [
        {
          "params": {
            "group": "The group's address."
          }
        }
      ],
      "GroupNotEligible(address)": [
        {
          "params": {
            "group": "The group's address."
          }
        }
      ],
      "InvalidFromGroup(address)": [
        {
          "params": {
            "group": "The group's address."
          }
        }
      ],
      "InvalidToGroup(address)": [
        {
          "params": {
            "group": "The group's address."
          }
        }
      ],
      "NoScheduledVotes(address)": [
        {
          "params": {
            "group": "The group's address."
          }
        }
      ],
      "RebalanceEnoughCelo(address,uint256,uint256)": [
        {
          "params": {
            "actualCelo": "The actual CELO value.",
            "expectedCelo": "The expected CELO value.",
            "group": "The group's address."
          }
        }
      ],
      "RebalanceNoExtraCelo(address,uint256,uint256)": [
        {
          "params": {
            "actualCelo": "The actual CELO value.",
            "expectedCelo": "The expected CELO value.",
            "group": "The group's address."
          }
        }
      ],
      "ToGroupOverflowing(address)": [
        {
          "params": {
            "group": "The group's address."
          }
        }
      ]
    },
    "events": {
      "VoteContractSet(address)": {
        "params": {
          "voteContract": "The new vote contract address."
        }
      }
    },
    "kind": "dev",
    "methods": {
      "changeStrategy(address)": {
        "params": {
          "newStrategy": "The from account."
        }
      },
      "checkStrategy(address)": {
        "params": {
          "strategy": "The strategy."
        },
        "returns": {
          "_0": "Up to date strategy."
        }
      },
      "getAddressStrategy(address)": {
        "params": {
          "accountAddress": "The account address."
        },
        "returns": {
          "_0": "The strategy."
        }
      },
      "getExpectedAndActualCeloForGroup(address)": {
        "params": {
          "group": "The group."
        },
        "returns": {
          "actualCelo": "The CELO which group has.",
          "expectedCelo": "The CELO which group should have."
        }
      },
      "getReceivableVotesForGroup(address)": {
        "params": {
          "group": "The group that can receive votes."
        },
        "returns": {
          "_0": "The amount of CELO that can be received by group though stCELO protocol."
        }
      },
      "getVersionNumber()": {
        "returns": {
          "_0": "Storage version of the contract.",
          "_1": "Major version of the contract.",
          "_2": "Minor version of the contract.",
          "_3": "Patch version of the contract."
        }
      },
      "initialize(address,address)": {
        "params": {
          "_owner": "The address of the contract owner.",
          "_registry": "The address of the Celo Registry."
        }
      },
      "owner()": {
        "details": "Returns the address of the current owner."
      },
      "rebalance(address,address)": {
        "params": {
          "fromGroup": "The from group.",
          "toGroup": "The to group."
        }
      },
      "rebalanceOverflow(address,address)": {
        "params": {
          "fromGroup": "The group to unschedule votes from.",
          "toGroup": "The group to schedule votes to."
        }
      },
      "renounceOwnership()": {
        "details": "Leaves the contract without owner. It will not be possible to call `onlyOwner` functions anymore. Can only be called by the current owner. NOTE: Renouncing ownership will leave the contract without an owner, thereby removing any functionality that is only available to the owner."
      },
      "revokeVotes(uint256,uint256)": {
        "params": {
          "index": "The index of the proposal ID in `dequeued`.",
          "proposalId": "The ID of the proposal to revoke from."
        }
      },
      "scheduleTransferWithinStrategy(address[],address[],uint256[],uint256[])": {
        "params": {
          "fromGroups": "The groups the deposited CELO is intended to be revoked from.",
          "fromVotes": "The amount of CELO scheduled to be revoked from each respective group.",
          "toGroups": "The groups the transferred CELO is intended to vote for.",
          "toVotes": "The amount of CELO to schedule for each respective `toGroups`."
        }
      },
      "setDependencies(address,address,address,address,address,address)": {
        "details": "The StakedCelo contracts all reference each other so we need a way of setting these after all contracts are deployed and initialized.",
        "params": {
          "_account": "The address of the Account contract.",
          "_defaultStrategy": "The address of the DefaultStrategy contract.",
          "_groupHealth": "The address of the GroupHealth contract.",
          "_specificGroupStrategy": "The address of the SpecificGroupStrategy contract.",
          "_stakedCelo": "the address of the StakedCelo contract.",
          "_vote": "The address of the Vote contract."
        }
      },
      "toCelo(uint256)": {
        "params": {
          "stCeloAmount": "The amount of stCELO burned."
        },
        "returns": {
          "_0": "The amount of CELO that should be withdrawn."
        }
      },
      "toStakedCelo(uint256)": {
        "params": {
          "celoAmount": "The amount of CELO deposited."
        },
        "returns": {
          "_0": "The amount of stCELO that should be minted."
        }
      },
      "transfer(address,address,uint256)": {
        "params": {
          "from": "The from account.",
          "stCeloAmount": "The stCELO amount.",
          "to": "The to account."
        }
      },
      "transferBetweenStrategies(address,address,uint256)": {
        "params": {
          "fromStrategy": "The from strategy.",
          "stCeloAmount": "The stCELO amount.",
          "toStrategy": "The to strategy."
        }
      },
      "transferOwnership(address)": {
        "details": "Transfers ownership of the contract to a new account (`newOwner`). Can only be called by the current owner."
      },
      "unlockBalance(address)": {
        "params": {
          "accountAddress": "The account to be unlocked."
        }
      },
      "updateHistoryAndReturnLockedStCeloInVoting(address)": {
        "params": {
          "beneficiary": "The address to be unlocked."
        }
      },
      "upgradeTo(address)": {
        "details": "Upgrade the implementation of the proxy to `newImplementation`. Calls {_authorizeUpgrade}. Emits an {Upgraded} event."
      },
      "upgradeToAndCall(address,bytes)": {
        "details": "Upgrade the implementation of the proxy to `newImplementation`, and subsequently execute the function call encoded in `data`. Calls {_authorizeUpgrade}. Emits an {Upgraded} event."
      },
      "voteProposal(uint256,uint256,uint256,uint256,uint256)": {
        "params": {
          "abstainVotes": "The abstain votes weight.",
          "index": "The index of the proposal ID in `dequeued`.",
          "noVotes": "The no votes weight.",
          "proposalId": "The ID of the proposal to vote on.",
          "yesVotes": "The yes votes weight."
        }
      },
      "withdraw(uint256)": {
        "details": "Calculates the CELO amount based on the ratio of outstanding stCELO and the total amount of CELO owned and used for voting by Account. See `toCelo`.The funds need to be withdrawn using calls to `Account.withdraw` and `Account.finishPendingWithdrawal`.",
        "params": {
          "stakedCeloAmount": "The amount of stCELO to burn."
        }
      }
    },
    "title": "Manages the StakedCelo system, by controlling the minting and burning of stCELO and implementing strategies for voting and unvoting of deposited or withdrawn CELO.",
    "version": 1
  },
  "userdoc": {
    "errors": {
      "AddressZeroNotAllowed()": [
        {
          "notice": "Used when attempting to pass in address zero where not allowed."
        }
      ],
      "CallerNotStakedCelo(address)": [
        {
          "notice": "Used when an `onlyStCelo` function is called by a non-stCELO contract."
        }
      ],
      "CallerNotStrategy(address)": [
        {
          "notice": "Used when an `onlyStrategy` function is called by a non-strategy contract."
        }
      ],
      "FromGroupNotOverflowing(address)": [
        {
          "notice": "Used when trying to overflow rebalance group that is not overflowing."
        }
      ],
      "GroupNotEligible(address)": [
        {
          "notice": "Used when a group does not meet the validator group health requirements."
        }
      ],
      "InvalidFromGroup(address)": [
        {
          "notice": "Used when rebalancing from address(0) group."
        }
      ],
      "InvalidToGroup(address)": [
        {
          "notice": "Used when rebalancing to non-active nor specific group."
        }
      ],
      "NoScheduledVotes(address)": [
        {
          "notice": "Used when trying to rebalance group that has no scheduled votes."
        }
      ],
      "RebalanceEnoughCelo(address,uint256,uint256)": [
        {
          "notice": "Used when rebalancing and toGroup has enough CELO."
        }
      ],
      "RebalanceNoExtraCelo(address,uint256,uint256)": [
        {
          "notice": "Used when rebalancing and fromGroup doesn't have any extra CELO."
        }
      ],
      "ToGroupOverflowing(address)": [
        {
          "notice": "Used when trying to rebalance to a group that is overflowing."
        }
      ],
      "ZeroWithdrawal()": [
        {
          "notice": "Used when attempting to withdraw 0 value."
        }
      ]
    },
    "events": {
      "VoteContractSet(address)": {
        "notice": "Emitted when the vote contract is initially set or later modified."
      }
    },
    "kind": "user",
    "methods": {
      "changeStrategy(address)": {
        "notice": "Allows account to change strategy. address(0) = default strategy !address(0) = voting for allowed validator group. Group needs to be in allowed"
      },
      "checkStrategy(address)": {
        "notice": "Checks if strategy is valid. Blocked strategy is reverted to default."
      },
      "constructor": {
        "notice": "Empty constructor for proxy implementation, `initializer` modifer ensures the implementation gets initialized."
      },
      "defaultStrategy()": {
        "notice": "An instance of the DefaultStrategy contract for the StakedCelo protocol."
      },
      "deposit()": {
        "notice": "Used to deposit CELO into the StakedCelo system. The user will receive an amount of stCELO proportional to their contribution. The CELO will be scheduled to be voted for with the Account contract. The CELO will be distributed based on address strategy."
      },
      "getAddressStrategy(address)": {
        "notice": "Returns which strategy an address is using address(0) = default strategy !address(0) = voting for specific validator group. Unhealthy and blocked strategies are reverted to default."
      },
      "getExpectedAndActualCeloForGroup(address)": {
        "notice": "Returns expected CELO amount voted for by Account contract vs actual amount voted for by Account contract."
      },
      "getReceivableVotesForGroup(address)": {
        "notice": "Returns votes count that can be received by group through stCELO protocol."
      },
      "getVersionNumber()": {
        "notice": "Returns the storage, major, minor, and patch version of the contract."
      },
      "groupHealth()": {
        "notice": "An instance of the GroupHealth contract for the StakedCelo protocol."
      },
      "initialize(address,address)": {
        "notice": "Initialize the contract with registry and owner."
      },
      "rebalance(address,address)": {
        "notice": "Rebalances CELO between groups that have incorrect CELO-stCELO ratio. `fromGroup` is required to have more CELO than it should and `toGroup` needs to have less CELO than it should."
      },
      "rebalanceOverflow(address,address)": {
        "notice": "Rebalance according to CELO overflow rather than stCELO ratio. If one of the groups is overflowing and there are still some votes that are scheduled for the group, this function allows to transfer these votes to any active group in protocol that is not overflowing yet."
      },
      "registry()": {
        "notice": "The Registry."
      },
      "revokeVotes(uint256,uint256)": {
        "notice": "Revokes votes on already voted proposal."
      },
      "scheduleTransferWithinStrategy(address[],address[],uint256[],uint256[])": {
        "notice": "Allows strategy to initiate transfer without any checks. This method is supposed to be used for transfers between groups only within strategy"
      },
      "setDependencies(address,address,address,address,address,address)": {
        "notice": "Set this contract's dependencies in the StakedCelo system."
      },
      "specificGroupStrategy()": {
        "notice": "An instance of the SpecificGroupStrategy contract for the StakedCelo protocol."
      },
      "strategies(address)": {
        "notice": "address -> strategy used by an address strategy: address(0) = default strategy strategy: !address(0) = vote for the group at that address if allowed by GroupHealth.isGroupValid, otherwise vote according to the default strategy"
      },
      "toCelo(uint256)": {
        "notice": "Computes the amount of CELO that should be withdrawn for a given amount of stCELO burned."
      },
      "toStakedCelo(uint256)": {
        "notice": "Computes the amount of stCELO that should be minted for a given amount of CELO deposited."
      },
      "transfer(address,address,uint256)": {
        "notice": "Whenever stCELO is being transferd we will check whether origin and target account use same strategy. If strategy differs we will schedule votes for transfer."
      },
      "transferBetweenStrategies(address,address,uint256)": {
        "notice": "Schedules transfer of CELO between strategies."
      },
      "unlockBalance(address)": {
        "notice": "Unlock vote balance of stCELO."
      },
      "updateHistoryAndReturnLockedStCeloInVoting(address)": {
        "notice": "Unlock balance of vote stCELO and update beneficiary vote history."
      },
      "voteContract()": {
        "notice": "Contract used during Governance voting."
      },
      "voteProposal(uint256,uint256,uint256,uint256,uint256)": {
        "notice": "Votes on a proposal in the referendum stage."
      },
      "withdraw(uint256)": {
        "notice": "Used to withdraw CELO from the system, in exchange for burning stCELO."
      }
    },
    "version": 1
  },
  "storageLayout": {
    "storage": [
      {
        "astId": 130,
        "contract": "contracts/Manager.sol:Manager",
        "label": "_initialized",
        "offset": 0,
        "slot": "0",
        "type": "t_bool"
      },
      {
        "astId": 133,
        "contract": "contracts/Manager.sol:Manager",
        "label": "_initializing",
        "offset": 1,
        "slot": "0",
        "type": "t_bool"
      },
      {
        "astId": 584,
        "contract": "contracts/Manager.sol:Manager",
        "label": "__gap",
        "offset": 0,
        "slot": "1",
        "type": "t_array(t_uint256)50_storage"
      },
      {
        "astId": 10,
        "contract": "contracts/Manager.sol:Manager",
        "label": "_owner",
        "offset": 0,
        "slot": "51",
        "type": "t_address"
      },
      {
        "astId": 122,
        "contract": "contracts/Manager.sol:Manager",
        "label": "__gap",
        "offset": 0,
        "slot": "52",
        "type": "t_array(t_uint256)49_storage"
      },
      {
        "astId": 13475,
        "contract": "contracts/Manager.sol:Manager",
        "label": "registry",
        "offset": 0,
        "slot": "101",
        "type": "t_contract(IRegistry)16493"
      },
      {
        "astId": 7172,
        "contract": "contracts/Manager.sol:Manager",
        "label": "stakedCelo",
        "offset": 0,
        "slot": "102",
        "type": "t_contract(IStakedCelo)16661"
      },
      {
        "astId": 7176,
        "contract": "contracts/Manager.sol:Manager",
        "label": "account",
        "offset": 0,
        "slot": "103",
        "type": "t_contract(IAccount)15474"
      },
      {
        "astId": 7180,
        "contract": "contracts/Manager.sol:Manager",
        "label": "activeGroups",
        "offset": 0,
        "slot": "104",
        "type": "t_struct(AddressSet)3257_storage"
      },
      {
        "astId": 7184,
        "contract": "contracts/Manager.sol:Manager",
        "label": "deprecatedGroups",
        "offset": 0,
        "slot": "106",
        "type": "t_struct(AddressSet)3257_storage"
      },
      {
        "astId": 7187,
        "contract": "contracts/Manager.sol:Manager",
        "label": "voteContract",
        "offset": 0,
        "slot": "108",
        "type": "t_address"
      },
      {
        "astId": 7191,
        "contract": "contracts/Manager.sol:Manager",
        "label": "groupHealth",
        "offset": 0,
        "slot": "109",
        "type": "t_contract(IGroupHealth)16253"
      },
      {
        "astId": 7195,
        "contract": "contracts/Manager.sol:Manager",
        "label": "specificGroupStrategy",
        "offset": 0,
        "slot": "110",
        "type": "t_contract(ISpecificGroupStrategy)16593"
      },
      {
        "astId": 7199,
        "contract": "contracts/Manager.sol:Manager",
        "label": "defaultStrategy",
        "offset": 0,
        "slot": "111",
        "type": "t_contract(IDefaultStrategy)15758"
      },
      {
        "astId": 7204,
        "contract": "contracts/Manager.sol:Manager",
        "label": "strategies",
        "offset": 0,
        "slot": "112",
        "type": "t_mapping(t_address,t_address)"
      }
    ],
    "types": {
      "t_address": {
        "encoding": "inplace",
        "label": "address",
        "numberOfBytes": "20"
      },
      "t_array(t_bytes32)dyn_storage": {
        "base": "t_bytes32",
        "encoding": "dynamic_array",
        "label": "bytes32[]",
        "numberOfBytes": "32"
      },
      "t_array(t_uint256)49_storage": {
        "base": "t_uint256",
        "encoding": "inplace",
        "label": "uint256[49]",
        "numberOfBytes": "1568"
      },
      "t_array(t_uint256)50_storage": {
        "base": "t_uint256",
        "encoding": "inplace",
        "label": "uint256[50]",
        "numberOfBytes": "1600"
      },
      "t_bool": {
        "encoding": "inplace",
        "label": "bool",
        "numberOfBytes": "1"
      },
      "t_bytes32": {
        "encoding": "inplace",
        "label": "bytes32",
        "numberOfBytes": "32"
      },
      "t_contract(IAccount)15474": {
        "encoding": "inplace",
        "label": "contract IAccount",
        "numberOfBytes": "20"
      },
      "t_contract(IDefaultStrategy)15758": {
        "encoding": "inplace",
        "label": "contract IDefaultStrategy",
        "numberOfBytes": "20"
      },
      "t_contract(IGroupHealth)16253": {
        "encoding": "inplace",
        "label": "contract IGroupHealth",
        "numberOfBytes": "20"
      },
      "t_contract(IRegistry)16493": {
        "encoding": "inplace",
        "label": "contract IRegistry",
        "numberOfBytes": "20"
      },
      "t_contract(ISpecificGroupStrategy)16593": {
        "encoding": "inplace",
        "label": "contract ISpecificGroupStrategy",
        "numberOfBytes": "20"
      },
      "t_contract(IStakedCelo)16661": {
        "encoding": "inplace",
        "label": "contract IStakedCelo",
        "numberOfBytes": "20"
      },
      "t_mapping(t_address,t_address)": {
        "encoding": "mapping",
        "key": "t_address",
        "label": "mapping(address => address)",
        "numberOfBytes": "32",
        "value": "t_address"
      },
      "t_mapping(t_bytes32,t_uint256)": {
        "encoding": "mapping",
        "key": "t_bytes32",
        "label": "mapping(bytes32 => uint256)",
        "numberOfBytes": "32",
        "value": "t_uint256"
      },
      "t_struct(AddressSet)3257_storage": {
        "encoding": "inplace",
        "label": "struct EnumerableSet.AddressSet",
        "members": [
          {
            "astId": 3256,
            "contract": "contracts/Manager.sol:Manager",
            "label": "_inner",
            "offset": 0,
            "slot": "0",
            "type": "t_struct(Set)2956_storage"
          }
        ],
        "numberOfBytes": "64"
      },
      "t_struct(Set)2956_storage": {
        "encoding": "inplace",
        "label": "struct EnumerableSet.Set",
        "members": [
          {
            "astId": 2951,
            "contract": "contracts/Manager.sol:Manager",
            "label": "_values",
            "offset": 0,
            "slot": "0",
            "type": "t_array(t_bytes32)dyn_storage"
          },
          {
            "astId": 2955,
            "contract": "contracts/Manager.sol:Manager",
            "label": "_indexes",
            "offset": 0,
            "slot": "1",
            "type": "t_mapping(t_bytes32,t_uint256)"
          }
        ],
        "numberOfBytes": "64"
      },
      "t_uint256": {
        "encoding": "inplace",
        "label": "uint256",
        "numberOfBytes": "32"
      }
    }
  }
}