{
  "address": "0x0a9ABB6705167Fc1dB8dB0dd4855809e2b86dAE0",
  "abi": [
    {
      "inputs": [],
      "stateMutability": "nonpayable",
      "type": "constructor"
    },
    {
      "inputs": [],
      "name": "AccountCreationFailed",
      "type": "error"
    },
    {
      "inputs": [
        {
          "internalType": "address",
          "name": "group",
          "type": "address"
        }
      ],
      "name": "ActivatePendingVotesFailed",
      "type": "error"
    },
    {
      "inputs": [
        {
          "internalType": "address",
          "name": "caller",
          "type": "address"
        }
      ],
      "name": "CallerNotManager",
      "type": "error"
    },
    {
      "inputs": [
        {
          "internalType": "address",
          "name": "to",
          "type": "address"
        },
        {
          "internalType": "uint256",
          "name": "amount",
          "type": "uint256"
        }
      ],
      "name": "CeloTransferFailed",
      "type": "error"
    },
    {
      "inputs": [],
      "name": "GroupsAndVotesArrayLengthsMismatch",
      "type": "error"
    },
    {
      "inputs": [
        {
          "internalType": "uint256",
          "name": "localPendingWithdrawalTimestamp",
          "type": "uint256"
        },
        {
          "internalType": "uint256",
          "name": "lockedGoldPendingWithdrawalTimestamp",
          "type": "uint256"
        }
      ],
      "name": "InconsistentPendingWithdrawalTimestamps",
      "type": "error"
    },
    {
      "inputs": [
        {
          "internalType": "uint256",
          "name": "localPendingWithdrawalValue",
          "type": "uint256"
        },
        {
          "internalType": "uint256",
          "name": "lockedGoldPendingWithdrawalValue",
          "type": "uint256"
        }
      ],
      "name": "InconsistentPendingWithdrawalValues",
      "type": "error"
    },
    {
      "inputs": [
        {
          "internalType": "address",
          "name": "group",
          "type": "address"
        },
        {
          "internalType": "uint256",
          "name": "amount",
          "type": "uint256"
        }
      ],
      "name": "InsufficientRevokableVotes",
      "type": "error"
    },
    {
      "inputs": [
        {
          "internalType": "address",
          "name": "beneficiary",
          "type": "address"
        },
        {
          "internalType": "address",
          "name": "group",
          "type": "address"
        }
      ],
      "name": "NoScheduledWithdrawal",
      "type": "error"
    },
    {
      "inputs": [],
      "name": "NullAddress",
      "type": "error"
    },
    {
      "inputs": [
        {
          "internalType": "uint256",
          "name": "pendingWithdrawalIndex",
          "type": "uint256"
        },
        {
          "internalType": "uint256",
          "name": "pendingWithdrawalsLength",
          "type": "uint256"
        }
      ],
      "name": "PendingWithdrawalIndexTooHigh",
      "type": "error"
    },
    {
      "inputs": [
        {
          "internalType": "address",
          "name": "group",
          "type": "address"
        },
        {
          "internalType": "uint256",
          "name": "amount",
          "type": "uint256"
        }
      ],
      "name": "RevokeActiveFailed",
      "type": "error"
    },
    {
      "inputs": [
        {
          "internalType": "address",
          "name": "group",
          "type": "address"
        },
        {
          "internalType": "uint256",
          "name": "amount",
          "type": "uint256"
        }
      ],
      "name": "RevokePendingFailed",
      "type": "error"
    },
    {
      "inputs": [
        {
          "internalType": "uint256",
          "name": "sentValue",
          "type": "uint256"
        },
        {
          "internalType": "uint256",
          "name": "expectedValue",
          "type": "uint256"
        }
      ],
      "name": "TotalVotesMismatch",
      "type": "error"
    },
    {
      "inputs": [
        {
          "internalType": "address",
          "name": "group",
          "type": "address"
        },
        {
          "internalType": "uint256",
          "name": "amount",
          "type": "uint256"
        }
      ],
      "name": "VoteFailed",
      "type": "error"
    },
    {
      "inputs": [
        {
          "internalType": "uint256",
          "name": "proposalId",
          "type": "uint256"
        }
      ],
      "name": "VotingNotSuccessful",
      "type": "error"
    },
    {
      "inputs": [
        {
          "internalType": "address",
          "name": "group",
          "type": "address"
        },
        {
          "internalType": "uint256",
          "name": "celoAvailable",
          "type": "uint256"
        },
        {
          "internalType": "uint256",
          "name": "celoToWindraw",
          "type": "uint256"
        }
      ],
      "name": "WithdrawalAmountTooHigh",
      "type": "error"
    },
    {
      "anonymous": false,
      "inputs": [
        {
          "indexed": false,
          "internalType": "address",
          "name": "previousAdmin",
          "type": "address"
        },
        {
          "indexed": false,
          "internalType": "address",
          "name": "newAdmin",
          "type": "address"
        }
      ],
      "name": "AdminChanged",
      "type": "event"
    },
    {
      "anonymous": false,
      "inputs": [
        {
          "indexed": true,
          "internalType": "address",
          "name": "beacon",
          "type": "address"
        }
      ],
      "name": "BeaconUpgraded",
      "type": "event"
    },
    {
      "anonymous": false,
      "inputs": [
        {
          "indexed": true,
          "internalType": "address",
          "name": "beneficiary",
          "type": "address"
        },
        {
          "indexed": false,
          "internalType": "uint256",
          "name": "amount",
          "type": "uint256"
        },
        {
          "indexed": false,
          "internalType": "uint256",
          "name": "timestamp",
          "type": "uint256"
        }
      ],
      "name": "CeloWithdrawalFinished",
      "type": "event"
    },
    {
      "anonymous": false,
      "inputs": [
        {
          "indexed": true,
          "internalType": "address",
          "name": "beneficiary",
          "type": "address"
        },
        {
          "indexed": true,
          "internalType": "address",
          "name": "group",
          "type": "address"
        },
        {
          "indexed": false,
          "internalType": "uint256",
          "name": "withdrawalAmount",
          "type": "uint256"
        }
      ],
      "name": "CeloWithdrawalScheduled",
      "type": "event"
    },
    {
      "anonymous": false,
      "inputs": [
        {
          "indexed": true,
          "internalType": "address",
          "name": "beneficiary",
          "type": "address"
        },
        {
          "indexed": true,
          "internalType": "address",
          "name": "group",
          "type": "address"
        },
        {
          "indexed": false,
          "internalType": "uint256",
          "name": "withdrawalAmount",
          "type": "uint256"
        }
      ],
      "name": "CeloWithdrawalStarted",
      "type": "event"
    },
    {
      "anonymous": false,
      "inputs": [
        {
          "indexed": true,
          "internalType": "address",
          "name": "manager",
          "type": "address"
        }
      ],
      "name": "ManagerSet",
      "type": "event"
    },
    {
      "anonymous": false,
      "inputs": [
        {
          "indexed": true,
          "internalType": "address",
          "name": "previousOwner",
          "type": "address"
        },
        {
          "indexed": true,
          "internalType": "address",
          "name": "newOwner",
          "type": "address"
        }
      ],
      "name": "OwnershipTransferred",
      "type": "event"
    },
    {
      "anonymous": false,
      "inputs": [
        {
          "indexed": true,
          "internalType": "address",
          "name": "implementation",
          "type": "address"
        }
      ],
      "name": "Upgraded",
      "type": "event"
    },
    {
      "anonymous": false,
      "inputs": [
        {
          "indexed": true,
          "internalType": "address",
          "name": "group",
          "type": "address"
        },
        {
          "indexed": false,
          "internalType": "uint256",
          "name": "amount",
          "type": "uint256"
        }
      ],
      "name": "VotesScheduled",
      "type": "event"
    },
    {
      "inputs": [
        {
          "internalType": "address",
          "name": "group",
          "type": "address"
        },
        {
          "internalType": "address",
          "name": "voteLesser",
          "type": "address"
        },
        {
          "internalType": "address",
          "name": "voteGreater",
          "type": "address"
        }
      ],
      "name": "activateAndVote",
      "outputs": [],
      "stateMutability": "nonpayable",
      "type": "function"
    },
    {
      "inputs": [
        {
          "internalType": "address",
          "name": "beneficiary",
          "type": "address"
        },
        {
          "internalType": "uint256",
          "name": "localPendingWithdrawalIndex",
          "type": "uint256"
        },
        {
          "internalType": "uint256",
          "name": "lockedGoldPendingWithdrawalIndex",
          "type": "uint256"
        }
      ],
      "name": "finishPendingWithdrawal",
      "outputs": [
        {
          "internalType": "uint256",
          "name": "amount",
          "type": "uint256"
        }
      ],
      "stateMutability": "nonpayable",
      "type": "function"
    },
    {
      "inputs": [
        {
          "internalType": "address",
          "name": "group",
          "type": "address"
        }
      ],
      "name": "getCeloForGroup",
      "outputs": [
        {
          "internalType": "uint256",
          "name": "",
          "type": "uint256"
        }
      ],
      "stateMutability": "view",
      "type": "function"
    },
    {
      "inputs": [
        {
          "internalType": "address",
          "name": "beneficiary",
          "type": "address"
        }
      ],
      "name": "getNumberPendingWithdrawals",
      "outputs": [
        {
          "internalType": "uint256",
          "name": "",
          "type": "uint256"
        }
      ],
      "stateMutability": "view",
      "type": "function"
    },
    {
      "inputs": [
        {
          "internalType": "address",
          "name": "beneficiary",
          "type": "address"
        },
        {
          "internalType": "uint256",
          "name": "index",
          "type": "uint256"
        }
      ],
      "name": "getPendingWithdrawal",
      "outputs": [
        {
          "internalType": "uint256",
          "name": "value",
          "type": "uint256"
        },
        {
          "internalType": "uint256",
          "name": "timestamp",
          "type": "uint256"
        }
      ],
      "stateMutability": "view",
      "type": "function"
    },
    {
      "inputs": [
        {
          "internalType": "address",
          "name": "beneficiary",
          "type": "address"
        }
      ],
      "name": "getPendingWithdrawals",
      "outputs": [
        {
          "internalType": "uint256[]",
          "name": "values",
          "type": "uint256[]"
        },
        {
          "internalType": "uint256[]",
          "name": "timestamps",
          "type": "uint256[]"
        }
      ],
      "stateMutability": "view",
      "type": "function"
    },
    {
      "inputs": [],
      "name": "getTotalCelo",
      "outputs": [
        {
          "internalType": "uint256",
          "name": "",
          "type": "uint256"
        }
      ],
      "stateMutability": "view",
      "type": "function"
    },
    {
      "inputs": [],
      "name": "getVersionNumber",
      "outputs": [
        {
          "internalType": "uint256",
          "name": "",
          "type": "uint256"
        },
        {
          "internalType": "uint256",
          "name": "",
          "type": "uint256"
        },
        {
          "internalType": "uint256",
          "name": "",
          "type": "uint256"
        },
        {
          "internalType": "uint256",
          "name": "",
          "type": "uint256"
        }
      ],
      "stateMutability": "pure",
      "type": "function"
    },
    {
      "inputs": [
        {
          "internalType": "address",
          "name": "_registry",
          "type": "address"
        },
        {
          "internalType": "address",
          "name": "_manager",
          "type": "address"
        },
        {
          "internalType": "address",
          "name": "_owner",
          "type": "address"
        }
      ],
      "name": "initialize",
      "outputs": [],
      "stateMutability": "nonpayable",
      "type": "function"
    },
    {
      "inputs": [],
      "name": "manager",
      "outputs": [
        {
          "internalType": "address",
          "name": "",
          "type": "address"
        }
      ],
      "stateMutability": "view",
      "type": "function"
    },
    {
      "inputs": [],
      "name": "owner",
      "outputs": [
        {
          "internalType": "address",
          "name": "",
          "type": "address"
        }
      ],
      "stateMutability": "view",
      "type": "function"
    },
    {
      "inputs": [
        {
          "internalType": "address",
          "name": "",
          "type": "address"
        },
        {
          "internalType": "uint256",
          "name": "",
          "type": "uint256"
        }
      ],
      "name": "pendingWithdrawals",
      "outputs": [
        {
          "internalType": "uint256",
          "name": "value",
          "type": "uint256"
        },
        {
          "internalType": "uint256",
          "name": "timestamp",
          "type": "uint256"
        }
      ],
      "stateMutability": "view",
      "type": "function"
    },
    {
      "inputs": [],
      "name": "registry",
      "outputs": [
        {
          "internalType": "contract IRegistry",
          "name": "",
          "type": "address"
        }
      ],
      "stateMutability": "view",
      "type": "function"
    },
    {
      "inputs": [],
      "name": "renounceOwnership",
      "outputs": [],
      "stateMutability": "nonpayable",
      "type": "function"
    },
    {
      "inputs": [
        {
          "internalType": "address[]",
          "name": "groups",
          "type": "address[]"
        },
        {
          "internalType": "uint256[]",
          "name": "votes",
          "type": "uint256[]"
        }
      ],
      "name": "scheduleVotes",
      "outputs": [],
      "stateMutability": "payable",
      "type": "function"
    },
    {
      "inputs": [
        {
          "internalType": "address",
          "name": "beneficiary",
          "type": "address"
        },
        {
          "internalType": "address[]",
          "name": "groups",
          "type": "address[]"
        },
        {
          "internalType": "uint256[]",
          "name": "withdrawals",
          "type": "uint256[]"
        }
      ],
      "name": "scheduleWithdrawals",
      "outputs": [],
      "stateMutability": "nonpayable",
      "type": "function"
    },
    {
      "inputs": [
        {
          "internalType": "address",
          "name": "group",
          "type": "address"
        }
      ],
      "name": "scheduledVotesForGroup",
      "outputs": [
        {
          "internalType": "uint256",
          "name": "",
          "type": "uint256"
        }
      ],
      "stateMutability": "view",
      "type": "function"
    },
    {
      "inputs": [
        {
          "internalType": "address",
          "name": "group",
          "type": "address"
        }
      ],
      "name": "scheduledWithdrawalsForGroup",
      "outputs": [
        {
          "internalType": "uint256",
          "name": "",
          "type": "uint256"
        }
      ],
      "stateMutability": "view",
      "type": "function"
    },
    {
      "inputs": [
        {
          "internalType": "address",
          "name": "group",
          "type": "address"
        },
        {
          "internalType": "address",
          "name": "beneficiary",
          "type": "address"
        }
      ],
      "name": "scheduledWithdrawalsForGroupAndBeneficiary",
      "outputs": [
        {
          "internalType": "uint256",
          "name": "",
          "type": "uint256"
        }
      ],
      "stateMutability": "view",
      "type": "function"
    },
    {
      "inputs": [
        {
          "internalType": "address",
          "name": "_manager",
          "type": "address"
        }
      ],
      "name": "setManager",
      "outputs": [],
      "stateMutability": "nonpayable",
      "type": "function"
    },
    {
      "inputs": [],
      "name": "totalScheduledWithdrawals",
      "outputs": [
        {
          "internalType": "uint256",
          "name": "",
          "type": "uint256"
        }
      ],
      "stateMutability": "view",
      "type": "function"
    },
    {
      "inputs": [
        {
          "internalType": "address",
          "name": "newOwner",
          "type": "address"
        }
      ],
      "name": "transferOwnership",
      "outputs": [],
      "stateMutability": "nonpayable",
      "type": "function"
    },
    {
      "inputs": [
        {
          "internalType": "address",
          "name": "newImplementation",
          "type": "address"
        }
      ],
      "name": "upgradeTo",
      "outputs": [],
      "stateMutability": "nonpayable",
      "type": "function"
    },
    {
      "inputs": [
        {
          "internalType": "address",
          "name": "newImplementation",
          "type": "address"
        },
        {
          "internalType": "bytes",
          "name": "data",
          "type": "bytes"
        }
      ],
      "name": "upgradeToAndCall",
      "outputs": [],
      "stateMutability": "payable",
      "type": "function"
    },
    {
      "inputs": [
        {
          "internalType": "uint256",
          "name": "proposalId",
          "type": "uint256"
        },
        {
          "internalType": "uint256",
          "name": "index",
          "type": "uint256"
        },
        {
          "internalType": "uint256",
          "name": "yesVotes",
          "type": "uint256"
        },
        {
          "internalType": "uint256",
          "name": "noVotes",
          "type": "uint256"
        },
        {
          "internalType": "uint256",
          "name": "abstainVotes",
          "type": "uint256"
        }
      ],
      "name": "votePartially",
      "outputs": [],
      "stateMutability": "nonpayable",
      "type": "function"
    },
    {
      "inputs": [
        {
          "internalType": "address",
          "name": "beneficiary",
          "type": "address"
        },
        {
          "internalType": "address",
          "name": "group",
          "type": "address"
        },
        {
          "internalType": "address",
          "name": "lesserAfterPendingRevoke",
          "type": "address"
        },
        {
          "internalType": "address",
          "name": "greaterAfterPendingRevoke",
          "type": "address"
        },
        {
          "internalType": "address",
          "name": "lesserAfterActiveRevoke",
          "type": "address"
        },
        {
          "internalType": "address",
          "name": "greaterAfterActiveRevoke",
          "type": "address"
        },
        {
          "internalType": "uint256",
          "name": "index",
          "type": "uint256"
        }
      ],
      "name": "withdraw",
      "outputs": [
        {
          "internalType": "uint256",
          "name": "",
          "type": "uint256"
        }
      ],
      "stateMutability": "nonpayable",
      "type": "function"
    },
    {
      "stateMutability": "payable",
      "type": "receive"
    }
  ],
  "transactionHash": "0xd89914dedd4103b522c108c9f1adc7a30d6b66f6b377912f53216e1ab58918df",
  "args": [],
  "numDeployments": 2,
  "solcInputHash": "0d26545ee0477243a864c9acbc608396",
  "bytecode": "0x60a06040523073ffffffffffffffffffffffffffffffffffffffff1660809073ffffffffffffffffffffffffffffffffffffffff168152503480156200004457600080fd5b50600060019054906101000a900460ff166200006f5760008054906101000a900460ff161562000080565b6200007f6200013c60201b60201c565b5b620000c2576040517f08c379a0000000000000000000000000000000000000000000000000000000008152600401620000b99062000204565b60405180910390fd5b60008060019054906101000a900460ff16159050801562000113576001600060016101000a81548160ff02191690831515021790555060016000806101000a81548160ff0219169083151502179055505b8015620001355760008060016101000a81548160ff0219169083151502179055505b5062000226565b600062000154306200015a60201b620027231760201c565b15905090565b6000808273ffffffffffffffffffffffffffffffffffffffff163b119050919050565b600082825260208201905092915050565b7f496e697469616c697a61626c653a20636f6e747261637420697320616c72656160008201527f647920696e697469616c697a6564000000000000000000000000000000000000602082015250565b6000620001ec602e836200017d565b9150620001f9826200018e565b604082019050919050565b600060208201905081810360008301526200021f81620001dd565b9050919050565b608051614ea26200025760003960008181610ff701528181611086015281816111e701526112760152614ea26000f3fe6080604052600436106101855760003560e01c80637b103999116100d1578063c0c53b8b1161008a578063d0ebdbe711610064578063d0ebdbe71461059b578063d15ca4ed146105c4578063f2fde38b14610602578063f340c0d01461062b5761018c565b8063c0c53b8b1461050c578063c7fb232814610535578063c9a101f3146105725761018c565b80637b103999146103c257806384aff2e7146103ed5780638da5cb5b1461042a578063a020c8de14610455578063acd201d014610492578063b09bdc5e146104cf5761018c565b80633659cfe61161013e5780634f1ef286116101185780634f1ef2861461032457806354255be0146103405780635fd5c95e1461036e578063715018a6146103ab5761018c565b80633659cfe61461029257806344dc4970146102bb578063481c6a75146102f95761018c565b806301c21d591461019157806301d2b6ea146101ad5780631449edb0146101d85780632ad9ac41146102155780632edfd12e146102405780632f842a1a146102695761018c565b3661018c57005b600080fd5b6101ab60048036038101906101a69190613a38565b610669565b005b3480156101b957600080fd5b506101c26108fc565b6040516101cf9190613ad2565b60405180910390f35b3480156101e457600080fd5b506101ff60048036038101906101fa9190613b4b565b61099c565b60405161020c9190613ad2565b60405180910390f35b34801561022157600080fd5b5061022a6109e8565b6040516102379190613ad2565b60405180910390f35b34801561024c57600080fd5b5061026760048036038101906102629190613ba4565b6109ee565b005b34801561027557600080fd5b50610290600480360381019061028b9190613c1f565b610b59565b005b34801561029e57600080fd5b506102b960048036038101906102b49190613b4b565b610ff5565b005b3480156102c757600080fd5b506102e260048036038101906102dd9190613cb4565b61117e565b6040516102f0929190613cf4565b60405180910390f35b34801561030557600080fd5b5061030e6111bf565b60405161031b9190613d2c565b60405180910390f35b61033e60048036038101906103399190613e88565b6111e5565b005b34801561034c57600080fd5b50610355611322565b6040516103659493929190613ee4565b60405180910390f35b34801561037a57600080fd5b5061039560048036038101906103909190613b4b565b61133d565b6040516103a29190613ad2565b60405180910390f35b3480156103b757600080fd5b506103c0611389565b005b3480156103ce57600080fd5b506103d7611411565b6040516103e49190613f88565b60405180910390f35b3480156103f957600080fd5b50610414600480360381019061040f9190613fa3565b611437565b6040516104219190613ad2565b60405180910390f35b34801561043657600080fd5b5061043f6116ce565b60405161044c9190613d2c565b60405180910390f35b34801561046157600080fd5b5061047c60048036038101906104779190613ff6565b6116f8565b6040516104899190613ad2565b60405180910390f35b34801561049e57600080fd5b506104b960048036038101906104b49190613b4b565b611c6d565b6040516104c69190613ad2565b60405180910390f35b3480156104db57600080fd5b506104f660048036038101906104f19190613b4b565b611d93565b6040516105039190613ad2565b60405180910390f35b34801561051857600080fd5b50610533600480360381019061052e9190614098565b611ddf565b005b34801561054157600080fd5b5061055c600480360381019061055791906140eb565b611f8f565b6040516105699190613ad2565b60405180910390f35b34801561057e57600080fd5b5061059960048036038101906105949190614098565b612019565b005b3480156105a757600080fd5b506105c260048036038101906105bd9190613b4b565b612338565b005b3480156105d057600080fd5b506105eb60048036038101906105e69190613cb4565b6123c0565b6040516105f9929190613cf4565b60405180910390f35b34801561060e57600080fd5b5061062960048036038101906106249190613b4b565b61245b565b005b34801561063757600080fd5b50610652600480360381019061064d9190613b4b565b612553565b6040516106609291906141e9565b60405180910390f35b3373ffffffffffffffffffffffffffffffffffffffff16606660009054906101000a900473ffffffffffffffffffffffffffffffffffffffff1673ffffffffffffffffffffffffffffffffffffffff16146106fb57336040517f3b2495f10000000000000000000000000000000000000000000000000000000081526004016106f29190613d2c565b60405180910390fd5b81819050848490501461073a576040517f8cd9cb4d00000000000000000000000000000000000000000000000000000000815260040160405180910390fd5b600080600090505b858590508110156108ae578383828181106107605761075f614220565b5b905060200201356068600088888581811061077e5761077d614220565b5b90506020020160208101906107939190613b4b565b73ffffffffffffffffffffffffffffffffffffffff1673ffffffffffffffffffffffffffffffffffffffff16815260200190815260200160002060000160008282546107df919061427e565b925050819055508383828181106107f9576107f8614220565b5b905060200201358261080b919061427e565b91508585828181106108205761081f614220565b5b90506020020160208101906108359190613b4b565b73ffffffffffffffffffffffffffffffffffffffff167f3ee8e5d1cb8671d12b5b20284bb69c7fc325211a1f957cab060d8a78dcc64fba85858481811061087f5761087e614220565b5b905060200201356040516108939190613ad2565b60405180910390a280806108a6906142d4565b915050610742565b503481146108f55734816040517f02760fce0000000000000000000000000000000000000000000000000000000081526004016108ec929190613cf4565b60405180910390fd5b5050505050565b6000606954610909612746565b73ffffffffffffffffffffffffffffffffffffffff166330ec70f5306040518263ffffffff1660e01b81526004016109419190613d2c565b602060405180830381865afa15801561095e573d6000803e3d6000fd5b505050506040513d601f19601f820116820180604052508101906109829190614332565b4761098d919061427e565b610997919061435f565b905090565b6000606760008373ffffffffffffffffffffffffffffffffffffffff1673ffffffffffffffffffffffffffffffffffffffff168152602001908152602001600020805490509050919050565b60695481565b3373ffffffffffffffffffffffffffffffffffffffff16606660009054906101000a900473ffffffffffffffffffffffffffffffffffffffff1673ffffffffffffffffffffffffffffffffffffffff1614610a8057336040517f3b2495f1000000000000000000000000000000000000000000000000000000008152600401610a779190613d2c565b60405180910390fd5b6000610a8a61280d565b73ffffffffffffffffffffffffffffffffffffffff16632edfd12e87878787876040518663ffffffff1660e01b8152600401610aca959493929190614393565b6020604051808303816000875af1158015610ae9573d6000803e3d6000fd5b505050506040513d601f19601f82011682018060405250810190610b0d919061441e565b905080610b5157856040517f30b7d05a000000000000000000000000000000000000000000000000000000008152600401610b489190613ad2565b60405180910390fd5b505050505050565b3373ffffffffffffffffffffffffffffffffffffffff16606660009054906101000a900473ffffffffffffffffffffffffffffffffffffffff1673ffffffffffffffffffffffffffffffffffffffff1614610beb57336040517f3b2495f1000000000000000000000000000000000000000000000000000000008152600401610be29190613d2c565b60405180910390fd5b818190508484905014610c2a576040517f8cd9cb4d00000000000000000000000000000000000000000000000000000000815260040160405180910390fd5b600080600090505b83839050811015610fd35760003073ffffffffffffffffffffffffffffffffffffffff1663acd201d0888885818110610c6e57610c6d614220565b5b9050602002016020810190610c839190613b4b565b6040518263ffffffff1660e01b8152600401610c9f9190613d2c565b602060405180830381865afa158015610cbc573d6000803e3d6000fd5b505050506040513d601f19601f82011682018060405250810190610ce09190614332565b9050848483818110610cf557610cf4614220565b5b90506020020135811015610d8457868683818110610d1657610d15614220565b5b9050602002016020810190610d2b9190613b4b565b81868685818110610d3f57610d3e614220565b5b905060200201356040517fd5493527000000000000000000000000000000000000000000000000000000008152600401610d7b9392919061444b565b60405180910390fd5b848483818110610d9757610d96614220565b5b9050602002013560686000898986818110610db557610db4614220565b5b9050602002016020810190610dca9190613b4b565b73ffffffffffffffffffffffffffffffffffffffff1673ffffffffffffffffffffffffffffffffffffffff1681526020019081526020016000206001016000828254610e16919061427e565b92505081905550848483818110610e3057610e2f614220565b5b9050602002013560686000898986818110610e4e57610e4d614220565b5b9050602002016020810190610e639190613b4b565b73ffffffffffffffffffffffffffffffffffffffff1673ffffffffffffffffffffffffffffffffffffffff16815260200190815260200160002060020160008a73ffffffffffffffffffffffffffffffffffffffff1673ffffffffffffffffffffffffffffffffffffffff1681526020019081526020016000206000828254610eec919061427e565b92505081905550848483818110610f0657610f05614220565b5b9050602002013583610f18919061427e565b9250868683818110610f2d57610f2c614220565b5b9050602002016020810190610f429190613b4b565b73ffffffffffffffffffffffffffffffffffffffff168873ffffffffffffffffffffffffffffffffffffffff167f6b63acc273560d01b849e2d77c42ac2cd2b6ff5e1c775423c52a6e50be320e7b878786818110610fa357610fa2614220565b5b90506020020135604051610fb79190613ad2565b60405180910390a3508080610fcb906142d4565b915050610c32565b508060696000828254610fe6919061427e565b92505081905550505050505050565b7f000000000000000000000000000000000000000000000000000000000000000073ffffffffffffffffffffffffffffffffffffffff163073ffffffffffffffffffffffffffffffffffffffff161415611084576040517f08c379a000000000000000000000000000000000000000000000000000000000815260040161107b90614505565b60405180910390fd5b7f000000000000000000000000000000000000000000000000000000000000000073ffffffffffffffffffffffffffffffffffffffff166110c36128d4565b73ffffffffffffffffffffffffffffffffffffffff1614611119576040517f08c379a000000000000000000000000000000000000000000000000000000000815260040161111090614597565b60405180910390fd5b6111228161292b565b61117b81600067ffffffffffffffff81111561114157611140613d5d565b5b6040519080825280601f01601f1916602001820160405280156111735781602001600182028036833780820191505090505b5060006129aa565b50565b6067602052816000526040600020818154811061119a57600080fd5b9060005260206000209060020201600091509150508060000154908060010154905082565b606660009054906101000a900473ffffffffffffffffffffffffffffffffffffffff1681565b7f000000000000000000000000000000000000000000000000000000000000000073ffffffffffffffffffffffffffffffffffffffff163073ffffffffffffffffffffffffffffffffffffffff161415611274576040517f08c379a000000000000000000000000000000000000000000000000000000000815260040161126b90614505565b60405180910390fd5b7f000000000000000000000000000000000000000000000000000000000000000073ffffffffffffffffffffffffffffffffffffffff166112b36128d4565b73ffffffffffffffffffffffffffffffffffffffff1614611309576040517f08c379a000000000000000000000000000000000000000000000000000000000815260040161130090614597565b60405180910390fd5b6113128261292b565b61131e828260016129aa565b5050565b60008060008060018060026000935093509350935090919293565b6000606860008373ffffffffffffffffffffffffffffffffffffffff1673ffffffffffffffffffffffffffffffffffffffff168152602001908152602001600020600001549050919050565b611391612b7b565b73ffffffffffffffffffffffffffffffffffffffff166113af6116ce565b73ffffffffffffffffffffffffffffffffffffffff1614611405576040517f08c379a00000000000000000000000000000000000000000000000000000000081526004016113fc90614603565b60405180910390fd5b61140f6000612b83565b565b606560009054906101000a900473ffffffffffffffffffffffffffffffffffffffff1681565b6000806000611447868686612c49565b915091506000606760008873ffffffffffffffffffffffffffffffffffffffff1673ffffffffffffffffffffffffffffffffffffffff168152602001908152602001600020905080600182805490506114a0919061435f565b815481106114b1576114b0614220565b5b90600052602060002090600202018187815481106114d2576114d1614220565b5b906000526020600020906002020160008201548160000155600182015481600101559050508080548061150857611507614623565b5b6001900381819060005260206000209060020201600080820160009055600182016000905550509055611539612746565b73ffffffffffffffffffffffffffffffffffffffff16632e1a7d4d866040518263ffffffff1660e01b81526004016115719190613ad2565b600060405180830381600087803b15801561158b57600080fd5b505af115801561159f573d6000803e3d6000fd5b5050505060006115ad612ed6565b73ffffffffffffffffffffffffffffffffffffffff1663a9059cbb89866040518363ffffffff1660e01b81526004016115e7929190614652565b6020604051808303816000875af1158015611606573d6000803e3d6000fd5b505050506040513d601f19601f8201168201806040525081019061162a919061441e565b9050806116705787846040517fbe1b5315000000000000000000000000000000000000000000000000000000008152600401611667929190614652565b60405180910390fd5b8773ffffffffffffffffffffffffffffffffffffffff167f3bb2914428a7565afeafb57ef1a5bad4a2de7be9bf7b41b7e5da505f4b974ce285856040516116b8929190613cf4565b60405180910390a2839450505050509392505050565b6000603360009054906101000a900473ffffffffffffffffffffffffffffffffffffffff16905090565b600080606860008973ffffffffffffffffffffffffffffffffffffffff1673ffffffffffffffffffffffffffffffffffffffff16815260200190815260200160002060020160008a73ffffffffffffffffffffffffffffffffffffffff1673ffffffffffffffffffffffffffffffffffffffff16815260200190815260200160002054905060008114156117c55788886040517f7a9a71fb0000000000000000000000000000000000000000000000000000000081526004016117bc92919061467b565b60405180910390fd5b8773ffffffffffffffffffffffffffffffffffffffff168973ffffffffffffffffffffffffffffffffffffffff167f6e250cfd645a8eac07044223b0b240549b17fe4a71aab09d925cb413b72b00ae836040516118229190613ad2565b60405180910390a36000606860008a73ffffffffffffffffffffffffffffffffffffffff1673ffffffffffffffffffffffffffffffffffffffff16815260200190815260200160002060020160008b73ffffffffffffffffffffffffffffffffffffffff1673ffffffffffffffffffffffffffffffffffffffff1681526020019081526020016000208190555080606860008a73ffffffffffffffffffffffffffffffffffffffff1673ffffffffffffffffffffffffffffffffffffffff1681526020019081526020016000206001016000828254611901919061435f565b92505081905550806069600082825461191a919061435f565b925050819055506000606860008a73ffffffffffffffffffffffffffffffffffffffff1673ffffffffffffffffffffffffffffffffffffffff1681526020019081526020016000206000015490506000811115611ab8578181111561197d578190505b80606860008b73ffffffffffffffffffffffffffffffffffffffff1673ffffffffffffffffffffffffffffffffffffffff16815260200190815260200160002060000160008282546119cf919061435f565b9250508190555060006119e0612ed6565b73ffffffffffffffffffffffffffffffffffffffff1663a9059cbb8c846040518363ffffffff1660e01b8152600401611a1a929190614652565b6020604051808303816000875af1158015611a39573d6000803e3d6000fd5b505050506040513d601f19601f82011682018060405250810190611a5d919061441e565b905080611aa3578a826040517fbe1b5315000000000000000000000000000000000000000000000000000000008152600401611a9a929190614652565b60405180910390fd5b82821415611ab657819350505050611c62565b505b60008183611ac6919061435f565b90506000611ad2612746565b9050606760008d73ffffffffffffffffffffffffffffffffffffffff1673ffffffffffffffffffffffffffffffffffffffff16815260200190815260200160002060405180604001604052808481526020018373ffffffffffffffffffffffffffffffffffffffff166320637d8e6040518163ffffffff1660e01b8152600401602060405180830381865afa158015611b6f573d6000803e3d6000fd5b505050506040513d601f19601f82011682018060405250810190611b939190614332565b42611b9e919061427e565b815250908060018154018082558091505060019003906000526020600020906002020160009091909190915060008201518160000155602082015181600101555050611bef8b838c8c8c8c8c612f9d565b8073ffffffffffffffffffffffffffffffffffffffff16636198e339836040518263ffffffff1660e01b8152600401611c289190613ad2565b600060405180830381600087803b158015611c4257600080fd5b505af1158015611c56573d6000803e3d6000fd5b50505050829450505050505b979650505050505050565b6000606860008373ffffffffffffffffffffffffffffffffffffffff1673ffffffffffffffffffffffffffffffffffffffff16815260200190815260200160002060010154606860008473ffffffffffffffffffffffffffffffffffffffff1673ffffffffffffffffffffffffffffffffffffffff16815260200190815260200160002060000154611cfd6132c7565b73ffffffffffffffffffffffffffffffffffffffff16633861727285306040518363ffffffff1660e01b8152600401611d3792919061467b565b602060405180830381865afa158015611d54573d6000803e3d6000fd5b505050506040513d601f19601f82011682018060405250810190611d789190614332565b611d82919061427e565b611d8c919061435f565b9050919050565b6000606860008373ffffffffffffffffffffffffffffffffffffffff1673ffffffffffffffffffffffffffffffffffffffff168152602001908152602001600020600101549050919050565b600060019054906101000a900460ff16611e075760008054906101000a900460ff1615611e10565b611e0f61338e565b5b611e4f576040517f08c379a0000000000000000000000000000000000000000000000000000000008152600401611e4690614716565b60405180910390fd5b60008060019054906101000a900460ff161590508015611e9f576001600060016101000a81548160ff02191690831515021790555060016000806101000a81548160ff0219169083151502179055505b611ea88461339f565b611eb1836134b0565b611eba82612b83565b611ec261350b565b73ffffffffffffffffffffffffffffffffffffffff16639dca362f6040518163ffffffff1660e01b81526004016020604051808303816000875af1158015611f0e573d6000803e3d6000fd5b505050506040513d601f19601f82011682018060405250810190611f32919061441e565b611f68576040517f20188a5900000000000000000000000000000000000000000000000000000000815260040160405180910390fd5b8015611f895760008060016101000a81548160ff0219169083151502179055505b50505050565b6000606860008473ffffffffffffffffffffffffffffffffffffffff1673ffffffffffffffffffffffffffffffffffffffff16815260200190815260200160002060020160008373ffffffffffffffffffffffffffffffffffffffff1673ffffffffffffffffffffffffffffffffffffffff16815260200190815260200160002054905092915050565b60006120236132c7565b90506000606860008673ffffffffffffffffffffffffffffffffffffffff1673ffffffffffffffffffffffffffffffffffffffff1681526020019081526020016000206000015490506000606860008773ffffffffffffffffffffffffffffffffffffffff1673ffffffffffffffffffffffffffffffffffffffff168152602001908152602001600020600001819055508173ffffffffffffffffffffffffffffffffffffffff1663263ecf7430876040518363ffffffff1660e01b81526004016120ef92919061467b565b602060405180830381865afa15801561210c573d6000803e3d6000fd5b505050506040513d601f19601f82011682018060405250810190612130919061441e565b156121f3578173ffffffffffffffffffffffffffffffffffffffff16631c5a9d9c866040518263ffffffff1660e01b815260040161216e9190613d2c565b6020604051808303816000875af115801561218d573d6000803e3d6000fd5b505050506040513d601f19601f820116820180604052508101906121b1919061441e565b6121f257846040517fbafbcc570000000000000000000000000000000000000000000000000000000081526004016121e99190613d2c565b60405180910390fd5b5b6000811415612203575050612333565b61220b612746565b73ffffffffffffffffffffffffffffffffffffffff1663f83d08ba826040518263ffffffff1660e01b81526004016000604051808303818588803b15801561225257600080fd5b505af1158015612266573d6000803e3d6000fd5b50505050508173ffffffffffffffffffffffffffffffffffffffff1663580d747a868387876040518563ffffffff1660e01b81526004016122aa9493929190614736565b6020604051808303816000875af11580156122c9573d6000803e3d6000fd5b505050506040513d601f19601f820116820180604052508101906122ed919061441e565b6123305784816040517fcbf8d8ef000000000000000000000000000000000000000000000000000000008152600401612327929190614652565b60405180910390fd5b50505b505050565b612340612b7b565b73ffffffffffffffffffffffffffffffffffffffff1661235e6116ce565b73ffffffffffffffffffffffffffffffffffffffff16146123b4576040517f08c379a00000000000000000000000000000000000000000000000000000000081526004016123ab90614603565b60405180910390fd5b6123bd816135d2565b50565b6000806000606760008673ffffffffffffffffffffffffffffffffffffffff1673ffffffffffffffffffffffffffffffffffffffff168152602001908152602001600020848154811061241657612415614220565b5b90600052602060002090600202016040518060400160405290816000820154815260200160018201548152505090508060000151816020015192509250509250929050565b612463612b7b565b73ffffffffffffffffffffffffffffffffffffffff166124816116ce565b73ffffffffffffffffffffffffffffffffffffffff16146124d7576040517f08c379a00000000000000000000000000000000000000000000000000000000081526004016124ce90614603565b60405180910390fd5b600073ffffffffffffffffffffffffffffffffffffffff168173ffffffffffffffffffffffffffffffffffffffff161415612547576040517f08c379a000000000000000000000000000000000000000000000000000000000815260040161253e906147ed565b60405180910390fd5b61255081612b83565b50565b6060806000606760008573ffffffffffffffffffffffffffffffffffffffff1673ffffffffffffffffffffffffffffffffffffffff1681526020019081526020016000208054905090508067ffffffffffffffff8111156125b7576125b6613d5d565b5b6040519080825280602002602001820160405280156125e55781602001602082028036833780820191505090505b5092508067ffffffffffffffff81111561260257612601613d5d565b5b6040519080825280602002602001820160405280156126305781602001602082028036833780820191505090505b50915060005b8181101561271c576000606760008773ffffffffffffffffffffffffffffffffffffffff1673ffffffffffffffffffffffffffffffffffffffff168152602001908152602001600020828154811061269157612690614220565b5b906000526020600020906002020160405180604001604052908160008201548152602001600182015481525050905080600001518583815181106126d8576126d7614220565b5b60200260200101818152505080602001518483815181106126fc576126fb614220565b5b602002602001018181525050508080612714906142d4565b915050612636565b5050915091565b6000808273ffffffffffffffffffffffffffffffffffffffff163b119050919050565b6000606560009054906101000a900473ffffffffffffffffffffffffffffffffffffffff1673ffffffffffffffffffffffffffffffffffffffff1663dcf0aaed60405160200161279590614864565b604051602081830303815290604052805190602001206040518263ffffffff1660e01b81526004016127c79190614892565b602060405180830381865afa1580156127e4573d6000803e3d6000fd5b505050506040513d601f19601f8201168201806040525081019061280891906148c2565b905090565b6000606560009054906101000a900473ffffffffffffffffffffffffffffffffffffffff1673ffffffffffffffffffffffffffffffffffffffff1663dcf0aaed60405160200161285c9061493b565b604051602081830303815290604052805190602001206040518263ffffffff1660e01b815260040161288e9190614892565b602060405180830381865afa1580156128ab573d6000803e3d6000fd5b505050506040513d601f19601f820116820180604052508101906128cf91906148c2565b905090565b60006129027f360894a13ba1a3210667c828492db98dca3e2076cc3735a920a3ca505d382bbc60001b6136c0565b60000160009054906101000a900473ffffffffffffffffffffffffffffffffffffffff16905090565b612933612b7b565b73ffffffffffffffffffffffffffffffffffffffff166129516116ce565b73ffffffffffffffffffffffffffffffffffffffff16146129a7576040517f08c379a000000000000000000000000000000000000000000000000000000000815260040161299e90614603565b60405180910390fd5b50565b60006129b46128d4565b90506129bf846136ca565b6000835111806129cc5750815b156129dd576129db8484613783565b505b6000612a0b7f4910fdfa16fed3260ed0e7147f7cc6da11a60208b5b9406d12a635614ffd914360001b6137b0565b90508060000160009054906101000a900460ff16612b745760018160000160006101000a81548160ff021916908315150217905550612ad78583604051602401612a559190613d2c565b6040516020818303038152906040527f3659cfe6000000000000000000000000000000000000000000000000000000007bffffffffffffffffffffffffffffffffffffffffffffffffffffffff19166020820180517bffffffffffffffffffffffffffffffffffffffffffffffffffffffff8381831617835250505050613783565b5060008160000160006101000a81548160ff021916908315150217905550612afd6128d4565b73ffffffffffffffffffffffffffffffffffffffff168273ffffffffffffffffffffffffffffffffffffffff1614612b6a576040517f08c379a0000000000000000000000000000000000000000000000000000000008152600401612b61906149c2565b60405180910390fd5b612b73856137ba565b5b5050505050565b600033905090565b6000603360009054906101000a900473ffffffffffffffffffffffffffffffffffffffff16905081603360006101000a81548173ffffffffffffffffffffffffffffffffffffffff021916908373ffffffffffffffffffffffffffffffffffffffff1602179055508173ffffffffffffffffffffffffffffffffffffffff168173ffffffffffffffffffffffffffffffffffffffff167f8be0079c531659141344cd1fd0a4f28419497f9722a3daafe3b4186f6b6457e060405160405180910390a35050565b600080606760008673ffffffffffffffffffffffffffffffffffffffff1673ffffffffffffffffffffffffffffffffffffffff168152602001908152602001600020805490508410612d165783606760008773ffffffffffffffffffffffffffffffffffffffff1673ffffffffffffffffffffffffffffffffffffffff168152602001908152602001600020805490506040517fdee6f574000000000000000000000000000000000000000000000000000000008152600401612d0d929190613cf4565b60405180910390fd5b600080612d21612746565b73ffffffffffffffffffffffffffffffffffffffff1663d15ca4ed30876040518363ffffffff1660e01b8152600401612d5b929190614652565b6040805180830381865afa158015612d77573d6000803e3d6000fd5b505050506040513d601f19601f82011682018060405250810190612d9b91906149e2565b915091506000606760008973ffffffffffffffffffffffffffffffffffffffff1673ffffffffffffffffffffffffffffffffffffffff1681526020019081526020016000208781548110612df257612df1614220565b5b906000526020600020906002020160405180604001604052908160008201548152602001600182015481525050905082816000015114612e6f578060000151836040517f753c4c22000000000000000000000000000000000000000000000000000000008152600401612e66929190613cf4565b60405180910390fd5b81816020015114612ebd578060200151826040517f8acd9503000000000000000000000000000000000000000000000000000000008152600401612eb4929190613cf4565b60405180910390fd5b8060000151816020015194509450505050935093915050565b6000606560009054906101000a900473ffffffffffffffffffffffffffffffffffffffff1673ffffffffffffffffffffffffffffffffffffffff1663dcf0aaed604051602001612f2590614a6e565b604051602081830303815290604052805190602001206040518263ffffffff1660e01b8152600401612f579190614892565b602060405180830381865afa158015612f74573d6000803e3d6000fd5b505050506040513d601f19601f82011682018060405250810190612f9891906148c2565b905090565b6000612fa76132c7565b905060008173ffffffffffffffffffffffffffffffffffffffff16639b95975f8a306040518363ffffffff1660e01b8152600401612fe692919061467b565b602060405180830381865afa158015613003573d6000803e3d6000fd5b505050506040513d601f19601f820116820180604052508101906130279190614332565b905060006130358983613809565b90506000811115613108578273ffffffffffffffffffffffffffffffffffffffff16639dfb60818b838b8b896040518663ffffffff1660e01b8152600401613081959493929190614a83565b6020604051808303816000875af11580156130a0573d6000803e3d6000fd5b505050506040513d601f19601f820116820180604052508101906130c4919061441e565b6131075789896040517f88f72d990000000000000000000000000000000000000000000000000000000081526004016130fe929190614652565b60405180910390fd5b5b6000818a613116919061435f565b9050600081141561312a57505050506132be565b60008473ffffffffffffffffffffffffffffffffffffffff1663d3e242a48d306040518363ffffffff1660e01b815260040161316792919061467b565b602060405180830381865afa158015613184573d6000803e3d6000fd5b505050506040513d601f19601f820116820180604052508101906131a89190614332565b9050818110156131f1578b8b6040517fc7b278670000000000000000000000000000000000000000000000000000000081526004016131e8929190614652565b60405180910390fd5b8473ffffffffffffffffffffffffffffffffffffffff16636e1984758d848b8b8b6040518663ffffffff1660e01b8152600401613232959493929190614a83565b6020604051808303816000875af1158015613251573d6000803e3d6000fd5b505050506040513d601f19601f82011682018060405250810190613275919061441e565b6132b8578b8b6040517f21ffa8e90000000000000000000000000000000000000000000000000000000081526004016132af929190614652565b60405180910390fd5b50505050505b50505050505050565b6000606560009054906101000a900473ffffffffffffffffffffffffffffffffffffffff1673ffffffffffffffffffffffffffffffffffffffff1663dcf0aaed60405160200161331690614b22565b604051602081830303815290604052805190602001206040518263ffffffff1660e01b81526004016133489190614892565b602060405180830381865afa158015613365573d6000803e3d6000fd5b505050506040513d601f19601f8201168201806040525081019061338991906148c2565b905090565b600061339930612723565b15905090565b600060019054906101000a900460ff166133ee576040517f08c379a00000000000000000000000000000000000000000000000000000000081526004016133e590614ba9565b60405180910390fd5b600073ffffffffffffffffffffffffffffffffffffffff168173ffffffffffffffffffffffffffffffffffffffff16141561346b5761ce10606560006101000a81548173ffffffffffffffffffffffffffffffffffffffff021916908373ffffffffffffffffffffffffffffffffffffffff1602179055506134ad565b80606560006101000a81548173ffffffffffffffffffffffffffffffffffffffff021916908373ffffffffffffffffffffffffffffffffffffffff1602179055505b50565b600060019054906101000a900460ff166134ff576040517f08c379a00000000000000000000000000000000000000000000000000000000081526004016134f690614ba9565b60405180910390fd5b613508816135d2565b50565b6000606560009054906101000a900473ffffffffffffffffffffffffffffffffffffffff1673ffffffffffffffffffffffffffffffffffffffff1663dcf0aaed60405160200161355a90614c15565b604051602081830303815290604052805190602001206040518263ffffffff1660e01b815260040161358c9190614892565b602060405180830381865afa1580156135a9573d6000803e3d6000fd5b505050506040513d601f19601f820116820180604052508101906135cd91906148c2565b905090565b600073ffffffffffffffffffffffffffffffffffffffff168173ffffffffffffffffffffffffffffffffffffffff161415613639576040517fe99d5ac500000000000000000000000000000000000000000000000000000000815260040160405180910390fd5b80606660006101000a81548173ffffffffffffffffffffffffffffffffffffffff021916908373ffffffffffffffffffffffffffffffffffffffff1602179055508073ffffffffffffffffffffffffffffffffffffffff167f60a0f5b9f9e81e98216071b85826681c796256fe3d1354ecb675580fba64fa6960405160405180910390a250565b6000819050919050565b6136d381613822565b613712576040517f08c379a000000000000000000000000000000000000000000000000000000000815260040161370990614c9c565b60405180910390fd5b8061373f7f360894a13ba1a3210667c828492db98dca3e2076cc3735a920a3ca505d382bbc60001b6136c0565b60000160006101000a81548173ffffffffffffffffffffffffffffffffffffffff021916908373ffffffffffffffffffffffffffffffffffffffff16021790555050565b60606137a88383604051806060016040528060278152602001614e4660279139613835565b905092915050565b6000819050919050565b6137c3816136ca565b8073ffffffffffffffffffffffffffffffffffffffff167fbc7cd75a20ee27fd9adebab32041f755214dbc6bffa90cc0225b39da2e5c2d3b60405160405180910390a250565b6000818310613818578161381a565b825b905092915050565b600080823b905060008111915050919050565b606061384084613822565b61387f576040517f08c379a000000000000000000000000000000000000000000000000000000000815260040161387690614d2e565b60405180910390fd5b6000808573ffffffffffffffffffffffffffffffffffffffff16856040516138a79190614dc8565b600060405180830381855af49150503d80600081146138e2576040519150601f19603f3d011682016040523d82523d6000602084013e6138e7565b606091505b50915091506138f7828286613902565b925050509392505050565b6060831561391257829050613962565b6000835111156139255782518084602001fd5b816040517f08c379a00000000000000000000000000000000000000000000000000000000081526004016139599190614e23565b60405180910390fd5b9392505050565b6000604051905090565b600080fd5b600080fd5b600080fd5b600080fd5b600080fd5b60008083601f8401126139a2576139a161397d565b5b8235905067ffffffffffffffff8111156139bf576139be613982565b5b6020830191508360208202830111156139db576139da613987565b5b9250929050565b60008083601f8401126139f8576139f761397d565b5b8235905067ffffffffffffffff811115613a1557613a14613982565b5b602083019150836020820283011115613a3157613a30613987565b5b9250929050565b60008060008060408587031215613a5257613a51613973565b5b600085013567ffffffffffffffff811115613a7057613a6f613978565b5b613a7c8782880161398c565b9450945050602085013567ffffffffffffffff811115613a9f57613a9e613978565b5b613aab878288016139e2565b925092505092959194509250565b6000819050919050565b613acc81613ab9565b82525050565b6000602082019050613ae76000830184613ac3565b92915050565b600073ffffffffffffffffffffffffffffffffffffffff82169050919050565b6000613b1882613aed565b9050919050565b613b2881613b0d565b8114613b3357600080fd5b50565b600081359050613b4581613b1f565b92915050565b600060208284031215613b6157613b60613973565b5b6000613b6f84828501613b36565b91505092915050565b613b8181613ab9565b8114613b8c57600080fd5b50565b600081359050613b9e81613b78565b92915050565b600080600080600060a08688031215613bc057613bbf613973565b5b6000613bce88828901613b8f565b9550506020613bdf88828901613b8f565b9450506040613bf088828901613b8f565b9350506060613c0188828901613b8f565b9250506080613c1288828901613b8f565b9150509295509295909350565b600080600080600060608688031215613c3b57613c3a613973565b5b6000613c4988828901613b36565b955050602086013567ffffffffffffffff811115613c6a57613c69613978565b5b613c768882890161398c565b9450945050604086013567ffffffffffffffff811115613c9957613c98613978565b5b613ca5888289016139e2565b92509250509295509295909350565b60008060408385031215613ccb57613cca613973565b5b6000613cd985828601613b36565b9250506020613cea85828601613b8f565b9150509250929050565b6000604082019050613d096000830185613ac3565b613d166020830184613ac3565b9392505050565b613d2681613b0d565b82525050565b6000602082019050613d416000830184613d1d565b92915050565b600080fd5b6000601f19601f8301169050919050565b7f4e487b7100000000000000000000000000000000000000000000000000000000600052604160045260246000fd5b613d9582613d4c565b810181811067ffffffffffffffff82111715613db457613db3613d5d565b5b80604052505050565b6000613dc7613969565b9050613dd38282613d8c565b919050565b600067ffffffffffffffff821115613df357613df2613d5d565b5b613dfc82613d4c565b9050602081019050919050565b82818337600083830152505050565b6000613e2b613e2684613dd8565b613dbd565b905082815260208101848484011115613e4757613e46613d47565b5b613e52848285613e09565b509392505050565b600082601f830112613e6f57613e6e61397d565b5b8135613e7f848260208601613e18565b91505092915050565b60008060408385031215613e9f57613e9e613973565b5b6000613ead85828601613b36565b925050602083013567ffffffffffffffff811115613ece57613ecd613978565b5b613eda85828601613e5a565b9150509250929050565b6000608082019050613ef96000830187613ac3565b613f066020830186613ac3565b613f136040830185613ac3565b613f206060830184613ac3565b95945050505050565b6000819050919050565b6000613f4e613f49613f4484613aed565b613f29565b613aed565b9050919050565b6000613f6082613f33565b9050919050565b6000613f7282613f55565b9050919050565b613f8281613f67565b82525050565b6000602082019050613f9d6000830184613f79565b92915050565b600080600060608486031215613fbc57613fbb613973565b5b6000613fca86828701613b36565b9350506020613fdb86828701613b8f565b9250506040613fec86828701613b8f565b9150509250925092565b600080600080600080600060e0888a03121561401557614014613973565b5b60006140238a828b01613b36565b97505060206140348a828b01613b36565b96505060406140458a828b01613b36565b95505060606140568a828b01613b36565b94505060806140678a828b01613b36565b93505060a06140788a828b01613b36565b92505060c06140898a828b01613b8f565b91505092959891949750929550565b6000806000606084860312156140b1576140b0613973565b5b60006140bf86828701613b36565b93505060206140d086828701613b36565b92505060406140e186828701613b36565b9150509250925092565b6000806040838503121561410257614101613973565b5b600061411085828601613b36565b925050602061412185828601613b36565b9150509250929050565b600081519050919050565b600082825260208201905092915050565b6000819050602082019050919050565b61416081613ab9565b82525050565b60006141728383614157565b60208301905092915050565b6000602082019050919050565b60006141968261412b565b6141a08185614136565b93506141ab83614147565b8060005b838110156141dc5781516141c38882614166565b97506141ce8361417e565b9250506001810190506141af565b5085935050505092915050565b60006040820190508181036000830152614203818561418b565b90508181036020830152614217818461418b565b90509392505050565b7f4e487b7100000000000000000000000000000000000000000000000000000000600052603260045260246000fd5b7f4e487b7100000000000000000000000000000000000000000000000000000000600052601160045260246000fd5b600061428982613ab9565b915061429483613ab9565b9250827fffffffffffffffffffffffffffffffffffffffffffffffffffffffffffffffff038211156142c9576142c861424f565b5b828201905092915050565b60006142df82613ab9565b91507fffffffffffffffffffffffffffffffffffffffffffffffffffffffffffffffff8214156143125761431161424f565b5b600182019050919050565b60008151905061432c81613b78565b92915050565b60006020828403121561434857614347613973565b5b60006143568482850161431d565b91505092915050565b600061436a82613ab9565b915061437583613ab9565b9250828210156143885761438761424f565b5b828203905092915050565b600060a0820190506143a86000830188613ac3565b6143b56020830187613ac3565b6143c26040830186613ac3565b6143cf6060830185613ac3565b6143dc6080830184613ac3565b9695505050505050565b60008115159050919050565b6143fb816143e6565b811461440657600080fd5b50565b600081519050614418816143f2565b92915050565b60006020828403121561443457614433613973565b5b600061444284828501614409565b91505092915050565b60006060820190506144606000830186613d1d565b61446d6020830185613ac3565b61447a6040830184613ac3565b949350505050565b600082825260208201905092915050565b7f46756e6374696f6e206d7573742062652063616c6c6564207468726f7567682060008201527f64656c656761746563616c6c0000000000000000000000000000000000000000602082015250565b60006144ef602c83614482565b91506144fa82614493565b604082019050919050565b6000602082019050818103600083015261451e816144e2565b9050919050565b7f46756e6374696f6e206d7573742062652063616c6c6564207468726f7567682060008201527f6163746976652070726f78790000000000000000000000000000000000000000602082015250565b6000614581602c83614482565b915061458c82614525565b604082019050919050565b600060208201905081810360008301526145b081614574565b9050919050565b7f4f776e61626c653a2063616c6c6572206973206e6f7420746865206f776e6572600082015250565b60006145ed602083614482565b91506145f8826145b7565b602082019050919050565b6000602082019050818103600083015261461c816145e0565b9050919050565b7f4e487b7100000000000000000000000000000000000000000000000000000000600052603160045260246000fd5b60006040820190506146676000830185613d1d565b6146746020830184613ac3565b9392505050565b60006040820190506146906000830185613d1d565b61469d6020830184613d1d565b9392505050565b7f496e697469616c697a61626c653a20636f6e747261637420697320616c72656160008201527f647920696e697469616c697a6564000000000000000000000000000000000000602082015250565b6000614700602e83614482565b915061470b826146a4565b604082019050919050565b6000602082019050818103600083015261472f816146f3565b9050919050565b600060808201905061474b6000830187613d1d565b6147586020830186613ac3565b6147656040830185613d1d565b6147726060830184613d1d565b95945050505050565b7f4f776e61626c653a206e6577206f776e657220697320746865207a65726f206160008201527f6464726573730000000000000000000000000000000000000000000000000000602082015250565b60006147d7602683614482565b91506147e28261477b565b604082019050919050565b60006020820190508181036000830152614806816147ca565b9050919050565b600081905092915050565b7f4c6f636b6564476f6c6400000000000000000000000000000000000000000000600082015250565b600061484e600a8361480d565b915061485982614818565b600a82019050919050565b600061486f82614841565b9150819050919050565b6000819050919050565b61488c81614879565b82525050565b60006020820190506148a76000830184614883565b92915050565b6000815190506148bc81613b1f565b92915050565b6000602082840312156148d8576148d7613973565b5b60006148e6848285016148ad565b91505092915050565b7f476f7665726e616e636500000000000000000000000000000000000000000000600082015250565b6000614925600a8361480d565b9150614930826148ef565b600a82019050919050565b600061494682614918565b9150819050919050565b7f45524331393637557067726164653a207570677261646520627265616b73206660008201527f7572746865722075706772616465730000000000000000000000000000000000602082015250565b60006149ac602f83614482565b91506149b782614950565b604082019050919050565b600060208201905081810360008301526149db8161499f565b9050919050565b600080604083850312156149f9576149f8613973565b5b6000614a078582860161431d565b9250506020614a188582860161431d565b9150509250929050565b7f476f6c64546f6b656e0000000000000000000000000000000000000000000000600082015250565b6000614a5860098361480d565b9150614a6382614a22565b600982019050919050565b6000614a7982614a4b565b9150819050919050565b600060a082019050614a986000830188613d1d565b614aa56020830187613ac3565b614ab26040830186613d1d565b614abf6060830185613d1d565b614acc6080830184613ac3565b9695505050505050565b7f456c656374696f6e000000000000000000000000000000000000000000000000600082015250565b6000614b0c60088361480d565b9150614b1782614ad6565b600882019050919050565b6000614b2d82614aff565b9150819050919050565b7f496e697469616c697a61626c653a20636f6e7472616374206973206e6f74206960008201527f6e697469616c697a696e67000000000000000000000000000000000000000000602082015250565b6000614b93602b83614482565b9150614b9e82614b37565b604082019050919050565b60006020820190508181036000830152614bc281614b86565b9050919050565b7f4163636f756e7473000000000000000000000000000000000000000000000000600082015250565b6000614bff60088361480d565b9150614c0a82614bc9565b600882019050919050565b6000614c2082614bf2565b9150819050919050565b7f455243313936373a206e657720696d706c656d656e746174696f6e206973206e60008201527f6f74206120636f6e747261637400000000000000000000000000000000000000602082015250565b6000614c86602d83614482565b9150614c9182614c2a565b604082019050919050565b60006020820190508181036000830152614cb581614c79565b9050919050565b7f416464726573733a2064656c65676174652063616c6c20746f206e6f6e2d636f60008201527f6e74726163740000000000000000000000000000000000000000000000000000602082015250565b6000614d18602683614482565b9150614d2382614cbc565b604082019050919050565b60006020820190508181036000830152614d4781614d0b565b9050919050565b600081519050919050565b600081905092915050565b60005b83811015614d82578082015181840152602081019050614d67565b83811115614d91576000848401525b50505050565b6000614da282614d4e565b614dac8185614d59565b9350614dbc818560208601614d64565b80840191505092915050565b6000614dd48284614d97565b915081905092915050565b600081519050919050565b6000614df582614ddf565b614dff8185614482565b9350614e0f818560208601614d64565b614e1881613d4c565b840191505092915050565b60006020820190508181036000830152614e3d8184614dea565b90509291505056fe416464726573733a206c6f772d6c6576656c2064656c65676174652063616c6c206661696c6564a2646970667358221220f35249b181f15e5aabcc76cbb7dcde1bd9bcdd030ad3766ce3497f4874506e5864736f6c634300080b0033",
  "devdoc": {
    "errors": {
      "CallerNotManager(address)": [
        {
          "params": {
            "caller": "`msg.sender` that called the function."
          }
        }
      ],
      "TotalVotesMismatch(uint256,uint256)": [
        {
          "params": {
            "expectedValue": "The expected sum of votes for groups.",
            "sentValue": "The `msg.value` of the call."
          }
        }
      ],
      "WithdrawalAmountTooHigh(address,uint256,uint256)": [
        {
          "params": {
            "celoAvailable": "CELO available to the group across scheduled, pending and active votes.",
            "celoToWindraw": "total amount of CELO that would be scheduled to be withdrawn.",
            "group": "The offending group."
          }
        }
      ]
    },
    "events": {
      "CeloWithdrawalFinished(address,uint256,uint256)": {
        "params": {
          "amount": "The amount of CELO requested for withdrawal.",
          "beneficiary": "The user for whom the withdrawal amount is intended.",
          "timestamp": "The timestamp of the pending withdrawal."
        }
      },
      "CeloWithdrawalScheduled(address,address,uint256)": {
        "params": {
          "beneficiary": "The user for whom the withdrawal amount is intended for.",
          "group": "The validator group the CELO is withdrawn from.",
          "withdrawalAmount": "The amount of CELO requested for withdrawal."
        }
      },
      "CeloWithdrawalStarted(address,address,uint256)": {
        "params": {
          "beneficiary": "The user for whom the withdrawal amount is intended for.",
          "group": "The validator group the CELO is withdrawn from.",
          "withdrawalAmount": "The amount of CELO requested for withdrawal."
        }
      },
      "VotesScheduled(address,uint256)": {
        "params": {
          "amount": "The amount of CELO scheduled.",
          "group": "The validator group the CELO is intended to vote for."
        }
      }
    },
    "kind": "dev",
    "methods": {
      "activateAndVote(address,address,address)": {
        "details": "Callable by anyone. In practice, this is expected to be called near the end of each epoch by an off-chain agent.",
        "params": {
          "group": "The group to activate pending votes for and lock & vote any unlocked CELO for.",
          "voteGreater": "Used by Election's `vote`. This is the group that will recieve greater votes than group after the votes are cast, or address(0) if no such group exists.",
          "voteLesser": "Used by Election's `vote`. This is the group that will recieve fewer votes than group after the votes are cast, or address(0) if no such group exists."
        }
      },
      "finishPendingWithdrawal(address,uint256,uint256)": {
        "details": "Callable by anyone, but ultimatly the withdrawal goes to `beneficiary`. The pending withdrawal info found in both StakedCeloGroupVoter and LockedGold must match to ensure that the beneficiary is claiming the appropriate pending withdrawal.",
        "params": {
          "beneficiary": "The account that owns the pending withdrawal being processed.",
          "localPendingWithdrawalIndex": "The index of the pending withdrawal to finish in pendingWithdrawals[beneficiary] array.",
          "lockedGoldPendingWithdrawalIndex": "The index of the pending withdrawal to finish in LockedGold."
        },
        "returns": {
          "amount": "The amount of CELO sent to `beneficiary`."
        }
      },
      "getCeloForGroup(address)": {
        "params": {
          "group": "The address of the validator group."
        },
        "returns": {
          "_0": "The total amount of CELO directed towards `group`."
        }
      },
      "getNumberPendingWithdrawals(address)": {
        "params": {
          "beneficiary": "The address of the beneficiary who initiated the pending withdrawal."
        },
        "returns": {
          "_0": "The numbers of pending withdrawals for `beneficiary`"
        }
      },
      "getPendingWithdrawal(address,uint256)": {
        "params": {
          "beneficiary": "The address of the beneficiary who initiated the pending withdrawal.",
          "index": "The index in `beneficiary`'s pendingWithdrawals array."
        },
        "returns": {
          "timestamp": "The timestamp of the pending withdrawal.",
          "value": "The values of the pending withdrawal."
        }
      },
      "getPendingWithdrawals(address)": {
        "params": {
          "beneficiary": "The address of the beneficiary who initiated the pending withdrawal."
        },
        "returns": {
          "timestamps": "The timestamps of pending withdrawals.",
          "values": "The values of pending withdrawals."
        }
      },
      "getTotalCelo()": {
        "returns": {
          "_0": "The total amount of CELO this contract controls, including LockedGold."
        }
      },
      "getVersionNumber()": {
        "returns": {
          "_0": "Storage version of the contract.",
          "_1": "Major version of the contract.",
          "_2": "Minor version of the contract.",
          "_3": "Patch version of the contract."
        }
      },
      "initialize(address,address,address)": {
        "params": {
          "_manager": "The address of the Manager contract.",
          "_owner": "The address of the contract owner.",
          "_registry": "The address of the Celo registry."
        }
      },
      "owner()": {
        "details": "Returns the address of the current owner."
      },
      "renounceOwnership()": {
        "details": "Leaves the contract without owner. It will not be possible to call `onlyOwner` functions anymore. Can only be called by the current owner. NOTE: Renouncing ownership will leave the contract without an owner, thereby removing any functionality that is only available to the owner."
      },
      "scheduleVotes(address[],uint256[])": {
        "details": "Only callable by the Staked CELO contract, which must restrict which groups are valid.",
        "params": {
          "groups": "The groups the deposited CELO is intended to vote for.",
          "votes": "The amount of CELO to schedule for each respective group from `groups`."
        }
      },
      "scheduleWithdrawals(address,address[],uint256[])": {
        "params": {
          "beneficiary": "The account that will receive the CELO once it's withdrawn. from `groups`.",
          "groups": "The groups the deposited CELO is intended to be withdrawn from.",
          "withdrawals": "The amount of CELO to withdraw for each respective group."
        }
      },
      "scheduledVotesForGroup(address)": {
        "params": {
          "group": "The address of the validator group."
        },
        "returns": {
          "_0": "The total amount of CELO directed towards `group`."
        }
      },
      "scheduledWithdrawalsForGroup(address)": {
        "params": {
          "group": "The address of the validator group."
        },
        "returns": {
          "_0": "The total amount of CELO to be withdrawn for `group`."
        }
      },
      "scheduledWithdrawalsForGroupAndBeneficiary(address,address)": {
        "params": {
          "beneficiary": "The beneficiary of the withdrawal.",
          "group": "The address of the validator group."
        },
        "returns": {
          "_0": "The total amount of CELO to be withdrawn for `group` by `beneficiary`."
        }
      },
      "setManager(address)": {
        "params": {
          "_manager": "The new manager address."
        }
      },
      "transferOwnership(address)": {
        "details": "Transfers ownership of the contract to a new account (`newOwner`). Can only be called by the current owner."
      },
      "upgradeTo(address)": {
        "details": "Upgrade the implementation of the proxy to `newImplementation`. Calls {_authorizeUpgrade}. Emits an {Upgraded} event."
      },
      "upgradeToAndCall(address,bytes)": {
        "details": "Upgrade the implementation of the proxy to `newImplementation`, and subsequently execute the function call encoded in `data`. Calls {_authorizeUpgrade}. Emits an {Upgraded} event."
      },
      "votePartially(uint256,uint256,uint256,uint256,uint256)": {
        "params": {
          "abstainVotes": "The abstain votes weight.",
          "index": "The index of the proposal ID in `dequeued`.",
          "noVotes": "The no votes weight.",
          "proposalId": "The ID of the proposal to vote on.",
          "yesVotes": "The yes votes weight."
        }
      },
      "withdraw(address,address,address,address,address,address,uint256)": {
        "details": "Only callable by the Staked CELO contract, which must restrict which groups are valid.",
        "params": {
          "beneficiary": "The recipient of the withdrawn CELO.",
          "greaterAfterActiveRevoke": "Used by Election's `revokeActive`. This is the group that is after `group` within the validators sorted LinkedList, or address(0) if there isn't one, after the revoke of active votes has occurred.",
          "greaterAfterPendingRevoke": "Used by Election's `revokePending`. This is the group that is after `group` within the validators sorted LinkedList, or address(0) if there isn't one, after the revoke of pending votes has occurred.",
          "group": "The group to withdraw CELO from.",
          "index": "Used by Election's `revokePending` and `revokeActive`. This is the index of `group` in the this contract's array of groups it is voting for.",
          "lesserAfterActiveRevoke": "Used by Election's `revokeActive`. This is the group that is before `group` within the validators sorted LinkedList, or address(0) if there isn't one, after the revoke of active votes has occurred.",
          "lesserAfterPendingRevoke": "Used by Election's `revokePending`. This is the group that is before `group` within the validators sorted LinkedList, or address(0) if there isn't one, after the revoke of pending votes has occurred."
        },
        "returns": {
          "_0": "The amount of immediately withdrawn CELO that is obtained from scheduledVotes for `group`."
        }
      }
    },
    "title": "A contract that facilitates voting on behalf of StakedCelo.sol.",
    "version": 1
  },
  "userdoc": {
    "errors": {
      "AccountCreationFailed()": [
        {
          "notice": "Used when the creation of an account with Accounts.sol fails."
        }
      ],
      "ActivatePendingVotesFailed(address)": [
        {
          "notice": "Used when activating of pending votes via Election has failed."
        }
      ],
      "CallerNotManager(address)": [
        {
          "notice": "Used when an `onlyManager` function is called by a non-manager."
        }
      ],
      "CeloTransferFailed(address,uint256)": [
        {
          "notice": "Used when unable to transfer CELO."
        }
      ],
      "GroupsAndVotesArrayLengthsMismatch()": [
        {
          "notice": "Used when arrays passed for scheduling votes don't have matching lengths."
        }
      ],
      "InconsistentPendingWithdrawalTimestamps(uint256,uint256)": [
        {
          "notice": "Used when any of the resolved stakedCeloGroupVoter.pendingWithdrawal timestamps do not match the equivalent record in lockedGold.pendingWithdrawals."
        }
      ],
      "InconsistentPendingWithdrawalValues(uint256,uint256)": [
        {
          "notice": "Used when any of the resolved stakedCeloGroupVoter.pendingWithdrawal values do not match the equivalent record in lockedGold.pendingWithdrawals."
        }
      ],
      "InsufficientRevokableVotes(address,uint256)": [
        {
          "notice": "Used when active + pending votes amount is unable to fulfil a withdrawal request amount."
        }
      ],
      "NoScheduledWithdrawal(address,address)": [
        {
          "notice": "There's no amount of scheduled withdrawal for the given beneficiary and group."
        }
      ],
      "NullAddress()": [
        {
          "notice": "Used when a passed address is address(0)."
        }
      ],
      "PendingWithdrawalIndexTooHigh(uint256,uint256)": [
        {
          "notice": "Used when `pendingWithdrawalIndex` is too high for the beneficiary's pending withdrawals array."
        }
      ],
      "RevokeActiveFailed(address,uint256)": [
        {
          "notice": "Used when call to Election.sol's `revokeActiveVotes` fails."
        }
      ],
      "RevokePendingFailed(address,uint256)": [
        {
          "notice": "Used when call to Election.sol's `revokePendingVotes` fails."
        }
      ],
      "TotalVotesMismatch(uint256,uint256)": [
        {
          "notice": "Used when the sum of votes per groups during vote scheduling doesn't match the `msg.value` sent with the call."
        }
      ],
      "VoteFailed(address,uint256)": [
        {
          "notice": "Used when voting via Election has failed."
        }
      ],
      "VotingNotSuccessful(uint256)": [
        {
          "notice": "Voting for proposal was not successfull."
        }
      ],
      "WithdrawalAmountTooHigh(address,uint256,uint256)": [
        {
          "notice": "Used when attempting to schedule more withdrawals than CELO available to the contract."
        }
      ]
    },
    "events": {
      "CeloWithdrawalFinished(address,uint256,uint256)": {
        "notice": "Emitted when a CELO withdrawal completes for `beneficiary`."
      },
      "CeloWithdrawalScheduled(address,address,uint256)": {
        "notice": "Emitted when CELO withdrawal is scheduled for a group."
      },
      "CeloWithdrawalStarted(address,address,uint256)": {
        "notice": "Emitted when CELO withdrawal kicked off for group. Immediate withdrawals are not included in this event, but can be identified by a GoldToken.sol transfer from this contract."
      },
      "ManagerSet(address)": {
        "notice": "Emitted when the manager is initially set or later modified."
      },
      "VotesScheduled(address,uint256)": {
        "notice": "Emitted when CELO is scheduled for voting for a given group."
      }
    },
    "kind": "user",
    "methods": {
      "activateAndVote(address,address,address)": {
        "notice": "Activates any activatable pending votes for group, and locks & votes any unlocked CELO for group."
      },
      "constructor": {
        "notice": "Empty constructor for proxy implementation, `initializer` modifer ensures the implementation gets initialized."
      },
      "finishPendingWithdrawal(address,uint256,uint256)": {
        "notice": "Finishes a pending withdrawal created as a result of a `withdrawCelo` call, claiming CELO after the `unlockingPeriod` defined in LockedGold.sol."
      },
      "getCeloForGroup(address)": {
        "notice": "Returns the total amount of CELO directed towards `group`. This is the Unlocked CELO balance for `group` plus the combined amount in pending and active votes made by this contract."
      },
      "getNumberPendingWithdrawals(address)": {
        "notice": "Returns the number of pending withdrawals for a beneficiary."
      },
      "getPendingWithdrawal(address,uint256)": {
        "notice": "Returns a pending withdrawals for a beneficiary."
      },
      "getPendingWithdrawals(address)": {
        "notice": "Returns the pending withdrawals for a beneficiary."
      },
      "getTotalCelo()": {
        "notice": "Gets the total amount of CELO this contract controls. This is the unlocked CELO balance of the contract plus the amount of LockedGold for this contract, which included unvoting and voting LockedGold."
      },
      "getVersionNumber()": {
        "notice": "Returns the storage, major, minor, and patch version of the contract."
      },
      "pendingWithdrawals(address,uint256)": {
        "notice": "Keyed by beneficiary address, the related array of pending withdrawals. See `PendingWithdrawal` for more info."
      },
      "registry()": {
        "notice": "The Registry."
      },
      "scheduleVotes(address[],uint256[])": {
        "notice": "Deposits CELO sent via msg.value as unlocked CELO intended as votes for groups."
      },
      "scheduleWithdrawals(address,address[],uint256[])": {
        "notice": "Schedule a list of withdrawals to be refunded to a beneficiary."
      },
      "scheduledVotesForGroup(address)": {
        "notice": "Returns the total amount of CELO that's scheduled to vote for a group."
      },
      "scheduledWithdrawalsForGroup(address)": {
        "notice": "Returns the total amount of CELO that's scheduled to be withdrawn for a group."
      },
      "scheduledWithdrawalsForGroupAndBeneficiary(address,address)": {
        "notice": "Returns the total amount of CELO that's scheduled to be withdrawn for a group scoped by a beneficiary."
      },
      "setManager(address)": {
        "notice": "Sets the manager address."
      },
      "totalScheduledWithdrawals()": {
        "notice": "Total amount of CELO scheduled to be withdrawn from all groups by all beneficiaries."
      },
      "votePartially(uint256,uint256,uint256,uint256,uint256)": {
        "notice": "Votes on a proposal in the referendum stage."
      },
      "withdraw(address,address,address,address,address,address,uint256)": {
        "notice": "Starts withdrawal of CELO from `group`. If there is any unlocked CELO for the group, that CELO is used for immediate withdrawal. Otherwise, CELO is taken from pending and active votes, which are subject to the unlock period of LockedGold.sol."
      }
    },
    "notice": "This contract depends on the Manager to decide how to distribute votes and how to keep track of ownership of CELO voted via this contract.",
    "version": 1
  },
  "storageLayout": {
    "storage": [
      {
        "astId": 130,
        "contract": "contracts/Account.sol:Account",
        "label": "_initialized",
        "offset": 0,
        "slot": "0",
        "type": "t_bool"
      },
      {
        "astId": 133,
        "contract": "contracts/Account.sol:Account",
        "label": "_initializing",
        "offset": 1,
        "slot": "0",
        "type": "t_bool"
      },
      {
        "astId": 1197,
        "contract": "contracts/Account.sol:Account",
        "label": "__gap",
        "offset": 0,
        "slot": "1",
        "type": "t_array(t_uint256)50_storage"
      },
      {
        "astId": 10,
        "contract": "contracts/Account.sol:Account",
        "label": "_owner",
        "offset": 0,
        "slot": "51",
        "type": "t_address"
      },
      {
        "astId": 122,
        "contract": "contracts/Account.sol:Account",
        "label": "__gap",
        "offset": 0,
        "slot": "52",
        "type": "t_array(t_uint256)49_storage"
      },
      {
        "astId": 10777,
        "contract": "contracts/Account.sol:Account",
        "label": "registry",
        "offset": 0,
        "slot": "101",
        "type": "t_contract(IRegistry)11786"
      },
      {
        "astId": 5271,
        "contract": "contracts/Account.sol:Account",
        "label": "manager",
        "offset": 0,
        "slot": "102",
        "type": "t_address"
      },
      {
        "astId": 4089,
        "contract": "contracts/Account.sol:Account",
        "label": "pendingWithdrawals",
        "offset": 0,
        "slot": "103",
        "type": "t_mapping(t_address,t_array(t_struct(PendingWithdrawal)4073_storage)dyn_storage)"
      },
      {
        "astId": 4095,
        "contract": "contracts/Account.sol:Account",
        "label": "scheduledVotes",
        "offset": 0,
        "slot": "104",
        "type": "t_mapping(t_address,t_struct(ScheduledVotes)4082_storage)"
      },
      {
        "astId": 4098,
        "contract": "contracts/Account.sol:Account",
        "label": "totalScheduledWithdrawals",
        "offset": 0,
        "slot": "105",
        "type": "t_uint256"
      }
    ],
    "types": {
      "t_address": {
        "encoding": "inplace",
        "label": "address",
        "numberOfBytes": "20"
      },
      "t_array(t_struct(PendingWithdrawal)4073_storage)dyn_storage": {
        "base": "t_struct(PendingWithdrawal)4073_storage",
        "encoding": "dynamic_array",
        "label": "struct Account.PendingWithdrawal[]",
        "numberOfBytes": "32"
      },
      "t_array(t_uint256)49_storage": {
        "base": "t_uint256",
        "encoding": "inplace",
        "label": "uint256[49]",
        "numberOfBytes": "1568"
      },
      "t_array(t_uint256)50_storage": {
        "base": "t_uint256",
        "encoding": "inplace",
        "label": "uint256[50]",
        "numberOfBytes": "1600"
      },
      "t_bool": {
        "encoding": "inplace",
        "label": "bool",
        "numberOfBytes": "1"
      },
      "t_contract(IRegistry)11786": {
        "encoding": "inplace",
        "label": "contract IRegistry",
        "numberOfBytes": "20"
      },
      "t_mapping(t_address,t_array(t_struct(PendingWithdrawal)4073_storage)dyn_storage)": {
        "encoding": "mapping",
        "key": "t_address",
        "label": "mapping(address => struct Account.PendingWithdrawal[])",
        "numberOfBytes": "32",
        "value": "t_array(t_struct(PendingWithdrawal)4073_storage)dyn_storage"
      },
      "t_mapping(t_address,t_struct(ScheduledVotes)4082_storage)": {
        "encoding": "mapping",
        "key": "t_address",
        "label": "mapping(address => struct Account.ScheduledVotes)",
        "numberOfBytes": "32",
        "value": "t_struct(ScheduledVotes)4082_storage"
      },
      "t_mapping(t_address,t_uint256)": {
        "encoding": "mapping",
        "key": "t_address",
        "label": "mapping(address => uint256)",
        "numberOfBytes": "32",
        "value": "t_uint256"
      },
      "t_struct(PendingWithdrawal)4073_storage": {
        "encoding": "inplace",
        "label": "struct Account.PendingWithdrawal",
        "members": [
          {
            "astId": 4070,
            "contract": "contracts/Account.sol:Account",
            "label": "value",
            "offset": 0,
            "slot": "0",
            "type": "t_uint256"
          },
          {
            "astId": 4072,
            "contract": "contracts/Account.sol:Account",
            "label": "timestamp",
            "offset": 0,
            "slot": "1",
            "type": "t_uint256"
          }
        ],
        "numberOfBytes": "64"
      },
      "t_struct(ScheduledVotes)4082_storage": {
        "encoding": "inplace",
        "label": "struct Account.ScheduledVotes",
        "members": [
          {
            "astId": 4075,
            "contract": "contracts/Account.sol:Account",
            "label": "toVote",
            "offset": 0,
            "slot": "0",
            "type": "t_uint256"
          },
          {
            "astId": 4077,
            "contract": "contracts/Account.sol:Account",
            "label": "toWithdraw",
            "offset": 0,
            "slot": "1",
            "type": "t_uint256"
          },
          {
            "astId": 4081,
            "contract": "contracts/Account.sol:Account",
            "label": "toWithdrawFor",
            "offset": 0,
            "slot": "2",
            "type": "t_mapping(t_address,t_uint256)"
          }
        ],
        "numberOfBytes": "96"
      },
      "t_uint256": {
        "encoding": "inplace",
        "label": "uint256",
        "numberOfBytes": "32"
      }
    }
  }
}