{
  "address": "0x3b1Ab7647B80BCe21b3218F92107204fF8DF5a41",
  "abi": [
    {
      "inputs": [],
      "stateMutability": "nonpayable",
      "type": "constructor"
    },
    {
      "inputs": [],
      "name": "AddressZeroNotAllowed",
      "type": "error"
    },
    {
      "inputs": [
        {
          "internalType": "address",
          "name": "caller",
          "type": "address"
        }
      ],
      "name": "CallerNotManager",
      "type": "error"
    },
    {
      "inputs": [
        {
          "internalType": "address",
          "name": "caller",
          "type": "address"
        }
      ],
      "name": "CallerNotManagerNorStrategy",
      "type": "error"
    },
    {
      "inputs": [
        {
          "internalType": "address",
          "name": "group",
          "type": "address"
        }
      ],
      "name": "GroupAlreadyAdded",
      "type": "error"
    },
    {
      "inputs": [
        {
          "internalType": "address",
          "name": "group",
          "type": "address"
        }
      ],
      "name": "GroupNotActivatable",
      "type": "error"
    },
    {
      "inputs": [
        {
          "internalType": "address",
          "name": "group",
          "type": "address"
        }
      ],
      "name": "GroupNotActive",
      "type": "error"
    },
    {
      "inputs": [
        {
          "internalType": "address",
          "name": "group",
          "type": "address"
        }
      ],
      "name": "GroupNotEligible",
      "type": "error"
    },
    {
      "inputs": [
        {
          "internalType": "address",
          "name": "group",
          "type": "address"
        }
      ],
      "name": "HealthyGroup",
      "type": "error"
    },
    {
      "inputs": [
        {
          "internalType": "address",
          "name": "group",
          "type": "address"
        }
      ],
      "name": "InvalidFromGroup",
      "type": "error"
    },
    {
      "inputs": [
        {
          "internalType": "address",
          "name": "group",
          "type": "address"
        }
      ],
      "name": "InvalidToGroup",
      "type": "error"
    },
    {
      "inputs": [],
      "name": "MinimumCountOfActiveGroupsReached",
      "type": "error"
    },
    {
      "inputs": [],
      "name": "NoActiveGroups",
      "type": "error"
    },
    {
      "inputs": [],
      "name": "NotAbleToDistributeVotes",
      "type": "error"
    },
    {
      "inputs": [],
      "name": "NotUnsortedGroup",
      "type": "error"
    },
    {
      "inputs": [],
      "name": "OnlyPauser",
      "type": "error"
    },
    {
      "inputs": [],
      "name": "Paused",
      "type": "error"
    },
    {
      "inputs": [
        {
          "internalType": "address",
          "name": "group",
          "type": "address"
        },
        {
          "internalType": "uint256",
          "name": "actualCelo",
          "type": "uint256"
        },
        {
          "internalType": "uint256",
          "name": "expectedCelo",
          "type": "uint256"
        }
      ],
      "name": "RebalanceEnoughStCelo",
      "type": "error"
    },
    {
      "inputs": [
        {
          "internalType": "address",
          "name": "group",
          "type": "address"
        },
        {
          "internalType": "uint256",
          "name": "actualCelo",
          "type": "uint256"
        },
        {
          "internalType": "uint256",
          "name": "expectedCelo",
          "type": "uint256"
        }
      ],
      "name": "RebalanceNoExtraStCelo",
      "type": "error"
    },
    {
      "anonymous": false,
      "inputs": [
        {
          "indexed": false,
          "internalType": "address",
          "name": "previousAdmin",
          "type": "address"
        },
        {
          "indexed": false,
          "internalType": "address",
          "name": "newAdmin",
          "type": "address"
        }
      ],
      "name": "AdminChanged",
      "type": "event"
    },
    {
      "anonymous": false,
      "inputs": [
        {
          "indexed": true,
          "internalType": "address",
          "name": "beacon",
          "type": "address"
        }
      ],
      "name": "BeaconUpgraded",
      "type": "event"
    },
    {
      "anonymous": false,
      "inputs": [],
      "name": "ContractPaused",
      "type": "event"
    },
    {
      "anonymous": false,
      "inputs": [],
      "name": "ContractUnpaused",
      "type": "event"
    },
    {
      "anonymous": false,
      "inputs": [
        {
          "indexed": true,
          "internalType": "address",
          "name": "group",
          "type": "address"
        }
      ],
      "name": "GroupActivated",
      "type": "event"
    },
    {
      "anonymous": false,
      "inputs": [
        {
          "indexed": true,
          "internalType": "address",
          "name": "group",
          "type": "address"
        }
      ],
      "name": "GroupRemoved",
      "type": "event"
    },
    {
      "anonymous": false,
      "inputs": [
        {
          "indexed": true,
          "internalType": "address",
          "name": "manager",
          "type": "address"
        }
      ],
      "name": "ManagerSet",
      "type": "event"
    },
    {
      "anonymous": false,
      "inputs": [
        {
          "indexed": true,
          "internalType": "address",
          "name": "previousOwner",
          "type": "address"
        },
        {
          "indexed": true,
          "internalType": "address",
          "name": "newOwner",
          "type": "address"
        }
      ],
      "name": "OwnershipTransferred",
      "type": "event"
    },
    {
      "anonymous": false,
      "inputs": [
        {
          "indexed": false,
          "internalType": "address",
          "name": "pauser",
          "type": "address"
        }
      ],
      "name": "PauserSet",
      "type": "event"
    },
    {
      "anonymous": false,
      "inputs": [
        {
          "indexed": false,
          "internalType": "bool",
          "name": "update",
          "type": "bool"
        }
      ],
      "name": "SortedFlagUpdated",
      "type": "event"
    },
    {
      "anonymous": false,
      "inputs": [
        {
          "indexed": true,
          "internalType": "address",
          "name": "implementation",
          "type": "address"
        }
      ],
      "name": "Upgraded",
      "type": "event"
    },
    {
      "inputs": [],
      "name": "PAUSED_POSITION",
      "outputs": [
        {
          "internalType": "bytes32",
          "name": "",
          "type": "bytes32"
        }
      ],
      "stateMutability": "view",
      "type": "function"
    },
    {
      "inputs": [],
      "name": "PAUSER_POSITION",
      "outputs": [
        {
          "internalType": "bytes32",
          "name": "",
          "type": "bytes32"
        }
      ],
      "stateMutability": "view",
      "type": "function"
    },
    {
      "inputs": [],
      "name": "account",
      "outputs": [
        {
          "internalType": "contract IAccount",
          "name": "",
          "type": "address"
        }
      ],
      "stateMutability": "view",
      "type": "function"
    },
    {
      "inputs": [],
      "name": "activatableGroupsCount",
      "outputs": [
        {
          "internalType": "uint256",
          "name": "",
          "type": "uint256"
        }
      ],
      "stateMutability": "view",
      "type": "function"
    },
    {
      "inputs": [
        {
          "internalType": "address",
          "name": "group",
          "type": "address"
        },
        {
          "internalType": "address",
          "name": "lesser",
          "type": "address"
        },
        {
          "internalType": "address",
          "name": "greater",
          "type": "address"
        }
      ],
      "name": "activateGroup",
      "outputs": [],
      "stateMutability": "nonpayable",
      "type": "function"
    },
    {
      "inputs": [
        {
          "internalType": "address",
          "name": "group",
          "type": "address"
        }
      ],
      "name": "addActivatableGroup",
      "outputs": [],
      "stateMutability": "nonpayable",
      "type": "function"
    },
    {
      "inputs": [
        {
          "internalType": "address",
          "name": "group",
          "type": "address"
        }
      ],
      "name": "deactivateGroup",
      "outputs": [],
      "stateMutability": "nonpayable",
      "type": "function"
    },
    {
      "inputs": [
        {
          "internalType": "address",
          "name": "group",
          "type": "address"
        }
      ],
      "name": "deactivateUnhealthyGroup",
      "outputs": [],
      "stateMutability": "nonpayable",
      "type": "function"
    },
    {
      "inputs": [
        {
          "internalType": "uint256",
          "name": "celoAmount",
          "type": "uint256"
        },
        {
          "internalType": "uint256",
          "name": "stCeloAmount",
          "type": "uint256"
        },
        {
          "internalType": "address",
          "name": "depositGroupToIgnore",
          "type": "address"
        }
      ],
      "name": "generateDepositVoteDistribution",
      "outputs": [
        {
          "internalType": "address[]",
          "name": "finalGroups",
          "type": "address[]"
        },
        {
          "internalType": "uint256[]",
          "name": "finalVotes",
          "type": "uint256[]"
        }
      ],
      "stateMutability": "nonpayable",
      "type": "function"
    },
    {
      "inputs": [
        {
          "internalType": "uint256",
          "name": "celoAmount",
          "type": "uint256"
        }
      ],
      "name": "generateWithdrawalVoteDistribution",
      "outputs": [
        {
          "internalType": "address[]",
          "name": "finalGroups",
          "type": "address[]"
        },
        {
          "internalType": "uint256[]",
          "name": "finalVotes",
          "type": "uint256[]"
        }
      ],
      "stateMutability": "nonpayable",
      "type": "function"
    },
    {
      "inputs": [
        {
          "internalType": "uint256",
          "name": "index",
          "type": "uint256"
        }
      ],
      "name": "getActivatableGroupAt",
      "outputs": [
        {
          "internalType": "address",
          "name": "",
          "type": "address"
        }
      ],
      "stateMutability": "view",
      "type": "function"
    },
    {
      "inputs": [
        {
          "internalType": "address",
          "name": "group",
          "type": "address"
        }
      ],
      "name": "getExpectedAndActualStCeloForGroup",
      "outputs": [
        {
          "internalType": "uint256",
          "name": "expectedStCelo",
          "type": "uint256"
        },
        {
          "internalType": "uint256",
          "name": "actualStCelo",
          "type": "uint256"
        }
      ],
      "stateMutability": "view",
      "type": "function"
    },
    {
      "inputs": [
        {
          "internalType": "address",
          "name": "group",
          "type": "address"
        }
      ],
      "name": "getGroupPreviousAndNext",
      "outputs": [
        {
          "internalType": "address",
          "name": "previousAddress",
          "type": "address"
        },
        {
          "internalType": "address",
          "name": "nextAddress",
          "type": "address"
        }
      ],
      "stateMutability": "view",
      "type": "function"
    },
    {
      "inputs": [],
      "name": "getGroupsHead",
      "outputs": [
        {
          "internalType": "address",
          "name": "head",
          "type": "address"
        },
        {
          "internalType": "address",
          "name": "previousAddress",
          "type": "address"
        }
      ],
      "stateMutability": "view",
      "type": "function"
    },
    {
      "inputs": [],
      "name": "getGroupsTail",
      "outputs": [
        {
          "internalType": "address",
          "name": "tail",
          "type": "address"
        },
        {
          "internalType": "address",
          "name": "nextAddress",
          "type": "address"
        }
      ],
      "stateMutability": "view",
      "type": "function"
    },
    {
      "inputs": [],
      "name": "getNumberOfGroups",
      "outputs": [
        {
          "internalType": "uint256",
          "name": "",
          "type": "uint256"
        }
      ],
      "stateMutability": "view",
      "type": "function"
    },
    {
      "inputs": [],
      "name": "getNumberOfUnsortedGroups",
      "outputs": [
        {
          "internalType": "uint256",
          "name": "",
          "type": "uint256"
        }
      ],
      "stateMutability": "view",
      "type": "function"
    },
    {
      "inputs": [
        {
          "internalType": "uint256",
          "name": "index",
          "type": "uint256"
        }
      ],
      "name": "getUnsortedGroupAt",
      "outputs": [
        {
          "internalType": "address",
          "name": "",
          "type": "address"
        }
      ],
      "stateMutability": "view",
      "type": "function"
    },
    {
      "inputs": [],
      "name": "getVersionNumber",
      "outputs": [
        {
          "internalType": "uint256",
          "name": "",
          "type": "uint256"
        },
        {
          "internalType": "uint256",
          "name": "",
          "type": "uint256"
        },
        {
          "internalType": "uint256",
          "name": "",
          "type": "uint256"
        },
        {
          "internalType": "uint256",
          "name": "",
          "type": "uint256"
        }
      ],
      "stateMutability": "pure",
      "type": "function"
    },
    {
      "inputs": [],
      "name": "groupHealth",
      "outputs": [
        {
          "internalType": "contract IGroupHealth",
          "name": "",
          "type": "address"
        }
      ],
      "stateMutability": "view",
      "type": "function"
    },
    {
      "inputs": [
        {
          "internalType": "address",
          "name": "_owner",
          "type": "address"
        },
        {
          "internalType": "address",
          "name": "_manager",
          "type": "address"
        }
      ],
      "name": "initialize",
      "outputs": [],
      "stateMutability": "nonpayable",
      "type": "function"
    },
    {
      "inputs": [
        {
          "internalType": "address",
          "name": "group",
          "type": "address"
        }
      ],
      "name": "isActive",
      "outputs": [
        {
          "internalType": "bool",
          "name": "",
          "type": "bool"
        }
      ],
      "stateMutability": "view",
      "type": "function"
    },
    {
      "inputs": [],
      "name": "isPaused",
      "outputs": [
        {
          "internalType": "bool",
          "name": "",
          "type": "bool"
        }
      ],
      "stateMutability": "view",
      "type": "function"
    },
    {
      "inputs": [],
      "name": "manager",
      "outputs": [
        {
          "internalType": "address",
          "name": "",
          "type": "address"
        }
      ],
      "stateMutability": "view",
      "type": "function"
    },
    {
      "inputs": [],
      "name": "maxGroupsToDistributeTo",
      "outputs": [
        {
          "internalType": "uint256",
          "name": "",
          "type": "uint256"
        }
      ],
      "stateMutability": "view",
      "type": "function"
    },
    {
      "inputs": [],
      "name": "maxGroupsToWithdrawFrom",
      "outputs": [
        {
          "internalType": "uint256",
          "name": "",
          "type": "uint256"
        }
      ],
      "stateMutability": "view",
      "type": "function"
    },
    {
      "inputs": [],
      "name": "minCountOfActiveGroups",
      "outputs": [
        {
          "internalType": "uint256",
          "name": "",
          "type": "uint256"
        }
      ],
      "stateMutability": "view",
      "type": "function"
    },
    {
      "inputs": [],
      "name": "owner",
      "outputs": [
        {
          "internalType": "address",
          "name": "",
          "type": "address"
        }
      ],
      "stateMutability": "view",
      "type": "function"
    },
    {
      "inputs": [],
      "name": "pause",
      "outputs": [],
      "stateMutability": "nonpayable",
      "type": "function"
    },
    {
      "inputs": [],
      "name": "pauser",
      "outputs": [
        {
          "internalType": "address",
          "name": "",
          "type": "address"
        }
      ],
      "stateMutability": "view",
      "type": "function"
    },
    {
      "inputs": [
        {
          "internalType": "address",
          "name": "fromGroup",
          "type": "address"
        },
        {
          "internalType": "address",
          "name": "toGroup",
          "type": "address"
        }
      ],
      "name": "rebalance",
      "outputs": [],
      "stateMutability": "nonpayable",
      "type": "function"
    },
    {
      "inputs": [],
      "name": "renounceOwnership",
      "outputs": [],
      "stateMutability": "nonpayable",
      "type": "function"
    },
    {
      "inputs": [
        {
          "internalType": "address",
          "name": "_account",
          "type": "address"
        },
        {
          "internalType": "address",
          "name": "_groupHealth",
          "type": "address"
        },
        {
          "internalType": "address",
          "name": "_specificGroupStrategy",
          "type": "address"
        }
      ],
      "name": "setDependencies",
      "outputs": [],
      "stateMutability": "nonpayable",
      "type": "function"
    },
    {
      "inputs": [
        {
          "internalType": "address",
          "name": "_manager",
          "type": "address"
        }
      ],
      "name": "setManager",
      "outputs": [],
      "stateMutability": "nonpayable",
      "type": "function"
    },
    {
      "inputs": [
        {
          "internalType": "uint256",
          "name": "minCount",
          "type": "uint256"
        }
      ],
      "name": "setMinCountOfActiveGroups",
      "outputs": [],
      "stateMutability": "nonpayable",
      "type": "function"
    },
    {
      "inputs": [],
      "name": "setPauser",
      "outputs": [],
      "stateMutability": "nonpayable",
      "type": "function"
    },
    {
      "inputs": [
        {
          "internalType": "uint256",
          "name": "distributeTo",
          "type": "uint256"
        },
        {
          "internalType": "uint256",
          "name": "withdrawFrom",
          "type": "uint256"
        },
        {
          "internalType": "uint256",
          "name": "loopLimit",
          "type": "uint256"
        }
      ],
      "name": "setSortingParams",
      "outputs": [],
      "stateMutability": "nonpayable",
      "type": "function"
    },
    {
      "inputs": [],
      "name": "sorted",
      "outputs": [
        {
          "internalType": "bool",
          "name": "",
          "type": "bool"
        }
      ],
      "stateMutability": "view",
      "type": "function"
    },
    {
      "inputs": [],
      "name": "specificGroupStrategy",
      "outputs": [
        {
          "internalType": "contract ISpecificGroupStrategy",
          "name": "",
          "type": "address"
        }
      ],
      "stateMutability": "view",
      "type": "function"
    },
    {
      "inputs": [
        {
          "internalType": "address",
          "name": "",
          "type": "address"
        }
      ],
      "name": "stCeloInGroup",
      "outputs": [
        {
          "internalType": "uint256",
          "name": "",
          "type": "uint256"
        }
      ],
      "stateMutability": "view",
      "type": "function"
    },
    {
      "inputs": [],
      "name": "totalStCeloInStrategy",
      "outputs": [
        {
          "internalType": "uint256",
          "name": "",
          "type": "uint256"
        }
      ],
      "stateMutability": "view",
      "type": "function"
    },
    {
      "inputs": [
        {
          "internalType": "address",
          "name": "newOwner",
          "type": "address"
        }
      ],
      "name": "transferOwnership",
      "outputs": [],
      "stateMutability": "nonpayable",
      "type": "function"
    },
    {
      "inputs": [],
      "name": "unpause",
      "outputs": [],
      "stateMutability": "nonpayable",
      "type": "function"
    },
    {
      "inputs": [
        {
          "internalType": "address",
          "name": "group",
          "type": "address"
        },
        {
          "internalType": "address",
          "name": "lesserKey",
          "type": "address"
        },
        {
          "internalType": "address",
          "name": "greaterKey",
          "type": "address"
        }
      ],
      "name": "updateActiveGroupOrder",
      "outputs": [],
      "stateMutability": "nonpayable",
      "type": "function"
    },
    {
      "inputs": [
        {
          "internalType": "address",
          "name": "group",
          "type": "address"
        },
        {
          "internalType": "uint256",
          "name": "stCeloAmount",
          "type": "uint256"
        },
        {
          "internalType": "bool",
          "name": "add",
          "type": "bool"
        }
      ],
      "name": "updateGroupStCelo",
      "outputs": [],
      "stateMutability": "nonpayable",
      "type": "function"
    },
    {
      "inputs": [
        {
          "internalType": "address",
          "name": "newImplementation",
          "type": "address"
        }
      ],
      "name": "upgradeTo",
      "outputs": [],
      "stateMutability": "nonpayable",
      "type": "function"
    },
    {
      "inputs": [
        {
          "internalType": "address",
          "name": "newImplementation",
          "type": "address"
        },
        {
          "internalType": "bytes",
          "name": "data",
          "type": "bytes"
        }
      ],
      "name": "upgradeToAndCall",
      "outputs": [],
      "stateMutability": "payable",
      "type": "function"
    }
  ],
  "transactionHash": "0xed17931711f31a6f6836f28333c02bf3220328fbc1805d3242468c22d245a747",
  "args": [],
  "numDeployments": 3,
  "solcInputHash": "c85bd7fabd1e1e49845930828b2e63eb",
  "bytecode": "0x60a06040523073ffffffffffffffffffffffffffffffffffffffff1660809073ffffffffffffffffffffffffffffffffffffffff168152503480156200004457600080fd5b50600060019054906101000a900460ff166200006f5760008054906101000a900460ff161562000080565b6200007f6200013c60201b60201c565b5b620000c2576040517f08c379a0000000000000000000000000000000000000000000000000000000008152600401620000b99062000204565b60405180910390fd5b60008060019054906101000a900460ff16159050801562000113576001600060016101000a81548160ff02191690831515021790555060016000806101000a81548160ff0219169083151502179055505b8015620001355760008060016101000a81548160ff0219169083151502179055505b5062000226565b600062000154306200015a60201b620032fd1760201c565b15905090565b6000808273ffffffffffffffffffffffffffffffffffffffff163b119050919050565b600082825260208201905092915050565b7f496e697469616c697a61626c653a20636f6e747261637420697320616c72656160008201527f647920696e697469616c697a6564000000000000000000000000000000000000602082015250565b6000620001ec602e836200017d565b9150620001f9826200018e565b604082019050919050565b600060208201905081810360008301526200021f81620001dd565b9050919050565b60805161630a6200025760003960008181610b8101528181610c100152818161192601526119b5015261630a6000f3fe6080604052600436106102885760003560e01c80638456cb591161015a578063b364174e116100c1578063cf009f7a1161007a578063cf009f7a14610994578063d0ebdbe7146109bf578063d2a2ce5d146109e8578063dcdab02a14610a13578063eccacf7f14610a3c578063f2fde38b14610a6757610288565b8063b364174e1461086f578063b52d326c146108ad578063b95de2d6146108d6578063be982c31146108ff578063c1fa411a1461093d578063c5728c831461096857610288565b80639468ba0e116101135780639468ba0e1461075d5780639f8a13d7146107885780639fd0506d146107c5578063a3f16ef1146107f0578063afc975781461081b578063b187bd261461084457610288565b80638456cb591461066157806385a92cb714610678578063885640db146106b55780638b0a063d146106de5780638da5cb5b1461070957806393739a931461073457610288565b8063481c6a75116101fe5780635dab2420116101b75780635dab2420146105765780636d232345146105a15780636fe958d8146105de578063715018a614610607578063724e61d01461061e5780637c0d530f1461064a57610288565b8063481c6a7514610484578063485cc955146104af5780634f1ef286146104d85780634fc517eb146104f45780635145b0ad1461051f57806354255be01461054857610288565b80632e3cde9f116102505780632e3cde9f146103895780633659cfe6146103b257806336691a41146103db5780633cbf5872146104195780633f4ba83a1461044457806341b9179f1461045b57610288565b80630c29aab21461028d5780630f8f0fcc146102b857806325b21f6b146102f55780632863f68c146103205780632de2c5ac1461035e575b600080fd5b34801561029957600080fd5b506102a2610a90565b6040516102af9190614f86565b60405180910390f35b3480156102c457600080fd5b506102df60048036038101906102da9190614fe1565b610a96565b6040516102ec919061504f565b60405180910390f35b34801561030157600080fd5b5061030a610ab3565b6040516103179190614f86565b60405180910390f35b34801561032c57600080fd5b5061034760048036038101906103429190615096565b610ab9565b6040516103559291906150c3565b60405180910390f35b34801561036a57600080fd5b50610373610ae0565b6040516103809190615107565b60405180910390f35b34801561039557600080fd5b506103b060048036038101906103ab919061514e565b610af3565b005b3480156103be57600080fd5b506103d960048036038101906103d49190615096565b610b7f565b005b3480156103e757600080fd5b5061040260048036038101906103fd9190614fe1565b610d08565b60405161041092919061531d565b60405180910390f35b34801561042557600080fd5b5061042e61162d565b60405161043b919061536d565b60405180910390f35b34801561045057600080fd5b50610459611663565b005b34801561046757600080fd5b50610482600480360381019061047d9190614fe1565b611707565b005b34801561049057600080fd5b5061049961178d565b6040516104a6919061504f565b60405180910390f35b3480156104bb57600080fd5b506104d660048036038101906104d19190615388565b6117b3565b005b6104f260048036038101906104ed919061550e565b611924565b005b34801561050057600080fd5b50610509611a61565b6040516105169190614f86565b60405180910390f35b34801561052b57600080fd5b506105466004803603810190610541919061556a565b611a67565b005b34801561055457600080fd5b5061055d611c2f565b60405161056d94939291906155bd565b60405180910390f35b34801561058257600080fd5b5061058b611c4a565b6040516105989190615661565b60405180910390f35b3480156105ad57600080fd5b506105c860048036038101906105c39190614fe1565b611c70565b6040516105d5919061504f565b60405180910390f35b3480156105ea57600080fd5b5061060560048036038101906106009190615388565b611c8d565b005b34801561061357600080fd5b5061061c611fd3565b005b34801561062a57600080fd5b5061063361205b565b6040516106419291906150c3565b60405180910390f35b34801561065657600080fd5b5061065f6120fb565b005b34801561066d57600080fd5b50610676612189565b005b34801561068457600080fd5b5061069f600480360381019061069a9190615096565b61222d565b6040516106ac9190614f86565b60405180910390f35b3480156106c157600080fd5b506106dc60048036038101906106d7919061567c565b612245565b005b3480156106ea57600080fd5b506106f36122db565b6040516107009190614f86565b60405180910390f35b34801561071557600080fd5b5061071e6122ec565b60405161072b919061504f565b60405180910390f35b34801561074057600080fd5b5061075b60048036038101906107569190615096565b612316565b005b34801561076957600080fd5b5061077261239e565b60405161077f919061536d565b60405180910390f35b34801561079457600080fd5b506107af60048036038101906107aa9190615096565b6123d4565b6040516107bc9190615107565b60405180910390f35b3480156107d157600080fd5b506107da61245a565b6040516107e7919061504f565b60405180910390f35b3480156107fc57600080fd5b506108056124a0565b60405161081291906156f0565b60405180910390f35b34801561082757600080fd5b50610842600480360381019061083d919061556a565b6124c6565b005b34801561085057600080fd5b50610859612787565b6040516108669190615107565b60405180910390f35b34801561087b57600080fd5b506108966004803603810190610891919061570b565b6127cd565b6040516108a492919061531d565b60405180910390f35b3480156108b957600080fd5b506108d460048036038101906108cf919061556a565b6128d5565b005b3480156108e257600080fd5b506108fd60048036038101906108f89190615096565b612aee565b005b34801561090b57600080fd5b5061092660048036038101906109219190615096565b612d39565b60405161093492919061575e565b60405180910390f35b34801561094957600080fd5b50610952612ef4565b60405161095f9190614f86565b60405180910390f35b34801561097457600080fd5b5061097d612f76565b60405161098b9291906150c3565b60405180910390f35b3480156109a057600080fd5b506109a9613017565b6040516109b691906157a8565b60405180910390f35b3480156109cb57600080fd5b506109e660048036038101906109e19190615096565b61303d565b005b3480156109f457600080fd5b506109fd6130c5565b604051610a0a9190614f86565b60405180910390f35b348015610a1f57600080fd5b50610a3a6004803603810190610a359190615096565b6130d6565b005b348015610a4857600080fd5b50610a516131ff565b604051610a5e9190614f86565b60405180910390f35b348015610a7357600080fd5b50610a8e6004803603810190610a899190615096565b613205565b005b60715481565b6000610aac82607461332090919063ffffffff16565b9050919050565b60765481565b600080610ad083606661333a90919063ffffffff16565b9091508092508193505050915091565b607360009054906101000a900460ff1681565b610afb613395565b73ffffffffffffffffffffffffffffffffffffffff16610b196122ec565b73ffffffffffffffffffffffffffffffffffffffff1614610b6f576040517f08c379a0000000000000000000000000000000000000000000000000000000008152600401610b6690615820565b60405180910390fd5b610b7a83838361339d565b505050565b7f000000000000000000000000000000000000000000000000000000000000000073ffffffffffffffffffffffffffffffffffffffff163073ffffffffffffffffffffffffffffffffffffffff161415610c0e576040517f08c379a0000000000000000000000000000000000000000000000000000000008152600401610c05906158b2565b60405180910390fd5b7f000000000000000000000000000000000000000000000000000000000000000073ffffffffffffffffffffffffffffffffffffffff16610c4d61348c565b73ffffffffffffffffffffffffffffffffffffffff1614610ca3576040517f08c379a0000000000000000000000000000000000000000000000000000000008152600401610c9a90615944565b60405180910390fd5b610cac816134e3565b610d0581600067ffffffffffffffff811115610ccb57610cca6153e3565b5b6040519080825280601f01601f191660200182016040528015610cfd5781602001600182028036833780820191505090505b506000613562565b50565b6060803373ffffffffffffffffffffffffffffffffffffffff16606560009054906101000a900473ffffffffffffffffffffffffffffffffffffffff1673ffffffffffffffffffffffffffffffffffffffff1614158015610db757503373ffffffffffffffffffffffffffffffffffffffff16606d60009054906101000a900473ffffffffffffffffffffffffffffffffffffffff1673ffffffffffffffffffffffffffffffffffffffff1614155b15610df957336040517f79eaeb2b000000000000000000000000000000000000000000000000000000008152600401610df0919061504f565b60405180910390fd5b6000606673cdC4Ca8C9459eD2367c1bB11b6621fE1CFCab8b26365da149690916040518263ffffffff1660e01b8152600401610e35919061596b565b602060405180830381865af4158015610e52573d6000803e3d6000fd5b505050506040513d601f19601f82011682018060405250810190610e76919061599b565b1415610eae576040517f7818a60e00000000000000000000000000000000000000000000000000000000815260040160405180910390fd5b6000610f36607054606673cdC4Ca8C9459eD2367c1bB11b6621fE1CFCab8b26365da149690916040518263ffffffff1660e01b8152600401610ef0919061596b565b602060405180830381865af4158015610f0d573d6000803e3d6000fd5b505050506040513d601f19601f82011682018060405250810190610f31919061599b565b613733565b905060008167ffffffffffffffff811115610f5457610f536153e3565b5b604051908082528060200260200182016040528015610f825781602001602082028036833780820191505090505b50905060008267ffffffffffffffff811115610fa157610fa06153e3565b5b604051908082528060200260200182016040528015610fcf5781602001602082028036833780820191505090505b5090506000606673cdC4Ca8C9459eD2367c1bB11b6621fE1CFCab8b2630c8f298790916040518263ffffffff1660e01b815260040161100e919061596b565b602060405180830381865af415801561102b573d6000803e3d6000fd5b505050506040513d601f19601f8201168201806040525081019061104f91906159dd565b905060005b8481108015611064575060008814155b801561109d5750600073ffffffffffffffffffffffffffffffffffffffff168273ffffffffffffffffffffffffffffffffffffffff1614155b156114925761122a611224606c60009054906101000a900473ffffffffffffffffffffffffffffffffffffffff1673ffffffffffffffffffffffffffffffffffffffff1663acd201d0856040518263ffffffff1660e01b8152600401611103919061504f565b602060405180830381865afa158015611120573d6000803e3d6000fd5b505050506040513d601f19601f82011682018060405250810190611144919061599b565b606560009054906101000a900473ffffffffffffffffffffffffffffffffffffffff1673ffffffffffffffffffffffffffffffffffffffff16630567847f606e60008873ffffffffffffffffffffffffffffffffffffffff1673ffffffffffffffffffffffffffffffffffffffff168152602001908152602001600020546040518263ffffffff1660e01b81526004016111de9190614f86565b602060405180830381865afa1580156111fb573d6000803e3d6000fd5b505050506040513d601f19601f8201168201806040525081019061121f919061599b565b613733565b89613733565b83828151811061123d5761123c615a0a565b5b6020026020010181815250508184828151811061125d5761125c615a0a565b5b602002602001019073ffffffffffffffffffffffffffffffffffffffff16908173ffffffffffffffffffffffffffffffffffffffff16815250508281815181106112aa576112a9615a0a565b5b6020026020010151886112bd9190615a68565b975061138082606560009054906101000a900473ffffffffffffffffffffffffffffffffffffffff1673ffffffffffffffffffffffffffffffffffffffff1663c494ec1e86858151811061131457611313615a0a565b5b60200260200101516040518263ffffffff1660e01b81526004016113389190614f86565b602060405180830381865afa158015611355573d6000803e3d6000fd5b505050506040513d601f19601f82011682018060405250810190611379919061599b565b600061339d565b6113cb82606e60008573ffffffffffffffffffffffffffffffffffffffff1673ffffffffffffffffffffffffffffffffffffffff16815260200190815260200160002054600061374c565b607360009054906101000a900460ff161561146257606673cdC4Ca8C9459eD2367c1bB11b6621fE1CFCab8b2630c8f298790916040518263ffffffff1660e01b815260040161141a919061596b565b602060405180830381865af4158015611437573d6000803e3d6000fd5b505050506040513d601f19601f8201168201806040525081019061145b91906159dd565b915061147f565b61147682606661333a90919063ffffffff16565b90915050809250505b808061148a90615a9c565b915050611054565b600088146114cc576040517f2e6c1bf900000000000000000000000000000000000000000000000000000000815260040160405180910390fd5b8067ffffffffffffffff8111156114e6576114e56153e3565b5b6040519080825280602002602001820160405280156115145781602001602082028036833780820191505090505b5096508067ffffffffffffffff811115611531576115306153e3565b5b60405190808252806020026020018201604052801561155f5781602001602082028036833780820191505090505b50955060005b81811015611622578481815181106115805761157f615a0a565b5b602002602001015188828151811061159b5761159a615a0a565b5b602002602001019073ffffffffffffffffffffffffffffffffffffffff16908173ffffffffffffffffffffffffffffffffffffffff16815250508381815181106115e8576115e7615a0a565b5b602002602001015187828151811061160357611602615a0a565b5b602002602001018181525050808061161a90615a9c565b915050611565565b505050505050915091565b60017f8f989356aeb576065c8d201815b96ac9c10cf89197a532e428ebd68581557c2360001c61165d9190615a68565b60001b81565b61166b61245a565b73ffffffffffffffffffffffffffffffffffffffff163373ffffffffffffffffffffffffffffffffffffffff16146116cf576040517f75df51dc00000000000000000000000000000000000000000000000000000000815260040160405180910390fd5b6116d96000613a00565b7f0e5e3b3fb504c22cf5c42fa07d521225937514c654007e1f12646f89768d6f9460405160405180910390a1565b61170f613395565b73ffffffffffffffffffffffffffffffffffffffff1661172d6122ec565b73ffffffffffffffffffffffffffffffffffffffff1614611783576040517f08c379a000000000000000000000000000000000000000000000000000000000815260040161177a90615820565b60405180910390fd5b8060768190555050565b606560009054906101000a900473ffffffffffffffffffffffffffffffffffffffff1681565b600060019054906101000a900460ff166117db5760008054906101000a900460ff16156117e4565b6117e3613a3e565b5b611823576040517f08c379a000000000000000000000000000000000000000000000000000000000815260040161181a90615b57565b60405180910390fd5b60008060019054906101000a900460ff161590508015611873576001600060016101000a81548160ff02191690831515021790555060016000806101000a81548160ff0219169083151502179055505b61187c83613a4f565b61188582613b15565b6008606f819055506008607081905550600a6072819055506001607360006101000a81548160ff0219169083151502179055507fb930683f0749189780c4016ec37d019eb0cbbf6550ce7374fac5cfbae93909a7607360009054906101000a900460ff166040516118f69190615107565b60405180910390a1801561191f5760008060016101000a81548160ff0219169083151502179055505b505050565b7f000000000000000000000000000000000000000000000000000000000000000073ffffffffffffffffffffffffffffffffffffffff163073ffffffffffffffffffffffffffffffffffffffff1614156119b3576040517f08c379a00000000000000000000000000000000000000000000000000000000081526004016119aa906158b2565b60405180910390fd5b7f000000000000000000000000000000000000000000000000000000000000000073ffffffffffffffffffffffffffffffffffffffff166119f261348c565b73ffffffffffffffffffffffffffffffffffffffff1614611a48576040517f08c379a0000000000000000000000000000000000000000000000000000000008152600401611a3f90615944565b60405180910390fd5b611a51826134e3565b611a5d82826001613562565b5050565b606f5481565b611a6f612787565b15611aa6576040517f9e87fac800000000000000000000000000000000000000000000000000000000815260040160405180910390fd5b611aba836074613b7090919063ffffffff16565b611af0576040517f0a1f2c0e00000000000000000000000000000000000000000000000000000000815260040160405180910390fd5b606673cdC4Ca8C9459eD2367c1bB11b6621fE1CFCab8b263cab455ae909185606e60008873ffffffffffffffffffffffffffffffffffffffff1673ffffffffffffffffffffffffffffffffffffffff1681526020019081526020016000205486866040518663ffffffff1660e01b8152600401611b71959493929190615b95565b60006040518083038186803b158015611b8957600080fd5b505af4158015611b9d573d6000803e3d6000fd5b50505050611bb5836074613ba090919063ffffffff16565b506000611bc26074613bd0565b1415611c2a576001607360006101000a81548160ff0219169083151502179055507fb930683f0749189780c4016ec37d019eb0cbbf6550ce7374fac5cfbae93909a7607360009054906101000a900460ff16604051611c219190615107565b60405180910390a15b505050565b60008060008060016002600080935093509350935090919293565b606c60009054906101000a900473ffffffffffffffffffffffffffffffffffffffff1681565b6000611c8682607761332090919063ffffffff16565b9050919050565b611c95612787565b15611ccc576040517f9e87fac800000000000000000000000000000000000000000000000000000000815260040160405180910390fd5b606673cdC4Ca8C9459eD2367c1bB11b6621fE1CFCab8b26302f130289091846040518363ffffffff1660e01b8152600401611d08929190615be8565b602060405180830381865af4158015611d25573d6000803e3d6000fd5b505050506040513d601f19601f82011682018060405250810190611d499190615c26565b611d8a57816040517fdc1b434d000000000000000000000000000000000000000000000000000000008152600401611d81919061504f565b60405180910390fd5b606673cdC4Ca8C9459eD2367c1bB11b6621fE1CFCab8b26302f130289091836040518363ffffffff1660e01b8152600401611dc6929190615be8565b602060405180830381865af4158015611de3573d6000803e3d6000fd5b505050506040513d601f19601f82011682018060405250810190611e079190615c26565b611e4857806040517f5a081584000000000000000000000000000000000000000000000000000000008152600401611e3f919061504f565b60405180910390fd5b600080611e5484612d39565b91509150818111611ea0578381836040517f8b0123bf000000000000000000000000000000000000000000000000000000008152600401611e9793929190615c53565b60405180910390fd5b600080611eac85612d39565b91509150818110611ef8578481836040517f84528639000000000000000000000000000000000000000000000000000000008152600401611eef93929190615c53565b60405180910390fd5b6000611f1a8585611f099190615a68565b8385611f159190615a68565b613733565b9050611f288782600061339d565b611f348682600161339d565b611f7f87606e60008a73ffffffffffffffffffffffffffffffffffffffff1673ffffffffffffffffffffffffffffffffffffffff16815260200190815260200160002054600061374c565b611fca86606e60008973ffffffffffffffffffffffffffffffffffffffff1673ffffffffffffffffffffffffffffffffffffffff16815260200190815260200160002054600161374c565b50505050505050565b611fdb613395565b73ffffffffffffffffffffffffffffffffffffffff16611ff96122ec565b73ffffffffffffffffffffffffffffffffffffffff161461204f576040517f08c379a000000000000000000000000000000000000000000000000000000000815260040161204690615820565b60405180910390fd5b6120596000613a4f565b565b600080606673cdC4Ca8C9459eD2367c1bB11b6621fE1CFCab8b2630c8f298790916040518263ffffffff1660e01b8152600401612098919061596b565b602060405180830381865af41580156120b5573d6000803e3d6000fd5b505050506040513d601f19601f820116820180604052508101906120d991906159dd565b91506120ef82606661333a90919063ffffffff16565b90915050809150509091565b612103613395565b73ffffffffffffffffffffffffffffffffffffffff166121216122ec565b73ffffffffffffffffffffffffffffffffffffffff1614612177576040517f08c379a000000000000000000000000000000000000000000000000000000000815260040161216e90615820565b60405180910390fd5b6121876121826122ec565b613be5565b565b61219161245a565b73ffffffffffffffffffffffffffffffffffffffff163373ffffffffffffffffffffffffffffffffffffffff16146121f5576040517f75df51dc00000000000000000000000000000000000000000000000000000000815260040160405180910390fd5b6121ff6001613a00565b7fab35696f06e428ebc5ceba8cd17f8fed287baf43440206d1943af1ee53e6d26760405160405180910390a1565b606e6020528060005260406000206000915090505481565b61224d613395565b73ffffffffffffffffffffffffffffffffffffffff1661226b6122ec565b73ffffffffffffffffffffffffffffffffffffffff16146122c1576040517f08c379a00000000000000000000000000000000000000000000000000000000081526004016122b890615820565b60405180910390fd5b82606f819055508160708190555080607281905550505050565b60006122e76077613bd0565b905090565b6000603360009054906101000a900473ffffffffffffffffffffffffffffffffffffffff16905090565b61231e613395565b73ffffffffffffffffffffffffffffffffffffffff1661233c6122ec565b73ffffffffffffffffffffffffffffffffffffffff1614612392576040517f08c379a000000000000000000000000000000000000000000000000000000000815260040161238990615820565b60405180910390fd5b61239b81613cc1565b50565b60017f29f060ba1cf8d3659516b02281c85dcc3e81b4287766ae4751c0f500688be30f60001c6123ce9190615a68565b60001b81565b6000606673cdC4Ca8C9459eD2367c1bB11b6621fE1CFCab8b26302f130289091846040518363ffffffff1660e01b8152600401612412929190615be8565b602060405180830381865af415801561242f573d6000803e3d6000fd5b505050506040513d601f19601f820116820180604052508101906124539190615c26565b9050919050565b600080600060017f29f060ba1cf8d3659516b02281c85dcc3e81b4287766ae4751c0f500688be30f60001c61248f9190615a68565b60001b905080549150819250505090565b606b60009054906101000a900473ffffffffffffffffffffffffffffffffffffffff1681565b6124da836077613b7090919063ffffffff16565b61251b57826040517f6aab7a0b000000000000000000000000000000000000000000000000000000008152600401612512919061504f565b60405180910390fd5b606b60009054906101000a900473ffffffffffffffffffffffffffffffffffffffff1673ffffffffffffffffffffffffffffffffffffffff1663ac8f4425846040518263ffffffff1660e01b8152600401612576919061504f565b602060405180830381865afa158015612593573d6000803e3d6000fd5b505050506040513d601f19601f820116820180604052508101906125b79190615c26565b6125f857826040517f10a7bc6b0000000000000000000000000000000000000000000000000000000081526004016125ef919061504f565b60405180910390fd5b606673cdC4Ca8C9459eD2367c1bB11b6621fE1CFCab8b26302f130289091856040518363ffffffff1660e01b8152600401612634929190615be8565b602060405180830381865af4158015612651573d6000803e3d6000fd5b505050506040513d601f19601f820116820180604052508101906126759190615c26565b156126b757826040517fbd133eee0000000000000000000000000000000000000000000000000000000081526004016126ae919061504f565b60405180910390fd5b606673cdC4Ca8C9459eD2367c1bB11b6621fE1CFCab8b2632dedbbf0909185600086866040518663ffffffff1660e01b81526004016126fa959493929190615cc5565b60006040518083038186803b15801561271257600080fd5b505af4158015612726573d6000803e3d6000fd5b5050505061273e836077613ba090919063ffffffff16565b508273ffffffffffffffffffffffffffffffffffffffff167f0503b4748a47435f2432d46ef300e0e2dc47baa0e5f04bb3bd8a355ee1e1dbe660405160405180910390a2505050565b600080600060017f8f989356aeb576065c8d201815b96ac9c10cf89197a532e428ebd68581557c2360001c6127bc9190615a68565b60001b905080549150819250505090565b6060803373ffffffffffffffffffffffffffffffffffffffff16606560009054906101000a900473ffffffffffffffffffffffffffffffffffffffff1673ffffffffffffffffffffffffffffffffffffffff161415801561287c57503373ffffffffffffffffffffffffffffffffffffffff16606d60009054906101000a900473ffffffffffffffffffffffffffffffffffffffff1673ffffffffffffffffffffffffffffffffffffffff1614155b156128be57336040517f79eaeb2b0000000000000000000000000000000000000000000000000000000081526004016128b5919061504f565b60405180910390fd5b6128c9858585613fff565b91509150935093915050565b6128dd613395565b73ffffffffffffffffffffffffffffffffffffffff166128fb6122ec565b73ffffffffffffffffffffffffffffffffffffffff1614612951576040517f08c379a000000000000000000000000000000000000000000000000000000000815260040161294890615820565b60405180910390fd5b600073ffffffffffffffffffffffffffffffffffffffff168373ffffffffffffffffffffffffffffffffffffffff1614806129b85750600073ffffffffffffffffffffffffffffffffffffffff168273ffffffffffffffffffffffffffffffffffffffff16145b806129ef5750600073ffffffffffffffffffffffffffffffffffffffff168173ffffffffffffffffffffffffffffffffffffffff16145b15612a26576040517f0855380c00000000000000000000000000000000000000000000000000000000815260040160405180910390fd5b81606b60006101000a81548173ffffffffffffffffffffffffffffffffffffffff021916908373ffffffffffffffffffffffffffffffffffffffff16021790555080606d60006101000a81548173ffffffffffffffffffffffffffffffffffffffff021916908373ffffffffffffffffffffffffffffffffffffffff16021790555082606c60006101000a81548173ffffffffffffffffffffffffffffffffffffffff021916908373ffffffffffffffffffffffffffffffffffffffff160217905550505050565b612af6613395565b73ffffffffffffffffffffffffffffffffffffffff16612b146122ec565b73ffffffffffffffffffffffffffffffffffffffff1614612b6a576040517f08c379a0000000000000000000000000000000000000000000000000000000008152600401612b6190615820565b60405180910390fd5b606b60009054906101000a900473ffffffffffffffffffffffffffffffffffffffff1673ffffffffffffffffffffffffffffffffffffffff1663ac8f4425826040518263ffffffff1660e01b8152600401612bc5919061504f565b602060405180830381865afa158015612be2573d6000803e3d6000fd5b505050506040513d601f19601f82011682018060405250810190612c069190615c26565b612c4757806040517f10a7bc6b000000000000000000000000000000000000000000000000000000008152600401612c3e919061504f565b60405180910390fd5b606673cdC4Ca8C9459eD2367c1bB11b6621fE1CFCab8b26302f130289091836040518363ffffffff1660e01b8152600401612c83929190615be8565b602060405180830381865af4158015612ca0573d6000803e3d6000fd5b505050506040513d601f19601f82011682018060405250810190612cc49190615c26565b80612cdf5750612cde816077613b7090919063ffffffff16565b5b15612d2157806040517fbd133eee000000000000000000000000000000000000000000000000000000008152600401612d18919061504f565b60405180910390fd5b612d358160776148f690919063ffffffff16565b5050565b6000806000606673cdC4Ca8C9459eD2367c1bB11b6621fE1CFCab8b2630c8f298790916040518263ffffffff1660e01b8152600401612d78919061596b565b602060405180830381865af4158015612d95573d6000803e3d6000fd5b505050506040513d601f19601f82011682018060405250810190612db991906159dd565b90506000606673cdC4Ca8C9459eD2367c1bB11b6621fE1CFCab8b26365da149690916040518263ffffffff1660e01b8152600401612df7919061596b565b602060405180830381865af4158015612e14573d6000803e3d6000fd5b505050506040513d601f19601f82011682018060405250810190612e38919061599b565b905080607154612e489190615d47565b93508173ffffffffffffffffffffffffffffffffffffffff168573ffffffffffffffffffffffffffffffffffffffff161415612eab5760008185612e8c9190615d78565b607154612e999190615a68565b90508085612ea79190615dd2565b9450505b606e60008673ffffffffffffffffffffffffffffffffffffffff1673ffffffffffffffffffffffffffffffffffffffff1681526020019081526020016000205492505050915091565b6000606673cdC4Ca8C9459eD2367c1bB11b6621fE1CFCab8b26365da149690916040518263ffffffff1660e01b8152600401612f30919061596b565b602060405180830381865af4158015612f4d573d6000803e3d6000fd5b505050506040513d601f19601f82011682018060405250810190612f71919061599b565b905090565b600080606673cdC4Ca8C9459eD2367c1bB11b6621fE1CFCab8b26349923bff90916040518263ffffffff1660e01b8152600401612fb3919061596b565b602060405180830381865af4158015612fd0573d6000803e3d6000fd5b505050506040513d601f19601f82011682018060405250810190612ff491906159dd565b915061300a82606661333a90919063ffffffff16565b9091509050809150509091565b606d60009054906101000a900473ffffffffffffffffffffffffffffffffffffffff1681565b613045613395565b73ffffffffffffffffffffffffffffffffffffffff166130636122ec565b73ffffffffffffffffffffffffffffffffffffffff16146130b9576040517f08c379a00000000000000000000000000000000000000000000000000000000081526004016130b090615820565b60405180910390fd5b6130c281614926565b50565b60006130d16074613bd0565b905090565b6130de612787565b15613115576040517f9e87fac800000000000000000000000000000000000000000000000000000000815260040160405180910390fd5b606b60009054906101000a900473ffffffffffffffffffffffffffffffffffffffff1673ffffffffffffffffffffffffffffffffffffffff1663ac8f4425826040518263ffffffff1660e01b8152600401613170919061504f565b602060405180830381865afa15801561318d573d6000803e3d6000fd5b505050506040513d601f19601f820116820180604052508101906131b19190615c26565b156131f357806040517fe3bd013b0000000000000000000000000000000000000000000000000000000081526004016131ea919061504f565b60405180910390fd5b6131fc81613cc1565b50565b60705481565b61320d613395565b73ffffffffffffffffffffffffffffffffffffffff1661322b6122ec565b73ffffffffffffffffffffffffffffffffffffffff1614613281576040517f08c379a000000000000000000000000000000000000000000000000000000000815260040161327890615820565b60405180910390fd5b600073ffffffffffffffffffffffffffffffffffffffff168173ffffffffffffffffffffffffffffffffffffffff1614156132f1576040517f08c379a00000000000000000000000000000000000000000000000000000000081526004016132e890615e9a565b60405180910390fd5b6132fa81613a4f565b50565b6000808273ffffffffffffffffffffffffffffffffffffffff163b119050919050565b600061332f8360000183614a14565b60001c905092915050565b60008060008061335b61334c86614a3f565b87614a6690919063ffffffff16565b90508060400151935080604001511561338d5761337b8160000151614a8c565b925061338a8160200151614a8c565b91505b509250925092565b600033905090565b80156134175781606e60008573ffffffffffffffffffffffffffffffffffffffff1673ffffffffffffffffffffffffffffffffffffffff16815260200190815260200160002060008282546133f29190615dd2565b92505081905550816071600082825461340b9190615dd2565b92505081905550613487565b81606e60008573ffffffffffffffffffffffffffffffffffffffff1673ffffffffffffffffffffffffffffffffffffffff16815260200190815260200160002060008282546134669190615a68565b92505081905550816071600082825461347f9190615a68565b925050819055505b505050565b60006134ba7f360894a13ba1a3210667c828492db98dca3e2076cc3735a920a3ca505d382bbc60001b614a9d565b60000160009054906101000a900473ffffffffffffffffffffffffffffffffffffffff16905090565b6134eb613395565b73ffffffffffffffffffffffffffffffffffffffff166135096122ec565b73ffffffffffffffffffffffffffffffffffffffff161461355f576040517f08c379a000000000000000000000000000000000000000000000000000000000815260040161355690615820565b60405180910390fd5b50565b600061356c61348c565b905061357784614aa7565b6000835111806135845750815b15613595576135938484614b60565b505b60006135c37f4910fdfa16fed3260ed0e7147f7cc6da11a60208b5b9406d12a635614ffd914360001b614b8d565b90508060000160009054906101000a900460ff1661372c5760018160000160006101000a81548160ff02191690831515021790555061368f858360405160240161360d919061504f565b6040516020818303038152906040527f3659cfe6000000000000000000000000000000000000000000000000000000007bffffffffffffffffffffffffffffffffffffffffffffffffffffffff19166020820180517bffffffffffffffffffffffffffffffffffffffffffffffffffffffff8381831617835250505050614b60565b5060008160000160006101000a81548160ff0219169083151502179055506136b561348c565b73ffffffffffffffffffffffffffffffffffffffff168273ffffffffffffffffffffffffffffffffffffffff1614613722576040517f08c379a000000000000000000000000000000000000000000000000000000000815260040161371990615f2c565b60405180910390fd5b61372b85614b97565b5b5050505050565b60008183106137425781613744565b825b905092915050565b613760836074613b7090919063ffffffff16565b1561376a576139fb565b600080826137f957606673cdC4Ca8C9459eD2367c1bB11b6621fE1CFCab8b263a4aadfcc909187876072546040518563ffffffff1660e01b81526004016137b49493929190615f4c565b6040805180830381865af41580156137d0573d6000803e3d6000fd5b505050506040513d601f19601f820116820180604052508101906137f49190615f91565b61387c565b606673cdC4Ca8C9459eD2367c1bB11b6621fE1CFCab8b26399f68a39909187876072546040518563ffffffff1660e01b815260040161383b9493929190615f4c565b6040805180830381865af4158015613857573d6000803e3d6000fd5b505050506040513d601f19601f8201168201806040525081019061387b9190615f91565b5b915091508073ffffffffffffffffffffffffffffffffffffffff168273ffffffffffffffffffffffffffffffffffffffff1614158061393557506001606673cdC4Ca8C9459eD2367c1bB11b6621fE1CFCab8b26365da149690916040518263ffffffff1660e01b81526004016138f2919061596b565b602060405180830381865af415801561390f573d6000803e3d6000fd5b505050506040513d601f19601f82011682018060405250810190613933919061599b565b145b156139b157606673cdC4Ca8C9459eD2367c1bB11b6621fE1CFCab8b263cab455ae9091878786866040518663ffffffff1660e01b815260040161397c959493929190615b95565b60006040518083038186803b15801561399457600080fd5b505af41580156139a8573d6000803e3d6000fd5b505050506139f8565b607360009054906101000a900460ff16156139e2576000607360006101000a81548160ff0219169083151502179055505b6139f68560746148f690919063ffffffff16565b505b50505b505050565b600060017f8f989356aeb576065c8d201815b96ac9c10cf89197a532e428ebd68581557c2360001c613a329190615a68565b60001b90508181555050565b6000613a49306132fd565b15905090565b6000603360009054906101000a900473ffffffffffffffffffffffffffffffffffffffff16905081603360006101000a81548173ffffffffffffffffffffffffffffffffffffffff021916908373ffffffffffffffffffffffffffffffffffffffff1602179055508173ffffffffffffffffffffffffffffffffffffffff168173ffffffffffffffffffffffffffffffffffffffff167f8be0079c531659141344cd1fd0a4f28419497f9722a3daafe3b4186f6b6457e060405160405180910390a35050565b600060019054906101000a900460ff16613b64576040517f08c379a0000000000000000000000000000000000000000000000000000000008152600401613b5b90616043565b60405180910390fd5b613b6d81614926565b50565b6000613b98836000018373ffffffffffffffffffffffffffffffffffffffff1660001b614be6565b905092915050565b6000613bc8836000018373ffffffffffffffffffffffffffffffffffffffff1660001b614c09565b905092915050565b6000613bde82600001614d1d565b9050919050565b600073ffffffffffffffffffffffffffffffffffffffff168173ffffffffffffffffffffffffffffffffffffffff161415613c4c576040517f0855380c00000000000000000000000000000000000000000000000000000000815260040160405180910390fd5b600060017f29f060ba1cf8d3659516b02281c85dcc3e81b4287766ae4751c0f500688be30f60001c613c7e9190615a68565b60001b90508181557fd11d57c2c7468878b1035df11c670bcd0091aa840bf8aa166365397622237bea82604051613cb5919061504f565b60405180910390a15050565b606673cdC4Ca8C9459eD2367c1bB11b6621fE1CFCab8b26302f130289091836040518363ffffffff1660e01b8152600401613cfd929190615be8565b602060405180830381865af4158015613d1a573d6000803e3d6000fd5b505050506040513d601f19601f82011682018060405250810190613d3e9190615c26565b613d7f57806040517f1adbb153000000000000000000000000000000000000000000000000000000008152600401613d76919061504f565b60405180910390fd5b607654606673cdC4Ca8C9459eD2367c1bB11b6621fE1CFCab8b26365da149690916040518263ffffffff1660e01b8152600401613dbc919061596b565b602060405180830381865af4158015613dd9573d6000803e3d6000fd5b505050506040513d601f19601f82011682018060405250810190613dfd919061599b565b11613e34576040517f0e57c16d00000000000000000000000000000000000000000000000000000000815260040160405180910390fd5b606673cdC4Ca8C9459eD2367c1bB11b6621fE1CFCab8b263281359299091836040518363ffffffff1660e01b8152600401613e70929190615be8565b60006040518083038186803b158015613e8857600080fd5b505af4158015613e9c573d6000803e3d6000fd5b50505050613eb4816074613ba090919063ffffffff16565b506000606e60008373ffffffffffffffffffffffffffffffffffffffff1673ffffffffffffffffffffffffffffffffffffffff1681526020019081526020016000205490506000811115613fb857613f0e8282600061339d565b613fb5606560009054906101000a900473ffffffffffffffffffffffffffffffffffffffff1673ffffffffffffffffffffffffffffffffffffffff16630567847f836040518263ffffffff1660e01b8152600401613f6c9190614f86565b602060405180830381865afa158015613f89573d6000803e3d6000fd5b505050506040513d601f19601f82011682018060405250810190613fad919061599b565b826000613fff565b50505b8173ffffffffffffffffffffffffffffffffffffffff167fa78a88a551e130ce9732be17784bdff12f72ab4a2c833fb2dcb3ef0818956b0360405160405180910390a25050565b6060806000606673cdC4Ca8C9459eD2367c1bB11b6621fE1CFCab8b26365da149690916040518263ffffffff1660e01b815260040161403e919061596b565b602060405180830381865af415801561405b573d6000803e3d6000fd5b505050506040513d601f19601f8201168201806040525081019061407f919061599b565b14156140b7576040517f7818a60e00000000000000000000000000000000000000000000000000000000815260040160405180910390fd5b600061413f606f54606673cdC4Ca8C9459eD2367c1bB11b6621fE1CFCab8b26365da149690916040518263ffffffff1660e01b81526004016140f9919061596b565b602060405180830381865af4158015614116573d6000803e3d6000fd5b505050506040513d601f19601f8201168201806040525081019061413a919061599b565b613733565b905060008167ffffffffffffffff81111561415d5761415c6153e3565b5b60405190808252806020026020018201604052801561418b5781602001602082028036833780820191505090505b50905060008267ffffffffffffffff8111156141aa576141a96153e3565b5b6040519080825280602002602001820160405280156141d85781602001602082028036833780820191505090505b5090506000606673cdC4Ca8C9459eD2367c1bB11b6621fE1CFCab8b26349923bff90916040518263ffffffff1660e01b8152600401614217919061596b565b602060405180830381865af4158015614234573d6000803e3d6000fd5b505050506040513d601f19601f8201168201806040525081019061425891906159dd565b905060005b848110801561426d575060008a14155b80156142a65750600073ffffffffffffffffffffffffffffffffffffffff168273ffffffffffffffffffffffffffffffffffffffff1614155b15614645576000606560009054906101000a900473ffffffffffffffffffffffffffffffffffffffff1673ffffffffffffffffffffffffffffffffffffffff16632c431058846040518263ffffffff1660e01b8152600401614308919061504f565b602060405180830381865afa158015614325573d6000803e3d6000fd5b505050506040513d601f19601f82011682018060405250810190614349919061599b565b90508873ffffffffffffffffffffffffffffffffffffffff168373ffffffffffffffffffffffffffffffffffffffff1614806143855750600081145b156143ad5761439e83606661333a90919063ffffffff16565b9091509050809350505061425d565b6143b7818c613733565b8483815181106143ca576143c9615a0a565b5b602002602001018181525050828583815181106143ea576143e9615a0a565b5b602002602001019073ffffffffffffffffffffffffffffffffffffffff16908173ffffffffffffffffffffffffffffffffffffffff168152505083828151811061443757614436615a0a565b5b60200260200101518b61444a9190615a68565b9a506000606560009054906101000a900473ffffffffffffffffffffffffffffffffffffffff1673ffffffffffffffffffffffffffffffffffffffff1663c494ec1e86858151811061449f5761449e615a0a565b5b60200260200101516040518263ffffffff1660e01b81526004016144c39190614f86565b602060405180830381865afa1580156144e0573d6000803e3d6000fd5b505050506040513d601f19601f82011682018060405250810190614504919061599b565b9050808b1015614515576000614522565b808b6145219190615a68565b5b9a506145308482600161339d565b61457b84606e60008773ffffffffffffffffffffffffffffffffffffffff1673ffffffffffffffffffffffffffffffffffffffff16815260200190815260200160002054600161374c565b607360009054906101000a900460ff161561461257606673cdC4Ca8C9459eD2367c1bB11b6621fE1CFCab8b26349923bff90916040518263ffffffff1660e01b81526004016145ca919061596b565b602060405180830381865af41580156145e7573d6000803e3d6000fd5b505050506040513d601f19601f8201168201806040525081019061460b91906159dd565b9350614630565b61462684606661333a90919063ffffffff16565b9091509050809450505b828061463b90615a9c565b935050505061425d565b60008a1461467f576040517f2e6c1bf900000000000000000000000000000000000000000000000000000000815260040160405180910390fd5b6000891461479257600073ffffffffffffffffffffffffffffffffffffffff168273ffffffffffffffffffffffffffffffffffffffff16141561473a57606673cdC4Ca8C9459eD2367c1bB11b6621fE1CFCab8b26349923bff90916040518263ffffffff1660e01b81526004016146f6919061596b565b602060405180830381865af4158015614713573d6000803e3d6000fd5b505050506040513d601f19601f8201168201806040525081019061473791906159dd565b91505b614746828a600161339d565b61479182606e60008573ffffffffffffffffffffffffffffffffffffffff1673ffffffffffffffffffffffffffffffffffffffff16815260200190815260200160002054600161374c565b5b8067ffffffffffffffff8111156147ac576147ab6153e3565b5b6040519080825280602002602001820160405280156147da5781602001602082028036833780820191505090505b5096508067ffffffffffffffff8111156147f7576147f66153e3565b5b6040519080825280602002602001820160405280156148255781602001602082028036833780820191505090505b50955060005b818110156148e85784818151811061484657614845615a0a565b5b602002602001015188828151811061486157614860615a0a565b5b602002602001019073ffffffffffffffffffffffffffffffffffffffff16908173ffffffffffffffffffffffffffffffffffffffff16815250508381815181106148ae576148ad615a0a565b5b60200260200101518782815181106148c9576148c8615a0a565b5b60200260200101818152505080806148e090615a9c565b91505061482b565b505050505050935093915050565b600061491e836000018373ffffffffffffffffffffffffffffffffffffffff1660001b614d2e565b905092915050565b600073ffffffffffffffffffffffffffffffffffffffff168173ffffffffffffffffffffffffffffffffffffffff16141561498d576040517f0855380c00000000000000000000000000000000000000000000000000000000815260040160405180910390fd5b80606560006101000a81548173ffffffffffffffffffffffffffffffffffffffff021916908373ffffffffffffffffffffffffffffffffffffffff1602179055508073ffffffffffffffffffffffffffffffffffffffff167f60a0f5b9f9e81e98216071b85826681c796256fe3d1354ecb675580fba64fa6960405160405180910390a250565b6000826000018281548110614a2c57614a2b615a0a565b5b9060005260206000200154905092915050565b600060608273ffffffffffffffffffffffffffffffffffffffff16901b60001b9050919050565b614a6e614f44565b614a848284600001614d9e90919063ffffffff16565b905092915050565b600060608260001c901c9050919050565b6000819050919050565b614ab081614dfd565b614aef576040517f08c379a0000000000000000000000000000000000000000000000000000000008152600401614ae6906160d5565b60405180910390fd5b80614b1c7f360894a13ba1a3210667c828492db98dca3e2076cc3735a920a3ca505d382bbc60001b614a9d565b60000160006101000a81548173ffffffffffffffffffffffffffffffffffffffff021916908373ffffffffffffffffffffffffffffffffffffffff16021790555050565b6060614b8583836040518060600160405280602781526020016162ae60279139614e10565b905092915050565b6000819050919050565b614ba081614aa7565b8073ffffffffffffffffffffffffffffffffffffffff167fbc7cd75a20ee27fd9adebab32041f755214dbc6bffa90cc0225b39da2e5c2d3b60405160405180910390a250565b600080836001016000848152602001908152602001600020541415905092915050565b60008083600101600084815260200190815260200160002054905060008114614d11576000600182614c3b9190615a68565b9050600060018660000180549050614c539190615a68565b9050818114614cc2576000866000018281548110614c7457614c73615a0a565b5b9060005260206000200154905080876000018481548110614c9857614c97615a0a565b5b90600052602060002001819055508387600101600083815260200190815260200160002081905550505b85600001805480614cd657614cd56160f5565b5b600190038181906000526020600020016000905590558560010160008681526020019081526020016000206000905560019350505050614d17565b60009150505b92915050565b600081600001805490509050919050565b6000614d3a8383614be6565b614d93578260000182908060018154018082558091505060019003906000526020600020016000909190919091505582600001805490508360010160008481526020019081526020016000208190555060019050614d98565b600090505b92915050565b614da6614f44565b82600301600083815260200190815260200160002060405180606001604052908160008201548152602001600182015481526020016002820160009054906101000a900460ff161515151581525050905092915050565b600080823b905060008111915050919050565b6060614e1b84614dfd565b614e5a576040517f08c379a0000000000000000000000000000000000000000000000000000000008152600401614e5190616196565b60405180910390fd5b6000808573ffffffffffffffffffffffffffffffffffffffff1685604051614e829190616230565b600060405180830381855af49150503d8060008114614ebd576040519150601f19603f3d011682016040523d82523d6000602084013e614ec2565b606091505b5091509150614ed2828286614edd565b925050509392505050565b60608315614eed57829050614f3d565b600083511115614f005782518084602001fd5b816040517f08c379a0000000000000000000000000000000000000000000000000000000008152600401614f34919061628b565b60405180910390fd5b9392505050565b604051806060016040528060008019168152602001600080191681526020016000151581525090565b6000819050919050565b614f8081614f6d565b82525050565b6000602082019050614f9b6000830184614f77565b92915050565b6000604051905090565b600080fd5b600080fd5b614fbe81614f6d565b8114614fc957600080fd5b50565b600081359050614fdb81614fb5565b92915050565b600060208284031215614ff757614ff6614fab565b5b600061500584828501614fcc565b91505092915050565b600073ffffffffffffffffffffffffffffffffffffffff82169050919050565b60006150398261500e565b9050919050565b6150498161502e565b82525050565b60006020820190506150646000830184615040565b92915050565b6150738161502e565b811461507e57600080fd5b50565b6000813590506150908161506a565b92915050565b6000602082840312156150ac576150ab614fab565b5b60006150ba84828501615081565b91505092915050565b60006040820190506150d86000830185615040565b6150e56020830184615040565b9392505050565b60008115159050919050565b615101816150ec565b82525050565b600060208201905061511c60008301846150f8565b92915050565b61512b816150ec565b811461513657600080fd5b50565b60008135905061514881615122565b92915050565b60008060006060848603121561516757615166614fab565b5b600061517586828701615081565b935050602061518686828701614fcc565b925050604061519786828701615139565b9150509250925092565b600081519050919050565b600082825260208201905092915050565b6000819050602082019050919050565b6151d68161502e565b82525050565b60006151e883836151cd565b60208301905092915050565b6000602082019050919050565b600061520c826151a1565b61521681856151ac565b9350615221836151bd565b8060005b8381101561525257815161523988826151dc565b9750615244836151f4565b925050600181019050615225565b5085935050505092915050565b600081519050919050565b600082825260208201905092915050565b6000819050602082019050919050565b61529481614f6d565b82525050565b60006152a6838361528b565b60208301905092915050565b6000602082019050919050565b60006152ca8261525f565b6152d4818561526a565b93506152df8361527b565b8060005b838110156153105781516152f7888261529a565b9750615302836152b2565b9250506001810190506152e3565b5085935050505092915050565b600060408201905081810360008301526153378185615201565b9050818103602083015261534b81846152bf565b90509392505050565b6000819050919050565b61536781615354565b82525050565b6000602082019050615382600083018461535e565b92915050565b6000806040838503121561539f5761539e614fab565b5b60006153ad85828601615081565b92505060206153be85828601615081565b9150509250929050565b600080fd5b600080fd5b6000601f19601f8301169050919050565b7f4e487b7100000000000000000000000000000000000000000000000000000000600052604160045260246000fd5b61541b826153d2565b810181811067ffffffffffffffff8211171561543a576154396153e3565b5b80604052505050565b600061544d614fa1565b90506154598282615412565b919050565b600067ffffffffffffffff821115615479576154786153e3565b5b615482826153d2565b9050602081019050919050565b82818337600083830152505050565b60006154b16154ac8461545e565b615443565b9050828152602081018484840111156154cd576154cc6153cd565b5b6154d884828561548f565b509392505050565b600082601f8301126154f5576154f46153c8565b5b813561550584826020860161549e565b91505092915050565b6000806040838503121561552557615524614fab565b5b600061553385828601615081565b925050602083013567ffffffffffffffff81111561555457615553614fb0565b5b615560858286016154e0565b9150509250929050565b60008060006060848603121561558357615582614fab565b5b600061559186828701615081565b93505060206155a286828701615081565b92505060406155b386828701615081565b9150509250925092565b60006080820190506155d26000830187614f77565b6155df6020830186614f77565b6155ec6040830185614f77565b6155f96060830184614f77565b95945050505050565b6000819050919050565b600061562761562261561d8461500e565b615602565b61500e565b9050919050565b60006156398261560c565b9050919050565b600061564b8261562e565b9050919050565b61565b81615640565b82525050565b60006020820190506156766000830184615652565b92915050565b60008060006060848603121561569557615694614fab565b5b60006156a386828701614fcc565b93505060206156b486828701614fcc565b92505060406156c586828701614fcc565b9150509250925092565b60006156da8261562e565b9050919050565b6156ea816156cf565b82525050565b600060208201905061570560008301846156e1565b92915050565b60008060006060848603121561572457615723614fab565b5b600061573286828701614fcc565b935050602061574386828701614fcc565b925050604061575486828701615081565b9150509250925092565b60006040820190506157736000830185614f77565b6157806020830184614f77565b9392505050565b60006157928261562e565b9050919050565b6157a281615787565b82525050565b60006020820190506157bd6000830184615799565b92915050565b600082825260208201905092915050565b7f4f776e61626c653a2063616c6c6572206973206e6f7420746865206f776e6572600082015250565b600061580a6020836157c3565b9150615815826157d4565b602082019050919050565b60006020820190508181036000830152615839816157fd565b9050919050565b7f46756e6374696f6e206d7573742062652063616c6c6564207468726f7567682060008201527f64656c656761746563616c6c0000000000000000000000000000000000000000602082015250565b600061589c602c836157c3565b91506158a782615840565b604082019050919050565b600060208201905081810360008301526158cb8161588f565b9050919050565b7f46756e6374696f6e206d7573742062652063616c6c6564207468726f7567682060008201527f6163746976652070726f78790000000000000000000000000000000000000000602082015250565b600061592e602c836157c3565b9150615939826158d2565b604082019050919050565b6000602082019050818103600083015261595d81615921565b9050919050565b8082525050565b60006020820190506159806000830184615964565b92915050565b60008151905061599581614fb5565b92915050565b6000602082840312156159b1576159b0614fab565b5b60006159bf84828501615986565b91505092915050565b6000815190506159d78161506a565b92915050565b6000602082840312156159f3576159f2614fab565b5b6000615a01848285016159c8565b91505092915050565b7f4e487b7100000000000000000000000000000000000000000000000000000000600052603260045260246000fd5b7f4e487b7100000000000000000000000000000000000000000000000000000000600052601160045260246000fd5b6000615a7382614f6d565b9150615a7e83614f6d565b925082821015615a9157615a90615a39565b5b828203905092915050565b6000615aa782614f6d565b91507fffffffffffffffffffffffffffffffffffffffffffffffffffffffffffffffff821415615ada57615ad9615a39565b5b600182019050919050565b7f496e697469616c697a61626c653a20636f6e747261637420697320616c72656160008201527f647920696e697469616c697a6564000000000000000000000000000000000000602082015250565b6000615b41602e836157c3565b9150615b4c82615ae5565b604082019050919050565b60006020820190508181036000830152615b7081615b34565b9050919050565b615b808161502e565b82525050565b615b8f81614f6d565b82525050565b600060a082019050615baa6000830188615964565b615bb76020830187615b77565b615bc46040830186615b86565b615bd16060830185615b77565b615bde6080830184615b77565b9695505050505050565b6000604082019050615bfd6000830185615964565b615c0a6020830184615b77565b9392505050565b600081519050615c2081615122565b92915050565b600060208284031215615c3c57615c3b614fab565b5b6000615c4a84828501615c11565b91505092915050565b6000606082019050615c686000830186615040565b615c756020830185614f77565b615c826040830184614f77565b949350505050565b6000819050919050565b6000615caf615caa615ca584615c8a565b615602565b614f6d565b9050919050565b615cbf81615c94565b82525050565b600060a082019050615cda6000830188615964565b615ce76020830187615b77565b615cf46040830186615cb6565b615d016060830185615b77565b615d0e6080830184615b77565b9695505050505050565b7f4e487b7100000000000000000000000000000000000000000000000000000000600052601260045260246000fd5b6000615d5282614f6d565b9150615d5d83614f6d565b925082615d6d57615d6c615d18565b5b828204905092915050565b6000615d8382614f6d565b9150615d8e83614f6d565b9250817fffffffffffffffffffffffffffffffffffffffffffffffffffffffffffffffff0483118215151615615dc757615dc6615a39565b5b828202905092915050565b6000615ddd82614f6d565b9150615de883614f6d565b9250827fffffffffffffffffffffffffffffffffffffffffffffffffffffffffffffffff03821115615e1d57615e1c615a39565b5b828201905092915050565b7f4f776e61626c653a206e6577206f776e657220697320746865207a65726f206160008201527f6464726573730000000000000000000000000000000000000000000000000000602082015250565b6000615e846026836157c3565b9150615e8f82615e28565b604082019050919050565b60006020820190508181036000830152615eb381615e77565b9050919050565b7f45524331393637557067726164653a207570677261646520627265616b73206660008201527f7572746865722075706772616465730000000000000000000000000000000000602082015250565b6000615f16602f836157c3565b9150615f2182615eba565b604082019050919050565b60006020820190508181036000830152615f4581615f09565b9050919050565b6000608082019050615f616000830187615964565b615f6e6020830186615b77565b615f7b6040830185615b86565b615f886060830184615b86565b95945050505050565b60008060408385031215615fa857615fa7614fab565b5b6000615fb6858286016159c8565b9250506020615fc7858286016159c8565b9150509250929050565b7f496e697469616c697a61626c653a20636f6e7472616374206973206e6f74206960008201527f6e697469616c697a696e67000000000000000000000000000000000000000000602082015250565b600061602d602b836157c3565b915061603882615fd1565b604082019050919050565b6000602082019050818103600083015261605c81616020565b9050919050565b7f455243313936373a206e657720696d706c656d656e746174696f6e206973206e60008201527f6f74206120636f6e747261637400000000000000000000000000000000000000602082015250565b60006160bf602d836157c3565b91506160ca82616063565b604082019050919050565b600060208201905081810360008301526160ee816160b2565b9050919050565b7f4e487b7100000000000000000000000000000000000000000000000000000000600052603160045260246000fd5b7f416464726573733a2064656c65676174652063616c6c20746f206e6f6e2d636f60008201527f6e74726163740000000000000000000000000000000000000000000000000000602082015250565b60006161806026836157c3565b915061618b82616124565b604082019050919050565b600060208201905081810360008301526161af81616173565b9050919050565b600081519050919050565b600081905092915050565b60005b838110156161ea5780820151818401526020810190506161cf565b838111156161f9576000848401525b50505050565b600061620a826161b6565b61621481856161c1565b93506162248185602086016161cc565b80840191505092915050565b600061623c82846161ff565b915081905092915050565b600081519050919050565b600061625d82616247565b61626781856157c3565b93506162778185602086016161cc565b616280816153d2565b840191505092915050565b600060208201905081810360008301526162a58184616252565b90509291505056fe416464726573733a206c6f772d6c6576656c2064656c65676174652063616c6c206661696c6564a2646970667358221220bd6aadc6e5659eded076217df31034cc6cc998c942b3f340955661c23154c1aa64736f6c634300080b0033",
  "deployedBytecode": "0x6080604052600436106102885760003560e01c80638456cb591161015a578063b364174e116100c1578063cf009f7a1161007a578063cf009f7a14610994578063d0ebdbe7146109bf578063d2a2ce5d146109e8578063dcdab02a14610a13578063eccacf7f14610a3c578063f2fde38b14610a6757610288565b8063b364174e1461086f578063b52d326c146108ad578063b95de2d6146108d6578063be982c31146108ff578063c1fa411a1461093d578063c5728c831461096857610288565b80639468ba0e116101135780639468ba0e1461075d5780639f8a13d7146107885780639fd0506d146107c5578063a3f16ef1146107f0578063afc975781461081b578063b187bd261461084457610288565b80638456cb591461066157806385a92cb714610678578063885640db146106b55780638b0a063d146106de5780638da5cb5b1461070957806393739a931461073457610288565b8063481c6a75116101fe5780635dab2420116101b75780635dab2420146105765780636d232345146105a15780636fe958d8146105de578063715018a614610607578063724e61d01461061e5780637c0d530f1461064a57610288565b8063481c6a7514610484578063485cc955146104af5780634f1ef286146104d85780634fc517eb146104f45780635145b0ad1461051f57806354255be01461054857610288565b80632e3cde9f116102505780632e3cde9f146103895780633659cfe6146103b257806336691a41146103db5780633cbf5872146104195780633f4ba83a1461044457806341b9179f1461045b57610288565b80630c29aab21461028d5780630f8f0fcc146102b857806325b21f6b146102f55780632863f68c146103205780632de2c5ac1461035e575b600080fd5b34801561029957600080fd5b506102a2610a90565b6040516102af9190614f86565b60405180910390f35b3480156102c457600080fd5b506102df60048036038101906102da9190614fe1565b610a96565b6040516102ec919061504f565b60405180910390f35b34801561030157600080fd5b5061030a610ab3565b6040516103179190614f86565b60405180910390f35b34801561032c57600080fd5b5061034760048036038101906103429190615096565b610ab9565b6040516103559291906150c3565b60405180910390f35b34801561036a57600080fd5b50610373610ae0565b6040516103809190615107565b60405180910390f35b34801561039557600080fd5b506103b060048036038101906103ab919061514e565b610af3565b005b3480156103be57600080fd5b506103d960048036038101906103d49190615096565b610b7f565b005b3480156103e757600080fd5b5061040260048036038101906103fd9190614fe1565b610d08565b60405161041092919061531d565b60405180910390f35b34801561042557600080fd5b5061042e61162d565b60405161043b919061536d565b60405180910390f35b34801561045057600080fd5b50610459611663565b005b34801561046757600080fd5b50610482600480360381019061047d9190614fe1565b611707565b005b34801561049057600080fd5b5061049961178d565b6040516104a6919061504f565b60405180910390f35b3480156104bb57600080fd5b506104d660048036038101906104d19190615388565b6117b3565b005b6104f260048036038101906104ed919061550e565b611924565b005b34801561050057600080fd5b50610509611a61565b6040516105169190614f86565b60405180910390f35b34801561052b57600080fd5b506105466004803603810190610541919061556a565b611a67565b005b34801561055457600080fd5b5061055d611c2f565b60405161056d94939291906155bd565b60405180910390f35b34801561058257600080fd5b5061058b611c4a565b6040516105989190615661565b60405180910390f35b3480156105ad57600080fd5b506105c860048036038101906105c39190614fe1565b611c70565b6040516105d5919061504f565b60405180910390f35b3480156105ea57600080fd5b5061060560048036038101906106009190615388565b611c8d565b005b34801561061357600080fd5b5061061c611fd3565b005b34801561062a57600080fd5b5061063361205b565b6040516106419291906150c3565b60405180910390f35b34801561065657600080fd5b5061065f6120fb565b005b34801561066d57600080fd5b50610676612189565b005b34801561068457600080fd5b5061069f600480360381019061069a9190615096565b61222d565b6040516106ac9190614f86565b60405180910390f35b3480156106c157600080fd5b506106dc60048036038101906106d7919061567c565b612245565b005b3480156106ea57600080fd5b506106f36122db565b6040516107009190614f86565b60405180910390f35b34801561071557600080fd5b5061071e6122ec565b60405161072b919061504f565b60405180910390f35b34801561074057600080fd5b5061075b60048036038101906107569190615096565b612316565b005b34801561076957600080fd5b5061077261239e565b60405161077f919061536d565b60405180910390f35b34801561079457600080fd5b506107af60048036038101906107aa9190615096565b6123d4565b6040516107bc9190615107565b60405180910390f35b3480156107d157600080fd5b506107da61245a565b6040516107e7919061504f565b60405180910390f35b3480156107fc57600080fd5b506108056124a0565b60405161081291906156f0565b60405180910390f35b34801561082757600080fd5b50610842600480360381019061083d919061556a565b6124c6565b005b34801561085057600080fd5b50610859612787565b6040516108669190615107565b60405180910390f35b34801561087b57600080fd5b506108966004803603810190610891919061570b565b6127cd565b6040516108a492919061531d565b60405180910390f35b3480156108b957600080fd5b506108d460048036038101906108cf919061556a565b6128d5565b005b3480156108e257600080fd5b506108fd60048036038101906108f89190615096565b612aee565b005b34801561090b57600080fd5b5061092660048036038101906109219190615096565b612d39565b60405161093492919061575e565b60405180910390f35b34801561094957600080fd5b50610952612ef4565b60405161095f9190614f86565b60405180910390f35b34801561097457600080fd5b5061097d612f76565b60405161098b9291906150c3565b60405180910390f35b3480156109a057600080fd5b506109a9613017565b6040516109b691906157a8565b60405180910390f35b3480156109cb57600080fd5b506109e660048036038101906109e19190615096565b61303d565b005b3480156109f457600080fd5b506109fd6130c5565b604051610a0a9190614f86565b60405180910390f35b348015610a1f57600080fd5b50610a3a6004803603810190610a359190615096565b6130d6565b005b348015610a4857600080fd5b50610a516131ff565b604051610a5e9190614f86565b60405180910390f35b348015610a7357600080fd5b50610a8e6004803603810190610a899190615096565b613205565b005b60715481565b6000610aac82607461332090919063ffffffff16565b9050919050565b60765481565b600080610ad083606661333a90919063ffffffff16565b9091508092508193505050915091565b607360009054906101000a900460ff1681565b610afb613395565b73ffffffffffffffffffffffffffffffffffffffff16610b196122ec565b73ffffffffffffffffffffffffffffffffffffffff1614610b6f576040517f08c379a0000000000000000000000000000000000000000000000000000000008152600401610b6690615820565b60405180910390fd5b610b7a83838361339d565b505050565b7f000000000000000000000000000000000000000000000000000000000000000073ffffffffffffffffffffffffffffffffffffffff163073ffffffffffffffffffffffffffffffffffffffff161415610c0e576040517f08c379a0000000000000000000000000000000000000000000000000000000008152600401610c05906158b2565b60405180910390fd5b7f000000000000000000000000000000000000000000000000000000000000000073ffffffffffffffffffffffffffffffffffffffff16610c4d61348c565b73ffffffffffffffffffffffffffffffffffffffff1614610ca3576040517f08c379a0000000000000000000000000000000000000000000000000000000008152600401610c9a90615944565b60405180910390fd5b610cac816134e3565b610d0581600067ffffffffffffffff811115610ccb57610cca6153e3565b5b6040519080825280601f01601f191660200182016040528015610cfd5781602001600182028036833780820191505090505b506000613562565b50565b6060803373ffffffffffffffffffffffffffffffffffffffff16606560009054906101000a900473ffffffffffffffffffffffffffffffffffffffff1673ffffffffffffffffffffffffffffffffffffffff1614158015610db757503373ffffffffffffffffffffffffffffffffffffffff16606d60009054906101000a900473ffffffffffffffffffffffffffffffffffffffff1673ffffffffffffffffffffffffffffffffffffffff1614155b15610df957336040517f79eaeb2b000000000000000000000000000000000000000000000000000000008152600401610df0919061504f565b60405180910390fd5b6000606673__$18085dca7c6a2f09a309a1b54006aa0b25$__6365da149690916040518263ffffffff1660e01b8152600401610e35919061596b565b602060405180830381865af4158015610e52573d6000803e3d6000fd5b505050506040513d601f19601f82011682018060405250810190610e76919061599b565b1415610eae576040517f7818a60e00000000000000000000000000000000000000000000000000000000815260040160405180910390fd5b6000610f36607054606673__$18085dca7c6a2f09a309a1b54006aa0b25$__6365da149690916040518263ffffffff1660e01b8152600401610ef0919061596b565b602060405180830381865af4158015610f0d573d6000803e3d6000fd5b505050506040513d601f19601f82011682018060405250810190610f31919061599b565b613733565b905060008167ffffffffffffffff811115610f5457610f536153e3565b5b604051908082528060200260200182016040528015610f825781602001602082028036833780820191505090505b50905060008267ffffffffffffffff811115610fa157610fa06153e3565b5b604051908082528060200260200182016040528015610fcf5781602001602082028036833780820191505090505b5090506000606673__$18085dca7c6a2f09a309a1b54006aa0b25$__630c8f298790916040518263ffffffff1660e01b815260040161100e919061596b565b602060405180830381865af415801561102b573d6000803e3d6000fd5b505050506040513d601f19601f8201168201806040525081019061104f91906159dd565b905060005b8481108015611064575060008814155b801561109d5750600073ffffffffffffffffffffffffffffffffffffffff168273ffffffffffffffffffffffffffffffffffffffff1614155b156114925761122a611224606c60009054906101000a900473ffffffffffffffffffffffffffffffffffffffff1673ffffffffffffffffffffffffffffffffffffffff1663acd201d0856040518263ffffffff1660e01b8152600401611103919061504f565b602060405180830381865afa158015611120573d6000803e3d6000fd5b505050506040513d601f19601f82011682018060405250810190611144919061599b565b606560009054906101000a900473ffffffffffffffffffffffffffffffffffffffff1673ffffffffffffffffffffffffffffffffffffffff16630567847f606e60008873ffffffffffffffffffffffffffffffffffffffff1673ffffffffffffffffffffffffffffffffffffffff168152602001908152602001600020546040518263ffffffff1660e01b81526004016111de9190614f86565b602060405180830381865afa1580156111fb573d6000803e3d6000fd5b505050506040513d601f19601f8201168201806040525081019061121f919061599b565b613733565b89613733565b83828151811061123d5761123c615a0a565b5b6020026020010181815250508184828151811061125d5761125c615a0a565b5b602002602001019073ffffffffffffffffffffffffffffffffffffffff16908173ffffffffffffffffffffffffffffffffffffffff16815250508281815181106112aa576112a9615a0a565b5b6020026020010151886112bd9190615a68565b975061138082606560009054906101000a900473ffffffffffffffffffffffffffffffffffffffff1673ffffffffffffffffffffffffffffffffffffffff1663c494ec1e86858151811061131457611313615a0a565b5b60200260200101516040518263ffffffff1660e01b81526004016113389190614f86565b602060405180830381865afa158015611355573d6000803e3d6000fd5b505050506040513d601f19601f82011682018060405250810190611379919061599b565b600061339d565b6113cb82606e60008573ffffffffffffffffffffffffffffffffffffffff1673ffffffffffffffffffffffffffffffffffffffff16815260200190815260200160002054600061374c565b607360009054906101000a900460ff161561146257606673__$18085dca7c6a2f09a309a1b54006aa0b25$__630c8f298790916040518263ffffffff1660e01b815260040161141a919061596b565b602060405180830381865af4158015611437573d6000803e3d6000fd5b505050506040513d601f19601f8201168201806040525081019061145b91906159dd565b915061147f565b61147682606661333a90919063ffffffff16565b90915050809250505b808061148a90615a9c565b915050611054565b600088146114cc576040517f2e6c1bf900000000000000000000000000000000000000000000000000000000815260040160405180910390fd5b8067ffffffffffffffff8111156114e6576114e56153e3565b5b6040519080825280602002602001820160405280156115145781602001602082028036833780820191505090505b5096508067ffffffffffffffff811115611531576115306153e3565b5b60405190808252806020026020018201604052801561155f5781602001602082028036833780820191505090505b50955060005b81811015611622578481815181106115805761157f615a0a565b5b602002602001015188828151811061159b5761159a615a0a565b5b602002602001019073ffffffffffffffffffffffffffffffffffffffff16908173ffffffffffffffffffffffffffffffffffffffff16815250508381815181106115e8576115e7615a0a565b5b602002602001015187828151811061160357611602615a0a565b5b602002602001018181525050808061161a90615a9c565b915050611565565b505050505050915091565b60017f8f989356aeb576065c8d201815b96ac9c10cf89197a532e428ebd68581557c2360001c61165d9190615a68565b60001b81565b61166b61245a565b73ffffffffffffffffffffffffffffffffffffffff163373ffffffffffffffffffffffffffffffffffffffff16146116cf576040517f75df51dc00000000000000000000000000000000000000000000000000000000815260040160405180910390fd5b6116d96000613a00565b7f0e5e3b3fb504c22cf5c42fa07d521225937514c654007e1f12646f89768d6f9460405160405180910390a1565b61170f613395565b73ffffffffffffffffffffffffffffffffffffffff1661172d6122ec565b73ffffffffffffffffffffffffffffffffffffffff1614611783576040517f08c379a000000000000000000000000000000000000000000000000000000000815260040161177a90615820565b60405180910390fd5b8060768190555050565b606560009054906101000a900473ffffffffffffffffffffffffffffffffffffffff1681565b600060019054906101000a900460ff166117db5760008054906101000a900460ff16156117e4565b6117e3613a3e565b5b611823576040517f08c379a000000000000000000000000000000000000000000000000000000000815260040161181a90615b57565b60405180910390fd5b60008060019054906101000a900460ff161590508015611873576001600060016101000a81548160ff02191690831515021790555060016000806101000a81548160ff0219169083151502179055505b61187c83613a4f565b61188582613b15565b6008606f819055506008607081905550600a6072819055506001607360006101000a81548160ff0219169083151502179055507fb930683f0749189780c4016ec37d019eb0cbbf6550ce7374fac5cfbae93909a7607360009054906101000a900460ff166040516118f69190615107565b60405180910390a1801561191f5760008060016101000a81548160ff0219169083151502179055505b505050565b7f000000000000000000000000000000000000000000000000000000000000000073ffffffffffffffffffffffffffffffffffffffff163073ffffffffffffffffffffffffffffffffffffffff1614156119b3576040517f08c379a00000000000000000000000000000000000000000000000000000000081526004016119aa906158b2565b60405180910390fd5b7f000000000000000000000000000000000000000000000000000000000000000073ffffffffffffffffffffffffffffffffffffffff166119f261348c565b73ffffffffffffffffffffffffffffffffffffffff1614611a48576040517f08c379a0000000000000000000000000000000000000000000000000000000008152600401611a3f90615944565b60405180910390fd5b611a51826134e3565b611a5d82826001613562565b5050565b606f5481565b611a6f612787565b15611aa6576040517f9e87fac800000000000000000000000000000000000000000000000000000000815260040160405180910390fd5b611aba836074613b7090919063ffffffff16565b611af0576040517f0a1f2c0e00000000000000000000000000000000000000000000000000000000815260040160405180910390fd5b606673__$18085dca7c6a2f09a309a1b54006aa0b25$__63cab455ae909185606e60008873ffffffffffffffffffffffffffffffffffffffff1673ffffffffffffffffffffffffffffffffffffffff1681526020019081526020016000205486866040518663ffffffff1660e01b8152600401611b71959493929190615b95565b60006040518083038186803b158015611b8957600080fd5b505af4158015611b9d573d6000803e3d6000fd5b50505050611bb5836074613ba090919063ffffffff16565b506000611bc26074613bd0565b1415611c2a576001607360006101000a81548160ff0219169083151502179055507fb930683f0749189780c4016ec37d019eb0cbbf6550ce7374fac5cfbae93909a7607360009054906101000a900460ff16604051611c219190615107565b60405180910390a15b505050565b60008060008060016002600080935093509350935090919293565b606c60009054906101000a900473ffffffffffffffffffffffffffffffffffffffff1681565b6000611c8682607761332090919063ffffffff16565b9050919050565b611c95612787565b15611ccc576040517f9e87fac800000000000000000000000000000000000000000000000000000000815260040160405180910390fd5b606673__$18085dca7c6a2f09a309a1b54006aa0b25$__6302f130289091846040518363ffffffff1660e01b8152600401611d08929190615be8565b602060405180830381865af4158015611d25573d6000803e3d6000fd5b505050506040513d601f19601f82011682018060405250810190611d499190615c26565b611d8a57816040517fdc1b434d000000000000000000000000000000000000000000000000000000008152600401611d81919061504f565b60405180910390fd5b606673__$18085dca7c6a2f09a309a1b54006aa0b25$__6302f130289091836040518363ffffffff1660e01b8152600401611dc6929190615be8565b602060405180830381865af4158015611de3573d6000803e3d6000fd5b505050506040513d601f19601f82011682018060405250810190611e079190615c26565b611e4857806040517f5a081584000000000000000000000000000000000000000000000000000000008152600401611e3f919061504f565b60405180910390fd5b600080611e5484612d39565b91509150818111611ea0578381836040517f8b0123bf000000000000000000000000000000000000000000000000000000008152600401611e9793929190615c53565b60405180910390fd5b600080611eac85612d39565b91509150818110611ef8578481836040517f84528639000000000000000000000000000000000000000000000000000000008152600401611eef93929190615c53565b60405180910390fd5b6000611f1a8585611f099190615a68565b8385611f159190615a68565b613733565b9050611f288782600061339d565b611f348682600161339d565b611f7f87606e60008a73ffffffffffffffffffffffffffffffffffffffff1673ffffffffffffffffffffffffffffffffffffffff16815260200190815260200160002054600061374c565b611fca86606e60008973ffffffffffffffffffffffffffffffffffffffff1673ffffffffffffffffffffffffffffffffffffffff16815260200190815260200160002054600161374c565b50505050505050565b611fdb613395565b73ffffffffffffffffffffffffffffffffffffffff16611ff96122ec565b73ffffffffffffffffffffffffffffffffffffffff161461204f576040517f08c379a000000000000000000000000000000000000000000000000000000000815260040161204690615820565b60405180910390fd5b6120596000613a4f565b565b600080606673__$18085dca7c6a2f09a309a1b54006aa0b25$__630c8f298790916040518263ffffffff1660e01b8152600401612098919061596b565b602060405180830381865af41580156120b5573d6000803e3d6000fd5b505050506040513d601f19601f820116820180604052508101906120d991906159dd565b91506120ef82606661333a90919063ffffffff16565b90915050809150509091565b612103613395565b73ffffffffffffffffffffffffffffffffffffffff166121216122ec565b73ffffffffffffffffffffffffffffffffffffffff1614612177576040517f08c379a000000000000000000000000000000000000000000000000000000000815260040161216e90615820565b60405180910390fd5b6121876121826122ec565b613be5565b565b61219161245a565b73ffffffffffffffffffffffffffffffffffffffff163373ffffffffffffffffffffffffffffffffffffffff16146121f5576040517f75df51dc00000000000000000000000000000000000000000000000000000000815260040160405180910390fd5b6121ff6001613a00565b7fab35696f06e428ebc5ceba8cd17f8fed287baf43440206d1943af1ee53e6d26760405160405180910390a1565b606e6020528060005260406000206000915090505481565b61224d613395565b73ffffffffffffffffffffffffffffffffffffffff1661226b6122ec565b73ffffffffffffffffffffffffffffffffffffffff16146122c1576040517f08c379a00000000000000000000000000000000000000000000000000000000081526004016122b890615820565b60405180910390fd5b82606f819055508160708190555080607281905550505050565b60006122e76077613bd0565b905090565b6000603360009054906101000a900473ffffffffffffffffffffffffffffffffffffffff16905090565b61231e613395565b73ffffffffffffffffffffffffffffffffffffffff1661233c6122ec565b73ffffffffffffffffffffffffffffffffffffffff1614612392576040517f08c379a000000000000000000000000000000000000000000000000000000000815260040161238990615820565b60405180910390fd5b61239b81613cc1565b50565b60017f29f060ba1cf8d3659516b02281c85dcc3e81b4287766ae4751c0f500688be30f60001c6123ce9190615a68565b60001b81565b6000606673__$18085dca7c6a2f09a309a1b54006aa0b25$__6302f130289091846040518363ffffffff1660e01b8152600401612412929190615be8565b602060405180830381865af415801561242f573d6000803e3d6000fd5b505050506040513d601f19601f820116820180604052508101906124539190615c26565b9050919050565b600080600060017f29f060ba1cf8d3659516b02281c85dcc3e81b4287766ae4751c0f500688be30f60001c61248f9190615a68565b60001b905080549150819250505090565b606b60009054906101000a900473ffffffffffffffffffffffffffffffffffffffff1681565b6124da836077613b7090919063ffffffff16565b61251b57826040517f6aab7a0b000000000000000000000000000000000000000000000000000000008152600401612512919061504f565b60405180910390fd5b606b60009054906101000a900473ffffffffffffffffffffffffffffffffffffffff1673ffffffffffffffffffffffffffffffffffffffff1663ac8f4425846040518263ffffffff1660e01b8152600401612576919061504f565b602060405180830381865afa158015612593573d6000803e3d6000fd5b505050506040513d601f19601f820116820180604052508101906125b79190615c26565b6125f857826040517f10a7bc6b0000000000000000000000000000000000000000000000000000000081526004016125ef919061504f565b60405180910390fd5b606673__$18085dca7c6a2f09a309a1b54006aa0b25$__6302f130289091856040518363ffffffff1660e01b8152600401612634929190615be8565b602060405180830381865af4158015612651573d6000803e3d6000fd5b505050506040513d601f19601f820116820180604052508101906126759190615c26565b156126b757826040517fbd133eee0000000000000000000000000000000000000000000000000000000081526004016126ae919061504f565b60405180910390fd5b606673__$18085dca7c6a2f09a309a1b54006aa0b25$__632dedbbf0909185600086866040518663ffffffff1660e01b81526004016126fa959493929190615cc5565b60006040518083038186803b15801561271257600080fd5b505af4158015612726573d6000803e3d6000fd5b5050505061273e836077613ba090919063ffffffff16565b508273ffffffffffffffffffffffffffffffffffffffff167f0503b4748a47435f2432d46ef300e0e2dc47baa0e5f04bb3bd8a355ee1e1dbe660405160405180910390a2505050565b600080600060017f8f989356aeb576065c8d201815b96ac9c10cf89197a532e428ebd68581557c2360001c6127bc9190615a68565b60001b905080549150819250505090565b6060803373ffffffffffffffffffffffffffffffffffffffff16606560009054906101000a900473ffffffffffffffffffffffffffffffffffffffff1673ffffffffffffffffffffffffffffffffffffffff161415801561287c57503373ffffffffffffffffffffffffffffffffffffffff16606d60009054906101000a900473ffffffffffffffffffffffffffffffffffffffff1673ffffffffffffffffffffffffffffffffffffffff1614155b156128be57336040517f79eaeb2b0000000000000000000000000000000000000000000000000000000081526004016128b5919061504f565b60405180910390fd5b6128c9858585613fff565b91509150935093915050565b6128dd613395565b73ffffffffffffffffffffffffffffffffffffffff166128fb6122ec565b73ffffffffffffffffffffffffffffffffffffffff1614612951576040517f08c379a000000000000000000000000000000000000000000000000000000000815260040161294890615820565b60405180910390fd5b600073ffffffffffffffffffffffffffffffffffffffff168373ffffffffffffffffffffffffffffffffffffffff1614806129b85750600073ffffffffffffffffffffffffffffffffffffffff168273ffffffffffffffffffffffffffffffffffffffff16145b806129ef5750600073ffffffffffffffffffffffffffffffffffffffff168173ffffffffffffffffffffffffffffffffffffffff16145b15612a26576040517f0855380c00000000000000000000000000000000000000000000000000000000815260040160405180910390fd5b81606b60006101000a81548173ffffffffffffffffffffffffffffffffffffffff021916908373ffffffffffffffffffffffffffffffffffffffff16021790555080606d60006101000a81548173ffffffffffffffffffffffffffffffffffffffff021916908373ffffffffffffffffffffffffffffffffffffffff16021790555082606c60006101000a81548173ffffffffffffffffffffffffffffffffffffffff021916908373ffffffffffffffffffffffffffffffffffffffff160217905550505050565b612af6613395565b73ffffffffffffffffffffffffffffffffffffffff16612b146122ec565b73ffffffffffffffffffffffffffffffffffffffff1614612b6a576040517f08c379a0000000000000000000000000000000000000000000000000000000008152600401612b6190615820565b60405180910390fd5b606b60009054906101000a900473ffffffffffffffffffffffffffffffffffffffff1673ffffffffffffffffffffffffffffffffffffffff1663ac8f4425826040518263ffffffff1660e01b8152600401612bc5919061504f565b602060405180830381865afa158015612be2573d6000803e3d6000fd5b505050506040513d601f19601f82011682018060405250810190612c069190615c26565b612c4757806040517f10a7bc6b000000000000000000000000000000000000000000000000000000008152600401612c3e919061504f565b60405180910390fd5b606673__$18085dca7c6a2f09a309a1b54006aa0b25$__6302f130289091836040518363ffffffff1660e01b8152600401612c83929190615be8565b602060405180830381865af4158015612ca0573d6000803e3d6000fd5b505050506040513d601f19601f82011682018060405250810190612cc49190615c26565b80612cdf5750612cde816077613b7090919063ffffffff16565b5b15612d2157806040517fbd133eee000000000000000000000000000000000000000000000000000000008152600401612d18919061504f565b60405180910390fd5b612d358160776148f690919063ffffffff16565b5050565b6000806000606673__$18085dca7c6a2f09a309a1b54006aa0b25$__630c8f298790916040518263ffffffff1660e01b8152600401612d78919061596b565b602060405180830381865af4158015612d95573d6000803e3d6000fd5b505050506040513d601f19601f82011682018060405250810190612db991906159dd565b90506000606673__$18085dca7c6a2f09a309a1b54006aa0b25$__6365da149690916040518263ffffffff1660e01b8152600401612df7919061596b565b602060405180830381865af4158015612e14573d6000803e3d6000fd5b505050506040513d601f19601f82011682018060405250810190612e38919061599b565b905080607154612e489190615d47565b93508173ffffffffffffffffffffffffffffffffffffffff168573ffffffffffffffffffffffffffffffffffffffff161415612eab5760008185612e8c9190615d78565b607154612e999190615a68565b90508085612ea79190615dd2565b9450505b606e60008673ffffffffffffffffffffffffffffffffffffffff1673ffffffffffffffffffffffffffffffffffffffff1681526020019081526020016000205492505050915091565b6000606673__$18085dca7c6a2f09a309a1b54006aa0b25$__6365da149690916040518263ffffffff1660e01b8152600401612f30919061596b565b602060405180830381865af4158015612f4d573d6000803e3d6000fd5b505050506040513d601f19601f82011682018060405250810190612f71919061599b565b905090565b600080606673__$18085dca7c6a2f09a309a1b54006aa0b25$__6349923bff90916040518263ffffffff1660e01b8152600401612fb3919061596b565b602060405180830381865af4158015612fd0573d6000803e3d6000fd5b505050506040513d601f19601f82011682018060405250810190612ff491906159dd565b915061300a82606661333a90919063ffffffff16565b9091509050809150509091565b606d60009054906101000a900473ffffffffffffffffffffffffffffffffffffffff1681565b613045613395565b73ffffffffffffffffffffffffffffffffffffffff166130636122ec565b73ffffffffffffffffffffffffffffffffffffffff16146130b9576040517f08c379a00000000000000000000000000000000000000000000000000000000081526004016130b090615820565b60405180910390fd5b6130c281614926565b50565b60006130d16074613bd0565b905090565b6130de612787565b15613115576040517f9e87fac800000000000000000000000000000000000000000000000000000000815260040160405180910390fd5b606b60009054906101000a900473ffffffffffffffffffffffffffffffffffffffff1673ffffffffffffffffffffffffffffffffffffffff1663ac8f4425826040518263ffffffff1660e01b8152600401613170919061504f565b602060405180830381865afa15801561318d573d6000803e3d6000fd5b505050506040513d601f19601f820116820180604052508101906131b19190615c26565b156131f357806040517fe3bd013b0000000000000000000000000000000000000000000000000000000081526004016131ea919061504f565b60405180910390fd5b6131fc81613cc1565b50565b60705481565b61320d613395565b73ffffffffffffffffffffffffffffffffffffffff1661322b6122ec565b73ffffffffffffffffffffffffffffffffffffffff1614613281576040517f08c379a000000000000000000000000000000000000000000000000000000000815260040161327890615820565b60405180910390fd5b600073ffffffffffffffffffffffffffffffffffffffff168173ffffffffffffffffffffffffffffffffffffffff1614156132f1576040517f08c379a00000000000000000000000000000000000000000000000000000000081526004016132e890615e9a565b60405180910390fd5b6132fa81613a4f565b50565b6000808273ffffffffffffffffffffffffffffffffffffffff163b119050919050565b600061332f8360000183614a14565b60001c905092915050565b60008060008061335b61334c86614a3f565b87614a6690919063ffffffff16565b90508060400151935080604001511561338d5761337b8160000151614a8c565b925061338a8160200151614a8c565b91505b509250925092565b600033905090565b80156134175781606e60008573ffffffffffffffffffffffffffffffffffffffff1673ffffffffffffffffffffffffffffffffffffffff16815260200190815260200160002060008282546133f29190615dd2565b92505081905550816071600082825461340b9190615dd2565b92505081905550613487565b81606e60008573ffffffffffffffffffffffffffffffffffffffff1673ffffffffffffffffffffffffffffffffffffffff16815260200190815260200160002060008282546134669190615a68565b92505081905550816071600082825461347f9190615a68565b925050819055505b505050565b60006134ba7f360894a13ba1a3210667c828492db98dca3e2076cc3735a920a3ca505d382bbc60001b614a9d565b60000160009054906101000a900473ffffffffffffffffffffffffffffffffffffffff16905090565b6134eb613395565b73ffffffffffffffffffffffffffffffffffffffff166135096122ec565b73ffffffffffffffffffffffffffffffffffffffff161461355f576040517f08c379a000000000000000000000000000000000000000000000000000000000815260040161355690615820565b60405180910390fd5b50565b600061356c61348c565b905061357784614aa7565b6000835111806135845750815b15613595576135938484614b60565b505b60006135c37f4910fdfa16fed3260ed0e7147f7cc6da11a60208b5b9406d12a635614ffd914360001b614b8d565b90508060000160009054906101000a900460ff1661372c5760018160000160006101000a81548160ff02191690831515021790555061368f858360405160240161360d919061504f565b6040516020818303038152906040527f3659cfe6000000000000000000000000000000000000000000000000000000007bffffffffffffffffffffffffffffffffffffffffffffffffffffffff19166020820180517bffffffffffffffffffffffffffffffffffffffffffffffffffffffff8381831617835250505050614b60565b5060008160000160006101000a81548160ff0219169083151502179055506136b561348c565b73ffffffffffffffffffffffffffffffffffffffff168273ffffffffffffffffffffffffffffffffffffffff1614613722576040517f08c379a000000000000000000000000000000000000000000000000000000000815260040161371990615f2c565b60405180910390fd5b61372b85614b97565b5b5050505050565b60008183106137425781613744565b825b905092915050565b613760836074613b7090919063ffffffff16565b1561376a576139fb565b600080826137f957606673__$18085dca7c6a2f09a309a1b54006aa0b25$__63a4aadfcc909187876072546040518563ffffffff1660e01b81526004016137b49493929190615f4c565b6040805180830381865af41580156137d0573d6000803e3d6000fd5b505050506040513d601f19601f820116820180604052508101906137f49190615f91565b61387c565b606673__$18085dca7c6a2f09a309a1b54006aa0b25$__6399f68a39909187876072546040518563ffffffff1660e01b815260040161383b9493929190615f4c565b6040805180830381865af4158015613857573d6000803e3d6000fd5b505050506040513d601f19601f8201168201806040525081019061387b9190615f91565b5b915091508073ffffffffffffffffffffffffffffffffffffffff168273ffffffffffffffffffffffffffffffffffffffff1614158061393557506001606673__$18085dca7c6a2f09a309a1b54006aa0b25$__6365da149690916040518263ffffffff1660e01b81526004016138f2919061596b565b602060405180830381865af415801561390f573d6000803e3d6000fd5b505050506040513d601f19601f82011682018060405250810190613933919061599b565b145b156139b157606673__$18085dca7c6a2f09a309a1b54006aa0b25$__63cab455ae9091878786866040518663ffffffff1660e01b815260040161397c959493929190615b95565b60006040518083038186803b15801561399457600080fd5b505af41580156139a8573d6000803e3d6000fd5b505050506139f8565b607360009054906101000a900460ff16156139e2576000607360006101000a81548160ff0219169083151502179055505b6139f68560746148f690919063ffffffff16565b505b50505b505050565b600060017f8f989356aeb576065c8d201815b96ac9c10cf89197a532e428ebd68581557c2360001c613a329190615a68565b60001b90508181555050565b6000613a49306132fd565b15905090565b6000603360009054906101000a900473ffffffffffffffffffffffffffffffffffffffff16905081603360006101000a81548173ffffffffffffffffffffffffffffffffffffffff021916908373ffffffffffffffffffffffffffffffffffffffff1602179055508173ffffffffffffffffffffffffffffffffffffffff168173ffffffffffffffffffffffffffffffffffffffff167f8be0079c531659141344cd1fd0a4f28419497f9722a3daafe3b4186f6b6457e060405160405180910390a35050565b600060019054906101000a900460ff16613b64576040517f08c379a0000000000000000000000000000000000000000000000000000000008152600401613b5b90616043565b60405180910390fd5b613b6d81614926565b50565b6000613b98836000018373ffffffffffffffffffffffffffffffffffffffff1660001b614be6565b905092915050565b6000613bc8836000018373ffffffffffffffffffffffffffffffffffffffff1660001b614c09565b905092915050565b6000613bde82600001614d1d565b9050919050565b600073ffffffffffffffffffffffffffffffffffffffff168173ffffffffffffffffffffffffffffffffffffffff161415613c4c576040517f0855380c00000000000000000000000000000000000000000000000000000000815260040160405180910390fd5b600060017f29f060ba1cf8d3659516b02281c85dcc3e81b4287766ae4751c0f500688be30f60001c613c7e9190615a68565b60001b90508181557fd11d57c2c7468878b1035df11c670bcd0091aa840bf8aa166365397622237bea82604051613cb5919061504f565b60405180910390a15050565b606673__$18085dca7c6a2f09a309a1b54006aa0b25$__6302f130289091836040518363ffffffff1660e01b8152600401613cfd929190615be8565b602060405180830381865af4158015613d1a573d6000803e3d6000fd5b505050506040513d601f19601f82011682018060405250810190613d3e9190615c26565b613d7f57806040517f1adbb153000000000000000000000000000000000000000000000000000000008152600401613d76919061504f565b60405180910390fd5b607654606673__$18085dca7c6a2f09a309a1b54006aa0b25$__6365da149690916040518263ffffffff1660e01b8152600401613dbc919061596b565b602060405180830381865af4158015613dd9573d6000803e3d6000fd5b505050506040513d601f19601f82011682018060405250810190613dfd919061599b565b11613e34576040517f0e57c16d00000000000000000000000000000000000000000000000000000000815260040160405180910390fd5b606673__$18085dca7c6a2f09a309a1b54006aa0b25$__63281359299091836040518363ffffffff1660e01b8152600401613e70929190615be8565b60006040518083038186803b158015613e8857600080fd5b505af4158015613e9c573d6000803e3d6000fd5b50505050613eb4816074613ba090919063ffffffff16565b506000606e60008373ffffffffffffffffffffffffffffffffffffffff1673ffffffffffffffffffffffffffffffffffffffff1681526020019081526020016000205490506000811115613fb857613f0e8282600061339d565b613fb5606560009054906101000a900473ffffffffffffffffffffffffffffffffffffffff1673ffffffffffffffffffffffffffffffffffffffff16630567847f836040518263ffffffff1660e01b8152600401613f6c9190614f86565b602060405180830381865afa158015613f89573d6000803e3d6000fd5b505050506040513d601f19601f82011682018060405250810190613fad919061599b565b826000613fff565b50505b8173ffffffffffffffffffffffffffffffffffffffff167fa78a88a551e130ce9732be17784bdff12f72ab4a2c833fb2dcb3ef0818956b0360405160405180910390a25050565b6060806000606673__$18085dca7c6a2f09a309a1b54006aa0b25$__6365da149690916040518263ffffffff1660e01b815260040161403e919061596b565b602060405180830381865af415801561405b573d6000803e3d6000fd5b505050506040513d601f19601f8201168201806040525081019061407f919061599b565b14156140b7576040517f7818a60e00000000000000000000000000000000000000000000000000000000815260040160405180910390fd5b600061413f606f54606673__$18085dca7c6a2f09a309a1b54006aa0b25$__6365da149690916040518263ffffffff1660e01b81526004016140f9919061596b565b602060405180830381865af4158015614116573d6000803e3d6000fd5b505050506040513d601f19601f8201168201806040525081019061413a919061599b565b613733565b905060008167ffffffffffffffff81111561415d5761415c6153e3565b5b60405190808252806020026020018201604052801561418b5781602001602082028036833780820191505090505b50905060008267ffffffffffffffff8111156141aa576141a96153e3565b5b6040519080825280602002602001820160405280156141d85781602001602082028036833780820191505090505b5090506000606673__$18085dca7c6a2f09a309a1b54006aa0b25$__6349923bff90916040518263ffffffff1660e01b8152600401614217919061596b565b602060405180830381865af4158015614234573d6000803e3d6000fd5b505050506040513d601f19601f8201168201806040525081019061425891906159dd565b905060005b848110801561426d575060008a14155b80156142a65750600073ffffffffffffffffffffffffffffffffffffffff168273ffffffffffffffffffffffffffffffffffffffff1614155b15614645576000606560009054906101000a900473ffffffffffffffffffffffffffffffffffffffff1673ffffffffffffffffffffffffffffffffffffffff16632c431058846040518263ffffffff1660e01b8152600401614308919061504f565b602060405180830381865afa158015614325573d6000803e3d6000fd5b505050506040513d601f19601f82011682018060405250810190614349919061599b565b90508873ffffffffffffffffffffffffffffffffffffffff168373ffffffffffffffffffffffffffffffffffffffff1614806143855750600081145b156143ad5761439e83606661333a90919063ffffffff16565b9091509050809350505061425d565b6143b7818c613733565b8483815181106143ca576143c9615a0a565b5b602002602001018181525050828583815181106143ea576143e9615a0a565b5b602002602001019073ffffffffffffffffffffffffffffffffffffffff16908173ffffffffffffffffffffffffffffffffffffffff168152505083828151811061443757614436615a0a565b5b60200260200101518b61444a9190615a68565b9a506000606560009054906101000a900473ffffffffffffffffffffffffffffffffffffffff1673ffffffffffffffffffffffffffffffffffffffff1663c494ec1e86858151811061449f5761449e615a0a565b5b60200260200101516040518263ffffffff1660e01b81526004016144c39190614f86565b602060405180830381865afa1580156144e0573d6000803e3d6000fd5b505050506040513d601f19601f82011682018060405250810190614504919061599b565b9050808b1015614515576000614522565b808b6145219190615a68565b5b9a506145308482600161339d565b61457b84606e60008773ffffffffffffffffffffffffffffffffffffffff1673ffffffffffffffffffffffffffffffffffffffff16815260200190815260200160002054600161374c565b607360009054906101000a900460ff161561461257606673__$18085dca7c6a2f09a309a1b54006aa0b25$__6349923bff90916040518263ffffffff1660e01b81526004016145ca919061596b565b602060405180830381865af41580156145e7573d6000803e3d6000fd5b505050506040513d601f19601f8201168201806040525081019061460b91906159dd565b9350614630565b61462684606661333a90919063ffffffff16565b9091509050809450505b828061463b90615a9c565b935050505061425d565b60008a1461467f576040517f2e6c1bf900000000000000000000000000000000000000000000000000000000815260040160405180910390fd5b6000891461479257600073ffffffffffffffffffffffffffffffffffffffff168273ffffffffffffffffffffffffffffffffffffffff16141561473a57606673__$18085dca7c6a2f09a309a1b54006aa0b25$__6349923bff90916040518263ffffffff1660e01b81526004016146f6919061596b565b602060405180830381865af4158015614713573d6000803e3d6000fd5b505050506040513d601f19601f8201168201806040525081019061473791906159dd565b91505b614746828a600161339d565b61479182606e60008573ffffffffffffffffffffffffffffffffffffffff1673ffffffffffffffffffffffffffffffffffffffff16815260200190815260200160002054600161374c565b5b8067ffffffffffffffff8111156147ac576147ab6153e3565b5b6040519080825280602002602001820160405280156147da5781602001602082028036833780820191505090505b5096508067ffffffffffffffff8111156147f7576147f66153e3565b5b6040519080825280602002602001820160405280156148255781602001602082028036833780820191505090505b50955060005b818110156148e85784818151811061484657614845615a0a565b5b602002602001015188828151811061486157614860615a0a565b5b602002602001019073ffffffffffffffffffffffffffffffffffffffff16908173ffffffffffffffffffffffffffffffffffffffff16815250508381815181106148ae576148ad615a0a565b5b60200260200101518782815181106148c9576148c8615a0a565b5b60200260200101818152505080806148e090615a9c565b91505061482b565b505050505050935093915050565b600061491e836000018373ffffffffffffffffffffffffffffffffffffffff1660001b614d2e565b905092915050565b600073ffffffffffffffffffffffffffffffffffffffff168173ffffffffffffffffffffffffffffffffffffffff16141561498d576040517f0855380c00000000000000000000000000000000000000000000000000000000815260040160405180910390fd5b80606560006101000a81548173ffffffffffffffffffffffffffffffffffffffff021916908373ffffffffffffffffffffffffffffffffffffffff1602179055508073ffffffffffffffffffffffffffffffffffffffff167f60a0f5b9f9e81e98216071b85826681c796256fe3d1354ecb675580fba64fa6960405160405180910390a250565b6000826000018281548110614a2c57614a2b615a0a565b5b9060005260206000200154905092915050565b600060608273ffffffffffffffffffffffffffffffffffffffff16901b60001b9050919050565b614a6e614f44565b614a848284600001614d9e90919063ffffffff16565b905092915050565b600060608260001c901c9050919050565b6000819050919050565b614ab081614dfd565b614aef576040517f08c379a0000000000000000000000000000000000000000000000000000000008152600401614ae6906160d5565b60405180910390fd5b80614b1c7f360894a13ba1a3210667c828492db98dca3e2076cc3735a920a3ca505d382bbc60001b614a9d565b60000160006101000a81548173ffffffffffffffffffffffffffffffffffffffff021916908373ffffffffffffffffffffffffffffffffffffffff16021790555050565b6060614b8583836040518060600160405280602781526020016162ae60279139614e10565b905092915050565b6000819050919050565b614ba081614aa7565b8073ffffffffffffffffffffffffffffffffffffffff167fbc7cd75a20ee27fd9adebab32041f755214dbc6bffa90cc0225b39da2e5c2d3b60405160405180910390a250565b600080836001016000848152602001908152602001600020541415905092915050565b60008083600101600084815260200190815260200160002054905060008114614d11576000600182614c3b9190615a68565b9050600060018660000180549050614c539190615a68565b9050818114614cc2576000866000018281548110614c7457614c73615a0a565b5b9060005260206000200154905080876000018481548110614c9857614c97615a0a565b5b90600052602060002001819055508387600101600083815260200190815260200160002081905550505b85600001805480614cd657614cd56160f5565b5b600190038181906000526020600020016000905590558560010160008681526020019081526020016000206000905560019350505050614d17565b60009150505b92915050565b600081600001805490509050919050565b6000614d3a8383614be6565b614d93578260000182908060018154018082558091505060019003906000526020600020016000909190919091505582600001805490508360010160008481526020019081526020016000208190555060019050614d98565b600090505b92915050565b614da6614f44565b82600301600083815260200190815260200160002060405180606001604052908160008201548152602001600182015481526020016002820160009054906101000a900460ff161515151581525050905092915050565b600080823b905060008111915050919050565b6060614e1b84614dfd565b614e5a576040517f08c379a0000000000000000000000000000000000000000000000000000000008152600401614e5190616196565b60405180910390fd5b6000808573ffffffffffffffffffffffffffffffffffffffff1685604051614e829190616230565b600060405180830381855af49150503d8060008114614ebd576040519150601f19603f3d011682016040523d82523d6000602084013e614ec2565b606091505b5091509150614ed2828286614edd565b925050509392505050565b60608315614eed57829050614f3d565b600083511115614f005782518084602001fd5b816040517f08c379a0000000000000000000000000000000000000000000000000000000008152600401614f34919061628b565b60405180910390fd5b9392505050565b604051806060016040528060008019168152602001600080191681526020016000151581525090565b6000819050919050565b614f8081614f6d565b82525050565b6000602082019050614f9b6000830184614f77565b92915050565b6000604051905090565b600080fd5b600080fd5b614fbe81614f6d565b8114614fc957600080fd5b50565b600081359050614fdb81614fb5565b92915050565b600060208284031215614ff757614ff6614fab565b5b600061500584828501614fcc565b91505092915050565b600073ffffffffffffffffffffffffffffffffffffffff82169050919050565b60006150398261500e565b9050919050565b6150498161502e565b82525050565b60006020820190506150646000830184615040565b92915050565b6150738161502e565b811461507e57600080fd5b50565b6000813590506150908161506a565b92915050565b6000602082840312156150ac576150ab614fab565b5b60006150ba84828501615081565b91505092915050565b60006040820190506150d86000830185615040565b6150e56020830184615040565b9392505050565b60008115159050919050565b615101816150ec565b82525050565b600060208201905061511c60008301846150f8565b92915050565b61512b816150ec565b811461513657600080fd5b50565b60008135905061514881615122565b92915050565b60008060006060848603121561516757615166614fab565b5b600061517586828701615081565b935050602061518686828701614fcc565b925050604061519786828701615139565b9150509250925092565b600081519050919050565b600082825260208201905092915050565b6000819050602082019050919050565b6151d68161502e565b82525050565b60006151e883836151cd565b60208301905092915050565b6000602082019050919050565b600061520c826151a1565b61521681856151ac565b9350615221836151bd565b8060005b8381101561525257815161523988826151dc565b9750615244836151f4565b925050600181019050615225565b5085935050505092915050565b600081519050919050565b600082825260208201905092915050565b6000819050602082019050919050565b61529481614f6d565b82525050565b60006152a6838361528b565b60208301905092915050565b6000602082019050919050565b60006152ca8261525f565b6152d4818561526a565b93506152df8361527b565b8060005b838110156153105781516152f7888261529a565b9750615302836152b2565b9250506001810190506152e3565b5085935050505092915050565b600060408201905081810360008301526153378185615201565b9050818103602083015261534b81846152bf565b90509392505050565b6000819050919050565b61536781615354565b82525050565b6000602082019050615382600083018461535e565b92915050565b6000806040838503121561539f5761539e614fab565b5b60006153ad85828601615081565b92505060206153be85828601615081565b9150509250929050565b600080fd5b600080fd5b6000601f19601f8301169050919050565b7f4e487b7100000000000000000000000000000000000000000000000000000000600052604160045260246000fd5b61541b826153d2565b810181811067ffffffffffffffff8211171561543a576154396153e3565b5b80604052505050565b600061544d614fa1565b90506154598282615412565b919050565b600067ffffffffffffffff821115615479576154786153e3565b5b615482826153d2565b9050602081019050919050565b82818337600083830152505050565b60006154b16154ac8461545e565b615443565b9050828152602081018484840111156154cd576154cc6153cd565b5b6154d884828561548f565b509392505050565b600082601f8301126154f5576154f46153c8565b5b813561550584826020860161549e565b91505092915050565b6000806040838503121561552557615524614fab565b5b600061553385828601615081565b925050602083013567ffffffffffffffff81111561555457615553614fb0565b5b615560858286016154e0565b9150509250929050565b60008060006060848603121561558357615582614fab565b5b600061559186828701615081565b93505060206155a286828701615081565b92505060406155b386828701615081565b9150509250925092565b60006080820190506155d26000830187614f77565b6155df6020830186614f77565b6155ec6040830185614f77565b6155f96060830184614f77565b95945050505050565b6000819050919050565b600061562761562261561d8461500e565b615602565b61500e565b9050919050565b60006156398261560c565b9050919050565b600061564b8261562e565b9050919050565b61565b81615640565b82525050565b60006020820190506156766000830184615652565b92915050565b60008060006060848603121561569557615694614fab565b5b60006156a386828701614fcc565b93505060206156b486828701614fcc565b92505060406156c586828701614fcc565b9150509250925092565b60006156da8261562e565b9050919050565b6156ea816156cf565b82525050565b600060208201905061570560008301846156e1565b92915050565b60008060006060848603121561572457615723614fab565b5b600061573286828701614fcc565b935050602061574386828701614fcc565b925050604061575486828701615081565b9150509250925092565b60006040820190506157736000830185614f77565b6157806020830184614f77565b9392505050565b60006157928261562e565b9050919050565b6157a281615787565b82525050565b60006020820190506157bd6000830184615799565b92915050565b600082825260208201905092915050565b7f4f776e61626c653a2063616c6c6572206973206e6f7420746865206f776e6572600082015250565b600061580a6020836157c3565b9150615815826157d4565b602082019050919050565b60006020820190508181036000830152615839816157fd565b9050919050565b7f46756e6374696f6e206d7573742062652063616c6c6564207468726f7567682060008201527f64656c656761746563616c6c0000000000000000000000000000000000000000602082015250565b600061589c602c836157c3565b91506158a782615840565b604082019050919050565b600060208201905081810360008301526158cb8161588f565b9050919050565b7f46756e6374696f6e206d7573742062652063616c6c6564207468726f7567682060008201527f6163746976652070726f78790000000000000000000000000000000000000000602082015250565b600061592e602c836157c3565b9150615939826158d2565b604082019050919050565b6000602082019050818103600083015261595d81615921565b9050919050565b8082525050565b60006020820190506159806000830184615964565b92915050565b60008151905061599581614fb5565b92915050565b6000602082840312156159b1576159b0614fab565b5b60006159bf84828501615986565b91505092915050565b6000815190506159d78161506a565b92915050565b6000602082840312156159f3576159f2614fab565b5b6000615a01848285016159c8565b91505092915050565b7f4e487b7100000000000000000000000000000000000000000000000000000000600052603260045260246000fd5b7f4e487b7100000000000000000000000000000000000000000000000000000000600052601160045260246000fd5b6000615a7382614f6d565b9150615a7e83614f6d565b925082821015615a9157615a90615a39565b5b828203905092915050565b6000615aa782614f6d565b91507fffffffffffffffffffffffffffffffffffffffffffffffffffffffffffffffff821415615ada57615ad9615a39565b5b600182019050919050565b7f496e697469616c697a61626c653a20636f6e747261637420697320616c72656160008201527f647920696e697469616c697a6564000000000000000000000000000000000000602082015250565b6000615b41602e836157c3565b9150615b4c82615ae5565b604082019050919050565b60006020820190508181036000830152615b7081615b34565b9050919050565b615b808161502e565b82525050565b615b8f81614f6d565b82525050565b600060a082019050615baa6000830188615964565b615bb76020830187615b77565b615bc46040830186615b86565b615bd16060830185615b77565b615bde6080830184615b77565b9695505050505050565b6000604082019050615bfd6000830185615964565b615c0a6020830184615b77565b9392505050565b600081519050615c2081615122565b92915050565b600060208284031215615c3c57615c3b614fab565b5b6000615c4a84828501615c11565b91505092915050565b6000606082019050615c686000830186615040565b615c756020830185614f77565b615c826040830184614f77565b949350505050565b6000819050919050565b6000615caf615caa615ca584615c8a565b615602565b614f6d565b9050919050565b615cbf81615c94565b82525050565b600060a082019050615cda6000830188615964565b615ce76020830187615b77565b615cf46040830186615cb6565b615d016060830185615b77565b615d0e6080830184615b77565b9695505050505050565b7f4e487b7100000000000000000000000000000000000000000000000000000000600052601260045260246000fd5b6000615d5282614f6d565b9150615d5d83614f6d565b925082615d6d57615d6c615d18565b5b828204905092915050565b6000615d8382614f6d565b9150615d8e83614f6d565b9250817fffffffffffffffffffffffffffffffffffffffffffffffffffffffffffffffff0483118215151615615dc757615dc6615a39565b5b828202905092915050565b6000615ddd82614f6d565b9150615de883614f6d565b9250827fffffffffffffffffffffffffffffffffffffffffffffffffffffffffffffffff03821115615e1d57615e1c615a39565b5b828201905092915050565b7f4f776e61626c653a206e6577206f776e657220697320746865207a65726f206160008201527f6464726573730000000000000000000000000000000000000000000000000000602082015250565b6000615e846026836157c3565b9150615e8f82615e28565b604082019050919050565b60006020820190508181036000830152615eb381615e77565b9050919050565b7f45524331393637557067726164653a207570677261646520627265616b73206660008201527f7572746865722075706772616465730000000000000000000000000000000000602082015250565b6000615f16602f836157c3565b9150615f2182615eba565b604082019050919050565b60006020820190508181036000830152615f4581615f09565b9050919050565b6000608082019050615f616000830187615964565b615f6e6020830186615b77565b615f7b6040830185615b86565b615f886060830184615b86565b95945050505050565b60008060408385031215615fa857615fa7614fab565b5b6000615fb6858286016159c8565b9250506020615fc7858286016159c8565b9150509250929050565b7f496e697469616c697a61626c653a20636f6e7472616374206973206e6f74206960008201527f6e697469616c697a696e67000000000000000000000000000000000000000000602082015250565b600061602d602b836157c3565b915061603882615fd1565b604082019050919050565b6000602082019050818103600083015261605c81616020565b9050919050565b7f455243313936373a206e657720696d706c656d656e746174696f6e206973206e60008201527f6f74206120636f6e747261637400000000000000000000000000000000000000602082015250565b60006160bf602d836157c3565b91506160ca82616063565b604082019050919050565b600060208201905081810360008301526160ee816160b2565b9050919050565b7f4e487b7100000000000000000000000000000000000000000000000000000000600052603160045260246000fd5b7f416464726573733a2064656c65676174652063616c6c20746f206e6f6e2d636f60008201527f6e74726163740000000000000000000000000000000000000000000000000000602082015250565b60006161806026836157c3565b915061618b82616124565b604082019050919050565b600060208201905081810360008301526161af81616173565b9050919050565b600081519050919050565b600081905092915050565b60005b838110156161ea5780820151818401526020810190506161cf565b838111156161f9576000848401525b50505050565b600061620a826161b6565b61621481856161c1565b93506162248185602086016161cc565b80840191505092915050565b600061623c82846161ff565b915081905092915050565b600081519050919050565b600061625d82616247565b61626781856157c3565b93506162778185602086016161cc565b616280816153d2565b840191505092915050565b600060208201905081810360008301526162a58184616252565b90509291505056fe416464726573733a206c6f772d6c6576656c2064656c65676174652063616c6c206661696c6564a2646970667358221220bd6aadc6e5659eded076217df31034cc6cc998c942b3f340955661c23154c1aa64736f6c634300080b0033",
  "libraries": {
    "AddressSortedLinkedList": "0xcdC4Ca8C9459eD2367c1bB11b6621fE1CFCab8b2"
  },
  "devdoc": {
    "errors": {
      "CallerNotManager(address)": [
        {
          "params": {
            "caller": "`msg.sender` that called the function."
          }
        }
      ],
      "CallerNotManagerNorStrategy(address)": [
        {
          "params": {
            "caller": "`msg.sender` that called the function."
          }
        }
      ],
      "GroupAlreadyAdded(address)": [
        {
          "params": {
            "group": "The group's address."
          }
        }
      ],
      "GroupNotActive(address)": [
        {
          "params": {
            "group": "The group's address."
          }
        }
      ],
      "GroupNotEligible(address)": [
        {
          "params": {
            "group": "The group's address."
          }
        }
      ],
      "HealthyGroup(address)": [
        {
          "params": {
            "group": "The group's address."
          }
        }
      ],
      "InvalidFromGroup(address)": [
        {
          "params": {
            "group": "The group's address."
          }
        }
      ],
      "InvalidToGroup(address)": [
        {
          "params": {
            "group": "The group's address."
          }
        }
      ],
      "RebalanceEnoughStCelo(address,uint256,uint256)": [
        {
          "params": {
            "actualCelo": "The actual stCELO value.",
            "expectedCelo": "The expected stCELO value.",
            "group": "The group's address."
          }
        }
      ],
      "RebalanceNoExtraStCelo(address,uint256,uint256)": [
        {
          "params": {
            "actualCelo": "The actual stCELO value.",
            "expectedCelo": "The expected stCELO value.",
            "group": "The group's address."
          }
        }
      ]
    },
    "events": {
      "GroupActivated(address)": {
        "params": {
          "group": "The group's address."
        }
      },
      "GroupRemoved(address)": {
        "params": {
          "group": "The group's address."
        }
      },
      "SortedFlagUpdated(bool)": {
        "params": {
          "update": "The new value."
        }
      }
    },
    "kind": "dev",
    "methods": {
      "activatableGroupsCount()": {
        "returns": {
          "_0": "The number of activatable groups."
        }
      },
      "activateGroup(address,address,address)": {
        "params": {
          "greater": "The group receiving more votes (in default strategy) than `group`,  or 0 if `group` has the most votes of any validator group.",
          "group": "The address of the group to add to the set of votable groups.",
          "lesser": "The group receiving fewer votes (in default strategy) than `group`, or 0 if `group` has the fewest votes of any validator group."
        }
      },
      "addActivatableGroup(address)": {
        "params": {
          "group": "The group to add."
        }
      },
      "deactivateGroup(address)": {
        "params": {
          "group": "The group to deactivated."
        }
      },
      "deactivateUnhealthyGroup(address)": {
        "params": {
          "group": "The group to deactivate if unhealthy."
        }
      },
      "generateDepositVoteDistribution(uint256,uint256,address)": {
        "params": {
          "celoAmount": "The amount of votes to distribute.",
          "depositGroupToIgnore": "The group that will not be used for deposit."
        },
        "returns": {
          "finalGroups": "The groups that were chosen for distribution.",
          "finalVotes": "The votes of chosen finalGroups."
        }
      },
      "generateWithdrawalVoteDistribution(uint256)": {
        "params": {
          "celoAmount": "The amount of votes to subtract."
        },
        "returns": {
          "finalGroups": "The groups that were chosen for subtraction.",
          "finalVotes": "The votes of chosen finalGroups."
        }
      },
      "getActivatableGroupAt(uint256)": {
        "params": {
          "index": "The index to look up."
        },
        "returns": {
          "_0": "The group."
        }
      },
      "getExpectedAndActualStCeloForGroup(address)": {
        "params": {
          "group": "The group."
        },
        "returns": {
          "actualStCelo": "The amount of stCELO which is currently assigned to group in the strategy.",
          "expectedStCelo": "The amount of stCELO that group should have. (The total amount of stCELO in the default strategy divided by the number of active groups.)"
        }
      },
      "getGroupPreviousAndNext(address)": {
        "params": {
          "group": "The group address."
        },
        "returns": {
          "nextAddress": "The next address.",
          "previousAddress": "The previous address."
        }
      },
      "getGroupsHead()": {
        "returns": {
          "head": "The address of the sorted group with most votes.",
          "previousAddress": "The previous address from head."
        }
      },
      "getGroupsTail()": {
        "returns": {
          "nextAddress": "The next address after tail.",
          "tail": "The address of the sorted group with least votes."
        }
      },
      "getNumberOfGroups()": {
        "returns": {
          "_0": "The number of active groups."
        }
      },
      "getNumberOfUnsortedGroups()": {
        "returns": {
          "_0": "The number of unsorted groups."
        }
      },
      "getUnsortedGroupAt(uint256)": {
        "params": {
          "index": "The index to look up."
        },
        "returns": {
          "_0": "The group."
        }
      },
      "getVersionNumber()": {
        "returns": {
          "_0": "Storage version of the contract.",
          "_1": "Major version of the contract.",
          "_2": "Minor version of the contract.",
          "_3": "Patch version of the contract."
        }
      },
      "initialize(address,address)": {
        "params": {
          "_manager": "The address of the Manager contract.",
          "_owner": "The address of the contract owner."
        }
      },
      "isActive(address)": {
        "returns": {
          "_0": "Whether or not the given group is active."
        }
      },
      "isPaused()": {
        "returns": {
          "_0": "`true` if the contract is paused, `false` otherwise."
        }
      },
      "owner()": {
        "details": "Returns the address of the current owner."
      },
      "rebalance(address,address)": {
        "params": {
          "fromGroup": "The from group.",
          "toGroup": "The to group."
        }
      },
      "renounceOwnership()": {
        "details": "Leaves the contract without owner. It will not be possible to call `onlyOwner` functions anymore. Can only be called by the current owner. NOTE: Renouncing ownership will leave the contract without an owner, thereby removing any functionality that is only available to the owner."
      },
      "setDependencies(address,address,address)": {
        "params": {
          "_account": "The address of the Account contract.",
          "_groupHealth": "The address of the GroupHealth contract.",
          "_specificGroupStrategy": "The address of the SpecificGroupStrategy contract."
        }
      },
      "setManager(address)": {
        "params": {
          "_manager": "The new manager address."
        }
      },
      "setMinCountOfActiveGroups(uint256)": {
        "params": {
          "minCount": "The minimum number of active groups."
        }
      },
      "setSortingParams(uint256,uint256,uint256)": {
        "params": {
          "distributeTo": "Maximum number of groups that can be distributed to.",
          "loopLimit": "The sorting loop limit while sorting active groups on chain.",
          "withdrawFrom": "Maximum number of groups that can be withdrawn from."
        }
      },
      "transferOwnership(address)": {
        "details": "Transfers ownership of the contract to a new account (`newOwner`). Can only be called by the current owner."
      },
      "updateActiveGroupOrder(address,address,address)": {
        "params": {
          "greaterKey": "The key of the group greater than the group to update.",
          "group": "The group address.",
          "lesserKey": "The key of the group less than the group to update."
        }
      },
      "updateGroupStCelo(address,uint256,bool)": {
        "params": {
          "add": "Whether to add or subtract.",
          "group": "The group address.",
          "stCeloAmount": "The amount of stCELO."
        }
      },
      "upgradeTo(address)": {
        "details": "Upgrade the implementation of the proxy to `newImplementation`. Calls {_authorizeUpgrade}. Emits an {Upgraded} event."
      },
      "upgradeToAndCall(address,bytes)": {
        "details": "Upgrade the implementation of the proxy to `newImplementation`, and subsequently execute the function call encoded in `data`. Calls {_authorizeUpgrade}. Emits an {Upgraded} event."
      }
    },
    "title": "DefaultStrategy is responsible for handling any deposit/withdrawal for accounts without any specific strategy.",
    "version": 1
  },
  "userdoc": {
    "errors": {
      "AddressZeroNotAllowed()": [
        {
          "notice": "Used when attempting to pass in address zero where not allowed."
        }
      ],
      "CallerNotManager(address)": [
        {
          "notice": "Used when an `onlyManager` function is called by a non-manager."
        }
      ],
      "CallerNotManagerNorStrategy(address)": [
        {
          "notice": "Used when a `managerOrStrategy` function is called  by a non-manager or non-strategy."
        }
      ],
      "GroupAlreadyAdded(address)": [
        {
          "notice": "Used when attempting to activate a group that is already active."
        }
      ],
      "GroupNotActivatable(address)": [
        {
          "notice": "Used when attempting to activate a group that is not activatable."
        }
      ],
      "GroupNotActive(address)": [
        {
          "notice": "Used when attempting to deactivate a group that is not active."
        }
      ],
      "GroupNotEligible(address)": [
        {
          "notice": "Used when a group does not meet the validator group health requirements."
        }
      ],
      "HealthyGroup(address)": [
        {
          "notice": "Used when attempting to deactivate a healthy group using deactivateUnhealthyGroup()."
        }
      ],
      "InvalidFromGroup(address)": [
        {
          "notice": "Used when rebalancing from non-active group."
        }
      ],
      "InvalidToGroup(address)": [
        {
          "notice": "Used when rebalancing to a non-active group."
        }
      ],
      "MinimumCountOfActiveGroupsReached()": [
        {
          "notice": "Used when attempting to deactivate a group when the minimum number of active groups reached."
        }
      ],
      "NoActiveGroups()": [
        {
          "notice": "Used when attempting to deposit when there are no active groups to vote for."
        }
      ],
      "NotAbleToDistributeVotes()": [
        {
          "notice": "Used when atempting to distribute votes but validator group limit is reached."
        }
      ],
      "NotUnsortedGroup()": [
        {
          "notice": "Used when attempting sort active groups when there are no unsorted group."
        }
      ],
      "OnlyPauser()": [
        {
          "notice": "Used when an `onlyPauser` function is called with a different address."
        }
      ],
      "Paused()": [
        {
          "notice": "Used when an `onlyWhenNotPaused` function is called while the contract is paused."
        }
      ],
      "RebalanceEnoughStCelo(address,uint256,uint256)": [
        {
          "notice": "Used when rebalancing and `toGroup` has enough stCELO."
        }
      ],
      "RebalanceNoExtraStCelo(address,uint256,uint256)": [
        {
          "notice": "Used when rebalancing and `fromGroup` doesn't have any extra stCELO."
        }
      ]
    },
    "events": {
      "ContractPaused()": {
        "notice": "Emitted when this contract is paused."
      },
      "ContractUnpaused()": {
        "notice": "Emitted when this contract is unpaused."
      },
      "GroupActivated(address)": {
        "notice": "Emitted when a new group is activated for voting."
      },
      "GroupRemoved(address)": {
        "notice": "Emitted when a group is deactivated."
      },
      "ManagerSet(address)": {
        "notice": "Emitted when the manager is initially set or later modified."
      },
      "PauserSet(address)": {
        "notice": "Emitted when the address authorized to pause/unpause the contract is changed."
      },
      "SortedFlagUpdated(bool)": {
        "notice": "Emmited when sorted status of active groups was changed."
      }
    },
    "kind": "user",
    "methods": {
      "PAUSED_POSITION()": {
        "notice": "The storage slot under which we store a boolean representing whether or not the contract is currently paused."
      },
      "PAUSER_POSITION()": {
        "notice": "The storage slot under which we store an address representing the address permissioned to pause/unpause this contract."
      },
      "account()": {
        "notice": "An instance of the Account contract for the StakedCelo protocol."
      },
      "activatableGroupsCount()": {
        "notice": "Returns the number of activatable groups."
      },
      "activateGroup(address,address,address)": {
        "notice": "Marks a group as votable for default strategy. It is necessary to call `updateGroupHealth` in GroupHealth smart contract first."
      },
      "addActivatableGroup(address)": {
        "notice": "Adds group to activatable groups."
      },
      "constructor": {
        "notice": "Empty constructor for proxy implementation, `initializer` modifer ensures the implementation gets initialized."
      },
      "deactivateGroup(address)": {
        "notice": "Deactivates group."
      },
      "deactivateUnhealthyGroup(address)": {
        "notice": "Deactivates an unhealthy group."
      },
      "generateDepositVoteDistribution(uint256,uint256,address)": {
        "notice": "Distributes votes by computing the number of votes each active group should receive."
      },
      "generateWithdrawalVoteDistribution(uint256)": {
        "notice": "Distributes votes by computing the number of votes to be subtracted from each active group."
      },
      "getActivatableGroupAt(uint256)": {
        "notice": "Returns the activatable group at index."
      },
      "getExpectedAndActualStCeloForGroup(address)": {
        "notice": "Returns expected stCELO and actual stCELO for group."
      },
      "getGroupPreviousAndNext(address)": {
        "notice": "Returns previous and next address of key."
      },
      "getGroupsHead()": {
        "notice": "Returns head and previous address of head."
      },
      "getGroupsTail()": {
        "notice": "Returns tail and next address of tail."
      },
      "getNumberOfGroups()": {
        "notice": "Returns the number of active groups."
      },
      "getNumberOfUnsortedGroups()": {
        "notice": "Returns the number of unsorted groups."
      },
      "getUnsortedGroupAt(uint256)": {
        "notice": "Returns the unsorted group at index."
      },
      "getVersionNumber()": {
        "notice": "Returns the storage, major, minor, and patch version of the contract."
      },
      "groupHealth()": {
        "notice": "An instance of the GroupHealth contract for the StakedCelo protocol."
      },
      "initialize(address,address)": {
        "notice": "Initialize the contract with registry and owner."
      },
      "isActive(address)": {
        "notice": "Returns whether active groups contain group."
      },
      "isPaused()": {
        "notice": "Returns whether or not the contract is paused."
      },
      "maxGroupsToDistributeTo()": {
        "notice": "Maximum number of groups to distribute votes to."
      },
      "maxGroupsToWithdrawFrom()": {
        "notice": "Maximum number of groups to withdraw from."
      },
      "minCountOfActiveGroups()": {
        "notice": "Minimum count of active groups."
      },
      "pause()": {
        "notice": "Pauses the contract."
      },
      "pauser()": {
        "notice": "Returns the address permissioned to pause/unpause this contract."
      },
      "rebalance(address,address)": {
        "notice": "Rebalances CELO between groups that have an incorrect CELO-stCELO ratio. `fromGroup` is required to have more CELO than it should and `toGroup` needs to have less CELO than it should."
      },
      "setDependencies(address,address,address)": {
        "notice": "Set this contract's dependencies in the StakedCelo system."
      },
      "setManager(address)": {
        "notice": "Sets the manager address."
      },
      "setMinCountOfActiveGroups(uint256)": {
        "notice": "Sets the minimum number of active groups."
      },
      "setPauser()": {
        "notice": "Sets that address permissioned to pause/unpause this contract to the owner of this contract."
      },
      "setSortingParams(uint256,uint256,uint256)": {
        "notice": "Set distribution/withdrawal algorithm parameters."
      },
      "sorted()": {
        "notice": "Whether or not active groups are sorted. If active groups are not sorted it is neccessary to call updateActiveGroupOrder."
      },
      "specificGroupStrategy()": {
        "notice": "An instance of the SpecificGroupStrategy for the StakedCelo protocol."
      },
      "stCeloInGroup(address)": {
        "notice": "StCELO that was cast for default group strategy, strategy => stCELO amount."
      },
      "totalStCeloInStrategy()": {
        "notice": "Total stCELO that was voted with on default strategy."
      },
      "unpause()": {
        "notice": "Unpauses the contract."
      },
      "updateActiveGroupOrder(address,address,address)": {
        "notice": "Updates group order of unsorted group. When there are no more unsorted groups it will mark active groups as sorted."
      },
      "updateGroupStCelo(address,uint256,bool)": {
        "notice": "Updates the total stCELO in default group strategy."
      }
    },
    "version": 1
  },
  "storageLayout": {
    "storage": [
      {
        "astId": 130,
        "contract": "contracts/DefaultStrategy.sol:DefaultStrategy",
        "label": "_initialized",
        "offset": 0,
        "slot": "0",
        "type": "t_bool"
      },
      {
        "astId": 133,
        "contract": "contracts/DefaultStrategy.sol:DefaultStrategy",
        "label": "_initializing",
        "offset": 1,
        "slot": "0",
        "type": "t_bool"
      },
      {
        "astId": 584,
        "contract": "contracts/DefaultStrategy.sol:DefaultStrategy",
        "label": "__gap",
        "offset": 0,
        "slot": "1",
        "type": "t_array(t_uint256)50_storage"
      },
      {
        "astId": 10,
        "contract": "contracts/DefaultStrategy.sol:DefaultStrategy",
        "label": "_owner",
        "offset": 0,
        "slot": "51",
        "type": "t_address"
      },
      {
        "astId": 122,
        "contract": "contracts/DefaultStrategy.sol:DefaultStrategy",
        "label": "__gap",
        "offset": 0,
        "slot": "52",
        "type": "t_array(t_uint256)49_storage"
      },
      {
        "astId": 7309,
        "contract": "contracts/DefaultStrategy.sol:DefaultStrategy",
        "label": "manager",
        "offset": 0,
        "slot": "101",
        "type": "t_address"
      },
      {
        "astId": 5256,
        "contract": "contracts/DefaultStrategy.sol:DefaultStrategy",
        "label": "activeGroups",
        "offset": 0,
        "slot": "102",
        "type": "t_struct(List)16193_storage"
      },
      {
        "astId": 5260,
        "contract": "contracts/DefaultStrategy.sol:DefaultStrategy",
        "label": "groupHealth",
        "offset": 0,
        "slot": "107",
        "type": "t_contract(IGroupHealth)17667"
      },
      {
        "astId": 5264,
        "contract": "contracts/DefaultStrategy.sol:DefaultStrategy",
        "label": "account",
        "offset": 0,
        "slot": "108",
        "type": "t_contract(IAccount)16891"
      },
      {
        "astId": 5268,
        "contract": "contracts/DefaultStrategy.sol:DefaultStrategy",
        "label": "specificGroupStrategy",
        "offset": 0,
        "slot": "109",
        "type": "t_contract(ISpecificGroupStrategy)17987"
      },
      {
        "astId": 5273,
        "contract": "contracts/DefaultStrategy.sol:DefaultStrategy",
        "label": "stCeloInGroup",
        "offset": 0,
        "slot": "110",
        "type": "t_mapping(t_address,t_uint256)"
      },
      {
        "astId": 5276,
        "contract": "contracts/DefaultStrategy.sol:DefaultStrategy",
        "label": "maxGroupsToDistributeTo",
        "offset": 0,
        "slot": "111",
        "type": "t_uint256"
      },
      {
        "astId": 5279,
        "contract": "contracts/DefaultStrategy.sol:DefaultStrategy",
        "label": "maxGroupsToWithdrawFrom",
        "offset": 0,
        "slot": "112",
        "type": "t_uint256"
      },
      {
        "astId": 5282,
        "contract": "contracts/DefaultStrategy.sol:DefaultStrategy",
        "label": "totalStCeloInStrategy",
        "offset": 0,
        "slot": "113",
        "type": "t_uint256"
      },
      {
        "astId": 5285,
        "contract": "contracts/DefaultStrategy.sol:DefaultStrategy",
        "label": "sortingLoopLimit",
        "offset": 0,
        "slot": "114",
        "type": "t_uint256"
      },
      {
        "astId": 5288,
        "contract": "contracts/DefaultStrategy.sol:DefaultStrategy",
        "label": "sorted",
        "offset": 0,
        "slot": "115",
        "type": "t_bool"
      },
      {
        "astId": 5292,
        "contract": "contracts/DefaultStrategy.sol:DefaultStrategy",
        "label": "unsortedGroups",
        "offset": 0,
        "slot": "116",
        "type": "t_struct(AddressSet)3257_storage"
      },
      {
        "astId": 5295,
        "contract": "contracts/DefaultStrategy.sol:DefaultStrategy",
        "label": "minCountOfActiveGroups",
        "offset": 0,
        "slot": "118",
        "type": "t_uint256"
      },
      {
        "astId": 5299,
        "contract": "contracts/DefaultStrategy.sol:DefaultStrategy",
        "label": "activatableGroups",
        "offset": 0,
        "slot": "119",
        "type": "t_struct(AddressSet)3257_storage"
      }
    ],
    "types": {
      "t_address": {
        "encoding": "inplace",
        "label": "address",
        "numberOfBytes": "20"
      },
      "t_array(t_bytes32)dyn_storage": {
        "base": "t_bytes32",
        "encoding": "dynamic_array",
        "label": "bytes32[]",
        "numberOfBytes": "32"
      },
      "t_array(t_uint256)49_storage": {
        "base": "t_uint256",
        "encoding": "inplace",
        "label": "uint256[49]",
        "numberOfBytes": "1568"
      },
      "t_array(t_uint256)50_storage": {
        "base": "t_uint256",
        "encoding": "inplace",
        "label": "uint256[50]",
        "numberOfBytes": "1600"
      },
      "t_bool": {
        "encoding": "inplace",
        "label": "bool",
        "numberOfBytes": "1"
      },
      "t_bytes32": {
        "encoding": "inplace",
        "label": "bytes32",
        "numberOfBytes": "32"
      },
      "t_contract(IAccount)16891": {
        "encoding": "inplace",
        "label": "contract IAccount",
        "numberOfBytes": "20"
      },
      "t_contract(IGroupHealth)17667": {
        "encoding": "inplace",
        "label": "contract IGroupHealth",
        "numberOfBytes": "20"
      },
      "t_contract(ISpecificGroupStrategy)17987": {
        "encoding": "inplace",
        "label": "contract ISpecificGroupStrategy",
        "numberOfBytes": "20"
      },
      "t_mapping(t_address,t_uint256)": {
        "encoding": "mapping",
        "key": "t_address",
        "label": "mapping(address => uint256)",
        "numberOfBytes": "32",
        "value": "t_uint256"
      },
      "t_mapping(t_bytes32,t_struct(Element)15654_storage)": {
        "encoding": "mapping",
        "key": "t_bytes32",
        "label": "mapping(bytes32 => struct LinkedList.Element)",
        "numberOfBytes": "32",
        "value": "t_struct(Element)15654_storage"
      },
      "t_mapping(t_bytes32,t_uint256)": {
        "encoding": "mapping",
        "key": "t_bytes32",
        "label": "mapping(bytes32 => uint256)",
        "numberOfBytes": "32",
        "value": "t_uint256"
      },
      "t_struct(AddressSet)3257_storage": {
        "encoding": "inplace",
        "label": "struct EnumerableSet.AddressSet",
        "members": [
          {
            "astId": 3256,
            "contract": "contracts/DefaultStrategy.sol:DefaultStrategy",
            "label": "_inner",
            "offset": 0,
            "slot": "0",
            "type": "t_struct(Set)2956_storage"
          }
        ],
        "numberOfBytes": "64"
      },
      "t_struct(Element)15654_storage": {
        "encoding": "inplace",
        "label": "struct LinkedList.Element",
        "members": [
          {
            "astId": 15649,
            "contract": "contracts/DefaultStrategy.sol:DefaultStrategy",
            "label": "previousKey",
            "offset": 0,
            "slot": "0",
            "type": "t_bytes32"
          },
          {
            "astId": 15651,
            "contract": "contracts/DefaultStrategy.sol:DefaultStrategy",
            "label": "nextKey",
            "offset": 0,
            "slot": "1",
            "type": "t_bytes32"
          },
          {
            "astId": 15653,
            "contract": "contracts/DefaultStrategy.sol:DefaultStrategy",
            "label": "exists",
            "offset": 0,
            "slot": "2",
            "type": "t_bool"
          }
        ],
        "numberOfBytes": "96"
      },
      "t_struct(List)15666_storage": {
        "encoding": "inplace",
        "label": "struct LinkedList.List",
        "members": [
          {
            "astId": 15656,
            "contract": "contracts/DefaultStrategy.sol:DefaultStrategy",
            "label": "head",
            "offset": 0,
            "slot": "0",
            "type": "t_bytes32"
          },
          {
            "astId": 15658,
            "contract": "contracts/DefaultStrategy.sol:DefaultStrategy",
            "label": "tail",
            "offset": 0,
            "slot": "1",
            "type": "t_bytes32"
          },
          {
            "astId": 15660,
            "contract": "contracts/DefaultStrategy.sol:DefaultStrategy",
            "label": "numElements",
            "offset": 0,
            "slot": "2",
            "type": "t_uint256"
          },
          {
            "astId": 15665,
            "contract": "contracts/DefaultStrategy.sol:DefaultStrategy",
            "label": "elements",
            "offset": 0,
            "slot": "3",
            "type": "t_mapping(t_bytes32,t_struct(Element)15654_storage)"
          }
        ],
        "numberOfBytes": "128"
      },
      "t_struct(List)16193_storage": {
        "encoding": "inplace",
        "label": "struct SortedLinkedList.List",
        "members": [
          {
            "astId": 16188,
            "contract": "contracts/DefaultStrategy.sol:DefaultStrategy",
            "label": "list",
            "offset": 0,
            "slot": "0",
            "type": "t_struct(List)15666_storage"
          },
          {
            "astId": 16192,
            "contract": "contracts/DefaultStrategy.sol:DefaultStrategy",
            "label": "values",
            "offset": 0,
            "slot": "4",
            "type": "t_mapping(t_bytes32,t_uint256)"
          }
        ],
        "numberOfBytes": "160"
      },
      "t_struct(Set)2956_storage": {
        "encoding": "inplace",
        "label": "struct EnumerableSet.Set",
        "members": [
          {
            "astId": 2951,
            "contract": "contracts/DefaultStrategy.sol:DefaultStrategy",
            "label": "_values",
            "offset": 0,
            "slot": "0",
            "type": "t_array(t_bytes32)dyn_storage"
          },
          {
            "astId": 2955,
            "contract": "contracts/DefaultStrategy.sol:DefaultStrategy",
            "label": "_indexes",
            "offset": 0,
            "slot": "1",
            "type": "t_mapping(t_bytes32,t_uint256)"
          }
        ],
        "numberOfBytes": "64"
      },
      "t_uint256": {
        "encoding": "inplace",
        "label": "uint256",
        "numberOfBytes": "32"
      }
    }
  }
}