{
  "address": "0xC4cd8ae0566f6A7faC62F4bc79cBe1DBb987BD3b",
  "abi": [
    {
      "inputs": [
        {
          "internalType": "address",
          "name": "caller",
          "type": "address"
        }
      ],
      "name": "CallerNotManager",
      "type": "error"
    },
    {
      "inputs": [
        {
          "internalType": "address",
          "name": "caller",
          "type": "address"
        }
      ],
      "name": "CallerNotManagerNorStrategy",
      "type": "error"
    },
    {
      "inputs": [],
      "name": "CantWithdrawAccordingToStrategy",
      "type": "error"
    },
    {
      "inputs": [
        {
          "internalType": "address",
          "name": "group",
          "type": "address"
        }
      ],
      "name": "GroupAlreadyAdded",
      "type": "error"
    },
    {
      "inputs": [
        {
          "internalType": "address",
          "name": "group",
          "type": "address"
        }
      ],
      "name": "GroupNotActive",
      "type": "error"
    },
    {
      "inputs": [
        {
          "internalType": "address",
          "name": "group",
          "type": "address"
        }
      ],
      "name": "GroupNotEligible",
      "type": "error"
    },
    {
      "inputs": [
        {
          "internalType": "address",
          "name": "group",
          "type": "address"
        }
      ],
      "name": "HealthyGroup",
      "type": "error"
    },
    {
      "inputs": [
        {
          "internalType": "address",
          "name": "group",
          "type": "address"
        }
      ],
      "name": "InvalidFromGroup",
      "type": "error"
    },
    {
      "inputs": [
        {
          "internalType": "address",
          "name": "group",
          "type": "address"
        }
      ],
      "name": "InvalidToGroup",
      "type": "error"
    },
    {
      "inputs": [],
      "name": "NoActiveGroups",
      "type": "error"
    },
    {
      "inputs": [],
      "name": "NotAbleToDistributeVotes",
      "type": "error"
    },
    {
      "inputs": [],
      "name": "NotUnsortedGroup",
      "type": "error"
    },
    {
      "inputs": [],
      "name": "NullAddress",
      "type": "error"
    },
    {
      "inputs": [
        {
          "internalType": "address",
          "name": "group",
          "type": "address"
        },
        {
          "internalType": "uint256",
          "name": "actualCelo",
          "type": "uint256"
        },
        {
          "internalType": "uint256",
          "name": "expectedCelo",
          "type": "uint256"
        }
      ],
      "name": "RebalanceEnoughStCelo",
      "type": "error"
    },
    {
      "inputs": [
        {
          "internalType": "address",
          "name": "group",
          "type": "address"
        },
        {
          "internalType": "uint256",
          "name": "actualCelo",
          "type": "uint256"
        },
        {
          "internalType": "uint256",
          "name": "expectedCelo",
          "type": "uint256"
        }
      ],
      "name": "RebalanceNoExtraStCelo",
      "type": "error"
    },
    {
      "anonymous": false,
      "inputs": [
        {
          "indexed": false,
          "internalType": "address",
          "name": "previousAdmin",
          "type": "address"
        },
        {
          "indexed": false,
          "internalType": "address",
          "name": "newAdmin",
          "type": "address"
        }
      ],
      "name": "AdminChanged",
      "type": "event"
    },
    {
      "anonymous": false,
      "inputs": [
        {
          "indexed": true,
          "internalType": "address",
          "name": "beacon",
          "type": "address"
        }
      ],
      "name": "BeaconUpgraded",
      "type": "event"
    },
    {
      "anonymous": false,
      "inputs": [
        {
          "indexed": true,
          "internalType": "address",
          "name": "group",
          "type": "address"
        }
      ],
      "name": "GroupActivated",
      "type": "event"
    },
    {
      "anonymous": false,
      "inputs": [
        {
          "indexed": true,
          "internalType": "address",
          "name": "group",
          "type": "address"
        }
      ],
      "name": "GroupRemoved",
      "type": "event"
    },
    {
      "anonymous": false,
      "inputs": [
        {
          "indexed": true,
          "internalType": "address",
          "name": "manager",
          "type": "address"
        }
      ],
      "name": "ManagerSet",
      "type": "event"
    },
    {
      "anonymous": false,
      "inputs": [
        {
          "indexed": true,
          "internalType": "address",
          "name": "previousOwner",
          "type": "address"
        },
        {
          "indexed": true,
          "internalType": "address",
          "name": "newOwner",
          "type": "address"
        }
      ],
      "name": "OwnershipTransferred",
      "type": "event"
    },
    {
      "anonymous": false,
      "inputs": [
        {
          "indexed": false,
          "internalType": "bool",
          "name": "update",
          "type": "bool"
        }
      ],
      "name": "SortedFlagUpdated",
      "type": "event"
    },
    {
      "anonymous": false,
      "inputs": [
        {
          "indexed": true,
          "internalType": "address",
          "name": "implementation",
          "type": "address"
        }
      ],
      "name": "Upgraded",
      "type": "event"
    },
    {
      "inputs": [],
      "name": "account",
      "outputs": [
        {
          "internalType": "contract IAccount",
          "name": "",
          "type": "address"
        }
      ],
      "stateMutability": "view",
      "type": "function"
    },
    {
      "inputs": [
        {
          "internalType": "address",
          "name": "group",
          "type": "address"
        },
        {
          "internalType": "address",
          "name": "lesser",
          "type": "address"
        },
        {
          "internalType": "address",
          "name": "greater",
          "type": "address"
        }
      ],
      "name": "activateGroup",
      "outputs": [],
      "stateMutability": "nonpayable",
      "type": "function"
    },
    {
      "inputs": [
        {
          "internalType": "address",
          "name": "group",
          "type": "address"
        }
      ],
      "name": "deactivateGroup",
      "outputs": [],
      "stateMutability": "nonpayable",
      "type": "function"
    },
    {
      "inputs": [
        {
          "internalType": "address",
          "name": "group",
          "type": "address"
        }
      ],
      "name": "deactivateUnhealthyGroup",
      "outputs": [],
      "stateMutability": "nonpayable",
      "type": "function"
    },
    {
      "inputs": [
        {
          "internalType": "bool",
          "name": "withdraw",
          "type": "bool"
        },
        {
          "internalType": "uint256",
          "name": "celoAmount",
          "type": "uint256"
        },
        {
          "internalType": "address",
          "name": "depositGroupToIgnore",
          "type": "address"
        }
      ],
      "name": "generateVoteDistribution",
      "outputs": [
        {
          "internalType": "address[]",
          "name": "finalGroups",
          "type": "address[]"
        },
        {
          "internalType": "uint256[]",
          "name": "finalVotes",
          "type": "uint256[]"
        }
      ],
      "stateMutability": "nonpayable",
      "type": "function"
    },
    {
      "inputs": [
        {
          "internalType": "address",
          "name": "group",
          "type": "address"
        }
      ],
      "name": "getExpectedAndActualStCeloForGroup",
      "outputs": [
        {
          "internalType": "uint256",
          "name": "expectedStCelo",
          "type": "uint256"
        },
        {
          "internalType": "uint256",
          "name": "actualStCelo",
          "type": "uint256"
        }
      ],
      "stateMutability": "view",
      "type": "function"
    },
    {
      "inputs": [
        {
          "internalType": "address",
          "name": "group",
          "type": "address"
        }
      ],
      "name": "getGroupPreviousAndNext",
      "outputs": [
        {
          "internalType": "address",
          "name": "previousAddress",
          "type": "address"
        },
        {
          "internalType": "address",
          "name": "nextAddress",
          "type": "address"
        }
      ],
      "stateMutability": "view",
      "type": "function"
    },
    {
      "inputs": [],
      "name": "getGroupsHead",
      "outputs": [
        {
          "internalType": "address",
          "name": "head",
          "type": "address"
        },
        {
          "internalType": "address",
          "name": "previousAddress",
          "type": "address"
        }
      ],
      "stateMutability": "view",
      "type": "function"
    },
    {
      "inputs": [],
      "name": "getGroupsTail",
      "outputs": [
        {
          "internalType": "address",
          "name": "tail",
          "type": "address"
        },
        {
          "internalType": "address",
          "name": "nextAddress",
          "type": "address"
        }
      ],
      "stateMutability": "view",
      "type": "function"
    },
    {
      "inputs": [],
      "name": "getNumberOfGroups",
      "outputs": [
        {
          "internalType": "uint256",
          "name": "",
          "type": "uint256"
        }
      ],
      "stateMutability": "view",
      "type": "function"
    },
    {
      "inputs": [],
      "name": "getNumberOfUnsortedGroups",
      "outputs": [
        {
          "internalType": "uint256",
          "name": "",
          "type": "uint256"
        }
      ],
      "stateMutability": "view",
      "type": "function"
    },
    {
      "inputs": [
        {
          "internalType": "uint256",
          "name": "index",
          "type": "uint256"
        }
      ],
      "name": "getUnsortedGroupAt",
      "outputs": [
        {
          "internalType": "address",
          "name": "",
          "type": "address"
        }
      ],
      "stateMutability": "view",
      "type": "function"
    },
    {
      "inputs": [],
      "name": "getVersionNumber",
      "outputs": [
        {
          "internalType": "uint256",
          "name": "",
          "type": "uint256"
        },
        {
          "internalType": "uint256",
          "name": "",
          "type": "uint256"
        },
        {
          "internalType": "uint256",
          "name": "",
          "type": "uint256"
        },
        {
          "internalType": "uint256",
          "name": "",
          "type": "uint256"
        }
      ],
      "stateMutability": "pure",
      "type": "function"
    },
    {
      "inputs": [],
      "name": "groupHealth",
      "outputs": [
        {
          "internalType": "contract IGroupHealth",
          "name": "",
          "type": "address"
        }
      ],
      "stateMutability": "view",
      "type": "function"
    },
    {
      "inputs": [
        {
          "internalType": "address",
          "name": "_registry",
          "type": "address"
        },
        {
          "internalType": "address",
          "name": "_owner",
          "type": "address"
        },
        {
          "internalType": "address",
          "name": "_manager",
          "type": "address"
        }
      ],
      "name": "initialize",
      "outputs": [],
      "stateMutability": "nonpayable",
      "type": "function"
    },
    {
      "inputs": [
        {
          "internalType": "address",
          "name": "group",
          "type": "address"
        }
      ],
      "name": "isActive",
      "outputs": [
        {
          "internalType": "bool",
          "name": "",
          "type": "bool"
        }
      ],
      "stateMutability": "view",
      "type": "function"
    },
    {
      "inputs": [],
      "name": "manager",
      "outputs": [
        {
          "internalType": "address",
          "name": "",
          "type": "address"
        }
      ],
      "stateMutability": "view",
      "type": "function"
    },
    {
      "inputs": [],
      "name": "maxGroupsToDistributeTo",
      "outputs": [
        {
          "internalType": "uint256",
          "name": "",
          "type": "uint256"
        }
      ],
      "stateMutability": "view",
      "type": "function"
    },
    {
      "inputs": [],
      "name": "maxGroupsToWithdrawFrom",
      "outputs": [
        {
          "internalType": "uint256",
          "name": "",
          "type": "uint256"
        }
      ],
      "stateMutability": "view",
      "type": "function"
    },
    {
      "inputs": [],
      "name": "owner",
      "outputs": [
        {
          "internalType": "address",
          "name": "",
          "type": "address"
        }
      ],
      "stateMutability": "view",
      "type": "function"
    },
    {
      "inputs": [
        {
          "internalType": "address",
          "name": "fromGroup",
          "type": "address"
        },
        {
          "internalType": "address",
          "name": "toGroup",
          "type": "address"
        }
      ],
      "name": "rebalance",
      "outputs": [],
      "stateMutability": "nonpayable",
      "type": "function"
    },
    {
      "inputs": [],
      "name": "registry",
      "outputs": [
        {
          "internalType": "contract IRegistry",
          "name": "",
          "type": "address"
        }
      ],
      "stateMutability": "view",
      "type": "function"
    },
    {
      "inputs": [],
      "name": "renounceOwnership",
      "outputs": [],
      "stateMutability": "nonpayable",
      "type": "function"
    },
    {
      "inputs": [
        {
          "internalType": "address",
          "name": "_account",
          "type": "address"
        },
        {
          "internalType": "address",
          "name": "_groupHealth",
          "type": "address"
        },
        {
          "internalType": "address",
          "name": "_specificGroupStrategy",
          "type": "address"
        }
      ],
      "name": "setDependencies",
      "outputs": [],
      "stateMutability": "nonpayable",
      "type": "function"
    },
    {
      "inputs": [
        {
          "internalType": "address",
          "name": "_manager",
          "type": "address"
        }
      ],
      "name": "setManager",
      "outputs": [],
      "stateMutability": "nonpayable",
      "type": "function"
    },
    {
      "inputs": [
        {
          "internalType": "uint256",
          "name": "distributeTo",
          "type": "uint256"
        },
        {
          "internalType": "uint256",
          "name": "withdrawFrom",
          "type": "uint256"
        },
        {
          "internalType": "uint256",
          "name": "loopLimit",
          "type": "uint256"
        }
      ],
      "name": "setSortingParams",
      "outputs": [],
      "stateMutability": "nonpayable",
      "type": "function"
    },
    {
      "inputs": [],
      "name": "sorted",
      "outputs": [
        {
          "internalType": "bool",
          "name": "",
          "type": "bool"
        }
      ],
      "stateMutability": "view",
      "type": "function"
    },
    {
      "inputs": [],
      "name": "specificGroupStrategy",
      "outputs": [
        {
          "internalType": "contract ISpecificGroupStrategy",
          "name": "",
          "type": "address"
        }
      ],
      "stateMutability": "view",
      "type": "function"
    },
    {
      "inputs": [
        {
          "internalType": "address",
          "name": "",
          "type": "address"
        }
      ],
      "name": "stCeloInGroup",
      "outputs": [
        {
          "internalType": "uint256",
          "name": "",
          "type": "uint256"
        }
      ],
      "stateMutability": "view",
      "type": "function"
    },
    {
      "inputs": [],
      "name": "totalStCeloInStrategy",
      "outputs": [
        {
          "internalType": "uint256",
          "name": "",
          "type": "uint256"
        }
      ],
      "stateMutability": "view",
      "type": "function"
    },
    {
      "inputs": [
        {
          "internalType": "address",
          "name": "newOwner",
          "type": "address"
        }
      ],
      "name": "transferOwnership",
      "outputs": [],
      "stateMutability": "nonpayable",
      "type": "function"
    },
    {
      "inputs": [
        {
          "internalType": "address",
          "name": "group",
          "type": "address"
        },
        {
          "internalType": "address",
          "name": "lesserKey",
          "type": "address"
        },
        {
          "internalType": "address",
          "name": "greaterKey",
          "type": "address"
        }
      ],
      "name": "updateActiveGroupOrder",
      "outputs": [],
      "stateMutability": "nonpayable",
      "type": "function"
    },
    {
      "inputs": [
        {
          "internalType": "address",
          "name": "newImplementation",
          "type": "address"
        }
      ],
      "name": "upgradeTo",
      "outputs": [],
      "stateMutability": "nonpayable",
      "type": "function"
    },
    {
      "inputs": [
        {
          "internalType": "address",
          "name": "newImplementation",
          "type": "address"
        },
        {
          "internalType": "bytes",
          "name": "data",
          "type": "bytes"
        }
      ],
      "name": "upgradeToAndCall",
      "outputs": [],
      "stateMutability": "payable",
      "type": "function"
    }
  ],
  "transactionHash": "0x60d8e6f927ddad8fd4edc9f040acea9259206a2ade156a4f8511cd6f5a3ca13f",
  "args": [],
  "numDeployments": 1,
  "solcInputHash": "f051a28401f992e504f883b8bfc781d0",
  "bytecode": "0x60a06040523073ffffffffffffffffffffffffffffffffffffffff1660809073ffffffffffffffffffffffffffffffffffffffff1681525034801561004357600080fd5b50608051615c54620000756000396000818161096d015281816109fc01528181610b1c0152610bab0152615c546000f3fe6080604052600436106101f95760003560e01c8063885640db1161010d578063c0c53b8b116100a0578063d0ebdbe71161006f578063d0ebdbe71461071e578063d2a2ce5d14610747578063dcdab02a14610772578063eccacf7f1461079b578063f2fde38b146107c6576101f9565b8063c0c53b8b14610673578063c1fa411a1461069c578063c5728c83146106c7578063cf009f7a146106f3576101f9565b8063a3f16ef1116100dc578063a3f16ef1146105b8578063afc97578146105e3578063b52d326c1461060c578063be982c3114610635576101f9565b8063885640db146104fe5780638da5cb5b1461052757806393739a93146105525780639f8a13d71461057b576101f9565b80634fc517eb116101905780636fe958d81161015f5780636fe958d81461042a578063715018a614610453578063724e61d01461046a5780637b1039991461049657806385a92cb7146104c1576101f9565b80634fc517eb1461037d5780635145b0ad146103a857806354255be0146103d15780635dab2420146103ff576101f9565b80632de2c5ac116101cc5780632de2c5ac146102e25780633659cfe61461030d578063481c6a75146103365780634f1ef28614610361576101f9565b80630c29aab2146101fe5780630f8f0fcc1461022957806320e92e59146102665780632863f68c146102a4575b600080fd5b34801561020a57600080fd5b506102136107ef565b6040516102209190614804565b60405180910390f35b34801561023557600080fd5b50610250600480360381019061024b919061485f565b6107f5565b60405161025d91906148cd565b60405180910390f35b34801561027257600080fd5b5061028d6004803603810190610288919061494c565b610812565b60405161029b929190614b1b565b60405180910390f35b3480156102b057600080fd5b506102cb60048036038101906102c69190614b52565b610931565b6040516102d9929190614b7f565b60405180910390f35b3480156102ee57600080fd5b506102f7610958565b6040516103049190614bb7565b60405180910390f35b34801561031957600080fd5b50610334600480360381019061032f9190614b52565b61096b565b005b34801561034257600080fd5b5061034b610af4565b60405161035891906148cd565b60405180910390f35b61037b60048036038101906103769190614d18565b610b1a565b005b34801561038957600080fd5b50610392610c57565b60405161039f9190614804565b60405180910390f35b3480156103b457600080fd5b506103cf60048036038101906103ca9190614d74565b610c5d565b005b3480156103dd57600080fd5b506103e6610de6565b6040516103f69493929190614dc7565b60405180910390f35b34801561040b57600080fd5b50610414610e00565b6040516104219190614e6b565b60405180910390f35b34801561043657600080fd5b50610451600480360381019061044c9190614e86565b610e26565b005b34801561045f57600080fd5b5061046861112d565b005b34801561047657600080fd5b5061047f6111b5565b60405161048d929190614b7f565b60405180910390f35b3480156104a257600080fd5b506104ab611255565b6040516104b89190614ee7565b60405180910390f35b3480156104cd57600080fd5b506104e860048036038101906104e39190614b52565b61127b565b6040516104f59190614804565b60405180910390f35b34801561050a57600080fd5b5061052560048036038101906105209190614f02565b611293565b005b34801561053357600080fd5b5061053c611329565b60405161054991906148cd565b60405180910390f35b34801561055e57600080fd5b5061057960048036038101906105749190614b52565b611353565b005b34801561058757600080fd5b506105a2600480360381019061059d9190614b52565b6113db565b6040516105af9190614bb7565b60405180910390f35b3480156105c457600080fd5b506105cd611461565b6040516105da9190614f76565b60405180910390f35b3480156105ef57600080fd5b5061060a60048036038101906106059190614d74565b611487565b005b34801561061857600080fd5b50610633600480360381019061062e9190614d74565b611964565b005b34801561064157600080fd5b5061065c60048036038101906106579190614b52565b611bf8565b60405161066a929190614f91565b60405180910390f35b34801561067f57600080fd5b5061069a60048036038101906106959190614d74565b611db3565b005b3480156106a857600080fd5b506106b1611f2e565b6040516106be9190614804565b60405180910390f35b3480156106d357600080fd5b506106dc611fb0565b6040516106ea929190614b7f565b60405180910390f35b3480156106ff57600080fd5b50610708612051565b6040516107159190614fdb565b60405180910390f35b34801561072a57600080fd5b5061074560048036038101906107409190614b52565b612077565b005b34801561075357600080fd5b5061075c6120ff565b6040516107699190614804565b60405180910390f35b34801561077e57600080fd5b5061079960048036038101906107949190614b52565b612110565b005b3480156107a757600080fd5b506107b06121fa565b6040516107bd9190614804565b60405180910390f35b3480156107d257600080fd5b506107ed60048036038101906107e89190614b52565b612200565b005b60725481565b600061080b8260756122f890919063ffffffff16565b9050919050565b6060803373ffffffffffffffffffffffffffffffffffffffff16606660009054906101000a900473ffffffffffffffffffffffffffffffffffffffff1673ffffffffffffffffffffffffffffffffffffffff16141580156108c157503373ffffffffffffffffffffffffffffffffffffffff16606e60009054906101000a900473ffffffffffffffffffffffffffffffffffffffff1673ffffffffffffffffffffffffffffffffffffffff1614155b1561090357336040517f79eaeb2b0000000000000000000000000000000000000000000000000000000081526004016108fa91906148cd565b60405180910390fd5b84610917576109128484612312565b610921565b61092084612ad1565b5b8092508193505050935093915050565b60008061094883606761330890919063ffffffff16565b9091508092508193505050915091565b607460009054906101000a900460ff1681565b7f000000000000000000000000000000000000000000000000000000000000000073ffffffffffffffffffffffffffffffffffffffff163073ffffffffffffffffffffffffffffffffffffffff1614156109fa576040517f08c379a00000000000000000000000000000000000000000000000000000000081526004016109f190615079565b60405180910390fd5b7f000000000000000000000000000000000000000000000000000000000000000073ffffffffffffffffffffffffffffffffffffffff16610a39613363565b73ffffffffffffffffffffffffffffffffffffffff1614610a8f576040517f08c379a0000000000000000000000000000000000000000000000000000000008152600401610a869061510b565b60405180910390fd5b610a98816133ba565b610af181600067ffffffffffffffff811115610ab757610ab6614bed565b5b6040519080825280601f01601f191660200182016040528015610ae95781602001600182028036833780820191505090505b506000613439565b50565b606660009054906101000a900473ffffffffffffffffffffffffffffffffffffffff1681565b7f000000000000000000000000000000000000000000000000000000000000000073ffffffffffffffffffffffffffffffffffffffff163073ffffffffffffffffffffffffffffffffffffffff161415610ba9576040517f08c379a0000000000000000000000000000000000000000000000000000000008152600401610ba090615079565b60405180910390fd5b7f000000000000000000000000000000000000000000000000000000000000000073ffffffffffffffffffffffffffffffffffffffff16610be8613363565b73ffffffffffffffffffffffffffffffffffffffff1614610c3e576040517f08c379a0000000000000000000000000000000000000000000000000000000008152600401610c359061510b565b60405180910390fd5b610c47826133ba565b610c5382826001613439565b5050565b60705481565b610c7183607561360a90919063ffffffff16565b610ca7576040517f0a1f2c0e00000000000000000000000000000000000000000000000000000000815260040160405180910390fd5b606773Ec660B5c5bAC0699C2061b047fc6729e302039E763cab455ae909185606f60008873ffffffffffffffffffffffffffffffffffffffff1673ffffffffffffffffffffffffffffffffffffffff1681526020019081526020016000205486866040518663ffffffff1660e01b8152600401610d28959493929190615150565b60006040518083038186803b158015610d4057600080fd5b505af4158015610d54573d6000803e3d6000fd5b50505050610d6c83607561363a90919063ffffffff16565b506000610d79607561366a565b1415610de1576001607460006101000a81548160ff0219169083151502179055507fb930683f0749189780c4016ec37d019eb0cbbf6550ce7374fac5cfbae93909a7607460009054906101000a900460ff16604051610dd89190614bb7565b60405180910390a15b505050565b600080600080600180600080935093509350935090919293565b606d60009054906101000a900473ffffffffffffffffffffffffffffffffffffffff1681565b606773Ec660B5c5bAC0699C2061b047fc6729e302039E76302f130289091846040518363ffffffff1660e01b8152600401610e629291906151a3565b602060405180830381865af4158015610e7f573d6000803e3d6000fd5b505050506040513d601f19601f82011682018060405250810190610ea391906151e1565b610ee457816040517fdc1b434d000000000000000000000000000000000000000000000000000000008152600401610edb91906148cd565b60405180910390fd5b606773Ec660B5c5bAC0699C2061b047fc6729e302039E76302f130289091836040518363ffffffff1660e01b8152600401610f209291906151a3565b602060405180830381865af4158015610f3d573d6000803e3d6000fd5b505050506040513d601f19601f82011682018060405250810190610f6191906151e1565b610fa257806040517f5a081584000000000000000000000000000000000000000000000000000000008152600401610f9991906148cd565b60405180910390fd5b600080610fae84611bf8565b91509150818111610ffa578381836040517f8b0123bf000000000000000000000000000000000000000000000000000000008152600401610ff19392919061520e565b60405180910390fd5b60008061100685611bf8565b91509150818110611052578481836040517f845286390000000000000000000000000000000000000000000000000000000081526004016110499392919061520e565b60405180910390fd5b600061107485856110639190615274565b838561106f9190615274565b61367f565b905061108287826000613698565b61108e86826001613698565b6110d987606f60008a73ffffffffffffffffffffffffffffffffffffffff1673ffffffffffffffffffffffffffffffffffffffff168152602001908152602001600020546000613787565b61112486606f60008973ffffffffffffffffffffffffffffffffffffffff1673ffffffffffffffffffffffffffffffffffffffff168152602001908152602001600020546001613787565b50505050505050565b611135613a3b565b73ffffffffffffffffffffffffffffffffffffffff16611153611329565b73ffffffffffffffffffffffffffffffffffffffff16146111a9576040517f08c379a00000000000000000000000000000000000000000000000000000000081526004016111a0906152f4565b60405180910390fd5b6111b36000613a43565b565b600080606773Ec660B5c5bAC0699C2061b047fc6729e302039E7630c8f298790916040518263ffffffff1660e01b81526004016111f29190615314565b602060405180830381865af415801561120f573d6000803e3d6000fd5b505050506040513d601f19601f820116820180604052508101906112339190615344565b915061124982606761330890919063ffffffff16565b90915050809150509091565b606560009054906101000a900473ffffffffffffffffffffffffffffffffffffffff1681565b606f6020528060005260406000206000915090505481565b61129b613a3b565b73ffffffffffffffffffffffffffffffffffffffff166112b9611329565b73ffffffffffffffffffffffffffffffffffffffff161461130f576040517f08c379a0000000000000000000000000000000000000000000000000000000008152600401611306906152f4565b60405180910390fd5b826070819055508160718190555080607381905550505050565b6000603360009054906101000a900473ffffffffffffffffffffffffffffffffffffffff16905090565b61135b613a3b565b73ffffffffffffffffffffffffffffffffffffffff16611379611329565b73ffffffffffffffffffffffffffffffffffffffff16146113cf576040517f08c379a00000000000000000000000000000000000000000000000000000000081526004016113c6906152f4565b60405180910390fd5b6113d881613b09565b50565b6000606773Ec660B5c5bAC0699C2061b047fc6729e302039E76302f130289091846040518363ffffffff1660e01b81526004016114199291906151a3565b602060405180830381865af4158015611436573d6000803e3d6000fd5b505050506040513d601f19601f8201168201806040525081019061145a91906151e1565b9050919050565b606c60009054906101000a900473ffffffffffffffffffffffffffffffffffffffff1681565b61148f613a3b565b73ffffffffffffffffffffffffffffffffffffffff166114ad611329565b73ffffffffffffffffffffffffffffffffffffffff1614611503576040517f08c379a00000000000000000000000000000000000000000000000000000000081526004016114fa906152f4565b60405180910390fd5b606c60009054906101000a900473ffffffffffffffffffffffffffffffffffffffff1673ffffffffffffffffffffffffffffffffffffffff1663ac8f4425846040518263ffffffff1660e01b815260040161155e91906148cd565b602060405180830381865afa15801561157b573d6000803e3d6000fd5b505050506040513d601f19601f8201168201806040525081019061159f91906151e1565b6115e057826040517f10a7bc6b0000000000000000000000000000000000000000000000000000000081526004016115d791906148cd565b60405180910390fd5b606773Ec660B5c5bAC0699C2061b047fc6729e302039E76302f130289091856040518363ffffffff1660e01b815260040161161c9291906151a3565b602060405180830381865af4158015611639573d6000803e3d6000fd5b505050506040513d601f19601f8201168201806040525081019061165d91906151e1565b1561169f57826040517fbd133eee00000000000000000000000000000000000000000000000000000000815260040161169691906148cd565b60405180910390fd5b600080606660009054906101000a900473ffffffffffffffffffffffffffffffffffffffff1673ffffffffffffffffffffffffffffffffffffffff1663c494ec1e606d60009054906101000a900473ffffffffffffffffffffffffffffffffffffffff1673ffffffffffffffffffffffffffffffffffffffff1663acd201d0886040518263ffffffff1660e01b815260040161173b91906148cd565b602060405180830381865afa158015611758573d6000803e3d6000fd5b505050506040513d601f19601f8201168201806040525081019061177c9190615386565b6040518263ffffffff1660e01b81526004016117989190614804565b602060405180830381865afa1580156117b5573d6000803e3d6000fd5b505050506040513d601f19601f820116820180604052508101906117d99190615386565b9050600081146118a8576000606e60009054906101000a900473ffffffffffffffffffffffffffffffffffffffff1673ffffffffffffffffffffffffffffffffffffffff166304744470876040518263ffffffff1660e01b815260040161184091906148cd565b602060405180830381865afa15801561185d573d6000803e3d6000fd5b505050506040513d601f19601f820116820180604052508101906118819190615386565b905061188d828261367f565b826118989190615274565b92506118a686846001613698565b505b606773Ec660B5c5bAC0699C2061b047fc6729e302039E7632dedbbf09091878588886040518663ffffffff1660e01b81526004016118ea959493929190615150565b60006040518083038186803b15801561190257600080fd5b505af4158015611916573d6000803e3d6000fd5b505050508473ffffffffffffffffffffffffffffffffffffffff167f0503b4748a47435f2432d46ef300e0e2dc47baa0e5f04bb3bd8a355ee1e1dbe660405160405180910390a25050505050565b61196c613a3b565b73ffffffffffffffffffffffffffffffffffffffff1661198a611329565b73ffffffffffffffffffffffffffffffffffffffff16146119e0576040517f08c379a00000000000000000000000000000000000000000000000000000000081526004016119d7906152f4565b60405180910390fd5b600073ffffffffffffffffffffffffffffffffffffffff168373ffffffffffffffffffffffffffffffffffffffff161415611a50576040517f08c379a0000000000000000000000000000000000000000000000000000000008152600401611a47906153ff565b60405180910390fd5b600073ffffffffffffffffffffffffffffffffffffffff168273ffffffffffffffffffffffffffffffffffffffff161415611ac0576040517f08c379a0000000000000000000000000000000000000000000000000000000008152600401611ab79061546b565b60405180910390fd5b600073ffffffffffffffffffffffffffffffffffffffff168173ffffffffffffffffffffffffffffffffffffffff161415611b30576040517f08c379a0000000000000000000000000000000000000000000000000000000008152600401611b27906154d7565b60405180910390fd5b81606c60006101000a81548173ffffffffffffffffffffffffffffffffffffffff021916908373ffffffffffffffffffffffffffffffffffffffff16021790555080606e60006101000a81548173ffffffffffffffffffffffffffffffffffffffff021916908373ffffffffffffffffffffffffffffffffffffffff16021790555082606d60006101000a81548173ffffffffffffffffffffffffffffffffffffffff021916908373ffffffffffffffffffffffffffffffffffffffff160217905550505050565b6000806000606773Ec660B5c5bAC0699C2061b047fc6729e302039E7630c8f298790916040518263ffffffff1660e01b8152600401611c379190615314565b602060405180830381865af4158015611c54573d6000803e3d6000fd5b505050506040513d601f19601f82011682018060405250810190611c789190615344565b90506000606773Ec660B5c5bAC0699C2061b047fc6729e302039E76365da149690916040518263ffffffff1660e01b8152600401611cb69190615314565b602060405180830381865af4158015611cd3573d6000803e3d6000fd5b505050506040513d601f19601f82011682018060405250810190611cf79190615386565b905080607254611d079190615526565b93508173ffffffffffffffffffffffffffffffffffffffff168573ffffffffffffffffffffffffffffffffffffffff161415611d6a5760008185611d4b9190615557565b607254611d589190615274565b90508085611d6691906155b1565b9450505b606f60008673ffffffffffffffffffffffffffffffffffffffff1673ffffffffffffffffffffffffffffffffffffffff1681526020019081526020016000205492505050915091565b600060019054906101000a900460ff16611ddb5760008054906101000a900460ff1615611de4565b611de3613fd4565b5b611e23576040517f08c379a0000000000000000000000000000000000000000000000000000000008152600401611e1a90615679565b60405180910390fd5b60008060019054906101000a900460ff161590508015611e73576001600060016101000a81548160ff02191690831515021790555060016000806101000a81548160ff0219169083151502179055505b611e7c83613a43565b611e8584613fe5565b611e8e826140f6565b60086070819055506008607181905550600a6073819055506001607460006101000a81548160ff0219169083151502179055507fb930683f0749189780c4016ec37d019eb0cbbf6550ce7374fac5cfbae93909a7607460009054906101000a900460ff16604051611eff9190614bb7565b60405180910390a18015611f285760008060016101000a81548160ff0219169083151502179055505b50505050565b6000606773Ec660B5c5bAC0699C2061b047fc6729e302039E76365da149690916040518263ffffffff1660e01b8152600401611f6a9190615314565b602060405180830381865af4158015611f87573d6000803e3d6000fd5b505050506040513d601f19601f82011682018060405250810190611fab9190615386565b905090565b600080606773Ec660B5c5bAC0699C2061b047fc6729e302039E76349923bff90916040518263ffffffff1660e01b8152600401611fed9190615314565b602060405180830381865af415801561200a573d6000803e3d6000fd5b505050506040513d601f19601f8201168201806040525081019061202e9190615344565b915061204482606761330890919063ffffffff16565b9091509050809150509091565b606e60009054906101000a900473ffffffffffffffffffffffffffffffffffffffff1681565b61207f613a3b565b73ffffffffffffffffffffffffffffffffffffffff1661209d611329565b73ffffffffffffffffffffffffffffffffffffffff16146120f3576040517f08c379a00000000000000000000000000000000000000000000000000000000081526004016120ea906152f4565b60405180910390fd5b6120fc81614151565b50565b600061210b607561366a565b905090565b606c60009054906101000a900473ffffffffffffffffffffffffffffffffffffffff1673ffffffffffffffffffffffffffffffffffffffff1663ac8f4425826040518263ffffffff1660e01b815260040161216b91906148cd565b602060405180830381865afa158015612188573d6000803e3d6000fd5b505050506040513d601f19601f820116820180604052508101906121ac91906151e1565b156121ee57806040517fe3bd013b0000000000000000000000000000000000000000000000000000000081526004016121e591906148cd565b60405180910390fd5b6121f781613b09565b50565b60715481565b612208613a3b565b73ffffffffffffffffffffffffffffffffffffffff16612226611329565b73ffffffffffffffffffffffffffffffffffffffff161461227c576040517f08c379a0000000000000000000000000000000000000000000000000000000008152600401612273906152f4565b60405180910390fd5b600073ffffffffffffffffffffffffffffffffffffffff168173ffffffffffffffffffffffffffffffffffffffff1614156122ec576040517f08c379a00000000000000000000000000000000000000000000000000000000081526004016122e39061570b565b60405180910390fd5b6122f581613a43565b50565b6000612307836000018361423f565b60001c905092915050565b6060806000606773Ec660B5c5bAC0699C2061b047fc6729e302039E76365da149690916040518263ffffffff1660e01b81526004016123519190615314565b602060405180830381865af415801561236e573d6000803e3d6000fd5b505050506040513d601f19601f820116820180604052508101906123929190615386565b14156123ca576040517f7818a60e00000000000000000000000000000000000000000000000000000000815260040160405180910390fd5b6000612452607054606773Ec660B5c5bAC0699C2061b047fc6729e302039E76365da149690916040518263ffffffff1660e01b815260040161240c9190615314565b602060405180830381865af4158015612429573d6000803e3d6000fd5b505050506040513d601f19601f8201168201806040525081019061244d9190615386565b61367f565b905060008167ffffffffffffffff8111156124705761246f614bed565b5b60405190808252806020026020018201604052801561249e5781602001602082028036833780820191505090505b50905060008267ffffffffffffffff8111156124bd576124bc614bed565b5b6040519080825280602002602001820160405280156124eb5781602001602082028036833780820191505090505b5090506000606773Ec660B5c5bAC0699C2061b047fc6729e302039E76349923bff90916040518263ffffffff1660e01b815260040161252a9190615314565b602060405180830381865af4158015612547573d6000803e3d6000fd5b505050506040513d601f19601f8201168201806040525081019061256b9190615344565b905060005b8481108015612580575060008914155b80156125b95750600073ffffffffffffffffffffffffffffffffffffffff168273ffffffffffffffffffffffffffffffffffffffff1614155b15612934576000606660009054906101000a900473ffffffffffffffffffffffffffffffffffffffff1673ffffffffffffffffffffffffffffffffffffffff16632c431058846040518263ffffffff1660e01b815260040161261b91906148cd565b602060405180830381865afa158015612638573d6000803e3d6000fd5b505050506040513d601f19601f8201168201806040525081019061265c9190615386565b90508873ffffffffffffffffffffffffffffffffffffffff168373ffffffffffffffffffffffffffffffffffffffff1614806126985750600081145b156126c0576126b183606761330890919063ffffffff16565b90915090508093505050612570565b6126ca818b61367f565b8483815181106126dd576126dc61572b565b5b602002602001018181525050828583815181106126fd576126fc61572b565b5b602002602001019073ffffffffffffffffffffffffffffffffffffffff16908173ffffffffffffffffffffffffffffffffffffffff168152505083828151811061274a5761274961572b565b5b60200260200101518a61275d9190615274565b995061282083606660009054906101000a900473ffffffffffffffffffffffffffffffffffffffff1673ffffffffffffffffffffffffffffffffffffffff1663c494ec1e8786815181106127b4576127b361572b565b5b60200260200101516040518263ffffffff1660e01b81526004016127d89190614804565b602060405180830381865afa1580156127f5573d6000803e3d6000fd5b505050506040513d601f19601f820116820180604052508101906128199190615386565b6001613698565b61286b83606f60008673ffffffffffffffffffffffffffffffffffffffff1673ffffffffffffffffffffffffffffffffffffffff168152602001908152602001600020546001613787565b607460009054906101000a900460ff161561290257606773Ec660B5c5bAC0699C2061b047fc6729e302039E76349923bff90916040518263ffffffff1660e01b81526004016128ba9190615314565b602060405180830381865af41580156128d7573d6000803e3d6000fd5b505050506040513d601f19601f820116820180604052508101906128fb9190615344565b9250612920565b61291683606761330890919063ffffffff16565b9091509050809350505b818061292b9061575a565b92505050612570565b6000891461296e576040517f2e6c1bf900000000000000000000000000000000000000000000000000000000815260040160405180910390fd5b8067ffffffffffffffff81111561298857612987614bed565b5b6040519080825280602002602001820160405280156129b65781602001602082028036833780820191505090505b5096508067ffffffffffffffff8111156129d3576129d2614bed565b5b604051908082528060200260200182016040528015612a015781602001602082028036833780820191505090505b50955060005b81811015612ac457848181518110612a2257612a2161572b565b5b6020026020010151888281518110612a3d57612a3c61572b565b5b602002602001019073ffffffffffffffffffffffffffffffffffffffff16908173ffffffffffffffffffffffffffffffffffffffff1681525050838181518110612a8a57612a8961572b565b5b6020026020010151878281518110612aa557612aa461572b565b5b6020026020010181815250508080612abc9061575a565b915050612a07565b5050505050509250929050565b6060806000606773Ec660B5c5bAC0699C2061b047fc6729e302039E76365da149690916040518263ffffffff1660e01b8152600401612b109190615314565b602060405180830381865af4158015612b2d573d6000803e3d6000fd5b505050506040513d601f19601f82011682018060405250810190612b519190615386565b1415612b89576040517f7818a60e00000000000000000000000000000000000000000000000000000000815260040160405180910390fd5b6000612c11607154606773Ec660B5c5bAC0699C2061b047fc6729e302039E76365da149690916040518263ffffffff1660e01b8152600401612bcb9190615314565b602060405180830381865af4158015612be8573d6000803e3d6000fd5b505050506040513d601f19601f82011682018060405250810190612c0c9190615386565b61367f565b905060008167ffffffffffffffff811115612c2f57612c2e614bed565b5b604051908082528060200260200182016040528015612c5d5781602001602082028036833780820191505090505b50905060008267ffffffffffffffff811115612c7c57612c7b614bed565b5b604051908082528060200260200182016040528015612caa5781602001602082028036833780820191505090505b5090506000606773Ec660B5c5bAC0699C2061b047fc6729e302039E7630c8f298790916040518263ffffffff1660e01b8152600401612ce99190615314565b602060405180830381865af4158015612d06573d6000803e3d6000fd5b505050506040513d601f19601f82011682018060405250810190612d2a9190615344565b905060005b8481108015612d3f575060008814155b8015612d785750600073ffffffffffffffffffffffffffffffffffffffff168273ffffffffffffffffffffffffffffffffffffffff1614155b1561316d57612f05612eff606d60009054906101000a900473ffffffffffffffffffffffffffffffffffffffff1673ffffffffffffffffffffffffffffffffffffffff1663acd201d0856040518263ffffffff1660e01b8152600401612dde91906148cd565b602060405180830381865afa158015612dfb573d6000803e3d6000fd5b505050506040513d601f19601f82011682018060405250810190612e1f9190615386565b606660009054906101000a900473ffffffffffffffffffffffffffffffffffffffff1673ffffffffffffffffffffffffffffffffffffffff16630567847f606f60008873ffffffffffffffffffffffffffffffffffffffff1673ffffffffffffffffffffffffffffffffffffffff168152602001908152602001600020546040518263ffffffff1660e01b8152600401612eb99190614804565b602060405180830381865afa158015612ed6573d6000803e3d6000fd5b505050506040513d601f19601f82011682018060405250810190612efa9190615386565b61367f565b8961367f565b838281518110612f1857612f1761572b565b5b60200260200101818152505081848281518110612f3857612f3761572b565b5b602002602001019073ffffffffffffffffffffffffffffffffffffffff16908173ffffffffffffffffffffffffffffffffffffffff1681525050828181518110612f8557612f8461572b565b5b602002602001015188612f989190615274565b975061305b82606660009054906101000a900473ffffffffffffffffffffffffffffffffffffffff1673ffffffffffffffffffffffffffffffffffffffff1663c494ec1e868581518110612fef57612fee61572b565b5b60200260200101516040518263ffffffff1660e01b81526004016130139190614804565b602060405180830381865afa158015613030573d6000803e3d6000fd5b505050506040513d601f19601f820116820180604052508101906130549190615386565b6000613698565b6130a682606f60008573ffffffffffffffffffffffffffffffffffffffff1673ffffffffffffffffffffffffffffffffffffffff168152602001908152602001600020546000613787565b607460009054906101000a900460ff161561313d57606773Ec660B5c5bAC0699C2061b047fc6729e302039E7630c8f298790916040518263ffffffff1660e01b81526004016130f59190615314565b602060405180830381865af4158015613112573d6000803e3d6000fd5b505050506040513d601f19601f820116820180604052508101906131369190615344565b915061315a565b61315182606761330890919063ffffffff16565b90915050809250505b80806131659061575a565b915050612d2f565b600088146131a7576040517f2e6c1bf900000000000000000000000000000000000000000000000000000000815260040160405180910390fd5b8067ffffffffffffffff8111156131c1576131c0614bed565b5b6040519080825280602002602001820160405280156131ef5781602001602082028036833780820191505090505b5096508067ffffffffffffffff81111561320c5761320b614bed565b5b60405190808252806020026020018201604052801561323a5781602001602082028036833780820191505090505b50955060005b818110156132fd5784818151811061325b5761325a61572b565b5b60200260200101518882815181106132765761327561572b565b5b602002602001019073ffffffffffffffffffffffffffffffffffffffff16908173ffffffffffffffffffffffffffffffffffffffff16815250508381815181106132c3576132c261572b565b5b60200260200101518782815181106132de576132dd61572b565b5b60200260200101818152505080806132f59061575a565b915050613240565b505050505050915091565b60008060008061332961331a8661426a565b8761429190919063ffffffff16565b90508060400151935080604001511561335b5761334981600001516142b7565b925061335881602001516142b7565b91505b509250925092565b60006133917f360894a13ba1a3210667c828492db98dca3e2076cc3735a920a3ca505d382bbc60001b6142c8565b60000160009054906101000a900473ffffffffffffffffffffffffffffffffffffffff16905090565b6133c2613a3b565b73ffffffffffffffffffffffffffffffffffffffff166133e0611329565b73ffffffffffffffffffffffffffffffffffffffff1614613436576040517f08c379a000000000000000000000000000000000000000000000000000000000815260040161342d906152f4565b60405180910390fd5b50565b6000613443613363565b905061344e846142d2565b60008351118061345b5750815b1561346c5761346a848461438b565b505b600061349a7f4910fdfa16fed3260ed0e7147f7cc6da11a60208b5b9406d12a635614ffd914360001b6143b8565b90508060000160009054906101000a900460ff166136035760018160000160006101000a81548160ff02191690831515021790555061356685836040516024016134e491906148cd565b6040516020818303038152906040527f3659cfe6000000000000000000000000000000000000000000000000000000007bffffffffffffffffffffffffffffffffffffffffffffffffffffffff19166020820180517bffffffffffffffffffffffffffffffffffffffffffffffffffffffff838183161783525050505061438b565b5060008160000160006101000a81548160ff02191690831515021790555061358c613363565b73ffffffffffffffffffffffffffffffffffffffff168273ffffffffffffffffffffffffffffffffffffffff16146135f9576040517f08c379a00000000000000000000000000000000000000000000000000000000081526004016135f090615815565b60405180910390fd5b613602856143c2565b5b5050505050565b6000613632836000018373ffffffffffffffffffffffffffffffffffffffff1660001b614411565b905092915050565b6000613662836000018373ffffffffffffffffffffffffffffffffffffffff1660001b614434565b905092915050565b600061367882600001614548565b9050919050565b600081831061368e5781613690565b825b905092915050565b80156137125781606f60008573ffffffffffffffffffffffffffffffffffffffff1673ffffffffffffffffffffffffffffffffffffffff16815260200190815260200160002060008282546136ed91906155b1565b92505081905550816072600082825461370691906155b1565b92505081905550613782565b81606f60008573ffffffffffffffffffffffffffffffffffffffff1673ffffffffffffffffffffffffffffffffffffffff16815260200190815260200160002060008282546137619190615274565b92505081905550816072600082825461377a9190615274565b925050819055505b505050565b61379b83607561360a90919063ffffffff16565b156137a557613a36565b6000808261383457606773Ec660B5c5bAC0699C2061b047fc6729e302039E763a4aadfcc909187876073546040518563ffffffff1660e01b81526004016137ef9493929190615835565b6040805180830381865af415801561380b573d6000803e3d6000fd5b505050506040513d601f19601f8201168201806040525081019061382f919061587a565b6138b7565b606773Ec660B5c5bAC0699C2061b047fc6729e302039E76399f68a39909187876073546040518563ffffffff1660e01b81526004016138769493929190615835565b6040805180830381865af4158015613892573d6000803e3d6000fd5b505050506040513d601f19601f820116820180604052508101906138b6919061587a565b5b915091508073ffffffffffffffffffffffffffffffffffffffff168273ffffffffffffffffffffffffffffffffffffffff1614158061397057506001606773Ec660B5c5bAC0699C2061b047fc6729e302039E76365da149690916040518263ffffffff1660e01b815260040161392d9190615314565b602060405180830381865af415801561394a573d6000803e3d6000fd5b505050506040513d601f19601f8201168201806040525081019061396e9190615386565b145b156139ec57606773Ec660B5c5bAC0699C2061b047fc6729e302039E763cab455ae9091878786866040518663ffffffff1660e01b81526004016139b7959493929190615150565b60006040518083038186803b1580156139cf57600080fd5b505af41580156139e3573d6000803e3d6000fd5b50505050613a33565b607460009054906101000a900460ff1615613a1d576000607460006101000a81548160ff0219169083151502179055505b613a3185607561455990919063ffffffff16565b505b50505b505050565b600033905090565b6000603360009054906101000a900473ffffffffffffffffffffffffffffffffffffffff16905081603360006101000a81548173ffffffffffffffffffffffffffffffffffffffff021916908373ffffffffffffffffffffffffffffffffffffffff1602179055508173ffffffffffffffffffffffffffffffffffffffff168173ffffffffffffffffffffffffffffffffffffffff167f8be0079c531659141344cd1fd0a4f28419497f9722a3daafe3b4186f6b6457e060405160405180910390a35050565b606773Ec660B5c5bAC0699C2061b047fc6729e302039E76302f130289091836040518363ffffffff1660e01b8152600401613b459291906151a3565b602060405180830381865af4158015613b62573d6000803e3d6000fd5b505050506040513d601f19601f82011682018060405250810190613b8691906151e1565b613bc757806040517f1adbb153000000000000000000000000000000000000000000000000000000008152600401613bbe91906148cd565b60405180910390fd5b606773Ec660B5c5bAC0699C2061b047fc6729e302039E763281359299091836040518363ffffffff1660e01b8152600401613c039291906151a3565b60006040518083038186803b158015613c1b57600080fd5b505af4158015613c2f573d6000803e3d6000fd5b50505050613c4781607561363a90919063ffffffff16565b506000606f60008373ffffffffffffffffffffffffffffffffffffffff1673ffffffffffffffffffffffffffffffffffffffff1681526020019081526020016000205490506000811115613f8d57613ca182826000613698565b6000600167ffffffffffffffff811115613cbe57613cbd614bed565b5b604051908082528060200260200182016040528015613cec5781602001602082028036833780820191505090505b5090506000600167ffffffffffffffff811115613d0c57613d0b614bed565b5b604051908082528060200260200182016040528015613d3a5781602001602082028036833780820191505090505b5090508382600081518110613d5257613d5161572b565b5b602002602001019073ffffffffffffffffffffffffffffffffffffffff16908173ffffffffffffffffffffffffffffffffffffffff1681525050606660009054906101000a900473ffffffffffffffffffffffffffffffffffffffff1673ffffffffffffffffffffffffffffffffffffffff16630567847f846040518263ffffffff1660e01b8152600401613de79190614804565b602060405180830381865afa158015613e04573d6000803e3d6000fd5b505050506040513d601f19601f82011682018060405250810190613e289190615386565b81600081518110613e3c57613e3b61572b565b5b602002602001018181525050600080613ef1606660009054906101000a900473ffffffffffffffffffffffffffffffffffffffff1673ffffffffffffffffffffffffffffffffffffffff16630567847f876040518263ffffffff1660e01b8152600401613ea99190614804565b602060405180830381865afa158015613ec6573d6000803e3d6000fd5b505050506040513d601f19601f82011682018060405250810190613eea9190615386565b6000612312565b91509150606660009054906101000a900473ffffffffffffffffffffffffffffffffffffffff1673ffffffffffffffffffffffffffffffffffffffff16630c4d4e40858486856040518563ffffffff1660e01b8152600401613f5694939291906158ba565b600060405180830381600087803b158015613f7057600080fd5b505af1158015613f84573d6000803e3d6000fd5b50505050505050505b8173ffffffffffffffffffffffffffffffffffffffff167fa78a88a551e130ce9732be17784bdff12f72ab4a2c833fb2dcb3ef0818956b0360405160405180910390a25050565b6000613fdf30614589565b15905090565b600060019054906101000a900460ff16614034576040517f08c379a000000000000000000000000000000000000000000000000000000000815260040161402b9061598d565b60405180910390fd5b600073ffffffffffffffffffffffffffffffffffffffff168173ffffffffffffffffffffffffffffffffffffffff1614156140b15761ce10606560006101000a81548173ffffffffffffffffffffffffffffffffffffffff021916908373ffffffffffffffffffffffffffffffffffffffff1602179055506140f3565b80606560006101000a81548173ffffffffffffffffffffffffffffffffffffffff021916908373ffffffffffffffffffffffffffffffffffffffff1602179055505b50565b600060019054906101000a900460ff16614145576040517f08c379a000000000000000000000000000000000000000000000000000000000815260040161413c9061598d565b60405180910390fd5b61414e81614151565b50565b600073ffffffffffffffffffffffffffffffffffffffff168173ffffffffffffffffffffffffffffffffffffffff1614156141b8576040517fe99d5ac500000000000000000000000000000000000000000000000000000000815260040160405180910390fd5b80606660006101000a81548173ffffffffffffffffffffffffffffffffffffffff021916908373ffffffffffffffffffffffffffffffffffffffff1602179055508073ffffffffffffffffffffffffffffffffffffffff167f60a0f5b9f9e81e98216071b85826681c796256fe3d1354ecb675580fba64fa6960405160405180910390a250565b60008260000182815481106142575761425661572b565b5b9060005260206000200154905092915050565b600060608273ffffffffffffffffffffffffffffffffffffffff16901b60001b9050919050565b6142996147c2565b6142af82846000016145ac90919063ffffffff16565b905092915050565b600060608260001c901c9050919050565b6000819050919050565b6142db8161460b565b61431a576040517f08c379a000000000000000000000000000000000000000000000000000000000815260040161431190615a1f565b60405180910390fd5b806143477f360894a13ba1a3210667c828492db98dca3e2076cc3735a920a3ca505d382bbc60001b6142c8565b60000160006101000a81548173ffffffffffffffffffffffffffffffffffffffff021916908373ffffffffffffffffffffffffffffffffffffffff16021790555050565b60606143b08383604051806060016040528060278152602001615bf86027913961461e565b905092915050565b6000819050919050565b6143cb816142d2565b8073ffffffffffffffffffffffffffffffffffffffff167fbc7cd75a20ee27fd9adebab32041f755214dbc6bffa90cc0225b39da2e5c2d3b60405160405180910390a250565b600080836001016000848152602001908152602001600020541415905092915050565b6000808360010160008481526020019081526020016000205490506000811461453c5760006001826144669190615274565b905060006001866000018054905061447e9190615274565b90508181146144ed57600086600001828154811061449f5761449e61572b565b5b90600052602060002001549050808760000184815481106144c3576144c261572b565b5b90600052602060002001819055508387600101600083815260200190815260200160002081905550505b8560000180548061450157614500615a3f565b5b600190038181906000526020600020016000905590558560010160008681526020019081526020016000206000905560019350505050614542565b60009150505b92915050565b600081600001805490509050919050565b6000614581836000018373ffffffffffffffffffffffffffffffffffffffff1660001b6146eb565b905092915050565b6000808273ffffffffffffffffffffffffffffffffffffffff163b119050919050565b6145b46147c2565b82600301600083815260200190815260200160002060405180606001604052908160008201548152602001600182015481526020016002820160009054906101000a900460ff161515151581525050905092915050565b600080823b905060008111915050919050565b60606146298461460b565b614668576040517f08c379a000000000000000000000000000000000000000000000000000000000815260040161465f90615ae0565b60405180910390fd5b6000808573ffffffffffffffffffffffffffffffffffffffff16856040516146909190615b7a565b600060405180830381855af49150503d80600081146146cb576040519150601f19603f3d011682016040523d82523d6000602084013e6146d0565b606091505b50915091506146e082828661475b565b925050509392505050565b60006146f78383614411565b614750578260000182908060018154018082558091505060019003906000526020600020016000909190919091505582600001805490508360010160008481526020019081526020016000208190555060019050614755565b600090505b92915050565b6060831561476b578290506147bb565b60008351111561477e5782518084602001fd5b816040517f08c379a00000000000000000000000000000000000000000000000000000000081526004016147b29190615bd5565b60405180910390fd5b9392505050565b604051806060016040528060008019168152602001600080191681526020016000151581525090565b6000819050919050565b6147fe816147eb565b82525050565b600060208201905061481960008301846147f5565b92915050565b6000604051905090565b600080fd5b600080fd5b61483c816147eb565b811461484757600080fd5b50565b60008135905061485981614833565b92915050565b60006020828403121561487557614874614829565b5b60006148838482850161484a565b91505092915050565b600073ffffffffffffffffffffffffffffffffffffffff82169050919050565b60006148b78261488c565b9050919050565b6148c7816148ac565b82525050565b60006020820190506148e260008301846148be565b92915050565b60008115159050919050565b6148fd816148e8565b811461490857600080fd5b50565b60008135905061491a816148f4565b92915050565b614929816148ac565b811461493457600080fd5b50565b60008135905061494681614920565b92915050565b60008060006060848603121561496557614964614829565b5b60006149738682870161490b565b93505060206149848682870161484a565b925050604061499586828701614937565b9150509250925092565b600081519050919050565b600082825260208201905092915050565b6000819050602082019050919050565b6149d4816148ac565b82525050565b60006149e683836149cb565b60208301905092915050565b6000602082019050919050565b6000614a0a8261499f565b614a1481856149aa565b9350614a1f836149bb565b8060005b83811015614a50578151614a3788826149da565b9750614a42836149f2565b925050600181019050614a23565b5085935050505092915050565b600081519050919050565b600082825260208201905092915050565b6000819050602082019050919050565b614a92816147eb565b82525050565b6000614aa48383614a89565b60208301905092915050565b6000602082019050919050565b6000614ac882614a5d565b614ad28185614a68565b9350614add83614a79565b8060005b83811015614b0e578151614af58882614a98565b9750614b0083614ab0565b925050600181019050614ae1565b5085935050505092915050565b60006040820190508181036000830152614b3581856149ff565b90508181036020830152614b498184614abd565b90509392505050565b600060208284031215614b6857614b67614829565b5b6000614b7684828501614937565b91505092915050565b6000604082019050614b9460008301856148be565b614ba160208301846148be565b9392505050565b614bb1816148e8565b82525050565b6000602082019050614bcc6000830184614ba8565b92915050565b600080fd5b600080fd5b6000601f19601f8301169050919050565b7f4e487b7100000000000000000000000000000000000000000000000000000000600052604160045260246000fd5b614c2582614bdc565b810181811067ffffffffffffffff82111715614c4457614c43614bed565b5b80604052505050565b6000614c5761481f565b9050614c638282614c1c565b919050565b600067ffffffffffffffff821115614c8357614c82614bed565b5b614c8c82614bdc565b9050602081019050919050565b82818337600083830152505050565b6000614cbb614cb684614c68565b614c4d565b905082815260208101848484011115614cd757614cd6614bd7565b5b614ce2848285614c99565b509392505050565b600082601f830112614cff57614cfe614bd2565b5b8135614d0f848260208601614ca8565b91505092915050565b60008060408385031215614d2f57614d2e614829565b5b6000614d3d85828601614937565b925050602083013567ffffffffffffffff811115614d5e57614d5d61482e565b5b614d6a85828601614cea565b9150509250929050565b600080600060608486031215614d8d57614d8c614829565b5b6000614d9b86828701614937565b9350506020614dac86828701614937565b9250506040614dbd86828701614937565b9150509250925092565b6000608082019050614ddc60008301876147f5565b614de960208301866147f5565b614df660408301856147f5565b614e0360608301846147f5565b95945050505050565b6000819050919050565b6000614e31614e2c614e278461488c565b614e0c565b61488c565b9050919050565b6000614e4382614e16565b9050919050565b6000614e5582614e38565b9050919050565b614e6581614e4a565b82525050565b6000602082019050614e806000830184614e5c565b92915050565b60008060408385031215614e9d57614e9c614829565b5b6000614eab85828601614937565b9250506020614ebc85828601614937565b9150509250929050565b6000614ed182614e38565b9050919050565b614ee181614ec6565b82525050565b6000602082019050614efc6000830184614ed8565b92915050565b600080600060608486031215614f1b57614f1a614829565b5b6000614f298682870161484a565b9350506020614f3a8682870161484a565b9250506040614f4b8682870161484a565b9150509250925092565b6000614f6082614e38565b9050919050565b614f7081614f55565b82525050565b6000602082019050614f8b6000830184614f67565b92915050565b6000604082019050614fa660008301856147f5565b614fb360208301846147f5565b9392505050565b6000614fc582614e38565b9050919050565b614fd581614fba565b82525050565b6000602082019050614ff06000830184614fcc565b92915050565b600082825260208201905092915050565b7f46756e6374696f6e206d7573742062652063616c6c6564207468726f7567682060008201527f64656c656761746563616c6c0000000000000000000000000000000000000000602082015250565b6000615063602c83614ff6565b915061506e82615007565b604082019050919050565b6000602082019050818103600083015261509281615056565b9050919050565b7f46756e6374696f6e206d7573742062652063616c6c6564207468726f7567682060008201527f6163746976652070726f78790000000000000000000000000000000000000000602082015250565b60006150f5602c83614ff6565b915061510082615099565b604082019050919050565b60006020820190508181036000830152615124816150e8565b9050919050565b8082525050565b61513b816148ac565b82525050565b61514a816147eb565b82525050565b600060a082019050615165600083018861512b565b6151726020830187615132565b61517f6040830186615141565b61518c6060830185615132565b6151996080830184615132565b9695505050505050565b60006040820190506151b8600083018561512b565b6151c56020830184615132565b9392505050565b6000815190506151db816148f4565b92915050565b6000602082840312156151f7576151f6614829565b5b6000615205848285016151cc565b91505092915050565b600060608201905061522360008301866148be565b61523060208301856147f5565b61523d60408301846147f5565b949350505050565b7f4e487b7100000000000000000000000000000000000000000000000000000000600052601160045260246000fd5b600061527f826147eb565b915061528a836147eb565b92508282101561529d5761529c615245565b5b828203905092915050565b7f4f776e61626c653a2063616c6c6572206973206e6f7420746865206f776e6572600082015250565b60006152de602083614ff6565b91506152e9826152a8565b602082019050919050565b6000602082019050818103600083015261530d816152d1565b9050919050565b6000602082019050615329600083018461512b565b92915050565b60008151905061533e81614920565b92915050565b60006020828403121561535a57615359614829565b5b60006153688482850161532f565b91505092915050565b60008151905061538081614833565b92915050565b60006020828403121561539c5761539b614829565b5b60006153aa84828501615371565b91505092915050565b7f4163636f756e74206e756c6c0000000000000000000000000000000000000000600082015250565b60006153e9600c83614ff6565b91506153f4826153b3565b602082019050919050565b60006020820190508181036000830152615418816153dc565b9050919050565b7f47726f75704865616c7468206e756c6c00000000000000000000000000000000600082015250565b6000615455601083614ff6565b91506154608261541f565b602082019050919050565b6000602082019050818103600083015261548481615448565b9050919050565b7f537065636966696347726f75705374726174656779206e756c6c000000000000600082015250565b60006154c1601a83614ff6565b91506154cc8261548b565b602082019050919050565b600060208201905081810360008301526154f0816154b4565b9050919050565b7f4e487b7100000000000000000000000000000000000000000000000000000000600052601260045260246000fd5b6000615531826147eb565b915061553c836147eb565b92508261554c5761554b6154f7565b5b828204905092915050565b6000615562826147eb565b915061556d836147eb565b9250817fffffffffffffffffffffffffffffffffffffffffffffffffffffffffffffffff04831182151516156155a6576155a5615245565b5b828202905092915050565b60006155bc826147eb565b91506155c7836147eb565b9250827fffffffffffffffffffffffffffffffffffffffffffffffffffffffffffffffff038211156155fc576155fb615245565b5b828201905092915050565b7f496e697469616c697a61626c653a20636f6e747261637420697320616c72656160008201527f647920696e697469616c697a6564000000000000000000000000000000000000602082015250565b6000615663602e83614ff6565b915061566e82615607565b604082019050919050565b6000602082019050818103600083015261569281615656565b9050919050565b7f4f776e61626c653a206e6577206f776e657220697320746865207a65726f206160008201527f6464726573730000000000000000000000000000000000000000000000000000602082015250565b60006156f5602683614ff6565b915061570082615699565b604082019050919050565b60006020820190508181036000830152615724816156e8565b9050919050565b7f4e487b7100000000000000000000000000000000000000000000000000000000600052603260045260246000fd5b6000615765826147eb565b91507fffffffffffffffffffffffffffffffffffffffffffffffffffffffffffffffff82141561579857615797615245565b5b600182019050919050565b7f45524331393637557067726164653a207570677261646520627265616b73206660008201527f7572746865722075706772616465730000000000000000000000000000000000602082015250565b60006157ff602f83614ff6565b915061580a826157a3565b604082019050919050565b6000602082019050818103600083015261582e816157f2565b9050919050565b600060808201905061584a600083018761512b565b6158576020830186615132565b6158646040830185615141565b6158716060830184615141565b95945050505050565b6000806040838503121561589157615890614829565b5b600061589f8582860161532f565b92505060206158b08582860161532f565b9150509250929050565b600060808201905081810360008301526158d481876149ff565b905081810360208301526158e881866149ff565b905081810360408301526158fc8185614abd565b905081810360608301526159108184614abd565b905095945050505050565b7f496e697469616c697a61626c653a20636f6e7472616374206973206e6f74206960008201527f6e697469616c697a696e67000000000000000000000000000000000000000000602082015250565b6000615977602b83614ff6565b91506159828261591b565b604082019050919050565b600060208201905081810360008301526159a68161596a565b9050919050565b7f455243313936373a206e657720696d706c656d656e746174696f6e206973206e60008201527f6f74206120636f6e747261637400000000000000000000000000000000000000602082015250565b6000615a09602d83614ff6565b9150615a14826159ad565b604082019050919050565b60006020820190508181036000830152615a38816159fc565b9050919050565b7f4e487b7100000000000000000000000000000000000000000000000000000000600052603160045260246000fd5b7f416464726573733a2064656c65676174652063616c6c20746f206e6f6e2d636f60008201527f6e74726163740000000000000000000000000000000000000000000000000000602082015250565b6000615aca602683614ff6565b9150615ad582615a6e565b604082019050919050565b60006020820190508181036000830152615af981615abd565b9050919050565b600081519050919050565b600081905092915050565b60005b83811015615b34578082015181840152602081019050615b19565b83811115615b43576000848401525b50505050565b6000615b5482615b00565b615b5e8185615b0b565b9350615b6e818560208601615b16565b80840191505092915050565b6000615b868284615b49565b915081905092915050565b600081519050919050565b6000615ba782615b91565b615bb18185614ff6565b9350615bc1818560208601615b16565b615bca81614bdc565b840191505092915050565b60006020820190508181036000830152615bef8184615b9c565b90509291505056fe416464726573733a206c6f772d6c6576656c2064656c65676174652063616c6c206661696c6564a26469706673582212202d7808329291608399ff360ce9e47c28f48210a99b1b8e668c2ebae762ccf9ae64736f6c634300080b0033",
  "deployedBytecode": "0x6080604052600436106101f95760003560e01c8063885640db1161010d578063c0c53b8b116100a0578063d0ebdbe71161006f578063d0ebdbe71461071e578063d2a2ce5d14610747578063dcdab02a14610772578063eccacf7f1461079b578063f2fde38b146107c6576101f9565b8063c0c53b8b14610673578063c1fa411a1461069c578063c5728c83146106c7578063cf009f7a146106f3576101f9565b8063a3f16ef1116100dc578063a3f16ef1146105b8578063afc97578146105e3578063b52d326c1461060c578063be982c3114610635576101f9565b8063885640db146104fe5780638da5cb5b1461052757806393739a93146105525780639f8a13d71461057b576101f9565b80634fc517eb116101905780636fe958d81161015f5780636fe958d81461042a578063715018a614610453578063724e61d01461046a5780637b1039991461049657806385a92cb7146104c1576101f9565b80634fc517eb1461037d5780635145b0ad146103a857806354255be0146103d15780635dab2420146103ff576101f9565b80632de2c5ac116101cc5780632de2c5ac146102e25780633659cfe61461030d578063481c6a75146103365780634f1ef28614610361576101f9565b80630c29aab2146101fe5780630f8f0fcc1461022957806320e92e59146102665780632863f68c146102a4575b600080fd5b34801561020a57600080fd5b506102136107ef565b6040516102209190614804565b60405180910390f35b34801561023557600080fd5b50610250600480360381019061024b919061485f565b6107f5565b60405161025d91906148cd565b60405180910390f35b34801561027257600080fd5b5061028d6004803603810190610288919061494c565b610812565b60405161029b929190614b1b565b60405180910390f35b3480156102b057600080fd5b506102cb60048036038101906102c69190614b52565b610931565b6040516102d9929190614b7f565b60405180910390f35b3480156102ee57600080fd5b506102f7610958565b6040516103049190614bb7565b60405180910390f35b34801561031957600080fd5b50610334600480360381019061032f9190614b52565b61096b565b005b34801561034257600080fd5b5061034b610af4565b60405161035891906148cd565b60405180910390f35b61037b60048036038101906103769190614d18565b610b1a565b005b34801561038957600080fd5b50610392610c57565b60405161039f9190614804565b60405180910390f35b3480156103b457600080fd5b506103cf60048036038101906103ca9190614d74565b610c5d565b005b3480156103dd57600080fd5b506103e6610de6565b6040516103f69493929190614dc7565b60405180910390f35b34801561040b57600080fd5b50610414610e00565b6040516104219190614e6b565b60405180910390f35b34801561043657600080fd5b50610451600480360381019061044c9190614e86565b610e26565b005b34801561045f57600080fd5b5061046861112d565b005b34801561047657600080fd5b5061047f6111b5565b60405161048d929190614b7f565b60405180910390f35b3480156104a257600080fd5b506104ab611255565b6040516104b89190614ee7565b60405180910390f35b3480156104cd57600080fd5b506104e860048036038101906104e39190614b52565b61127b565b6040516104f59190614804565b60405180910390f35b34801561050a57600080fd5b5061052560048036038101906105209190614f02565b611293565b005b34801561053357600080fd5b5061053c611329565b60405161054991906148cd565b60405180910390f35b34801561055e57600080fd5b5061057960048036038101906105749190614b52565b611353565b005b34801561058757600080fd5b506105a2600480360381019061059d9190614b52565b6113db565b6040516105af9190614bb7565b60405180910390f35b3480156105c457600080fd5b506105cd611461565b6040516105da9190614f76565b60405180910390f35b3480156105ef57600080fd5b5061060a60048036038101906106059190614d74565b611487565b005b34801561061857600080fd5b50610633600480360381019061062e9190614d74565b611964565b005b34801561064157600080fd5b5061065c60048036038101906106579190614b52565b611bf8565b60405161066a929190614f91565b60405180910390f35b34801561067f57600080fd5b5061069a60048036038101906106959190614d74565b611db3565b005b3480156106a857600080fd5b506106b1611f2e565b6040516106be9190614804565b60405180910390f35b3480156106d357600080fd5b506106dc611fb0565b6040516106ea929190614b7f565b60405180910390f35b3480156106ff57600080fd5b50610708612051565b6040516107159190614fdb565b60405180910390f35b34801561072a57600080fd5b5061074560048036038101906107409190614b52565b612077565b005b34801561075357600080fd5b5061075c6120ff565b6040516107699190614804565b60405180910390f35b34801561077e57600080fd5b5061079960048036038101906107949190614b52565b612110565b005b3480156107a757600080fd5b506107b06121fa565b6040516107bd9190614804565b60405180910390f35b3480156107d257600080fd5b506107ed60048036038101906107e89190614b52565b612200565b005b60725481565b600061080b8260756122f890919063ffffffff16565b9050919050565b6060803373ffffffffffffffffffffffffffffffffffffffff16606660009054906101000a900473ffffffffffffffffffffffffffffffffffffffff1673ffffffffffffffffffffffffffffffffffffffff16141580156108c157503373ffffffffffffffffffffffffffffffffffffffff16606e60009054906101000a900473ffffffffffffffffffffffffffffffffffffffff1673ffffffffffffffffffffffffffffffffffffffff1614155b1561090357336040517f79eaeb2b0000000000000000000000000000000000000000000000000000000081526004016108fa91906148cd565b60405180910390fd5b84610917576109128484612312565b610921565b61092084612ad1565b5b8092508193505050935093915050565b60008061094883606761330890919063ffffffff16565b9091508092508193505050915091565b607460009054906101000a900460ff1681565b7f000000000000000000000000000000000000000000000000000000000000000073ffffffffffffffffffffffffffffffffffffffff163073ffffffffffffffffffffffffffffffffffffffff1614156109fa576040517f08c379a00000000000000000000000000000000000000000000000000000000081526004016109f190615079565b60405180910390fd5b7f000000000000000000000000000000000000000000000000000000000000000073ffffffffffffffffffffffffffffffffffffffff16610a39613363565b73ffffffffffffffffffffffffffffffffffffffff1614610a8f576040517f08c379a0000000000000000000000000000000000000000000000000000000008152600401610a869061510b565b60405180910390fd5b610a98816133ba565b610af181600067ffffffffffffffff811115610ab757610ab6614bed565b5b6040519080825280601f01601f191660200182016040528015610ae95781602001600182028036833780820191505090505b506000613439565b50565b606660009054906101000a900473ffffffffffffffffffffffffffffffffffffffff1681565b7f000000000000000000000000000000000000000000000000000000000000000073ffffffffffffffffffffffffffffffffffffffff163073ffffffffffffffffffffffffffffffffffffffff161415610ba9576040517f08c379a0000000000000000000000000000000000000000000000000000000008152600401610ba090615079565b60405180910390fd5b7f000000000000000000000000000000000000000000000000000000000000000073ffffffffffffffffffffffffffffffffffffffff16610be8613363565b73ffffffffffffffffffffffffffffffffffffffff1614610c3e576040517f08c379a0000000000000000000000000000000000000000000000000000000008152600401610c359061510b565b60405180910390fd5b610c47826133ba565b610c5382826001613439565b5050565b60705481565b610c7183607561360a90919063ffffffff16565b610ca7576040517f0a1f2c0e00000000000000000000000000000000000000000000000000000000815260040160405180910390fd5b606773__$18085dca7c6a2f09a309a1b54006aa0b25$__63cab455ae909185606f60008873ffffffffffffffffffffffffffffffffffffffff1673ffffffffffffffffffffffffffffffffffffffff1681526020019081526020016000205486866040518663ffffffff1660e01b8152600401610d28959493929190615150565b60006040518083038186803b158015610d4057600080fd5b505af4158015610d54573d6000803e3d6000fd5b50505050610d6c83607561363a90919063ffffffff16565b506000610d79607561366a565b1415610de1576001607460006101000a81548160ff0219169083151502179055507fb930683f0749189780c4016ec37d019eb0cbbf6550ce7374fac5cfbae93909a7607460009054906101000a900460ff16604051610dd89190614bb7565b60405180910390a15b505050565b600080600080600180600080935093509350935090919293565b606d60009054906101000a900473ffffffffffffffffffffffffffffffffffffffff1681565b606773__$18085dca7c6a2f09a309a1b54006aa0b25$__6302f130289091846040518363ffffffff1660e01b8152600401610e629291906151a3565b602060405180830381865af4158015610e7f573d6000803e3d6000fd5b505050506040513d601f19601f82011682018060405250810190610ea391906151e1565b610ee457816040517fdc1b434d000000000000000000000000000000000000000000000000000000008152600401610edb91906148cd565b60405180910390fd5b606773__$18085dca7c6a2f09a309a1b54006aa0b25$__6302f130289091836040518363ffffffff1660e01b8152600401610f209291906151a3565b602060405180830381865af4158015610f3d573d6000803e3d6000fd5b505050506040513d601f19601f82011682018060405250810190610f6191906151e1565b610fa257806040517f5a081584000000000000000000000000000000000000000000000000000000008152600401610f9991906148cd565b60405180910390fd5b600080610fae84611bf8565b91509150818111610ffa578381836040517f8b0123bf000000000000000000000000000000000000000000000000000000008152600401610ff19392919061520e565b60405180910390fd5b60008061100685611bf8565b91509150818110611052578481836040517f845286390000000000000000000000000000000000000000000000000000000081526004016110499392919061520e565b60405180910390fd5b600061107485856110639190615274565b838561106f9190615274565b61367f565b905061108287826000613698565b61108e86826001613698565b6110d987606f60008a73ffffffffffffffffffffffffffffffffffffffff1673ffffffffffffffffffffffffffffffffffffffff168152602001908152602001600020546000613787565b61112486606f60008973ffffffffffffffffffffffffffffffffffffffff1673ffffffffffffffffffffffffffffffffffffffff168152602001908152602001600020546001613787565b50505050505050565b611135613a3b565b73ffffffffffffffffffffffffffffffffffffffff16611153611329565b73ffffffffffffffffffffffffffffffffffffffff16146111a9576040517f08c379a00000000000000000000000000000000000000000000000000000000081526004016111a0906152f4565b60405180910390fd5b6111b36000613a43565b565b600080606773__$18085dca7c6a2f09a309a1b54006aa0b25$__630c8f298790916040518263ffffffff1660e01b81526004016111f29190615314565b602060405180830381865af415801561120f573d6000803e3d6000fd5b505050506040513d601f19601f820116820180604052508101906112339190615344565b915061124982606761330890919063ffffffff16565b90915050809150509091565b606560009054906101000a900473ffffffffffffffffffffffffffffffffffffffff1681565b606f6020528060005260406000206000915090505481565b61129b613a3b565b73ffffffffffffffffffffffffffffffffffffffff166112b9611329565b73ffffffffffffffffffffffffffffffffffffffff161461130f576040517f08c379a0000000000000000000000000000000000000000000000000000000008152600401611306906152f4565b60405180910390fd5b826070819055508160718190555080607381905550505050565b6000603360009054906101000a900473ffffffffffffffffffffffffffffffffffffffff16905090565b61135b613a3b565b73ffffffffffffffffffffffffffffffffffffffff16611379611329565b73ffffffffffffffffffffffffffffffffffffffff16146113cf576040517f08c379a00000000000000000000000000000000000000000000000000000000081526004016113c6906152f4565b60405180910390fd5b6113d881613b09565b50565b6000606773__$18085dca7c6a2f09a309a1b54006aa0b25$__6302f130289091846040518363ffffffff1660e01b81526004016114199291906151a3565b602060405180830381865af4158015611436573d6000803e3d6000fd5b505050506040513d601f19601f8201168201806040525081019061145a91906151e1565b9050919050565b606c60009054906101000a900473ffffffffffffffffffffffffffffffffffffffff1681565b61148f613a3b565b73ffffffffffffffffffffffffffffffffffffffff166114ad611329565b73ffffffffffffffffffffffffffffffffffffffff1614611503576040517f08c379a00000000000000000000000000000000000000000000000000000000081526004016114fa906152f4565b60405180910390fd5b606c60009054906101000a900473ffffffffffffffffffffffffffffffffffffffff1673ffffffffffffffffffffffffffffffffffffffff1663ac8f4425846040518263ffffffff1660e01b815260040161155e91906148cd565b602060405180830381865afa15801561157b573d6000803e3d6000fd5b505050506040513d601f19601f8201168201806040525081019061159f91906151e1565b6115e057826040517f10a7bc6b0000000000000000000000000000000000000000000000000000000081526004016115d791906148cd565b60405180910390fd5b606773__$18085dca7c6a2f09a309a1b54006aa0b25$__6302f130289091856040518363ffffffff1660e01b815260040161161c9291906151a3565b602060405180830381865af4158015611639573d6000803e3d6000fd5b505050506040513d601f19601f8201168201806040525081019061165d91906151e1565b1561169f57826040517fbd133eee00000000000000000000000000000000000000000000000000000000815260040161169691906148cd565b60405180910390fd5b600080606660009054906101000a900473ffffffffffffffffffffffffffffffffffffffff1673ffffffffffffffffffffffffffffffffffffffff1663c494ec1e606d60009054906101000a900473ffffffffffffffffffffffffffffffffffffffff1673ffffffffffffffffffffffffffffffffffffffff1663acd201d0886040518263ffffffff1660e01b815260040161173b91906148cd565b602060405180830381865afa158015611758573d6000803e3d6000fd5b505050506040513d601f19601f8201168201806040525081019061177c9190615386565b6040518263ffffffff1660e01b81526004016117989190614804565b602060405180830381865afa1580156117b5573d6000803e3d6000fd5b505050506040513d601f19601f820116820180604052508101906117d99190615386565b9050600081146118a8576000606e60009054906101000a900473ffffffffffffffffffffffffffffffffffffffff1673ffffffffffffffffffffffffffffffffffffffff166304744470876040518263ffffffff1660e01b815260040161184091906148cd565b602060405180830381865afa15801561185d573d6000803e3d6000fd5b505050506040513d601f19601f820116820180604052508101906118819190615386565b905061188d828261367f565b826118989190615274565b92506118a686846001613698565b505b606773__$18085dca7c6a2f09a309a1b54006aa0b25$__632dedbbf09091878588886040518663ffffffff1660e01b81526004016118ea959493929190615150565b60006040518083038186803b15801561190257600080fd5b505af4158015611916573d6000803e3d6000fd5b505050508473ffffffffffffffffffffffffffffffffffffffff167f0503b4748a47435f2432d46ef300e0e2dc47baa0e5f04bb3bd8a355ee1e1dbe660405160405180910390a25050505050565b61196c613a3b565b73ffffffffffffffffffffffffffffffffffffffff1661198a611329565b73ffffffffffffffffffffffffffffffffffffffff16146119e0576040517f08c379a00000000000000000000000000000000000000000000000000000000081526004016119d7906152f4565b60405180910390fd5b600073ffffffffffffffffffffffffffffffffffffffff168373ffffffffffffffffffffffffffffffffffffffff161415611a50576040517f08c379a0000000000000000000000000000000000000000000000000000000008152600401611a47906153ff565b60405180910390fd5b600073ffffffffffffffffffffffffffffffffffffffff168273ffffffffffffffffffffffffffffffffffffffff161415611ac0576040517f08c379a0000000000000000000000000000000000000000000000000000000008152600401611ab79061546b565b60405180910390fd5b600073ffffffffffffffffffffffffffffffffffffffff168173ffffffffffffffffffffffffffffffffffffffff161415611b30576040517f08c379a0000000000000000000000000000000000000000000000000000000008152600401611b27906154d7565b60405180910390fd5b81606c60006101000a81548173ffffffffffffffffffffffffffffffffffffffff021916908373ffffffffffffffffffffffffffffffffffffffff16021790555080606e60006101000a81548173ffffffffffffffffffffffffffffffffffffffff021916908373ffffffffffffffffffffffffffffffffffffffff16021790555082606d60006101000a81548173ffffffffffffffffffffffffffffffffffffffff021916908373ffffffffffffffffffffffffffffffffffffffff160217905550505050565b6000806000606773__$18085dca7c6a2f09a309a1b54006aa0b25$__630c8f298790916040518263ffffffff1660e01b8152600401611c379190615314565b602060405180830381865af4158015611c54573d6000803e3d6000fd5b505050506040513d601f19601f82011682018060405250810190611c789190615344565b90506000606773__$18085dca7c6a2f09a309a1b54006aa0b25$__6365da149690916040518263ffffffff1660e01b8152600401611cb69190615314565b602060405180830381865af4158015611cd3573d6000803e3d6000fd5b505050506040513d601f19601f82011682018060405250810190611cf79190615386565b905080607254611d079190615526565b93508173ffffffffffffffffffffffffffffffffffffffff168573ffffffffffffffffffffffffffffffffffffffff161415611d6a5760008185611d4b9190615557565b607254611d589190615274565b90508085611d6691906155b1565b9450505b606f60008673ffffffffffffffffffffffffffffffffffffffff1673ffffffffffffffffffffffffffffffffffffffff1681526020019081526020016000205492505050915091565b600060019054906101000a900460ff16611ddb5760008054906101000a900460ff1615611de4565b611de3613fd4565b5b611e23576040517f08c379a0000000000000000000000000000000000000000000000000000000008152600401611e1a90615679565b60405180910390fd5b60008060019054906101000a900460ff161590508015611e73576001600060016101000a81548160ff02191690831515021790555060016000806101000a81548160ff0219169083151502179055505b611e7c83613a43565b611e8584613fe5565b611e8e826140f6565b60086070819055506008607181905550600a6073819055506001607460006101000a81548160ff0219169083151502179055507fb930683f0749189780c4016ec37d019eb0cbbf6550ce7374fac5cfbae93909a7607460009054906101000a900460ff16604051611eff9190614bb7565b60405180910390a18015611f285760008060016101000a81548160ff0219169083151502179055505b50505050565b6000606773__$18085dca7c6a2f09a309a1b54006aa0b25$__6365da149690916040518263ffffffff1660e01b8152600401611f6a9190615314565b602060405180830381865af4158015611f87573d6000803e3d6000fd5b505050506040513d601f19601f82011682018060405250810190611fab9190615386565b905090565b600080606773__$18085dca7c6a2f09a309a1b54006aa0b25$__6349923bff90916040518263ffffffff1660e01b8152600401611fed9190615314565b602060405180830381865af415801561200a573d6000803e3d6000fd5b505050506040513d601f19601f8201168201806040525081019061202e9190615344565b915061204482606761330890919063ffffffff16565b9091509050809150509091565b606e60009054906101000a900473ffffffffffffffffffffffffffffffffffffffff1681565b61207f613a3b565b73ffffffffffffffffffffffffffffffffffffffff1661209d611329565b73ffffffffffffffffffffffffffffffffffffffff16146120f3576040517f08c379a00000000000000000000000000000000000000000000000000000000081526004016120ea906152f4565b60405180910390fd5b6120fc81614151565b50565b600061210b607561366a565b905090565b606c60009054906101000a900473ffffffffffffffffffffffffffffffffffffffff1673ffffffffffffffffffffffffffffffffffffffff1663ac8f4425826040518263ffffffff1660e01b815260040161216b91906148cd565b602060405180830381865afa158015612188573d6000803e3d6000fd5b505050506040513d601f19601f820116820180604052508101906121ac91906151e1565b156121ee57806040517fe3bd013b0000000000000000000000000000000000000000000000000000000081526004016121e591906148cd565b60405180910390fd5b6121f781613b09565b50565b60715481565b612208613a3b565b73ffffffffffffffffffffffffffffffffffffffff16612226611329565b73ffffffffffffffffffffffffffffffffffffffff161461227c576040517f08c379a0000000000000000000000000000000000000000000000000000000008152600401612273906152f4565b60405180910390fd5b600073ffffffffffffffffffffffffffffffffffffffff168173ffffffffffffffffffffffffffffffffffffffff1614156122ec576040517f08c379a00000000000000000000000000000000000000000000000000000000081526004016122e39061570b565b60405180910390fd5b6122f581613a43565b50565b6000612307836000018361423f565b60001c905092915050565b6060806000606773__$18085dca7c6a2f09a309a1b54006aa0b25$__6365da149690916040518263ffffffff1660e01b81526004016123519190615314565b602060405180830381865af415801561236e573d6000803e3d6000fd5b505050506040513d601f19601f820116820180604052508101906123929190615386565b14156123ca576040517f7818a60e00000000000000000000000000000000000000000000000000000000815260040160405180910390fd5b6000612452607054606773__$18085dca7c6a2f09a309a1b54006aa0b25$__6365da149690916040518263ffffffff1660e01b815260040161240c9190615314565b602060405180830381865af4158015612429573d6000803e3d6000fd5b505050506040513d601f19601f8201168201806040525081019061244d9190615386565b61367f565b905060008167ffffffffffffffff8111156124705761246f614bed565b5b60405190808252806020026020018201604052801561249e5781602001602082028036833780820191505090505b50905060008267ffffffffffffffff8111156124bd576124bc614bed565b5b6040519080825280602002602001820160405280156124eb5781602001602082028036833780820191505090505b5090506000606773__$18085dca7c6a2f09a309a1b54006aa0b25$__6349923bff90916040518263ffffffff1660e01b815260040161252a9190615314565b602060405180830381865af4158015612547573d6000803e3d6000fd5b505050506040513d601f19601f8201168201806040525081019061256b9190615344565b905060005b8481108015612580575060008914155b80156125b95750600073ffffffffffffffffffffffffffffffffffffffff168273ffffffffffffffffffffffffffffffffffffffff1614155b15612934576000606660009054906101000a900473ffffffffffffffffffffffffffffffffffffffff1673ffffffffffffffffffffffffffffffffffffffff16632c431058846040518263ffffffff1660e01b815260040161261b91906148cd565b602060405180830381865afa158015612638573d6000803e3d6000fd5b505050506040513d601f19601f8201168201806040525081019061265c9190615386565b90508873ffffffffffffffffffffffffffffffffffffffff168373ffffffffffffffffffffffffffffffffffffffff1614806126985750600081145b156126c0576126b183606761330890919063ffffffff16565b90915090508093505050612570565b6126ca818b61367f565b8483815181106126dd576126dc61572b565b5b602002602001018181525050828583815181106126fd576126fc61572b565b5b602002602001019073ffffffffffffffffffffffffffffffffffffffff16908173ffffffffffffffffffffffffffffffffffffffff168152505083828151811061274a5761274961572b565b5b60200260200101518a61275d9190615274565b995061282083606660009054906101000a900473ffffffffffffffffffffffffffffffffffffffff1673ffffffffffffffffffffffffffffffffffffffff1663c494ec1e8786815181106127b4576127b361572b565b5b60200260200101516040518263ffffffff1660e01b81526004016127d89190614804565b602060405180830381865afa1580156127f5573d6000803e3d6000fd5b505050506040513d601f19601f820116820180604052508101906128199190615386565b6001613698565b61286b83606f60008673ffffffffffffffffffffffffffffffffffffffff1673ffffffffffffffffffffffffffffffffffffffff168152602001908152602001600020546001613787565b607460009054906101000a900460ff161561290257606773__$18085dca7c6a2f09a309a1b54006aa0b25$__6349923bff90916040518263ffffffff1660e01b81526004016128ba9190615314565b602060405180830381865af41580156128d7573d6000803e3d6000fd5b505050506040513d601f19601f820116820180604052508101906128fb9190615344565b9250612920565b61291683606761330890919063ffffffff16565b9091509050809350505b818061292b9061575a565b92505050612570565b6000891461296e576040517f2e6c1bf900000000000000000000000000000000000000000000000000000000815260040160405180910390fd5b8067ffffffffffffffff81111561298857612987614bed565b5b6040519080825280602002602001820160405280156129b65781602001602082028036833780820191505090505b5096508067ffffffffffffffff8111156129d3576129d2614bed565b5b604051908082528060200260200182016040528015612a015781602001602082028036833780820191505090505b50955060005b81811015612ac457848181518110612a2257612a2161572b565b5b6020026020010151888281518110612a3d57612a3c61572b565b5b602002602001019073ffffffffffffffffffffffffffffffffffffffff16908173ffffffffffffffffffffffffffffffffffffffff1681525050838181518110612a8a57612a8961572b565b5b6020026020010151878281518110612aa557612aa461572b565b5b6020026020010181815250508080612abc9061575a565b915050612a07565b5050505050509250929050565b6060806000606773__$18085dca7c6a2f09a309a1b54006aa0b25$__6365da149690916040518263ffffffff1660e01b8152600401612b109190615314565b602060405180830381865af4158015612b2d573d6000803e3d6000fd5b505050506040513d601f19601f82011682018060405250810190612b519190615386565b1415612b89576040517f7818a60e00000000000000000000000000000000000000000000000000000000815260040160405180910390fd5b6000612c11607154606773__$18085dca7c6a2f09a309a1b54006aa0b25$__6365da149690916040518263ffffffff1660e01b8152600401612bcb9190615314565b602060405180830381865af4158015612be8573d6000803e3d6000fd5b505050506040513d601f19601f82011682018060405250810190612c0c9190615386565b61367f565b905060008167ffffffffffffffff811115612c2f57612c2e614bed565b5b604051908082528060200260200182016040528015612c5d5781602001602082028036833780820191505090505b50905060008267ffffffffffffffff811115612c7c57612c7b614bed565b5b604051908082528060200260200182016040528015612caa5781602001602082028036833780820191505090505b5090506000606773__$18085dca7c6a2f09a309a1b54006aa0b25$__630c8f298790916040518263ffffffff1660e01b8152600401612ce99190615314565b602060405180830381865af4158015612d06573d6000803e3d6000fd5b505050506040513d601f19601f82011682018060405250810190612d2a9190615344565b905060005b8481108015612d3f575060008814155b8015612d785750600073ffffffffffffffffffffffffffffffffffffffff168273ffffffffffffffffffffffffffffffffffffffff1614155b1561316d57612f05612eff606d60009054906101000a900473ffffffffffffffffffffffffffffffffffffffff1673ffffffffffffffffffffffffffffffffffffffff1663acd201d0856040518263ffffffff1660e01b8152600401612dde91906148cd565b602060405180830381865afa158015612dfb573d6000803e3d6000fd5b505050506040513d601f19601f82011682018060405250810190612e1f9190615386565b606660009054906101000a900473ffffffffffffffffffffffffffffffffffffffff1673ffffffffffffffffffffffffffffffffffffffff16630567847f606f60008873ffffffffffffffffffffffffffffffffffffffff1673ffffffffffffffffffffffffffffffffffffffff168152602001908152602001600020546040518263ffffffff1660e01b8152600401612eb99190614804565b602060405180830381865afa158015612ed6573d6000803e3d6000fd5b505050506040513d601f19601f82011682018060405250810190612efa9190615386565b61367f565b8961367f565b838281518110612f1857612f1761572b565b5b60200260200101818152505081848281518110612f3857612f3761572b565b5b602002602001019073ffffffffffffffffffffffffffffffffffffffff16908173ffffffffffffffffffffffffffffffffffffffff1681525050828181518110612f8557612f8461572b565b5b602002602001015188612f989190615274565b975061305b82606660009054906101000a900473ffffffffffffffffffffffffffffffffffffffff1673ffffffffffffffffffffffffffffffffffffffff1663c494ec1e868581518110612fef57612fee61572b565b5b60200260200101516040518263ffffffff1660e01b81526004016130139190614804565b602060405180830381865afa158015613030573d6000803e3d6000fd5b505050506040513d601f19601f820116820180604052508101906130549190615386565b6000613698565b6130a682606f60008573ffffffffffffffffffffffffffffffffffffffff1673ffffffffffffffffffffffffffffffffffffffff168152602001908152602001600020546000613787565b607460009054906101000a900460ff161561313d57606773__$18085dca7c6a2f09a309a1b54006aa0b25$__630c8f298790916040518263ffffffff1660e01b81526004016130f59190615314565b602060405180830381865af4158015613112573d6000803e3d6000fd5b505050506040513d601f19601f820116820180604052508101906131369190615344565b915061315a565b61315182606761330890919063ffffffff16565b90915050809250505b80806131659061575a565b915050612d2f565b600088146131a7576040517f2e6c1bf900000000000000000000000000000000000000000000000000000000815260040160405180910390fd5b8067ffffffffffffffff8111156131c1576131c0614bed565b5b6040519080825280602002602001820160405280156131ef5781602001602082028036833780820191505090505b5096508067ffffffffffffffff81111561320c5761320b614bed565b5b60405190808252806020026020018201604052801561323a5781602001602082028036833780820191505090505b50955060005b818110156132fd5784818151811061325b5761325a61572b565b5b60200260200101518882815181106132765761327561572b565b5b602002602001019073ffffffffffffffffffffffffffffffffffffffff16908173ffffffffffffffffffffffffffffffffffffffff16815250508381815181106132c3576132c261572b565b5b60200260200101518782815181106132de576132dd61572b565b5b60200260200101818152505080806132f59061575a565b915050613240565b505050505050915091565b60008060008061332961331a8661426a565b8761429190919063ffffffff16565b90508060400151935080604001511561335b5761334981600001516142b7565b925061335881602001516142b7565b91505b509250925092565b60006133917f360894a13ba1a3210667c828492db98dca3e2076cc3735a920a3ca505d382bbc60001b6142c8565b60000160009054906101000a900473ffffffffffffffffffffffffffffffffffffffff16905090565b6133c2613a3b565b73ffffffffffffffffffffffffffffffffffffffff166133e0611329565b73ffffffffffffffffffffffffffffffffffffffff1614613436576040517f08c379a000000000000000000000000000000000000000000000000000000000815260040161342d906152f4565b60405180910390fd5b50565b6000613443613363565b905061344e846142d2565b60008351118061345b5750815b1561346c5761346a848461438b565b505b600061349a7f4910fdfa16fed3260ed0e7147f7cc6da11a60208b5b9406d12a635614ffd914360001b6143b8565b90508060000160009054906101000a900460ff166136035760018160000160006101000a81548160ff02191690831515021790555061356685836040516024016134e491906148cd565b6040516020818303038152906040527f3659cfe6000000000000000000000000000000000000000000000000000000007bffffffffffffffffffffffffffffffffffffffffffffffffffffffff19166020820180517bffffffffffffffffffffffffffffffffffffffffffffffffffffffff838183161783525050505061438b565b5060008160000160006101000a81548160ff02191690831515021790555061358c613363565b73ffffffffffffffffffffffffffffffffffffffff168273ffffffffffffffffffffffffffffffffffffffff16146135f9576040517f08c379a00000000000000000000000000000000000000000000000000000000081526004016135f090615815565b60405180910390fd5b613602856143c2565b5b5050505050565b6000613632836000018373ffffffffffffffffffffffffffffffffffffffff1660001b614411565b905092915050565b6000613662836000018373ffffffffffffffffffffffffffffffffffffffff1660001b614434565b905092915050565b600061367882600001614548565b9050919050565b600081831061368e5781613690565b825b905092915050565b80156137125781606f60008573ffffffffffffffffffffffffffffffffffffffff1673ffffffffffffffffffffffffffffffffffffffff16815260200190815260200160002060008282546136ed91906155b1565b92505081905550816072600082825461370691906155b1565b92505081905550613782565b81606f60008573ffffffffffffffffffffffffffffffffffffffff1673ffffffffffffffffffffffffffffffffffffffff16815260200190815260200160002060008282546137619190615274565b92505081905550816072600082825461377a9190615274565b925050819055505b505050565b61379b83607561360a90919063ffffffff16565b156137a557613a36565b6000808261383457606773__$18085dca7c6a2f09a309a1b54006aa0b25$__63a4aadfcc909187876073546040518563ffffffff1660e01b81526004016137ef9493929190615835565b6040805180830381865af415801561380b573d6000803e3d6000fd5b505050506040513d601f19601f8201168201806040525081019061382f919061587a565b6138b7565b606773__$18085dca7c6a2f09a309a1b54006aa0b25$__6399f68a39909187876073546040518563ffffffff1660e01b81526004016138769493929190615835565b6040805180830381865af4158015613892573d6000803e3d6000fd5b505050506040513d601f19601f820116820180604052508101906138b6919061587a565b5b915091508073ffffffffffffffffffffffffffffffffffffffff168273ffffffffffffffffffffffffffffffffffffffff1614158061397057506001606773__$18085dca7c6a2f09a309a1b54006aa0b25$__6365da149690916040518263ffffffff1660e01b815260040161392d9190615314565b602060405180830381865af415801561394a573d6000803e3d6000fd5b505050506040513d601f19601f8201168201806040525081019061396e9190615386565b145b156139ec57606773__$18085dca7c6a2f09a309a1b54006aa0b25$__63cab455ae9091878786866040518663ffffffff1660e01b81526004016139b7959493929190615150565b60006040518083038186803b1580156139cf57600080fd5b505af41580156139e3573d6000803e3d6000fd5b50505050613a33565b607460009054906101000a900460ff1615613a1d576000607460006101000a81548160ff0219169083151502179055505b613a3185607561455990919063ffffffff16565b505b50505b505050565b600033905090565b6000603360009054906101000a900473ffffffffffffffffffffffffffffffffffffffff16905081603360006101000a81548173ffffffffffffffffffffffffffffffffffffffff021916908373ffffffffffffffffffffffffffffffffffffffff1602179055508173ffffffffffffffffffffffffffffffffffffffff168173ffffffffffffffffffffffffffffffffffffffff167f8be0079c531659141344cd1fd0a4f28419497f9722a3daafe3b4186f6b6457e060405160405180910390a35050565b606773__$18085dca7c6a2f09a309a1b54006aa0b25$__6302f130289091836040518363ffffffff1660e01b8152600401613b459291906151a3565b602060405180830381865af4158015613b62573d6000803e3d6000fd5b505050506040513d601f19601f82011682018060405250810190613b8691906151e1565b613bc757806040517f1adbb153000000000000000000000000000000000000000000000000000000008152600401613bbe91906148cd565b60405180910390fd5b606773__$18085dca7c6a2f09a309a1b54006aa0b25$__63281359299091836040518363ffffffff1660e01b8152600401613c039291906151a3565b60006040518083038186803b158015613c1b57600080fd5b505af4158015613c2f573d6000803e3d6000fd5b50505050613c4781607561363a90919063ffffffff16565b506000606f60008373ffffffffffffffffffffffffffffffffffffffff1673ffffffffffffffffffffffffffffffffffffffff1681526020019081526020016000205490506000811115613f8d57613ca182826000613698565b6000600167ffffffffffffffff811115613cbe57613cbd614bed565b5b604051908082528060200260200182016040528015613cec5781602001602082028036833780820191505090505b5090506000600167ffffffffffffffff811115613d0c57613d0b614bed565b5b604051908082528060200260200182016040528015613d3a5781602001602082028036833780820191505090505b5090508382600081518110613d5257613d5161572b565b5b602002602001019073ffffffffffffffffffffffffffffffffffffffff16908173ffffffffffffffffffffffffffffffffffffffff1681525050606660009054906101000a900473ffffffffffffffffffffffffffffffffffffffff1673ffffffffffffffffffffffffffffffffffffffff16630567847f846040518263ffffffff1660e01b8152600401613de79190614804565b602060405180830381865afa158015613e04573d6000803e3d6000fd5b505050506040513d601f19601f82011682018060405250810190613e289190615386565b81600081518110613e3c57613e3b61572b565b5b602002602001018181525050600080613ef1606660009054906101000a900473ffffffffffffffffffffffffffffffffffffffff1673ffffffffffffffffffffffffffffffffffffffff16630567847f876040518263ffffffff1660e01b8152600401613ea99190614804565b602060405180830381865afa158015613ec6573d6000803e3d6000fd5b505050506040513d601f19601f82011682018060405250810190613eea9190615386565b6000612312565b91509150606660009054906101000a900473ffffffffffffffffffffffffffffffffffffffff1673ffffffffffffffffffffffffffffffffffffffff16630c4d4e40858486856040518563ffffffff1660e01b8152600401613f5694939291906158ba565b600060405180830381600087803b158015613f7057600080fd5b505af1158015613f84573d6000803e3d6000fd5b50505050505050505b8173ffffffffffffffffffffffffffffffffffffffff167fa78a88a551e130ce9732be17784bdff12f72ab4a2c833fb2dcb3ef0818956b0360405160405180910390a25050565b6000613fdf30614589565b15905090565b600060019054906101000a900460ff16614034576040517f08c379a000000000000000000000000000000000000000000000000000000000815260040161402b9061598d565b60405180910390fd5b600073ffffffffffffffffffffffffffffffffffffffff168173ffffffffffffffffffffffffffffffffffffffff1614156140b15761ce10606560006101000a81548173ffffffffffffffffffffffffffffffffffffffff021916908373ffffffffffffffffffffffffffffffffffffffff1602179055506140f3565b80606560006101000a81548173ffffffffffffffffffffffffffffffffffffffff021916908373ffffffffffffffffffffffffffffffffffffffff1602179055505b50565b600060019054906101000a900460ff16614145576040517f08c379a000000000000000000000000000000000000000000000000000000000815260040161413c9061598d565b60405180910390fd5b61414e81614151565b50565b600073ffffffffffffffffffffffffffffffffffffffff168173ffffffffffffffffffffffffffffffffffffffff1614156141b8576040517fe99d5ac500000000000000000000000000000000000000000000000000000000815260040160405180910390fd5b80606660006101000a81548173ffffffffffffffffffffffffffffffffffffffff021916908373ffffffffffffffffffffffffffffffffffffffff1602179055508073ffffffffffffffffffffffffffffffffffffffff167f60a0f5b9f9e81e98216071b85826681c796256fe3d1354ecb675580fba64fa6960405160405180910390a250565b60008260000182815481106142575761425661572b565b5b9060005260206000200154905092915050565b600060608273ffffffffffffffffffffffffffffffffffffffff16901b60001b9050919050565b6142996147c2565b6142af82846000016145ac90919063ffffffff16565b905092915050565b600060608260001c901c9050919050565b6000819050919050565b6142db8161460b565b61431a576040517f08c379a000000000000000000000000000000000000000000000000000000000815260040161431190615a1f565b60405180910390fd5b806143477f360894a13ba1a3210667c828492db98dca3e2076cc3735a920a3ca505d382bbc60001b6142c8565b60000160006101000a81548173ffffffffffffffffffffffffffffffffffffffff021916908373ffffffffffffffffffffffffffffffffffffffff16021790555050565b60606143b08383604051806060016040528060278152602001615bf86027913961461e565b905092915050565b6000819050919050565b6143cb816142d2565b8073ffffffffffffffffffffffffffffffffffffffff167fbc7cd75a20ee27fd9adebab32041f755214dbc6bffa90cc0225b39da2e5c2d3b60405160405180910390a250565b600080836001016000848152602001908152602001600020541415905092915050565b6000808360010160008481526020019081526020016000205490506000811461453c5760006001826144669190615274565b905060006001866000018054905061447e9190615274565b90508181146144ed57600086600001828154811061449f5761449e61572b565b5b90600052602060002001549050808760000184815481106144c3576144c261572b565b5b90600052602060002001819055508387600101600083815260200190815260200160002081905550505b8560000180548061450157614500615a3f565b5b600190038181906000526020600020016000905590558560010160008681526020019081526020016000206000905560019350505050614542565b60009150505b92915050565b600081600001805490509050919050565b6000614581836000018373ffffffffffffffffffffffffffffffffffffffff1660001b6146eb565b905092915050565b6000808273ffffffffffffffffffffffffffffffffffffffff163b119050919050565b6145b46147c2565b82600301600083815260200190815260200160002060405180606001604052908160008201548152602001600182015481526020016002820160009054906101000a900460ff161515151581525050905092915050565b600080823b905060008111915050919050565b60606146298461460b565b614668576040517f08c379a000000000000000000000000000000000000000000000000000000000815260040161465f90615ae0565b60405180910390fd5b6000808573ffffffffffffffffffffffffffffffffffffffff16856040516146909190615b7a565b600060405180830381855af49150503d80600081146146cb576040519150601f19603f3d011682016040523d82523d6000602084013e6146d0565b606091505b50915091506146e082828661475b565b925050509392505050565b60006146f78383614411565b614750578260000182908060018154018082558091505060019003906000526020600020016000909190919091505582600001805490508360010160008481526020019081526020016000208190555060019050614755565b600090505b92915050565b6060831561476b578290506147bb565b60008351111561477e5782518084602001fd5b816040517f08c379a00000000000000000000000000000000000000000000000000000000081526004016147b29190615bd5565b60405180910390fd5b9392505050565b604051806060016040528060008019168152602001600080191681526020016000151581525090565b6000819050919050565b6147fe816147eb565b82525050565b600060208201905061481960008301846147f5565b92915050565b6000604051905090565b600080fd5b600080fd5b61483c816147eb565b811461484757600080fd5b50565b60008135905061485981614833565b92915050565b60006020828403121561487557614874614829565b5b60006148838482850161484a565b91505092915050565b600073ffffffffffffffffffffffffffffffffffffffff82169050919050565b60006148b78261488c565b9050919050565b6148c7816148ac565b82525050565b60006020820190506148e260008301846148be565b92915050565b60008115159050919050565b6148fd816148e8565b811461490857600080fd5b50565b60008135905061491a816148f4565b92915050565b614929816148ac565b811461493457600080fd5b50565b60008135905061494681614920565b92915050565b60008060006060848603121561496557614964614829565b5b60006149738682870161490b565b93505060206149848682870161484a565b925050604061499586828701614937565b9150509250925092565b600081519050919050565b600082825260208201905092915050565b6000819050602082019050919050565b6149d4816148ac565b82525050565b60006149e683836149cb565b60208301905092915050565b6000602082019050919050565b6000614a0a8261499f565b614a1481856149aa565b9350614a1f836149bb565b8060005b83811015614a50578151614a3788826149da565b9750614a42836149f2565b925050600181019050614a23565b5085935050505092915050565b600081519050919050565b600082825260208201905092915050565b6000819050602082019050919050565b614a92816147eb565b82525050565b6000614aa48383614a89565b60208301905092915050565b6000602082019050919050565b6000614ac882614a5d565b614ad28185614a68565b9350614add83614a79565b8060005b83811015614b0e578151614af58882614a98565b9750614b0083614ab0565b925050600181019050614ae1565b5085935050505092915050565b60006040820190508181036000830152614b3581856149ff565b90508181036020830152614b498184614abd565b90509392505050565b600060208284031215614b6857614b67614829565b5b6000614b7684828501614937565b91505092915050565b6000604082019050614b9460008301856148be565b614ba160208301846148be565b9392505050565b614bb1816148e8565b82525050565b6000602082019050614bcc6000830184614ba8565b92915050565b600080fd5b600080fd5b6000601f19601f8301169050919050565b7f4e487b7100000000000000000000000000000000000000000000000000000000600052604160045260246000fd5b614c2582614bdc565b810181811067ffffffffffffffff82111715614c4457614c43614bed565b5b80604052505050565b6000614c5761481f565b9050614c638282614c1c565b919050565b600067ffffffffffffffff821115614c8357614c82614bed565b5b614c8c82614bdc565b9050602081019050919050565b82818337600083830152505050565b6000614cbb614cb684614c68565b614c4d565b905082815260208101848484011115614cd757614cd6614bd7565b5b614ce2848285614c99565b509392505050565b600082601f830112614cff57614cfe614bd2565b5b8135614d0f848260208601614ca8565b91505092915050565b60008060408385031215614d2f57614d2e614829565b5b6000614d3d85828601614937565b925050602083013567ffffffffffffffff811115614d5e57614d5d61482e565b5b614d6a85828601614cea565b9150509250929050565b600080600060608486031215614d8d57614d8c614829565b5b6000614d9b86828701614937565b9350506020614dac86828701614937565b9250506040614dbd86828701614937565b9150509250925092565b6000608082019050614ddc60008301876147f5565b614de960208301866147f5565b614df660408301856147f5565b614e0360608301846147f5565b95945050505050565b6000819050919050565b6000614e31614e2c614e278461488c565b614e0c565b61488c565b9050919050565b6000614e4382614e16565b9050919050565b6000614e5582614e38565b9050919050565b614e6581614e4a565b82525050565b6000602082019050614e806000830184614e5c565b92915050565b60008060408385031215614e9d57614e9c614829565b5b6000614eab85828601614937565b9250506020614ebc85828601614937565b9150509250929050565b6000614ed182614e38565b9050919050565b614ee181614ec6565b82525050565b6000602082019050614efc6000830184614ed8565b92915050565b600080600060608486031215614f1b57614f1a614829565b5b6000614f298682870161484a565b9350506020614f3a8682870161484a565b9250506040614f4b8682870161484a565b9150509250925092565b6000614f6082614e38565b9050919050565b614f7081614f55565b82525050565b6000602082019050614f8b6000830184614f67565b92915050565b6000604082019050614fa660008301856147f5565b614fb360208301846147f5565b9392505050565b6000614fc582614e38565b9050919050565b614fd581614fba565b82525050565b6000602082019050614ff06000830184614fcc565b92915050565b600082825260208201905092915050565b7f46756e6374696f6e206d7573742062652063616c6c6564207468726f7567682060008201527f64656c656761746563616c6c0000000000000000000000000000000000000000602082015250565b6000615063602c83614ff6565b915061506e82615007565b604082019050919050565b6000602082019050818103600083015261509281615056565b9050919050565b7f46756e6374696f6e206d7573742062652063616c6c6564207468726f7567682060008201527f6163746976652070726f78790000000000000000000000000000000000000000602082015250565b60006150f5602c83614ff6565b915061510082615099565b604082019050919050565b60006020820190508181036000830152615124816150e8565b9050919050565b8082525050565b61513b816148ac565b82525050565b61514a816147eb565b82525050565b600060a082019050615165600083018861512b565b6151726020830187615132565b61517f6040830186615141565b61518c6060830185615132565b6151996080830184615132565b9695505050505050565b60006040820190506151b8600083018561512b565b6151c56020830184615132565b9392505050565b6000815190506151db816148f4565b92915050565b6000602082840312156151f7576151f6614829565b5b6000615205848285016151cc565b91505092915050565b600060608201905061522360008301866148be565b61523060208301856147f5565b61523d60408301846147f5565b949350505050565b7f4e487b7100000000000000000000000000000000000000000000000000000000600052601160045260246000fd5b600061527f826147eb565b915061528a836147eb565b92508282101561529d5761529c615245565b5b828203905092915050565b7f4f776e61626c653a2063616c6c6572206973206e6f7420746865206f776e6572600082015250565b60006152de602083614ff6565b91506152e9826152a8565b602082019050919050565b6000602082019050818103600083015261530d816152d1565b9050919050565b6000602082019050615329600083018461512b565b92915050565b60008151905061533e81614920565b92915050565b60006020828403121561535a57615359614829565b5b60006153688482850161532f565b91505092915050565b60008151905061538081614833565b92915050565b60006020828403121561539c5761539b614829565b5b60006153aa84828501615371565b91505092915050565b7f4163636f756e74206e756c6c0000000000000000000000000000000000000000600082015250565b60006153e9600c83614ff6565b91506153f4826153b3565b602082019050919050565b60006020820190508181036000830152615418816153dc565b9050919050565b7f47726f75704865616c7468206e756c6c00000000000000000000000000000000600082015250565b6000615455601083614ff6565b91506154608261541f565b602082019050919050565b6000602082019050818103600083015261548481615448565b9050919050565b7f537065636966696347726f75705374726174656779206e756c6c000000000000600082015250565b60006154c1601a83614ff6565b91506154cc8261548b565b602082019050919050565b600060208201905081810360008301526154f0816154b4565b9050919050565b7f4e487b7100000000000000000000000000000000000000000000000000000000600052601260045260246000fd5b6000615531826147eb565b915061553c836147eb565b92508261554c5761554b6154f7565b5b828204905092915050565b6000615562826147eb565b915061556d836147eb565b9250817fffffffffffffffffffffffffffffffffffffffffffffffffffffffffffffffff04831182151516156155a6576155a5615245565b5b828202905092915050565b60006155bc826147eb565b91506155c7836147eb565b9250827fffffffffffffffffffffffffffffffffffffffffffffffffffffffffffffffff038211156155fc576155fb615245565b5b828201905092915050565b7f496e697469616c697a61626c653a20636f6e747261637420697320616c72656160008201527f647920696e697469616c697a6564000000000000000000000000000000000000602082015250565b6000615663602e83614ff6565b915061566e82615607565b604082019050919050565b6000602082019050818103600083015261569281615656565b9050919050565b7f4f776e61626c653a206e6577206f776e657220697320746865207a65726f206160008201527f6464726573730000000000000000000000000000000000000000000000000000602082015250565b60006156f5602683614ff6565b915061570082615699565b604082019050919050565b60006020820190508181036000830152615724816156e8565b9050919050565b7f4e487b7100000000000000000000000000000000000000000000000000000000600052603260045260246000fd5b6000615765826147eb565b91507fffffffffffffffffffffffffffffffffffffffffffffffffffffffffffffffff82141561579857615797615245565b5b600182019050919050565b7f45524331393637557067726164653a207570677261646520627265616b73206660008201527f7572746865722075706772616465730000000000000000000000000000000000602082015250565b60006157ff602f83614ff6565b915061580a826157a3565b604082019050919050565b6000602082019050818103600083015261582e816157f2565b9050919050565b600060808201905061584a600083018761512b565b6158576020830186615132565b6158646040830185615141565b6158716060830184615141565b95945050505050565b6000806040838503121561589157615890614829565b5b600061589f8582860161532f565b92505060206158b08582860161532f565b9150509250929050565b600060808201905081810360008301526158d481876149ff565b905081810360208301526158e881866149ff565b905081810360408301526158fc8185614abd565b905081810360608301526159108184614abd565b905095945050505050565b7f496e697469616c697a61626c653a20636f6e7472616374206973206e6f74206960008201527f6e697469616c697a696e67000000000000000000000000000000000000000000602082015250565b6000615977602b83614ff6565b91506159828261591b565b604082019050919050565b600060208201905081810360008301526159a68161596a565b9050919050565b7f455243313936373a206e657720696d706c656d656e746174696f6e206973206e60008201527f6f74206120636f6e747261637400000000000000000000000000000000000000602082015250565b6000615a09602d83614ff6565b9150615a14826159ad565b604082019050919050565b60006020820190508181036000830152615a38816159fc565b9050919050565b7f4e487b7100000000000000000000000000000000000000000000000000000000600052603160045260246000fd5b7f416464726573733a2064656c65676174652063616c6c20746f206e6f6e2d636f60008201527f6e74726163740000000000000000000000000000000000000000000000000000602082015250565b6000615aca602683614ff6565b9150615ad582615a6e565b604082019050919050565b60006020820190508181036000830152615af981615abd565b9050919050565b600081519050919050565b600081905092915050565b60005b83811015615b34578082015181840152602081019050615b19565b83811115615b43576000848401525b50505050565b6000615b5482615b00565b615b5e8185615b0b565b9350615b6e818560208601615b16565b80840191505092915050565b6000615b868284615b49565b915081905092915050565b600081519050919050565b6000615ba782615b91565b615bb18185614ff6565b9350615bc1818560208601615b16565b615bca81614bdc565b840191505092915050565b60006020820190508181036000830152615bef8184615b9c565b90509291505056fe416464726573733a206c6f772d6c6576656c2064656c65676174652063616c6c206661696c6564a26469706673582212202d7808329291608399ff360ce9e47c28f48210a99b1b8e668c2ebae762ccf9ae64736f6c634300080b0033",
  "libraries": {
    "AddressSortedLinkedList": "0xEc660B5c5bAC0699C2061b047fc6729e302039E7"
  },
  "devdoc": {
    "errors": {
      "CallerNotManager(address)": [
        {
          "params": {
            "caller": "`msg.sender` that called the function."
          }
        }
      ],
      "CallerNotManagerNorStrategy(address)": [
        {
          "params": {
            "caller": "`msg.sender` that called the function."
          }
        }
      ],
      "GroupAlreadyAdded(address)": [
        {
          "params": {
            "group": "The group's address."
          }
        }
      ],
      "GroupNotActive(address)": [
        {
          "params": {
            "group": "The group's address."
          }
        }
      ],
      "GroupNotEligible(address)": [
        {
          "params": {
            "group": "The group's address."
          }
        }
      ],
      "HealthyGroup(address)": [
        {
          "params": {
            "group": "The group's address."
          }
        }
      ],
      "InvalidFromGroup(address)": [
        {
          "params": {
            "group": "The group's address."
          }
        }
      ],
      "InvalidToGroup(address)": [
        {
          "params": {
            "group": "The group's address."
          }
        }
      ],
      "RebalanceEnoughStCelo(address,uint256,uint256)": [
        {
          "params": {
            "actualCelo": "The actual stCELO value.",
            "expectedCelo": "The expected stCELO value.",
            "group": "The group's address."
          }
        }
      ],
      "RebalanceNoExtraStCelo(address,uint256,uint256)": [
        {
          "params": {
            "actualCelo": "The actual stCELO value.",
            "expectedCelo": "The expected stCELO value.",
            "group": "The group's address."
          }
        }
      ]
    },
    "events": {
      "GroupActivated(address)": {
        "params": {
          "group": "The group's address."
        }
      },
      "GroupRemoved(address)": {
        "params": {
          "group": "The group's address."
        }
      },
      "SortedFlagUpdated(bool)": {
        "params": {
          "update": "The new value."
        }
      }
    },
    "kind": "dev",
    "methods": {
      "activateGroup(address,address,address)": {
        "params": {
          "greater": "The group receiving more votes (in default strategy) than `group`,  or 0 if `group` has the most votes of any validator group.",
          "group": "The address of the group to add to the set of votable groups.",
          "lesser": "The group receiving fewer votes (in default strategy) than `group`, or 0 if `group` has the fewest votes of any validator group."
        }
      },
      "deactivateGroup(address)": {
        "params": {
          "group": "The group to deactivated."
        }
      },
      "deactivateUnhealthyGroup(address)": {
        "params": {
          "group": "The group to deactivate if unhealthy."
        }
      },
      "generateVoteDistribution(bool,uint256,address)": {
        "params": {
          "celoAmount": "The amount of votes to distribute.",
          "depositGroupToIgnore": "The group that will not be used for deposit",
          "withdraw": "Whether to withdraw or deposit."
        },
        "returns": {
          "finalGroups": "The groups that were chosen for distribution.",
          "finalVotes": "The votes of chosen finalGroups."
        }
      },
      "getExpectedAndActualStCeloForGroup(address)": {
        "params": {
          "group": "The group."
        },
        "returns": {
          "actualStCelo": "The amount of stCELO which is currently assigned to group in the strategy.",
          "expectedStCelo": "The amount of stCELO that group should have. (The total amount of stCELO in the default strategy divided by the number of active groups.)"
        }
      },
      "getGroupPreviousAndNext(address)": {
        "params": {
          "group": "The group address."
        },
        "returns": {
          "nextAddress": "The next address.",
          "previousAddress": "The previous address."
        }
      },
      "getGroupsHead()": {
        "returns": {
          "head": "The address of the sorted group with most votes.",
          "previousAddress": "The previous address from head."
        }
      },
      "getGroupsTail()": {
        "returns": {
          "nextAddress": "The next address after tail.",
          "tail": "The address of the sorted group with least votes."
        }
      },
      "getNumberOfGroups()": {
        "returns": {
          "_0": "The number of active groups."
        }
      },
      "getNumberOfUnsortedGroups()": {
        "returns": {
          "_0": "The number of unsorted groups."
        }
      },
      "getUnsortedGroupAt(uint256)": {
        "params": {
          "index": "The index to look up."
        },
        "returns": {
          "_0": "The group."
        }
      },
      "getVersionNumber()": {
        "returns": {
          "_0": "Storage version of the contract.",
          "_1": "Major version of the contract.",
          "_2": "Minor version of the contract.",
          "_3": "Patch version of the contract."
        }
      },
      "initialize(address,address,address)": {
        "params": {
          "_manager": "The address of the Manager contract.",
          "_owner": "The address of the contract owner.",
          "_registry": "The address of the Celo Registry."
        }
      },
      "isActive(address)": {
        "returns": {
          "_0": "Whether or not the given group is active."
        }
      },
      "owner()": {
        "details": "Returns the address of the current owner."
      },
      "rebalance(address,address)": {
        "params": {
          "fromGroup": "The from group.",
          "toGroup": "The to group."
        }
      },
      "renounceOwnership()": {
        "details": "Leaves the contract without owner. It will not be possible to call `onlyOwner` functions anymore. Can only be called by the current owner. NOTE: Renouncing ownership will leave the contract without an owner, thereby removing any functionality that is only available to the owner."
      },
      "setDependencies(address,address,address)": {
        "params": {
          "_account": "The address of the Account contract.",
          "_groupHealth": "The address of the GroupHealth contract.",
          "_specificGroupStrategy": "The address of the SpecificGroupStrategy contract."
        }
      },
      "setManager(address)": {
        "params": {
          "_manager": "The new manager address."
        }
      },
      "setSortingParams(uint256,uint256,uint256)": {
        "params": {
          "distributeTo": "Maximum number of groups that can be distributed to.",
          "loopLimit": "The sorting loop limit while sorting active groups on chain.",
          "withdrawFrom": "Maximum number of groups that can be withdrawn from."
        }
      },
      "transferOwnership(address)": {
        "details": "Transfers ownership of the contract to a new account (`newOwner`). Can only be called by the current owner."
      },
      "updateActiveGroupOrder(address,address,address)": {
        "params": {
          "greaterKey": "The key of the group greater than the group to update.",
          "group": "The group address.",
          "lesserKey": "The key of the group less than the group to update."
        }
      },
      "upgradeTo(address)": {
        "details": "Upgrade the implementation of the proxy to `newImplementation`. Calls {_authorizeUpgrade}. Emits an {Upgraded} event."
      },
      "upgradeToAndCall(address,bytes)": {
        "details": "Upgrade the implementation of the proxy to `newImplementation`, and subsequently execute the function call encoded in `data`. Calls {_authorizeUpgrade}. Emits an {Upgraded} event."
      }
    },
    "title": "DefaultStrategy is responsible for handling any deposit/withdrawal for accounts without any specific strategy.",
    "version": 1
  },
  "userdoc": {
    "errors": {
      "CallerNotManager(address)": [
        {
          "notice": "Used when an `onlyManager` function is called by a non-manager."
        }
      ],
      "CallerNotManagerNorStrategy(address)": [
        {
          "notice": "Used when a `managerOrStrategy` function is called  by a non-manager or non-strategy."
        }
      ],
      "CantWithdrawAccordingToStrategy()": [
        {
          "notice": "Used when there isn't enough CELO voting for an account's strategy to fulfill a withdrawal."
        }
      ],
      "GroupAlreadyAdded(address)": [
        {
          "notice": "Used when attempting to activate a group that is already active."
        }
      ],
      "GroupNotActive(address)": [
        {
          "notice": "Used when attempting to deactivate a group that is not active."
        }
      ],
      "GroupNotEligible(address)": [
        {
          "notice": "Used when a group does not meet the validator group health requirements."
        }
      ],
      "HealthyGroup(address)": [
        {
          "notice": "Used when attempting to deactivate a healthy group using deactivateUnhealthyGroup()."
        }
      ],
      "InvalidFromGroup(address)": [
        {
          "notice": "Used when rebalancing from non-active group."
        }
      ],
      "InvalidToGroup(address)": [
        {
          "notice": "Used when rebalancing to a non-active group."
        }
      ],
      "NoActiveGroups()": [
        {
          "notice": "Used when attempting to deposit when there are no active groups to vote for."
        }
      ],
      "NotAbleToDistributeVotes()": [
        {
          "notice": "Used when atempting to distribute votes but validator group limit is reached."
        }
      ],
      "NotUnsortedGroup()": [
        {
          "notice": "Used when attempting sort active groups when there are no unsorted group."
        }
      ],
      "NullAddress()": [
        {
          "notice": "Used when a passed address is address(0)."
        }
      ],
      "RebalanceEnoughStCelo(address,uint256,uint256)": [
        {
          "notice": "Used when rebalancing and toGroup has enough stCELO."
        }
      ],
      "RebalanceNoExtraStCelo(address,uint256,uint256)": [
        {
          "notice": "Used when rebalancing and fromGroup doesn't have any extra stCELO."
        }
      ]
    },
    "events": {
      "GroupActivated(address)": {
        "notice": "Emitted when a new group is activated for voting."
      },
      "GroupRemoved(address)": {
        "notice": "Emitted when a group is deactivated."
      },
      "ManagerSet(address)": {
        "notice": "Emitted when the manager is initially set or later modified."
      },
      "SortedFlagUpdated(bool)": {
        "notice": "Emmited when sorted status of active groups was changed"
      }
    },
    "kind": "user",
    "methods": {
      "account()": {
        "notice": "An instance of the Account contract for the StakedCelo protocol."
      },
      "activateGroup(address,address,address)": {
        "notice": "Marks a group as votable for default strategy. It is necessary to call `updateGroupHealth` in GroupHealth smart contract first."
      },
      "deactivateGroup(address)": {
        "notice": "Deactivates group."
      },
      "deactivateUnhealthyGroup(address)": {
        "notice": "Deactivates an unhealthy group."
      },
      "generateVoteDistribution(bool,uint256,address)": {
        "notice": "Distributes votes by computing the number of votes each active group should either receive or have withdrawn."
      },
      "getExpectedAndActualStCeloForGroup(address)": {
        "notice": "Returns expected stCELO and actual stCELO for group."
      },
      "getGroupPreviousAndNext(address)": {
        "notice": "Returns previous and next address of key."
      },
      "getGroupsHead()": {
        "notice": "Returns head and previous address of head."
      },
      "getGroupsTail()": {
        "notice": "Returns tail and next address of tail."
      },
      "getNumberOfGroups()": {
        "notice": "Returns the number of active groups."
      },
      "getNumberOfUnsortedGroups()": {
        "notice": "Returns the number of unsorted groups."
      },
      "getUnsortedGroupAt(uint256)": {
        "notice": "Returns the unsorted group at index."
      },
      "getVersionNumber()": {
        "notice": "Returns the storage, major, minor, and patch version of the contract."
      },
      "groupHealth()": {
        "notice": "An instance of the GroupHealth contract for the StakedCelo protocol."
      },
      "initialize(address,address,address)": {
        "notice": "Initialize the contract with registry and owner."
      },
      "isActive(address)": {
        "notice": "Returns whether active groups contain group."
      },
      "maxGroupsToDistributeTo()": {
        "notice": "Maximum number of groups to distribute votes to."
      },
      "maxGroupsToWithdrawFrom()": {
        "notice": "Maximum number of groups to withdraw from."
      },
      "rebalance(address,address)": {
        "notice": "Rebalances CELO between groups that have an incorrect CELO-stCELO ratio. `fromGroup` is required to have more CELO than it should and `toGroup` needs to have less CELO than it should."
      },
      "registry()": {
        "notice": "The Registry."
      },
      "setDependencies(address,address,address)": {
        "notice": "Set this contract's dependencies in the StakedCelo system."
      },
      "setManager(address)": {
        "notice": "Sets the manager address."
      },
      "setSortingParams(uint256,uint256,uint256)": {
        "notice": "Set distribution/withdrawal algorithm parameters."
      },
      "sorted()": {
        "notice": "Whether or not active groups are sorted. If active groups are not sorted it is neccessary to call updateActiveGroupOrder"
      },
      "specificGroupStrategy()": {
        "notice": "An instance of the SpecificGroupStrategy for the StakedCelo protocol."
      },
      "stCeloInGroup(address)": {
        "notice": "stCELO that was cast for default group strategy, strategy => stCELO amount"
      },
      "totalStCeloInStrategy()": {
        "notice": "Total stCELO that was voted with on default strategy."
      },
      "updateActiveGroupOrder(address,address,address)": {
        "notice": "Updates group order of unsorted group. When there are no more unsorted groups it will mark active groups as sorted."
      }
    },
    "version": 1
  },
  "storageLayout": {
    "storage": [
      {
        "astId": 130,
        "contract": "contracts/DefaultStrategy.sol:DefaultStrategy",
        "label": "_initialized",
        "offset": 0,
        "slot": "0",
        "type": "t_bool"
      },
      {
        "astId": 133,
        "contract": "contracts/DefaultStrategy.sol:DefaultStrategy",
        "label": "_initializing",
        "offset": 1,
        "slot": "0",
        "type": "t_bool"
      },
      {
        "astId": 584,
        "contract": "contracts/DefaultStrategy.sol:DefaultStrategy",
        "label": "__gap",
        "offset": 0,
        "slot": "1",
        "type": "t_array(t_uint256)50_storage"
      },
      {
        "astId": 10,
        "contract": "contracts/DefaultStrategy.sol:DefaultStrategy",
        "label": "_owner",
        "offset": 0,
        "slot": "51",
        "type": "t_address"
      },
      {
        "astId": 122,
        "contract": "contracts/DefaultStrategy.sol:DefaultStrategy",
        "label": "__gap",
        "offset": 0,
        "slot": "52",
        "type": "t_array(t_uint256)49_storage"
      },
      {
        "astId": 13491,
        "contract": "contracts/DefaultStrategy.sol:DefaultStrategy",
        "label": "registry",
        "offset": 0,
        "slot": "101",
        "type": "t_contract(IRegistry)16523"
      },
      {
        "astId": 7073,
        "contract": "contracts/DefaultStrategy.sol:DefaultStrategy",
        "label": "manager",
        "offset": 0,
        "slot": "102",
        "type": "t_address"
      },
      {
        "astId": 5119,
        "contract": "contracts/DefaultStrategy.sol:DefaultStrategy",
        "label": "activeGroups",
        "offset": 0,
        "slot": "103",
        "type": "t_struct(List)14813_storage"
      },
      {
        "astId": 5123,
        "contract": "contracts/DefaultStrategy.sol:DefaultStrategy",
        "label": "groupHealth",
        "offset": 0,
        "slot": "108",
        "type": "t_contract(IGroupHealth)16283"
      },
      {
        "astId": 5127,
        "contract": "contracts/DefaultStrategy.sol:DefaultStrategy",
        "label": "account",
        "offset": 0,
        "slot": "109",
        "type": "t_contract(IAccount)15504"
      },
      {
        "astId": 5131,
        "contract": "contracts/DefaultStrategy.sol:DefaultStrategy",
        "label": "specificGroupStrategy",
        "offset": 0,
        "slot": "110",
        "type": "t_contract(ISpecificGroupStrategy)16623"
      },
      {
        "astId": 5136,
        "contract": "contracts/DefaultStrategy.sol:DefaultStrategy",
        "label": "stCeloInGroup",
        "offset": 0,
        "slot": "111",
        "type": "t_mapping(t_address,t_uint256)"
      },
      {
        "astId": 5139,
        "contract": "contracts/DefaultStrategy.sol:DefaultStrategy",
        "label": "maxGroupsToDistributeTo",
        "offset": 0,
        "slot": "112",
        "type": "t_uint256"
      },
      {
        "astId": 5142,
        "contract": "contracts/DefaultStrategy.sol:DefaultStrategy",
        "label": "maxGroupsToWithdrawFrom",
        "offset": 0,
        "slot": "113",
        "type": "t_uint256"
      },
      {
        "astId": 5145,
        "contract": "contracts/DefaultStrategy.sol:DefaultStrategy",
        "label": "totalStCeloInStrategy",
        "offset": 0,
        "slot": "114",
        "type": "t_uint256"
      },
      {
        "astId": 5148,
        "contract": "contracts/DefaultStrategy.sol:DefaultStrategy",
        "label": "sortingLoopLimit",
        "offset": 0,
        "slot": "115",
        "type": "t_uint256"
      },
      {
        "astId": 5151,
        "contract": "contracts/DefaultStrategy.sol:DefaultStrategy",
        "label": "sorted",
        "offset": 0,
        "slot": "116",
        "type": "t_bool"
      },
      {
        "astId": 5155,
        "contract": "contracts/DefaultStrategy.sol:DefaultStrategy",
        "label": "unsortedGroups",
        "offset": 0,
        "slot": "117",
        "type": "t_struct(AddressSet)3257_storage"
      }
    ],
    "types": {
      "t_address": {
        "encoding": "inplace",
        "label": "address",
        "numberOfBytes": "20"
      },
      "t_array(t_bytes32)dyn_storage": {
        "base": "t_bytes32",
        "encoding": "dynamic_array",
        "label": "bytes32[]",
        "numberOfBytes": "32"
      },
      "t_array(t_uint256)49_storage": {
        "base": "t_uint256",
        "encoding": "inplace",
        "label": "uint256[49]",
        "numberOfBytes": "1568"
      },
      "t_array(t_uint256)50_storage": {
        "base": "t_uint256",
        "encoding": "inplace",
        "label": "uint256[50]",
        "numberOfBytes": "1600"
      },
      "t_bool": {
        "encoding": "inplace",
        "label": "bool",
        "numberOfBytes": "1"
      },
      "t_bytes32": {
        "encoding": "inplace",
        "label": "bytes32",
        "numberOfBytes": "32"
      },
      "t_contract(IAccount)15504": {
        "encoding": "inplace",
        "label": "contract IAccount",
        "numberOfBytes": "20"
      },
      "t_contract(IGroupHealth)16283": {
        "encoding": "inplace",
        "label": "contract IGroupHealth",
        "numberOfBytes": "20"
      },
      "t_contract(IRegistry)16523": {
        "encoding": "inplace",
        "label": "contract IRegistry",
        "numberOfBytes": "20"
      },
      "t_contract(ISpecificGroupStrategy)16623": {
        "encoding": "inplace",
        "label": "contract ISpecificGroupStrategy",
        "numberOfBytes": "20"
      },
      "t_mapping(t_address,t_uint256)": {
        "encoding": "mapping",
        "key": "t_address",
        "label": "mapping(address => uint256)",
        "numberOfBytes": "32",
        "value": "t_uint256"
      },
      "t_mapping(t_bytes32,t_struct(Element)14274_storage)": {
        "encoding": "mapping",
        "key": "t_bytes32",
        "label": "mapping(bytes32 => struct LinkedList.Element)",
        "numberOfBytes": "32",
        "value": "t_struct(Element)14274_storage"
      },
      "t_mapping(t_bytes32,t_uint256)": {
        "encoding": "mapping",
        "key": "t_bytes32",
        "label": "mapping(bytes32 => uint256)",
        "numberOfBytes": "32",
        "value": "t_uint256"
      },
      "t_struct(AddressSet)3257_storage": {
        "encoding": "inplace",
        "label": "struct EnumerableSet.AddressSet",
        "members": [
          {
            "astId": 3256,
            "contract": "contracts/DefaultStrategy.sol:DefaultStrategy",
            "label": "_inner",
            "offset": 0,
            "slot": "0",
            "type": "t_struct(Set)2956_storage"
          }
        ],
        "numberOfBytes": "64"
      },
      "t_struct(Element)14274_storage": {
        "encoding": "inplace",
        "label": "struct LinkedList.Element",
        "members": [
          {
            "astId": 14269,
            "contract": "contracts/DefaultStrategy.sol:DefaultStrategy",
            "label": "previousKey",
            "offset": 0,
            "slot": "0",
            "type": "t_bytes32"
          },
          {
            "astId": 14271,
            "contract": "contracts/DefaultStrategy.sol:DefaultStrategy",
            "label": "nextKey",
            "offset": 0,
            "slot": "1",
            "type": "t_bytes32"
          },
          {
            "astId": 14273,
            "contract": "contracts/DefaultStrategy.sol:DefaultStrategy",
            "label": "exists",
            "offset": 0,
            "slot": "2",
            "type": "t_bool"
          }
        ],
        "numberOfBytes": "96"
      },
      "t_struct(List)14286_storage": {
        "encoding": "inplace",
        "label": "struct LinkedList.List",
        "members": [
          {
            "astId": 14276,
            "contract": "contracts/DefaultStrategy.sol:DefaultStrategy",
            "label": "head",
            "offset": 0,
            "slot": "0",
            "type": "t_bytes32"
          },
          {
            "astId": 14278,
            "contract": "contracts/DefaultStrategy.sol:DefaultStrategy",
            "label": "tail",
            "offset": 0,
            "slot": "1",
            "type": "t_bytes32"
          },
          {
            "astId": 14280,
            "contract": "contracts/DefaultStrategy.sol:DefaultStrategy",
            "label": "numElements",
            "offset": 0,
            "slot": "2",
            "type": "t_uint256"
          },
          {
            "astId": 14285,
            "contract": "contracts/DefaultStrategy.sol:DefaultStrategy",
            "label": "elements",
            "offset": 0,
            "slot": "3",
            "type": "t_mapping(t_bytes32,t_struct(Element)14274_storage)"
          }
        ],
        "numberOfBytes": "128"
      },
      "t_struct(List)14813_storage": {
        "encoding": "inplace",
        "label": "struct SortedLinkedList.List",
        "members": [
          {
            "astId": 14808,
            "contract": "contracts/DefaultStrategy.sol:DefaultStrategy",
            "label": "list",
            "offset": 0,
            "slot": "0",
            "type": "t_struct(List)14286_storage"
          },
          {
            "astId": 14812,
            "contract": "contracts/DefaultStrategy.sol:DefaultStrategy",
            "label": "values",
            "offset": 0,
            "slot": "4",
            "type": "t_mapping(t_bytes32,t_uint256)"
          }
        ],
        "numberOfBytes": "160"
      },
      "t_struct(Set)2956_storage": {
        "encoding": "inplace",
        "label": "struct EnumerableSet.Set",
        "members": [
          {
            "astId": 2951,
            "contract": "contracts/DefaultStrategy.sol:DefaultStrategy",
            "label": "_values",
            "offset": 0,
            "slot": "0",
            "type": "t_array(t_bytes32)dyn_storage"
          },
          {
            "astId": 2955,
            "contract": "contracts/DefaultStrategy.sol:DefaultStrategy",
            "label": "_indexes",
            "offset": 0,
            "slot": "1",
            "type": "t_mapping(t_bytes32,t_uint256)"
          }
        ],
        "numberOfBytes": "64"
      },
      "t_uint256": {
        "encoding": "inplace",
        "label": "uint256",
        "numberOfBytes": "32"
      }
    }
  }
}