{
  "address": "0x677b093fDC2dEd8E081E7c2029913813E259a87B",
  "abi": [
    {
      "inputs": [],
      "name": "AddressZeroNotAllowed",
      "type": "error"
    },
    {
      "inputs": [
        {
          "internalType": "address",
          "name": "group",
          "type": "address"
        }
      ],
      "name": "GroupHealthy",
      "type": "error"
    },
    {
      "inputs": [],
      "name": "MembersLengthMismatch",
      "type": "error"
    },
    {
      "inputs": [
        {
          "internalType": "address",
          "name": "group",
          "type": "address"
        }
      ],
      "name": "ValidatorGroupAlreadyUpdatedInEpoch",
      "type": "error"
    },
    {
      "anonymous": false,
      "inputs": [
        {
          "indexed": false,
          "internalType": "address",
          "name": "previousAdmin",
          "type": "address"
        },
        {
          "indexed": false,
          "internalType": "address",
          "name": "newAdmin",
          "type": "address"
        }
      ],
      "name": "AdminChanged",
      "type": "event"
    },
    {
      "anonymous": false,
      "inputs": [
        {
          "indexed": true,
          "internalType": "address",
          "name": "beacon",
          "type": "address"
        }
      ],
      "name": "BeaconUpgraded",
      "type": "event"
    },
    {
      "anonymous": false,
      "inputs": [
        {
          "indexed": false,
          "internalType": "address",
          "name": "group",
          "type": "address"
        },
        {
          "indexed": false,
          "internalType": "bool",
          "name": "healthy",
          "type": "bool"
        }
      ],
      "name": "GroupHealthUpdated",
      "type": "event"
    },
    {
      "anonymous": false,
      "inputs": [
        {
          "indexed": true,
          "internalType": "address",
          "name": "previousOwner",
          "type": "address"
        },
        {
          "indexed": true,
          "internalType": "address",
          "name": "newOwner",
          "type": "address"
        }
      ],
      "name": "OwnershipTransferred",
      "type": "event"
    },
    {
      "anonymous": false,
      "inputs": [
        {
          "indexed": true,
          "internalType": "address",
          "name": "implementation",
          "type": "address"
        }
      ],
      "name": "Upgraded",
      "type": "event"
    },
    {
      "inputs": [],
      "name": "getVersionNumber",
      "outputs": [
        {
          "internalType": "uint256",
          "name": "",
          "type": "uint256"
        },
        {
          "internalType": "uint256",
          "name": "",
          "type": "uint256"
        },
        {
          "internalType": "uint256",
          "name": "",
          "type": "uint256"
        },
        {
          "internalType": "uint256",
          "name": "",
          "type": "uint256"
        }
      ],
      "stateMutability": "pure",
      "type": "function"
    },
    {
      "inputs": [
        {
          "internalType": "address",
          "name": "_registry",
          "type": "address"
        },
        {
          "internalType": "address",
          "name": "_owner",
          "type": "address"
        }
      ],
      "name": "initialize",
      "outputs": [],
      "stateMutability": "nonpayable",
      "type": "function"
    },
    {
      "inputs": [
        {
          "internalType": "address",
          "name": "",
          "type": "address"
        }
      ],
      "name": "isGroupValid",
      "outputs": [
        {
          "internalType": "bool",
          "name": "",
          "type": "bool"
        }
      ],
      "stateMutability": "view",
      "type": "function"
    },
    {
      "inputs": [
        {
          "internalType": "address",
          "name": "group",
          "type": "address"
        },
        {
          "internalType": "uint256[]",
          "name": "membersElectedIndex",
          "type": "uint256[]"
        }
      ],
      "name": "markGroupHealthy",
      "outputs": [
        {
          "internalType": "bool",
          "name": "",
          "type": "bool"
        }
      ],
      "stateMutability": "nonpayable",
      "type": "function"
    },
    {
      "inputs": [],
      "name": "owner",
      "outputs": [
        {
          "internalType": "address",
          "name": "",
          "type": "address"
        }
      ],
      "stateMutability": "view",
      "type": "function"
    },
    {
      "inputs": [],
      "name": "registry",
      "outputs": [
        {
          "internalType": "contract IRegistry",
          "name": "",
          "type": "address"
        }
      ],
      "stateMutability": "view",
      "type": "function"
    },
    {
      "inputs": [],
      "name": "renounceOwnership",
      "outputs": [],
      "stateMutability": "nonpayable",
      "type": "function"
    },
    {
      "inputs": [
        {
          "internalType": "address",
          "name": "newOwner",
          "type": "address"
        }
      ],
      "name": "transferOwnership",
      "outputs": [],
      "stateMutability": "nonpayable",
      "type": "function"
    },
    {
      "inputs": [
        {
          "internalType": "address",
          "name": "group",
          "type": "address"
        }
      ],
      "name": "updateGroupHealth",
      "outputs": [
        {
          "internalType": "bool",
          "name": "",
          "type": "bool"
        }
      ],
      "stateMutability": "nonpayable",
      "type": "function"
    },
    {
      "inputs": [
        {
          "internalType": "address",
          "name": "newImplementation",
          "type": "address"
        }
      ],
      "name": "upgradeTo",
      "outputs": [],
      "stateMutability": "nonpayable",
      "type": "function"
    },
    {
      "inputs": [
        {
          "internalType": "address",
          "name": "newImplementation",
          "type": "address"
        },
        {
          "internalType": "bytes",
          "name": "data",
          "type": "bytes"
        }
      ],
      "name": "upgradeToAndCall",
      "outputs": [],
      "stateMutability": "payable",
      "type": "function"
    }
  ],
  "transactionHash": "0xa7dbad045113939dc3db6cac3b64c1fa2f7d47ba404358b58ef0ea1e0d136cd7",
  "args": [],
  "numDeployments": 1,
  "solcInputHash": "f051a28401f992e504f883b8bfc781d0",
  "bytecode": "0x60a06040523073ffffffffffffffffffffffffffffffffffffffff1660809073ffffffffffffffffffffffffffffffffffffffff1681525034801561004357600080fd5b50608051612bac6100746000396000818161028c0152818161031b0152818161050d015261059c0152612bac6000f3fe60806040526004361061009c5760003560e01c80637b103999116100645780637b103999146101545780638da5cb5b1461017f578063ab80c89f146101aa578063ac8f4425146101e7578063d1d36d3314610224578063f2fde38b146102615761009c565b80633659cfe6146100a1578063485cc955146100ca5780634f1ef286146100f357806354255be01461010f578063715018a61461013d575b600080fd5b3480156100ad57600080fd5b506100c860048036038101906100c39190611c04565b61028a565b005b3480156100d657600080fd5b506100f160048036038101906100ec9190611c31565b610413565b005b61010d60048036038101906101089190611db7565b61050b565b005b34801561011b57600080fd5b50610124610648565b6040516101349493929190611e2c565b60405180910390f35b34801561014957600080fd5b50610152610662565b005b34801561016057600080fd5b506101696106ea565b6040516101769190611ed0565b60405180910390f35b34801561018b57600080fd5b50610194610710565b6040516101a19190611efa565b60405180910390f35b3480156101b657600080fd5b506101d160048036038101906101cc9190611c04565b61073a565b6040516101de9190611f30565b60405180910390f35b3480156101f357600080fd5b5061020e60048036038101906102099190611c04565b6108aa565b60405161021b9190611f30565b60405180910390f35b34801561023057600080fd5b5061024b60048036038101906102469190611fab565b6108ca565b6040516102589190611f30565b60405180910390f35b34801561026d57600080fd5b5061028860048036038101906102839190611c04565b610b7e565b005b7f000000000000000000000000000000000000000000000000000000000000000073ffffffffffffffffffffffffffffffffffffffff163073ffffffffffffffffffffffffffffffffffffffff161415610319576040517f08c379a00000000000000000000000000000000000000000000000000000000081526004016103109061208e565b60405180910390fd5b7f000000000000000000000000000000000000000000000000000000000000000073ffffffffffffffffffffffffffffffffffffffff16610358610c76565b73ffffffffffffffffffffffffffffffffffffffff16146103ae576040517f08c379a00000000000000000000000000000000000000000000000000000000081526004016103a590612120565b60405180910390fd5b6103b781610ccd565b61041081600067ffffffffffffffff8111156103d6576103d5611c8c565b5b6040519080825280601f01601f1916602001820160405280156104085781602001600182028036833780820191505090505b506000610d4c565b50565b600060019054906101000a900460ff1661043b5760008054906101000a900460ff1615610444565b610443610f1d565b5b610483576040517f08c379a000000000000000000000000000000000000000000000000000000000815260040161047a906121b2565b60405180910390fd5b60008060019054906101000a900460ff1615905080156104d3576001600060016101000a81548160ff02191690831515021790555060016000806101000a81548160ff0219169083151502179055505b6104dc82610f2e565b6104e583610ff4565b80156105065760008060016101000a81548160ff0219169083151502179055505b505050565b7f000000000000000000000000000000000000000000000000000000000000000073ffffffffffffffffffffffffffffffffffffffff163073ffffffffffffffffffffffffffffffffffffffff16141561059a576040517f08c379a00000000000000000000000000000000000000000000000000000000081526004016105919061208e565b60405180910390fd5b7f000000000000000000000000000000000000000000000000000000000000000073ffffffffffffffffffffffffffffffffffffffff166105d9610c76565b73ffffffffffffffffffffffffffffffffffffffff161461062f576040517f08c379a000000000000000000000000000000000000000000000000000000000815260040161062690612120565b60405180910390fd5b61063882610ccd565b61064482826001610d4c565b5050565b600080600080600180600080935093509350935090919293565b61066a611105565b73ffffffffffffffffffffffffffffffffffffffff16610688610710565b73ffffffffffffffffffffffffffffffffffffffff16146106de576040517f08c379a00000000000000000000000000000000000000000000000000000000081526004016106d59061221e565b60405180910390fd5b6106e86000610f2e565b565b606560009054906101000a900473ffffffffffffffffffffffffffffffffffffffff1681565b6000603360009054906101000a900473ffffffffffffffffffffffffffffffffffffffff16905090565b60008061074561110d565b905060008061075483866111d4565b91509150811561080b57610767816114ee565b1561080a576001606660008773ffffffffffffffffffffffffffffffffffffffff1673ffffffffffffffffffffffffffffffffffffffff16815260200190815260200160002060006101000a81548160ff0219169083151502179055507faf5c4c2ab440a2f535091c2b12e69b4e83bb351ba27a46c77aa7cf85fbdfde7e8560016040516107f692919061223e565b60405180910390a1600193505050506108a5565b5b6000606660008773ffffffffffffffffffffffffffffffffffffffff1673ffffffffffffffffffffffffffffffffffffffff16815260200190815260200160002060006101000a81548160ff0219169083151502179055507faf5c4c2ab440a2f535091c2b12e69b4e83bb351ba27a46c77aa7cf85fbdfde7e85600060405161089592919061223e565b60405180910390a1600093505050505b919050565b60666020528060005260406000206000915054906101000a900460ff1681565b600060011515606660008673ffffffffffffffffffffffffffffffffffffffff1673ffffffffffffffffffffffffffffffffffffffff16815260200190815260200160002060009054906101000a900460ff161515141561096257836040517f5e5e76170000000000000000000000000000000000000000000000000000000081526004016109599190611efa565b60405180910390fd5b600061096c61110d565b905060008061097b83886111d4565b91509150816109905760009350505050610b77565b805186869050146109cd576040517f738ca2d100000000000000000000000000000000000000000000000000000000815260040160405180910390fd5b60006109d76116bd565b905060005b8251811015610adb57610a238382815181106109fb576109fa612267565b5b6020026020010151898984818110610a1657610a15612267565b5b905060200201358461173a565b15610ac8576001606660008b73ffffffffffffffffffffffffffffffffffffffff1673ffffffffffffffffffffffffffffffffffffffff16815260200190815260200160002060006101000a81548160ff0219169083151502179055507faf5c4c2ab440a2f535091c2b12e69b4e83bb351ba27a46c77aa7cf85fbdfde7e896001604051610ab292919061223e565b60405180910390a1600195505050505050610b77565b8080610ad3906122c5565b9150506109dc565b506000606660008a73ffffffffffffffffffffffffffffffffffffffff1673ffffffffffffffffffffffffffffffffffffffff16815260200190815260200160002060006101000a81548160ff0219169083151502179055507faf5c4c2ab440a2f535091c2b12e69b4e83bb351ba27a46c77aa7cf85fbdfde7e886000604051610b6692919061223e565b60405180910390a160009450505050505b9392505050565b610b86611105565b73ffffffffffffffffffffffffffffffffffffffff16610ba4610710565b73ffffffffffffffffffffffffffffffffffffffff1614610bfa576040517f08c379a0000000000000000000000000000000000000000000000000000000008152600401610bf19061221e565b60405180910390fd5b600073ffffffffffffffffffffffffffffffffffffffff168173ffffffffffffffffffffffffffffffffffffffff161415610c6a576040517f08c379a0000000000000000000000000000000000000000000000000000000008152600401610c6190612380565b60405180910390fd5b610c7381610f2e565b50565b6000610ca47f360894a13ba1a3210667c828492db98dca3e2076cc3735a920a3ca505d382bbc60001b61178e565b60000160009054906101000a900473ffffffffffffffffffffffffffffffffffffffff16905090565b610cd5611105565b73ffffffffffffffffffffffffffffffffffffffff16610cf3610710565b73ffffffffffffffffffffffffffffffffffffffff1614610d49576040517f08c379a0000000000000000000000000000000000000000000000000000000008152600401610d409061221e565b60405180910390fd5b50565b6000610d56610c76565b9050610d6184611798565b600083511180610d6e5750815b15610d7f57610d7d8484611851565b505b6000610dad7f4910fdfa16fed3260ed0e7147f7cc6da11a60208b5b9406d12a635614ffd914360001b61187e565b90508060000160009054906101000a900460ff16610f165760018160000160006101000a81548160ff021916908315150217905550610e798583604051602401610df79190611efa565b6040516020818303038152906040527f3659cfe6000000000000000000000000000000000000000000000000000000007bffffffffffffffffffffffffffffffffffffffffffffffffffffffff19166020820180517bffffffffffffffffffffffffffffffffffffffffffffffffffffffff8381831617835250505050611851565b5060008160000160006101000a81548160ff021916908315150217905550610e9f610c76565b73ffffffffffffffffffffffffffffffffffffffff168273ffffffffffffffffffffffffffffffffffffffff1614610f0c576040517f08c379a0000000000000000000000000000000000000000000000000000000008152600401610f0390612412565b60405180910390fd5b610f1585611888565b5b5050505050565b6000610f28306118d7565b15905090565b6000603360009054906101000a900473ffffffffffffffffffffffffffffffffffffffff16905081603360006101000a81548173ffffffffffffffffffffffffffffffffffffffff021916908373ffffffffffffffffffffffffffffffffffffffff1602179055508173ffffffffffffffffffffffffffffffffffffffff168173ffffffffffffffffffffffffffffffffffffffff167f8be0079c531659141344cd1fd0a4f28419497f9722a3daafe3b4186f6b6457e060405160405180910390a35050565b600060019054906101000a900460ff16611043576040517f08c379a000000000000000000000000000000000000000000000000000000000815260040161103a906124a4565b60405180910390fd5b600073ffffffffffffffffffffffffffffffffffffffff168173ffffffffffffffffffffffffffffffffffffffff1614156110c05761ce10606560006101000a81548173ffffffffffffffffffffffffffffffffffffffff021916908373ffffffffffffffffffffffffffffffffffffffff160217905550611102565b80606560006101000a81548173ffffffffffffffffffffffffffffffffffffffff021916908373ffffffffffffffffffffffffffffffffffffffff1602179055505b50565b600033905090565b6000606560009054906101000a900473ffffffffffffffffffffffffffffffffffffffff1673ffffffffffffffffffffffffffffffffffffffff1663dcf0aaed60405160200161115c9061251b565b604051602081830303815290604052805190602001206040518263ffffffff1660e01b815260040161118e9190612549565b602060405180830381865afa1580156111ab573d6000803e3d6000fd5b505050506040513d601f19601f820116820180604052508101906111cf9190612579565b905090565b600060608373ffffffffffffffffffffffffffffffffffffffff166352f13a4e846040518263ffffffff1660e01b81526004016112119190611efa565b602060405180830381865afa15801561122e573d6000803e3d6000fd5b505050506040513d601f19601f8201168201806040525081019061125291906125d2565b6112f1576000606660008573ffffffffffffffffffffffffffffffffffffffff1673ffffffffffffffffffffffffffffffffffffffff16815260200190815260200160002060006101000a81548160ff0219169083151502179055507faf5c4c2ab440a2f535091c2b12e69b4e83bb351ba27a46c77aa7cf85fbdfde7e8360006040516112e092919061223e565b60405180910390a1600091506114e7565b60008473ffffffffffffffffffffffffffffffffffffffff16639b9d5161856040518263ffffffff1660e01b815260040161132c9190611efa565b600060405180830381865afa158015611349573d6000803e3d6000fd5b505050506040513d6000823e3d601f19601f8201168201806040525081019061137291906127b1565b909192939450909192935090919250909150508092508193505050600082511415611433576000606660008673ffffffffffffffffffffffffffffffffffffffff1673ffffffffffffffffffffffffffffffffffffffff16815260200190815260200160002060006101000a81548160ff0219169083151502179055507faf5c4c2ab440a2f535091c2b12e69b4e83bb351ba27a46c77aa7cf85fbdfde7e84600060405161142192919061223e565b60405180910390a160009250506114e7565b69d3c21bcecceda10000008110156114e1576000606660008673ffffffffffffffffffffffffffffffffffffffff1673ffffffffffffffffffffffffffffffffffffffff16815260200190815260200160002060006101000a81548160ff0219169083151502179055507faf5c4c2ab440a2f535091c2b12e69b4e83bb351ba27a46c77aa7cf85fbdfde7e8460006040516114cf92919061223e565b60405180910390a160009250506114e7565b60019250505b9250929050565b600080600090505b82518110156115845760016067600085848151811061151857611517612267565b5b602002602001015173ffffffffffffffffffffffffffffffffffffffff1673ffffffffffffffffffffffffffffffffffffffff16815260200190815260200160002060006101000a81548160ff021916908315150217905550808061157c906122c5565b9150506114f6565b5060008060006115926116bd565b905060005b8181101561161f576115a8816118fa565b925060011515606760008573ffffffffffffffffffffffffffffffffffffffff1673ffffffffffffffffffffffffffffffffffffffff16815260200190815260200160002060009054906101000a900460ff161515141561160c576001935061161f565b8080611617906122c5565b915050611597565b5060005b85518110156116b15760006067600088848151811061164557611644612267565b5b602002602001015173ffffffffffffffffffffffffffffffffffffffff1673ffffffffffffffffffffffffffffffffffffffff16815260200190815260200160002060006101000a81548160ff02191690831515021790555080806116a9906122c5565b915050611623565b50829350505050919050565b60006116c7611984565b73ffffffffffffffffffffffffffffffffffffffff166387ee8a0f6040518163ffffffff1660e01b8152600401602060405180830381865afa158015611711573d6000803e3d6000fd5b505050506040513d601f19601f82011682018060405250810190611735919061288b565b905090565b60008183111561174d5760009050611787565b8373ffffffffffffffffffffffffffffffffffffffff1661176d846118fa565b73ffffffffffffffffffffffffffffffffffffffff161490505b9392505050565b6000819050919050565b6117a181611a4b565b6117e0576040517f08c379a00000000000000000000000000000000000000000000000000000000081526004016117d79061292a565b60405180910390fd5b8061180d7f360894a13ba1a3210667c828492db98dca3e2076cc3735a920a3ca505d382bbc60001b61178e565b60000160006101000a81548173ffffffffffffffffffffffffffffffffffffffff021916908373ffffffffffffffffffffffffffffffffffffffff16021790555050565b60606118768383604051806060016040528060278152602001612b5060279139611a5e565b905092915050565b6000819050919050565b61189181611798565b8073ffffffffffffffffffffffffffffffffffffffff167fbc7cd75a20ee27fd9adebab32041f755214dbc6bffa90cc0225b39da2e5c2d3b60405160405180910390a250565b6000808273ffffffffffffffffffffffffffffffffffffffff163b119050919050565b6000611904611984565b73ffffffffffffffffffffffffffffffffffffffff1663123633ea836040518263ffffffff1660e01b815260040161193c919061294a565b602060405180830381865afa158015611959573d6000803e3d6000fd5b505050506040513d601f19601f8201168201806040525081019061197d9190612579565b9050919050565b6000606560009054906101000a900473ffffffffffffffffffffffffffffffffffffffff1673ffffffffffffffffffffffffffffffffffffffff1663dcf0aaed6040516020016119d3906129b1565b604051602081830303815290604052805190602001206040518263ffffffff1660e01b8152600401611a059190612549565b602060405180830381865afa158015611a22573d6000803e3d6000fd5b505050506040513d601f19601f82011682018060405250810190611a469190612579565b905090565b600080823b905060008111915050919050565b6060611a6984611a4b565b611aa8576040517f08c379a0000000000000000000000000000000000000000000000000000000008152600401611a9f90612a38565b60405180910390fd5b6000808573ffffffffffffffffffffffffffffffffffffffff1685604051611ad09190612ad2565b600060405180830381855af49150503d8060008114611b0b576040519150601f19603f3d011682016040523d82523d6000602084013e611b10565b606091505b5091509150611b20828286611b2b565b925050509392505050565b60608315611b3b57829050611b8b565b600083511115611b4e5782518084602001fd5b816040517f08c379a0000000000000000000000000000000000000000000000000000000008152600401611b829190612b2d565b60405180910390fd5b9392505050565b6000604051905090565b600080fd5b600080fd5b600073ffffffffffffffffffffffffffffffffffffffff82169050919050565b6000611bd182611ba6565b9050919050565b611be181611bc6565b8114611bec57600080fd5b50565b600081359050611bfe81611bd8565b92915050565b600060208284031215611c1a57611c19611b9c565b5b6000611c2884828501611bef565b91505092915050565b60008060408385031215611c4857611c47611b9c565b5b6000611c5685828601611bef565b9250506020611c6785828601611bef565b9150509250929050565b600080fd5b600080fd5b6000601f19601f8301169050919050565b7f4e487b7100000000000000000000000000000000000000000000000000000000600052604160045260246000fd5b611cc482611c7b565b810181811067ffffffffffffffff82111715611ce357611ce2611c8c565b5b80604052505050565b6000611cf6611b92565b9050611d028282611cbb565b919050565b600067ffffffffffffffff821115611d2257611d21611c8c565b5b611d2b82611c7b565b9050602081019050919050565b82818337600083830152505050565b6000611d5a611d5584611d07565b611cec565b905082815260208101848484011115611d7657611d75611c76565b5b611d81848285611d38565b509392505050565b600082601f830112611d9e57611d9d611c71565b5b8135611dae848260208601611d47565b91505092915050565b60008060408385031215611dce57611dcd611b9c565b5b6000611ddc85828601611bef565b925050602083013567ffffffffffffffff811115611dfd57611dfc611ba1565b5b611e0985828601611d89565b9150509250929050565b6000819050919050565b611e2681611e13565b82525050565b6000608082019050611e416000830187611e1d565b611e4e6020830186611e1d565b611e5b6040830185611e1d565b611e686060830184611e1d565b95945050505050565b6000819050919050565b6000611e96611e91611e8c84611ba6565b611e71565b611ba6565b9050919050565b6000611ea882611e7b565b9050919050565b6000611eba82611e9d565b9050919050565b611eca81611eaf565b82525050565b6000602082019050611ee56000830184611ec1565b92915050565b611ef481611bc6565b82525050565b6000602082019050611f0f6000830184611eeb565b92915050565b60008115159050919050565b611f2a81611f15565b82525050565b6000602082019050611f456000830184611f21565b92915050565b600080fd5b600080fd5b60008083601f840112611f6b57611f6a611c71565b5b8235905067ffffffffffffffff811115611f8857611f87611f4b565b5b602083019150836020820283011115611fa457611fa3611f50565b5b9250929050565b600080600060408486031215611fc457611fc3611b9c565b5b6000611fd286828701611bef565b935050602084013567ffffffffffffffff811115611ff357611ff2611ba1565b5b611fff86828701611f55565b92509250509250925092565b600082825260208201905092915050565b7f46756e6374696f6e206d7573742062652063616c6c6564207468726f7567682060008201527f64656c656761746563616c6c0000000000000000000000000000000000000000602082015250565b6000612078602c8361200b565b91506120838261201c565b604082019050919050565b600060208201905081810360008301526120a78161206b565b9050919050565b7f46756e6374696f6e206d7573742062652063616c6c6564207468726f7567682060008201527f6163746976652070726f78790000000000000000000000000000000000000000602082015250565b600061210a602c8361200b565b9150612115826120ae565b604082019050919050565b60006020820190508181036000830152612139816120fd565b9050919050565b7f496e697469616c697a61626c653a20636f6e747261637420697320616c72656160008201527f647920696e697469616c697a6564000000000000000000000000000000000000602082015250565b600061219c602e8361200b565b91506121a782612140565b604082019050919050565b600060208201905081810360008301526121cb8161218f565b9050919050565b7f4f776e61626c653a2063616c6c6572206973206e6f7420746865206f776e6572600082015250565b600061220860208361200b565b9150612213826121d2565b602082019050919050565b60006020820190508181036000830152612237816121fb565b9050919050565b60006040820190506122536000830185611eeb565b6122606020830184611f21565b9392505050565b7f4e487b7100000000000000000000000000000000000000000000000000000000600052603260045260246000fd5b7f4e487b7100000000000000000000000000000000000000000000000000000000600052601160045260246000fd5b60006122d082611e13565b91507fffffffffffffffffffffffffffffffffffffffffffffffffffffffffffffffff82141561230357612302612296565b5b600182019050919050565b7f4f776e61626c653a206e6577206f776e657220697320746865207a65726f206160008201527f6464726573730000000000000000000000000000000000000000000000000000602082015250565b600061236a60268361200b565b91506123758261230e565b604082019050919050565b600060208201905081810360008301526123998161235d565b9050919050565b7f45524331393637557067726164653a207570677261646520627265616b73206660008201527f7572746865722075706772616465730000000000000000000000000000000000602082015250565b60006123fc602f8361200b565b9150612407826123a0565b604082019050919050565b6000602082019050818103600083015261242b816123ef565b9050919050565b7f496e697469616c697a61626c653a20636f6e7472616374206973206e6f74206960008201527f6e697469616c697a696e67000000000000000000000000000000000000000000602082015250565b600061248e602b8361200b565b915061249982612432565b604082019050919050565b600060208201905081810360008301526124bd81612481565b9050919050565b600081905092915050565b7f56616c696461746f727300000000000000000000000000000000000000000000600082015250565b6000612505600a836124c4565b9150612510826124cf565b600a82019050919050565b6000612526826124f8565b9150819050919050565b6000819050919050565b61254381612530565b82525050565b600060208201905061255e600083018461253a565b92915050565b60008151905061257381611bd8565b92915050565b60006020828403121561258f5761258e611b9c565b5b600061259d84828501612564565b91505092915050565b6125af81611f15565b81146125ba57600080fd5b50565b6000815190506125cc816125a6565b92915050565b6000602082840312156125e8576125e7611b9c565b5b60006125f6848285016125bd565b91505092915050565b600067ffffffffffffffff82111561261a57612619611c8c565b5b602082029050602081019050919050565b600061263e612639846125ff565b611cec565b9050808382526020820190506020840283018581111561266157612660611f50565b5b835b8181101561268a57806126768882612564565b845260208401935050602081019050612663565b5050509392505050565b600082601f8301126126a9576126a8611c71565b5b81516126b984826020860161262b565b91505092915050565b6126cb81611e13565b81146126d657600080fd5b50565b6000815190506126e8816126c2565b92915050565b600067ffffffffffffffff82111561270957612708611c8c565b5b602082029050602081019050919050565b600061272d612728846126ee565b611cec565b905080838252602082019050602084028301858111156127505761274f611f50565b5b835b81811015612779578061276588826126d9565b845260208401935050602081019050612752565b5050509392505050565b600082601f83011261279857612797611c71565b5b81516127a884826020860161271a565b91505092915050565b600080600080600080600060e0888a0312156127d0576127cf611b9c565b5b600088015167ffffffffffffffff8111156127ee576127ed611ba1565b5b6127fa8a828b01612694565b975050602061280b8a828b016126d9565b965050604061281c8a828b016126d9565b955050606061282d8a828b016126d9565b945050608088015167ffffffffffffffff81111561284e5761284d611ba1565b5b61285a8a828b01612783565b93505060a061286b8a828b016126d9565b92505060c061287c8a828b016126d9565b91505092959891949750929550565b6000602082840312156128a1576128a0611b9c565b5b60006128af848285016126d9565b91505092915050565b7f455243313936373a206e657720696d706c656d656e746174696f6e206973206e60008201527f6f74206120636f6e747261637400000000000000000000000000000000000000602082015250565b6000612914602d8361200b565b915061291f826128b8565b604082019050919050565b6000602082019050818103600083015261294381612907565b9050919050565b600060208201905061295f6000830184611e1d565b92915050565b7f456c656374696f6e000000000000000000000000000000000000000000000000600082015250565b600061299b6008836124c4565b91506129a682612965565b600882019050919050565b60006129bc8261298e565b9150819050919050565b7f416464726573733a2064656c65676174652063616c6c20746f206e6f6e2d636f60008201527f6e74726163740000000000000000000000000000000000000000000000000000602082015250565b6000612a2260268361200b565b9150612a2d826129c6565b604082019050919050565b60006020820190508181036000830152612a5181612a15565b9050919050565b600081519050919050565b600081905092915050565b60005b83811015612a8c578082015181840152602081019050612a71565b83811115612a9b576000848401525b50505050565b6000612aac82612a58565b612ab68185612a63565b9350612ac6818560208601612a6e565b80840191505092915050565b6000612ade8284612aa1565b915081905092915050565b600081519050919050565b6000612aff82612ae9565b612b09818561200b565b9350612b19818560208601612a6e565b612b2281611c7b565b840191505092915050565b60006020820190508181036000830152612b478184612af4565b90509291505056fe416464726573733a206c6f772d6c6576656c2064656c65676174652063616c6c206661696c6564a2646970667358221220270e4b67f302a5a94c89dabc90727361103278280e36ca0a9c5d03c15f3f2ecd64736f6c634300080b0033",
  "devdoc": {
    "errors": {
      "GroupHealthy(address)": [
        {
          "params": {
            "group": "The group's address."
          }
        }
      ],
      "ValidatorGroupAlreadyUpdatedInEpoch(address)": [
        {
          "params": {
            "group": "The group's address."
          }
        }
      ]
    },
    "events": {
      "GroupHealthUpdated(address,bool)": {
        "params": {
          "group": "The group that is being updated.",
          "healthy": "Whether or not group is healthy."
        }
      }
    },
    "kind": "dev",
    "methods": {
      "getVersionNumber()": {
        "returns": {
          "_0": "Storage version of the contract.",
          "_1": "Major version of the contract.",
          "_2": "Minor version of the contract.",
          "_3": "Patch version of the contract."
        }
      },
      "initialize(address,address)": {
        "params": {
          "_owner": "The address of the contract owner.",
          "_registry": "The address of the CELO Registry."
        }
      },
      "markGroupHealthy(address,uint256[])": {
        "params": {
          "group": "The group to check for.",
          "membersElectedIndex": "The indexes of elected members. This array needs to have same length as all (even not elected) members of validator group. Index of not elected member can be any uint256 number."
        },
        "returns": {
          "_0": "Whether or not the group is valid."
        }
      },
      "owner()": {
        "details": "Returns the address of the current owner."
      },
      "renounceOwnership()": {
        "details": "Leaves the contract without owner. It will not be possible to call `onlyOwner` functions anymore. Can only be called by the current owner. NOTE: Renouncing ownership will leave the contract without an owner, thereby removing any functionality that is only available to the owner."
      },
      "transferOwnership(address)": {
        "details": "Transfers ownership of the contract to a new account (`newOwner`). Can only be called by the current owner."
      },
      "updateGroupHealth(address)": {
        "params": {
          "group": "The group to check for."
        },
        "returns": {
          "_0": "Whether or not the group is valid."
        }
      },
      "upgradeTo(address)": {
        "details": "Upgrade the implementation of the proxy to `newImplementation`. Calls {_authorizeUpgrade}. Emits an {Upgraded} event."
      },
      "upgradeToAndCall(address,bytes)": {
        "details": "Upgrade the implementation of the proxy to `newImplementation`, and subsequently execute the function call encoded in `data`. Calls {_authorizeUpgrade}. Emits an {Upgraded} event."
      }
    },
    "title": "GroupHealth stores and updates info about validator group health.",
    "version": 1
  },
  "userdoc": {
    "errors": {
      "AddressZeroNotAllowed()": [
        {
          "notice": "Used when attempting to pass in address zero where not allowed."
        }
      ],
      "GroupHealthy(address)": [
        {
          "notice": "Used when calling `markGroupHealthy` on already healthy group."
        }
      ],
      "MembersLengthMismatch()": [
        {
          "notice": "Used when checking elected validator group members but there is member length and indexes length mismatch."
        }
      ],
      "ValidatorGroupAlreadyUpdatedInEpoch(address)": [
        {
          "notice": "Used when updating validator group health more than once in epoch."
        }
      ]
    },
    "events": {
      "GroupHealthUpdated(address,bool)": {
        "notice": "Emitted when `updateGroupHealth` called."
      }
    },
    "kind": "user",
    "methods": {
      "getVersionNumber()": {
        "notice": "Returns the storage, major, minor, and patch version of the contract."
      },
      "initialize(address,address)": {
        "notice": "Initialize the contract with registry and owner."
      },
      "isGroupValid(address)": {
        "notice": "Mapping that stores health state of groups."
      },
      "markGroupHealthy(address,uint256[])": {
        "notice": "Updates validator group to healthy if eligible."
      },
      "registry()": {
        "notice": "The Registry."
      },
      "updateGroupHealth(address)": {
        "notice": "Updates validator group health."
      }
    },
    "version": 1
  },
  "storageLayout": {
    "storage": [
      {
        "astId": 130,
        "contract": "contracts/GroupHealth.sol:GroupHealth",
        "label": "_initialized",
        "offset": 0,
        "slot": "0",
        "type": "t_bool"
      },
      {
        "astId": 133,
        "contract": "contracts/GroupHealth.sol:GroupHealth",
        "label": "_initializing",
        "offset": 1,
        "slot": "0",
        "type": "t_bool"
      },
      {
        "astId": 584,
        "contract": "contracts/GroupHealth.sol:GroupHealth",
        "label": "__gap",
        "offset": 0,
        "slot": "1",
        "type": "t_array(t_uint256)50_storage"
      },
      {
        "astId": 10,
        "contract": "contracts/GroupHealth.sol:GroupHealth",
        "label": "_owner",
        "offset": 0,
        "slot": "51",
        "type": "t_address"
      },
      {
        "astId": 122,
        "contract": "contracts/GroupHealth.sol:GroupHealth",
        "label": "__gap",
        "offset": 0,
        "slot": "52",
        "type": "t_array(t_uint256)49_storage"
      },
      {
        "astId": 13491,
        "contract": "contracts/GroupHealth.sol:GroupHealth",
        "label": "registry",
        "offset": 0,
        "slot": "101",
        "type": "t_contract(IRegistry)16523"
      },
      {
        "astId": 6582,
        "contract": "contracts/GroupHealth.sol:GroupHealth",
        "label": "isGroupValid",
        "offset": 0,
        "slot": "102",
        "type": "t_mapping(t_address,t_bool)"
      },
      {
        "astId": 6587,
        "contract": "contracts/GroupHealth.sol:GroupHealth",
        "label": "membersMappingHelper",
        "offset": 0,
        "slot": "103",
        "type": "t_mapping(t_address,t_bool)"
      }
    ],
    "types": {
      "t_address": {
        "encoding": "inplace",
        "label": "address",
        "numberOfBytes": "20"
      },
      "t_array(t_uint256)49_storage": {
        "base": "t_uint256",
        "encoding": "inplace",
        "label": "uint256[49]",
        "numberOfBytes": "1568"
      },
      "t_array(t_uint256)50_storage": {
        "base": "t_uint256",
        "encoding": "inplace",
        "label": "uint256[50]",
        "numberOfBytes": "1600"
      },
      "t_bool": {
        "encoding": "inplace",
        "label": "bool",
        "numberOfBytes": "1"
      },
      "t_contract(IRegistry)16523": {
        "encoding": "inplace",
        "label": "contract IRegistry",
        "numberOfBytes": "20"
      },
      "t_mapping(t_address,t_bool)": {
        "encoding": "mapping",
        "key": "t_address",
        "label": "mapping(address => bool)",
        "numberOfBytes": "32",
        "value": "t_bool"
      },
      "t_uint256": {
        "encoding": "inplace",
        "label": "uint256",
        "numberOfBytes": "32"
      }
    }
  }
}