{
  "address": "0xDa3188BFd08008A76A08D0250D4F464d2889629E",
  "abi": [
    {
      "inputs": [],
      "stateMutability": "nonpayable",
      "type": "constructor"
    },
    {
      "inputs": [],
      "name": "AddressZeroNotAllowed",
      "type": "error"
    },
    {
      "inputs": [
        {
          "internalType": "address",
          "name": "caller",
          "type": "address"
        }
      ],
      "name": "CallerNotManager",
      "type": "error"
    },
    {
      "inputs": [
        {
          "internalType": "address",
          "name": "group",
          "type": "address"
        }
      ],
      "name": "CantWithdrawAccordingToStrategy",
      "type": "error"
    },
    {
      "inputs": [
        {
          "internalType": "address",
          "name": "group",
          "type": "address"
        }
      ],
      "name": "FailedToUnblockGroup",
      "type": "error"
    },
    {
      "inputs": [
        {
          "internalType": "address",
          "name": "group",
          "type": "address"
        }
      ],
      "name": "GroupAlreadyBlocked",
      "type": "error"
    },
    {
      "inputs": [
        {
          "internalType": "address",
          "name": "group",
          "type": "address"
        }
      ],
      "name": "GroupBalanced",
      "type": "error"
    },
    {
      "inputs": [
        {
          "internalType": "address",
          "name": "group",
          "type": "address"
        }
      ],
      "name": "GroupNotBalanced",
      "type": "error"
    },
    {
      "inputs": [
        {
          "internalType": "address",
          "name": "group",
          "type": "address"
        }
      ],
      "name": "GroupNotEligible",
      "type": "error"
    },
    {
      "inputs": [
        {
          "internalType": "address",
          "name": "group",
          "type": "address"
        }
      ],
      "name": "GroupNotOverflowing",
      "type": "error"
    },
    {
      "inputs": [
        {
          "internalType": "address",
          "name": "group",
          "type": "address"
        }
      ],
      "name": "GroupStillOverflowing",
      "type": "error"
    },
    {
      "inputs": [],
      "name": "NoActiveGroups",
      "type": "error"
    },
    {
      "inputs": [],
      "name": "NoGroups",
      "type": "error"
    },
    {
      "inputs": [],
      "name": "OnlyPauser",
      "type": "error"
    },
    {
      "inputs": [],
      "name": "Paused",
      "type": "error"
    },
    {
      "anonymous": false,
      "inputs": [
        {
          "indexed": false,
          "internalType": "address",
          "name": "previousAdmin",
          "type": "address"
        },
        {
          "indexed": false,
          "internalType": "address",
          "name": "newAdmin",
          "type": "address"
        }
      ],
      "name": "AdminChanged",
      "type": "event"
    },
    {
      "anonymous": false,
      "inputs": [
        {
          "indexed": true,
          "internalType": "address",
          "name": "beacon",
          "type": "address"
        }
      ],
      "name": "BeaconUpgraded",
      "type": "event"
    },
    {
      "anonymous": false,
      "inputs": [],
      "name": "ContractPaused",
      "type": "event"
    },
    {
      "anonymous": false,
      "inputs": [],
      "name": "ContractUnpaused",
      "type": "event"
    },
    {
      "anonymous": false,
      "inputs": [
        {
          "indexed": false,
          "internalType": "address",
          "name": "group",
          "type": "address"
        }
      ],
      "name": "GroupBlocked",
      "type": "event"
    },
    {
      "anonymous": false,
      "inputs": [
        {
          "indexed": true,
          "internalType": "address",
          "name": "group",
          "type": "address"
        }
      ],
      "name": "GroupUnblocked",
      "type": "event"
    },
    {
      "anonymous": false,
      "inputs": [
        {
          "indexed": true,
          "internalType": "address",
          "name": "manager",
          "type": "address"
        }
      ],
      "name": "ManagerSet",
      "type": "event"
    },
    {
      "anonymous": false,
      "inputs": [
        {
          "indexed": true,
          "internalType": "address",
          "name": "previousOwner",
          "type": "address"
        },
        {
          "indexed": true,
          "internalType": "address",
          "name": "newOwner",
          "type": "address"
        }
      ],
      "name": "OwnershipTransferred",
      "type": "event"
    },
    {
      "anonymous": false,
      "inputs": [
        {
          "indexed": false,
          "internalType": "address",
          "name": "pauser",
          "type": "address"
        }
      ],
      "name": "PauserSet",
      "type": "event"
    },
    {
      "anonymous": false,
      "inputs": [
        {
          "indexed": true,
          "internalType": "address",
          "name": "implementation",
          "type": "address"
        }
      ],
      "name": "Upgraded",
      "type": "event"
    },
    {
      "inputs": [],
      "name": "PAUSED_POSITION",
      "outputs": [
        {
          "internalType": "bytes32",
          "name": "",
          "type": "bytes32"
        }
      ],
      "stateMutability": "view",
      "type": "function"
    },
    {
      "inputs": [],
      "name": "PAUSER_POSITION",
      "outputs": [
        {
          "internalType": "bytes32",
          "name": "",
          "type": "bytes32"
        }
      ],
      "stateMutability": "view",
      "type": "function"
    },
    {
      "inputs": [],
      "name": "account",
      "outputs": [
        {
          "internalType": "contract IAccount",
          "name": "",
          "type": "address"
        }
      ],
      "stateMutability": "view",
      "type": "function"
    },
    {
      "inputs": [
        {
          "internalType": "address",
          "name": "group",
          "type": "address"
        }
      ],
      "name": "blockGroup",
      "outputs": [],
      "stateMutability": "nonpayable",
      "type": "function"
    },
    {
      "inputs": [],
      "name": "defaultStrategy",
      "outputs": [
        {
          "internalType": "contract IDefaultStrategy",
          "name": "",
          "type": "address"
        }
      ],
      "stateMutability": "view",
      "type": "function"
    },
    {
      "inputs": [
        {
          "internalType": "address",
          "name": "group",
          "type": "address"
        },
        {
          "internalType": "uint256",
          "name": "celoAmount",
          "type": "uint256"
        },
        {
          "internalType": "uint256",
          "name": "stCeloAmount",
          "type": "uint256"
        }
      ],
      "name": "generateDepositVoteDistribution",
      "outputs": [
        {
          "internalType": "address[]",
          "name": "finalGroups",
          "type": "address[]"
        },
        {
          "internalType": "uint256[]",
          "name": "finalVotes",
          "type": "uint256[]"
        }
      ],
      "stateMutability": "nonpayable",
      "type": "function"
    },
    {
      "inputs": [
        {
          "internalType": "address",
          "name": "group",
          "type": "address"
        },
        {
          "internalType": "uint256",
          "name": "celoWithdrawalAmount",
          "type": "uint256"
        },
        {
          "internalType": "uint256",
          "name": "stCeloWithdrawalAmount",
          "type": "uint256"
        },
        {
          "internalType": "bool",
          "name": "isTransfer",
          "type": "bool"
        }
      ],
      "name": "generateWithdrawalVoteDistribution",
      "outputs": [
        {
          "internalType": "address[]",
          "name": "groups",
          "type": "address[]"
        },
        {
          "internalType": "uint256[]",
          "name": "votes",
          "type": "uint256[]"
        }
      ],
      "stateMutability": "nonpayable",
      "type": "function"
    },
    {
      "inputs": [
        {
          "internalType": "uint256",
          "name": "index",
          "type": "uint256"
        }
      ],
      "name": "getBlockedGroup",
      "outputs": [
        {
          "internalType": "address",
          "name": "",
          "type": "address"
        }
      ],
      "stateMutability": "view",
      "type": "function"
    },
    {
      "inputs": [],
      "name": "getNumberOfBlockedGroups",
      "outputs": [
        {
          "internalType": "uint256",
          "name": "",
          "type": "uint256"
        }
      ],
      "stateMutability": "view",
      "type": "function"
    },
    {
      "inputs": [],
      "name": "getNumberOfVotedGroups",
      "outputs": [
        {
          "internalType": "uint256",
          "name": "",
          "type": "uint256"
        }
      ],
      "stateMutability": "view",
      "type": "function"
    },
    {
      "inputs": [
        {
          "internalType": "address",
          "name": "group",
          "type": "address"
        }
      ],
      "name": "getStCeloInGroup",
      "outputs": [
        {
          "internalType": "uint256",
          "name": "total",
          "type": "uint256"
        },
        {
          "internalType": "uint256",
          "name": "overflow",
          "type": "uint256"
        },
        {
          "internalType": "uint256",
          "name": "unhealthy",
          "type": "uint256"
        }
      ],
      "stateMutability": "view",
      "type": "function"
    },
    {
      "inputs": [],
      "name": "getVersionNumber",
      "outputs": [
        {
          "internalType": "uint256",
          "name": "",
          "type": "uint256"
        },
        {
          "internalType": "uint256",
          "name": "",
          "type": "uint256"
        },
        {
          "internalType": "uint256",
          "name": "",
          "type": "uint256"
        },
        {
          "internalType": "uint256",
          "name": "",
          "type": "uint256"
        }
      ],
      "stateMutability": "pure",
      "type": "function"
    },
    {
      "inputs": [
        {
          "internalType": "uint256",
          "name": "index",
          "type": "uint256"
        }
      ],
      "name": "getVotedGroup",
      "outputs": [
        {
          "internalType": "address",
          "name": "",
          "type": "address"
        }
      ],
      "stateMutability": "view",
      "type": "function"
    },
    {
      "inputs": [],
      "name": "groupHealth",
      "outputs": [
        {
          "internalType": "contract IGroupHealth",
          "name": "",
          "type": "address"
        }
      ],
      "stateMutability": "view",
      "type": "function"
    },
    {
      "inputs": [
        {
          "internalType": "address",
          "name": "_owner",
          "type": "address"
        },
        {
          "internalType": "address",
          "name": "_manager",
          "type": "address"
        }
      ],
      "name": "initialize",
      "outputs": [],
      "stateMutability": "nonpayable",
      "type": "function"
    },
    {
      "inputs": [
        {
          "internalType": "address",
          "name": "group",
          "type": "address"
        }
      ],
      "name": "isBlockedGroup",
      "outputs": [
        {
          "internalType": "bool",
          "name": "",
          "type": "bool"
        }
      ],
      "stateMutability": "view",
      "type": "function"
    },
    {
      "inputs": [],
      "name": "isPaused",
      "outputs": [
        {
          "internalType": "bool",
          "name": "",
          "type": "bool"
        }
      ],
      "stateMutability": "view",
      "type": "function"
    },
    {
      "inputs": [
        {
          "internalType": "address",
          "name": "group",
          "type": "address"
        }
      ],
      "name": "isVotedGroup",
      "outputs": [
        {
          "internalType": "bool",
          "name": "",
          "type": "bool"
        }
      ],
      "stateMutability": "view",
      "type": "function"
    },
    {
      "inputs": [],
      "name": "manager",
      "outputs": [
        {
          "internalType": "address",
          "name": "",
          "type": "address"
        }
      ],
      "stateMutability": "view",
      "type": "function"
    },
    {
      "inputs": [],
      "name": "owner",
      "outputs": [
        {
          "internalType": "address",
          "name": "",
          "type": "address"
        }
      ],
      "stateMutability": "view",
      "type": "function"
    },
    {
      "inputs": [],
      "name": "pause",
      "outputs": [],
      "stateMutability": "nonpayable",
      "type": "function"
    },
    {
      "inputs": [],
      "name": "pauser",
      "outputs": [
        {
          "internalType": "address",
          "name": "",
          "type": "address"
        }
      ],
      "stateMutability": "view",
      "type": "function"
    },
    {
      "inputs": [
        {
          "internalType": "address",
          "name": "group",
          "type": "address"
        }
      ],
      "name": "rebalanceOverflowedGroup",
      "outputs": [],
      "stateMutability": "nonpayable",
      "type": "function"
    },
    {
      "inputs": [
        {
          "internalType": "address",
          "name": "group",
          "type": "address"
        }
      ],
      "name": "rebalanceWhenHealthChanged",
      "outputs": [],
      "stateMutability": "nonpayable",
      "type": "function"
    },
    {
      "inputs": [],
      "name": "renounceOwnership",
      "outputs": [],
      "stateMutability": "nonpayable",
      "type": "function"
    },
    {
      "inputs": [
        {
          "internalType": "address",
          "name": "_account",
          "type": "address"
        },
        {
          "internalType": "address",
          "name": "_groupHealth",
          "type": "address"
        },
        {
          "internalType": "address",
          "name": "_defaultStrategy",
          "type": "address"
        }
      ],
      "name": "setDependencies",
      "outputs": [],
      "stateMutability": "nonpayable",
      "type": "function"
    },
    {
      "inputs": [
        {
          "internalType": "address",
          "name": "_manager",
          "type": "address"
        }
      ],
      "name": "setManager",
      "outputs": [],
      "stateMutability": "nonpayable",
      "type": "function"
    },
    {
      "inputs": [],
      "name": "setPauser",
      "outputs": [],
      "stateMutability": "nonpayable",
      "type": "function"
    },
    {
      "inputs": [
        {
          "internalType": "address",
          "name": "",
          "type": "address"
        }
      ],
      "name": "stCeloInGroup",
      "outputs": [
        {
          "internalType": "uint256",
          "name": "",
          "type": "uint256"
        }
      ],
      "stateMutability": "view",
      "type": "function"
    },
    {
      "inputs": [],
      "name": "totalStCeloLocked",
      "outputs": [
        {
          "internalType": "uint256",
          "name": "",
          "type": "uint256"
        }
      ],
      "stateMutability": "view",
      "type": "function"
    },
    {
      "inputs": [],
      "name": "totalStCeloOverflow",
      "outputs": [
        {
          "internalType": "uint256",
          "name": "",
          "type": "uint256"
        }
      ],
      "stateMutability": "view",
      "type": "function"
    },
    {
      "inputs": [],
      "name": "totalStCeloUnhealthy",
      "outputs": [
        {
          "internalType": "uint256",
          "name": "",
          "type": "uint256"
        }
      ],
      "stateMutability": "view",
      "type": "function"
    },
    {
      "inputs": [
        {
          "internalType": "address",
          "name": "newOwner",
          "type": "address"
        }
      ],
      "name": "transferOwnership",
      "outputs": [],
      "stateMutability": "nonpayable",
      "type": "function"
    },
    {
      "inputs": [
        {
          "internalType": "address",
          "name": "group",
          "type": "address"
        }
      ],
      "name": "unblockGroup",
      "outputs": [],
      "stateMutability": "nonpayable",
      "type": "function"
    },
    {
      "inputs": [],
      "name": "unpause",
      "outputs": [],
      "stateMutability": "nonpayable",
      "type": "function"
    },
    {
      "inputs": [
        {
          "internalType": "address",
          "name": "group",
          "type": "address"
        },
        {
          "internalType": "uint256",
          "name": "stCeloAmount",
          "type": "uint256"
        },
        {
          "internalType": "bool",
          "name": "add",
          "type": "bool"
        }
      ],
      "name": "updateGroupStCelo",
      "outputs": [],
      "stateMutability": "nonpayable",
      "type": "function"
    },
    {
      "inputs": [
        {
          "internalType": "address",
          "name": "newImplementation",
          "type": "address"
        }
      ],
      "name": "upgradeTo",
      "outputs": [],
      "stateMutability": "nonpayable",
      "type": "function"
    },
    {
      "inputs": [
        {
          "internalType": "address",
          "name": "newImplementation",
          "type": "address"
        },
        {
          "internalType": "bytes",
          "name": "data",
          "type": "bytes"
        }
      ],
      "name": "upgradeToAndCall",
      "outputs": [],
      "stateMutability": "payable",
      "type": "function"
    }
  ],
  "transactionHash": "0xc5cc065c68d15e217f1318f299ef9759e325bbc372c81dd5946eed6034024d12",
  "args": [],
  "numDeployments": 3,
  "solcInputHash": "c85bd7fabd1e1e49845930828b2e63eb",
  "bytecode": "0x60a06040523073ffffffffffffffffffffffffffffffffffffffff1660809073ffffffffffffffffffffffffffffffffffffffff168152503480156200004457600080fd5b50600060019054906101000a900460ff166200006f5760008054906101000a900460ff161562000080565b6200007f6200013c60201b60201c565b5b620000c2576040517f08c379a0000000000000000000000000000000000000000000000000000000008152600401620000b99062000204565b60405180910390fd5b60008060019054906101000a900460ff16159050801562000113576001600060016101000a81548160ff02191690831515021790555060016000806101000a81548160ff0219169083151502179055505b8015620001355760008060016101000a81548160ff0219169083151502179055505b5062000226565b600062000154306200015a60201b62002e9a1760201c565b15905090565b6000808273ffffffffffffffffffffffffffffffffffffffff163b119050919050565b600082825260208201905092915050565b7f496e697469616c697a61626c653a20636f6e747261637420697320616c72656160008201527f647920696e697469616c697a6564000000000000000000000000000000000000602082015250565b6000620001ec602e836200017d565b9150620001f9826200018e565b604082019050919050565b600060208201905081810360008301526200021f81620001dd565b9050919050565b6080516158f162000257600039600081816109cc01528181610a5b01528181610d6a0152610df901526158f16000f3fe6080604052600436106102255760003560e01c80638456cb5911610123578063b52d326c116100ab578063f2fde38b1161006f578063f2fde38b146107dd578063f8649e7514610806578063fac5bb9b14610831578063fea4765b1461085c578063ff0b58301461088757610225565b8063b52d326c146106e7578063cc222f8d14610710578063cd1528581461074d578063d00a5bf81461078b578063d0ebdbe7146107b457610225565b80639468ba0e116100f25780639468ba0e146106105780639fd0506d1461063b578063a3f16ef114610666578063b187bd2614610691578063b2705329146106bc57610225565b80638456cb591461056657806385a92cb71461057d5780638ceaa3fe146105ba5780638da5cb5b146105e557610225565b80634f1ef286116101b15780636253d792116101755780636253d7921461049557806366442085146104be578063715018a6146104fb5780637c0d530f14610512578063843c7a8b1461052957610225565b80634f1ef286146103a357806354255be0146103bf57806356ab819f146103ed5780635c650b5f1461042c5780635dab24201461046a57610225565b80633cbf5872116101f85780633cbf5872146102d05780633f4ba83a146102fb578063481c6a7514610312578063485cc9551461033d5780634a1376b61461036657610225565b8063284197961461022a5780632e3cde9f1461025557806332ce1ab41461027e5780633659cfe6146102a7575b600080fd5b34801561023657600080fd5b5061023f6108b0565b60405161024c91906145c6565b60405180910390f35b34801561026157600080fd5b5061027c600480360381019061027791906146b7565b6108b6565b005b34801561028a57600080fd5b506102a560048036038101906102a0919061470a565b610942565b005b3480156102b357600080fd5b506102ce60048036038101906102c9919061470a565b6109ca565b005b3480156102dc57600080fd5b506102e5610b53565b6040516102f29190614750565b60405180910390f35b34801561030757600080fd5b50610310610b89565b005b34801561031e57600080fd5b50610327610c2d565b604051610334919061477a565b60405180910390f35b34801561034957600080fd5b50610364600480360381019061035f9190614795565b610c53565b005b34801561037257600080fd5b5061038d600480360381019061038891906147d5565b610d4b565b60405161039a919061477a565b60405180910390f35b6103bd60048036038101906103b89190614948565b610d68565b005b3480156103cb57600080fd5b506103d4610ea5565b6040516103e494939291906149a4565b60405180910390f35b3480156103f957600080fd5b50610414600480360381019061040f919061470a565b610ec0565b604051610423939291906149e9565b60405180910390f35b34801561043857600080fd5b50610453600480360381019061044e9190614a20565b610f92565b604051610461929190614c03565b60405180910390f35b34801561047657600080fd5b5061047f61170b565b60405161048c9190614c99565b60405180910390f35b3480156104a157600080fd5b506104bc60048036038101906104b7919061470a565b611731565b005b3480156104ca57600080fd5b506104e560048036038101906104e0919061470a565b611aa5565b6040516104f29190614cc3565b60405180910390f35b34801561050757600080fd5b50610510611ac2565b005b34801561051e57600080fd5b50610527611b4a565b005b34801561053557600080fd5b50610550600480360381019061054b91906147d5565b611bd8565b60405161055d919061477a565b60405180910390f35b34801561057257600080fd5b5061057b611bf5565b005b34801561058957600080fd5b506105a4600480360381019061059f919061470a565b611c99565b6040516105b191906145c6565b60405180910390f35b3480156105c657600080fd5b506105cf611cb1565b6040516105dc91906145c6565b60405180910390f35b3480156105f157600080fd5b506105fa611cb7565b604051610607919061477a565b60405180910390f35b34801561061c57600080fd5b50610625611ce1565b6040516106329190614750565b60405180910390f35b34801561064757600080fd5b50610650611d17565b60405161065d919061477a565b60405180910390f35b34801561067257600080fd5b5061067b611d5d565b6040516106889190614cff565b60405180910390f35b34801561069d57600080fd5b506106a6611d83565b6040516106b39190614cc3565b60405180910390f35b3480156106c857600080fd5b506106d1611dc9565b6040516106de91906145c6565b60405180910390f35b3480156106f357600080fd5b5061070e60048036038101906107099190614d1a565b611dcf565b005b34801561071c57600080fd5b506107376004803603810190610732919061470a565b611fe8565b6040516107449190614cc3565b60405180910390f35b34801561075957600080fd5b50610774600480360381019061076f9190614d6d565b612005565b604051610782929190614c03565b60405180910390f35b34801561079757600080fd5b506107b260048036038101906107ad919061470a565b61275f565b005b3480156107c057600080fd5b506107db60048036038101906107d6919061470a565b612ade565b005b3480156107e957600080fd5b5061080460048036038101906107ff919061470a565b612b66565b005b34801561081257600080fd5b5061081b612c5e565b60405161082891906145c6565b60405180910390f35b34801561083d57600080fd5b50610846612c6f565b6040516108539190614de1565b60405180910390f35b34801561086857600080fd5b50610871612c95565b60405161087e91906145c6565b60405180910390f35b34801561089357600080fd5b506108ae60048036038101906108a9919061470a565b612ca6565b005b606f5481565b6108be612ebd565b73ffffffffffffffffffffffffffffffffffffffff166108dc611cb7565b73ffffffffffffffffffffffffffffffffffffffff1614610932576040517f08c379a000000000000000000000000000000000000000000000000000000000815260040161092990614e59565b60405180910390fd5b61093d838383612ec5565b505050565b61094a612ebd565b73ffffffffffffffffffffffffffffffffffffffff16610968611cb7565b73ffffffffffffffffffffffffffffffffffffffff16146109be576040517f08c379a00000000000000000000000000000000000000000000000000000000081526004016109b590614e59565b60405180910390fd5b6109c781612fb4565b50565b7f000000000000000000000000000000000000000000000000000000000000000073ffffffffffffffffffffffffffffffffffffffff163073ffffffffffffffffffffffffffffffffffffffff161415610a59576040517f08c379a0000000000000000000000000000000000000000000000000000000008152600401610a5090614eeb565b60405180910390fd5b7f000000000000000000000000000000000000000000000000000000000000000073ffffffffffffffffffffffffffffffffffffffff16610a98613124565b73ffffffffffffffffffffffffffffffffffffffff1614610aee576040517f08c379a0000000000000000000000000000000000000000000000000000000008152600401610ae590614f7d565b60405180910390fd5b610af78161317b565b610b5081600067ffffffffffffffff811115610b1657610b1561481d565b5b6040519080825280601f01601f191660200182016040528015610b485781602001600182028036833780820191505090505b5060006131fa565b50565b60017f8f989356aeb576065c8d201815b96ac9c10cf89197a532e428ebd68581557c2360001c610b839190614fcc565b60001b81565b610b91611d17565b73ffffffffffffffffffffffffffffffffffffffff163373ffffffffffffffffffffffffffffffffffffffff1614610bf5576040517f75df51dc00000000000000000000000000000000000000000000000000000000815260040160405180910390fd5b610bff60006133cb565b7f0e5e3b3fb504c22cf5c42fa07d521225937514c654007e1f12646f89768d6f9460405160405180910390a1565b606560009054906101000a900473ffffffffffffffffffffffffffffffffffffffff1681565b600060019054906101000a900460ff16610c7b5760008054906101000a900460ff1615610c84565b610c83613409565b5b610cc3576040517f08c379a0000000000000000000000000000000000000000000000000000000008152600401610cba90615072565b60405180910390fd5b60008060019054906101000a900460ff161590508015610d13576001600060016101000a81548160ff02191690831515021790555060016000806101000a81548160ff0219169083151502179055505b610d1c8361341a565b610d25826134e0565b8015610d465760008060016101000a81548160ff0219169083151502179055505b505050565b6000610d6182606861353b90919063ffffffff16565b9050919050565b7f000000000000000000000000000000000000000000000000000000000000000073ffffffffffffffffffffffffffffffffffffffff163073ffffffffffffffffffffffffffffffffffffffff161415610df7576040517f08c379a0000000000000000000000000000000000000000000000000000000008152600401610dee90614eeb565b60405180910390fd5b7f000000000000000000000000000000000000000000000000000000000000000073ffffffffffffffffffffffffffffffffffffffff16610e36613124565b73ffffffffffffffffffffffffffffffffffffffff1614610e8c576040517f08c379a0000000000000000000000000000000000000000000000000000000008152600401610e8390614f7d565b60405180910390fd5b610e958261317b565b610ea1828260016131fa565b5050565b60008060008060018060016000935093509350935090919293565b6000806000606a60008573ffffffffffffffffffffffffffffffffffffffff1673ffffffffffffffffffffffffffffffffffffffff168152602001908152602001600020549250606c60008573ffffffffffffffffffffffffffffffffffffffff1673ffffffffffffffffffffffffffffffffffffffff168152602001908152602001600020549150606e60008573ffffffffffffffffffffffffffffffffffffffff1673ffffffffffffffffffffffffffffffffffffffff1681526020019081526020016000205490509193909250565b6060803373ffffffffffffffffffffffffffffffffffffffff16606560009054906101000a900473ffffffffffffffffffffffffffffffffffffffff1673ffffffffffffffffffffffffffffffffffffffff161461102757336040517f3b2495f100000000000000000000000000000000000000000000000000000000815260040161101e919061477a565b60405180910390fd5b60006110336066613555565b141561106b576040517f377b56d200000000000000000000000000000000000000000000000000000000815260040160405180910390fd5b606a60008773ffffffffffffffffffffffffffffffffffffffff1673ffffffffffffffffffffffffffffffffffffffff168152602001908152602001600020548411156110ef57856040517f0d4386640000000000000000000000000000000000000000000000000000000081526004016110e6919061477a565b60405180910390fd5b6110fb86856000612ec5565b6000606c60008873ffffffffffffffffffffffffffffffffffffffff1673ffffffffffffffffffffffffffffffffffffffff1681526020019081526020016000205490506000606e60008973ffffffffffffffffffffffffffffffffffffffff1673ffffffffffffffffffffffffffffffffffffffff16815260200190815260200160002054905060008211806111925750600081115b156115f757600061124988606560009054906101000a900473ffffffffffffffffffffffffffffffffffffffff1673ffffffffffffffffffffffffffffffffffffffff16630567847f85876111e79190615092565b6040518263ffffffff1660e01b815260040161120391906145c6565b602060405180830381865afa158015611220573d6000803e3d6000fd5b505050506040513d601f19601f8201168201806040525081019061124491906150fd565b61356a565b905080886112579190614fcc565b9750600080607160009054906101000a900473ffffffffffffffffffffffffffffffffffffffff1673ffffffffffffffffffffffffffffffffffffffff166336691a41846040518263ffffffff1660e01b81526004016112b791906145c6565b6000604051808303816000875af11580156112d6573d6000803e3d6000fd5b505050506040513d6000823e3d601f19601f820116820180604052508101906112ff91906152ca565b9150915061130e8b8487613583565b60008a11156115e857600182516113259190615092565b67ffffffffffffffff81111561133e5761133d61481d565b5b60405190808252806020026020018201604052801561136c5781602001602082028036833780820191505090505b5096506001825161137d9190615092565b67ffffffffffffffff8111156113965761139561481d565b5b6040519080825280602002602001820160405280156113c45781602001602082028036833780820191505090505b50955060005b8251811015611488578281815181106113e6576113e5615342565b5b602002602001015188828151811061140157611400615342565b5b602002602001019073ffffffffffffffffffffffffffffffffffffffff16908173ffffffffffffffffffffffffffffffffffffffff168152505081818151811061144e5761144d615342565b5b602002602001015187828151811061146957611468615342565b5b602002602001018181525050808061148090615371565b9150506113ca565b5087158015611531575089607260009054906101000a900473ffffffffffffffffffffffffffffffffffffffff1673ffffffffffffffffffffffffffffffffffffffff1663acd201d08d6040518263ffffffff1660e01b81526004016114ee919061477a565b602060405180830381865afa15801561150b573d6000803e3d6000fd5b505050506040513d601f19601f8201168201806040525081019061152f91906150fd565b105b15611573578a6040517f339102f100000000000000000000000000000000000000000000000000000000815260040161156a919061477a565b60405180910390fd5b8a8783518151811061158857611587615342565b5b602002602001019073ffffffffffffffffffffffffffffffffffffffff16908173ffffffffffffffffffffffffffffffffffffffff168152505089868351815181106115d7576115d6615342565b5b6020026020010181815250506115ef565b8196508095505b505050611700565b600167ffffffffffffffff8111156116125761161161481d565b5b6040519080825280602002602001820160405280156116405781602001602082028036833780820191505090505b509350600167ffffffffffffffff81111561165e5761165d61481d565b5b60405190808252806020026020018201604052801561168c5781602001602082028036833780820191505090505b50925087846000815181106116a4576116a3615342565b5b602002602001019073ffffffffffffffffffffffffffffffffffffffff16908173ffffffffffffffffffffffffffffffffffffffff168152505086836000815181106116f3576116f2615342565b5b6020026020010181815250505b505094509492505050565b607260009054906101000a900473ffffffffffffffffffffffffffffffffffffffff1681565b611739611d83565b15611770576040517f9e87fac800000000000000000000000000000000000000000000000000000000815260040160405180910390fd5b607060009054906101000a900473ffffffffffffffffffffffffffffffffffffffff1673ffffffffffffffffffffffffffffffffffffffff1663ac8f4425826040518263ffffffff1660e01b81526004016117cb919061477a565b602060405180830381865afa1580156117e8573d6000803e3d6000fd5b505050506040513d601f19601f8201168201806040525081019061180c91906153cf565b1580611828575061182781606861367590919063ffffffff16565b5b1561186a57806040517f10a7bc6b000000000000000000000000000000000000000000000000000000008152600401611861919061477a565b60405180910390fd5b6000606c60008373ffffffffffffffffffffffffffffffffffffffff1673ffffffffffffffffffffffffffffffffffffffff16815260200190815260200160002054905060008114156118f457816040517f08015b240000000000000000000000000000000000000000000000000000000081526004016118eb919061477a565b60405180910390fd5b6000606560009054906101000a900473ffffffffffffffffffffffffffffffffffffffff1673ffffffffffffffffffffffffffffffffffffffff16632c431058846040518263ffffffff1660e01b8152600401611951919061477a565b602060405180830381865afa15801561196e573d6000803e3d6000fd5b505050506040513d601f19601f8201168201806040525081019061199291906150fd565b905060008114156119da57826040517feeec2b540000000000000000000000000000000000000000000000000000000081526004016119d1919061477a565b60405180910390fd5b6000606560009054906101000a900473ffffffffffffffffffffffffffffffffffffffff1673ffffffffffffffffffffffffffffffffffffffff1663c494ec1e836040518263ffffffff1660e01b8152600401611a3791906145c6565b602060405180830381865afa158015611a54573d6000803e3d6000fd5b505050506040513d601f19601f82011682018060405250810190611a7891906150fd565b90506000611a86828561356a565b9050611a9285826136a5565b611a9e85826000613997565b5050505050565b6000611abb82606661367590919063ffffffff16565b9050919050565b611aca612ebd565b73ffffffffffffffffffffffffffffffffffffffff16611ae8611cb7565b73ffffffffffffffffffffffffffffffffffffffff1614611b3e576040517f08c379a0000000000000000000000000000000000000000000000000000000008152600401611b3590614e59565b60405180910390fd5b611b48600061341a565b565b611b52612ebd565b73ffffffffffffffffffffffffffffffffffffffff16611b70611cb7565b73ffffffffffffffffffffffffffffffffffffffff1614611bc6576040517f08c379a0000000000000000000000000000000000000000000000000000000008152600401611bbd90614e59565b60405180910390fd5b611bd6611bd1611cb7565b613a86565b565b6000611bee82606661353b90919063ffffffff16565b9050919050565b611bfd611d17565b73ffffffffffffffffffffffffffffffffffffffff163373ffffffffffffffffffffffffffffffffffffffff1614611c61576040517f75df51dc00000000000000000000000000000000000000000000000000000000815260040160405180910390fd5b611c6b60016133cb565b7fab35696f06e428ebc5ceba8cd17f8fed287baf43440206d1943af1ee53e6d26760405160405180910390a1565b606a6020528060005260406000206000915090505481565b606b5481565b6000603360009054906101000a900473ffffffffffffffffffffffffffffffffffffffff16905090565b60017f29f060ba1cf8d3659516b02281c85dcc3e81b4287766ae4751c0f500688be30f60001c611d119190614fcc565b60001b81565b600080600060017f29f060ba1cf8d3659516b02281c85dcc3e81b4287766ae4751c0f500688be30f60001c611d4c9190614fcc565b60001b905080549150819250505090565b607060009054906101000a900473ffffffffffffffffffffffffffffffffffffffff1681565b600080600060017f8f989356aeb576065c8d201815b96ac9c10cf89197a532e428ebd68581557c2360001c611db89190614fcc565b60001b905080549150819250505090565b606d5481565b611dd7612ebd565b73ffffffffffffffffffffffffffffffffffffffff16611df5611cb7565b73ffffffffffffffffffffffffffffffffffffffff1614611e4b576040517f08c379a0000000000000000000000000000000000000000000000000000000008152600401611e4290614e59565b60405180910390fd5b600073ffffffffffffffffffffffffffffffffffffffff168373ffffffffffffffffffffffffffffffffffffffff161480611eb25750600073ffffffffffffffffffffffffffffffffffffffff168273ffffffffffffffffffffffffffffffffffffffff16145b80611ee95750600073ffffffffffffffffffffffffffffffffffffffff168173ffffffffffffffffffffffffffffffffffffffff16145b15611f20576040517f0855380c00000000000000000000000000000000000000000000000000000000815260040160405180910390fd5b82607260006101000a81548173ffffffffffffffffffffffffffffffffffffffff021916908373ffffffffffffffffffffffffffffffffffffffff16021790555081607060006101000a81548173ffffffffffffffffffffffffffffffffffffffff021916908373ffffffffffffffffffffffffffffffffffffffff16021790555080607160006101000a81548173ffffffffffffffffffffffffffffffffffffffff021916908373ffffffffffffffffffffffffffffffffffffffff160217905550505050565b6000611ffe82606861367590919063ffffffff16565b9050919050565b6060803373ffffffffffffffffffffffffffffffffffffffff16606560009054906101000a900473ffffffffffffffffffffffffffffffffffffffff1673ffffffffffffffffffffffffffffffffffffffff161461209a57336040517f3b2495f1000000000000000000000000000000000000000000000000000000008152600401612091919061477a565b60405180910390fd5b6120ae856066613b6290919063ffffffff16565b506120bb85846001612ec5565b607060009054906101000a900473ffffffffffffffffffffffffffffffffffffffff1673ffffffffffffffffffffffffffffffffffffffff1663ac8f4425866040518263ffffffff1660e01b8152600401612116919061477a565b602060405180830381865afa158015612133573d6000803e3d6000fd5b505050506040513d601f19601f8201168201806040525081019061215791906153cf565b8015612174575061217285606861367590919063ffffffff16565b155b1561269b576000606560009054906101000a900473ffffffffffffffffffffffffffffffffffffffff1673ffffffffffffffffffffffffffffffffffffffff16632c431058876040518263ffffffff1660e01b81526004016121d6919061477a565b602060405180830381865afa1580156121f3573d6000803e3d6000fd5b505050506040513d601f19601f8201168201806040525081019061221791906150fd565b90506000612225828761356a565b905080866122339190614fcc565b9550600086111561258b5760006122e5606560009054906101000a900473ffffffffffffffffffffffffffffffffffffffff1673ffffffffffffffffffffffffffffffffffffffff1663c494ec1e896040518263ffffffff1660e01b815260040161229e91906145c6565b602060405180830381865afa1580156122bb573d6000803e3d6000fd5b505050506040513d601f19601f820116820180604052508101906122df91906150fd565b8761356a565b9050600080607160009054906101000a900473ffffffffffffffffffffffffffffffffffffffff1673ffffffffffffffffffffffffffffffffffffffff1663b364174e8a858d6040518463ffffffff1660e01b8152600401612349939291906153fc565b6000604051808303816000875af1158015612368573d6000803e3d6000fd5b505050506040513d6000823e3d601f19601f8201168201806040525081019061239191906152ca565b915091506123a18a846001613997565b600182516123af9190615092565b67ffffffffffffffff8111156123c8576123c761481d565b5b6040519080825280602002602001820160405280156123f65781602001602082028036833780820191505090505b509650600182516124079190615092565b67ffffffffffffffff8111156124205761241f61481d565b5b60405190808252806020026020018201604052801561244e5781602001602082028036833780820191505090505b50955060005b8251811015612512578281815181106124705761246f615342565b5b602002602001015188828151811061248b5761248a615342565b5b602002602001019073ffffffffffffffffffffffffffffffffffffffff16908173ffffffffffffffffffffffffffffffffffffffff16815250508181815181106124d8576124d7615342565b5b60200260200101518782815181106124f3576124f2615342565b5b602002602001018181525050808061250a90615371565b915050612454565b50898783518151811061252857612527615342565b5b602002602001019073ffffffffffffffffffffffffffffffffffffffff16908173ffffffffffffffffffffffffffffffffffffffff1681525050838683518151811061257757612576615342565b5b602002602001018181525050505050612694565b600167ffffffffffffffff8111156125a6576125a561481d565b5b6040519080825280602002602001820160405280156125d45781602001602082028036833780820191505090505b509350600167ffffffffffffffff8111156125f2576125f161481d565b5b6040519080825280602002602001820160405280156126205781602001602082028036833780820191505090505b509250868460008151811061263857612637615342565b5b602002602001019073ffffffffffffffffffffffffffffffffffffffff16908173ffffffffffffffffffffffffffffffffffffffff1681525050808360008151811061268757612686615342565b5b6020026020010181815250505b5050612757565b607160009054906101000a900473ffffffffffffffffffffffffffffffffffffffff1673ffffffffffffffffffffffffffffffffffffffff1663b364174e8585886040518463ffffffff1660e01b81526004016126fa939291906153fc565b6000604051808303816000875af1158015612719573d6000803e3d6000fd5b505050506040513d6000823e3d601f19601f8201168201806040525081019061274291906152ca565b809250819350505061275685846001613b92565b5b935093915050565b612767611d83565b1561279e576040517f9e87fac800000000000000000000000000000000000000000000000000000000815260040160405180910390fd5b6000607060009054906101000a900473ffffffffffffffffffffffffffffffffffffffff1673ffffffffffffffffffffffffffffffffffffffff1663ac8f4425836040518263ffffffff1660e01b81526004016127fb919061477a565b602060405180830381865afa158015612818573d6000803e3d6000fd5b505050506040513d601f19601f8201168201806040525081019061283c91906153cf565b90506000606e60008473ffffffffffffffffffffffffffffffffffffffff1673ffffffffffffffffffffffffffffffffffffffff1681526020019081526020016000205490508180156128a0575061289e83606861367590919063ffffffff16565b155b1561290c5760008114156128eb57826040517f9bd3a6600000000000000000000000000000000000000000000000000000000081526004016128e2919061477a565b60405180910390fd5b60008190506128fa84826136a5565b61290684826000613b92565b50612ad9565b6000606a60008573ffffffffffffffffffffffffffffffffffffffff1673ffffffffffffffffffffffffffffffffffffffff1681526020019081526020016000205490508181141561299557836040517f9bd3a66000000000000000000000000000000000000000000000000000000000815260040161298c919061477a565b60405180910390fd5b6000607160009054906101000a900473ffffffffffffffffffffffffffffffffffffffff1673ffffffffffffffffffffffffffffffffffffffff1663c1fa411a6040518163ffffffff1660e01b8152600401602060405180830381865afa158015612a04573d6000803e3d6000fd5b505050506040513d601f19601f82011682018060405250810190612a2891906150fd565b1415612a60576040517f7818a60e00000000000000000000000000000000000000000000000000000000815260040160405180910390fd5b6000606c60008673ffffffffffffffffffffffffffffffffffffffff1673ffffffffffffffffffffffffffffffffffffffff1681526020019081526020016000205490506000818484612ab39190614fcc565b612abd9190614fcc565b9050612ac98682613c81565b612ad586826001613b92565b5050505b505050565b612ae6612ebd565b73ffffffffffffffffffffffffffffffffffffffff16612b04611cb7565b73ffffffffffffffffffffffffffffffffffffffff1614612b5a576040517f08c379a0000000000000000000000000000000000000000000000000000000008152600401612b5190614e59565b60405180910390fd5b612b638161401c565b50565b612b6e612ebd565b73ffffffffffffffffffffffffffffffffffffffff16612b8c611cb7565b73ffffffffffffffffffffffffffffffffffffffff1614612be2576040517f08c379a0000000000000000000000000000000000000000000000000000000008152600401612bd990614e59565b60405180910390fd5b600073ffffffffffffffffffffffffffffffffffffffff168173ffffffffffffffffffffffffffffffffffffffff161415612c52576040517f08c379a0000000000000000000000000000000000000000000000000000000008152600401612c49906154a5565b60405180910390fd5b612c5b8161341a565b50565b6000612c6a6066613555565b905090565b607160009054906101000a900473ffffffffffffffffffffffffffffffffffffffff1681565b6000612ca16068613555565b905090565b612cae612ebd565b73ffffffffffffffffffffffffffffffffffffffff16612ccc611cb7565b73ffffffffffffffffffffffffffffffffffffffff1614612d22576040517f08c379a0000000000000000000000000000000000000000000000000000000008152600401612d1990614e59565b60405180910390fd5b607060009054906101000a900473ffffffffffffffffffffffffffffffffffffffff1673ffffffffffffffffffffffffffffffffffffffff1663ac8f4425826040518263ffffffff1660e01b8152600401612d7d919061477a565b602060405180830381865afa158015612d9a573d6000803e3d6000fd5b505050506040513d601f19601f82011682018060405250810190612dbe91906153cf565b612dff57806040517f10a7bc6b000000000000000000000000000000000000000000000000000000008152600401612df6919061477a565b60405180910390fd5b612e1381606861410a90919063ffffffff16565b612e5457806040517fe9b829ba000000000000000000000000000000000000000000000000000000008152600401612e4b919061477a565b60405180910390fd5b8073ffffffffffffffffffffffffffffffffffffffff167f7fab4241c447cd1e7af48ab4c6bbeab72a3836e47ed68c58b78b399531a5cd6c60405160405180910390a250565b6000808273ffffffffffffffffffffffffffffffffffffffff163b119050919050565b600033905090565b8015612f3f5781606a60008573ffffffffffffffffffffffffffffffffffffffff1673ffffffffffffffffffffffffffffffffffffffff1681526020019081526020016000206000828254612f1a9190615092565b9250508190555081606b6000828254612f339190615092565b92505081905550612faf565b81606a60008573ffffffffffffffffffffffffffffffffffffffff1673ffffffffffffffffffffffffffffffffffffffff1681526020019081526020016000206000828254612f8e9190614fcc565b9250508190555081606b6000828254612fa79190614fcc565b925050819055505b505050565b6000607160009054906101000a900473ffffffffffffffffffffffffffffffffffffffff1673ffffffffffffffffffffffffffffffffffffffff1663c1fa411a6040518163ffffffff1660e01b8152600401602060405180830381865afa158015613023573d6000803e3d6000fd5b505050506040513d601f19601f8201168201806040525081019061304791906150fd565b141561307f576040517f7818a60e00000000000000000000000000000000000000000000000000000000815260040160405180910390fd5b61309381606861367590919063ffffffff16565b156130d557806040517fe09c4db20000000000000000000000000000000000000000000000000000000081526004016130cc919061477a565b60405180910390fd5b6130e9816068613b6290919063ffffffff16565b507f65aef4c8071073180f00fde0e2179949872e90b7003d3b2a22d7bc182d2cc88681604051613119919061477a565b60405180910390a150565b60006131527f360894a13ba1a3210667c828492db98dca3e2076cc3735a920a3ca505d382bbc60001b61413a565b60000160009054906101000a900473ffffffffffffffffffffffffffffffffffffffff16905090565b613183612ebd565b73ffffffffffffffffffffffffffffffffffffffff166131a1611cb7565b73ffffffffffffffffffffffffffffffffffffffff16146131f7576040517f08c379a00000000000000000000000000000000000000000000000000000000081526004016131ee90614e59565b60405180910390fd5b50565b6000613204613124565b905061320f84614144565b60008351118061321c5750815b1561322d5761322b84846141fd565b505b600061325b7f4910fdfa16fed3260ed0e7147f7cc6da11a60208b5b9406d12a635614ffd914360001b61422a565b90508060000160009054906101000a900460ff166133c45760018160000160006101000a81548160ff02191690831515021790555061332785836040516024016132a5919061477a565b6040516020818303038152906040527f3659cfe6000000000000000000000000000000000000000000000000000000007bffffffffffffffffffffffffffffffffffffffffffffffffffffffff19166020820180517bffffffffffffffffffffffffffffffffffffffffffffffffffffffff83818316178352505050506141fd565b5060008160000160006101000a81548160ff02191690831515021790555061334d613124565b73ffffffffffffffffffffffffffffffffffffffff168273ffffffffffffffffffffffffffffffffffffffff16146133ba576040517f08c379a00000000000000000000000000000000000000000000000000000000081526004016133b190615537565b60405180910390fd5b6133c385614234565b5b5050505050565b600060017f8f989356aeb576065c8d201815b96ac9c10cf89197a532e428ebd68581557c2360001c6133fd9190614fcc565b60001b90508181555050565b600061341430612e9a565b15905090565b6000603360009054906101000a900473ffffffffffffffffffffffffffffffffffffffff16905081603360006101000a81548173ffffffffffffffffffffffffffffffffffffffff021916908373ffffffffffffffffffffffffffffffffffffffff1602179055508173ffffffffffffffffffffffffffffffffffffffff168173ffffffffffffffffffffffffffffffffffffffff167f8be0079c531659141344cd1fd0a4f28419497f9722a3daafe3b4186f6b6457e060405160405180910390a35050565b600060019054906101000a900460ff1661352f576040517f08c379a0000000000000000000000000000000000000000000000000000000008152600401613526906155c9565b60405180910390fd5b6135388161401c565b50565b600061354a8360000183614283565b60001c905092915050565b6000613563826000016142ae565b9050919050565b6000818310613579578161357b565b825b905092915050565b6000606560009054906101000a900473ffffffffffffffffffffffffffffffffffffffff1673ffffffffffffffffffffffffffffffffffffffff1663c494ec1e846040518263ffffffff1660e01b81526004016135e091906145c6565b602060405180830381865afa1580156135fd573d6000803e3d6000fd5b505050506040513d601f19601f8201168201806040525081019061362191906150fd565b9050600061362f838361356a565b905060008111156136475761364685826000613997565b5b600081836136559190614fcc565b9050600081111561366d5761366c86826000613b92565b5b505050505050565b600061369d836000018373ffffffffffffffffffffffffffffffffffffffff1660001b6142bf565b905092915050565b6000606560009054906101000a900473ffffffffffffffffffffffffffffffffffffffff1673ffffffffffffffffffffffffffffffffffffffff16630567847f836040518263ffffffff1660e01b815260040161370291906145c6565b602060405180830381865afa15801561371f573d6000803e3d6000fd5b505050506040513d601f19601f8201168201806040525081019061374391906150fd565b9050600080607160009054906101000a900473ffffffffffffffffffffffffffffffffffffffff1673ffffffffffffffffffffffffffffffffffffffff166336691a41846040518263ffffffff1660e01b81526004016137a391906145c6565b6000604051808303816000875af11580156137c2573d6000803e3d6000fd5b505050506040513d6000823e3d601f19601f820116820180604052508101906137eb91906152ca565b915091506000600167ffffffffffffffff81111561380c5761380b61481d565b5b60405190808252806020026020018201604052801561383a5781602001602082028036833780820191505090505b5090506000600167ffffffffffffffff81111561385a5761385961481d565b5b6040519080825280602002602001820160405280156138885781602001602082028036833780820191505090505b50905086826000815181106138a05761389f615342565b5b602002602001019073ffffffffffffffffffffffffffffffffffffffff16908173ffffffffffffffffffffffffffffffffffffffff168152505084816000815181106138ef576138ee615342565b5b602002602001018181525050606560009054906101000a900473ffffffffffffffffffffffffffffffffffffffff1673ffffffffffffffffffffffffffffffffffffffff16630c4d4e40858486856040518563ffffffff1660e01b815260040161395c94939291906155e9565b600060405180830381600087803b15801561397657600080fd5b505af115801561398a573d6000803e3d6000fd5b5050505050505050505050565b8015613a115781606c60008573ffffffffffffffffffffffffffffffffffffffff1673ffffffffffffffffffffffffffffffffffffffff16815260200190815260200160002060008282546139ec9190615092565b9250508190555081606d6000828254613a059190615092565b92505081905550613a81565b81606c60008573ffffffffffffffffffffffffffffffffffffffff1673ffffffffffffffffffffffffffffffffffffffff1681526020019081526020016000206000828254613a609190614fcc565b9250508190555081606d6000828254613a799190614fcc565b925050819055505b505050565b600073ffffffffffffffffffffffffffffffffffffffff168173ffffffffffffffffffffffffffffffffffffffff161415613aed576040517f0855380c00000000000000000000000000000000000000000000000000000000815260040160405180910390fd5b600060017f29f060ba1cf8d3659516b02281c85dcc3e81b4287766ae4751c0f500688be30f60001c613b1f9190614fcc565b60001b90508181557fd11d57c2c7468878b1035df11c670bcd0091aa840bf8aa166365397622237bea82604051613b56919061477a565b60405180910390a15050565b6000613b8a836000018373ffffffffffffffffffffffffffffffffffffffff1660001b6142e2565b905092915050565b8015613c0c5781606e60008573ffffffffffffffffffffffffffffffffffffffff1673ffffffffffffffffffffffffffffffffffffffff1681526020019081526020016000206000828254613be79190615092565b9250508190555081606f6000828254613c009190615092565b92505081905550613c7c565b81606e60008573ffffffffffffffffffffffffffffffffffffffff1673ffffffffffffffffffffffffffffffffffffffff1681526020019081526020016000206000828254613c5b9190614fcc565b9250508190555081606f6000828254613c749190614fcc565b925050819055505b505050565b6000613dc3607260009054906101000a900473ffffffffffffffffffffffffffffffffffffffff1673ffffffffffffffffffffffffffffffffffffffff1663acd201d0856040518263ffffffff1660e01b8152600401613ce1919061477a565b602060405180830381865afa158015613cfe573d6000803e3d6000fd5b505050506040513d601f19601f82011682018060405250810190613d2291906150fd565b606560009054906101000a900473ffffffffffffffffffffffffffffffffffffffff1673ffffffffffffffffffffffffffffffffffffffff16630567847f856040518263ffffffff1660e01b8152600401613d7d91906145c6565b602060405180830381865afa158015613d9a573d6000803e3d6000fd5b505050506040513d601f19601f82011682018060405250810190613dbe91906150fd565b61356a565b90506000600167ffffffffffffffff811115613de257613de161481d565b5b604051908082528060200260200182016040528015613e105781602001602082028036833780820191505090505b5090506000600167ffffffffffffffff811115613e3057613e2f61481d565b5b604051908082528060200260200182016040528015613e5e5781602001602082028036833780820191505090505b5090508482600081518110613e7657613e75615342565b5b602002602001019073ffffffffffffffffffffffffffffffffffffffff16908173ffffffffffffffffffffffffffffffffffffffff16815250508281600081518110613ec557613ec4615342565b5b602002602001018181525050600080607160009054906101000a900473ffffffffffffffffffffffffffffffffffffffff1673ffffffffffffffffffffffffffffffffffffffff1663b364174e868860006040518463ffffffff1660e01b8152600401613f34939291906153fc565b6000604051808303816000875af1158015613f53573d6000803e3d6000fd5b505050506040513d6000823e3d601f19601f82011682018060405250810190613f7c91906152ca565b91509150606560009054906101000a900473ffffffffffffffffffffffffffffffffffffffff1673ffffffffffffffffffffffffffffffffffffffff16630c4d4e40858486856040518563ffffffff1660e01b8152600401613fe194939291906155e9565b600060405180830381600087803b158015613ffb57600080fd5b505af115801561400f573d6000803e3d6000fd5b5050505050505050505050565b600073ffffffffffffffffffffffffffffffffffffffff168173ffffffffffffffffffffffffffffffffffffffff161415614083576040517f0855380c00000000000000000000000000000000000000000000000000000000815260040160405180910390fd5b80606560006101000a81548173ffffffffffffffffffffffffffffffffffffffff021916908373ffffffffffffffffffffffffffffffffffffffff1602179055508073ffffffffffffffffffffffffffffffffffffffff167f60a0f5b9f9e81e98216071b85826681c796256fe3d1354ecb675580fba64fa6960405160405180910390a250565b6000614132836000018373ffffffffffffffffffffffffffffffffffffffff1660001b614352565b905092915050565b6000819050919050565b61414d81614466565b61418c576040517f08c379a0000000000000000000000000000000000000000000000000000000008152600401614183906156bc565b60405180910390fd5b806141b97f360894a13ba1a3210667c828492db98dca3e2076cc3735a920a3ca505d382bbc60001b61413a565b60000160006101000a81548173ffffffffffffffffffffffffffffffffffffffff021916908373ffffffffffffffffffffffffffffffffffffffff16021790555050565b6060614222838360405180606001604052806027815260200161589560279139614479565b905092915050565b6000819050919050565b61423d81614144565b8073ffffffffffffffffffffffffffffffffffffffff167fbc7cd75a20ee27fd9adebab32041f755214dbc6bffa90cc0225b39da2e5c2d3b60405160405180910390a250565b600082600001828154811061429b5761429a615342565b5b9060005260206000200154905092915050565b600081600001805490509050919050565b600080836001016000848152602001908152602001600020541415905092915050565b60006142ee83836142bf565b61434757826000018290806001815401808255809150506001900390600052602060002001600090919091909150558260000180549050836001016000848152602001908152602001600020819055506001905061434c565b600090505b92915050565b6000808360010160008481526020019081526020016000205490506000811461445a5760006001826143849190614fcc565b905060006001866000018054905061439c9190614fcc565b905081811461440b5760008660000182815481106143bd576143bc615342565b5b90600052602060002001549050808760000184815481106143e1576143e0615342565b5b90600052602060002001819055508387600101600083815260200190815260200160002081905550505b8560000180548061441f5761441e6156dc565b5b600190038181906000526020600020016000905590558560010160008681526020019081526020016000206000905560019350505050614460565b60009150505b92915050565b600080823b905060008111915050919050565b606061448484614466565b6144c3576040517f08c379a00000000000000000000000000000000000000000000000000000000081526004016144ba9061577d565b60405180910390fd5b6000808573ffffffffffffffffffffffffffffffffffffffff16856040516144eb9190615817565b600060405180830381855af49150503d8060008114614526576040519150601f19603f3d011682016040523d82523d6000602084013e61452b565b606091505b509150915061453b828286614546565b925050509392505050565b60608315614556578290506145a6565b6000835111156145695782518084602001fd5b816040517f08c379a000000000000000000000000000000000000000000000000000000000815260040161459d9190615872565b60405180910390fd5b9392505050565b6000819050919050565b6145c0816145ad565b82525050565b60006020820190506145db60008301846145b7565b92915050565b6000604051905090565b600080fd5b600080fd5b600073ffffffffffffffffffffffffffffffffffffffff82169050919050565b6000614620826145f5565b9050919050565b61463081614615565b811461463b57600080fd5b50565b60008135905061464d81614627565b92915050565b61465c816145ad565b811461466757600080fd5b50565b60008135905061467981614653565b92915050565b60008115159050919050565b6146948161467f565b811461469f57600080fd5b50565b6000813590506146b18161468b565b92915050565b6000806000606084860312156146d0576146cf6145eb565b5b60006146de8682870161463e565b93505060206146ef8682870161466a565b9250506040614700868287016146a2565b9150509250925092565b6000602082840312156147205761471f6145eb565b5b600061472e8482850161463e565b91505092915050565b6000819050919050565b61474a81614737565b82525050565b60006020820190506147656000830184614741565b92915050565b61477481614615565b82525050565b600060208201905061478f600083018461476b565b92915050565b600080604083850312156147ac576147ab6145eb565b5b60006147ba8582860161463e565b92505060206147cb8582860161463e565b9150509250929050565b6000602082840312156147eb576147ea6145eb565b5b60006147f98482850161466a565b91505092915050565b600080fd5b600080fd5b6000601f19601f8301169050919050565b7f4e487b7100000000000000000000000000000000000000000000000000000000600052604160045260246000fd5b6148558261480c565b810181811067ffffffffffffffff821117156148745761487361481d565b5b80604052505050565b60006148876145e1565b9050614893828261484c565b919050565b600067ffffffffffffffff8211156148b3576148b261481d565b5b6148bc8261480c565b9050602081019050919050565b82818337600083830152505050565b60006148eb6148e684614898565b61487d565b90508281526020810184848401111561490757614906614807565b5b6149128482856148c9565b509392505050565b600082601f83011261492f5761492e614802565b5b813561493f8482602086016148d8565b91505092915050565b6000806040838503121561495f5761495e6145eb565b5b600061496d8582860161463e565b925050602083013567ffffffffffffffff81111561498e5761498d6145f0565b5b61499a8582860161491a565b9150509250929050565b60006080820190506149b960008301876145b7565b6149c660208301866145b7565b6149d360408301856145b7565b6149e060608301846145b7565b95945050505050565b60006060820190506149fe60008301866145b7565b614a0b60208301856145b7565b614a1860408301846145b7565b949350505050565b60008060008060808587031215614a3a57614a396145eb565b5b6000614a488782880161463e565b9450506020614a598782880161466a565b9350506040614a6a8782880161466a565b9250506060614a7b878288016146a2565b91505092959194509250565b600081519050919050565b600082825260208201905092915050565b6000819050602082019050919050565b614abc81614615565b82525050565b6000614ace8383614ab3565b60208301905092915050565b6000602082019050919050565b6000614af282614a87565b614afc8185614a92565b9350614b0783614aa3565b8060005b83811015614b38578151614b1f8882614ac2565b9750614b2a83614ada565b925050600181019050614b0b565b5085935050505092915050565b600081519050919050565b600082825260208201905092915050565b6000819050602082019050919050565b614b7a816145ad565b82525050565b6000614b8c8383614b71565b60208301905092915050565b6000602082019050919050565b6000614bb082614b45565b614bba8185614b50565b9350614bc583614b61565b8060005b83811015614bf6578151614bdd8882614b80565b9750614be883614b98565b925050600181019050614bc9565b5085935050505092915050565b60006040820190508181036000830152614c1d8185614ae7565b90508181036020830152614c318184614ba5565b90509392505050565b6000819050919050565b6000614c5f614c5a614c55846145f5565b614c3a565b6145f5565b9050919050565b6000614c7182614c44565b9050919050565b6000614c8382614c66565b9050919050565b614c9381614c78565b82525050565b6000602082019050614cae6000830184614c8a565b92915050565b614cbd8161467f565b82525050565b6000602082019050614cd86000830184614cb4565b92915050565b6000614ce982614c66565b9050919050565b614cf981614cde565b82525050565b6000602082019050614d146000830184614cf0565b92915050565b600080600060608486031215614d3357614d326145eb565b5b6000614d418682870161463e565b9350506020614d528682870161463e565b9250506040614d638682870161463e565b9150509250925092565b600080600060608486031215614d8657614d856145eb565b5b6000614d948682870161463e565b9350506020614da58682870161466a565b9250506040614db68682870161466a565b9150509250925092565b6000614dcb82614c66565b9050919050565b614ddb81614dc0565b82525050565b6000602082019050614df66000830184614dd2565b92915050565b600082825260208201905092915050565b7f4f776e61626c653a2063616c6c6572206973206e6f7420746865206f776e6572600082015250565b6000614e43602083614dfc565b9150614e4e82614e0d565b602082019050919050565b60006020820190508181036000830152614e7281614e36565b9050919050565b7f46756e6374696f6e206d7573742062652063616c6c6564207468726f7567682060008201527f64656c656761746563616c6c0000000000000000000000000000000000000000602082015250565b6000614ed5602c83614dfc565b9150614ee082614e79565b604082019050919050565b60006020820190508181036000830152614f0481614ec8565b9050919050565b7f46756e6374696f6e206d7573742062652063616c6c6564207468726f7567682060008201527f6163746976652070726f78790000000000000000000000000000000000000000602082015250565b6000614f67602c83614dfc565b9150614f7282614f0b565b604082019050919050565b60006020820190508181036000830152614f9681614f5a565b9050919050565b7f4e487b7100000000000000000000000000000000000000000000000000000000600052601160045260246000fd5b6000614fd7826145ad565b9150614fe2836145ad565b925082821015614ff557614ff4614f9d565b5b828203905092915050565b7f496e697469616c697a61626c653a20636f6e747261637420697320616c72656160008201527f647920696e697469616c697a6564000000000000000000000000000000000000602082015250565b600061505c602e83614dfc565b915061506782615000565b604082019050919050565b6000602082019050818103600083015261508b8161504f565b9050919050565b600061509d826145ad565b91506150a8836145ad565b9250827fffffffffffffffffffffffffffffffffffffffffffffffffffffffffffffffff038211156150dd576150dc614f9d565b5b828201905092915050565b6000815190506150f781614653565b92915050565b600060208284031215615113576151126145eb565b5b6000615121848285016150e8565b91505092915050565b600067ffffffffffffffff8211156151455761514461481d565b5b602082029050602081019050919050565b600080fd5b60008151905061516a81614627565b92915050565b600061518361517e8461512a565b61487d565b905080838252602082019050602084028301858111156151a6576151a5615156565b5b835b818110156151cf57806151bb888261515b565b8452602084019350506020810190506151a8565b5050509392505050565b600082601f8301126151ee576151ed614802565b5b81516151fe848260208601615170565b91505092915050565b600067ffffffffffffffff8211156152225761522161481d565b5b602082029050602081019050919050565b600061524661524184615207565b61487d565b9050808382526020820190506020840283018581111561526957615268615156565b5b835b81811015615292578061527e88826150e8565b84526020840193505060208101905061526b565b5050509392505050565b600082601f8301126152b1576152b0614802565b5b81516152c1848260208601615233565b91505092915050565b600080604083850312156152e1576152e06145eb565b5b600083015167ffffffffffffffff8111156152ff576152fe6145f0565b5b61530b858286016151d9565b925050602083015167ffffffffffffffff81111561532c5761532b6145f0565b5b6153388582860161529c565b9150509250929050565b7f4e487b7100000000000000000000000000000000000000000000000000000000600052603260045260246000fd5b600061537c826145ad565b91507fffffffffffffffffffffffffffffffffffffffffffffffffffffffffffffffff8214156153af576153ae614f9d565b5b600182019050919050565b6000815190506153c98161468b565b92915050565b6000602082840312156153e5576153e46145eb565b5b60006153f3848285016153ba565b91505092915050565b600060608201905061541160008301866145b7565b61541e60208301856145b7565b61542b604083018461476b565b949350505050565b7f4f776e61626c653a206e6577206f776e657220697320746865207a65726f206160008201527f6464726573730000000000000000000000000000000000000000000000000000602082015250565b600061548f602683614dfc565b915061549a82615433565b604082019050919050565b600060208201905081810360008301526154be81615482565b9050919050565b7f45524331393637557067726164653a207570677261646520627265616b73206660008201527f7572746865722075706772616465730000000000000000000000000000000000602082015250565b6000615521602f83614dfc565b915061552c826154c5565b604082019050919050565b6000602082019050818103600083015261555081615514565b9050919050565b7f496e697469616c697a61626c653a20636f6e7472616374206973206e6f74206960008201527f6e697469616c697a696e67000000000000000000000000000000000000000000602082015250565b60006155b3602b83614dfc565b91506155be82615557565b604082019050919050565b600060208201905081810360008301526155e2816155a6565b9050919050565b600060808201905081810360008301526156038187614ae7565b905081810360208301526156178186614ae7565b9050818103604083015261562b8185614ba5565b9050818103606083015261563f8184614ba5565b905095945050505050565b7f455243313936373a206e657720696d706c656d656e746174696f6e206973206e60008201527f6f74206120636f6e747261637400000000000000000000000000000000000000602082015250565b60006156a6602d83614dfc565b91506156b18261564a565b604082019050919050565b600060208201905081810360008301526156d581615699565b9050919050565b7f4e487b7100000000000000000000000000000000000000000000000000000000600052603160045260246000fd5b7f416464726573733a2064656c65676174652063616c6c20746f206e6f6e2d636f60008201527f6e74726163740000000000000000000000000000000000000000000000000000602082015250565b6000615767602683614dfc565b91506157728261570b565b604082019050919050565b600060208201905081810360008301526157968161575a565b9050919050565b600081519050919050565b600081905092915050565b60005b838110156157d15780820151818401526020810190506157b6565b838111156157e0576000848401525b50505050565b60006157f18261579d565b6157fb81856157a8565b935061580b8185602086016157b3565b80840191505092915050565b600061582382846157e6565b915081905092915050565b600081519050919050565b60006158448261582e565b61584e8185614dfc565b935061585e8185602086016157b3565b6158678161480c565b840191505092915050565b6000602082019050818103600083015261588c8184615839565b90509291505056fe416464726573733a206c6f772d6c6576656c2064656c65676174652063616c6c206661696c6564a2646970667358221220ad9b94cad85fcfcd20720b5f68f8524538042b712e2237dd4dea2fa609f2834664736f6c634300080b0033",
  "devdoc": {
    "errors": {
      "CallerNotManager(address)": [
        {
          "params": {
            "caller": "`msg.sender` that called the function."
          }
        }
      ],
      "CantWithdrawAccordingToStrategy(address)": [
        {
          "params": {
            "group": "The group's address."
          }
        }
      ],
      "FailedToUnblockGroup(address)": [
        {
          "params": {
            "group": "The group's address."
          }
        }
      ],
      "GroupAlreadyBlocked(address)": [
        {
          "params": {
            "group": "The group's address."
          }
        }
      ],
      "GroupBalanced(address)": [
        {
          "params": {
            "group": "The group address."
          }
        }
      ],
      "GroupNotBalanced(address)": [
        {
          "params": {
            "group": "The group's address."
          }
        }
      ],
      "GroupNotEligible(address)": [
        {
          "params": {
            "group": "The group's address."
          }
        }
      ],
      "GroupNotOverflowing(address)": [
        {
          "params": {
            "group": "The group address."
          }
        }
      ],
      "GroupStillOverflowing(address)": [
        {
          "params": {
            "group": "The group address."
          }
        }
      ]
    },
    "events": {
      "GroupBlocked(address)": {
        "params": {
          "group": "The group's address."
        }
      },
      "GroupUnblocked(address)": {
        "params": {
          "group": "The group's address."
        }
      }
    },
    "kind": "dev",
    "methods": {
      "blockGroup(address)": {
        "params": {
          "group": "The group address."
        }
      },
      "generateDepositVoteDistribution(address,uint256,uint256)": {
        "params": {
          "celoAmount": "The amount of CELO.",
          "group": "The validator group that we want to deposit to or transfer from.",
          "stCeloAmount": "The amount of stCELO."
        },
        "returns": {
          "finalGroups": "The groups to withdraw from.",
          "finalVotes": "The amount to withdraw from each group."
        }
      },
      "generateWithdrawalVoteDistribution(address,uint256,uint256,bool)": {
        "params": {
          "celoWithdrawalAmount": "The amount of CELO to withdraw.",
          "group": "The validator group that we want to withdraw from.",
          "stCeloWithdrawalAmount": "The amount of stCELO to withdraw."
        },
        "returns": {
          "groups": "The groups to withdraw from.",
          "votes": "The amount to withdraw from each group."
        }
      },
      "getBlockedGroup(uint256)": {
        "returns": {
          "_0": "The blocked group."
        }
      },
      "getNumberOfBlockedGroups()": {
        "returns": {
          "_0": "The length of blocked groups."
        }
      },
      "getNumberOfVotedGroups()": {
        "returns": {
          "_0": "The length of voted groups."
        }
      },
      "getStCeloInGroup(address)": {
        "returns": {
          "overflow": "The stCELO amount that is overflowed to default strategy.",
          "total": "The total stCELO amount.",
          "unhealthy": "The stCELO amount that is moved to default strategy because group is/was unhealthy."
        }
      },
      "getVersionNumber()": {
        "returns": {
          "_0": "Storage version of the contract.",
          "_1": "Major version of the contract.",
          "_2": "Minor version of the contract.",
          "_3": "Patch version of the contract."
        }
      },
      "getVotedGroup(uint256)": {
        "returns": {
          "_0": "The specific group."
        }
      },
      "initialize(address,address)": {
        "params": {
          "_manager": "The address of the Manager contract.",
          "_owner": "The address of the contract owner."
        }
      },
      "isBlockedGroup(address)": {
        "params": {
          "group": "The validator group."
        },
        "returns": {
          "_0": "Whether or not group is blocked."
        }
      },
      "isPaused()": {
        "returns": {
          "_0": "`true` if the contract is paused, `false` otherwise."
        }
      },
      "isVotedGroup(address)": {
        "params": {
          "group": "The validator group."
        },
        "returns": {
          "_0": "Whether or not is group is voted."
        }
      },
      "owner()": {
        "details": "Returns the address of the current owner."
      },
      "rebalanceOverflowedGroup(address)": {
        "params": {
          "group": "The group address."
        }
      },
      "rebalanceWhenHealthChanged(address)": {
        "params": {
          "group": "The group address."
        }
      },
      "renounceOwnership()": {
        "details": "Leaves the contract without owner. It will not be possible to call `onlyOwner` functions anymore. Can only be called by the current owner. NOTE: Renouncing ownership will leave the contract without an owner, thereby removing any functionality that is only available to the owner."
      },
      "setDependencies(address,address,address)": {
        "params": {
          "_account": "The address of the Account contract.",
          "_defaultStrategy": "The address of the DefaultStrategy contract.",
          "_groupHealth": "The address of the GroupHealth contract."
        }
      },
      "setManager(address)": {
        "params": {
          "_manager": "The new manager address."
        }
      },
      "transferOwnership(address)": {
        "details": "Transfers ownership of the contract to a new account (`newOwner`). Can only be called by the current owner."
      },
      "unblockGroup(address)": {
        "params": {
          "group": "The address of the group to add to the set of specific group strategies."
        }
      },
      "updateGroupStCelo(address,uint256,bool)": {
        "params": {
          "add": "Whether to add or subtract.",
          "group": "The group address.",
          "stCeloAmount": "The amount of stCELO."
        }
      },
      "upgradeTo(address)": {
        "details": "Upgrade the implementation of the proxy to `newImplementation`. Calls {_authorizeUpgrade}. Emits an {Upgraded} event."
      },
      "upgradeToAndCall(address,bytes)": {
        "details": "Upgrade the implementation of the proxy to `newImplementation`, and subsequently execute the function call encoded in `data`. Calls {_authorizeUpgrade}. Emits an {Upgraded} event."
      }
    },
    "stateVariables": {
      "totalStCeloLocked": {
        "details": "To get the actual stCelo in specific strategy it is necessary to subtract `totalStCeloOverflow`."
      }
    },
    "title": "SpecificGroupStrategy is responsible for handling any deposit/withdrawal for accounts with specific strategy selected.",
    "version": 1
  },
  "userdoc": {
    "errors": {
      "AddressZeroNotAllowed()": [
        {
          "notice": "Used when attempting to pass in address zero where not allowed."
        }
      ],
      "CallerNotManager(address)": [
        {
          "notice": "Used when an `onlyManager` function is called by a non-manager."
        }
      ],
      "CantWithdrawAccordingToStrategy(address)": [
        {
          "notice": "Used when there isn't enough CELO voting for an account's strategy to fulfill a withdrawal."
        }
      ],
      "FailedToUnblockGroup(address)": [
        {
          "notice": "Used when attempting to unblock a group that is not blocked."
        }
      ],
      "GroupAlreadyBlocked(address)": [
        {
          "notice": "Used when attempting to block a group that is not allowed."
        }
      ],
      "GroupBalanced(address)": [
        {
          "notice": "Used when trying to `rebalanceWhenHealthChanged` when the group cannot be rebalanced since it is in correct state."
        }
      ],
      "GroupNotBalanced(address)": [
        {
          "notice": "Used when attempting to withdraw from specific group but group does not have enough CELO. It is necessary to rebalance the group."
        }
      ],
      "GroupNotEligible(address)": [
        {
          "notice": "Used when a group does not meet the validator group health requirements."
        }
      ],
      "GroupNotOverflowing(address)": [
        {
          "notice": "Used when trying to `rebalanceOverflowedGroup` when the group is not overflowing."
        }
      ],
      "GroupStillOverflowing(address)": [
        {
          "notice": "Used when trying to `rebalanceOverflowedGroup` when the overflowing group cannot be rebalanced since it has no receivable votes."
        }
      ],
      "NoActiveGroups()": [
        {
          "notice": "Used when attempting to deposit when there are not active groups to vote for."
        }
      ],
      "NoGroups()": [
        {
          "notice": "Used when attempting to withdraw but there are no groups being voted for."
        }
      ],
      "OnlyPauser()": [
        {
          "notice": "Used when an `onlyPauser` function is called with a different address."
        }
      ],
      "Paused()": [
        {
          "notice": "Used when an `onlyWhenNotPaused` function is called while the contract is paused."
        }
      ]
    },
    "events": {
      "ContractPaused()": {
        "notice": "Emitted when this contract is paused."
      },
      "ContractUnpaused()": {
        "notice": "Emitted when this contract is unpaused."
      },
      "GroupBlocked(address)": {
        "notice": "Emmited when group is blocked."
      },
      "GroupUnblocked(address)": {
        "notice": "Emitted when a group was unblocked."
      },
      "ManagerSet(address)": {
        "notice": "Emitted when the manager is initially set or later modified."
      },
      "PauserSet(address)": {
        "notice": "Emitted when the address authorized to pause/unpause the contract is changed."
      }
    },
    "kind": "user",
    "methods": {
      "PAUSED_POSITION()": {
        "notice": "The storage slot under which we store a boolean representing whether or not the contract is currently paused."
      },
      "PAUSER_POSITION()": {
        "notice": "The storage slot under which we store an address representing the address permissioned to pause/unpause this contract."
      },
      "account()": {
        "notice": "An instance of the Account contract for the StakedCelo protocol."
      },
      "blockGroup(address)": {
        "notice": "Marks a group as blocked for voting."
      },
      "constructor": {
        "notice": "Empty constructor for proxy implementation, `initializer` modifer ensures the implementation gets initialized."
      },
      "defaultStrategy()": {
        "notice": "An instance of the DefaultStrategy contract for the StakedCelo protocol."
      },
      "generateDepositVoteDistribution(address,uint256,uint256)": {
        "notice": "Generates groups and votes to distribute votes to."
      },
      "generateWithdrawalVoteDistribution(address,uint256,uint256,bool)": {
        "notice": "Used to withdraw CELO from a specific group that account voted for previously. It is expected that strategy will be balanced. For balancing use `rebalance` function."
      },
      "getBlockedGroup(uint256)": {
        "notice": "Returns the blocked group at index."
      },
      "getNumberOfBlockedGroups()": {
        "notice": "Returns the number of blocked groups."
      },
      "getNumberOfVotedGroups()": {
        "notice": "Returns the number of voted groups."
      },
      "getStCeloInGroup(address)": {
        "notice": "Returns the specific group total stCELO."
      },
      "getVersionNumber()": {
        "notice": "Returns the storage, major, minor, and patch version of the contract."
      },
      "getVotedGroup(uint256)": {
        "notice": "Returns the specific group at index."
      },
      "groupHealth()": {
        "notice": "An instance of the GroupHealth contract for the StakedCelo protocol."
      },
      "initialize(address,address)": {
        "notice": "Initialize the contract with registry and owner."
      },
      "isBlockedGroup(address)": {
        "notice": "Returns if group is blocked."
      },
      "isPaused()": {
        "notice": "Returns whether or not the contract is paused."
      },
      "isVotedGroup(address)": {
        "notice": "Returns if a group is a voted group."
      },
      "pause()": {
        "notice": "Pauses the contract."
      },
      "pauser()": {
        "notice": "Returns the address permissioned to pause/unpause this contract."
      },
      "rebalanceOverflowedGroup(address)": {
        "notice": "When there is group that is overflowing and in meantime there are votes that freed up. This function makes sure to reschedule votes correctly for overflowing group."
      },
      "rebalanceWhenHealthChanged(address)": {
        "notice": "Used when validator gets unhealthy and we need to move funds to default strategy"
      },
      "setDependencies(address,address,address)": {
        "notice": "Set this contract's dependencies in the StakedCelo system."
      },
      "setManager(address)": {
        "notice": "Sets the manager address."
      },
      "setPauser()": {
        "notice": "Sets that address permissioned to pause/unpause this contract to the owner of this contract."
      },
      "stCeloInGroup(address)": {
        "notice": "stCELO that was cast for specific group strategies, group => stCELO amount"
      },
      "totalStCeloLocked()": {
        "notice": "Total stCELO that was voted with on specific group strategies (including overflows)."
      },
      "totalStCeloOverflow()": {
        "notice": "Total stCelo that was overflowed to default strategy."
      },
      "totalStCeloUnhealthy()": {
        "notice": "Total stCelo that is cast for unhealthy groups and was moved to default strategy."
      },
      "unblockGroup(address)": {
        "notice": "Unblocks previously blocked group."
      },
      "unpause()": {
        "notice": "Unpauses the contract."
      },
      "updateGroupStCelo(address,uint256,bool)": {
        "notice": "Updates the total stCELO in specific group strategy."
      }
    },
    "version": 1
  },
  "storageLayout": {
    "storage": [
      {
        "astId": 130,
        "contract": "contracts/SpecificGroupStrategy.sol:SpecificGroupStrategy",
        "label": "_initialized",
        "offset": 0,
        "slot": "0",
        "type": "t_bool"
      },
      {
        "astId": 133,
        "contract": "contracts/SpecificGroupStrategy.sol:SpecificGroupStrategy",
        "label": "_initializing",
        "offset": 1,
        "slot": "0",
        "type": "t_bool"
      },
      {
        "astId": 584,
        "contract": "contracts/SpecificGroupStrategy.sol:SpecificGroupStrategy",
        "label": "__gap",
        "offset": 0,
        "slot": "1",
        "type": "t_array(t_uint256)50_storage"
      },
      {
        "astId": 10,
        "contract": "contracts/SpecificGroupStrategy.sol:SpecificGroupStrategy",
        "label": "_owner",
        "offset": 0,
        "slot": "51",
        "type": "t_address"
      },
      {
        "astId": 122,
        "contract": "contracts/SpecificGroupStrategy.sol:SpecificGroupStrategy",
        "label": "__gap",
        "offset": 0,
        "slot": "52",
        "type": "t_array(t_uint256)49_storage"
      },
      {
        "astId": 7309,
        "contract": "contracts/SpecificGroupStrategy.sol:SpecificGroupStrategy",
        "label": "manager",
        "offset": 0,
        "slot": "101",
        "type": "t_address"
      },
      {
        "astId": 9605,
        "contract": "contracts/SpecificGroupStrategy.sol:SpecificGroupStrategy",
        "label": "votedGroups",
        "offset": 0,
        "slot": "102",
        "type": "t_struct(AddressSet)3257_storage"
      },
      {
        "astId": 9609,
        "contract": "contracts/SpecificGroupStrategy.sol:SpecificGroupStrategy",
        "label": "blockedGroups",
        "offset": 0,
        "slot": "104",
        "type": "t_struct(AddressSet)3257_storage"
      },
      {
        "astId": 9614,
        "contract": "contracts/SpecificGroupStrategy.sol:SpecificGroupStrategy",
        "label": "stCeloInGroup",
        "offset": 0,
        "slot": "106",
        "type": "t_mapping(t_address,t_uint256)"
      },
      {
        "astId": 9617,
        "contract": "contracts/SpecificGroupStrategy.sol:SpecificGroupStrategy",
        "label": "totalStCeloLocked",
        "offset": 0,
        "slot": "107",
        "type": "t_uint256"
      },
      {
        "astId": 9622,
        "contract": "contracts/SpecificGroupStrategy.sol:SpecificGroupStrategy",
        "label": "stCeloInGroupOverflowed",
        "offset": 0,
        "slot": "108",
        "type": "t_mapping(t_address,t_uint256)"
      },
      {
        "astId": 9625,
        "contract": "contracts/SpecificGroupStrategy.sol:SpecificGroupStrategy",
        "label": "totalStCeloOverflow",
        "offset": 0,
        "slot": "109",
        "type": "t_uint256"
      },
      {
        "astId": 9630,
        "contract": "contracts/SpecificGroupStrategy.sol:SpecificGroupStrategy",
        "label": "stCeloInGroupUnhealthy",
        "offset": 0,
        "slot": "110",
        "type": "t_mapping(t_address,t_uint256)"
      },
      {
        "astId": 9633,
        "contract": "contracts/SpecificGroupStrategy.sol:SpecificGroupStrategy",
        "label": "totalStCeloUnhealthy",
        "offset": 0,
        "slot": "111",
        "type": "t_uint256"
      },
      {
        "astId": 9637,
        "contract": "contracts/SpecificGroupStrategy.sol:SpecificGroupStrategy",
        "label": "groupHealth",
        "offset": 0,
        "slot": "112",
        "type": "t_contract(IGroupHealth)17667"
      },
      {
        "astId": 9641,
        "contract": "contracts/SpecificGroupStrategy.sol:SpecificGroupStrategy",
        "label": "defaultStrategy",
        "offset": 0,
        "slot": "113",
        "type": "t_contract(IDefaultStrategy)17172"
      },
      {
        "astId": 9645,
        "contract": "contracts/SpecificGroupStrategy.sol:SpecificGroupStrategy",
        "label": "account",
        "offset": 0,
        "slot": "114",
        "type": "t_contract(IAccount)16891"
      }
    ],
    "types": {
      "t_address": {
        "encoding": "inplace",
        "label": "address",
        "numberOfBytes": "20"
      },
      "t_array(t_bytes32)dyn_storage": {
        "base": "t_bytes32",
        "encoding": "dynamic_array",
        "label": "bytes32[]",
        "numberOfBytes": "32"
      },
      "t_array(t_uint256)49_storage": {
        "base": "t_uint256",
        "encoding": "inplace",
        "label": "uint256[49]",
        "numberOfBytes": "1568"
      },
      "t_array(t_uint256)50_storage": {
        "base": "t_uint256",
        "encoding": "inplace",
        "label": "uint256[50]",
        "numberOfBytes": "1600"
      },
      "t_bool": {
        "encoding": "inplace",
        "label": "bool",
        "numberOfBytes": "1"
      },
      "t_bytes32": {
        "encoding": "inplace",
        "label": "bytes32",
        "numberOfBytes": "32"
      },
      "t_contract(IAccount)16891": {
        "encoding": "inplace",
        "label": "contract IAccount",
        "numberOfBytes": "20"
      },
      "t_contract(IDefaultStrategy)17172": {
        "encoding": "inplace",
        "label": "contract IDefaultStrategy",
        "numberOfBytes": "20"
      },
      "t_contract(IGroupHealth)17667": {
        "encoding": "inplace",
        "label": "contract IGroupHealth",
        "numberOfBytes": "20"
      },
      "t_mapping(t_address,t_uint256)": {
        "encoding": "mapping",
        "key": "t_address",
        "label": "mapping(address => uint256)",
        "numberOfBytes": "32",
        "value": "t_uint256"
      },
      "t_mapping(t_bytes32,t_uint256)": {
        "encoding": "mapping",
        "key": "t_bytes32",
        "label": "mapping(bytes32 => uint256)",
        "numberOfBytes": "32",
        "value": "t_uint256"
      },
      "t_struct(AddressSet)3257_storage": {
        "encoding": "inplace",
        "label": "struct EnumerableSet.AddressSet",
        "members": [
          {
            "astId": 3256,
            "contract": "contracts/SpecificGroupStrategy.sol:SpecificGroupStrategy",
            "label": "_inner",
            "offset": 0,
            "slot": "0",
            "type": "t_struct(Set)2956_storage"
          }
        ],
        "numberOfBytes": "64"
      },
      "t_struct(Set)2956_storage": {
        "encoding": "inplace",
        "label": "struct EnumerableSet.Set",
        "members": [
          {
            "astId": 2951,
            "contract": "contracts/SpecificGroupStrategy.sol:SpecificGroupStrategy",
            "label": "_values",
            "offset": 0,
            "slot": "0",
            "type": "t_array(t_bytes32)dyn_storage"
          },
          {
            "astId": 2955,
            "contract": "contracts/SpecificGroupStrategy.sol:SpecificGroupStrategy",
            "label": "_indexes",
            "offset": 0,
            "slot": "1",
            "type": "t_mapping(t_bytes32,t_uint256)"
          }
        ],
        "numberOfBytes": "64"
      },
      "t_uint256": {
        "encoding": "inplace",
        "label": "uint256",
        "numberOfBytes": "32"
      }
    }
  }
}