{
  "address": "0x443Bd340667256fBd193D9614C330d34BCe75591",
  "abi": [
    {
      "inputs": [
        {
          "internalType": "address",
          "name": "caller",
          "type": "address"
        }
      ],
      "name": "CallerNotManager",
      "type": "error"
    },
    {
      "inputs": [
        {
          "internalType": "address",
          "name": "account",
          "type": "address"
        }
      ],
      "name": "NoStakedCelo",
      "type": "error"
    },
    {
      "inputs": [
        {
          "internalType": "address",
          "name": "account",
          "type": "address"
        }
      ],
      "name": "NotEnoughStakedCelo",
      "type": "error"
    },
    {
      "inputs": [],
      "name": "NullAddress",
      "type": "error"
    },
    {
      "anonymous": false,
      "inputs": [
        {
          "indexed": false,
          "internalType": "address",
          "name": "previousAdmin",
          "type": "address"
        },
        {
          "indexed": false,
          "internalType": "address",
          "name": "newAdmin",
          "type": "address"
        }
      ],
      "name": "AdminChanged",
      "type": "event"
    },
    {
      "anonymous": false,
      "inputs": [
        {
          "indexed": true,
          "internalType": "address",
          "name": "beacon",
          "type": "address"
        }
      ],
      "name": "BeaconUpgraded",
      "type": "event"
    },
    {
      "anonymous": false,
      "inputs": [
        {
          "indexed": false,
          "internalType": "address",
          "name": "account",
          "type": "address"
        },
        {
          "indexed": false,
          "internalType": "uint256",
          "name": "lockedCelo",
          "type": "uint256"
        }
      ],
      "name": "LockedStCeloInVoting",
      "type": "event"
    },
    {
      "anonymous": false,
      "inputs": [
        {
          "indexed": true,
          "internalType": "address",
          "name": "manager",
          "type": "address"
        }
      ],
      "name": "ManagerSet",
      "type": "event"
    },
    {
      "anonymous": false,
      "inputs": [
        {
          "indexed": true,
          "internalType": "address",
          "name": "previousOwner",
          "type": "address"
        },
        {
          "indexed": true,
          "internalType": "address",
          "name": "newOwner",
          "type": "address"
        }
      ],
      "name": "OwnershipTransferred",
      "type": "event"
    },
    {
      "anonymous": false,
      "inputs": [
        {
          "indexed": false,
          "internalType": "address",
          "name": "voter",
          "type": "address"
        },
        {
          "indexed": false,
          "internalType": "uint256",
          "name": "proposalId",
          "type": "uint256"
        },
        {
          "indexed": false,
          "internalType": "uint256",
          "name": "yesVotes",
          "type": "uint256"
        },
        {
          "indexed": false,
          "internalType": "uint256",
          "name": "noVotes",
          "type": "uint256"
        },
        {
          "indexed": false,
          "internalType": "uint256",
          "name": "abstainVotes",
          "type": "uint256"
        }
      ],
      "name": "ProposalVoted",
      "type": "event"
    },
    {
      "anonymous": false,
      "inputs": [
        {
          "indexed": true,
          "internalType": "address",
          "name": "implementation",
          "type": "address"
        }
      ],
      "name": "Upgraded",
      "type": "event"
    },
    {
      "inputs": [
        {
          "internalType": "address",
          "name": "beneficiary",
          "type": "address"
        }
      ],
      "name": "getLockedStCeloInVoting",
      "outputs": [
        {
          "internalType": "uint256",
          "name": "lockedAmount",
          "type": "uint256"
        }
      ],
      "stateMutability": "view",
      "type": "function"
    },
    {
      "inputs": [
        {
          "internalType": "uint256",
          "name": "proposalId",
          "type": "uint256"
        }
      ],
      "name": "getProposalTimestamp",
      "outputs": [
        {
          "internalType": "uint256",
          "name": "",
          "type": "uint256"
        }
      ],
      "stateMutability": "view",
      "type": "function"
    },
    {
      "inputs": [
        {
          "internalType": "uint256",
          "name": "proposalId",
          "type": "uint256"
        }
      ],
      "name": "getVoteRecord",
      "outputs": [
        {
          "components": [
            {
              "internalType": "uint256",
              "name": "proposalId",
              "type": "uint256"
            },
            {
              "internalType": "uint256",
              "name": "yesVotes",
              "type": "uint256"
            },
            {
              "internalType": "uint256",
              "name": "noVotes",
              "type": "uint256"
            },
            {
              "internalType": "uint256",
              "name": "abstainVotes",
              "type": "uint256"
            }
          ],
          "internalType": "struct Vote.ProposalVoteRecord",
          "name": "",
          "type": "tuple"
        }
      ],
      "stateMutability": "view",
      "type": "function"
    },
    {
      "inputs": [
        {
          "internalType": "address",
          "name": "beneficiary",
          "type": "address"
        }
      ],
      "name": "getVoteWeight",
      "outputs": [
        {
          "internalType": "uint256",
          "name": "",
          "type": "uint256"
        }
      ],
      "stateMutability": "view",
      "type": "function"
    },
    {
      "inputs": [
        {
          "internalType": "address",
          "name": "voter",
          "type": "address"
        }
      ],
      "name": "getVotedStillRelevantProposals",
      "outputs": [
        {
          "internalType": "uint256[]",
          "name": "",
          "type": "uint256[]"
        }
      ],
      "stateMutability": "view",
      "type": "function"
    },
    {
      "inputs": [
        {
          "internalType": "address",
          "name": "_registry",
          "type": "address"
        },
        {
          "internalType": "address",
          "name": "_owner",
          "type": "address"
        },
        {
          "internalType": "address",
          "name": "_manager",
          "type": "address"
        }
      ],
      "name": "initialize",
      "outputs": [],
      "stateMutability": "nonpayable",
      "type": "function"
    },
    {
      "inputs": [],
      "name": "manager",
      "outputs": [
        {
          "internalType": "address",
          "name": "",
          "type": "address"
        }
      ],
      "stateMutability": "view",
      "type": "function"
    },
    {
      "inputs": [],
      "name": "owner",
      "outputs": [
        {
          "internalType": "address",
          "name": "",
          "type": "address"
        }
      ],
      "stateMutability": "view",
      "type": "function"
    },
    {
      "inputs": [
        {
          "internalType": "uint256",
          "name": "",
          "type": "uint256"
        }
      ],
      "name": "proposalTimestamps",
      "outputs": [
        {
          "internalType": "uint256",
          "name": "",
          "type": "uint256"
        }
      ],
      "stateMutability": "view",
      "type": "function"
    },
    {
      "inputs": [],
      "name": "referendumDuration",
      "outputs": [
        {
          "internalType": "uint256",
          "name": "",
          "type": "uint256"
        }
      ],
      "stateMutability": "view",
      "type": "function"
    },
    {
      "inputs": [],
      "name": "registry",
      "outputs": [
        {
          "internalType": "contract IRegistry",
          "name": "",
          "type": "address"
        }
      ],
      "stateMutability": "view",
      "type": "function"
    },
    {
      "inputs": [],
      "name": "renounceOwnership",
      "outputs": [],
      "stateMutability": "nonpayable",
      "type": "function"
    },
    {
      "inputs": [
        {
          "internalType": "address",
          "name": "accountVoter",
          "type": "address"
        },
        {
          "internalType": "uint256",
          "name": "proposalId",
          "type": "uint256"
        }
      ],
      "name": "revokeVotes",
      "outputs": [
        {
          "internalType": "uint256",
          "name": "totalYesVotes",
          "type": "uint256"
        },
        {
          "internalType": "uint256",
          "name": "totalNoVotes",
          "type": "uint256"
        },
        {
          "internalType": "uint256",
          "name": "totalAbstainVotes",
          "type": "uint256"
        }
      ],
      "stateMutability": "nonpayable",
      "type": "function"
    },
    {
      "inputs": [
        {
          "internalType": "address",
          "name": "_stakedCelo",
          "type": "address"
        },
        {
          "internalType": "address",
          "name": "_account",
          "type": "address"
        }
      ],
      "name": "setDependencies",
      "outputs": [],
      "stateMutability": "nonpayable",
      "type": "function"
    },
    {
      "inputs": [
        {
          "internalType": "address",
          "name": "_manager",
          "type": "address"
        }
      ],
      "name": "setManager",
      "outputs": [],
      "stateMutability": "nonpayable",
      "type": "function"
    },
    {
      "inputs": [],
      "name": "setReferendumDuration",
      "outputs": [],
      "stateMutability": "nonpayable",
      "type": "function"
    },
    {
      "inputs": [
        {
          "internalType": "uint256",
          "name": "stCeloAmount",
          "type": "uint256"
        }
      ],
      "name": "toCelo",
      "outputs": [
        {
          "internalType": "uint256",
          "name": "",
          "type": "uint256"
        }
      ],
      "stateMutability": "view",
      "type": "function"
    },
    {
      "inputs": [
        {
          "internalType": "uint256",
          "name": "celoAmount",
          "type": "uint256"
        }
      ],
      "name": "toStakedCelo",
      "outputs": [
        {
          "internalType": "uint256",
          "name": "",
          "type": "uint256"
        }
      ],
      "stateMutability": "view",
      "type": "function"
    },
    {
      "inputs": [
        {
          "internalType": "address",
          "name": "newOwner",
          "type": "address"
        }
      ],
      "name": "transferOwnership",
      "outputs": [],
      "stateMutability": "nonpayable",
      "type": "function"
    },
    {
      "inputs": [
        {
          "internalType": "address",
          "name": "beneficiary",
          "type": "address"
        }
      ],
      "name": "updateHistoryAndReturnLockedStCeloInVoting",
      "outputs": [
        {
          "internalType": "uint256",
          "name": "lockedAmount",
          "type": "uint256"
        }
      ],
      "stateMutability": "nonpayable",
      "type": "function"
    },
    {
      "inputs": [
        {
          "internalType": "address",
          "name": "newImplementation",
          "type": "address"
        }
      ],
      "name": "upgradeTo",
      "outputs": [],
      "stateMutability": "nonpayable",
      "type": "function"
    },
    {
      "inputs": [
        {
          "internalType": "address",
          "name": "newImplementation",
          "type": "address"
        },
        {
          "internalType": "bytes",
          "name": "data",
          "type": "bytes"
        }
      ],
      "name": "upgradeToAndCall",
      "outputs": [],
      "stateMutability": "payable",
      "type": "function"
    },
    {
      "inputs": [
        {
          "internalType": "address",
          "name": "accountVoter",
          "type": "address"
        },
        {
          "internalType": "uint256",
          "name": "proposalId",
          "type": "uint256"
        },
        {
          "internalType": "uint256",
          "name": "yesVotes",
          "type": "uint256"
        },
        {
          "internalType": "uint256",
          "name": "noVotes",
          "type": "uint256"
        },
        {
          "internalType": "uint256",
          "name": "abstainVotes",
          "type": "uint256"
        }
      ],
      "name": "voteProposal",
      "outputs": [
        {
          "internalType": "uint256",
          "name": "",
          "type": "uint256"
        },
        {
          "internalType": "uint256",
          "name": "totalYesVotes",
          "type": "uint256"
        },
        {
          "internalType": "uint256",
          "name": "totalNoVotes",
          "type": "uint256"
        },
        {
          "internalType": "uint256",
          "name": "totalAbstainVotes",
          "type": "uint256"
        }
      ],
      "stateMutability": "nonpayable",
      "type": "function"
    }
  ],
  "transactionHash": "0xd7fcff18f66c8d51ca324e9df633b341eeb05c1564eb216be926a2291c5fe393",
  "args": [],
  "numDeployments": 1,
  "solcInputHash": "0d26545ee0477243a864c9acbc608396",
  "bytecode": "0x60a06040523073ffffffffffffffffffffffffffffffffffffffff1660809073ffffffffffffffffffffffffffffffffffffffff1681525034801561004357600080fd5b50608051613ac4610074600039600081816109c901528181610a580152818161142001526114af0152613ac46000f3fe6080604052600436106101405760003560e01c8063715018a6116100b6578063c40da15c1161006f578063c40da15c1461049e578063c494ec1e146104dd578063cd12e5931461051a578063d0ebdbe714610531578063e87c28a71461055a578063f2fde38b1461058357610140565b8063715018a61461038e5780637b103999146103a55780638da5cb5b146103d0578063a730117e146103fb578063abaaecf914610438578063c0c53b8b1461047557610140565b80633659cfe6116101085780633659cfe614610276578063414327311461029f578063481c6a75146102ca57806348fd6ea6146102f55780634c23f22e146103325780634f1ef2861461037257610140565b80630567847f146101455780630d526b9614610182578063121634e8146101bf5780632488d909146101fc5780633127ce3214610239575b600080fd5b34801561015157600080fd5b5061016c60048036038101906101679190612876565b6105ac565b60405161017991906128b2565b60405180910390f35b34801561018e57600080fd5b506101a960048036038101906101a49190612876565b610716565b6040516101b691906128b2565b60405180910390f35b3480156101cb57600080fd5b506101e660048036038101906101e1919061292b565b6107ae565b6040516101f391906128b2565b60405180910390f35b34801561020857600080fd5b50610223600480360381019061021e9190612876565b6108d8565b60405161023091906129bc565b60405180910390f35b34801561024557600080fd5b50610260600480360381019061025b919061292b565b61092d565b60405161026d9190612a86565b60405180910390f35b34801561028257600080fd5b5061029d6004803603810190610298919061292b565b6109c7565b005b3480156102ab57600080fd5b506102b4610b50565b6040516102c191906128b2565b60405180910390f35b3480156102d657600080fd5b506102df610b56565b6040516102ec9190612ab7565b60405180910390f35b34801561030157600080fd5b5061031c6004803603810190610317919061292b565b610b7c565b60405161032991906128b2565b60405180910390f35b34801561033e57600080fd5b5061035960048036038101906103549190612ad2565b610e98565b6040516103699493929190612b4d565b60405180910390f35b61038c60048036038101906103879190612cd8565b61141e565b005b34801561039a57600080fd5b506103a361155b565b005b3480156103b157600080fd5b506103ba6115e3565b6040516103c79190612d93565b60405180910390f35b3480156103dc57600080fd5b506103e5611609565b6040516103f29190612ab7565b60405180910390f35b34801561040757600080fd5b50610422600480360381019061041d919061292b565b611633565b60405161042f91906128b2565b60405180910390f35b34801561044457600080fd5b5061045f600480360381019061045a9190612876565b6116e5565b60405161046c91906128b2565b60405180910390f35b34801561048157600080fd5b5061049c60048036038101906104979190612dae565b6116fd565b005b3480156104aa57600080fd5b506104c560048036038101906104c09190612e01565b611807565b6040516104d493929190612e41565b60405180910390f35b3480156104e957600080fd5b5061050460048036038101906104ff9190612876565b6118c4565b60405161051191906128b2565b60405180910390f35b34801561052657600080fd5b5061052f611a2e565b005b34801561053d57600080fd5b506105586004803603810190610553919061292b565b611b2e565b005b34801561056657600080fd5b50610581600480360381019061057c9190612e78565b611bb6565b005b34801561058f57600080fd5b506105aa60048036038101906105a5919061292b565b611d98565b005b600080606760009054906101000a900473ffffffffffffffffffffffffffffffffffffffff1673ffffffffffffffffffffffffffffffffffffffff166318160ddd6040518163ffffffff1660e01b8152600401602060405180830381865afa15801561061c573d6000803e3d6000fd5b505050506040513d601f19601f820116820180604052508101906106409190612ecd565b90506000606860009054906101000a900473ffffffffffffffffffffffffffffffffffffffff1673ffffffffffffffffffffffffffffffffffffffff166301d2b6ea6040518163ffffffff1660e01b8152600401602060405180830381865afa1580156106b1573d6000803e3d6000fd5b505050506040513d601f19601f820116820180604052508101906106d59190612ecd565b905060008214806106e65750600081145b156106f5578392505050610711565b8181856107029190612f29565b61070c9190612fb2565b925050505b919050565b600080610721611e90565b73ffffffffffffffffffffffffffffffffffffffff1663c7f758a8846040518263ffffffff1660e01b815260040161075991906128b2565b600060405180830381865afa158015610776573d6000803e3d6000fd5b505050506040513d6000823e3d601f19601f8201168201806040525081019061079f91906130cc565b50509250505080915050919050565b600080606a60008473ffffffffffffffffffffffffffffffffffffffff1673ffffffffffffffffffffffffffffffffffffffff16815260200190815260200160002090506000816001018054905090505b60008111156108c6576000826001018261081890613163565b9250828154811061082c5761082b61318d565b5b906000526020600020015490506000606b600083815260200190815260200160002054905060008114156108615750506107ff565b606c548161086f91906131bc565b4210156108bf57600084600001600084815260200190815260200160002090506108bb868260030154836002015484600101546108ac91906131bc565b6108b691906131bc565b611f57565b9550505b50506107ff565b6108cf836118c4565b92505050919050565b6108e0612804565b606960008381526020019081526020016000206040518060800160405290816000820154815260200160018201548152602001600282015481526020016003820154815250509050919050565b6060606a60008373ffffffffffffffffffffffffffffffffffffffff1673ffffffffffffffffffffffffffffffffffffffff1681526020019081526020016000206001018054806020026020016040519081016040528092919081815260200182805480156109bb57602002820191906000526020600020905b8154815260200190600101908083116109a7575b50505050509050919050565b7f000000000000000000000000000000000000000000000000000000000000000073ffffffffffffffffffffffffffffffffffffffff163073ffffffffffffffffffffffffffffffffffffffff161415610a56576040517f08c379a0000000000000000000000000000000000000000000000000000000008152600401610a4d90613295565b60405180910390fd5b7f000000000000000000000000000000000000000000000000000000000000000073ffffffffffffffffffffffffffffffffffffffff16610a95611f71565b73ffffffffffffffffffffffffffffffffffffffff1614610aeb576040517f08c379a0000000000000000000000000000000000000000000000000000000008152600401610ae290613327565b60405180910390fd5b610af481611fc8565b610b4d81600067ffffffffffffffff811115610b1357610b12612bad565b5b6040519080825280601f01601f191660200182016040528015610b455781602001600182028036833780820191505090505b506000612047565b50565b606c5481565b606660009054906101000a900473ffffffffffffffffffffffffffffffffffffffff1681565b60003373ffffffffffffffffffffffffffffffffffffffff16606660009054906101000a900473ffffffffffffffffffffffffffffffffffffffff1673ffffffffffffffffffffffffffffffffffffffff1614610c1057336040517f3b2495f1000000000000000000000000000000000000000000000000000000008152600401610c079190612ab7565b60405180910390fd5b6000606a60008473ffffffffffffffffffffffffffffffffffffffff1673ffffffffffffffffffffffffffffffffffffffff16815260200190815260200160002090506000816001018054905090505b6000811115610e475760008260010182610c7990613163565b92508281548110610c8d57610c8c61318d565b5b906000526020600020015490506000606b60008381526020019081526020016000205490506000811415610d44578360010160018560010180549050610cd39190613347565b81548110610ce457610ce361318d565b5b9060005260206000200154846001018481548110610d0557610d0461318d565b5b906000526020600020018190555083600101805480610d2757610d2661337b565b5b600190038181906000526020600020016000905590555050610c60565b606c5481610d5291906131bc565b421015610da65760008460000160008481526020019081526020016000209050610d9e86826003015483600201548460010154610d8f91906131bc565b610d9991906131bc565b611f57565b955050610e40565b8360010160018560010180549050610dbe9190613347565b81548110610dcf57610dce61318d565b5b9060005260206000200154846001018481548110610df057610def61318d565b5b906000526020600020018190555083600101805480610e1257610e1161337b565b5b60019003818190600052602060002001600090559055606b6000838152602001908152602001600020600090555b5050610c60565b6000610e52846118c4565b90507f7c6f785c69c2af01e80f58e72c654a146308c1a70e15028f45ac1d98b08303888582604051610e859291906133aa565b60405180910390a1809350505050919050565b6000806000803373ffffffffffffffffffffffffffffffffffffffff16606660009054906101000a900473ffffffffffffffffffffffffffffffffffffffff1673ffffffffffffffffffffffffffffffffffffffff1614610f3057336040517f3b2495f1000000000000000000000000000000000000000000000000000000008152600401610f279190612ab7565b60405180910390fd5b6000606760009054906101000a900473ffffffffffffffffffffffffffffffffffffffff1673ffffffffffffffffffffffffffffffffffffffff1663536a5f278b6040518263ffffffff1660e01b8152600401610f8d9190612ab7565b602060405180830381865afa158015610faa573d6000803e3d6000fd5b505050506040513d601f19601f82011682018060405250810190610fce9190612ecd565b606760009054906101000a900473ffffffffffffffffffffffffffffffffffffffff1673ffffffffffffffffffffffffffffffffffffffff166370a082318c6040518263ffffffff1660e01b81526004016110299190612ab7565b602060405180830381865afa158015611046573d6000803e3d6000fd5b505050506040513d601f19601f8201168201806040525081019061106a9190612ecd565b61107491906131bc565b905060008114156110bc57896040517f09835c4f0000000000000000000000000000000000000000000000000000000081526004016110b39190612ab7565b60405180910390fd5b600086888a6110cb91906131bc565b6110d591906131bc565b90506110e0826105ac565b811115611124578a6040517f25becec400000000000000000000000000000000000000000000000000000000815260040161111b9190612ab7565b60405180910390fd5b6000606a60008d73ffffffffffffffffffffffffffffffffffffffff1673ffffffffffffffffffffffffffffffffffffffff168152602001908152602001600020905060008160000160008d815260200190815260200160002090506000606960008e815260200190815260200160002060405180608001604052908160008201548152602001600182015481526020016002820154815260200160038201548152505090508160010154816020018181516111e09190613347565b915081815250508160020154816040018181516111fd9190613347565b9150818152505081600301548160600181815161121a9190613347565b915081815250508b8160200181815161123391906131bc565b915081815250508a8160400181815161124c91906131bc565b91508181525050898160600181815161126591906131bc565b9150818152505060405180608001604052808e815260200182602001518152602001826040015181526020018260600151815250606960008f81526020019081526020016000206000820151816000015560208201518160010155604082015181600201556060820151816003015590505060008260000154141561131057826001018d90806001815401808255809150506001900390600052602060002001600090919091909150555b60405180608001604052808e81526020018d81526020018c81526020018b8152508360000160008f8152602001908152602001600020600082015181600001556020820151816001015560408201518160020155606082015181600301559050507fccddc503efe2d90a6cc16414e99fd2826fd7d72313194d217e36278c0905f9438e8e8e8e8e6040516113a89594939291906133d3565b60405180910390a16000606b60008f81526020019081526020016000205414156113ed576113d58d610716565b606b60008f8152602001908152602001600020819055505b6113f6846118c4565b8160200151826040015183606001519850985098509850505050505095509550955095915050565b7f000000000000000000000000000000000000000000000000000000000000000073ffffffffffffffffffffffffffffffffffffffff163073ffffffffffffffffffffffffffffffffffffffff1614156114ad576040517f08c379a00000000000000000000000000000000000000000000000000000000081526004016114a490613295565b60405180910390fd5b7f000000000000000000000000000000000000000000000000000000000000000073ffffffffffffffffffffffffffffffffffffffff166114ec611f71565b73ffffffffffffffffffffffffffffffffffffffff1614611542576040517f08c379a000000000000000000000000000000000000000000000000000000000815260040161153990613327565b60405180910390fd5b61154b82611fc8565b61155782826001612047565b5050565b611563612218565b73ffffffffffffffffffffffffffffffffffffffff16611581611609565b73ffffffffffffffffffffffffffffffffffffffff16146115d7576040517f08c379a00000000000000000000000000000000000000000000000000000000081526004016115ce90613472565b60405180910390fd5b6115e16000612220565b565b606560009054906101000a900473ffffffffffffffffffffffffffffffffffffffff1681565b6000603360009054906101000a900473ffffffffffffffffffffffffffffffffffffffff16905090565b600080606760009054906101000a900473ffffffffffffffffffffffffffffffffffffffff1673ffffffffffffffffffffffffffffffffffffffff166370a08231846040518263ffffffff1660e01b81526004016116919190612ab7565b602060405180830381865afa1580156116ae573d6000803e3d6000fd5b505050506040513d601f19601f820116820180604052508101906116d29190612ecd565b90506116dd816105ac565b915050919050565b606b6020528060005260406000206000915090505481565b600060019054906101000a900460ff166117255760008054906101000a900460ff161561172e565b61172d6122e6565b5b61176d576040517f08c379a000000000000000000000000000000000000000000000000000000000815260040161176490613504565b60405180910390fd5b60008060019054906101000a900460ff1615905080156117bd576001600060016101000a81548160ff02191690831515021790555060016000806101000a81548160ff0219169083151502179055505b6117c6846122f7565b6117cf82612408565b6117d883612220565b6117e0611a2e565b80156118015760008060016101000a81548160ff0219169083151502179055505b50505050565b60008060003373ffffffffffffffffffffffffffffffffffffffff16606660009054906101000a900473ffffffffffffffffffffffffffffffffffffffff1673ffffffffffffffffffffffffffffffffffffffff161461189e57336040517f3b2495f10000000000000000000000000000000000000000000000000000000081526004016118959190612ab7565b60405180910390fd5b6118ad85856000806000610e98565b909192508093508194508295505050509250925092565b600080606760009054906101000a900473ffffffffffffffffffffffffffffffffffffffff1673ffffffffffffffffffffffffffffffffffffffff166318160ddd6040518163ffffffff1660e01b8152600401602060405180830381865afa158015611934573d6000803e3d6000fd5b505050506040513d601f19601f820116820180604052508101906119589190612ecd565b90506000606860009054906101000a900473ffffffffffffffffffffffffffffffffffffffff1673ffffffffffffffffffffffffffffffffffffffff166301d2b6ea6040518163ffffffff1660e01b8152600401602060405180830381865afa1580156119c9573d6000803e3d6000fd5b505050506040513d601f19601f820116820180604052508101906119ed9190612ecd565b905060008214806119fe5750600081145b15611a0d578392505050611a29565b808285611a1a9190612f29565b611a249190612fb2565b925050505b919050565b611a36612218565b73ffffffffffffffffffffffffffffffffffffffff16611a54611609565b73ffffffffffffffffffffffffffffffffffffffff1614611aaa576040517f08c379a0000000000000000000000000000000000000000000000000000000008152600401611aa190613472565b60405180910390fd5b6000611ab4611e90565b73ffffffffffffffffffffffffffffffffffffffff1663ad78c1096040518163ffffffff1660e01b8152600401602060405180830381865afa158015611afe573d6000803e3d6000fd5b505050506040513d601f19601f82011682018060405250810190611b229190612ecd565b905080606c8190555050565b611b36612218565b73ffffffffffffffffffffffffffffffffffffffff16611b54611609565b73ffffffffffffffffffffffffffffffffffffffff1614611baa576040517f08c379a0000000000000000000000000000000000000000000000000000000008152600401611ba190613472565b60405180910390fd5b611bb381612463565b50565b611bbe612218565b73ffffffffffffffffffffffffffffffffffffffff16611bdc611609565b73ffffffffffffffffffffffffffffffffffffffff1614611c32576040517f08c379a0000000000000000000000000000000000000000000000000000000008152600401611c2990613472565b60405180910390fd5b600073ffffffffffffffffffffffffffffffffffffffff168273ffffffffffffffffffffffffffffffffffffffff161415611ca2576040517f08c379a0000000000000000000000000000000000000000000000000000000008152600401611c9990613570565b60405180910390fd5b600073ffffffffffffffffffffffffffffffffffffffff168173ffffffffffffffffffffffffffffffffffffffff161415611d12576040517f08c379a0000000000000000000000000000000000000000000000000000000008152600401611d09906135dc565b60405180910390fd5b81606760006101000a81548173ffffffffffffffffffffffffffffffffffffffff021916908373ffffffffffffffffffffffffffffffffffffffff16021790555080606860006101000a81548173ffffffffffffffffffffffffffffffffffffffff021916908373ffffffffffffffffffffffffffffffffffffffff1602179055505050565b611da0612218565b73ffffffffffffffffffffffffffffffffffffffff16611dbe611609565b73ffffffffffffffffffffffffffffffffffffffff1614611e14576040517f08c379a0000000000000000000000000000000000000000000000000000000008152600401611e0b90613472565b60405180910390fd5b600073ffffffffffffffffffffffffffffffffffffffff168173ffffffffffffffffffffffffffffffffffffffff161415611e84576040517f08c379a0000000000000000000000000000000000000000000000000000000008152600401611e7b9061366e565b60405180910390fd5b611e8d81612220565b50565b6000606560009054906101000a900473ffffffffffffffffffffffffffffffffffffffff1673ffffffffffffffffffffffffffffffffffffffff1663dcf0aaed604051602001611edf906136e5565b604051602081830303815290604052805190602001206040518263ffffffff1660e01b8152600401611f119190613713565b602060405180830381865afa158015611f2e573d6000803e3d6000fd5b505050506040513d601f19601f82011682018060405250810190611f52919061372e565b905090565b600081831015611f675781611f69565b825b905092915050565b6000611f9f7f360894a13ba1a3210667c828492db98dca3e2076cc3735a920a3ca505d382bbc60001b612551565b60000160009054906101000a900473ffffffffffffffffffffffffffffffffffffffff16905090565b611fd0612218565b73ffffffffffffffffffffffffffffffffffffffff16611fee611609565b73ffffffffffffffffffffffffffffffffffffffff1614612044576040517f08c379a000000000000000000000000000000000000000000000000000000000815260040161203b90613472565b60405180910390fd5b50565b6000612051611f71565b905061205c8461255b565b6000835111806120695750815b1561207a576120788484612614565b505b60006120a87f4910fdfa16fed3260ed0e7147f7cc6da11a60208b5b9406d12a635614ffd914360001b612641565b90508060000160009054906101000a900460ff166122115760018160000160006101000a81548160ff02191690831515021790555061217485836040516024016120f29190612ab7565b6040516020818303038152906040527f3659cfe6000000000000000000000000000000000000000000000000000000007bffffffffffffffffffffffffffffffffffffffffffffffffffffffff19166020820180517bffffffffffffffffffffffffffffffffffffffffffffffffffffffff8381831617835250505050612614565b5060008160000160006101000a81548160ff02191690831515021790555061219a611f71565b73ffffffffffffffffffffffffffffffffffffffff168273ffffffffffffffffffffffffffffffffffffffff1614612207576040517f08c379a00000000000000000000000000000000000000000000000000000000081526004016121fe906137cd565b60405180910390fd5b6122108561264b565b5b5050505050565b600033905090565b6000603360009054906101000a900473ffffffffffffffffffffffffffffffffffffffff16905081603360006101000a81548173ffffffffffffffffffffffffffffffffffffffff021916908373ffffffffffffffffffffffffffffffffffffffff1602179055508173ffffffffffffffffffffffffffffffffffffffff168173ffffffffffffffffffffffffffffffffffffffff167f8be0079c531659141344cd1fd0a4f28419497f9722a3daafe3b4186f6b6457e060405160405180910390a35050565b60006122f13061269a565b15905090565b600060019054906101000a900460ff16612346576040517f08c379a000000000000000000000000000000000000000000000000000000000815260040161233d9061385f565b60405180910390fd5b600073ffffffffffffffffffffffffffffffffffffffff168173ffffffffffffffffffffffffffffffffffffffff1614156123c35761ce10606560006101000a81548173ffffffffffffffffffffffffffffffffffffffff021916908373ffffffffffffffffffffffffffffffffffffffff160217905550612405565b80606560006101000a81548173ffffffffffffffffffffffffffffffffffffffff021916908373ffffffffffffffffffffffffffffffffffffffff1602179055505b50565b600060019054906101000a900460ff16612457576040517f08c379a000000000000000000000000000000000000000000000000000000000815260040161244e9061385f565b60405180910390fd5b61246081612463565b50565b600073ffffffffffffffffffffffffffffffffffffffff168173ffffffffffffffffffffffffffffffffffffffff1614156124ca576040517fe99d5ac500000000000000000000000000000000000000000000000000000000815260040160405180910390fd5b80606660006101000a81548173ffffffffffffffffffffffffffffffffffffffff021916908373ffffffffffffffffffffffffffffffffffffffff1602179055508073ffffffffffffffffffffffffffffffffffffffff167f60a0f5b9f9e81e98216071b85826681c796256fe3d1354ecb675580fba64fa6960405160405180910390a250565b6000819050919050565b612564816126bd565b6125a3576040517f08c379a000000000000000000000000000000000000000000000000000000000815260040161259a906138f1565b60405180910390fd5b806125d07f360894a13ba1a3210667c828492db98dca3e2076cc3735a920a3ca505d382bbc60001b612551565b60000160006101000a81548173ffffffffffffffffffffffffffffffffffffffff021916908373ffffffffffffffffffffffffffffffffffffffff16021790555050565b60606126398383604051806060016040528060278152602001613a68602791396126d0565b905092915050565b6000819050919050565b6126548161255b565b8073ffffffffffffffffffffffffffffffffffffffff167fbc7cd75a20ee27fd9adebab32041f755214dbc6bffa90cc0225b39da2e5c2d3b60405160405180910390a250565b6000808273ffffffffffffffffffffffffffffffffffffffff163b119050919050565b600080823b905060008111915050919050565b60606126db846126bd565b61271a576040517f08c379a000000000000000000000000000000000000000000000000000000000815260040161271190613983565b60405180910390fd5b6000808573ffffffffffffffffffffffffffffffffffffffff168560405161274291906139ea565b600060405180830381855af49150503d806000811461277d576040519150601f19603f3d011682016040523d82523d6000602084013e612782565b606091505b509150915061279282828661279d565b925050509392505050565b606083156127ad578290506127fd565b6000835111156127c05782518084602001fd5b816040517f08c379a00000000000000000000000000000000000000000000000000000000081526004016127f49190613a45565b60405180910390fd5b9392505050565b6040518060800160405280600081526020016000815260200160008152602001600081525090565b6000604051905090565b600080fd5b600080fd5b6000819050919050565b61285381612840565b811461285e57600080fd5b50565b6000813590506128708161284a565b92915050565b60006020828403121561288c5761288b612836565b5b600061289a84828501612861565b91505092915050565b6128ac81612840565b82525050565b60006020820190506128c760008301846128a3565b92915050565b600073ffffffffffffffffffffffffffffffffffffffff82169050919050565b60006128f8826128cd565b9050919050565b612908816128ed565b811461291357600080fd5b50565b600081359050612925816128ff565b92915050565b60006020828403121561294157612940612836565b5b600061294f84828501612916565b91505092915050565b61296181612840565b82525050565b60808201600082015161297d6000850182612958565b5060208201516129906020850182612958565b5060408201516129a36040850182612958565b5060608201516129b66060850182612958565b50505050565b60006080820190506129d16000830184612967565b92915050565b600081519050919050565b600082825260208201905092915050565b6000819050602082019050919050565b6000612a0f8383612958565b60208301905092915050565b6000602082019050919050565b6000612a33826129d7565b612a3d81856129e2565b9350612a48836129f3565b8060005b83811015612a79578151612a608882612a03565b9750612a6b83612a1b565b925050600181019050612a4c565b5085935050505092915050565b60006020820190508181036000830152612aa08184612a28565b905092915050565b612ab1816128ed565b82525050565b6000602082019050612acc6000830184612aa8565b92915050565b600080600080600060a08688031215612aee57612aed612836565b5b6000612afc88828901612916565b9550506020612b0d88828901612861565b9450506040612b1e88828901612861565b9350506060612b2f88828901612861565b9250506080612b4088828901612861565b9150509295509295909350565b6000608082019050612b6260008301876128a3565b612b6f60208301866128a3565b612b7c60408301856128a3565b612b8960608301846128a3565b95945050505050565b600080fd5b600080fd5b6000601f19601f8301169050919050565b7f4e487b7100000000000000000000000000000000000000000000000000000000600052604160045260246000fd5b612be582612b9c565b810181811067ffffffffffffffff82111715612c0457612c03612bad565b5b80604052505050565b6000612c1761282c565b9050612c238282612bdc565b919050565b600067ffffffffffffffff821115612c4357612c42612bad565b5b612c4c82612b9c565b9050602081019050919050565b82818337600083830152505050565b6000612c7b612c7684612c28565b612c0d565b905082815260208101848484011115612c9757612c96612b97565b5b612ca2848285612c59565b509392505050565b600082601f830112612cbf57612cbe612b92565b5b8135612ccf848260208601612c68565b91505092915050565b60008060408385031215612cef57612cee612836565b5b6000612cfd85828601612916565b925050602083013567ffffffffffffffff811115612d1e57612d1d61283b565b5b612d2a85828601612caa565b9150509250929050565b6000819050919050565b6000612d59612d54612d4f846128cd565b612d34565b6128cd565b9050919050565b6000612d6b82612d3e565b9050919050565b6000612d7d82612d60565b9050919050565b612d8d81612d72565b82525050565b6000602082019050612da86000830184612d84565b92915050565b600080600060608486031215612dc757612dc6612836565b5b6000612dd586828701612916565b9350506020612de686828701612916565b9250506040612df786828701612916565b9150509250925092565b60008060408385031215612e1857612e17612836565b5b6000612e2685828601612916565b9250506020612e3785828601612861565b9150509250929050565b6000606082019050612e5660008301866128a3565b612e6360208301856128a3565b612e7060408301846128a3565b949350505050565b60008060408385031215612e8f57612e8e612836565b5b6000612e9d85828601612916565b9250506020612eae85828601612916565b9150509250929050565b600081519050612ec78161284a565b92915050565b600060208284031215612ee357612ee2612836565b5b6000612ef184828501612eb8565b91505092915050565b7f4e487b7100000000000000000000000000000000000000000000000000000000600052601160045260246000fd5b6000612f3482612840565b9150612f3f83612840565b9250817fffffffffffffffffffffffffffffffffffffffffffffffffffffffffffffffff0483118215151615612f7857612f77612efa565b5b828202905092915050565b7f4e487b7100000000000000000000000000000000000000000000000000000000600052601260045260246000fd5b6000612fbd82612840565b9150612fc883612840565b925082612fd857612fd7612f83565b5b828204905092915050565b600081519050612ff2816128ff565b92915050565b600067ffffffffffffffff82111561301357613012612bad565b5b61301c82612b9c565b9050602081019050919050565b60005b8381101561304757808201518184015260208101905061302c565b83811115613056576000848401525b50505050565b600061306f61306a84612ff8565b612c0d565b90508281526020810184848401111561308b5761308a612b97565b5b613096848285613029565b509392505050565b600082601f8301126130b3576130b2612b92565b5b81516130c384826020860161305c565b91505092915050565b600080600080600060a086880312156130e8576130e7612836565b5b60006130f688828901612fe3565b955050602061310788828901612eb8565b945050604061311888828901612eb8565b935050606061312988828901612eb8565b925050608086015167ffffffffffffffff81111561314a5761314961283b565b5b6131568882890161309e565b9150509295509295909350565b600061316e82612840565b9150600082141561318257613181612efa565b5b600182039050919050565b7f4e487b7100000000000000000000000000000000000000000000000000000000600052603260045260246000fd5b60006131c782612840565b91506131d283612840565b9250827fffffffffffffffffffffffffffffffffffffffffffffffffffffffffffffffff0382111561320757613206612efa565b5b828201905092915050565b600082825260208201905092915050565b7f46756e6374696f6e206d7573742062652063616c6c6564207468726f7567682060008201527f64656c656761746563616c6c0000000000000000000000000000000000000000602082015250565b600061327f602c83613212565b915061328a82613223565b604082019050919050565b600060208201905081810360008301526132ae81613272565b9050919050565b7f46756e6374696f6e206d7573742062652063616c6c6564207468726f7567682060008201527f6163746976652070726f78790000000000000000000000000000000000000000602082015250565b6000613311602c83613212565b915061331c826132b5565b604082019050919050565b6000602082019050818103600083015261334081613304565b9050919050565b600061335282612840565b915061335d83612840565b9250828210156133705761336f612efa565b5b828203905092915050565b7f4e487b7100000000000000000000000000000000000000000000000000000000600052603160045260246000fd5b60006040820190506133bf6000830185612aa8565b6133cc60208301846128a3565b9392505050565b600060a0820190506133e86000830188612aa8565b6133f560208301876128a3565b61340260408301866128a3565b61340f60608301856128a3565b61341c60808301846128a3565b9695505050505050565b7f4f776e61626c653a2063616c6c6572206973206e6f7420746865206f776e6572600082015250565b600061345c602083613212565b915061346782613426565b602082019050919050565b6000602082019050818103600083015261348b8161344f565b9050919050565b7f496e697469616c697a61626c653a20636f6e747261637420697320616c72656160008201527f647920696e697469616c697a6564000000000000000000000000000000000000602082015250565b60006134ee602e83613212565b91506134f982613492565b604082019050919050565b6000602082019050818103600083015261351d816134e1565b9050919050565b7f7374616b656443656c6f206e756c6c2061646472657373000000000000000000600082015250565b600061355a601783613212565b915061356582613524565b602082019050919050565b600060208201905081810360008301526135898161354d565b9050919050565b7f6163636f756e74206e756c6c2061646472657373000000000000000000000000600082015250565b60006135c6601483613212565b91506135d182613590565b602082019050919050565b600060208201905081810360008301526135f5816135b9565b9050919050565b7f4f776e61626c653a206e6577206f776e657220697320746865207a65726f206160008201527f6464726573730000000000000000000000000000000000000000000000000000602082015250565b6000613658602683613212565b9150613663826135fc565b604082019050919050565b600060208201905081810360008301526136878161364b565b9050919050565b600081905092915050565b7f476f7665726e616e636500000000000000000000000000000000000000000000600082015250565b60006136cf600a8361368e565b91506136da82613699565b600a82019050919050565b60006136f0826136c2565b9150819050919050565b6000819050919050565b61370d816136fa565b82525050565b60006020820190506137286000830184613704565b92915050565b60006020828403121561374457613743612836565b5b600061375284828501612fe3565b91505092915050565b7f45524331393637557067726164653a207570677261646520627265616b73206660008201527f7572746865722075706772616465730000000000000000000000000000000000602082015250565b60006137b7602f83613212565b91506137c28261375b565b604082019050919050565b600060208201905081810360008301526137e6816137aa565b9050919050565b7f496e697469616c697a61626c653a20636f6e7472616374206973206e6f74206960008201527f6e697469616c697a696e67000000000000000000000000000000000000000000602082015250565b6000613849602b83613212565b9150613854826137ed565b604082019050919050565b600060208201905081810360008301526138788161383c565b9050919050565b7f455243313936373a206e657720696d706c656d656e746174696f6e206973206e60008201527f6f74206120636f6e747261637400000000000000000000000000000000000000602082015250565b60006138db602d83613212565b91506138e68261387f565b604082019050919050565b6000602082019050818103600083015261390a816138ce565b9050919050565b7f416464726573733a2064656c65676174652063616c6c20746f206e6f6e2d636f60008201527f6e74726163740000000000000000000000000000000000000000000000000000602082015250565b600061396d602683613212565b915061397882613911565b604082019050919050565b6000602082019050818103600083015261399c81613960565b9050919050565b600081519050919050565b600081905092915050565b60006139c4826139a3565b6139ce81856139ae565b93506139de818560208601613029565b80840191505092915050565b60006139f682846139b9565b915081905092915050565b600081519050919050565b6000613a1782613a01565b613a218185613212565b9350613a31818560208601613029565b613a3a81612b9c565b840191505092915050565b60006020820190508181036000830152613a5f8184613a0c565b90509291505056fe416464726573733a206c6f772d6c6576656c2064656c65676174652063616c6c206661696c6564a2646970667358221220d00213211ac8a13cb7a4ca5a14e70f180b512a8c5864c07cb9564aacc8d3ca8364736f6c634300080b0033",
  "devdoc": {
    "errors": {
      "CallerNotManager(address)": [
        {
          "params": {
            "caller": "`msg.sender` that called the function."
          }
        }
      ],
      "NoStakedCelo(address)": [
        {
          "params": {
            "account": "The account's address."
          }
        }
      ],
      "NotEnoughStakedCelo(address)": [
        {
          "params": {
            "account": "The account's address."
          }
        }
      ]
    },
    "events": {
      "LockedStCeloInVoting(address,uint256)": {
        "params": {
          "account": "The account's address.",
          "lockedCelo": "The stCELO that is still being locked."
        }
      },
      "ProposalVoted(address,uint256,uint256,uint256,uint256)": {
        "params": {
          "abstainVotes": "The abstain votes.",
          "noVotes": "The no votes.",
          "proposalId": "The proposal UIID.",
          "voter": "The voter's address.",
          "yesVotes": "The yes votes."
        }
      }
    },
    "kind": "dev",
    "methods": {
      "getLockedStCeloInVoting(address)": {
        "params": {
          "beneficiary": "The account."
        }
      },
      "getProposalTimestamp(uint256)": {
        "params": {
          "proposalId": "The proposal UUID."
        },
        "returns": {
          "_0": "The timestamp of proposal."
        }
      },
      "getVoteRecord(uint256)": {
        "params": {
          "proposalId": "The proposal UUID."
        }
      },
      "getVoteWeight(address)": {
        "params": {
          "beneficiary": "The account."
        }
      },
      "getVotedStillRelevantProposals(address)": {
        "params": {
          "voter": "The voter."
        },
        "returns": {
          "_0": "Proposals in referendum stage. (For up to date result call updateHistoryAndReturnLockedStCeloInVoting first)"
        }
      },
      "initialize(address,address,address)": {
        "params": {
          "_manager": "The address of the contract manager.",
          "_owner": "The address of the contract owner.",
          "_registry": "The address of the Celo registry."
        }
      },
      "owner()": {
        "details": "Returns the address of the current owner."
      },
      "renounceOwnership()": {
        "details": "Leaves the contract without owner. It will not be possible to call `onlyOwner` functions anymore. Can only be called by the current owner. NOTE: Renouncing ownership will leave the contract without an owner, thereby removing any functionality that is only available to the owner."
      },
      "revokeVotes(address,uint256)": {
        "params": {
          "accountVoter": "The account that is voting.",
          "proposalId": "The ID of the proposal to vote on."
        },
        "returns": {
          "totalAbstainVotes": "SUM of all AccountContract abstain votes for proposal.",
          "totalNoVotes": "SUM of all AccountContract no votes for proposal.",
          "totalYesVotes": "SUM of all AccountContract yes votes for proposal."
        }
      },
      "setDependencies(address,address)": {
        "details": "Manager, Account and StakedCelo all reference each other so we need a way of setting these after all contracts are deployed and initialized.",
        "params": {
          "_account": "The address of the Account contract.",
          "_stakedCelo": "the address of the StakedCelo contract."
        }
      },
      "setManager(address)": {
        "params": {
          "_manager": "The new manager address."
        }
      },
      "toCelo(uint256)": {
        "params": {
          "stCeloAmount": "The amount of stCELO burned."
        },
        "returns": {
          "_0": "The amount of CELO that should be withdrawn."
        }
      },
      "toStakedCelo(uint256)": {
        "params": {
          "celoAmount": "The amount of CELO deposited."
        },
        "returns": {
          "_0": "The amount of stCELO that should be minted."
        }
      },
      "transferOwnership(address)": {
        "details": "Transfers ownership of the contract to a new account (`newOwner`). Can only be called by the current owner."
      },
      "updateHistoryAndReturnLockedStCeloInVoting(address)": {
        "params": {
          "beneficiary": "The beneficiary."
        }
      },
      "upgradeTo(address)": {
        "details": "Upgrade the implementation of the proxy to `newImplementation`. Calls {_authorizeUpgrade}. Emits an {Upgraded} event."
      },
      "upgradeToAndCall(address,bytes)": {
        "details": "Upgrade the implementation of the proxy to `newImplementation`, and subsequently execute the function call encoded in `data`. Calls {_authorizeUpgrade}. Emits an {Upgraded} event."
      },
      "voteProposal(address,uint256,uint256,uint256,uint256)": {
        "params": {
          "abstainVotes": "The abstain votes weight.",
          "accountVoter": "The account that is voting.",
          "noVotes": "The no votes weight.",
          "proposalId": "The ID of the proposal to vote on.",
          "yesVotes": "The yes votes weight."
        },
        "returns": {
          "_0": "totalWeights Account's staked celo balance.",
          "totalAbstainVotes": "SUM of all AccountContract abstain votes for proposal.",
          "totalNoVotes": "SUM of all AccountContract no votes for proposal.",
          "totalYesVotes": "SUM of all AccountContract yes votes for proposal."
        }
      }
    },
    "version": 1
  },
  "userdoc": {
    "errors": {
      "CallerNotManager(address)": [
        {
          "notice": "Used when an `onlyManager` function is called by a non-manager."
        }
      ],
      "NoStakedCelo(address)": [
        {
          "notice": "Used when attempting to vote when there is no stCelo."
        }
      ],
      "NotEnoughStakedCelo(address)": [
        {
          "notice": "Used when attempting to vote when there is not enough of stCelo."
        }
      ],
      "NullAddress()": [
        {
          "notice": "Used when a passed address is address(0)."
        }
      ]
    },
    "events": {
      "LockedStCeloInVoting(address,uint256)": {
        "notice": "Emitted when unlock of stCELO is requested."
      },
      "ManagerSet(address)": {
        "notice": "Emitted when the manager is initially set or later modified."
      },
      "ProposalVoted(address,uint256,uint256,uint256,uint256)": {
        "notice": "Emitted when an account votes for governance proposal."
      }
    },
    "kind": "user",
    "methods": {
      "getLockedStCeloInVoting(address)": {
        "notice": "Retuns currently locked celo in voting. (This celo cannot be unlocked.)"
      },
      "getProposalTimestamp(uint256)": {
        "notice": "Returns save timestamp of proposal."
      },
      "getVoteRecord(uint256)": {
        "notice": "Gets vote record of proposal."
      },
      "getVoteWeight(address)": {
        "notice": "Returns vote weight of account owning stCelo."
      },
      "getVotedStillRelevantProposals(address)": {
        "notice": "Retuns proposals still in referendum stage that voter voted on."
      },
      "initialize(address,address,address)": {
        "notice": "Initialize the contract with registry and owner."
      },
      "proposalTimestamps(uint256)": {
        "notice": "Timestamps of every voted proposal."
      },
      "referendumDuration()": {
        "notice": "Duration of proposal in referendum stage (It has to be same as in Governance contrtact)."
      },
      "registry()": {
        "notice": "The Registry."
      },
      "revokeVotes(address,uint256)": {
        "notice": "Revokes votes on already voted proposal."
      },
      "setDependencies(address,address)": {
        "notice": "Set this contract's dependencies in the StakedCelo system."
      },
      "setManager(address)": {
        "notice": "Sets the manager address."
      },
      "setReferendumDuration()": {
        "notice": "Sets referendum duration. It should always be the same as in Governance."
      },
      "toCelo(uint256)": {
        "notice": "Computes the amount of CELO that should be withdrawn for a given amount of stCELO burned."
      },
      "toStakedCelo(uint256)": {
        "notice": "Computes the amount of stCELO that should be minted for a given amount of CELO deposited."
      },
      "updateHistoryAndReturnLockedStCeloInVoting(address)": {
        "notice": "Retuns currently locked celo in voting. (This celo cannot be unlocked.) And it will remove voted proposals from account history if appropriate."
      },
      "voteProposal(address,uint256,uint256,uint256,uint256)": {
        "notice": "Votes on a proposal in the referendum stage."
      }
    },
    "version": 1
  },
  "storageLayout": {
    "storage": [
      {
        "astId": 130,
        "contract": "contracts/Vote.sol:Vote",
        "label": "_initialized",
        "offset": 0,
        "slot": "0",
        "type": "t_bool"
      },
      {
        "astId": 133,
        "contract": "contracts/Vote.sol:Vote",
        "label": "_initializing",
        "offset": 1,
        "slot": "0",
        "type": "t_bool"
      },
      {
        "astId": 1197,
        "contract": "contracts/Vote.sol:Vote",
        "label": "__gap",
        "offset": 0,
        "slot": "1",
        "type": "t_array(t_uint256)50_storage"
      },
      {
        "astId": 10,
        "contract": "contracts/Vote.sol:Vote",
        "label": "_owner",
        "offset": 0,
        "slot": "51",
        "type": "t_address"
      },
      {
        "astId": 122,
        "contract": "contracts/Vote.sol:Vote",
        "label": "__gap",
        "offset": 0,
        "slot": "52",
        "type": "t_array(t_uint256)49_storage"
      },
      {
        "astId": 10777,
        "contract": "contracts/Vote.sol:Vote",
        "label": "registry",
        "offset": 0,
        "slot": "101",
        "type": "t_contract(IRegistry)11786"
      },
      {
        "astId": 5271,
        "contract": "contracts/Vote.sol:Vote",
        "label": "manager",
        "offset": 0,
        "slot": "102",
        "type": "t_address"
      },
      {
        "astId": 7870,
        "contract": "contracts/Vote.sol:Vote",
        "label": "stakedCelo",
        "offset": 0,
        "slot": "103",
        "type": "t_contract(IStakedCelo)11854"
      },
      {
        "astId": 7874,
        "contract": "contracts/Vote.sol:Vote",
        "label": "account",
        "offset": 0,
        "slot": "104",
        "type": "t_contract(IAccount)10923"
      },
      {
        "astId": 7880,
        "contract": "contracts/Vote.sol:Vote",
        "label": "voteRecords",
        "offset": 0,
        "slot": "105",
        "type": "t_mapping(t_uint256,t_struct(ProposalVoteRecord)7818_storage)"
      },
      {
        "astId": 7886,
        "contract": "contracts/Vote.sol:Vote",
        "label": "voters",
        "offset": 0,
        "slot": "106",
        "type": "t_mapping(t_address,t_struct(Voter)7827_storage)"
      },
      {
        "astId": 7891,
        "contract": "contracts/Vote.sol:Vote",
        "label": "proposalTimestamps",
        "offset": 0,
        "slot": "107",
        "type": "t_mapping(t_uint256,t_uint256)"
      },
      {
        "astId": 7894,
        "contract": "contracts/Vote.sol:Vote",
        "label": "referendumDuration",
        "offset": 0,
        "slot": "108",
        "type": "t_uint256"
      }
    ],
    "types": {
      "t_address": {
        "encoding": "inplace",
        "label": "address",
        "numberOfBytes": "20"
      },
      "t_array(t_uint256)49_storage": {
        "base": "t_uint256",
        "encoding": "inplace",
        "label": "uint256[49]",
        "numberOfBytes": "1568"
      },
      "t_array(t_uint256)50_storage": {
        "base": "t_uint256",
        "encoding": "inplace",
        "label": "uint256[50]",
        "numberOfBytes": "1600"
      },
      "t_array(t_uint256)dyn_storage": {
        "base": "t_uint256",
        "encoding": "dynamic_array",
        "label": "uint256[]",
        "numberOfBytes": "32"
      },
      "t_bool": {
        "encoding": "inplace",
        "label": "bool",
        "numberOfBytes": "1"
      },
      "t_contract(IAccount)10923": {
        "encoding": "inplace",
        "label": "contract IAccount",
        "numberOfBytes": "20"
      },
      "t_contract(IRegistry)11786": {
        "encoding": "inplace",
        "label": "contract IRegistry",
        "numberOfBytes": "20"
      },
      "t_contract(IStakedCelo)11854": {
        "encoding": "inplace",
        "label": "contract IStakedCelo",
        "numberOfBytes": "20"
      },
      "t_mapping(t_address,t_struct(Voter)7827_storage)": {
        "encoding": "mapping",
        "key": "t_address",
        "label": "mapping(address => struct Vote.Voter)",
        "numberOfBytes": "32",
        "value": "t_struct(Voter)7827_storage"
      },
      "t_mapping(t_uint256,t_struct(ProposalVoteRecord)7818_storage)": {
        "encoding": "mapping",
        "key": "t_uint256",
        "label": "mapping(uint256 => struct Vote.ProposalVoteRecord)",
        "numberOfBytes": "32",
        "value": "t_struct(ProposalVoteRecord)7818_storage"
      },
      "t_mapping(t_uint256,t_struct(VoterRecord)7836_storage)": {
        "encoding": "mapping",
        "key": "t_uint256",
        "label": "mapping(uint256 => struct Vote.VoterRecord)",
        "numberOfBytes": "32",
        "value": "t_struct(VoterRecord)7836_storage"
      },
      "t_mapping(t_uint256,t_uint256)": {
        "encoding": "mapping",
        "key": "t_uint256",
        "label": "mapping(uint256 => uint256)",
        "numberOfBytes": "32",
        "value": "t_uint256"
      },
      "t_struct(ProposalVoteRecord)7818_storage": {
        "encoding": "inplace",
        "label": "struct Vote.ProposalVoteRecord",
        "members": [
          {
            "astId": 7811,
            "contract": "contracts/Vote.sol:Vote",
            "label": "proposalId",
            "offset": 0,
            "slot": "0",
            "type": "t_uint256"
          },
          {
            "astId": 7813,
            "contract": "contracts/Vote.sol:Vote",
            "label": "yesVotes",
            "offset": 0,
            "slot": "1",
            "type": "t_uint256"
          },
          {
            "astId": 7815,
            "contract": "contracts/Vote.sol:Vote",
            "label": "noVotes",
            "offset": 0,
            "slot": "2",
            "type": "t_uint256"
          },
          {
            "astId": 7817,
            "contract": "contracts/Vote.sol:Vote",
            "label": "abstainVotes",
            "offset": 0,
            "slot": "3",
            "type": "t_uint256"
          }
        ],
        "numberOfBytes": "128"
      },
      "t_struct(Voter)7827_storage": {
        "encoding": "inplace",
        "label": "struct Vote.Voter",
        "members": [
          {
            "astId": 7823,
            "contract": "contracts/Vote.sol:Vote",
            "label": "proposalVotes",
            "offset": 0,
            "slot": "0",
            "type": "t_mapping(t_uint256,t_struct(VoterRecord)7836_storage)"
          },
          {
            "astId": 7826,
            "contract": "contracts/Vote.sol:Vote",
            "label": "votedProposalIds",
            "offset": 0,
            "slot": "1",
            "type": "t_array(t_uint256)dyn_storage"
          }
        ],
        "numberOfBytes": "64"
      },
      "t_struct(VoterRecord)7836_storage": {
        "encoding": "inplace",
        "label": "struct Vote.VoterRecord",
        "members": [
          {
            "astId": 7829,
            "contract": "contracts/Vote.sol:Vote",
            "label": "proposalId",
            "offset": 0,
            "slot": "0",
            "type": "t_uint256"
          },
          {
            "astId": 7831,
            "contract": "contracts/Vote.sol:Vote",
            "label": "yesVotes",
            "offset": 0,
            "slot": "1",
            "type": "t_uint256"
          },
          {
            "astId": 7833,
            "contract": "contracts/Vote.sol:Vote",
            "label": "noVotes",
            "offset": 0,
            "slot": "2",
            "type": "t_uint256"
          },
          {
            "astId": 7835,
            "contract": "contracts/Vote.sol:Vote",
            "label": "abstainVotes",
            "offset": 0,
            "slot": "3",
            "type": "t_uint256"
          }
        ],
        "numberOfBytes": "128"
      },
      "t_uint256": {
        "encoding": "inplace",
        "label": "uint256",
        "numberOfBytes": "32"
      }
    }
  }
}