{
  "address": "0x9bf9d7985c0753855Fe4862e3fdb87FEec90A875",
  "abi": [
    {
      "inputs": [],
      "stateMutability": "nonpayable",
      "type": "constructor"
    },
    {
      "inputs": [],
      "name": "AddressZeroNotAllowed",
      "type": "error"
    },
    {
      "inputs": [
        {
          "internalType": "address",
          "name": "caller",
          "type": "address"
        }
      ],
      "name": "CallerNotManager",
      "type": "error"
    },
    {
      "inputs": [],
      "name": "IncorrectIndex",
      "type": "error"
    },
    {
      "inputs": [
        {
          "internalType": "address",
          "name": "account",
          "type": "address"
        }
      ],
      "name": "NoStakedCelo",
      "type": "error"
    },
    {
      "inputs": [
        {
          "internalType": "address",
          "name": "account",
          "type": "address"
        }
      ],
      "name": "NotEnoughStakedCelo",
      "type": "error"
    },
    {
      "inputs": [],
      "name": "OnlyPauser",
      "type": "error"
    },
    {
      "inputs": [],
      "name": "Paused",
      "type": "error"
    },
    {
      "inputs": [],
      "name": "ProposalNotExpired",
      "type": "error"
    },
    {
      "anonymous": false,
      "inputs": [
        {
          "indexed": false,
          "internalType": "address",
          "name": "previousAdmin",
          "type": "address"
        },
        {
          "indexed": false,
          "internalType": "address",
          "name": "newAdmin",
          "type": "address"
        }
      ],
      "name": "AdminChanged",
      "type": "event"
    },
    {
      "anonymous": false,
      "inputs": [
        {
          "indexed": true,
          "internalType": "address",
          "name": "beacon",
          "type": "address"
        }
      ],
      "name": "BeaconUpgraded",
      "type": "event"
    },
    {
      "anonymous": false,
      "inputs": [],
      "name": "ContractPaused",
      "type": "event"
    },
    {
      "anonymous": false,
      "inputs": [],
      "name": "ContractUnpaused",
      "type": "event"
    },
    {
      "anonymous": false,
      "inputs": [
        {
          "indexed": false,
          "internalType": "address",
          "name": "account",
          "type": "address"
        },
        {
          "indexed": false,
          "internalType": "uint256",
          "name": "lockedCelo",
          "type": "uint256"
        }
      ],
      "name": "LockedStCeloInVoting",
      "type": "event"
    },
    {
      "anonymous": false,
      "inputs": [
        {
          "indexed": true,
          "internalType": "address",
          "name": "manager",
          "type": "address"
        }
      ],
      "name": "ManagerSet",
      "type": "event"
    },
    {
      "anonymous": false,
      "inputs": [
        {
          "indexed": true,
          "internalType": "address",
          "name": "previousOwner",
          "type": "address"
        },
        {
          "indexed": true,
          "internalType": "address",
          "name": "newOwner",
          "type": "address"
        }
      ],
      "name": "OwnershipTransferred",
      "type": "event"
    },
    {
      "anonymous": false,
      "inputs": [
        {
          "indexed": false,
          "internalType": "address",
          "name": "pauser",
          "type": "address"
        }
      ],
      "name": "PauserSet",
      "type": "event"
    },
    {
      "anonymous": false,
      "inputs": [
        {
          "indexed": true,
          "internalType": "address",
          "name": "voter",
          "type": "address"
        },
        {
          "indexed": true,
          "internalType": "uint256",
          "name": "proposalId",
          "type": "uint256"
        },
        {
          "indexed": false,
          "internalType": "uint256",
          "name": "yesVotes",
          "type": "uint256"
        },
        {
          "indexed": false,
          "internalType": "uint256",
          "name": "noVotes",
          "type": "uint256"
        },
        {
          "indexed": false,
          "internalType": "uint256",
          "name": "abstainVotes",
          "type": "uint256"
        }
      ],
      "name": "ProposalVoted",
      "type": "event"
    },
    {
      "anonymous": false,
      "inputs": [
        {
          "indexed": true,
          "internalType": "address",
          "name": "implementation",
          "type": "address"
        }
      ],
      "name": "Upgraded",
      "type": "event"
    },
    {
      "inputs": [],
      "name": "PAUSED_POSITION",
      "outputs": [
        {
          "internalType": "bytes32",
          "name": "",
          "type": "bytes32"
        }
      ],
      "stateMutability": "view",
      "type": "function"
    },
    {
      "inputs": [],
      "name": "PAUSER_POSITION",
      "outputs": [
        {
          "internalType": "bytes32",
          "name": "",
          "type": "bytes32"
        }
      ],
      "stateMutability": "view",
      "type": "function"
    },
    {
      "inputs": [
        {
          "internalType": "uint256",
          "name": "proposalId",
          "type": "uint256"
        }
      ],
      "name": "deleteExpiredProposalTimestamp",
      "outputs": [],
      "stateMutability": "nonpayable",
      "type": "function"
    },
    {
      "inputs": [
        {
          "internalType": "address",
          "name": "voter",
          "type": "address"
        },
        {
          "internalType": "uint256",
          "name": "proposalId",
          "type": "uint256"
        },
        {
          "internalType": "uint256",
          "name": "index",
          "type": "uint256"
        }
      ],
      "name": "deleteExpiredVoterProposalId",
      "outputs": [],
      "stateMutability": "nonpayable",
      "type": "function"
    },
    {
      "inputs": [
        {
          "internalType": "address",
          "name": "beneficiary",
          "type": "address"
        }
      ],
      "name": "getLockedStCeloInVoting",
      "outputs": [
        {
          "internalType": "uint256",
          "name": "",
          "type": "uint256"
        }
      ],
      "stateMutability": "view",
      "type": "function"
    },
    {
      "inputs": [
        {
          "internalType": "uint256",
          "name": "proposalId",
          "type": "uint256"
        }
      ],
      "name": "getProposalTimestamp",
      "outputs": [
        {
          "internalType": "uint256",
          "name": "",
          "type": "uint256"
        }
      ],
      "stateMutability": "view",
      "type": "function"
    },
    {
      "inputs": [],
      "name": "getReferendumDuration",
      "outputs": [
        {
          "internalType": "uint256",
          "name": "",
          "type": "uint256"
        }
      ],
      "stateMutability": "view",
      "type": "function"
    },
    {
      "inputs": [],
      "name": "getVersionNumber",
      "outputs": [
        {
          "internalType": "uint256",
          "name": "",
          "type": "uint256"
        },
        {
          "internalType": "uint256",
          "name": "",
          "type": "uint256"
        },
        {
          "internalType": "uint256",
          "name": "",
          "type": "uint256"
        },
        {
          "internalType": "uint256",
          "name": "",
          "type": "uint256"
        }
      ],
      "stateMutability": "pure",
      "type": "function"
    },
    {
      "inputs": [
        {
          "internalType": "uint256",
          "name": "proposalId",
          "type": "uint256"
        }
      ],
      "name": "getVoteRecord",
      "outputs": [
        {
          "components": [
            {
              "internalType": "uint256",
              "name": "proposalId",
              "type": "uint256"
            },
            {
              "internalType": "uint256",
              "name": "yesVotes",
              "type": "uint256"
            },
            {
              "internalType": "uint256",
              "name": "noVotes",
              "type": "uint256"
            },
            {
              "internalType": "uint256",
              "name": "abstainVotes",
              "type": "uint256"
            }
          ],
          "internalType": "struct Vote.ProposalVoteRecord",
          "name": "",
          "type": "tuple"
        }
      ],
      "stateMutability": "view",
      "type": "function"
    },
    {
      "inputs": [
        {
          "internalType": "address",
          "name": "beneficiary",
          "type": "address"
        }
      ],
      "name": "getVoteWeight",
      "outputs": [
        {
          "internalType": "uint256",
          "name": "",
          "type": "uint256"
        }
      ],
      "stateMutability": "view",
      "type": "function"
    },
    {
      "inputs": [
        {
          "internalType": "address",
          "name": "voter",
          "type": "address"
        }
      ],
      "name": "getVotedStillRelevantProposals",
      "outputs": [
        {
          "internalType": "uint256[]",
          "name": "",
          "type": "uint256[]"
        }
      ],
      "stateMutability": "view",
      "type": "function"
    },
    {
      "inputs": [
        {
          "internalType": "address",
          "name": "_registry",
          "type": "address"
        },
        {
          "internalType": "address",
          "name": "_owner",
          "type": "address"
        },
        {
          "internalType": "address",
          "name": "_manager",
          "type": "address"
        }
      ],
      "name": "initialize",
      "outputs": [],
      "stateMutability": "nonpayable",
      "type": "function"
    },
    {
      "inputs": [],
      "name": "isPaused",
      "outputs": [
        {
          "internalType": "bool",
          "name": "",
          "type": "bool"
        }
      ],
      "stateMutability": "view",
      "type": "function"
    },
    {
      "inputs": [],
      "name": "manager",
      "outputs": [
        {
          "internalType": "address",
          "name": "",
          "type": "address"
        }
      ],
      "stateMutability": "view",
      "type": "function"
    },
    {
      "inputs": [],
      "name": "owner",
      "outputs": [
        {
          "internalType": "address",
          "name": "",
          "type": "address"
        }
      ],
      "stateMutability": "view",
      "type": "function"
    },
    {
      "inputs": [],
      "name": "pause",
      "outputs": [],
      "stateMutability": "nonpayable",
      "type": "function"
    },
    {
      "inputs": [],
      "name": "pauser",
      "outputs": [
        {
          "internalType": "address",
          "name": "",
          "type": "address"
        }
      ],
      "stateMutability": "view",
      "type": "function"
    },
    {
      "inputs": [
        {
          "internalType": "uint256",
          "name": "",
          "type": "uint256"
        }
      ],
      "name": "proposalTimestamps",
      "outputs": [
        {
          "internalType": "uint256",
          "name": "",
          "type": "uint256"
        }
      ],
      "stateMutability": "view",
      "type": "function"
    },
    {
      "inputs": [],
      "name": "registry",
      "outputs": [
        {
          "internalType": "contract IRegistry",
          "name": "",
          "type": "address"
        }
      ],
      "stateMutability": "view",
      "type": "function"
    },
    {
      "inputs": [],
      "name": "renounceOwnership",
      "outputs": [],
      "stateMutability": "nonpayable",
      "type": "function"
    },
    {
      "inputs": [
        {
          "internalType": "address",
          "name": "accountVoter",
          "type": "address"
        },
        {
          "internalType": "uint256",
          "name": "proposalId",
          "type": "uint256"
        }
      ],
      "name": "revokeVotes",
      "outputs": [
        {
          "internalType": "uint256",
          "name": "totalYesVotes",
          "type": "uint256"
        },
        {
          "internalType": "uint256",
          "name": "totalNoVotes",
          "type": "uint256"
        },
        {
          "internalType": "uint256",
          "name": "totalAbstainVotes",
          "type": "uint256"
        }
      ],
      "stateMutability": "nonpayable",
      "type": "function"
    },
    {
      "inputs": [
        {
          "internalType": "address",
          "name": "_stakedCelo",
          "type": "address"
        },
        {
          "internalType": "address",
          "name": "_account",
          "type": "address"
        }
      ],
      "name": "setDependencies",
      "outputs": [],
      "stateMutability": "nonpayable",
      "type": "function"
    },
    {
      "inputs": [
        {
          "internalType": "address",
          "name": "_manager",
          "type": "address"
        }
      ],
      "name": "setManager",
      "outputs": [],
      "stateMutability": "nonpayable",
      "type": "function"
    },
    {
      "inputs": [],
      "name": "setPauser",
      "outputs": [],
      "stateMutability": "nonpayable",
      "type": "function"
    },
    {
      "inputs": [
        {
          "internalType": "uint256",
          "name": "stCeloAmount",
          "type": "uint256"
        }
      ],
      "name": "toCelo",
      "outputs": [
        {
          "internalType": "uint256",
          "name": "",
          "type": "uint256"
        }
      ],
      "stateMutability": "view",
      "type": "function"
    },
    {
      "inputs": [
        {
          "internalType": "uint256",
          "name": "celoAmount",
          "type": "uint256"
        }
      ],
      "name": "toStakedCelo",
      "outputs": [
        {
          "internalType": "uint256",
          "name": "",
          "type": "uint256"
        }
      ],
      "stateMutability": "view",
      "type": "function"
    },
    {
      "inputs": [
        {
          "internalType": "address",
          "name": "newOwner",
          "type": "address"
        }
      ],
      "name": "transferOwnership",
      "outputs": [],
      "stateMutability": "nonpayable",
      "type": "function"
    },
    {
      "inputs": [],
      "name": "unpause",
      "outputs": [],
      "stateMutability": "nonpayable",
      "type": "function"
    },
    {
      "inputs": [
        {
          "internalType": "address",
          "name": "beneficiary",
          "type": "address"
        }
      ],
      "name": "updateHistoryAndReturnLockedStCeloInVoting",
      "outputs": [
        {
          "internalType": "uint256",
          "name": "",
          "type": "uint256"
        }
      ],
      "stateMutability": "nonpayable",
      "type": "function"
    },
    {
      "inputs": [
        {
          "internalType": "address",
          "name": "newImplementation",
          "type": "address"
        }
      ],
      "name": "upgradeTo",
      "outputs": [],
      "stateMutability": "nonpayable",
      "type": "function"
    },
    {
      "inputs": [
        {
          "internalType": "address",
          "name": "newImplementation",
          "type": "address"
        },
        {
          "internalType": "bytes",
          "name": "data",
          "type": "bytes"
        }
      ],
      "name": "upgradeToAndCall",
      "outputs": [],
      "stateMutability": "payable",
      "type": "function"
    },
    {
      "inputs": [
        {
          "internalType": "address",
          "name": "accountVoter",
          "type": "address"
        },
        {
          "internalType": "uint256",
          "name": "proposalId",
          "type": "uint256"
        },
        {
          "internalType": "uint256",
          "name": "yesVotes",
          "type": "uint256"
        },
        {
          "internalType": "uint256",
          "name": "noVotes",
          "type": "uint256"
        },
        {
          "internalType": "uint256",
          "name": "abstainVotes",
          "type": "uint256"
        }
      ],
      "name": "voteProposal",
      "outputs": [
        {
          "internalType": "uint256",
          "name": "",
          "type": "uint256"
        },
        {
          "internalType": "uint256",
          "name": "totalYesVotes",
          "type": "uint256"
        },
        {
          "internalType": "uint256",
          "name": "totalNoVotes",
          "type": "uint256"
        },
        {
          "internalType": "uint256",
          "name": "totalAbstainVotes",
          "type": "uint256"
        }
      ],
      "stateMutability": "nonpayable",
      "type": "function"
    }
  ],
  "transactionHash": "0x554637c5b3a0a8a175eea1c3aa98af66e28ac8a757e1c7373aac02aa700ffab5",
  "args": [],
  "numDeployments": 3,
  "solcInputHash": "4e72b277d948a49a90e2a93328ecbb49",
  "bytecode": "0x60a06040523073ffffffffffffffffffffffffffffffffffffffff1660809073ffffffffffffffffffffffffffffffffffffffff168152503480156200004457600080fd5b50600060019054906101000a900460ff166200006f5760008054906101000a900460ff161562000080565b6200007f6200013c60201b60201c565b5b620000c2576040517f08c379a0000000000000000000000000000000000000000000000000000000008152600401620000b99062000204565b60405180910390fd5b60008060019054906101000a900460ff16159050801562000113576001600060016101000a81548160ff02191690831515021790555060016000806101000a81548160ff0219169083151502179055505b8015620001355760008060016101000a81548160ff0219169083151502179055505b5062000226565b600062000154306200015a60201b620026181760201c565b15905090565b6000808273ffffffffffffffffffffffffffffffffffffffff163b119050919050565b600082825260208201905092915050565b7f496e697469616c697a61626c653a20636f6e747261637420697320616c72656160008201527f647920696e697469616c697a6564000000000000000000000000000000000000602082015250565b6000620001ec602e836200017d565b9150620001f9826200018e565b604082019050919050565b600060208201905081810360008301526200021f81620001dd565b9050919050565b6080516142c46200025760003960008181610d6501528181610df4015281816118c5015261195401526142c46000f3fe6080604052600436106101e35760003560e01c80637b10399911610102578063abaaecf911610095578063c494ec1e11610064578063c494ec1e146106f1578063d0ebdbe71461072e578063e87c28a714610757578063f2fde38b14610780576101e3565b8063abaaecf914610621578063b187bd261461065e578063c0c53b8b14610689578063c40da15c146106b2576101e3565b80638da5cb5b116100d15780638da5cb5b146105635780639468ba0e1461058e5780639fd0506d146105b9578063a730117e146105e4576101e3565b80637b103999146104df5780637c0d530f1461050a5780638456cb59146105215780638cc9931f14610538576101e3565b80633f4ba83a1161017a5780634f1ef286116101495780634f1ef2861461045557806354255be014610471578063577bae251461049f578063715018a6146104c8576101e3565b80633f4ba83a14610396578063481c6a75146103ad57806348fd6ea6146103d85780634c23f22e14610415576101e3565b80632488d909116101b65780632488d909146102c85780633127ce32146103055780633659cfe6146103425780633cbf58721461036b576101e3565b80630567847f146101e85780630d526b9614610225578063121634e81461026257806319a7aff01461029f575b600080fd5b3480156101f457600080fd5b5061020f600480360381019061020a9190613118565b6107a9565b60405161021c9190613154565b60405180910390f35b34801561023157600080fd5b5061024c60048036038101906102479190613118565b610913565b6040516102599190613154565b60405180910390f35b34801561026e57600080fd5b50610289600480360381019061028491906131cd565b6109ab565b6040516102969190613154565b60405180910390f35b3480156102ab57600080fd5b506102c660048036038101906102c19190613118565b610b49565b005b3480156102d457600080fd5b506102ef60048036038101906102ea9190613118565b610c74565b6040516102fc919061325e565b60405180910390f35b34801561031157600080fd5b5061032c600480360381019061032791906131cd565b610cc9565b6040516103399190613328565b60405180910390f35b34801561034e57600080fd5b50610369600480360381019061036491906131cd565b610d63565b005b34801561037757600080fd5b50610380610eec565b60405161038d9190613363565b60405180910390f35b3480156103a257600080fd5b506103ab610f22565b005b3480156103b957600080fd5b506103c2610fc6565b6040516103cf919061338d565b60405180910390f35b3480156103e457600080fd5b506103ff60048036038101906103fa91906131cd565b610fec565b60405161040c9190613154565b60405180910390f35b34801561042157600080fd5b5061043c600480360381019061043791906133a8565b611329565b60405161044c9493929190613423565b60405180910390f35b61046f600480360381019061046a91906135ae565b6118c3565b005b34801561047d57600080fd5b50610486611a00565b6040516104969493929190613423565b60405180910390f35b3480156104ab57600080fd5b506104c660048036038101906104c1919061360a565b611a1b565b005b3480156104d457600080fd5b506104dd611bbc565b005b3480156104eb57600080fd5b506104f4611c44565b60405161050191906136bc565b60405180910390f35b34801561051657600080fd5b5061051f611c6a565b005b34801561052d57600080fd5b50610536611cf8565b005b34801561054457600080fd5b5061054d611d9c565b60405161055a9190613154565b60405180910390f35b34801561056f57600080fd5b50610578611e19565b604051610585919061338d565b60405180910390f35b34801561059a57600080fd5b506105a3611e43565b6040516105b09190613363565b60405180910390f35b3480156105c557600080fd5b506105ce611e79565b6040516105db919061338d565b60405180910390f35b3480156105f057600080fd5b5061060b600480360381019061060691906131cd565b611ebf565b6040516106189190613154565b60405180910390f35b34801561062d57600080fd5b5061064860048036038101906106439190613118565b611f71565b6040516106559190613154565b60405180910390f35b34801561066a57600080fd5b50610673611f89565b60405161068091906136f2565b60405180910390f35b34801561069557600080fd5b506106b060048036038101906106ab919061370d565b611fcf565b005b3480156106be57600080fd5b506106d960048036038101906106d49190613760565b6120d1565b6040516106e8939291906137a0565b60405180910390f35b3480156106fd57600080fd5b5061071860048036038101906107139190613118565b61218e565b6040516107259190613154565b60405180910390f35b34801561073a57600080fd5b50610755600480360381019061075091906131cd565b6122f8565b005b34801561076357600080fd5b5061077e600480360381019061077991906137d7565b612380565b005b34801561078c57600080fd5b506107a760048036038101906107a291906131cd565b612520565b005b600080606760009054906101000a900473ffffffffffffffffffffffffffffffffffffffff1673ffffffffffffffffffffffffffffffffffffffff166318160ddd6040518163ffffffff1660e01b8152600401602060405180830381865afa158015610819573d6000803e3d6000fd5b505050506040513d601f19601f8201168201806040525081019061083d919061382c565b90506000606860009054906101000a900473ffffffffffffffffffffffffffffffffffffffff1673ffffffffffffffffffffffffffffffffffffffff166301d2b6ea6040518163ffffffff1660e01b8152600401602060405180830381865afa1580156108ae573d6000803e3d6000fd5b505050506040513d601f19601f820116820180604052508101906108d2919061382c565b905060008214806108e35750600081145b156108f257839250505061090e565b8181856108ff9190613888565b6109099190613911565b925050505b919050565b60008061091e61263b565b73ffffffffffffffffffffffffffffffffffffffff1663c7f758a8846040518263ffffffff1660e01b81526004016109569190613154565b600060405180830381865afa158015610973573d6000803e3d6000fd5b505050506040513d6000823e3d601f19601f8201168201806040525081019061099c9190613a2b565b50509250505080915050919050565b600080606a60008473ffffffffffffffffffffffffffffffffffffffff1673ffffffffffffffffffffffffffffffffffffffff1681526020019081526020016000209050600080826001018054905090505b6000811115610b365760008360010182610a1690613ac2565b92508281548110610a2a57610a29613aec565b5b906000526020600020015490506000606b60008381526020019081526020016000205490506000811415610a5f5750506109fd565b610a6761263b565b73ffffffffffffffffffffffffffffffffffffffff1663ad78c1096040518163ffffffff1660e01b8152600401602060405180830381865afa158015610ab1573d6000803e3d6000fd5b505050506040513d601f19601f82011682018060405250810190610ad5919061382c565b81610ae09190613b1b565b4211610b2f5760008560000160008481526020019081526020016000209050610b2b85826003015483600201548460010154610b1c9190613b1b565b610b269190613b1b565b612702565b9450505b50506109fd565b610b3f8261218e565b9350505050919050565b610b51611f89565b15610b88576040517f9e87fac800000000000000000000000000000000000000000000000000000000815260040160405180910390fd5b6000606b6000838152602001908152602001600020549050610ba861263b565b73ffffffffffffffffffffffffffffffffffffffff1663ad78c1096040518163ffffffff1660e01b8152600401602060405180830381865afa158015610bf2573d6000803e3d6000fd5b505050506040513d601f19601f82011682018060405250810190610c16919061382c565b81610c219190613b1b565b4211610c59576040517f8251df3000000000000000000000000000000000000000000000000000000000815260040160405180910390fd5b606b6000838152602001908152602001600020600090555050565b610c7c6130a6565b606960008381526020019081526020016000206040518060800160405290816000820154815260200160018201548152602001600282015481526020016003820154815250509050919050565b6060606a60008373ffffffffffffffffffffffffffffffffffffffff1673ffffffffffffffffffffffffffffffffffffffff168152602001908152602001600020600101805480602002602001604051908101604052809291908181526020018280548015610d5757602002820191906000526020600020905b815481526020019060010190808311610d43575b50505050509050919050565b7f000000000000000000000000000000000000000000000000000000000000000073ffffffffffffffffffffffffffffffffffffffff163073ffffffffffffffffffffffffffffffffffffffff161415610df2576040517f08c379a0000000000000000000000000000000000000000000000000000000008152600401610de990613bf4565b60405180910390fd5b7f000000000000000000000000000000000000000000000000000000000000000073ffffffffffffffffffffffffffffffffffffffff16610e3161271c565b73ffffffffffffffffffffffffffffffffffffffff1614610e87576040517f08c379a0000000000000000000000000000000000000000000000000000000008152600401610e7e90613c86565b60405180910390fd5b610e9081612773565b610ee981600067ffffffffffffffff811115610eaf57610eae613483565b5b6040519080825280601f01601f191660200182016040528015610ee15781602001600182028036833780820191505090505b5060006127f2565b50565b60017f8f989356aeb576065c8d201815b96ac9c10cf89197a532e428ebd68581557c2360001c610f1c9190613ca6565b60001b81565b610f2a611e79565b73ffffffffffffffffffffffffffffffffffffffff163373ffffffffffffffffffffffffffffffffffffffff1614610f8e576040517f75df51dc00000000000000000000000000000000000000000000000000000000815260040160405180910390fd5b610f9860006129c3565b7f0e5e3b3fb504c22cf5c42fa07d521225937514c654007e1f12646f89768d6f9460405160405180910390a1565b606660009054906101000a900473ffffffffffffffffffffffffffffffffffffffff1681565b6000610ff6611f89565b1561102d576040517f9e87fac800000000000000000000000000000000000000000000000000000000815260040160405180910390fd5b6000606a60008473ffffffffffffffffffffffffffffffffffffffff1673ffffffffffffffffffffffffffffffffffffffff1681526020019081526020016000209050600080826001018054905090505b60008111156112d7576000836001018261109790613ac2565b925082815481106110ab576110aa613aec565b5b906000526020600020015490506000606b600083815260200190815260200160002054905060008114156111625784600101600186600101805490506110f19190613ca6565b8154811061110257611101613aec565b5b906000526020600020015485600101848154811061112357611122613aec565b5b90600052602060002001819055508460010180548061114557611144613cda565b5b60019003818190600052602060002001600090559055505061107e565b61116a61263b565b73ffffffffffffffffffffffffffffffffffffffff1663ad78c1096040518163ffffffff1660e01b8152600401602060405180830381865afa1580156111b4573d6000803e3d6000fd5b505050506040513d601f19601f820116820180604052508101906111d8919061382c565b816111e39190613b1b565b4211611236576000856000016000848152602001908152602001600020905061122e8582600301548360020154846001015461121f9190613b1b565b6112299190613b1b565b612702565b9450506112d0565b846001016001866001018054905061124e9190613ca6565b8154811061125f5761125e613aec565b5b90600052602060002001548560010184815481106112805761127f613aec565b5b9060005260206000200181905550846001018054806112a2576112a1613cda565b5b60019003818190600052602060002001600090559055606b6000838152602001908152602001600020600090555b505061107e565b60006112e28361218e565b90507f7c6f785c69c2af01e80f58e72c654a146308c1a70e15028f45ac1d98b08303888682604051611315929190613d09565b60405180910390a180945050505050919050565b6000806000803373ffffffffffffffffffffffffffffffffffffffff16606660009054906101000a900473ffffffffffffffffffffffffffffffffffffffff1673ffffffffffffffffffffffffffffffffffffffff16146113c157336040517f3b2495f10000000000000000000000000000000000000000000000000000000081526004016113b8919061338d565b60405180910390fd5b6000606760009054906101000a900473ffffffffffffffffffffffffffffffffffffffff1673ffffffffffffffffffffffffffffffffffffffff1663536a5f278b6040518263ffffffff1660e01b815260040161141e919061338d565b602060405180830381865afa15801561143b573d6000803e3d6000fd5b505050506040513d601f19601f8201168201806040525081019061145f919061382c565b606760009054906101000a900473ffffffffffffffffffffffffffffffffffffffff1673ffffffffffffffffffffffffffffffffffffffff166370a082318c6040518263ffffffff1660e01b81526004016114ba919061338d565b602060405180830381865afa1580156114d7573d6000803e3d6000fd5b505050506040513d601f19601f820116820180604052508101906114fb919061382c565b6115059190613b1b565b9050600081141561154d57896040517f09835c4f000000000000000000000000000000000000000000000000000000008152600401611544919061338d565b60405180910390fd5b600086888a61155c9190613b1b565b6115669190613b1b565b9050611571826107a9565b8111156115b5578a6040517f25becec40000000000000000000000000000000000000000000000000000000081526004016115ac919061338d565b60405180910390fd5b6000606a60008d73ffffffffffffffffffffffffffffffffffffffff1673ffffffffffffffffffffffffffffffffffffffff168152602001908152602001600020905060008160000160008d815260200190815260200160002090506000606960008e815260200190815260200160002060405180608001604052908160008201548152602001600182015481526020016002820154815260200160038201548152505090508160010154816020018181516116719190613ca6565b9150818152505081600201548160400181815161168e9190613ca6565b915081815250508160030154816060018181516116ab9190613ca6565b915081815250508b816020018181516116c49190613b1b565b915081815250508a816040018181516116dd9190613b1b565b9150818152505089816060018181516116f69190613b1b565b9150818152505060405180608001604052808e815260200182602001518152602001826040015181526020018260600151815250606960008f8152602001908152602001600020600082015181600001556020820151816001015560408201518160020155606082015181600301559050506000826000015414156117a157826001018d90806001815401808255809150506001900390600052602060002001600090919091909150555b60405180608001604052808e81526020018d81526020018c81526020018b8152508360000160008f8152602001908152602001600020600082015181600001556020820151816001015560408201518160020155606082015181600301559050508c8e73ffffffffffffffffffffffffffffffffffffffff167fccddc503efe2d90a6cc16414e99fd2826fd7d72313194d217e36278c0905f9438e8e8e60405161184d939291906137a0565b60405180910390a36000606b60008f81526020019081526020016000205414156118925761187a8d610913565b606b60008f8152602001908152602001600020819055505b61189b8461218e565b8160200151826040015183606001519850985098509850505050505095509550955095915050565b7f000000000000000000000000000000000000000000000000000000000000000073ffffffffffffffffffffffffffffffffffffffff163073ffffffffffffffffffffffffffffffffffffffff161415611952576040517f08c379a000000000000000000000000000000000000000000000000000000000815260040161194990613bf4565b60405180910390fd5b7f000000000000000000000000000000000000000000000000000000000000000073ffffffffffffffffffffffffffffffffffffffff1661199161271c565b73ffffffffffffffffffffffffffffffffffffffff16146119e7576040517f08c379a00000000000000000000000000000000000000000000000000000000081526004016119de90613c86565b60405180910390fd5b6119f082612773565b6119fc828260016127f2565b5050565b60008060008060018060036000935093509350935090919293565b611a23611f89565b15611a5a576040517f9e87fac800000000000000000000000000000000000000000000000000000000815260040160405180910390fd5b6000606a60008573ffffffffffffffffffffffffffffffffffffffff1673ffffffffffffffffffffffffffffffffffffffff16815260200190815260200160002090506000816001018381548110611ab557611ab4613aec565b5b906000526020600020015490506000811480611ad15750838114155b15611b08576040517f07cc4d8f00000000000000000000000000000000000000000000000000000000815260040160405180910390fd5b6000606b600086815260200190815260200160002054905060008114611b3257611b3185610b49565b5b8260010160018460010180549050611b4a9190613ca6565b81548110611b5b57611b5a613aec565b5b9060005260206000200154836001018581548110611b7c57611b7b613aec565b5b906000526020600020018190555082600101805480611b9e57611b9d613cda565b5b60019003818190600052602060002001600090559055505050505050565b611bc4612a01565b73ffffffffffffffffffffffffffffffffffffffff16611be2611e19565b73ffffffffffffffffffffffffffffffffffffffff1614611c38576040517f08c379a0000000000000000000000000000000000000000000000000000000008152600401611c2f90613d7e565b60405180910390fd5b611c426000612a09565b565b606560009054906101000a900473ffffffffffffffffffffffffffffffffffffffff1681565b611c72612a01565b73ffffffffffffffffffffffffffffffffffffffff16611c90611e19565b73ffffffffffffffffffffffffffffffffffffffff1614611ce6576040517f08c379a0000000000000000000000000000000000000000000000000000000008152600401611cdd90613d7e565b60405180910390fd5b611cf6611cf1611e19565b612acf565b565b611d00611e79565b73ffffffffffffffffffffffffffffffffffffffff163373ffffffffffffffffffffffffffffffffffffffff1614611d64576040517f75df51dc00000000000000000000000000000000000000000000000000000000815260040160405180910390fd5b611d6e60016129c3565b7fab35696f06e428ebc5ceba8cd17f8fed287baf43440206d1943af1ee53e6d26760405160405180910390a1565b6000611da661263b565b73ffffffffffffffffffffffffffffffffffffffff1663ad78c1096040518163ffffffff1660e01b8152600401602060405180830381865afa158015611df0573d6000803e3d6000fd5b505050506040513d601f19601f82011682018060405250810190611e14919061382c565b905090565b6000603360009054906101000a900473ffffffffffffffffffffffffffffffffffffffff16905090565b60017f29f060ba1cf8d3659516b02281c85dcc3e81b4287766ae4751c0f500688be30f60001c611e739190613ca6565b60001b81565b600080600060017f29f060ba1cf8d3659516b02281c85dcc3e81b4287766ae4751c0f500688be30f60001c611eae9190613ca6565b60001b905080549150819250505090565b600080606760009054906101000a900473ffffffffffffffffffffffffffffffffffffffff1673ffffffffffffffffffffffffffffffffffffffff166370a08231846040518263ffffffff1660e01b8152600401611f1d919061338d565b602060405180830381865afa158015611f3a573d6000803e3d6000fd5b505050506040513d601f19601f82011682018060405250810190611f5e919061382c565b9050611f69816107a9565b915050919050565b606b6020528060005260406000206000915090505481565b600080600060017f8f989356aeb576065c8d201815b96ac9c10cf89197a532e428ebd68581557c2360001c611fbe9190613ca6565b60001b905080549150819250505090565b600060019054906101000a900460ff16611ff75760008054906101000a900460ff1615612000565b611fff612bab565b5b61203f576040517f08c379a000000000000000000000000000000000000000000000000000000000815260040161203690613e10565b60405180910390fd5b60008060019054906101000a900460ff16159050801561208f576001600060016101000a81548160ff02191690831515021790555060016000806101000a81548160ff0219169083151502179055505b61209884612bbc565b6120a182612ccd565b6120aa83612a09565b80156120cb5760008060016101000a81548160ff0219169083151502179055505b50505050565b60008060003373ffffffffffffffffffffffffffffffffffffffff16606660009054906101000a900473ffffffffffffffffffffffffffffffffffffffff1673ffffffffffffffffffffffffffffffffffffffff161461216857336040517f3b2495f100000000000000000000000000000000000000000000000000000000815260040161215f919061338d565b60405180910390fd5b61217785856000806000611329565b909192508093508194508295505050509250925092565b600080606760009054906101000a900473ffffffffffffffffffffffffffffffffffffffff1673ffffffffffffffffffffffffffffffffffffffff166318160ddd6040518163ffffffff1660e01b8152600401602060405180830381865afa1580156121fe573d6000803e3d6000fd5b505050506040513d601f19601f82011682018060405250810190612222919061382c565b90506000606860009054906101000a900473ffffffffffffffffffffffffffffffffffffffff1673ffffffffffffffffffffffffffffffffffffffff166301d2b6ea6040518163ffffffff1660e01b8152600401602060405180830381865afa158015612293573d6000803e3d6000fd5b505050506040513d601f19601f820116820180604052508101906122b7919061382c565b905060008214806122c85750600081145b156122d75783925050506122f3565b8082856122e49190613888565b6122ee9190613911565b925050505b919050565b612300612a01565b73ffffffffffffffffffffffffffffffffffffffff1661231e611e19565b73ffffffffffffffffffffffffffffffffffffffff1614612374576040517f08c379a000000000000000000000000000000000000000000000000000000000815260040161236b90613d7e565b60405180910390fd5b61237d81612d28565b50565b612388612a01565b73ffffffffffffffffffffffffffffffffffffffff166123a6611e19565b73ffffffffffffffffffffffffffffffffffffffff16146123fc576040517f08c379a00000000000000000000000000000000000000000000000000000000081526004016123f390613d7e565b60405180910390fd5b600073ffffffffffffffffffffffffffffffffffffffff168273ffffffffffffffffffffffffffffffffffffffff1614806124635750600073ffffffffffffffffffffffffffffffffffffffff168173ffffffffffffffffffffffffffffffffffffffff16145b1561249a576040517f0855380c00000000000000000000000000000000000000000000000000000000815260040160405180910390fd5b81606760006101000a81548173ffffffffffffffffffffffffffffffffffffffff021916908373ffffffffffffffffffffffffffffffffffffffff16021790555080606860006101000a81548173ffffffffffffffffffffffffffffffffffffffff021916908373ffffffffffffffffffffffffffffffffffffffff1602179055505050565b612528612a01565b73ffffffffffffffffffffffffffffffffffffffff16612546611e19565b73ffffffffffffffffffffffffffffffffffffffff161461259c576040517f08c379a000000000000000000000000000000000000000000000000000000000815260040161259390613d7e565b60405180910390fd5b600073ffffffffffffffffffffffffffffffffffffffff168173ffffffffffffffffffffffffffffffffffffffff16141561260c576040517f08c379a000000000000000000000000000000000000000000000000000000000815260040161260390613ea2565b60405180910390fd5b61261581612a09565b50565b6000808273ffffffffffffffffffffffffffffffffffffffff163b119050919050565b6000606560009054906101000a900473ffffffffffffffffffffffffffffffffffffffff1673ffffffffffffffffffffffffffffffffffffffff1663dcf0aaed60405160200161268a90613f19565b604051602081830303815290604052805190602001206040518263ffffffff1660e01b81526004016126bc9190613363565b602060405180830381865afa1580156126d9573d6000803e3d6000fd5b505050506040513d601f19601f820116820180604052508101906126fd9190613f2e565b905090565b6000818310156127125781612714565b825b905092915050565b600061274a7f360894a13ba1a3210667c828492db98dca3e2076cc3735a920a3ca505d382bbc60001b612e16565b60000160009054906101000a900473ffffffffffffffffffffffffffffffffffffffff16905090565b61277b612a01565b73ffffffffffffffffffffffffffffffffffffffff16612799611e19565b73ffffffffffffffffffffffffffffffffffffffff16146127ef576040517f08c379a00000000000000000000000000000000000000000000000000000000081526004016127e690613d7e565b60405180910390fd5b50565b60006127fc61271c565b905061280784612e20565b6000835111806128145750815b15612825576128238484612ed9565b505b60006128537f4910fdfa16fed3260ed0e7147f7cc6da11a60208b5b9406d12a635614ffd914360001b612f06565b90508060000160009054906101000a900460ff166129bc5760018160000160006101000a81548160ff02191690831515021790555061291f858360405160240161289d919061338d565b6040516020818303038152906040527f3659cfe6000000000000000000000000000000000000000000000000000000007bffffffffffffffffffffffffffffffffffffffffffffffffffffffff19166020820180517bffffffffffffffffffffffffffffffffffffffffffffffffffffffff8381831617835250505050612ed9565b5060008160000160006101000a81548160ff02191690831515021790555061294561271c565b73ffffffffffffffffffffffffffffffffffffffff168273ffffffffffffffffffffffffffffffffffffffff16146129b2576040517f08c379a00000000000000000000000000000000000000000000000000000000081526004016129a990613fcd565b60405180910390fd5b6129bb85612f10565b5b5050505050565b600060017f8f989356aeb576065c8d201815b96ac9c10cf89197a532e428ebd68581557c2360001c6129f59190613ca6565b60001b90508181555050565b600033905090565b6000603360009054906101000a900473ffffffffffffffffffffffffffffffffffffffff16905081603360006101000a81548173ffffffffffffffffffffffffffffffffffffffff021916908373ffffffffffffffffffffffffffffffffffffffff1602179055508173ffffffffffffffffffffffffffffffffffffffff168173ffffffffffffffffffffffffffffffffffffffff167f8be0079c531659141344cd1fd0a4f28419497f9722a3daafe3b4186f6b6457e060405160405180910390a35050565b600073ffffffffffffffffffffffffffffffffffffffff168173ffffffffffffffffffffffffffffffffffffffff161415612b36576040517f0855380c00000000000000000000000000000000000000000000000000000000815260040160405180910390fd5b600060017f29f060ba1cf8d3659516b02281c85dcc3e81b4287766ae4751c0f500688be30f60001c612b689190613ca6565b60001b90508181557fd11d57c2c7468878b1035df11c670bcd0091aa840bf8aa166365397622237bea82604051612b9f919061338d565b60405180910390a15050565b6000612bb630612618565b15905090565b600060019054906101000a900460ff16612c0b576040517f08c379a0000000000000000000000000000000000000000000000000000000008152600401612c029061405f565b60405180910390fd5b600073ffffffffffffffffffffffffffffffffffffffff168173ffffffffffffffffffffffffffffffffffffffff161415612c885761ce10606560006101000a81548173ffffffffffffffffffffffffffffffffffffffff021916908373ffffffffffffffffffffffffffffffffffffffff160217905550612cca565b80606560006101000a81548173ffffffffffffffffffffffffffffffffffffffff021916908373ffffffffffffffffffffffffffffffffffffffff1602179055505b50565b600060019054906101000a900460ff16612d1c576040517f08c379a0000000000000000000000000000000000000000000000000000000008152600401612d139061405f565b60405180910390fd5b612d2581612d28565b50565b600073ffffffffffffffffffffffffffffffffffffffff168173ffffffffffffffffffffffffffffffffffffffff161415612d8f576040517f0855380c00000000000000000000000000000000000000000000000000000000815260040160405180910390fd5b80606660006101000a81548173ffffffffffffffffffffffffffffffffffffffff021916908373ffffffffffffffffffffffffffffffffffffffff1602179055508073ffffffffffffffffffffffffffffffffffffffff167f60a0f5b9f9e81e98216071b85826681c796256fe3d1354ecb675580fba64fa6960405160405180910390a250565b6000819050919050565b612e2981612f5f565b612e68576040517f08c379a0000000000000000000000000000000000000000000000000000000008152600401612e5f906140f1565b60405180910390fd5b80612e957f360894a13ba1a3210667c828492db98dca3e2076cc3735a920a3ca505d382bbc60001b612e16565b60000160006101000a81548173ffffffffffffffffffffffffffffffffffffffff021916908373ffffffffffffffffffffffffffffffffffffffff16021790555050565b6060612efe838360405180606001604052806027815260200161426860279139612f72565b905092915050565b6000819050919050565b612f1981612e20565b8073ffffffffffffffffffffffffffffffffffffffff167fbc7cd75a20ee27fd9adebab32041f755214dbc6bffa90cc0225b39da2e5c2d3b60405160405180910390a250565b600080823b905060008111915050919050565b6060612f7d84612f5f565b612fbc576040517f08c379a0000000000000000000000000000000000000000000000000000000008152600401612fb390614183565b60405180910390fd5b6000808573ffffffffffffffffffffffffffffffffffffffff1685604051612fe491906141ea565b600060405180830381855af49150503d806000811461301f576040519150601f19603f3d011682016040523d82523d6000602084013e613024565b606091505b509150915061303482828661303f565b925050509392505050565b6060831561304f5782905061309f565b6000835111156130625782518084602001fd5b816040517f08c379a00000000000000000000000000000000000000000000000000000000081526004016130969190614245565b60405180910390fd5b9392505050565b6040518060800160405280600081526020016000815260200160008152602001600081525090565b6000604051905090565b600080fd5b600080fd5b6000819050919050565b6130f5816130e2565b811461310057600080fd5b50565b600081359050613112816130ec565b92915050565b60006020828403121561312e5761312d6130d8565b5b600061313c84828501613103565b91505092915050565b61314e816130e2565b82525050565b60006020820190506131696000830184613145565b92915050565b600073ffffffffffffffffffffffffffffffffffffffff82169050919050565b600061319a8261316f565b9050919050565b6131aa8161318f565b81146131b557600080fd5b50565b6000813590506131c7816131a1565b92915050565b6000602082840312156131e3576131e26130d8565b5b60006131f1848285016131b8565b91505092915050565b613203816130e2565b82525050565b60808201600082015161321f60008501826131fa565b50602082015161323260208501826131fa565b50604082015161324560408501826131fa565b50606082015161325860608501826131fa565b50505050565b60006080820190506132736000830184613209565b92915050565b600081519050919050565b600082825260208201905092915050565b6000819050602082019050919050565b60006132b183836131fa565b60208301905092915050565b6000602082019050919050565b60006132d582613279565b6132df8185613284565b93506132ea83613295565b8060005b8381101561331b57815161330288826132a5565b975061330d836132bd565b9250506001810190506132ee565b5085935050505092915050565b6000602082019050818103600083015261334281846132ca565b905092915050565b6000819050919050565b61335d8161334a565b82525050565b60006020820190506133786000830184613354565b92915050565b6133878161318f565b82525050565b60006020820190506133a2600083018461337e565b92915050565b600080600080600060a086880312156133c4576133c36130d8565b5b60006133d2888289016131b8565b95505060206133e388828901613103565b94505060406133f488828901613103565b935050606061340588828901613103565b925050608061341688828901613103565b9150509295509295909350565b60006080820190506134386000830187613145565b6134456020830186613145565b6134526040830185613145565b61345f6060830184613145565b95945050505050565b600080fd5b600080fd5b6000601f19601f8301169050919050565b7f4e487b7100000000000000000000000000000000000000000000000000000000600052604160045260246000fd5b6134bb82613472565b810181811067ffffffffffffffff821117156134da576134d9613483565b5b80604052505050565b60006134ed6130ce565b90506134f982826134b2565b919050565b600067ffffffffffffffff82111561351957613518613483565b5b61352282613472565b9050602081019050919050565b82818337600083830152505050565b600061355161354c846134fe565b6134e3565b90508281526020810184848401111561356d5761356c61346d565b5b61357884828561352f565b509392505050565b600082601f83011261359557613594613468565b5b81356135a584826020860161353e565b91505092915050565b600080604083850312156135c5576135c46130d8565b5b60006135d3858286016131b8565b925050602083013567ffffffffffffffff8111156135f4576135f36130dd565b5b61360085828601613580565b9150509250929050565b600080600060608486031215613623576136226130d8565b5b6000613631868287016131b8565b935050602061364286828701613103565b925050604061365386828701613103565b9150509250925092565b6000819050919050565b600061368261367d6136788461316f565b61365d565b61316f565b9050919050565b600061369482613667565b9050919050565b60006136a682613689565b9050919050565b6136b68161369b565b82525050565b60006020820190506136d160008301846136ad565b92915050565b60008115159050919050565b6136ec816136d7565b82525050565b600060208201905061370760008301846136e3565b92915050565b600080600060608486031215613726576137256130d8565b5b6000613734868287016131b8565b9350506020613745868287016131b8565b9250506040613756868287016131b8565b9150509250925092565b60008060408385031215613777576137766130d8565b5b6000613785858286016131b8565b925050602061379685828601613103565b9150509250929050565b60006060820190506137b56000830186613145565b6137c26020830185613145565b6137cf6040830184613145565b949350505050565b600080604083850312156137ee576137ed6130d8565b5b60006137fc858286016131b8565b925050602061380d858286016131b8565b9150509250929050565b600081519050613826816130ec565b92915050565b600060208284031215613842576138416130d8565b5b600061385084828501613817565b91505092915050565b7f4e487b7100000000000000000000000000000000000000000000000000000000600052601160045260246000fd5b6000613893826130e2565b915061389e836130e2565b9250817fffffffffffffffffffffffffffffffffffffffffffffffffffffffffffffffff04831182151516156138d7576138d6613859565b5b828202905092915050565b7f4e487b7100000000000000000000000000000000000000000000000000000000600052601260045260246000fd5b600061391c826130e2565b9150613927836130e2565b925082613937576139366138e2565b5b828204905092915050565b600081519050613951816131a1565b92915050565b600067ffffffffffffffff82111561397257613971613483565b5b61397b82613472565b9050602081019050919050565b60005b838110156139a657808201518184015260208101905061398b565b838111156139b5576000848401525b50505050565b60006139ce6139c984613957565b6134e3565b9050828152602081018484840111156139ea576139e961346d565b5b6139f5848285613988565b509392505050565b600082601f830112613a1257613a11613468565b5b8151613a228482602086016139bb565b91505092915050565b600080600080600060a08688031215613a4757613a466130d8565b5b6000613a5588828901613942565b9550506020613a6688828901613817565b9450506040613a7788828901613817565b9350506060613a8888828901613817565b925050608086015167ffffffffffffffff811115613aa957613aa86130dd565b5b613ab5888289016139fd565b9150509295509295909350565b6000613acd826130e2565b91506000821415613ae157613ae0613859565b5b600182039050919050565b7f4e487b7100000000000000000000000000000000000000000000000000000000600052603260045260246000fd5b6000613b26826130e2565b9150613b31836130e2565b9250827fffffffffffffffffffffffffffffffffffffffffffffffffffffffffffffffff03821115613b6657613b65613859565b5b828201905092915050565b600082825260208201905092915050565b7f46756e6374696f6e206d7573742062652063616c6c6564207468726f7567682060008201527f64656c656761746563616c6c0000000000000000000000000000000000000000602082015250565b6000613bde602c83613b71565b9150613be982613b82565b604082019050919050565b60006020820190508181036000830152613c0d81613bd1565b9050919050565b7f46756e6374696f6e206d7573742062652063616c6c6564207468726f7567682060008201527f6163746976652070726f78790000000000000000000000000000000000000000602082015250565b6000613c70602c83613b71565b9150613c7b82613c14565b604082019050919050565b60006020820190508181036000830152613c9f81613c63565b9050919050565b6000613cb1826130e2565b9150613cbc836130e2565b925082821015613ccf57613cce613859565b5b828203905092915050565b7f4e487b7100000000000000000000000000000000000000000000000000000000600052603160045260246000fd5b6000604082019050613d1e600083018561337e565b613d2b6020830184613145565b9392505050565b7f4f776e61626c653a2063616c6c6572206973206e6f7420746865206f776e6572600082015250565b6000613d68602083613b71565b9150613d7382613d32565b602082019050919050565b60006020820190508181036000830152613d9781613d5b565b9050919050565b7f496e697469616c697a61626c653a20636f6e747261637420697320616c72656160008201527f647920696e697469616c697a6564000000000000000000000000000000000000602082015250565b6000613dfa602e83613b71565b9150613e0582613d9e565b604082019050919050565b60006020820190508181036000830152613e2981613ded565b9050919050565b7f4f776e61626c653a206e6577206f776e657220697320746865207a65726f206160008201527f6464726573730000000000000000000000000000000000000000000000000000602082015250565b6000613e8c602683613b71565b9150613e9782613e30565b604082019050919050565b60006020820190508181036000830152613ebb81613e7f565b9050919050565b600081905092915050565b7f476f7665726e616e636500000000000000000000000000000000000000000000600082015250565b6000613f03600a83613ec2565b9150613f0e82613ecd565b600a82019050919050565b6000613f2482613ef6565b9150819050919050565b600060208284031215613f4457613f436130d8565b5b6000613f5284828501613942565b91505092915050565b7f45524331393637557067726164653a207570677261646520627265616b73206660008201527f7572746865722075706772616465730000000000000000000000000000000000602082015250565b6000613fb7602f83613b71565b9150613fc282613f5b565b604082019050919050565b60006020820190508181036000830152613fe681613faa565b9050919050565b7f496e697469616c697a61626c653a20636f6e7472616374206973206e6f74206960008201527f6e697469616c697a696e67000000000000000000000000000000000000000000602082015250565b6000614049602b83613b71565b915061405482613fed565b604082019050919050565b600060208201905081810360008301526140788161403c565b9050919050565b7f455243313936373a206e657720696d706c656d656e746174696f6e206973206e60008201527f6f74206120636f6e747261637400000000000000000000000000000000000000602082015250565b60006140db602d83613b71565b91506140e68261407f565b604082019050919050565b6000602082019050818103600083015261410a816140ce565b9050919050565b7f416464726573733a2064656c65676174652063616c6c20746f206e6f6e2d636f60008201527f6e74726163740000000000000000000000000000000000000000000000000000602082015250565b600061416d602683613b71565b915061417882614111565b604082019050919050565b6000602082019050818103600083015261419c81614160565b9050919050565b600081519050919050565b600081905092915050565b60006141c4826141a3565b6141ce81856141ae565b93506141de818560208601613988565b80840191505092915050565b60006141f682846141b9565b915081905092915050565b600081519050919050565b600061421782614201565b6142218185613b71565b9350614231818560208601613988565b61423a81613472565b840191505092915050565b6000602082019050818103600083015261425f818461420c565b90509291505056fe416464726573733a206c6f772d6c6576656c2064656c65676174652063616c6c206661696c6564a26469706673582212208d896a9ec9c1526a0eec7beda071c416b72a907bca66e33fc23c7dec6feb9cb564736f6c634300080b0033",
  "devdoc": {
    "errors": {
      "CallerNotManager(address)": [
        {
          "params": {
            "caller": "`msg.sender` that called the function."
          }
        }
      ],
      "NoStakedCelo(address)": [
        {
          "params": {
            "account": "The account's address."
          }
        }
      ],
      "NotEnoughStakedCelo(address)": [
        {
          "params": {
            "account": "The account's address."
          }
        }
      ]
    },
    "events": {
      "LockedStCeloInVoting(address,uint256)": {
        "params": {
          "account": "The account's address.",
          "lockedCelo": "The stCELO that is still being locked."
        }
      },
      "ProposalVoted(address,uint256,uint256,uint256,uint256)": {
        "params": {
          "abstainVotes": "The abstain votes.",
          "noVotes": "The no votes.",
          "proposalId": "The proposal UIID.",
          "voter": "The voter's address.",
          "yesVotes": "The yes votes."
        }
      }
    },
    "kind": "dev",
    "methods": {
      "deleteExpiredProposalTimestamp(uint256)": {
        "params": {
          "proposalId": "The proposal Id."
        }
      },
      "deleteExpiredVoterProposalId(address,uint256,uint256)": {
        "params": {
          "index": "Index of voter's proposal id.",
          "proposalId": "The proposal id.",
          "voter": "The voter address."
        }
      },
      "getLockedStCeloInVoting(address)": {
        "params": {
          "beneficiary": "The account."
        }
      },
      "getProposalTimestamp(uint256)": {
        "params": {
          "proposalId": "The proposal UUID."
        },
        "returns": {
          "_0": "The timestamp of proposal."
        }
      },
      "getReferendumDuration()": {
        "returns": {
          "_0": "Governance referendum duration."
        }
      },
      "getVersionNumber()": {
        "returns": {
          "_0": "Storage version of the contract.",
          "_1": "Major version of the contract.",
          "_2": "Minor version of the contract.",
          "_3": "Patch version of the contract."
        }
      },
      "getVoteRecord(uint256)": {
        "params": {
          "proposalId": "The proposal UUID."
        }
      },
      "getVoteWeight(address)": {
        "params": {
          "beneficiary": "The account."
        }
      },
      "getVotedStillRelevantProposals(address)": {
        "details": "For up to date result call updateHistoryAndReturnLockedStCeloInVoting first.",
        "params": {
          "voter": "The voter."
        },
        "returns": {
          "_0": "Proposals in referendum stage."
        }
      },
      "initialize(address,address,address)": {
        "params": {
          "_manager": "The address of the contract manager.",
          "_owner": "The address of the contract owner.",
          "_registry": "The address of the Celo Registry."
        }
      },
      "isPaused()": {
        "returns": {
          "_0": "`true` if the contract is paused, `false` otherwise."
        }
      },
      "owner()": {
        "details": "Returns the address of the current owner."
      },
      "renounceOwnership()": {
        "details": "Leaves the contract without owner. It will not be possible to call `onlyOwner` functions anymore. Can only be called by the current owner. NOTE: Renouncing ownership will leave the contract without an owner, thereby removing any functionality that is only available to the owner."
      },
      "revokeVotes(address,uint256)": {
        "params": {
          "accountVoter": "The account that is voting.",
          "proposalId": "The ID of the proposal to vote on."
        },
        "returns": {
          "totalAbstainVotes": "SUM of all AccountContract abstain votes for proposal.",
          "totalNoVotes": "SUM of all AccountContract no votes for proposal.",
          "totalYesVotes": "SUM of all AccountContract yes votes for proposal."
        }
      },
      "setDependencies(address,address)": {
        "details": "The StakedCelo contracts all reference each other so we need a way of setting these after all contracts are deployed and initialized.",
        "params": {
          "_account": "The address of the Account contract.",
          "_stakedCelo": "the address of the StakedCelo contract."
        }
      },
      "setManager(address)": {
        "params": {
          "_manager": "The new manager address."
        }
      },
      "toCelo(uint256)": {
        "params": {
          "stCeloAmount": "The amount of stCELO burned."
        },
        "returns": {
          "_0": "The amount of CELO that should be withdrawn."
        }
      },
      "toStakedCelo(uint256)": {
        "params": {
          "celoAmount": "The amount of CELO deposited."
        },
        "returns": {
          "_0": "The amount of stCELO that should be minted."
        }
      },
      "transferOwnership(address)": {
        "details": "Transfers ownership of the contract to a new account (`newOwner`). Can only be called by the current owner."
      },
      "updateHistoryAndReturnLockedStCeloInVoting(address)": {
        "params": {
          "beneficiary": "The beneficiary."
        },
        "returns": {
          "_0": "Currently locked stCELO in voting."
        }
      },
      "upgradeTo(address)": {
        "details": "Upgrade the implementation of the proxy to `newImplementation`. Calls {_authorizeUpgrade}. Emits an {Upgraded} event."
      },
      "upgradeToAndCall(address,bytes)": {
        "details": "Upgrade the implementation of the proxy to `newImplementation`, and subsequently execute the function call encoded in `data`. Calls {_authorizeUpgrade}. Emits an {Upgraded} event."
      },
      "voteProposal(address,uint256,uint256,uint256,uint256)": {
        "params": {
          "abstainVotes": "The abstain votes weight.",
          "accountVoter": "The account that is voting.",
          "noVotes": "The no votes weight.",
          "proposalId": "The ID of the proposal to vote on.",
          "yesVotes": "The yes votes weight."
        },
        "returns": {
          "_0": "totalWeights Account's staked celo balance.",
          "totalAbstainVotes": "SUM of all AccountContract abstain votes for proposal.",
          "totalNoVotes": "SUM of all AccountContract no votes for proposal.",
          "totalYesVotes": "SUM of all AccountContract yes votes for proposal."
        }
      }
    },
    "title": "Handles governance voting for CELO in protocol.",
    "version": 1
  },
  "userdoc": {
    "errors": {
      "AddressZeroNotAllowed()": [
        {
          "notice": "Used when attempting to pass in address zero where not allowed."
        }
      ],
      "CallerNotManager(address)": [
        {
          "notice": "Used when an `onlyManager` function is called by a non-manager."
        }
      ],
      "IncorrectIndex()": [
        {
          "notice": "Used when attempting to delete voter's proposal id with incorrect index."
        }
      ],
      "NoStakedCelo(address)": [
        {
          "notice": "Used when attempting to vote when there is no stCELO."
        }
      ],
      "NotEnoughStakedCelo(address)": [
        {
          "notice": "Used when attempting to vote when there is not enough of stCELO."
        }
      ],
      "OnlyPauser()": [
        {
          "notice": "Used when an `onlyPauser` function is called with a different address."
        }
      ],
      "Paused()": [
        {
          "notice": "Used when an `onlyWhenNotPaused` function is called while the contract is paused."
        }
      ],
      "ProposalNotExpired()": [
        {
          "notice": "Used when attempting to delete voter's proposal id when proposal is not expired."
        }
      ]
    },
    "events": {
      "ContractPaused()": {
        "notice": "Emitted when this contract is paused."
      },
      "ContractUnpaused()": {
        "notice": "Emitted when this contract is unpaused."
      },
      "LockedStCeloInVoting(address,uint256)": {
        "notice": "Emitted when unlock of stCELO is requested."
      },
      "ManagerSet(address)": {
        "notice": "Emitted when the manager is initially set or later modified."
      },
      "PauserSet(address)": {
        "notice": "Emitted when the address authorized to pause/unpause the contract is changed."
      },
      "ProposalVoted(address,uint256,uint256,uint256,uint256)": {
        "notice": "Emitted when an account votes for governance proposal."
      }
    },
    "kind": "user",
    "methods": {
      "PAUSED_POSITION()": {
        "notice": "The storage slot under which we store a boolean representing whether or not the contract is currently paused."
      },
      "PAUSER_POSITION()": {
        "notice": "The storage slot under which we store an address representing the address permissioned to pause/unpause this contract."
      },
      "constructor": {
        "notice": "Empty constructor for proxy implementation, `initializer` modifer ensures the implementation gets initialized."
      },
      "deleteExpiredProposalTimestamp(uint256)": {
        "notice": "Deletes timestamp of expired proposal from storage."
      },
      "deleteExpiredVoterProposalId(address,uint256,uint256)": {
        "notice": "Deletes proposalId from voter's history if proposal expired."
      },
      "getLockedStCeloInVoting(address)": {
        "notice": "Returns currently locked stCELO in voting. (This stCELO cannot be unlocked.)"
      },
      "getProposalTimestamp(uint256)": {
        "notice": "Returns save timestamp of proposal."
      },
      "getVersionNumber()": {
        "notice": "Returns the storage, major, minor, and patch version of the contract."
      },
      "getVoteRecord(uint256)": {
        "notice": "Gets vote record of proposal."
      },
      "getVoteWeight(address)": {
        "notice": "Returns vote weight of account owning stCELO."
      },
      "getVotedStillRelevantProposals(address)": {
        "notice": "Returns proposals still in referendum stage that voter voted on."
      },
      "initialize(address,address,address)": {
        "notice": "Initialize the contract with registry and owner."
      },
      "isPaused()": {
        "notice": "Returns whether or not the contract is paused."
      },
      "pause()": {
        "notice": "Pauses the contract."
      },
      "pauser()": {
        "notice": "Returns the address permissioned to pause/unpause this contract."
      },
      "proposalTimestamps(uint256)": {
        "notice": "Timestamps of every voted proposal."
      },
      "registry()": {
        "notice": "The Registry."
      },
      "revokeVotes(address,uint256)": {
        "notice": "Revokes votes on already voted proposal."
      },
      "setDependencies(address,address)": {
        "notice": "Set this contract's dependencies in the StakedCelo system."
      },
      "setManager(address)": {
        "notice": "Sets the manager address."
      },
      "setPauser()": {
        "notice": "Sets that address permissioned to pause/unpause this contract to the owner of this contract."
      },
      "toCelo(uint256)": {
        "notice": "Computes the amount of CELO that should be withdrawn for a given amount of stCELO burned."
      },
      "toStakedCelo(uint256)": {
        "notice": "Computes the amount of stCELO that should be minted for a given amount of CELO deposited."
      },
      "unpause()": {
        "notice": "Unpauses the contract."
      },
      "updateHistoryAndReturnLockedStCeloInVoting(address)": {
        "notice": "Updates the beneficiaries voting history and returns locked stCELO in voting. (This stCELO cannot be unlocked.) And it will remove voted proposals from account history if appropriate."
      },
      "voteProposal(address,uint256,uint256,uint256,uint256)": {
        "notice": "Votes on a proposal in the referendum stage."
      }
    },
    "version": 1
  },
  "storageLayout": {
    "storage": [
      {
        "astId": 130,
        "contract": "contracts/Vote.sol:Vote",
        "label": "_initialized",
        "offset": 0,
        "slot": "0",
        "type": "t_bool"
      },
      {
        "astId": 133,
        "contract": "contracts/Vote.sol:Vote",
        "label": "_initializing",
        "offset": 1,
        "slot": "0",
        "type": "t_bool"
      },
      {
        "astId": 481,
        "contract": "contracts/Vote.sol:Vote",
        "label": "__gap",
        "offset": 0,
        "slot": "1",
        "type": "t_array(t_uint256)50_storage"
      },
      {
        "astId": 10,
        "contract": "contracts/Vote.sol:Vote",
        "label": "_owner",
        "offset": 0,
        "slot": "51",
        "type": "t_address"
      },
      {
        "astId": 122,
        "contract": "contracts/Vote.sol:Vote",
        "label": "__gap",
        "offset": 0,
        "slot": "52",
        "type": "t_array(t_uint256)49_storage"
      },
      {
        "astId": 6369,
        "contract": "contracts/Vote.sol:Vote",
        "label": "registry",
        "offset": 0,
        "slot": "101",
        "type": "t_contract(IRegistry)7600"
      },
      {
        "astId": 3636,
        "contract": "contracts/Vote.sol:Vote",
        "label": "manager",
        "offset": 0,
        "slot": "102",
        "type": "t_address"
      },
      {
        "astId": 5329,
        "contract": "contracts/Vote.sol:Vote",
        "label": "stakedCelo",
        "offset": 0,
        "slot": "103",
        "type": "t_contract(IStakedCelo)7668"
      },
      {
        "astId": 5333,
        "contract": "contracts/Vote.sol:Vote",
        "label": "account",
        "offset": 0,
        "slot": "104",
        "type": "t_contract(IAccount)6581"
      },
      {
        "astId": 5339,
        "contract": "contracts/Vote.sol:Vote",
        "label": "voteRecords",
        "offset": 0,
        "slot": "105",
        "type": "t_mapping(t_uint256,t_struct(ProposalVoteRecord)5307_storage)"
      },
      {
        "astId": 5345,
        "contract": "contracts/Vote.sol:Vote",
        "label": "voters",
        "offset": 0,
        "slot": "106",
        "type": "t_mapping(t_address,t_struct(Voter)5316_storage)"
      },
      {
        "astId": 5350,
        "contract": "contracts/Vote.sol:Vote",
        "label": "proposalTimestamps",
        "offset": 0,
        "slot": "107",
        "type": "t_mapping(t_uint256,t_uint256)"
      }
    ],
    "types": {
      "t_address": {
        "encoding": "inplace",
        "label": "address",
        "numberOfBytes": "20"
      },
      "t_array(t_uint256)49_storage": {
        "base": "t_uint256",
        "encoding": "inplace",
        "label": "uint256[49]",
        "numberOfBytes": "1568"
      },
      "t_array(t_uint256)50_storage": {
        "base": "t_uint256",
        "encoding": "inplace",
        "label": "uint256[50]",
        "numberOfBytes": "1600"
      },
      "t_array(t_uint256)dyn_storage": {
        "base": "t_uint256",
        "encoding": "dynamic_array",
        "label": "uint256[]",
        "numberOfBytes": "32"
      },
      "t_bool": {
        "encoding": "inplace",
        "label": "bool",
        "numberOfBytes": "1"
      },
      "t_contract(IAccount)6581": {
        "encoding": "inplace",
        "label": "contract IAccount",
        "numberOfBytes": "20"
      },
      "t_contract(IRegistry)7600": {
        "encoding": "inplace",
        "label": "contract IRegistry",
        "numberOfBytes": "20"
      },
      "t_contract(IStakedCelo)7668": {
        "encoding": "inplace",
        "label": "contract IStakedCelo",
        "numberOfBytes": "20"
      },
      "t_mapping(t_address,t_struct(Voter)5316_storage)": {
        "encoding": "mapping",
        "key": "t_address",
        "label": "mapping(address => struct Vote.Voter)",
        "numberOfBytes": "32",
        "value": "t_struct(Voter)5316_storage"
      },
      "t_mapping(t_uint256,t_struct(ProposalVoteRecord)5307_storage)": {
        "encoding": "mapping",
        "key": "t_uint256",
        "label": "mapping(uint256 => struct Vote.ProposalVoteRecord)",
        "numberOfBytes": "32",
        "value": "t_struct(ProposalVoteRecord)5307_storage"
      },
      "t_mapping(t_uint256,t_struct(VoterRecord)5325_storage)": {
        "encoding": "mapping",
        "key": "t_uint256",
        "label": "mapping(uint256 => struct Vote.VoterRecord)",
        "numberOfBytes": "32",
        "value": "t_struct(VoterRecord)5325_storage"
      },
      "t_mapping(t_uint256,t_uint256)": {
        "encoding": "mapping",
        "key": "t_uint256",
        "label": "mapping(uint256 => uint256)",
        "numberOfBytes": "32",
        "value": "t_uint256"
      },
      "t_struct(ProposalVoteRecord)5307_storage": {
        "encoding": "inplace",
        "label": "struct Vote.ProposalVoteRecord",
        "members": [
          {
            "astId": 5300,
            "contract": "contracts/Vote.sol:Vote",
            "label": "proposalId",
            "offset": 0,
            "slot": "0",
            "type": "t_uint256"
          },
          {
            "astId": 5302,
            "contract": "contracts/Vote.sol:Vote",
            "label": "yesVotes",
            "offset": 0,
            "slot": "1",
            "type": "t_uint256"
          },
          {
            "astId": 5304,
            "contract": "contracts/Vote.sol:Vote",
            "label": "noVotes",
            "offset": 0,
            "slot": "2",
            "type": "t_uint256"
          },
          {
            "astId": 5306,
            "contract": "contracts/Vote.sol:Vote",
            "label": "abstainVotes",
            "offset": 0,
            "slot": "3",
            "type": "t_uint256"
          }
        ],
        "numberOfBytes": "128"
      },
      "t_struct(Voter)5316_storage": {
        "encoding": "inplace",
        "label": "struct Vote.Voter",
        "members": [
          {
            "astId": 5312,
            "contract": "contracts/Vote.sol:Vote",
            "label": "proposalVotes",
            "offset": 0,
            "slot": "0",
            "type": "t_mapping(t_uint256,t_struct(VoterRecord)5325_storage)"
          },
          {
            "astId": 5315,
            "contract": "contracts/Vote.sol:Vote",
            "label": "votedProposalIds",
            "offset": 0,
            "slot": "1",
            "type": "t_array(t_uint256)dyn_storage"
          }
        ],
        "numberOfBytes": "64"
      },
      "t_struct(VoterRecord)5325_storage": {
        "encoding": "inplace",
        "label": "struct Vote.VoterRecord",
        "members": [
          {
            "astId": 5318,
            "contract": "contracts/Vote.sol:Vote",
            "label": "proposalId",
            "offset": 0,
            "slot": "0",
            "type": "t_uint256"
          },
          {
            "astId": 5320,
            "contract": "contracts/Vote.sol:Vote",
            "label": "yesVotes",
            "offset": 0,
            "slot": "1",
            "type": "t_uint256"
          },
          {
            "astId": 5322,
            "contract": "contracts/Vote.sol:Vote",
            "label": "noVotes",
            "offset": 0,
            "slot": "2",
            "type": "t_uint256"
          },
          {
            "astId": 5324,
            "contract": "contracts/Vote.sol:Vote",
            "label": "abstainVotes",
            "offset": 0,
            "slot": "3",
            "type": "t_uint256"
          }
        ],
        "numberOfBytes": "128"
      },
      "t_uint256": {
        "encoding": "inplace",
        "label": "uint256",
        "numberOfBytes": "32"
      }
    }
  }
}