{
  "address": "0xCdCD3EB9c303e83A348c42b905b97D8998b72FdE",
  "abi": [
    {
      "inputs": [],
      "stateMutability": "nonpayable",
      "type": "constructor"
    },
    {
      "inputs": [],
      "name": "AccountCreationFailed",
      "type": "error"
    },
    {
      "inputs": [
        {
          "internalType": "address",
          "name": "group",
          "type": "address"
        }
      ],
      "name": "ActivatePendingVotesFailed",
      "type": "error"
    },
    {
      "inputs": [
        {
          "internalType": "address",
          "name": "caller",
          "type": "address"
        }
      ],
      "name": "CallerNotManager",
      "type": "error"
    },
    {
      "inputs": [
        {
          "internalType": "address",
          "name": "to",
          "type": "address"
        },
        {
          "internalType": "uint256",
          "name": "amount",
          "type": "uint256"
        }
      ],
      "name": "CeloTransferFailed",
      "type": "error"
    },
    {
      "inputs": [],
      "name": "GroupsAndVotesArrayLengthsMismatch",
      "type": "error"
    },
    {
      "inputs": [
        {
          "internalType": "uint256",
          "name": "localPendingWithdrawalTimestamp",
          "type": "uint256"
        },
        {
          "internalType": "uint256",
          "name": "lockedGoldPendingWithdrawalTimestamp",
          "type": "uint256"
        }
      ],
      "name": "InconsistentPendingWithdrawalTimestamps",
      "type": "error"
    },
    {
      "inputs": [
        {
          "internalType": "uint256",
          "name": "localPendingWithdrawalValue",
          "type": "uint256"
        },
        {
          "internalType": "uint256",
          "name": "lockedGoldPendingWithdrawalValue",
          "type": "uint256"
        }
      ],
      "name": "InconsistentPendingWithdrawalValues",
      "type": "error"
    },
    {
      "inputs": [
        {
          "internalType": "address",
          "name": "group",
          "type": "address"
        },
        {
          "internalType": "uint256",
          "name": "amount",
          "type": "uint256"
        }
      ],
      "name": "InsufficientRevokableVotes",
      "type": "error"
    },
    {
      "inputs": [
        {
          "internalType": "address",
          "name": "beneficiary",
          "type": "address"
        },
        {
          "internalType": "address",
          "name": "group",
          "type": "address"
        }
      ],
      "name": "NoScheduledWithdrawal",
      "type": "error"
    },
    {
      "inputs": [],
      "name": "NullAddress",
      "type": "error"
    },
    {
      "inputs": [
        {
          "internalType": "uint256",
          "name": "pendingWithdrawalIndex",
          "type": "uint256"
        },
        {
          "internalType": "uint256",
          "name": "pendingWithdrawalsLength",
          "type": "uint256"
        }
      ],
      "name": "PendingWithdrawalIndexTooHigh",
      "type": "error"
    },
    {
      "inputs": [
        {
          "internalType": "address",
          "name": "group",
          "type": "address"
        },
        {
          "internalType": "uint256",
          "name": "amount",
          "type": "uint256"
        }
      ],
      "name": "RevokeActiveFailed",
      "type": "error"
    },
    {
      "inputs": [
        {
          "internalType": "address",
          "name": "group",
          "type": "address"
        },
        {
          "internalType": "uint256",
          "name": "amount",
          "type": "uint256"
        }
      ],
      "name": "RevokePendingFailed",
      "type": "error"
    },
    {
      "inputs": [
        {
          "internalType": "uint256",
          "name": "sentValue",
          "type": "uint256"
        },
        {
          "internalType": "uint256",
          "name": "expectedValue",
          "type": "uint256"
        }
      ],
      "name": "TotalVotesMismatch",
      "type": "error"
    },
    {
      "inputs": [
        {
          "internalType": "address",
          "name": "group",
          "type": "address"
        },
        {
          "internalType": "uint256",
          "name": "amount",
          "type": "uint256"
        }
      ],
      "name": "VoteFailed",
      "type": "error"
    },
    {
      "inputs": [
        {
          "internalType": "address",
          "name": "group",
          "type": "address"
        },
        {
          "internalType": "uint256",
          "name": "celoAvailable",
          "type": "uint256"
        },
        {
          "internalType": "uint256",
          "name": "celoToWindraw",
          "type": "uint256"
        }
      ],
      "name": "WithdrawalAmountTooHigh",
      "type": "error"
    },
    {
      "anonymous": false,
      "inputs": [
        {
          "indexed": false,
          "internalType": "address",
          "name": "previousAdmin",
          "type": "address"
        },
        {
          "indexed": false,
          "internalType": "address",
          "name": "newAdmin",
          "type": "address"
        }
      ],
      "name": "AdminChanged",
      "type": "event"
    },
    {
      "anonymous": false,
      "inputs": [
        {
          "indexed": true,
          "internalType": "address",
          "name": "beacon",
          "type": "address"
        }
      ],
      "name": "BeaconUpgraded",
      "type": "event"
    },
    {
      "anonymous": false,
      "inputs": [
        {
          "indexed": true,
          "internalType": "address",
          "name": "beneficiary",
          "type": "address"
        },
        {
          "indexed": false,
          "internalType": "uint256",
          "name": "amount",
          "type": "uint256"
        },
        {
          "indexed": false,
          "internalType": "uint256",
          "name": "timestamp",
          "type": "uint256"
        }
      ],
      "name": "CeloWithdrawalFinished",
      "type": "event"
    },
    {
      "anonymous": false,
      "inputs": [
        {
          "indexed": true,
          "internalType": "address",
          "name": "beneficiary",
          "type": "address"
        },
        {
          "indexed": true,
          "internalType": "address",
          "name": "group",
          "type": "address"
        },
        {
          "indexed": false,
          "internalType": "uint256",
          "name": "withdrawalAmount",
          "type": "uint256"
        }
      ],
      "name": "CeloWithdrawalScheduled",
      "type": "event"
    },
    {
      "anonymous": false,
      "inputs": [
        {
          "indexed": true,
          "internalType": "address",
          "name": "beneficiary",
          "type": "address"
        },
        {
          "indexed": true,
          "internalType": "address",
          "name": "group",
          "type": "address"
        },
        {
          "indexed": false,
          "internalType": "uint256",
          "name": "withdrawalAmount",
          "type": "uint256"
        }
      ],
      "name": "CeloWithdrawalStarted",
      "type": "event"
    },
    {
      "anonymous": false,
      "inputs": [
        {
          "indexed": true,
          "internalType": "address",
          "name": "manager",
          "type": "address"
        }
      ],
      "name": "ManagerSet",
      "type": "event"
    },
    {
      "anonymous": false,
      "inputs": [
        {
          "indexed": true,
          "internalType": "address",
          "name": "previousOwner",
          "type": "address"
        },
        {
          "indexed": true,
          "internalType": "address",
          "name": "newOwner",
          "type": "address"
        }
      ],
      "name": "OwnershipTransferred",
      "type": "event"
    },
    {
      "anonymous": false,
      "inputs": [
        {
          "indexed": true,
          "internalType": "address",
          "name": "implementation",
          "type": "address"
        }
      ],
      "name": "Upgraded",
      "type": "event"
    },
    {
      "anonymous": false,
      "inputs": [
        {
          "indexed": true,
          "internalType": "address",
          "name": "group",
          "type": "address"
        },
        {
          "indexed": false,
          "internalType": "uint256",
          "name": "amount",
          "type": "uint256"
        }
      ],
      "name": "VotesScheduled",
      "type": "event"
    },
    {
      "inputs": [
        {
          "internalType": "address",
          "name": "group",
          "type": "address"
        },
        {
          "internalType": "address",
          "name": "voteLesser",
          "type": "address"
        },
        {
          "internalType": "address",
          "name": "voteGreater",
          "type": "address"
        }
      ],
      "name": "activateAndVote",
      "outputs": [],
      "stateMutability": "nonpayable",
      "type": "function"
    },
    {
      "inputs": [
        {
          "internalType": "address",
          "name": "beneficiary",
          "type": "address"
        },
        {
          "internalType": "uint256",
          "name": "localPendingWithdrawalIndex",
          "type": "uint256"
        },
        {
          "internalType": "uint256",
          "name": "lockedGoldPendingWithdrawalIndex",
          "type": "uint256"
        }
      ],
      "name": "finishPendingWithdrawal",
      "outputs": [
        {
          "internalType": "uint256",
          "name": "amount",
          "type": "uint256"
        }
      ],
      "stateMutability": "nonpayable",
      "type": "function"
    },
    {
      "inputs": [
        {
          "internalType": "address",
          "name": "group",
          "type": "address"
        }
      ],
      "name": "getCeloForGroup",
      "outputs": [
        {
          "internalType": "uint256",
          "name": "",
          "type": "uint256"
        }
      ],
      "stateMutability": "view",
      "type": "function"
    },
    {
      "inputs": [
        {
          "internalType": "address",
          "name": "beneficiary",
          "type": "address"
        }
      ],
      "name": "getNumberPendingWithdrawals",
      "outputs": [
        {
          "internalType": "uint256",
          "name": "",
          "type": "uint256"
        }
      ],
      "stateMutability": "view",
      "type": "function"
    },
    {
      "inputs": [
        {
          "internalType": "address",
          "name": "beneficiary",
          "type": "address"
        },
        {
          "internalType": "uint256",
          "name": "index",
          "type": "uint256"
        }
      ],
      "name": "getPendingWithdrawal",
      "outputs": [
        {
          "internalType": "uint256",
          "name": "value",
          "type": "uint256"
        },
        {
          "internalType": "uint256",
          "name": "timestamp",
          "type": "uint256"
        }
      ],
      "stateMutability": "view",
      "type": "function"
    },
    {
      "inputs": [
        {
          "internalType": "address",
          "name": "beneficiary",
          "type": "address"
        }
      ],
      "name": "getPendingWithdrawals",
      "outputs": [
        {
          "internalType": "uint256[]",
          "name": "values",
          "type": "uint256[]"
        },
        {
          "internalType": "uint256[]",
          "name": "timestamps",
          "type": "uint256[]"
        }
      ],
      "stateMutability": "view",
      "type": "function"
    },
    {
      "inputs": [],
      "name": "getTotalCelo",
      "outputs": [
        {
          "internalType": "uint256",
          "name": "",
          "type": "uint256"
        }
      ],
      "stateMutability": "view",
      "type": "function"
    },
    {
      "inputs": [
        {
          "internalType": "address",
          "name": "_registry",
          "type": "address"
        },
        {
          "internalType": "address",
          "name": "_manager",
          "type": "address"
        },
        {
          "internalType": "address",
          "name": "_owner",
          "type": "address"
        }
      ],
      "name": "initialize",
      "outputs": [],
      "stateMutability": "nonpayable",
      "type": "function"
    },
    {
      "inputs": [],
      "name": "manager",
      "outputs": [
        {
          "internalType": "address",
          "name": "",
          "type": "address"
        }
      ],
      "stateMutability": "view",
      "type": "function"
    },
    {
      "inputs": [],
      "name": "owner",
      "outputs": [
        {
          "internalType": "address",
          "name": "",
          "type": "address"
        }
      ],
      "stateMutability": "view",
      "type": "function"
    },
    {
      "inputs": [
        {
          "internalType": "address",
          "name": "",
          "type": "address"
        },
        {
          "internalType": "uint256",
          "name": "",
          "type": "uint256"
        }
      ],
      "name": "pendingWithdrawals",
      "outputs": [
        {
          "internalType": "uint256",
          "name": "value",
          "type": "uint256"
        },
        {
          "internalType": "uint256",
          "name": "timestamp",
          "type": "uint256"
        }
      ],
      "stateMutability": "view",
      "type": "function"
    },
    {
      "inputs": [],
      "name": "registry",
      "outputs": [
        {
          "internalType": "contract IRegistry",
          "name": "",
          "type": "address"
        }
      ],
      "stateMutability": "view",
      "type": "function"
    },
    {
      "inputs": [],
      "name": "renounceOwnership",
      "outputs": [],
      "stateMutability": "nonpayable",
      "type": "function"
    },
    {
      "inputs": [
        {
          "internalType": "address[]",
          "name": "groups",
          "type": "address[]"
        },
        {
          "internalType": "uint256[]",
          "name": "votes",
          "type": "uint256[]"
        }
      ],
      "name": "scheduleVotes",
      "outputs": [],
      "stateMutability": "payable",
      "type": "function"
    },
    {
      "inputs": [
        {
          "internalType": "address",
          "name": "beneficiary",
          "type": "address"
        },
        {
          "internalType": "address[]",
          "name": "groups",
          "type": "address[]"
        },
        {
          "internalType": "uint256[]",
          "name": "withdrawals",
          "type": "uint256[]"
        }
      ],
      "name": "scheduleWithdrawals",
      "outputs": [],
      "stateMutability": "payable",
      "type": "function"
    },
    {
      "inputs": [
        {
          "internalType": "address",
          "name": "group",
          "type": "address"
        }
      ],
      "name": "scheduledVotesForGroup",
      "outputs": [
        {
          "internalType": "uint256",
          "name": "",
          "type": "uint256"
        }
      ],
      "stateMutability": "view",
      "type": "function"
    },
    {
      "inputs": [
        {
          "internalType": "address",
          "name": "group",
          "type": "address"
        }
      ],
      "name": "scheduledWithdrawalsForGroup",
      "outputs": [
        {
          "internalType": "uint256",
          "name": "",
          "type": "uint256"
        }
      ],
      "stateMutability": "view",
      "type": "function"
    },
    {
      "inputs": [
        {
          "internalType": "address",
          "name": "group",
          "type": "address"
        },
        {
          "internalType": "address",
          "name": "beneficiary",
          "type": "address"
        }
      ],
      "name": "scheduledWithdrawalsForGroupAndBeneficiary",
      "outputs": [
        {
          "internalType": "uint256",
          "name": "",
          "type": "uint256"
        }
      ],
      "stateMutability": "view",
      "type": "function"
    },
    {
      "inputs": [
        {
          "internalType": "address",
          "name": "_manager",
          "type": "address"
        }
      ],
      "name": "setManager",
      "outputs": [],
      "stateMutability": "nonpayable",
      "type": "function"
    },
    {
      "inputs": [],
      "name": "totalScheduledWithdrawals",
      "outputs": [
        {
          "internalType": "uint256",
          "name": "",
          "type": "uint256"
        }
      ],
      "stateMutability": "view",
      "type": "function"
    },
    {
      "inputs": [
        {
          "internalType": "address",
          "name": "newOwner",
          "type": "address"
        }
      ],
      "name": "transferOwnership",
      "outputs": [],
      "stateMutability": "nonpayable",
      "type": "function"
    },
    {
      "inputs": [
        {
          "internalType": "address",
          "name": "newImplementation",
          "type": "address"
        }
      ],
      "name": "upgradeTo",
      "outputs": [],
      "stateMutability": "nonpayable",
      "type": "function"
    },
    {
      "inputs": [
        {
          "internalType": "address",
          "name": "newImplementation",
          "type": "address"
        },
        {
          "internalType": "bytes",
          "name": "data",
          "type": "bytes"
        }
      ],
      "name": "upgradeToAndCall",
      "outputs": [],
      "stateMutability": "payable",
      "type": "function"
    },
    {
      "inputs": [
        {
          "internalType": "address",
          "name": "beneficiary",
          "type": "address"
        },
        {
          "internalType": "address",
          "name": "group",
          "type": "address"
        },
        {
          "internalType": "address",
          "name": "lesserAfterPendingRevoke",
          "type": "address"
        },
        {
          "internalType": "address",
          "name": "greaterAfterPendingRevoke",
          "type": "address"
        },
        {
          "internalType": "address",
          "name": "lesserAfterActiveRevoke",
          "type": "address"
        },
        {
          "internalType": "address",
          "name": "greaterAfterActiveRevoke",
          "type": "address"
        },
        {
          "internalType": "uint256",
          "name": "index",
          "type": "uint256"
        }
      ],
      "name": "withdraw",
      "outputs": [
        {
          "internalType": "uint256",
          "name": "",
          "type": "uint256"
        }
      ],
      "stateMutability": "nonpayable",
      "type": "function"
    },
    {
      "stateMutability": "payable",
      "type": "receive"
    }
  ],
  "transactionHash": "0xad2a8e4b9dba612c9e26a1fe72c09a1293cd629c2b7502e8b75ccd9542ed9ce7",
  "args": [],
  "numDeployments": 1,
  "solcInputHash": "4814d6b8a8394fe8b363a892b6618b21",
  "bytecode": "0x60a06040523073ffffffffffffffffffffffffffffffffffffffff1660809073ffffffffffffffffffffffffffffffffffffffff168152503480156200004457600080fd5b50600060019054906101000a900460ff166200006f5760008054906101000a900460ff161562000080565b6200007f6200013c60201b60201c565b5b620000c2576040517f08c379a0000000000000000000000000000000000000000000000000000000008152600401620000b99062000204565b60405180910390fd5b60008060019054906101000a900460ff16159050801562000113576001600060016101000a81548160ff02191690831515021790555060016000806101000a81548160ff0219169083151502179055505b8015620001355760008060016101000a81548160ff0219169083151502179055505b5062000226565b600062000154306200015a60201b620025031760201c565b15905090565b6000808273ffffffffffffffffffffffffffffffffffffffff163b119050919050565b600082825260208201905092915050565b7f496e697469616c697a61626c653a20636f6e747261637420697320616c72656160008201527f647920696e697469616c697a6564000000000000000000000000000000000000602082015250565b6000620001ec602e836200017d565b9150620001f9826200018e565b604082019050919050565b600060208201905081810360008301526200021f81620001dd565b9050919050565b608051614a476200025760003960008181610df201528181610e8101528181610fe201526110710152614a476000f3fe60806040526004361061014f5760003560e01c806384aff2e7116100b6578063c7fb23281161006f578063c7fb23281461049b578063c9a101f3146104d8578063d0ebdbe714610501578063d15ca4ed1461052a578063f2fde38b14610568578063f340c0d01461059157610156565b806384aff2e7146103535780638da5cb5b14610390578063a020c8de146103bb578063acd201d0146103f8578063b09bdc5e14610435578063c0c53b8b1461047257610156565b806344dc49701161010857806344dc49701461024f578063481c6a751461028d5780634f1ef286146102b85780635fd5c95e146102d4578063715018a6146103115780637b1039991461032857610156565b806301c21d591461015b57806301d2b6ea146101775780631449edb0146101a25780632ad9ac41146101df5780632f842a1a1461020a5780633659cfe61461022657610156565b3661015657005b600080fd5b61017560048036038101906101709190613751565b6105cf565b005b34801561018357600080fd5b5061018c610862565b60405161019991906137eb565b60405180910390f35b3480156101ae57600080fd5b506101c960048036038101906101c49190613864565b610902565b6040516101d691906137eb565b60405180910390f35b3480156101eb57600080fd5b506101f461094e565b60405161020191906137eb565b60405180910390f35b610224600480360381019061021f9190613891565b610954565b005b34801561023257600080fd5b5061024d60048036038101906102489190613864565b610df0565b005b34801561025b57600080fd5b5061027660048036038101906102719190613952565b610f79565b604051610284929190613992565b60405180910390f35b34801561029957600080fd5b506102a2610fba565b6040516102af91906139ca565b60405180910390f35b6102d260048036038101906102cd9190613b26565b610fe0565b005b3480156102e057600080fd5b506102fb60048036038101906102f69190613864565b61111d565b60405161030891906137eb565b60405180910390f35b34801561031d57600080fd5b50610326611169565b005b34801561033457600080fd5b5061033d6111f1565b60405161034a9190613be1565b60405180910390f35b34801561035f57600080fd5b5061037a60048036038101906103759190613bfc565b611217565b60405161038791906137eb565b60405180910390f35b34801561039c57600080fd5b506103a56114ae565b6040516103b291906139ca565b60405180910390f35b3480156103c757600080fd5b506103e260048036038101906103dd9190613c4f565b6114d8565b6040516103ef91906137eb565b60405180910390f35b34801561040457600080fd5b5061041f600480360381019061041a9190613864565b611a4d565b60405161042c91906137eb565b60405180910390f35b34801561044157600080fd5b5061045c60048036038101906104579190613864565b611b73565b60405161046991906137eb565b60405180910390f35b34801561047e57600080fd5b5061049960048036038101906104949190613cf1565b611bbf565b005b3480156104a757600080fd5b506104c260048036038101906104bd9190613d44565b611d6f565b6040516104cf91906137eb565b60405180910390f35b3480156104e457600080fd5b506104ff60048036038101906104fa9190613cf1565b611df9565b005b34801561050d57600080fd5b5061052860048036038101906105239190613864565b612118565b005b34801561053657600080fd5b50610551600480360381019061054c9190613952565b6121a0565b60405161055f929190613992565b60405180910390f35b34801561057457600080fd5b5061058f600480360381019061058a9190613864565b61223b565b005b34801561059d57600080fd5b506105b860048036038101906105b39190613864565b612333565b6040516105c6929190613e42565b60405180910390f35b3373ffffffffffffffffffffffffffffffffffffffff16606660009054906101000a900473ffffffffffffffffffffffffffffffffffffffff1673ffffffffffffffffffffffffffffffffffffffff161461066157336040517f3b2495f100000000000000000000000000000000000000000000000000000000815260040161065891906139ca565b60405180910390fd5b8181905084849050146106a0576040517f8cd9cb4d00000000000000000000000000000000000000000000000000000000815260040160405180910390fd5b600080600090505b85859050811015610814578383828181106106c6576106c5613e79565b5b90506020020135606860008888858181106106e4576106e3613e79565b5b90506020020160208101906106f99190613864565b73ffffffffffffffffffffffffffffffffffffffff1673ffffffffffffffffffffffffffffffffffffffff16815260200190815260200160002060000160008282546107459190613ed7565b9250508190555083838281811061075f5761075e613e79565b5b90506020020135826107719190613ed7565b915085858281811061078657610785613e79565b5b905060200201602081019061079b9190613864565b73ffffffffffffffffffffffffffffffffffffffff167f3ee8e5d1cb8671d12b5b20284bb69c7fc325211a1f957cab060d8a78dcc64fba8585848181106107e5576107e4613e79565b5b905060200201356040516107f991906137eb565b60405180910390a2808061080c90613f2d565b9150506106a8565b5034811461085b5734816040517f02760fce000000000000000000000000000000000000000000000000000000008152600401610852929190613992565b60405180910390fd5b5050505050565b600060695461086f612526565b73ffffffffffffffffffffffffffffffffffffffff166330ec70f5306040518263ffffffff1660e01b81526004016108a791906139ca565b602060405180830381865afa1580156108c4573d6000803e3d6000fd5b505050506040513d601f19601f820116820180604052508101906108e89190613f8b565b476108f39190613ed7565b6108fd9190613fb8565b905090565b6000606760008373ffffffffffffffffffffffffffffffffffffffff1673ffffffffffffffffffffffffffffffffffffffff168152602001908152602001600020805490509050919050565b60695481565b3373ffffffffffffffffffffffffffffffffffffffff16606660009054906101000a900473ffffffffffffffffffffffffffffffffffffffff1673ffffffffffffffffffffffffffffffffffffffff16146109e657336040517f3b2495f10000000000000000000000000000000000000000000000000000000081526004016109dd91906139ca565b60405180910390fd5b818190508484905014610a25576040517f8cd9cb4d00000000000000000000000000000000000000000000000000000000815260040160405180910390fd5b600080600090505b83839050811015610dce5760003073ffffffffffffffffffffffffffffffffffffffff1663acd201d0888885818110610a6957610a68613e79565b5b9050602002016020810190610a7e9190613864565b6040518263ffffffff1660e01b8152600401610a9a91906139ca565b602060405180830381865afa158015610ab7573d6000803e3d6000fd5b505050506040513d601f19601f82011682018060405250810190610adb9190613f8b565b9050848483818110610af057610aef613e79565b5b90506020020135811015610b7f57868683818110610b1157610b10613e79565b5b9050602002016020810190610b269190613864565b81868685818110610b3a57610b39613e79565b5b905060200201356040517fd5493527000000000000000000000000000000000000000000000000000000008152600401610b7693929190613fec565b60405180910390fd5b848483818110610b9257610b91613e79565b5b9050602002013560686000898986818110610bb057610baf613e79565b5b9050602002016020810190610bc59190613864565b73ffffffffffffffffffffffffffffffffffffffff1673ffffffffffffffffffffffffffffffffffffffff1681526020019081526020016000206001016000828254610c119190613ed7565b92505081905550848483818110610c2b57610c2a613e79565b5b9050602002013560686000898986818110610c4957610c48613e79565b5b9050602002016020810190610c5e9190613864565b73ffffffffffffffffffffffffffffffffffffffff1673ffffffffffffffffffffffffffffffffffffffff16815260200190815260200160002060020160008a73ffffffffffffffffffffffffffffffffffffffff1673ffffffffffffffffffffffffffffffffffffffff1681526020019081526020016000206000828254610ce79190613ed7565b92505081905550848483818110610d0157610d00613e79565b5b9050602002013583610d139190613ed7565b9250868683818110610d2857610d27613e79565b5b9050602002016020810190610d3d9190613864565b73ffffffffffffffffffffffffffffffffffffffff168873ffffffffffffffffffffffffffffffffffffffff167f6b63acc273560d01b849e2d77c42ac2cd2b6ff5e1c775423c52a6e50be320e7b878786818110610d9e57610d9d613e79565b5b90506020020135604051610db291906137eb565b60405180910390a3508080610dc690613f2d565b915050610a2d565b508060696000828254610de19190613ed7565b92505081905550505050505050565b7f000000000000000000000000000000000000000000000000000000000000000073ffffffffffffffffffffffffffffffffffffffff163073ffffffffffffffffffffffffffffffffffffffff161415610e7f576040517f08c379a0000000000000000000000000000000000000000000000000000000008152600401610e76906140a6565b60405180910390fd5b7f000000000000000000000000000000000000000000000000000000000000000073ffffffffffffffffffffffffffffffffffffffff16610ebe6125ed565b73ffffffffffffffffffffffffffffffffffffffff1614610f14576040517f08c379a0000000000000000000000000000000000000000000000000000000008152600401610f0b90614138565b60405180910390fd5b610f1d81612644565b610f7681600067ffffffffffffffff811115610f3c57610f3b6139fb565b5b6040519080825280601f01601f191660200182016040528015610f6e5781602001600182028036833780820191505090505b5060006126c3565b50565b60676020528160005260406000208181548110610f9557600080fd5b9060005260206000209060020201600091509150508060000154908060010154905082565b606660009054906101000a900473ffffffffffffffffffffffffffffffffffffffff1681565b7f000000000000000000000000000000000000000000000000000000000000000073ffffffffffffffffffffffffffffffffffffffff163073ffffffffffffffffffffffffffffffffffffffff16141561106f576040517f08c379a0000000000000000000000000000000000000000000000000000000008152600401611066906140a6565b60405180910390fd5b7f000000000000000000000000000000000000000000000000000000000000000073ffffffffffffffffffffffffffffffffffffffff166110ae6125ed565b73ffffffffffffffffffffffffffffffffffffffff1614611104576040517f08c379a00000000000000000000000000000000000000000000000000000000081526004016110fb90614138565b60405180910390fd5b61110d82612644565b611119828260016126c3565b5050565b6000606860008373ffffffffffffffffffffffffffffffffffffffff1673ffffffffffffffffffffffffffffffffffffffff168152602001908152602001600020600001549050919050565b611171612894565b73ffffffffffffffffffffffffffffffffffffffff1661118f6114ae565b73ffffffffffffffffffffffffffffffffffffffff16146111e5576040517f08c379a00000000000000000000000000000000000000000000000000000000081526004016111dc906141a4565b60405180910390fd5b6111ef600061289c565b565b606560009054906101000a900473ffffffffffffffffffffffffffffffffffffffff1681565b6000806000611227868686612962565b915091506000606760008873ffffffffffffffffffffffffffffffffffffffff1673ffffffffffffffffffffffffffffffffffffffff168152602001908152602001600020905080600182805490506112809190613fb8565b8154811061129157611290613e79565b5b90600052602060002090600202018187815481106112b2576112b1613e79565b5b90600052602060002090600202016000820154816000015560018201548160010155905050808054806112e8576112e76141c4565b5b6001900381819060005260206000209060020201600080820160009055600182016000905550509055611319612526565b73ffffffffffffffffffffffffffffffffffffffff16632e1a7d4d866040518263ffffffff1660e01b815260040161135191906137eb565b600060405180830381600087803b15801561136b57600080fd5b505af115801561137f573d6000803e3d6000fd5b50505050600061138d612bef565b73ffffffffffffffffffffffffffffffffffffffff1663a9059cbb89866040518363ffffffff1660e01b81526004016113c79291906141f3565b6020604051808303816000875af11580156113e6573d6000803e3d6000fd5b505050506040513d601f19601f8201168201806040525081019061140a9190614254565b9050806114505787846040517fbe1b53150000000000000000000000000000000000000000000000000000000081526004016114479291906141f3565b60405180910390fd5b8773ffffffffffffffffffffffffffffffffffffffff167f3bb2914428a7565afeafb57ef1a5bad4a2de7be9bf7b41b7e5da505f4b974ce28585604051611498929190613992565b60405180910390a2839450505050509392505050565b6000603360009054906101000a900473ffffffffffffffffffffffffffffffffffffffff16905090565b600080606860008973ffffffffffffffffffffffffffffffffffffffff1673ffffffffffffffffffffffffffffffffffffffff16815260200190815260200160002060020160008a73ffffffffffffffffffffffffffffffffffffffff1673ffffffffffffffffffffffffffffffffffffffff16815260200190815260200160002054905060008114156115a55788886040517f7a9a71fb00000000000000000000000000000000000000000000000000000000815260040161159c929190614281565b60405180910390fd5b8773ffffffffffffffffffffffffffffffffffffffff168973ffffffffffffffffffffffffffffffffffffffff167f6e250cfd645a8eac07044223b0b240549b17fe4a71aab09d925cb413b72b00ae8360405161160291906137eb565b60405180910390a36000606860008a73ffffffffffffffffffffffffffffffffffffffff1673ffffffffffffffffffffffffffffffffffffffff16815260200190815260200160002060020160008b73ffffffffffffffffffffffffffffffffffffffff1673ffffffffffffffffffffffffffffffffffffffff1681526020019081526020016000208190555080606860008a73ffffffffffffffffffffffffffffffffffffffff1673ffffffffffffffffffffffffffffffffffffffff16815260200190815260200160002060010160008282546116e19190613fb8565b9250508190555080606960008282546116fa9190613fb8565b925050819055506000606860008a73ffffffffffffffffffffffffffffffffffffffff1673ffffffffffffffffffffffffffffffffffffffff1681526020019081526020016000206000015490506000811115611898578181111561175d578190505b80606860008b73ffffffffffffffffffffffffffffffffffffffff1673ffffffffffffffffffffffffffffffffffffffff16815260200190815260200160002060000160008282546117af9190613fb8565b9250508190555060006117c0612bef565b73ffffffffffffffffffffffffffffffffffffffff1663a9059cbb8c846040518363ffffffff1660e01b81526004016117fa9291906141f3565b6020604051808303816000875af1158015611819573d6000803e3d6000fd5b505050506040513d601f19601f8201168201806040525081019061183d9190614254565b905080611883578a826040517fbe1b531500000000000000000000000000000000000000000000000000000000815260040161187a9291906141f3565b60405180910390fd5b8282141561189657819350505050611a42565b505b600081836118a69190613fb8565b905060006118b2612526565b9050606760008d73ffffffffffffffffffffffffffffffffffffffff1673ffffffffffffffffffffffffffffffffffffffff16815260200190815260200160002060405180604001604052808481526020018373ffffffffffffffffffffffffffffffffffffffff166320637d8e6040518163ffffffff1660e01b8152600401602060405180830381865afa15801561194f573d6000803e3d6000fd5b505050506040513d601f19601f820116820180604052508101906119739190613f8b565b4261197e9190613ed7565b8152509080600181540180825580915050600190039060005260206000209060020201600090919091909150600082015181600001556020820151816001015550506119cf8b838c8c8c8c8c612cb6565b8073ffffffffffffffffffffffffffffffffffffffff16636198e339836040518263ffffffff1660e01b8152600401611a0891906137eb565b600060405180830381600087803b158015611a2257600080fd5b505af1158015611a36573d6000803e3d6000fd5b50505050829450505050505b979650505050505050565b6000606860008373ffffffffffffffffffffffffffffffffffffffff1673ffffffffffffffffffffffffffffffffffffffff16815260200190815260200160002060010154606860008473ffffffffffffffffffffffffffffffffffffffff1673ffffffffffffffffffffffffffffffffffffffff16815260200190815260200160002060000154611add612fe0565b73ffffffffffffffffffffffffffffffffffffffff16633861727285306040518363ffffffff1660e01b8152600401611b17929190614281565b602060405180830381865afa158015611b34573d6000803e3d6000fd5b505050506040513d601f19601f82011682018060405250810190611b589190613f8b565b611b629190613ed7565b611b6c9190613fb8565b9050919050565b6000606860008373ffffffffffffffffffffffffffffffffffffffff1673ffffffffffffffffffffffffffffffffffffffff168152602001908152602001600020600101549050919050565b600060019054906101000a900460ff16611be75760008054906101000a900460ff1615611bf0565b611bef6130a7565b5b611c2f576040517f08c379a0000000000000000000000000000000000000000000000000000000008152600401611c269061431c565b60405180910390fd5b60008060019054906101000a900460ff161590508015611c7f576001600060016101000a81548160ff02191690831515021790555060016000806101000a81548160ff0219169083151502179055505b611c88846130b8565b611c91836131c9565b611c9a8261289c565b611ca2613224565b73ffffffffffffffffffffffffffffffffffffffff16639dca362f6040518163ffffffff1660e01b81526004016020604051808303816000875af1158015611cee573d6000803e3d6000fd5b505050506040513d601f19601f82011682018060405250810190611d129190614254565b611d48576040517f20188a5900000000000000000000000000000000000000000000000000000000815260040160405180910390fd5b8015611d695760008060016101000a81548160ff0219169083151502179055505b50505050565b6000606860008473ffffffffffffffffffffffffffffffffffffffff1673ffffffffffffffffffffffffffffffffffffffff16815260200190815260200160002060020160008373ffffffffffffffffffffffffffffffffffffffff1673ffffffffffffffffffffffffffffffffffffffff16815260200190815260200160002054905092915050565b6000611e03612fe0565b90506000606860008673ffffffffffffffffffffffffffffffffffffffff1673ffffffffffffffffffffffffffffffffffffffff1681526020019081526020016000206000015490506000606860008773ffffffffffffffffffffffffffffffffffffffff1673ffffffffffffffffffffffffffffffffffffffff168152602001908152602001600020600001819055508173ffffffffffffffffffffffffffffffffffffffff1663263ecf7430876040518363ffffffff1660e01b8152600401611ecf929190614281565b602060405180830381865afa158015611eec573d6000803e3d6000fd5b505050506040513d601f19601f82011682018060405250810190611f109190614254565b15611fd3578173ffffffffffffffffffffffffffffffffffffffff16631c5a9d9c866040518263ffffffff1660e01b8152600401611f4e91906139ca565b6020604051808303816000875af1158015611f6d573d6000803e3d6000fd5b505050506040513d601f19601f82011682018060405250810190611f919190614254565b611fd257846040517fbafbcc57000000000000000000000000000000000000000000000000000000008152600401611fc991906139ca565b60405180910390fd5b5b6000811415611fe3575050612113565b611feb612526565b73ffffffffffffffffffffffffffffffffffffffff1663f83d08ba826040518263ffffffff1660e01b81526004016000604051808303818588803b15801561203257600080fd5b505af1158015612046573d6000803e3d6000fd5b50505050508173ffffffffffffffffffffffffffffffffffffffff1663580d747a868387876040518563ffffffff1660e01b815260040161208a949392919061433c565b6020604051808303816000875af11580156120a9573d6000803e3d6000fd5b505050506040513d601f19601f820116820180604052508101906120cd9190614254565b6121105784816040517fcbf8d8ef0000000000000000000000000000000000000000000000000000000081526004016121079291906141f3565b60405180910390fd5b50505b505050565b612120612894565b73ffffffffffffffffffffffffffffffffffffffff1661213e6114ae565b73ffffffffffffffffffffffffffffffffffffffff1614612194576040517f08c379a000000000000000000000000000000000000000000000000000000000815260040161218b906141a4565b60405180910390fd5b61219d816132eb565b50565b6000806000606760008673ffffffffffffffffffffffffffffffffffffffff1673ffffffffffffffffffffffffffffffffffffffff16815260200190815260200160002084815481106121f6576121f5613e79565b5b90600052602060002090600202016040518060400160405290816000820154815260200160018201548152505090508060000151816020015192509250509250929050565b612243612894565b73ffffffffffffffffffffffffffffffffffffffff166122616114ae565b73ffffffffffffffffffffffffffffffffffffffff16146122b7576040517f08c379a00000000000000000000000000000000000000000000000000000000081526004016122ae906141a4565b60405180910390fd5b600073ffffffffffffffffffffffffffffffffffffffff168173ffffffffffffffffffffffffffffffffffffffff161415612327576040517f08c379a000000000000000000000000000000000000000000000000000000000815260040161231e906143f3565b60405180910390fd5b6123308161289c565b50565b6060806000606760008573ffffffffffffffffffffffffffffffffffffffff1673ffffffffffffffffffffffffffffffffffffffff1681526020019081526020016000208054905090508067ffffffffffffffff811115612397576123966139fb565b5b6040519080825280602002602001820160405280156123c55781602001602082028036833780820191505090505b5092508067ffffffffffffffff8111156123e2576123e16139fb565b5b6040519080825280602002602001820160405280156124105781602001602082028036833780820191505090505b50915060005b818110156124fc576000606760008773ffffffffffffffffffffffffffffffffffffffff1673ffffffffffffffffffffffffffffffffffffffff168152602001908152602001600020828154811061247157612470613e79565b5b906000526020600020906002020160405180604001604052908160008201548152602001600182015481525050905080600001518583815181106124b8576124b7613e79565b5b60200260200101818152505080602001518483815181106124dc576124db613e79565b5b6020026020010181815250505080806124f490613f2d565b915050612416565b5050915091565b6000808273ffffffffffffffffffffffffffffffffffffffff163b119050919050565b6000606560009054906101000a900473ffffffffffffffffffffffffffffffffffffffff1673ffffffffffffffffffffffffffffffffffffffff1663dcf0aaed6040516020016125759061446a565b604051602081830303815290604052805190602001206040518263ffffffff1660e01b81526004016125a79190614498565b602060405180830381865afa1580156125c4573d6000803e3d6000fd5b505050506040513d601f19601f820116820180604052508101906125e891906144c8565b905090565b600061261b7f360894a13ba1a3210667c828492db98dca3e2076cc3735a920a3ca505d382bbc60001b6133d9565b60000160009054906101000a900473ffffffffffffffffffffffffffffffffffffffff16905090565b61264c612894565b73ffffffffffffffffffffffffffffffffffffffff1661266a6114ae565b73ffffffffffffffffffffffffffffffffffffffff16146126c0576040517f08c379a00000000000000000000000000000000000000000000000000000000081526004016126b7906141a4565b60405180910390fd5b50565b60006126cd6125ed565b90506126d8846133e3565b6000835111806126e55750815b156126f6576126f4848461349c565b505b60006127247f4910fdfa16fed3260ed0e7147f7cc6da11a60208b5b9406d12a635614ffd914360001b6134c9565b90508060000160009054906101000a900460ff1661288d5760018160000160006101000a81548160ff0219169083151502179055506127f0858360405160240161276e91906139ca565b6040516020818303038152906040527f3659cfe6000000000000000000000000000000000000000000000000000000007bffffffffffffffffffffffffffffffffffffffffffffffffffffffff19166020820180517bffffffffffffffffffffffffffffffffffffffffffffffffffffffff838183161783525050505061349c565b5060008160000160006101000a81548160ff0219169083151502179055506128166125ed565b73ffffffffffffffffffffffffffffffffffffffff168273ffffffffffffffffffffffffffffffffffffffff1614612883576040517f08c379a000000000000000000000000000000000000000000000000000000000815260040161287a90614567565b60405180910390fd5b61288c856134d3565b5b5050505050565b600033905090565b6000603360009054906101000a900473ffffffffffffffffffffffffffffffffffffffff16905081603360006101000a81548173ffffffffffffffffffffffffffffffffffffffff021916908373ffffffffffffffffffffffffffffffffffffffff1602179055508173ffffffffffffffffffffffffffffffffffffffff168173ffffffffffffffffffffffffffffffffffffffff167f8be0079c531659141344cd1fd0a4f28419497f9722a3daafe3b4186f6b6457e060405160405180910390a35050565b600080606760008673ffffffffffffffffffffffffffffffffffffffff1673ffffffffffffffffffffffffffffffffffffffff168152602001908152602001600020805490508410612a2f5783606760008773ffffffffffffffffffffffffffffffffffffffff1673ffffffffffffffffffffffffffffffffffffffff168152602001908152602001600020805490506040517fdee6f574000000000000000000000000000000000000000000000000000000008152600401612a26929190613992565b60405180910390fd5b600080612a3a612526565b73ffffffffffffffffffffffffffffffffffffffff1663d15ca4ed30876040518363ffffffff1660e01b8152600401612a749291906141f3565b6040805180830381865afa158015612a90573d6000803e3d6000fd5b505050506040513d601f19601f82011682018060405250810190612ab49190614587565b915091506000606760008973ffffffffffffffffffffffffffffffffffffffff1673ffffffffffffffffffffffffffffffffffffffff1681526020019081526020016000208781548110612b0b57612b0a613e79565b5b906000526020600020906002020160405180604001604052908160008201548152602001600182015481525050905082816000015114612b88578060000151836040517f753c4c22000000000000000000000000000000000000000000000000000000008152600401612b7f929190613992565b60405180910390fd5b81816020015114612bd6578060200151826040517f8acd9503000000000000000000000000000000000000000000000000000000008152600401612bcd929190613992565b60405180910390fd5b8060000151816020015194509450505050935093915050565b6000606560009054906101000a900473ffffffffffffffffffffffffffffffffffffffff1673ffffffffffffffffffffffffffffffffffffffff1663dcf0aaed604051602001612c3e90614613565b604051602081830303815290604052805190602001206040518263ffffffff1660e01b8152600401612c709190614498565b602060405180830381865afa158015612c8d573d6000803e3d6000fd5b505050506040513d601f19601f82011682018060405250810190612cb191906144c8565b905090565b6000612cc0612fe0565b905060008173ffffffffffffffffffffffffffffffffffffffff16639b95975f8a306040518363ffffffff1660e01b8152600401612cff929190614281565b602060405180830381865afa158015612d1c573d6000803e3d6000fd5b505050506040513d601f19601f82011682018060405250810190612d409190613f8b565b90506000612d4e8983613522565b90506000811115612e21578273ffffffffffffffffffffffffffffffffffffffff16639dfb60818b838b8b896040518663ffffffff1660e01b8152600401612d9a959493929190614628565b6020604051808303816000875af1158015612db9573d6000803e3d6000fd5b505050506040513d601f19601f82011682018060405250810190612ddd9190614254565b612e205789896040517f88f72d99000000000000000000000000000000000000000000000000000000008152600401612e179291906141f3565b60405180910390fd5b5b6000818a612e2f9190613fb8565b90506000811415612e435750505050612fd7565b60008473ffffffffffffffffffffffffffffffffffffffff1663d3e242a48d306040518363ffffffff1660e01b8152600401612e80929190614281565b602060405180830381865afa158015612e9d573d6000803e3d6000fd5b505050506040513d601f19601f82011682018060405250810190612ec19190613f8b565b905081811015612f0a578b8b6040517fc7b27867000000000000000000000000000000000000000000000000000000008152600401612f019291906141f3565b60405180910390fd5b8473ffffffffffffffffffffffffffffffffffffffff16636e1984758d848b8b8b6040518663ffffffff1660e01b8152600401612f4b959493929190614628565b6020604051808303816000875af1158015612f6a573d6000803e3d6000fd5b505050506040513d601f19601f82011682018060405250810190612f8e9190614254565b612fd1578b8b6040517f21ffa8e9000000000000000000000000000000000000000000000000000000008152600401612fc89291906141f3565b60405180910390fd5b50505050505b50505050505050565b6000606560009054906101000a900473ffffffffffffffffffffffffffffffffffffffff1673ffffffffffffffffffffffffffffffffffffffff1663dcf0aaed60405160200161302f906146c7565b604051602081830303815290604052805190602001206040518263ffffffff1660e01b81526004016130619190614498565b602060405180830381865afa15801561307e573d6000803e3d6000fd5b505050506040513d601f19601f820116820180604052508101906130a291906144c8565b905090565b60006130b230612503565b15905090565b600060019054906101000a900460ff16613107576040517f08c379a00000000000000000000000000000000000000000000000000000000081526004016130fe9061474e565b60405180910390fd5b600073ffffffffffffffffffffffffffffffffffffffff168173ffffffffffffffffffffffffffffffffffffffff1614156131845761ce10606560006101000a81548173ffffffffffffffffffffffffffffffffffffffff021916908373ffffffffffffffffffffffffffffffffffffffff1602179055506131c6565b80606560006101000a81548173ffffffffffffffffffffffffffffffffffffffff021916908373ffffffffffffffffffffffffffffffffffffffff1602179055505b50565b600060019054906101000a900460ff16613218576040517f08c379a000000000000000000000000000000000000000000000000000000000815260040161320f9061474e565b60405180910390fd5b613221816132eb565b50565b6000606560009054906101000a900473ffffffffffffffffffffffffffffffffffffffff1673ffffffffffffffffffffffffffffffffffffffff1663dcf0aaed604051602001613273906147ba565b604051602081830303815290604052805190602001206040518263ffffffff1660e01b81526004016132a59190614498565b602060405180830381865afa1580156132c2573d6000803e3d6000fd5b505050506040513d601f19601f820116820180604052508101906132e691906144c8565b905090565b600073ffffffffffffffffffffffffffffffffffffffff168173ffffffffffffffffffffffffffffffffffffffff161415613352576040517fe99d5ac500000000000000000000000000000000000000000000000000000000815260040160405180910390fd5b80606660006101000a81548173ffffffffffffffffffffffffffffffffffffffff021916908373ffffffffffffffffffffffffffffffffffffffff1602179055508073ffffffffffffffffffffffffffffffffffffffff167f60a0f5b9f9e81e98216071b85826681c796256fe3d1354ecb675580fba64fa6960405160405180910390a250565b6000819050919050565b6133ec8161353b565b61342b576040517f08c379a000000000000000000000000000000000000000000000000000000000815260040161342290614841565b60405180910390fd5b806134587f360894a13ba1a3210667c828492db98dca3e2076cc3735a920a3ca505d382bbc60001b6133d9565b60000160006101000a81548173ffffffffffffffffffffffffffffffffffffffff021916908373ffffffffffffffffffffffffffffffffffffffff16021790555050565b60606134c183836040518060600160405280602781526020016149eb6027913961354e565b905092915050565b6000819050919050565b6134dc816133e3565b8073ffffffffffffffffffffffffffffffffffffffff167fbc7cd75a20ee27fd9adebab32041f755214dbc6bffa90cc0225b39da2e5c2d3b60405160405180910390a250565b60008183106135315781613533565b825b905092915050565b600080823b905060008111915050919050565b60606135598461353b565b613598576040517f08c379a000000000000000000000000000000000000000000000000000000000815260040161358f906148d3565b60405180910390fd5b6000808573ffffffffffffffffffffffffffffffffffffffff16856040516135c0919061496d565b600060405180830381855af49150503d80600081146135fb576040519150601f19603f3d011682016040523d82523d6000602084013e613600565b606091505b509150915061361082828661361b565b925050509392505050565b6060831561362b5782905061367b565b60008351111561363e5782518084602001fd5b816040517f08c379a000000000000000000000000000000000000000000000000000000000815260040161367291906149c8565b60405180910390fd5b9392505050565b6000604051905090565b600080fd5b600080fd5b600080fd5b600080fd5b600080fd5b60008083601f8401126136bb576136ba613696565b5b8235905067ffffffffffffffff8111156136d8576136d761369b565b5b6020830191508360208202830111156136f4576136f36136a0565b5b9250929050565b60008083601f84011261371157613710613696565b5b8235905067ffffffffffffffff81111561372e5761372d61369b565b5b60208301915083602082028301111561374a576137496136a0565b5b9250929050565b6000806000806040858703121561376b5761376a61368c565b5b600085013567ffffffffffffffff81111561378957613788613691565b5b613795878288016136a5565b9450945050602085013567ffffffffffffffff8111156137b8576137b7613691565b5b6137c4878288016136fb565b925092505092959194509250565b6000819050919050565b6137e5816137d2565b82525050565b600060208201905061380060008301846137dc565b92915050565b600073ffffffffffffffffffffffffffffffffffffffff82169050919050565b600061383182613806565b9050919050565b61384181613826565b811461384c57600080fd5b50565b60008135905061385e81613838565b92915050565b60006020828403121561387a5761387961368c565b5b60006138888482850161384f565b91505092915050565b6000806000806000606086880312156138ad576138ac61368c565b5b60006138bb8882890161384f565b955050602086013567ffffffffffffffff8111156138dc576138db613691565b5b6138e8888289016136a5565b9450945050604086013567ffffffffffffffff81111561390b5761390a613691565b5b613917888289016136fb565b92509250509295509295909350565b61392f816137d2565b811461393a57600080fd5b50565b60008135905061394c81613926565b92915050565b600080604083850312156139695761396861368c565b5b60006139778582860161384f565b92505060206139888582860161393d565b9150509250929050565b60006040820190506139a760008301856137dc565b6139b460208301846137dc565b9392505050565b6139c481613826565b82525050565b60006020820190506139df60008301846139bb565b92915050565b600080fd5b6000601f19601f8301169050919050565b7f4e487b7100000000000000000000000000000000000000000000000000000000600052604160045260246000fd5b613a33826139ea565b810181811067ffffffffffffffff82111715613a5257613a516139fb565b5b80604052505050565b6000613a65613682565b9050613a718282613a2a565b919050565b600067ffffffffffffffff821115613a9157613a906139fb565b5b613a9a826139ea565b9050602081019050919050565b82818337600083830152505050565b6000613ac9613ac484613a76565b613a5b565b905082815260208101848484011115613ae557613ae46139e5565b5b613af0848285613aa7565b509392505050565b600082601f830112613b0d57613b0c613696565b5b8135613b1d848260208601613ab6565b91505092915050565b60008060408385031215613b3d57613b3c61368c565b5b6000613b4b8582860161384f565b925050602083013567ffffffffffffffff811115613b6c57613b6b613691565b5b613b7885828601613af8565b9150509250929050565b6000819050919050565b6000613ba7613ba2613b9d84613806565b613b82565b613806565b9050919050565b6000613bb982613b8c565b9050919050565b6000613bcb82613bae565b9050919050565b613bdb81613bc0565b82525050565b6000602082019050613bf66000830184613bd2565b92915050565b600080600060608486031215613c1557613c1461368c565b5b6000613c238682870161384f565b9350506020613c348682870161393d565b9250506040613c458682870161393d565b9150509250925092565b600080600080600080600060e0888a031215613c6e57613c6d61368c565b5b6000613c7c8a828b0161384f565b9750506020613c8d8a828b0161384f565b9650506040613c9e8a828b0161384f565b9550506060613caf8a828b0161384f565b9450506080613cc08a828b0161384f565b93505060a0613cd18a828b0161384f565b92505060c0613ce28a828b0161393d565b91505092959891949750929550565b600080600060608486031215613d0a57613d0961368c565b5b6000613d188682870161384f565b9350506020613d298682870161384f565b9250506040613d3a8682870161384f565b9150509250925092565b60008060408385031215613d5b57613d5a61368c565b5b6000613d698582860161384f565b9250506020613d7a8582860161384f565b9150509250929050565b600081519050919050565b600082825260208201905092915050565b6000819050602082019050919050565b613db9816137d2565b82525050565b6000613dcb8383613db0565b60208301905092915050565b6000602082019050919050565b6000613def82613d84565b613df98185613d8f565b9350613e0483613da0565b8060005b83811015613e35578151613e1c8882613dbf565b9750613e2783613dd7565b925050600181019050613e08565b5085935050505092915050565b60006040820190508181036000830152613e5c8185613de4565b90508181036020830152613e708184613de4565b90509392505050565b7f4e487b7100000000000000000000000000000000000000000000000000000000600052603260045260246000fd5b7f4e487b7100000000000000000000000000000000000000000000000000000000600052601160045260246000fd5b6000613ee2826137d2565b9150613eed836137d2565b9250827fffffffffffffffffffffffffffffffffffffffffffffffffffffffffffffffff03821115613f2257613f21613ea8565b5b828201905092915050565b6000613f38826137d2565b91507fffffffffffffffffffffffffffffffffffffffffffffffffffffffffffffffff821415613f6b57613f6a613ea8565b5b600182019050919050565b600081519050613f8581613926565b92915050565b600060208284031215613fa157613fa061368c565b5b6000613faf84828501613f76565b91505092915050565b6000613fc3826137d2565b9150613fce836137d2565b925082821015613fe157613fe0613ea8565b5b828203905092915050565b600060608201905061400160008301866139bb565b61400e60208301856137dc565b61401b60408301846137dc565b949350505050565b600082825260208201905092915050565b7f46756e6374696f6e206d7573742062652063616c6c6564207468726f7567682060008201527f64656c656761746563616c6c0000000000000000000000000000000000000000602082015250565b6000614090602c83614023565b915061409b82614034565b604082019050919050565b600060208201905081810360008301526140bf81614083565b9050919050565b7f46756e6374696f6e206d7573742062652063616c6c6564207468726f7567682060008201527f6163746976652070726f78790000000000000000000000000000000000000000602082015250565b6000614122602c83614023565b915061412d826140c6565b604082019050919050565b6000602082019050818103600083015261415181614115565b9050919050565b7f4f776e61626c653a2063616c6c6572206973206e6f7420746865206f776e6572600082015250565b600061418e602083614023565b915061419982614158565b602082019050919050565b600060208201905081810360008301526141bd81614181565b9050919050565b7f4e487b7100000000000000000000000000000000000000000000000000000000600052603160045260246000fd5b600060408201905061420860008301856139bb565b61421560208301846137dc565b9392505050565b60008115159050919050565b6142318161421c565b811461423c57600080fd5b50565b60008151905061424e81614228565b92915050565b60006020828403121561426a5761426961368c565b5b60006142788482850161423f565b91505092915050565b600060408201905061429660008301856139bb565b6142a360208301846139bb565b9392505050565b7f496e697469616c697a61626c653a20636f6e747261637420697320616c72656160008201527f647920696e697469616c697a6564000000000000000000000000000000000000602082015250565b6000614306602e83614023565b9150614311826142aa565b604082019050919050565b60006020820190508181036000830152614335816142f9565b9050919050565b600060808201905061435160008301876139bb565b61435e60208301866137dc565b61436b60408301856139bb565b61437860608301846139bb565b95945050505050565b7f4f776e61626c653a206e6577206f776e657220697320746865207a65726f206160008201527f6464726573730000000000000000000000000000000000000000000000000000602082015250565b60006143dd602683614023565b91506143e882614381565b604082019050919050565b6000602082019050818103600083015261440c816143d0565b9050919050565b600081905092915050565b7f4c6f636b6564476f6c6400000000000000000000000000000000000000000000600082015250565b6000614454600a83614413565b915061445f8261441e565b600a82019050919050565b600061447582614447565b9150819050919050565b6000819050919050565b6144928161447f565b82525050565b60006020820190506144ad6000830184614489565b92915050565b6000815190506144c281613838565b92915050565b6000602082840312156144de576144dd61368c565b5b60006144ec848285016144b3565b91505092915050565b7f45524331393637557067726164653a207570677261646520627265616b73206660008201527f7572746865722075706772616465730000000000000000000000000000000000602082015250565b6000614551602f83614023565b915061455c826144f5565b604082019050919050565b6000602082019050818103600083015261458081614544565b9050919050565b6000806040838503121561459e5761459d61368c565b5b60006145ac85828601613f76565b92505060206145bd85828601613f76565b9150509250929050565b7f476f6c64546f6b656e0000000000000000000000000000000000000000000000600082015250565b60006145fd600983614413565b9150614608826145c7565b600982019050919050565b600061461e826145f0565b9150819050919050565b600060a08201905061463d60008301886139bb565b61464a60208301876137dc565b61465760408301866139bb565b61466460608301856139bb565b61467160808301846137dc565b9695505050505050565b7f456c656374696f6e000000000000000000000000000000000000000000000000600082015250565b60006146b1600883614413565b91506146bc8261467b565b600882019050919050565b60006146d2826146a4565b9150819050919050565b7f496e697469616c697a61626c653a20636f6e7472616374206973206e6f74206960008201527f6e697469616c697a696e67000000000000000000000000000000000000000000602082015250565b6000614738602b83614023565b9150614743826146dc565b604082019050919050565b600060208201905081810360008301526147678161472b565b9050919050565b7f4163636f756e7473000000000000000000000000000000000000000000000000600082015250565b60006147a4600883614413565b91506147af8261476e565b600882019050919050565b60006147c582614797565b9150819050919050565b7f455243313936373a206e657720696d706c656d656e746174696f6e206973206e60008201527f6f74206120636f6e747261637400000000000000000000000000000000000000602082015250565b600061482b602d83614023565b9150614836826147cf565b604082019050919050565b6000602082019050818103600083015261485a8161481e565b9050919050565b7f416464726573733a2064656c65676174652063616c6c20746f206e6f6e2d636f60008201527f6e74726163740000000000000000000000000000000000000000000000000000602082015250565b60006148bd602683614023565b91506148c882614861565b604082019050919050565b600060208201905081810360008301526148ec816148b0565b9050919050565b600081519050919050565b600081905092915050565b60005b8381101561492757808201518184015260208101905061490c565b83811115614936576000848401525b50505050565b6000614947826148f3565b61495181856148fe565b9350614961818560208601614909565b80840191505092915050565b6000614979828461493c565b915081905092915050565b600081519050919050565b600061499a82614984565b6149a48185614023565b93506149b4818560208601614909565b6149bd816139ea565b840191505092915050565b600060208201905081810360008301526149e2818461498f565b90509291505056fe416464726573733a206c6f772d6c6576656c2064656c65676174652063616c6c206661696c6564a2646970667358221220426939925e444a821f3c88cc7c67c382f39ca4e069daedc4d9c4142a1f7b7ef264736f6c634300080b0033",
  "devdoc": {
    "errors": {
      "CallerNotManager(address)": [
        {
          "params": {
            "caller": "`msg.sender` that called the function."
          }
        }
      ],
      "TotalVotesMismatch(uint256,uint256)": [
        {
          "params": {
            "expectedValue": "The expected sum of votes for groups.",
            "sentValue": "The `msg.value` of the call."
          }
        }
      ],
      "WithdrawalAmountTooHigh(address,uint256,uint256)": [
        {
          "params": {
            "celoAvailable": "CELO available to the group across scheduled, pending and active votes.",
            "celoToWindraw": "total amount of CELO that would be scheduled to be withdrawn.",
            "group": "The offending group."
          }
        }
      ]
    },
    "events": {
      "CeloWithdrawalFinished(address,uint256,uint256)": {
        "params": {
          "amount": "The amount of CELO requested for withdrawal.",
          "beneficiary": "The user for whom the withdrawal amount is intended.",
          "timestamp": "The timestamp of the pending withdrawal."
        }
      },
      "CeloWithdrawalScheduled(address,address,uint256)": {
        "params": {
          "beneficiary": "The user for whom the withdrawal amount is intended for.",
          "group": "The validator group the CELO is withdrawn from.",
          "withdrawalAmount": "The amount of CELO requested for withdrawal."
        }
      },
      "CeloWithdrawalStarted(address,address,uint256)": {
        "params": {
          "beneficiary": "The user for whom the withdrawal amount is intended for.",
          "group": "The validator group the CELO is withdrawn from.",
          "withdrawalAmount": "The amount of CELO requested for withdrawal."
        }
      },
      "VotesScheduled(address,uint256)": {
        "params": {
          "amount": "The amount of CELO scheduled.",
          "group": "The validator group the CELO is intended to vote for."
        }
      }
    },
    "kind": "dev",
    "methods": {
      "activateAndVote(address,address,address)": {
        "details": "Callable by anyone. In practice, this is expected to be called near the end of each epoch by an off-chain agent.",
        "params": {
          "group": "The group to activate pending votes for and lock & vote any unlocked CELO for.",
          "voteGreater": "Used by Election's `vote`. This is the group that will recieve greater votes than group after the votes are cast, or address(0) if no such group exists.",
          "voteLesser": "Used by Election's `vote`. This is the group that will recieve fewer votes than group after the votes are cast, or address(0) if no such group exists."
        }
      },
      "finishPendingWithdrawal(address,uint256,uint256)": {
        "details": "Callable by anyone, but ultimatly the withdrawal goes to `beneficiary`. The pending withdrawal info found in both StakedCeloGroupVoter and LockedGold must match to ensure that the beneficiary is claiming the appropriate pending withdrawal.",
        "params": {
          "beneficiary": "The account that owns the pending withdrawal being processed.",
          "localPendingWithdrawalIndex": "The index of the pending withdrawal to finish in pendingWithdrawals[beneficiary] array.",
          "lockedGoldPendingWithdrawalIndex": "The index of the pending withdrawal to finish in LockedGold."
        },
        "returns": {
          "amount": "The amount of CELO sent to `beneficiary`."
        }
      },
      "getCeloForGroup(address)": {
        "params": {
          "group": "The address of the validator group."
        },
        "returns": {
          "_0": "The total amount of CELO directed towards `group`."
        }
      },
      "getNumberPendingWithdrawals(address)": {
        "params": {
          "beneficiary": "The address of the beneficiary who initiated the pending withdrawal."
        },
        "returns": {
          "_0": "The numbers of pending withdrawals for `beneficiary`"
        }
      },
      "getPendingWithdrawal(address,uint256)": {
        "params": {
          "beneficiary": "The address of the beneficiary who initiated the pending withdrawal.",
          "index": "The index in `beneficiary`'s pendingWithdrawals array."
        },
        "returns": {
          "timestamp": "The timestamp of the pending withdrawal.",
          "value": "The values of the pending withdrawal."
        }
      },
      "getPendingWithdrawals(address)": {
        "params": {
          "beneficiary": "The address of the beneficiary who initiated the pending withdrawal."
        },
        "returns": {
          "timestamps": "The timestamps of pending withdrawals.",
          "values": "The values of pending withdrawals."
        }
      },
      "getTotalCelo()": {
        "returns": {
          "_0": "The total amount of CELO this contract controls, including LockedGold."
        }
      },
      "initialize(address,address,address)": {
        "params": {
          "_manager": "The address of the Manager contract.",
          "_owner": "The address of the contract owner.",
          "_registry": "The address of the Celo registry."
        }
      },
      "owner()": {
        "details": "Returns the address of the current owner."
      },
      "renounceOwnership()": {
        "details": "Leaves the contract without owner. It will not be possible to call `onlyOwner` functions anymore. Can only be called by the current owner. NOTE: Renouncing ownership will leave the contract without an owner, thereby removing any functionality that is only available to the owner."
      },
      "scheduleVotes(address[],uint256[])": {
        "details": "Only callable by the Staked CELO contract, which must restrict which groups are valid.",
        "params": {
          "groups": "The groups the deposited CELO is intended to vote for.",
          "votes": "The amount of CELO to schedule for each respective group from `groups`."
        }
      },
      "scheduleWithdrawals(address,address[],uint256[])": {
        "params": {
          "beneficiary": "The account that will receive the CELO once it's withdrawn. from `groups`.",
          "groups": "The groups the deposited CELO is intended to be withdrawn from.",
          "withdrawals": "The amount of CELO to withdraw for each respective group."
        }
      },
      "scheduledVotesForGroup(address)": {
        "params": {
          "group": "The address of the validator group."
        },
        "returns": {
          "_0": "The total amount of CELO directed towards `group`."
        }
      },
      "scheduledWithdrawalsForGroup(address)": {
        "params": {
          "group": "The address of the validator group."
        },
        "returns": {
          "_0": "The total amount of CELO to be withdrawn for `group`."
        }
      },
      "scheduledWithdrawalsForGroupAndBeneficiary(address,address)": {
        "params": {
          "beneficiary": "The beneficiary of the withdrawal.",
          "group": "The address of the validator group."
        },
        "returns": {
          "_0": "The total amount of CELO to be withdrawn for `group` by `beneficiary`."
        }
      },
      "setManager(address)": {
        "params": {
          "_manager": "The new manager address."
        }
      },
      "transferOwnership(address)": {
        "details": "Transfers ownership of the contract to a new account (`newOwner`). Can only be called by the current owner."
      },
      "upgradeTo(address)": {
        "details": "Upgrade the implementation of the proxy to `newImplementation`. Calls {_authorizeUpgrade}. Emits an {Upgraded} event."
      },
      "upgradeToAndCall(address,bytes)": {
        "details": "Upgrade the implementation of the proxy to `newImplementation`, and subsequently execute the function call encoded in `data`. Calls {_authorizeUpgrade}. Emits an {Upgraded} event."
      },
      "withdraw(address,address,address,address,address,address,uint256)": {
        "details": "Only callable by the Staked CELO contract, which must restrict which groups are valid.",
        "params": {
          "beneficiary": "The recipient of the withdrawn CELO.",
          "greaterAfterActiveRevoke": "Used by Election's `revokeActive`. This is the group that is after `group` within the validators sorted LinkedList, or address(0) if there isn't one, after the revoke of active votes has occurred.",
          "greaterAfterPendingRevoke": "Used by Election's `revokePending`. This is the group that is after `group` within the validators sorted LinkedList, or address(0) if there isn't one, after the revoke of pending votes has occurred.",
          "group": "The group to withdraw CELO from.",
          "index": "Used by Election's `revokePending` and `revokeActive`. This is the index of `group` in the this contract's array of groups it is voting for.",
          "lesserAfterActiveRevoke": "Used by Election's `revokeActive`. This is the group that is before `group` within the validators sorted LinkedList, or address(0) if there isn't one, after the revoke of active votes has occurred.",
          "lesserAfterPendingRevoke": "Used by Election's `revokePending`. This is the group that is before `group` within the validators sorted LinkedList, or address(0) if there isn't one, after the revoke of pending votes has occurred."
        },
        "returns": {
          "_0": "The amount of immediately withdrawn CELO that is obtained from scheduledVotes for `group`."
        }
      }
    },
    "title": "A contract that facilitates voting on behalf of StakedCelo.sol.",
    "version": 1
  },
  "userdoc": {
    "errors": {
      "AccountCreationFailed()": [
        {
          "notice": "Used when the creation of an account with Accounts.sol fails."
        }
      ],
      "ActivatePendingVotesFailed(address)": [
        {
          "notice": "Used when activating of pending votes via Election has failed."
        }
      ],
      "CallerNotManager(address)": [
        {
          "notice": "Used when an `onlyManager` function is called by a non-manager."
        }
      ],
      "CeloTransferFailed(address,uint256)": [
        {
          "notice": "Used when unable to transfer CELO."
        }
      ],
      "GroupsAndVotesArrayLengthsMismatch()": [
        {
          "notice": "Used when arrays passed for scheduling votes don't have matching lengths."
        }
      ],
      "InconsistentPendingWithdrawalTimestamps(uint256,uint256)": [
        {
          "notice": "Used when any of the resolved stakedCeloGroupVoter.pendingWithdrawal timestamps do not match the equivalent record in lockedGold.pendingWithdrawals."
        }
      ],
      "InconsistentPendingWithdrawalValues(uint256,uint256)": [
        {
          "notice": "Used when any of the resolved stakedCeloGroupVoter.pendingWithdrawal values do not match the equivalent record in lockedGold.pendingWithdrawals."
        }
      ],
      "InsufficientRevokableVotes(address,uint256)": [
        {
          "notice": "Used when active + pending votes amount is unable to fulfil a withdrawal request amount."
        }
      ],
      "NoScheduledWithdrawal(address,address)": [
        {
          "notice": "There's no amount of scheduled withdrawal for the given beneficiary and group."
        }
      ],
      "NullAddress()": [
        {
          "notice": "Used when a passed address is address(0)."
        }
      ],
      "PendingWithdrawalIndexTooHigh(uint256,uint256)": [
        {
          "notice": "Used when `pendingWithdrawalIndex` is too high for the beneficiary's pending withdrawals array."
        }
      ],
      "RevokeActiveFailed(address,uint256)": [
        {
          "notice": "Used when call to Election.sol's `revokeActiveVotes` fails."
        }
      ],
      "RevokePendingFailed(address,uint256)": [
        {
          "notice": "Used when call to Election.sol's `revokePendingVotes` fails."
        }
      ],
      "TotalVotesMismatch(uint256,uint256)": [
        {
          "notice": "Used when the sum of votes per groups during vote scheduling doesn't match the `msg.value` sent with the call."
        }
      ],
      "VoteFailed(address,uint256)": [
        {
          "notice": "Used when voting via Election has failed."
        }
      ],
      "WithdrawalAmountTooHigh(address,uint256,uint256)": [
        {
          "notice": "Used when attempting to schedule more withdrawals than CELO available to the contract."
        }
      ]
    },
    "events": {
      "CeloWithdrawalFinished(address,uint256,uint256)": {
        "notice": "Emitted when a CELO withdrawal completes for `beneficiary`."
      },
      "CeloWithdrawalScheduled(address,address,uint256)": {
        "notice": "Emitted when CELO withdrawal is scheduled for a group."
      },
      "CeloWithdrawalStarted(address,address,uint256)": {
        "notice": "Emitted when CELO withdrawal kicked off for group. Immediate withdrawals are not included in this event, but can be identified by a GoldToken.sol transfer from this contract."
      },
      "ManagerSet(address)": {
        "notice": "Emitted when the manager is initially set or later modified."
      },
      "VotesScheduled(address,uint256)": {
        "notice": "Emitted when CELO is scheduled for voting for a given group."
      }
    },
    "kind": "user",
    "methods": {
      "activateAndVote(address,address,address)": {
        "notice": "Activates any activatable pending votes for group, and locks & votes any unlocked CELO for group."
      },
      "constructor": {
        "notice": "Empty constructor for proxy implementation, `initializer` modifer ensures the implementation gets initialized."
      },
      "finishPendingWithdrawal(address,uint256,uint256)": {
        "notice": "Finishes a pending withdrawal created as a result of a `withdrawCelo` call, claiming CELO after the `unlockingPeriod` defined in LockedGold.sol."
      },
      "getCeloForGroup(address)": {
        "notice": "Returns the total amount of CELO directed towards `group`. This is the Unlocked CELO balance for `group` plus the combined amount in pending and active votes made by this contract."
      },
      "getNumberPendingWithdrawals(address)": {
        "notice": "Returns the number of pending withdrawals for a beneficiary."
      },
      "getPendingWithdrawal(address,uint256)": {
        "notice": "Returns a pending withdrawals for a beneficiary."
      },
      "getPendingWithdrawals(address)": {
        "notice": "Returns the pending withdrawals for a beneficiary."
      },
      "getTotalCelo()": {
        "notice": "Gets the total amount of CELO this contract controls. This is the unlocked CELO balance of the contract plus the amount of LockedGold for this contract, which included unvoting and voting LockedGold."
      },
      "pendingWithdrawals(address,uint256)": {
        "notice": "Keyed by beneficiary address, the related array of pending withdrawals. See `PendingWithdrawal` for more info."
      },
      "registry()": {
        "notice": "The Registry."
      },
      "scheduleVotes(address[],uint256[])": {
        "notice": "Deposits CELO sent via msg.value as unlocked CELO intended as votes for groups."
      },
      "scheduleWithdrawals(address,address[],uint256[])": {
        "notice": "Schedule a list of withdrawals to be refunded to a beneficiary."
      },
      "scheduledVotesForGroup(address)": {
        "notice": "Returns the total amount of CELO that's scheduled to vote for a group."
      },
      "scheduledWithdrawalsForGroup(address)": {
        "notice": "Returns the total amount of CELO that's scheduled to be withdrawn for a group."
      },
      "scheduledWithdrawalsForGroupAndBeneficiary(address,address)": {
        "notice": "Returns the total amount of CELO that's scheduled to be withdrawn for a group scoped by a beneficiary."
      },
      "setManager(address)": {
        "notice": "Sets the manager address."
      },
      "totalScheduledWithdrawals()": {
        "notice": "Total amount of CELO scheduled to be withdrawn from all groups by all beneficiaries."
      },
      "withdraw(address,address,address,address,address,address,uint256)": {
        "notice": "Starts withdrawal of CELO from `group`. If there is any unlocked CELO for the group, that CELO is used for immediate withdrawal. Otherwise, CELO is taken from pending and active votes, which are subject to the unlock period of LockedGold.sol."
      }
    },
    "notice": "This contract depends on the Manager to decide how to distribute votes and how to keep track of ownership of CELO voted via this contract.",
    "version": 1
  },
  "storageLayout": {
    "storage": [
      {
        "astId": 130,
        "contract": "contracts/Account.sol:Account",
        "label": "_initialized",
        "offset": 0,
        "slot": "0",
        "type": "t_bool"
      },
      {
        "astId": 133,
        "contract": "contracts/Account.sol:Account",
        "label": "_initializing",
        "offset": 1,
        "slot": "0",
        "type": "t_bool"
      },
      {
        "astId": 1197,
        "contract": "contracts/Account.sol:Account",
        "label": "__gap",
        "offset": 0,
        "slot": "1",
        "type": "t_array(t_uint256)50_storage"
      },
      {
        "astId": 10,
        "contract": "contracts/Account.sol:Account",
        "label": "_owner",
        "offset": 0,
        "slot": "51",
        "type": "t_address"
      },
      {
        "astId": 122,
        "contract": "contracts/Account.sol:Account",
        "label": "__gap",
        "offset": 0,
        "slot": "52",
        "type": "t_array(t_uint256)49_storage"
      },
      {
        "astId": 8124,
        "contract": "contracts/Account.sol:Account",
        "label": "registry",
        "offset": 0,
        "slot": "101",
        "type": "t_contract(IRegistry)9031"
      },
      {
        "astId": 4692,
        "contract": "contracts/Account.sol:Account",
        "label": "manager",
        "offset": 0,
        "slot": "102",
        "type": "t_address"
      },
      {
        "astId": 3571,
        "contract": "contracts/Account.sol:Account",
        "label": "pendingWithdrawals",
        "offset": 0,
        "slot": "103",
        "type": "t_mapping(t_address,t_array(t_struct(PendingWithdrawal)3555_storage)dyn_storage)"
      },
      {
        "astId": 3577,
        "contract": "contracts/Account.sol:Account",
        "label": "scheduledVotes",
        "offset": 0,
        "slot": "104",
        "type": "t_mapping(t_address,t_struct(ScheduledVotes)3564_storage)"
      },
      {
        "astId": 3580,
        "contract": "contracts/Account.sol:Account",
        "label": "totalScheduledWithdrawals",
        "offset": 0,
        "slot": "105",
        "type": "t_uint256"
      }
    ],
    "types": {
      "t_address": {
        "encoding": "inplace",
        "label": "address",
        "numberOfBytes": "20"
      },
      "t_array(t_struct(PendingWithdrawal)3555_storage)dyn_storage": {
        "base": "t_struct(PendingWithdrawal)3555_storage",
        "encoding": "dynamic_array",
        "label": "struct Account.PendingWithdrawal[]",
        "numberOfBytes": "32"
      },
      "t_array(t_uint256)49_storage": {
        "base": "t_uint256",
        "encoding": "inplace",
        "label": "uint256[49]",
        "numberOfBytes": "1568"
      },
      "t_array(t_uint256)50_storage": {
        "base": "t_uint256",
        "encoding": "inplace",
        "label": "uint256[50]",
        "numberOfBytes": "1600"
      },
      "t_bool": {
        "encoding": "inplace",
        "label": "bool",
        "numberOfBytes": "1"
      },
      "t_contract(IRegistry)9031": {
        "encoding": "inplace",
        "label": "contract IRegistry",
        "numberOfBytes": "20"
      },
      "t_mapping(t_address,t_array(t_struct(PendingWithdrawal)3555_storage)dyn_storage)": {
        "encoding": "mapping",
        "key": "t_address",
        "label": "mapping(address => struct Account.PendingWithdrawal[])",
        "numberOfBytes": "32",
        "value": "t_array(t_struct(PendingWithdrawal)3555_storage)dyn_storage"
      },
      "t_mapping(t_address,t_struct(ScheduledVotes)3564_storage)": {
        "encoding": "mapping",
        "key": "t_address",
        "label": "mapping(address => struct Account.ScheduledVotes)",
        "numberOfBytes": "32",
        "value": "t_struct(ScheduledVotes)3564_storage"
      },
      "t_mapping(t_address,t_uint256)": {
        "encoding": "mapping",
        "key": "t_address",
        "label": "mapping(address => uint256)",
        "numberOfBytes": "32",
        "value": "t_uint256"
      },
      "t_struct(PendingWithdrawal)3555_storage": {
        "encoding": "inplace",
        "label": "struct Account.PendingWithdrawal",
        "members": [
          {
            "astId": 3552,
            "contract": "contracts/Account.sol:Account",
            "label": "value",
            "offset": 0,
            "slot": "0",
            "type": "t_uint256"
          },
          {
            "astId": 3554,
            "contract": "contracts/Account.sol:Account",
            "label": "timestamp",
            "offset": 0,
            "slot": "1",
            "type": "t_uint256"
          }
        ],
        "numberOfBytes": "64"
      },
      "t_struct(ScheduledVotes)3564_storage": {
        "encoding": "inplace",
        "label": "struct Account.ScheduledVotes",
        "members": [
          {
            "astId": 3557,
            "contract": "contracts/Account.sol:Account",
            "label": "toVote",
            "offset": 0,
            "slot": "0",
            "type": "t_uint256"
          },
          {
            "astId": 3559,
            "contract": "contracts/Account.sol:Account",
            "label": "toWithdraw",
            "offset": 0,
            "slot": "1",
            "type": "t_uint256"
          },
          {
            "astId": 3563,
            "contract": "contracts/Account.sol:Account",
            "label": "toWithdrawFor",
            "offset": 0,
            "slot": "2",
            "type": "t_mapping(t_address,t_uint256)"
          }
        ],
        "numberOfBytes": "96"
      },
      "t_uint256": {
        "encoding": "inplace",
        "label": "uint256",
        "numberOfBytes": "32"
      }
    }
  }
}