{
  "address": "0xda3Eb100c32cD9387A834f9b9feE340300eB2aA8",
  "abi": [
    {
      "inputs": [
        {
          "internalType": "uint256",
          "name": "_minDelay",
          "type": "uint256"
        }
      ],
      "stateMutability": "nonpayable",
      "type": "constructor"
    },
    {
      "inputs": [
        {
          "internalType": "address",
          "name": "owner",
          "type": "address"
        }
      ],
      "name": "CannotRemoveLastOwner",
      "type": "error"
    },
    {
      "inputs": [],
      "name": "ExecutionFailed",
      "type": "error"
    },
    {
      "inputs": [
        {
          "internalType": "uint256",
          "name": "delay",
          "type": "uint256"
        }
      ],
      "name": "InsufficientDelay",
      "type": "error"
    },
    {
      "inputs": [
        {
          "internalType": "address",
          "name": "destination",
          "type": "address"
        }
      ],
      "name": "InvalidContractAddress",
      "type": "error"
    },
    {
      "inputs": [
        {
          "internalType": "uint256",
          "name": "ownerCount",
          "type": "uint256"
        },
        {
          "internalType": "uint256",
          "name": "required",
          "type": "uint256"
        }
      ],
      "name": "InvalidRequirement",
      "type": "error"
    },
    {
      "inputs": [],
      "name": "NullAddress",
      "type": "error"
    },
    {
      "inputs": [
        {
          "internalType": "address",
          "name": "owner",
          "type": "address"
        }
      ],
      "name": "OwnerAlreadyExists",
      "type": "error"
    },
    {
      "inputs": [
        {
          "internalType": "address",
          "name": "owner",
          "type": "address"
        }
      ],
      "name": "OwnerDoesNotExist",
      "type": "error"
    },
    {
      "inputs": [],
      "name": "ParamLengthsMismatch",
      "type": "error"
    },
    {
      "inputs": [
        {
          "internalType": "uint256",
          "name": "proposalId",
          "type": "uint256"
        },
        {
          "internalType": "address",
          "name": "owner",
          "type": "address"
        }
      ],
      "name": "ProposalAlreadyConfirmed",
      "type": "error"
    },
    {
      "inputs": [
        {
          "internalType": "uint256",
          "name": "proposalId",
          "type": "uint256"
        }
      ],
      "name": "ProposalAlreadyExecuted",
      "type": "error"
    },
    {
      "inputs": [
        {
          "internalType": "uint256",
          "name": "proposalId",
          "type": "uint256"
        }
      ],
      "name": "ProposalAlreadyScheduled",
      "type": "error"
    },
    {
      "inputs": [
        {
          "internalType": "uint256",
          "name": "proposalId",
          "type": "uint256"
        }
      ],
      "name": "ProposalDoesNotExist",
      "type": "error"
    },
    {
      "inputs": [
        {
          "internalType": "uint256",
          "name": "proposalId",
          "type": "uint256"
        },
        {
          "internalType": "address",
          "name": "owner",
          "type": "address"
        }
      ],
      "name": "ProposalNotConfirmed",
      "type": "error"
    },
    {
      "inputs": [
        {
          "internalType": "uint256",
          "name": "proposalId",
          "type": "uint256"
        }
      ],
      "name": "ProposalNotFullyConfirmed",
      "type": "error"
    },
    {
      "inputs": [
        {
          "internalType": "uint256",
          "name": "proposalId",
          "type": "uint256"
        }
      ],
      "name": "ProposalNotScheduled",
      "type": "error"
    },
    {
      "inputs": [
        {
          "internalType": "uint256",
          "name": "proposalId",
          "type": "uint256"
        }
      ],
      "name": "ProposalTimelockNotReached",
      "type": "error"
    },
    {
      "inputs": [
        {
          "internalType": "address",
          "name": "account",
          "type": "address"
        }
      ],
      "name": "SenderMustBeMultisigWallet",
      "type": "error"
    },
    {
      "anonymous": false,
      "inputs": [
        {
          "indexed": false,
          "internalType": "address",
          "name": "previousAdmin",
          "type": "address"
        },
        {
          "indexed": false,
          "internalType": "address",
          "name": "newAdmin",
          "type": "address"
        }
      ],
      "name": "AdminChanged",
      "type": "event"
    },
    {
      "anonymous": false,
      "inputs": [
        {
          "indexed": true,
          "internalType": "address",
          "name": "beacon",
          "type": "address"
        }
      ],
      "name": "BeaconUpgraded",
      "type": "event"
    },
    {
      "anonymous": false,
      "inputs": [
        {
          "indexed": true,
          "internalType": "address",
          "name": "sender",
          "type": "address"
        },
        {
          "indexed": false,
          "internalType": "uint256",
          "name": "value",
          "type": "uint256"
        }
      ],
      "name": "CeloDeposited",
      "type": "event"
    },
    {
      "anonymous": false,
      "inputs": [
        {
          "indexed": true,
          "internalType": "address",
          "name": "sender",
          "type": "address"
        },
        {
          "indexed": true,
          "internalType": "uint256",
          "name": "proposalId",
          "type": "uint256"
        }
      ],
      "name": "ConfirmationRevoked",
      "type": "event"
    },
    {
      "anonymous": false,
      "inputs": [
        {
          "indexed": false,
          "internalType": "uint256",
          "name": "delay",
          "type": "uint256"
        },
        {
          "indexed": false,
          "internalType": "uint256",
          "name": "newDelay",
          "type": "uint256"
        }
      ],
      "name": "DelayChanged",
      "type": "event"
    },
    {
      "anonymous": false,
      "inputs": [
        {
          "indexed": true,
          "internalType": "address",
          "name": "owner",
          "type": "address"
        }
      ],
      "name": "OwnerAdded",
      "type": "event"
    },
    {
      "anonymous": false,
      "inputs": [
        {
          "indexed": true,
          "internalType": "address",
          "name": "owner",
          "type": "address"
        }
      ],
      "name": "OwnerRemoved",
      "type": "event"
    },
    {
      "anonymous": false,
      "inputs": [
        {
          "indexed": true,
          "internalType": "uint256",
          "name": "proposalId",
          "type": "uint256"
        }
      ],
      "name": "ProposalAdded",
      "type": "event"
    },
    {
      "anonymous": false,
      "inputs": [
        {
          "indexed": true,
          "internalType": "address",
          "name": "sender",
          "type": "address"
        },
        {
          "indexed": true,
          "internalType": "uint256",
          "name": "proposalId",
          "type": "uint256"
        }
      ],
      "name": "ProposalConfirmed",
      "type": "event"
    },
    {
      "anonymous": false,
      "inputs": [
        {
          "indexed": true,
          "internalType": "uint256",
          "name": "proposalId",
          "type": "uint256"
        },
        {
          "indexed": false,
          "internalType": "bytes",
          "name": "returnData",
          "type": "bytes"
        }
      ],
      "name": "ProposalExecuted",
      "type": "event"
    },
    {
      "anonymous": false,
      "inputs": [
        {
          "indexed": true,
          "internalType": "uint256",
          "name": "proposalId",
          "type": "uint256"
        }
      ],
      "name": "ProposalScheduled",
      "type": "event"
    },
    {
      "anonymous": false,
      "inputs": [
        {
          "indexed": false,
          "internalType": "uint256",
          "name": "required",
          "type": "uint256"
        }
      ],
      "name": "RequirementChanged",
      "type": "event"
    },
    {
      "anonymous": false,
      "inputs": [
        {
          "indexed": false,
          "internalType": "uint256",
          "name": "index",
          "type": "uint256"
        },
        {
          "indexed": true,
          "internalType": "uint256",
          "name": "proposalId",
          "type": "uint256"
        },
        {
          "indexed": false,
          "internalType": "bytes",
          "name": "returnData",
          "type": "bytes"
        }
      ],
      "name": "TransactionExecuted",
      "type": "event"
    },
    {
      "anonymous": false,
      "inputs": [
        {
          "indexed": true,
          "internalType": "address",
          "name": "implementation",
          "type": "address"
        }
      ],
      "name": "Upgraded",
      "type": "event"
    },
    {
      "inputs": [],
      "name": "MAX_OWNER_COUNT",
      "outputs": [
        {
          "internalType": "uint256",
          "name": "",
          "type": "uint256"
        }
      ],
      "stateMutability": "view",
      "type": "function"
    },
    {
      "inputs": [
        {
          "internalType": "address",
          "name": "owner",
          "type": "address"
        }
      ],
      "name": "addOwner",
      "outputs": [],
      "stateMutability": "nonpayable",
      "type": "function"
    },
    {
      "inputs": [
        {
          "internalType": "uint256",
          "name": "newDelay",
          "type": "uint256"
        }
      ],
      "name": "changeDelay",
      "outputs": [],
      "stateMutability": "nonpayable",
      "type": "function"
    },
    {
      "inputs": [
        {
          "internalType": "uint256",
          "name": "newRequired",
          "type": "uint256"
        }
      ],
      "name": "changeRequirement",
      "outputs": [],
      "stateMutability": "nonpayable",
      "type": "function"
    },
    {
      "inputs": [
        {
          "internalType": "uint256",
          "name": "proposalId",
          "type": "uint256"
        }
      ],
      "name": "confirmProposal",
      "outputs": [],
      "stateMutability": "nonpayable",
      "type": "function"
    },
    {
      "inputs": [],
      "name": "delay",
      "outputs": [
        {
          "internalType": "uint256",
          "name": "",
          "type": "uint256"
        }
      ],
      "stateMutability": "view",
      "type": "function"
    },
    {
      "inputs": [
        {
          "internalType": "uint256",
          "name": "proposalId",
          "type": "uint256"
        }
      ],
      "name": "executeProposal",
      "outputs": [],
      "stateMutability": "nonpayable",
      "type": "function"
    },
    {
      "inputs": [
        {
          "internalType": "uint256",
          "name": "proposalId",
          "type": "uint256"
        }
      ],
      "name": "getConfirmations",
      "outputs": [
        {
          "internalType": "address[]",
          "name": "",
          "type": "address[]"
        }
      ],
      "stateMutability": "view",
      "type": "function"
    },
    {
      "inputs": [],
      "name": "getOwners",
      "outputs": [
        {
          "internalType": "address[]",
          "name": "",
          "type": "address[]"
        }
      ],
      "stateMutability": "view",
      "type": "function"
    },
    {
      "inputs": [
        {
          "internalType": "uint256",
          "name": "proposalId",
          "type": "uint256"
        }
      ],
      "name": "getProposal",
      "outputs": [
        {
          "internalType": "address[]",
          "name": "destinations",
          "type": "address[]"
        },
        {
          "internalType": "uint256[]",
          "name": "values",
          "type": "uint256[]"
        },
        {
          "internalType": "bytes[]",
          "name": "payloads",
          "type": "bytes[]"
        }
      ],
      "stateMutability": "view",
      "type": "function"
    },
    {
      "inputs": [
        {
          "internalType": "uint256",
          "name": "proposalId",
          "type": "uint256"
        }
      ],
      "name": "getTimestamp",
      "outputs": [
        {
          "internalType": "uint256",
          "name": "",
          "type": "uint256"
        }
      ],
      "stateMutability": "view",
      "type": "function"
    },
    {
      "inputs": [],
      "name": "getVersionNumber",
      "outputs": [
        {
          "internalType": "uint256",
          "name": "",
          "type": "uint256"
        },
        {
          "internalType": "uint256",
          "name": "",
          "type": "uint256"
        },
        {
          "internalType": "uint256",
          "name": "",
          "type": "uint256"
        },
        {
          "internalType": "uint256",
          "name": "",
          "type": "uint256"
        }
      ],
      "stateMutability": "pure",
      "type": "function"
    },
    {
      "inputs": [
        {
          "internalType": "address[]",
          "name": "initialOwners",
          "type": "address[]"
        },
        {
          "internalType": "uint256",
          "name": "requiredConfirmations",
          "type": "uint256"
        },
        {
          "internalType": "uint256",
          "name": "_delay",
          "type": "uint256"
        }
      ],
      "name": "initialize",
      "outputs": [],
      "stateMutability": "nonpayable",
      "type": "function"
    },
    {
      "inputs": [
        {
          "internalType": "uint256",
          "name": "proposalId",
          "type": "uint256"
        },
        {
          "internalType": "address",
          "name": "owner",
          "type": "address"
        }
      ],
      "name": "isConfirmedBy",
      "outputs": [
        {
          "internalType": "bool",
          "name": "",
          "type": "bool"
        }
      ],
      "stateMutability": "view",
      "type": "function"
    },
    {
      "inputs": [
        {
          "internalType": "uint256",
          "name": "proposalId",
          "type": "uint256"
        }
      ],
      "name": "isFullyConfirmed",
      "outputs": [
        {
          "internalType": "bool",
          "name": "",
          "type": "bool"
        }
      ],
      "stateMutability": "view",
      "type": "function"
    },
    {
      "inputs": [
        {
          "internalType": "address",
          "name": "owner",
          "type": "address"
        }
      ],
      "name": "isOwner",
      "outputs": [
        {
          "internalType": "bool",
          "name": "",
          "type": "bool"
        }
      ],
      "stateMutability": "view",
      "type": "function"
    },
    {
      "inputs": [
        {
          "internalType": "uint256",
          "name": "proposalId",
          "type": "uint256"
        }
      ],
      "name": "isProposalTimelockReached",
      "outputs": [
        {
          "internalType": "bool",
          "name": "",
          "type": "bool"
        }
      ],
      "stateMutability": "view",
      "type": "function"
    },
    {
      "inputs": [
        {
          "internalType": "uint256",
          "name": "proposalId",
          "type": "uint256"
        }
      ],
      "name": "isScheduled",
      "outputs": [
        {
          "internalType": "bool",
          "name": "",
          "type": "bool"
        }
      ],
      "stateMutability": "view",
      "type": "function"
    },
    {
      "inputs": [],
      "name": "minDelay",
      "outputs": [
        {
          "internalType": "uint256",
          "name": "",
          "type": "uint256"
        }
      ],
      "stateMutability": "view",
      "type": "function"
    },
    {
      "inputs": [],
      "name": "proposalCount",
      "outputs": [
        {
          "internalType": "uint256",
          "name": "",
          "type": "uint256"
        }
      ],
      "stateMutability": "view",
      "type": "function"
    },
    {
      "inputs": [
        {
          "internalType": "uint256",
          "name": "",
          "type": "uint256"
        }
      ],
      "name": "proposals",
      "outputs": [
        {
          "internalType": "uint256",
          "name": "timestampExecutable",
          "type": "uint256"
        }
      ],
      "stateMutability": "view",
      "type": "function"
    },
    {
      "inputs": [
        {
          "internalType": "address",
          "name": "owner",
          "type": "address"
        }
      ],
      "name": "removeOwner",
      "outputs": [],
      "stateMutability": "nonpayable",
      "type": "function"
    },
    {
      "inputs": [
        {
          "internalType": "address",
          "name": "owner",
          "type": "address"
        },
        {
          "internalType": "address",
          "name": "newOwner",
          "type": "address"
        }
      ],
      "name": "replaceOwner",
      "outputs": [],
      "stateMutability": "nonpayable",
      "type": "function"
    },
    {
      "inputs": [],
      "name": "required",
      "outputs": [
        {
          "internalType": "uint256",
          "name": "",
          "type": "uint256"
        }
      ],
      "stateMutability": "view",
      "type": "function"
    },
    {
      "inputs": [
        {
          "internalType": "uint256",
          "name": "proposalId",
          "type": "uint256"
        }
      ],
      "name": "revokeConfirmation",
      "outputs": [],
      "stateMutability": "nonpayable",
      "type": "function"
    },
    {
      "inputs": [
        {
          "internalType": "uint256",
          "name": "proposalId",
          "type": "uint256"
        }
      ],
      "name": "scheduleProposal",
      "outputs": [],
      "stateMutability": "nonpayable",
      "type": "function"
    },
    {
      "inputs": [
        {
          "internalType": "address[]",
          "name": "destinations",
          "type": "address[]"
        },
        {
          "internalType": "uint256[]",
          "name": "values",
          "type": "uint256[]"
        },
        {
          "internalType": "bytes[]",
          "name": "payloads",
          "type": "bytes[]"
        }
      ],
      "name": "submitProposal",
      "outputs": [
        {
          "internalType": "uint256",
          "name": "proposalId",
          "type": "uint256"
        }
      ],
      "stateMutability": "nonpayable",
      "type": "function"
    },
    {
      "inputs": [
        {
          "internalType": "address",
          "name": "newImplementation",
          "type": "address"
        }
      ],
      "name": "upgradeTo",
      "outputs": [],
      "stateMutability": "nonpayable",
      "type": "function"
    },
    {
      "inputs": [
        {
          "internalType": "address",
          "name": "newImplementation",
          "type": "address"
        },
        {
          "internalType": "bytes",
          "name": "data",
          "type": "bytes"
        }
      ],
      "name": "upgradeToAndCall",
      "outputs": [],
      "stateMutability": "payable",
      "type": "function"
    },
    {
      "stateMutability": "payable",
      "type": "receive"
    }
  ],
  "transactionHash": "0xce6148486959a1654e0ea7ae1ff3f83fa76621cca45d1ed5c84f3b60ecc5d166",
  "args": [
    345600
  ],
  "numDeployments": 2,
  "solcInputHash": "27c7c680112f4cbd9a19d8d22fcc316c",
  "bytecode": "0x60c06040523073ffffffffffffffffffffffffffffffffffffffff1660809073ffffffffffffffffffffffffffffffffffffffff168152503480156200004457600080fd5b506040516200477e3803806200477e83398181016040528101906200006a9190620001db565b600060019054906101000a900460ff16620000945760008054906101000a900460ff1615620000a5565b620000a46200016a60201b60201c565b5b620000e7576040517f08c379a0000000000000000000000000000000000000000000000000000000008152600401620000de9062000294565b60405180910390fd5b60008060019054906101000a900460ff16159050801562000138576001600060016101000a81548160ff02191690831515021790555060016000806101000a81548160ff0219169083151502179055505b8160a081815250508015620001625760008060016101000a81548160ff0219169083151502179055505b5050620002b6565b600062000182306200018860201b620024931760201c565b15905090565b600080823b905060008111915050919050565b600080fd5b6000819050919050565b620001b581620001a0565b8114620001c157600080fd5b50565b600081519050620001d581620001aa565b92915050565b600060208284031215620001f457620001f36200019b565b5b60006200020484828501620001c4565b91505092915050565b600082825260208201905092915050565b7f496e697469616c697a61626c653a20636f6e747261637420697320616c72656160008201527f647920696e697469616c697a6564000000000000000000000000000000000000602082015250565b60006200027c602e836200020d565b915062000289826200021e565b604082019050919050565b60006020820190508181036000830152620002af816200026d565b9050919050565b60805160a051614486620002f860003960008181611d2701526128c7015260008181610e2601528181610eb501528181610feb015261107a01526144866000f3fe6080604052600436106101c65760003560e01c80637065cb48116100f7578063c63c4e9b11610095578063dc8452cd11610064578063dc8452cd146106f7578063df5aa6b114610722578063e20056e61461074b578063f4a4f4d21461077457610225565b8063c63c4e9b14610637578063c7f758a814610662578063d74f8edd146106a1578063da35c664146106cc57610225565b8063a42606e3116100d1578063a42606e314610557578063b5dc40c314610594578063b633620c146105d1578063ba51a6df1461060e57610225565b80637065cb48146104c65780638a8e784c146104ef578063a0e67e2b1461052c57610225565b80634f1ef2861161016457806354255be01161013e57806354255be0146104075780635eae7959146104355780636a42b8f81461045e5780636e7afa341461048957610225565b80634f1ef286146103855780635037ec62146103a157806352745014146103ca57610225565b806320ea8d86116101a057806320ea8d86146102b95780632f54bf6e146102e25780633659cfe61461031f57806339a08f011461034857610225565b8063013cf08b1461022a5780630d61b51914610267578063173825d91461029057610225565b36610225576000341115610223573373ffffffffffffffffffffffffffffffffffffffff167fb3bcfe4f408c657ba1ce2fc1c3235d37903cb674e54269bfe562874af3fc0f143460405161021a919061335c565b60405180910390a25b005b600080fd5b34801561023657600080fd5b50610251600480360381019061024c91906133b7565b61079d565b60405161025e919061335c565b60405180910390f35b34801561027357600080fd5b5061028e600480360381019061028991906133b7565b6107bb565b005b34801561029c57600080fd5b506102b760048036038101906102b29190613442565b610a60565b005b3480156102c557600080fd5b506102e060048036038101906102db91906133b7565b610bf7565b005b3480156102ee57600080fd5b5061030960048036038101906103049190613442565b610e07565b604051610316919061348a565b60405180910390f35b34801561032b57600080fd5b5061034660048036038101906103419190613442565b610e24565b005b34801561035457600080fd5b5061036f600480360381019061036a91906133b7565b610fad565b60405161037c919061348a565b60405180910390f35b61039f600480360381019061039a91906135eb565b610fe9565b005b3480156103ad57600080fd5b506103c860048036038101906103c391906133b7565b611126565b005b3480156103d657600080fd5b506103f160048036038101906103ec9190613753565b6111a2565b6040516103fe919061335c565b60405180910390f35b34801561041357600080fd5b5061041c6112d0565b60405161042c9493929190613807565b60405180910390f35b34801561044157600080fd5b5061045c6004803603810190610457919061384c565b6112eb565b005b34801561046a57600080fd5b5061047361164e565b604051610480919061335c565b60405180910390f35b34801561049557600080fd5b506104b060048036038101906104ab91906133b7565b611654565b6040516104bd919061348a565b60405180910390f35b3480156104d257600080fd5b506104ed60048036038101906104e89190613442565b61172b565b005b3480156104fb57600080fd5b50610516600480360381019061051191906138c0565b61193a565b604051610523919061348a565b60405180910390f35b34801561053857600080fd5b506105416119a5565b60405161054e91906139be565b60405180910390f35b34801561056357600080fd5b5061057e600480360381019061057991906133b7565b6119b6565b60405161058b919061348a565b60405180910390f35b3480156105a057600080fd5b506105bb60048036038101906105b691906133b7565b6119cb565b6040516105c891906139be565b60405180910390f35b3480156105dd57600080fd5b506105f860048036038101906105f391906133b7565b611c14565b604051610605919061335c565b60405180910390f35b34801561061a57600080fd5b50610635600480360381019061063091906133b7565b611c34565b005b34801561064357600080fd5b5061064c611d25565b604051610659919061335c565b60405180910390f35b34801561066e57600080fd5b50610689600480360381019061068491906133b7565b611d49565b60405161069893929190613be8565b60405180910390f35b3480156106ad57600080fd5b506106b6611f2c565b6040516106c3919061335c565b60405180910390f35b3480156106d857600080fd5b506106e1611f31565b6040516106ee919061335c565b60405180910390f35b34801561070357600080fd5b5061070c611f37565b604051610719919061335c565b60405180910390f35b34801561072e57600080fd5b50610749600480360381019061074491906133b7565b611f3d565b005b34801561075757600080fd5b50610772600480360381019061076d9190613c34565b61202b565b005b34801561078057600080fd5b5061079b600480360381019061079691906133b7565b612267565b005b60026020528060005260406000206000915090508060030154905081565b806107c5816119b6565b61080657806040517ffc8f7d550000000000000000000000000000000000000000000000000000000081526004016107fd919061335c565b60405180910390fd5b8160016002600083815260200190815260200160002060030154141561086357806040517f4eec80e600000000000000000000000000000000000000000000000000000000815260040161085a919061335c565b60405180910390fd5b8261086d81610fad565b6108ae57806040517f676790790000000000000000000000000000000000000000000000000000000081526004016108a5919061335c565b60405180910390fd5b60006002600086815260200190815260200160002090506001816003018190555060005b6002600087815260200190815260200160002060000180549050811015610a58576000610a0883600001838154811061090e5761090d613c74565b5b9060005260206000200160009054906101000a900473ffffffffffffffffffffffffffffffffffffffff1684600101848154811061094f5761094e613c74565b5b90600052602060002001548560020185815481106109705761096f613c74565b5b90600052602060002001805461098590613cd2565b80601f01602080910402602001604051908101604052809291908181526020018280546109b190613cd2565b80156109fe5780601f106109d3576101008083540402835291602001916109fe565b820191906000526020600020905b8154815290600101906020018083116109e157829003601f168201915b50505050506124a6565b9050867f8c24081880749c0e4b467d98c335531022b2e7b74f6e264405138daf13d31e3c8383604051610a3c929190613d4e565b60405180910390a2508080610a5090613dad565b9150506108d2565b505050505050565b3073ffffffffffffffffffffffffffffffffffffffff163373ffffffffffffffffffffffffffffffffffffffff1614610ad057336040517f03f2b1fd000000000000000000000000000000000000000000000000000000008152600401610ac79190613e05565b60405180910390fd5b80610ae58160036125b590919063ffffffff16565b610b2657806040517f531e21ce000000000000000000000000000000000000000000000000000000008152600401610b1d9190613e05565b60405180910390fd5b6001610b3260036125e5565b1415610b7557816040517fb1722f41000000000000000000000000000000000000000000000000000000008152600401610b6c9190613e05565b60405180910390fd5b610b898260036125fa90919063ffffffff16565b50610b9460036125e5565b6005541115610bb057610baf610baa60036125e5565b611c34565b5b8173ffffffffffffffffffffffffffffffffffffffff167f58619076adf5bb0943d100ef88d52d7c3fd691b19d3a9071b555b651fbf418da60405160405180910390a25050565b33610c0c8160036125b590919063ffffffff16565b610c4d57806040517f531e21ce000000000000000000000000000000000000000000000000000000008152600401610c449190613e05565b60405180910390fd5b81336002600083815260200190815260200160002060040160008273ffffffffffffffffffffffffffffffffffffffff1673ffffffffffffffffffffffffffffffffffffffff16815260200190815260200160002060009054906101000a900460ff16610cf35781816040517f36308e83000000000000000000000000000000000000000000000000000000008152600401610cea929190613e20565b60405180910390fd5b83600160026000838152602001908152602001600020600301541415610d5057806040517f4eec80e6000000000000000000000000000000000000000000000000000000008152600401610d47919061335c565b60405180910390fd5b60006002600087815260200190815260200160002060040160003373ffffffffffffffffffffffffffffffffffffffff1673ffffffffffffffffffffffffffffffffffffffff16815260200190815260200160002060006101000a81548160ff021916908315150217905550843373ffffffffffffffffffffffffffffffffffffffff167f795394da21278ca39d59bb3ca00efeebdc0679acc420916c7385c2c5d942656f60405160405180910390a35050505050565b6000610e1d8260036125b590919063ffffffff16565b9050919050565b7f000000000000000000000000000000000000000000000000000000000000000073ffffffffffffffffffffffffffffffffffffffff163073ffffffffffffffffffffffffffffffffffffffff161415610eb3576040517f08c379a0000000000000000000000000000000000000000000000000000000008152600401610eaa90613ecc565b60405180910390fd5b7f000000000000000000000000000000000000000000000000000000000000000073ffffffffffffffffffffffffffffffffffffffff16610ef261262a565b73ffffffffffffffffffffffffffffffffffffffff1614610f48576040517f08c379a0000000000000000000000000000000000000000000000000000000008152600401610f3f90613f5e565b60405180910390fd5b610f5181612681565b610faa81600067ffffffffffffffff811115610f7057610f6f6134c0565b5b6040519080825280601f01601f191660200182016040528015610fa25781602001600182028036833780820191505090505b5060006126f4565b50565b600080610fb983611c14565b9050428111158015610fe1575060016002600085815260200190815260200160002060030154115b915050919050565b7f000000000000000000000000000000000000000000000000000000000000000073ffffffffffffffffffffffffffffffffffffffff163073ffffffffffffffffffffffffffffffffffffffff161415611078576040517f08c379a000000000000000000000000000000000000000000000000000000000815260040161106f90613ecc565b60405180910390fd5b7f000000000000000000000000000000000000000000000000000000000000000073ffffffffffffffffffffffffffffffffffffffff166110b761262a565b73ffffffffffffffffffffffffffffffffffffffff161461110d576040517f08c379a000000000000000000000000000000000000000000000000000000000815260040161110490613f5e565b60405180910390fd5b61111682612681565b611122828260016126f4565b5050565b3073ffffffffffffffffffffffffffffffffffffffff163373ffffffffffffffffffffffffffffffffffffffff161461119657336040517f03f2b1fd00000000000000000000000000000000000000000000000000000000815260040161118d9190613e05565b60405180910390fd5b61119f816128c5565b50565b60008484905087879050146111e3576040517f98a8185a00000000000000000000000000000000000000000000000000000000815260040160405180910390fd5b828290508787905014611222576040517f98a8185a00000000000000000000000000000000000000000000000000000000815260040160405180910390fd5b6112bb878780806020026020016040519081016040528093929190818152602001838360200280828437600081840152601f19601f82011690508083019250505050505050868680806020026020016040519081016040528093929190818152602001838360200280828437600081840152601f19601f820116905080830192505050505050508585906112b69190614031565b61296f565b90506112c681612267565b9695505050505050565b60008060008060018060016000935093509350935090919293565b600060019054906101000a900460ff166113135760008054906101000a900460ff161561131c565b61131b612ac8565b5b61135b576040517f08c379a0000000000000000000000000000000000000000000000000000000008152600401611352906140b8565b60405180910390fd5b60008060019054906101000a900460ff1615905080156113ab576001600060016101000a81548160ff02191690831515021790555060016000806101000a81548160ff0219169083151502179055505b848490508360328211806113be57508181115b806113c95750600081145b806113d45750600082145b156114185781816040517f3507718800000000000000000000000000000000000000000000000000000000815260040161140f9291906140d8565b60405180910390fd5b60005b878790508110156116115761146188888381811061143c5761143b613c74565b5b90506020020160208101906114519190613442565b60036125b590919063ffffffff16565b156114ca5787878281811061147957611478613c74565b5b905060200201602081019061148e9190613442565b6040517f5ba0cba40000000000000000000000000000000000000000000000000000000081526004016114c19190613e05565b60405180910390fd5b600073ffffffffffffffffffffffffffffffffffffffff168888838181106114f5576114f4613c74565b5b905060200201602081019061150a9190613442565b73ffffffffffffffffffffffffffffffffffffffff161415611558576040517fe99d5ac500000000000000000000000000000000000000000000000000000000815260040160405180910390fd5b61159388888381811061156e5761156d613c74565b5b90506020020160208101906115839190613442565b6003612ad990919063ffffffff16565b508787828181106115a7576115a6613c74565b5b90506020020160208101906115bc9190613442565b73ffffffffffffffffffffffffffffffffffffffff167f994a936646fe87ffe4f1e469d3d6aa417d6b855598397f323de5b449f765f0c360405160405180910390a2808061160990613dad565b91505061141b565b5061161b85612b09565b611624846128c5565b505080156116475760008060016101000a81548160ff0219169083151502179055505b5050505050565b60015481565b6000806000905060005b61166860036125e5565b81101561171f5760026000858152602001908152602001600020600401600061169b836003612b4a90919063ffffffff16565b73ffffffffffffffffffffffffffffffffffffffff1673ffffffffffffffffffffffffffffffffffffffff16815260200190815260200160002060009054906101000a900460ff16156116f75781806116f390613dad565b9250505b60055482141561170c57600192505050611726565b808061171790613dad565b91505061165e565b5060009150505b919050565b3073ffffffffffffffffffffffffffffffffffffffff163373ffffffffffffffffffffffffffffffffffffffff161461179b57336040517f03f2b1fd0000000000000000000000000000000000000000000000000000000081526004016117929190613e05565b60405180910390fd5b806117b08160036125b590919063ffffffff16565b156117f257806040517f5ba0cba40000000000000000000000000000000000000000000000000000000081526004016117e99190613e05565b60405180910390fd5b81600073ffffffffffffffffffffffffffffffffffffffff168173ffffffffffffffffffffffffffffffffffffffff16141561185a576040517fe99d5ac500000000000000000000000000000000000000000000000000000000815260040160405180910390fd5b600161186660036125e5565b6118709190614101565b600554603282118061188157508181115b8061188c5750600081145b806118975750600082145b156118db5781816040517f350771880000000000000000000000000000000000000000000000000000000081526004016118d29291906140d8565b60405180910390fd5b6118ef856003612ad990919063ffffffff16565b508473ffffffffffffffffffffffffffffffffffffffff167f994a936646fe87ffe4f1e469d3d6aa417d6b855598397f323de5b449f765f0c360405160405180910390a25050505050565b60006002600084815260200190815260200160002060040160008373ffffffffffffffffffffffffffffffffffffffff1673ffffffffffffffffffffffffffffffffffffffff16815260200190815260200160002060009054906101000a900460ff16905092915050565b60606119b16003612b64565b905090565b600060016119c383611c14565b119050919050565b606060006119d960036125e5565b67ffffffffffffffff8111156119f2576119f16134c0565b5b604051908082528060200260200182016040528015611a205781602001602082028036833780820191505090505b5090506000805b611a3160036125e5565b811015611b3457600260008681526020019081526020016000206004016000611a64836003612b4a90919063ffffffff16565b73ffffffffffffffffffffffffffffffffffffffff1673ffffffffffffffffffffffffffffffffffffffff16815260200190815260200160002060009054906101000a900460ff1615611b2157611ac5816003612b4a90919063ffffffff16565b838381518110611ad857611ad7613c74565b5b602002602001019073ffffffffffffffffffffffffffffffffffffffff16908173ffffffffffffffffffffffffffffffffffffffff16815250508180611b1d90613dad565b9250505b8080611b2c90613dad565b915050611a27565b5060008167ffffffffffffffff811115611b5157611b506134c0565b5b604051908082528060200260200182016040528015611b7f5781602001602082028036833780820191505090505b50905060005b82811015611c0857838181518110611ba057611b9f613c74565b5b6020026020010151828281518110611bbb57611bba613c74565b5b602002602001019073ffffffffffffffffffffffffffffffffffffffff16908173ffffffffffffffffffffffffffffffffffffffff16815250508080611c0090613dad565b915050611b85565b50809350505050919050565b600060026000838152602001908152602001600020600301549050919050565b3073ffffffffffffffffffffffffffffffffffffffff163373ffffffffffffffffffffffffffffffffffffffff1614611ca457336040517f03f2b1fd000000000000000000000000000000000000000000000000000000008152600401611c9b9190613e05565b60405180910390fd5b611cae60036125e5565b816032821180611cbd57508181115b80611cc85750600081145b80611cd35750600082145b15611d175781816040517f35077188000000000000000000000000000000000000000000000000000000008152600401611d0e9291906140d8565b60405180910390fd5b611d2083612b09565b505050565b7f000000000000000000000000000000000000000000000000000000000000000081565b6060806060600060026000868152602001908152602001600020905080600001816001018260020182805480602002602001604051908101604052809291908181526020018280548015611df257602002820191906000526020600020905b8160009054906101000a900473ffffffffffffffffffffffffffffffffffffffff1673ffffffffffffffffffffffffffffffffffffffff1681526020019060010190808311611da8575b5050505050925081805480602002602001604051908101604052809291908181526020018280548015611e4457602002820191906000526020600020905b815481526020019060010190808311611e30575b5050505050915080805480602002602001604051908101604052809291908181526020016000905b82821015611f18578382906000526020600020018054611e8b90613cd2565b80601f0160208091040260200160405190810160405280929190818152602001828054611eb790613cd2565b8015611f045780601f10611ed957610100808354040283529160200191611f04565b820191906000526020600020905b815481529060010190602001808311611ee757829003601f168201915b505050505081526020019060010190611e6c565b505050509050935093509350509193909250565b603281565b60065481565b60055481565b33611f528160036125b590919063ffffffff16565b611f9357806040517f531e21ce000000000000000000000000000000000000000000000000000000008152600401611f8a9190613e05565b60405180910390fd5b81600160026000838152602001908152602001600020600301541415611ff057806040517f4eec80e6000000000000000000000000000000000000000000000000000000008152600401611fe7919061335c565b60405180910390fd5b611ff983612b85565b827f8b9c2cfee0d20895490bae51f33d88197032bb221b15e360155508136257569a60405160405180910390a2505050565b3073ffffffffffffffffffffffffffffffffffffffff163373ffffffffffffffffffffffffffffffffffffffff161461209b57336040517f03f2b1fd0000000000000000000000000000000000000000000000000000000081526004016120929190613e05565b60405180910390fd5b816120b08160036125b590919063ffffffff16565b6120f157806040517f531e21ce0000000000000000000000000000000000000000000000000000000081526004016120e89190613e05565b60405180910390fd5b81600073ffffffffffffffffffffffffffffffffffffffff168173ffffffffffffffffffffffffffffffffffffffff161415612159576040517fe99d5ac500000000000000000000000000000000000000000000000000000000815260040160405180910390fd5b8261216e8160036125b590919063ffffffff16565b156121b057806040517f5ba0cba40000000000000000000000000000000000000000000000000000000081526004016121a79190613e05565b60405180910390fd5b6121c48560036125fa90919063ffffffff16565b506121d9846003612ad990919063ffffffff16565b508473ffffffffffffffffffffffffffffffffffffffff167f58619076adf5bb0943d100ef88d52d7c3fd691b19d3a9071b555b651fbf418da60405160405180910390a28373ffffffffffffffffffffffffffffffffffffffff167f994a936646fe87ffe4f1e469d3d6aa417d6b855598397f323de5b449f765f0c360405160405180910390a25050505050565b3361227c8160036125b590919063ffffffff16565b6122bd57806040517f531e21ce0000000000000000000000000000000000000000000000000000000081526004016122b49190613e05565b60405180910390fd5b8160006002600083815260200190815260200160002060000180549050141561231d57806040517f4f017420000000000000000000000000000000000000000000000000000000008152600401612314919061335c565b60405180910390fd5b82336002600083815260200190815260200160002060040160008273ffffffffffffffffffffffffffffffffffffffff1673ffffffffffffffffffffffffffffffffffffffff16815260200190815260200160002060009054906101000a900460ff16156123c45781816040517f3d5ba2050000000000000000000000000000000000000000000000000000000081526004016123bb929190613e20565b60405180910390fd5b60016002600087815260200190815260200160002060040160003373ffffffffffffffffffffffffffffffffffffffff1673ffffffffffffffffffffffffffffffffffffffff16815260200190815260200160002060006101000a81548160ff021916908315150217905550843373ffffffffffffffffffffffffffffffffffffffff167f03c76756bd7402ca4b074fa11dfd2a209452c67f6f414cff1d8e9795d291421760405160405180910390a361247d85611654565b1561248c5761248b85611f3d565b5b5050505050565b600080823b905060008111915050919050565b60606000825111156124fd576124bb84612493565b6124fc57836040517f19bb40290000000000000000000000000000000000000000000000000000000081526004016124f39190613e05565b60405180910390fd5b5b600060608573ffffffffffffffffffffffffffffffffffffffff1685856040516125279190614193565b60006040518083038185875af1925050503d8060008114612564576040519150601f19603f3d011682016040523d82523d6000602084013e612569565b606091505b508092508193505050816125a9576040517facfdb44400000000000000000000000000000000000000000000000000000000815260040160405180910390fd5b80925050509392505050565b60006125dd836000018373ffffffffffffffffffffffffffffffffffffffff1660001b612c49565b905092915050565b60006125f382600001612c6c565b9050919050565b6000612622836000018373ffffffffffffffffffffffffffffffffffffffff1660001b612c7d565b905092915050565b60006126587f360894a13ba1a3210667c828492db98dca3e2076cc3735a920a3ca505d382bbc60001b612d91565b60000160009054906101000a900473ffffffffffffffffffffffffffffffffffffffff16905090565b3073ffffffffffffffffffffffffffffffffffffffff163373ffffffffffffffffffffffffffffffffffffffff16146126f157336040517f03f2b1fd0000000000000000000000000000000000000000000000000000000081526004016126e89190613e05565b60405180910390fd5b50565b60006126fe61262a565b905061270984612d9b565b6000835111806127165750815b15612727576127258484612e54565b505b60006127557f4910fdfa16fed3260ed0e7147f7cc6da11a60208b5b9406d12a635614ffd914360001b612e81565b90508060000160009054906101000a900460ff166128be5760018160000160006101000a81548160ff021916908315150217905550612821858360405160240161279f9190613e05565b6040516020818303038152906040527f3659cfe6000000000000000000000000000000000000000000000000000000007bffffffffffffffffffffffffffffffffffffffffffffffffffffffff19166020820180517bffffffffffffffffffffffffffffffffffffffffffffffffffffffff8381831617835250505050612e54565b5060008160000160006101000a81548160ff02191690831515021790555061284761262a565b73ffffffffffffffffffffffffffffffffffffffff168273ffffffffffffffffffffffffffffffffffffffff16146128b4576040517f08c379a00000000000000000000000000000000000000000000000000000000081526004016128ab9061421c565b60405180910390fd5b6128bd85612e8b565b5b5050505050565b7f000000000000000000000000000000000000000000000000000000000000000081101561292a57806040517f08462b5c000000000000000000000000000000000000000000000000000000008152600401612921919061335c565b60405180910390fd5b806001819055507fe238f342cc2d86b842f1511bd768de5dbea53639f6b5335c5d877543bc355c71600154826040516129649291906140d8565b60405180910390a150565b60008360005b8151811015612a1257600073ffffffffffffffffffffffffffffffffffffffff168282815181106129a9576129a8613c74565b5b602002602001015173ffffffffffffffffffffffffffffffffffffffff1614156129ff576040517fe99d5ac500000000000000000000000000000000000000000000000000000000815260040160405180910390fd5b8080612a0a90613dad565b915050612975565b506006549150600060026000848152602001908152602001600020905085816000019080519060200190612a47929190613105565b5084816001019080519060200190612a6092919061318f565b5083816002019080519060200190612a799291906131dc565b5060066000815480929190612a8d90613dad565b9190505550827f3f802220982dbddc337f1811180e73513e775b18380401997927fd1454cfd0bd60405160405180910390a250509392505050565b6000612ad330612493565b15905090565b6000612b01836000018373ffffffffffffffffffffffffffffffffffffffff1660001b612eda565b905092915050565b806005819055507facbdb084c721332ac59f9b8e392196c9eb0e4932862da8eb9beaf0dad4f550da81604051612b3f919061335c565b60405180910390a150565b6000612b598360000183612f4a565b60001c905092915050565b60606000612b7483600001612f75565b905060608190508092505050919050565b80612b8f816119b6565b15612bd157806040517fd61102f5000000000000000000000000000000000000000000000000000000008152600401612bc8919061335c565b60405180910390fd5b81612bdb81611654565b612c1c57806040517f4e59425a000000000000000000000000000000000000000000000000000000008152600401612c13919061335c565b60405180910390fd5b60015442612c2a9190614101565b6002600085815260200190815260200160002060030181905550505050565b600080836001016000848152602001908152602001600020541415905092915050565b600081600001805490509050919050565b60008083600101600084815260200190815260200160002054905060008114612d85576000600182612caf919061423c565b9050600060018660000180549050612cc7919061423c565b9050818114612d36576000866000018281548110612ce857612ce7613c74565b5b9060005260206000200154905080876000018481548110612d0c57612d0b613c74565b5b90600052602060002001819055508387600101600083815260200190815260200160002081905550505b85600001805480612d4a57612d49614270565b5b600190038181906000526020600020016000905590558560010160008681526020019081526020016000206000905560019350505050612d8b565b60009150505b92915050565b6000819050919050565b612da481612493565b612de3576040517f08c379a0000000000000000000000000000000000000000000000000000000008152600401612dda90614311565b60405180910390fd5b80612e107f360894a13ba1a3210667c828492db98dca3e2076cc3735a920a3ca505d382bbc60001b612d91565b60000160006101000a81548173ffffffffffffffffffffffffffffffffffffffff021916908373ffffffffffffffffffffffffffffffffffffffff16021790555050565b6060612e79838360405180606001604052806027815260200161442a60279139612fd1565b905092915050565b6000819050919050565b612e9481612d9b565b8073ffffffffffffffffffffffffffffffffffffffff167fbc7cd75a20ee27fd9adebab32041f755214dbc6bffa90cc0225b39da2e5c2d3b60405160405180910390a250565b6000612ee68383612c49565b612f3f578260000182908060018154018082558091505060019003906000526020600020016000909190919091505582600001805490508360010160008481526020019081526020016000208190555060019050612f44565b600090505b92915050565b6000826000018281548110612f6257612f61613c74565b5b9060005260206000200154905092915050565b606081600001805480602002602001604051908101604052809291908181526020018280548015612fc557602002820191906000526020600020905b815481526020019060010190808311612fb1575b50505050509050919050565b6060612fdc84612493565b61301b576040517f08c379a0000000000000000000000000000000000000000000000000000000008152600401613012906143a3565b60405180910390fd5b6000808573ffffffffffffffffffffffffffffffffffffffff16856040516130439190614193565b600060405180830381855af49150503d806000811461307e576040519150601f19603f3d011682016040523d82523d6000602084013e613083565b606091505b509150915061309382828661309e565b925050509392505050565b606083156130ae578290506130fe565b6000835111156130c15782518084602001fd5b816040517f08c379a00000000000000000000000000000000000000000000000000000000081526004016130f59190614407565b60405180910390fd5b9392505050565b82805482825590600052602060002090810192821561317e579160200282015b8281111561317d5782518260006101000a81548173ffffffffffffffffffffffffffffffffffffffff021916908373ffffffffffffffffffffffffffffffffffffffff16021790555091602001919060010190613125565b5b50905061318b919061323c565b5090565b8280548282559060005260206000209081019282156131cb579160200282015b828111156131ca5782518255916020019190600101906131af565b5b5090506131d8919061323c565b5090565b82805482825590600052602060002090810192821561322b579160200282015b8281111561322a57825182908051906020019061321a929190613259565b50916020019190600101906131fc565b5b50905061323891906132df565b5090565b5b8082111561325557600081600090555060010161323d565b5090565b82805461326590613cd2565b90600052602060002090601f01602090048101928261328757600085556132ce565b82601f106132a057805160ff19168380011785556132ce565b828001600101855582156132ce579182015b828111156132cd5782518255916020019190600101906132b2565b5b5090506132db919061323c565b5090565b5b808211156132ff57600081816132f69190613303565b506001016132e0565b5090565b50805461330f90613cd2565b6000825580601f106133215750613340565b601f01602090049060005260206000209081019061333f919061323c565b5b50565b6000819050919050565b61335681613343565b82525050565b6000602082019050613371600083018461334d565b92915050565b6000604051905090565b600080fd5b600080fd5b61339481613343565b811461339f57600080fd5b50565b6000813590506133b18161338b565b92915050565b6000602082840312156133cd576133cc613381565b5b60006133db848285016133a2565b91505092915050565b600073ffffffffffffffffffffffffffffffffffffffff82169050919050565b600061340f826133e4565b9050919050565b61341f81613404565b811461342a57600080fd5b50565b60008135905061343c81613416565b92915050565b60006020828403121561345857613457613381565b5b60006134668482850161342d565b91505092915050565b60008115159050919050565b6134848161346f565b82525050565b600060208201905061349f600083018461347b565b92915050565b600080fd5b600080fd5b6000601f19601f8301169050919050565b7f4e487b7100000000000000000000000000000000000000000000000000000000600052604160045260246000fd5b6134f8826134af565b810181811067ffffffffffffffff82111715613517576135166134c0565b5b80604052505050565b600061352a613377565b905061353682826134ef565b919050565b600067ffffffffffffffff821115613556576135556134c0565b5b61355f826134af565b9050602081019050919050565b82818337600083830152505050565b600061358e6135898461353b565b613520565b9050828152602081018484840111156135aa576135a96134aa565b5b6135b584828561356c565b509392505050565b600082601f8301126135d2576135d16134a5565b5b81356135e284826020860161357b565b91505092915050565b6000806040838503121561360257613601613381565b5b60006136108582860161342d565b925050602083013567ffffffffffffffff81111561363157613630613386565b5b61363d858286016135bd565b9150509250929050565b600080fd5b600080fd5b60008083601f840112613667576136666134a5565b5b8235905067ffffffffffffffff81111561368457613683613647565b5b6020830191508360208202830111156136a05761369f61364c565b5b9250929050565b60008083601f8401126136bd576136bc6134a5565b5b8235905067ffffffffffffffff8111156136da576136d9613647565b5b6020830191508360208202830111156136f6576136f561364c565b5b9250929050565b60008083601f840112613713576137126134a5565b5b8235905067ffffffffffffffff8111156137305761372f613647565b5b60208301915083602082028301111561374c5761374b61364c565b5b9250929050565b600080600080600080606087890312156137705761376f613381565b5b600087013567ffffffffffffffff81111561378e5761378d613386565b5b61379a89828a01613651565b9650965050602087013567ffffffffffffffff8111156137bd576137bc613386565b5b6137c989828a016136a7565b9450945050604087013567ffffffffffffffff8111156137ec576137eb613386565b5b6137f889828a016136fd565b92509250509295509295509295565b600060808201905061381c600083018761334d565b613829602083018661334d565b613836604083018561334d565b613843606083018461334d565b95945050505050565b6000806000806060858703121561386657613865613381565b5b600085013567ffffffffffffffff81111561388457613883613386565b5b61389087828801613651565b945094505060206138a3878288016133a2565b92505060406138b4878288016133a2565b91505092959194509250565b600080604083850312156138d7576138d6613381565b5b60006138e5858286016133a2565b92505060206138f68582860161342d565b9150509250929050565b600081519050919050565b600082825260208201905092915050565b6000819050602082019050919050565b61393581613404565b82525050565b6000613947838361392c565b60208301905092915050565b6000602082019050919050565b600061396b82613900565b613975818561390b565b93506139808361391c565b8060005b838110156139b1578151613998888261393b565b97506139a383613953565b925050600181019050613984565b5085935050505092915050565b600060208201905081810360008301526139d88184613960565b905092915050565b600081519050919050565b600082825260208201905092915050565b6000819050602082019050919050565b613a1581613343565b82525050565b6000613a278383613a0c565b60208301905092915050565b6000602082019050919050565b6000613a4b826139e0565b613a5581856139eb565b9350613a60836139fc565b8060005b83811015613a91578151613a788882613a1b565b9750613a8383613a33565b925050600181019050613a64565b5085935050505092915050565b600081519050919050565b600082825260208201905092915050565b6000819050602082019050919050565b600081519050919050565b600082825260208201905092915050565b60005b83811015613b04578082015181840152602081019050613ae9565b83811115613b13576000848401525b50505050565b6000613b2482613aca565b613b2e8185613ad5565b9350613b3e818560208601613ae6565b613b47816134af565b840191505092915050565b6000613b5e8383613b19565b905092915050565b6000602082019050919050565b6000613b7e82613a9e565b613b888185613aa9565b935083602082028501613b9a85613aba565b8060005b85811015613bd65784840389528151613bb78582613b52565b9450613bc283613b66565b925060208a01995050600181019050613b9e565b50829750879550505050505092915050565b60006060820190508181036000830152613c028186613960565b90508181036020830152613c168185613a40565b90508181036040830152613c2a8184613b73565b9050949350505050565b60008060408385031215613c4b57613c4a613381565b5b6000613c598582860161342d565b9250506020613c6a8582860161342d565b9150509250929050565b7f4e487b7100000000000000000000000000000000000000000000000000000000600052603260045260246000fd5b7f4e487b7100000000000000000000000000000000000000000000000000000000600052602260045260246000fd5b60006002820490506001821680613cea57607f821691505b60208210811415613cfe57613cfd613ca3565b5b50919050565b600082825260208201905092915050565b6000613d2082613aca565b613d2a8185613d04565b9350613d3a818560208601613ae6565b613d43816134af565b840191505092915050565b6000604082019050613d63600083018561334d565b8181036020830152613d758184613d15565b90509392505050565b7f4e487b7100000000000000000000000000000000000000000000000000000000600052601160045260246000fd5b6000613db882613343565b91507fffffffffffffffffffffffffffffffffffffffffffffffffffffffffffffffff821415613deb57613dea613d7e565b5b600182019050919050565b613dff81613404565b82525050565b6000602082019050613e1a6000830184613df6565b92915050565b6000604082019050613e35600083018561334d565b613e426020830184613df6565b9392505050565b600082825260208201905092915050565b7f46756e6374696f6e206d7573742062652063616c6c6564207468726f7567682060008201527f64656c656761746563616c6c0000000000000000000000000000000000000000602082015250565b6000613eb6602c83613e49565b9150613ec182613e5a565b604082019050919050565b60006020820190508181036000830152613ee581613ea9565b9050919050565b7f46756e6374696f6e206d7573742062652063616c6c6564207468726f7567682060008201527f6163746976652070726f78790000000000000000000000000000000000000000602082015250565b6000613f48602c83613e49565b9150613f5382613eec565b604082019050919050565b60006020820190508181036000830152613f7781613f3b565b9050919050565b600067ffffffffffffffff821115613f9957613f986134c0565b5b602082029050602081019050919050565b6000613fbd613fb884613f7e565b613520565b90508083825260208201905060208402830185811115613fe057613fdf61364c565b5b835b8181101561402757803567ffffffffffffffff811115614005576140046134a5565b5b80860161401289826135bd565b85526020850194505050602081019050613fe2565b5050509392505050565b600061403e368484613faa565b905092915050565b7f496e697469616c697a61626c653a20636f6e747261637420697320616c72656160008201527f647920696e697469616c697a6564000000000000000000000000000000000000602082015250565b60006140a2602e83613e49565b91506140ad82614046565b604082019050919050565b600060208201905081810360008301526140d181614095565b9050919050565b60006040820190506140ed600083018561334d565b6140fa602083018461334d565b9392505050565b600061410c82613343565b915061411783613343565b9250827fffffffffffffffffffffffffffffffffffffffffffffffffffffffffffffffff0382111561414c5761414b613d7e565b5b828201905092915050565b600081905092915050565b600061416d82613aca565b6141778185614157565b9350614187818560208601613ae6565b80840191505092915050565b600061419f8284614162565b915081905092915050565b7f45524331393637557067726164653a207570677261646520627265616b73206660008201527f7572746865722075706772616465730000000000000000000000000000000000602082015250565b6000614206602f83613e49565b9150614211826141aa565b604082019050919050565b60006020820190508181036000830152614235816141f9565b9050919050565b600061424782613343565b915061425283613343565b92508282101561426557614264613d7e565b5b828203905092915050565b7f4e487b7100000000000000000000000000000000000000000000000000000000600052603160045260246000fd5b7f455243313936373a206e657720696d706c656d656e746174696f6e206973206e60008201527f6f74206120636f6e747261637400000000000000000000000000000000000000602082015250565b60006142fb602d83613e49565b91506143068261429f565b604082019050919050565b6000602082019050818103600083015261432a816142ee565b9050919050565b7f416464726573733a2064656c65676174652063616c6c20746f206e6f6e2d636f60008201527f6e74726163740000000000000000000000000000000000000000000000000000602082015250565b600061438d602683613e49565b915061439882614331565b604082019050919050565b600060208201905081810360008301526143bc81614380565b9050919050565b600081519050919050565b60006143d9826143c3565b6143e38185613e49565b93506143f3818560208601613ae6565b6143fc816134af565b840191505092915050565b6000602082019050818103600083015261442181846143ce565b90509291505056fe416464726573733a206c6f772d6c6576656c2064656c65676174652063616c6c206661696c6564a26469706673582212205d2050c96ac6170a8d1b3359aae89520ea664c0a207e989b29d1fa846b53b29964736f6c634300080b0033",
  "devdoc": {
    "author": "Stefan George - <stefan.george@consensys.net>",
    "details": "NOTE: This contract has its limitations and is not viable for every multi-signature setup. On a case by case basis, evaluate whether this is the correct contract for your use case. In particular, this contract doesn't have an atomic \"add owners and increase requirement\" operation. This can be tricky, for example, in a situation where a MultiSig starts out owned by a single owner. Safely increasing the owner set and requirement at the same time is not trivial. One way to work around this situation is to first add a second address controlled by the original owner, increase the requirement, and then replace the auxillary address with the intended second owner. Again, this is just one example, in general make sure to verify this contract will support your intended usage. The goal of this contract is to offer a simple, minimal multi-signature API that's easy to understand even for novice Solidity users. Forked from github.com/celo-org/celo-monorepo/blob/master/packages/protocol/contracts/common/MultiSig.sol",
    "errors": {
      "CannotRemoveLastOwner(address)": [
        {
          "params": {
            "owner": "The last owner."
          }
        }
      ],
      "InsufficientDelay(uint256)": [
        {
          "params": {
            "delay": "The insufficient delay."
          }
        }
      ],
      "InvalidContractAddress(address)": [
        {
          "params": {
            "destination": "The invalid destination address."
          }
        }
      ],
      "InvalidRequirement(uint256,uint256)": [
        {
          "params": {
            "ownerCount": "The count of owners.",
            "required": "The number of required confirmations."
          }
        }
      ],
      "OwnerAlreadyExists(address)": [
        {
          "params": {
            "owner": "The address of the owner."
          }
        }
      ],
      "OwnerDoesNotExist(address)": [
        {
          "params": {
            "owner": "The address of the owner."
          }
        }
      ],
      "ProposalAlreadyConfirmed(uint256,address)": [
        {
          "params": {
            "owner": "The address of the owner which confirmed the proposal.",
            "proposalId": "The ID of the proposal that is already confirmed."
          }
        }
      ],
      "ProposalAlreadyExecuted(uint256)": [
        {
          "params": {
            "proposalId": "The ID of the proposal that is already executed."
          }
        }
      ],
      "ProposalAlreadyScheduled(uint256)": [
        {
          "params": {
            "proposalId": "The ID of the proposal which is already scheduled."
          }
        }
      ],
      "ProposalDoesNotExist(uint256)": [
        {
          "params": {
            "proposalId": "The ID of the non-existent proposal."
          }
        }
      ],
      "ProposalNotConfirmed(uint256,address)": [
        {
          "params": {
            "owner": "The address of the owner which did not confirm the proposal.",
            "proposalId": "The ID of the proposal that is not confirmed."
          }
        }
      ],
      "ProposalNotFullyConfirmed(uint256)": [
        {
          "details": "A proposal is fully confirmed when the `required` threshold of confirmations has been met.",
          "params": {
            "proposalId": "The ID of the proposal that is not fully confirmed."
          }
        }
      ],
      "ProposalNotScheduled(uint256)": [
        {
          "params": {
            "proposalId": "The ID of the proposal which is not scheduled."
          }
        }
      ],
      "ProposalTimelockNotReached(uint256)": [
        {
          "params": {
            "proposalId": "The ID of the proposal whose time lock has not been reached yet."
          }
        }
      ],
      "SenderMustBeMultisigWallet(address)": [
        {
          "params": {
            "account": "The sender which triggered the function."
          }
        }
      ]
    },
    "events": {
      "CeloDeposited(address,uint256)": {
        "params": {
          "sender": "The account which sent the CELO.",
          "value": "The amount of CELO sent."
        }
      },
      "ConfirmationRevoked(address,uint256)": {
        "params": {
          "proposalId": "The ID of the proposal.",
          "sender": "The address of the sender."
        }
      },
      "DelayChanged(uint256,uint256)": {
        "params": {
          "delay": "The current delay value.",
          "newDelay": "The new delay value."
        }
      },
      "OwnerAdded(address)": {
        "params": {
          "owner": "The added owner."
        }
      },
      "OwnerRemoved(address)": {
        "params": {
          "owner": "The removed owner."
        }
      },
      "ProposalAdded(uint256)": {
        "params": {
          "proposalId": "The ID of the proposal that was added."
        }
      },
      "ProposalConfirmed(address,uint256)": {
        "params": {
          "proposalId": "The ID of the proposal.",
          "sender": "The address of the sender."
        }
      },
      "ProposalExecuted(uint256,bytes)": {
        "params": {
          "proposalId": "The ID of the proposal that was executed.",
          "returnData": "The response that was recieved from the external call."
        }
      },
      "ProposalScheduled(uint256)": {
        "params": {
          "proposalId": "The ID of the proposal that is scheduled."
        }
      },
      "RequirementChanged(uint256)": {
        "params": {
          "required": "The new required amount."
        }
      },
      "TransactionExecuted(uint256,uint256,bytes)": {
        "params": {
          "index": "The index of the transaction within the proposal.",
          "proposalId": "The ID of the proposal.",
          "returnData": "The response that was recieved from the external call."
        }
      }
    },
    "kind": "dev",
    "methods": {
      "addOwner(address)": {
        "details": "This call can only be made by this contract.",
        "params": {
          "owner": "The owner to add."
        }
      },
      "changeDelay(uint256)": {
        "details": "Proposal has to be sent by wallet.",
        "params": {
          "newDelay": "The new delay value."
        }
      },
      "changeRequirement(uint256)": {
        "details": "Proposal has to be sent by wallet.",
        "params": {
          "newRequired": "The new number of confirmations required."
        }
      },
      "confirmProposal(uint256)": {
        "params": {
          "proposalId": "The ID of the proposal to confirm."
        }
      },
      "constructor": {
        "params": {
          "_minDelay": "The minimum time in seconds that must elapse before a proposal is executable."
        }
      },
      "executeProposal(uint256)": {
        "details": "Any of the multisig owners can execute a given proposal, even though they may not have participated in its confirmation process."
      },
      "getConfirmations(uint256)": {
        "params": {
          "proposalId": "The ID of the proposal."
        },
        "returns": {
          "_0": "The list of owner addresses."
        }
      },
      "getOwners()": {
        "returns": {
          "_0": "The list of owner addresses."
        }
      },
      "getProposal(uint256)": {
        "params": {
          "destinations": "The addresses at which the proposal is target at.",
          "payloads": "The payloads of the proposal.",
          "proposalId": "The ID of the proposal.",
          "values": "The CELO values involved in the proposal if any."
        }
      },
      "getTimestamp(uint256)": {
        "params": {
          "proposalId": "The ID of the proposal."
        },
        "returns": {
          "_0": "The timestamp at which the proposal becomes executable."
        }
      },
      "getVersionNumber()": {
        "returns": {
          "_0": "Storage version of the contract.",
          "_1": "Major version of the contract.",
          "_2": "Minor version of the contract.",
          "_3": "Patch version of the contract."
        }
      },
      "initialize(address[],uint256,uint256)": {
        "details": "This plays the role of a typical contract constructor. Sets initial owners and required number of confirmations. The initializer modifier ensures that this function is ONLY callable once.",
        "params": {
          "_delay": "The delay that must elapse to be able to execute a proposal.",
          "initialOwners": "The list of initial owners.",
          "requiredConfirmations": "The number of required confirmations for a proposal to be fully confirmed."
        }
      },
      "isConfirmedBy(uint256,address)": {
        "params": {
          "owner": "The address to check.",
          "proposalId": "The ID of the proposal to check."
        },
        "returns": {
          "_0": "Whether or not the proposal is confirmed by the given owner."
        }
      },
      "isFullyConfirmed(uint256)": {
        "params": {
          "proposalId": "The ID of the proposal to check."
        },
        "returns": {
          "_0": "Whether or not the proposal is confirmed by the minimum set of owners."
        }
      },
      "isOwner(address)": {
        "params": {
          "owner": "The address to check."
        },
        "returns": {
          "_0": "Whether or not the address is a multisig owner."
        }
      },
      "isProposalTimelockReached(uint256)": {
        "params": {
          "proposalId": "The ID of the proposal to check."
        },
        "returns": {
          "_0": "Whether or not the time lock is reached."
        }
      },
      "isScheduled(uint256)": {
        "params": {
          "proposalId": "The ID of the proposal to check."
        },
        "returns": {
          "_0": "Whether or not the proposal is scheduled."
        }
      },
      "removeOwner(address)": {
        "details": "This call can only be made by this contract.",
        "params": {
          "owner": "The owner to remove."
        }
      },
      "replaceOwner(address,address)": {
        "details": "This call can only be made by this contract.",
        "params": {
          "owner": "The owner to be replaced."
        }
      },
      "revokeConfirmation(uint256)": {
        "params": {
          "proposalId": "The ID of the proposal to be revoked."
        }
      },
      "scheduleProposal(uint256)": {
        "params": {
          "proposalId": "The ID of the proposal to confirm."
        }
      },
      "submitProposal(address[],uint256[],bytes[])": {
        "params": {
          "destinations": "The addresses at which the proposal is target at.",
          "payloads": "The payloads of the proposal.",
          "values": "The CELO values involved in the proposal if any."
        },
        "returns": {
          "proposalId": "Returns the ID of the proposal that gets generated."
        }
      },
      "upgradeTo(address)": {
        "details": "Upgrade the implementation of the proxy to `newImplementation`. Calls {_authorizeUpgrade}. Emits an {Upgraded} event."
      },
      "upgradeToAndCall(address,bytes)": {
        "details": "Upgrade the implementation of the proxy to `newImplementation`, and subsequently execute the function call encoded in `data`. Calls {_authorizeUpgrade}. Emits an {Upgraded} event."
      }
    },
    "title": "Multisignature wallet - Allows multiple parties to agree on proposals before execution.",
    "version": 1
  },
  "userdoc": {
    "errors": {
      "CannotRemoveLastOwner(address)": [
        {
          "notice": "Used when attempting to remove the last owner."
        }
      ],
      "ExecutionFailed()": [
        {
          "notice": "Used when an execution fails."
        }
      ],
      "InsufficientDelay(uint256)": [
        {
          "notice": "Used when a provided value is less than the minimum time lock delay."
        }
      ],
      "InvalidContractAddress(address)": [
        {
          "notice": "Used when destination is not a contract."
        }
      ],
      "InvalidRequirement(uint256,uint256)": [
        {
          "notice": "Used when the set threshold values for owner and minimum required confirmations are not met."
        }
      ],
      "NullAddress()": [
        {
          "notice": "Used when a passed address is address(0)."
        }
      ],
      "OwnerAlreadyExists(address)": [
        {
          "notice": "Used when attempting to add an already existing owner."
        }
      ],
      "OwnerDoesNotExist(address)": [
        {
          "notice": "Used when an owner does not exist."
        }
      ],
      "ParamLengthsMismatch()": [
        {
          "notice": "Used when the sizes of the provided arrays params do not match when submitting a proposal."
        }
      ],
      "ProposalAlreadyConfirmed(uint256,address)": [
        {
          "notice": "Used when a proposal is already confirmed by an owner."
        }
      ],
      "ProposalAlreadyExecuted(uint256)": [
        {
          "notice": "Used when a proposal has been executed."
        }
      ],
      "ProposalAlreadyScheduled(uint256)": [
        {
          "notice": "Used when attempting to schedule an already scheduled proposal."
        }
      ],
      "ProposalDoesNotExist(uint256)": [
        {
          "notice": "Used when a proposal does not exist."
        }
      ],
      "ProposalNotConfirmed(uint256,address)": [
        {
          "notice": "Used when a proposal is not confirmed by a given owner."
        }
      ],
      "ProposalNotFullyConfirmed(uint256)": [
        {
          "notice": "Used when a proposal is not fully confirmed."
        }
      ],
      "ProposalNotScheduled(uint256)": [
        {
          "notice": "Used when a proposal is not scheduled."
        }
      ],
      "ProposalTimelockNotReached(uint256)": [
        {
          "notice": "Used when a time lock delay is not reached."
        }
      ],
      "SenderMustBeMultisigWallet(address)": [
        {
          "notice": "Used when sender is not this contract in an `onlyWallet` function."
        }
      ]
    },
    "events": {
      "CeloDeposited(address,uint256)": {
        "notice": "Emitted when CELO is sent to this contract."
      },
      "ConfirmationRevoked(address,uint256)": {
        "notice": "Used when a confirmation is successfully revoked."
      },
      "DelayChanged(uint256,uint256)": {
        "notice": "Used when `delay` is changed."
      },
      "OwnerAdded(address)": {
        "notice": "Emitted when an Owner is successfully added as part of the multisig."
      },
      "OwnerRemoved(address)": {
        "notice": "Emitted when an Owner is successfully removed from the multisig."
      },
      "ProposalAdded(uint256)": {
        "notice": "Used when a proposal is successfully added."
      },
      "ProposalConfirmed(address,uint256)": {
        "notice": "Used when a proposal is successfully confirmed."
      },
      "ProposalExecuted(uint256,bytes)": {
        "notice": "Emitted when a confirmed proposal is successfully executed."
      },
      "ProposalScheduled(uint256)": {
        "notice": "Emitted when a proposal is scheduled."
      },
      "RequirementChanged(uint256)": {
        "notice": "Emitted when the minimum amount of required confirmations is successfully changed."
      },
      "TransactionExecuted(uint256,uint256,bytes)": {
        "notice": "Emitted when one of the transactions that make up a proposal is successfully executed."
      }
    },
    "kind": "user",
    "methods": {
      "MAX_OWNER_COUNT()": {
        "notice": "The maximum number of multisig owners."
      },
      "addOwner(address)": {
        "notice": "Adds a new multisig owner."
      },
      "changeDelay(uint256)": {
        "notice": "Changes the value of the delay that must elapse before a proposal can become executable."
      },
      "changeRequirement(uint256)": {
        "notice": "Changes the number of confirmations required to consider a proposal fully confirmed."
      },
      "confirmProposal(uint256)": {
        "notice": "Confirms a proposal. A proposal is executed if this confirmation makes it fully confirmed."
      },
      "constructor": {
        "notice": "Sets `initialized` to  true on implementation contracts."
      },
      "delay()": {
        "notice": "The delay that must elapse to be able to execute a proposal."
      },
      "executeProposal(uint256)": {
        "notice": "Executes a proposal. A proposal is only executetable if it is fully confirmed, scheduled and the set delay has elapsed."
      },
      "getConfirmations(uint256)": {
        "notice": "Gets the list of owners' addresses which have confirmed a given proposal."
      },
      "getOwners()": {
        "notice": "Get the list of multisig owners."
      },
      "getProposal(uint256)": {
        "notice": "Gets the destinations, values and payloads of a proposal."
      },
      "getTimestamp(uint256)": {
        "notice": "Returns the timestamp at which a proposal becomes executable."
      },
      "getVersionNumber()": {
        "notice": "Returns the storage, major, minor, and patch version of the contract."
      },
      "initialize(address[],uint256,uint256)": {
        "notice": "Bootstraps this contract with initial data."
      },
      "isConfirmedBy(uint256,address)": {
        "notice": "Checks that a proposal is confirmed by an owner."
      },
      "isFullyConfirmed(uint256)": {
        "notice": "Checks that a proposal has been confirmed by at least the `required` number of owners."
      },
      "isOwner(address)": {
        "notice": "Checks that an address is a multisig owner."
      },
      "isProposalTimelockReached(uint256)": {
        "notice": "Returns whether a proposal is executable or not. A proposal is executable if it is scheduled, the delay has elapsed and it is not yet executed."
      },
      "isScheduled(uint256)": {
        "notice": "Returns whether a proposal is scheduled."
      },
      "minDelay()": {
        "notice": "The minimum time in seconds that must elapse before a proposal is executable."
      },
      "proposalCount()": {
        "notice": "The total count of proposals."
      },
      "proposals(uint256)": {
        "notice": "Keyed by proposal ID, the Proposal record."
      },
      "removeOwner(address)": {
        "notice": "Removes an existing owner."
      },
      "replaceOwner(address,address)": {
        "notice": "Replaces an existing owner with a new owner."
      },
      "required()": {
        "notice": "The amount of confirmations required for a proposal to be fully confirmed."
      },
      "revokeConfirmation(uint256)": {
        "notice": "Void a confirmation for a previously confirmed proposal."
      },
      "scheduleProposal(uint256)": {
        "notice": "Schedules a proposal with a time lock."
      },
      "submitProposal(address[],uint256[],bytes[])": {
        "notice": "Creates a proposal and triggers the first confirmation on behalf of the proposal creator."
      }
    },
    "version": 1
  },
  "storageLayout": {
    "storage": [
      {
        "astId": 1161,
        "contract": "contracts/common/MultiSig.sol:MultiSig",
        "label": "_initialized",
        "offset": 0,
        "slot": "0",
        "type": "t_bool"
      },
      {
        "astId": 1164,
        "contract": "contracts/common/MultiSig.sol:MultiSig",
        "label": "_initializing",
        "offset": 1,
        "slot": "0",
        "type": "t_bool"
      },
      {
        "astId": 12277,
        "contract": "contracts/common/MultiSig.sol:MultiSig",
        "label": "delay",
        "offset": 0,
        "slot": "1",
        "type": "t_uint256"
      },
      {
        "astId": 12283,
        "contract": "contracts/common/MultiSig.sol:MultiSig",
        "label": "proposals",
        "offset": 0,
        "slot": "2",
        "type": "t_mapping(t_uint256,t_struct(Proposal)12274_storage)"
      },
      {
        "astId": 12287,
        "contract": "contracts/common/MultiSig.sol:MultiSig",
        "label": "owners",
        "offset": 0,
        "slot": "3",
        "type": "t_struct(AddressSet)3257_storage"
      },
      {
        "astId": 12290,
        "contract": "contracts/common/MultiSig.sol:MultiSig",
        "label": "required",
        "offset": 0,
        "slot": "5",
        "type": "t_uint256"
      },
      {
        "astId": 12293,
        "contract": "contracts/common/MultiSig.sol:MultiSig",
        "label": "proposalCount",
        "offset": 0,
        "slot": "6",
        "type": "t_uint256"
      }
    ],
    "types": {
      "t_address": {
        "encoding": "inplace",
        "label": "address",
        "numberOfBytes": "20"
      },
      "t_array(t_address)dyn_storage": {
        "base": "t_address",
        "encoding": "dynamic_array",
        "label": "address[]",
        "numberOfBytes": "32"
      },
      "t_array(t_bytes32)dyn_storage": {
        "base": "t_bytes32",
        "encoding": "dynamic_array",
        "label": "bytes32[]",
        "numberOfBytes": "32"
      },
      "t_array(t_bytes_storage)dyn_storage": {
        "base": "t_bytes_storage",
        "encoding": "dynamic_array",
        "label": "bytes[]",
        "numberOfBytes": "32"
      },
      "t_array(t_uint256)dyn_storage": {
        "base": "t_uint256",
        "encoding": "dynamic_array",
        "label": "uint256[]",
        "numberOfBytes": "32"
      },
      "t_bool": {
        "encoding": "inplace",
        "label": "bool",
        "numberOfBytes": "1"
      },
      "t_bytes32": {
        "encoding": "inplace",
        "label": "bytes32",
        "numberOfBytes": "32"
      },
      "t_bytes_storage": {
        "encoding": "bytes",
        "label": "bytes",
        "numberOfBytes": "32"
      },
      "t_mapping(t_address,t_bool)": {
        "encoding": "mapping",
        "key": "t_address",
        "label": "mapping(address => bool)",
        "numberOfBytes": "32",
        "value": "t_bool"
      },
      "t_mapping(t_bytes32,t_uint256)": {
        "encoding": "mapping",
        "key": "t_bytes32",
        "label": "mapping(bytes32 => uint256)",
        "numberOfBytes": "32",
        "value": "t_uint256"
      },
      "t_mapping(t_uint256,t_struct(Proposal)12274_storage)": {
        "encoding": "mapping",
        "key": "t_uint256",
        "label": "mapping(uint256 => struct MultiSig.Proposal)",
        "numberOfBytes": "32",
        "value": "t_struct(Proposal)12274_storage"
      },
      "t_struct(AddressSet)3257_storage": {
        "encoding": "inplace",
        "label": "struct EnumerableSet.AddressSet",
        "members": [
          {
            "astId": 3256,
            "contract": "contracts/common/MultiSig.sol:MultiSig",
            "label": "_inner",
            "offset": 0,
            "slot": "0",
            "type": "t_struct(Set)2956_storage"
          }
        ],
        "numberOfBytes": "64"
      },
      "t_struct(Proposal)12274_storage": {
        "encoding": "inplace",
        "label": "struct MultiSig.Proposal",
        "members": [
          {
            "astId": 12261,
            "contract": "contracts/common/MultiSig.sol:MultiSig",
            "label": "destinations",
            "offset": 0,
            "slot": "0",
            "type": "t_array(t_address)dyn_storage"
          },
          {
            "astId": 12264,
            "contract": "contracts/common/MultiSig.sol:MultiSig",
            "label": "values",
            "offset": 0,
            "slot": "1",
            "type": "t_array(t_uint256)dyn_storage"
          },
          {
            "astId": 12267,
            "contract": "contracts/common/MultiSig.sol:MultiSig",
            "label": "payloads",
            "offset": 0,
            "slot": "2",
            "type": "t_array(t_bytes_storage)dyn_storage"
          },
          {
            "astId": 12269,
            "contract": "contracts/common/MultiSig.sol:MultiSig",
            "label": "timestampExecutable",
            "offset": 0,
            "slot": "3",
            "type": "t_uint256"
          },
          {
            "astId": 12273,
            "contract": "contracts/common/MultiSig.sol:MultiSig",
            "label": "confirmations",
            "offset": 0,
            "slot": "4",
            "type": "t_mapping(t_address,t_bool)"
          }
        ],
        "numberOfBytes": "160"
      },
      "t_struct(Set)2956_storage": {
        "encoding": "inplace",
        "label": "struct EnumerableSet.Set",
        "members": [
          {
            "astId": 2951,
            "contract": "contracts/common/MultiSig.sol:MultiSig",
            "label": "_values",
            "offset": 0,
            "slot": "0",
            "type": "t_array(t_bytes32)dyn_storage"
          },
          {
            "astId": 2955,
            "contract": "contracts/common/MultiSig.sol:MultiSig",
            "label": "_indexes",
            "offset": 0,
            "slot": "1",
            "type": "t_mapping(t_bytes32,t_uint256)"
          }
        ],
        "numberOfBytes": "64"
      },
      "t_uint256": {
        "encoding": "inplace",
        "label": "uint256",
        "numberOfBytes": "32"
      }
    }
  }
}