{
  "address": "0x9dd19aa3c4ef6eBD253BAF98Cb27ea7c792cc4e8",
  "abi": [
    {
      "inputs": [],
      "stateMutability": "nonpayable",
      "type": "constructor"
    },
    {
      "inputs": [],
      "name": "AddressZeroNotAllowed",
      "type": "error"
    },
    {
      "inputs": [
        {
          "internalType": "address",
          "name": "caller",
          "type": "address"
        }
      ],
      "name": "CallerNotManager",
      "type": "error"
    },
    {
      "inputs": [
        {
          "internalType": "address",
          "name": "group",
          "type": "address"
        }
      ],
      "name": "CantWithdrawAccordingToStrategy",
      "type": "error"
    },
    {
      "inputs": [
        {
          "internalType": "address",
          "name": "group",
          "type": "address"
        }
      ],
      "name": "FailedToAddGroup",
      "type": "error"
    },
    {
      "inputs": [
        {
          "internalType": "address",
          "name": "group",
          "type": "address"
        }
      ],
      "name": "FailedToBlockGroup",
      "type": "error"
    },
    {
      "inputs": [
        {
          "internalType": "address",
          "name": "group",
          "type": "address"
        }
      ],
      "name": "FailedToUnblockGroup",
      "type": "error"
    },
    {
      "inputs": [
        {
          "internalType": "address",
          "name": "group",
          "type": "address"
        }
      ],
      "name": "GroupAlreadyBlocked",
      "type": "error"
    },
    {
      "inputs": [
        {
          "internalType": "address",
          "name": "group",
          "type": "address"
        }
      ],
      "name": "GroupBalanced",
      "type": "error"
    },
    {
      "inputs": [
        {
          "internalType": "address",
          "name": "group",
          "type": "address"
        }
      ],
      "name": "GroupNotBalanced",
      "type": "error"
    },
    {
      "inputs": [
        {
          "internalType": "address",
          "name": "group",
          "type": "address"
        }
      ],
      "name": "GroupNotEligible",
      "type": "error"
    },
    {
      "inputs": [
        {
          "internalType": "address",
          "name": "group",
          "type": "address"
        }
      ],
      "name": "GroupNotOverflowing",
      "type": "error"
    },
    {
      "inputs": [
        {
          "internalType": "address",
          "name": "group",
          "type": "address"
        }
      ],
      "name": "GroupStillOverflowing",
      "type": "error"
    },
    {
      "inputs": [],
      "name": "NoActiveGroups",
      "type": "error"
    },
    {
      "inputs": [],
      "name": "NoGroups",
      "type": "error"
    },
    {
      "inputs": [],
      "name": "NullAddress",
      "type": "error"
    },
    {
      "anonymous": false,
      "inputs": [
        {
          "indexed": false,
          "internalType": "address",
          "name": "previousAdmin",
          "type": "address"
        },
        {
          "indexed": false,
          "internalType": "address",
          "name": "newAdmin",
          "type": "address"
        }
      ],
      "name": "AdminChanged",
      "type": "event"
    },
    {
      "anonymous": false,
      "inputs": [
        {
          "indexed": true,
          "internalType": "address",
          "name": "beacon",
          "type": "address"
        }
      ],
      "name": "BeaconUpgraded",
      "type": "event"
    },
    {
      "anonymous": false,
      "inputs": [
        {
          "indexed": false,
          "internalType": "address",
          "name": "group",
          "type": "address"
        }
      ],
      "name": "GroupBlocked",
      "type": "event"
    },
    {
      "anonymous": false,
      "inputs": [
        {
          "indexed": true,
          "internalType": "address",
          "name": "group",
          "type": "address"
        }
      ],
      "name": "GroupUnblocked",
      "type": "event"
    },
    {
      "anonymous": false,
      "inputs": [
        {
          "indexed": true,
          "internalType": "address",
          "name": "manager",
          "type": "address"
        }
      ],
      "name": "ManagerSet",
      "type": "event"
    },
    {
      "anonymous": false,
      "inputs": [
        {
          "indexed": true,
          "internalType": "address",
          "name": "previousOwner",
          "type": "address"
        },
        {
          "indexed": true,
          "internalType": "address",
          "name": "newOwner",
          "type": "address"
        }
      ],
      "name": "OwnershipTransferred",
      "type": "event"
    },
    {
      "anonymous": false,
      "inputs": [
        {
          "indexed": true,
          "internalType": "address",
          "name": "implementation",
          "type": "address"
        }
      ],
      "name": "Upgraded",
      "type": "event"
    },
    {
      "inputs": [],
      "name": "account",
      "outputs": [
        {
          "internalType": "contract IAccount",
          "name": "",
          "type": "address"
        }
      ],
      "stateMutability": "view",
      "type": "function"
    },
    {
      "inputs": [
        {
          "internalType": "address",
          "name": "group",
          "type": "address"
        }
      ],
      "name": "blockGroup",
      "outputs": [],
      "stateMutability": "nonpayable",
      "type": "function"
    },
    {
      "inputs": [],
      "name": "defaultStrategy",
      "outputs": [
        {
          "internalType": "contract IDefaultStrategy",
          "name": "",
          "type": "address"
        }
      ],
      "stateMutability": "view",
      "type": "function"
    },
    {
      "inputs": [
        {
          "internalType": "address",
          "name": "group",
          "type": "address"
        },
        {
          "internalType": "uint256",
          "name": "celoAmount",
          "type": "uint256"
        },
        {
          "internalType": "uint256",
          "name": "stCeloAmount",
          "type": "uint256"
        }
      ],
      "name": "generateDepositVoteDistribution",
      "outputs": [
        {
          "internalType": "address[]",
          "name": "finalGroups",
          "type": "address[]"
        },
        {
          "internalType": "uint256[]",
          "name": "finalVotes",
          "type": "uint256[]"
        }
      ],
      "stateMutability": "nonpayable",
      "type": "function"
    },
    {
      "inputs": [
        {
          "internalType": "address",
          "name": "group",
          "type": "address"
        },
        {
          "internalType": "uint256",
          "name": "celoWithdrawalAmount",
          "type": "uint256"
        },
        {
          "internalType": "uint256",
          "name": "stCeloWithdrawalAmount",
          "type": "uint256"
        },
        {
          "internalType": "bool",
          "name": "isTransfer",
          "type": "bool"
        }
      ],
      "name": "generateWithdrawalVoteDistribution",
      "outputs": [
        {
          "internalType": "address[]",
          "name": "groups",
          "type": "address[]"
        },
        {
          "internalType": "uint256[]",
          "name": "votes",
          "type": "uint256[]"
        }
      ],
      "stateMutability": "nonpayable",
      "type": "function"
    },
    {
      "inputs": [
        {
          "internalType": "uint256",
          "name": "index",
          "type": "uint256"
        }
      ],
      "name": "getBlockedGroup",
      "outputs": [
        {
          "internalType": "address",
          "name": "",
          "type": "address"
        }
      ],
      "stateMutability": "view",
      "type": "function"
    },
    {
      "inputs": [],
      "name": "getNumberOfBlockedGroups",
      "outputs": [
        {
          "internalType": "uint256",
          "name": "",
          "type": "uint256"
        }
      ],
      "stateMutability": "view",
      "type": "function"
    },
    {
      "inputs": [],
      "name": "getNumberOfVotedGroups",
      "outputs": [
        {
          "internalType": "uint256",
          "name": "",
          "type": "uint256"
        }
      ],
      "stateMutability": "view",
      "type": "function"
    },
    {
      "inputs": [
        {
          "internalType": "address",
          "name": "group",
          "type": "address"
        }
      ],
      "name": "getStCeloInGroup",
      "outputs": [
        {
          "internalType": "uint256",
          "name": "total",
          "type": "uint256"
        },
        {
          "internalType": "uint256",
          "name": "overflow",
          "type": "uint256"
        },
        {
          "internalType": "uint256",
          "name": "unhealthy",
          "type": "uint256"
        }
      ],
      "stateMutability": "view",
      "type": "function"
    },
    {
      "inputs": [],
      "name": "getVersionNumber",
      "outputs": [
        {
          "internalType": "uint256",
          "name": "",
          "type": "uint256"
        },
        {
          "internalType": "uint256",
          "name": "",
          "type": "uint256"
        },
        {
          "internalType": "uint256",
          "name": "",
          "type": "uint256"
        },
        {
          "internalType": "uint256",
          "name": "",
          "type": "uint256"
        }
      ],
      "stateMutability": "pure",
      "type": "function"
    },
    {
      "inputs": [
        {
          "internalType": "uint256",
          "name": "index",
          "type": "uint256"
        }
      ],
      "name": "getVotedGroup",
      "outputs": [
        {
          "internalType": "address",
          "name": "",
          "type": "address"
        }
      ],
      "stateMutability": "view",
      "type": "function"
    },
    {
      "inputs": [],
      "name": "groupHealth",
      "outputs": [
        {
          "internalType": "contract IGroupHealth",
          "name": "",
          "type": "address"
        }
      ],
      "stateMutability": "view",
      "type": "function"
    },
    {
      "inputs": [
        {
          "internalType": "address",
          "name": "_owner",
          "type": "address"
        },
        {
          "internalType": "address",
          "name": "_manager",
          "type": "address"
        }
      ],
      "name": "initialize",
      "outputs": [],
      "stateMutability": "nonpayable",
      "type": "function"
    },
    {
      "inputs": [
        {
          "internalType": "address",
          "name": "group",
          "type": "address"
        }
      ],
      "name": "isBlockedGroup",
      "outputs": [
        {
          "internalType": "bool",
          "name": "",
          "type": "bool"
        }
      ],
      "stateMutability": "view",
      "type": "function"
    },
    {
      "inputs": [
        {
          "internalType": "address",
          "name": "group",
          "type": "address"
        }
      ],
      "name": "isVotedGroup",
      "outputs": [
        {
          "internalType": "bool",
          "name": "",
          "type": "bool"
        }
      ],
      "stateMutability": "view",
      "type": "function"
    },
    {
      "inputs": [],
      "name": "manager",
      "outputs": [
        {
          "internalType": "address",
          "name": "",
          "type": "address"
        }
      ],
      "stateMutability": "view",
      "type": "function"
    },
    {
      "inputs": [],
      "name": "owner",
      "outputs": [
        {
          "internalType": "address",
          "name": "",
          "type": "address"
        }
      ],
      "stateMutability": "view",
      "type": "function"
    },
    {
      "inputs": [
        {
          "internalType": "address",
          "name": "group",
          "type": "address"
        }
      ],
      "name": "rebalanceOverflowedGroup",
      "outputs": [],
      "stateMutability": "nonpayable",
      "type": "function"
    },
    {
      "inputs": [
        {
          "internalType": "address",
          "name": "group",
          "type": "address"
        }
      ],
      "name": "rebalanceWhenHealthChanged",
      "outputs": [],
      "stateMutability": "nonpayable",
      "type": "function"
    },
    {
      "inputs": [],
      "name": "renounceOwnership",
      "outputs": [],
      "stateMutability": "nonpayable",
      "type": "function"
    },
    {
      "inputs": [
        {
          "internalType": "address",
          "name": "_account",
          "type": "address"
        },
        {
          "internalType": "address",
          "name": "_groupHealth",
          "type": "address"
        },
        {
          "internalType": "address",
          "name": "_defaultStrategy",
          "type": "address"
        }
      ],
      "name": "setDependencies",
      "outputs": [],
      "stateMutability": "nonpayable",
      "type": "function"
    },
    {
      "inputs": [
        {
          "internalType": "address",
          "name": "_manager",
          "type": "address"
        }
      ],
      "name": "setManager",
      "outputs": [],
      "stateMutability": "nonpayable",
      "type": "function"
    },
    {
      "inputs": [
        {
          "internalType": "address",
          "name": "",
          "type": "address"
        }
      ],
      "name": "stCeloInGroup",
      "outputs": [
        {
          "internalType": "uint256",
          "name": "",
          "type": "uint256"
        }
      ],
      "stateMutability": "view",
      "type": "function"
    },
    {
      "inputs": [],
      "name": "totalStCeloLocked",
      "outputs": [
        {
          "internalType": "uint256",
          "name": "",
          "type": "uint256"
        }
      ],
      "stateMutability": "view",
      "type": "function"
    },
    {
      "inputs": [],
      "name": "totalStCeloOverflow",
      "outputs": [
        {
          "internalType": "uint256",
          "name": "",
          "type": "uint256"
        }
      ],
      "stateMutability": "view",
      "type": "function"
    },
    {
      "inputs": [],
      "name": "totalStCeloUnhealthy",
      "outputs": [
        {
          "internalType": "uint256",
          "name": "",
          "type": "uint256"
        }
      ],
      "stateMutability": "view",
      "type": "function"
    },
    {
      "inputs": [
        {
          "internalType": "address",
          "name": "newOwner",
          "type": "address"
        }
      ],
      "name": "transferOwnership",
      "outputs": [],
      "stateMutability": "nonpayable",
      "type": "function"
    },
    {
      "inputs": [
        {
          "internalType": "address",
          "name": "group",
          "type": "address"
        }
      ],
      "name": "unblockGroup",
      "outputs": [],
      "stateMutability": "nonpayable",
      "type": "function"
    },
    {
      "inputs": [
        {
          "internalType": "address",
          "name": "newImplementation",
          "type": "address"
        }
      ],
      "name": "upgradeTo",
      "outputs": [],
      "stateMutability": "nonpayable",
      "type": "function"
    },
    {
      "inputs": [
        {
          "internalType": "address",
          "name": "newImplementation",
          "type": "address"
        },
        {
          "internalType": "bytes",
          "name": "data",
          "type": "bytes"
        }
      ],
      "name": "upgradeToAndCall",
      "outputs": [],
      "stateMutability": "payable",
      "type": "function"
    }
  ],
  "transactionHash": "0x0f570b70d6e69caab32b89c13f0b95de716e9fd1f68ccbc570893de8cc60dfd2",
  "args": [],
  "numDeployments": 1,
  "solcInputHash": "27c7c680112f4cbd9a19d8d22fcc316c",
  "bytecode": "0x60a06040523073ffffffffffffffffffffffffffffffffffffffff1660809073ffffffffffffffffffffffffffffffffffffffff168152503480156200004457600080fd5b50600060019054906101000a900460ff166200006f5760008054906101000a900460ff161562000080565b6200007f6200013c60201b60201c565b5b620000c2576040517f08c379a0000000000000000000000000000000000000000000000000000000008152600401620000b99062000204565b60405180910390fd5b60008060019054906101000a900460ff16159050801562000113576001600060016101000a81548160ff02191690831515021790555060016000806101000a81548160ff0219169083151502179055505b8015620001355760008060016101000a81548160ff0219169083151502179055505b5062000226565b600062000154306200015a60201b6200293c1760201c565b15905090565b6000808273ffffffffffffffffffffffffffffffffffffffff163b119050919050565b600082825260208201905092915050565b7f496e697469616c697a61626c653a20636f6e747261637420697320616c72656160008201527f647920696e697469616c697a6564000000000000000000000000000000000000602082015250565b6000620001ec602e836200017d565b9150620001f9826200018e565b604082019050919050565b600060208201905081810360008301526200021f81620001dd565b9050919050565b60805161513e62000257600039600081816107ce0152818161085d01528181610a920152610b21015261513e6000f3fe6080604052600436106101cd5760003560e01c806385a92cb7116100f7578063cd15285811610095578063f8649e7511610064578063f8649e7514610694578063fac5bb9b146106bf578063fea4765b146106ea578063ff0b583014610715576101cd565b8063cd152858146105db578063d00a5bf814610619578063d0ebdbe714610642578063f2fde38b1461066b576101cd565b8063a3f16ef1116100d1578063a3f16ef11461051f578063b27053291461054a578063b52d326c14610575578063cc222f8d1461059e576101cd565b806385a92cb71461048c5780638ceaa3fe146104c95780638da5cb5b146104f4576101cd565b806354255be01161016f5780636253d7921161013e5780636253d792146103d257806366442085146103fb578063715018a614610438578063843c7a8b1461044f576101cd565b806354255be0146102fc57806356ab819f1461032a5780635c650b5f146103695780635dab2420146103a7576101cd565b8063481c6a75116101ab578063481c6a751461024f578063485cc9551461027a5780634a1376b6146102a35780634f1ef286146102e0576101cd565b806328419796146101d257806332ce1ab4146101fd5780633659cfe614610226575b600080fd5b3480156101de57600080fd5b506101e761073e565b6040516101f49190613ea8565b60405180910390f35b34801561020957600080fd5b50610224600480360381019061021f9190613f35565b610744565b005b34801561023257600080fd5b5061024d60048036038101906102489190613f35565b6107cc565b005b34801561025b57600080fd5b50610264610955565b6040516102719190613f71565b60405180910390f35b34801561028657600080fd5b506102a1600480360381019061029c9190613f8c565b61097b565b005b3480156102af57600080fd5b506102ca60048036038101906102c59190613ff8565b610a73565b6040516102d79190613f71565b60405180910390f35b6102fa60048036038101906102f5919061416b565b610a90565b005b34801561030857600080fd5b50610311610bcd565b60405161032194939291906141c7565b60405180910390f35b34801561033657600080fd5b50610351600480360381019061034c9190613f35565b610be7565b6040516103609392919061420c565b60405180910390f35b34801561037557600080fd5b50610390600480360381019061038b919061427b565b610cb9565b60405161039e92919061445e565b60405180910390f35b3480156103b357600080fd5b506103bc611432565b6040516103c991906144f4565b60405180910390f35b3480156103de57600080fd5b506103f960048036038101906103f49190613f35565b611458565b005b34801561040757600080fd5b50610422600480360381019061041d9190613f35565b61178d565b60405161042f919061451e565b60405180910390f35b34801561044457600080fd5b5061044d6117aa565b005b34801561045b57600080fd5b5061047660048036038101906104719190613ff8565b611832565b6040516104839190613f71565b60405180910390f35b34801561049857600080fd5b506104b360048036038101906104ae9190613f35565b61184f565b6040516104c09190613ea8565b60405180910390f35b3480156104d557600080fd5b506104de611867565b6040516104eb9190613ea8565b60405180910390f35b34801561050057600080fd5b5061050961186d565b6040516105169190613f71565b60405180910390f35b34801561052b57600080fd5b50610534611897565b604051610541919061455a565b60405180910390f35b34801561055657600080fd5b5061055f6118bd565b60405161056c9190613ea8565b60405180910390f35b34801561058157600080fd5b5061059c60048036038101906105979190614575565b6118c3565b005b3480156105aa57600080fd5b506105c560048036038101906105c09190613f35565b611adc565b6040516105d2919061451e565b60405180910390f35b3480156105e757600080fd5b5061060260048036038101906105fd91906145c8565b611af9565b60405161061092919061445e565b60405180910390f35b34801561062557600080fd5b50610640600480360381019061063b9190613f35565b612240565b005b34801561064e57600080fd5b5061066960048036038101906106649190613f35565b612580565b005b34801561067757600080fd5b50610692600480360381019061068d9190613f35565b612608565b005b3480156106a057600080fd5b506106a9612700565b6040516106b69190613ea8565b60405180910390f35b3480156106cb57600080fd5b506106d4612711565b6040516106e1919061463c565b60405180910390f35b3480156106f657600080fd5b506106ff612737565b60405161070c9190613ea8565b60405180910390f35b34801561072157600080fd5b5061073c60048036038101906107379190613f35565b612748565b005b606f5481565b61074c61295f565b73ffffffffffffffffffffffffffffffffffffffff1661076a61186d565b73ffffffffffffffffffffffffffffffffffffffff16146107c0576040517f08c379a00000000000000000000000000000000000000000000000000000000081526004016107b7906146b4565b60405180910390fd5b6107c981612967565b50565b7f000000000000000000000000000000000000000000000000000000000000000073ffffffffffffffffffffffffffffffffffffffff163073ffffffffffffffffffffffffffffffffffffffff16141561085b576040517f08c379a000000000000000000000000000000000000000000000000000000000815260040161085290614746565b60405180910390fd5b7f000000000000000000000000000000000000000000000000000000000000000073ffffffffffffffffffffffffffffffffffffffff1661089a612ad7565b73ffffffffffffffffffffffffffffffffffffffff16146108f0576040517f08c379a00000000000000000000000000000000000000000000000000000000081526004016108e7906147d8565b60405180910390fd5b6108f981612b2e565b61095281600067ffffffffffffffff81111561091857610917614040565b5b6040519080825280601f01601f19166020018201604052801561094a5781602001600182028036833780820191505090505b506000612bad565b50565b606560009054906101000a900473ffffffffffffffffffffffffffffffffffffffff1681565b600060019054906101000a900460ff166109a35760008054906101000a900460ff16156109ac565b6109ab612d7e565b5b6109eb576040517f08c379a00000000000000000000000000000000000000000000000000000000081526004016109e29061486a565b60405180910390fd5b60008060019054906101000a900460ff161590508015610a3b576001600060016101000a81548160ff02191690831515021790555060016000806101000a81548160ff0219169083151502179055505b610a4483612d8f565b610a4d82612e55565b8015610a6e5760008060016101000a81548160ff0219169083151502179055505b505050565b6000610a89826068612eb090919063ffffffff16565b9050919050565b7f000000000000000000000000000000000000000000000000000000000000000073ffffffffffffffffffffffffffffffffffffffff163073ffffffffffffffffffffffffffffffffffffffff161415610b1f576040517f08c379a0000000000000000000000000000000000000000000000000000000008152600401610b1690614746565b60405180910390fd5b7f000000000000000000000000000000000000000000000000000000000000000073ffffffffffffffffffffffffffffffffffffffff16610b5e612ad7565b73ffffffffffffffffffffffffffffffffffffffff1614610bb4576040517f08c379a0000000000000000000000000000000000000000000000000000000008152600401610bab906147d8565b60405180910390fd5b610bbd82612b2e565b610bc982826001612bad565b5050565b600080600080600180600080935093509350935090919293565b6000806000606a60008573ffffffffffffffffffffffffffffffffffffffff1673ffffffffffffffffffffffffffffffffffffffff168152602001908152602001600020549250606c60008573ffffffffffffffffffffffffffffffffffffffff1673ffffffffffffffffffffffffffffffffffffffff168152602001908152602001600020549150606e60008573ffffffffffffffffffffffffffffffffffffffff1673ffffffffffffffffffffffffffffffffffffffff1681526020019081526020016000205490509193909250565b6060803373ffffffffffffffffffffffffffffffffffffffff16606560009054906101000a900473ffffffffffffffffffffffffffffffffffffffff1673ffffffffffffffffffffffffffffffffffffffff1614610d4e57336040517f3b2495f1000000000000000000000000000000000000000000000000000000008152600401610d459190613f71565b60405180910390fd5b6000610d5a6066612eca565b1415610d92576040517f377b56d200000000000000000000000000000000000000000000000000000000815260040160405180910390fd5b606a60008773ffffffffffffffffffffffffffffffffffffffff1673ffffffffffffffffffffffffffffffffffffffff16815260200190815260200160002054841115610e1657856040517f0d438664000000000000000000000000000000000000000000000000000000008152600401610e0d9190613f71565b60405180910390fd5b610e2286856000612edf565b6000606c60008873ffffffffffffffffffffffffffffffffffffffff1673ffffffffffffffffffffffffffffffffffffffff1681526020019081526020016000205490506000606e60008973ffffffffffffffffffffffffffffffffffffffff1673ffffffffffffffffffffffffffffffffffffffff1681526020019081526020016000205490506000821180610eb95750600081115b1561131e576000610f7088606560009054906101000a900473ffffffffffffffffffffffffffffffffffffffff1673ffffffffffffffffffffffffffffffffffffffff16630567847f8587610f0e91906148b9565b6040518263ffffffff1660e01b8152600401610f2a9190613ea8565b602060405180830381865afa158015610f47573d6000803e3d6000fd5b505050506040513d601f19601f82011682018060405250810190610f6b9190614924565b612fce565b90508088610f7e9190614951565b9750600080607160009054906101000a900473ffffffffffffffffffffffffffffffffffffffff1673ffffffffffffffffffffffffffffffffffffffff166336691a41846040518263ffffffff1660e01b8152600401610fde9190613ea8565b6000604051808303816000875af1158015610ffd573d6000803e3d6000fd5b505050506040513d6000823e3d601f19601f820116820180604052508101906110269190614b25565b915091506110358b8487612fe7565b60008a111561130f576001825161104c91906148b9565b67ffffffffffffffff81111561106557611064614040565b5b6040519080825280602002602001820160405280156110935781602001602082028036833780820191505090505b509650600182516110a491906148b9565b67ffffffffffffffff8111156110bd576110bc614040565b5b6040519080825280602002602001820160405280156110eb5781602001602082028036833780820191505090505b50955060005b82518110156111af5782818151811061110d5761110c614b9d565b5b602002602001015188828151811061112857611127614b9d565b5b602002602001019073ffffffffffffffffffffffffffffffffffffffff16908173ffffffffffffffffffffffffffffffffffffffff168152505081818151811061117557611174614b9d565b5b60200260200101518782815181106111905761118f614b9d565b5b60200260200101818152505080806111a790614bcc565b9150506110f1565b5087158015611258575089607260009054906101000a900473ffffffffffffffffffffffffffffffffffffffff1673ffffffffffffffffffffffffffffffffffffffff1663acd201d08d6040518263ffffffff1660e01b81526004016112159190613f71565b602060405180830381865afa158015611232573d6000803e3d6000fd5b505050506040513d601f19601f820116820180604052508101906112569190614924565b105b1561129a578a6040517f339102f10000000000000000000000000000000000000000000000000000000081526004016112919190613f71565b60405180910390fd5b8a878351815181106112af576112ae614b9d565b5b602002602001019073ffffffffffffffffffffffffffffffffffffffff16908173ffffffffffffffffffffffffffffffffffffffff168152505089868351815181106112fe576112fd614b9d565b5b602002602001018181525050611316565b8196508095505b505050611427565b600167ffffffffffffffff81111561133957611338614040565b5b6040519080825280602002602001820160405280156113675781602001602082028036833780820191505090505b509350600167ffffffffffffffff81111561138557611384614040565b5b6040519080825280602002602001820160405280156113b35781602001602082028036833780820191505090505b50925087846000815181106113cb576113ca614b9d565b5b602002602001019073ffffffffffffffffffffffffffffffffffffffff16908173ffffffffffffffffffffffffffffffffffffffff1681525050868360008151811061141a57611419614b9d565b5b6020026020010181815250505b505094509492505050565b607260009054906101000a900473ffffffffffffffffffffffffffffffffffffffff1681565b607060009054906101000a900473ffffffffffffffffffffffffffffffffffffffff1673ffffffffffffffffffffffffffffffffffffffff1663ac8f4425826040518263ffffffff1660e01b81526004016114b39190613f71565b602060405180830381865afa1580156114d0573d6000803e3d6000fd5b505050506040513d601f19601f820116820180604052508101906114f49190614c2a565b1580611510575061150f8160686130d990919063ffffffff16565b5b1561155257806040517f10a7bc6b0000000000000000000000000000000000000000000000000000000081526004016115499190613f71565b60405180910390fd5b6000606c60008373ffffffffffffffffffffffffffffffffffffffff1673ffffffffffffffffffffffffffffffffffffffff16815260200190815260200160002054905060008114156115dc57816040517f08015b240000000000000000000000000000000000000000000000000000000081526004016115d39190613f71565b60405180910390fd5b6000606560009054906101000a900473ffffffffffffffffffffffffffffffffffffffff1673ffffffffffffffffffffffffffffffffffffffff16632c431058846040518263ffffffff1660e01b81526004016116399190613f71565b602060405180830381865afa158015611656573d6000803e3d6000fd5b505050506040513d601f19601f8201168201806040525081019061167a9190614924565b905060008114156116c257826040517feeec2b540000000000000000000000000000000000000000000000000000000081526004016116b99190613f71565b60405180910390fd5b6000606560009054906101000a900473ffffffffffffffffffffffffffffffffffffffff1673ffffffffffffffffffffffffffffffffffffffff1663c494ec1e836040518263ffffffff1660e01b815260040161171f9190613ea8565b602060405180830381865afa15801561173c573d6000803e3d6000fd5b505050506040513d601f19601f820116820180604052508101906117609190614924565b9050600061176e8285612fce565b905061177a8582613109565b611786858260006133fb565b5050505050565b60006117a38260666130d990919063ffffffff16565b9050919050565b6117b261295f565b73ffffffffffffffffffffffffffffffffffffffff166117d061186d565b73ffffffffffffffffffffffffffffffffffffffff1614611826576040517f08c379a000000000000000000000000000000000000000000000000000000000815260040161181d906146b4565b60405180910390fd5b6118306000612d8f565b565b6000611848826066612eb090919063ffffffff16565b9050919050565b606a6020528060005260406000206000915090505481565b606b5481565b6000603360009054906101000a900473ffffffffffffffffffffffffffffffffffffffff16905090565b607060009054906101000a900473ffffffffffffffffffffffffffffffffffffffff1681565b606d5481565b6118cb61295f565b73ffffffffffffffffffffffffffffffffffffffff166118e961186d565b73ffffffffffffffffffffffffffffffffffffffff161461193f576040517f08c379a0000000000000000000000000000000000000000000000000000000008152600401611936906146b4565b60405180910390fd5b600073ffffffffffffffffffffffffffffffffffffffff168373ffffffffffffffffffffffffffffffffffffffff1614806119a65750600073ffffffffffffffffffffffffffffffffffffffff168273ffffffffffffffffffffffffffffffffffffffff16145b806119dd5750600073ffffffffffffffffffffffffffffffffffffffff168173ffffffffffffffffffffffffffffffffffffffff16145b15611a14576040517f0855380c00000000000000000000000000000000000000000000000000000000815260040160405180910390fd5b82607260006101000a81548173ffffffffffffffffffffffffffffffffffffffff021916908373ffffffffffffffffffffffffffffffffffffffff16021790555081607060006101000a81548173ffffffffffffffffffffffffffffffffffffffff021916908373ffffffffffffffffffffffffffffffffffffffff16021790555080607160006101000a81548173ffffffffffffffffffffffffffffffffffffffff021916908373ffffffffffffffffffffffffffffffffffffffff160217905550505050565b6000611af28260686130d990919063ffffffff16565b9050919050565b6060803373ffffffffffffffffffffffffffffffffffffffff16606560009054906101000a900473ffffffffffffffffffffffffffffffffffffffff1673ffffffffffffffffffffffffffffffffffffffff1614611b8e57336040517f3b2495f1000000000000000000000000000000000000000000000000000000008152600401611b859190613f71565b60405180910390fd5b611ba28560666134ea90919063ffffffff16565b50611baf85846001612edf565b607060009054906101000a900473ffffffffffffffffffffffffffffffffffffffff1673ffffffffffffffffffffffffffffffffffffffff1663ac8f4425866040518263ffffffff1660e01b8152600401611c0a9190613f71565b602060405180830381865afa158015611c27573d6000803e3d6000fd5b505050506040513d601f19601f82011682018060405250810190611c4b9190614c2a565b8015611c685750611c668560686130d990919063ffffffff16565b155b1561217e576000606560009054906101000a900473ffffffffffffffffffffffffffffffffffffffff1673ffffffffffffffffffffffffffffffffffffffff16632c431058876040518263ffffffff1660e01b8152600401611cca9190613f71565b602060405180830381865afa158015611ce7573d6000803e3d6000fd5b505050506040513d601f19601f82011682018060405250810190611d0b9190614924565b90506000611d198287612fce565b90508086611d279190614951565b9550600086111561206e57600080607160009054906101000a900473ffffffffffffffffffffffffffffffffffffffff1673ffffffffffffffffffffffffffffffffffffffff1663e0cd8d27898b6040518363ffffffff1660e01b8152600401611d92929190614c57565b6000604051808303816000875af1158015611db1573d6000803e3d6000fd5b505050506040513d6000823e3d601f19601f82011682018060405250810190611dda9190614b25565b91509150611e8589606560009054906101000a900473ffffffffffffffffffffffffffffffffffffffff1673ffffffffffffffffffffffffffffffffffffffff1663c494ec1e8b6040518263ffffffff1660e01b8152600401611e3d9190613ea8565b602060405180830381865afa158015611e5a573d6000803e3d6000fd5b505050506040513d601f19601f82011682018060405250810190611e7e9190614924565b60016133fb565b60018251611e9391906148b9565b67ffffffffffffffff811115611eac57611eab614040565b5b604051908082528060200260200182016040528015611eda5781602001602082028036833780820191505090505b50955060018251611eeb91906148b9565b67ffffffffffffffff811115611f0457611f03614040565b5b604051908082528060200260200182016040528015611f325781602001602082028036833780820191505090505b50945060005b8251811015611ff657828181518110611f5457611f53614b9d565b5b6020026020010151878281518110611f6f57611f6e614b9d565b5b602002602001019073ffffffffffffffffffffffffffffffffffffffff16908173ffffffffffffffffffffffffffffffffffffffff1681525050818181518110611fbc57611fbb614b9d565b5b6020026020010151868281518110611fd757611fd6614b9d565b5b6020026020010181815250508080611fee90614bcc565b915050611f38565b50888683518151811061200c5761200b614b9d565b5b602002602001019073ffffffffffffffffffffffffffffffffffffffff16908173ffffffffffffffffffffffffffffffffffffffff1681525050828583518151811061205b5761205a614b9d565b5b6020026020010181815250505050612177565b600167ffffffffffffffff81111561208957612088614040565b5b6040519080825280602002602001820160405280156120b75781602001602082028036833780820191505090505b509350600167ffffffffffffffff8111156120d5576120d4614040565b5b6040519080825280602002602001820160405280156121035781602001602082028036833780820191505090505b509250868460008151811061211b5761211a614b9d565b5b602002602001019073ffffffffffffffffffffffffffffffffffffffff16908173ffffffffffffffffffffffffffffffffffffffff1681525050808360008151811061216a57612169614b9d565b5b6020026020010181815250505b5050612238565b607160009054906101000a900473ffffffffffffffffffffffffffffffffffffffff1673ffffffffffffffffffffffffffffffffffffffff1663e0cd8d2785876040518363ffffffff1660e01b81526004016121db929190614c57565b6000604051808303816000875af11580156121fa573d6000803e3d6000fd5b505050506040513d6000823e3d601f19601f820116820180604052508101906122239190614b25565b80925081935050506122378584600161351a565b5b935093915050565b6000607060009054906101000a900473ffffffffffffffffffffffffffffffffffffffff1673ffffffffffffffffffffffffffffffffffffffff1663ac8f4425836040518263ffffffff1660e01b815260040161229d9190613f71565b602060405180830381865afa1580156122ba573d6000803e3d6000fd5b505050506040513d601f19601f820116820180604052508101906122de9190614c2a565b90506000606e60008473ffffffffffffffffffffffffffffffffffffffff1673ffffffffffffffffffffffffffffffffffffffff16815260200190815260200160002054905081801561234257506123408360686130d990919063ffffffff16565b155b156123ae57600081141561238d57826040517f9bd3a6600000000000000000000000000000000000000000000000000000000081526004016123849190613f71565b60405180910390fd5b600081905061239c8482613109565b6123a88482600061351a565b5061257b565b6000606a60008573ffffffffffffffffffffffffffffffffffffffff1673ffffffffffffffffffffffffffffffffffffffff1681526020019081526020016000205490508181141561243757836040517f9bd3a66000000000000000000000000000000000000000000000000000000000815260040161242e9190613f71565b60405180910390fd5b6000607160009054906101000a900473ffffffffffffffffffffffffffffffffffffffff1673ffffffffffffffffffffffffffffffffffffffff1663c1fa411a6040518163ffffffff1660e01b8152600401602060405180830381865afa1580156124a6573d6000803e3d6000fd5b505050506040513d601f19601f820116820180604052508101906124ca9190614924565b1415612502576040517f7818a60e00000000000000000000000000000000000000000000000000000000815260040160405180910390fd5b6000606c60008673ffffffffffffffffffffffffffffffffffffffff1673ffffffffffffffffffffffffffffffffffffffff16815260200190815260200160002054905060008184846125559190614951565b61255f9190614951565b905061256b8682613609565b6125778682600161351a565b5050505b505050565b61258861295f565b73ffffffffffffffffffffffffffffffffffffffff166125a661186d565b73ffffffffffffffffffffffffffffffffffffffff16146125fc576040517f08c379a00000000000000000000000000000000000000000000000000000000081526004016125f3906146b4565b60405180910390fd5b612605816138fe565b50565b61261061295f565b73ffffffffffffffffffffffffffffffffffffffff1661262e61186d565b73ffffffffffffffffffffffffffffffffffffffff1614612684576040517f08c379a000000000000000000000000000000000000000000000000000000000815260040161267b906146b4565b60405180910390fd5b600073ffffffffffffffffffffffffffffffffffffffff168173ffffffffffffffffffffffffffffffffffffffff1614156126f4576040517f08c379a00000000000000000000000000000000000000000000000000000000081526004016126eb90614cf2565b60405180910390fd5b6126fd81612d8f565b50565b600061270c6066612eca565b905090565b607160009054906101000a900473ffffffffffffffffffffffffffffffffffffffff1681565b60006127436068612eca565b905090565b61275061295f565b73ffffffffffffffffffffffffffffffffffffffff1661276e61186d565b73ffffffffffffffffffffffffffffffffffffffff16146127c4576040517f08c379a00000000000000000000000000000000000000000000000000000000081526004016127bb906146b4565b60405180910390fd5b607060009054906101000a900473ffffffffffffffffffffffffffffffffffffffff1673ffffffffffffffffffffffffffffffffffffffff1663ac8f4425826040518263ffffffff1660e01b815260040161281f9190613f71565b602060405180830381865afa15801561283c573d6000803e3d6000fd5b505050506040513d601f19601f820116820180604052508101906128609190614c2a565b6128a157806040517f10a7bc6b0000000000000000000000000000000000000000000000000000000081526004016128989190613f71565b60405180910390fd5b6128b58160686139ec90919063ffffffff16565b6128f657806040517fe9b829ba0000000000000000000000000000000000000000000000000000000081526004016128ed9190613f71565b60405180910390fd5b8073ffffffffffffffffffffffffffffffffffffffff167f7fab4241c447cd1e7af48ab4c6bbeab72a3836e47ed68c58b78b399531a5cd6c60405160405180910390a250565b6000808273ffffffffffffffffffffffffffffffffffffffff163b119050919050565b600033905090565b6000607160009054906101000a900473ffffffffffffffffffffffffffffffffffffffff1673ffffffffffffffffffffffffffffffffffffffff1663c1fa411a6040518163ffffffff1660e01b8152600401602060405180830381865afa1580156129d6573d6000803e3d6000fd5b505050506040513d601f19601f820116820180604052508101906129fa9190614924565b1415612a32576040517f7818a60e00000000000000000000000000000000000000000000000000000000815260040160405180910390fd5b612a468160686130d990919063ffffffff16565b15612a8857806040517fe09c4db2000000000000000000000000000000000000000000000000000000008152600401612a7f9190613f71565b60405180910390fd5b612a9c8160686134ea90919063ffffffff16565b507f65aef4c8071073180f00fde0e2179949872e90b7003d3b2a22d7bc182d2cc88681604051612acc9190613f71565b60405180910390a150565b6000612b057f360894a13ba1a3210667c828492db98dca3e2076cc3735a920a3ca505d382bbc60001b613a1c565b60000160009054906101000a900473ffffffffffffffffffffffffffffffffffffffff16905090565b612b3661295f565b73ffffffffffffffffffffffffffffffffffffffff16612b5461186d565b73ffffffffffffffffffffffffffffffffffffffff1614612baa576040517f08c379a0000000000000000000000000000000000000000000000000000000008152600401612ba1906146b4565b60405180910390fd5b50565b6000612bb7612ad7565b9050612bc284613a26565b600083511180612bcf5750815b15612be057612bde8484613adf565b505b6000612c0e7f4910fdfa16fed3260ed0e7147f7cc6da11a60208b5b9406d12a635614ffd914360001b613b0c565b90508060000160009054906101000a900460ff16612d775760018160000160006101000a81548160ff021916908315150217905550612cda8583604051602401612c589190613f71565b6040516020818303038152906040527f3659cfe6000000000000000000000000000000000000000000000000000000007bffffffffffffffffffffffffffffffffffffffffffffffffffffffff19166020820180517bffffffffffffffffffffffffffffffffffffffffffffffffffffffff8381831617835250505050613adf565b5060008160000160006101000a81548160ff021916908315150217905550612d00612ad7565b73ffffffffffffffffffffffffffffffffffffffff168273ffffffffffffffffffffffffffffffffffffffff1614612d6d576040517f08c379a0000000000000000000000000000000000000000000000000000000008152600401612d6490614d84565b60405180910390fd5b612d7685613b16565b5b5050505050565b6000612d893061293c565b15905090565b6000603360009054906101000a900473ffffffffffffffffffffffffffffffffffffffff16905081603360006101000a81548173ffffffffffffffffffffffffffffffffffffffff021916908373ffffffffffffffffffffffffffffffffffffffff1602179055508173ffffffffffffffffffffffffffffffffffffffff168173ffffffffffffffffffffffffffffffffffffffff167f8be0079c531659141344cd1fd0a4f28419497f9722a3daafe3b4186f6b6457e060405160405180910390a35050565b600060019054906101000a900460ff16612ea4576040517f08c379a0000000000000000000000000000000000000000000000000000000008152600401612e9b90614e16565b60405180910390fd5b612ead816138fe565b50565b6000612ebf8360000183613b65565b60001c905092915050565b6000612ed882600001613b90565b9050919050565b8015612f595781606a60008573ffffffffffffffffffffffffffffffffffffffff1673ffffffffffffffffffffffffffffffffffffffff1681526020019081526020016000206000828254612f3491906148b9565b9250508190555081606b6000828254612f4d91906148b9565b92505081905550612fc9565b81606a60008573ffffffffffffffffffffffffffffffffffffffff1673ffffffffffffffffffffffffffffffffffffffff1681526020019081526020016000206000828254612fa89190614951565b9250508190555081606b6000828254612fc19190614951565b925050819055505b505050565b6000818310612fdd5781612fdf565b825b905092915050565b6000606560009054906101000a900473ffffffffffffffffffffffffffffffffffffffff1673ffffffffffffffffffffffffffffffffffffffff1663c494ec1e846040518263ffffffff1660e01b81526004016130449190613ea8565b602060405180830381865afa158015613061573d6000803e3d6000fd5b505050506040513d601f19601f820116820180604052508101906130859190614924565b905060006130938383612fce565b905060008111156130ab576130aa858260006133fb565b5b600081836130b99190614951565b905060008111156130d1576130d08682600061351a565b5b505050505050565b6000613101836000018373ffffffffffffffffffffffffffffffffffffffff1660001b613ba1565b905092915050565b6000606560009054906101000a900473ffffffffffffffffffffffffffffffffffffffff1673ffffffffffffffffffffffffffffffffffffffff16630567847f836040518263ffffffff1660e01b81526004016131669190613ea8565b602060405180830381865afa158015613183573d6000803e3d6000fd5b505050506040513d601f19601f820116820180604052508101906131a79190614924565b9050600080607160009054906101000a900473ffffffffffffffffffffffffffffffffffffffff1673ffffffffffffffffffffffffffffffffffffffff166336691a41846040518263ffffffff1660e01b81526004016132079190613ea8565b6000604051808303816000875af1158015613226573d6000803e3d6000fd5b505050506040513d6000823e3d601f19601f8201168201806040525081019061324f9190614b25565b915091506000600167ffffffffffffffff8111156132705761326f614040565b5b60405190808252806020026020018201604052801561329e5781602001602082028036833780820191505090505b5090506000600167ffffffffffffffff8111156132be576132bd614040565b5b6040519080825280602002602001820160405280156132ec5781602001602082028036833780820191505090505b509050868260008151811061330457613303614b9d565b5b602002602001019073ffffffffffffffffffffffffffffffffffffffff16908173ffffffffffffffffffffffffffffffffffffffff1681525050848160008151811061335357613352614b9d565b5b602002602001018181525050606560009054906101000a900473ffffffffffffffffffffffffffffffffffffffff1673ffffffffffffffffffffffffffffffffffffffff16630c4d4e40858486856040518563ffffffff1660e01b81526004016133c09493929190614e36565b600060405180830381600087803b1580156133da57600080fd5b505af11580156133ee573d6000803e3d6000fd5b5050505050505050505050565b80156134755781606c60008573ffffffffffffffffffffffffffffffffffffffff1673ffffffffffffffffffffffffffffffffffffffff168152602001908152602001600020600082825461345091906148b9565b9250508190555081606d600082825461346991906148b9565b925050819055506134e5565b81606c60008573ffffffffffffffffffffffffffffffffffffffff1673ffffffffffffffffffffffffffffffffffffffff16815260200190815260200160002060008282546134c49190614951565b9250508190555081606d60008282546134dd9190614951565b925050819055505b505050565b6000613512836000018373ffffffffffffffffffffffffffffffffffffffff1660001b613bc4565b905092915050565b80156135945781606e60008573ffffffffffffffffffffffffffffffffffffffff1673ffffffffffffffffffffffffffffffffffffffff168152602001908152602001600020600082825461356f91906148b9565b9250508190555081606f600082825461358891906148b9565b92505081905550613604565b81606e60008573ffffffffffffffffffffffffffffffffffffffff1673ffffffffffffffffffffffffffffffffffffffff16815260200190815260200160002060008282546135e39190614951565b9250508190555081606f60008282546135fc9190614951565b925050819055505b505050565b6000606560009054906101000a900473ffffffffffffffffffffffffffffffffffffffff1673ffffffffffffffffffffffffffffffffffffffff16630567847f836040518263ffffffff1660e01b81526004016136669190613ea8565b602060405180830381865afa158015613683573d6000803e3d6000fd5b505050506040513d601f19601f820116820180604052508101906136a79190614924565b90506000600167ffffffffffffffff8111156136c6576136c5614040565b5b6040519080825280602002602001820160405280156136f45781602001602082028036833780820191505090505b5090506000600167ffffffffffffffff81111561371457613713614040565b5b6040519080825280602002602001820160405280156137425781602001602082028036833780820191505090505b509050848260008151811061375a57613759614b9d565b5b602002602001019073ffffffffffffffffffffffffffffffffffffffff16908173ffffffffffffffffffffffffffffffffffffffff168152505082816000815181106137a9576137a8614b9d565b5b602002602001018181525050600080607160009054906101000a900473ffffffffffffffffffffffffffffffffffffffff1673ffffffffffffffffffffffffffffffffffffffff1663e0cd8d278660006040518363ffffffff1660e01b8152600401613816929190614c57565b6000604051808303816000875af1158015613835573d6000803e3d6000fd5b505050506040513d6000823e3d601f19601f8201168201806040525081019061385e9190614b25565b91509150606560009054906101000a900473ffffffffffffffffffffffffffffffffffffffff1673ffffffffffffffffffffffffffffffffffffffff16630c4d4e40858486856040518563ffffffff1660e01b81526004016138c39493929190614e36565b600060405180830381600087803b1580156138dd57600080fd5b505af11580156138f1573d6000803e3d6000fd5b5050505050505050505050565b600073ffffffffffffffffffffffffffffffffffffffff168173ffffffffffffffffffffffffffffffffffffffff161415613965576040517fe99d5ac500000000000000000000000000000000000000000000000000000000815260040160405180910390fd5b80606560006101000a81548173ffffffffffffffffffffffffffffffffffffffff021916908373ffffffffffffffffffffffffffffffffffffffff1602179055508073ffffffffffffffffffffffffffffffffffffffff167f60a0f5b9f9e81e98216071b85826681c796256fe3d1354ecb675580fba64fa6960405160405180910390a250565b6000613a14836000018373ffffffffffffffffffffffffffffffffffffffff1660001b613c34565b905092915050565b6000819050919050565b613a2f81613d48565b613a6e576040517f08c379a0000000000000000000000000000000000000000000000000000000008152600401613a6590614f09565b60405180910390fd5b80613a9b7f360894a13ba1a3210667c828492db98dca3e2076cc3735a920a3ca505d382bbc60001b613a1c565b60000160006101000a81548173ffffffffffffffffffffffffffffffffffffffff021916908373ffffffffffffffffffffffffffffffffffffffff16021790555050565b6060613b0483836040518060600160405280602781526020016150e260279139613d5b565b905092915050565b6000819050919050565b613b1f81613a26565b8073ffffffffffffffffffffffffffffffffffffffff167fbc7cd75a20ee27fd9adebab32041f755214dbc6bffa90cc0225b39da2e5c2d3b60405160405180910390a250565b6000826000018281548110613b7d57613b7c614b9d565b5b9060005260206000200154905092915050565b600081600001805490509050919050565b600080836001016000848152602001908152602001600020541415905092915050565b6000613bd08383613ba1565b613c29578260000182908060018154018082558091505060019003906000526020600020016000909190919091505582600001805490508360010160008481526020019081526020016000208190555060019050613c2e565b600090505b92915050565b60008083600101600084815260200190815260200160002054905060008114613d3c576000600182613c669190614951565b9050600060018660000180549050613c7e9190614951565b9050818114613ced576000866000018281548110613c9f57613c9e614b9d565b5b9060005260206000200154905080876000018481548110613cc357613cc2614b9d565b5b90600052602060002001819055508387600101600083815260200190815260200160002081905550505b85600001805480613d0157613d00614f29565b5b600190038181906000526020600020016000905590558560010160008681526020019081526020016000206000905560019350505050613d42565b60009150505b92915050565b600080823b905060008111915050919050565b6060613d6684613d48565b613da5576040517f08c379a0000000000000000000000000000000000000000000000000000000008152600401613d9c90614fca565b60405180910390fd5b6000808573ffffffffffffffffffffffffffffffffffffffff1685604051613dcd9190615064565b600060405180830381855af49150503d8060008114613e08576040519150601f19603f3d011682016040523d82523d6000602084013e613e0d565b606091505b5091509150613e1d828286613e28565b925050509392505050565b60608315613e3857829050613e88565b600083511115613e4b5782518084602001fd5b816040517f08c379a0000000000000000000000000000000000000000000000000000000008152600401613e7f91906150bf565b60405180910390fd5b9392505050565b6000819050919050565b613ea281613e8f565b82525050565b6000602082019050613ebd6000830184613e99565b92915050565b6000604051905090565b600080fd5b600080fd5b600073ffffffffffffffffffffffffffffffffffffffff82169050919050565b6000613f0282613ed7565b9050919050565b613f1281613ef7565b8114613f1d57600080fd5b50565b600081359050613f2f81613f09565b92915050565b600060208284031215613f4b57613f4a613ecd565b5b6000613f5984828501613f20565b91505092915050565b613f6b81613ef7565b82525050565b6000602082019050613f866000830184613f62565b92915050565b60008060408385031215613fa357613fa2613ecd565b5b6000613fb185828601613f20565b9250506020613fc285828601613f20565b9150509250929050565b613fd581613e8f565b8114613fe057600080fd5b50565b600081359050613ff281613fcc565b92915050565b60006020828403121561400e5761400d613ecd565b5b600061401c84828501613fe3565b91505092915050565b600080fd5b600080fd5b6000601f19601f8301169050919050565b7f4e487b7100000000000000000000000000000000000000000000000000000000600052604160045260246000fd5b6140788261402f565b810181811067ffffffffffffffff8211171561409757614096614040565b5b80604052505050565b60006140aa613ec3565b90506140b6828261406f565b919050565b600067ffffffffffffffff8211156140d6576140d5614040565b5b6140df8261402f565b9050602081019050919050565b82818337600083830152505050565b600061410e614109846140bb565b6140a0565b90508281526020810184848401111561412a5761412961402a565b5b6141358482856140ec565b509392505050565b600082601f83011261415257614151614025565b5b81356141628482602086016140fb565b91505092915050565b6000806040838503121561418257614181613ecd565b5b600061419085828601613f20565b925050602083013567ffffffffffffffff8111156141b1576141b0613ed2565b5b6141bd8582860161413d565b9150509250929050565b60006080820190506141dc6000830187613e99565b6141e96020830186613e99565b6141f66040830185613e99565b6142036060830184613e99565b95945050505050565b60006060820190506142216000830186613e99565b61422e6020830185613e99565b61423b6040830184613e99565b949350505050565b60008115159050919050565b61425881614243565b811461426357600080fd5b50565b6000813590506142758161424f565b92915050565b6000806000806080858703121561429557614294613ecd565b5b60006142a387828801613f20565b94505060206142b487828801613fe3565b93505060406142c587828801613fe3565b92505060606142d687828801614266565b91505092959194509250565b600081519050919050565b600082825260208201905092915050565b6000819050602082019050919050565b61431781613ef7565b82525050565b6000614329838361430e565b60208301905092915050565b6000602082019050919050565b600061434d826142e2565b61435781856142ed565b9350614362836142fe565b8060005b8381101561439357815161437a888261431d565b975061438583614335565b925050600181019050614366565b5085935050505092915050565b600081519050919050565b600082825260208201905092915050565b6000819050602082019050919050565b6143d581613e8f565b82525050565b60006143e783836143cc565b60208301905092915050565b6000602082019050919050565b600061440b826143a0565b61441581856143ab565b9350614420836143bc565b8060005b8381101561445157815161443888826143db565b9750614443836143f3565b925050600181019050614424565b5085935050505092915050565b600060408201905081810360008301526144788185614342565b9050818103602083015261448c8184614400565b90509392505050565b6000819050919050565b60006144ba6144b56144b084613ed7565b614495565b613ed7565b9050919050565b60006144cc8261449f565b9050919050565b60006144de826144c1565b9050919050565b6144ee816144d3565b82525050565b600060208201905061450960008301846144e5565b92915050565b61451881614243565b82525050565b6000602082019050614533600083018461450f565b92915050565b6000614544826144c1565b9050919050565b61455481614539565b82525050565b600060208201905061456f600083018461454b565b92915050565b60008060006060848603121561458e5761458d613ecd565b5b600061459c86828701613f20565b93505060206145ad86828701613f20565b92505060406145be86828701613f20565b9150509250925092565b6000806000606084860312156145e1576145e0613ecd565b5b60006145ef86828701613f20565b935050602061460086828701613fe3565b925050604061461186828701613fe3565b9150509250925092565b6000614626826144c1565b9050919050565b6146368161461b565b82525050565b6000602082019050614651600083018461462d565b92915050565b600082825260208201905092915050565b7f4f776e61626c653a2063616c6c6572206973206e6f7420746865206f776e6572600082015250565b600061469e602083614657565b91506146a982614668565b602082019050919050565b600060208201905081810360008301526146cd81614691565b9050919050565b7f46756e6374696f6e206d7573742062652063616c6c6564207468726f7567682060008201527f64656c656761746563616c6c0000000000000000000000000000000000000000602082015250565b6000614730602c83614657565b915061473b826146d4565b604082019050919050565b6000602082019050818103600083015261475f81614723565b9050919050565b7f46756e6374696f6e206d7573742062652063616c6c6564207468726f7567682060008201527f6163746976652070726f78790000000000000000000000000000000000000000602082015250565b60006147c2602c83614657565b91506147cd82614766565b604082019050919050565b600060208201905081810360008301526147f1816147b5565b9050919050565b7f496e697469616c697a61626c653a20636f6e747261637420697320616c72656160008201527f647920696e697469616c697a6564000000000000000000000000000000000000602082015250565b6000614854602e83614657565b915061485f826147f8565b604082019050919050565b6000602082019050818103600083015261488381614847565b9050919050565b7f4e487b7100000000000000000000000000000000000000000000000000000000600052601160045260246000fd5b60006148c482613e8f565b91506148cf83613e8f565b9250827fffffffffffffffffffffffffffffffffffffffffffffffffffffffffffffffff038211156149045761490361488a565b5b828201905092915050565b60008151905061491e81613fcc565b92915050565b60006020828403121561493a57614939613ecd565b5b60006149488482850161490f565b91505092915050565b600061495c82613e8f565b915061496783613e8f565b92508282101561497a5761497961488a565b5b828203905092915050565b600067ffffffffffffffff8211156149a05761499f614040565b5b602082029050602081019050919050565b600080fd5b6000815190506149c581613f09565b92915050565b60006149de6149d984614985565b6140a0565b90508083825260208201905060208402830185811115614a0157614a006149b1565b5b835b81811015614a2a5780614a1688826149b6565b845260208401935050602081019050614a03565b5050509392505050565b600082601f830112614a4957614a48614025565b5b8151614a598482602086016149cb565b91505092915050565b600067ffffffffffffffff821115614a7d57614a7c614040565b5b602082029050602081019050919050565b6000614aa1614a9c84614a62565b6140a0565b90508083825260208201905060208402830185811115614ac457614ac36149b1565b5b835b81811015614aed5780614ad9888261490f565b845260208401935050602081019050614ac6565b5050509392505050565b600082601f830112614b0c57614b0b614025565b5b8151614b1c848260208601614a8e565b91505092915050565b60008060408385031215614b3c57614b3b613ecd565b5b600083015167ffffffffffffffff811115614b5a57614b59613ed2565b5b614b6685828601614a34565b925050602083015167ffffffffffffffff811115614b8757614b86613ed2565b5b614b9385828601614af7565b9150509250929050565b7f4e487b7100000000000000000000000000000000000000000000000000000000600052603260045260246000fd5b6000614bd782613e8f565b91507fffffffffffffffffffffffffffffffffffffffffffffffffffffffffffffffff821415614c0a57614c0961488a565b5b600182019050919050565b600081519050614c248161424f565b92915050565b600060208284031215614c4057614c3f613ecd565b5b6000614c4e84828501614c15565b91505092915050565b6000604082019050614c6c6000830185613e99565b614c796020830184613f62565b9392505050565b7f4f776e61626c653a206e6577206f776e657220697320746865207a65726f206160008201527f6464726573730000000000000000000000000000000000000000000000000000602082015250565b6000614cdc602683614657565b9150614ce782614c80565b604082019050919050565b60006020820190508181036000830152614d0b81614ccf565b9050919050565b7f45524331393637557067726164653a207570677261646520627265616b73206660008201527f7572746865722075706772616465730000000000000000000000000000000000602082015250565b6000614d6e602f83614657565b9150614d7982614d12565b604082019050919050565b60006020820190508181036000830152614d9d81614d61565b9050919050565b7f496e697469616c697a61626c653a20636f6e7472616374206973206e6f74206960008201527f6e697469616c697a696e67000000000000000000000000000000000000000000602082015250565b6000614e00602b83614657565b9150614e0b82614da4565b604082019050919050565b60006020820190508181036000830152614e2f81614df3565b9050919050565b60006080820190508181036000830152614e508187614342565b90508181036020830152614e648186614342565b90508181036040830152614e788185614400565b90508181036060830152614e8c8184614400565b905095945050505050565b7f455243313936373a206e657720696d706c656d656e746174696f6e206973206e60008201527f6f74206120636f6e747261637400000000000000000000000000000000000000602082015250565b6000614ef3602d83614657565b9150614efe82614e97565b604082019050919050565b60006020820190508181036000830152614f2281614ee6565b9050919050565b7f4e487b7100000000000000000000000000000000000000000000000000000000600052603160045260246000fd5b7f416464726573733a2064656c65676174652063616c6c20746f206e6f6e2d636f60008201527f6e74726163740000000000000000000000000000000000000000000000000000602082015250565b6000614fb4602683614657565b9150614fbf82614f58565b604082019050919050565b60006020820190508181036000830152614fe381614fa7565b9050919050565b600081519050919050565b600081905092915050565b60005b8381101561501e578082015181840152602081019050615003565b8381111561502d576000848401525b50505050565b600061503e82614fea565b6150488185614ff5565b9350615058818560208601615000565b80840191505092915050565b60006150708284615033565b915081905092915050565b600081519050919050565b60006150918261507b565b61509b8185614657565b93506150ab818560208601615000565b6150b48161402f565b840191505092915050565b600060208201905081810360008301526150d98184615086565b90509291505056fe416464726573733a206c6f772d6c6576656c2064656c65676174652063616c6c206661696c6564a26469706673582212205b6088eae052cddc0dd9f9999adb310ef777ae39b90551147470d12787d3a69464736f6c634300080b0033",
  "devdoc": {
    "errors": {
      "CallerNotManager(address)": [
        {
          "params": {
            "caller": "`msg.sender` that called the function."
          }
        }
      ],
      "CantWithdrawAccordingToStrategy(address)": [
        {
          "params": {
            "group": "The group's address."
          }
        }
      ],
      "FailedToAddGroup(address)": [
        {
          "params": {
            "group": "The group's address."
          }
        }
      ],
      "FailedToBlockGroup(address)": [
        {
          "params": {
            "group": "The group's address."
          }
        }
      ],
      "FailedToUnblockGroup(address)": [
        {
          "params": {
            "group": "The group's address."
          }
        }
      ],
      "GroupAlreadyBlocked(address)": [
        {
          "params": {
            "group": "The group's address."
          }
        }
      ],
      "GroupBalanced(address)": [
        {
          "params": {
            "group": "The group address."
          }
        }
      ],
      "GroupNotBalanced(address)": [
        {
          "params": {
            "group": "The group's address."
          }
        }
      ],
      "GroupNotEligible(address)": [
        {
          "params": {
            "group": "The group's address."
          }
        }
      ],
      "GroupNotOverflowing(address)": [
        {
          "params": {
            "group": "The group address."
          }
        }
      ],
      "GroupStillOverflowing(address)": [
        {
          "params": {
            "group": "The group address."
          }
        }
      ]
    },
    "events": {
      "GroupBlocked(address)": {
        "params": {
          "group": "The group's address."
        }
      },
      "GroupUnblocked(address)": {
        "params": {
          "group": "The group's address."
        }
      }
    },
    "kind": "dev",
    "methods": {
      "blockGroup(address)": {
        "params": {
          "group": "The group address."
        }
      },
      "generateDepositVoteDistribution(address,uint256,uint256)": {
        "params": {
          "celoAmount": "The amount of CELO.",
          "group": "The validator group that we want to deposit to or transfer from.",
          "stCeloAmount": "The amount of stCELO."
        },
        "returns": {
          "finalGroups": "The groups to withdraw from.",
          "finalVotes": "The amount to withdraw from each group."
        }
      },
      "generateWithdrawalVoteDistribution(address,uint256,uint256,bool)": {
        "params": {
          "celoWithdrawalAmount": "The amount of CELO to withdraw.",
          "group": "The validator group that we want to withdraw from.",
          "stCeloWithdrawalAmount": "The amount of stCELO to withdraw."
        },
        "returns": {
          "groups": "The groups to withdraw from.",
          "votes": "The amount to withdraw from each group."
        }
      },
      "getBlockedGroup(uint256)": {
        "returns": {
          "_0": "The blocked group."
        }
      },
      "getNumberOfBlockedGroups()": {
        "returns": {
          "_0": "The length of blocked groups."
        }
      },
      "getNumberOfVotedGroups()": {
        "returns": {
          "_0": "The length of voted groups."
        }
      },
      "getStCeloInGroup(address)": {
        "returns": {
          "overflow": "The stCELO amount that is overflowed to default strategy.",
          "total": "The total stCELO amount.",
          "unhealthy": "The stCELO amount that is moved to default strategy because group is/was unhealthy."
        }
      },
      "getVersionNumber()": {
        "returns": {
          "_0": "Storage version of the contract.",
          "_1": "Major version of the contract.",
          "_2": "Minor version of the contract.",
          "_3": "Patch version of the contract."
        }
      },
      "getVotedGroup(uint256)": {
        "returns": {
          "_0": "The specific group."
        }
      },
      "initialize(address,address)": {
        "params": {
          "_manager": "The address of the Manager contract.",
          "_owner": "The address of the contract owner."
        }
      },
      "isBlockedGroup(address)": {
        "params": {
          "group": "The validator group."
        },
        "returns": {
          "_0": "Whether or not group is blocked."
        }
      },
      "isVotedGroup(address)": {
        "params": {
          "group": "The validator group."
        },
        "returns": {
          "_0": "Whether or not is group is voted."
        }
      },
      "owner()": {
        "details": "Returns the address of the current owner."
      },
      "rebalanceOverflowedGroup(address)": {
        "params": {
          "group": "The group address."
        }
      },
      "rebalanceWhenHealthChanged(address)": {
        "params": {
          "group": "The group address."
        }
      },
      "renounceOwnership()": {
        "details": "Leaves the contract without owner. It will not be possible to call `onlyOwner` functions anymore. Can only be called by the current owner. NOTE: Renouncing ownership will leave the contract without an owner, thereby removing any functionality that is only available to the owner."
      },
      "setDependencies(address,address,address)": {
        "params": {
          "_account": "The address of the Account contract.",
          "_defaultStrategy": "The address of the DefaultStrategy contract.",
          "_groupHealth": "The address of the GroupHealth contract."
        }
      },
      "setManager(address)": {
        "params": {
          "_manager": "The new manager address."
        }
      },
      "transferOwnership(address)": {
        "details": "Transfers ownership of the contract to a new account (`newOwner`). Can only be called by the current owner."
      },
      "unblockGroup(address)": {
        "params": {
          "group": "The address of the group to add to the set of specific group strategies."
        }
      },
      "upgradeTo(address)": {
        "details": "Upgrade the implementation of the proxy to `newImplementation`. Calls {_authorizeUpgrade}. Emits an {Upgraded} event."
      },
      "upgradeToAndCall(address,bytes)": {
        "details": "Upgrade the implementation of the proxy to `newImplementation`, and subsequently execute the function call encoded in `data`. Calls {_authorizeUpgrade}. Emits an {Upgraded} event."
      }
    },
    "stateVariables": {
      "totalStCeloLocked": {
        "details": "To get the actual stCelo in specific strategy it is necessary to subtract `totalStCeloOverflow`."
      }
    },
    "title": "SpecificGroupStrategy is responsible for handling any deposit/withdrawal for accounts with specific strategy selected.",
    "version": 1
  },
  "userdoc": {
    "errors": {
      "AddressZeroNotAllowed()": [
        {
          "notice": "Used when attempting to pass in address zero where not allowed."
        }
      ],
      "CallerNotManager(address)": [
        {
          "notice": "Used when an `onlyManager` function is called by a non-manager."
        }
      ],
      "CantWithdrawAccordingToStrategy(address)": [
        {
          "notice": "Used when there isn't enough CELO voting for an account's strategy to fulfill a withdrawal."
        }
      ],
      "FailedToAddGroup(address)": [
        {
          "notice": "Used when an attempt to add an specific group to the EnumerableSet fails."
        }
      ],
      "FailedToBlockGroup(address)": [
        {
          "notice": "Used when attempting to block a group failed."
        }
      ],
      "FailedToUnblockGroup(address)": [
        {
          "notice": "Used when attempting to unblock a group that is not blocked."
        }
      ],
      "GroupAlreadyBlocked(address)": [
        {
          "notice": "Used when attempting to block a group that is not allowed."
        }
      ],
      "GroupBalanced(address)": [
        {
          "notice": "Used when trying to `rebalanceWhenHealthChanged` when the group cannot be rebalanced since it is in correct state."
        }
      ],
      "GroupNotBalanced(address)": [
        {
          "notice": "Used when attempting to withdraw from specific group but group does not have enough CELO. It is necessary to rebalance the group."
        }
      ],
      "GroupNotEligible(address)": [
        {
          "notice": "Used when a group does not meet the validator group health requirements."
        }
      ],
      "GroupNotOverflowing(address)": [
        {
          "notice": "Used when trying to `rebalanceOverflowedGroup` when the group is not overflowing."
        }
      ],
      "GroupStillOverflowing(address)": [
        {
          "notice": "Used when trying to `rebalanceOverflowedGroup` when the overflowing group cannot be rebalanced since it has no receivable votes."
        }
      ],
      "NoActiveGroups()": [
        {
          "notice": "Used when attempting to deposit when there are not active groups to vote for."
        }
      ],
      "NoGroups()": [
        {
          "notice": "Used when attempting to withdraw but there are no groups being voted for."
        }
      ],
      "NullAddress()": [
        {
          "notice": "Used when a passed address is address(0)."
        }
      ]
    },
    "events": {
      "GroupBlocked(address)": {
        "notice": "Emmited when group is blocked."
      },
      "GroupUnblocked(address)": {
        "notice": "Emitted when a group was unblocked."
      },
      "ManagerSet(address)": {
        "notice": "Emitted when the manager is initially set or later modified."
      }
    },
    "kind": "user",
    "methods": {
      "account()": {
        "notice": "An instance of the Account contract for the StakedCelo protocol."
      },
      "blockGroup(address)": {
        "notice": "Marks a group as blocked for voting."
      },
      "constructor": {
        "notice": "Empty constructor for proxy implementation, `initializer` modifer ensures the implementation gets initialized."
      },
      "defaultStrategy()": {
        "notice": "An instance of the DefaultStrategy contract for the StakedCelo protocol."
      },
      "generateDepositVoteDistribution(address,uint256,uint256)": {
        "notice": "Generates groups and votes to distribute votes to."
      },
      "generateWithdrawalVoteDistribution(address,uint256,uint256,bool)": {
        "notice": "Used to withdraw CELO from a specific group that account voted for previously. It is expected that strategy will be balanced. For balancing use `rebalance` function."
      },
      "getBlockedGroup(uint256)": {
        "notice": "Returns the blocked group at index."
      },
      "getNumberOfBlockedGroups()": {
        "notice": "Returns the number of blocked groups."
      },
      "getNumberOfVotedGroups()": {
        "notice": "Returns the number of voted groups."
      },
      "getStCeloInGroup(address)": {
        "notice": "Returns the specific group total stCELO."
      },
      "getVersionNumber()": {
        "notice": "Returns the storage, major, minor, and patch version of the contract."
      },
      "getVotedGroup(uint256)": {
        "notice": "Returns the specific group at index."
      },
      "groupHealth()": {
        "notice": "An instance of the GroupHealth contract for the StakedCelo protocol."
      },
      "initialize(address,address)": {
        "notice": "Initialize the contract with registry and owner."
      },
      "isBlockedGroup(address)": {
        "notice": "Returns if group is blocked."
      },
      "isVotedGroup(address)": {
        "notice": "Returns if a group is a voted group."
      },
      "rebalanceOverflowedGroup(address)": {
        "notice": "When there is group that is overflowing and in meantime there are votes that freed up. This function makes sure to reschedule votes correctly for overflowing group."
      },
      "rebalanceWhenHealthChanged(address)": {
        "notice": "Used when validator gets unhealthy and we need to move funds to default strategy"
      },
      "setDependencies(address,address,address)": {
        "notice": "Set this contract's dependencies in the StakedCelo system."
      },
      "setManager(address)": {
        "notice": "Sets the manager address."
      },
      "stCeloInGroup(address)": {
        "notice": "stCELO that was cast for specific group strategies, group => stCELO amount"
      },
      "totalStCeloLocked()": {
        "notice": "Total stCELO that was voted with on specific group strategies (including overflows)."
      },
      "totalStCeloOverflow()": {
        "notice": "Total stCelo that was overflowed to default strategy."
      },
      "totalStCeloUnhealthy()": {
        "notice": "Total stCelo that is cast for unhealthy groups and was moved to default strategy."
      },
      "unblockGroup(address)": {
        "notice": "Unblocks previously blocked group."
      }
    },
    "version": 1
  },
  "storageLayout": {
    "storage": [
      {
        "astId": 130,
        "contract": "contracts/SpecificGroupStrategy.sol:SpecificGroupStrategy",
        "label": "_initialized",
        "offset": 0,
        "slot": "0",
        "type": "t_bool"
      },
      {
        "astId": 133,
        "contract": "contracts/SpecificGroupStrategy.sol:SpecificGroupStrategy",
        "label": "_initializing",
        "offset": 1,
        "slot": "0",
        "type": "t_bool"
      },
      {
        "astId": 584,
        "contract": "contracts/SpecificGroupStrategy.sol:SpecificGroupStrategy",
        "label": "__gap",
        "offset": 0,
        "slot": "1",
        "type": "t_array(t_uint256)50_storage"
      },
      {
        "astId": 10,
        "contract": "contracts/SpecificGroupStrategy.sol:SpecificGroupStrategy",
        "label": "_owner",
        "offset": 0,
        "slot": "51",
        "type": "t_address"
      },
      {
        "astId": 122,
        "contract": "contracts/SpecificGroupStrategy.sol:SpecificGroupStrategy",
        "label": "__gap",
        "offset": 0,
        "slot": "52",
        "type": "t_array(t_uint256)49_storage"
      },
      {
        "astId": 6996,
        "contract": "contracts/SpecificGroupStrategy.sol:SpecificGroupStrategy",
        "label": "manager",
        "offset": 0,
        "slot": "101",
        "type": "t_address"
      },
      {
        "astId": 8989,
        "contract": "contracts/SpecificGroupStrategy.sol:SpecificGroupStrategy",
        "label": "votedGroups",
        "offset": 0,
        "slot": "102",
        "type": "t_struct(AddressSet)3257_storage"
      },
      {
        "astId": 8993,
        "contract": "contracts/SpecificGroupStrategy.sol:SpecificGroupStrategy",
        "label": "blockedGroups",
        "offset": 0,
        "slot": "104",
        "type": "t_struct(AddressSet)3257_storage"
      },
      {
        "astId": 8998,
        "contract": "contracts/SpecificGroupStrategy.sol:SpecificGroupStrategy",
        "label": "stCeloInGroup",
        "offset": 0,
        "slot": "106",
        "type": "t_mapping(t_address,t_uint256)"
      },
      {
        "astId": 9001,
        "contract": "contracts/SpecificGroupStrategy.sol:SpecificGroupStrategy",
        "label": "totalStCeloLocked",
        "offset": 0,
        "slot": "107",
        "type": "t_uint256"
      },
      {
        "astId": 9006,
        "contract": "contracts/SpecificGroupStrategy.sol:SpecificGroupStrategy",
        "label": "stCeloInGroupOverflowed",
        "offset": 0,
        "slot": "108",
        "type": "t_mapping(t_address,t_uint256)"
      },
      {
        "astId": 9009,
        "contract": "contracts/SpecificGroupStrategy.sol:SpecificGroupStrategy",
        "label": "totalStCeloOverflow",
        "offset": 0,
        "slot": "109",
        "type": "t_uint256"
      },
      {
        "astId": 9014,
        "contract": "contracts/SpecificGroupStrategy.sol:SpecificGroupStrategy",
        "label": "stCeloInGroupUnhealthy",
        "offset": 0,
        "slot": "110",
        "type": "t_mapping(t_address,t_uint256)"
      },
      {
        "astId": 9017,
        "contract": "contracts/SpecificGroupStrategy.sol:SpecificGroupStrategy",
        "label": "totalStCeloUnhealthy",
        "offset": 0,
        "slot": "111",
        "type": "t_uint256"
      },
      {
        "astId": 9021,
        "contract": "contracts/SpecificGroupStrategy.sol:SpecificGroupStrategy",
        "label": "groupHealth",
        "offset": 0,
        "slot": "112",
        "type": "t_contract(IGroupHealth)16520"
      },
      {
        "astId": 9025,
        "contract": "contracts/SpecificGroupStrategy.sol:SpecificGroupStrategy",
        "label": "defaultStrategy",
        "offset": 0,
        "slot": "113",
        "type": "t_contract(IDefaultStrategy)16025"
      },
      {
        "astId": 9029,
        "contract": "contracts/SpecificGroupStrategy.sol:SpecificGroupStrategy",
        "label": "account",
        "offset": 0,
        "slot": "114",
        "type": "t_contract(IAccount)15746"
      }
    ],
    "types": {
      "t_address": {
        "encoding": "inplace",
        "label": "address",
        "numberOfBytes": "20"
      },
      "t_array(t_bytes32)dyn_storage": {
        "base": "t_bytes32",
        "encoding": "dynamic_array",
        "label": "bytes32[]",
        "numberOfBytes": "32"
      },
      "t_array(t_uint256)49_storage": {
        "base": "t_uint256",
        "encoding": "inplace",
        "label": "uint256[49]",
        "numberOfBytes": "1568"
      },
      "t_array(t_uint256)50_storage": {
        "base": "t_uint256",
        "encoding": "inplace",
        "label": "uint256[50]",
        "numberOfBytes": "1600"
      },
      "t_bool": {
        "encoding": "inplace",
        "label": "bool",
        "numberOfBytes": "1"
      },
      "t_bytes32": {
        "encoding": "inplace",
        "label": "bytes32",
        "numberOfBytes": "32"
      },
      "t_contract(IAccount)15746": {
        "encoding": "inplace",
        "label": "contract IAccount",
        "numberOfBytes": "20"
      },
      "t_contract(IDefaultStrategy)16025": {
        "encoding": "inplace",
        "label": "contract IDefaultStrategy",
        "numberOfBytes": "20"
      },
      "t_contract(IGroupHealth)16520": {
        "encoding": "inplace",
        "label": "contract IGroupHealth",
        "numberOfBytes": "20"
      },
      "t_mapping(t_address,t_uint256)": {
        "encoding": "mapping",
        "key": "t_address",
        "label": "mapping(address => uint256)",
        "numberOfBytes": "32",
        "value": "t_uint256"
      },
      "t_mapping(t_bytes32,t_uint256)": {
        "encoding": "mapping",
        "key": "t_bytes32",
        "label": "mapping(bytes32 => uint256)",
        "numberOfBytes": "32",
        "value": "t_uint256"
      },
      "t_struct(AddressSet)3257_storage": {
        "encoding": "inplace",
        "label": "struct EnumerableSet.AddressSet",
        "members": [
          {
            "astId": 3256,
            "contract": "contracts/SpecificGroupStrategy.sol:SpecificGroupStrategy",
            "label": "_inner",
            "offset": 0,
            "slot": "0",
            "type": "t_struct(Set)2956_storage"
          }
        ],
        "numberOfBytes": "64"
      },
      "t_struct(Set)2956_storage": {
        "encoding": "inplace",
        "label": "struct EnumerableSet.Set",
        "members": [
          {
            "astId": 2951,
            "contract": "contracts/SpecificGroupStrategy.sol:SpecificGroupStrategy",
            "label": "_values",
            "offset": 0,
            "slot": "0",
            "type": "t_array(t_bytes32)dyn_storage"
          },
          {
            "astId": 2955,
            "contract": "contracts/SpecificGroupStrategy.sol:SpecificGroupStrategy",
            "label": "_indexes",
            "offset": 0,
            "slot": "1",
            "type": "t_mapping(t_bytes32,t_uint256)"
          }
        ],
        "numberOfBytes": "64"
      },
      "t_uint256": {
        "encoding": "inplace",
        "label": "uint256",
        "numberOfBytes": "32"
      }
    }
  }
}