{
  "address": "0x1B4b48453E3a64eb55d1D30f0f7fA9E2fe32C73d",
  "abi": [
    {
      "inputs": [],
      "stateMutability": "nonpayable",
      "type": "constructor"
    },
    {
      "inputs": [
        {
          "internalType": "address",
          "name": "caller",
          "type": "address"
        }
      ],
      "name": "CallerNotManager",
      "type": "error"
    },
    {
      "inputs": [
        {
          "internalType": "address",
          "name": "account",
          "type": "address"
        }
      ],
      "name": "NoLockedStakedCelo",
      "type": "error"
    },
    {
      "inputs": [
        {
          "internalType": "address",
          "name": "account",
          "type": "address"
        }
      ],
      "name": "NotEnoughStCeloToLock",
      "type": "error"
    },
    {
      "inputs": [
        {
          "internalType": "address",
          "name": "account",
          "type": "address"
        }
      ],
      "name": "NothingToUnlock",
      "type": "error"
    },
    {
      "inputs": [],
      "name": "NullAddress",
      "type": "error"
    },
    {
      "anonymous": false,
      "inputs": [
        {
          "indexed": false,
          "internalType": "address",
          "name": "previousAdmin",
          "type": "address"
        },
        {
          "indexed": false,
          "internalType": "address",
          "name": "newAdmin",
          "type": "address"
        }
      ],
      "name": "AdminChanged",
      "type": "event"
    },
    {
      "anonymous": false,
      "inputs": [
        {
          "indexed": true,
          "internalType": "address",
          "name": "owner",
          "type": "address"
        },
        {
          "indexed": true,
          "internalType": "address",
          "name": "spender",
          "type": "address"
        },
        {
          "indexed": false,
          "internalType": "uint256",
          "name": "value",
          "type": "uint256"
        }
      ],
      "name": "Approval",
      "type": "event"
    },
    {
      "anonymous": false,
      "inputs": [
        {
          "indexed": true,
          "internalType": "address",
          "name": "beacon",
          "type": "address"
        }
      ],
      "name": "BeaconUpgraded",
      "type": "event"
    },
    {
      "anonymous": false,
      "inputs": [
        {
          "indexed": false,
          "internalType": "address",
          "name": "account",
          "type": "address"
        },
        {
          "indexed": false,
          "internalType": "uint256",
          "name": "amount",
          "type": "uint256"
        }
      ],
      "name": "LockedStCelo",
      "type": "event"
    },
    {
      "anonymous": false,
      "inputs": [
        {
          "indexed": true,
          "internalType": "address",
          "name": "manager",
          "type": "address"
        }
      ],
      "name": "ManagerSet",
      "type": "event"
    },
    {
      "anonymous": false,
      "inputs": [
        {
          "indexed": true,
          "internalType": "address",
          "name": "previousOwner",
          "type": "address"
        },
        {
          "indexed": true,
          "internalType": "address",
          "name": "newOwner",
          "type": "address"
        }
      ],
      "name": "OwnershipTransferred",
      "type": "event"
    },
    {
      "anonymous": false,
      "inputs": [
        {
          "indexed": true,
          "internalType": "address",
          "name": "from",
          "type": "address"
        },
        {
          "indexed": true,
          "internalType": "address",
          "name": "to",
          "type": "address"
        },
        {
          "indexed": false,
          "internalType": "uint256",
          "name": "value",
          "type": "uint256"
        }
      ],
      "name": "Transfer",
      "type": "event"
    },
    {
      "anonymous": false,
      "inputs": [
        {
          "indexed": false,
          "internalType": "address",
          "name": "account",
          "type": "address"
        },
        {
          "indexed": false,
          "internalType": "uint256",
          "name": "amount",
          "type": "uint256"
        }
      ],
      "name": "UnlockedStCelo",
      "type": "event"
    },
    {
      "anonymous": false,
      "inputs": [
        {
          "indexed": true,
          "internalType": "address",
          "name": "implementation",
          "type": "address"
        }
      ],
      "name": "Upgraded",
      "type": "event"
    },
    {
      "inputs": [
        {
          "internalType": "address",
          "name": "owner",
          "type": "address"
        },
        {
          "internalType": "address",
          "name": "spender",
          "type": "address"
        }
      ],
      "name": "allowance",
      "outputs": [
        {
          "internalType": "uint256",
          "name": "",
          "type": "uint256"
        }
      ],
      "stateMutability": "view",
      "type": "function"
    },
    {
      "inputs": [
        {
          "internalType": "address",
          "name": "spender",
          "type": "address"
        },
        {
          "internalType": "uint256",
          "name": "amount",
          "type": "uint256"
        }
      ],
      "name": "approve",
      "outputs": [
        {
          "internalType": "bool",
          "name": "",
          "type": "bool"
        }
      ],
      "stateMutability": "nonpayable",
      "type": "function"
    },
    {
      "inputs": [
        {
          "internalType": "address",
          "name": "account",
          "type": "address"
        }
      ],
      "name": "balanceOf",
      "outputs": [
        {
          "internalType": "uint256",
          "name": "",
          "type": "uint256"
        }
      ],
      "stateMutability": "view",
      "type": "function"
    },
    {
      "inputs": [
        {
          "internalType": "address",
          "name": "from",
          "type": "address"
        },
        {
          "internalType": "uint256",
          "name": "amount",
          "type": "uint256"
        }
      ],
      "name": "burn",
      "outputs": [],
      "stateMutability": "nonpayable",
      "type": "function"
    },
    {
      "inputs": [],
      "name": "decimals",
      "outputs": [
        {
          "internalType": "uint8",
          "name": "",
          "type": "uint8"
        }
      ],
      "stateMutability": "view",
      "type": "function"
    },
    {
      "inputs": [
        {
          "internalType": "address",
          "name": "spender",
          "type": "address"
        },
        {
          "internalType": "uint256",
          "name": "subtractedValue",
          "type": "uint256"
        }
      ],
      "name": "decreaseAllowance",
      "outputs": [
        {
          "internalType": "bool",
          "name": "",
          "type": "bool"
        }
      ],
      "stateMutability": "nonpayable",
      "type": "function"
    },
    {
      "inputs": [],
      "name": "getVersionNumber",
      "outputs": [
        {
          "internalType": "uint256",
          "name": "",
          "type": "uint256"
        },
        {
          "internalType": "uint256",
          "name": "",
          "type": "uint256"
        },
        {
          "internalType": "uint256",
          "name": "",
          "type": "uint256"
        },
        {
          "internalType": "uint256",
          "name": "",
          "type": "uint256"
        }
      ],
      "stateMutability": "pure",
      "type": "function"
    },
    {
      "inputs": [
        {
          "internalType": "address",
          "name": "spender",
          "type": "address"
        },
        {
          "internalType": "uint256",
          "name": "addedValue",
          "type": "uint256"
        }
      ],
      "name": "increaseAllowance",
      "outputs": [
        {
          "internalType": "bool",
          "name": "",
          "type": "bool"
        }
      ],
      "stateMutability": "nonpayable",
      "type": "function"
    },
    {
      "inputs": [
        {
          "internalType": "address",
          "name": "_manager",
          "type": "address"
        },
        {
          "internalType": "address",
          "name": "_owner",
          "type": "address"
        }
      ],
      "name": "initialize",
      "outputs": [],
      "stateMutability": "nonpayable",
      "type": "function"
    },
    {
      "inputs": [
        {
          "internalType": "address",
          "name": "account",
          "type": "address"
        },
        {
          "internalType": "uint256",
          "name": "amount",
          "type": "uint256"
        }
      ],
      "name": "lockVoteBalance",
      "outputs": [],
      "stateMutability": "nonpayable",
      "type": "function"
    },
    {
      "inputs": [
        {
          "internalType": "address",
          "name": "account",
          "type": "address"
        }
      ],
      "name": "lockedVoteBalanceOf",
      "outputs": [
        {
          "internalType": "uint256",
          "name": "",
          "type": "uint256"
        }
      ],
      "stateMutability": "view",
      "type": "function"
    },
    {
      "inputs": [],
      "name": "manager",
      "outputs": [
        {
          "internalType": "address",
          "name": "",
          "type": "address"
        }
      ],
      "stateMutability": "view",
      "type": "function"
    },
    {
      "inputs": [
        {
          "internalType": "address",
          "name": "to",
          "type": "address"
        },
        {
          "internalType": "uint256",
          "name": "amount",
          "type": "uint256"
        }
      ],
      "name": "mint",
      "outputs": [],
      "stateMutability": "nonpayable",
      "type": "function"
    },
    {
      "inputs": [],
      "name": "name",
      "outputs": [
        {
          "internalType": "string",
          "name": "",
          "type": "string"
        }
      ],
      "stateMutability": "view",
      "type": "function"
    },
    {
      "inputs": [],
      "name": "owner",
      "outputs": [
        {
          "internalType": "address",
          "name": "",
          "type": "address"
        }
      ],
      "stateMutability": "view",
      "type": "function"
    },
    {
      "inputs": [],
      "name": "renounceOwnership",
      "outputs": [],
      "stateMutability": "nonpayable",
      "type": "function"
    },
    {
      "inputs": [
        {
          "internalType": "address",
          "name": "_manager",
          "type": "address"
        }
      ],
      "name": "setManager",
      "outputs": [],
      "stateMutability": "nonpayable",
      "type": "function"
    },
    {
      "inputs": [],
      "name": "symbol",
      "outputs": [
        {
          "internalType": "string",
          "name": "",
          "type": "string"
        }
      ],
      "stateMutability": "view",
      "type": "function"
    },
    {
      "inputs": [],
      "name": "totalSupply",
      "outputs": [
        {
          "internalType": "uint256",
          "name": "",
          "type": "uint256"
        }
      ],
      "stateMutability": "view",
      "type": "function"
    },
    {
      "inputs": [
        {
          "internalType": "address",
          "name": "to",
          "type": "address"
        },
        {
          "internalType": "uint256",
          "name": "amount",
          "type": "uint256"
        }
      ],
      "name": "transfer",
      "outputs": [
        {
          "internalType": "bool",
          "name": "",
          "type": "bool"
        }
      ],
      "stateMutability": "nonpayable",
      "type": "function"
    },
    {
      "inputs": [
        {
          "internalType": "address",
          "name": "from",
          "type": "address"
        },
        {
          "internalType": "address",
          "name": "to",
          "type": "address"
        },
        {
          "internalType": "uint256",
          "name": "amount",
          "type": "uint256"
        }
      ],
      "name": "transferFrom",
      "outputs": [
        {
          "internalType": "bool",
          "name": "",
          "type": "bool"
        }
      ],
      "stateMutability": "nonpayable",
      "type": "function"
    },
    {
      "inputs": [
        {
          "internalType": "address",
          "name": "newOwner",
          "type": "address"
        }
      ],
      "name": "transferOwnership",
      "outputs": [],
      "stateMutability": "nonpayable",
      "type": "function"
    },
    {
      "inputs": [
        {
          "internalType": "address",
          "name": "beneficiary",
          "type": "address"
        }
      ],
      "name": "unlockVoteBalance",
      "outputs": [],
      "stateMutability": "nonpayable",
      "type": "function"
    },
    {
      "inputs": [
        {
          "internalType": "address",
          "name": "newImplementation",
          "type": "address"
        }
      ],
      "name": "upgradeTo",
      "outputs": [],
      "stateMutability": "nonpayable",
      "type": "function"
    },
    {
      "inputs": [
        {
          "internalType": "address",
          "name": "newImplementation",
          "type": "address"
        },
        {
          "internalType": "bytes",
          "name": "data",
          "type": "bytes"
        }
      ],
      "name": "upgradeToAndCall",
      "outputs": [],
      "stateMutability": "payable",
      "type": "function"
    }
  ],
  "transactionHash": "0x3ae527df6ada9dfdc2fc2bfcdd87fe5ab188e3a39dd4706e2a522837d452b41f",
  "args": [],
  "numDeployments": 2,
  "solcInputHash": "27c7c680112f4cbd9a19d8d22fcc316c",
  "bytecode": "0x60a06040523073ffffffffffffffffffffffffffffffffffffffff1660809073ffffffffffffffffffffffffffffffffffffffff168152503480156200004457600080fd5b50600060019054906101000a900460ff166200006f5760008054906101000a900460ff161562000080565b6200007f6200013c60201b60201c565b5b620000c2576040517f08c379a0000000000000000000000000000000000000000000000000000000008152600401620000b99062000204565b60405180910390fd5b60008060019054906101000a900460ff16159050801562000113576001600060016101000a81548160ff02191690831515021790555060016000806101000a81548160ff0219169083151502179055505b8015620001355760008060016101000a81548160ff0219169083151502179055505b5062000226565b600062000154306200015a60201b620016ea1760201c565b15905090565b6000808273ffffffffffffffffffffffffffffffffffffffff163b119050919050565b600082825260208201905092915050565b7f496e697469616c697a61626c653a20636f6e747261637420697320616c72656160008201527f647920696e697469616c697a6564000000000000000000000000000000000000602082015250565b6000620001ec602e836200017d565b9150620001f9826200018e565b604082019050919050565b600060208201905081810360008301526200021f81620001dd565b9050919050565b608051613ae462000257600039600081816106f70152818161078601528181610b5c0152610beb0152613ae46000f3fe6080604052600436106101665760003560e01c806354255be0116100d15780639dc29fac1161008a578063d0ebdbe711610064578063d0ebdbe714610546578063dd62ed3e1461056f578063e37d49b8146105ac578063f2fde38b146105d557610166565b80639dc29fac146104a3578063a457c2d7146104cc578063a9059cbb1461050957610166565b806354255be0146103a257806370a08231146103d0578063715018a61461040d5780638da5cb5b1461042457806395d89b411461044f5780639caa9e291461047a57610166565b80633950935111610123578063395093511461028f57806340c10f19146102cc578063481c6a75146102f5578063485cc955146103205780634f1ef28614610349578063536a5f271461036557610166565b806306fdde031461016b578063095ea7b31461019657806318160ddd146101d357806323b872dd146101fe578063313ce5671461023b5780633659cfe614610266575b600080fd5b34801561017757600080fd5b506101806105fe565b60405161018d91906129a8565b60405180910390f35b3480156101a257600080fd5b506101bd60048036038101906101b89190612a72565b610690565b6040516101ca9190612acd565b60405180910390f35b3480156101df57600080fd5b506101e86106b3565b6040516101f59190612af7565b60405180910390f35b34801561020a57600080fd5b5061022560048036038101906102209190612b12565b6106bd565b6040516102329190612acd565b60405180910390f35b34801561024757600080fd5b506102506106ec565b60405161025d9190612b81565b60405180910390f35b34801561027257600080fd5b5061028d60048036038101906102889190612b9c565b6106f5565b005b34801561029b57600080fd5b506102b660048036038101906102b19190612a72565b61087e565b6040516102c39190612acd565b60405180910390f35b3480156102d857600080fd5b506102f360048036038101906102ee9190612a72565b610928565b005b34801561030157600080fd5b5061030a6109c8565b6040516103179190612bd8565b60405180910390f35b34801561032c57600080fd5b5061034760048036038101906103429190612bf3565b6109ee565b005b610363600480360381019061035e9190612d68565b610b5a565b005b34801561037157600080fd5b5061038c60048036038101906103879190612b9c565b610c97565b6040516103999190612af7565b60405180910390f35b3480156103ae57600080fd5b506103b7610ce0565b6040516103c79493929190612dc4565b60405180910390f35b3480156103dc57600080fd5b506103f760048036038101906103f29190612b9c565b610cfb565b6040516104049190612af7565b60405180910390f35b34801561041957600080fd5b50610422610d44565b005b34801561043057600080fd5b50610439610dcc565b6040516104469190612bd8565b60405180910390f35b34801561045b57600080fd5b50610464610df6565b60405161047191906129a8565b60405180910390f35b34801561048657600080fd5b506104a1600480360381019061049c9190612a72565b610e88565b005b3480156104af57600080fd5b506104ca60048036038101906104c59190612a72565b611093565b005b3480156104d857600080fd5b506104f360048036038101906104ee9190612a72565b611133565b6040516105009190612acd565b60405180910390f35b34801561051557600080fd5b50610530600480360381019061052b9190612a72565b61121d565b60405161053d9190612acd565b60405180910390f35b34801561055257600080fd5b5061056d60048036038101906105689190612b9c565b611240565b005b34801561057b57600080fd5b5061059660048036038101906105919190612bf3565b6112c8565b6040516105a39190612af7565b60405180910390f35b3480156105b857600080fd5b506105d360048036038101906105ce9190612b9c565b61134f565b005b3480156105e157600080fd5b506105fc60048036038101906105f79190612b9c565b6115f2565b005b60606036805461060d90612e38565b80601f016020809104026020016040519081016040528092919081815260200182805461063990612e38565b80156106865780601f1061065b57610100808354040283529160200191610686565b820191906000526020600020905b81548152906001019060200180831161066957829003601f168201915b5050505050905090565b60008061069b61170d565b90506106a8818585611715565b600191505092915050565b6000603554905090565b6000806106c861170d565b90506106d58582856118e0565b6106e085858561196c565b60019150509392505050565b60006012905090565b7f000000000000000000000000000000000000000000000000000000000000000073ffffffffffffffffffffffffffffffffffffffff163073ffffffffffffffffffffffffffffffffffffffff161415610784576040517f08c379a000000000000000000000000000000000000000000000000000000000815260040161077b90612edc565b60405180910390fd5b7f000000000000000000000000000000000000000000000000000000000000000073ffffffffffffffffffffffffffffffffffffffff166107c3611bf0565b73ffffffffffffffffffffffffffffffffffffffff1614610819576040517f08c379a000000000000000000000000000000000000000000000000000000000815260040161081090612f6e565b60405180910390fd5b61082281611c47565b61087b81600067ffffffffffffffff81111561084157610840612c3d565b5b6040519080825280601f01601f1916602001820160405280156108735781602001600182028036833780820191505090505b506000611cc6565b50565b60008061088961170d565b905061091d818585603460008673ffffffffffffffffffffffffffffffffffffffff1673ffffffffffffffffffffffffffffffffffffffff16815260200190815260200160002060008973ffffffffffffffffffffffffffffffffffffffff1673ffffffffffffffffffffffffffffffffffffffff168152602001908152602001600020546109189190612fbd565b611715565b600191505092915050565b3373ffffffffffffffffffffffffffffffffffffffff16609760009054906101000a900473ffffffffffffffffffffffffffffffffffffffff1673ffffffffffffffffffffffffffffffffffffffff16146109ba57336040517f3b2495f10000000000000000000000000000000000000000000000000000000081526004016109b19190612bd8565b60405180910390fd5b6109c48282611e97565b5050565b609760009054906101000a900473ffffffffffffffffffffffffffffffffffffffff1681565b600060019054906101000a900460ff16610a165760008054906101000a900460ff1615610a1f565b610a1e611ff8565b5b610a5e576040517f08c379a0000000000000000000000000000000000000000000000000000000008152600401610a5590613085565b60405180910390fd5b60008060019054906101000a900460ff161590508015610aae576001600060016101000a81548160ff02191690831515021790555060016000806101000a81548160ff0219169083151502179055505b610b226040518060400160405280600b81526020017f5374616b65642043454c4f0000000000000000000000000000000000000000008152506040518060400160405280600681526020017f737443454c4f0000000000000000000000000000000000000000000000000000815250612009565b610b2b83612066565b610b34826120c1565b8015610b555760008060016101000a81548160ff0219169083151502179055505b505050565b7f000000000000000000000000000000000000000000000000000000000000000073ffffffffffffffffffffffffffffffffffffffff163073ffffffffffffffffffffffffffffffffffffffff161415610be9576040517f08c379a0000000000000000000000000000000000000000000000000000000008152600401610be090612edc565b60405180910390fd5b7f000000000000000000000000000000000000000000000000000000000000000073ffffffffffffffffffffffffffffffffffffffff16610c28611bf0565b73ffffffffffffffffffffffffffffffffffffffff1614610c7e576040517f08c379a0000000000000000000000000000000000000000000000000000000008152600401610c7590612f6e565b60405180910390fd5b610c8782611c47565b610c9382826001611cc6565b5050565b6000609860008373ffffffffffffffffffffffffffffffffffffffff1673ffffffffffffffffffffffffffffffffffffffff168152602001908152602001600020549050919050565b60008060008060018060026001935093509350935090919293565b6000603360008373ffffffffffffffffffffffffffffffffffffffff1673ffffffffffffffffffffffffffffffffffffffff168152602001908152602001600020549050919050565b610d4c61170d565b73ffffffffffffffffffffffffffffffffffffffff16610d6a610dcc565b73ffffffffffffffffffffffffffffffffffffffff1614610dc0576040517f08c379a0000000000000000000000000000000000000000000000000000000008152600401610db7906130f1565b60405180910390fd5b610dca60006120c1565b565b6000606560009054906101000a900473ffffffffffffffffffffffffffffffffffffffff16905090565b606060378054610e0590612e38565b80601f0160208091040260200160405190810160405280929190818152602001828054610e3190612e38565b8015610e7e5780601f10610e5357610100808354040283529160200191610e7e565b820191906000526020600020905b815481529060010190602001808311610e6157829003601f168201915b5050505050905090565b3373ffffffffffffffffffffffffffffffffffffffff16609760009054906101000a900473ffffffffffffffffffffffffffffffffffffffff1673ffffffffffffffffffffffffffffffffffffffff1614610f1a57336040517f3b2495f1000000000000000000000000000000000000000000000000000000008152600401610f119190612bd8565b60405180910390fd5b6000609860008473ffffffffffffffffffffffffffffffffffffffff1673ffffffffffffffffffffffffffffffffffffffff1681526020019081526020016000205490508181101561108e5781609860008573ffffffffffffffffffffffffffffffffffffffff1673ffffffffffffffffffffffffffffffffffffffff1681526020019081526020016000208190555060008183610fb89190613111565b90506000610fc585610cfb565b90508181101561100c57846040517f302eac670000000000000000000000000000000000000000000000000000000081526004016110039190612bd8565b60405180910390fd5b818103603360008773ffffffffffffffffffffffffffffffffffffffff1673ffffffffffffffffffffffffffffffffffffffff168152602001908152602001600020819055507fe37e8cb8ed38bb9b63754c5710e41c3475ab33b84179eaa49e7d1d3f19375b078585604051611083929190613145565b60405180910390a150505b505050565b3373ffffffffffffffffffffffffffffffffffffffff16609760009054906101000a900473ffffffffffffffffffffffffffffffffffffffff1673ffffffffffffffffffffffffffffffffffffffff161461112557336040517f3b2495f100000000000000000000000000000000000000000000000000000000815260040161111c9190612bd8565b60405180910390fd5b61112f8282612187565b5050565b60008061113e61170d565b90506000603460008373ffffffffffffffffffffffffffffffffffffffff1673ffffffffffffffffffffffffffffffffffffffff16815260200190815260200160002060008673ffffffffffffffffffffffffffffffffffffffff1673ffffffffffffffffffffffffffffffffffffffff16815260200190815260200160002054905083811015611204576040517f08c379a00000000000000000000000000000000000000000000000000000000081526004016111fb906131e0565b60405180910390fd5b6112118286868403611715565b60019250505092915050565b60008061122861170d565b905061123581858561196c565b600191505092915050565b61124861170d565b73ffffffffffffffffffffffffffffffffffffffff16611266610dcc565b73ffffffffffffffffffffffffffffffffffffffff16146112bc576040517f08c379a00000000000000000000000000000000000000000000000000000000081526004016112b3906130f1565b60405180910390fd5b6112c581612360565b50565b6000603460008473ffffffffffffffffffffffffffffffffffffffff1673ffffffffffffffffffffffffffffffffffffffff16815260200190815260200160002060008373ffffffffffffffffffffffffffffffffffffffff1673ffffffffffffffffffffffffffffffffffffffff16815260200190815260200160002054905092915050565b6000609860008373ffffffffffffffffffffffffffffffffffffffff1673ffffffffffffffffffffffffffffffffffffffff16815260200190815260200160002054905060008114156113d957816040517f52113b890000000000000000000000000000000000000000000000000000000081526004016113d09190612bd8565b60405180910390fd5b6000609760009054906101000a900473ffffffffffffffffffffffffffffffffffffffff1673ffffffffffffffffffffffffffffffffffffffff166348fd6ea6846040518263ffffffff1660e01b81526004016114369190612bd8565b6020604051808303816000875af1158015611455573d6000803e3d6000fd5b505050506040513d601f19601f820116820180604052508101906114799190613215565b90508082116114bf57826040517fca9f03360000000000000000000000000000000000000000000000000000000081526004016114b69190612bd8565b60405180910390fd5b80609860008573ffffffffffffffffffffffffffffffffffffffff1673ffffffffffffffffffffffffffffffffffffffff16815260200190815260200160002081905550600081836115119190613111565b905080603360008673ffffffffffffffffffffffffffffffffffffffff1673ffffffffffffffffffffffffffffffffffffffff16815260200190815260200160002060008282546115629190612fbd565b925050819055507fda5d2c5893395f22bb4bb4ecad229f58d2403a4b1b2683e0d065b86a5df5c86a84609860008773ffffffffffffffffffffffffffffffffffffffff1673ffffffffffffffffffffffffffffffffffffffff16815260200190815260200160002054856115d69190613111565b6040516115e4929190613145565b60405180910390a150505050565b6115fa61170d565b73ffffffffffffffffffffffffffffffffffffffff16611618610dcc565b73ffffffffffffffffffffffffffffffffffffffff161461166e576040517f08c379a0000000000000000000000000000000000000000000000000000000008152600401611665906130f1565b60405180910390fd5b600073ffffffffffffffffffffffffffffffffffffffff168173ffffffffffffffffffffffffffffffffffffffff1614156116de576040517f08c379a00000000000000000000000000000000000000000000000000000000081526004016116d5906132b4565b60405180910390fd5b6116e7816120c1565b50565b6000808273ffffffffffffffffffffffffffffffffffffffff163b119050919050565b600033905090565b600073ffffffffffffffffffffffffffffffffffffffff168373ffffffffffffffffffffffffffffffffffffffff161415611785576040517f08c379a000000000000000000000000000000000000000000000000000000000815260040161177c90613346565b60405180910390fd5b600073ffffffffffffffffffffffffffffffffffffffff168273ffffffffffffffffffffffffffffffffffffffff1614156117f5576040517f08c379a00000000000000000000000000000000000000000000000000000000081526004016117ec906133d8565b60405180910390fd5b80603460008573ffffffffffffffffffffffffffffffffffffffff1673ffffffffffffffffffffffffffffffffffffffff16815260200190815260200160002060008473ffffffffffffffffffffffffffffffffffffffff1673ffffffffffffffffffffffffffffffffffffffff168152602001908152602001600020819055508173ffffffffffffffffffffffffffffffffffffffff168373ffffffffffffffffffffffffffffffffffffffff167f8c5be1e5ebec7d5bd14f71427d1e84f3dd0314c0f7b2291e5b200ac8c7c3b925836040516118d39190612af7565b60405180910390a3505050565b60006118ec84846112c8565b90507fffffffffffffffffffffffffffffffffffffffffffffffffffffffffffffffff81146119665781811015611958576040517f08c379a000000000000000000000000000000000000000000000000000000000815260040161194f90613444565b60405180910390fd5b6119658484848403611715565b5b50505050565b600073ffffffffffffffffffffffffffffffffffffffff168373ffffffffffffffffffffffffffffffffffffffff1614156119dc576040517f08c379a00000000000000000000000000000000000000000000000000000000081526004016119d3906134d6565b60405180910390fd5b600073ffffffffffffffffffffffffffffffffffffffff168273ffffffffffffffffffffffffffffffffffffffff161415611a4c576040517f08c379a0000000000000000000000000000000000000000000000000000000008152600401611a4390613568565b60405180910390fd5b611a5783838361244e565b6000603360008573ffffffffffffffffffffffffffffffffffffffff1673ffffffffffffffffffffffffffffffffffffffff16815260200190815260200160002054905081811015611ade576040517f08c379a0000000000000000000000000000000000000000000000000000000008152600401611ad5906135fa565b60405180910390fd5b818103603360008673ffffffffffffffffffffffffffffffffffffffff1673ffffffffffffffffffffffffffffffffffffffff1681526020019081526020016000208190555081603360008573ffffffffffffffffffffffffffffffffffffffff1673ffffffffffffffffffffffffffffffffffffffff1681526020019081526020016000206000828254611b739190612fbd565b925050819055508273ffffffffffffffffffffffffffffffffffffffff168473ffffffffffffffffffffffffffffffffffffffff167fddf252ad1be2c89b69c2b068fc378daa952ba7f163c4a11628f55a4df523b3ef84604051611bd79190612af7565b60405180910390a3611bea848484612453565b50505050565b6000611c1e7f360894a13ba1a3210667c828492db98dca3e2076cc3735a920a3ca505d382bbc60001b61255b565b60000160009054906101000a900473ffffffffffffffffffffffffffffffffffffffff16905090565b611c4f61170d565b73ffffffffffffffffffffffffffffffffffffffff16611c6d610dcc565b73ffffffffffffffffffffffffffffffffffffffff1614611cc3576040517f08c379a0000000000000000000000000000000000000000000000000000000008152600401611cba906130f1565b60405180910390fd5b50565b6000611cd0611bf0565b9050611cdb84612565565b600083511180611ce85750815b15611cf957611cf7848461261e565b505b6000611d277f4910fdfa16fed3260ed0e7147f7cc6da11a60208b5b9406d12a635614ffd914360001b61264b565b90508060000160009054906101000a900460ff16611e905760018160000160006101000a81548160ff021916908315150217905550611df38583604051602401611d719190612bd8565b6040516020818303038152906040527f3659cfe6000000000000000000000000000000000000000000000000000000007bffffffffffffffffffffffffffffffffffffffffffffffffffffffff19166020820180517bffffffffffffffffffffffffffffffffffffffffffffffffffffffff838183161783525050505061261e565b5060008160000160006101000a81548160ff021916908315150217905550611e19611bf0565b73ffffffffffffffffffffffffffffffffffffffff168273ffffffffffffffffffffffffffffffffffffffff1614611e86576040517f08c379a0000000000000000000000000000000000000000000000000000000008152600401611e7d9061368c565b60405180910390fd5b611e8f85612655565b5b5050505050565b600073ffffffffffffffffffffffffffffffffffffffff168273ffffffffffffffffffffffffffffffffffffffff161415611f07576040517f08c379a0000000000000000000000000000000000000000000000000000000008152600401611efe906136f8565b60405180910390fd5b611f136000838361244e565b8060356000828254611f259190612fbd565b9250508190555080603360008473ffffffffffffffffffffffffffffffffffffffff1673ffffffffffffffffffffffffffffffffffffffff1681526020019081526020016000206000828254611f7b9190612fbd565b925050819055508173ffffffffffffffffffffffffffffffffffffffff16600073ffffffffffffffffffffffffffffffffffffffff167fddf252ad1be2c89b69c2b068fc378daa952ba7f163c4a11628f55a4df523b3ef83604051611fe09190612af7565b60405180910390a3611ff460008383612453565b5050565b6000612003306116ea565b15905090565b600060019054906101000a900460ff16612058576040517f08c379a000000000000000000000000000000000000000000000000000000000815260040161204f9061378a565b60405180910390fd5b61206282826126a4565b5050565b600060019054906101000a900460ff166120b5576040517f08c379a00000000000000000000000000000000000000000000000000000000081526004016120ac9061378a565b60405180910390fd5b6120be81612360565b50565b6000606560009054906101000a900473ffffffffffffffffffffffffffffffffffffffff16905081606560006101000a81548173ffffffffffffffffffffffffffffffffffffffff021916908373ffffffffffffffffffffffffffffffffffffffff1602179055508173ffffffffffffffffffffffffffffffffffffffff168173ffffffffffffffffffffffffffffffffffffffff167f8be0079c531659141344cd1fd0a4f28419497f9722a3daafe3b4186f6b6457e060405160405180910390a35050565b600073ffffffffffffffffffffffffffffffffffffffff168273ffffffffffffffffffffffffffffffffffffffff1614156121f7576040517f08c379a00000000000000000000000000000000000000000000000000000000081526004016121ee9061381c565b60405180910390fd5b6122038260008361244e565b6000603360008473ffffffffffffffffffffffffffffffffffffffff1673ffffffffffffffffffffffffffffffffffffffff1681526020019081526020016000205490508181101561228a576040517f08c379a0000000000000000000000000000000000000000000000000000000008152600401612281906138ae565b60405180910390fd5b818103603360008573ffffffffffffffffffffffffffffffffffffffff1673ffffffffffffffffffffffffffffffffffffffff1681526020019081526020016000208190555081603560008282546122e29190613111565b92505081905550600073ffffffffffffffffffffffffffffffffffffffff168373ffffffffffffffffffffffffffffffffffffffff167fddf252ad1be2c89b69c2b068fc378daa952ba7f163c4a11628f55a4df523b3ef846040516123479190612af7565b60405180910390a361235b83600084612453565b505050565b600073ffffffffffffffffffffffffffffffffffffffff168173ffffffffffffffffffffffffffffffffffffffff1614156123c7576040517fe99d5ac500000000000000000000000000000000000000000000000000000000815260040160405180910390fd5b80609760006101000a81548173ffffffffffffffffffffffffffffffffffffffff021916908373ffffffffffffffffffffffffffffffffffffffff1602179055508073ffffffffffffffffffffffffffffffffffffffff167f60a0f5b9f9e81e98216071b85826681c796256fe3d1354ecb675580fba64fa6960405160405180910390a250565b505050565b600073ffffffffffffffffffffffffffffffffffffffff168373ffffffffffffffffffffffffffffffffffffffff1614806124ba5750600073ffffffffffffffffffffffffffffffffffffffff168273ffffffffffffffffffffffffffffffffffffffff16145b156124c457612556565b609760009054906101000a900473ffffffffffffffffffffffffffffffffffffffff1673ffffffffffffffffffffffffffffffffffffffff1663beabacc88484846040518463ffffffff1660e01b8152600401612523939291906138ce565b600060405180830381600087803b15801561253d57600080fd5b505af1158015612551573d6000803e3d6000fd5b505050505b505050565b6000819050919050565b61256e81612725565b6125ad576040517f08c379a00000000000000000000000000000000000000000000000000000000081526004016125a490613977565b60405180910390fd5b806125da7f360894a13ba1a3210667c828492db98dca3e2076cc3735a920a3ca505d382bbc60001b61255b565b60000160006101000a81548173ffffffffffffffffffffffffffffffffffffffff021916908373ffffffffffffffffffffffffffffffffffffffff16021790555050565b60606126438383604051806060016040528060278152602001613a8860279139612738565b905092915050565b6000819050919050565b61265e81612565565b8073ffffffffffffffffffffffffffffffffffffffff167fbc7cd75a20ee27fd9adebab32041f755214dbc6bffa90cc0225b39da2e5c2d3b60405160405180910390a250565b600060019054906101000a900460ff166126f3576040517f08c379a00000000000000000000000000000000000000000000000000000000081526004016126ea9061378a565b60405180910390fd5b816036908051906020019061270992919061286c565b50806037908051906020019061272092919061286c565b505050565b600080823b905060008111915050919050565b606061274384612725565b612782576040517f08c379a000000000000000000000000000000000000000000000000000000000815260040161277990613a09565b60405180910390fd5b6000808573ffffffffffffffffffffffffffffffffffffffff16856040516127aa9190613a70565b600060405180830381855af49150503d80600081146127e5576040519150601f19603f3d011682016040523d82523d6000602084013e6127ea565b606091505b50915091506127fa828286612805565b925050509392505050565b6060831561281557829050612865565b6000835111156128285782518084602001fd5b816040517f08c379a000000000000000000000000000000000000000000000000000000000815260040161285c91906129a8565b60405180910390fd5b9392505050565b82805461287890612e38565b90600052602060002090601f01602090048101928261289a57600085556128e1565b82601f106128b357805160ff19168380011785556128e1565b828001600101855582156128e1579182015b828111156128e05782518255916020019190600101906128c5565b5b5090506128ee91906128f2565b5090565b5b8082111561290b5760008160009055506001016128f3565b5090565b600081519050919050565b600082825260208201905092915050565b60005b8381101561294957808201518184015260208101905061292e565b83811115612958576000848401525b50505050565b6000601f19601f8301169050919050565b600061297a8261290f565b612984818561291a565b935061299481856020860161292b565b61299d8161295e565b840191505092915050565b600060208201905081810360008301526129c2818461296f565b905092915050565b6000604051905090565b600080fd5b600080fd5b600073ffffffffffffffffffffffffffffffffffffffff82169050919050565b6000612a09826129de565b9050919050565b612a19816129fe565b8114612a2457600080fd5b50565b600081359050612a3681612a10565b92915050565b6000819050919050565b612a4f81612a3c565b8114612a5a57600080fd5b50565b600081359050612a6c81612a46565b92915050565b60008060408385031215612a8957612a886129d4565b5b6000612a9785828601612a27565b9250506020612aa885828601612a5d565b9150509250929050565b60008115159050919050565b612ac781612ab2565b82525050565b6000602082019050612ae26000830184612abe565b92915050565b612af181612a3c565b82525050565b6000602082019050612b0c6000830184612ae8565b92915050565b600080600060608486031215612b2b57612b2a6129d4565b5b6000612b3986828701612a27565b9350506020612b4a86828701612a27565b9250506040612b5b86828701612a5d565b9150509250925092565b600060ff82169050919050565b612b7b81612b65565b82525050565b6000602082019050612b966000830184612b72565b92915050565b600060208284031215612bb257612bb16129d4565b5b6000612bc084828501612a27565b91505092915050565b612bd2816129fe565b82525050565b6000602082019050612bed6000830184612bc9565b92915050565b60008060408385031215612c0a57612c096129d4565b5b6000612c1885828601612a27565b9250506020612c2985828601612a27565b9150509250929050565b600080fd5b600080fd5b7f4e487b7100000000000000000000000000000000000000000000000000000000600052604160045260246000fd5b612c758261295e565b810181811067ffffffffffffffff82111715612c9457612c93612c3d565b5b80604052505050565b6000612ca76129ca565b9050612cb38282612c6c565b919050565b600067ffffffffffffffff821115612cd357612cd2612c3d565b5b612cdc8261295e565b9050602081019050919050565b82818337600083830152505050565b6000612d0b612d0684612cb8565b612c9d565b905082815260208101848484011115612d2757612d26612c38565b5b612d32848285612ce9565b509392505050565b600082601f830112612d4f57612d4e612c33565b5b8135612d5f848260208601612cf8565b91505092915050565b60008060408385031215612d7f57612d7e6129d4565b5b6000612d8d85828601612a27565b925050602083013567ffffffffffffffff811115612dae57612dad6129d9565b5b612dba85828601612d3a565b9150509250929050565b6000608082019050612dd96000830187612ae8565b612de66020830186612ae8565b612df36040830185612ae8565b612e006060830184612ae8565b95945050505050565b7f4e487b7100000000000000000000000000000000000000000000000000000000600052602260045260246000fd5b60006002820490506001821680612e5057607f821691505b60208210811415612e6457612e63612e09565b5b50919050565b7f46756e6374696f6e206d7573742062652063616c6c6564207468726f7567682060008201527f64656c656761746563616c6c0000000000000000000000000000000000000000602082015250565b6000612ec6602c8361291a565b9150612ed182612e6a565b604082019050919050565b60006020820190508181036000830152612ef581612eb9565b9050919050565b7f46756e6374696f6e206d7573742062652063616c6c6564207468726f7567682060008201527f6163746976652070726f78790000000000000000000000000000000000000000602082015250565b6000612f58602c8361291a565b9150612f6382612efc565b604082019050919050565b60006020820190508181036000830152612f8781612f4b565b9050919050565b7f4e487b7100000000000000000000000000000000000000000000000000000000600052601160045260246000fd5b6000612fc882612a3c565b9150612fd383612a3c565b9250827fffffffffffffffffffffffffffffffffffffffffffffffffffffffffffffffff0382111561300857613007612f8e565b5b828201905092915050565b7f496e697469616c697a61626c653a20636f6e747261637420697320616c72656160008201527f647920696e697469616c697a6564000000000000000000000000000000000000602082015250565b600061306f602e8361291a565b915061307a82613013565b604082019050919050565b6000602082019050818103600083015261309e81613062565b9050919050565b7f4f776e61626c653a2063616c6c6572206973206e6f7420746865206f776e6572600082015250565b60006130db60208361291a565b91506130e6826130a5565b602082019050919050565b6000602082019050818103600083015261310a816130ce565b9050919050565b600061311c82612a3c565b915061312783612a3c565b92508282101561313a57613139612f8e565b5b828203905092915050565b600060408201905061315a6000830185612bc9565b6131676020830184612ae8565b9392505050565b7f45524332303a2064656372656173656420616c6c6f77616e63652062656c6f7760008201527f207a65726f000000000000000000000000000000000000000000000000000000602082015250565b60006131ca60258361291a565b91506131d58261316e565b604082019050919050565b600060208201905081810360008301526131f9816131bd565b9050919050565b60008151905061320f81612a46565b92915050565b60006020828403121561322b5761322a6129d4565b5b600061323984828501613200565b91505092915050565b7f4f776e61626c653a206e6577206f776e657220697320746865207a65726f206160008201527f6464726573730000000000000000000000000000000000000000000000000000602082015250565b600061329e60268361291a565b91506132a982613242565b604082019050919050565b600060208201905081810360008301526132cd81613291565b9050919050565b7f45524332303a20617070726f76652066726f6d20746865207a65726f2061646460008201527f7265737300000000000000000000000000000000000000000000000000000000602082015250565b600061333060248361291a565b915061333b826132d4565b604082019050919050565b6000602082019050818103600083015261335f81613323565b9050919050565b7f45524332303a20617070726f766520746f20746865207a65726f20616464726560008201527f7373000000000000000000000000000000000000000000000000000000000000602082015250565b60006133c260228361291a565b91506133cd82613366565b604082019050919050565b600060208201905081810360008301526133f1816133b5565b9050919050565b7f45524332303a20696e73756666696369656e7420616c6c6f77616e6365000000600082015250565b600061342e601d8361291a565b9150613439826133f8565b602082019050919050565b6000602082019050818103600083015261345d81613421565b9050919050565b7f45524332303a207472616e736665722066726f6d20746865207a65726f20616460008201527f6472657373000000000000000000000000000000000000000000000000000000602082015250565b60006134c060258361291a565b91506134cb82613464565b604082019050919050565b600060208201905081810360008301526134ef816134b3565b9050919050565b7f45524332303a207472616e7366657220746f20746865207a65726f206164647260008201527f6573730000000000000000000000000000000000000000000000000000000000602082015250565b600061355260238361291a565b915061355d826134f6565b604082019050919050565b6000602082019050818103600083015261358181613545565b9050919050565b7f45524332303a207472616e7366657220616d6f756e742065786365656473206260008201527f616c616e63650000000000000000000000000000000000000000000000000000602082015250565b60006135e460268361291a565b91506135ef82613588565b604082019050919050565b60006020820190508181036000830152613613816135d7565b9050919050565b7f45524331393637557067726164653a207570677261646520627265616b73206660008201527f7572746865722075706772616465730000000000000000000000000000000000602082015250565b6000613676602f8361291a565b91506136818261361a565b604082019050919050565b600060208201905081810360008301526136a581613669565b9050919050565b7f45524332303a206d696e7420746f20746865207a65726f206164647265737300600082015250565b60006136e2601f8361291a565b91506136ed826136ac565b602082019050919050565b60006020820190508181036000830152613711816136d5565b9050919050565b7f496e697469616c697a61626c653a20636f6e7472616374206973206e6f74206960008201527f6e697469616c697a696e67000000000000000000000000000000000000000000602082015250565b6000613774602b8361291a565b915061377f82613718565b604082019050919050565b600060208201905081810360008301526137a381613767565b9050919050565b7f45524332303a206275726e2066726f6d20746865207a65726f2061646472657360008201527f7300000000000000000000000000000000000000000000000000000000000000602082015250565b600061380660218361291a565b9150613811826137aa565b604082019050919050565b60006020820190508181036000830152613835816137f9565b9050919050565b7f45524332303a206275726e20616d6f756e7420657863656564732062616c616e60008201527f6365000000000000000000000000000000000000000000000000000000000000602082015250565b600061389860228361291a565b91506138a38261383c565b604082019050919050565b600060208201905081810360008301526138c78161388b565b9050919050565b60006060820190506138e36000830186612bc9565b6138f06020830185612bc9565b6138fd6040830184612ae8565b949350505050565b7f455243313936373a206e657720696d706c656d656e746174696f6e206973206e60008201527f6f74206120636f6e747261637400000000000000000000000000000000000000602082015250565b6000613961602d8361291a565b915061396c82613905565b604082019050919050565b6000602082019050818103600083015261399081613954565b9050919050565b7f416464726573733a2064656c65676174652063616c6c20746f206e6f6e2d636f60008201527f6e74726163740000000000000000000000000000000000000000000000000000602082015250565b60006139f360268361291a565b91506139fe82613997565b604082019050919050565b60006020820190508181036000830152613a22816139e6565b9050919050565b600081519050919050565b600081905092915050565b6000613a4a82613a29565b613a548185613a34565b9350613a6481856020860161292b565b80840191505092915050565b6000613a7c8284613a3f565b91508190509291505056fe416464726573733a206c6f772d6c6576656c2064656c65676174652063616c6c206661696c6564a26469706673582212207ea737feb76f7207455c9d8f0cf2aae71e8d1d855c12c9ec5fe0395626b53e2664736f6c634300080b0033",
  "devdoc": {
    "errors": {
      "CallerNotManager(address)": [
        {
          "params": {
            "caller": "`msg.sender` that called the function."
          }
        }
      ],
      "NoLockedStakedCelo(address)": [
        {
          "params": {
            "account": "The account's address."
          }
        }
      ],
      "NotEnoughStCeloToLock(address)": [
        {
          "params": {
            "account": "The account's address."
          }
        }
      ],
      "NothingToUnlock(address)": [
        {
          "params": {
            "account": "The account's address."
          }
        }
      ]
    },
    "events": {
      "LockedStCelo(address,uint256)": {
        "params": {
          "account": "The owner of locked stCELO.",
          "amount": "The amount of locked stCELO."
        }
      },
      "UnlockedStCelo(address,uint256)": {
        "params": {
          "account": "The owner of unlocked stCELO.",
          "amount": "The amount of unlocked stCELO."
        }
      }
    },
    "kind": "dev",
    "methods": {
      "allowance(address,address)": {
        "details": "See {IERC20-allowance}."
      },
      "approve(address,uint256)": {
        "details": "See {IERC20-approve}. NOTE: If `amount` is the maximum `uint256`, the allowance is not updated on `transferFrom`. This is semantically equivalent to an infinite approval. Requirements: - `spender` cannot be the zero address."
      },
      "balanceOf(address)": {
        "details": "See {IERC20-balanceOf}."
      },
      "burn(address,uint256)": {
        "params": {
          "amount": "The amount of stCELO to burn.",
          "from": "The address that will have its stCELO burned."
        }
      },
      "decimals()": {
        "details": "Returns the number of decimals used to get its user representation. For example, if `decimals` equals `2`, a balance of `505` tokens should be displayed to a user as `5.05` (`505 / 10 ** 2`). Tokens usually opt for a value of 18, imitating the relationship between Ether and Wei. This is the value {ERC20} uses, unless this function is overridden; NOTE: This information is only used for _display_ purposes: it in no way affects any of the arithmetic of the contract, including {IERC20-balanceOf} and {IERC20-transfer}."
      },
      "decreaseAllowance(address,uint256)": {
        "details": "Atomically decreases the allowance granted to `spender` by the caller. This is an alternative to {approve} that can be used as a mitigation for problems described in {IERC20-approve}. Emits an {Approval} event indicating the updated allowance. Requirements: - `spender` cannot be the zero address. - `spender` must have allowance for the caller of at least `subtractedValue`."
      },
      "getVersionNumber()": {
        "returns": {
          "_0": "Storage version of the contract.",
          "_1": "Major version of the contract.",
          "_2": "Minor version of the contract.",
          "_3": "Patch version of the contract."
        }
      },
      "increaseAllowance(address,uint256)": {
        "details": "Atomically increases the allowance granted to `spender` by the caller. This is an alternative to {approve} that can be used as a mitigation for problems described in {IERC20-approve}. Emits an {Approval} event indicating the updated allowance. Requirements: - `spender` cannot be the zero address."
      },
      "initialize(address,address)": {
        "params": {
          "_manager": "The address of the Manager contract.",
          "_owner": "The address to set as the owner."
        }
      },
      "lockVoteBalance(address,uint256)": {
        "params": {
          "account": "The address that will have its stCELO balance locked.",
          "amount": "The amount of stCELO to lock."
        }
      },
      "lockedVoteBalanceOf(address)": {
        "params": {
          "account": "The address of locked stCELO balance."
        },
        "returns": {
          "_0": "The amount of locked stCELO."
        }
      },
      "mint(address,uint256)": {
        "params": {
          "amount": "The amount of stCELO to mint.",
          "to": "The address that will receive the new stCELO."
        }
      },
      "name()": {
        "details": "Returns the name of the token."
      },
      "owner()": {
        "details": "Returns the address of the current owner."
      },
      "renounceOwnership()": {
        "details": "Leaves the contract without owner. It will not be possible to call `onlyOwner` functions anymore. Can only be called by the current owner. NOTE: Renouncing ownership will leave the contract without an owner, thereby removing any functionality that is only available to the owner."
      },
      "setManager(address)": {
        "params": {
          "_manager": "The new manager address."
        }
      },
      "symbol()": {
        "details": "Returns the symbol of the token, usually a shorter version of the name."
      },
      "totalSupply()": {
        "details": "See {IERC20-totalSupply}."
      },
      "transfer(address,uint256)": {
        "details": "See {IERC20-transfer}. Requirements: - `to` cannot be the zero address. - the caller must have a balance of at least `amount`."
      },
      "transferFrom(address,address,uint256)": {
        "details": "See {IERC20-transferFrom}. Emits an {Approval} event indicating the updated allowance. This is not required by the EIP. See the note at the beginning of {ERC20}. NOTE: Does not update the allowance if the current allowance is the maximum `uint256`. Requirements: - `from` and `to` cannot be the zero address. - `from` must have a balance of at least `amount`. - the caller must have allowance for ``from``'s tokens of at least `amount`."
      },
      "transferOwnership(address)": {
        "details": "Transfers ownership of the contract to a new account (`newOwner`). Can only be called by the current owner."
      },
      "unlockVoteBalance(address)": {
        "params": {
          "beneficiary": "The address that will have its stCELO balance unlocked."
        }
      },
      "upgradeTo(address)": {
        "details": "Upgrade the implementation of the proxy to `newImplementation`. Calls {_authorizeUpgrade}. Emits an {Upgraded} event."
      },
      "upgradeToAndCall(address,bytes)": {
        "details": "Upgrade the implementation of the proxy to `newImplementation`, and subsequently execute the function call encoded in `data`. Calls {_authorizeUpgrade}. Emits an {Upgraded} event."
      }
    },
    "title": "An ERC-20 token that is a fungible and transferrable representation of reward-earning voted LockedGold (i.e. locked CELO).",
    "version": 1
  },
  "userdoc": {
    "errors": {
      "CallerNotManager(address)": [
        {
          "notice": "Used when an `onlyManager` function is called by a non-manager."
        }
      ],
      "NoLockedStakedCelo(address)": [
        {
          "notice": "Used when attempting to unlock stCELO when there is no locked stCELO."
        }
      ],
      "NotEnoughStCeloToLock(address)": [
        {
          "notice": "Used when attempting to lock stCELO when there is not enough stCELO."
        }
      ],
      "NothingToUnlock(address)": [
        {
          "notice": "Used when attempting to unlock stCELO when there is no stCELO to unlock."
        }
      ],
      "NullAddress()": [
        {
          "notice": "Used when a passed address is address(0)."
        }
      ]
    },
    "events": {
      "LockedStCelo(address,uint256)": {
        "notice": "Emitted when stCELO is locked."
      },
      "ManagerSet(address)": {
        "notice": "Emitted when the manager is initially set or later modified."
      },
      "UnlockedStCelo(address,uint256)": {
        "notice": "Emitted when stCELO is inlocked."
      }
    },
    "kind": "user",
    "methods": {
      "burn(address,uint256)": {
        "notice": "Burns stCELO from an address."
      },
      "constructor": {
        "notice": "Empty constructor for proxy implementation, `initializer` modifer ensures the implementation gets initialized."
      },
      "getVersionNumber()": {
        "notice": "Returns the storage, major, minor, and patch version of the contract."
      },
      "initialize(address,address)": {
        "notice": "Initializes the contract."
      },
      "lockVoteBalance(address,uint256)": {
        "notice": "Locks vote stCELO from an address."
      },
      "lockedVoteBalanceOf(address)": {
        "notice": "Returns vote stCELO locked balance."
      },
      "mint(address,uint256)": {
        "notice": "Mints new stCELO to an address."
      },
      "setManager(address)": {
        "notice": "Sets the manager address."
      },
      "unlockVoteBalance(address)": {
        "notice": "Unlocks vote stCELO from an address."
      }
    },
    "version": 1
  },
  "storageLayout": {
    "storage": [
      {
        "astId": 130,
        "contract": "contracts/StakedCelo.sol:StakedCelo",
        "label": "_initialized",
        "offset": 0,
        "slot": "0",
        "type": "t_bool"
      },
      {
        "astId": 133,
        "contract": "contracts/StakedCelo.sol:StakedCelo",
        "label": "_initializing",
        "offset": 1,
        "slot": "0",
        "type": "t_bool"
      },
      {
        "astId": 584,
        "contract": "contracts/StakedCelo.sol:StakedCelo",
        "label": "__gap",
        "offset": 0,
        "slot": "1",
        "type": "t_array(t_uint256)50_storage"
      },
      {
        "astId": 11635,
        "contract": "contracts/StakedCelo.sol:StakedCelo",
        "label": "_balances",
        "offset": 0,
        "slot": "51",
        "type": "t_mapping(t_address,t_uint256)"
      },
      {
        "astId": 11641,
        "contract": "contracts/StakedCelo.sol:StakedCelo",
        "label": "_allowances",
        "offset": 0,
        "slot": "52",
        "type": "t_mapping(t_address,t_mapping(t_address,t_uint256))"
      },
      {
        "astId": 11643,
        "contract": "contracts/StakedCelo.sol:StakedCelo",
        "label": "_totalSupply",
        "offset": 0,
        "slot": "53",
        "type": "t_uint256"
      },
      {
        "astId": 11645,
        "contract": "contracts/StakedCelo.sol:StakedCelo",
        "label": "_name",
        "offset": 0,
        "slot": "54",
        "type": "t_string_storage"
      },
      {
        "astId": 11647,
        "contract": "contracts/StakedCelo.sol:StakedCelo",
        "label": "_symbol",
        "offset": 0,
        "slot": "55",
        "type": "t_string_storage"
      },
      {
        "astId": 12228,
        "contract": "contracts/StakedCelo.sol:StakedCelo",
        "label": "__gap",
        "offset": 0,
        "slot": "56",
        "type": "t_array(t_uint256)45_storage"
      },
      {
        "astId": 10,
        "contract": "contracts/StakedCelo.sol:StakedCelo",
        "label": "_owner",
        "offset": 0,
        "slot": "101",
        "type": "t_address"
      },
      {
        "astId": 122,
        "contract": "contracts/StakedCelo.sol:StakedCelo",
        "label": "__gap",
        "offset": 0,
        "slot": "102",
        "type": "t_array(t_uint256)49_storage"
      },
      {
        "astId": 6996,
        "contract": "contracts/StakedCelo.sol:StakedCelo",
        "label": "manager",
        "offset": 0,
        "slot": "151",
        "type": "t_address"
      },
      {
        "astId": 10352,
        "contract": "contracts/StakedCelo.sol:StakedCelo",
        "label": "_lockedBalances",
        "offset": 0,
        "slot": "152",
        "type": "t_mapping(t_address,t_uint256)"
      }
    ],
    "types": {
      "t_address": {
        "encoding": "inplace",
        "label": "address",
        "numberOfBytes": "20"
      },
      "t_array(t_uint256)45_storage": {
        "base": "t_uint256",
        "encoding": "inplace",
        "label": "uint256[45]",
        "numberOfBytes": "1440"
      },
      "t_array(t_uint256)49_storage": {
        "base": "t_uint256",
        "encoding": "inplace",
        "label": "uint256[49]",
        "numberOfBytes": "1568"
      },
      "t_array(t_uint256)50_storage": {
        "base": "t_uint256",
        "encoding": "inplace",
        "label": "uint256[50]",
        "numberOfBytes": "1600"
      },
      "t_bool": {
        "encoding": "inplace",
        "label": "bool",
        "numberOfBytes": "1"
      },
      "t_mapping(t_address,t_mapping(t_address,t_uint256))": {
        "encoding": "mapping",
        "key": "t_address",
        "label": "mapping(address => mapping(address => uint256))",
        "numberOfBytes": "32",
        "value": "t_mapping(t_address,t_uint256)"
      },
      "t_mapping(t_address,t_uint256)": {
        "encoding": "mapping",
        "key": "t_address",
        "label": "mapping(address => uint256)",
        "numberOfBytes": "32",
        "value": "t_uint256"
      },
      "t_string_storage": {
        "encoding": "bytes",
        "label": "string",
        "numberOfBytes": "32"
      },
      "t_uint256": {
        "encoding": "inplace",
        "label": "uint256",
        "numberOfBytes": "32"
      }
    }
  }
}