{
  "address": "0x655f0Ac07c850412e6499670fDB9Cef54c3C70fC",
  "abi": [
    {
      "inputs": [],
      "stateMutability": "nonpayable",
      "type": "constructor"
    },
    {
      "inputs": [],
      "name": "AddressZeroNotAllowed",
      "type": "error"
    },
    {
      "inputs": [
        {
          "internalType": "address",
          "name": "caller",
          "type": "address"
        }
      ],
      "name": "CallerNotManager",
      "type": "error"
    },
    {
      "inputs": [],
      "name": "IncorrectIndex",
      "type": "error"
    },
    {
      "inputs": [
        {
          "internalType": "address",
          "name": "account",
          "type": "address"
        }
      ],
      "name": "NoStakedCelo",
      "type": "error"
    },
    {
      "inputs": [
        {
          "internalType": "address",
          "name": "account",
          "type": "address"
        }
      ],
      "name": "NotEnoughStakedCelo",
      "type": "error"
    },
    {
      "inputs": [],
      "name": "NullAddress",
      "type": "error"
    },
    {
      "inputs": [],
      "name": "ProposalNotExpired",
      "type": "error"
    },
    {
      "anonymous": false,
      "inputs": [
        {
          "indexed": false,
          "internalType": "address",
          "name": "previousAdmin",
          "type": "address"
        },
        {
          "indexed": false,
          "internalType": "address",
          "name": "newAdmin",
          "type": "address"
        }
      ],
      "name": "AdminChanged",
      "type": "event"
    },
    {
      "anonymous": false,
      "inputs": [
        {
          "indexed": true,
          "internalType": "address",
          "name": "beacon",
          "type": "address"
        }
      ],
      "name": "BeaconUpgraded",
      "type": "event"
    },
    {
      "anonymous": false,
      "inputs": [
        {
          "indexed": false,
          "internalType": "address",
          "name": "account",
          "type": "address"
        },
        {
          "indexed": false,
          "internalType": "uint256",
          "name": "lockedCelo",
          "type": "uint256"
        }
      ],
      "name": "LockedStCeloInVoting",
      "type": "event"
    },
    {
      "anonymous": false,
      "inputs": [
        {
          "indexed": true,
          "internalType": "address",
          "name": "manager",
          "type": "address"
        }
      ],
      "name": "ManagerSet",
      "type": "event"
    },
    {
      "anonymous": false,
      "inputs": [
        {
          "indexed": true,
          "internalType": "address",
          "name": "previousOwner",
          "type": "address"
        },
        {
          "indexed": true,
          "internalType": "address",
          "name": "newOwner",
          "type": "address"
        }
      ],
      "name": "OwnershipTransferred",
      "type": "event"
    },
    {
      "anonymous": false,
      "inputs": [
        {
          "indexed": true,
          "internalType": "address",
          "name": "voter",
          "type": "address"
        },
        {
          "indexed": true,
          "internalType": "uint256",
          "name": "proposalId",
          "type": "uint256"
        },
        {
          "indexed": false,
          "internalType": "uint256",
          "name": "yesVotes",
          "type": "uint256"
        },
        {
          "indexed": false,
          "internalType": "uint256",
          "name": "noVotes",
          "type": "uint256"
        },
        {
          "indexed": false,
          "internalType": "uint256",
          "name": "abstainVotes",
          "type": "uint256"
        }
      ],
      "name": "ProposalVoted",
      "type": "event"
    },
    {
      "anonymous": false,
      "inputs": [
        {
          "indexed": true,
          "internalType": "address",
          "name": "implementation",
          "type": "address"
        }
      ],
      "name": "Upgraded",
      "type": "event"
    },
    {
      "inputs": [
        {
          "internalType": "uint256",
          "name": "proposalId",
          "type": "uint256"
        }
      ],
      "name": "deleteExpiredProposalTimestamp",
      "outputs": [],
      "stateMutability": "nonpayable",
      "type": "function"
    },
    {
      "inputs": [
        {
          "internalType": "address",
          "name": "voter",
          "type": "address"
        },
        {
          "internalType": "uint256",
          "name": "proposalId",
          "type": "uint256"
        },
        {
          "internalType": "uint256",
          "name": "index",
          "type": "uint256"
        }
      ],
      "name": "deleteExpiredVoterProposalId",
      "outputs": [],
      "stateMutability": "nonpayable",
      "type": "function"
    },
    {
      "inputs": [
        {
          "internalType": "address",
          "name": "beneficiary",
          "type": "address"
        }
      ],
      "name": "getLockedStCeloInVoting",
      "outputs": [
        {
          "internalType": "uint256",
          "name": "",
          "type": "uint256"
        }
      ],
      "stateMutability": "view",
      "type": "function"
    },
    {
      "inputs": [
        {
          "internalType": "uint256",
          "name": "proposalId",
          "type": "uint256"
        }
      ],
      "name": "getProposalTimestamp",
      "outputs": [
        {
          "internalType": "uint256",
          "name": "",
          "type": "uint256"
        }
      ],
      "stateMutability": "view",
      "type": "function"
    },
    {
      "inputs": [],
      "name": "getReferendumDuration",
      "outputs": [
        {
          "internalType": "uint256",
          "name": "",
          "type": "uint256"
        }
      ],
      "stateMutability": "view",
      "type": "function"
    },
    {
      "inputs": [],
      "name": "getVersionNumber",
      "outputs": [
        {
          "internalType": "uint256",
          "name": "",
          "type": "uint256"
        },
        {
          "internalType": "uint256",
          "name": "",
          "type": "uint256"
        },
        {
          "internalType": "uint256",
          "name": "",
          "type": "uint256"
        },
        {
          "internalType": "uint256",
          "name": "",
          "type": "uint256"
        }
      ],
      "stateMutability": "pure",
      "type": "function"
    },
    {
      "inputs": [
        {
          "internalType": "uint256",
          "name": "proposalId",
          "type": "uint256"
        }
      ],
      "name": "getVoteRecord",
      "outputs": [
        {
          "components": [
            {
              "internalType": "uint256",
              "name": "proposalId",
              "type": "uint256"
            },
            {
              "internalType": "uint256",
              "name": "yesVotes",
              "type": "uint256"
            },
            {
              "internalType": "uint256",
              "name": "noVotes",
              "type": "uint256"
            },
            {
              "internalType": "uint256",
              "name": "abstainVotes",
              "type": "uint256"
            }
          ],
          "internalType": "struct Vote.ProposalVoteRecord",
          "name": "",
          "type": "tuple"
        }
      ],
      "stateMutability": "view",
      "type": "function"
    },
    {
      "inputs": [
        {
          "internalType": "address",
          "name": "beneficiary",
          "type": "address"
        }
      ],
      "name": "getVoteWeight",
      "outputs": [
        {
          "internalType": "uint256",
          "name": "",
          "type": "uint256"
        }
      ],
      "stateMutability": "view",
      "type": "function"
    },
    {
      "inputs": [
        {
          "internalType": "address",
          "name": "voter",
          "type": "address"
        }
      ],
      "name": "getVotedStillRelevantProposals",
      "outputs": [
        {
          "internalType": "uint256[]",
          "name": "",
          "type": "uint256[]"
        }
      ],
      "stateMutability": "view",
      "type": "function"
    },
    {
      "inputs": [
        {
          "internalType": "address",
          "name": "_registry",
          "type": "address"
        },
        {
          "internalType": "address",
          "name": "_owner",
          "type": "address"
        },
        {
          "internalType": "address",
          "name": "_manager",
          "type": "address"
        }
      ],
      "name": "initialize",
      "outputs": [],
      "stateMutability": "nonpayable",
      "type": "function"
    },
    {
      "inputs": [],
      "name": "manager",
      "outputs": [
        {
          "internalType": "address",
          "name": "",
          "type": "address"
        }
      ],
      "stateMutability": "view",
      "type": "function"
    },
    {
      "inputs": [],
      "name": "owner",
      "outputs": [
        {
          "internalType": "address",
          "name": "",
          "type": "address"
        }
      ],
      "stateMutability": "view",
      "type": "function"
    },
    {
      "inputs": [
        {
          "internalType": "uint256",
          "name": "",
          "type": "uint256"
        }
      ],
      "name": "proposalTimestamps",
      "outputs": [
        {
          "internalType": "uint256",
          "name": "",
          "type": "uint256"
        }
      ],
      "stateMutability": "view",
      "type": "function"
    },
    {
      "inputs": [],
      "name": "registry",
      "outputs": [
        {
          "internalType": "contract IRegistry",
          "name": "",
          "type": "address"
        }
      ],
      "stateMutability": "view",
      "type": "function"
    },
    {
      "inputs": [],
      "name": "renounceOwnership",
      "outputs": [],
      "stateMutability": "nonpayable",
      "type": "function"
    },
    {
      "inputs": [
        {
          "internalType": "address",
          "name": "accountVoter",
          "type": "address"
        },
        {
          "internalType": "uint256",
          "name": "proposalId",
          "type": "uint256"
        }
      ],
      "name": "revokeVotes",
      "outputs": [
        {
          "internalType": "uint256",
          "name": "totalYesVotes",
          "type": "uint256"
        },
        {
          "internalType": "uint256",
          "name": "totalNoVotes",
          "type": "uint256"
        },
        {
          "internalType": "uint256",
          "name": "totalAbstainVotes",
          "type": "uint256"
        }
      ],
      "stateMutability": "nonpayable",
      "type": "function"
    },
    {
      "inputs": [
        {
          "internalType": "address",
          "name": "_stakedCelo",
          "type": "address"
        },
        {
          "internalType": "address",
          "name": "_account",
          "type": "address"
        }
      ],
      "name": "setDependencies",
      "outputs": [],
      "stateMutability": "nonpayable",
      "type": "function"
    },
    {
      "inputs": [
        {
          "internalType": "address",
          "name": "_manager",
          "type": "address"
        }
      ],
      "name": "setManager",
      "outputs": [],
      "stateMutability": "nonpayable",
      "type": "function"
    },
    {
      "inputs": [
        {
          "internalType": "uint256",
          "name": "stCeloAmount",
          "type": "uint256"
        }
      ],
      "name": "toCelo",
      "outputs": [
        {
          "internalType": "uint256",
          "name": "",
          "type": "uint256"
        }
      ],
      "stateMutability": "view",
      "type": "function"
    },
    {
      "inputs": [
        {
          "internalType": "uint256",
          "name": "celoAmount",
          "type": "uint256"
        }
      ],
      "name": "toStakedCelo",
      "outputs": [
        {
          "internalType": "uint256",
          "name": "",
          "type": "uint256"
        }
      ],
      "stateMutability": "view",
      "type": "function"
    },
    {
      "inputs": [
        {
          "internalType": "address",
          "name": "newOwner",
          "type": "address"
        }
      ],
      "name": "transferOwnership",
      "outputs": [],
      "stateMutability": "nonpayable",
      "type": "function"
    },
    {
      "inputs": [
        {
          "internalType": "address",
          "name": "beneficiary",
          "type": "address"
        }
      ],
      "name": "updateHistoryAndReturnLockedStCeloInVoting",
      "outputs": [
        {
          "internalType": "uint256",
          "name": "",
          "type": "uint256"
        }
      ],
      "stateMutability": "nonpayable",
      "type": "function"
    },
    {
      "inputs": [
        {
          "internalType": "address",
          "name": "newImplementation",
          "type": "address"
        }
      ],
      "name": "upgradeTo",
      "outputs": [],
      "stateMutability": "nonpayable",
      "type": "function"
    },
    {
      "inputs": [
        {
          "internalType": "address",
          "name": "newImplementation",
          "type": "address"
        },
        {
          "internalType": "bytes",
          "name": "data",
          "type": "bytes"
        }
      ],
      "name": "upgradeToAndCall",
      "outputs": [],
      "stateMutability": "payable",
      "type": "function"
    },
    {
      "inputs": [
        {
          "internalType": "address",
          "name": "accountVoter",
          "type": "address"
        },
        {
          "internalType": "uint256",
          "name": "proposalId",
          "type": "uint256"
        },
        {
          "internalType": "uint256",
          "name": "yesVotes",
          "type": "uint256"
        },
        {
          "internalType": "uint256",
          "name": "noVotes",
          "type": "uint256"
        },
        {
          "internalType": "uint256",
          "name": "abstainVotes",
          "type": "uint256"
        }
      ],
      "name": "voteProposal",
      "outputs": [
        {
          "internalType": "uint256",
          "name": "",
          "type": "uint256"
        },
        {
          "internalType": "uint256",
          "name": "totalYesVotes",
          "type": "uint256"
        },
        {
          "internalType": "uint256",
          "name": "totalNoVotes",
          "type": "uint256"
        },
        {
          "internalType": "uint256",
          "name": "totalAbstainVotes",
          "type": "uint256"
        }
      ],
      "stateMutability": "nonpayable",
      "type": "function"
    }
  ],
  "transactionHash": "0x812e9483a9bc249118499a8a2d85b937f1f728cc46167f917b1f66696365e4d8",
  "args": [],
  "numDeployments": 1,
  "solcInputHash": "27c7c680112f4cbd9a19d8d22fcc316c",
  "bytecode": "0x60a06040523073ffffffffffffffffffffffffffffffffffffffff1660809073ffffffffffffffffffffffffffffffffffffffff168152503480156200004457600080fd5b50600060019054906101000a900460ff166200006f5760008054906101000a900460ff161562000080565b6200007f6200013c60201b60201c565b5b620000c2576040517f08c379a0000000000000000000000000000000000000000000000000000000008152600401620000b99062000204565b60405180910390fd5b60008060019054906101000a900460ff16159050801562000113576001600060016101000a81548160ff02191690831515021790555060016000806101000a81548160ff0219169083151502179055505b8015620001355760008060016101000a81548160ff0219169083151502179055505b5062000226565b600062000154306200015a60201b620021201760201c565b15905090565b6000808273ffffffffffffffffffffffffffffffffffffffff163b119050919050565b600082825260208201905092915050565b7f496e697469616c697a61626c653a20636f6e747261637420697320616c72656160008201527f647920696e697469616c697a6564000000000000000000000000000000000000602082015250565b6000620001ec602e836200017d565b9150620001f9826200018e565b604082019050919050565b600060208201905081810360008301526200021f81620001dd565b9050919050565b608051613c7c6200025760003960008181610bb901528181610c4801528181611600015261168f0152613c7c6000f3fe6080604052600436106101665760003560e01c8063577bae25116100d1578063abaaecf91161008a578063c494ec1e11610064578063c494ec1e14610583578063d0ebdbe7146105c0578063e87c28a7146105e9578063f2fde38b1461061257610166565b8063abaaecf9146104de578063c0c53b8b1461051b578063c40da15c1461054457610166565b8063577bae25146103e0578063715018a6146104095780637b103999146104205780638cc9931f1461044b5780638da5cb5b14610476578063a730117e146104a157610166565b80633659cfe6116101235780633659cfe6146102c5578063481c6a75146102ee57806348fd6ea6146103195780634c23f22e146103565780634f1ef2861461039657806354255be0146103b257610166565b80630567847f1461016b5780630d526b96146101a8578063121634e8146101e557806319a7aff0146102225780632488d9091461024b5780633127ce3214610288575b600080fd5b34801561017757600080fd5b50610192600480360381019061018d9190612b06565b61063b565b60405161019f9190612b42565b60405180910390f35b3480156101b457600080fd5b506101cf60048036038101906101ca9190612b06565b6107a5565b6040516101dc9190612b42565b60405180910390f35b3480156101f157600080fd5b5061020c60048036038101906102079190612bbb565b61083d565b6040516102199190612b42565b60405180910390f35b34801561022e57600080fd5b5061024960048036038101906102449190612b06565b6109dc565b005b34801561025757600080fd5b50610272600480360381019061026d9190612b06565b610ac8565b60405161027f9190612c4c565b60405180910390f35b34801561029457600080fd5b506102af60048036038101906102aa9190612bbb565b610b1d565b6040516102bc9190612d16565b60405180910390f35b3480156102d157600080fd5b506102ec60048036038101906102e79190612bbb565b610bb7565b005b3480156102fa57600080fd5b50610303610d40565b6040516103109190612d47565b60405180910390f35b34801561032557600080fd5b50610340600480360381019061033b9190612bbb565b610d66565b60405161034d9190612b42565b60405180910390f35b34801561036257600080fd5b5061037d60048036038101906103789190612d62565b611064565b60405161038d9493929190612ddd565b60405180910390f35b6103b060048036038101906103ab9190612f68565b6115fe565b005b3480156103be57600080fd5b506103c761173b565b6040516103d79493929190612ddd565b60405180910390f35b3480156103ec57600080fd5b5061040760048036038101906104029190612fc4565b611756565b005b34801561041557600080fd5b5061041e6118b8565b005b34801561042c57600080fd5b50610435611940565b6040516104429190613076565b60405180910390f35b34801561045757600080fd5b50610460611966565b60405161046d9190612b42565b60405180910390f35b34801561048257600080fd5b5061048b6119e3565b6040516104989190612d47565b60405180910390f35b3480156104ad57600080fd5b506104c860048036038101906104c39190612bbb565b611a0d565b6040516104d59190612b42565b60405180910390f35b3480156104ea57600080fd5b5061050560048036038101906105009190612b06565b611abf565b6040516105129190612b42565b60405180910390f35b34801561052757600080fd5b50610542600480360381019061053d9190613091565b611ad7565b005b34801561055057600080fd5b5061056b600480360381019061056691906130e4565b611bd9565b60405161057a93929190613124565b60405180910390f35b34801561058f57600080fd5b506105aa60048036038101906105a59190612b06565b611c96565b6040516105b79190612b42565b60405180910390f35b3480156105cc57600080fd5b506105e760048036038101906105e29190612bbb565b611e00565b005b3480156105f557600080fd5b50610610600480360381019061060b919061315b565b611e88565b005b34801561061e57600080fd5b5061063960048036038101906106349190612bbb565b612028565b005b600080606760009054906101000a900473ffffffffffffffffffffffffffffffffffffffff1673ffffffffffffffffffffffffffffffffffffffff166318160ddd6040518163ffffffff1660e01b8152600401602060405180830381865afa1580156106ab573d6000803e3d6000fd5b505050506040513d601f19601f820116820180604052508101906106cf91906131b0565b90506000606860009054906101000a900473ffffffffffffffffffffffffffffffffffffffff1673ffffffffffffffffffffffffffffffffffffffff166301d2b6ea6040518163ffffffff1660e01b8152600401602060405180830381865afa158015610740573d6000803e3d6000fd5b505050506040513d601f19601f8201168201806040525081019061076491906131b0565b905060008214806107755750600081145b156107845783925050506107a0565b818185610791919061320c565b61079b9190613295565b925050505b919050565b6000806107b0612143565b73ffffffffffffffffffffffffffffffffffffffff1663c7f758a8846040518263ffffffff1660e01b81526004016107e89190612b42565b600060405180830381865afa158015610805573d6000803e3d6000fd5b505050506040513d6000823e3d601f19601f8201168201806040525081019061082e91906133af565b50509250505080915050919050565b600080606a60008473ffffffffffffffffffffffffffffffffffffffff1673ffffffffffffffffffffffffffffffffffffffff1681526020019081526020016000209050600080826001018054905090505b60008111156109c957600083600101826108a890613446565b925082815481106108bc576108bb613470565b5b906000526020600020015490506000606b600083815260200190815260200160002054905060008114156108f157505061088f565b6108f9612143565b73ffffffffffffffffffffffffffffffffffffffff1663ad78c1096040518163ffffffff1660e01b8152600401602060405180830381865afa158015610943573d6000803e3d6000fd5b505050506040513d601f19601f8201168201806040525081019061096791906131b0565b81610972919061349f565b4210156109c257600085600001600084815260200190815260200160002090506109be858260030154836002015484600101546109af919061349f565b6109b9919061349f565b61220a565b9450505b505061088f565b6109d282611c96565b9350505050919050565b6000606b60008381526020019081526020016000205490506109fc612143565b73ffffffffffffffffffffffffffffffffffffffff1663ad78c1096040518163ffffffff1660e01b8152600401602060405180830381865afa158015610a46573d6000803e3d6000fd5b505050506040513d601f19601f82011682018060405250810190610a6a91906131b0565b81610a75919061349f565b4211610aad576040517f8251df3000000000000000000000000000000000000000000000000000000000815260040160405180910390fd5b606b6000838152602001908152602001600020600090555050565b610ad0612a94565b606960008381526020019081526020016000206040518060800160405290816000820154815260200160018201548152602001600282015481526020016003820154815250509050919050565b6060606a60008373ffffffffffffffffffffffffffffffffffffffff1673ffffffffffffffffffffffffffffffffffffffff168152602001908152602001600020600101805480602002602001604051908101604052809291908181526020018280548015610bab57602002820191906000526020600020905b815481526020019060010190808311610b97575b50505050509050919050565b7f000000000000000000000000000000000000000000000000000000000000000073ffffffffffffffffffffffffffffffffffffffff163073ffffffffffffffffffffffffffffffffffffffff161415610c46576040517f08c379a0000000000000000000000000000000000000000000000000000000008152600401610c3d90613578565b60405180910390fd5b7f000000000000000000000000000000000000000000000000000000000000000073ffffffffffffffffffffffffffffffffffffffff16610c85612224565b73ffffffffffffffffffffffffffffffffffffffff1614610cdb576040517f08c379a0000000000000000000000000000000000000000000000000000000008152600401610cd29061360a565b60405180910390fd5b610ce48161227b565b610d3d81600067ffffffffffffffff811115610d0357610d02612e3d565b5b6040519080825280601f01601f191660200182016040528015610d355781602001600182028036833780820191505090505b5060006122fa565b50565b606660009054906101000a900473ffffffffffffffffffffffffffffffffffffffff1681565b600080606a60008473ffffffffffffffffffffffffffffffffffffffff1673ffffffffffffffffffffffffffffffffffffffff1681526020019081526020016000209050600080826001018054905090505b60008111156110125760008360010182610dd190613446565b92508281548110610de557610de4613470565b5b906000526020600020015490506000606b60008381526020019081526020016000205490506000811415610e9c578460010160018660010180549050610e2b919061362a565b81548110610e3c57610e3b613470565b5b9060005260206000200154856001018481548110610e5d57610e5c613470565b5b906000526020600020018190555084600101805480610e7f57610e7e61365e565b5b600190038181906000526020600020016000905590555050610db8565b610ea4612143565b73ffffffffffffffffffffffffffffffffffffffff1663ad78c1096040518163ffffffff1660e01b8152600401602060405180830381865afa158015610eee573d6000803e3d6000fd5b505050506040513d601f19601f82011682018060405250810190610f1291906131b0565b81610f1d919061349f565b421015610f715760008560000160008481526020019081526020016000209050610f6985826003015483600201548460010154610f5a919061349f565b610f64919061349f565b61220a565b94505061100b565b8460010160018660010180549050610f89919061362a565b81548110610f9a57610f99613470565b5b9060005260206000200154856001018481548110610fbb57610fba613470565b5b906000526020600020018190555084600101805480610fdd57610fdc61365e565b5b60019003818190600052602060002001600090559055606b6000838152602001908152602001600020600090555b5050610db8565b600061101d83611c96565b90507f7c6f785c69c2af01e80f58e72c654a146308c1a70e15028f45ac1d98b0830388868260405161105092919061368d565b60405180910390a180945050505050919050565b6000806000803373ffffffffffffffffffffffffffffffffffffffff16606660009054906101000a900473ffffffffffffffffffffffffffffffffffffffff1673ffffffffffffffffffffffffffffffffffffffff16146110fc57336040517f3b2495f10000000000000000000000000000000000000000000000000000000081526004016110f39190612d47565b60405180910390fd5b6000606760009054906101000a900473ffffffffffffffffffffffffffffffffffffffff1673ffffffffffffffffffffffffffffffffffffffff1663536a5f278b6040518263ffffffff1660e01b81526004016111599190612d47565b602060405180830381865afa158015611176573d6000803e3d6000fd5b505050506040513d601f19601f8201168201806040525081019061119a91906131b0565b606760009054906101000a900473ffffffffffffffffffffffffffffffffffffffff1673ffffffffffffffffffffffffffffffffffffffff166370a082318c6040518263ffffffff1660e01b81526004016111f59190612d47565b602060405180830381865afa158015611212573d6000803e3d6000fd5b505050506040513d601f19601f8201168201806040525081019061123691906131b0565b611240919061349f565b9050600081141561128857896040517f09835c4f00000000000000000000000000000000000000000000000000000000815260040161127f9190612d47565b60405180910390fd5b600086888a611297919061349f565b6112a1919061349f565b90506112ac8261063b565b8111156112f0578a6040517f25becec40000000000000000000000000000000000000000000000000000000081526004016112e79190612d47565b60405180910390fd5b6000606a60008d73ffffffffffffffffffffffffffffffffffffffff1673ffffffffffffffffffffffffffffffffffffffff168152602001908152602001600020905060008160000160008d815260200190815260200160002090506000606960008e815260200190815260200160002060405180608001604052908160008201548152602001600182015481526020016002820154815260200160038201548152505090508160010154816020018181516113ac919061362a565b915081815250508160020154816040018181516113c9919061362a565b915081815250508160030154816060018181516113e6919061362a565b915081815250508b816020018181516113ff919061349f565b915081815250508a81604001818151611418919061349f565b915081815250508981606001818151611431919061349f565b9150818152505060405180608001604052808e815260200182602001518152602001826040015181526020018260600151815250606960008f8152602001908152602001600020600082015181600001556020820151816001015560408201518160020155606082015181600301559050506000826000015414156114dc57826001018d90806001815401808255809150506001900390600052602060002001600090919091909150555b60405180608001604052808e81526020018d81526020018c81526020018b8152508360000160008f8152602001908152602001600020600082015181600001556020820151816001015560408201518160020155606082015181600301559050508c8e73ffffffffffffffffffffffffffffffffffffffff167fccddc503efe2d90a6cc16414e99fd2826fd7d72313194d217e36278c0905f9438e8e8e60405161158893929190613124565b60405180910390a36000606b60008f81526020019081526020016000205414156115cd576115b58d6107a5565b606b60008f8152602001908152602001600020819055505b6115d684611c96565b8160200151826040015183606001519850985098509850505050505095509550955095915050565b7f000000000000000000000000000000000000000000000000000000000000000073ffffffffffffffffffffffffffffffffffffffff163073ffffffffffffffffffffffffffffffffffffffff16141561168d576040517f08c379a000000000000000000000000000000000000000000000000000000000815260040161168490613578565b60405180910390fd5b7f000000000000000000000000000000000000000000000000000000000000000073ffffffffffffffffffffffffffffffffffffffff166116cc612224565b73ffffffffffffffffffffffffffffffffffffffff1614611722576040517f08c379a00000000000000000000000000000000000000000000000000000000081526004016117199061360a565b60405180910390fd5b61172b8261227b565b611737828260016122fa565b5050565b60008060008060018060026000935093509350935090919293565b6000606a60008573ffffffffffffffffffffffffffffffffffffffff1673ffffffffffffffffffffffffffffffffffffffff168152602001908152602001600020905060008160010183815481106117b1576117b0613470565b5b9060005260206000200154905060008114806117cd5750838114155b15611804576040517f07cc4d8f00000000000000000000000000000000000000000000000000000000815260040160405180910390fd5b6000606b60008681526020019081526020016000205490506000811461182e5761182d856109dc565b5b8260010160018460010180549050611846919061362a565b8154811061185757611856613470565b5b906000526020600020015483600101858154811061187857611877613470565b5b90600052602060002001819055508260010180548061189a5761189961365e565b5b60019003818190600052602060002001600090559055505050505050565b6118c06124cb565b73ffffffffffffffffffffffffffffffffffffffff166118de6119e3565b73ffffffffffffffffffffffffffffffffffffffff1614611934576040517f08c379a000000000000000000000000000000000000000000000000000000000815260040161192b90613702565b60405180910390fd5b61193e60006124d3565b565b606560009054906101000a900473ffffffffffffffffffffffffffffffffffffffff1681565b6000611970612143565b73ffffffffffffffffffffffffffffffffffffffff1663ad78c1096040518163ffffffff1660e01b8152600401602060405180830381865afa1580156119ba573d6000803e3d6000fd5b505050506040513d601f19601f820116820180604052508101906119de91906131b0565b905090565b6000603360009054906101000a900473ffffffffffffffffffffffffffffffffffffffff16905090565b600080606760009054906101000a900473ffffffffffffffffffffffffffffffffffffffff1673ffffffffffffffffffffffffffffffffffffffff166370a08231846040518263ffffffff1660e01b8152600401611a6b9190612d47565b602060405180830381865afa158015611a88573d6000803e3d6000fd5b505050506040513d601f19601f82011682018060405250810190611aac91906131b0565b9050611ab78161063b565b915050919050565b606b6020528060005260406000206000915090505481565b600060019054906101000a900460ff16611aff5760008054906101000a900460ff1615611b08565b611b07612599565b5b611b47576040517f08c379a0000000000000000000000000000000000000000000000000000000008152600401611b3e90613794565b60405180910390fd5b60008060019054906101000a900460ff161590508015611b97576001600060016101000a81548160ff02191690831515021790555060016000806101000a81548160ff0219169083151502179055505b611ba0846125aa565b611ba9826126bb565b611bb2836124d3565b8015611bd35760008060016101000a81548160ff0219169083151502179055505b50505050565b60008060003373ffffffffffffffffffffffffffffffffffffffff16606660009054906101000a900473ffffffffffffffffffffffffffffffffffffffff1673ffffffffffffffffffffffffffffffffffffffff1614611c7057336040517f3b2495f1000000000000000000000000000000000000000000000000000000008152600401611c679190612d47565b60405180910390fd5b611c7f85856000806000611064565b909192508093508194508295505050509250925092565b600080606760009054906101000a900473ffffffffffffffffffffffffffffffffffffffff1673ffffffffffffffffffffffffffffffffffffffff166318160ddd6040518163ffffffff1660e01b8152600401602060405180830381865afa158015611d06573d6000803e3d6000fd5b505050506040513d601f19601f82011682018060405250810190611d2a91906131b0565b90506000606860009054906101000a900473ffffffffffffffffffffffffffffffffffffffff1673ffffffffffffffffffffffffffffffffffffffff166301d2b6ea6040518163ffffffff1660e01b8152600401602060405180830381865afa158015611d9b573d6000803e3d6000fd5b505050506040513d601f19601f82011682018060405250810190611dbf91906131b0565b90506000821480611dd05750600081145b15611ddf578392505050611dfb565b808285611dec919061320c565b611df69190613295565b925050505b919050565b611e086124cb565b73ffffffffffffffffffffffffffffffffffffffff16611e266119e3565b73ffffffffffffffffffffffffffffffffffffffff1614611e7c576040517f08c379a0000000000000000000000000000000000000000000000000000000008152600401611e7390613702565b60405180910390fd5b611e8581612716565b50565b611e906124cb565b73ffffffffffffffffffffffffffffffffffffffff16611eae6119e3565b73ffffffffffffffffffffffffffffffffffffffff1614611f04576040517f08c379a0000000000000000000000000000000000000000000000000000000008152600401611efb90613702565b60405180910390fd5b600073ffffffffffffffffffffffffffffffffffffffff168273ffffffffffffffffffffffffffffffffffffffff161480611f6b5750600073ffffffffffffffffffffffffffffffffffffffff168173ffffffffffffffffffffffffffffffffffffffff16145b15611fa2576040517f0855380c00000000000000000000000000000000000000000000000000000000815260040160405180910390fd5b81606760006101000a81548173ffffffffffffffffffffffffffffffffffffffff021916908373ffffffffffffffffffffffffffffffffffffffff16021790555080606860006101000a81548173ffffffffffffffffffffffffffffffffffffffff021916908373ffffffffffffffffffffffffffffffffffffffff1602179055505050565b6120306124cb565b73ffffffffffffffffffffffffffffffffffffffff1661204e6119e3565b73ffffffffffffffffffffffffffffffffffffffff16146120a4576040517f08c379a000000000000000000000000000000000000000000000000000000000815260040161209b90613702565b60405180910390fd5b600073ffffffffffffffffffffffffffffffffffffffff168173ffffffffffffffffffffffffffffffffffffffff161415612114576040517f08c379a000000000000000000000000000000000000000000000000000000000815260040161210b90613826565b60405180910390fd5b61211d816124d3565b50565b6000808273ffffffffffffffffffffffffffffffffffffffff163b119050919050565b6000606560009054906101000a900473ffffffffffffffffffffffffffffffffffffffff1673ffffffffffffffffffffffffffffffffffffffff1663dcf0aaed6040516020016121929061389d565b604051602081830303815290604052805190602001206040518263ffffffff1660e01b81526004016121c491906138cb565b602060405180830381865afa1580156121e1573d6000803e3d6000fd5b505050506040513d601f19601f8201168201806040525081019061220591906138e6565b905090565b60008183101561221a578161221c565b825b905092915050565b60006122527f360894a13ba1a3210667c828492db98dca3e2076cc3735a920a3ca505d382bbc60001b612804565b60000160009054906101000a900473ffffffffffffffffffffffffffffffffffffffff16905090565b6122836124cb565b73ffffffffffffffffffffffffffffffffffffffff166122a16119e3565b73ffffffffffffffffffffffffffffffffffffffff16146122f7576040517f08c379a00000000000000000000000000000000000000000000000000000000081526004016122ee90613702565b60405180910390fd5b50565b6000612304612224565b905061230f8461280e565b60008351118061231c5750815b1561232d5761232b84846128c7565b505b600061235b7f4910fdfa16fed3260ed0e7147f7cc6da11a60208b5b9406d12a635614ffd914360001b6128f4565b90508060000160009054906101000a900460ff166124c45760018160000160006101000a81548160ff02191690831515021790555061242785836040516024016123a59190612d47565b6040516020818303038152906040527f3659cfe6000000000000000000000000000000000000000000000000000000007bffffffffffffffffffffffffffffffffffffffffffffffffffffffff19166020820180517bffffffffffffffffffffffffffffffffffffffffffffffffffffffff83818316178352505050506128c7565b5060008160000160006101000a81548160ff02191690831515021790555061244d612224565b73ffffffffffffffffffffffffffffffffffffffff168273ffffffffffffffffffffffffffffffffffffffff16146124ba576040517f08c379a00000000000000000000000000000000000000000000000000000000081526004016124b190613985565b60405180910390fd5b6124c3856128fe565b5b5050505050565b600033905090565b6000603360009054906101000a900473ffffffffffffffffffffffffffffffffffffffff16905081603360006101000a81548173ffffffffffffffffffffffffffffffffffffffff021916908373ffffffffffffffffffffffffffffffffffffffff1602179055508173ffffffffffffffffffffffffffffffffffffffff168173ffffffffffffffffffffffffffffffffffffffff167f8be0079c531659141344cd1fd0a4f28419497f9722a3daafe3b4186f6b6457e060405160405180910390a35050565b60006125a430612120565b15905090565b600060019054906101000a900460ff166125f9576040517f08c379a00000000000000000000000000000000000000000000000000000000081526004016125f090613a17565b60405180910390fd5b600073ffffffffffffffffffffffffffffffffffffffff168173ffffffffffffffffffffffffffffffffffffffff1614156126765761ce10606560006101000a81548173ffffffffffffffffffffffffffffffffffffffff021916908373ffffffffffffffffffffffffffffffffffffffff1602179055506126b8565b80606560006101000a81548173ffffffffffffffffffffffffffffffffffffffff021916908373ffffffffffffffffffffffffffffffffffffffff1602179055505b50565b600060019054906101000a900460ff1661270a576040517f08c379a000000000000000000000000000000000000000000000000000000000815260040161270190613a17565b60405180910390fd5b61271381612716565b50565b600073ffffffffffffffffffffffffffffffffffffffff168173ffffffffffffffffffffffffffffffffffffffff16141561277d576040517fe99d5ac500000000000000000000000000000000000000000000000000000000815260040160405180910390fd5b80606660006101000a81548173ffffffffffffffffffffffffffffffffffffffff021916908373ffffffffffffffffffffffffffffffffffffffff1602179055508073ffffffffffffffffffffffffffffffffffffffff167f60a0f5b9f9e81e98216071b85826681c796256fe3d1354ecb675580fba64fa6960405160405180910390a250565b6000819050919050565b6128178161294d565b612856576040517f08c379a000000000000000000000000000000000000000000000000000000000815260040161284d90613aa9565b60405180910390fd5b806128837f360894a13ba1a3210667c828492db98dca3e2076cc3735a920a3ca505d382bbc60001b612804565b60000160006101000a81548173ffffffffffffffffffffffffffffffffffffffff021916908373ffffffffffffffffffffffffffffffffffffffff16021790555050565b60606128ec8383604051806060016040528060278152602001613c2060279139612960565b905092915050565b6000819050919050565b6129078161280e565b8073ffffffffffffffffffffffffffffffffffffffff167fbc7cd75a20ee27fd9adebab32041f755214dbc6bffa90cc0225b39da2e5c2d3b60405160405180910390a250565b600080823b905060008111915050919050565b606061296b8461294d565b6129aa576040517f08c379a00000000000000000000000000000000000000000000000000000000081526004016129a190613b3b565b60405180910390fd5b6000808573ffffffffffffffffffffffffffffffffffffffff16856040516129d29190613ba2565b600060405180830381855af49150503d8060008114612a0d576040519150601f19603f3d011682016040523d82523d6000602084013e612a12565b606091505b5091509150612a22828286612a2d565b925050509392505050565b60608315612a3d57829050612a8d565b600083511115612a505782518084602001fd5b816040517f08c379a0000000000000000000000000000000000000000000000000000000008152600401612a849190613bfd565b60405180910390fd5b9392505050565b6040518060800160405280600081526020016000815260200160008152602001600081525090565b6000604051905090565b600080fd5b600080fd5b6000819050919050565b612ae381612ad0565b8114612aee57600080fd5b50565b600081359050612b0081612ada565b92915050565b600060208284031215612b1c57612b1b612ac6565b5b6000612b2a84828501612af1565b91505092915050565b612b3c81612ad0565b82525050565b6000602082019050612b576000830184612b33565b92915050565b600073ffffffffffffffffffffffffffffffffffffffff82169050919050565b6000612b8882612b5d565b9050919050565b612b9881612b7d565b8114612ba357600080fd5b50565b600081359050612bb581612b8f565b92915050565b600060208284031215612bd157612bd0612ac6565b5b6000612bdf84828501612ba6565b91505092915050565b612bf181612ad0565b82525050565b608082016000820151612c0d6000850182612be8565b506020820151612c206020850182612be8565b506040820151612c336040850182612be8565b506060820151612c466060850182612be8565b50505050565b6000608082019050612c616000830184612bf7565b92915050565b600081519050919050565b600082825260208201905092915050565b6000819050602082019050919050565b6000612c9f8383612be8565b60208301905092915050565b6000602082019050919050565b6000612cc382612c67565b612ccd8185612c72565b9350612cd883612c83565b8060005b83811015612d09578151612cf08882612c93565b9750612cfb83612cab565b925050600181019050612cdc565b5085935050505092915050565b60006020820190508181036000830152612d308184612cb8565b905092915050565b612d4181612b7d565b82525050565b6000602082019050612d5c6000830184612d38565b92915050565b600080600080600060a08688031215612d7e57612d7d612ac6565b5b6000612d8c88828901612ba6565b9550506020612d9d88828901612af1565b9450506040612dae88828901612af1565b9350506060612dbf88828901612af1565b9250506080612dd088828901612af1565b9150509295509295909350565b6000608082019050612df26000830187612b33565b612dff6020830186612b33565b612e0c6040830185612b33565b612e196060830184612b33565b95945050505050565b600080fd5b600080fd5b6000601f19601f8301169050919050565b7f4e487b7100000000000000000000000000000000000000000000000000000000600052604160045260246000fd5b612e7582612e2c565b810181811067ffffffffffffffff82111715612e9457612e93612e3d565b5b80604052505050565b6000612ea7612abc565b9050612eb38282612e6c565b919050565b600067ffffffffffffffff821115612ed357612ed2612e3d565b5b612edc82612e2c565b9050602081019050919050565b82818337600083830152505050565b6000612f0b612f0684612eb8565b612e9d565b905082815260208101848484011115612f2757612f26612e27565b5b612f32848285612ee9565b509392505050565b600082601f830112612f4f57612f4e612e22565b5b8135612f5f848260208601612ef8565b91505092915050565b60008060408385031215612f7f57612f7e612ac6565b5b6000612f8d85828601612ba6565b925050602083013567ffffffffffffffff811115612fae57612fad612acb565b5b612fba85828601612f3a565b9150509250929050565b600080600060608486031215612fdd57612fdc612ac6565b5b6000612feb86828701612ba6565b9350506020612ffc86828701612af1565b925050604061300d86828701612af1565b9150509250925092565b6000819050919050565b600061303c61303761303284612b5d565b613017565b612b5d565b9050919050565b600061304e82613021565b9050919050565b600061306082613043565b9050919050565b61307081613055565b82525050565b600060208201905061308b6000830184613067565b92915050565b6000806000606084860312156130aa576130a9612ac6565b5b60006130b886828701612ba6565b93505060206130c986828701612ba6565b92505060406130da86828701612ba6565b9150509250925092565b600080604083850312156130fb576130fa612ac6565b5b600061310985828601612ba6565b925050602061311a85828601612af1565b9150509250929050565b60006060820190506131396000830186612b33565b6131466020830185612b33565b6131536040830184612b33565b949350505050565b6000806040838503121561317257613171612ac6565b5b600061318085828601612ba6565b925050602061319185828601612ba6565b9150509250929050565b6000815190506131aa81612ada565b92915050565b6000602082840312156131c6576131c5612ac6565b5b60006131d48482850161319b565b91505092915050565b7f4e487b7100000000000000000000000000000000000000000000000000000000600052601160045260246000fd5b600061321782612ad0565b915061322283612ad0565b9250817fffffffffffffffffffffffffffffffffffffffffffffffffffffffffffffffff048311821515161561325b5761325a6131dd565b5b828202905092915050565b7f4e487b7100000000000000000000000000000000000000000000000000000000600052601260045260246000fd5b60006132a082612ad0565b91506132ab83612ad0565b9250826132bb576132ba613266565b5b828204905092915050565b6000815190506132d581612b8f565b92915050565b600067ffffffffffffffff8211156132f6576132f5612e3d565b5b6132ff82612e2c565b9050602081019050919050565b60005b8381101561332a57808201518184015260208101905061330f565b83811115613339576000848401525b50505050565b600061335261334d846132db565b612e9d565b90508281526020810184848401111561336e5761336d612e27565b5b61337984828561330c565b509392505050565b600082601f83011261339657613395612e22565b5b81516133a684826020860161333f565b91505092915050565b600080600080600060a086880312156133cb576133ca612ac6565b5b60006133d9888289016132c6565b95505060206133ea8882890161319b565b94505060406133fb8882890161319b565b935050606061340c8882890161319b565b925050608086015167ffffffffffffffff81111561342d5761342c612acb565b5b61343988828901613381565b9150509295509295909350565b600061345182612ad0565b91506000821415613465576134646131dd565b5b600182039050919050565b7f4e487b7100000000000000000000000000000000000000000000000000000000600052603260045260246000fd5b60006134aa82612ad0565b91506134b583612ad0565b9250827fffffffffffffffffffffffffffffffffffffffffffffffffffffffffffffffff038211156134ea576134e96131dd565b5b828201905092915050565b600082825260208201905092915050565b7f46756e6374696f6e206d7573742062652063616c6c6564207468726f7567682060008201527f64656c656761746563616c6c0000000000000000000000000000000000000000602082015250565b6000613562602c836134f5565b915061356d82613506565b604082019050919050565b6000602082019050818103600083015261359181613555565b9050919050565b7f46756e6374696f6e206d7573742062652063616c6c6564207468726f7567682060008201527f6163746976652070726f78790000000000000000000000000000000000000000602082015250565b60006135f4602c836134f5565b91506135ff82613598565b604082019050919050565b60006020820190508181036000830152613623816135e7565b9050919050565b600061363582612ad0565b915061364083612ad0565b925082821015613653576136526131dd565b5b828203905092915050565b7f4e487b7100000000000000000000000000000000000000000000000000000000600052603160045260246000fd5b60006040820190506136a26000830185612d38565b6136af6020830184612b33565b9392505050565b7f4f776e61626c653a2063616c6c6572206973206e6f7420746865206f776e6572600082015250565b60006136ec6020836134f5565b91506136f7826136b6565b602082019050919050565b6000602082019050818103600083015261371b816136df565b9050919050565b7f496e697469616c697a61626c653a20636f6e747261637420697320616c72656160008201527f647920696e697469616c697a6564000000000000000000000000000000000000602082015250565b600061377e602e836134f5565b915061378982613722565b604082019050919050565b600060208201905081810360008301526137ad81613771565b9050919050565b7f4f776e61626c653a206e6577206f776e657220697320746865207a65726f206160008201527f6464726573730000000000000000000000000000000000000000000000000000602082015250565b60006138106026836134f5565b915061381b826137b4565b604082019050919050565b6000602082019050818103600083015261383f81613803565b9050919050565b600081905092915050565b7f476f7665726e616e636500000000000000000000000000000000000000000000600082015250565b6000613887600a83613846565b915061389282613851565b600a82019050919050565b60006138a88261387a565b9150819050919050565b6000819050919050565b6138c5816138b2565b82525050565b60006020820190506138e060008301846138bc565b92915050565b6000602082840312156138fc576138fb612ac6565b5b600061390a848285016132c6565b91505092915050565b7f45524331393637557067726164653a207570677261646520627265616b73206660008201527f7572746865722075706772616465730000000000000000000000000000000000602082015250565b600061396f602f836134f5565b915061397a82613913565b604082019050919050565b6000602082019050818103600083015261399e81613962565b9050919050565b7f496e697469616c697a61626c653a20636f6e7472616374206973206e6f74206960008201527f6e697469616c697a696e67000000000000000000000000000000000000000000602082015250565b6000613a01602b836134f5565b9150613a0c826139a5565b604082019050919050565b60006020820190508181036000830152613a30816139f4565b9050919050565b7f455243313936373a206e657720696d706c656d656e746174696f6e206973206e60008201527f6f74206120636f6e747261637400000000000000000000000000000000000000602082015250565b6000613a93602d836134f5565b9150613a9e82613a37565b604082019050919050565b60006020820190508181036000830152613ac281613a86565b9050919050565b7f416464726573733a2064656c65676174652063616c6c20746f206e6f6e2d636f60008201527f6e74726163740000000000000000000000000000000000000000000000000000602082015250565b6000613b256026836134f5565b9150613b3082613ac9565b604082019050919050565b60006020820190508181036000830152613b5481613b18565b9050919050565b600081519050919050565b600081905092915050565b6000613b7c82613b5b565b613b868185613b66565b9350613b9681856020860161330c565b80840191505092915050565b6000613bae8284613b71565b915081905092915050565b600081519050919050565b6000613bcf82613bb9565b613bd981856134f5565b9350613be981856020860161330c565b613bf281612e2c565b840191505092915050565b60006020820190508181036000830152613c178184613bc4565b90509291505056fe416464726573733a206c6f772d6c6576656c2064656c65676174652063616c6c206661696c6564a264697066735822122047524604e8e5c3a971cbb813f7810734c6c5bd63578fe99ba3f3f51586214e7064736f6c634300080b0033",
  "devdoc": {
    "errors": {
      "CallerNotManager(address)": [
        {
          "params": {
            "caller": "`msg.sender` that called the function."
          }
        }
      ],
      "NoStakedCelo(address)": [
        {
          "params": {
            "account": "The account's address."
          }
        }
      ],
      "NotEnoughStakedCelo(address)": [
        {
          "params": {
            "account": "The account's address."
          }
        }
      ]
    },
    "events": {
      "LockedStCeloInVoting(address,uint256)": {
        "params": {
          "account": "The account's address.",
          "lockedCelo": "The stCELO that is still being locked."
        }
      },
      "ProposalVoted(address,uint256,uint256,uint256,uint256)": {
        "params": {
          "abstainVotes": "The abstain votes.",
          "noVotes": "The no votes.",
          "proposalId": "The proposal UIID.",
          "voter": "The voter's address.",
          "yesVotes": "The yes votes."
        }
      }
    },
    "kind": "dev",
    "methods": {
      "deleteExpiredProposalTimestamp(uint256)": {
        "params": {
          "proposalId": "The proposal Id."
        }
      },
      "deleteExpiredVoterProposalId(address,uint256,uint256)": {
        "params": {
          "index": "Index of voter's proposal id.",
          "proposalId": "The proposal id.",
          "voter": "The voter address."
        }
      },
      "getLockedStCeloInVoting(address)": {
        "params": {
          "beneficiary": "The account."
        }
      },
      "getProposalTimestamp(uint256)": {
        "params": {
          "proposalId": "The proposal UUID."
        },
        "returns": {
          "_0": "The timestamp of proposal."
        }
      },
      "getReferendumDuration()": {
        "returns": {
          "_0": "Governance referendum duration."
        }
      },
      "getVersionNumber()": {
        "returns": {
          "_0": "Storage version of the contract.",
          "_1": "Major version of the contract.",
          "_2": "Minor version of the contract.",
          "_3": "Patch version of the contract."
        }
      },
      "getVoteRecord(uint256)": {
        "params": {
          "proposalId": "The proposal UUID."
        }
      },
      "getVoteWeight(address)": {
        "params": {
          "beneficiary": "The account."
        }
      },
      "getVotedStillRelevantProposals(address)": {
        "details": "For up to date result call updateHistoryAndReturnLockedStCeloInVoting first.",
        "params": {
          "voter": "The voter."
        },
        "returns": {
          "_0": "Proposals in referendum stage."
        }
      },
      "initialize(address,address,address)": {
        "params": {
          "_manager": "The address of the contract manager.",
          "_owner": "The address of the contract owner.",
          "_registry": "The address of the Celo Registry."
        }
      },
      "owner()": {
        "details": "Returns the address of the current owner."
      },
      "renounceOwnership()": {
        "details": "Leaves the contract without owner. It will not be possible to call `onlyOwner` functions anymore. Can only be called by the current owner. NOTE: Renouncing ownership will leave the contract without an owner, thereby removing any functionality that is only available to the owner."
      },
      "revokeVotes(address,uint256)": {
        "params": {
          "accountVoter": "The account that is voting.",
          "proposalId": "The ID of the proposal to vote on."
        },
        "returns": {
          "totalAbstainVotes": "SUM of all AccountContract abstain votes for proposal.",
          "totalNoVotes": "SUM of all AccountContract no votes for proposal.",
          "totalYesVotes": "SUM of all AccountContract yes votes for proposal."
        }
      },
      "setDependencies(address,address)": {
        "details": "The StakedCelo contracts all reference each other so we need a way of setting these after all contracts are deployed and initialized.",
        "params": {
          "_account": "The address of the Account contract.",
          "_stakedCelo": "the address of the StakedCelo contract."
        }
      },
      "setManager(address)": {
        "params": {
          "_manager": "The new manager address."
        }
      },
      "toCelo(uint256)": {
        "params": {
          "stCeloAmount": "The amount of stCELO burned."
        },
        "returns": {
          "_0": "The amount of CELO that should be withdrawn."
        }
      },
      "toStakedCelo(uint256)": {
        "params": {
          "celoAmount": "The amount of CELO deposited."
        },
        "returns": {
          "_0": "The amount of stCELO that should be minted."
        }
      },
      "transferOwnership(address)": {
        "details": "Transfers ownership of the contract to a new account (`newOwner`). Can only be called by the current owner."
      },
      "updateHistoryAndReturnLockedStCeloInVoting(address)": {
        "params": {
          "beneficiary": "The beneficiary."
        },
        "returns": {
          "_0": "Currently locked stCELO in voting."
        }
      },
      "upgradeTo(address)": {
        "details": "Upgrade the implementation of the proxy to `newImplementation`. Calls {_authorizeUpgrade}. Emits an {Upgraded} event."
      },
      "upgradeToAndCall(address,bytes)": {
        "details": "Upgrade the implementation of the proxy to `newImplementation`, and subsequently execute the function call encoded in `data`. Calls {_authorizeUpgrade}. Emits an {Upgraded} event."
      },
      "voteProposal(address,uint256,uint256,uint256,uint256)": {
        "params": {
          "abstainVotes": "The abstain votes weight.",
          "accountVoter": "The account that is voting.",
          "noVotes": "The no votes weight.",
          "proposalId": "The ID of the proposal to vote on.",
          "yesVotes": "The yes votes weight."
        },
        "returns": {
          "_0": "totalWeights Account's staked celo balance.",
          "totalAbstainVotes": "SUM of all AccountContract abstain votes for proposal.",
          "totalNoVotes": "SUM of all AccountContract no votes for proposal.",
          "totalYesVotes": "SUM of all AccountContract yes votes for proposal."
        }
      }
    },
    "title": "Handles governance voting for CELO in protocol.",
    "version": 1
  },
  "userdoc": {
    "errors": {
      "AddressZeroNotAllowed()": [
        {
          "notice": "Used when attempting to pass in address zero where not allowed."
        }
      ],
      "CallerNotManager(address)": [
        {
          "notice": "Used when an `onlyManager` function is called by a non-manager."
        }
      ],
      "IncorrectIndex()": [
        {
          "notice": "Used when attempting to delete voter's proposal id with incorrect index."
        }
      ],
      "NoStakedCelo(address)": [
        {
          "notice": "Used when attempting to vote when there is no stCELO."
        }
      ],
      "NotEnoughStakedCelo(address)": [
        {
          "notice": "Used when attempting to vote when there is not enough of stCELO."
        }
      ],
      "NullAddress()": [
        {
          "notice": "Used when a passed address is address(0)."
        }
      ],
      "ProposalNotExpired()": [
        {
          "notice": "Used when attempting to delete voter's proposal id when proposal is not expired."
        }
      ]
    },
    "events": {
      "LockedStCeloInVoting(address,uint256)": {
        "notice": "Emitted when unlock of stCELO is requested."
      },
      "ManagerSet(address)": {
        "notice": "Emitted when the manager is initially set or later modified."
      },
      "ProposalVoted(address,uint256,uint256,uint256,uint256)": {
        "notice": "Emitted when an account votes for governance proposal."
      }
    },
    "kind": "user",
    "methods": {
      "constructor": {
        "notice": "Empty constructor for proxy implementation, `initializer` modifer ensures the implementation gets initialized."
      },
      "deleteExpiredProposalTimestamp(uint256)": {
        "notice": "Deletes timestamp of expired proposal from storage."
      },
      "deleteExpiredVoterProposalId(address,uint256,uint256)": {
        "notice": "Deletes proposalId from voter's history if proposal expired."
      },
      "getLockedStCeloInVoting(address)": {
        "notice": "Returns currently locked stCELO in voting. (This stCELO cannot be unlocked.)"
      },
      "getProposalTimestamp(uint256)": {
        "notice": "Returns save timestamp of proposal."
      },
      "getVersionNumber()": {
        "notice": "Returns the storage, major, minor, and patch version of the contract."
      },
      "getVoteRecord(uint256)": {
        "notice": "Gets vote record of proposal."
      },
      "getVoteWeight(address)": {
        "notice": "Returns vote weight of account owning stCELO."
      },
      "getVotedStillRelevantProposals(address)": {
        "notice": "Returns proposals still in referendum stage that voter voted on."
      },
      "initialize(address,address,address)": {
        "notice": "Initialize the contract with registry and owner."
      },
      "proposalTimestamps(uint256)": {
        "notice": "Timestamps of every voted proposal."
      },
      "registry()": {
        "notice": "The Registry."
      },
      "revokeVotes(address,uint256)": {
        "notice": "Revokes votes on already voted proposal."
      },
      "setDependencies(address,address)": {
        "notice": "Set this contract's dependencies in the StakedCelo system."
      },
      "setManager(address)": {
        "notice": "Sets the manager address."
      },
      "toCelo(uint256)": {
        "notice": "Computes the amount of CELO that should be withdrawn for a given amount of stCELO burned."
      },
      "toStakedCelo(uint256)": {
        "notice": "Computes the amount of stCELO that should be minted for a given amount of CELO deposited."
      },
      "updateHistoryAndReturnLockedStCeloInVoting(address)": {
        "notice": "Updates the beneficiaries voting history and returns locked stCELO in voting. (This stCELO cannot be unlocked.) And it will remove voted proposals from account history if appropriate."
      },
      "voteProposal(address,uint256,uint256,uint256,uint256)": {
        "notice": "Votes on a proposal in the referendum stage."
      }
    },
    "version": 1
  },
  "storageLayout": {
    "storage": [
      {
        "astId": 130,
        "contract": "contracts/Vote.sol:Vote",
        "label": "_initialized",
        "offset": 0,
        "slot": "0",
        "type": "t_bool"
      },
      {
        "astId": 133,
        "contract": "contracts/Vote.sol:Vote",
        "label": "_initializing",
        "offset": 1,
        "slot": "0",
        "type": "t_bool"
      },
      {
        "astId": 584,
        "contract": "contracts/Vote.sol:Vote",
        "label": "__gap",
        "offset": 0,
        "slot": "1",
        "type": "t_array(t_uint256)50_storage"
      },
      {
        "astId": 10,
        "contract": "contracts/Vote.sol:Vote",
        "label": "_owner",
        "offset": 0,
        "slot": "51",
        "type": "t_address"
      },
      {
        "astId": 122,
        "contract": "contracts/Vote.sol:Vote",
        "label": "__gap",
        "offset": 0,
        "slot": "52",
        "type": "t_array(t_uint256)49_storage"
      },
      {
        "astId": 13733,
        "contract": "contracts/Vote.sol:Vote",
        "label": "registry",
        "offset": 0,
        "slot": "101",
        "type": "t_contract(IRegistry)16751"
      },
      {
        "astId": 6996,
        "contract": "contracts/Vote.sol:Vote",
        "label": "manager",
        "offset": 0,
        "slot": "102",
        "type": "t_address"
      },
      {
        "astId": 10690,
        "contract": "contracts/Vote.sol:Vote",
        "label": "stakedCelo",
        "offset": 0,
        "slot": "103",
        "type": "t_contract(IStakedCelo)16894"
      },
      {
        "astId": 10694,
        "contract": "contracts/Vote.sol:Vote",
        "label": "account",
        "offset": 0,
        "slot": "104",
        "type": "t_contract(IAccount)15746"
      },
      {
        "astId": 10700,
        "contract": "contracts/Vote.sol:Vote",
        "label": "voteRecords",
        "offset": 0,
        "slot": "105",
        "type": "t_mapping(t_uint256,t_struct(ProposalVoteRecord)10668_storage)"
      },
      {
        "astId": 10706,
        "contract": "contracts/Vote.sol:Vote",
        "label": "voters",
        "offset": 0,
        "slot": "106",
        "type": "t_mapping(t_address,t_struct(Voter)10677_storage)"
      },
      {
        "astId": 10711,
        "contract": "contracts/Vote.sol:Vote",
        "label": "proposalTimestamps",
        "offset": 0,
        "slot": "107",
        "type": "t_mapping(t_uint256,t_uint256)"
      }
    ],
    "types": {
      "t_address": {
        "encoding": "inplace",
        "label": "address",
        "numberOfBytes": "20"
      },
      "t_array(t_uint256)49_storage": {
        "base": "t_uint256",
        "encoding": "inplace",
        "label": "uint256[49]",
        "numberOfBytes": "1568"
      },
      "t_array(t_uint256)50_storage": {
        "base": "t_uint256",
        "encoding": "inplace",
        "label": "uint256[50]",
        "numberOfBytes": "1600"
      },
      "t_array(t_uint256)dyn_storage": {
        "base": "t_uint256",
        "encoding": "dynamic_array",
        "label": "uint256[]",
        "numberOfBytes": "32"
      },
      "t_bool": {
        "encoding": "inplace",
        "label": "bool",
        "numberOfBytes": "1"
      },
      "t_contract(IAccount)15746": {
        "encoding": "inplace",
        "label": "contract IAccount",
        "numberOfBytes": "20"
      },
      "t_contract(IRegistry)16751": {
        "encoding": "inplace",
        "label": "contract IRegistry",
        "numberOfBytes": "20"
      },
      "t_contract(IStakedCelo)16894": {
        "encoding": "inplace",
        "label": "contract IStakedCelo",
        "numberOfBytes": "20"
      },
      "t_mapping(t_address,t_struct(Voter)10677_storage)": {
        "encoding": "mapping",
        "key": "t_address",
        "label": "mapping(address => struct Vote.Voter)",
        "numberOfBytes": "32",
        "value": "t_struct(Voter)10677_storage"
      },
      "t_mapping(t_uint256,t_struct(ProposalVoteRecord)10668_storage)": {
        "encoding": "mapping",
        "key": "t_uint256",
        "label": "mapping(uint256 => struct Vote.ProposalVoteRecord)",
        "numberOfBytes": "32",
        "value": "t_struct(ProposalVoteRecord)10668_storage"
      },
      "t_mapping(t_uint256,t_struct(VoterRecord)10686_storage)": {
        "encoding": "mapping",
        "key": "t_uint256",
        "label": "mapping(uint256 => struct Vote.VoterRecord)",
        "numberOfBytes": "32",
        "value": "t_struct(VoterRecord)10686_storage"
      },
      "t_mapping(t_uint256,t_uint256)": {
        "encoding": "mapping",
        "key": "t_uint256",
        "label": "mapping(uint256 => uint256)",
        "numberOfBytes": "32",
        "value": "t_uint256"
      },
      "t_struct(ProposalVoteRecord)10668_storage": {
        "encoding": "inplace",
        "label": "struct Vote.ProposalVoteRecord",
        "members": [
          {
            "astId": 10661,
            "contract": "contracts/Vote.sol:Vote",
            "label": "proposalId",
            "offset": 0,
            "slot": "0",
            "type": "t_uint256"
          },
          {
            "astId": 10663,
            "contract": "contracts/Vote.sol:Vote",
            "label": "yesVotes",
            "offset": 0,
            "slot": "1",
            "type": "t_uint256"
          },
          {
            "astId": 10665,
            "contract": "contracts/Vote.sol:Vote",
            "label": "noVotes",
            "offset": 0,
            "slot": "2",
            "type": "t_uint256"
          },
          {
            "astId": 10667,
            "contract": "contracts/Vote.sol:Vote",
            "label": "abstainVotes",
            "offset": 0,
            "slot": "3",
            "type": "t_uint256"
          }
        ],
        "numberOfBytes": "128"
      },
      "t_struct(Voter)10677_storage": {
        "encoding": "inplace",
        "label": "struct Vote.Voter",
        "members": [
          {
            "astId": 10673,
            "contract": "contracts/Vote.sol:Vote",
            "label": "proposalVotes",
            "offset": 0,
            "slot": "0",
            "type": "t_mapping(t_uint256,t_struct(VoterRecord)10686_storage)"
          },
          {
            "astId": 10676,
            "contract": "contracts/Vote.sol:Vote",
            "label": "votedProposalIds",
            "offset": 0,
            "slot": "1",
            "type": "t_array(t_uint256)dyn_storage"
          }
        ],
        "numberOfBytes": "64"
      },
      "t_struct(VoterRecord)10686_storage": {
        "encoding": "inplace",
        "label": "struct Vote.VoterRecord",
        "members": [
          {
            "astId": 10679,
            "contract": "contracts/Vote.sol:Vote",
            "label": "proposalId",
            "offset": 0,
            "slot": "0",
            "type": "t_uint256"
          },
          {
            "astId": 10681,
            "contract": "contracts/Vote.sol:Vote",
            "label": "yesVotes",
            "offset": 0,
            "slot": "1",
            "type": "t_uint256"
          },
          {
            "astId": 10683,
            "contract": "contracts/Vote.sol:Vote",
            "label": "noVotes",
            "offset": 0,
            "slot": "2",
            "type": "t_uint256"
          },
          {
            "astId": 10685,
            "contract": "contracts/Vote.sol:Vote",
            "label": "abstainVotes",
            "offset": 0,
            "slot": "3",
            "type": "t_uint256"
          }
        ],
        "numberOfBytes": "128"
      },
      "t_uint256": {
        "encoding": "inplace",
        "label": "uint256",
        "numberOfBytes": "32"
      }
    }
  }
}